{
	"contracts used for  RC system/preburnpremint.sol": {
		"PreBurnPreMint": {
			"abi": [
				{
					"inputs": [
						{
							"internalType": "contract IERC721",
							"name": "_nft",
							"type": "address"
						},
						{
							"internalType": "contract ISimpleDAI",
							"name": "_dai",
							"type": "address"
						}
					],
					"stateMutability": "nonpayable",
					"type": "constructor"
				},
				{
					"anonymous": false,
					"inputs": [
						{
							"indexed": true,
							"internalType": "uint256",
							"name": "lockId",
							"type": "uint256"
						},
						{
							"indexed": true,
							"internalType": "uint256",
							"name": "nftId",
							"type": "uint256"
						},
						{
							"indexed": false,
							"internalType": "uint256",
							"name": "unlockBlock",
							"type": "uint256"
						},
						{
							"indexed": true,
							"internalType": "address",
							"name": "owner",
							"type": "address"
						}
					],
					"name": "PreBurnLocked",
					"type": "event"
				},
				{
					"anonymous": false,
					"inputs": [
						{
							"indexed": true,
							"internalType": "uint256",
							"name": "lockId",
							"type": "uint256"
						},
						{
							"indexed": true,
							"internalType": "uint256",
							"name": "nftId",
							"type": "uint256"
						},
						{
							"indexed": true,
							"internalType": "address",
							"name": "to",
							"type": "address"
						}
					],
					"name": "PreBurnSettled",
					"type": "event"
				},
				{
					"anonymous": false,
					"inputs": [
						{
							"indexed": true,
							"internalType": "uint256",
							"name": "lockId",
							"type": "uint256"
						},
						{
							"indexed": true,
							"internalType": "uint256",
							"name": "nftId",
							"type": "uint256"
						},
						{
							"indexed": false,
							"internalType": "uint256",
							"name": "daiAmount",
							"type": "uint256"
						}
					],
					"name": "PreMint",
					"type": "event"
				},
				{
					"anonymous": false,
					"inputs": [
						{
							"indexed": true,
							"internalType": "uint256",
							"name": "lockId",
							"type": "uint256"
						},
						{
							"indexed": false,
							"internalType": "uint256",
							"name": "daiAmount",
							"type": "uint256"
						},
						{
							"indexed": true,
							"internalType": "address",
							"name": "to",
							"type": "address"
						}
					],
					"name": "PreMintSettled",
					"type": "event"
				},
				{
					"inputs": [],
					"name": "burnToMintAddress",
					"outputs": [
						{
							"internalType": "address",
							"name": "",
							"type": "address"
						}
					],
					"stateMutability": "view",
					"type": "function"
				},
				{
					"inputs": [],
					"name": "dai",
					"outputs": [
						{
							"internalType": "contract ISimpleDAI",
							"name": "",
							"type": "address"
						}
					],
					"stateMutability": "view",
					"type": "function"
				},
				{
					"inputs": [],
					"name": "lockIndex",
					"outputs": [
						{
							"internalType": "uint256",
							"name": "",
							"type": "uint256"
						}
					],
					"stateMutability": "view",
					"type": "function"
				},
				{
					"inputs": [],
					"name": "lockPeriod",
					"outputs": [
						{
							"internalType": "uint256",
							"name": "",
							"type": "uint256"
						}
					],
					"stateMutability": "view",
					"type": "function"
				},
				{
					"inputs": [
						{
							"internalType": "uint256",
							"name": "",
							"type": "uint256"
						}
					],
					"name": "lockedNfts",
					"outputs": [
						{
							"internalType": "uint256",
							"name": "nftId",
							"type": "uint256"
						},
						{
							"internalType": "uint256",
							"name": "unlockBlock",
							"type": "uint256"
						},
						{
							"internalType": "address",
							"name": "owner",
							"type": "address"
						},
						{
							"internalType": "uint256",
							"name": "daiAmount",
							"type": "uint256"
						},
						{
							"internalType": "bool",
							"name": "settled",
							"type": "bool"
						}
					],
					"stateMutability": "view",
					"type": "function"
				},
				{
					"inputs": [],
					"name": "nft",
					"outputs": [
						{
							"internalType": "contract IERC721",
							"name": "",
							"type": "address"
						}
					],
					"stateMutability": "view",
					"type": "function"
				},
				{
					"inputs": [
						{
							"internalType": "uint256",
							"name": "nftId",
							"type": "uint256"
						},
						{
							"internalType": "uint256",
							"name": "unlockBlock",
							"type": "uint256"
						},
						{
							"internalType": "address",
							"name": "to",
							"type": "address"
						}
					],
					"name": "preBurn",
					"outputs": [],
					"stateMutability": "nonpayable",
					"type": "function"
				},
				{
					"inputs": [
						{
							"internalType": "uint256",
							"name": "lockId",
							"type": "uint256"
						},
						{
							"internalType": "uint256",
							"name": "daiAmount",
							"type": "uint256"
						}
					],
					"name": "preMint",
					"outputs": [],
					"stateMutability": "nonpayable",
					"type": "function"
				},
				{
					"inputs": [
						{
							"internalType": "address",
							"name": "_burnToMintAddress",
							"type": "address"
						}
					],
					"name": "setBurnToMintAddress",
					"outputs": [],
					"stateMutability": "nonpayable",
					"type": "function"
				},
				{
					"inputs": [
						{
							"internalType": "uint256",
							"name": "_lockPeriod",
							"type": "uint256"
						}
					],
					"name": "setLockPeriod",
					"outputs": [],
					"stateMutability": "nonpayable",
					"type": "function"
				},
				{
					"inputs": [
						{
							"internalType": "uint256",
							"name": "lockId",
							"type": "uint256"
						},
						{
							"internalType": "uint256",
							"name": "nftId",
							"type": "uint256"
						},
						{
							"internalType": "address",
							"name": "to",
							"type": "address"
						},
						{
							"internalType": "uint256",
							"name": "currentBlockNumber",
							"type": "uint256"
						}
					],
					"name": "settlePreBurn",
					"outputs": [],
					"stateMutability": "nonpayable",
					"type": "function"
				},
				{
					"inputs": [
						{
							"internalType": "uint256",
							"name": "lockId",
							"type": "uint256"
						},
						{
							"internalType": "address",
							"name": "to",
							"type": "address"
						}
					],
					"name": "settlePreMint",
					"outputs": [],
					"stateMutability": "nonpayable",
					"type": "function"
				}
			],
			"devdoc": {
				"kind": "dev",
				"methods": {},
				"version": 1
			},
			"evm": {
				"assembly": "    /* \"contracts used for\\xc2\\xa0 RC system/preburnpremint.sol\":115:2980  contract PreBurnPreMint {... */\n  mstore(0x40, 0x80)\n    /* \"contracts used for\\xc2\\xa0 RC system/preburnpremint.sol\":266:268  20 */\n  0x14\n    /* \"contracts used for\\xc2\\xa0 RC system/preburnpremint.sol\":238:268  uint256 public lockPeriod = 20 */\n  0x03\n  sstore\n    /* \"contracts used for\\xc2\\xa0 RC system/preburnpremint.sol\":913:1006  constructor(IERC721 _nft, ISimpleDAI _dai) {... */\n  callvalue\n  dup1\n  iszero\n  tag_1\n  jumpi\n  0x00\n  dup1\n  revert\ntag_1:\n  pop\n  mload(0x40)\n  sub(codesize, bytecodeSize)\n  dup1\n  bytecodeSize\n  dup4\n  codecopy\n  dup2\n  dup2\n  add\n  0x40\n  mstore\n  dup2\n  add\n  swap1\n  tag_2\n  swap2\n  swap1\n  tag_3\n  jump\t// in\ntag_2:\n    /* \"contracts used for\\xc2\\xa0 RC system/preburnpremint.sol\":973:977  _nft */\n  dup2\n    /* \"contracts used for\\xc2\\xa0 RC system/preburnpremint.sol\":967:970  nft */\n  0x00\n  dup1\n    /* \"contracts used for\\xc2\\xa0 RC system/preburnpremint.sol\":967:977  nft = _nft */\n  0x0100\n  exp\n  dup2\n  sload\n  dup2\n  0xffffffffffffffffffffffffffffffffffffffff\n  mul\n  not\n  and\n  swap1\n  dup4\n  0xffffffffffffffffffffffffffffffffffffffff\n  and\n  mul\n  or\n  swap1\n  sstore\n  pop\n    /* \"contracts used for\\xc2\\xa0 RC system/preburnpremint.sol\":994:998  _dai */\n  dup1\n    /* \"contracts used for\\xc2\\xa0 RC system/preburnpremint.sol\":988:991  dai */\n  0x01\n  0x00\n    /* \"contracts used for\\xc2\\xa0 RC system/preburnpremint.sol\":988:998  dai = _dai */\n  0x0100\n  exp\n  dup2\n  sload\n  dup2\n  0xffffffffffffffffffffffffffffffffffffffff\n  mul\n  not\n  and\n  swap1\n  dup4\n  0xffffffffffffffffffffffffffffffffffffffff\n  and\n  mul\n  or\n  swap1\n  sstore\n  pop\n    /* \"contracts used for\\xc2\\xa0 RC system/preburnpremint.sol\":913:1006  constructor(IERC721 _nft, ISimpleDAI _dai) {... */\n  pop\n  pop\n    /* \"contracts used for\\xc2\\xa0 RC system/preburnpremint.sol\":115:2980  contract PreBurnPreMint {... */\n  jump(tag_6)\n    /* \"#utility.yul\":88:205   */\ntag_8:\n    /* \"#utility.yul\":197:198   */\n  0x00\n    /* \"#utility.yul\":194:195   */\n  dup1\n    /* \"#utility.yul\":187:199   */\n  revert\n    /* \"#utility.yul\":334:460   */\ntag_10:\n    /* \"#utility.yul\":371:378   */\n  0x00\n    /* \"#utility.yul\":411:453   */\n  0xffffffffffffffffffffffffffffffffffffffff\n    /* \"#utility.yul\":404:409   */\n  dup3\n    /* \"#utility.yul\":400:454   */\n  and\n    /* \"#utility.yul\":389:454   */\n  swap1\n  pop\n    /* \"#utility.yul\":334:460   */\n  swap2\n  swap1\n  pop\n  jump\t// out\n    /* \"#utility.yul\":466:562   */\ntag_11:\n    /* \"#utility.yul\":503:510   */\n  0x00\n    /* \"#utility.yul\":532:556   */\n  tag_24\n    /* \"#utility.yul\":550:555   */\n  dup3\n    /* \"#utility.yul\":532:556   */\n  tag_10\n  jump\t// in\ntag_24:\n    /* \"#utility.yul\":521:556   */\n  swap1\n  pop\n    /* \"#utility.yul\":466:562   */\n  swap2\n  swap1\n  pop\n  jump\t// out\n    /* \"#utility.yul\":568:679   */\ntag_12:\n    /* \"#utility.yul\":620:627   */\n  0x00\n    /* \"#utility.yul\":649:673   */\n  tag_26\n    /* \"#utility.yul\":667:672   */\n  dup3\n    /* \"#utility.yul\":649:673   */\n  tag_11\n  jump\t// in\ntag_26:\n    /* \"#utility.yul\":638:673   */\n  swap1\n  pop\n    /* \"#utility.yul\":568:679   */\n  swap2\n  swap1\n  pop\n  jump\t// out\n    /* \"#utility.yul\":685:837   */\ntag_13:\n    /* \"#utility.yul\":773:812   */\n  tag_28\n    /* \"#utility.yul\":806:811   */\n  dup2\n    /* \"#utility.yul\":773:812   */\n  tag_12\n  jump\t// in\ntag_28:\n    /* \"#utility.yul\":766:771   */\n  dup2\n    /* \"#utility.yul\":763:813   */\n  eq\n    /* \"#utility.yul\":753:831   */\n  tag_29\n  jumpi\n    /* \"#utility.yul\":827:828   */\n  0x00\n    /* \"#utility.yul\":824:825   */\n  dup1\n    /* \"#utility.yul\":817:829   */\n  revert\n    /* \"#utility.yul\":753:831   */\ntag_29:\n    /* \"#utility.yul\":685:837   */\n  pop\n  jump\t// out\n    /* \"#utility.yul\":843:1016   */\ntag_14:\n    /* \"#utility.yul\":915:920   */\n  0x00\n    /* \"#utility.yul\":946:952   */\n  dup2\n    /* \"#utility.yul\":940:953   */\n  mload\n    /* \"#utility.yul\":931:953   */\n  swap1\n  pop\n    /* \"#utility.yul\":962:1010   */\n  tag_31\n    /* \"#utility.yul\":1004:1009   */\n  dup2\n    /* \"#utility.yul\":962:1010   */\n  tag_13\n  jump\t// in\ntag_31:\n    /* \"#utility.yul\":843:1016   */\n  swap3\n  swap2\n  pop\n  pop\n  jump\t// out\n    /* \"#utility.yul\":1022:1136   */\ntag_15:\n    /* \"#utility.yul\":1077:1084   */\n  0x00\n    /* \"#utility.yul\":1106:1130   */\n  tag_33\n    /* \"#utility.yul\":1124:1129   */\n  dup3\n    /* \"#utility.yul\":1106:1130   */\n  tag_11\n  jump\t// in\ntag_33:\n    /* \"#utility.yul\":1095:1130   */\n  swap1\n  pop\n    /* \"#utility.yul\":1022:1136   */\n  swap2\n  swap1\n  pop\n  jump\t// out\n    /* \"#utility.yul\":1142:1300   */\ntag_16:\n    /* \"#utility.yul\":1233:1275   */\n  tag_35\n    /* \"#utility.yul\":1269:1274   */\n  dup2\n    /* \"#utility.yul\":1233:1275   */\n  tag_15\n  jump\t// in\ntag_35:\n    /* \"#utility.yul\":1226:1231   */\n  dup2\n    /* \"#utility.yul\":1223:1276   */\n  eq\n    /* \"#utility.yul\":1213:1294   */\n  tag_36\n  jumpi\n    /* \"#utility.yul\":1290:1291   */\n  0x00\n    /* \"#utility.yul\":1287:1288   */\n  dup1\n    /* \"#utility.yul\":1280:1292   */\n  revert\n    /* \"#utility.yul\":1213:1294   */\ntag_36:\n    /* \"#utility.yul\":1142:1300   */\n  pop\n  jump\t// out\n    /* \"#utility.yul\":1306:1485   */\ntag_17:\n    /* \"#utility.yul\":1381:1386   */\n  0x00\n    /* \"#utility.yul\":1412:1418   */\n  dup2\n    /* \"#utility.yul\":1406:1419   */\n  mload\n    /* \"#utility.yul\":1397:1419   */\n  swap1\n  pop\n    /* \"#utility.yul\":1428:1479   */\n  tag_38\n    /* \"#utility.yul\":1473:1478   */\n  dup2\n    /* \"#utility.yul\":1428:1479   */\n  tag_16\n  jump\t// in\ntag_38:\n    /* \"#utility.yul\":1306:1485   */\n  swap3\n  swap2\n  pop\n  pop\n  jump\t// out\n    /* \"#utility.yul\":1491:2064   */\ntag_3:\n    /* \"#utility.yul\":1603:1609   */\n  0x00\n    /* \"#utility.yul\":1611:1617   */\n  dup1\n    /* \"#utility.yul\":1660:1662   */\n  0x40\n    /* \"#utility.yul\":1648:1657   */\n  dup4\n    /* \"#utility.yul\":1639:1646   */\n  dup6\n    /* \"#utility.yul\":1635:1658   */\n  sub\n    /* \"#utility.yul\":1631:1663   */\n  slt\n    /* \"#utility.yul\":1628:1747   */\n  iszero\n  tag_40\n  jumpi\n    /* \"#utility.yul\":1666:1745   */\n  tag_41\n  tag_8\n  jump\t// in\ntag_41:\n    /* \"#utility.yul\":1628:1747   */\ntag_40:\n    /* \"#utility.yul\":1786:1787   */\n  0x00\n    /* \"#utility.yul\":1811:1890   */\n  tag_42\n    /* \"#utility.yul\":1882:1889   */\n  dup6\n    /* \"#utility.yul\":1873:1879   */\n  dup3\n    /* \"#utility.yul\":1862:1871   */\n  dup7\n    /* \"#utility.yul\":1858:1880   */\n  add\n    /* \"#utility.yul\":1811:1890   */\n  tag_14\n  jump\t// in\ntag_42:\n    /* \"#utility.yul\":1801:1890   */\n  swap3\n  pop\n    /* \"#utility.yul\":1757:1900   */\n  pop\n    /* \"#utility.yul\":1939:1941   */\n  0x20\n    /* \"#utility.yul\":1965:2047   */\n  tag_43\n    /* \"#utility.yul\":2039:2046   */\n  dup6\n    /* \"#utility.yul\":2030:2036   */\n  dup3\n    /* \"#utility.yul\":2019:2028   */\n  dup7\n    /* \"#utility.yul\":2015:2037   */\n  add\n    /* \"#utility.yul\":1965:2047   */\n  tag_17\n  jump\t// in\ntag_43:\n    /* \"#utility.yul\":1955:2047   */\n  swap2\n  pop\n    /* \"#utility.yul\":1910:2057   */\n  pop\n    /* \"#utility.yul\":1491:2064   */\n  swap3\n  pop\n  swap3\n  swap1\n  pop\n  jump\t// out\n    /* \"contracts used for\\xc2\\xa0 RC system/preburnpremint.sol\":115:2980  contract PreBurnPreMint {... */\ntag_6:\n  dataSize(sub_0)\n  dup1\n  dataOffset(sub_0)\n  0x00\n  codecopy\n  0x00\n  return\nstop\n\nsub_0: assembly {\n        /* \"contracts used for\\xc2\\xa0 RC system/preburnpremint.sol\":115:2980  contract PreBurnPreMint {... */\n      mstore(0x40, 0x80)\n      callvalue\n      dup1\n      iszero\n      tag_1\n      jumpi\n      0x00\n      dup1\n      revert\n    tag_1:\n      pop\n      jumpi(tag_2, lt(calldatasize, 0x04))\n      shr(0xe0, calldataload(0x00))\n      dup1\n      0x907bcd79\n      gt\n      tag_15\n      jumpi\n      dup1\n      0x907bcd79\n      eq\n      tag_9\n      jumpi\n      dup1\n      0xcea20111\n      eq\n      tag_10\n      jumpi\n      dup1\n      0xd0d2c0b2\n      eq\n      tag_11\n      jumpi\n      dup1\n      0xd33df7f8\n      eq\n      tag_12\n      jumpi\n      dup1\n      0xf4b9fa75\n      eq\n      tag_13\n      jumpi\n      dup1\n      0xf7e9d511\n      eq\n      tag_14\n      jumpi\n      jump(tag_2)\n    tag_15:\n      dup1\n      0x0e7735bc\n      eq\n      tag_3\n      jumpi\n      dup1\n      0x2a8d5944\n      eq\n      tag_4\n      jumpi\n      dup1\n      0x3fd8b02f\n      eq\n      tag_5\n      jumpi\n      dup1\n      0x47ccca02\n      eq\n      tag_6\n      jumpi\n      dup1\n      0x717da1d8\n      eq\n      tag_7\n      jumpi\n      dup1\n      0x779972da\n      eq\n      tag_8\n      jumpi\n    tag_2:\n      0x00\n      dup1\n      revert\n        /* \"contracts used for\\xc2\\xa0 RC system/preburnpremint.sol\":491:515  uint256 public lockIndex */\n    tag_3:\n      tag_16\n      tag_17\n      jump\t// in\n    tag_16:\n      mload(0x40)\n      tag_18\n      swap2\n      swap1\n      tag_19\n      jump\t// in\n    tag_18:\n      mload(0x40)\n      dup1\n      swap2\n      sub\n      swap1\n      return\n        /* \"contracts used for\\xc2\\xa0 RC system/preburnpremint.sol\":199:231  address public burnToMintAddress */\n    tag_4:\n      tag_20\n      tag_21\n      jump\t// in\n    tag_20:\n      mload(0x40)\n      tag_22\n      swap2\n      swap1\n      tag_23\n      jump\t// in\n    tag_22:\n      mload(0x40)\n      dup1\n      swap2\n      sub\n      swap1\n      return\n        /* \"contracts used for\\xc2\\xa0 RC system/preburnpremint.sol\":238:268  uint256 public lockPeriod = 20 */\n    tag_5:\n      tag_24\n      tag_25\n      jump\t// in\n    tag_24:\n      mload(0x40)\n      tag_26\n      swap2\n      swap1\n      tag_19\n      jump\t// in\n    tag_26:\n      mload(0x40)\n      dup1\n      swap2\n      sub\n      swap1\n      return\n        /* \"contracts used for\\xc2\\xa0 RC system/preburnpremint.sol\":146:164  IERC721 public nft */\n    tag_6:\n      tag_27\n      tag_28\n      jump\t// in\n    tag_27:\n      mload(0x40)\n      tag_29\n      swap2\n      swap1\n      tag_30\n      jump\t// in\n    tag_29:\n      mload(0x40)\n      dup1\n      swap2\n      sub\n      swap1\n      return\n        /* \"contracts used for\\xc2\\xa0 RC system/preburnpremint.sol\":2324:2742  function settlePreMint(uint256 lockId, address to) external {... */\n    tag_7:\n      tag_31\n      0x04\n      dup1\n      calldatasize\n      sub\n      dup2\n      add\n      swap1\n      tag_32\n      swap2\n      swap1\n      tag_33\n      jump\t// in\n    tag_32:\n      tag_34\n      jump\t// in\n    tag_31:\n      stop\n        /* \"contracts used for\\xc2\\xa0 RC system/preburnpremint.sol\":2881:2977  function setLockPeriod(uint256 _lockPeriod) external {... */\n    tag_8:\n      tag_35\n      0x04\n      dup1\n      calldatasize\n      sub\n      dup2\n      add\n      swap1\n      tag_36\n      swap2\n      swap1\n      tag_37\n      jump\t// in\n    tag_36:\n      tag_38\n      jump\t// in\n    tag_35:\n      stop\n        /* \"contracts used for\\xc2\\xa0 RC system/preburnpremint.sol\":1782:2316  function settlePreBurn(uint256 lockId, uint256 nftId, address to, uint256 currentBlockNumber) external {... */\n    tag_9:\n      tag_39\n      0x04\n      dup1\n      calldatasize\n      sub\n      dup2\n      add\n      swap1\n      tag_40\n      swap2\n      swap1\n      tag_41\n      jump\t// in\n    tag_40:\n      tag_42\n      jump\t// in\n    tag_39:\n      stop\n        /* \"contracts used for\\xc2\\xa0 RC system/preburnpremint.sol\":1432:1774  function preMint(uint256 lockId, uint256 daiAmount) external {... */\n    tag_10:\n      tag_43\n      0x04\n      dup1\n      calldatasize\n      sub\n      dup2\n      add\n      swap1\n      tag_44\n      swap2\n      swap1\n      tag_45\n      jump\t// in\n    tag_44:\n      tag_46\n      jump\t// in\n    tag_43:\n      stop\n        /* \"contracts used for\\xc2\\xa0 RC system/preburnpremint.sol\":438:484  mapping(uint256 => LockInfo) public lockedNfts */\n    tag_11:\n      tag_47\n      0x04\n      dup1\n      calldatasize\n      sub\n      dup2\n      add\n      swap1\n      tag_48\n      swap2\n      swap1\n      tag_37\n      jump\t// in\n    tag_48:\n      tag_49\n      jump\t// in\n    tag_47:\n      mload(0x40)\n      tag_50\n      swap6\n      swap5\n      swap4\n      swap3\n      swap2\n      swap1\n      tag_51\n      jump\t// in\n    tag_50:\n      mload(0x40)\n      dup1\n      swap2\n      sub\n      swap1\n      return\n        /* \"contracts used for\\xc2\\xa0 RC system/preburnpremint.sol\":1014:1424  function preBurn(uint256 nftId, uint256 unlockBlock, address to) external {... */\n    tag_12:\n      tag_52\n      0x04\n      dup1\n      calldatasize\n      sub\n      dup2\n      add\n      swap1\n      tag_53\n      swap2\n      swap1\n      tag_54\n      jump\t// in\n    tag_53:\n      tag_55\n      jump\t// in\n    tag_52:\n      stop\n        /* \"contracts used for\\xc2\\xa0 RC system/preburnpremint.sol\":171:192  ISimpleDAI public dai */\n    tag_13:\n      tag_56\n      tag_57\n      jump\t// in\n    tag_56:\n      mload(0x40)\n      tag_58\n      swap2\n      swap1\n      tag_59\n      jump\t// in\n    tag_58:\n      mload(0x40)\n      dup1\n      swap2\n      sub\n      swap1\n      return\n        /* \"contracts used for\\xc2\\xa0 RC system/preburnpremint.sol\":2750:2873  function setBurnToMintAddress(address _burnToMintAddress) external {... */\n    tag_14:\n      tag_60\n      0x04\n      dup1\n      calldatasize\n      sub\n      dup2\n      add\n      swap1\n      tag_61\n      swap2\n      swap1\n      tag_62\n      jump\t// in\n    tag_61:\n      tag_63\n      jump\t// in\n    tag_60:\n      stop\n        /* \"contracts used for\\xc2\\xa0 RC system/preburnpremint.sol\":491:515  uint256 public lockIndex */\n    tag_17:\n      sload(0x05)\n      dup2\n      jump\t// out\n        /* \"contracts used for\\xc2\\xa0 RC system/preburnpremint.sol\":199:231  address public burnToMintAddress */\n    tag_21:\n      0x02\n      0x00\n      swap1\n      sload\n      swap1\n      0x0100\n      exp\n      swap1\n      div\n      0xffffffffffffffffffffffffffffffffffffffff\n      and\n      dup2\n      jump\t// out\n        /* \"contracts used for\\xc2\\xa0 RC system/preburnpremint.sol\":238:268  uint256 public lockPeriod = 20 */\n    tag_25:\n      sload(0x03)\n      dup2\n      jump\t// out\n        /* \"contracts used for\\xc2\\xa0 RC system/preburnpremint.sol\":146:164  IERC721 public nft */\n    tag_28:\n      0x00\n      dup1\n      sload\n      swap1\n      0x0100\n      exp\n      swap1\n      div\n      0xffffffffffffffffffffffffffffffffffffffff\n      and\n      dup2\n      jump\t// out\n        /* \"contracts used for\\xc2\\xa0 RC system/preburnpremint.sol\":2324:2742  function settlePreMint(uint256 lockId, address to) external {... */\n    tag_34:\n        /* \"contracts used for\\xc2\\xa0 RC system/preburnpremint.sol\":2403:2413  lockedNfts */\n      0x04\n        /* \"contracts used for\\xc2\\xa0 RC system/preburnpremint.sol\":2403:2421  lockedNfts[lockId] */\n      0x00\n        /* \"contracts used for\\xc2\\xa0 RC system/preburnpremint.sol\":2414:2420  lockId */\n      dup4\n        /* \"contracts used for\\xc2\\xa0 RC system/preburnpremint.sol\":2403:2421  lockedNfts[lockId] */\n      dup2\n      mstore\n      0x20\n      add\n      swap1\n      dup2\n      mstore\n      0x20\n      add\n      0x00\n      keccak256\n        /* \"contracts used for\\xc2\\xa0 RC system/preburnpremint.sol\":2403:2429  lockedNfts[lockId].settled */\n      0x04\n      add\n      0x00\n      swap1\n      sload\n      swap1\n      0x0100\n      exp\n      swap1\n      div\n      0xff\n      and\n        /* \"contracts used for\\xc2\\xa0 RC system/preburnpremint.sol\":2395:2454  require(lockedNfts[lockId].settled, \"Pre-burn not settled\") */\n      tag_65\n      jumpi\n      mload(0x40)\n      0x08c379a000000000000000000000000000000000000000000000000000000000\n      dup2\n      mstore\n      0x04\n      add\n      tag_66\n      swap1\n      tag_67\n      jump\t// in\n    tag_66:\n      mload(0x40)\n      dup1\n      swap2\n      sub\n      swap1\n      revert\n    tag_65:\n        /* \"contracts used for\\xc2\\xa0 RC system/preburnpremint.sol\":2501:2511  msg.sender */\n      caller\n        /* \"contracts used for\\xc2\\xa0 RC system/preburnpremint.sol\":2473:2511  lockedNfts[lockId].owner == msg.sender */\n      0xffffffffffffffffffffffffffffffffffffffff\n      and\n        /* \"contracts used for\\xc2\\xa0 RC system/preburnpremint.sol\":2473:2483  lockedNfts */\n      0x04\n        /* \"contracts used for\\xc2\\xa0 RC system/preburnpremint.sol\":2473:2491  lockedNfts[lockId] */\n      0x00\n        /* \"contracts used for\\xc2\\xa0 RC system/preburnpremint.sol\":2484:2490  lockId */\n      dup5\n        /* \"contracts used for\\xc2\\xa0 RC system/preburnpremint.sol\":2473:2491  lockedNfts[lockId] */\n      dup2\n      mstore\n      0x20\n      add\n      swap1\n      dup2\n      mstore\n      0x20\n      add\n      0x00\n      keccak256\n        /* \"contracts used for\\xc2\\xa0 RC system/preburnpremint.sol\":2473:2497  lockedNfts[lockId].owner */\n      0x02\n      add\n      0x00\n      swap1\n      sload\n      swap1\n      0x0100\n      exp\n      swap1\n      div\n      0xffffffffffffffffffffffffffffffffffffffff\n      and\n        /* \"contracts used for\\xc2\\xa0 RC system/preburnpremint.sol\":2473:2511  lockedNfts[lockId].owner == msg.sender */\n      0xffffffffffffffffffffffffffffffffffffffff\n      and\n      eq\n        /* \"contracts used for\\xc2\\xa0 RC system/preburnpremint.sol\":2473:2545  lockedNfts[lockId].owner == msg.sender || lockedNfts[lockId].owner == to */\n      dup1\n      tag_68\n      jumpi\n      pop\n        /* \"contracts used for\\xc2\\xa0 RC system/preburnpremint.sol\":2543:2545  to */\n      dup1\n        /* \"contracts used for\\xc2\\xa0 RC system/preburnpremint.sol\":2515:2545  lockedNfts[lockId].owner == to */\n      0xffffffffffffffffffffffffffffffffffffffff\n      and\n        /* \"contracts used for\\xc2\\xa0 RC system/preburnpremint.sol\":2515:2525  lockedNfts */\n      0x04\n        /* \"contracts used for\\xc2\\xa0 RC system/preburnpremint.sol\":2515:2533  lockedNfts[lockId] */\n      0x00\n        /* \"contracts used for\\xc2\\xa0 RC system/preburnpremint.sol\":2526:2532  lockId */\n      dup5\n        /* \"contracts used for\\xc2\\xa0 RC system/preburnpremint.sol\":2515:2533  lockedNfts[lockId] */\n      dup2\n      mstore\n      0x20\n      add\n      swap1\n      dup2\n      mstore\n      0x20\n      add\n      0x00\n      keccak256\n        /* \"contracts used for\\xc2\\xa0 RC system/preburnpremint.sol\":2515:2539  lockedNfts[lockId].owner */\n      0x02\n      add\n      0x00\n      swap1\n      sload\n      swap1\n      0x0100\n      exp\n      swap1\n      div\n      0xffffffffffffffffffffffffffffffffffffffff\n      and\n        /* \"contracts used for\\xc2\\xa0 RC system/preburnpremint.sol\":2515:2545  lockedNfts[lockId].owner == to */\n      0xffffffffffffffffffffffffffffffffffffffff\n      and\n      eq\n        /* \"contracts used for\\xc2\\xa0 RC system/preburnpremint.sol\":2473:2545  lockedNfts[lockId].owner == msg.sender || lockedNfts[lockId].owner == to */\n    tag_68:\n        /* \"contracts used for\\xc2\\xa0 RC system/preburnpremint.sol\":2465:2567  require(lockedNfts[lockId].owner == msg.sender || lockedNfts[lockId].owner == to, \"Invalid recipient\") */\n      tag_69\n      jumpi\n      mload(0x40)\n      0x08c379a000000000000000000000000000000000000000000000000000000000\n      dup2\n      mstore\n      0x04\n      add\n      tag_70\n      swap1\n      tag_71\n      jump\t// in\n    tag_70:\n      mload(0x40)\n      dup1\n      swap2\n      sub\n      swap1\n      revert\n    tag_69:\n        /* \"contracts used for\\xc2\\xa0 RC system/preburnpremint.sol\":2580:2597  uint256 daiAmount */\n      0x00\n        /* \"contracts used for\\xc2\\xa0 RC system/preburnpremint.sol\":2600:2610  lockedNfts */\n      0x04\n        /* \"contracts used for\\xc2\\xa0 RC system/preburnpremint.sol\":2600:2618  lockedNfts[lockId] */\n      0x00\n        /* \"contracts used for\\xc2\\xa0 RC system/preburnpremint.sol\":2611:2617  lockId */\n      dup5\n        /* \"contracts used for\\xc2\\xa0 RC system/preburnpremint.sol\":2600:2618  lockedNfts[lockId] */\n      dup2\n      mstore\n      0x20\n      add\n      swap1\n      dup2\n      mstore\n      0x20\n      add\n      0x00\n      keccak256\n        /* \"contracts used for\\xc2\\xa0 RC system/preburnpremint.sol\":2600:2628  lockedNfts[lockId].daiAmount */\n      0x03\n      add\n      sload\n        /* \"contracts used for\\xc2\\xa0 RC system/preburnpremint.sol\":2580:2628  uint256 daiAmount = lockedNfts[lockId].daiAmount */\n      swap1\n      pop\n        /* \"contracts used for\\xc2\\xa0 RC system/preburnpremint.sol\":2639:2642  dai */\n      0x01\n      0x00\n      swap1\n      sload\n      swap1\n      0x0100\n      exp\n      swap1\n      div\n      0xffffffffffffffffffffffffffffffffffffffff\n      and\n        /* \"contracts used for\\xc2\\xa0 RC system/preburnpremint.sol\":2639:2664  dai.mintWithoutCollateral */\n      0xffffffffffffffffffffffffffffffffffffffff\n      and\n      0x55313a7b\n        /* \"contracts used for\\xc2\\xa0 RC system/preburnpremint.sol\":2665:2667  to */\n      dup4\n        /* \"contracts used for\\xc2\\xa0 RC system/preburnpremint.sol\":2669:2678  daiAmount */\n      dup4\n        /* \"contracts used for\\xc2\\xa0 RC system/preburnpremint.sol\":2639:2679  dai.mintWithoutCollateral(to, daiAmount) */\n      mload(0x40)\n      dup4\n      0xffffffff\n      and\n      0xe0\n      shl\n      dup2\n      mstore\n      0x04\n      add\n      tag_72\n      swap3\n      swap2\n      swap1\n      tag_73\n      jump\t// in\n    tag_72:\n      0x00\n      mload(0x40)\n      dup1\n      dup4\n      sub\n      dup2\n      0x00\n      dup8\n      dup1\n      extcodesize\n      iszero\n      dup1\n      iszero\n      tag_74\n      jumpi\n      0x00\n      dup1\n      revert\n    tag_74:\n      pop\n      gas\n      call\n      iszero\n      dup1\n      iszero\n      tag_76\n      jumpi\n      returndatasize\n      0x00\n      dup1\n      returndatacopy\n      revert(0x00, returndatasize)\n    tag_76:\n      pop\n      pop\n      pop\n      pop\n        /* \"contracts used for\\xc2\\xa0 RC system/preburnpremint.sol\":2731:2733  to */\n      dup2\n        /* \"contracts used for\\xc2\\xa0 RC system/preburnpremint.sol\":2697:2734  PreMintSettled(lockId, daiAmount, to) */\n      0xffffffffffffffffffffffffffffffffffffffff\n      and\n        /* \"contracts used for\\xc2\\xa0 RC system/preburnpremint.sol\":2712:2718  lockId */\n      dup4\n        /* \"contracts used for\\xc2\\xa0 RC system/preburnpremint.sol\":2697:2734  PreMintSettled(lockId, daiAmount, to) */\n      0xfe8c135c44d0580012634143f58a4a9b01535b58d5d1c250561e610f3204c8d1\n        /* \"contracts used for\\xc2\\xa0 RC system/preburnpremint.sol\":2720:2729  daiAmount */\n      dup4\n        /* \"contracts used for\\xc2\\xa0 RC system/preburnpremint.sol\":2697:2734  PreMintSettled(lockId, daiAmount, to) */\n      mload(0x40)\n      tag_77\n      swap2\n      swap1\n      tag_19\n      jump\t// in\n    tag_77:\n      mload(0x40)\n      dup1\n      swap2\n      sub\n      swap1\n      log3\n        /* \"contracts used for\\xc2\\xa0 RC system/preburnpremint.sol\":2384:2742  {... */\n      pop\n        /* \"contracts used for\\xc2\\xa0 RC system/preburnpremint.sol\":2324:2742  function settlePreMint(uint256 lockId, address to) external {... */\n      pop\n      pop\n      jump\t// out\n        /* \"contracts used for\\xc2\\xa0 RC system/preburnpremint.sol\":2881:2977  function setLockPeriod(uint256 _lockPeriod) external {... */\n    tag_38:\n        /* \"contracts used for\\xc2\\xa0 RC system/preburnpremint.sol\":2958:2969  _lockPeriod */\n      dup1\n        /* \"contracts used for\\xc2\\xa0 RC system/preburnpremint.sol\":2945:2955  lockPeriod */\n      0x03\n        /* \"contracts used for\\xc2\\xa0 RC system/preburnpremint.sol\":2945:2969  lockPeriod = _lockPeriod */\n      dup2\n      swap1\n      sstore\n      pop\n        /* \"contracts used for\\xc2\\xa0 RC system/preburnpremint.sol\":2881:2977  function setLockPeriod(uint256 _lockPeriod) external {... */\n      pop\n      jump\t// out\n        /* \"contracts used for\\xc2\\xa0 RC system/preburnpremint.sol\":1782:2316  function settlePreBurn(uint256 lockId, uint256 nftId, address to, uint256 currentBlockNumber) external {... */\n    tag_42:\n        /* \"contracts used for\\xc2\\xa0 RC system/preburnpremint.sol\":1905:1915  lockedNfts */\n      0x04\n        /* \"contracts used for\\xc2\\xa0 RC system/preburnpremint.sol\":1905:1923  lockedNfts[lockId] */\n      0x00\n        /* \"contracts used for\\xc2\\xa0 RC system/preburnpremint.sol\":1916:1922  lockId */\n      dup6\n        /* \"contracts used for\\xc2\\xa0 RC system/preburnpremint.sol\":1905:1923  lockedNfts[lockId] */\n      dup2\n      mstore\n      0x20\n      add\n      swap1\n      dup2\n      mstore\n      0x20\n      add\n      0x00\n      keccak256\n        /* \"contracts used for\\xc2\\xa0 RC system/preburnpremint.sol\":1905:1931  lockedNfts[lockId].settled */\n      0x04\n      add\n      0x00\n      swap1\n      sload\n      swap1\n      0x0100\n      exp\n      swap1\n      div\n      0xff\n      and\n        /* \"contracts used for\\xc2\\xa0 RC system/preburnpremint.sol\":1904:1931  !lockedNfts[lockId].settled */\n      iszero\n        /* \"contracts used for\\xc2\\xa0 RC system/preburnpremint.sol\":1896:1960  require(!lockedNfts[lockId].settled, \"Pre-burn already settled\") */\n      tag_80\n      jumpi\n      mload(0x40)\n      0x08c379a000000000000000000000000000000000000000000000000000000000\n      dup2\n      mstore\n      0x04\n      add\n      tag_81\n      swap1\n      tag_82\n      jump\t// in\n    tag_81:\n      mload(0x40)\n      dup1\n      swap2\n      sub\n      swap1\n      revert\n    tag_80:\n        /* \"contracts used for\\xc2\\xa0 RC system/preburnpremint.sol\":2001:2011  lockedNfts */\n      0x04\n        /* \"contracts used for\\xc2\\xa0 RC system/preburnpremint.sol\":2001:2019  lockedNfts[lockId] */\n      0x00\n        /* \"contracts used for\\xc2\\xa0 RC system/preburnpremint.sol\":2012:2018  lockId */\n      dup6\n        /* \"contracts used for\\xc2\\xa0 RC system/preburnpremint.sol\":2001:2019  lockedNfts[lockId] */\n      dup2\n      mstore\n      0x20\n      add\n      swap1\n      dup2\n      mstore\n      0x20\n      add\n      0x00\n      keccak256\n        /* \"contracts used for\\xc2\\xa0 RC system/preburnpremint.sol\":2001:2031  lockedNfts[lockId].unlockBlock */\n      0x01\n      add\n      sload\n        /* \"contracts used for\\xc2\\xa0 RC system/preburnpremint.sol\":1979:1997  currentBlockNumber */\n      dup2\n        /* \"contracts used for\\xc2\\xa0 RC system/preburnpremint.sol\":1979:2031  currentBlockNumber >= lockedNfts[lockId].unlockBlock */\n      lt\n      iszero\n        /* \"contracts used for\\xc2\\xa0 RC system/preburnpremint.sol\":1971:2060  require(currentBlockNumber >= lockedNfts[lockId].unlockBlock, \"Unlock block not reached\") */\n      tag_83\n      jumpi\n      mload(0x40)\n      0x08c379a000000000000000000000000000000000000000000000000000000000\n      dup2\n      mstore\n      0x04\n      add\n      tag_84\n      swap1\n      tag_85\n      jump\t// in\n    tag_84:\n      mload(0x40)\n      dup1\n      swap2\n      sub\n      swap1\n      revert\n    tag_83:\n        /* \"contracts used for\\xc2\\xa0 RC system/preburnpremint.sol\":2107:2117  msg.sender */\n      caller\n        /* \"contracts used for\\xc2\\xa0 RC system/preburnpremint.sol\":2079:2117  lockedNfts[lockId].owner == msg.sender */\n      0xffffffffffffffffffffffffffffffffffffffff\n      and\n        /* \"contracts used for\\xc2\\xa0 RC system/preburnpremint.sol\":2079:2089  lockedNfts */\n      0x04\n        /* \"contracts used for\\xc2\\xa0 RC system/preburnpremint.sol\":2079:2097  lockedNfts[lockId] */\n      0x00\n        /* \"contracts used for\\xc2\\xa0 RC system/preburnpremint.sol\":2090:2096  lockId */\n      dup7\n        /* \"contracts used for\\xc2\\xa0 RC system/preburnpremint.sol\":2079:2097  lockedNfts[lockId] */\n      dup2\n      mstore\n      0x20\n      add\n      swap1\n      dup2\n      mstore\n      0x20\n      add\n      0x00\n      keccak256\n        /* \"contracts used for\\xc2\\xa0 RC system/preburnpremint.sol\":2079:2103  lockedNfts[lockId].owner */\n      0x02\n      add\n      0x00\n      swap1\n      sload\n      swap1\n      0x0100\n      exp\n      swap1\n      div\n      0xffffffffffffffffffffffffffffffffffffffff\n      and\n        /* \"contracts used for\\xc2\\xa0 RC system/preburnpremint.sol\":2079:2117  lockedNfts[lockId].owner == msg.sender */\n      0xffffffffffffffffffffffffffffffffffffffff\n      and\n      eq\n        /* \"contracts used for\\xc2\\xa0 RC system/preburnpremint.sol\":2079:2137  lockedNfts[lockId].owner == msg.sender || to == msg.sender */\n      dup1\n      tag_86\n      jumpi\n      pop\n        /* \"contracts used for\\xc2\\xa0 RC system/preburnpremint.sol\":2127:2137  msg.sender */\n      caller\n        /* \"contracts used for\\xc2\\xa0 RC system/preburnpremint.sol\":2121:2137  to == msg.sender */\n      0xffffffffffffffffffffffffffffffffffffffff\n      and\n        /* \"contracts used for\\xc2\\xa0 RC system/preburnpremint.sol\":2121:2123  to */\n      dup3\n        /* \"contracts used for\\xc2\\xa0 RC system/preburnpremint.sol\":2121:2137  to == msg.sender */\n      0xffffffffffffffffffffffffffffffffffffffff\n      and\n      eq\n        /* \"contracts used for\\xc2\\xa0 RC system/preburnpremint.sol\":2079:2137  lockedNfts[lockId].owner == msg.sender || to == msg.sender */\n    tag_86:\n        /* \"contracts used for\\xc2\\xa0 RC system/preburnpremint.sol\":2071:2160  require(lockedNfts[lockId].owner == msg.sender || to == msg.sender, \"Invalid msg.sender\") */\n      tag_87\n      jumpi\n      mload(0x40)\n      0x08c379a000000000000000000000000000000000000000000000000000000000\n      dup2\n      mstore\n      0x04\n      add\n      tag_88\n      swap1\n      tag_89\n      jump\t// in\n    tag_88:\n      mload(0x40)\n      dup1\n      swap2\n      sub\n      swap1\n      revert\n    tag_87:\n        /* \"contracts used for\\xc2\\xa0 RC system/preburnpremint.sol\":2173:2176  nft */\n      0x00\n      dup1\n      sload\n      swap1\n      0x0100\n      exp\n      swap1\n      div\n      0xffffffffffffffffffffffffffffffffffffffff\n      and\n        /* \"contracts used for\\xc2\\xa0 RC system/preburnpremint.sol\":2173:2189  nft.transferFrom */\n      0xffffffffffffffffffffffffffffffffffffffff\n      and\n      0x23b872dd\n        /* \"contracts used for\\xc2\\xa0 RC system/preburnpremint.sol\":2198:2202  this */\n      address\n        /* \"contracts used for\\xc2\\xa0 RC system/preburnpremint.sol\":2205:2207  to */\n      dup5\n        /* \"contracts used for\\xc2\\xa0 RC system/preburnpremint.sol\":2209:2214  nftId */\n      dup7\n        /* \"contracts used for\\xc2\\xa0 RC system/preburnpremint.sol\":2173:2215  nft.transferFrom(address(this), to, nftId) */\n      mload(0x40)\n      dup5\n      0xffffffff\n      and\n      0xe0\n      shl\n      dup2\n      mstore\n      0x04\n      add\n      tag_90\n      swap4\n      swap3\n      swap2\n      swap1\n      tag_91\n      jump\t// in\n    tag_90:\n      0x00\n      mload(0x40)\n      dup1\n      dup4\n      sub\n      dup2\n      0x00\n      dup8\n      dup1\n      extcodesize\n      iszero\n      dup1\n      iszero\n      tag_92\n      jumpi\n      0x00\n      dup1\n      revert\n    tag_92:\n      pop\n      gas\n      call\n      iszero\n      dup1\n      iszero\n      tag_94\n      jumpi\n      returndatasize\n      0x00\n      dup1\n      returndatacopy\n      revert(0x00, returndatasize)\n    tag_94:\n      pop\n      pop\n      pop\n      pop\n        /* \"contracts used for\\xc2\\xa0 RC system/preburnpremint.sol\":2255:2259  true */\n      0x01\n        /* \"contracts used for\\xc2\\xa0 RC system/preburnpremint.sol\":2226:2236  lockedNfts */\n      0x04\n        /* \"contracts used for\\xc2\\xa0 RC system/preburnpremint.sol\":2226:2244  lockedNfts[lockId] */\n      0x00\n        /* \"contracts used for\\xc2\\xa0 RC system/preburnpremint.sol\":2237:2243  lockId */\n      dup7\n        /* \"contracts used for\\xc2\\xa0 RC system/preburnpremint.sol\":2226:2244  lockedNfts[lockId] */\n      dup2\n      mstore\n      0x20\n      add\n      swap1\n      dup2\n      mstore\n      0x20\n      add\n      0x00\n      keccak256\n        /* \"contracts used for\\xc2\\xa0 RC system/preburnpremint.sol\":2226:2252  lockedNfts[lockId].settled */\n      0x04\n      add\n      0x00\n        /* \"contracts used for\\xc2\\xa0 RC system/preburnpremint.sol\":2226:2259  lockedNfts[lockId].settled = true */\n      0x0100\n      exp\n      dup2\n      sload\n      dup2\n      0xff\n      mul\n      not\n      and\n      swap1\n      dup4\n      iszero\n      iszero\n      mul\n      or\n      swap1\n      sstore\n      pop\n        /* \"contracts used for\\xc2\\xa0 RC system/preburnpremint.sol\":2305:2307  to */\n      dup2\n        /* \"contracts used for\\xc2\\xa0 RC system/preburnpremint.sol\":2275:2308  PreBurnSettled(lockId, nftId, to) */\n      0xffffffffffffffffffffffffffffffffffffffff\n      and\n        /* \"contracts used for\\xc2\\xa0 RC system/preburnpremint.sol\":2298:2303  nftId */\n      dup4\n        /* \"contracts used for\\xc2\\xa0 RC system/preburnpremint.sol\":2290:2296  lockId */\n      dup6\n        /* \"contracts used for\\xc2\\xa0 RC system/preburnpremint.sol\":2275:2308  PreBurnSettled(lockId, nftId, to) */\n      0xa1e60122b7eddc5a4b7edbac1f5bb8fd8dd7fd095986ce43a0a2d71ec4d28435\n      mload(0x40)\n      mload(0x40)\n      dup1\n      swap2\n      sub\n      swap1\n      log4\n        /* \"contracts used for\\xc2\\xa0 RC system/preburnpremint.sol\":1782:2316  function settlePreBurn(uint256 lockId, uint256 nftId, address to, uint256 currentBlockNumber) external {... */\n      pop\n      pop\n      pop\n      pop\n      jump\t// out\n        /* \"contracts used for\\xc2\\xa0 RC system/preburnpremint.sol\":1432:1774  function preMint(uint256 lockId, uint256 daiAmount) external {... */\n    tag_46:\n        /* \"contracts used for\\xc2\\xa0 RC system/preburnpremint.sol\":1513:1523  lockedNfts */\n      0x04\n        /* \"contracts used for\\xc2\\xa0 RC system/preburnpremint.sol\":1513:1531  lockedNfts[lockId] */\n      0x00\n        /* \"contracts used for\\xc2\\xa0 RC system/preburnpremint.sol\":1524:1530  lockId */\n      dup4\n        /* \"contracts used for\\xc2\\xa0 RC system/preburnpremint.sol\":1513:1531  lockedNfts[lockId] */\n      dup2\n      mstore\n      0x20\n      add\n      swap1\n      dup2\n      mstore\n      0x20\n      add\n      0x00\n      keccak256\n        /* \"contracts used for\\xc2\\xa0 RC system/preburnpremint.sol\":1513:1539  lockedNfts[lockId].settled */\n      0x04\n      add\n      0x00\n      swap1\n      sload\n      swap1\n      0x0100\n      exp\n      swap1\n      div\n      0xff\n      and\n        /* \"contracts used for\\xc2\\xa0 RC system/preburnpremint.sol\":1512:1539  !lockedNfts[lockId].settled */\n      iszero\n        /* \"contracts used for\\xc2\\xa0 RC system/preburnpremint.sol\":1504:1568  require(!lockedNfts[lockId].settled, \"Pre-burn already settled\") */\n      tag_96\n      jumpi\n      mload(0x40)\n      0x08c379a000000000000000000000000000000000000000000000000000000000\n      dup2\n      mstore\n      0x04\n      add\n      tag_97\n      swap1\n      tag_82\n      jump\t// in\n    tag_97:\n      mload(0x40)\n      dup1\n      swap2\n      sub\n      swap1\n      revert\n    tag_96:\n        /* \"contracts used for\\xc2\\xa0 RC system/preburnpremint.sol\":1623:1624  0 */\n      0x00\n        /* \"contracts used for\\xc2\\xa0 RC system/preburnpremint.sol\":1587:1625  lockedNfts[lockId].owner != address(0) */\n      0xffffffffffffffffffffffffffffffffffffffff\n      and\n        /* \"contracts used for\\xc2\\xa0 RC system/preburnpremint.sol\":1587:1597  lockedNfts */\n      0x04\n        /* \"contracts used for\\xc2\\xa0 RC system/preburnpremint.sol\":1587:1605  lockedNfts[lockId] */\n      0x00\n        /* \"contracts used for\\xc2\\xa0 RC system/preburnpremint.sol\":1598:1604  lockId */\n      dup5\n        /* \"contracts used for\\xc2\\xa0 RC system/preburnpremint.sol\":1587:1605  lockedNfts[lockId] */\n      dup2\n      mstore\n      0x20\n      add\n      swap1\n      dup2\n      mstore\n      0x20\n      add\n      0x00\n      keccak256\n        /* \"contracts used for\\xc2\\xa0 RC system/preburnpremint.sol\":1587:1611  lockedNfts[lockId].owner */\n      0x02\n      add\n      0x00\n      swap1\n      sload\n      swap1\n      0x0100\n      exp\n      swap1\n      div\n      0xffffffffffffffffffffffffffffffffffffffff\n      and\n        /* \"contracts used for\\xc2\\xa0 RC system/preburnpremint.sol\":1587:1625  lockedNfts[lockId].owner != address(0) */\n      0xffffffffffffffffffffffffffffffffffffffff\n      and\n      eq\n      iszero\n        /* \"contracts used for\\xc2\\xa0 RC system/preburnpremint.sol\":1579:1645  require(lockedNfts[lockId].owner != address(0), \"Invalid lock ID\") */\n      tag_98\n      jumpi\n      mload(0x40)\n      0x08c379a000000000000000000000000000000000000000000000000000000000\n      dup2\n      mstore\n      0x04\n      add\n      tag_99\n      swap1\n      tag_100\n      jump\t// in\n    tag_99:\n      mload(0x40)\n      dup1\n      swap2\n      sub\n      swap1\n      revert\n    tag_98:\n        /* \"contracts used for\\xc2\\xa0 RC system/preburnpremint.sol\":1689:1698  daiAmount */\n      dup1\n        /* \"contracts used for\\xc2\\xa0 RC system/preburnpremint.sol\":1658:1668  lockedNfts */\n      0x04\n        /* \"contracts used for\\xc2\\xa0 RC system/preburnpremint.sol\":1658:1676  lockedNfts[lockId] */\n      0x00\n        /* \"contracts used for\\xc2\\xa0 RC system/preburnpremint.sol\":1669:1675  lockId */\n      dup5\n        /* \"contracts used for\\xc2\\xa0 RC system/preburnpremint.sol\":1658:1676  lockedNfts[lockId] */\n      dup2\n      mstore\n      0x20\n      add\n      swap1\n      dup2\n      mstore\n      0x20\n      add\n      0x00\n      keccak256\n        /* \"contracts used for\\xc2\\xa0 RC system/preburnpremint.sol\":1658:1686  lockedNfts[lockId].daiAmount */\n      0x03\n      add\n        /* \"contracts used for\\xc2\\xa0 RC system/preburnpremint.sol\":1658:1698  lockedNfts[lockId].daiAmount = daiAmount */\n      dup2\n      swap1\n      sstore\n      pop\n        /* \"contracts used for\\xc2\\xa0 RC system/preburnpremint.sol\":1730:1740  lockedNfts */\n      0x04\n        /* \"contracts used for\\xc2\\xa0 RC system/preburnpremint.sol\":1730:1748  lockedNfts[lockId] */\n      0x00\n        /* \"contracts used for\\xc2\\xa0 RC system/preburnpremint.sol\":1741:1747  lockId */\n      dup4\n        /* \"contracts used for\\xc2\\xa0 RC system/preburnpremint.sol\":1730:1748  lockedNfts[lockId] */\n      dup2\n      mstore\n      0x20\n      add\n      swap1\n      dup2\n      mstore\n      0x20\n      add\n      0x00\n      keccak256\n        /* \"contracts used for\\xc2\\xa0 RC system/preburnpremint.sol\":1730:1754  lockedNfts[lockId].nftId */\n      0x00\n      add\n      sload\n        /* \"contracts used for\\xc2\\xa0 RC system/preburnpremint.sol\":1722:1728  lockId */\n      dup3\n        /* \"contracts used for\\xc2\\xa0 RC system/preburnpremint.sol\":1714:1766  PreMint(lockId, lockedNfts[lockId].nftId, daiAmount) */\n      0xb0af002dfffd2441f5c40b9d88f975d70a8297aa1005130ccd78cd3d0c0b6ece\n        /* \"contracts used for\\xc2\\xa0 RC system/preburnpremint.sol\":1756:1765  daiAmount */\n      dup4\n        /* \"contracts used for\\xc2\\xa0 RC system/preburnpremint.sol\":1714:1766  PreMint(lockId, lockedNfts[lockId].nftId, daiAmount) */\n      mload(0x40)\n      tag_101\n      swap2\n      swap1\n      tag_19\n      jump\t// in\n    tag_101:\n      mload(0x40)\n      dup1\n      swap2\n      sub\n      swap1\n      log3\n        /* \"contracts used for\\xc2\\xa0 RC system/preburnpremint.sol\":1432:1774  function preMint(uint256 lockId, uint256 daiAmount) external {... */\n      pop\n      pop\n      jump\t// out\n        /* \"contracts used for\\xc2\\xa0 RC system/preburnpremint.sol\":438:484  mapping(uint256 => LockInfo) public lockedNfts */\n    tag_49:\n      mstore(0x20, 0x04)\n      dup1\n      0x00\n      mstore\n      keccak256(0x00, 0x40)\n      0x00\n      swap2\n      pop\n      swap1\n      pop\n      dup1\n      0x00\n      add\n      sload\n      swap1\n      dup1\n      0x01\n      add\n      sload\n      swap1\n      dup1\n      0x02\n      add\n      0x00\n      swap1\n      sload\n      swap1\n      0x0100\n      exp\n      swap1\n      div\n      0xffffffffffffffffffffffffffffffffffffffff\n      and\n      swap1\n      dup1\n      0x03\n      add\n      sload\n      swap1\n      dup1\n      0x04\n      add\n      0x00\n      swap1\n      sload\n      swap1\n      0x0100\n      exp\n      swap1\n      div\n      0xff\n      and\n      swap1\n      pop\n      dup6\n      jump\t// out\n        /* \"contracts used for\\xc2\\xa0 RC system/preburnpremint.sol\":1014:1424  function preBurn(uint256 nftId, uint256 unlockBlock, address to) external {... */\n    tag_55:\n        /* \"contracts used for\\xc2\\xa0 RC system/preburnpremint.sol\":1121:1133  block.number */\n      number\n        /* \"contracts used for\\xc2\\xa0 RC system/preburnpremint.sol\":1107:1118  unlockBlock */\n      dup3\n        /* \"contracts used for\\xc2\\xa0 RC system/preburnpremint.sol\":1107:1133  unlockBlock > block.number */\n      gt\n        /* \"contracts used for\\xc2\\xa0 RC system/preburnpremint.sol\":1099:1172  require(unlockBlock > block.number, \"Unlock block must be in the future\") */\n      tag_103\n      jumpi\n      mload(0x40)\n      0x08c379a000000000000000000000000000000000000000000000000000000000\n      dup2\n      mstore\n      0x04\n      add\n      tag_104\n      swap1\n      tag_105\n      jump\t// in\n    tag_104:\n      mload(0x40)\n      dup1\n      swap2\n      sub\n      swap1\n      revert\n    tag_103:\n        /* \"contracts used for\\xc2\\xa0 RC system/preburnpremint.sol\":1183:1186  nft */\n      0x00\n      dup1\n      sload\n      swap1\n      0x0100\n      exp\n      swap1\n      div\n      0xffffffffffffffffffffffffffffffffffffffff\n      and\n        /* \"contracts used for\\xc2\\xa0 RC system/preburnpremint.sol\":1183:1199  nft.transferFrom */\n      0xffffffffffffffffffffffffffffffffffffffff\n      and\n      0x23b872dd\n        /* \"contracts used for\\xc2\\xa0 RC system/preburnpremint.sol\":1200:1210  msg.sender */\n      caller\n        /* \"contracts used for\\xc2\\xa0 RC system/preburnpremint.sol\":1220:1224  this */\n      address\n        /* \"contracts used for\\xc2\\xa0 RC system/preburnpremint.sol\":1227:1232  nftId */\n      dup7\n        /* \"contracts used for\\xc2\\xa0 RC system/preburnpremint.sol\":1183:1233  nft.transferFrom(msg.sender, address(this), nftId) */\n      mload(0x40)\n      dup5\n      0xffffffff\n      and\n      0xe0\n      shl\n      dup2\n      mstore\n      0x04\n      add\n      tag_106\n      swap4\n      swap3\n      swap2\n      swap1\n      tag_91\n      jump\t// in\n    tag_106:\n      0x00\n      mload(0x40)\n      dup1\n      dup4\n      sub\n      dup2\n      0x00\n      dup8\n      dup1\n      extcodesize\n      iszero\n      dup1\n      iszero\n      tag_107\n      jumpi\n      0x00\n      dup1\n      revert\n    tag_107:\n      pop\n      gas\n      call\n      iszero\n      dup1\n      iszero\n      tag_109\n      jumpi\n      returndatasize\n      0x00\n      dup1\n      returndatacopy\n      revert(0x00, returndatasize)\n    tag_109:\n      pop\n      pop\n      pop\n      pop\n        /* \"contracts used for\\xc2\\xa0 RC system/preburnpremint.sol\":1270:1320  LockInfo(nftId, unlockBlock, msg.sender, 0, false) */\n      mload(0x40)\n      dup1\n      0xa0\n      add\n      0x40\n      mstore\n      dup1\n        /* \"contracts used for\\xc2\\xa0 RC system/preburnpremint.sol\":1279:1284  nftId */\n      dup5\n        /* \"contracts used for\\xc2\\xa0 RC system/preburnpremint.sol\":1270:1320  LockInfo(nftId, unlockBlock, msg.sender, 0, false) */\n      dup2\n      mstore\n      0x20\n      add\n        /* \"contracts used for\\xc2\\xa0 RC system/preburnpremint.sol\":1286:1297  unlockBlock */\n      dup4\n        /* \"contracts used for\\xc2\\xa0 RC system/preburnpremint.sol\":1270:1320  LockInfo(nftId, unlockBlock, msg.sender, 0, false) */\n      dup2\n      mstore\n      0x20\n      add\n        /* \"contracts used for\\xc2\\xa0 RC system/preburnpremint.sol\":1299:1309  msg.sender */\n      caller\n        /* \"contracts used for\\xc2\\xa0 RC system/preburnpremint.sol\":1270:1320  LockInfo(nftId, unlockBlock, msg.sender, 0, false) */\n      0xffffffffffffffffffffffffffffffffffffffff\n      and\n      dup2\n      mstore\n      0x20\n      add\n        /* \"contracts used for\\xc2\\xa0 RC system/preburnpremint.sol\":1311:1312  0 */\n      0x00\n        /* \"contracts used for\\xc2\\xa0 RC system/preburnpremint.sol\":1270:1320  LockInfo(nftId, unlockBlock, msg.sender, 0, false) */\n      dup2\n      mstore\n      0x20\n      add\n        /* \"contracts used for\\xc2\\xa0 RC system/preburnpremint.sol\":1314:1319  false */\n      0x00\n        /* \"contracts used for\\xc2\\xa0 RC system/preburnpremint.sol\":1270:1320  LockInfo(nftId, unlockBlock, msg.sender, 0, false) */\n      iszero\n      iszero\n      dup2\n      mstore\n      pop\n        /* \"contracts used for\\xc2\\xa0 RC system/preburnpremint.sol\":1246:1256  lockedNfts */\n      0x04\n        /* \"contracts used for\\xc2\\xa0 RC system/preburnpremint.sol\":1246:1267  lockedNfts[lockIndex] */\n      0x00\n        /* \"contracts used for\\xc2\\xa0 RC system/preburnpremint.sol\":1257:1266  lockIndex */\n      sload(0x05)\n        /* \"contracts used for\\xc2\\xa0 RC system/preburnpremint.sol\":1246:1267  lockedNfts[lockIndex] */\n      dup2\n      mstore\n      0x20\n      add\n      swap1\n      dup2\n      mstore\n      0x20\n      add\n      0x00\n      keccak256\n        /* \"contracts used for\\xc2\\xa0 RC system/preburnpremint.sol\":1246:1320  lockedNfts[lockIndex] = LockInfo(nftId, unlockBlock, msg.sender, 0, false) */\n      0x00\n      dup3\n      add\n      mload\n      dup2\n      0x00\n      add\n      sstore\n      0x20\n      dup3\n      add\n      mload\n      dup2\n      0x01\n      add\n      sstore\n      0x40\n      dup3\n      add\n      mload\n      dup2\n      0x02\n      add\n      exp(0x0100, 0x00)\n      dup2\n      sload\n      dup2\n      0xffffffffffffffffffffffffffffffffffffffff\n      mul\n      not\n      and\n      swap1\n      dup4\n      0xffffffffffffffffffffffffffffffffffffffff\n      and\n      mul\n      or\n      swap1\n      sstore\n      pop\n      0x60\n      dup3\n      add\n      mload\n      dup2\n      0x03\n      add\n      sstore\n      0x80\n      dup3\n      add\n      mload\n      dup2\n      0x04\n      add\n      exp(0x0100, 0x00)\n      dup2\n      sload\n      dup2\n      0xff\n      mul\n      not\n      and\n      swap1\n      dup4\n      iszero\n      iszero\n      mul\n      or\n      swap1\n      sstore\n      pop\n      swap1\n      pop\n      pop\n        /* \"contracts used for\\xc2\\xa0 RC system/preburnpremint.sol\":1381:1391  msg.sender */\n      caller\n        /* \"contracts used for\\xc2\\xa0 RC system/preburnpremint.sol\":1336:1392  PreBurnLocked(lockIndex, nftId, unlockBlock, msg.sender) */\n      0xffffffffffffffffffffffffffffffffffffffff\n      and\n        /* \"contracts used for\\xc2\\xa0 RC system/preburnpremint.sol\":1361:1366  nftId */\n      dup4\n        /* \"contracts used for\\xc2\\xa0 RC system/preburnpremint.sol\":1350:1359  lockIndex */\n      sload(0x05)\n        /* \"contracts used for\\xc2\\xa0 RC system/preburnpremint.sol\":1336:1392  PreBurnLocked(lockIndex, nftId, unlockBlock, msg.sender) */\n      0x1ef04dd84cb98188de8ee330bce2cccd813529c95af01e59a08692901346805a\n        /* \"contracts used for\\xc2\\xa0 RC system/preburnpremint.sol\":1368:1379  unlockBlock */\n      dup6\n        /* \"contracts used for\\xc2\\xa0 RC system/preburnpremint.sol\":1336:1392  PreBurnLocked(lockIndex, nftId, unlockBlock, msg.sender) */\n      mload(0x40)\n      tag_110\n      swap2\n      swap1\n      tag_19\n      jump\t// in\n    tag_110:\n      mload(0x40)\n      dup1\n      swap2\n      sub\n      swap1\n      log4\n        /* \"contracts used for\\xc2\\xa0 RC system/preburnpremint.sol\":1405:1414  lockIndex */\n      0x05\n      0x00\n        /* \"contracts used for\\xc2\\xa0 RC system/preburnpremint.sol\":1405:1416  lockIndex++ */\n      dup2\n      sload\n      dup1\n      swap3\n      swap2\n      swap1\n      tag_111\n      swap1\n      tag_112\n      jump\t// in\n    tag_111:\n      swap2\n      swap1\n      pop\n      sstore\n      pop\n        /* \"contracts used for\\xc2\\xa0 RC system/preburnpremint.sol\":1014:1424  function preBurn(uint256 nftId, uint256 unlockBlock, address to) external {... */\n      pop\n      pop\n      pop\n      jump\t// out\n        /* \"contracts used for\\xc2\\xa0 RC system/preburnpremint.sol\":171:192  ISimpleDAI public dai */\n    tag_57:\n      0x01\n      0x00\n      swap1\n      sload\n      swap1\n      0x0100\n      exp\n      swap1\n      div\n      0xffffffffffffffffffffffffffffffffffffffff\n      and\n      dup2\n      jump\t// out\n        /* \"contracts used for\\xc2\\xa0 RC system/preburnpremint.sol\":2750:2873  function setBurnToMintAddress(address _burnToMintAddress) external {... */\n    tag_63:\n        /* \"contracts used for\\xc2\\xa0 RC system/preburnpremint.sol\":2847:2865  _burnToMintAddress */\n      dup1\n        /* \"contracts used for\\xc2\\xa0 RC system/preburnpremint.sol\":2828:2845  burnToMintAddress */\n      0x02\n      0x00\n        /* \"contracts used for\\xc2\\xa0 RC system/preburnpremint.sol\":2828:2865  burnToMintAddress =_burnToMintAddress */\n      0x0100\n      exp\n      dup2\n      sload\n      dup2\n      0xffffffffffffffffffffffffffffffffffffffff\n      mul\n      not\n      and\n      swap1\n      dup4\n      0xffffffffffffffffffffffffffffffffffffffff\n      and\n      mul\n      or\n      swap1\n      sstore\n      pop\n        /* \"contracts used for\\xc2\\xa0 RC system/preburnpremint.sol\":2750:2873  function setBurnToMintAddress(address _burnToMintAddress) external {... */\n      pop\n      jump\t// out\n        /* \"#utility.yul\":7:84   */\n    tag_114:\n        /* \"#utility.yul\":44:51   */\n      0x00\n        /* \"#utility.yul\":73:78   */\n      dup2\n        /* \"#utility.yul\":62:78   */\n      swap1\n      pop\n        /* \"#utility.yul\":7:84   */\n      swap2\n      swap1\n      pop\n      jump\t// out\n        /* \"#utility.yul\":90:208   */\n    tag_115:\n        /* \"#utility.yul\":177:201   */\n      tag_154\n        /* \"#utility.yul\":195:200   */\n      dup2\n        /* \"#utility.yul\":177:201   */\n      tag_114\n      jump\t// in\n    tag_154:\n        /* \"#utility.yul\":172:175   */\n      dup3\n        /* \"#utility.yul\":165:202   */\n      mstore\n        /* \"#utility.yul\":90:208   */\n      pop\n      pop\n      jump\t// out\n        /* \"#utility.yul\":214:436   */\n    tag_19:\n        /* \"#utility.yul\":307:311   */\n      0x00\n        /* \"#utility.yul\":345:347   */\n      0x20\n        /* \"#utility.yul\":334:343   */\n      dup3\n        /* \"#utility.yul\":330:348   */\n      add\n        /* \"#utility.yul\":322:348   */\n      swap1\n      pop\n        /* \"#utility.yul\":358:429   */\n      tag_156\n        /* \"#utility.yul\":426:427   */\n      0x00\n        /* \"#utility.yul\":415:424   */\n      dup4\n        /* \"#utility.yul\":411:428   */\n      add\n        /* \"#utility.yul\":402:408   */\n      dup5\n        /* \"#utility.yul\":358:429   */\n      tag_115\n      jump\t// in\n    tag_156:\n        /* \"#utility.yul\":214:436   */\n      swap3\n      swap2\n      pop\n      pop\n      jump\t// out\n        /* \"#utility.yul\":442:568   */\n    tag_116:\n        /* \"#utility.yul\":479:486   */\n      0x00\n        /* \"#utility.yul\":519:561   */\n      0xffffffffffffffffffffffffffffffffffffffff\n        /* \"#utility.yul\":512:517   */\n      dup3\n        /* \"#utility.yul\":508:562   */\n      and\n        /* \"#utility.yul\":497:562   */\n      swap1\n      pop\n        /* \"#utility.yul\":442:568   */\n      swap2\n      swap1\n      pop\n      jump\t// out\n        /* \"#utility.yul\":574:670   */\n    tag_117:\n        /* \"#utility.yul\":611:618   */\n      0x00\n        /* \"#utility.yul\":640:664   */\n      tag_159\n        /* \"#utility.yul\":658:663   */\n      dup3\n        /* \"#utility.yul\":640:664   */\n      tag_116\n      jump\t// in\n    tag_159:\n        /* \"#utility.yul\":629:664   */\n      swap1\n      pop\n        /* \"#utility.yul\":574:670   */\n      swap2\n      swap1\n      pop\n      jump\t// out\n        /* \"#utility.yul\":676:794   */\n    tag_118:\n        /* \"#utility.yul\":763:787   */\n      tag_161\n        /* \"#utility.yul\":781:786   */\n      dup2\n        /* \"#utility.yul\":763:787   */\n      tag_117\n      jump\t// in\n    tag_161:\n        /* \"#utility.yul\":758:761   */\n      dup3\n        /* \"#utility.yul\":751:788   */\n      mstore\n        /* \"#utility.yul\":676:794   */\n      pop\n      pop\n      jump\t// out\n        /* \"#utility.yul\":800:1022   */\n    tag_23:\n        /* \"#utility.yul\":893:897   */\n      0x00\n        /* \"#utility.yul\":931:933   */\n      0x20\n        /* \"#utility.yul\":920:929   */\n      dup3\n        /* \"#utility.yul\":916:934   */\n      add\n        /* \"#utility.yul\":908:934   */\n      swap1\n      pop\n        /* \"#utility.yul\":944:1015   */\n      tag_163\n        /* \"#utility.yul\":1012:1013   */\n      0x00\n        /* \"#utility.yul\":1001:1010   */\n      dup4\n        /* \"#utility.yul\":997:1014   */\n      add\n        /* \"#utility.yul\":988:994   */\n      dup5\n        /* \"#utility.yul\":944:1015   */\n      tag_118\n      jump\t// in\n    tag_163:\n        /* \"#utility.yul\":800:1022   */\n      swap3\n      swap2\n      pop\n      pop\n      jump\t// out\n        /* \"#utility.yul\":1028:1088   */\n    tag_119:\n        /* \"#utility.yul\":1056:1059   */\n      0x00\n        /* \"#utility.yul\":1077:1082   */\n      dup2\n        /* \"#utility.yul\":1070:1082   */\n      swap1\n      pop\n        /* \"#utility.yul\":1028:1088   */\n      swap2\n      swap1\n      pop\n      jump\t// out\n        /* \"#utility.yul\":1094:1236   */\n    tag_120:\n        /* \"#utility.yul\":1144:1153   */\n      0x00\n        /* \"#utility.yul\":1177:1230   */\n      tag_166\n        /* \"#utility.yul\":1195:1229   */\n      tag_167\n        /* \"#utility.yul\":1204:1228   */\n      tag_168\n        /* \"#utility.yul\":1222:1227   */\n      dup5\n        /* \"#utility.yul\":1204:1228   */\n      tag_116\n      jump\t// in\n    tag_168:\n        /* \"#utility.yul\":1195:1229   */\n      tag_119\n      jump\t// in\n    tag_167:\n        /* \"#utility.yul\":1177:1230   */\n      tag_116\n      jump\t// in\n    tag_166:\n        /* \"#utility.yul\":1164:1230   */\n      swap1\n      pop\n        /* \"#utility.yul\":1094:1236   */\n      swap2\n      swap1\n      pop\n      jump\t// out\n        /* \"#utility.yul\":1242:1368   */\n    tag_121:\n        /* \"#utility.yul\":1292:1301   */\n      0x00\n        /* \"#utility.yul\":1325:1362   */\n      tag_170\n        /* \"#utility.yul\":1356:1361   */\n      dup3\n        /* \"#utility.yul\":1325:1362   */\n      tag_120\n      jump\t// in\n    tag_170:\n        /* \"#utility.yul\":1312:1362   */\n      swap1\n      pop\n        /* \"#utility.yul\":1242:1368   */\n      swap2\n      swap1\n      pop\n      jump\t// out\n        /* \"#utility.yul\":1374:1515   */\n    tag_122:\n        /* \"#utility.yul\":1439:1448   */\n      0x00\n        /* \"#utility.yul\":1472:1509   */\n      tag_172\n        /* \"#utility.yul\":1503:1508   */\n      dup3\n        /* \"#utility.yul\":1472:1509   */\n      tag_121\n      jump\t// in\n    tag_172:\n        /* \"#utility.yul\":1459:1509   */\n      swap1\n      pop\n        /* \"#utility.yul\":1374:1515   */\n      swap2\n      swap1\n      pop\n      jump\t// out\n        /* \"#utility.yul\":1521:1682   */\n    tag_123:\n        /* \"#utility.yul\":1623:1675   */\n      tag_174\n        /* \"#utility.yul\":1669:1674   */\n      dup2\n        /* \"#utility.yul\":1623:1675   */\n      tag_122\n      jump\t// in\n    tag_174:\n        /* \"#utility.yul\":1618:1621   */\n      dup3\n        /* \"#utility.yul\":1611:1676   */\n      mstore\n        /* \"#utility.yul\":1521:1682   */\n      pop\n      pop\n      jump\t// out\n        /* \"#utility.yul\":1688:1940   */\n    tag_30:\n        /* \"#utility.yul\":1796:1800   */\n      0x00\n        /* \"#utility.yul\":1834:1836   */\n      0x20\n        /* \"#utility.yul\":1823:1832   */\n      dup3\n        /* \"#utility.yul\":1819:1837   */\n      add\n        /* \"#utility.yul\":1811:1837   */\n      swap1\n      pop\n        /* \"#utility.yul\":1847:1933   */\n      tag_176\n        /* \"#utility.yul\":1930:1931   */\n      0x00\n        /* \"#utility.yul\":1919:1928   */\n      dup4\n        /* \"#utility.yul\":1915:1932   */\n      add\n        /* \"#utility.yul\":1906:1912   */\n      dup5\n        /* \"#utility.yul\":1847:1933   */\n      tag_123\n      jump\t// in\n    tag_176:\n        /* \"#utility.yul\":1688:1940   */\n      swap3\n      swap2\n      pop\n      pop\n      jump\t// out\n        /* \"#utility.yul\":2027:2144   */\n    tag_125:\n        /* \"#utility.yul\":2136:2137   */\n      0x00\n        /* \"#utility.yul\":2133:2134   */\n      dup1\n        /* \"#utility.yul\":2126:2138   */\n      revert\n        /* \"#utility.yul\":2273:2395   */\n    tag_127:\n        /* \"#utility.yul\":2346:2370   */\n      tag_181\n        /* \"#utility.yul\":2364:2369   */\n      dup2\n        /* \"#utility.yul\":2346:2370   */\n      tag_114\n      jump\t// in\n    tag_181:\n        /* \"#utility.yul\":2339:2344   */\n      dup2\n        /* \"#utility.yul\":2336:2371   */\n      eq\n        /* \"#utility.yul\":2326:2389   */\n      tag_182\n      jumpi\n        /* \"#utility.yul\":2385:2386   */\n      0x00\n        /* \"#utility.yul\":2382:2383   */\n      dup1\n        /* \"#utility.yul\":2375:2387   */\n      revert\n        /* \"#utility.yul\":2326:2389   */\n    tag_182:\n        /* \"#utility.yul\":2273:2395   */\n      pop\n      jump\t// out\n        /* \"#utility.yul\":2401:2540   */\n    tag_128:\n        /* \"#utility.yul\":2447:2452   */\n      0x00\n        /* \"#utility.yul\":2485:2491   */\n      dup2\n        /* \"#utility.yul\":2472:2492   */\n      calldataload\n        /* \"#utility.yul\":2463:2492   */\n      swap1\n      pop\n        /* \"#utility.yul\":2501:2534   */\n      tag_184\n        /* \"#utility.yul\":2528:2533   */\n      dup2\n        /* \"#utility.yul\":2501:2534   */\n      tag_127\n      jump\t// in\n    tag_184:\n        /* \"#utility.yul\":2401:2540   */\n      swap3\n      swap2\n      pop\n      pop\n      jump\t// out\n        /* \"#utility.yul\":2546:2668   */\n    tag_129:\n        /* \"#utility.yul\":2619:2643   */\n      tag_186\n        /* \"#utility.yul\":2637:2642   */\n      dup2\n        /* \"#utility.yul\":2619:2643   */\n      tag_117\n      jump\t// in\n    tag_186:\n        /* \"#utility.yul\":2612:2617   */\n      dup2\n        /* \"#utility.yul\":2609:2644   */\n      eq\n        /* \"#utility.yul\":2599:2662   */\n      tag_187\n      jumpi\n        /* \"#utility.yul\":2658:2659   */\n      0x00\n        /* \"#utility.yul\":2655:2656   */\n      dup1\n        /* \"#utility.yul\":2648:2660   */\n      revert\n        /* \"#utility.yul\":2599:2662   */\n    tag_187:\n        /* \"#utility.yul\":2546:2668   */\n      pop\n      jump\t// out\n        /* \"#utility.yul\":2674:2813   */\n    tag_130:\n        /* \"#utility.yul\":2720:2725   */\n      0x00\n        /* \"#utility.yul\":2758:2764   */\n      dup2\n        /* \"#utility.yul\":2745:2765   */\n      calldataload\n        /* \"#utility.yul\":2736:2765   */\n      swap1\n      pop\n        /* \"#utility.yul\":2774:2807   */\n      tag_189\n        /* \"#utility.yul\":2801:2806   */\n      dup2\n        /* \"#utility.yul\":2774:2807   */\n      tag_129\n      jump\t// in\n    tag_189:\n        /* \"#utility.yul\":2674:2813   */\n      swap3\n      swap2\n      pop\n      pop\n      jump\t// out\n        /* \"#utility.yul\":2819:3293   */\n    tag_33:\n        /* \"#utility.yul\":2887:2893   */\n      0x00\n        /* \"#utility.yul\":2895:2901   */\n      dup1\n        /* \"#utility.yul\":2944:2946   */\n      0x40\n        /* \"#utility.yul\":2932:2941   */\n      dup4\n        /* \"#utility.yul\":2923:2930   */\n      dup6\n        /* \"#utility.yul\":2919:2942   */\n      sub\n        /* \"#utility.yul\":2915:2947   */\n      slt\n        /* \"#utility.yul\":2912:3031   */\n      iszero\n      tag_191\n      jumpi\n        /* \"#utility.yul\":2950:3029   */\n      tag_192\n      tag_125\n      jump\t// in\n    tag_192:\n        /* \"#utility.yul\":2912:3031   */\n    tag_191:\n        /* \"#utility.yul\":3070:3071   */\n      0x00\n        /* \"#utility.yul\":3095:3148   */\n      tag_193\n        /* \"#utility.yul\":3140:3147   */\n      dup6\n        /* \"#utility.yul\":3131:3137   */\n      dup3\n        /* \"#utility.yul\":3120:3129   */\n      dup7\n        /* \"#utility.yul\":3116:3138   */\n      add\n        /* \"#utility.yul\":3095:3148   */\n      tag_128\n      jump\t// in\n    tag_193:\n        /* \"#utility.yul\":3085:3148   */\n      swap3\n      pop\n        /* \"#utility.yul\":3041:3158   */\n      pop\n        /* \"#utility.yul\":3197:3199   */\n      0x20\n        /* \"#utility.yul\":3223:3276   */\n      tag_194\n        /* \"#utility.yul\":3268:3275   */\n      dup6\n        /* \"#utility.yul\":3259:3265   */\n      dup3\n        /* \"#utility.yul\":3248:3257   */\n      dup7\n        /* \"#utility.yul\":3244:3266   */\n      add\n        /* \"#utility.yul\":3223:3276   */\n      tag_130\n      jump\t// in\n    tag_194:\n        /* \"#utility.yul\":3213:3276   */\n      swap2\n      pop\n        /* \"#utility.yul\":3168:3286   */\n      pop\n        /* \"#utility.yul\":2819:3293   */\n      swap3\n      pop\n      swap3\n      swap1\n      pop\n      jump\t// out\n        /* \"#utility.yul\":3299:3628   */\n    tag_37:\n        /* \"#utility.yul\":3358:3364   */\n      0x00\n        /* \"#utility.yul\":3407:3409   */\n      0x20\n        /* \"#utility.yul\":3395:3404   */\n      dup3\n        /* \"#utility.yul\":3386:3393   */\n      dup5\n        /* \"#utility.yul\":3382:3405   */\n      sub\n        /* \"#utility.yul\":3378:3410   */\n      slt\n        /* \"#utility.yul\":3375:3494   */\n      iszero\n      tag_196\n      jumpi\n        /* \"#utility.yul\":3413:3492   */\n      tag_197\n      tag_125\n      jump\t// in\n    tag_197:\n        /* \"#utility.yul\":3375:3494   */\n    tag_196:\n        /* \"#utility.yul\":3533:3534   */\n      0x00\n        /* \"#utility.yul\":3558:3611   */\n      tag_198\n        /* \"#utility.yul\":3603:3610   */\n      dup5\n        /* \"#utility.yul\":3594:3600   */\n      dup3\n        /* \"#utility.yul\":3583:3592   */\n      dup6\n        /* \"#utility.yul\":3579:3601   */\n      add\n        /* \"#utility.yul\":3558:3611   */\n      tag_128\n      jump\t// in\n    tag_198:\n        /* \"#utility.yul\":3548:3611   */\n      swap2\n      pop\n        /* \"#utility.yul\":3504:3621   */\n      pop\n        /* \"#utility.yul\":3299:3628   */\n      swap3\n      swap2\n      pop\n      pop\n      jump\t// out\n        /* \"#utility.yul\":3634:4399   */\n    tag_41:\n        /* \"#utility.yul\":3720:3726   */\n      0x00\n        /* \"#utility.yul\":3728:3734   */\n      dup1\n        /* \"#utility.yul\":3736:3742   */\n      0x00\n        /* \"#utility.yul\":3744:3750   */\n      dup1\n        /* \"#utility.yul\":3793:3796   */\n      0x80\n        /* \"#utility.yul\":3781:3790   */\n      dup6\n        /* \"#utility.yul\":3772:3779   */\n      dup8\n        /* \"#utility.yul\":3768:3791   */\n      sub\n        /* \"#utility.yul\":3764:3797   */\n      slt\n        /* \"#utility.yul\":3761:3881   */\n      iszero\n      tag_200\n      jumpi\n        /* \"#utility.yul\":3800:3879   */\n      tag_201\n      tag_125\n      jump\t// in\n    tag_201:\n        /* \"#utility.yul\":3761:3881   */\n    tag_200:\n        /* \"#utility.yul\":3920:3921   */\n      0x00\n        /* \"#utility.yul\":3945:3998   */\n      tag_202\n        /* \"#utility.yul\":3990:3997   */\n      dup8\n        /* \"#utility.yul\":3981:3987   */\n      dup3\n        /* \"#utility.yul\":3970:3979   */\n      dup9\n        /* \"#utility.yul\":3966:3988   */\n      add\n        /* \"#utility.yul\":3945:3998   */\n      tag_128\n      jump\t// in\n    tag_202:\n        /* \"#utility.yul\":3935:3998   */\n      swap5\n      pop\n        /* \"#utility.yul\":3891:4008   */\n      pop\n        /* \"#utility.yul\":4047:4049   */\n      0x20\n        /* \"#utility.yul\":4073:4126   */\n      tag_203\n        /* \"#utility.yul\":4118:4125   */\n      dup8\n        /* \"#utility.yul\":4109:4115   */\n      dup3\n        /* \"#utility.yul\":4098:4107   */\n      dup9\n        /* \"#utility.yul\":4094:4116   */\n      add\n        /* \"#utility.yul\":4073:4126   */\n      tag_128\n      jump\t// in\n    tag_203:\n        /* \"#utility.yul\":4063:4126   */\n      swap4\n      pop\n        /* \"#utility.yul\":4018:4136   */\n      pop\n        /* \"#utility.yul\":4175:4177   */\n      0x40\n        /* \"#utility.yul\":4201:4254   */\n      tag_204\n        /* \"#utility.yul\":4246:4253   */\n      dup8\n        /* \"#utility.yul\":4237:4243   */\n      dup3\n        /* \"#utility.yul\":4226:4235   */\n      dup9\n        /* \"#utility.yul\":4222:4244   */\n      add\n        /* \"#utility.yul\":4201:4254   */\n      tag_130\n      jump\t// in\n    tag_204:\n        /* \"#utility.yul\":4191:4254   */\n      swap3\n      pop\n        /* \"#utility.yul\":4146:4264   */\n      pop\n        /* \"#utility.yul\":4303:4305   */\n      0x60\n        /* \"#utility.yul\":4329:4382   */\n      tag_205\n        /* \"#utility.yul\":4374:4381   */\n      dup8\n        /* \"#utility.yul\":4365:4371   */\n      dup3\n        /* \"#utility.yul\":4354:4363   */\n      dup9\n        /* \"#utility.yul\":4350:4372   */\n      add\n        /* \"#utility.yul\":4329:4382   */\n      tag_128\n      jump\t// in\n    tag_205:\n        /* \"#utility.yul\":4319:4382   */\n      swap2\n      pop\n        /* \"#utility.yul\":4274:4392   */\n      pop\n        /* \"#utility.yul\":3634:4399   */\n      swap3\n      swap6\n      swap2\n      swap5\n      pop\n      swap3\n      pop\n      jump\t// out\n        /* \"#utility.yul\":4405:4879   */\n    tag_45:\n        /* \"#utility.yul\":4473:4479   */\n      0x00\n        /* \"#utility.yul\":4481:4487   */\n      dup1\n        /* \"#utility.yul\":4530:4532   */\n      0x40\n        /* \"#utility.yul\":4518:4527   */\n      dup4\n        /* \"#utility.yul\":4509:4516   */\n      dup6\n        /* \"#utility.yul\":4505:4528   */\n      sub\n        /* \"#utility.yul\":4501:4533   */\n      slt\n        /* \"#utility.yul\":4498:4617   */\n      iszero\n      tag_207\n      jumpi\n        /* \"#utility.yul\":4536:4615   */\n      tag_208\n      tag_125\n      jump\t// in\n    tag_208:\n        /* \"#utility.yul\":4498:4617   */\n    tag_207:\n        /* \"#utility.yul\":4656:4657   */\n      0x00\n        /* \"#utility.yul\":4681:4734   */\n      tag_209\n        /* \"#utility.yul\":4726:4733   */\n      dup6\n        /* \"#utility.yul\":4717:4723   */\n      dup3\n        /* \"#utility.yul\":4706:4715   */\n      dup7\n        /* \"#utility.yul\":4702:4724   */\n      add\n        /* \"#utility.yul\":4681:4734   */\n      tag_128\n      jump\t// in\n    tag_209:\n        /* \"#utility.yul\":4671:4734   */\n      swap3\n      pop\n        /* \"#utility.yul\":4627:4744   */\n      pop\n        /* \"#utility.yul\":4783:4785   */\n      0x20\n        /* \"#utility.yul\":4809:4862   */\n      tag_210\n        /* \"#utility.yul\":4854:4861   */\n      dup6\n        /* \"#utility.yul\":4845:4851   */\n      dup3\n        /* \"#utility.yul\":4834:4843   */\n      dup7\n        /* \"#utility.yul\":4830:4852   */\n      add\n        /* \"#utility.yul\":4809:4862   */\n      tag_128\n      jump\t// in\n    tag_210:\n        /* \"#utility.yul\":4799:4862   */\n      swap2\n      pop\n        /* \"#utility.yul\":4754:4872   */\n      pop\n        /* \"#utility.yul\":4405:4879   */\n      swap3\n      pop\n      swap3\n      swap1\n      pop\n      jump\t// out\n        /* \"#utility.yul\":4885:4975   */\n    tag_131:\n        /* \"#utility.yul\":4919:4926   */\n      0x00\n        /* \"#utility.yul\":4962:4967   */\n      dup2\n        /* \"#utility.yul\":4955:4968   */\n      iszero\n        /* \"#utility.yul\":4948:4969   */\n      iszero\n        /* \"#utility.yul\":4937:4969   */\n      swap1\n      pop\n        /* \"#utility.yul\":4885:4975   */\n      swap2\n      swap1\n      pop\n      jump\t// out\n        /* \"#utility.yul\":4981:5090   */\n    tag_132:\n        /* \"#utility.yul\":5062:5083   */\n      tag_213\n        /* \"#utility.yul\":5077:5082   */\n      dup2\n        /* \"#utility.yul\":5062:5083   */\n      tag_131\n      jump\t// in\n    tag_213:\n        /* \"#utility.yul\":5057:5060   */\n      dup3\n        /* \"#utility.yul\":5050:5084   */\n      mstore\n        /* \"#utility.yul\":4981:5090   */\n      pop\n      pop\n      jump\t// out\n        /* \"#utility.yul\":5096:5748   */\n    tag_51:\n        /* \"#utility.yul\":5295:5299   */\n      0x00\n        /* \"#utility.yul\":5333:5336   */\n      0xa0\n        /* \"#utility.yul\":5322:5331   */\n      dup3\n        /* \"#utility.yul\":5318:5337   */\n      add\n        /* \"#utility.yul\":5310:5337   */\n      swap1\n      pop\n        /* \"#utility.yul\":5347:5418   */\n      tag_215\n        /* \"#utility.yul\":5415:5416   */\n      0x00\n        /* \"#utility.yul\":5404:5413   */\n      dup4\n        /* \"#utility.yul\":5400:5417   */\n      add\n        /* \"#utility.yul\":5391:5397   */\n      dup9\n        /* \"#utility.yul\":5347:5418   */\n      tag_115\n      jump\t// in\n    tag_215:\n        /* \"#utility.yul\":5428:5500   */\n      tag_216\n        /* \"#utility.yul\":5496:5498   */\n      0x20\n        /* \"#utility.yul\":5485:5494   */\n      dup4\n        /* \"#utility.yul\":5481:5499   */\n      add\n        /* \"#utility.yul\":5472:5478   */\n      dup8\n        /* \"#utility.yul\":5428:5500   */\n      tag_115\n      jump\t// in\n    tag_216:\n        /* \"#utility.yul\":5510:5582   */\n      tag_217\n        /* \"#utility.yul\":5578:5580   */\n      0x40\n        /* \"#utility.yul\":5567:5576   */\n      dup4\n        /* \"#utility.yul\":5563:5581   */\n      add\n        /* \"#utility.yul\":5554:5560   */\n      dup7\n        /* \"#utility.yul\":5510:5582   */\n      tag_118\n      jump\t// in\n    tag_217:\n        /* \"#utility.yul\":5592:5664   */\n      tag_218\n        /* \"#utility.yul\":5660:5662   */\n      0x60\n        /* \"#utility.yul\":5649:5658   */\n      dup4\n        /* \"#utility.yul\":5645:5663   */\n      add\n        /* \"#utility.yul\":5636:5642   */\n      dup6\n        /* \"#utility.yul\":5592:5664   */\n      tag_115\n      jump\t// in\n    tag_218:\n        /* \"#utility.yul\":5674:5741   */\n      tag_219\n        /* \"#utility.yul\":5736:5739   */\n      0x80\n        /* \"#utility.yul\":5725:5734   */\n      dup4\n        /* \"#utility.yul\":5721:5740   */\n      add\n        /* \"#utility.yul\":5712:5718   */\n      dup5\n        /* \"#utility.yul\":5674:5741   */\n      tag_132\n      jump\t// in\n    tag_219:\n        /* \"#utility.yul\":5096:5748   */\n      swap7\n      swap6\n      pop\n      pop\n      pop\n      pop\n      pop\n      pop\n      jump\t// out\n        /* \"#utility.yul\":5754:6373   */\n    tag_54:\n        /* \"#utility.yul\":5831:5837   */\n      0x00\n        /* \"#utility.yul\":5839:5845   */\n      dup1\n        /* \"#utility.yul\":5847:5853   */\n      0x00\n        /* \"#utility.yul\":5896:5898   */\n      0x60\n        /* \"#utility.yul\":5884:5893   */\n      dup5\n        /* \"#utility.yul\":5875:5882   */\n      dup7\n        /* \"#utility.yul\":5871:5894   */\n      sub\n        /* \"#utility.yul\":5867:5899   */\n      slt\n        /* \"#utility.yul\":5864:5983   */\n      iszero\n      tag_221\n      jumpi\n        /* \"#utility.yul\":5902:5981   */\n      tag_222\n      tag_125\n      jump\t// in\n    tag_222:\n        /* \"#utility.yul\":5864:5983   */\n    tag_221:\n        /* \"#utility.yul\":6022:6023   */\n      0x00\n        /* \"#utility.yul\":6047:6100   */\n      tag_223\n        /* \"#utility.yul\":6092:6099   */\n      dup7\n        /* \"#utility.yul\":6083:6089   */\n      dup3\n        /* \"#utility.yul\":6072:6081   */\n      dup8\n        /* \"#utility.yul\":6068:6090   */\n      add\n        /* \"#utility.yul\":6047:6100   */\n      tag_128\n      jump\t// in\n    tag_223:\n        /* \"#utility.yul\":6037:6100   */\n      swap4\n      pop\n        /* \"#utility.yul\":5993:6110   */\n      pop\n        /* \"#utility.yul\":6149:6151   */\n      0x20\n        /* \"#utility.yul\":6175:6228   */\n      tag_224\n        /* \"#utility.yul\":6220:6227   */\n      dup7\n        /* \"#utility.yul\":6211:6217   */\n      dup3\n        /* \"#utility.yul\":6200:6209   */\n      dup8\n        /* \"#utility.yul\":6196:6218   */\n      add\n        /* \"#utility.yul\":6175:6228   */\n      tag_128\n      jump\t// in\n    tag_224:\n        /* \"#utility.yul\":6165:6228   */\n      swap3\n      pop\n        /* \"#utility.yul\":6120:6238   */\n      pop\n        /* \"#utility.yul\":6277:6279   */\n      0x40\n        /* \"#utility.yul\":6303:6356   */\n      tag_225\n        /* \"#utility.yul\":6348:6355   */\n      dup7\n        /* \"#utility.yul\":6339:6345   */\n      dup3\n        /* \"#utility.yul\":6328:6337   */\n      dup8\n        /* \"#utility.yul\":6324:6346   */\n      add\n        /* \"#utility.yul\":6303:6356   */\n      tag_130\n      jump\t// in\n    tag_225:\n        /* \"#utility.yul\":6293:6356   */\n      swap2\n      pop\n        /* \"#utility.yul\":6248:6366   */\n      pop\n        /* \"#utility.yul\":5754:6373   */\n      swap3\n      pop\n      swap3\n      pop\n      swap3\n      jump\t// out\n        /* \"#utility.yul\":6379:6523   */\n    tag_133:\n        /* \"#utility.yul\":6447:6456   */\n      0x00\n        /* \"#utility.yul\":6480:6517   */\n      tag_227\n        /* \"#utility.yul\":6511:6516   */\n      dup3\n        /* \"#utility.yul\":6480:6517   */\n      tag_121\n      jump\t// in\n    tag_227:\n        /* \"#utility.yul\":6467:6517   */\n      swap1\n      pop\n        /* \"#utility.yul\":6379:6523   */\n      swap2\n      swap1\n      pop\n      jump\t// out\n        /* \"#utility.yul\":6529:6696   */\n    tag_134:\n        /* \"#utility.yul\":6634:6689   */\n      tag_229\n        /* \"#utility.yul\":6683:6688   */\n      dup2\n        /* \"#utility.yul\":6634:6689   */\n      tag_133\n      jump\t// in\n    tag_229:\n        /* \"#utility.yul\":6629:6632   */\n      dup3\n        /* \"#utility.yul\":6622:6690   */\n      mstore\n        /* \"#utility.yul\":6529:6696   */\n      pop\n      pop\n      jump\t// out\n        /* \"#utility.yul\":6702:6960   */\n    tag_59:\n        /* \"#utility.yul\":6813:6817   */\n      0x00\n        /* \"#utility.yul\":6851:6853   */\n      0x20\n        /* \"#utility.yul\":6840:6849   */\n      dup3\n        /* \"#utility.yul\":6836:6854   */\n      add\n        /* \"#utility.yul\":6828:6854   */\n      swap1\n      pop\n        /* \"#utility.yul\":6864:6953   */\n      tag_231\n        /* \"#utility.yul\":6950:6951   */\n      0x00\n        /* \"#utility.yul\":6939:6948   */\n      dup4\n        /* \"#utility.yul\":6935:6952   */\n      add\n        /* \"#utility.yul\":6926:6932   */\n      dup5\n        /* \"#utility.yul\":6864:6953   */\n      tag_134\n      jump\t// in\n    tag_231:\n        /* \"#utility.yul\":6702:6960   */\n      swap3\n      swap2\n      pop\n      pop\n      jump\t// out\n        /* \"#utility.yul\":6966:7295   */\n    tag_62:\n        /* \"#utility.yul\":7025:7031   */\n      0x00\n        /* \"#utility.yul\":7074:7076   */\n      0x20\n        /* \"#utility.yul\":7062:7071   */\n      dup3\n        /* \"#utility.yul\":7053:7060   */\n      dup5\n        /* \"#utility.yul\":7049:7072   */\n      sub\n        /* \"#utility.yul\":7045:7077   */\n      slt\n        /* \"#utility.yul\":7042:7161   */\n      iszero\n      tag_233\n      jumpi\n        /* \"#utility.yul\":7080:7159   */\n      tag_234\n      tag_125\n      jump\t// in\n    tag_234:\n        /* \"#utility.yul\":7042:7161   */\n    tag_233:\n        /* \"#utility.yul\":7200:7201   */\n      0x00\n        /* \"#utility.yul\":7225:7278   */\n      tag_235\n        /* \"#utility.yul\":7270:7277   */\n      dup5\n        /* \"#utility.yul\":7261:7267   */\n      dup3\n        /* \"#utility.yul\":7250:7259   */\n      dup6\n        /* \"#utility.yul\":7246:7268   */\n      add\n        /* \"#utility.yul\":7225:7278   */\n      tag_130\n      jump\t// in\n    tag_235:\n        /* \"#utility.yul\":7215:7278   */\n      swap2\n      pop\n        /* \"#utility.yul\":7171:7288   */\n      pop\n        /* \"#utility.yul\":6966:7295   */\n      swap3\n      swap2\n      pop\n      pop\n      jump\t// out\n        /* \"#utility.yul\":7301:7470   */\n    tag_135:\n        /* \"#utility.yul\":7385:7396   */\n      0x00\n        /* \"#utility.yul\":7419:7425   */\n      dup3\n        /* \"#utility.yul\":7414:7417   */\n      dup3\n        /* \"#utility.yul\":7407:7426   */\n      mstore\n        /* \"#utility.yul\":7459:7463   */\n      0x20\n        /* \"#utility.yul\":7454:7457   */\n      dup3\n        /* \"#utility.yul\":7450:7464   */\n      add\n        /* \"#utility.yul\":7435:7464   */\n      swap1\n      pop\n        /* \"#utility.yul\":7301:7470   */\n      swap3\n      swap2\n      pop\n      pop\n      jump\t// out\n        /* \"#utility.yul\":7476:7646   */\n    tag_136:\n        /* \"#utility.yul\":7616:7638   */\n      0x5072652d6275726e206e6f7420736574746c6564000000000000000000000000\n        /* \"#utility.yul\":7612:7613   */\n      0x00\n        /* \"#utility.yul\":7604:7610   */\n      dup3\n        /* \"#utility.yul\":7600:7614   */\n      add\n        /* \"#utility.yul\":7593:7639   */\n      mstore\n        /* \"#utility.yul\":7476:7646   */\n      pop\n      jump\t// out\n        /* \"#utility.yul\":7652:8018   */\n    tag_137:\n        /* \"#utility.yul\":7794:7797   */\n      0x00\n        /* \"#utility.yul\":7815:7882   */\n      tag_239\n        /* \"#utility.yul\":7879:7881   */\n      0x14\n        /* \"#utility.yul\":7874:7877   */\n      dup4\n        /* \"#utility.yul\":7815:7882   */\n      tag_135\n      jump\t// in\n    tag_239:\n        /* \"#utility.yul\":7808:7882   */\n      swap2\n      pop\n        /* \"#utility.yul\":7891:7984   */\n      tag_240\n        /* \"#utility.yul\":7980:7983   */\n      dup3\n        /* \"#utility.yul\":7891:7984   */\n      tag_136\n      jump\t// in\n    tag_240:\n        /* \"#utility.yul\":8009:8011   */\n      0x20\n        /* \"#utility.yul\":8004:8007   */\n      dup3\n        /* \"#utility.yul\":8000:8012   */\n      add\n        /* \"#utility.yul\":7993:8012   */\n      swap1\n      pop\n        /* \"#utility.yul\":7652:8018   */\n      swap2\n      swap1\n      pop\n      jump\t// out\n        /* \"#utility.yul\":8024:8443   */\n    tag_67:\n        /* \"#utility.yul\":8190:8194   */\n      0x00\n        /* \"#utility.yul\":8228:8230   */\n      0x20\n        /* \"#utility.yul\":8217:8226   */\n      dup3\n        /* \"#utility.yul\":8213:8231   */\n      add\n        /* \"#utility.yul\":8205:8231   */\n      swap1\n      pop\n        /* \"#utility.yul\":8277:8286   */\n      dup2\n        /* \"#utility.yul\":8271:8275   */\n      dup2\n        /* \"#utility.yul\":8267:8287   */\n      sub\n        /* \"#utility.yul\":8263:8264   */\n      0x00\n        /* \"#utility.yul\":8252:8261   */\n      dup4\n        /* \"#utility.yul\":8248:8265   */\n      add\n        /* \"#utility.yul\":8241:8288   */\n      mstore\n        /* \"#utility.yul\":8305:8436   */\n      tag_242\n        /* \"#utility.yul\":8431:8435   */\n      dup2\n        /* \"#utility.yul\":8305:8436   */\n      tag_137\n      jump\t// in\n    tag_242:\n        /* \"#utility.yul\":8297:8436   */\n      swap1\n      pop\n        /* \"#utility.yul\":8024:8443   */\n      swap2\n      swap1\n      pop\n      jump\t// out\n        /* \"#utility.yul\":8449:8616   */\n    tag_138:\n        /* \"#utility.yul\":8589:8608   */\n      0x496e76616c696420726563697069656e74000000000000000000000000000000\n        /* \"#utility.yul\":8585:8586   */\n      0x00\n        /* \"#utility.yul\":8577:8583   */\n      dup3\n        /* \"#utility.yul\":8573:8587   */\n      add\n        /* \"#utility.yul\":8566:8609   */\n      mstore\n        /* \"#utility.yul\":8449:8616   */\n      pop\n      jump\t// out\n        /* \"#utility.yul\":8622:8988   */\n    tag_139:\n        /* \"#utility.yul\":8764:8767   */\n      0x00\n        /* \"#utility.yul\":8785:8852   */\n      tag_245\n        /* \"#utility.yul\":8849:8851   */\n      0x11\n        /* \"#utility.yul\":8844:8847   */\n      dup4\n        /* \"#utility.yul\":8785:8852   */\n      tag_135\n      jump\t// in\n    tag_245:\n        /* \"#utility.yul\":8778:8852   */\n      swap2\n      pop\n        /* \"#utility.yul\":8861:8954   */\n      tag_246\n        /* \"#utility.yul\":8950:8953   */\n      dup3\n        /* \"#utility.yul\":8861:8954   */\n      tag_138\n      jump\t// in\n    tag_246:\n        /* \"#utility.yul\":8979:8981   */\n      0x20\n        /* \"#utility.yul\":8974:8977   */\n      dup3\n        /* \"#utility.yul\":8970:8982   */\n      add\n        /* \"#utility.yul\":8963:8982   */\n      swap1\n      pop\n        /* \"#utility.yul\":8622:8988   */\n      swap2\n      swap1\n      pop\n      jump\t// out\n        /* \"#utility.yul\":8994:9413   */\n    tag_71:\n        /* \"#utility.yul\":9160:9164   */\n      0x00\n        /* \"#utility.yul\":9198:9200   */\n      0x20\n        /* \"#utility.yul\":9187:9196   */\n      dup3\n        /* \"#utility.yul\":9183:9201   */\n      add\n        /* \"#utility.yul\":9175:9201   */\n      swap1\n      pop\n        /* \"#utility.yul\":9247:9256   */\n      dup2\n        /* \"#utility.yul\":9241:9245   */\n      dup2\n        /* \"#utility.yul\":9237:9257   */\n      sub\n        /* \"#utility.yul\":9233:9234   */\n      0x00\n        /* \"#utility.yul\":9222:9231   */\n      dup4\n        /* \"#utility.yul\":9218:9235   */\n      add\n        /* \"#utility.yul\":9211:9258   */\n      mstore\n        /* \"#utility.yul\":9275:9406   */\n      tag_248\n        /* \"#utility.yul\":9401:9405   */\n      dup2\n        /* \"#utility.yul\":9275:9406   */\n      tag_139\n      jump\t// in\n    tag_248:\n        /* \"#utility.yul\":9267:9406   */\n      swap1\n      pop\n        /* \"#utility.yul\":8994:9413   */\n      swap2\n      swap1\n      pop\n      jump\t// out\n        /* \"#utility.yul\":9419:9751   */\n    tag_73:\n        /* \"#utility.yul\":9540:9544   */\n      0x00\n        /* \"#utility.yul\":9578:9580   */\n      0x40\n        /* \"#utility.yul\":9567:9576   */\n      dup3\n        /* \"#utility.yul\":9563:9581   */\n      add\n        /* \"#utility.yul\":9555:9581   */\n      swap1\n      pop\n        /* \"#utility.yul\":9591:9662   */\n      tag_250\n        /* \"#utility.yul\":9659:9660   */\n      0x00\n        /* \"#utility.yul\":9648:9657   */\n      dup4\n        /* \"#utility.yul\":9644:9661   */\n      add\n        /* \"#utility.yul\":9635:9641   */\n      dup6\n        /* \"#utility.yul\":9591:9662   */\n      tag_118\n      jump\t// in\n    tag_250:\n        /* \"#utility.yul\":9672:9744   */\n      tag_251\n        /* \"#utility.yul\":9740:9742   */\n      0x20\n        /* \"#utility.yul\":9729:9738   */\n      dup4\n        /* \"#utility.yul\":9725:9743   */\n      add\n        /* \"#utility.yul\":9716:9722   */\n      dup5\n        /* \"#utility.yul\":9672:9744   */\n      tag_115\n      jump\t// in\n    tag_251:\n        /* \"#utility.yul\":9419:9751   */\n      swap4\n      swap3\n      pop\n      pop\n      pop\n      jump\t// out\n        /* \"#utility.yul\":9757:9931   */\n    tag_140:\n        /* \"#utility.yul\":9897:9923   */\n      0x5072652d6275726e20616c726561647920736574746c65640000000000000000\n        /* \"#utility.yul\":9893:9894   */\n      0x00\n        /* \"#utility.yul\":9885:9891   */\n      dup3\n        /* \"#utility.yul\":9881:9895   */\n      add\n        /* \"#utility.yul\":9874:9924   */\n      mstore\n        /* \"#utility.yul\":9757:9931   */\n      pop\n      jump\t// out\n        /* \"#utility.yul\":9937:10303   */\n    tag_141:\n        /* \"#utility.yul\":10079:10082   */\n      0x00\n        /* \"#utility.yul\":10100:10167   */\n      tag_254\n        /* \"#utility.yul\":10164:10166   */\n      0x18\n        /* \"#utility.yul\":10159:10162   */\n      dup4\n        /* \"#utility.yul\":10100:10167   */\n      tag_135\n      jump\t// in\n    tag_254:\n        /* \"#utility.yul\":10093:10167   */\n      swap2\n      pop\n        /* \"#utility.yul\":10176:10269   */\n      tag_255\n        /* \"#utility.yul\":10265:10268   */\n      dup3\n        /* \"#utility.yul\":10176:10269   */\n      tag_140\n      jump\t// in\n    tag_255:\n        /* \"#utility.yul\":10294:10296   */\n      0x20\n        /* \"#utility.yul\":10289:10292   */\n      dup3\n        /* \"#utility.yul\":10285:10297   */\n      add\n        /* \"#utility.yul\":10278:10297   */\n      swap1\n      pop\n        /* \"#utility.yul\":9937:10303   */\n      swap2\n      swap1\n      pop\n      jump\t// out\n        /* \"#utility.yul\":10309:10728   */\n    tag_82:\n        /* \"#utility.yul\":10475:10479   */\n      0x00\n        /* \"#utility.yul\":10513:10515   */\n      0x20\n        /* \"#utility.yul\":10502:10511   */\n      dup3\n        /* \"#utility.yul\":10498:10516   */\n      add\n        /* \"#utility.yul\":10490:10516   */\n      swap1\n      pop\n        /* \"#utility.yul\":10562:10571   */\n      dup2\n        /* \"#utility.yul\":10556:10560   */\n      dup2\n        /* \"#utility.yul\":10552:10572   */\n      sub\n        /* \"#utility.yul\":10548:10549   */\n      0x00\n        /* \"#utility.yul\":10537:10546   */\n      dup4\n        /* \"#utility.yul\":10533:10550   */\n      add\n        /* \"#utility.yul\":10526:10573   */\n      mstore\n        /* \"#utility.yul\":10590:10721   */\n      tag_257\n        /* \"#utility.yul\":10716:10720   */\n      dup2\n        /* \"#utility.yul\":10590:10721   */\n      tag_141\n      jump\t// in\n    tag_257:\n        /* \"#utility.yul\":10582:10721   */\n      swap1\n      pop\n        /* \"#utility.yul\":10309:10728   */\n      swap2\n      swap1\n      pop\n      jump\t// out\n        /* \"#utility.yul\":10734:10908   */\n    tag_142:\n        /* \"#utility.yul\":10874:10900   */\n      0x556e6c6f636b20626c6f636b206e6f7420726561636865640000000000000000\n        /* \"#utility.yul\":10870:10871   */\n      0x00\n        /* \"#utility.yul\":10862:10868   */\n      dup3\n        /* \"#utility.yul\":10858:10872   */\n      add\n        /* \"#utility.yul\":10851:10901   */\n      mstore\n        /* \"#utility.yul\":10734:10908   */\n      pop\n      jump\t// out\n        /* \"#utility.yul\":10914:11280   */\n    tag_143:\n        /* \"#utility.yul\":11056:11059   */\n      0x00\n        /* \"#utility.yul\":11077:11144   */\n      tag_260\n        /* \"#utility.yul\":11141:11143   */\n      0x18\n        /* \"#utility.yul\":11136:11139   */\n      dup4\n        /* \"#utility.yul\":11077:11144   */\n      tag_135\n      jump\t// in\n    tag_260:\n        /* \"#utility.yul\":11070:11144   */\n      swap2\n      pop\n        /* \"#utility.yul\":11153:11246   */\n      tag_261\n        /* \"#utility.yul\":11242:11245   */\n      dup3\n        /* \"#utility.yul\":11153:11246   */\n      tag_142\n      jump\t// in\n    tag_261:\n        /* \"#utility.yul\":11271:11273   */\n      0x20\n        /* \"#utility.yul\":11266:11269   */\n      dup3\n        /* \"#utility.yul\":11262:11274   */\n      add\n        /* \"#utility.yul\":11255:11274   */\n      swap1\n      pop\n        /* \"#utility.yul\":10914:11280   */\n      swap2\n      swap1\n      pop\n      jump\t// out\n        /* \"#utility.yul\":11286:11705   */\n    tag_85:\n        /* \"#utility.yul\":11452:11456   */\n      0x00\n        /* \"#utility.yul\":11490:11492   */\n      0x20\n        /* \"#utility.yul\":11479:11488   */\n      dup3\n        /* \"#utility.yul\":11475:11493   */\n      add\n        /* \"#utility.yul\":11467:11493   */\n      swap1\n      pop\n        /* \"#utility.yul\":11539:11548   */\n      dup2\n        /* \"#utility.yul\":11533:11537   */\n      dup2\n        /* \"#utility.yul\":11529:11549   */\n      sub\n        /* \"#utility.yul\":11525:11526   */\n      0x00\n        /* \"#utility.yul\":11514:11523   */\n      dup4\n        /* \"#utility.yul\":11510:11527   */\n      add\n        /* \"#utility.yul\":11503:11550   */\n      mstore\n        /* \"#utility.yul\":11567:11698   */\n      tag_263\n        /* \"#utility.yul\":11693:11697   */\n      dup2\n        /* \"#utility.yul\":11567:11698   */\n      tag_143\n      jump\t// in\n    tag_263:\n        /* \"#utility.yul\":11559:11698   */\n      swap1\n      pop\n        /* \"#utility.yul\":11286:11705   */\n      swap2\n      swap1\n      pop\n      jump\t// out\n        /* \"#utility.yul\":11711:11879   */\n    tag_144:\n        /* \"#utility.yul\":11851:11871   */\n      0x496e76616c6964206d73672e73656e6465720000000000000000000000000000\n        /* \"#utility.yul\":11847:11848   */\n      0x00\n        /* \"#utility.yul\":11839:11845   */\n      dup3\n        /* \"#utility.yul\":11835:11849   */\n      add\n        /* \"#utility.yul\":11828:11872   */\n      mstore\n        /* \"#utility.yul\":11711:11879   */\n      pop\n      jump\t// out\n        /* \"#utility.yul\":11885:12251   */\n    tag_145:\n        /* \"#utility.yul\":12027:12030   */\n      0x00\n        /* \"#utility.yul\":12048:12115   */\n      tag_266\n        /* \"#utility.yul\":12112:12114   */\n      0x12\n        /* \"#utility.yul\":12107:12110   */\n      dup4\n        /* \"#utility.yul\":12048:12115   */\n      tag_135\n      jump\t// in\n    tag_266:\n        /* \"#utility.yul\":12041:12115   */\n      swap2\n      pop\n        /* \"#utility.yul\":12124:12217   */\n      tag_267\n        /* \"#utility.yul\":12213:12216   */\n      dup3\n        /* \"#utility.yul\":12124:12217   */\n      tag_144\n      jump\t// in\n    tag_267:\n        /* \"#utility.yul\":12242:12244   */\n      0x20\n        /* \"#utility.yul\":12237:12240   */\n      dup3\n        /* \"#utility.yul\":12233:12245   */\n      add\n        /* \"#utility.yul\":12226:12245   */\n      swap1\n      pop\n        /* \"#utility.yul\":11885:12251   */\n      swap2\n      swap1\n      pop\n      jump\t// out\n        /* \"#utility.yul\":12257:12676   */\n    tag_89:\n        /* \"#utility.yul\":12423:12427   */\n      0x00\n        /* \"#utility.yul\":12461:12463   */\n      0x20\n        /* \"#utility.yul\":12450:12459   */\n      dup3\n        /* \"#utility.yul\":12446:12464   */\n      add\n        /* \"#utility.yul\":12438:12464   */\n      swap1\n      pop\n        /* \"#utility.yul\":12510:12519   */\n      dup2\n        /* \"#utility.yul\":12504:12508   */\n      dup2\n        /* \"#utility.yul\":12500:12520   */\n      sub\n        /* \"#utility.yul\":12496:12497   */\n      0x00\n        /* \"#utility.yul\":12485:12494   */\n      dup4\n        /* \"#utility.yul\":12481:12498   */\n      add\n        /* \"#utility.yul\":12474:12521   */\n      mstore\n        /* \"#utility.yul\":12538:12669   */\n      tag_269\n        /* \"#utility.yul\":12664:12668   */\n      dup2\n        /* \"#utility.yul\":12538:12669   */\n      tag_145\n      jump\t// in\n    tag_269:\n        /* \"#utility.yul\":12530:12669   */\n      swap1\n      pop\n        /* \"#utility.yul\":12257:12676   */\n      swap2\n      swap1\n      pop\n      jump\t// out\n        /* \"#utility.yul\":12682:13124   */\n    tag_91:\n        /* \"#utility.yul\":12831:12835   */\n      0x00\n        /* \"#utility.yul\":12869:12871   */\n      0x60\n        /* \"#utility.yul\":12858:12867   */\n      dup3\n        /* \"#utility.yul\":12854:12872   */\n      add\n        /* \"#utility.yul\":12846:12872   */\n      swap1\n      pop\n        /* \"#utility.yul\":12882:12953   */\n      tag_271\n        /* \"#utility.yul\":12950:12951   */\n      0x00\n        /* \"#utility.yul\":12939:12948   */\n      dup4\n        /* \"#utility.yul\":12935:12952   */\n      add\n        /* \"#utility.yul\":12926:12932   */\n      dup7\n        /* \"#utility.yul\":12882:12953   */\n      tag_118\n      jump\t// in\n    tag_271:\n        /* \"#utility.yul\":12963:13035   */\n      tag_272\n        /* \"#utility.yul\":13031:13033   */\n      0x20\n        /* \"#utility.yul\":13020:13029   */\n      dup4\n        /* \"#utility.yul\":13016:13034   */\n      add\n        /* \"#utility.yul\":13007:13013   */\n      dup6\n        /* \"#utility.yul\":12963:13035   */\n      tag_118\n      jump\t// in\n    tag_272:\n        /* \"#utility.yul\":13045:13117   */\n      tag_273\n        /* \"#utility.yul\":13113:13115   */\n      0x40\n        /* \"#utility.yul\":13102:13111   */\n      dup4\n        /* \"#utility.yul\":13098:13116   */\n      add\n        /* \"#utility.yul\":13089:13095   */\n      dup5\n        /* \"#utility.yul\":13045:13117   */\n      tag_115\n      jump\t// in\n    tag_273:\n        /* \"#utility.yul\":12682:13124   */\n      swap5\n      swap4\n      pop\n      pop\n      pop\n      pop\n      jump\t// out\n        /* \"#utility.yul\":13130:13295   */\n    tag_146:\n        /* \"#utility.yul\":13270:13287   */\n      0x496e76616c6964206c6f636b2049440000000000000000000000000000000000\n        /* \"#utility.yul\":13266:13267   */\n      0x00\n        /* \"#utility.yul\":13258:13264   */\n      dup3\n        /* \"#utility.yul\":13254:13268   */\n      add\n        /* \"#utility.yul\":13247:13288   */\n      mstore\n        /* \"#utility.yul\":13130:13295   */\n      pop\n      jump\t// out\n        /* \"#utility.yul\":13301:13667   */\n    tag_147:\n        /* \"#utility.yul\":13443:13446   */\n      0x00\n        /* \"#utility.yul\":13464:13531   */\n      tag_276\n        /* \"#utility.yul\":13528:13530   */\n      0x0f\n        /* \"#utility.yul\":13523:13526   */\n      dup4\n        /* \"#utility.yul\":13464:13531   */\n      tag_135\n      jump\t// in\n    tag_276:\n        /* \"#utility.yul\":13457:13531   */\n      swap2\n      pop\n        /* \"#utility.yul\":13540:13633   */\n      tag_277\n        /* \"#utility.yul\":13629:13632   */\n      dup3\n        /* \"#utility.yul\":13540:13633   */\n      tag_146\n      jump\t// in\n    tag_277:\n        /* \"#utility.yul\":13658:13660   */\n      0x20\n        /* \"#utility.yul\":13653:13656   */\n      dup3\n        /* \"#utility.yul\":13649:13661   */\n      add\n        /* \"#utility.yul\":13642:13661   */\n      swap1\n      pop\n        /* \"#utility.yul\":13301:13667   */\n      swap2\n      swap1\n      pop\n      jump\t// out\n        /* \"#utility.yul\":13673:14092   */\n    tag_100:\n        /* \"#utility.yul\":13839:13843   */\n      0x00\n        /* \"#utility.yul\":13877:13879   */\n      0x20\n        /* \"#utility.yul\":13866:13875   */\n      dup3\n        /* \"#utility.yul\":13862:13880   */\n      add\n        /* \"#utility.yul\":13854:13880   */\n      swap1\n      pop\n        /* \"#utility.yul\":13926:13935   */\n      dup2\n        /* \"#utility.yul\":13920:13924   */\n      dup2\n        /* \"#utility.yul\":13916:13936   */\n      sub\n        /* \"#utility.yul\":13912:13913   */\n      0x00\n        /* \"#utility.yul\":13901:13910   */\n      dup4\n        /* \"#utility.yul\":13897:13914   */\n      add\n        /* \"#utility.yul\":13890:13937   */\n      mstore\n        /* \"#utility.yul\":13954:14085   */\n      tag_279\n        /* \"#utility.yul\":14080:14084   */\n      dup2\n        /* \"#utility.yul\":13954:14085   */\n      tag_147\n      jump\t// in\n    tag_279:\n        /* \"#utility.yul\":13946:14085   */\n      swap1\n      pop\n        /* \"#utility.yul\":13673:14092   */\n      swap2\n      swap1\n      pop\n      jump\t// out\n        /* \"#utility.yul\":14098:14319   */\n    tag_148:\n        /* \"#utility.yul\":14238:14272   */\n      0x556e6c6f636b20626c6f636b206d75737420626520696e207468652066757475\n        /* \"#utility.yul\":14234:14235   */\n      0x00\n        /* \"#utility.yul\":14226:14232   */\n      dup3\n        /* \"#utility.yul\":14222:14236   */\n      add\n        /* \"#utility.yul\":14215:14273   */\n      mstore\n        /* \"#utility.yul\":14307:14311   */\n      0x7265000000000000000000000000000000000000000000000000000000000000\n        /* \"#utility.yul\":14302:14304   */\n      0x20\n        /* \"#utility.yul\":14294:14300   */\n      dup3\n        /* \"#utility.yul\":14290:14305   */\n      add\n        /* \"#utility.yul\":14283:14312   */\n      mstore\n        /* \"#utility.yul\":14098:14319   */\n      pop\n      jump\t// out\n        /* \"#utility.yul\":14325:14691   */\n    tag_149:\n        /* \"#utility.yul\":14467:14470   */\n      0x00\n        /* \"#utility.yul\":14488:14555   */\n      tag_282\n        /* \"#utility.yul\":14552:14554   */\n      0x22\n        /* \"#utility.yul\":14547:14550   */\n      dup4\n        /* \"#utility.yul\":14488:14555   */\n      tag_135\n      jump\t// in\n    tag_282:\n        /* \"#utility.yul\":14481:14555   */\n      swap2\n      pop\n        /* \"#utility.yul\":14564:14657   */\n      tag_283\n        /* \"#utility.yul\":14653:14656   */\n      dup3\n        /* \"#utility.yul\":14564:14657   */\n      tag_148\n      jump\t// in\n    tag_283:\n        /* \"#utility.yul\":14682:14684   */\n      0x40\n        /* \"#utility.yul\":14677:14680   */\n      dup3\n        /* \"#utility.yul\":14673:14685   */\n      add\n        /* \"#utility.yul\":14666:14685   */\n      swap1\n      pop\n        /* \"#utility.yul\":14325:14691   */\n      swap2\n      swap1\n      pop\n      jump\t// out\n        /* \"#utility.yul\":14697:15116   */\n    tag_105:\n        /* \"#utility.yul\":14863:14867   */\n      0x00\n        /* \"#utility.yul\":14901:14903   */\n      0x20\n        /* \"#utility.yul\":14890:14899   */\n      dup3\n        /* \"#utility.yul\":14886:14904   */\n      add\n        /* \"#utility.yul\":14878:14904   */\n      swap1\n      pop\n        /* \"#utility.yul\":14950:14959   */\n      dup2\n        /* \"#utility.yul\":14944:14948   */\n      dup2\n        /* \"#utility.yul\":14940:14960   */\n      sub\n        /* \"#utility.yul\":14936:14937   */\n      0x00\n        /* \"#utility.yul\":14925:14934   */\n      dup4\n        /* \"#utility.yul\":14921:14938   */\n      add\n        /* \"#utility.yul\":14914:14961   */\n      mstore\n        /* \"#utility.yul\":14978:15109   */\n      tag_285\n        /* \"#utility.yul\":15104:15108   */\n      dup2\n        /* \"#utility.yul\":14978:15109   */\n      tag_149\n      jump\t// in\n    tag_285:\n        /* \"#utility.yul\":14970:15109   */\n      swap1\n      pop\n        /* \"#utility.yul\":14697:15116   */\n      swap2\n      swap1\n      pop\n      jump\t// out\n        /* \"#utility.yul\":15122:15302   */\n    tag_150:\n        /* \"#utility.yul\":15170:15247   */\n      0x4e487b7100000000000000000000000000000000000000000000000000000000\n        /* \"#utility.yul\":15167:15168   */\n      0x00\n        /* \"#utility.yul\":15160:15248   */\n      mstore\n        /* \"#utility.yul\":15267:15271   */\n      0x11\n        /* \"#utility.yul\":15264:15265   */\n      0x04\n        /* \"#utility.yul\":15257:15272   */\n      mstore\n        /* \"#utility.yul\":15291:15295   */\n      0x24\n        /* \"#utility.yul\":15288:15289   */\n      0x00\n        /* \"#utility.yul\":15281:15296   */\n      revert\n        /* \"#utility.yul\":15308:15541   */\n    tag_112:\n        /* \"#utility.yul\":15347:15350   */\n      0x00\n        /* \"#utility.yul\":15370:15394   */\n      tag_288\n        /* \"#utility.yul\":15388:15393   */\n      dup3\n        /* \"#utility.yul\":15370:15394   */\n      tag_114\n      jump\t// in\n    tag_288:\n        /* \"#utility.yul\":15361:15394   */\n      swap2\n      pop\n        /* \"#utility.yul\":15416:15482   */\n      0xffffffffffffffffffffffffffffffffffffffffffffffffffffffffffffffff\n        /* \"#utility.yul\":15409:15414   */\n      dup3\n        /* \"#utility.yul\":15406:15483   */\n      eq\n        /* \"#utility.yul\":15403:15506   */\n      iszero\n      tag_289\n      jumpi\n        /* \"#utility.yul\":15486:15504   */\n      tag_290\n      tag_150\n      jump\t// in\n    tag_290:\n        /* \"#utility.yul\":15403:15506   */\n    tag_289:\n        /* \"#utility.yul\":15533:15534   */\n      0x01\n        /* \"#utility.yul\":15526:15531   */\n      dup3\n        /* \"#utility.yul\":15522:15535   */\n      add\n        /* \"#utility.yul\":15515:15535   */\n      swap1\n      pop\n        /* \"#utility.yul\":15308:15541   */\n      swap2\n      swap1\n      pop\n      jump\t// out\n\n    auxdata: 0xa264697066735822122027e34bb62b848ad9397558afc23349204aed1c587171433aae01c6d4637c5f2964736f6c63430008090033\n}\n",
				"bytecode": {
					"linkReferences": {},
					"object": "608060405260146003553480156200001657600080fd5b50604051620015bc380380620015bc83398181016040528101906200003c919062000188565b816000806101000a81548173ffffffffffffffffffffffffffffffffffffffff021916908373ffffffffffffffffffffffffffffffffffffffff16021790555080600160006101000a81548173ffffffffffffffffffffffffffffffffffffffff021916908373ffffffffffffffffffffffffffffffffffffffff1602179055505050620001cf565b600080fd5b600073ffffffffffffffffffffffffffffffffffffffff82169050919050565b6000620000f782620000ca565b9050919050565b60006200010b82620000ea565b9050919050565b6200011d81620000fe565b81146200012957600080fd5b50565b6000815190506200013d8162000112565b92915050565b60006200015082620000ea565b9050919050565b620001628162000143565b81146200016e57600080fd5b50565b600081519050620001828162000157565b92915050565b60008060408385031215620001a257620001a1620000c5565b5b6000620001b2858286016200012c565b9250506020620001c58582860162000171565b9150509250929050565b6113dd80620001df6000396000f3fe608060405234801561001057600080fd5b50600436106100b45760003560e01c8063907bcd7911610071578063907bcd7914610169578063cea2011114610185578063d0d2c0b2146101a1578063d33df7f8146101d5578063f4b9fa75146101f1578063f7e9d5111461020f576100b4565b80630e7735bc146100b95780632a8d5944146100d75780633fd8b02f146100f557806347ccca0214610113578063717da1d814610131578063779972da1461014d575b600080fd5b6100c161022b565b6040516100ce9190610c18565b60405180910390f35b6100df610231565b6040516100ec9190610c74565b60405180910390f35b6100fd610257565b60405161010a9190610c18565b60405180910390f35b61011b61025d565b6040516101289190610cee565b60405180910390f35b61014b60048036038101906101469190610d66565b610281565b005b61016760048036038101906101629190610da6565b6104f2565b005b610183600480360381019061017e9190610dd3565b6104fc565b005b61019f600480360381019061019a9190610e3a565b61079c565b005b6101bb60048036038101906101b69190610da6565b610914565b6040516101cc959493929190610e95565b60405180910390f35b6101ef60048036038101906101ea9190610ee8565b610977565b005b6101f9610b95565b6040516102069190610f5c565b60405180910390f35b61022960048036038101906102249190610f77565b610bbb565b005b60055481565b600260009054906101000a900473ffffffffffffffffffffffffffffffffffffffff1681565b60035481565b60008054906101000a900473ffffffffffffffffffffffffffffffffffffffff1681565b6004600083815260200190815260200160002060040160009054906101000a900460ff166102e4576040517f08c379a00000000000000000000000000000000000000000000000000000000081526004016102db90611001565b60405180910390fd5b3373ffffffffffffffffffffffffffffffffffffffff166004600084815260200190815260200160002060020160009054906101000a900473ffffffffffffffffffffffffffffffffffffffff1673ffffffffffffffffffffffffffffffffffffffff1614806103b557508073ffffffffffffffffffffffffffffffffffffffff166004600084815260200190815260200160002060020160009054906101000a900473ffffffffffffffffffffffffffffffffffffffff1673ffffffffffffffffffffffffffffffffffffffff16145b6103f4576040517f08c379a00000000000000000000000000000000000000000000000000000000081526004016103eb9061106d565b60405180910390fd5b600060046000848152602001908152602001600020600301549050600160009054906101000a900473ffffffffffffffffffffffffffffffffffffffff1673ffffffffffffffffffffffffffffffffffffffff166355313a7b83836040518363ffffffff1660e01b815260040161046c92919061108d565b600060405180830381600087803b15801561048657600080fd5b505af115801561049a573d6000803e3d6000fd5b505050508173ffffffffffffffffffffffffffffffffffffffff16837ffe8c135c44d0580012634143f58a4a9b01535b58d5d1c250561e610f3204c8d1836040516104e59190610c18565b60405180910390a3505050565b8060038190555050565b6004600085815260200190815260200160002060040160009054906101000a900460ff1615610560576040517f08c379a000000000000000000000000000000000000000000000000000000000815260040161055790611102565b60405180910390fd5b60046000858152602001908152602001600020600101548110156105b9576040517f08c379a00000000000000000000000000000000000000000000000000000000081526004016105b09061116e565b60405180910390fd5b3373ffffffffffffffffffffffffffffffffffffffff166004600086815260200190815260200160002060020160009054906101000a900473ffffffffffffffffffffffffffffffffffffffff1673ffffffffffffffffffffffffffffffffffffffff16148061065457503373ffffffffffffffffffffffffffffffffffffffff168273ffffffffffffffffffffffffffffffffffffffff16145b610693576040517f08c379a000000000000000000000000000000000000000000000000000000000815260040161068a906111da565b60405180910390fd5b60008054906101000a900473ffffffffffffffffffffffffffffffffffffffff1673ffffffffffffffffffffffffffffffffffffffff166323b872dd3084866040518463ffffffff1660e01b81526004016106f0939291906111fa565b600060405180830381600087803b15801561070a57600080fd5b505af115801561071e573d6000803e3d6000fd5b5050505060016004600086815260200190815260200160002060040160006101000a81548160ff0219169083151502179055508173ffffffffffffffffffffffffffffffffffffffff1683857fa1e60122b7eddc5a4b7edbac1f5bb8fd8dd7fd095986ce43a0a2d71ec4d2843560405160405180910390a450505050565b6004600083815260200190815260200160002060040160009054906101000a900460ff1615610800576040517f08c379a00000000000000000000000000000000000000000000000000000000081526004016107f790611102565b60405180910390fd5b600073ffffffffffffffffffffffffffffffffffffffff166004600084815260200190815260200160002060020160009054906101000a900473ffffffffffffffffffffffffffffffffffffffff1673ffffffffffffffffffffffffffffffffffffffff1614156108a6576040517f08c379a000000000000000000000000000000000000000000000000000000000815260040161089d9061127d565b60405180910390fd5b8060046000848152602001908152602001600020600301819055506004600083815260200190815260200160002060000154827fb0af002dfffd2441f5c40b9d88f975d70a8297aa1005130ccd78cd3d0c0b6ece836040516109089190610c18565b60405180910390a35050565b60046020528060005260406000206000915090508060000154908060010154908060020160009054906101000a900473ffffffffffffffffffffffffffffffffffffffff16908060030154908060040160009054906101000a900460ff16905085565b4382116109b9576040517f08c379a00000000000000000000000000000000000000000000000000000000081526004016109b09061130f565b60405180910390fd5b60008054906101000a900473ffffffffffffffffffffffffffffffffffffffff1673ffffffffffffffffffffffffffffffffffffffff166323b872dd3330866040518463ffffffff1660e01b8152600401610a16939291906111fa565b600060405180830381600087803b158015610a3057600080fd5b505af1158015610a44573d6000803e3d6000fd5b505050506040518060a001604052808481526020018381526020013373ffffffffffffffffffffffffffffffffffffffff1681526020016000815260200160001515815250600460006005548152602001908152602001600020600082015181600001556020820151816001015560408201518160020160006101000a81548173ffffffffffffffffffffffffffffffffffffffff021916908373ffffffffffffffffffffffffffffffffffffffff1602179055506060820151816003015560808201518160040160006101000a81548160ff0219169083151502179055509050503373ffffffffffffffffffffffffffffffffffffffff16836005547f1ef04dd84cb98188de8ee330bce2cccd813529c95af01e59a08692901346805a85604051610b709190610c18565b60405180910390a460056000815480929190610b8b9061135e565b9190505550505050565b600160009054906101000a900473ffffffffffffffffffffffffffffffffffffffff1681565b80600260006101000a81548173ffffffffffffffffffffffffffffffffffffffff021916908373ffffffffffffffffffffffffffffffffffffffff16021790555050565b6000819050919050565b610c1281610bff565b82525050565b6000602082019050610c2d6000830184610c09565b92915050565b600073ffffffffffffffffffffffffffffffffffffffff82169050919050565b6000610c5e82610c33565b9050919050565b610c6e81610c53565b82525050565b6000602082019050610c896000830184610c65565b92915050565b6000819050919050565b6000610cb4610caf610caa84610c33565b610c8f565b610c33565b9050919050565b6000610cc682610c99565b9050919050565b6000610cd882610cbb565b9050919050565b610ce881610ccd565b82525050565b6000602082019050610d036000830184610cdf565b92915050565b600080fd5b610d1781610bff565b8114610d2257600080fd5b50565b600081359050610d3481610d0e565b92915050565b610d4381610c53565b8114610d4e57600080fd5b50565b600081359050610d6081610d3a565b92915050565b60008060408385031215610d7d57610d7c610d09565b5b6000610d8b85828601610d25565b9250506020610d9c85828601610d51565b9150509250929050565b600060208284031215610dbc57610dbb610d09565b5b6000610dca84828501610d25565b91505092915050565b60008060008060808587031215610ded57610dec610d09565b5b6000610dfb87828801610d25565b9450506020610e0c87828801610d25565b9350506040610e1d87828801610d51565b9250506060610e2e87828801610d25565b91505092959194509250565b60008060408385031215610e5157610e50610d09565b5b6000610e5f85828601610d25565b9250506020610e7085828601610d25565b9150509250929050565b60008115159050919050565b610e8f81610e7a565b82525050565b600060a082019050610eaa6000830188610c09565b610eb76020830187610c09565b610ec46040830186610c65565b610ed16060830185610c09565b610ede6080830184610e86565b9695505050505050565b600080600060608486031215610f0157610f00610d09565b5b6000610f0f86828701610d25565b9350506020610f2086828701610d25565b9250506040610f3186828701610d51565b9150509250925092565b6000610f4682610cbb565b9050919050565b610f5681610f3b565b82525050565b6000602082019050610f716000830184610f4d565b92915050565b600060208284031215610f8d57610f8c610d09565b5b6000610f9b84828501610d51565b91505092915050565b600082825260208201905092915050565b7f5072652d6275726e206e6f7420736574746c6564000000000000000000000000600082015250565b6000610feb601483610fa4565b9150610ff682610fb5565b602082019050919050565b6000602082019050818103600083015261101a81610fde565b9050919050565b7f496e76616c696420726563697069656e74000000000000000000000000000000600082015250565b6000611057601183610fa4565b915061106282611021565b602082019050919050565b600060208201905081810360008301526110868161104a565b9050919050565b60006040820190506110a26000830185610c65565b6110af6020830184610c09565b9392505050565b7f5072652d6275726e20616c726561647920736574746c65640000000000000000600082015250565b60006110ec601883610fa4565b91506110f7826110b6565b602082019050919050565b6000602082019050818103600083015261111b816110df565b9050919050565b7f556e6c6f636b20626c6f636b206e6f7420726561636865640000000000000000600082015250565b6000611158601883610fa4565b915061116382611122565b602082019050919050565b600060208201905081810360008301526111878161114b565b9050919050565b7f496e76616c6964206d73672e73656e6465720000000000000000000000000000600082015250565b60006111c4601283610fa4565b91506111cf8261118e565b602082019050919050565b600060208201905081810360008301526111f3816111b7565b9050919050565b600060608201905061120f6000830186610c65565b61121c6020830185610c65565b6112296040830184610c09565b949350505050565b7f496e76616c6964206c6f636b2049440000000000000000000000000000000000600082015250565b6000611267600f83610fa4565b915061127282611231565b602082019050919050565b600060208201905081810360008301526112968161125a565b9050919050565b7f556e6c6f636b20626c6f636b206d75737420626520696e20746865206675747560008201527f7265000000000000000000000000000000000000000000000000000000000000602082015250565b60006112f9602283610fa4565b91506113048261129d565b604082019050919050565b60006020820190508181036000830152611328816112ec565b9050919050565b7f4e487b7100000000000000000000000000000000000000000000000000000000600052601160045260246000fd5b600061136982610bff565b91507fffffffffffffffffffffffffffffffffffffffffffffffffffffffffffffffff82141561139c5761139b61132f565b5b60018201905091905056fea264697066735822122027e34bb62b848ad9397558afc23349204aed1c587171433aae01c6d4637c5f2964736f6c63430008090033",
					"opcodes": "PUSH1 0x80 PUSH1 0x40 MSTORE PUSH1 0x14 PUSH1 0x3 SSTORE CALLVALUE DUP1 ISZERO PUSH3 0x16 JUMPI PUSH1 0x0 DUP1 REVERT JUMPDEST POP PUSH1 0x40 MLOAD PUSH3 0x15BC CODESIZE SUB DUP1 PUSH3 0x15BC DUP4 CODECOPY DUP2 DUP2 ADD PUSH1 0x40 MSTORE DUP2 ADD SWAP1 PUSH3 0x3C SWAP2 SWAP1 PUSH3 0x188 JUMP JUMPDEST DUP2 PUSH1 0x0 DUP1 PUSH2 0x100 EXP DUP2 SLOAD DUP2 PUSH20 0xFFFFFFFFFFFFFFFFFFFFFFFFFFFFFFFFFFFFFFFF MUL NOT AND SWAP1 DUP4 PUSH20 0xFFFFFFFFFFFFFFFFFFFFFFFFFFFFFFFFFFFFFFFF AND MUL OR SWAP1 SSTORE POP DUP1 PUSH1 0x1 PUSH1 0x0 PUSH2 0x100 EXP DUP2 SLOAD DUP2 PUSH20 0xFFFFFFFFFFFFFFFFFFFFFFFFFFFFFFFFFFFFFFFF MUL NOT AND SWAP1 DUP4 PUSH20 0xFFFFFFFFFFFFFFFFFFFFFFFFFFFFFFFFFFFFFFFF AND MUL OR SWAP1 SSTORE POP POP POP PUSH3 0x1CF JUMP JUMPDEST PUSH1 0x0 DUP1 REVERT JUMPDEST PUSH1 0x0 PUSH20 0xFFFFFFFFFFFFFFFFFFFFFFFFFFFFFFFFFFFFFFFF DUP3 AND SWAP1 POP SWAP2 SWAP1 POP JUMP JUMPDEST PUSH1 0x0 PUSH3 0xF7 DUP3 PUSH3 0xCA JUMP JUMPDEST SWAP1 POP SWAP2 SWAP1 POP JUMP JUMPDEST PUSH1 0x0 PUSH3 0x10B DUP3 PUSH3 0xEA JUMP JUMPDEST SWAP1 POP SWAP2 SWAP1 POP JUMP JUMPDEST PUSH3 0x11D DUP2 PUSH3 0xFE JUMP JUMPDEST DUP2 EQ PUSH3 0x129 JUMPI PUSH1 0x0 DUP1 REVERT JUMPDEST POP JUMP JUMPDEST PUSH1 0x0 DUP2 MLOAD SWAP1 POP PUSH3 0x13D DUP2 PUSH3 0x112 JUMP JUMPDEST SWAP3 SWAP2 POP POP JUMP JUMPDEST PUSH1 0x0 PUSH3 0x150 DUP3 PUSH3 0xEA JUMP JUMPDEST SWAP1 POP SWAP2 SWAP1 POP JUMP JUMPDEST PUSH3 0x162 DUP2 PUSH3 0x143 JUMP JUMPDEST DUP2 EQ PUSH3 0x16E JUMPI PUSH1 0x0 DUP1 REVERT JUMPDEST POP JUMP JUMPDEST PUSH1 0x0 DUP2 MLOAD SWAP1 POP PUSH3 0x182 DUP2 PUSH3 0x157 JUMP JUMPDEST SWAP3 SWAP2 POP POP JUMP JUMPDEST PUSH1 0x0 DUP1 PUSH1 0x40 DUP4 DUP6 SUB SLT ISZERO PUSH3 0x1A2 JUMPI PUSH3 0x1A1 PUSH3 0xC5 JUMP JUMPDEST JUMPDEST PUSH1 0x0 PUSH3 0x1B2 DUP6 DUP3 DUP7 ADD PUSH3 0x12C JUMP JUMPDEST SWAP3 POP POP PUSH1 0x20 PUSH3 0x1C5 DUP6 DUP3 DUP7 ADD PUSH3 0x171 JUMP JUMPDEST SWAP2 POP POP SWAP3 POP SWAP3 SWAP1 POP JUMP JUMPDEST PUSH2 0x13DD DUP1 PUSH3 0x1DF PUSH1 0x0 CODECOPY PUSH1 0x0 RETURN INVALID PUSH1 0x80 PUSH1 0x40 MSTORE CALLVALUE DUP1 ISZERO PUSH2 0x10 JUMPI PUSH1 0x0 DUP1 REVERT JUMPDEST POP PUSH1 0x4 CALLDATASIZE LT PUSH2 0xB4 JUMPI PUSH1 0x0 CALLDATALOAD PUSH1 0xE0 SHR DUP1 PUSH4 0x907BCD79 GT PUSH2 0x71 JUMPI DUP1 PUSH4 0x907BCD79 EQ PUSH2 0x169 JUMPI DUP1 PUSH4 0xCEA20111 EQ PUSH2 0x185 JUMPI DUP1 PUSH4 0xD0D2C0B2 EQ PUSH2 0x1A1 JUMPI DUP1 PUSH4 0xD33DF7F8 EQ PUSH2 0x1D5 JUMPI DUP1 PUSH4 0xF4B9FA75 EQ PUSH2 0x1F1 JUMPI DUP1 PUSH4 0xF7E9D511 EQ PUSH2 0x20F JUMPI PUSH2 0xB4 JUMP JUMPDEST DUP1 PUSH4 0xE7735BC EQ PUSH2 0xB9 JUMPI DUP1 PUSH4 0x2A8D5944 EQ PUSH2 0xD7 JUMPI DUP1 PUSH4 0x3FD8B02F EQ PUSH2 0xF5 JUMPI DUP1 PUSH4 0x47CCCA02 EQ PUSH2 0x113 JUMPI DUP1 PUSH4 0x717DA1D8 EQ PUSH2 0x131 JUMPI DUP1 PUSH4 0x779972DA EQ PUSH2 0x14D JUMPI JUMPDEST PUSH1 0x0 DUP1 REVERT JUMPDEST PUSH2 0xC1 PUSH2 0x22B JUMP JUMPDEST PUSH1 0x40 MLOAD PUSH2 0xCE SWAP2 SWAP1 PUSH2 0xC18 JUMP JUMPDEST PUSH1 0x40 MLOAD DUP1 SWAP2 SUB SWAP1 RETURN JUMPDEST PUSH2 0xDF PUSH2 0x231 JUMP JUMPDEST PUSH1 0x40 MLOAD PUSH2 0xEC SWAP2 SWAP1 PUSH2 0xC74 JUMP JUMPDEST PUSH1 0x40 MLOAD DUP1 SWAP2 SUB SWAP1 RETURN JUMPDEST PUSH2 0xFD PUSH2 0x257 JUMP JUMPDEST PUSH1 0x40 MLOAD PUSH2 0x10A SWAP2 SWAP1 PUSH2 0xC18 JUMP JUMPDEST PUSH1 0x40 MLOAD DUP1 SWAP2 SUB SWAP1 RETURN JUMPDEST PUSH2 0x11B PUSH2 0x25D JUMP JUMPDEST PUSH1 0x40 MLOAD PUSH2 0x128 SWAP2 SWAP1 PUSH2 0xCEE JUMP JUMPDEST PUSH1 0x40 MLOAD DUP1 SWAP2 SUB SWAP1 RETURN JUMPDEST PUSH2 0x14B PUSH1 0x4 DUP1 CALLDATASIZE SUB DUP2 ADD SWAP1 PUSH2 0x146 SWAP2 SWAP1 PUSH2 0xD66 JUMP JUMPDEST PUSH2 0x281 JUMP JUMPDEST STOP JUMPDEST PUSH2 0x167 PUSH1 0x4 DUP1 CALLDATASIZE SUB DUP2 ADD SWAP1 PUSH2 0x162 SWAP2 SWAP1 PUSH2 0xDA6 JUMP JUMPDEST PUSH2 0x4F2 JUMP JUMPDEST STOP JUMPDEST PUSH2 0x183 PUSH1 0x4 DUP1 CALLDATASIZE SUB DUP2 ADD SWAP1 PUSH2 0x17E SWAP2 SWAP1 PUSH2 0xDD3 JUMP JUMPDEST PUSH2 0x4FC JUMP JUMPDEST STOP JUMPDEST PUSH2 0x19F PUSH1 0x4 DUP1 CALLDATASIZE SUB DUP2 ADD SWAP1 PUSH2 0x19A SWAP2 SWAP1 PUSH2 0xE3A JUMP JUMPDEST PUSH2 0x79C JUMP JUMPDEST STOP JUMPDEST PUSH2 0x1BB PUSH1 0x4 DUP1 CALLDATASIZE SUB DUP2 ADD SWAP1 PUSH2 0x1B6 SWAP2 SWAP1 PUSH2 0xDA6 JUMP JUMPDEST PUSH2 0x914 JUMP JUMPDEST PUSH1 0x40 MLOAD PUSH2 0x1CC SWAP6 SWAP5 SWAP4 SWAP3 SWAP2 SWAP1 PUSH2 0xE95 JUMP JUMPDEST PUSH1 0x40 MLOAD DUP1 SWAP2 SUB SWAP1 RETURN JUMPDEST PUSH2 0x1EF PUSH1 0x4 DUP1 CALLDATASIZE SUB DUP2 ADD SWAP1 PUSH2 0x1EA SWAP2 SWAP1 PUSH2 0xEE8 JUMP JUMPDEST PUSH2 0x977 JUMP JUMPDEST STOP JUMPDEST PUSH2 0x1F9 PUSH2 0xB95 JUMP JUMPDEST PUSH1 0x40 MLOAD PUSH2 0x206 SWAP2 SWAP1 PUSH2 0xF5C JUMP JUMPDEST PUSH1 0x40 MLOAD DUP1 SWAP2 SUB SWAP1 RETURN JUMPDEST PUSH2 0x229 PUSH1 0x4 DUP1 CALLDATASIZE SUB DUP2 ADD SWAP1 PUSH2 0x224 SWAP2 SWAP1 PUSH2 0xF77 JUMP JUMPDEST PUSH2 0xBBB JUMP JUMPDEST STOP JUMPDEST PUSH1 0x5 SLOAD DUP2 JUMP JUMPDEST PUSH1 0x2 PUSH1 0x0 SWAP1 SLOAD SWAP1 PUSH2 0x100 EXP SWAP1 DIV PUSH20 0xFFFFFFFFFFFFFFFFFFFFFFFFFFFFFFFFFFFFFFFF AND DUP2 JUMP JUMPDEST PUSH1 0x3 SLOAD DUP2 JUMP JUMPDEST PUSH1 0x0 DUP1 SLOAD SWAP1 PUSH2 0x100 EXP SWAP1 DIV PUSH20 0xFFFFFFFFFFFFFFFFFFFFFFFFFFFFFFFFFFFFFFFF AND DUP2 JUMP JUMPDEST PUSH1 0x4 PUSH1 0x0 DUP4 DUP2 MSTORE PUSH1 0x20 ADD SWAP1 DUP2 MSTORE PUSH1 0x20 ADD PUSH1 0x0 KECCAK256 PUSH1 0x4 ADD PUSH1 0x0 SWAP1 SLOAD SWAP1 PUSH2 0x100 EXP SWAP1 DIV PUSH1 0xFF AND PUSH2 0x2E4 JUMPI PUSH1 0x40 MLOAD PUSH32 0x8C379A000000000000000000000000000000000000000000000000000000000 DUP2 MSTORE PUSH1 0x4 ADD PUSH2 0x2DB SWAP1 PUSH2 0x1001 JUMP JUMPDEST PUSH1 0x40 MLOAD DUP1 SWAP2 SUB SWAP1 REVERT JUMPDEST CALLER PUSH20 0xFFFFFFFFFFFFFFFFFFFFFFFFFFFFFFFFFFFFFFFF AND PUSH1 0x4 PUSH1 0x0 DUP5 DUP2 MSTORE PUSH1 0x20 ADD SWAP1 DUP2 MSTORE PUSH1 0x20 ADD PUSH1 0x0 KECCAK256 PUSH1 0x2 ADD PUSH1 0x0 SWAP1 SLOAD SWAP1 PUSH2 0x100 EXP SWAP1 DIV PUSH20 0xFFFFFFFFFFFFFFFFFFFFFFFFFFFFFFFFFFFFFFFF AND PUSH20 0xFFFFFFFFFFFFFFFFFFFFFFFFFFFFFFFFFFFFFFFF AND EQ DUP1 PUSH2 0x3B5 JUMPI POP DUP1 PUSH20 0xFFFFFFFFFFFFFFFFFFFFFFFFFFFFFFFFFFFFFFFF AND PUSH1 0x4 PUSH1 0x0 DUP5 DUP2 MSTORE PUSH1 0x20 ADD SWAP1 DUP2 MSTORE PUSH1 0x20 ADD PUSH1 0x0 KECCAK256 PUSH1 0x2 ADD PUSH1 0x0 SWAP1 SLOAD SWAP1 PUSH2 0x100 EXP SWAP1 DIV PUSH20 0xFFFFFFFFFFFFFFFFFFFFFFFFFFFFFFFFFFFFFFFF AND PUSH20 0xFFFFFFFFFFFFFFFFFFFFFFFFFFFFFFFFFFFFFFFF AND EQ JUMPDEST PUSH2 0x3F4 JUMPI PUSH1 0x40 MLOAD PUSH32 0x8C379A000000000000000000000000000000000000000000000000000000000 DUP2 MSTORE PUSH1 0x4 ADD PUSH2 0x3EB SWAP1 PUSH2 0x106D JUMP JUMPDEST PUSH1 0x40 MLOAD DUP1 SWAP2 SUB SWAP1 REVERT JUMPDEST PUSH1 0x0 PUSH1 0x4 PUSH1 0x0 DUP5 DUP2 MSTORE PUSH1 0x20 ADD SWAP1 DUP2 MSTORE PUSH1 0x20 ADD PUSH1 0x0 KECCAK256 PUSH1 0x3 ADD SLOAD SWAP1 POP PUSH1 0x1 PUSH1 0x0 SWAP1 SLOAD SWAP1 PUSH2 0x100 EXP SWAP1 DIV PUSH20 0xFFFFFFFFFFFFFFFFFFFFFFFFFFFFFFFFFFFFFFFF AND PUSH20 0xFFFFFFFFFFFFFFFFFFFFFFFFFFFFFFFFFFFFFFFF AND PUSH4 0x55313A7B DUP4 DUP4 PUSH1 0x40 MLOAD DUP4 PUSH4 0xFFFFFFFF AND PUSH1 0xE0 SHL DUP2 MSTORE PUSH1 0x4 ADD PUSH2 0x46C SWAP3 SWAP2 SWAP1 PUSH2 0x108D JUMP JUMPDEST PUSH1 0x0 PUSH1 0x40 MLOAD DUP1 DUP4 SUB DUP2 PUSH1 0x0 DUP8 DUP1 EXTCODESIZE ISZERO DUP1 ISZERO PUSH2 0x486 JUMPI PUSH1 0x0 DUP1 REVERT JUMPDEST POP GAS CALL ISZERO DUP1 ISZERO PUSH2 0x49A JUMPI RETURNDATASIZE PUSH1 0x0 DUP1 RETURNDATACOPY RETURNDATASIZE PUSH1 0x0 REVERT JUMPDEST POP POP POP POP DUP2 PUSH20 0xFFFFFFFFFFFFFFFFFFFFFFFFFFFFFFFFFFFFFFFF AND DUP4 PUSH32 0xFE8C135C44D0580012634143F58A4A9B01535B58D5D1C250561E610F3204C8D1 DUP4 PUSH1 0x40 MLOAD PUSH2 0x4E5 SWAP2 SWAP1 PUSH2 0xC18 JUMP JUMPDEST PUSH1 0x40 MLOAD DUP1 SWAP2 SUB SWAP1 LOG3 POP POP POP JUMP JUMPDEST DUP1 PUSH1 0x3 DUP2 SWAP1 SSTORE POP POP JUMP JUMPDEST PUSH1 0x4 PUSH1 0x0 DUP6 DUP2 MSTORE PUSH1 0x20 ADD SWAP1 DUP2 MSTORE PUSH1 0x20 ADD PUSH1 0x0 KECCAK256 PUSH1 0x4 ADD PUSH1 0x0 SWAP1 SLOAD SWAP1 PUSH2 0x100 EXP SWAP1 DIV PUSH1 0xFF AND ISZERO PUSH2 0x560 JUMPI PUSH1 0x40 MLOAD PUSH32 0x8C379A000000000000000000000000000000000000000000000000000000000 DUP2 MSTORE PUSH1 0x4 ADD PUSH2 0x557 SWAP1 PUSH2 0x1102 JUMP JUMPDEST PUSH1 0x40 MLOAD DUP1 SWAP2 SUB SWAP1 REVERT JUMPDEST PUSH1 0x4 PUSH1 0x0 DUP6 DUP2 MSTORE PUSH1 0x20 ADD SWAP1 DUP2 MSTORE PUSH1 0x20 ADD PUSH1 0x0 KECCAK256 PUSH1 0x1 ADD SLOAD DUP2 LT ISZERO PUSH2 0x5B9 JUMPI PUSH1 0x40 MLOAD PUSH32 0x8C379A000000000000000000000000000000000000000000000000000000000 DUP2 MSTORE PUSH1 0x4 ADD PUSH2 0x5B0 SWAP1 PUSH2 0x116E JUMP JUMPDEST PUSH1 0x40 MLOAD DUP1 SWAP2 SUB SWAP1 REVERT JUMPDEST CALLER PUSH20 0xFFFFFFFFFFFFFFFFFFFFFFFFFFFFFFFFFFFFFFFF AND PUSH1 0x4 PUSH1 0x0 DUP7 DUP2 MSTORE PUSH1 0x20 ADD SWAP1 DUP2 MSTORE PUSH1 0x20 ADD PUSH1 0x0 KECCAK256 PUSH1 0x2 ADD PUSH1 0x0 SWAP1 SLOAD SWAP1 PUSH2 0x100 EXP SWAP1 DIV PUSH20 0xFFFFFFFFFFFFFFFFFFFFFFFFFFFFFFFFFFFFFFFF AND PUSH20 0xFFFFFFFFFFFFFFFFFFFFFFFFFFFFFFFFFFFFFFFF AND EQ DUP1 PUSH2 0x654 JUMPI POP CALLER PUSH20 0xFFFFFFFFFFFFFFFFFFFFFFFFFFFFFFFFFFFFFFFF AND DUP3 PUSH20 0xFFFFFFFFFFFFFFFFFFFFFFFFFFFFFFFFFFFFFFFF AND EQ JUMPDEST PUSH2 0x693 JUMPI PUSH1 0x40 MLOAD PUSH32 0x8C379A000000000000000000000000000000000000000000000000000000000 DUP2 MSTORE PUSH1 0x4 ADD PUSH2 0x68A SWAP1 PUSH2 0x11DA JUMP JUMPDEST PUSH1 0x40 MLOAD DUP1 SWAP2 SUB SWAP1 REVERT JUMPDEST PUSH1 0x0 DUP1 SLOAD SWAP1 PUSH2 0x100 EXP SWAP1 DIV PUSH20 0xFFFFFFFFFFFFFFFFFFFFFFFFFFFFFFFFFFFFFFFF AND PUSH20 0xFFFFFFFFFFFFFFFFFFFFFFFFFFFFFFFFFFFFFFFF AND PUSH4 0x23B872DD ADDRESS DUP5 DUP7 PUSH1 0x40 MLOAD DUP5 PUSH4 0xFFFFFFFF AND PUSH1 0xE0 SHL DUP2 MSTORE PUSH1 0x4 ADD PUSH2 0x6F0 SWAP4 SWAP3 SWAP2 SWAP1 PUSH2 0x11FA JUMP JUMPDEST PUSH1 0x0 PUSH1 0x40 MLOAD DUP1 DUP4 SUB DUP2 PUSH1 0x0 DUP8 DUP1 EXTCODESIZE ISZERO DUP1 ISZERO PUSH2 0x70A JUMPI PUSH1 0x0 DUP1 REVERT JUMPDEST POP GAS CALL ISZERO DUP1 ISZERO PUSH2 0x71E JUMPI RETURNDATASIZE PUSH1 0x0 DUP1 RETURNDATACOPY RETURNDATASIZE PUSH1 0x0 REVERT JUMPDEST POP POP POP POP PUSH1 0x1 PUSH1 0x4 PUSH1 0x0 DUP7 DUP2 MSTORE PUSH1 0x20 ADD SWAP1 DUP2 MSTORE PUSH1 0x20 ADD PUSH1 0x0 KECCAK256 PUSH1 0x4 ADD PUSH1 0x0 PUSH2 0x100 EXP DUP2 SLOAD DUP2 PUSH1 0xFF MUL NOT AND SWAP1 DUP4 ISZERO ISZERO MUL OR SWAP1 SSTORE POP DUP2 PUSH20 0xFFFFFFFFFFFFFFFFFFFFFFFFFFFFFFFFFFFFFFFF AND DUP4 DUP6 PUSH32 0xA1E60122B7EDDC5A4B7EDBAC1F5BB8FD8DD7FD095986CE43A0A2D71EC4D28435 PUSH1 0x40 MLOAD PUSH1 0x40 MLOAD DUP1 SWAP2 SUB SWAP1 LOG4 POP POP POP POP JUMP JUMPDEST PUSH1 0x4 PUSH1 0x0 DUP4 DUP2 MSTORE PUSH1 0x20 ADD SWAP1 DUP2 MSTORE PUSH1 0x20 ADD PUSH1 0x0 KECCAK256 PUSH1 0x4 ADD PUSH1 0x0 SWAP1 SLOAD SWAP1 PUSH2 0x100 EXP SWAP1 DIV PUSH1 0xFF AND ISZERO PUSH2 0x800 JUMPI PUSH1 0x40 MLOAD PUSH32 0x8C379A000000000000000000000000000000000000000000000000000000000 DUP2 MSTORE PUSH1 0x4 ADD PUSH2 0x7F7 SWAP1 PUSH2 0x1102 JUMP JUMPDEST PUSH1 0x40 MLOAD DUP1 SWAP2 SUB SWAP1 REVERT JUMPDEST PUSH1 0x0 PUSH20 0xFFFFFFFFFFFFFFFFFFFFFFFFFFFFFFFFFFFFFFFF AND PUSH1 0x4 PUSH1 0x0 DUP5 DUP2 MSTORE PUSH1 0x20 ADD SWAP1 DUP2 MSTORE PUSH1 0x20 ADD PUSH1 0x0 KECCAK256 PUSH1 0x2 ADD PUSH1 0x0 SWAP1 SLOAD SWAP1 PUSH2 0x100 EXP SWAP1 DIV PUSH20 0xFFFFFFFFFFFFFFFFFFFFFFFFFFFFFFFFFFFFFFFF AND PUSH20 0xFFFFFFFFFFFFFFFFFFFFFFFFFFFFFFFFFFFFFFFF AND EQ ISZERO PUSH2 0x8A6 JUMPI PUSH1 0x40 MLOAD PUSH32 0x8C379A000000000000000000000000000000000000000000000000000000000 DUP2 MSTORE PUSH1 0x4 ADD PUSH2 0x89D SWAP1 PUSH2 0x127D JUMP JUMPDEST PUSH1 0x40 MLOAD DUP1 SWAP2 SUB SWAP1 REVERT JUMPDEST DUP1 PUSH1 0x4 PUSH1 0x0 DUP5 DUP2 MSTORE PUSH1 0x20 ADD SWAP1 DUP2 MSTORE PUSH1 0x20 ADD PUSH1 0x0 KECCAK256 PUSH1 0x3 ADD DUP2 SWAP1 SSTORE POP PUSH1 0x4 PUSH1 0x0 DUP4 DUP2 MSTORE PUSH1 0x20 ADD SWAP1 DUP2 MSTORE PUSH1 0x20 ADD PUSH1 0x0 KECCAK256 PUSH1 0x0 ADD SLOAD DUP3 PUSH32 0xB0AF002DFFFD2441F5C40B9D88F975D70A8297AA1005130CCD78CD3D0C0B6ECE DUP4 PUSH1 0x40 MLOAD PUSH2 0x908 SWAP2 SWAP1 PUSH2 0xC18 JUMP JUMPDEST PUSH1 0x40 MLOAD DUP1 SWAP2 SUB SWAP1 LOG3 POP POP JUMP JUMPDEST PUSH1 0x4 PUSH1 0x20 MSTORE DUP1 PUSH1 0x0 MSTORE PUSH1 0x40 PUSH1 0x0 KECCAK256 PUSH1 0x0 SWAP2 POP SWAP1 POP DUP1 PUSH1 0x0 ADD SLOAD SWAP1 DUP1 PUSH1 0x1 ADD SLOAD SWAP1 DUP1 PUSH1 0x2 ADD PUSH1 0x0 SWAP1 SLOAD SWAP1 PUSH2 0x100 EXP SWAP1 DIV PUSH20 0xFFFFFFFFFFFFFFFFFFFFFFFFFFFFFFFFFFFFFFFF AND SWAP1 DUP1 PUSH1 0x3 ADD SLOAD SWAP1 DUP1 PUSH1 0x4 ADD PUSH1 0x0 SWAP1 SLOAD SWAP1 PUSH2 0x100 EXP SWAP1 DIV PUSH1 0xFF AND SWAP1 POP DUP6 JUMP JUMPDEST NUMBER DUP3 GT PUSH2 0x9B9 JUMPI PUSH1 0x40 MLOAD PUSH32 0x8C379A000000000000000000000000000000000000000000000000000000000 DUP2 MSTORE PUSH1 0x4 ADD PUSH2 0x9B0 SWAP1 PUSH2 0x130F JUMP JUMPDEST PUSH1 0x40 MLOAD DUP1 SWAP2 SUB SWAP1 REVERT JUMPDEST PUSH1 0x0 DUP1 SLOAD SWAP1 PUSH2 0x100 EXP SWAP1 DIV PUSH20 0xFFFFFFFFFFFFFFFFFFFFFFFFFFFFFFFFFFFFFFFF AND PUSH20 0xFFFFFFFFFFFFFFFFFFFFFFFFFFFFFFFFFFFFFFFF AND PUSH4 0x23B872DD CALLER ADDRESS DUP7 PUSH1 0x40 MLOAD DUP5 PUSH4 0xFFFFFFFF AND PUSH1 0xE0 SHL DUP2 MSTORE PUSH1 0x4 ADD PUSH2 0xA16 SWAP4 SWAP3 SWAP2 SWAP1 PUSH2 0x11FA JUMP JUMPDEST PUSH1 0x0 PUSH1 0x40 MLOAD DUP1 DUP4 SUB DUP2 PUSH1 0x0 DUP8 DUP1 EXTCODESIZE ISZERO DUP1 ISZERO PUSH2 0xA30 JUMPI PUSH1 0x0 DUP1 REVERT JUMPDEST POP GAS CALL ISZERO DUP1 ISZERO PUSH2 0xA44 JUMPI RETURNDATASIZE PUSH1 0x0 DUP1 RETURNDATACOPY RETURNDATASIZE PUSH1 0x0 REVERT JUMPDEST POP POP POP POP PUSH1 0x40 MLOAD DUP1 PUSH1 0xA0 ADD PUSH1 0x40 MSTORE DUP1 DUP5 DUP2 MSTORE PUSH1 0x20 ADD DUP4 DUP2 MSTORE PUSH1 0x20 ADD CALLER PUSH20 0xFFFFFFFFFFFFFFFFFFFFFFFFFFFFFFFFFFFFFFFF AND DUP2 MSTORE PUSH1 0x20 ADD PUSH1 0x0 DUP2 MSTORE PUSH1 0x20 ADD PUSH1 0x0 ISZERO ISZERO DUP2 MSTORE POP PUSH1 0x4 PUSH1 0x0 PUSH1 0x5 SLOAD DUP2 MSTORE PUSH1 0x20 ADD SWAP1 DUP2 MSTORE PUSH1 0x20 ADD PUSH1 0x0 KECCAK256 PUSH1 0x0 DUP3 ADD MLOAD DUP2 PUSH1 0x0 ADD SSTORE PUSH1 0x20 DUP3 ADD MLOAD DUP2 PUSH1 0x1 ADD SSTORE PUSH1 0x40 DUP3 ADD MLOAD DUP2 PUSH1 0x2 ADD PUSH1 0x0 PUSH2 0x100 EXP DUP2 SLOAD DUP2 PUSH20 0xFFFFFFFFFFFFFFFFFFFFFFFFFFFFFFFFFFFFFFFF MUL NOT AND SWAP1 DUP4 PUSH20 0xFFFFFFFFFFFFFFFFFFFFFFFFFFFFFFFFFFFFFFFF AND MUL OR SWAP1 SSTORE POP PUSH1 0x60 DUP3 ADD MLOAD DUP2 PUSH1 0x3 ADD SSTORE PUSH1 0x80 DUP3 ADD MLOAD DUP2 PUSH1 0x4 ADD PUSH1 0x0 PUSH2 0x100 EXP DUP2 SLOAD DUP2 PUSH1 0xFF MUL NOT AND SWAP1 DUP4 ISZERO ISZERO MUL OR SWAP1 SSTORE POP SWAP1 POP POP CALLER PUSH20 0xFFFFFFFFFFFFFFFFFFFFFFFFFFFFFFFFFFFFFFFF AND DUP4 PUSH1 0x5 SLOAD PUSH32 0x1EF04DD84CB98188DE8EE330BCE2CCCD813529C95AF01E59A08692901346805A DUP6 PUSH1 0x40 MLOAD PUSH2 0xB70 SWAP2 SWAP1 PUSH2 0xC18 JUMP JUMPDEST PUSH1 0x40 MLOAD DUP1 SWAP2 SUB SWAP1 LOG4 PUSH1 0x5 PUSH1 0x0 DUP2 SLOAD DUP1 SWAP3 SWAP2 SWAP1 PUSH2 0xB8B SWAP1 PUSH2 0x135E JUMP JUMPDEST SWAP2 SWAP1 POP SSTORE POP POP POP POP JUMP JUMPDEST PUSH1 0x1 PUSH1 0x0 SWAP1 SLOAD SWAP1 PUSH2 0x100 EXP SWAP1 DIV PUSH20 0xFFFFFFFFFFFFFFFFFFFFFFFFFFFFFFFFFFFFFFFF AND DUP2 JUMP JUMPDEST DUP1 PUSH1 0x2 PUSH1 0x0 PUSH2 0x100 EXP DUP2 SLOAD DUP2 PUSH20 0xFFFFFFFFFFFFFFFFFFFFFFFFFFFFFFFFFFFFFFFF MUL NOT AND SWAP1 DUP4 PUSH20 0xFFFFFFFFFFFFFFFFFFFFFFFFFFFFFFFFFFFFFFFF AND MUL OR SWAP1 SSTORE POP POP JUMP JUMPDEST PUSH1 0x0 DUP2 SWAP1 POP SWAP2 SWAP1 POP JUMP JUMPDEST PUSH2 0xC12 DUP2 PUSH2 0xBFF JUMP JUMPDEST DUP3 MSTORE POP POP JUMP JUMPDEST PUSH1 0x0 PUSH1 0x20 DUP3 ADD SWAP1 POP PUSH2 0xC2D PUSH1 0x0 DUP4 ADD DUP5 PUSH2 0xC09 JUMP JUMPDEST SWAP3 SWAP2 POP POP JUMP JUMPDEST PUSH1 0x0 PUSH20 0xFFFFFFFFFFFFFFFFFFFFFFFFFFFFFFFFFFFFFFFF DUP3 AND SWAP1 POP SWAP2 SWAP1 POP JUMP JUMPDEST PUSH1 0x0 PUSH2 0xC5E DUP3 PUSH2 0xC33 JUMP JUMPDEST SWAP1 POP SWAP2 SWAP1 POP JUMP JUMPDEST PUSH2 0xC6E DUP2 PUSH2 0xC53 JUMP JUMPDEST DUP3 MSTORE POP POP JUMP JUMPDEST PUSH1 0x0 PUSH1 0x20 DUP3 ADD SWAP1 POP PUSH2 0xC89 PUSH1 0x0 DUP4 ADD DUP5 PUSH2 0xC65 JUMP JUMPDEST SWAP3 SWAP2 POP POP JUMP JUMPDEST PUSH1 0x0 DUP2 SWAP1 POP SWAP2 SWAP1 POP JUMP JUMPDEST PUSH1 0x0 PUSH2 0xCB4 PUSH2 0xCAF PUSH2 0xCAA DUP5 PUSH2 0xC33 JUMP JUMPDEST PUSH2 0xC8F JUMP JUMPDEST PUSH2 0xC33 JUMP JUMPDEST SWAP1 POP SWAP2 SWAP1 POP JUMP JUMPDEST PUSH1 0x0 PUSH2 0xCC6 DUP3 PUSH2 0xC99 JUMP JUMPDEST SWAP1 POP SWAP2 SWAP1 POP JUMP JUMPDEST PUSH1 0x0 PUSH2 0xCD8 DUP3 PUSH2 0xCBB JUMP JUMPDEST SWAP1 POP SWAP2 SWAP1 POP JUMP JUMPDEST PUSH2 0xCE8 DUP2 PUSH2 0xCCD JUMP JUMPDEST DUP3 MSTORE POP POP JUMP JUMPDEST PUSH1 0x0 PUSH1 0x20 DUP3 ADD SWAP1 POP PUSH2 0xD03 PUSH1 0x0 DUP4 ADD DUP5 PUSH2 0xCDF JUMP JUMPDEST SWAP3 SWAP2 POP POP JUMP JUMPDEST PUSH1 0x0 DUP1 REVERT JUMPDEST PUSH2 0xD17 DUP2 PUSH2 0xBFF JUMP JUMPDEST DUP2 EQ PUSH2 0xD22 JUMPI PUSH1 0x0 DUP1 REVERT JUMPDEST POP JUMP JUMPDEST PUSH1 0x0 DUP2 CALLDATALOAD SWAP1 POP PUSH2 0xD34 DUP2 PUSH2 0xD0E JUMP JUMPDEST SWAP3 SWAP2 POP POP JUMP JUMPDEST PUSH2 0xD43 DUP2 PUSH2 0xC53 JUMP JUMPDEST DUP2 EQ PUSH2 0xD4E JUMPI PUSH1 0x0 DUP1 REVERT JUMPDEST POP JUMP JUMPDEST PUSH1 0x0 DUP2 CALLDATALOAD SWAP1 POP PUSH2 0xD60 DUP2 PUSH2 0xD3A JUMP JUMPDEST SWAP3 SWAP2 POP POP JUMP JUMPDEST PUSH1 0x0 DUP1 PUSH1 0x40 DUP4 DUP6 SUB SLT ISZERO PUSH2 0xD7D JUMPI PUSH2 0xD7C PUSH2 0xD09 JUMP JUMPDEST JUMPDEST PUSH1 0x0 PUSH2 0xD8B DUP6 DUP3 DUP7 ADD PUSH2 0xD25 JUMP JUMPDEST SWAP3 POP POP PUSH1 0x20 PUSH2 0xD9C DUP6 DUP3 DUP7 ADD PUSH2 0xD51 JUMP JUMPDEST SWAP2 POP POP SWAP3 POP SWAP3 SWAP1 POP JUMP JUMPDEST PUSH1 0x0 PUSH1 0x20 DUP3 DUP5 SUB SLT ISZERO PUSH2 0xDBC JUMPI PUSH2 0xDBB PUSH2 0xD09 JUMP JUMPDEST JUMPDEST PUSH1 0x0 PUSH2 0xDCA DUP5 DUP3 DUP6 ADD PUSH2 0xD25 JUMP JUMPDEST SWAP2 POP POP SWAP3 SWAP2 POP POP JUMP JUMPDEST PUSH1 0x0 DUP1 PUSH1 0x0 DUP1 PUSH1 0x80 DUP6 DUP8 SUB SLT ISZERO PUSH2 0xDED JUMPI PUSH2 0xDEC PUSH2 0xD09 JUMP JUMPDEST JUMPDEST PUSH1 0x0 PUSH2 0xDFB DUP8 DUP3 DUP9 ADD PUSH2 0xD25 JUMP JUMPDEST SWAP5 POP POP PUSH1 0x20 PUSH2 0xE0C DUP8 DUP3 DUP9 ADD PUSH2 0xD25 JUMP JUMPDEST SWAP4 POP POP PUSH1 0x40 PUSH2 0xE1D DUP8 DUP3 DUP9 ADD PUSH2 0xD51 JUMP JUMPDEST SWAP3 POP POP PUSH1 0x60 PUSH2 0xE2E DUP8 DUP3 DUP9 ADD PUSH2 0xD25 JUMP JUMPDEST SWAP2 POP POP SWAP3 SWAP6 SWAP2 SWAP5 POP SWAP3 POP JUMP JUMPDEST PUSH1 0x0 DUP1 PUSH1 0x40 DUP4 DUP6 SUB SLT ISZERO PUSH2 0xE51 JUMPI PUSH2 0xE50 PUSH2 0xD09 JUMP JUMPDEST JUMPDEST PUSH1 0x0 PUSH2 0xE5F DUP6 DUP3 DUP7 ADD PUSH2 0xD25 JUMP JUMPDEST SWAP3 POP POP PUSH1 0x20 PUSH2 0xE70 DUP6 DUP3 DUP7 ADD PUSH2 0xD25 JUMP JUMPDEST SWAP2 POP POP SWAP3 POP SWAP3 SWAP1 POP JUMP JUMPDEST PUSH1 0x0 DUP2 ISZERO ISZERO SWAP1 POP SWAP2 SWAP1 POP JUMP JUMPDEST PUSH2 0xE8F DUP2 PUSH2 0xE7A JUMP JUMPDEST DUP3 MSTORE POP POP JUMP JUMPDEST PUSH1 0x0 PUSH1 0xA0 DUP3 ADD SWAP1 POP PUSH2 0xEAA PUSH1 0x0 DUP4 ADD DUP9 PUSH2 0xC09 JUMP JUMPDEST PUSH2 0xEB7 PUSH1 0x20 DUP4 ADD DUP8 PUSH2 0xC09 JUMP JUMPDEST PUSH2 0xEC4 PUSH1 0x40 DUP4 ADD DUP7 PUSH2 0xC65 JUMP JUMPDEST PUSH2 0xED1 PUSH1 0x60 DUP4 ADD DUP6 PUSH2 0xC09 JUMP JUMPDEST PUSH2 0xEDE PUSH1 0x80 DUP4 ADD DUP5 PUSH2 0xE86 JUMP JUMPDEST SWAP7 SWAP6 POP POP POP POP POP POP JUMP JUMPDEST PUSH1 0x0 DUP1 PUSH1 0x0 PUSH1 0x60 DUP5 DUP7 SUB SLT ISZERO PUSH2 0xF01 JUMPI PUSH2 0xF00 PUSH2 0xD09 JUMP JUMPDEST JUMPDEST PUSH1 0x0 PUSH2 0xF0F DUP7 DUP3 DUP8 ADD PUSH2 0xD25 JUMP JUMPDEST SWAP4 POP POP PUSH1 0x20 PUSH2 0xF20 DUP7 DUP3 DUP8 ADD PUSH2 0xD25 JUMP JUMPDEST SWAP3 POP POP PUSH1 0x40 PUSH2 0xF31 DUP7 DUP3 DUP8 ADD PUSH2 0xD51 JUMP JUMPDEST SWAP2 POP POP SWAP3 POP SWAP3 POP SWAP3 JUMP JUMPDEST PUSH1 0x0 PUSH2 0xF46 DUP3 PUSH2 0xCBB JUMP JUMPDEST SWAP1 POP SWAP2 SWAP1 POP JUMP JUMPDEST PUSH2 0xF56 DUP2 PUSH2 0xF3B JUMP JUMPDEST DUP3 MSTORE POP POP JUMP JUMPDEST PUSH1 0x0 PUSH1 0x20 DUP3 ADD SWAP1 POP PUSH2 0xF71 PUSH1 0x0 DUP4 ADD DUP5 PUSH2 0xF4D JUMP JUMPDEST SWAP3 SWAP2 POP POP JUMP JUMPDEST PUSH1 0x0 PUSH1 0x20 DUP3 DUP5 SUB SLT ISZERO PUSH2 0xF8D JUMPI PUSH2 0xF8C PUSH2 0xD09 JUMP JUMPDEST JUMPDEST PUSH1 0x0 PUSH2 0xF9B DUP5 DUP3 DUP6 ADD PUSH2 0xD51 JUMP JUMPDEST SWAP2 POP POP SWAP3 SWAP2 POP POP JUMP JUMPDEST PUSH1 0x0 DUP3 DUP3 MSTORE PUSH1 0x20 DUP3 ADD SWAP1 POP SWAP3 SWAP2 POP POP JUMP JUMPDEST PUSH32 0x5072652D6275726E206E6F7420736574746C6564000000000000000000000000 PUSH1 0x0 DUP3 ADD MSTORE POP JUMP JUMPDEST PUSH1 0x0 PUSH2 0xFEB PUSH1 0x14 DUP4 PUSH2 0xFA4 JUMP JUMPDEST SWAP2 POP PUSH2 0xFF6 DUP3 PUSH2 0xFB5 JUMP JUMPDEST PUSH1 0x20 DUP3 ADD SWAP1 POP SWAP2 SWAP1 POP JUMP JUMPDEST PUSH1 0x0 PUSH1 0x20 DUP3 ADD SWAP1 POP DUP2 DUP2 SUB PUSH1 0x0 DUP4 ADD MSTORE PUSH2 0x101A DUP2 PUSH2 0xFDE JUMP JUMPDEST SWAP1 POP SWAP2 SWAP1 POP JUMP JUMPDEST PUSH32 0x496E76616C696420726563697069656E74000000000000000000000000000000 PUSH1 0x0 DUP3 ADD MSTORE POP JUMP JUMPDEST PUSH1 0x0 PUSH2 0x1057 PUSH1 0x11 DUP4 PUSH2 0xFA4 JUMP JUMPDEST SWAP2 POP PUSH2 0x1062 DUP3 PUSH2 0x1021 JUMP JUMPDEST PUSH1 0x20 DUP3 ADD SWAP1 POP SWAP2 SWAP1 POP JUMP JUMPDEST PUSH1 0x0 PUSH1 0x20 DUP3 ADD SWAP1 POP DUP2 DUP2 SUB PUSH1 0x0 DUP4 ADD MSTORE PUSH2 0x1086 DUP2 PUSH2 0x104A JUMP JUMPDEST SWAP1 POP SWAP2 SWAP1 POP JUMP JUMPDEST PUSH1 0x0 PUSH1 0x40 DUP3 ADD SWAP1 POP PUSH2 0x10A2 PUSH1 0x0 DUP4 ADD DUP6 PUSH2 0xC65 JUMP JUMPDEST PUSH2 0x10AF PUSH1 0x20 DUP4 ADD DUP5 PUSH2 0xC09 JUMP JUMPDEST SWAP4 SWAP3 POP POP POP JUMP JUMPDEST PUSH32 0x5072652D6275726E20616C726561647920736574746C65640000000000000000 PUSH1 0x0 DUP3 ADD MSTORE POP JUMP JUMPDEST PUSH1 0x0 PUSH2 0x10EC PUSH1 0x18 DUP4 PUSH2 0xFA4 JUMP JUMPDEST SWAP2 POP PUSH2 0x10F7 DUP3 PUSH2 0x10B6 JUMP JUMPDEST PUSH1 0x20 DUP3 ADD SWAP1 POP SWAP2 SWAP1 POP JUMP JUMPDEST PUSH1 0x0 PUSH1 0x20 DUP3 ADD SWAP1 POP DUP2 DUP2 SUB PUSH1 0x0 DUP4 ADD MSTORE PUSH2 0x111B DUP2 PUSH2 0x10DF JUMP JUMPDEST SWAP1 POP SWAP2 SWAP1 POP JUMP JUMPDEST PUSH32 0x556E6C6F636B20626C6F636B206E6F7420726561636865640000000000000000 PUSH1 0x0 DUP3 ADD MSTORE POP JUMP JUMPDEST PUSH1 0x0 PUSH2 0x1158 PUSH1 0x18 DUP4 PUSH2 0xFA4 JUMP JUMPDEST SWAP2 POP PUSH2 0x1163 DUP3 PUSH2 0x1122 JUMP JUMPDEST PUSH1 0x20 DUP3 ADD SWAP1 POP SWAP2 SWAP1 POP JUMP JUMPDEST PUSH1 0x0 PUSH1 0x20 DUP3 ADD SWAP1 POP DUP2 DUP2 SUB PUSH1 0x0 DUP4 ADD MSTORE PUSH2 0x1187 DUP2 PUSH2 0x114B JUMP JUMPDEST SWAP1 POP SWAP2 SWAP1 POP JUMP JUMPDEST PUSH32 0x496E76616C6964206D73672E73656E6465720000000000000000000000000000 PUSH1 0x0 DUP3 ADD MSTORE POP JUMP JUMPDEST PUSH1 0x0 PUSH2 0x11C4 PUSH1 0x12 DUP4 PUSH2 0xFA4 JUMP JUMPDEST SWAP2 POP PUSH2 0x11CF DUP3 PUSH2 0x118E JUMP JUMPDEST PUSH1 0x20 DUP3 ADD SWAP1 POP SWAP2 SWAP1 POP JUMP JUMPDEST PUSH1 0x0 PUSH1 0x20 DUP3 ADD SWAP1 POP DUP2 DUP2 SUB PUSH1 0x0 DUP4 ADD MSTORE PUSH2 0x11F3 DUP2 PUSH2 0x11B7 JUMP JUMPDEST SWAP1 POP SWAP2 SWAP1 POP JUMP JUMPDEST PUSH1 0x0 PUSH1 0x60 DUP3 ADD SWAP1 POP PUSH2 0x120F PUSH1 0x0 DUP4 ADD DUP7 PUSH2 0xC65 JUMP JUMPDEST PUSH2 0x121C PUSH1 0x20 DUP4 ADD DUP6 PUSH2 0xC65 JUMP JUMPDEST PUSH2 0x1229 PUSH1 0x40 DUP4 ADD DUP5 PUSH2 0xC09 JUMP JUMPDEST SWAP5 SWAP4 POP POP POP POP JUMP JUMPDEST PUSH32 0x496E76616C6964206C6F636B2049440000000000000000000000000000000000 PUSH1 0x0 DUP3 ADD MSTORE POP JUMP JUMPDEST PUSH1 0x0 PUSH2 0x1267 PUSH1 0xF DUP4 PUSH2 0xFA4 JUMP JUMPDEST SWAP2 POP PUSH2 0x1272 DUP3 PUSH2 0x1231 JUMP JUMPDEST PUSH1 0x20 DUP3 ADD SWAP1 POP SWAP2 SWAP1 POP JUMP JUMPDEST PUSH1 0x0 PUSH1 0x20 DUP3 ADD SWAP1 POP DUP2 DUP2 SUB PUSH1 0x0 DUP4 ADD MSTORE PUSH2 0x1296 DUP2 PUSH2 0x125A JUMP JUMPDEST SWAP1 POP SWAP2 SWAP1 POP JUMP JUMPDEST PUSH32 0x556E6C6F636B20626C6F636B206D75737420626520696E207468652066757475 PUSH1 0x0 DUP3 ADD MSTORE PUSH32 0x7265000000000000000000000000000000000000000000000000000000000000 PUSH1 0x20 DUP3 ADD MSTORE POP JUMP JUMPDEST PUSH1 0x0 PUSH2 0x12F9 PUSH1 0x22 DUP4 PUSH2 0xFA4 JUMP JUMPDEST SWAP2 POP PUSH2 0x1304 DUP3 PUSH2 0x129D JUMP JUMPDEST PUSH1 0x40 DUP3 ADD SWAP1 POP SWAP2 SWAP1 POP JUMP JUMPDEST PUSH1 0x0 PUSH1 0x20 DUP3 ADD SWAP1 POP DUP2 DUP2 SUB PUSH1 0x0 DUP4 ADD MSTORE PUSH2 0x1328 DUP2 PUSH2 0x12EC JUMP JUMPDEST SWAP1 POP SWAP2 SWAP1 POP JUMP JUMPDEST PUSH32 0x4E487B7100000000000000000000000000000000000000000000000000000000 PUSH1 0x0 MSTORE PUSH1 0x11 PUSH1 0x4 MSTORE PUSH1 0x24 PUSH1 0x0 REVERT JUMPDEST PUSH1 0x0 PUSH2 0x1369 DUP3 PUSH2 0xBFF JUMP JUMPDEST SWAP2 POP PUSH32 0xFFFFFFFFFFFFFFFFFFFFFFFFFFFFFFFFFFFFFFFFFFFFFFFFFFFFFFFFFFFFFFFF DUP3 EQ ISZERO PUSH2 0x139C JUMPI PUSH2 0x139B PUSH2 0x132F JUMP JUMPDEST JUMPDEST PUSH1 0x1 DUP3 ADD SWAP1 POP SWAP2 SWAP1 POP JUMP INVALID LOG2 PUSH5 0x6970667358 0x22 SLT KECCAK256 0x27 0xE3 0x4B 0xB6 0x2B DUP5 DUP11 0xD9 CODECOPY PUSH22 0x58AFC23349204AED1C587171433AAE01C6D4637C5F29 PUSH5 0x736F6C6343 STOP ADDMOD MULMOD STOP CALLER "
				},
				"gasEstimates": {
					"creation": {
						"codeDepositCost": "1017000",
						"executionCost": "infinite",
						"totalCost": "infinite"
					},
					"external": {
						"burnToMintAddress()": "2537",
						"dai()": "infinite",
						"lockIndex()": "2430",
						"lockPeriod()": "2474",
						"lockedNfts(uint256)": "infinite",
						"nft()": "infinite",
						"preBurn(uint256,uint256,address)": "infinite",
						"preMint(uint256,uint256)": "infinite",
						"setBurnToMintAddress(address)": "24832",
						"setLockPeriod(uint256)": "22631",
						"settlePreBurn(uint256,uint256,address,uint256)": "infinite",
						"settlePreMint(uint256,address)": "infinite"
					}
				},
				"methodIdentifiers": {
					"burnToMintAddress()": "2a8d5944",
					"dai()": "f4b9fa75",
					"lockIndex()": "0e7735bc",
					"lockPeriod()": "3fd8b02f",
					"lockedNfts(uint256)": "d0d2c0b2",
					"nft()": "47ccca02",
					"preBurn(uint256,uint256,address)": "d33df7f8",
					"preMint(uint256,uint256)": "cea20111",
					"setBurnToMintAddress(address)": "f7e9d511",
					"setLockPeriod(uint256)": "779972da",
					"settlePreBurn(uint256,uint256,address,uint256)": "907bcd79",
					"settlePreMint(uint256,address)": "717da1d8"
				}
			},
			"storageLayout": {
				"storage": [
					{
						"astId": 202,
						"contract": "contracts used for  RC system/preburnpremint.sol:PreBurnPreMint",
						"label": "nft",
						"offset": 0,
						"slot": "0",
						"type": "t_contract(IERC721)177"
					},
					{
						"astId": 205,
						"contract": "contracts used for  RC system/preburnpremint.sol:PreBurnPreMint",
						"label": "dai",
						"offset": 0,
						"slot": "1",
						"type": "t_contract(ISimpleDAI)195"
					},
					{
						"astId": 207,
						"contract": "contracts used for  RC system/preburnpremint.sol:PreBurnPreMint",
						"label": "burnToMintAddress",
						"offset": 0,
						"slot": "2",
						"type": "t_address"
					},
					{
						"astId": 210,
						"contract": "contracts used for  RC system/preburnpremint.sol:PreBurnPreMint",
						"label": "lockPeriod",
						"offset": 0,
						"slot": "3",
						"type": "t_uint256"
					},
					{
						"astId": 226,
						"contract": "contracts used for  RC system/preburnpremint.sol:PreBurnPreMint",
						"label": "lockedNfts",
						"offset": 0,
						"slot": "4",
						"type": "t_mapping(t_uint256,t_struct(LockInfo)221_storage)"
					},
					{
						"astId": 228,
						"contract": "contracts used for  RC system/preburnpremint.sol:PreBurnPreMint",
						"label": "lockIndex",
						"offset": 0,
						"slot": "5",
						"type": "t_uint256"
					}
				],
				"types": {
					"t_address": {
						"encoding": "inplace",
						"label": "address",
						"numberOfBytes": "20"
					},
					"t_bool": {
						"encoding": "inplace",
						"label": "bool",
						"numberOfBytes": "1"
					},
					"t_contract(IERC721)177": {
						"encoding": "inplace",
						"label": "contract IERC721",
						"numberOfBytes": "20"
					},
					"t_contract(ISimpleDAI)195": {
						"encoding": "inplace",
						"label": "contract ISimpleDAI",
						"numberOfBytes": "20"
					},
					"t_mapping(t_uint256,t_struct(LockInfo)221_storage)": {
						"encoding": "mapping",
						"key": "t_uint256",
						"label": "mapping(uint256 => struct PreBurnPreMint.LockInfo)",
						"numberOfBytes": "32",
						"value": "t_struct(LockInfo)221_storage"
					},
					"t_struct(LockInfo)221_storage": {
						"encoding": "inplace",
						"label": "struct PreBurnPreMint.LockInfo",
						"members": [
							{
								"astId": 212,
								"contract": "contracts used for  RC system/preburnpremint.sol:PreBurnPreMint",
								"label": "nftId",
								"offset": 0,
								"slot": "0",
								"type": "t_uint256"
							},
							{
								"astId": 214,
								"contract": "contracts used for  RC system/preburnpremint.sol:PreBurnPreMint",
								"label": "unlockBlock",
								"offset": 0,
								"slot": "1",
								"type": "t_uint256"
							},
							{
								"astId": 216,
								"contract": "contracts used for  RC system/preburnpremint.sol:PreBurnPreMint",
								"label": "owner",
								"offset": 0,
								"slot": "2",
								"type": "t_address"
							},
							{
								"astId": 218,
								"contract": "contracts used for  RC system/preburnpremint.sol:PreBurnPreMint",
								"label": "daiAmount",
								"offset": 0,
								"slot": "3",
								"type": "t_uint256"
							},
							{
								"astId": 220,
								"contract": "contracts used for  RC system/preburnpremint.sol:PreBurnPreMint",
								"label": "settled",
								"offset": 0,
								"slot": "4",
								"type": "t_bool"
							}
						],
						"numberOfBytes": "160"
					},
					"t_uint256": {
						"encoding": "inplace",
						"label": "uint256",
						"numberOfBytes": "32"
					}
				}
			},
			"userdoc": {
				"kind": "user",
				"methods": {},
				"version": 1
			}
		}
	}
}