{
	"contracts used for  RC system/burntomint1.sol": {
		"BurnToMint": {
			"abi": [
				{
					"inputs": [
						{
							"internalType": "contract SimpleDAI",
							"name": "_dai",
							"type": "address"
						},
						{
							"internalType": "address",
							"name": "_blackholeAddress",
							"type": "address"
						},
						{
							"internalType": "address",
							"name": "_nftAddress",
							"type": "address"
						}
					],
					"stateMutability": "nonpayable",
					"type": "constructor"
				},
				{
					"anonymous": false,
					"inputs": [
						{
							"indexed": true,
							"internalType": "uint256",
							"name": "daiAmount",
							"type": "uint256"
						},
						{
							"indexed": true,
							"internalType": "address",
							"name": "to",
							"type": "address"
						},
						{
							"indexed": true,
							"internalType": "uint256",
							"name": "nftId",
							"type": "uint256"
						}
					],
					"name": "BurnToMintEvent",
					"type": "event"
				},
				{
					"inputs": [],
					"name": "blackholeAddress",
					"outputs": [
						{
							"internalType": "address",
							"name": "",
							"type": "address"
						}
					],
					"stateMutability": "view",
					"type": "function"
				},
				{
					"inputs": [
						{
							"internalType": "uint256",
							"name": "daiAmount",
							"type": "uint256"
						},
						{
							"internalType": "uint256",
							"name": "nftId",
							"type": "uint256"
						}
					],
					"name": "burnToMint",
					"outputs": [],
					"stateMutability": "nonpayable",
					"type": "function"
				},
				{
					"inputs": [],
					"name": "dai",
					"outputs": [
						{
							"internalType": "contract SimpleDAI",
							"name": "",
							"type": "address"
						}
					],
					"stateMutability": "view",
					"type": "function"
				},
				{
					"inputs": [],
					"name": "nftAddress",
					"outputs": [
						{
							"internalType": "address",
							"name": "",
							"type": "address"
						}
					],
					"stateMutability": "view",
					"type": "function"
				},
				{
					"inputs": [
						{
							"internalType": "address",
							"name": "_blackholeAddress",
							"type": "address"
						}
					],
					"name": "setBlackholeAddress",
					"outputs": [],
					"stateMutability": "nonpayable",
					"type": "function"
				},
				{
					"inputs": [
						{
							"internalType": "address",
							"name": "_nftAddress",
							"type": "address"
						}
					],
					"name": "setNftAddress",
					"outputs": [],
					"stateMutability": "nonpayable",
					"type": "function"
				}
			],
			"devdoc": {
				"kind": "dev",
				"methods": {},
				"version": 1
			},
			"evm": {
				"assembly": "    /* \"contracts used for\\xc2\\xa0 RC system/burntomint1.sol\":149:1118  contract BurnToMint {... */\n  mstore(0x40, 0x80)\n    /* \"contracts used for\\xc2\\xa0 RC system/burntomint1.sol\":375:562  constructor(SimpleDAI _dai, address _blackholeAddress, address _nftAddress) {... */\n  callvalue\n  dup1\n  iszero\n  tag_1\n  jumpi\n  0x00\n  dup1\n  revert\ntag_1:\n  pop\n  mload(0x40)\n  sub(codesize, bytecodeSize)\n  dup1\n  bytecodeSize\n  dup4\n  codecopy\n  dup2\n  dup2\n  add\n  0x40\n  mstore\n  dup2\n  add\n  swap1\n  tag_2\n  swap2\n  swap1\n  tag_3\n  jump\t// in\ntag_2:\n    /* \"contracts used for\\xc2\\xa0 RC system/burntomint1.sol\":468:472  _dai */\n  dup3\n    /* \"contracts used for\\xc2\\xa0 RC system/burntomint1.sol\":462:465  dai */\n  0x00\n  dup1\n    /* \"contracts used for\\xc2\\xa0 RC system/burntomint1.sol\":462:472  dai = _dai */\n  0x0100\n  exp\n  dup2\n  sload\n  dup2\n  0xffffffffffffffffffffffffffffffffffffffff\n  mul\n  not\n  and\n  swap1\n  dup4\n  0xffffffffffffffffffffffffffffffffffffffff\n  and\n  mul\n  or\n  swap1\n  sstore\n  pop\n    /* \"contracts used for\\xc2\\xa0 RC system/burntomint1.sol\":502:519  _blackholeAddress */\n  dup2\n    /* \"contracts used for\\xc2\\xa0 RC system/burntomint1.sol\":483:499  blackholeAddress */\n  0x01\n  0x00\n    /* \"contracts used for\\xc2\\xa0 RC system/burntomint1.sol\":483:519  blackholeAddress = _blackholeAddress */\n  0x0100\n  exp\n  dup2\n  sload\n  dup2\n  0xffffffffffffffffffffffffffffffffffffffff\n  mul\n  not\n  and\n  swap1\n  dup4\n  0xffffffffffffffffffffffffffffffffffffffff\n  and\n  mul\n  or\n  swap1\n  sstore\n  pop\n    /* \"contracts used for\\xc2\\xa0 RC system/burntomint1.sol\":543:554  _nftAddress */\n  dup1\n    /* \"contracts used for\\xc2\\xa0 RC system/burntomint1.sol\":530:540  nftAddress */\n  0x02\n  0x00\n    /* \"contracts used for\\xc2\\xa0 RC system/burntomint1.sol\":530:554  nftAddress = _nftAddress */\n  0x0100\n  exp\n  dup2\n  sload\n  dup2\n  0xffffffffffffffffffffffffffffffffffffffff\n  mul\n  not\n  and\n  swap1\n  dup4\n  0xffffffffffffffffffffffffffffffffffffffff\n  and\n  mul\n  or\n  swap1\n  sstore\n  pop\n    /* \"contracts used for\\xc2\\xa0 RC system/burntomint1.sol\":375:562  constructor(SimpleDAI _dai, address _blackholeAddress, address _nftAddress) {... */\n  pop\n  pop\n  pop\n    /* \"contracts used for\\xc2\\xa0 RC system/burntomint1.sol\":149:1118  contract BurnToMint {... */\n  jump(tag_6)\n    /* \"#utility.yul\":88:205   */\ntag_8:\n    /* \"#utility.yul\":197:198   */\n  0x00\n    /* \"#utility.yul\":194:195   */\n  dup1\n    /* \"#utility.yul\":187:199   */\n  revert\n    /* \"#utility.yul\":334:460   */\ntag_10:\n    /* \"#utility.yul\":371:378   */\n  0x00\n    /* \"#utility.yul\":411:453   */\n  0xffffffffffffffffffffffffffffffffffffffff\n    /* \"#utility.yul\":404:409   */\n  dup3\n    /* \"#utility.yul\":400:454   */\n  and\n    /* \"#utility.yul\":389:454   */\n  swap1\n  pop\n    /* \"#utility.yul\":334:460   */\n  swap2\n  swap1\n  pop\n  jump\t// out\n    /* \"#utility.yul\":466:562   */\ntag_11:\n    /* \"#utility.yul\":503:510   */\n  0x00\n    /* \"#utility.yul\":532:556   */\n  tag_23\n    /* \"#utility.yul\":550:555   */\n  dup3\n    /* \"#utility.yul\":532:556   */\n  tag_10\n  jump\t// in\ntag_23:\n    /* \"#utility.yul\":521:556   */\n  swap1\n  pop\n    /* \"#utility.yul\":466:562   */\n  swap2\n  swap1\n  pop\n  jump\t// out\n    /* \"#utility.yul\":568:681   */\ntag_12:\n    /* \"#utility.yul\":622:629   */\n  0x00\n    /* \"#utility.yul\":651:675   */\n  tag_25\n    /* \"#utility.yul\":669:674   */\n  dup3\n    /* \"#utility.yul\":651:675   */\n  tag_11\n  jump\t// in\ntag_25:\n    /* \"#utility.yul\":640:675   */\n  swap1\n  pop\n    /* \"#utility.yul\":568:681   */\n  swap2\n  swap1\n  pop\n  jump\t// out\n    /* \"#utility.yul\":687:843   */\ntag_13:\n    /* \"#utility.yul\":777:818   */\n  tag_27\n    /* \"#utility.yul\":812:817   */\n  dup2\n    /* \"#utility.yul\":777:818   */\n  tag_12\n  jump\t// in\ntag_27:\n    /* \"#utility.yul\":770:775   */\n  dup2\n    /* \"#utility.yul\":767:819   */\n  eq\n    /* \"#utility.yul\":757:837   */\n  tag_28\n  jumpi\n    /* \"#utility.yul\":833:834   */\n  0x00\n    /* \"#utility.yul\":830:831   */\n  dup1\n    /* \"#utility.yul\":823:835   */\n  revert\n    /* \"#utility.yul\":757:837   */\ntag_28:\n    /* \"#utility.yul\":687:843   */\n  pop\n  jump\t// out\n    /* \"#utility.yul\":849:1026   */\ntag_14:\n    /* \"#utility.yul\":923:928   */\n  0x00\n    /* \"#utility.yul\":954:960   */\n  dup2\n    /* \"#utility.yul\":948:961   */\n  mload\n    /* \"#utility.yul\":939:961   */\n  swap1\n  pop\n    /* \"#utility.yul\":970:1020   */\n  tag_30\n    /* \"#utility.yul\":1014:1019   */\n  dup2\n    /* \"#utility.yul\":970:1020   */\n  tag_13\n  jump\t// in\ntag_30:\n    /* \"#utility.yul\":849:1026   */\n  swap3\n  swap2\n  pop\n  pop\n  jump\t// out\n    /* \"#utility.yul\":1032:1154   */\ntag_15:\n    /* \"#utility.yul\":1105:1129   */\n  tag_32\n    /* \"#utility.yul\":1123:1128   */\n  dup2\n    /* \"#utility.yul\":1105:1129   */\n  tag_11\n  jump\t// in\ntag_32:\n    /* \"#utility.yul\":1098:1103   */\n  dup2\n    /* \"#utility.yul\":1095:1130   */\n  eq\n    /* \"#utility.yul\":1085:1148   */\n  tag_33\n  jumpi\n    /* \"#utility.yul\":1144:1145   */\n  0x00\n    /* \"#utility.yul\":1141:1142   */\n  dup1\n    /* \"#utility.yul\":1134:1146   */\n  revert\n    /* \"#utility.yul\":1085:1148   */\ntag_33:\n    /* \"#utility.yul\":1032:1154   */\n  pop\n  jump\t// out\n    /* \"#utility.yul\":1160:1303   */\ntag_16:\n    /* \"#utility.yul\":1217:1222   */\n  0x00\n    /* \"#utility.yul\":1248:1254   */\n  dup2\n    /* \"#utility.yul\":1242:1255   */\n  mload\n    /* \"#utility.yul\":1233:1255   */\n  swap1\n  pop\n    /* \"#utility.yul\":1264:1297   */\n  tag_35\n    /* \"#utility.yul\":1291:1296   */\n  dup2\n    /* \"#utility.yul\":1264:1297   */\n  tag_15\n  jump\t// in\ntag_35:\n    /* \"#utility.yul\":1160:1303   */\n  swap3\n  swap2\n  pop\n  pop\n  jump\t// out\n    /* \"#utility.yul\":1309:2006   */\ntag_3:\n    /* \"#utility.yul\":1414:1420   */\n  0x00\n    /* \"#utility.yul\":1422:1428   */\n  dup1\n    /* \"#utility.yul\":1430:1436   */\n  0x00\n    /* \"#utility.yul\":1479:1481   */\n  0x60\n    /* \"#utility.yul\":1467:1476   */\n  dup5\n    /* \"#utility.yul\":1458:1465   */\n  dup7\n    /* \"#utility.yul\":1454:1477   */\n  sub\n    /* \"#utility.yul\":1450:1482   */\n  slt\n    /* \"#utility.yul\":1447:1566   */\n  iszero\n  tag_37\n  jumpi\n    /* \"#utility.yul\":1485:1564   */\n  tag_38\n  tag_8\n  jump\t// in\ntag_38:\n    /* \"#utility.yul\":1447:1566   */\ntag_37:\n    /* \"#utility.yul\":1605:1606   */\n  0x00\n    /* \"#utility.yul\":1630:1711   */\n  tag_39\n    /* \"#utility.yul\":1703:1710   */\n  dup7\n    /* \"#utility.yul\":1694:1700   */\n  dup3\n    /* \"#utility.yul\":1683:1692   */\n  dup8\n    /* \"#utility.yul\":1679:1701   */\n  add\n    /* \"#utility.yul\":1630:1711   */\n  tag_14\n  jump\t// in\ntag_39:\n    /* \"#utility.yul\":1620:1711   */\n  swap4\n  pop\n    /* \"#utility.yul\":1576:1721   */\n  pop\n    /* \"#utility.yul\":1760:1762   */\n  0x20\n    /* \"#utility.yul\":1786:1850   */\n  tag_40\n    /* \"#utility.yul\":1842:1849   */\n  dup7\n    /* \"#utility.yul\":1833:1839   */\n  dup3\n    /* \"#utility.yul\":1822:1831   */\n  dup8\n    /* \"#utility.yul\":1818:1840   */\n  add\n    /* \"#utility.yul\":1786:1850   */\n  tag_16\n  jump\t// in\ntag_40:\n    /* \"#utility.yul\":1776:1850   */\n  swap3\n  pop\n    /* \"#utility.yul\":1731:1860   */\n  pop\n    /* \"#utility.yul\":1899:1901   */\n  0x40\n    /* \"#utility.yul\":1925:1989   */\n  tag_41\n    /* \"#utility.yul\":1981:1988   */\n  dup7\n    /* \"#utility.yul\":1972:1978   */\n  dup3\n    /* \"#utility.yul\":1961:1970   */\n  dup8\n    /* \"#utility.yul\":1957:1979   */\n  add\n    /* \"#utility.yul\":1925:1989   */\n  tag_16\n  jump\t// in\ntag_41:\n    /* \"#utility.yul\":1915:1989   */\n  swap2\n  pop\n    /* \"#utility.yul\":1870:1999   */\n  pop\n    /* \"#utility.yul\":1309:2006   */\n  swap3\n  pop\n  swap3\n  pop\n  swap3\n  jump\t// out\n    /* \"contracts used for\\xc2\\xa0 RC system/burntomint1.sol\":149:1118  contract BurnToMint {... */\ntag_6:\n  dataSize(sub_0)\n  dup1\n  dataOffset(sub_0)\n  0x00\n  codecopy\n  0x00\n  return\nstop\n\nsub_0: assembly {\n        /* \"contracts used for\\xc2\\xa0 RC system/burntomint1.sol\":149:1118  contract BurnToMint {... */\n      mstore(0x40, 0x80)\n      callvalue\n      dup1\n      iszero\n      tag_1\n      jumpi\n      0x00\n      dup1\n      revert\n    tag_1:\n      pop\n      jumpi(tag_2, lt(calldatasize, 0x04))\n      shr(0xe0, calldataload(0x00))\n      dup1\n      0x0b102d1a\n      eq\n      tag_3\n      jumpi\n      dup1\n      0x5bf8633a\n      eq\n      tag_4\n      jumpi\n      dup1\n      0x7d515a10\n      eq\n      tag_5\n      jumpi\n      dup1\n      0x8bbeb3ed\n      eq\n      tag_6\n      jumpi\n      dup1\n      0xd3ed3195\n      eq\n      tag_7\n      jumpi\n      dup1\n      0xf4b9fa75\n      eq\n      tag_8\n      jumpi\n    tag_2:\n      0x00\n      dup1\n      revert\n        /* \"contracts used for\\xc2\\xa0 RC system/burntomint1.sol\":1019:1115  function setNftAddress(address _nftAddress) external {... */\n    tag_3:\n      tag_9\n      0x04\n      dup1\n      calldatasize\n      sub\n      dup2\n      add\n      swap1\n      tag_10\n      swap2\n      swap1\n      tag_11\n      jump\t// in\n    tag_10:\n      tag_12\n      jump\t// in\n    tag_9:\n      stop\n        /* \"contracts used for\\xc2\\xa0 RC system/burntomint1.sol\":241:266  address public nftAddress */\n    tag_4:\n      tag_13\n      tag_14\n      jump\t// in\n    tag_13:\n      mload(0x40)\n      tag_15\n      swap2\n      swap1\n      tag_16\n      jump\t// in\n    tag_15:\n      mload(0x40)\n      dup1\n      swap2\n      sub\n      swap1\n      return\n        /* \"contracts used for\\xc2\\xa0 RC system/burntomint1.sol\":203:234  address public blackholeAddress */\n    tag_5:\n      tag_17\n      tag_18\n      jump\t// in\n    tag_17:\n      mload(0x40)\n      tag_19\n      swap2\n      swap1\n      tag_16\n      jump\t// in\n    tag_19:\n      mload(0x40)\n      dup1\n      swap2\n      sub\n      swap1\n      return\n        /* \"contracts used for\\xc2\\xa0 RC system/burntomint1.sol\":570:883  function burnToMint(uint256 daiAmount, uint256 nftId) external {... */\n    tag_6:\n      tag_20\n      0x04\n      dup1\n      calldatasize\n      sub\n      dup2\n      add\n      swap1\n      tag_21\n      swap2\n      swap1\n      tag_22\n      jump\t// in\n    tag_21:\n      tag_23\n      jump\t// in\n    tag_20:\n      stop\n        /* \"contracts used for\\xc2\\xa0 RC system/burntomint1.sol\":891:1011  function setBlackholeAddress(address _blackholeAddress) external {... */\n    tag_7:\n      tag_24\n      0x04\n      dup1\n      calldatasize\n      sub\n      dup2\n      add\n      swap1\n      tag_25\n      swap2\n      swap1\n      tag_11\n      jump\t// in\n    tag_25:\n      tag_26\n      jump\t// in\n    tag_24:\n      stop\n        /* \"contracts used for\\xc2\\xa0 RC system/burntomint1.sol\":176:196  SimpleDAI public dai */\n    tag_8:\n      tag_27\n      tag_28\n      jump\t// in\n    tag_27:\n      mload(0x40)\n      tag_29\n      swap2\n      swap1\n      tag_30\n      jump\t// in\n    tag_29:\n      mload(0x40)\n      dup1\n      swap2\n      sub\n      swap1\n      return\n        /* \"contracts used for\\xc2\\xa0 RC system/burntomint1.sol\":1019:1115  function setNftAddress(address _nftAddress) external {... */\n    tag_12:\n        /* \"contracts used for\\xc2\\xa0 RC system/burntomint1.sol\":1096:1107  _nftAddress */\n      dup1\n        /* \"contracts used for\\xc2\\xa0 RC system/burntomint1.sol\":1083:1093  nftAddress */\n      0x02\n      0x00\n        /* \"contracts used for\\xc2\\xa0 RC system/burntomint1.sol\":1083:1107  nftAddress = _nftAddress */\n      0x0100\n      exp\n      dup2\n      sload\n      dup2\n      0xffffffffffffffffffffffffffffffffffffffff\n      mul\n      not\n      and\n      swap1\n      dup4\n      0xffffffffffffffffffffffffffffffffffffffff\n      and\n      mul\n      or\n      swap1\n      sstore\n      pop\n        /* \"contracts used for\\xc2\\xa0 RC system/burntomint1.sol\":1019:1115  function setNftAddress(address _nftAddress) external {... */\n      pop\n      jump\t// out\n        /* \"contracts used for\\xc2\\xa0 RC system/burntomint1.sol\":241:266  address public nftAddress */\n    tag_14:\n      0x02\n      0x00\n      swap1\n      sload\n      swap1\n      0x0100\n      exp\n      swap1\n      div\n      0xffffffffffffffffffffffffffffffffffffffff\n      and\n      dup2\n      jump\t// out\n        /* \"contracts used for\\xc2\\xa0 RC system/burntomint1.sol\":203:234  address public blackholeAddress */\n    tag_18:\n      0x01\n      0x00\n      swap1\n      sload\n      swap1\n      0x0100\n      exp\n      swap1\n      div\n      0xffffffffffffffffffffffffffffffffffffffff\n      and\n      dup2\n      jump\t// out\n        /* \"contracts used for\\xc2\\xa0 RC system/burntomint1.sol\":570:883  function burnToMint(uint256 daiAmount, uint256 nftId) external {... */\n    tag_23:\n        /* \"contracts used for\\xc2\\xa0 RC system/burntomint1.sol\":644:647  dai */\n      0x00\n      dup1\n      sload\n      swap1\n      0x0100\n      exp\n      swap1\n      div\n      0xffffffffffffffffffffffffffffffffffffffff\n      and\n        /* \"contracts used for\\xc2\\xa0 RC system/burntomint1.sol\":644:660  dai.transferFrom */\n      0xffffffffffffffffffffffffffffffffffffffff\n      and\n      0x23b872dd\n        /* \"contracts used for\\xc2\\xa0 RC system/burntomint1.sol\":661:671  msg.sender */\n      caller\n        /* \"contracts used for\\xc2\\xa0 RC system/burntomint1.sol\":673:689  blackholeAddress */\n      0x01\n      0x00\n      swap1\n      sload\n      swap1\n      0x0100\n      exp\n      swap1\n      div\n      0xffffffffffffffffffffffffffffffffffffffff\n      and\n        /* \"contracts used for\\xc2\\xa0 RC system/burntomint1.sol\":691:700  daiAmount */\n      dup6\n        /* \"contracts used for\\xc2\\xa0 RC system/burntomint1.sol\":644:701  dai.transferFrom(msg.sender, blackholeAddress, daiAmount) */\n      mload(0x40)\n      dup5\n      0xffffffff\n      and\n      0xe0\n      shl\n      dup2\n      mstore\n      0x04\n      add\n      tag_33\n      swap4\n      swap3\n      swap2\n      swap1\n      tag_34\n      jump\t// in\n    tag_33:\n      0x20\n      mload(0x40)\n      dup1\n      dup4\n      sub\n      dup2\n      0x00\n      dup8\n      dup1\n      extcodesize\n      iszero\n      dup1\n      iszero\n      tag_35\n      jumpi\n      0x00\n      dup1\n      revert\n    tag_35:\n      pop\n      gas\n      call\n      iszero\n      dup1\n      iszero\n      tag_37\n      jumpi\n      returndatasize\n      0x00\n      dup1\n      returndatacopy\n      revert(0x00, returndatasize)\n    tag_37:\n      pop\n      pop\n      pop\n      pop\n      mload(0x40)\n      returndatasize\n      not(0x1f)\n      0x1f\n      dup3\n      add\n      and\n      dup3\n      add\n      dup1\n      0x40\n      mstore\n      pop\n      dup2\n      add\n      swap1\n      tag_38\n      swap2\n      swap1\n      tag_39\n      jump\t// in\n    tag_38:\n      pop\n        /* \"contracts used for\\xc2\\xa0 RC system/burntomint1.sol\":714:725  IERC721 nft */\n      0x00\n        /* \"contracts used for\\xc2\\xa0 RC system/burntomint1.sol\":736:746  nftAddress */\n      0x02\n      0x00\n      swap1\n      sload\n      swap1\n      0x0100\n      exp\n      swap1\n      div\n      0xffffffffffffffffffffffffffffffffffffffff\n      and\n        /* \"contracts used for\\xc2\\xa0 RC system/burntomint1.sol\":714:747  IERC721 nft = IERC721(nftAddress) */\n      swap1\n      pop\n        /* \"contracts used for\\xc2\\xa0 RC system/burntomint1.sol\":758:761  nft */\n      dup1\n        /* \"contracts used for\\xc2\\xa0 RC system/burntomint1.sol\":758:778  nft.safeTransferFrom */\n      0xffffffffffffffffffffffffffffffffffffffff\n      and\n      0x42842e0e\n        /* \"contracts used for\\xc2\\xa0 RC system/burntomint1.sol\":787:791  this */\n      address\n        /* \"contracts used for\\xc2\\xa0 RC system/burntomint1.sol\":794:804  msg.sender */\n      caller\n        /* \"contracts used for\\xc2\\xa0 RC system/burntomint1.sol\":806:811  nftId */\n      dup6\n        /* \"contracts used for\\xc2\\xa0 RC system/burntomint1.sol\":758:812  nft.safeTransferFrom(address(this), msg.sender, nftId) */\n      mload(0x40)\n      dup5\n      0xffffffff\n      and\n      0xe0\n      shl\n      dup2\n      mstore\n      0x04\n      add\n      tag_40\n      swap4\n      swap3\n      swap2\n      swap1\n      tag_34\n      jump\t// in\n    tag_40:\n      0x00\n      mload(0x40)\n      dup1\n      dup4\n      sub\n      dup2\n      0x00\n      dup8\n      dup1\n      extcodesize\n      iszero\n      dup1\n      iszero\n      tag_41\n      jumpi\n      0x00\n      dup1\n      revert\n    tag_41:\n      pop\n      gas\n      call\n      iszero\n      dup1\n      iszero\n      tag_43\n      jumpi\n      returndatasize\n      0x00\n      dup1\n      returndatacopy\n      revert(0x00, returndatasize)\n    tag_43:\n      pop\n      pop\n      pop\n      pop\n        /* \"contracts used for\\xc2\\xa0 RC system/burntomint1.sol\":869:874  nftId */\n      dup2\n        /* \"contracts used for\\xc2\\xa0 RC system/burntomint1.sol\":857:867  msg.sender */\n      caller\n        /* \"contracts used for\\xc2\\xa0 RC system/burntomint1.sol\":830:875  BurnToMintEvent(daiAmount, msg.sender, nftId) */\n      0xffffffffffffffffffffffffffffffffffffffff\n      and\n        /* \"contracts used for\\xc2\\xa0 RC system/burntomint1.sol\":846:855  daiAmount */\n      dup5\n        /* \"contracts used for\\xc2\\xa0 RC system/burntomint1.sol\":830:875  BurnToMintEvent(daiAmount, msg.sender, nftId) */\n      0x9cb56356525f6df68ff8276d4a6d5f6cbd43d2dd0b73423a469c66fa88d3a686\n      mload(0x40)\n      mload(0x40)\n      dup1\n      swap2\n      sub\n      swap1\n      log4\n        /* \"contracts used for\\xc2\\xa0 RC system/burntomint1.sol\":633:883  {... */\n      pop\n        /* \"contracts used for\\xc2\\xa0 RC system/burntomint1.sol\":570:883  function burnToMint(uint256 daiAmount, uint256 nftId) external {... */\n      pop\n      pop\n      jump\t// out\n        /* \"contracts used for\\xc2\\xa0 RC system/burntomint1.sol\":891:1011  function setBlackholeAddress(address _blackholeAddress) external {... */\n    tag_26:\n        /* \"contracts used for\\xc2\\xa0 RC system/burntomint1.sol\":986:1003  _blackholeAddress */\n      dup1\n        /* \"contracts used for\\xc2\\xa0 RC system/burntomint1.sol\":967:983  blackholeAddress */\n      0x01\n      0x00\n        /* \"contracts used for\\xc2\\xa0 RC system/burntomint1.sol\":967:1003  blackholeAddress = _blackholeAddress */\n      0x0100\n      exp\n      dup2\n      sload\n      dup2\n      0xffffffffffffffffffffffffffffffffffffffff\n      mul\n      not\n      and\n      swap1\n      dup4\n      0xffffffffffffffffffffffffffffffffffffffff\n      and\n      mul\n      or\n      swap1\n      sstore\n      pop\n        /* \"contracts used for\\xc2\\xa0 RC system/burntomint1.sol\":891:1011  function setBlackholeAddress(address _blackholeAddress) external {... */\n      pop\n      jump\t// out\n        /* \"contracts used for\\xc2\\xa0 RC system/burntomint1.sol\":176:196  SimpleDAI public dai */\n    tag_28:\n      0x00\n      dup1\n      sload\n      swap1\n      0x0100\n      exp\n      swap1\n      div\n      0xffffffffffffffffffffffffffffffffffffffff\n      and\n      dup2\n      jump\t// out\n        /* \"#utility.yul\":88:205   */\n    tag_46:\n        /* \"#utility.yul\":197:198   */\n      0x00\n        /* \"#utility.yul\":194:195   */\n      dup1\n        /* \"#utility.yul\":187:199   */\n      revert\n        /* \"#utility.yul\":334:460   */\n    tag_48:\n        /* \"#utility.yul\":371:378   */\n      0x00\n        /* \"#utility.yul\":411:453   */\n      0xffffffffffffffffffffffffffffffffffffffff\n        /* \"#utility.yul\":404:409   */\n      dup3\n        /* \"#utility.yul\":400:454   */\n      and\n        /* \"#utility.yul\":389:454   */\n      swap1\n      pop\n        /* \"#utility.yul\":334:460   */\n      swap2\n      swap1\n      pop\n      jump\t// out\n        /* \"#utility.yul\":466:562   */\n    tag_49:\n        /* \"#utility.yul\":503:510   */\n      0x00\n        /* \"#utility.yul\":532:556   */\n      tag_71\n        /* \"#utility.yul\":550:555   */\n      dup3\n        /* \"#utility.yul\":532:556   */\n      tag_48\n      jump\t// in\n    tag_71:\n        /* \"#utility.yul\":521:556   */\n      swap1\n      pop\n        /* \"#utility.yul\":466:562   */\n      swap2\n      swap1\n      pop\n      jump\t// out\n        /* \"#utility.yul\":568:690   */\n    tag_50:\n        /* \"#utility.yul\":641:665   */\n      tag_73\n        /* \"#utility.yul\":659:664   */\n      dup2\n        /* \"#utility.yul\":641:665   */\n      tag_49\n      jump\t// in\n    tag_73:\n        /* \"#utility.yul\":634:639   */\n      dup2\n        /* \"#utility.yul\":631:666   */\n      eq\n        /* \"#utility.yul\":621:684   */\n      tag_74\n      jumpi\n        /* \"#utility.yul\":680:681   */\n      0x00\n        /* \"#utility.yul\":677:678   */\n      dup1\n        /* \"#utility.yul\":670:682   */\n      revert\n        /* \"#utility.yul\":621:684   */\n    tag_74:\n        /* \"#utility.yul\":568:690   */\n      pop\n      jump\t// out\n        /* \"#utility.yul\":696:835   */\n    tag_51:\n        /* \"#utility.yul\":742:747   */\n      0x00\n        /* \"#utility.yul\":780:786   */\n      dup2\n        /* \"#utility.yul\":767:787   */\n      calldataload\n        /* \"#utility.yul\":758:787   */\n      swap1\n      pop\n        /* \"#utility.yul\":796:829   */\n      tag_76\n        /* \"#utility.yul\":823:828   */\n      dup2\n        /* \"#utility.yul\":796:829   */\n      tag_50\n      jump\t// in\n    tag_76:\n        /* \"#utility.yul\":696:835   */\n      swap3\n      swap2\n      pop\n      pop\n      jump\t// out\n        /* \"#utility.yul\":841:1170   */\n    tag_11:\n        /* \"#utility.yul\":900:906   */\n      0x00\n        /* \"#utility.yul\":949:951   */\n      0x20\n        /* \"#utility.yul\":937:946   */\n      dup3\n        /* \"#utility.yul\":928:935   */\n      dup5\n        /* \"#utility.yul\":924:947   */\n      sub\n        /* \"#utility.yul\":920:952   */\n      slt\n        /* \"#utility.yul\":917:1036   */\n      iszero\n      tag_78\n      jumpi\n        /* \"#utility.yul\":955:1034   */\n      tag_79\n      tag_46\n      jump\t// in\n    tag_79:\n        /* \"#utility.yul\":917:1036   */\n    tag_78:\n        /* \"#utility.yul\":1075:1076   */\n      0x00\n        /* \"#utility.yul\":1100:1153   */\n      tag_80\n        /* \"#utility.yul\":1145:1152   */\n      dup5\n        /* \"#utility.yul\":1136:1142   */\n      dup3\n        /* \"#utility.yul\":1125:1134   */\n      dup6\n        /* \"#utility.yul\":1121:1143   */\n      add\n        /* \"#utility.yul\":1100:1153   */\n      tag_51\n      jump\t// in\n    tag_80:\n        /* \"#utility.yul\":1090:1153   */\n      swap2\n      pop\n        /* \"#utility.yul\":1046:1163   */\n      pop\n        /* \"#utility.yul\":841:1170   */\n      swap3\n      swap2\n      pop\n      pop\n      jump\t// out\n        /* \"#utility.yul\":1176:1294   */\n    tag_52:\n        /* \"#utility.yul\":1263:1287   */\n      tag_82\n        /* \"#utility.yul\":1281:1286   */\n      dup2\n        /* \"#utility.yul\":1263:1287   */\n      tag_49\n      jump\t// in\n    tag_82:\n        /* \"#utility.yul\":1258:1261   */\n      dup3\n        /* \"#utility.yul\":1251:1288   */\n      mstore\n        /* \"#utility.yul\":1176:1294   */\n      pop\n      pop\n      jump\t// out\n        /* \"#utility.yul\":1300:1522   */\n    tag_16:\n        /* \"#utility.yul\":1393:1397   */\n      0x00\n        /* \"#utility.yul\":1431:1433   */\n      0x20\n        /* \"#utility.yul\":1420:1429   */\n      dup3\n        /* \"#utility.yul\":1416:1434   */\n      add\n        /* \"#utility.yul\":1408:1434   */\n      swap1\n      pop\n        /* \"#utility.yul\":1444:1515   */\n      tag_84\n        /* \"#utility.yul\":1512:1513   */\n      0x00\n        /* \"#utility.yul\":1501:1510   */\n      dup4\n        /* \"#utility.yul\":1497:1514   */\n      add\n        /* \"#utility.yul\":1488:1494   */\n      dup5\n        /* \"#utility.yul\":1444:1515   */\n      tag_52\n      jump\t// in\n    tag_84:\n        /* \"#utility.yul\":1300:1522   */\n      swap3\n      swap2\n      pop\n      pop\n      jump\t// out\n        /* \"#utility.yul\":1528:1605   */\n    tag_53:\n        /* \"#utility.yul\":1565:1572   */\n      0x00\n        /* \"#utility.yul\":1594:1599   */\n      dup2\n        /* \"#utility.yul\":1583:1599   */\n      swap1\n      pop\n        /* \"#utility.yul\":1528:1605   */\n      swap2\n      swap1\n      pop\n      jump\t// out\n        /* \"#utility.yul\":1611:1733   */\n    tag_54:\n        /* \"#utility.yul\":1684:1708   */\n      tag_87\n        /* \"#utility.yul\":1702:1707   */\n      dup2\n        /* \"#utility.yul\":1684:1708   */\n      tag_53\n      jump\t// in\n    tag_87:\n        /* \"#utility.yul\":1677:1682   */\n      dup2\n        /* \"#utility.yul\":1674:1709   */\n      eq\n        /* \"#utility.yul\":1664:1727   */\n      tag_88\n      jumpi\n        /* \"#utility.yul\":1723:1724   */\n      0x00\n        /* \"#utility.yul\":1720:1721   */\n      dup1\n        /* \"#utility.yul\":1713:1725   */\n      revert\n        /* \"#utility.yul\":1664:1727   */\n    tag_88:\n        /* \"#utility.yul\":1611:1733   */\n      pop\n      jump\t// out\n        /* \"#utility.yul\":1739:1878   */\n    tag_55:\n        /* \"#utility.yul\":1785:1790   */\n      0x00\n        /* \"#utility.yul\":1823:1829   */\n      dup2\n        /* \"#utility.yul\":1810:1830   */\n      calldataload\n        /* \"#utility.yul\":1801:1830   */\n      swap1\n      pop\n        /* \"#utility.yul\":1839:1872   */\n      tag_90\n        /* \"#utility.yul\":1866:1871   */\n      dup2\n        /* \"#utility.yul\":1839:1872   */\n      tag_54\n      jump\t// in\n    tag_90:\n        /* \"#utility.yul\":1739:1878   */\n      swap3\n      swap2\n      pop\n      pop\n      jump\t// out\n        /* \"#utility.yul\":1884:2358   */\n    tag_22:\n        /* \"#utility.yul\":1952:1958   */\n      0x00\n        /* \"#utility.yul\":1960:1966   */\n      dup1\n        /* \"#utility.yul\":2009:2011   */\n      0x40\n        /* \"#utility.yul\":1997:2006   */\n      dup4\n        /* \"#utility.yul\":1988:1995   */\n      dup6\n        /* \"#utility.yul\":1984:2007   */\n      sub\n        /* \"#utility.yul\":1980:2012   */\n      slt\n        /* \"#utility.yul\":1977:2096   */\n      iszero\n      tag_92\n      jumpi\n        /* \"#utility.yul\":2015:2094   */\n      tag_93\n      tag_46\n      jump\t// in\n    tag_93:\n        /* \"#utility.yul\":1977:2096   */\n    tag_92:\n        /* \"#utility.yul\":2135:2136   */\n      0x00\n        /* \"#utility.yul\":2160:2213   */\n      tag_94\n        /* \"#utility.yul\":2205:2212   */\n      dup6\n        /* \"#utility.yul\":2196:2202   */\n      dup3\n        /* \"#utility.yul\":2185:2194   */\n      dup7\n        /* \"#utility.yul\":2181:2203   */\n      add\n        /* \"#utility.yul\":2160:2213   */\n      tag_55\n      jump\t// in\n    tag_94:\n        /* \"#utility.yul\":2150:2213   */\n      swap3\n      pop\n        /* \"#utility.yul\":2106:2223   */\n      pop\n        /* \"#utility.yul\":2262:2264   */\n      0x20\n        /* \"#utility.yul\":2288:2341   */\n      tag_95\n        /* \"#utility.yul\":2333:2340   */\n      dup6\n        /* \"#utility.yul\":2324:2330   */\n      dup3\n        /* \"#utility.yul\":2313:2322   */\n      dup7\n        /* \"#utility.yul\":2309:2331   */\n      add\n        /* \"#utility.yul\":2288:2341   */\n      tag_55\n      jump\t// in\n    tag_95:\n        /* \"#utility.yul\":2278:2341   */\n      swap2\n      pop\n        /* \"#utility.yul\":2233:2351   */\n      pop\n        /* \"#utility.yul\":1884:2358   */\n      swap3\n      pop\n      swap3\n      swap1\n      pop\n      jump\t// out\n        /* \"#utility.yul\":2364:2424   */\n    tag_56:\n        /* \"#utility.yul\":2392:2395   */\n      0x00\n        /* \"#utility.yul\":2413:2418   */\n      dup2\n        /* \"#utility.yul\":2406:2418   */\n      swap1\n      pop\n        /* \"#utility.yul\":2364:2424   */\n      swap2\n      swap1\n      pop\n      jump\t// out\n        /* \"#utility.yul\":2430:2572   */\n    tag_57:\n        /* \"#utility.yul\":2480:2489   */\n      0x00\n        /* \"#utility.yul\":2513:2566   */\n      tag_98\n        /* \"#utility.yul\":2531:2565   */\n      tag_99\n        /* \"#utility.yul\":2540:2564   */\n      tag_100\n        /* \"#utility.yul\":2558:2563   */\n      dup5\n        /* \"#utility.yul\":2540:2564   */\n      tag_48\n      jump\t// in\n    tag_100:\n        /* \"#utility.yul\":2531:2565   */\n      tag_56\n      jump\t// in\n    tag_99:\n        /* \"#utility.yul\":2513:2566   */\n      tag_48\n      jump\t// in\n    tag_98:\n        /* \"#utility.yul\":2500:2566   */\n      swap1\n      pop\n        /* \"#utility.yul\":2430:2572   */\n      swap2\n      swap1\n      pop\n      jump\t// out\n        /* \"#utility.yul\":2578:2704   */\n    tag_58:\n        /* \"#utility.yul\":2628:2637   */\n      0x00\n        /* \"#utility.yul\":2661:2698   */\n      tag_102\n        /* \"#utility.yul\":2692:2697   */\n      dup3\n        /* \"#utility.yul\":2661:2698   */\n      tag_57\n      jump\t// in\n    tag_102:\n        /* \"#utility.yul\":2648:2698   */\n      swap1\n      pop\n        /* \"#utility.yul\":2578:2704   */\n      swap2\n      swap1\n      pop\n      jump\t// out\n        /* \"#utility.yul\":2710:2853   */\n    tag_59:\n        /* \"#utility.yul\":2777:2786   */\n      0x00\n        /* \"#utility.yul\":2810:2847   */\n      tag_104\n        /* \"#utility.yul\":2841:2846   */\n      dup3\n        /* \"#utility.yul\":2810:2847   */\n      tag_58\n      jump\t// in\n    tag_104:\n        /* \"#utility.yul\":2797:2847   */\n      swap1\n      pop\n        /* \"#utility.yul\":2710:2853   */\n      swap2\n      swap1\n      pop\n      jump\t// out\n        /* \"#utility.yul\":2859:3024   */\n    tag_60:\n        /* \"#utility.yul\":2963:3017   */\n      tag_106\n        /* \"#utility.yul\":3011:3016   */\n      dup2\n        /* \"#utility.yul\":2963:3017   */\n      tag_59\n      jump\t// in\n    tag_106:\n        /* \"#utility.yul\":2958:2961   */\n      dup3\n        /* \"#utility.yul\":2951:3018   */\n      mstore\n        /* \"#utility.yul\":2859:3024   */\n      pop\n      pop\n      jump\t// out\n        /* \"#utility.yul\":3030:3286   */\n    tag_30:\n        /* \"#utility.yul\":3140:3144   */\n      0x00\n        /* \"#utility.yul\":3178:3180   */\n      0x20\n        /* \"#utility.yul\":3167:3176   */\n      dup3\n        /* \"#utility.yul\":3163:3181   */\n      add\n        /* \"#utility.yul\":3155:3181   */\n      swap1\n      pop\n        /* \"#utility.yul\":3191:3279   */\n      tag_108\n        /* \"#utility.yul\":3276:3277   */\n      0x00\n        /* \"#utility.yul\":3265:3274   */\n      dup4\n        /* \"#utility.yul\":3261:3278   */\n      add\n        /* \"#utility.yul\":3252:3258   */\n      dup5\n        /* \"#utility.yul\":3191:3279   */\n      tag_60\n      jump\t// in\n    tag_108:\n        /* \"#utility.yul\":3030:3286   */\n      swap3\n      swap2\n      pop\n      pop\n      jump\t// out\n        /* \"#utility.yul\":3292:3410   */\n    tag_61:\n        /* \"#utility.yul\":3379:3403   */\n      tag_110\n        /* \"#utility.yul\":3397:3402   */\n      dup2\n        /* \"#utility.yul\":3379:3403   */\n      tag_53\n      jump\t// in\n    tag_110:\n        /* \"#utility.yul\":3374:3377   */\n      dup3\n        /* \"#utility.yul\":3367:3404   */\n      mstore\n        /* \"#utility.yul\":3292:3410   */\n      pop\n      pop\n      jump\t// out\n        /* \"#utility.yul\":3416:3858   */\n    tag_34:\n        /* \"#utility.yul\":3565:3569   */\n      0x00\n        /* \"#utility.yul\":3603:3605   */\n      0x60\n        /* \"#utility.yul\":3592:3601   */\n      dup3\n        /* \"#utility.yul\":3588:3606   */\n      add\n        /* \"#utility.yul\":3580:3606   */\n      swap1\n      pop\n        /* \"#utility.yul\":3616:3687   */\n      tag_112\n        /* \"#utility.yul\":3684:3685   */\n      0x00\n        /* \"#utility.yul\":3673:3682   */\n      dup4\n        /* \"#utility.yul\":3669:3686   */\n      add\n        /* \"#utility.yul\":3660:3666   */\n      dup7\n        /* \"#utility.yul\":3616:3687   */\n      tag_52\n      jump\t// in\n    tag_112:\n        /* \"#utility.yul\":3697:3769   */\n      tag_113\n        /* \"#utility.yul\":3765:3767   */\n      0x20\n        /* \"#utility.yul\":3754:3763   */\n      dup4\n        /* \"#utility.yul\":3750:3768   */\n      add\n        /* \"#utility.yul\":3741:3747   */\n      dup6\n        /* \"#utility.yul\":3697:3769   */\n      tag_52\n      jump\t// in\n    tag_113:\n        /* \"#utility.yul\":3779:3851   */\n      tag_114\n        /* \"#utility.yul\":3847:3849   */\n      0x40\n        /* \"#utility.yul\":3836:3845   */\n      dup4\n        /* \"#utility.yul\":3832:3850   */\n      add\n        /* \"#utility.yul\":3823:3829   */\n      dup5\n        /* \"#utility.yul\":3779:3851   */\n      tag_61\n      jump\t// in\n    tag_114:\n        /* \"#utility.yul\":3416:3858   */\n      swap5\n      swap4\n      pop\n      pop\n      pop\n      pop\n      jump\t// out\n        /* \"#utility.yul\":3864:3954   */\n    tag_62:\n        /* \"#utility.yul\":3898:3905   */\n      0x00\n        /* \"#utility.yul\":3941:3946   */\n      dup2\n        /* \"#utility.yul\":3934:3947   */\n      iszero\n        /* \"#utility.yul\":3927:3948   */\n      iszero\n        /* \"#utility.yul\":3916:3948   */\n      swap1\n      pop\n        /* \"#utility.yul\":3864:3954   */\n      swap2\n      swap1\n      pop\n      jump\t// out\n        /* \"#utility.yul\":3960:4076   */\n    tag_63:\n        /* \"#utility.yul\":4030:4051   */\n      tag_117\n        /* \"#utility.yul\":4045:4050   */\n      dup2\n        /* \"#utility.yul\":4030:4051   */\n      tag_62\n      jump\t// in\n    tag_117:\n        /* \"#utility.yul\":4023:4028   */\n      dup2\n        /* \"#utility.yul\":4020:4052   */\n      eq\n        /* \"#utility.yul\":4010:4070   */\n      tag_118\n      jumpi\n        /* \"#utility.yul\":4066:4067   */\n      0x00\n        /* \"#utility.yul\":4063:4064   */\n      dup1\n        /* \"#utility.yul\":4056:4068   */\n      revert\n        /* \"#utility.yul\":4010:4070   */\n    tag_118:\n        /* \"#utility.yul\":3960:4076   */\n      pop\n      jump\t// out\n        /* \"#utility.yul\":4082:4219   */\n    tag_64:\n        /* \"#utility.yul\":4136:4141   */\n      0x00\n        /* \"#utility.yul\":4167:4173   */\n      dup2\n        /* \"#utility.yul\":4161:4174   */\n      mload\n        /* \"#utility.yul\":4152:4174   */\n      swap1\n      pop\n        /* \"#utility.yul\":4183:4213   */\n      tag_120\n        /* \"#utility.yul\":4207:4212   */\n      dup2\n        /* \"#utility.yul\":4183:4213   */\n      tag_63\n      jump\t// in\n    tag_120:\n        /* \"#utility.yul\":4082:4219   */\n      swap3\n      swap2\n      pop\n      pop\n      jump\t// out\n        /* \"#utility.yul\":4225:4570   */\n    tag_39:\n        /* \"#utility.yul\":4292:4298   */\n      0x00\n        /* \"#utility.yul\":4341:4343   */\n      0x20\n        /* \"#utility.yul\":4329:4338   */\n      dup3\n        /* \"#utility.yul\":4320:4327   */\n      dup5\n        /* \"#utility.yul\":4316:4339   */\n      sub\n        /* \"#utility.yul\":4312:4344   */\n      slt\n        /* \"#utility.yul\":4309:4428   */\n      iszero\n      tag_122\n      jumpi\n        /* \"#utility.yul\":4347:4426   */\n      tag_123\n      tag_46\n      jump\t// in\n    tag_123:\n        /* \"#utility.yul\":4309:4428   */\n    tag_122:\n        /* \"#utility.yul\":4467:4468   */\n      0x00\n        /* \"#utility.yul\":4492:4553   */\n      tag_124\n        /* \"#utility.yul\":4545:4552   */\n      dup5\n        /* \"#utility.yul\":4536:4542   */\n      dup3\n        /* \"#utility.yul\":4525:4534   */\n      dup6\n        /* \"#utility.yul\":4521:4543   */\n      add\n        /* \"#utility.yul\":4492:4553   */\n      tag_64\n      jump\t// in\n    tag_124:\n        /* \"#utility.yul\":4482:4553   */\n      swap2\n      pop\n        /* \"#utility.yul\":4438:4563   */\n      pop\n        /* \"#utility.yul\":4225:4570   */\n      swap3\n      swap2\n      pop\n      pop\n      jump\t// out\n\n    auxdata: 0xa2646970667358221220a106c65700e0646e8d33f9c07401e1d8189406a5c3ed05cf36ecb2710ac3dc1064736f6c63430008090033\n}\n",
				"bytecode": {
					"linkReferences": {},
					"object": "608060405234801561001057600080fd5b506040516108493803806108498339818101604052810190610032919061019d565b826000806101000a81548173ffffffffffffffffffffffffffffffffffffffff021916908373ffffffffffffffffffffffffffffffffffffffff16021790555081600160006101000a81548173ffffffffffffffffffffffffffffffffffffffff021916908373ffffffffffffffffffffffffffffffffffffffff16021790555080600260006101000a81548173ffffffffffffffffffffffffffffffffffffffff021916908373ffffffffffffffffffffffffffffffffffffffff1602179055505050506101f0565b600080fd5b600073ffffffffffffffffffffffffffffffffffffffff82169050919050565b600061012c82610101565b9050919050565b600061013e82610121565b9050919050565b61014e81610133565b811461015957600080fd5b50565b60008151905061016b81610145565b92915050565b61017a81610121565b811461018557600080fd5b50565b60008151905061019781610171565b92915050565b6000806000606084860312156101b6576101b56100fc565b5b60006101c48682870161015c565b93505060206101d586828701610188565b92505060406101e686828701610188565b9150509250925092565b61064a806101ff6000396000f3fe608060405234801561001057600080fd5b50600436106100625760003560e01c80630b102d1a146100675780635bf8633a146100835780637d515a10146100a15780638bbeb3ed146100bf578063d3ed3195146100db578063f4b9fa75146100f7575b600080fd5b610081600480360381019061007c9190610422565b610115565b005b61008b610159565b604051610098919061045e565b60405180910390f35b6100a961017f565b6040516100b6919061045e565b60405180910390f35b6100d960048036038101906100d491906104af565b6101a5565b005b6100f560048036038101906100f09190610422565b610357565b005b6100ff61039b565b60405161010c919061054e565b60405180910390f35b80600260006101000a81548173ffffffffffffffffffffffffffffffffffffffff021916908373ffffffffffffffffffffffffffffffffffffffff16021790555050565b600260009054906101000a900473ffffffffffffffffffffffffffffffffffffffff1681565b600160009054906101000a900473ffffffffffffffffffffffffffffffffffffffff1681565b60008054906101000a900473ffffffffffffffffffffffffffffffffffffffff1673ffffffffffffffffffffffffffffffffffffffff166323b872dd33600160009054906101000a900473ffffffffffffffffffffffffffffffffffffffff16856040518463ffffffff1660e01b815260040161022493929190610578565b602060405180830381600087803b15801561023e57600080fd5b505af1158015610252573d6000803e3d6000fd5b505050506040513d601f19601f8201168201806040525081019061027691906105e7565b506000600260009054906101000a900473ffffffffffffffffffffffffffffffffffffffff1690508073ffffffffffffffffffffffffffffffffffffffff166342842e0e3033856040518463ffffffff1660e01b81526004016102db93929190610578565b600060405180830381600087803b1580156102f557600080fd5b505af1158015610309573d6000803e3d6000fd5b50505050813373ffffffffffffffffffffffffffffffffffffffff16847f9cb56356525f6df68ff8276d4a6d5f6cbd43d2dd0b73423a469c66fa88d3a68660405160405180910390a4505050565b80600160006101000a81548173ffffffffffffffffffffffffffffffffffffffff021916908373ffffffffffffffffffffffffffffffffffffffff16021790555050565b60008054906101000a900473ffffffffffffffffffffffffffffffffffffffff1681565b600080fd5b600073ffffffffffffffffffffffffffffffffffffffff82169050919050565b60006103ef826103c4565b9050919050565b6103ff816103e4565b811461040a57600080fd5b50565b60008135905061041c816103f6565b92915050565b600060208284031215610438576104376103bf565b5b60006104468482850161040d565b91505092915050565b610458816103e4565b82525050565b6000602082019050610473600083018461044f565b92915050565b6000819050919050565b61048c81610479565b811461049757600080fd5b50565b6000813590506104a981610483565b92915050565b600080604083850312156104c6576104c56103bf565b5b60006104d48582860161049a565b92505060206104e58582860161049a565b9150509250929050565b6000819050919050565b600061051461050f61050a846103c4565b6104ef565b6103c4565b9050919050565b6000610526826104f9565b9050919050565b60006105388261051b565b9050919050565b6105488161052d565b82525050565b6000602082019050610563600083018461053f565b92915050565b61057281610479565b82525050565b600060608201905061058d600083018661044f565b61059a602083018561044f565b6105a76040830184610569565b949350505050565b60008115159050919050565b6105c4816105af565b81146105cf57600080fd5b50565b6000815190506105e1816105bb565b92915050565b6000602082840312156105fd576105fc6103bf565b5b600061060b848285016105d2565b9150509291505056fea2646970667358221220a106c65700e0646e8d33f9c07401e1d8189406a5c3ed05cf36ecb2710ac3dc1064736f6c63430008090033",
					"opcodes": "PUSH1 0x80 PUSH1 0x40 MSTORE CALLVALUE DUP1 ISZERO PUSH2 0x10 JUMPI PUSH1 0x0 DUP1 REVERT JUMPDEST POP PUSH1 0x40 MLOAD PUSH2 0x849 CODESIZE SUB DUP1 PUSH2 0x849 DUP4 CODECOPY DUP2 DUP2 ADD PUSH1 0x40 MSTORE DUP2 ADD SWAP1 PUSH2 0x32 SWAP2 SWAP1 PUSH2 0x19D JUMP JUMPDEST DUP3 PUSH1 0x0 DUP1 PUSH2 0x100 EXP DUP2 SLOAD DUP2 PUSH20 0xFFFFFFFFFFFFFFFFFFFFFFFFFFFFFFFFFFFFFFFF MUL NOT AND SWAP1 DUP4 PUSH20 0xFFFFFFFFFFFFFFFFFFFFFFFFFFFFFFFFFFFFFFFF AND MUL OR SWAP1 SSTORE POP DUP2 PUSH1 0x1 PUSH1 0x0 PUSH2 0x100 EXP DUP2 SLOAD DUP2 PUSH20 0xFFFFFFFFFFFFFFFFFFFFFFFFFFFFFFFFFFFFFFFF MUL NOT AND SWAP1 DUP4 PUSH20 0xFFFFFFFFFFFFFFFFFFFFFFFFFFFFFFFFFFFFFFFF AND MUL OR SWAP1 SSTORE POP DUP1 PUSH1 0x2 PUSH1 0x0 PUSH2 0x100 EXP DUP2 SLOAD DUP2 PUSH20 0xFFFFFFFFFFFFFFFFFFFFFFFFFFFFFFFFFFFFFFFF MUL NOT AND SWAP1 DUP4 PUSH20 0xFFFFFFFFFFFFFFFFFFFFFFFFFFFFFFFFFFFFFFFF AND MUL OR SWAP1 SSTORE POP POP POP POP PUSH2 0x1F0 JUMP JUMPDEST PUSH1 0x0 DUP1 REVERT JUMPDEST PUSH1 0x0 PUSH20 0xFFFFFFFFFFFFFFFFFFFFFFFFFFFFFFFFFFFFFFFF DUP3 AND SWAP1 POP SWAP2 SWAP1 POP JUMP JUMPDEST PUSH1 0x0 PUSH2 0x12C DUP3 PUSH2 0x101 JUMP JUMPDEST SWAP1 POP SWAP2 SWAP1 POP JUMP JUMPDEST PUSH1 0x0 PUSH2 0x13E DUP3 PUSH2 0x121 JUMP JUMPDEST SWAP1 POP SWAP2 SWAP1 POP JUMP JUMPDEST PUSH2 0x14E DUP2 PUSH2 0x133 JUMP JUMPDEST DUP2 EQ PUSH2 0x159 JUMPI PUSH1 0x0 DUP1 REVERT JUMPDEST POP JUMP JUMPDEST PUSH1 0x0 DUP2 MLOAD SWAP1 POP PUSH2 0x16B DUP2 PUSH2 0x145 JUMP JUMPDEST SWAP3 SWAP2 POP POP JUMP JUMPDEST PUSH2 0x17A DUP2 PUSH2 0x121 JUMP JUMPDEST DUP2 EQ PUSH2 0x185 JUMPI PUSH1 0x0 DUP1 REVERT JUMPDEST POP JUMP JUMPDEST PUSH1 0x0 DUP2 MLOAD SWAP1 POP PUSH2 0x197 DUP2 PUSH2 0x171 JUMP JUMPDEST SWAP3 SWAP2 POP POP JUMP JUMPDEST PUSH1 0x0 DUP1 PUSH1 0x0 PUSH1 0x60 DUP5 DUP7 SUB SLT ISZERO PUSH2 0x1B6 JUMPI PUSH2 0x1B5 PUSH2 0xFC JUMP JUMPDEST JUMPDEST PUSH1 0x0 PUSH2 0x1C4 DUP7 DUP3 DUP8 ADD PUSH2 0x15C JUMP JUMPDEST SWAP4 POP POP PUSH1 0x20 PUSH2 0x1D5 DUP7 DUP3 DUP8 ADD PUSH2 0x188 JUMP JUMPDEST SWAP3 POP POP PUSH1 0x40 PUSH2 0x1E6 DUP7 DUP3 DUP8 ADD PUSH2 0x188 JUMP JUMPDEST SWAP2 POP POP SWAP3 POP SWAP3 POP SWAP3 JUMP JUMPDEST PUSH2 0x64A DUP1 PUSH2 0x1FF PUSH1 0x0 CODECOPY PUSH1 0x0 RETURN INVALID PUSH1 0x80 PUSH1 0x40 MSTORE CALLVALUE DUP1 ISZERO PUSH2 0x10 JUMPI PUSH1 0x0 DUP1 REVERT JUMPDEST POP PUSH1 0x4 CALLDATASIZE LT PUSH2 0x62 JUMPI PUSH1 0x0 CALLDATALOAD PUSH1 0xE0 SHR DUP1 PUSH4 0xB102D1A EQ PUSH2 0x67 JUMPI DUP1 PUSH4 0x5BF8633A EQ PUSH2 0x83 JUMPI DUP1 PUSH4 0x7D515A10 EQ PUSH2 0xA1 JUMPI DUP1 PUSH4 0x8BBEB3ED EQ PUSH2 0xBF JUMPI DUP1 PUSH4 0xD3ED3195 EQ PUSH2 0xDB JUMPI DUP1 PUSH4 0xF4B9FA75 EQ PUSH2 0xF7 JUMPI JUMPDEST PUSH1 0x0 DUP1 REVERT JUMPDEST PUSH2 0x81 PUSH1 0x4 DUP1 CALLDATASIZE SUB DUP2 ADD SWAP1 PUSH2 0x7C SWAP2 SWAP1 PUSH2 0x422 JUMP JUMPDEST PUSH2 0x115 JUMP JUMPDEST STOP JUMPDEST PUSH2 0x8B PUSH2 0x159 JUMP JUMPDEST PUSH1 0x40 MLOAD PUSH2 0x98 SWAP2 SWAP1 PUSH2 0x45E JUMP JUMPDEST PUSH1 0x40 MLOAD DUP1 SWAP2 SUB SWAP1 RETURN JUMPDEST PUSH2 0xA9 PUSH2 0x17F JUMP JUMPDEST PUSH1 0x40 MLOAD PUSH2 0xB6 SWAP2 SWAP1 PUSH2 0x45E JUMP JUMPDEST PUSH1 0x40 MLOAD DUP1 SWAP2 SUB SWAP1 RETURN JUMPDEST PUSH2 0xD9 PUSH1 0x4 DUP1 CALLDATASIZE SUB DUP2 ADD SWAP1 PUSH2 0xD4 SWAP2 SWAP1 PUSH2 0x4AF JUMP JUMPDEST PUSH2 0x1A5 JUMP JUMPDEST STOP JUMPDEST PUSH2 0xF5 PUSH1 0x4 DUP1 CALLDATASIZE SUB DUP2 ADD SWAP1 PUSH2 0xF0 SWAP2 SWAP1 PUSH2 0x422 JUMP JUMPDEST PUSH2 0x357 JUMP JUMPDEST STOP JUMPDEST PUSH2 0xFF PUSH2 0x39B JUMP JUMPDEST PUSH1 0x40 MLOAD PUSH2 0x10C SWAP2 SWAP1 PUSH2 0x54E JUMP JUMPDEST PUSH1 0x40 MLOAD DUP1 SWAP2 SUB SWAP1 RETURN JUMPDEST DUP1 PUSH1 0x2 PUSH1 0x0 PUSH2 0x100 EXP DUP2 SLOAD DUP2 PUSH20 0xFFFFFFFFFFFFFFFFFFFFFFFFFFFFFFFFFFFFFFFF MUL NOT AND SWAP1 DUP4 PUSH20 0xFFFFFFFFFFFFFFFFFFFFFFFFFFFFFFFFFFFFFFFF AND MUL OR SWAP1 SSTORE POP POP JUMP JUMPDEST PUSH1 0x2 PUSH1 0x0 SWAP1 SLOAD SWAP1 PUSH2 0x100 EXP SWAP1 DIV PUSH20 0xFFFFFFFFFFFFFFFFFFFFFFFFFFFFFFFFFFFFFFFF AND DUP2 JUMP JUMPDEST PUSH1 0x1 PUSH1 0x0 SWAP1 SLOAD SWAP1 PUSH2 0x100 EXP SWAP1 DIV PUSH20 0xFFFFFFFFFFFFFFFFFFFFFFFFFFFFFFFFFFFFFFFF AND DUP2 JUMP JUMPDEST PUSH1 0x0 DUP1 SLOAD SWAP1 PUSH2 0x100 EXP SWAP1 DIV PUSH20 0xFFFFFFFFFFFFFFFFFFFFFFFFFFFFFFFFFFFFFFFF AND PUSH20 0xFFFFFFFFFFFFFFFFFFFFFFFFFFFFFFFFFFFFFFFF AND PUSH4 0x23B872DD CALLER PUSH1 0x1 PUSH1 0x0 SWAP1 SLOAD SWAP1 PUSH2 0x100 EXP SWAP1 DIV PUSH20 0xFFFFFFFFFFFFFFFFFFFFFFFFFFFFFFFFFFFFFFFF AND DUP6 PUSH1 0x40 MLOAD DUP5 PUSH4 0xFFFFFFFF AND PUSH1 0xE0 SHL DUP2 MSTORE PUSH1 0x4 ADD PUSH2 0x224 SWAP4 SWAP3 SWAP2 SWAP1 PUSH2 0x578 JUMP JUMPDEST PUSH1 0x20 PUSH1 0x40 MLOAD DUP1 DUP4 SUB DUP2 PUSH1 0x0 DUP8 DUP1 EXTCODESIZE ISZERO DUP1 ISZERO PUSH2 0x23E JUMPI PUSH1 0x0 DUP1 REVERT JUMPDEST POP GAS CALL ISZERO DUP1 ISZERO PUSH2 0x252 JUMPI RETURNDATASIZE PUSH1 0x0 DUP1 RETURNDATACOPY RETURNDATASIZE PUSH1 0x0 REVERT JUMPDEST POP POP POP POP PUSH1 0x40 MLOAD RETURNDATASIZE PUSH1 0x1F NOT PUSH1 0x1F DUP3 ADD AND DUP3 ADD DUP1 PUSH1 0x40 MSTORE POP DUP2 ADD SWAP1 PUSH2 0x276 SWAP2 SWAP1 PUSH2 0x5E7 JUMP JUMPDEST POP PUSH1 0x0 PUSH1 0x2 PUSH1 0x0 SWAP1 SLOAD SWAP1 PUSH2 0x100 EXP SWAP1 DIV PUSH20 0xFFFFFFFFFFFFFFFFFFFFFFFFFFFFFFFFFFFFFFFF AND SWAP1 POP DUP1 PUSH20 0xFFFFFFFFFFFFFFFFFFFFFFFFFFFFFFFFFFFFFFFF AND PUSH4 0x42842E0E ADDRESS CALLER DUP6 PUSH1 0x40 MLOAD DUP5 PUSH4 0xFFFFFFFF AND PUSH1 0xE0 SHL DUP2 MSTORE PUSH1 0x4 ADD PUSH2 0x2DB SWAP4 SWAP3 SWAP2 SWAP1 PUSH2 0x578 JUMP JUMPDEST PUSH1 0x0 PUSH1 0x40 MLOAD DUP1 DUP4 SUB DUP2 PUSH1 0x0 DUP8 DUP1 EXTCODESIZE ISZERO DUP1 ISZERO PUSH2 0x2F5 JUMPI PUSH1 0x0 DUP1 REVERT JUMPDEST POP GAS CALL ISZERO DUP1 ISZERO PUSH2 0x309 JUMPI RETURNDATASIZE PUSH1 0x0 DUP1 RETURNDATACOPY RETURNDATASIZE PUSH1 0x0 REVERT JUMPDEST POP POP POP POP DUP2 CALLER PUSH20 0xFFFFFFFFFFFFFFFFFFFFFFFFFFFFFFFFFFFFFFFF AND DUP5 PUSH32 0x9CB56356525F6DF68FF8276D4A6D5F6CBD43D2DD0B73423A469C66FA88D3A686 PUSH1 0x40 MLOAD PUSH1 0x40 MLOAD DUP1 SWAP2 SUB SWAP1 LOG4 POP POP POP JUMP JUMPDEST DUP1 PUSH1 0x1 PUSH1 0x0 PUSH2 0x100 EXP DUP2 SLOAD DUP2 PUSH20 0xFFFFFFFFFFFFFFFFFFFFFFFFFFFFFFFFFFFFFFFF MUL NOT AND SWAP1 DUP4 PUSH20 0xFFFFFFFFFFFFFFFFFFFFFFFFFFFFFFFFFFFFFFFF AND MUL OR SWAP1 SSTORE POP POP JUMP JUMPDEST PUSH1 0x0 DUP1 SLOAD SWAP1 PUSH2 0x100 EXP SWAP1 DIV PUSH20 0xFFFFFFFFFFFFFFFFFFFFFFFFFFFFFFFFFFFFFFFF AND DUP2 JUMP JUMPDEST PUSH1 0x0 DUP1 REVERT JUMPDEST PUSH1 0x0 PUSH20 0xFFFFFFFFFFFFFFFFFFFFFFFFFFFFFFFFFFFFFFFF DUP3 AND SWAP1 POP SWAP2 SWAP1 POP JUMP JUMPDEST PUSH1 0x0 PUSH2 0x3EF DUP3 PUSH2 0x3C4 JUMP JUMPDEST SWAP1 POP SWAP2 SWAP1 POP JUMP JUMPDEST PUSH2 0x3FF DUP2 PUSH2 0x3E4 JUMP JUMPDEST DUP2 EQ PUSH2 0x40A JUMPI PUSH1 0x0 DUP1 REVERT JUMPDEST POP JUMP JUMPDEST PUSH1 0x0 DUP2 CALLDATALOAD SWAP1 POP PUSH2 0x41C DUP2 PUSH2 0x3F6 JUMP JUMPDEST SWAP3 SWAP2 POP POP JUMP JUMPDEST PUSH1 0x0 PUSH1 0x20 DUP3 DUP5 SUB SLT ISZERO PUSH2 0x438 JUMPI PUSH2 0x437 PUSH2 0x3BF JUMP JUMPDEST JUMPDEST PUSH1 0x0 PUSH2 0x446 DUP5 DUP3 DUP6 ADD PUSH2 0x40D JUMP JUMPDEST SWAP2 POP POP SWAP3 SWAP2 POP POP JUMP JUMPDEST PUSH2 0x458 DUP2 PUSH2 0x3E4 JUMP JUMPDEST DUP3 MSTORE POP POP JUMP JUMPDEST PUSH1 0x0 PUSH1 0x20 DUP3 ADD SWAP1 POP PUSH2 0x473 PUSH1 0x0 DUP4 ADD DUP5 PUSH2 0x44F JUMP JUMPDEST SWAP3 SWAP2 POP POP JUMP JUMPDEST PUSH1 0x0 DUP2 SWAP1 POP SWAP2 SWAP1 POP JUMP JUMPDEST PUSH2 0x48C DUP2 PUSH2 0x479 JUMP JUMPDEST DUP2 EQ PUSH2 0x497 JUMPI PUSH1 0x0 DUP1 REVERT JUMPDEST POP JUMP JUMPDEST PUSH1 0x0 DUP2 CALLDATALOAD SWAP1 POP PUSH2 0x4A9 DUP2 PUSH2 0x483 JUMP JUMPDEST SWAP3 SWAP2 POP POP JUMP JUMPDEST PUSH1 0x0 DUP1 PUSH1 0x40 DUP4 DUP6 SUB SLT ISZERO PUSH2 0x4C6 JUMPI PUSH2 0x4C5 PUSH2 0x3BF JUMP JUMPDEST JUMPDEST PUSH1 0x0 PUSH2 0x4D4 DUP6 DUP3 DUP7 ADD PUSH2 0x49A JUMP JUMPDEST SWAP3 POP POP PUSH1 0x20 PUSH2 0x4E5 DUP6 DUP3 DUP7 ADD PUSH2 0x49A JUMP JUMPDEST SWAP2 POP POP SWAP3 POP SWAP3 SWAP1 POP JUMP JUMPDEST PUSH1 0x0 DUP2 SWAP1 POP SWAP2 SWAP1 POP JUMP JUMPDEST PUSH1 0x0 PUSH2 0x514 PUSH2 0x50F PUSH2 0x50A DUP5 PUSH2 0x3C4 JUMP JUMPDEST PUSH2 0x4EF JUMP JUMPDEST PUSH2 0x3C4 JUMP JUMPDEST SWAP1 POP SWAP2 SWAP1 POP JUMP JUMPDEST PUSH1 0x0 PUSH2 0x526 DUP3 PUSH2 0x4F9 JUMP JUMPDEST SWAP1 POP SWAP2 SWAP1 POP JUMP JUMPDEST PUSH1 0x0 PUSH2 0x538 DUP3 PUSH2 0x51B JUMP JUMPDEST SWAP1 POP SWAP2 SWAP1 POP JUMP JUMPDEST PUSH2 0x548 DUP2 PUSH2 0x52D JUMP JUMPDEST DUP3 MSTORE POP POP JUMP JUMPDEST PUSH1 0x0 PUSH1 0x20 DUP3 ADD SWAP1 POP PUSH2 0x563 PUSH1 0x0 DUP4 ADD DUP5 PUSH2 0x53F JUMP JUMPDEST SWAP3 SWAP2 POP POP JUMP JUMPDEST PUSH2 0x572 DUP2 PUSH2 0x479 JUMP JUMPDEST DUP3 MSTORE POP POP JUMP JUMPDEST PUSH1 0x0 PUSH1 0x60 DUP3 ADD SWAP1 POP PUSH2 0x58D PUSH1 0x0 DUP4 ADD DUP7 PUSH2 0x44F JUMP JUMPDEST PUSH2 0x59A PUSH1 0x20 DUP4 ADD DUP6 PUSH2 0x44F JUMP JUMPDEST PUSH2 0x5A7 PUSH1 0x40 DUP4 ADD DUP5 PUSH2 0x569 JUMP JUMPDEST SWAP5 SWAP4 POP POP POP POP JUMP JUMPDEST PUSH1 0x0 DUP2 ISZERO ISZERO SWAP1 POP SWAP2 SWAP1 POP JUMP JUMPDEST PUSH2 0x5C4 DUP2 PUSH2 0x5AF JUMP JUMPDEST DUP2 EQ PUSH2 0x5CF JUMPI PUSH1 0x0 DUP1 REVERT JUMPDEST POP JUMP JUMPDEST PUSH1 0x0 DUP2 MLOAD SWAP1 POP PUSH2 0x5E1 DUP2 PUSH2 0x5BB JUMP JUMPDEST SWAP3 SWAP2 POP POP JUMP JUMPDEST PUSH1 0x0 PUSH1 0x20 DUP3 DUP5 SUB SLT ISZERO PUSH2 0x5FD JUMPI PUSH2 0x5FC PUSH2 0x3BF JUMP JUMPDEST JUMPDEST PUSH1 0x0 PUSH2 0x60B DUP5 DUP3 DUP6 ADD PUSH2 0x5D2 JUMP JUMPDEST SWAP2 POP POP SWAP3 SWAP2 POP POP JUMP INVALID LOG2 PUSH5 0x6970667358 0x22 SLT KECCAK256 LOG1 MOD 0xC6 JUMPI STOP 0xE0 PUSH5 0x6E8D33F9C0 PUSH21 0x1E1D8189406A5C3ED05CF36ECB2710AC3DC106473 PUSH16 0x6C634300080900330000000000000000 "
				},
				"gasEstimates": {
					"creation": {
						"codeDepositCost": "322000",
						"executionCost": "infinite",
						"totalCost": "infinite"
					},
					"external": {
						"blackholeAddress()": "2536",
						"burnToMint(uint256,uint256)": "infinite",
						"dai()": "infinite",
						"nftAddress()": "2514",
						"setBlackholeAddress(address)": "24788",
						"setNftAddress(address)": "24700"
					}
				},
				"methodIdentifiers": {
					"blackholeAddress()": "7d515a10",
					"burnToMint(uint256,uint256)": "8bbeb3ed",
					"dai()": "f4b9fa75",
					"nftAddress()": "5bf8633a",
					"setBlackholeAddress(address)": "d3ed3195",
					"setNftAddress(address)": "0b102d1a"
				}
			},
			"storageLayout": {
				"storage": [
					{
						"astId": 816,
						"contract": "contracts used for  RC system/burntomint1.sol:BurnToMint",
						"label": "dai",
						"offset": 0,
						"slot": "0",
						"type": "t_contract(SimpleDAI)809"
					},
					{
						"astId": 818,
						"contract": "contracts used for  RC system/burntomint1.sol:BurnToMint",
						"label": "blackholeAddress",
						"offset": 0,
						"slot": "1",
						"type": "t_address"
					},
					{
						"astId": 820,
						"contract": "contracts used for  RC system/burntomint1.sol:BurnToMint",
						"label": "nftAddress",
						"offset": 0,
						"slot": "2",
						"type": "t_address"
					}
				],
				"types": {
					"t_address": {
						"encoding": "inplace",
						"label": "address",
						"numberOfBytes": "20"
					},
					"t_contract(SimpleDAI)809": {
						"encoding": "inplace",
						"label": "contract SimpleDAI",
						"numberOfBytes": "20"
					}
				}
			},
			"userdoc": {
				"kind": "user",
				"methods": {},
				"version": 1
			}
		}
	}
}