{
	"contracts used for  RC system/SimpleDAI.sol": {
		"SimpleDAI": {
			"abi": [
				{
					"anonymous": false,
					"inputs": [
						{
							"indexed": true,
							"internalType": "address",
							"name": "owner",
							"type": "address"
						},
						{
							"indexed": true,
							"internalType": "address",
							"name": "spender",
							"type": "address"
						},
						{
							"indexed": false,
							"internalType": "uint256",
							"name": "value",
							"type": "uint256"
						}
					],
					"name": "Approval",
					"type": "event"
				},
				{
					"anonymous": false,
					"inputs": [
						{
							"indexed": true,
							"internalType": "address",
							"name": "account",
							"type": "address"
						},
						{
							"indexed": false,
							"internalType": "uint256",
							"name": "amount",
							"type": "uint256"
						}
					],
					"name": "Burn",
					"type": "event"
				},
				{
					"anonymous": false,
					"inputs": [
						{
							"indexed": true,
							"internalType": "address",
							"name": "account",
							"type": "address"
						},
						{
							"indexed": false,
							"internalType": "uint256",
							"name": "amount",
							"type": "uint256"
						}
					],
					"name": "Mint",
					"type": "event"
				},
				{
					"anonymous": false,
					"inputs": [
						{
							"indexed": true,
							"internalType": "address",
							"name": "previousOwner",
							"type": "address"
						},
						{
							"indexed": true,
							"internalType": "address",
							"name": "newOwner",
							"type": "address"
						}
					],
					"name": "OwnershipTransferred",
					"type": "event"
				},
				{
					"anonymous": false,
					"inputs": [
						{
							"indexed": true,
							"internalType": "address",
							"name": "from",
							"type": "address"
						},
						{
							"indexed": true,
							"internalType": "address",
							"name": "to",
							"type": "address"
						},
						{
							"indexed": false,
							"internalType": "uint256",
							"name": "value",
							"type": "uint256"
						}
					],
					"name": "Transfer",
					"type": "event"
				},
				{
					"inputs": [],
					"name": "COLLATERAL_RATIO",
					"outputs": [
						{
							"internalType": "uint256",
							"name": "",
							"type": "uint256"
						}
					],
					"stateMutability": "view",
					"type": "function"
				},
				{
					"inputs": [
						{
							"internalType": "address",
							"name": "owner",
							"type": "address"
						},
						{
							"internalType": "address",
							"name": "spender",
							"type": "address"
						}
					],
					"name": "allowance",
					"outputs": [
						{
							"internalType": "uint256",
							"name": "",
							"type": "uint256"
						}
					],
					"stateMutability": "view",
					"type": "function"
				},
				{
					"inputs": [
						{
							"internalType": "address",
							"name": "spender",
							"type": "address"
						},
						{
							"internalType": "uint256",
							"name": "amount",
							"type": "uint256"
						}
					],
					"name": "approve",
					"outputs": [
						{
							"internalType": "bool",
							"name": "",
							"type": "bool"
						}
					],
					"stateMutability": "nonpayable",
					"type": "function"
				},
				{
					"inputs": [
						{
							"internalType": "address",
							"name": "account",
							"type": "address"
						}
					],
					"name": "balanceOf",
					"outputs": [
						{
							"internalType": "uint256",
							"name": "",
							"type": "uint256"
						}
					],
					"stateMutability": "view",
					"type": "function"
				},
				{
					"inputs": [
						{
							"internalType": "uint256",
							"name": "daiAmount",
							"type": "uint256"
						}
					],
					"name": "burnDAI",
					"outputs": [],
					"stateMutability": "nonpayable",
					"type": "function"
				},
				{
					"inputs": [],
					"name": "decimals",
					"outputs": [
						{
							"internalType": "uint8",
							"name": "",
							"type": "uint8"
						}
					],
					"stateMutability": "view",
					"type": "function"
				},
				{
					"inputs": [
						{
							"internalType": "uint256",
							"name": "daiAmount",
							"type": "uint256"
						}
					],
					"name": "mintDAI",
					"outputs": [],
					"stateMutability": "payable",
					"type": "function"
				},
				{
					"inputs": [
						{
							"internalType": "address",
							"name": "to",
							"type": "address"
						},
						{
							"internalType": "uint256",
							"name": "amount",
							"type": "uint256"
						}
					],
					"name": "mintWithoutCollateral",
					"outputs": [],
					"stateMutability": "nonpayable",
					"type": "function"
				},
				{
					"inputs": [],
					"name": "name",
					"outputs": [
						{
							"internalType": "string",
							"name": "",
							"type": "string"
						}
					],
					"stateMutability": "view",
					"type": "function"
				},
				{
					"inputs": [],
					"name": "owner",
					"outputs": [
						{
							"internalType": "address",
							"name": "",
							"type": "address"
						}
					],
					"stateMutability": "view",
					"type": "function"
				},
				{
					"inputs": [],
					"name": "preBurnPreMintContract",
					"outputs": [
						{
							"internalType": "contract IPreBurnPreMint",
							"name": "",
							"type": "address"
						}
					],
					"stateMutability": "view",
					"type": "function"
				},
				{
					"inputs": [],
					"name": "renounceOwnership",
					"outputs": [],
					"stateMutability": "nonpayable",
					"type": "function"
				},
				{
					"inputs": [
						{
							"internalType": "address",
							"name": "_preBurnPreMint",
							"type": "address"
						}
					],
					"name": "setPreBurnPreMintContract",
					"outputs": [],
					"stateMutability": "nonpayable",
					"type": "function"
				},
				{
					"inputs": [],
					"name": "symbol",
					"outputs": [
						{
							"internalType": "string",
							"name": "",
							"type": "string"
						}
					],
					"stateMutability": "view",
					"type": "function"
				},
				{
					"inputs": [],
					"name": "totalSupply",
					"outputs": [
						{
							"internalType": "uint256",
							"name": "",
							"type": "uint256"
						}
					],
					"stateMutability": "view",
					"type": "function"
				},
				{
					"inputs": [
						{
							"internalType": "address",
							"name": "recipient",
							"type": "address"
						},
						{
							"internalType": "uint256",
							"name": "amount",
							"type": "uint256"
						}
					],
					"name": "transfer",
					"outputs": [
						{
							"internalType": "bool",
							"name": "",
							"type": "bool"
						}
					],
					"stateMutability": "nonpayable",
					"type": "function"
				},
				{
					"inputs": [
						{
							"internalType": "address",
							"name": "sender",
							"type": "address"
						},
						{
							"internalType": "address",
							"name": "recipient",
							"type": "address"
						},
						{
							"internalType": "uint256",
							"name": "amount",
							"type": "uint256"
						}
					],
					"name": "transferFrom",
					"outputs": [
						{
							"internalType": "bool",
							"name": "",
							"type": "bool"
						}
					],
					"stateMutability": "nonpayable",
					"type": "function"
				},
				{
					"inputs": [
						{
							"internalType": "address",
							"name": "newOwner",
							"type": "address"
						}
					],
					"name": "transferOwnership",
					"outputs": [],
					"stateMutability": "nonpayable",
					"type": "function"
				}
			],
			"devdoc": {
				"kind": "dev",
				"methods": {
					"owner()": {
						"details": "Returns the address of the current owner."
					},
					"renounceOwnership()": {
						"details": "Leaves the contract without owner. It will not be possible to call `onlyOwner` functions anymore. Can only be called by the current owner. NOTE: Renouncing ownership will leave the contract without an owner, thereby removing any functionality that is only available to the owner."
					},
					"transferOwnership(address)": {
						"details": "Transfers ownership of the contract to a new account (`newOwner`). Can only be called by the current owner."
					}
				},
				"version": 1
			},
			"evm": {
				"assembly": "    /* \"contracts used for\\xc2\\xa0 RC system/SimpleDAI.sol\":173:4341  contract SimpleDAI is IERC20, Ownable {... */\n  mstore(0x40, 0x80)\n  callvalue\n  dup1\n  iszero\n  tag_1\n  jumpi\n  0x00\n  dup1\n  revert\ntag_1:\n  pop\n    /* \"@openzeppelin/contracts/access/Ownable.sol\":936:968  _transferOwnership(_msgSender()) */\n  tag_4\n    /* \"@openzeppelin/contracts/access/Ownable.sol\":955:967  _msgSender() */\n  tag_5\n    /* \"@openzeppelin/contracts/access/Ownable.sol\":955:965  _msgSender */\n  shl(0x20, tag_6)\n    /* \"@openzeppelin/contracts/access/Ownable.sol\":955:967  _msgSender() */\n  0x20\n  shr\n  jump\t// in\ntag_5:\n    /* \"@openzeppelin/contracts/access/Ownable.sol\":936:954  _transferOwnership */\n  shl(0x20, tag_7)\n    /* \"@openzeppelin/contracts/access/Ownable.sol\":936:968  _transferOwnership(_msgSender()) */\n  0x20\n  shr\n  jump\t// in\ntag_4:\n    /* \"contracts used for\\xc2\\xa0 RC system/SimpleDAI.sol\":173:4341  contract SimpleDAI is IERC20, Ownable {... */\n  jump(tag_8)\n    /* \"@openzeppelin/contracts/utils/Context.sol\":640:736  function _msgSender() internal view virtual returns (address) {... */\ntag_6:\n    /* \"@openzeppelin/contracts/utils/Context.sol\":693:700  address */\n  0x00\n    /* \"@openzeppelin/contracts/utils/Context.sol\":719:729  msg.sender */\n  caller\n    /* \"@openzeppelin/contracts/utils/Context.sol\":712:729  return msg.sender */\n  swap1\n  pop\n    /* \"@openzeppelin/contracts/utils/Context.sol\":640:736  function _msgSender() internal view virtual returns (address) {... */\n  swap1\n  jump\t// out\n    /* \"@openzeppelin/contracts/access/Ownable.sol\":2433:2620  function _transferOwnership(address newOwner) internal virtual {... */\ntag_7:\n    /* \"@openzeppelin/contracts/access/Ownable.sol\":2506:2522  address oldOwner */\n  0x00\n    /* \"@openzeppelin/contracts/access/Ownable.sol\":2525:2531  _owner */\n  dup1\n  0x00\n  swap1\n  sload\n  swap1\n  0x0100\n  exp\n  swap1\n  div\n  0xffffffffffffffffffffffffffffffffffffffff\n  and\n    /* \"@openzeppelin/contracts/access/Ownable.sol\":2506:2531  address oldOwner = _owner */\n  swap1\n  pop\n    /* \"@openzeppelin/contracts/access/Ownable.sol\":2550:2558  newOwner */\n  dup2\n    /* \"@openzeppelin/contracts/access/Ownable.sol\":2541:2547  _owner */\n  0x00\n  dup1\n    /* \"@openzeppelin/contracts/access/Ownable.sol\":2541:2558  _owner = newOwner */\n  0x0100\n  exp\n  dup2\n  sload\n  dup2\n  0xffffffffffffffffffffffffffffffffffffffff\n  mul\n  not\n  and\n  swap1\n  dup4\n  0xffffffffffffffffffffffffffffffffffffffff\n  and\n  mul\n  or\n  swap1\n  sstore\n  pop\n    /* \"@openzeppelin/contracts/access/Ownable.sol\":2604:2612  newOwner */\n  dup2\n    /* \"@openzeppelin/contracts/access/Ownable.sol\":2573:2613  OwnershipTransferred(oldOwner, newOwner) */\n  0xffffffffffffffffffffffffffffffffffffffff\n  and\n    /* \"@openzeppelin/contracts/access/Ownable.sol\":2594:2602  oldOwner */\n  dup2\n    /* \"@openzeppelin/contracts/access/Ownable.sol\":2573:2613  OwnershipTransferred(oldOwner, newOwner) */\n  0xffffffffffffffffffffffffffffffffffffffff\n  and\n  0x8be0079c531659141344cd1fd0a4f28419497f9722a3daafe3b4186f6b6457e0\n  mload(0x40)\n  mload(0x40)\n  dup1\n  swap2\n  sub\n  swap1\n  log3\n    /* \"@openzeppelin/contracts/access/Ownable.sol\":2496:2620  {... */\n  pop\n    /* \"@openzeppelin/contracts/access/Ownable.sol\":2433:2620  function _transferOwnership(address newOwner) internal virtual {... */\n  pop\n  jump\t// out\n    /* \"contracts used for\\xc2\\xa0 RC system/SimpleDAI.sol\":173:4341  contract SimpleDAI is IERC20, Ownable {... */\ntag_8:\n  dataSize(sub_0)\n  dup1\n  dataOffset(sub_0)\n  0x00\n  codecopy\n  0x00\n  return\nstop\n\nsub_0: assembly {\n        /* \"contracts used for\\xc2\\xa0 RC system/SimpleDAI.sol\":173:4341  contract SimpleDAI is IERC20, Ownable {... */\n      mstore(0x40, 0x80)\n      jumpi(tag_1, lt(calldatasize, 0x04))\n      shr(0xe0, calldataload(0x00))\n      dup1\n      0x715018a6\n      gt\n      tag_20\n      jumpi\n      dup1\n      0x95d89b41\n      gt\n      tag_21\n      jumpi\n      dup1\n      0x95d89b41\n      eq\n      tag_15\n      jumpi\n      dup1\n      0xa9059cbb\n      eq\n      tag_16\n      jumpi\n      dup1\n      0xd9e69a05\n      eq\n      tag_17\n      jumpi\n      dup1\n      0xdd62ed3e\n      eq\n      tag_18\n      jumpi\n      dup1\n      0xf2fde38b\n      eq\n      tag_19\n      jumpi\n      jump(tag_1)\n    tag_21:\n      dup1\n      0x715018a6\n      eq\n      tag_11\n      jumpi\n      dup1\n      0x8da5cb5b\n      eq\n      tag_12\n      jumpi\n      dup1\n      0x8f58a8b4\n      eq\n      tag_13\n      jumpi\n      dup1\n      0x95a9fc2f\n      eq\n      tag_14\n      jumpi\n      jump(tag_1)\n    tag_20:\n      dup1\n      0x18160ddd\n      gt\n      tag_22\n      jumpi\n      dup1\n      0x18160ddd\n      eq\n      tag_6\n      jumpi\n      dup1\n      0x23b872dd\n      eq\n      tag_7\n      jumpi\n      dup1\n      0x313ce567\n      eq\n      tag_8\n      jumpi\n      dup1\n      0x55313a7b\n      eq\n      tag_9\n      jumpi\n      dup1\n      0x70a08231\n      eq\n      tag_10\n      jumpi\n      jump(tag_1)\n    tag_22:\n      dup1\n      0x06fdde03\n      eq\n      tag_2\n      jumpi\n      dup1\n      0x095ea7b3\n      eq\n      tag_3\n      jumpi\n      dup1\n      0x0ca37328\n      eq\n      tag_4\n      jumpi\n      dup1\n      0x16a54af0\n      eq\n      tag_5\n      jumpi\n    tag_1:\n      0x00\n      dup1\n      revert\n        /* \"contracts used for\\xc2\\xa0 RC system/SimpleDAI.sol\":218:259  string public constant name = \"SimpleDAI\" */\n    tag_2:\n      callvalue\n      dup1\n      iszero\n      tag_23\n      jumpi\n      0x00\n      dup1\n      revert\n    tag_23:\n      pop\n      tag_24\n      tag_25\n      jump\t// in\n    tag_24:\n      mload(0x40)\n      tag_26\n      swap2\n      swap1\n      tag_27\n      jump\t// in\n    tag_26:\n      mload(0x40)\n      dup1\n      swap2\n      sub\n      swap1\n      return\n        /* \"contracts used for\\xc2\\xa0 RC system/SimpleDAI.sol\":2073:2232  function approve(address spender, uint256 amount) public override returns (bool) {... */\n    tag_3:\n      callvalue\n      dup1\n      iszero\n      tag_28\n      jumpi\n      0x00\n      dup1\n      revert\n    tag_28:\n      pop\n      tag_29\n      0x04\n      dup1\n      calldatasize\n      sub\n      dup2\n      add\n      swap1\n      tag_30\n      swap2\n      swap1\n      tag_31\n      jump\t// in\n    tag_30:\n      tag_32\n      jump\t// in\n    tag_29:\n      mload(0x40)\n      tag_33\n      swap2\n      swap1\n      tag_34\n      jump\t// in\n    tag_33:\n      mload(0x40)\n      dup1\n      swap2\n      sub\n      swap1\n      return\n        /* \"contracts used for\\xc2\\xa0 RC system/SimpleDAI.sol\":4115:4338  function setPreBurnPreMintContract(address _preBurnPreMint) external onlyOwner {... */\n    tag_4:\n      callvalue\n      dup1\n      iszero\n      tag_35\n      jumpi\n      0x00\n      dup1\n      revert\n    tag_35:\n      pop\n      tag_36\n      0x04\n      dup1\n      calldatasize\n      sub\n      dup2\n      add\n      swap1\n      tag_37\n      swap2\n      swap1\n      tag_38\n      jump\t// in\n    tag_37:\n      tag_39\n      jump\t// in\n    tag_36:\n      stop\n        /* \"contracts used for\\xc2\\xa0 RC system/SimpleDAI.sol\":353:398  IPreBurnPreMint public preBurnPreMintContract */\n    tag_5:\n      callvalue\n      dup1\n      iszero\n      tag_40\n      jumpi\n      0x00\n      dup1\n      revert\n    tag_40:\n      pop\n      tag_41\n      tag_42\n      jump\t// in\n    tag_41:\n      mload(0x40)\n      tag_43\n      swap2\n      swap1\n      tag_44\n      jump\t// in\n    tag_43:\n      mload(0x40)\n      dup1\n      swap2\n      sub\n      swap1\n      return\n        /* \"contracts used for\\xc2\\xa0 RC system/SimpleDAI.sol\":1514:1614  function totalSupply() public view override returns (uint256) {... */\n    tag_6:\n      callvalue\n      dup1\n      iszero\n      tag_45\n      jumpi\n      0x00\n      dup1\n      revert\n    tag_45:\n      pop\n      tag_46\n      tag_47\n      jump\t// in\n    tag_46:\n      mload(0x40)\n      tag_48\n      swap2\n      swap1\n      tag_49\n      jump\t// in\n    tag_48:\n      mload(0x40)\n      dup1\n      swap2\n      sub\n      swap1\n      return\n        /* \"contracts used for\\xc2\\xa0 RC system/SimpleDAI.sol\":2240:2502  function transferFrom(address sender, address recipient, uint256 amount) public override returns (bool) {... */\n    tag_7:\n      callvalue\n      dup1\n      iszero\n      tag_50\n      jumpi\n      0x00\n      dup1\n      revert\n    tag_50:\n      pop\n      tag_51\n      0x04\n      dup1\n      calldatasize\n      sub\n      dup2\n      add\n      swap1\n      tag_52\n      swap2\n      swap1\n      tag_53\n      jump\t// in\n    tag_52:\n      tag_54\n      jump\t// in\n    tag_51:\n      mload(0x40)\n      tag_55\n      swap2\n      swap1\n      tag_34\n      jump\t// in\n    tag_55:\n      mload(0x40)\n      dup1\n      swap2\n      sub\n      swap1\n      return\n        /* \"contracts used for\\xc2\\xa0 RC system/SimpleDAI.sol\":311:346  uint8 public constant decimals = 18 */\n    tag_8:\n      callvalue\n      dup1\n      iszero\n      tag_56\n      jumpi\n      0x00\n      dup1\n      revert\n    tag_56:\n      pop\n      tag_57\n      tag_58\n      jump\t// in\n    tag_57:\n      mload(0x40)\n      tag_59\n      swap2\n      swap1\n      tag_60\n      jump\t// in\n    tag_59:\n      mload(0x40)\n      dup1\n      swap2\n      sub\n      swap1\n      return\n        /* \"contracts used for\\xc2\\xa0 RC system/SimpleDAI.sol\":3807:4036  function mintWithoutCollateral(address to, uint256 amount) external {... */\n    tag_9:\n      callvalue\n      dup1\n      iszero\n      tag_61\n      jumpi\n      0x00\n      dup1\n      revert\n    tag_61:\n      pop\n      tag_62\n      0x04\n      dup1\n      calldatasize\n      sub\n      dup2\n      add\n      swap1\n      tag_63\n      swap2\n      swap1\n      tag_31\n      jump\t// in\n    tag_63:\n      tag_64\n      jump\t// in\n    tag_62:\n      stop\n        /* \"contracts used for\\xc2\\xa0 RC system/SimpleDAI.sol\":1622:1741  function balanceOf(address account) public view override returns (uint256) {... */\n    tag_10:\n      callvalue\n      dup1\n      iszero\n      tag_65\n      jumpi\n      0x00\n      dup1\n      revert\n    tag_65:\n      pop\n      tag_66\n      0x04\n      dup1\n      calldatasize\n      sub\n      dup2\n      add\n      swap1\n      tag_67\n      swap2\n      swap1\n      tag_38\n      jump\t// in\n    tag_67:\n      tag_68\n      jump\t// in\n    tag_66:\n      mload(0x40)\n      tag_69\n      swap2\n      swap1\n      tag_49\n      jump\t// in\n    tag_69:\n      mload(0x40)\n      dup1\n      swap2\n      sub\n      swap1\n      return\n        /* \"@openzeppelin/contracts/access/Ownable.sol\":1831:1932  function renounceOwnership() public virtual onlyOwner {... */\n    tag_11:\n      callvalue\n      dup1\n      iszero\n      tag_70\n      jumpi\n      0x00\n      dup1\n      revert\n    tag_70:\n      pop\n      tag_71\n      tag_72\n      jump\t// in\n    tag_71:\n      stop\n        /* \"@openzeppelin/contracts/access/Ownable.sol\":1201:1286  function owner() public view virtual returns (address) {... */\n    tag_12:\n      callvalue\n      dup1\n      iszero\n      tag_73\n      jumpi\n      0x00\n      dup1\n      revert\n    tag_73:\n      pop\n      tag_74\n      tag_75\n      jump\t// in\n    tag_74:\n      mload(0x40)\n      tag_76\n      swap2\n      swap1\n      tag_77\n      jump\t// in\n    tag_76:\n      mload(0x40)\n      dup1\n      swap2\n      sub\n      swap1\n      return\n        /* \"contracts used for\\xc2\\xa0 RC system/SimpleDAI.sol\":1141:1506  function burnDAI(uint256 daiAmount) external {... */\n    tag_13:\n      callvalue\n      dup1\n      iszero\n      tag_78\n      jumpi\n      0x00\n      dup1\n      revert\n    tag_78:\n      pop\n      tag_79\n      0x04\n      dup1\n      calldatasize\n      sub\n      dup2\n      add\n      swap1\n      tag_80\n      swap2\n      swap1\n      tag_81\n      jump\t// in\n    tag_80:\n      tag_82\n      jump\t// in\n    tag_79:\n      stop\n        /* \"contracts used for\\xc2\\xa0 RC system/SimpleDAI.sol\":768:1133  function mintDAI(uint256 daiAmount) external payable {... */\n    tag_14:\n      tag_83\n      0x04\n      dup1\n      calldatasize\n      sub\n      dup2\n      add\n      swap1\n      tag_84\n      swap2\n      swap1\n      tag_81\n      jump\t// in\n    tag_84:\n      tag_85\n      jump\t// in\n    tag_83:\n      stop\n        /* \"contracts used for\\xc2\\xa0 RC system/SimpleDAI.sol\":266:304  string public constant symbol = \"sDAI\" */\n    tag_15:\n      callvalue\n      dup1\n      iszero\n      tag_86\n      jumpi\n      0x00\n      dup1\n      revert\n    tag_86:\n      pop\n      tag_87\n      tag_88\n      jump\t// in\n    tag_87:\n      mload(0x40)\n      tag_89\n      swap2\n      swap1\n      tag_27\n      jump\t// in\n    tag_89:\n      mload(0x40)\n      dup1\n      swap2\n      sub\n      swap1\n      return\n        /* \"contracts used for\\xc2\\xa0 RC system/SimpleDAI.sol\":1749:1914  function transfer(address recipient, uint256 amount) public override returns (bool) {... */\n    tag_16:\n      callvalue\n      dup1\n      iszero\n      tag_90\n      jumpi\n      0x00\n      dup1\n      revert\n    tag_90:\n      pop\n      tag_91\n      0x04\n      dup1\n      calldatasize\n      sub\n      dup2\n      add\n      swap1\n      tag_92\n      swap2\n      swap1\n      tag_31\n      jump\t// in\n    tag_92:\n      tag_93\n      jump\t// in\n    tag_91:\n      mload(0x40)\n      tag_94\n      swap2\n      swap1\n      tag_34\n      jump\t// in\n    tag_94:\n      mload(0x40)\n      dup1\n      swap2\n      sub\n      swap1\n      return\n        /* \"contracts used for\\xc2\\xa0 RC system/SimpleDAI.sol\":570:616  uint256 public constant COLLATERAL_RATIO = 150 */\n    tag_17:\n      callvalue\n      dup1\n      iszero\n      tag_95\n      jumpi\n      0x00\n      dup1\n      revert\n    tag_95:\n      pop\n      tag_96\n      tag_97\n      jump\t// in\n    tag_96:\n      mload(0x40)\n      tag_98\n      swap2\n      swap1\n      tag_49\n      jump\t// in\n    tag_98:\n      mload(0x40)\n      dup1\n      swap2\n      sub\n      swap1\n      return\n        /* \"contracts used for\\xc2\\xa0 RC system/SimpleDAI.sol\":1922:2065  function allowance(address owner, address spender) public view override returns (uint256) {... */\n    tag_18:\n      callvalue\n      dup1\n      iszero\n      tag_99\n      jumpi\n      0x00\n      dup1\n      revert\n    tag_99:\n      pop\n      tag_100\n      0x04\n      dup1\n      calldatasize\n      sub\n      dup2\n      add\n      swap1\n      tag_101\n      swap2\n      swap1\n      tag_102\n      jump\t// in\n    tag_101:\n      tag_103\n      jump\t// in\n    tag_100:\n      mload(0x40)\n      tag_104\n      swap2\n      swap1\n      tag_49\n      jump\t// in\n    tag_104:\n      mload(0x40)\n      dup1\n      swap2\n      sub\n      swap1\n      return\n        /* \"@openzeppelin/contracts/access/Ownable.sol\":2081:2279  function transferOwnership(address newOwner) public virtual onlyOwner {... */\n    tag_19:\n      callvalue\n      dup1\n      iszero\n      tag_105\n      jumpi\n      0x00\n      dup1\n      revert\n    tag_105:\n      pop\n      tag_106\n      0x04\n      dup1\n      calldatasize\n      sub\n      dup2\n      add\n      swap1\n      tag_107\n      swap2\n      swap1\n      tag_38\n      jump\t// in\n    tag_107:\n      tag_108\n      jump\t// in\n    tag_106:\n      stop\n        /* \"contracts used for\\xc2\\xa0 RC system/SimpleDAI.sol\":218:259  string public constant name = \"SimpleDAI\" */\n    tag_25:\n      mload(0x40)\n      dup1\n      0x40\n      add\n      0x40\n      mstore\n      dup1\n      0x09\n      dup2\n      mstore\n      0x20\n      add\n      0x53696d706c654441490000000000000000000000000000000000000000000000\n      dup2\n      mstore\n      pop\n      dup2\n      jump\t// out\n        /* \"contracts used for\\xc2\\xa0 RC system/SimpleDAI.sol\":2073:2232  function approve(address spender, uint256 amount) public override returns (bool) {... */\n    tag_32:\n        /* \"contracts used for\\xc2\\xa0 RC system/SimpleDAI.sol\":2148:2152  bool */\n      0x00\n        /* \"contracts used for\\xc2\\xa0 RC system/SimpleDAI.sol\":2165:2202  _approve(msg.sender, spender, amount) */\n      tag_110\n        /* \"contracts used for\\xc2\\xa0 RC system/SimpleDAI.sol\":2174:2184  msg.sender */\n      caller\n        /* \"contracts used for\\xc2\\xa0 RC system/SimpleDAI.sol\":2186:2193  spender */\n      dup5\n        /* \"contracts used for\\xc2\\xa0 RC system/SimpleDAI.sol\":2195:2201  amount */\n      dup5\n        /* \"contracts used for\\xc2\\xa0 RC system/SimpleDAI.sol\":2165:2173  _approve */\n      tag_111\n        /* \"contracts used for\\xc2\\xa0 RC system/SimpleDAI.sol\":2165:2202  _approve(msg.sender, spender, amount) */\n      jump\t// in\n    tag_110:\n        /* \"contracts used for\\xc2\\xa0 RC system/SimpleDAI.sol\":2220:2224  true */\n      0x01\n        /* \"contracts used for\\xc2\\xa0 RC system/SimpleDAI.sol\":2213:2224  return true */\n      swap1\n      pop\n        /* \"contracts used for\\xc2\\xa0 RC system/SimpleDAI.sol\":2073:2232  function approve(address spender, uint256 amount) public override returns (bool) {... */\n      swap3\n      swap2\n      pop\n      pop\n      jump\t// out\n        /* \"contracts used for\\xc2\\xa0 RC system/SimpleDAI.sol\":4115:4338  function setPreBurnPreMintContract(address _preBurnPreMint) external onlyOwner {... */\n    tag_39:\n        /* \"@openzeppelin/contracts/access/Ownable.sol\":1094:1107  _checkOwner() */\n      tag_113\n        /* \"@openzeppelin/contracts/access/Ownable.sol\":1094:1105  _checkOwner */\n      tag_114\n        /* \"@openzeppelin/contracts/access/Ownable.sol\":1094:1107  _checkOwner() */\n      jump\t// in\n    tag_113:\n        /* \"contracts used for\\xc2\\xa0 RC system/SimpleDAI.sol\":4240:4241  0 */\n      0x00\n        /* \"contracts used for\\xc2\\xa0 RC system/SimpleDAI.sol\":4213:4242  _preBurnPreMint != address(0) */\n      0xffffffffffffffffffffffffffffffffffffffff\n      and\n        /* \"contracts used for\\xc2\\xa0 RC system/SimpleDAI.sol\":4213:4228  _preBurnPreMint */\n      dup2\n        /* \"contracts used for\\xc2\\xa0 RC system/SimpleDAI.sol\":4213:4242  _preBurnPreMint != address(0) */\n      0xffffffffffffffffffffffffffffffffffffffff\n      and\n      eq\n      iszero\n        /* \"contracts used for\\xc2\\xa0 RC system/SimpleDAI.sol\":4205:4262  require(_preBurnPreMint != address(0), \"Invalid address\") */\n      tag_116\n      jumpi\n      mload(0x40)\n      0x08c379a000000000000000000000000000000000000000000000000000000000\n      dup2\n      mstore\n      0x04\n      add\n      tag_117\n      swap1\n      tag_118\n      jump\t// in\n    tag_117:\n      mload(0x40)\n      dup1\n      swap2\n      sub\n      swap1\n      revert\n    tag_116:\n        /* \"contracts used for\\xc2\\xa0 RC system/SimpleDAI.sol\":4314:4329  _preBurnPreMint */\n      dup1\n        /* \"contracts used for\\xc2\\xa0 RC system/SimpleDAI.sol\":4273:4295  preBurnPreMintContract */\n      0x01\n      0x00\n        /* \"contracts used for\\xc2\\xa0 RC system/SimpleDAI.sol\":4273:4330  preBurnPreMintContract = IPreBurnPreMint(_preBurnPreMint) */\n      0x0100\n      exp\n      dup2\n      sload\n      dup2\n      0xffffffffffffffffffffffffffffffffffffffff\n      mul\n      not\n      and\n      swap1\n      dup4\n      0xffffffffffffffffffffffffffffffffffffffff\n      and\n      mul\n      or\n      swap1\n      sstore\n      pop\n        /* \"contracts used for\\xc2\\xa0 RC system/SimpleDAI.sol\":4115:4338  function setPreBurnPreMintContract(address _preBurnPreMint) external onlyOwner {... */\n      pop\n      jump\t// out\n        /* \"contracts used for\\xc2\\xa0 RC system/SimpleDAI.sol\":353:398  IPreBurnPreMint public preBurnPreMintContract */\n    tag_42:\n      0x01\n      0x00\n      swap1\n      sload\n      swap1\n      0x0100\n      exp\n      swap1\n      div\n      0xffffffffffffffffffffffffffffffffffffffff\n      and\n      dup2\n      jump\t// out\n        /* \"contracts used for\\xc2\\xa0 RC system/SimpleDAI.sol\":1514:1614  function totalSupply() public view override returns (uint256) {... */\n    tag_47:\n        /* \"contracts used for\\xc2\\xa0 RC system/SimpleDAI.sol\":1567:1574  uint256 */\n      0x00\n        /* \"contracts used for\\xc2\\xa0 RC system/SimpleDAI.sol\":1594:1606  _totalSupply */\n      sload(0x04)\n        /* \"contracts used for\\xc2\\xa0 RC system/SimpleDAI.sol\":1587:1606  return _totalSupply */\n      swap1\n      pop\n        /* \"contracts used for\\xc2\\xa0 RC system/SimpleDAI.sol\":1514:1614  function totalSupply() public view override returns (uint256) {... */\n      swap1\n      jump\t// out\n        /* \"contracts used for\\xc2\\xa0 RC system/SimpleDAI.sol\":2240:2502  function transferFrom(address sender, address recipient, uint256 amount) public override returns (bool) {... */\n    tag_54:\n        /* \"contracts used for\\xc2\\xa0 RC system/SimpleDAI.sol\":2338:2342  bool */\n      0x00\n        /* \"contracts used for\\xc2\\xa0 RC system/SimpleDAI.sol\":2355:2391  _transfer(sender, recipient, amount) */\n      tag_121\n        /* \"contracts used for\\xc2\\xa0 RC system/SimpleDAI.sol\":2365:2371  sender */\n      dup5\n        /* \"contracts used for\\xc2\\xa0 RC system/SimpleDAI.sol\":2373:2382  recipient */\n      dup5\n        /* \"contracts used for\\xc2\\xa0 RC system/SimpleDAI.sol\":2384:2390  amount */\n      dup5\n        /* \"contracts used for\\xc2\\xa0 RC system/SimpleDAI.sol\":2355:2364  _transfer */\n      tag_122\n        /* \"contracts used for\\xc2\\xa0 RC system/SimpleDAI.sol\":2355:2391  _transfer(sender, recipient, amount) */\n      jump\t// in\n    tag_121:\n        /* \"contracts used for\\xc2\\xa0 RC system/SimpleDAI.sol\":2402:2472  _approve(sender, msg.sender, _allowances[sender][msg.sender] - amount) */\n      tag_123\n        /* \"contracts used for\\xc2\\xa0 RC system/SimpleDAI.sol\":2411:2417  sender */\n      dup5\n        /* \"contracts used for\\xc2\\xa0 RC system/SimpleDAI.sol\":2419:2429  msg.sender */\n      caller\n        /* \"contracts used for\\xc2\\xa0 RC system/SimpleDAI.sol\":2465:2471  amount */\n      dup5\n        /* \"contracts used for\\xc2\\xa0 RC system/SimpleDAI.sol\":2431:2442  _allowances */\n      0x03\n        /* \"contracts used for\\xc2\\xa0 RC system/SimpleDAI.sol\":2431:2450  _allowances[sender] */\n      0x00\n        /* \"contracts used for\\xc2\\xa0 RC system/SimpleDAI.sol\":2443:2449  sender */\n      dup10\n        /* \"contracts used for\\xc2\\xa0 RC system/SimpleDAI.sol\":2431:2450  _allowances[sender] */\n      0xffffffffffffffffffffffffffffffffffffffff\n      and\n      0xffffffffffffffffffffffffffffffffffffffff\n      and\n      dup2\n      mstore\n      0x20\n      add\n      swap1\n      dup2\n      mstore\n      0x20\n      add\n      0x00\n      keccak256\n        /* \"contracts used for\\xc2\\xa0 RC system/SimpleDAI.sol\":2431:2462  _allowances[sender][msg.sender] */\n      0x00\n        /* \"contracts used for\\xc2\\xa0 RC system/SimpleDAI.sol\":2451:2461  msg.sender */\n      caller\n        /* \"contracts used for\\xc2\\xa0 RC system/SimpleDAI.sol\":2431:2462  _allowances[sender][msg.sender] */\n      0xffffffffffffffffffffffffffffffffffffffff\n      and\n      0xffffffffffffffffffffffffffffffffffffffff\n      and\n      dup2\n      mstore\n      0x20\n      add\n      swap1\n      dup2\n      mstore\n      0x20\n      add\n      0x00\n      keccak256\n      sload\n        /* \"contracts used for\\xc2\\xa0 RC system/SimpleDAI.sol\":2431:2471  _allowances[sender][msg.sender] - amount */\n      tag_124\n      swap2\n      swap1\n      tag_125\n      jump\t// in\n    tag_124:\n        /* \"contracts used for\\xc2\\xa0 RC system/SimpleDAI.sol\":2402:2410  _approve */\n      tag_111\n        /* \"contracts used for\\xc2\\xa0 RC system/SimpleDAI.sol\":2402:2472  _approve(sender, msg.sender, _allowances[sender][msg.sender] - amount) */\n      jump\t// in\n    tag_123:\n        /* \"contracts used for\\xc2\\xa0 RC system/SimpleDAI.sol\":2490:2494  true */\n      0x01\n        /* \"contracts used for\\xc2\\xa0 RC system/SimpleDAI.sol\":2483:2494  return true */\n      swap1\n      pop\n        /* \"contracts used for\\xc2\\xa0 RC system/SimpleDAI.sol\":2240:2502  function transferFrom(address sender, address recipient, uint256 amount) public override returns (bool) {... */\n      swap4\n      swap3\n      pop\n      pop\n      pop\n      jump\t// out\n        /* \"contracts used for\\xc2\\xa0 RC system/SimpleDAI.sol\":311:346  uint8 public constant decimals = 18 */\n    tag_58:\n        /* \"contracts used for\\xc2\\xa0 RC system/SimpleDAI.sol\":344:346  18 */\n      0x12\n        /* \"contracts used for\\xc2\\xa0 RC system/SimpleDAI.sol\":311:346  uint8 public constant decimals = 18 */\n      dup2\n      jump\t// out\n        /* \"contracts used for\\xc2\\xa0 RC system/SimpleDAI.sol\":3807:4036  function mintWithoutCollateral(address to, uint256 amount) external {... */\n    tag_64:\n        /* \"contracts used for\\xc2\\xa0 RC system/SimpleDAI.sol\":3916:3938  preBurnPreMintContract */\n      0x01\n      0x00\n      swap1\n      sload\n      swap1\n      0x0100\n      exp\n      swap1\n      div\n      0xffffffffffffffffffffffffffffffffffffffff\n      and\n        /* \"contracts used for\\xc2\\xa0 RC system/SimpleDAI.sol\":3894:3939  msg.sender == address(preBurnPreMintContract) */\n      0xffffffffffffffffffffffffffffffffffffffff\n      and\n        /* \"contracts used for\\xc2\\xa0 RC system/SimpleDAI.sol\":3894:3904  msg.sender */\n      caller\n        /* \"contracts used for\\xc2\\xa0 RC system/SimpleDAI.sol\":3894:3939  msg.sender == address(preBurnPreMintContract) */\n      0xffffffffffffffffffffffffffffffffffffffff\n      and\n      eq\n        /* \"contracts used for\\xc2\\xa0 RC system/SimpleDAI.sol\":3886:4000  require(msg.sender == address(preBurnPreMintContract), \"Only PreBurnPreMint contract can mint without collateral\") */\n      tag_127\n      jumpi\n      mload(0x40)\n      0x08c379a000000000000000000000000000000000000000000000000000000000\n      dup2\n      mstore\n      0x04\n      add\n      tag_128\n      swap1\n      tag_129\n      jump\t// in\n    tag_128:\n      mload(0x40)\n      dup1\n      swap2\n      sub\n      swap1\n      revert\n    tag_127:\n        /* \"contracts used for\\xc2\\xa0 RC system/SimpleDAI.sol\":4011:4028  _mint(to, amount) */\n      tag_130\n        /* \"contracts used for\\xc2\\xa0 RC system/SimpleDAI.sol\":4017:4019  to */\n      dup3\n        /* \"contracts used for\\xc2\\xa0 RC system/SimpleDAI.sol\":4021:4027  amount */\n      dup3\n        /* \"contracts used for\\xc2\\xa0 RC system/SimpleDAI.sol\":4011:4016  _mint */\n      tag_131\n        /* \"contracts used for\\xc2\\xa0 RC system/SimpleDAI.sol\":4011:4028  _mint(to, amount) */\n      jump\t// in\n    tag_130:\n        /* \"contracts used for\\xc2\\xa0 RC system/SimpleDAI.sol\":3807:4036  function mintWithoutCollateral(address to, uint256 amount) external {... */\n      pop\n      pop\n      jump\t// out\n        /* \"contracts used for\\xc2\\xa0 RC system/SimpleDAI.sol\":1622:1741  function balanceOf(address account) public view override returns (uint256) {... */\n    tag_68:\n        /* \"contracts used for\\xc2\\xa0 RC system/SimpleDAI.sol\":1688:1695  uint256 */\n      0x00\n        /* \"contracts used for\\xc2\\xa0 RC system/SimpleDAI.sol\":1715:1724  _balances */\n      0x02\n        /* \"contracts used for\\xc2\\xa0 RC system/SimpleDAI.sol\":1715:1733  _balances[account] */\n      0x00\n        /* \"contracts used for\\xc2\\xa0 RC system/SimpleDAI.sol\":1725:1732  account */\n      dup4\n        /* \"contracts used for\\xc2\\xa0 RC system/SimpleDAI.sol\":1715:1733  _balances[account] */\n      0xffffffffffffffffffffffffffffffffffffffff\n      and\n      0xffffffffffffffffffffffffffffffffffffffff\n      and\n      dup2\n      mstore\n      0x20\n      add\n      swap1\n      dup2\n      mstore\n      0x20\n      add\n      0x00\n      keccak256\n      sload\n        /* \"contracts used for\\xc2\\xa0 RC system/SimpleDAI.sol\":1708:1733  return _balances[account] */\n      swap1\n      pop\n        /* \"contracts used for\\xc2\\xa0 RC system/SimpleDAI.sol\":1622:1741  function balanceOf(address account) public view override returns (uint256) {... */\n      swap2\n      swap1\n      pop\n      jump\t// out\n        /* \"@openzeppelin/contracts/access/Ownable.sol\":1831:1932  function renounceOwnership() public virtual onlyOwner {... */\n    tag_72:\n        /* \"@openzeppelin/contracts/access/Ownable.sol\":1094:1107  _checkOwner() */\n      tag_134\n        /* \"@openzeppelin/contracts/access/Ownable.sol\":1094:1105  _checkOwner */\n      tag_114\n        /* \"@openzeppelin/contracts/access/Ownable.sol\":1094:1107  _checkOwner() */\n      jump\t// in\n    tag_134:\n        /* \"@openzeppelin/contracts/access/Ownable.sol\":1895:1925  _transferOwnership(address(0)) */\n      tag_136\n        /* \"@openzeppelin/contracts/access/Ownable.sol\":1922:1923  0 */\n      0x00\n        /* \"@openzeppelin/contracts/access/Ownable.sol\":1895:1913  _transferOwnership */\n      tag_137\n        /* \"@openzeppelin/contracts/access/Ownable.sol\":1895:1925  _transferOwnership(address(0)) */\n      jump\t// in\n    tag_136:\n        /* \"@openzeppelin/contracts/access/Ownable.sol\":1831:1932  function renounceOwnership() public virtual onlyOwner {... */\n      jump\t// out\n        /* \"@openzeppelin/contracts/access/Ownable.sol\":1201:1286  function owner() public view virtual returns (address) {... */\n    tag_75:\n        /* \"@openzeppelin/contracts/access/Ownable.sol\":1247:1254  address */\n      0x00\n        /* \"@openzeppelin/contracts/access/Ownable.sol\":1273:1279  _owner */\n      dup1\n      0x00\n      swap1\n      sload\n      swap1\n      0x0100\n      exp\n      swap1\n      div\n      0xffffffffffffffffffffffffffffffffffffffff\n      and\n        /* \"@openzeppelin/contracts/access/Ownable.sol\":1266:1279  return _owner */\n      swap1\n      pop\n        /* \"@openzeppelin/contracts/access/Ownable.sol\":1201:1286  function owner() public view virtual returns (address) {... */\n      swap1\n      jump\t// out\n        /* \"contracts used for\\xc2\\xa0 RC system/SimpleDAI.sol\":1141:1506  function burnDAI(uint256 daiAmount) external {... */\n    tag_82:\n        /* \"contracts used for\\xc2\\xa0 RC system/SimpleDAI.sol\":1197:1225  _burn(msg.sender, daiAmount) */\n      tag_140\n        /* \"contracts used for\\xc2\\xa0 RC system/SimpleDAI.sol\":1203:1213  msg.sender */\n      caller\n        /* \"contracts used for\\xc2\\xa0 RC system/SimpleDAI.sol\":1215:1224  daiAmount */\n      dup3\n        /* \"contracts used for\\xc2\\xa0 RC system/SimpleDAI.sol\":1197:1202  _burn */\n      tag_141\n        /* \"contracts used for\\xc2\\xa0 RC system/SimpleDAI.sol\":1197:1225  _burn(msg.sender, daiAmount) */\n      jump\t// in\n    tag_140:\n        /* \"contracts used for\\xc2\\xa0 RC system/SimpleDAI.sol\":1238:1264  uint256 collateralToReturn */\n      0x00\n        /* \"contracts used for\\xc2\\xa0 RC system/SimpleDAI.sol\":1305:1317  _totalSupply */\n      sload(0x04)\n        /* \"contracts used for\\xc2\\xa0 RC system/SimpleDAI.sol\":1280:1301  address(this).balance */\n      selfbalance\n        /* \"contracts used for\\xc2\\xa0 RC system/SimpleDAI.sol\":1268:1277  daiAmount */\n      dup4\n        /* \"contracts used for\\xc2\\xa0 RC system/SimpleDAI.sol\":1268:1301  daiAmount * address(this).balance */\n      tag_142\n      swap2\n      swap1\n      tag_143\n      jump\t// in\n    tag_142:\n        /* \"contracts used for\\xc2\\xa0 RC system/SimpleDAI.sol\":1267:1317  (daiAmount * address(this).balance) / _totalSupply */\n      tag_144\n      swap2\n      swap1\n      tag_145\n      jump\t// in\n    tag_144:\n        /* \"contracts used for\\xc2\\xa0 RC system/SimpleDAI.sol\":1238:1317  uint256 collateralToReturn = (daiAmount * address(this).balance) / _totalSupply */\n      swap1\n      pop\n        /* \"contracts used for\\xc2\\xa0 RC system/SimpleDAI.sol\":1329:1341  bool success */\n      0x00\n        /* \"contracts used for\\xc2\\xa0 RC system/SimpleDAI.sol\":1347:1357  msg.sender */\n      caller\n        /* \"contracts used for\\xc2\\xa0 RC system/SimpleDAI.sol\":1347:1362  msg.sender.call */\n      0xffffffffffffffffffffffffffffffffffffffff\n      and\n        /* \"contracts used for\\xc2\\xa0 RC system/SimpleDAI.sol\":1370:1388  collateralToReturn */\n      dup3\n        /* \"contracts used for\\xc2\\xa0 RC system/SimpleDAI.sol\":1347:1393  msg.sender.call{value: collateralToReturn}(\"\") */\n      mload(0x40)\n      tag_146\n      swap1\n      tag_147\n      jump\t// in\n    tag_146:\n      0x00\n      mload(0x40)\n      dup1\n      dup4\n      sub\n      dup2\n      dup6\n      dup8\n      gas\n      call\n      swap3\n      pop\n      pop\n      pop\n      returndatasize\n      dup1\n      0x00\n      dup2\n      eq\n      tag_150\n      jumpi\n      mload(0x40)\n      swap2\n      pop\n      and(add(returndatasize, 0x3f), not(0x1f))\n      dup3\n      add\n      0x40\n      mstore\n      returndatasize\n      dup3\n      mstore\n      returndatasize\n      0x00\n      0x20\n      dup5\n      add\n      returndatacopy\n      jump(tag_149)\n    tag_150:\n      0x60\n      swap2\n      pop\n    tag_149:\n      pop\n        /* \"contracts used for\\xc2\\xa0 RC system/SimpleDAI.sol\":1328:1393  (bool success, ) = msg.sender.call{value: collateralToReturn}(\"\") */\n      pop\n      swap1\n      pop\n        /* \"contracts used for\\xc2\\xa0 RC system/SimpleDAI.sol\":1412:1419  success */\n      dup1\n        /* \"contracts used for\\xc2\\xa0 RC system/SimpleDAI.sol\":1404:1453  require(success, \"Transfer of collateral failed\") */\n      tag_151\n      jumpi\n      mload(0x40)\n      0x08c379a000000000000000000000000000000000000000000000000000000000\n      dup2\n      mstore\n      0x04\n      add\n      tag_152\n      swap1\n      tag_153\n      jump\t// in\n    tag_152:\n      mload(0x40)\n      dup1\n      swap2\n      sub\n      swap1\n      revert\n    tag_151:\n        /* \"contracts used for\\xc2\\xa0 RC system/SimpleDAI.sol\":1476:1486  msg.sender */\n      caller\n        /* \"contracts used for\\xc2\\xa0 RC system/SimpleDAI.sol\":1471:1498  Burn(msg.sender, daiAmount) */\n      0xffffffffffffffffffffffffffffffffffffffff\n      and\n      0xcc16f5dbb4873280815c1ee09dbd06736cffcc184412cf7a71a0fdb75d397ca5\n        /* \"contracts used for\\xc2\\xa0 RC system/SimpleDAI.sol\":1488:1497  daiAmount */\n      dup5\n        /* \"contracts used for\\xc2\\xa0 RC system/SimpleDAI.sol\":1471:1498  Burn(msg.sender, daiAmount) */\n      mload(0x40)\n      tag_154\n      swap2\n      swap1\n      tag_49\n      jump\t// in\n    tag_154:\n      mload(0x40)\n      dup1\n      swap2\n      sub\n      swap1\n      log2\n        /* \"contracts used for\\xc2\\xa0 RC system/SimpleDAI.sol\":1186:1506  {... */\n      pop\n      pop\n        /* \"contracts used for\\xc2\\xa0 RC system/SimpleDAI.sol\":1141:1506  function burnDAI(uint256 daiAmount) external {... */\n      pop\n      jump\t// out\n        /* \"contracts used for\\xc2\\xa0 RC system/SimpleDAI.sol\":768:1133  function mintDAI(uint256 daiAmount) external payable {... */\n    tag_85:\n        /* \"contracts used for\\xc2\\xa0 RC system/SimpleDAI.sol\":852:853  0 */\n      0x00\n        /* \"contracts used for\\xc2\\xa0 RC system/SimpleDAI.sol\":840:849  msg.value */\n      callvalue\n        /* \"contracts used for\\xc2\\xa0 RC system/SimpleDAI.sol\":840:853  msg.value > 0 */\n      gt\n        /* \"contracts used for\\xc2\\xa0 RC system/SimpleDAI.sol\":832:887  require(msg.value > 0, \"Must provide collateral (ETH)\") */\n      tag_156\n      jumpi\n      mload(0x40)\n      0x08c379a000000000000000000000000000000000000000000000000000000000\n      dup2\n      mstore\n      0x04\n      add\n      tag_157\n      swap1\n      tag_158\n      jump\t// in\n    tag_157:\n      mload(0x40)\n      dup1\n      swap2\n      sub\n      swap1\n      revert\n    tag_156:\n        /* \"contracts used for\\xc2\\xa0 RC system/SimpleDAI.sol\":898:924  uint256 collateralRequired */\n      0x00\n        /* \"contracts used for\\xc2\\xa0 RC system/SimpleDAI.sol\":960:963  100 */\n      0x64\n        /* \"contracts used for\\xc2\\xa0 RC system/SimpleDAI.sol\":613:616  150 */\n      0x96\n        /* \"contracts used for\\xc2\\xa0 RC system/SimpleDAI.sol\":928:937  daiAmount */\n      dup4\n        /* \"contracts used for\\xc2\\xa0 RC system/SimpleDAI.sol\":928:956  daiAmount * COLLATERAL_RATIO */\n      tag_159\n      swap2\n      swap1\n      tag_143\n      jump\t// in\n    tag_159:\n        /* \"contracts used for\\xc2\\xa0 RC system/SimpleDAI.sol\":927:963  (daiAmount * COLLATERAL_RATIO) / 100 */\n      tag_160\n      swap2\n      swap1\n      tag_145\n      jump\t// in\n    tag_160:\n        /* \"contracts used for\\xc2\\xa0 RC system/SimpleDAI.sol\":898:963  uint256 collateralRequired = (daiAmount * COLLATERAL_RATIO) / 100 */\n      swap1\n      pop\n        /* \"contracts used for\\xc2\\xa0 RC system/SimpleDAI.sol\":995:1013  collateralRequired */\n      dup1\n        /* \"contracts used for\\xc2\\xa0 RC system/SimpleDAI.sol\":982:991  msg.value */\n      callvalue\n        /* \"contracts used for\\xc2\\xa0 RC system/SimpleDAI.sol\":982:1013  msg.value >= collateralRequired */\n      lt\n      iszero\n        /* \"contracts used for\\xc2\\xa0 RC system/SimpleDAI.sol\":974:1041  require(msg.value >= collateralRequired, \"Insufficient collateral\") */\n      tag_161\n      jumpi\n      mload(0x40)\n      0x08c379a000000000000000000000000000000000000000000000000000000000\n      dup2\n      mstore\n      0x04\n      add\n      tag_162\n      swap1\n      tag_163\n      jump\t// in\n    tag_162:\n      mload(0x40)\n      dup1\n      swap2\n      sub\n      swap1\n      revert\n    tag_161:\n        /* \"contracts used for\\xc2\\xa0 RC system/SimpleDAI.sol\":1054:1082  _mint(msg.sender, daiAmount) */\n      tag_164\n        /* \"contracts used for\\xc2\\xa0 RC system/SimpleDAI.sol\":1060:1070  msg.sender */\n      caller\n        /* \"contracts used for\\xc2\\xa0 RC system/SimpleDAI.sol\":1072:1081  daiAmount */\n      dup4\n        /* \"contracts used for\\xc2\\xa0 RC system/SimpleDAI.sol\":1054:1059  _mint */\n      tag_131\n        /* \"contracts used for\\xc2\\xa0 RC system/SimpleDAI.sol\":1054:1082  _mint(msg.sender, daiAmount) */\n      jump\t// in\n    tag_164:\n        /* \"contracts used for\\xc2\\xa0 RC system/SimpleDAI.sol\":1103:1113  msg.sender */\n      caller\n        /* \"contracts used for\\xc2\\xa0 RC system/SimpleDAI.sol\":1098:1125  Mint(msg.sender, daiAmount) */\n      0xffffffffffffffffffffffffffffffffffffffff\n      and\n      0x0f6798a560793a54c3bcfe86a93cde1e73087d944c0ea20544137d4121396885\n        /* \"contracts used for\\xc2\\xa0 RC system/SimpleDAI.sol\":1115:1124  daiAmount */\n      dup4\n        /* \"contracts used for\\xc2\\xa0 RC system/SimpleDAI.sol\":1098:1125  Mint(msg.sender, daiAmount) */\n      mload(0x40)\n      tag_165\n      swap2\n      swap1\n      tag_49\n      jump\t// in\n    tag_165:\n      mload(0x40)\n      dup1\n      swap2\n      sub\n      swap1\n      log2\n        /* \"contracts used for\\xc2\\xa0 RC system/SimpleDAI.sol\":821:1133  {... */\n      pop\n        /* \"contracts used for\\xc2\\xa0 RC system/SimpleDAI.sol\":768:1133  function mintDAI(uint256 daiAmount) external payable {... */\n      pop\n      jump\t// out\n        /* \"contracts used for\\xc2\\xa0 RC system/SimpleDAI.sol\":266:304  string public constant symbol = \"sDAI\" */\n    tag_88:\n      mload(0x40)\n      dup1\n      0x40\n      add\n      0x40\n      mstore\n      dup1\n      0x04\n      dup2\n      mstore\n      0x20\n      add\n      0x7344414900000000000000000000000000000000000000000000000000000000\n      dup2\n      mstore\n      pop\n      dup2\n      jump\t// out\n        /* \"contracts used for\\xc2\\xa0 RC system/SimpleDAI.sol\":1749:1914  function transfer(address recipient, uint256 amount) public override returns (bool) {... */\n    tag_93:\n        /* \"contracts used for\\xc2\\xa0 RC system/SimpleDAI.sol\":1827:1831  bool */\n      0x00\n        /* \"contracts used for\\xc2\\xa0 RC system/SimpleDAI.sol\":1844:1884  _transfer(msg.sender, recipient, amount) */\n      tag_167\n        /* \"contracts used for\\xc2\\xa0 RC system/SimpleDAI.sol\":1854:1864  msg.sender */\n      caller\n        /* \"contracts used for\\xc2\\xa0 RC system/SimpleDAI.sol\":1866:1875  recipient */\n      dup5\n        /* \"contracts used for\\xc2\\xa0 RC system/SimpleDAI.sol\":1877:1883  amount */\n      dup5\n        /* \"contracts used for\\xc2\\xa0 RC system/SimpleDAI.sol\":1844:1853  _transfer */\n      tag_122\n        /* \"contracts used for\\xc2\\xa0 RC system/SimpleDAI.sol\":1844:1884  _transfer(msg.sender, recipient, amount) */\n      jump\t// in\n    tag_167:\n        /* \"contracts used for\\xc2\\xa0 RC system/SimpleDAI.sol\":1902:1906  true */\n      0x01\n        /* \"contracts used for\\xc2\\xa0 RC system/SimpleDAI.sol\":1895:1906  return true */\n      swap1\n      pop\n        /* \"contracts used for\\xc2\\xa0 RC system/SimpleDAI.sol\":1749:1914  function transfer(address recipient, uint256 amount) public override returns (bool) {... */\n      swap3\n      swap2\n      pop\n      pop\n      jump\t// out\n        /* \"contracts used for\\xc2\\xa0 RC system/SimpleDAI.sol\":570:616  uint256 public constant COLLATERAL_RATIO = 150 */\n    tag_97:\n        /* \"contracts used for\\xc2\\xa0 RC system/SimpleDAI.sol\":613:616  150 */\n      0x96\n        /* \"contracts used for\\xc2\\xa0 RC system/SimpleDAI.sol\":570:616  uint256 public constant COLLATERAL_RATIO = 150 */\n      dup2\n      jump\t// out\n        /* \"contracts used for\\xc2\\xa0 RC system/SimpleDAI.sol\":1922:2065  function allowance(address owner, address spender) public view override returns (uint256) {... */\n    tag_103:\n        /* \"contracts used for\\xc2\\xa0 RC system/SimpleDAI.sol\":2003:2010  uint256 */\n      0x00\n        /* \"contracts used for\\xc2\\xa0 RC system/SimpleDAI.sol\":2030:2041  _allowances */\n      0x03\n        /* \"contracts used for\\xc2\\xa0 RC system/SimpleDAI.sol\":2030:2048  _allowances[owner] */\n      0x00\n        /* \"contracts used for\\xc2\\xa0 RC system/SimpleDAI.sol\":2042:2047  owner */\n      dup5\n        /* \"contracts used for\\xc2\\xa0 RC system/SimpleDAI.sol\":2030:2048  _allowances[owner] */\n      0xffffffffffffffffffffffffffffffffffffffff\n      and\n      0xffffffffffffffffffffffffffffffffffffffff\n      and\n      dup2\n      mstore\n      0x20\n      add\n      swap1\n      dup2\n      mstore\n      0x20\n      add\n      0x00\n      keccak256\n        /* \"contracts used for\\xc2\\xa0 RC system/SimpleDAI.sol\":2030:2057  _allowances[owner][spender] */\n      0x00\n        /* \"contracts used for\\xc2\\xa0 RC system/SimpleDAI.sol\":2049:2056  spender */\n      dup4\n        /* \"contracts used for\\xc2\\xa0 RC system/SimpleDAI.sol\":2030:2057  _allowances[owner][spender] */\n      0xffffffffffffffffffffffffffffffffffffffff\n      and\n      0xffffffffffffffffffffffffffffffffffffffff\n      and\n      dup2\n      mstore\n      0x20\n      add\n      swap1\n      dup2\n      mstore\n      0x20\n      add\n      0x00\n      keccak256\n      sload\n        /* \"contracts used for\\xc2\\xa0 RC system/SimpleDAI.sol\":2023:2057  return _allowances[owner][spender] */\n      swap1\n      pop\n        /* \"contracts used for\\xc2\\xa0 RC system/SimpleDAI.sol\":1922:2065  function allowance(address owner, address spender) public view override returns (uint256) {... */\n      swap3\n      swap2\n      pop\n      pop\n      jump\t// out\n        /* \"@openzeppelin/contracts/access/Ownable.sol\":2081:2279  function transferOwnership(address newOwner) public virtual onlyOwner {... */\n    tag_108:\n        /* \"@openzeppelin/contracts/access/Ownable.sol\":1094:1107  _checkOwner() */\n      tag_170\n        /* \"@openzeppelin/contracts/access/Ownable.sol\":1094:1105  _checkOwner */\n      tag_114\n        /* \"@openzeppelin/contracts/access/Ownable.sol\":1094:1107  _checkOwner() */\n      jump\t// in\n    tag_170:\n        /* \"@openzeppelin/contracts/access/Ownable.sol\":2189:2190  0 */\n      0x00\n        /* \"@openzeppelin/contracts/access/Ownable.sol\":2169:2191  newOwner != address(0) */\n      0xffffffffffffffffffffffffffffffffffffffff\n      and\n        /* \"@openzeppelin/contracts/access/Ownable.sol\":2169:2177  newOwner */\n      dup2\n        /* \"@openzeppelin/contracts/access/Ownable.sol\":2169:2191  newOwner != address(0) */\n      0xffffffffffffffffffffffffffffffffffffffff\n      and\n      eq\n      iszero\n        /* \"@openzeppelin/contracts/access/Ownable.sol\":2161:2234  require(newOwner != address(0), \"Ownable: new owner is the zero address\") */\n      tag_172\n      jumpi\n      mload(0x40)\n      0x08c379a000000000000000000000000000000000000000000000000000000000\n      dup2\n      mstore\n      0x04\n      add\n      tag_173\n      swap1\n      tag_174\n      jump\t// in\n    tag_173:\n      mload(0x40)\n      dup1\n      swap2\n      sub\n      swap1\n      revert\n    tag_172:\n        /* \"@openzeppelin/contracts/access/Ownable.sol\":2244:2272  _transferOwnership(newOwner) */\n      tag_175\n        /* \"@openzeppelin/contracts/access/Ownable.sol\":2263:2271  newOwner */\n      dup2\n        /* \"@openzeppelin/contracts/access/Ownable.sol\":2244:2262  _transferOwnership */\n      tag_137\n        /* \"@openzeppelin/contracts/access/Ownable.sol\":2244:2272  _transferOwnership(newOwner) */\n      jump\t// in\n    tag_175:\n        /* \"@openzeppelin/contracts/access/Ownable.sol\":2081:2279  function transferOwnership(address newOwner) public virtual onlyOwner {... */\n      pop\n      jump\t// out\n        /* \"contracts used for\\xc2\\xa0 RC system/SimpleDAI.sol\":3461:3801  function _approve(address owner, address spender, uint256 amount) internal {... */\n    tag_111:\n        /* \"contracts used for\\xc2\\xa0 RC system/SimpleDAI.sol\":3572:3573  0 */\n      0x00\n        /* \"contracts used for\\xc2\\xa0 RC system/SimpleDAI.sol\":3555:3574  owner != address(0) */\n      0xffffffffffffffffffffffffffffffffffffffff\n      and\n        /* \"contracts used for\\xc2\\xa0 RC system/SimpleDAI.sol\":3555:3560  owner */\n      dup4\n        /* \"contracts used for\\xc2\\xa0 RC system/SimpleDAI.sol\":3555:3574  owner != address(0) */\n      0xffffffffffffffffffffffffffffffffffffffff\n      and\n      eq\n      iszero\n        /* \"contracts used for\\xc2\\xa0 RC system/SimpleDAI.sol\":3547:3615  require(owner != address(0), \"ERC20: approve from the zero address\") */\n      tag_177\n      jumpi\n      mload(0x40)\n      0x08c379a000000000000000000000000000000000000000000000000000000000\n      dup2\n      mstore\n      0x04\n      add\n      tag_178\n      swap1\n      tag_179\n      jump\t// in\n    tag_178:\n      mload(0x40)\n      dup1\n      swap2\n      sub\n      swap1\n      revert\n    tag_177:\n        /* \"contracts used for\\xc2\\xa0 RC system/SimpleDAI.sol\":3653:3654  0 */\n      0x00\n        /* \"contracts used for\\xc2\\xa0 RC system/SimpleDAI.sol\":3634:3655  spender != address(0) */\n      0xffffffffffffffffffffffffffffffffffffffff\n      and\n        /* \"contracts used for\\xc2\\xa0 RC system/SimpleDAI.sol\":3634:3641  spender */\n      dup3\n        /* \"contracts used for\\xc2\\xa0 RC system/SimpleDAI.sol\":3634:3655  spender != address(0) */\n      0xffffffffffffffffffffffffffffffffffffffff\n      and\n      eq\n      iszero\n        /* \"contracts used for\\xc2\\xa0 RC system/SimpleDAI.sol\":3626:3694  require(spender != address(0), \"ERC20: approve to the zero address\") */\n      tag_180\n      jumpi\n      mload(0x40)\n      0x08c379a000000000000000000000000000000000000000000000000000000000\n      dup2\n      mstore\n      0x04\n      add\n      tag_181\n      swap1\n      tag_182\n      jump\t// in\n    tag_181:\n      mload(0x40)\n      dup1\n      swap2\n      sub\n      swap1\n      revert\n    tag_180:\n        /* \"contracts used for\\xc2\\xa0 RC system/SimpleDAI.sol\":3737:3743  amount */\n      dup1\n        /* \"contracts used for\\xc2\\xa0 RC system/SimpleDAI.sol\":3707:3718  _allowances */\n      0x03\n        /* \"contracts used for\\xc2\\xa0 RC system/SimpleDAI.sol\":3707:3725  _allowances[owner] */\n      0x00\n        /* \"contracts used for\\xc2\\xa0 RC system/SimpleDAI.sol\":3719:3724  owner */\n      dup6\n        /* \"contracts used for\\xc2\\xa0 RC system/SimpleDAI.sol\":3707:3725  _allowances[owner] */\n      0xffffffffffffffffffffffffffffffffffffffff\n      and\n      0xffffffffffffffffffffffffffffffffffffffff\n      and\n      dup2\n      mstore\n      0x20\n      add\n      swap1\n      dup2\n      mstore\n      0x20\n      add\n      0x00\n      keccak256\n        /* \"contracts used for\\xc2\\xa0 RC system/SimpleDAI.sol\":3707:3734  _allowances[owner][spender] */\n      0x00\n        /* \"contracts used for\\xc2\\xa0 RC system/SimpleDAI.sol\":3726:3733  spender */\n      dup5\n        /* \"contracts used for\\xc2\\xa0 RC system/SimpleDAI.sol\":3707:3734  _allowances[owner][spender] */\n      0xffffffffffffffffffffffffffffffffffffffff\n      and\n      0xffffffffffffffffffffffffffffffffffffffff\n      and\n      dup2\n      mstore\n      0x20\n      add\n      swap1\n      dup2\n      mstore\n      0x20\n      add\n      0x00\n      keccak256\n        /* \"contracts used for\\xc2\\xa0 RC system/SimpleDAI.sol\":3707:3743  _allowances[owner][spender] = amount */\n      dup2\n      swap1\n      sstore\n      pop\n        /* \"contracts used for\\xc2\\xa0 RC system/SimpleDAI.sol\":3777:3784  spender */\n      dup2\n        /* \"contracts used for\\xc2\\xa0 RC system/SimpleDAI.sol\":3761:3793  Approval(owner, spender, amount) */\n      0xffffffffffffffffffffffffffffffffffffffff\n      and\n        /* \"contracts used for\\xc2\\xa0 RC system/SimpleDAI.sol\":3770:3775  owner */\n      dup4\n        /* \"contracts used for\\xc2\\xa0 RC system/SimpleDAI.sol\":3761:3793  Approval(owner, spender, amount) */\n      0xffffffffffffffffffffffffffffffffffffffff\n      and\n      0x8c5be1e5ebec7d5bd14f71427d1e84f3dd0314c0f7b2291e5b200ac8c7c3b925\n        /* \"contracts used for\\xc2\\xa0 RC system/SimpleDAI.sol\":3786:3792  amount */\n      dup4\n        /* \"contracts used for\\xc2\\xa0 RC system/SimpleDAI.sol\":3761:3793  Approval(owner, spender, amount) */\n      mload(0x40)\n      tag_183\n      swap2\n      swap1\n      tag_49\n      jump\t// in\n    tag_183:\n      mload(0x40)\n      dup1\n      swap2\n      sub\n      swap1\n      log3\n        /* \"contracts used for\\xc2\\xa0 RC system/SimpleDAI.sol\":3461:3801  function _approve(address owner, address spender, uint256 amount) internal {... */\n      pop\n      pop\n      pop\n      jump\t// out\n        /* \"@openzeppelin/contracts/access/Ownable.sol\":1359:1489  function _checkOwner() internal view virtual {... */\n    tag_114:\n        /* \"@openzeppelin/contracts/access/Ownable.sol\":1433:1445  _msgSender() */\n      tag_185\n        /* \"@openzeppelin/contracts/access/Ownable.sol\":1433:1443  _msgSender */\n      tag_186\n        /* \"@openzeppelin/contracts/access/Ownable.sol\":1433:1445  _msgSender() */\n      jump\t// in\n    tag_185:\n        /* \"@openzeppelin/contracts/access/Ownable.sol\":1422:1445  owner() == _msgSender() */\n      0xffffffffffffffffffffffffffffffffffffffff\n      and\n        /* \"@openzeppelin/contracts/access/Ownable.sol\":1422:1429  owner() */\n      tag_187\n        /* \"@openzeppelin/contracts/access/Ownable.sol\":1422:1427  owner */\n      tag_75\n        /* \"@openzeppelin/contracts/access/Ownable.sol\":1422:1429  owner() */\n      jump\t// in\n    tag_187:\n        /* \"@openzeppelin/contracts/access/Ownable.sol\":1422:1445  owner() == _msgSender() */\n      0xffffffffffffffffffffffffffffffffffffffff\n      and\n      eq\n        /* \"@openzeppelin/contracts/access/Ownable.sol\":1414:1482  require(owner() == _msgSender(), \"Ownable: caller is not the owner\") */\n      tag_188\n      jumpi\n      mload(0x40)\n      0x08c379a000000000000000000000000000000000000000000000000000000000\n      dup2\n      mstore\n      0x04\n      add\n      tag_189\n      swap1\n      tag_190\n      jump\t// in\n    tag_189:\n      mload(0x40)\n      dup1\n      swap2\n      sub\n      swap1\n      revert\n    tag_188:\n        /* \"@openzeppelin/contracts/access/Ownable.sol\":1359:1489  function _checkOwner() internal view virtual {... */\n      jump\t// out\n        /* \"contracts used for\\xc2\\xa0 RC system/SimpleDAI.sol\":2510:2894  function _transfer(address sender, address recipient, uint256 amount) internal {... */\n    tag_122:\n        /* \"contracts used for\\xc2\\xa0 RC system/SimpleDAI.sol\":2626:2627  0 */\n      0x00\n        /* \"contracts used for\\xc2\\xa0 RC system/SimpleDAI.sol\":2608:2628  sender != address(0) */\n      0xffffffffffffffffffffffffffffffffffffffff\n      and\n        /* \"contracts used for\\xc2\\xa0 RC system/SimpleDAI.sol\":2608:2614  sender */\n      dup4\n        /* \"contracts used for\\xc2\\xa0 RC system/SimpleDAI.sol\":2608:2628  sender != address(0) */\n      0xffffffffffffffffffffffffffffffffffffffff\n      and\n      eq\n      iszero\n        /* \"contracts used for\\xc2\\xa0 RC system/SimpleDAI.sol\":2600:2670  require(sender != address(0), \"ERC20: transfer from the zero address\") */\n      tag_192\n      jumpi\n      mload(0x40)\n      0x08c379a000000000000000000000000000000000000000000000000000000000\n      dup2\n      mstore\n      0x04\n      add\n      tag_193\n      swap1\n      tag_194\n      jump\t// in\n    tag_193:\n      mload(0x40)\n      dup1\n      swap2\n      sub\n      swap1\n      revert\n    tag_192:\n        /* \"contracts used for\\xc2\\xa0 RC system/SimpleDAI.sol\":2710:2711  0 */\n      0x00\n        /* \"contracts used for\\xc2\\xa0 RC system/SimpleDAI.sol\":2689:2712  recipient != address(0) */\n      0xffffffffffffffffffffffffffffffffffffffff\n      and\n        /* \"contracts used for\\xc2\\xa0 RC system/SimpleDAI.sol\":2689:2698  recipient */\n      dup3\n        /* \"contracts used for\\xc2\\xa0 RC system/SimpleDAI.sol\":2689:2712  recipient != address(0) */\n      0xffffffffffffffffffffffffffffffffffffffff\n      and\n      eq\n      iszero\n        /* \"contracts used for\\xc2\\xa0 RC system/SimpleDAI.sol\":2681:2752  require(recipient != address(0), \"ERC20: transfer to the zero address\") */\n      tag_195\n      jumpi\n      mload(0x40)\n      0x08c379a000000000000000000000000000000000000000000000000000000000\n      dup2\n      mstore\n      0x04\n      add\n      tag_196\n      swap1\n      tag_197\n      jump\t// in\n    tag_196:\n      mload(0x40)\n      dup1\n      swap2\n      sub\n      swap1\n      revert\n    tag_195:\n        /* \"contracts used for\\xc2\\xa0 RC system/SimpleDAI.sol\":2786:2792  amount */\n      dup1\n        /* \"contracts used for\\xc2\\xa0 RC system/SimpleDAI.sol\":2765:2774  _balances */\n      0x02\n        /* \"contracts used for\\xc2\\xa0 RC system/SimpleDAI.sol\":2765:2782  _balances[sender] */\n      0x00\n        /* \"contracts used for\\xc2\\xa0 RC system/SimpleDAI.sol\":2775:2781  sender */\n      dup6\n        /* \"contracts used for\\xc2\\xa0 RC system/SimpleDAI.sol\":2765:2782  _balances[sender] */\n      0xffffffffffffffffffffffffffffffffffffffff\n      and\n      0xffffffffffffffffffffffffffffffffffffffff\n      and\n      dup2\n      mstore\n      0x20\n      add\n      swap1\n      dup2\n      mstore\n      0x20\n      add\n      0x00\n      keccak256\n      0x00\n        /* \"contracts used for\\xc2\\xa0 RC system/SimpleDAI.sol\":2765:2792  _balances[sender] -= amount */\n      dup3\n      dup3\n      sload\n      tag_198\n      swap2\n      swap1\n      tag_125\n      jump\t// in\n    tag_198:\n      swap3\n      pop\n      pop\n      dup2\n      swap1\n      sstore\n      pop\n        /* \"contracts used for\\xc2\\xa0 RC system/SimpleDAI.sol\":2827:2833  amount */\n      dup1\n        /* \"contracts used for\\xc2\\xa0 RC system/SimpleDAI.sol\":2803:2812  _balances */\n      0x02\n        /* \"contracts used for\\xc2\\xa0 RC system/SimpleDAI.sol\":2803:2823  _balances[recipient] */\n      0x00\n        /* \"contracts used for\\xc2\\xa0 RC system/SimpleDAI.sol\":2813:2822  recipient */\n      dup5\n        /* \"contracts used for\\xc2\\xa0 RC system/SimpleDAI.sol\":2803:2823  _balances[recipient] */\n      0xffffffffffffffffffffffffffffffffffffffff\n      and\n      0xffffffffffffffffffffffffffffffffffffffff\n      and\n      dup2\n      mstore\n      0x20\n      add\n      swap1\n      dup2\n      mstore\n      0x20\n      add\n      0x00\n      keccak256\n      0x00\n        /* \"contracts used for\\xc2\\xa0 RC system/SimpleDAI.sol\":2803:2833  _balances[recipient] += amount */\n      dup3\n      dup3\n      sload\n      tag_199\n      swap2\n      swap1\n      tag_200\n      jump\t// in\n    tag_199:\n      swap3\n      pop\n      pop\n      dup2\n      swap1\n      sstore\n      pop\n        /* \"contracts used for\\xc2\\xa0 RC system/SimpleDAI.sol\":2868:2877  recipient */\n      dup2\n        /* \"contracts used for\\xc2\\xa0 RC system/SimpleDAI.sol\":2851:2886  Transfer(sender, recipient, amount) */\n      0xffffffffffffffffffffffffffffffffffffffff\n      and\n        /* \"contracts used for\\xc2\\xa0 RC system/SimpleDAI.sol\":2860:2866  sender */\n      dup4\n        /* \"contracts used for\\xc2\\xa0 RC system/SimpleDAI.sol\":2851:2886  Transfer(sender, recipient, amount) */\n      0xffffffffffffffffffffffffffffffffffffffff\n      and\n      0xddf252ad1be2c89b69c2b068fc378daa952ba7f163c4a11628f55a4df523b3ef\n        /* \"contracts used for\\xc2\\xa0 RC system/SimpleDAI.sol\":2879:2885  amount */\n      dup4\n        /* \"contracts used for\\xc2\\xa0 RC system/SimpleDAI.sol\":2851:2886  Transfer(sender, recipient, amount) */\n      mload(0x40)\n      tag_201\n      swap2\n      swap1\n      tag_49\n      jump\t// in\n    tag_201:\n      mload(0x40)\n      dup1\n      swap2\n      sub\n      swap1\n      log3\n        /* \"contracts used for\\xc2\\xa0 RC system/SimpleDAI.sol\":2510:2894  function _transfer(address sender, address recipient, uint256 amount) internal {... */\n      pop\n      pop\n      pop\n      jump\t// out\n        /* \"contracts used for\\xc2\\xa0 RC system/SimpleDAI.sol\":2902:3172  function _mint(address account, uint256 amount) internal {... */\n    tag_131:\n        /* \"contracts used for\\xc2\\xa0 RC system/SimpleDAI.sol\":2997:2998  0 */\n      0x00\n        /* \"contracts used for\\xc2\\xa0 RC system/SimpleDAI.sol\":2978:2999  account != address(0) */\n      0xffffffffffffffffffffffffffffffffffffffff\n      and\n        /* \"contracts used for\\xc2\\xa0 RC system/SimpleDAI.sol\":2978:2985  account */\n      dup3\n        /* \"contracts used for\\xc2\\xa0 RC system/SimpleDAI.sol\":2978:2999  account != address(0) */\n      0xffffffffffffffffffffffffffffffffffffffff\n      and\n      eq\n      iszero\n        /* \"contracts used for\\xc2\\xa0 RC system/SimpleDAI.sol\":2970:3035  require(account != address(0), \"ERC20: mint to the zero address\") */\n      tag_203\n      jumpi\n      mload(0x40)\n      0x08c379a000000000000000000000000000000000000000000000000000000000\n      dup2\n      mstore\n      0x04\n      add\n      tag_204\n      swap1\n      tag_205\n      jump\t// in\n    tag_204:\n      mload(0x40)\n      dup1\n      swap2\n      sub\n      swap1\n      revert\n    tag_203:\n        /* \"contracts used for\\xc2\\xa0 RC system/SimpleDAI.sol\":3064:3070  amount */\n      dup1\n        /* \"contracts used for\\xc2\\xa0 RC system/SimpleDAI.sol\":3048:3060  _totalSupply */\n      0x04\n      0x00\n        /* \"contracts used for\\xc2\\xa0 RC system/SimpleDAI.sol\":3048:3070  _totalSupply += amount */\n      dup3\n      dup3\n      sload\n      tag_206\n      swap2\n      swap1\n      tag_200\n      jump\t// in\n    tag_206:\n      swap3\n      pop\n      pop\n      dup2\n      swap1\n      sstore\n      pop\n        /* \"contracts used for\\xc2\\xa0 RC system/SimpleDAI.sol\":3103:3109  amount */\n      dup1\n        /* \"contracts used for\\xc2\\xa0 RC system/SimpleDAI.sol\":3081:3090  _balances */\n      0x02\n        /* \"contracts used for\\xc2\\xa0 RC system/SimpleDAI.sol\":3081:3099  _balances[account] */\n      0x00\n        /* \"contracts used for\\xc2\\xa0 RC system/SimpleDAI.sol\":3091:3098  account */\n      dup5\n        /* \"contracts used for\\xc2\\xa0 RC system/SimpleDAI.sol\":3081:3099  _balances[account] */\n      0xffffffffffffffffffffffffffffffffffffffff\n      and\n      0xffffffffffffffffffffffffffffffffffffffff\n      and\n      dup2\n      mstore\n      0x20\n      add\n      swap1\n      dup2\n      mstore\n      0x20\n      add\n      0x00\n      keccak256\n      0x00\n        /* \"contracts used for\\xc2\\xa0 RC system/SimpleDAI.sol\":3081:3109  _balances[account] += amount */\n      dup3\n      dup3\n      sload\n      tag_207\n      swap2\n      swap1\n      tag_200\n      jump\t// in\n    tag_207:\n      swap3\n      pop\n      pop\n      dup2\n      swap1\n      sstore\n      pop\n        /* \"contracts used for\\xc2\\xa0 RC system/SimpleDAI.sol\":3148:3155  account */\n      dup2\n        /* \"contracts used for\\xc2\\xa0 RC system/SimpleDAI.sol\":3127:3164  Transfer(address(0), account, amount) */\n      0xffffffffffffffffffffffffffffffffffffffff\n      and\n        /* \"contracts used for\\xc2\\xa0 RC system/SimpleDAI.sol\":3144:3145  0 */\n      0x00\n        /* \"contracts used for\\xc2\\xa0 RC system/SimpleDAI.sol\":3127:3164  Transfer(address(0), account, amount) */\n      0xffffffffffffffffffffffffffffffffffffffff\n      and\n      0xddf252ad1be2c89b69c2b068fc378daa952ba7f163c4a11628f55a4df523b3ef\n        /* \"contracts used for\\xc2\\xa0 RC system/SimpleDAI.sol\":3157:3163  amount */\n      dup4\n        /* \"contracts used for\\xc2\\xa0 RC system/SimpleDAI.sol\":3127:3164  Transfer(address(0), account, amount) */\n      mload(0x40)\n      tag_208\n      swap2\n      swap1\n      tag_49\n      jump\t// in\n    tag_208:\n      mload(0x40)\n      dup1\n      swap2\n      sub\n      swap1\n      log3\n        /* \"contracts used for\\xc2\\xa0 RC system/SimpleDAI.sol\":2902:3172  function _mint(address account, uint256 amount) internal {... */\n      pop\n      pop\n      jump\t// out\n        /* \"@openzeppelin/contracts/access/Ownable.sol\":2433:2620  function _transferOwnership(address newOwner) internal virtual {... */\n    tag_137:\n        /* \"@openzeppelin/contracts/access/Ownable.sol\":2506:2522  address oldOwner */\n      0x00\n        /* \"@openzeppelin/contracts/access/Ownable.sol\":2525:2531  _owner */\n      dup1\n      0x00\n      swap1\n      sload\n      swap1\n      0x0100\n      exp\n      swap1\n      div\n      0xffffffffffffffffffffffffffffffffffffffff\n      and\n        /* \"@openzeppelin/contracts/access/Ownable.sol\":2506:2531  address oldOwner = _owner */\n      swap1\n      pop\n        /* \"@openzeppelin/contracts/access/Ownable.sol\":2550:2558  newOwner */\n      dup2\n        /* \"@openzeppelin/contracts/access/Ownable.sol\":2541:2547  _owner */\n      0x00\n      dup1\n        /* \"@openzeppelin/contracts/access/Ownable.sol\":2541:2558  _owner = newOwner */\n      0x0100\n      exp\n      dup2\n      sload\n      dup2\n      0xffffffffffffffffffffffffffffffffffffffff\n      mul\n      not\n      and\n      swap1\n      dup4\n      0xffffffffffffffffffffffffffffffffffffffff\n      and\n      mul\n      or\n      swap1\n      sstore\n      pop\n        /* \"@openzeppelin/contracts/access/Ownable.sol\":2604:2612  newOwner */\n      dup2\n        /* \"@openzeppelin/contracts/access/Ownable.sol\":2573:2613  OwnershipTransferred(oldOwner, newOwner) */\n      0xffffffffffffffffffffffffffffffffffffffff\n      and\n        /* \"@openzeppelin/contracts/access/Ownable.sol\":2594:2602  oldOwner */\n      dup2\n        /* \"@openzeppelin/contracts/access/Ownable.sol\":2573:2613  OwnershipTransferred(oldOwner, newOwner) */\n      0xffffffffffffffffffffffffffffffffffffffff\n      and\n      0x8be0079c531659141344cd1fd0a4f28419497f9722a3daafe3b4186f6b6457e0\n      mload(0x40)\n      mload(0x40)\n      dup1\n      swap2\n      sub\n      swap1\n      log3\n        /* \"@openzeppelin/contracts/access/Ownable.sol\":2496:2620  {... */\n      pop\n        /* \"@openzeppelin/contracts/access/Ownable.sol\":2433:2620  function _transferOwnership(address newOwner) internal virtual {... */\n      pop\n      jump\t// out\n        /* \"contracts used for\\xc2\\xa0 RC system/SimpleDAI.sol\":3180:3452  function _burn(address account, uint256 amount) internal {... */\n    tag_141:\n        /* \"contracts used for\\xc2\\xa0 RC system/SimpleDAI.sol\":3275:3276  0 */\n      0x00\n        /* \"contracts used for\\xc2\\xa0 RC system/SimpleDAI.sol\":3256:3277  account != address(0) */\n      0xffffffffffffffffffffffffffffffffffffffff\n      and\n        /* \"contracts used for\\xc2\\xa0 RC system/SimpleDAI.sol\":3256:3263  account */\n      dup3\n        /* \"contracts used for\\xc2\\xa0 RC system/SimpleDAI.sol\":3256:3277  account != address(0) */\n      0xffffffffffffffffffffffffffffffffffffffff\n      and\n      eq\n      iszero\n        /* \"contracts used for\\xc2\\xa0 RC system/SimpleDAI.sol\":3248:3315  require(account != address(0), \"ERC20: burn from the zero address\") */\n      tag_211\n      jumpi\n      mload(0x40)\n      0x08c379a000000000000000000000000000000000000000000000000000000000\n      dup2\n      mstore\n      0x04\n      add\n      tag_212\n      swap1\n      tag_213\n      jump\t// in\n    tag_212:\n      mload(0x40)\n      dup1\n      swap2\n      sub\n      swap1\n      revert\n    tag_211:\n        /* \"contracts used for\\xc2\\xa0 RC system/SimpleDAI.sol\":3350:3356  amount */\n      dup1\n        /* \"contracts used for\\xc2\\xa0 RC system/SimpleDAI.sol\":3328:3337  _balances */\n      0x02\n        /* \"contracts used for\\xc2\\xa0 RC system/SimpleDAI.sol\":3328:3346  _balances[account] */\n      0x00\n        /* \"contracts used for\\xc2\\xa0 RC system/SimpleDAI.sol\":3338:3345  account */\n      dup5\n        /* \"contracts used for\\xc2\\xa0 RC system/SimpleDAI.sol\":3328:3346  _balances[account] */\n      0xffffffffffffffffffffffffffffffffffffffff\n      and\n      0xffffffffffffffffffffffffffffffffffffffff\n      and\n      dup2\n      mstore\n      0x20\n      add\n      swap1\n      dup2\n      mstore\n      0x20\n      add\n      0x00\n      keccak256\n      0x00\n        /* \"contracts used for\\xc2\\xa0 RC system/SimpleDAI.sol\":3328:3356  _balances[account] -= amount */\n      dup3\n      dup3\n      sload\n      tag_214\n      swap2\n      swap1\n      tag_125\n      jump\t// in\n    tag_214:\n      swap3\n      pop\n      pop\n      dup2\n      swap1\n      sstore\n      pop\n        /* \"contracts used for\\xc2\\xa0 RC system/SimpleDAI.sol\":3383:3389  amount */\n      dup1\n        /* \"contracts used for\\xc2\\xa0 RC system/SimpleDAI.sol\":3367:3379  _totalSupply */\n      0x04\n      0x00\n        /* \"contracts used for\\xc2\\xa0 RC system/SimpleDAI.sol\":3367:3389  _totalSupply -= amount */\n      dup3\n      dup3\n      sload\n      tag_215\n      swap2\n      swap1\n      tag_125\n      jump\t// in\n    tag_215:\n      swap3\n      pop\n      pop\n      dup2\n      swap1\n      sstore\n      pop\n        /* \"contracts used for\\xc2\\xa0 RC system/SimpleDAI.sol\":3433:3434  0 */\n      0x00\n        /* \"contracts used for\\xc2\\xa0 RC system/SimpleDAI.sol\":3407:3444  Transfer(account, address(0), amount) */\n      0xffffffffffffffffffffffffffffffffffffffff\n      and\n        /* \"contracts used for\\xc2\\xa0 RC system/SimpleDAI.sol\":3416:3423  account */\n      dup3\n        /* \"contracts used for\\xc2\\xa0 RC system/SimpleDAI.sol\":3407:3444  Transfer(account, address(0), amount) */\n      0xffffffffffffffffffffffffffffffffffffffff\n      and\n      0xddf252ad1be2c89b69c2b068fc378daa952ba7f163c4a11628f55a4df523b3ef\n        /* \"contracts used for\\xc2\\xa0 RC system/SimpleDAI.sol\":3437:3443  amount */\n      dup4\n        /* \"contracts used for\\xc2\\xa0 RC system/SimpleDAI.sol\":3407:3444  Transfer(account, address(0), amount) */\n      mload(0x40)\n      tag_216\n      swap2\n      swap1\n      tag_49\n      jump\t// in\n    tag_216:\n      mload(0x40)\n      dup1\n      swap2\n      sub\n      swap1\n      log3\n        /* \"contracts used for\\xc2\\xa0 RC system/SimpleDAI.sol\":3180:3452  function _burn(address account, uint256 amount) internal {... */\n      pop\n      pop\n      jump\t// out\n        /* \"@openzeppelin/contracts/utils/Context.sol\":640:736  function _msgSender() internal view virtual returns (address) {... */\n    tag_186:\n        /* \"@openzeppelin/contracts/utils/Context.sol\":693:700  address */\n      0x00\n        /* \"@openzeppelin/contracts/utils/Context.sol\":719:729  msg.sender */\n      caller\n        /* \"@openzeppelin/contracts/utils/Context.sol\":712:729  return msg.sender */\n      swap1\n      pop\n        /* \"@openzeppelin/contracts/utils/Context.sol\":640:736  function _msgSender() internal view virtual returns (address) {... */\n      swap1\n      jump\t// out\n        /* \"#utility.yul\":7:106   */\n    tag_218:\n        /* \"#utility.yul\":59:65   */\n      0x00\n        /* \"#utility.yul\":93:98   */\n      dup2\n        /* \"#utility.yul\":87:99   */\n      mload\n        /* \"#utility.yul\":77:99   */\n      swap1\n      pop\n        /* \"#utility.yul\":7:106   */\n      swap2\n      swap1\n      pop\n      jump\t// out\n        /* \"#utility.yul\":112:281   */\n    tag_219:\n        /* \"#utility.yul\":196:207   */\n      0x00\n        /* \"#utility.yul\":230:236   */\n      dup3\n        /* \"#utility.yul\":225:228   */\n      dup3\n        /* \"#utility.yul\":218:237   */\n      mstore\n        /* \"#utility.yul\":270:274   */\n      0x20\n        /* \"#utility.yul\":265:268   */\n      dup3\n        /* \"#utility.yul\":261:275   */\n      add\n        /* \"#utility.yul\":246:275   */\n      swap1\n      pop\n        /* \"#utility.yul\":112:281   */\n      swap3\n      swap2\n      pop\n      pop\n      jump\t// out\n        /* \"#utility.yul\":287:594   */\n    tag_220:\n        /* \"#utility.yul\":355:356   */\n      0x00\n        /* \"#utility.yul\":365:478   */\n    tag_279:\n        /* \"#utility.yul\":379:385   */\n      dup4\n        /* \"#utility.yul\":376:377   */\n      dup2\n        /* \"#utility.yul\":373:386   */\n      lt\n        /* \"#utility.yul\":365:478   */\n      iszero\n      tag_281\n      jumpi\n        /* \"#utility.yul\":464:465   */\n      dup1\n        /* \"#utility.yul\":459:462   */\n      dup3\n        /* \"#utility.yul\":455:466   */\n      add\n        /* \"#utility.yul\":449:467   */\n      mload\n        /* \"#utility.yul\":445:446   */\n      dup2\n        /* \"#utility.yul\":440:443   */\n      dup5\n        /* \"#utility.yul\":436:447   */\n      add\n        /* \"#utility.yul\":429:468   */\n      mstore\n        /* \"#utility.yul\":401:403   */\n      0x20\n        /* \"#utility.yul\":398:399   */\n      dup2\n        /* \"#utility.yul\":394:404   */\n      add\n        /* \"#utility.yul\":389:404   */\n      swap1\n      pop\n        /* \"#utility.yul\":365:478   */\n      jump(tag_279)\n    tag_281:\n        /* \"#utility.yul\":496:502   */\n      dup4\n        /* \"#utility.yul\":493:494   */\n      dup2\n        /* \"#utility.yul\":490:503   */\n      gt\n        /* \"#utility.yul\":487:588   */\n      iszero\n      tag_282\n      jumpi\n        /* \"#utility.yul\":576:577   */\n      0x00\n        /* \"#utility.yul\":567:573   */\n      dup5\n        /* \"#utility.yul\":562:565   */\n      dup5\n        /* \"#utility.yul\":558:574   */\n      add\n        /* \"#utility.yul\":551:578   */\n      mstore\n        /* \"#utility.yul\":487:588   */\n    tag_282:\n        /* \"#utility.yul\":336:594   */\n      pop\n        /* \"#utility.yul\":287:594   */\n      pop\n      pop\n      pop\n      jump\t// out\n        /* \"#utility.yul\":600:702   */\n    tag_221:\n        /* \"#utility.yul\":641:647   */\n      0x00\n        /* \"#utility.yul\":692:694   */\n      0x1f\n        /* \"#utility.yul\":688:695   */\n      not\n        /* \"#utility.yul\":683:685   */\n      0x1f\n        /* \"#utility.yul\":676:681   */\n      dup4\n        /* \"#utility.yul\":672:686   */\n      add\n        /* \"#utility.yul\":668:696   */\n      and\n        /* \"#utility.yul\":658:696   */\n      swap1\n      pop\n        /* \"#utility.yul\":600:702   */\n      swap2\n      swap1\n      pop\n      jump\t// out\n        /* \"#utility.yul\":708:1072   */\n    tag_222:\n        /* \"#utility.yul\":796:799   */\n      0x00\n        /* \"#utility.yul\":824:863   */\n      tag_285\n        /* \"#utility.yul\":857:862   */\n      dup3\n        /* \"#utility.yul\":824:863   */\n      tag_218\n      jump\t// in\n    tag_285:\n        /* \"#utility.yul\":879:950   */\n      tag_286\n        /* \"#utility.yul\":943:949   */\n      dup2\n        /* \"#utility.yul\":938:941   */\n      dup6\n        /* \"#utility.yul\":879:950   */\n      tag_219\n      jump\t// in\n    tag_286:\n        /* \"#utility.yul\":872:950   */\n      swap4\n      pop\n        /* \"#utility.yul\":959:1011   */\n      tag_287\n        /* \"#utility.yul\":1004:1010   */\n      dup2\n        /* \"#utility.yul\":999:1002   */\n      dup6\n        /* \"#utility.yul\":992:996   */\n      0x20\n        /* \"#utility.yul\":985:990   */\n      dup7\n        /* \"#utility.yul\":981:997   */\n      add\n        /* \"#utility.yul\":959:1011   */\n      tag_220\n      jump\t// in\n    tag_287:\n        /* \"#utility.yul\":1036:1065   */\n      tag_288\n        /* \"#utility.yul\":1058:1064   */\n      dup2\n        /* \"#utility.yul\":1036:1065   */\n      tag_221\n      jump\t// in\n    tag_288:\n        /* \"#utility.yul\":1031:1034   */\n      dup5\n        /* \"#utility.yul\":1027:1066   */\n      add\n        /* \"#utility.yul\":1020:1066   */\n      swap2\n      pop\n        /* \"#utility.yul\":800:1072   */\n      pop\n        /* \"#utility.yul\":708:1072   */\n      swap3\n      swap2\n      pop\n      pop\n      jump\t// out\n        /* \"#utility.yul\":1078:1391   */\n    tag_27:\n        /* \"#utility.yul\":1191:1195   */\n      0x00\n        /* \"#utility.yul\":1229:1231   */\n      0x20\n        /* \"#utility.yul\":1218:1227   */\n      dup3\n        /* \"#utility.yul\":1214:1232   */\n      add\n        /* \"#utility.yul\":1206:1232   */\n      swap1\n      pop\n        /* \"#utility.yul\":1278:1287   */\n      dup2\n        /* \"#utility.yul\":1272:1276   */\n      dup2\n        /* \"#utility.yul\":1268:1288   */\n      sub\n        /* \"#utility.yul\":1264:1265   */\n      0x00\n        /* \"#utility.yul\":1253:1262   */\n      dup4\n        /* \"#utility.yul\":1249:1266   */\n      add\n        /* \"#utility.yul\":1242:1289   */\n      mstore\n        /* \"#utility.yul\":1306:1384   */\n      tag_290\n        /* \"#utility.yul\":1379:1383   */\n      dup2\n        /* \"#utility.yul\":1370:1376   */\n      dup5\n        /* \"#utility.yul\":1306:1384   */\n      tag_222\n      jump\t// in\n    tag_290:\n        /* \"#utility.yul\":1298:1384   */\n      swap1\n      pop\n        /* \"#utility.yul\":1078:1391   */\n      swap3\n      swap2\n      pop\n      pop\n      jump\t// out\n        /* \"#utility.yul\":1478:1595   */\n    tag_224:\n        /* \"#utility.yul\":1587:1588   */\n      0x00\n        /* \"#utility.yul\":1584:1585   */\n      dup1\n        /* \"#utility.yul\":1577:1589   */\n      revert\n        /* \"#utility.yul\":1724:1850   */\n    tag_226:\n        /* \"#utility.yul\":1761:1768   */\n      0x00\n        /* \"#utility.yul\":1801:1843   */\n      0xffffffffffffffffffffffffffffffffffffffff\n        /* \"#utility.yul\":1794:1799   */\n      dup3\n        /* \"#utility.yul\":1790:1844   */\n      and\n        /* \"#utility.yul\":1779:1844   */\n      swap1\n      pop\n        /* \"#utility.yul\":1724:1850   */\n      swap2\n      swap1\n      pop\n      jump\t// out\n        /* \"#utility.yul\":1856:1952   */\n    tag_227:\n        /* \"#utility.yul\":1893:1900   */\n      0x00\n        /* \"#utility.yul\":1922:1946   */\n      tag_296\n        /* \"#utility.yul\":1940:1945   */\n      dup3\n        /* \"#utility.yul\":1922:1946   */\n      tag_226\n      jump\t// in\n    tag_296:\n        /* \"#utility.yul\":1911:1946   */\n      swap1\n      pop\n        /* \"#utility.yul\":1856:1952   */\n      swap2\n      swap1\n      pop\n      jump\t// out\n        /* \"#utility.yul\":1958:2080   */\n    tag_228:\n        /* \"#utility.yul\":2031:2055   */\n      tag_298\n        /* \"#utility.yul\":2049:2054   */\n      dup2\n        /* \"#utility.yul\":2031:2055   */\n      tag_227\n      jump\t// in\n    tag_298:\n        /* \"#utility.yul\":2024:2029   */\n      dup2\n        /* \"#utility.yul\":2021:2056   */\n      eq\n        /* \"#utility.yul\":2011:2074   */\n      tag_299\n      jumpi\n        /* \"#utility.yul\":2070:2071   */\n      0x00\n        /* \"#utility.yul\":2067:2068   */\n      dup1\n        /* \"#utility.yul\":2060:2072   */\n      revert\n        /* \"#utility.yul\":2011:2074   */\n    tag_299:\n        /* \"#utility.yul\":1958:2080   */\n      pop\n      jump\t// out\n        /* \"#utility.yul\":2086:2225   */\n    tag_229:\n        /* \"#utility.yul\":2132:2137   */\n      0x00\n        /* \"#utility.yul\":2170:2176   */\n      dup2\n        /* \"#utility.yul\":2157:2177   */\n      calldataload\n        /* \"#utility.yul\":2148:2177   */\n      swap1\n      pop\n        /* \"#utility.yul\":2186:2219   */\n      tag_301\n        /* \"#utility.yul\":2213:2218   */\n      dup2\n        /* \"#utility.yul\":2186:2219   */\n      tag_228\n      jump\t// in\n    tag_301:\n        /* \"#utility.yul\":2086:2225   */\n      swap3\n      swap2\n      pop\n      pop\n      jump\t// out\n        /* \"#utility.yul\":2231:2308   */\n    tag_230:\n        /* \"#utility.yul\":2268:2275   */\n      0x00\n        /* \"#utility.yul\":2297:2302   */\n      dup2\n        /* \"#utility.yul\":2286:2302   */\n      swap1\n      pop\n        /* \"#utility.yul\":2231:2308   */\n      swap2\n      swap1\n      pop\n      jump\t// out\n        /* \"#utility.yul\":2314:2436   */\n    tag_231:\n        /* \"#utility.yul\":2387:2411   */\n      tag_304\n        /* \"#utility.yul\":2405:2410   */\n      dup2\n        /* \"#utility.yul\":2387:2411   */\n      tag_230\n      jump\t// in\n    tag_304:\n        /* \"#utility.yul\":2380:2385   */\n      dup2\n        /* \"#utility.yul\":2377:2412   */\n      eq\n        /* \"#utility.yul\":2367:2430   */\n      tag_305\n      jumpi\n        /* \"#utility.yul\":2426:2427   */\n      0x00\n        /* \"#utility.yul\":2423:2424   */\n      dup1\n        /* \"#utility.yul\":2416:2428   */\n      revert\n        /* \"#utility.yul\":2367:2430   */\n    tag_305:\n        /* \"#utility.yul\":2314:2436   */\n      pop\n      jump\t// out\n        /* \"#utility.yul\":2442:2581   */\n    tag_232:\n        /* \"#utility.yul\":2488:2493   */\n      0x00\n        /* \"#utility.yul\":2526:2532   */\n      dup2\n        /* \"#utility.yul\":2513:2533   */\n      calldataload\n        /* \"#utility.yul\":2504:2533   */\n      swap1\n      pop\n        /* \"#utility.yul\":2542:2575   */\n      tag_307\n        /* \"#utility.yul\":2569:2574   */\n      dup2\n        /* \"#utility.yul\":2542:2575   */\n      tag_231\n      jump\t// in\n    tag_307:\n        /* \"#utility.yul\":2442:2581   */\n      swap3\n      swap2\n      pop\n      pop\n      jump\t// out\n        /* \"#utility.yul\":2587:3061   */\n    tag_31:\n        /* \"#utility.yul\":2655:2661   */\n      0x00\n        /* \"#utility.yul\":2663:2669   */\n      dup1\n        /* \"#utility.yul\":2712:2714   */\n      0x40\n        /* \"#utility.yul\":2700:2709   */\n      dup4\n        /* \"#utility.yul\":2691:2698   */\n      dup6\n        /* \"#utility.yul\":2687:2710   */\n      sub\n        /* \"#utility.yul\":2683:2715   */\n      slt\n        /* \"#utility.yul\":2680:2799   */\n      iszero\n      tag_309\n      jumpi\n        /* \"#utility.yul\":2718:2797   */\n      tag_310\n      tag_224\n      jump\t// in\n    tag_310:\n        /* \"#utility.yul\":2680:2799   */\n    tag_309:\n        /* \"#utility.yul\":2838:2839   */\n      0x00\n        /* \"#utility.yul\":2863:2916   */\n      tag_311\n        /* \"#utility.yul\":2908:2915   */\n      dup6\n        /* \"#utility.yul\":2899:2905   */\n      dup3\n        /* \"#utility.yul\":2888:2897   */\n      dup7\n        /* \"#utility.yul\":2884:2906   */\n      add\n        /* \"#utility.yul\":2863:2916   */\n      tag_229\n      jump\t// in\n    tag_311:\n        /* \"#utility.yul\":2853:2916   */\n      swap3\n      pop\n        /* \"#utility.yul\":2809:2926   */\n      pop\n        /* \"#utility.yul\":2965:2967   */\n      0x20\n        /* \"#utility.yul\":2991:3044   */\n      tag_312\n        /* \"#utility.yul\":3036:3043   */\n      dup6\n        /* \"#utility.yul\":3027:3033   */\n      dup3\n        /* \"#utility.yul\":3016:3025   */\n      dup7\n        /* \"#utility.yul\":3012:3034   */\n      add\n        /* \"#utility.yul\":2991:3044   */\n      tag_232\n      jump\t// in\n    tag_312:\n        /* \"#utility.yul\":2981:3044   */\n      swap2\n      pop\n        /* \"#utility.yul\":2936:3054   */\n      pop\n        /* \"#utility.yul\":2587:3061   */\n      swap3\n      pop\n      swap3\n      swap1\n      pop\n      jump\t// out\n        /* \"#utility.yul\":3067:3157   */\n    tag_233:\n        /* \"#utility.yul\":3101:3108   */\n      0x00\n        /* \"#utility.yul\":3144:3149   */\n      dup2\n        /* \"#utility.yul\":3137:3150   */\n      iszero\n        /* \"#utility.yul\":3130:3151   */\n      iszero\n        /* \"#utility.yul\":3119:3151   */\n      swap1\n      pop\n        /* \"#utility.yul\":3067:3157   */\n      swap2\n      swap1\n      pop\n      jump\t// out\n        /* \"#utility.yul\":3163:3272   */\n    tag_234:\n        /* \"#utility.yul\":3244:3265   */\n      tag_315\n        /* \"#utility.yul\":3259:3264   */\n      dup2\n        /* \"#utility.yul\":3244:3265   */\n      tag_233\n      jump\t// in\n    tag_315:\n        /* \"#utility.yul\":3239:3242   */\n      dup3\n        /* \"#utility.yul\":3232:3266   */\n      mstore\n        /* \"#utility.yul\":3163:3272   */\n      pop\n      pop\n      jump\t// out\n        /* \"#utility.yul\":3278:3488   */\n    tag_34:\n        /* \"#utility.yul\":3365:3369   */\n      0x00\n        /* \"#utility.yul\":3403:3405   */\n      0x20\n        /* \"#utility.yul\":3392:3401   */\n      dup3\n        /* \"#utility.yul\":3388:3406   */\n      add\n        /* \"#utility.yul\":3380:3406   */\n      swap1\n      pop\n        /* \"#utility.yul\":3416:3481   */\n      tag_317\n        /* \"#utility.yul\":3478:3479   */\n      0x00\n        /* \"#utility.yul\":3467:3476   */\n      dup4\n        /* \"#utility.yul\":3463:3480   */\n      add\n        /* \"#utility.yul\":3454:3460   */\n      dup5\n        /* \"#utility.yul\":3416:3481   */\n      tag_234\n      jump\t// in\n    tag_317:\n        /* \"#utility.yul\":3278:3488   */\n      swap3\n      swap2\n      pop\n      pop\n      jump\t// out\n        /* \"#utility.yul\":3494:3823   */\n    tag_38:\n        /* \"#utility.yul\":3553:3559   */\n      0x00\n        /* \"#utility.yul\":3602:3604   */\n      0x20\n        /* \"#utility.yul\":3590:3599   */\n      dup3\n        /* \"#utility.yul\":3581:3588   */\n      dup5\n        /* \"#utility.yul\":3577:3600   */\n      sub\n        /* \"#utility.yul\":3573:3605   */\n      slt\n        /* \"#utility.yul\":3570:3689   */\n      iszero\n      tag_319\n      jumpi\n        /* \"#utility.yul\":3608:3687   */\n      tag_320\n      tag_224\n      jump\t// in\n    tag_320:\n        /* \"#utility.yul\":3570:3689   */\n    tag_319:\n        /* \"#utility.yul\":3728:3729   */\n      0x00\n        /* \"#utility.yul\":3753:3806   */\n      tag_321\n        /* \"#utility.yul\":3798:3805   */\n      dup5\n        /* \"#utility.yul\":3789:3795   */\n      dup3\n        /* \"#utility.yul\":3778:3787   */\n      dup6\n        /* \"#utility.yul\":3774:3796   */\n      add\n        /* \"#utility.yul\":3753:3806   */\n      tag_229\n      jump\t// in\n    tag_321:\n        /* \"#utility.yul\":3743:3806   */\n      swap2\n      pop\n        /* \"#utility.yul\":3699:3816   */\n      pop\n        /* \"#utility.yul\":3494:3823   */\n      swap3\n      swap2\n      pop\n      pop\n      jump\t// out\n        /* \"#utility.yul\":3829:3889   */\n    tag_235:\n        /* \"#utility.yul\":3857:3860   */\n      0x00\n        /* \"#utility.yul\":3878:3883   */\n      dup2\n        /* \"#utility.yul\":3871:3883   */\n      swap1\n      pop\n        /* \"#utility.yul\":3829:3889   */\n      swap2\n      swap1\n      pop\n      jump\t// out\n        /* \"#utility.yul\":3895:4037   */\n    tag_236:\n        /* \"#utility.yul\":3945:3954   */\n      0x00\n        /* \"#utility.yul\":3978:4031   */\n      tag_324\n        /* \"#utility.yul\":3996:4030   */\n      tag_325\n        /* \"#utility.yul\":4005:4029   */\n      tag_326\n        /* \"#utility.yul\":4023:4028   */\n      dup5\n        /* \"#utility.yul\":4005:4029   */\n      tag_226\n      jump\t// in\n    tag_326:\n        /* \"#utility.yul\":3996:4030   */\n      tag_235\n      jump\t// in\n    tag_325:\n        /* \"#utility.yul\":3978:4031   */\n      tag_226\n      jump\t// in\n    tag_324:\n        /* \"#utility.yul\":3965:4031   */\n      swap1\n      pop\n        /* \"#utility.yul\":3895:4037   */\n      swap2\n      swap1\n      pop\n      jump\t// out\n        /* \"#utility.yul\":4043:4169   */\n    tag_237:\n        /* \"#utility.yul\":4093:4102   */\n      0x00\n        /* \"#utility.yul\":4126:4163   */\n      tag_328\n        /* \"#utility.yul\":4157:4162   */\n      dup3\n        /* \"#utility.yul\":4126:4163   */\n      tag_236\n      jump\t// in\n    tag_328:\n        /* \"#utility.yul\":4113:4163   */\n      swap1\n      pop\n        /* \"#utility.yul\":4043:4169   */\n      swap2\n      swap1\n      pop\n      jump\t// out\n        /* \"#utility.yul\":4175:4324   */\n    tag_238:\n        /* \"#utility.yul\":4248:4257   */\n      0x00\n        /* \"#utility.yul\":4281:4318   */\n      tag_330\n        /* \"#utility.yul\":4312:4317   */\n      dup3\n        /* \"#utility.yul\":4281:4318   */\n      tag_237\n      jump\t// in\n    tag_330:\n        /* \"#utility.yul\":4268:4318   */\n      swap1\n      pop\n        /* \"#utility.yul\":4175:4324   */\n      swap2\n      swap1\n      pop\n      jump\t// out\n        /* \"#utility.yul\":4330:4507   */\n    tag_239:\n        /* \"#utility.yul\":4440:4500   */\n      tag_332\n        /* \"#utility.yul\":4494:4499   */\n      dup2\n        /* \"#utility.yul\":4440:4500   */\n      tag_238\n      jump\t// in\n    tag_332:\n        /* \"#utility.yul\":4435:4438   */\n      dup3\n        /* \"#utility.yul\":4428:4501   */\n      mstore\n        /* \"#utility.yul\":4330:4507   */\n      pop\n      pop\n      jump\t// out\n        /* \"#utility.yul\":4513:4781   */\n    tag_44:\n        /* \"#utility.yul\":4629:4633   */\n      0x00\n        /* \"#utility.yul\":4667:4669   */\n      0x20\n        /* \"#utility.yul\":4656:4665   */\n      dup3\n        /* \"#utility.yul\":4652:4670   */\n      add\n        /* \"#utility.yul\":4644:4670   */\n      swap1\n      pop\n        /* \"#utility.yul\":4680:4774   */\n      tag_334\n        /* \"#utility.yul\":4771:4772   */\n      0x00\n        /* \"#utility.yul\":4760:4769   */\n      dup4\n        /* \"#utility.yul\":4756:4773   */\n      add\n        /* \"#utility.yul\":4747:4753   */\n      dup5\n        /* \"#utility.yul\":4680:4774   */\n      tag_239\n      jump\t// in\n    tag_334:\n        /* \"#utility.yul\":4513:4781   */\n      swap3\n      swap2\n      pop\n      pop\n      jump\t// out\n        /* \"#utility.yul\":4787:4905   */\n    tag_240:\n        /* \"#utility.yul\":4874:4898   */\n      tag_336\n        /* \"#utility.yul\":4892:4897   */\n      dup2\n        /* \"#utility.yul\":4874:4898   */\n      tag_230\n      jump\t// in\n    tag_336:\n        /* \"#utility.yul\":4869:4872   */\n      dup3\n        /* \"#utility.yul\":4862:4899   */\n      mstore\n        /* \"#utility.yul\":4787:4905   */\n      pop\n      pop\n      jump\t// out\n        /* \"#utility.yul\":4911:5133   */\n    tag_49:\n        /* \"#utility.yul\":5004:5008   */\n      0x00\n        /* \"#utility.yul\":5042:5044   */\n      0x20\n        /* \"#utility.yul\":5031:5040   */\n      dup3\n        /* \"#utility.yul\":5027:5045   */\n      add\n        /* \"#utility.yul\":5019:5045   */\n      swap1\n      pop\n        /* \"#utility.yul\":5055:5126   */\n      tag_338\n        /* \"#utility.yul\":5123:5124   */\n      0x00\n        /* \"#utility.yul\":5112:5121   */\n      dup4\n        /* \"#utility.yul\":5108:5125   */\n      add\n        /* \"#utility.yul\":5099:5105   */\n      dup5\n        /* \"#utility.yul\":5055:5126   */\n      tag_240\n      jump\t// in\n    tag_338:\n        /* \"#utility.yul\":4911:5133   */\n      swap3\n      swap2\n      pop\n      pop\n      jump\t// out\n        /* \"#utility.yul\":5139:5758   */\n    tag_53:\n        /* \"#utility.yul\":5216:5222   */\n      0x00\n        /* \"#utility.yul\":5224:5230   */\n      dup1\n        /* \"#utility.yul\":5232:5238   */\n      0x00\n        /* \"#utility.yul\":5281:5283   */\n      0x60\n        /* \"#utility.yul\":5269:5278   */\n      dup5\n        /* \"#utility.yul\":5260:5267   */\n      dup7\n        /* \"#utility.yul\":5256:5279   */\n      sub\n        /* \"#utility.yul\":5252:5284   */\n      slt\n        /* \"#utility.yul\":5249:5368   */\n      iszero\n      tag_340\n      jumpi\n        /* \"#utility.yul\":5287:5366   */\n      tag_341\n      tag_224\n      jump\t// in\n    tag_341:\n        /* \"#utility.yul\":5249:5368   */\n    tag_340:\n        /* \"#utility.yul\":5407:5408   */\n      0x00\n        /* \"#utility.yul\":5432:5485   */\n      tag_342\n        /* \"#utility.yul\":5477:5484   */\n      dup7\n        /* \"#utility.yul\":5468:5474   */\n      dup3\n        /* \"#utility.yul\":5457:5466   */\n      dup8\n        /* \"#utility.yul\":5453:5475   */\n      add\n        /* \"#utility.yul\":5432:5485   */\n      tag_229\n      jump\t// in\n    tag_342:\n        /* \"#utility.yul\":5422:5485   */\n      swap4\n      pop\n        /* \"#utility.yul\":5378:5495   */\n      pop\n        /* \"#utility.yul\":5534:5536   */\n      0x20\n        /* \"#utility.yul\":5560:5613   */\n      tag_343\n        /* \"#utility.yul\":5605:5612   */\n      dup7\n        /* \"#utility.yul\":5596:5602   */\n      dup3\n        /* \"#utility.yul\":5585:5594   */\n      dup8\n        /* \"#utility.yul\":5581:5603   */\n      add\n        /* \"#utility.yul\":5560:5613   */\n      tag_229\n      jump\t// in\n    tag_343:\n        /* \"#utility.yul\":5550:5613   */\n      swap3\n      pop\n        /* \"#utility.yul\":5505:5623   */\n      pop\n        /* \"#utility.yul\":5662:5664   */\n      0x40\n        /* \"#utility.yul\":5688:5741   */\n      tag_344\n        /* \"#utility.yul\":5733:5740   */\n      dup7\n        /* \"#utility.yul\":5724:5730   */\n      dup3\n        /* \"#utility.yul\":5713:5722   */\n      dup8\n        /* \"#utility.yul\":5709:5731   */\n      add\n        /* \"#utility.yul\":5688:5741   */\n      tag_232\n      jump\t// in\n    tag_344:\n        /* \"#utility.yul\":5678:5741   */\n      swap2\n      pop\n        /* \"#utility.yul\":5633:5751   */\n      pop\n        /* \"#utility.yul\":5139:5758   */\n      swap3\n      pop\n      swap3\n      pop\n      swap3\n      jump\t// out\n        /* \"#utility.yul\":5764:5850   */\n    tag_241:\n        /* \"#utility.yul\":5799:5806   */\n      0x00\n        /* \"#utility.yul\":5839:5843   */\n      0xff\n        /* \"#utility.yul\":5832:5837   */\n      dup3\n        /* \"#utility.yul\":5828:5844   */\n      and\n        /* \"#utility.yul\":5817:5844   */\n      swap1\n      pop\n        /* \"#utility.yul\":5764:5850   */\n      swap2\n      swap1\n      pop\n      jump\t// out\n        /* \"#utility.yul\":5856:5968   */\n    tag_242:\n        /* \"#utility.yul\":5939:5961   */\n      tag_347\n        /* \"#utility.yul\":5955:5960   */\n      dup2\n        /* \"#utility.yul\":5939:5961   */\n      tag_241\n      jump\t// in\n    tag_347:\n        /* \"#utility.yul\":5934:5937   */\n      dup3\n        /* \"#utility.yul\":5927:5962   */\n      mstore\n        /* \"#utility.yul\":5856:5968   */\n      pop\n      pop\n      jump\t// out\n        /* \"#utility.yul\":5974:6188   */\n    tag_60:\n        /* \"#utility.yul\":6063:6067   */\n      0x00\n        /* \"#utility.yul\":6101:6103   */\n      0x20\n        /* \"#utility.yul\":6090:6099   */\n      dup3\n        /* \"#utility.yul\":6086:6104   */\n      add\n        /* \"#utility.yul\":6078:6104   */\n      swap1\n      pop\n        /* \"#utility.yul\":6114:6181   */\n      tag_349\n        /* \"#utility.yul\":6178:6179   */\n      0x00\n        /* \"#utility.yul\":6167:6176   */\n      dup4\n        /* \"#utility.yul\":6163:6180   */\n      add\n        /* \"#utility.yul\":6154:6160   */\n      dup5\n        /* \"#utility.yul\":6114:6181   */\n      tag_242\n      jump\t// in\n    tag_349:\n        /* \"#utility.yul\":5974:6188   */\n      swap3\n      swap2\n      pop\n      pop\n      jump\t// out\n        /* \"#utility.yul\":6194:6312   */\n    tag_243:\n        /* \"#utility.yul\":6281:6305   */\n      tag_351\n        /* \"#utility.yul\":6299:6304   */\n      dup2\n        /* \"#utility.yul\":6281:6305   */\n      tag_227\n      jump\t// in\n    tag_351:\n        /* \"#utility.yul\":6276:6279   */\n      dup3\n        /* \"#utility.yul\":6269:6306   */\n      mstore\n        /* \"#utility.yul\":6194:6312   */\n      pop\n      pop\n      jump\t// out\n        /* \"#utility.yul\":6318:6540   */\n    tag_77:\n        /* \"#utility.yul\":6411:6415   */\n      0x00\n        /* \"#utility.yul\":6449:6451   */\n      0x20\n        /* \"#utility.yul\":6438:6447   */\n      dup3\n        /* \"#utility.yul\":6434:6452   */\n      add\n        /* \"#utility.yul\":6426:6452   */\n      swap1\n      pop\n        /* \"#utility.yul\":6462:6533   */\n      tag_353\n        /* \"#utility.yul\":6530:6531   */\n      0x00\n        /* \"#utility.yul\":6519:6528   */\n      dup4\n        /* \"#utility.yul\":6515:6532   */\n      add\n        /* \"#utility.yul\":6506:6512   */\n      dup5\n        /* \"#utility.yul\":6462:6533   */\n      tag_243\n      jump\t// in\n    tag_353:\n        /* \"#utility.yul\":6318:6540   */\n      swap3\n      swap2\n      pop\n      pop\n      jump\t// out\n        /* \"#utility.yul\":6546:6875   */\n    tag_81:\n        /* \"#utility.yul\":6605:6611   */\n      0x00\n        /* \"#utility.yul\":6654:6656   */\n      0x20\n        /* \"#utility.yul\":6642:6651   */\n      dup3\n        /* \"#utility.yul\":6633:6640   */\n      dup5\n        /* \"#utility.yul\":6629:6652   */\n      sub\n        /* \"#utility.yul\":6625:6657   */\n      slt\n        /* \"#utility.yul\":6622:6741   */\n      iszero\n      tag_355\n      jumpi\n        /* \"#utility.yul\":6660:6739   */\n      tag_356\n      tag_224\n      jump\t// in\n    tag_356:\n        /* \"#utility.yul\":6622:6741   */\n    tag_355:\n        /* \"#utility.yul\":6780:6781   */\n      0x00\n        /* \"#utility.yul\":6805:6858   */\n      tag_357\n        /* \"#utility.yul\":6850:6857   */\n      dup5\n        /* \"#utility.yul\":6841:6847   */\n      dup3\n        /* \"#utility.yul\":6830:6839   */\n      dup6\n        /* \"#utility.yul\":6826:6848   */\n      add\n        /* \"#utility.yul\":6805:6858   */\n      tag_232\n      jump\t// in\n    tag_357:\n        /* \"#utility.yul\":6795:6858   */\n      swap2\n      pop\n        /* \"#utility.yul\":6751:6868   */\n      pop\n        /* \"#utility.yul\":6546:6875   */\n      swap3\n      swap2\n      pop\n      pop\n      jump\t// out\n        /* \"#utility.yul\":6881:7355   */\n    tag_102:\n        /* \"#utility.yul\":6949:6955   */\n      0x00\n        /* \"#utility.yul\":6957:6963   */\n      dup1\n        /* \"#utility.yul\":7006:7008   */\n      0x40\n        /* \"#utility.yul\":6994:7003   */\n      dup4\n        /* \"#utility.yul\":6985:6992   */\n      dup6\n        /* \"#utility.yul\":6981:7004   */\n      sub\n        /* \"#utility.yul\":6977:7009   */\n      slt\n        /* \"#utility.yul\":6974:7093   */\n      iszero\n      tag_359\n      jumpi\n        /* \"#utility.yul\":7012:7091   */\n      tag_360\n      tag_224\n      jump\t// in\n    tag_360:\n        /* \"#utility.yul\":6974:7093   */\n    tag_359:\n        /* \"#utility.yul\":7132:7133   */\n      0x00\n        /* \"#utility.yul\":7157:7210   */\n      tag_361\n        /* \"#utility.yul\":7202:7209   */\n      dup6\n        /* \"#utility.yul\":7193:7199   */\n      dup3\n        /* \"#utility.yul\":7182:7191   */\n      dup7\n        /* \"#utility.yul\":7178:7200   */\n      add\n        /* \"#utility.yul\":7157:7210   */\n      tag_229\n      jump\t// in\n    tag_361:\n        /* \"#utility.yul\":7147:7210   */\n      swap3\n      pop\n        /* \"#utility.yul\":7103:7220   */\n      pop\n        /* \"#utility.yul\":7259:7261   */\n      0x20\n        /* \"#utility.yul\":7285:7338   */\n      tag_362\n        /* \"#utility.yul\":7330:7337   */\n      dup6\n        /* \"#utility.yul\":7321:7327   */\n      dup3\n        /* \"#utility.yul\":7310:7319   */\n      dup7\n        /* \"#utility.yul\":7306:7328   */\n      add\n        /* \"#utility.yul\":7285:7338   */\n      tag_229\n      jump\t// in\n    tag_362:\n        /* \"#utility.yul\":7275:7338   */\n      swap2\n      pop\n        /* \"#utility.yul\":7230:7348   */\n      pop\n        /* \"#utility.yul\":6881:7355   */\n      swap3\n      pop\n      swap3\n      swap1\n      pop\n      jump\t// out\n        /* \"#utility.yul\":7361:7526   */\n    tag_244:\n        /* \"#utility.yul\":7501:7518   */\n      0x496e76616c696420616464726573730000000000000000000000000000000000\n        /* \"#utility.yul\":7497:7498   */\n      0x00\n        /* \"#utility.yul\":7489:7495   */\n      dup3\n        /* \"#utility.yul\":7485:7499   */\n      add\n        /* \"#utility.yul\":7478:7519   */\n      mstore\n        /* \"#utility.yul\":7361:7526   */\n      pop\n      jump\t// out\n        /* \"#utility.yul\":7532:7898   */\n    tag_245:\n        /* \"#utility.yul\":7674:7677   */\n      0x00\n        /* \"#utility.yul\":7695:7762   */\n      tag_365\n        /* \"#utility.yul\":7759:7761   */\n      0x0f\n        /* \"#utility.yul\":7754:7757   */\n      dup4\n        /* \"#utility.yul\":7695:7762   */\n      tag_219\n      jump\t// in\n    tag_365:\n        /* \"#utility.yul\":7688:7762   */\n      swap2\n      pop\n        /* \"#utility.yul\":7771:7864   */\n      tag_366\n        /* \"#utility.yul\":7860:7863   */\n      dup3\n        /* \"#utility.yul\":7771:7864   */\n      tag_244\n      jump\t// in\n    tag_366:\n        /* \"#utility.yul\":7889:7891   */\n      0x20\n        /* \"#utility.yul\":7884:7887   */\n      dup3\n        /* \"#utility.yul\":7880:7892   */\n      add\n        /* \"#utility.yul\":7873:7892   */\n      swap1\n      pop\n        /* \"#utility.yul\":7532:7898   */\n      swap2\n      swap1\n      pop\n      jump\t// out\n        /* \"#utility.yul\":7904:8323   */\n    tag_118:\n        /* \"#utility.yul\":8070:8074   */\n      0x00\n        /* \"#utility.yul\":8108:8110   */\n      0x20\n        /* \"#utility.yul\":8097:8106   */\n      dup3\n        /* \"#utility.yul\":8093:8111   */\n      add\n        /* \"#utility.yul\":8085:8111   */\n      swap1\n      pop\n        /* \"#utility.yul\":8157:8166   */\n      dup2\n        /* \"#utility.yul\":8151:8155   */\n      dup2\n        /* \"#utility.yul\":8147:8167   */\n      sub\n        /* \"#utility.yul\":8143:8144   */\n      0x00\n        /* \"#utility.yul\":8132:8141   */\n      dup4\n        /* \"#utility.yul\":8128:8145   */\n      add\n        /* \"#utility.yul\":8121:8168   */\n      mstore\n        /* \"#utility.yul\":8185:8316   */\n      tag_368\n        /* \"#utility.yul\":8311:8315   */\n      dup2\n        /* \"#utility.yul\":8185:8316   */\n      tag_245\n      jump\t// in\n    tag_368:\n        /* \"#utility.yul\":8177:8316   */\n      swap1\n      pop\n        /* \"#utility.yul\":7904:8323   */\n      swap2\n      swap1\n      pop\n      jump\t// out\n        /* \"#utility.yul\":8329:8509   */\n    tag_246:\n        /* \"#utility.yul\":8377:8454   */\n      0x4e487b7100000000000000000000000000000000000000000000000000000000\n        /* \"#utility.yul\":8374:8375   */\n      0x00\n        /* \"#utility.yul\":8367:8455   */\n      mstore\n        /* \"#utility.yul\":8474:8478   */\n      0x11\n        /* \"#utility.yul\":8471:8472   */\n      0x04\n        /* \"#utility.yul\":8464:8479   */\n      mstore\n        /* \"#utility.yul\":8498:8502   */\n      0x24\n        /* \"#utility.yul\":8495:8496   */\n      0x00\n        /* \"#utility.yul\":8488:8503   */\n      revert\n        /* \"#utility.yul\":8515:8706   */\n    tag_125:\n        /* \"#utility.yul\":8555:8559   */\n      0x00\n        /* \"#utility.yul\":8575:8595   */\n      tag_371\n        /* \"#utility.yul\":8593:8594   */\n      dup3\n        /* \"#utility.yul\":8575:8595   */\n      tag_230\n      jump\t// in\n    tag_371:\n        /* \"#utility.yul\":8570:8595   */\n      swap2\n      pop\n        /* \"#utility.yul\":8609:8629   */\n      tag_372\n        /* \"#utility.yul\":8627:8628   */\n      dup4\n        /* \"#utility.yul\":8609:8629   */\n      tag_230\n      jump\t// in\n    tag_372:\n        /* \"#utility.yul\":8604:8629   */\n      swap3\n      pop\n        /* \"#utility.yul\":8648:8649   */\n      dup3\n        /* \"#utility.yul\":8645:8646   */\n      dup3\n        /* \"#utility.yul\":8642:8650   */\n      lt\n        /* \"#utility.yul\":8639:8673   */\n      iszero\n      tag_373\n      jumpi\n        /* \"#utility.yul\":8653:8671   */\n      tag_374\n      tag_246\n      jump\t// in\n    tag_374:\n        /* \"#utility.yul\":8639:8673   */\n    tag_373:\n        /* \"#utility.yul\":8698:8699   */\n      dup3\n        /* \"#utility.yul\":8695:8696   */\n      dup3\n        /* \"#utility.yul\":8691:8700   */\n      sub\n        /* \"#utility.yul\":8683:8700   */\n      swap1\n      pop\n        /* \"#utility.yul\":8515:8706   */\n      swap3\n      swap2\n      pop\n      pop\n      jump\t// out\n        /* \"#utility.yul\":8712:8955   */\n    tag_247:\n        /* \"#utility.yul\":8852:8886   */\n      0x4f6e6c79205072654275726e5072654d696e7420636f6e74726163742063616e\n        /* \"#utility.yul\":8848:8849   */\n      0x00\n        /* \"#utility.yul\":8840:8846   */\n      dup3\n        /* \"#utility.yul\":8836:8850   */\n      add\n        /* \"#utility.yul\":8829:8887   */\n      mstore\n        /* \"#utility.yul\":8921:8947   */\n      0x206d696e7420776974686f757420636f6c6c61746572616c0000000000000000\n        /* \"#utility.yul\":8916:8918   */\n      0x20\n        /* \"#utility.yul\":8908:8914   */\n      dup3\n        /* \"#utility.yul\":8904:8919   */\n      add\n        /* \"#utility.yul\":8897:8948   */\n      mstore\n        /* \"#utility.yul\":8712:8955   */\n      pop\n      jump\t// out\n        /* \"#utility.yul\":8961:9327   */\n    tag_248:\n        /* \"#utility.yul\":9103:9106   */\n      0x00\n        /* \"#utility.yul\":9124:9191   */\n      tag_377\n        /* \"#utility.yul\":9188:9190   */\n      0x38\n        /* \"#utility.yul\":9183:9186   */\n      dup4\n        /* \"#utility.yul\":9124:9191   */\n      tag_219\n      jump\t// in\n    tag_377:\n        /* \"#utility.yul\":9117:9191   */\n      swap2\n      pop\n        /* \"#utility.yul\":9200:9293   */\n      tag_378\n        /* \"#utility.yul\":9289:9292   */\n      dup3\n        /* \"#utility.yul\":9200:9293   */\n      tag_247\n      jump\t// in\n    tag_378:\n        /* \"#utility.yul\":9318:9320   */\n      0x40\n        /* \"#utility.yul\":9313:9316   */\n      dup3\n        /* \"#utility.yul\":9309:9321   */\n      add\n        /* \"#utility.yul\":9302:9321   */\n      swap1\n      pop\n        /* \"#utility.yul\":8961:9327   */\n      swap2\n      swap1\n      pop\n      jump\t// out\n        /* \"#utility.yul\":9333:9752   */\n    tag_129:\n        /* \"#utility.yul\":9499:9503   */\n      0x00\n        /* \"#utility.yul\":9537:9539   */\n      0x20\n        /* \"#utility.yul\":9526:9535   */\n      dup3\n        /* \"#utility.yul\":9522:9540   */\n      add\n        /* \"#utility.yul\":9514:9540   */\n      swap1\n      pop\n        /* \"#utility.yul\":9586:9595   */\n      dup2\n        /* \"#utility.yul\":9580:9584   */\n      dup2\n        /* \"#utility.yul\":9576:9596   */\n      sub\n        /* \"#utility.yul\":9572:9573   */\n      0x00\n        /* \"#utility.yul\":9561:9570   */\n      dup4\n        /* \"#utility.yul\":9557:9574   */\n      add\n        /* \"#utility.yul\":9550:9597   */\n      mstore\n        /* \"#utility.yul\":9614:9745   */\n      tag_380\n        /* \"#utility.yul\":9740:9744   */\n      dup2\n        /* \"#utility.yul\":9614:9745   */\n      tag_248\n      jump\t// in\n    tag_380:\n        /* \"#utility.yul\":9606:9745   */\n      swap1\n      pop\n        /* \"#utility.yul\":9333:9752   */\n      swap2\n      swap1\n      pop\n      jump\t// out\n        /* \"#utility.yul\":9758:10106   */\n    tag_143:\n        /* \"#utility.yul\":9798:9805   */\n      0x00\n        /* \"#utility.yul\":9821:9841   */\n      tag_382\n        /* \"#utility.yul\":9839:9840   */\n      dup3\n        /* \"#utility.yul\":9821:9841   */\n      tag_230\n      jump\t// in\n    tag_382:\n        /* \"#utility.yul\":9816:9841   */\n      swap2\n      pop\n        /* \"#utility.yul\":9855:9875   */\n      tag_383\n        /* \"#utility.yul\":9873:9874   */\n      dup4\n        /* \"#utility.yul\":9855:9875   */\n      tag_230\n      jump\t// in\n    tag_383:\n        /* \"#utility.yul\":9850:9875   */\n      swap3\n      pop\n        /* \"#utility.yul\":10043:10044   */\n      dup2\n        /* \"#utility.yul\":9975:10041   */\n      0xffffffffffffffffffffffffffffffffffffffffffffffffffffffffffffffff\n        /* \"#utility.yul\":9971:10045   */\n      div\n        /* \"#utility.yul\":9968:9969   */\n      dup4\n        /* \"#utility.yul\":9965:10046   */\n      gt\n        /* \"#utility.yul\":9960:9961   */\n      dup3\n        /* \"#utility.yul\":9953:9962   */\n      iszero\n        /* \"#utility.yul\":9946:9963   */\n      iszero\n        /* \"#utility.yul\":9942:10047   */\n      and\n        /* \"#utility.yul\":9939:10070   */\n      iszero\n      tag_384\n      jumpi\n        /* \"#utility.yul\":10050:10068   */\n      tag_385\n      tag_246\n      jump\t// in\n    tag_385:\n        /* \"#utility.yul\":9939:10070   */\n    tag_384:\n        /* \"#utility.yul\":10098:10099   */\n      dup3\n        /* \"#utility.yul\":10095:10096   */\n      dup3\n        /* \"#utility.yul\":10091:10100   */\n      mul\n        /* \"#utility.yul\":10080:10100   */\n      swap1\n      pop\n        /* \"#utility.yul\":9758:10106   */\n      swap3\n      swap2\n      pop\n      pop\n      jump\t// out\n        /* \"#utility.yul\":10112:10292   */\n    tag_249:\n        /* \"#utility.yul\":10160:10237   */\n      0x4e487b7100000000000000000000000000000000000000000000000000000000\n        /* \"#utility.yul\":10157:10158   */\n      0x00\n        /* \"#utility.yul\":10150:10238   */\n      mstore\n        /* \"#utility.yul\":10257:10261   */\n      0x12\n        /* \"#utility.yul\":10254:10255   */\n      0x04\n        /* \"#utility.yul\":10247:10262   */\n      mstore\n        /* \"#utility.yul\":10281:10285   */\n      0x24\n        /* \"#utility.yul\":10278:10279   */\n      0x00\n        /* \"#utility.yul\":10271:10286   */\n      revert\n        /* \"#utility.yul\":10298:10483   */\n    tag_145:\n        /* \"#utility.yul\":10338:10339   */\n      0x00\n        /* \"#utility.yul\":10355:10375   */\n      tag_388\n        /* \"#utility.yul\":10373:10374   */\n      dup3\n        /* \"#utility.yul\":10355:10375   */\n      tag_230\n      jump\t// in\n    tag_388:\n        /* \"#utility.yul\":10350:10375   */\n      swap2\n      pop\n        /* \"#utility.yul\":10389:10409   */\n      tag_389\n        /* \"#utility.yul\":10407:10408   */\n      dup4\n        /* \"#utility.yul\":10389:10409   */\n      tag_230\n      jump\t// in\n    tag_389:\n        /* \"#utility.yul\":10384:10409   */\n      swap3\n      pop\n        /* \"#utility.yul\":10428:10429   */\n      dup3\n        /* \"#utility.yul\":10418:10453   */\n      tag_390\n      jumpi\n        /* \"#utility.yul\":10433:10451   */\n      tag_391\n      tag_249\n      jump\t// in\n    tag_391:\n        /* \"#utility.yul\":10418:10453   */\n    tag_390:\n        /* \"#utility.yul\":10475:10476   */\n      dup3\n        /* \"#utility.yul\":10472:10473   */\n      dup3\n        /* \"#utility.yul\":10468:10477   */\n      div\n        /* \"#utility.yul\":10463:10477   */\n      swap1\n      pop\n        /* \"#utility.yul\":10298:10483   */\n      swap3\n      swap2\n      pop\n      pop\n      jump\t// out\n        /* \"#utility.yul\":10489:10636   */\n    tag_250:\n        /* \"#utility.yul\":10590:10601   */\n      0x00\n        /* \"#utility.yul\":10627:10630   */\n      dup2\n        /* \"#utility.yul\":10612:10630   */\n      swap1\n      pop\n        /* \"#utility.yul\":10489:10636   */\n      swap3\n      swap2\n      pop\n      pop\n      jump\t// out\n        /* \"#utility.yul\":10642:10756   */\n    tag_251:\n      pop\n      jump\t// out\n        /* \"#utility.yul\":10762:11160   */\n    tag_252:\n        /* \"#utility.yul\":10921:10924   */\n      0x00\n        /* \"#utility.yul\":10942:11025   */\n      tag_395\n        /* \"#utility.yul\":11023:11024   */\n      0x00\n        /* \"#utility.yul\":11018:11021   */\n      dup4\n        /* \"#utility.yul\":10942:11025   */\n      tag_250\n      jump\t// in\n    tag_395:\n        /* \"#utility.yul\":10935:11025   */\n      swap2\n      pop\n        /* \"#utility.yul\":11034:11127   */\n      tag_396\n        /* \"#utility.yul\":11123:11126   */\n      dup3\n        /* \"#utility.yul\":11034:11127   */\n      tag_251\n      jump\t// in\n    tag_396:\n        /* \"#utility.yul\":11152:11153   */\n      0x00\n        /* \"#utility.yul\":11147:11150   */\n      dup3\n        /* \"#utility.yul\":11143:11154   */\n      add\n        /* \"#utility.yul\":11136:11154   */\n      swap1\n      pop\n        /* \"#utility.yul\":10762:11160   */\n      swap2\n      swap1\n      pop\n      jump\t// out\n        /* \"#utility.yul\":11166:11545   */\n    tag_147:\n        /* \"#utility.yul\":11350:11353   */\n      0x00\n        /* \"#utility.yul\":11372:11519   */\n      tag_398\n        /* \"#utility.yul\":11515:11518   */\n      dup3\n        /* \"#utility.yul\":11372:11519   */\n      tag_252\n      jump\t// in\n    tag_398:\n        /* \"#utility.yul\":11365:11519   */\n      swap2\n      pop\n        /* \"#utility.yul\":11536:11539   */\n      dup2\n        /* \"#utility.yul\":11529:11539   */\n      swap1\n      pop\n        /* \"#utility.yul\":11166:11545   */\n      swap2\n      swap1\n      pop\n      jump\t// out\n        /* \"#utility.yul\":11551:11730   */\n    tag_253:\n        /* \"#utility.yul\":11691:11722   */\n      0x5472616e73666572206f6620636f6c6c61746572616c206661696c6564000000\n        /* \"#utility.yul\":11687:11688   */\n      0x00\n        /* \"#utility.yul\":11679:11685   */\n      dup3\n        /* \"#utility.yul\":11675:11689   */\n      add\n        /* \"#utility.yul\":11668:11723   */\n      mstore\n        /* \"#utility.yul\":11551:11730   */\n      pop\n      jump\t// out\n        /* \"#utility.yul\":11736:12102   */\n    tag_254:\n        /* \"#utility.yul\":11878:11881   */\n      0x00\n        /* \"#utility.yul\":11899:11966   */\n      tag_401\n        /* \"#utility.yul\":11963:11965   */\n      0x1d\n        /* \"#utility.yul\":11958:11961   */\n      dup4\n        /* \"#utility.yul\":11899:11966   */\n      tag_219\n      jump\t// in\n    tag_401:\n        /* \"#utility.yul\":11892:11966   */\n      swap2\n      pop\n        /* \"#utility.yul\":11975:12068   */\n      tag_402\n        /* \"#utility.yul\":12064:12067   */\n      dup3\n        /* \"#utility.yul\":11975:12068   */\n      tag_253\n      jump\t// in\n    tag_402:\n        /* \"#utility.yul\":12093:12095   */\n      0x20\n        /* \"#utility.yul\":12088:12091   */\n      dup3\n        /* \"#utility.yul\":12084:12096   */\n      add\n        /* \"#utility.yul\":12077:12096   */\n      swap1\n      pop\n        /* \"#utility.yul\":11736:12102   */\n      swap2\n      swap1\n      pop\n      jump\t// out\n        /* \"#utility.yul\":12108:12527   */\n    tag_153:\n        /* \"#utility.yul\":12274:12278   */\n      0x00\n        /* \"#utility.yul\":12312:12314   */\n      0x20\n        /* \"#utility.yul\":12301:12310   */\n      dup3\n        /* \"#utility.yul\":12297:12315   */\n      add\n        /* \"#utility.yul\":12289:12315   */\n      swap1\n      pop\n        /* \"#utility.yul\":12361:12370   */\n      dup2\n        /* \"#utility.yul\":12355:12359   */\n      dup2\n        /* \"#utility.yul\":12351:12371   */\n      sub\n        /* \"#utility.yul\":12347:12348   */\n      0x00\n        /* \"#utility.yul\":12336:12345   */\n      dup4\n        /* \"#utility.yul\":12332:12349   */\n      add\n        /* \"#utility.yul\":12325:12372   */\n      mstore\n        /* \"#utility.yul\":12389:12520   */\n      tag_404\n        /* \"#utility.yul\":12515:12519   */\n      dup2\n        /* \"#utility.yul\":12389:12520   */\n      tag_254\n      jump\t// in\n    tag_404:\n        /* \"#utility.yul\":12381:12520   */\n      swap1\n      pop\n        /* \"#utility.yul\":12108:12527   */\n      swap2\n      swap1\n      pop\n      jump\t// out\n        /* \"#utility.yul\":12533:12712   */\n    tag_255:\n        /* \"#utility.yul\":12673:12704   */\n      0x4d7573742070726f7669646520636f6c6c61746572616c202845544829000000\n        /* \"#utility.yul\":12669:12670   */\n      0x00\n        /* \"#utility.yul\":12661:12667   */\n      dup3\n        /* \"#utility.yul\":12657:12671   */\n      add\n        /* \"#utility.yul\":12650:12705   */\n      mstore\n        /* \"#utility.yul\":12533:12712   */\n      pop\n      jump\t// out\n        /* \"#utility.yul\":12718:13084   */\n    tag_256:\n        /* \"#utility.yul\":12860:12863   */\n      0x00\n        /* \"#utility.yul\":12881:12948   */\n      tag_407\n        /* \"#utility.yul\":12945:12947   */\n      0x1d\n        /* \"#utility.yul\":12940:12943   */\n      dup4\n        /* \"#utility.yul\":12881:12948   */\n      tag_219\n      jump\t// in\n    tag_407:\n        /* \"#utility.yul\":12874:12948   */\n      swap2\n      pop\n        /* \"#utility.yul\":12957:13050   */\n      tag_408\n        /* \"#utility.yul\":13046:13049   */\n      dup3\n        /* \"#utility.yul\":12957:13050   */\n      tag_255\n      jump\t// in\n    tag_408:\n        /* \"#utility.yul\":13075:13077   */\n      0x20\n        /* \"#utility.yul\":13070:13073   */\n      dup3\n        /* \"#utility.yul\":13066:13078   */\n      add\n        /* \"#utility.yul\":13059:13078   */\n      swap1\n      pop\n        /* \"#utility.yul\":12718:13084   */\n      swap2\n      swap1\n      pop\n      jump\t// out\n        /* \"#utility.yul\":13090:13509   */\n    tag_158:\n        /* \"#utility.yul\":13256:13260   */\n      0x00\n        /* \"#utility.yul\":13294:13296   */\n      0x20\n        /* \"#utility.yul\":13283:13292   */\n      dup3\n        /* \"#utility.yul\":13279:13297   */\n      add\n        /* \"#utility.yul\":13271:13297   */\n      swap1\n      pop\n        /* \"#utility.yul\":13343:13352   */\n      dup2\n        /* \"#utility.yul\":13337:13341   */\n      dup2\n        /* \"#utility.yul\":13333:13353   */\n      sub\n        /* \"#utility.yul\":13329:13330   */\n      0x00\n        /* \"#utility.yul\":13318:13327   */\n      dup4\n        /* \"#utility.yul\":13314:13331   */\n      add\n        /* \"#utility.yul\":13307:13354   */\n      mstore\n        /* \"#utility.yul\":13371:13502   */\n      tag_410\n        /* \"#utility.yul\":13497:13501   */\n      dup2\n        /* \"#utility.yul\":13371:13502   */\n      tag_256\n      jump\t// in\n    tag_410:\n        /* \"#utility.yul\":13363:13502   */\n      swap1\n      pop\n        /* \"#utility.yul\":13090:13509   */\n      swap2\n      swap1\n      pop\n      jump\t// out\n        /* \"#utility.yul\":13515:13688   */\n    tag_257:\n        /* \"#utility.yul\":13655:13680   */\n      0x496e73756666696369656e7420636f6c6c61746572616c000000000000000000\n        /* \"#utility.yul\":13651:13652   */\n      0x00\n        /* \"#utility.yul\":13643:13649   */\n      dup3\n        /* \"#utility.yul\":13639:13653   */\n      add\n        /* \"#utility.yul\":13632:13681   */\n      mstore\n        /* \"#utility.yul\":13515:13688   */\n      pop\n      jump\t// out\n        /* \"#utility.yul\":13694:14060   */\n    tag_258:\n        /* \"#utility.yul\":13836:13839   */\n      0x00\n        /* \"#utility.yul\":13857:13924   */\n      tag_413\n        /* \"#utility.yul\":13921:13923   */\n      0x17\n        /* \"#utility.yul\":13916:13919   */\n      dup4\n        /* \"#utility.yul\":13857:13924   */\n      tag_219\n      jump\t// in\n    tag_413:\n        /* \"#utility.yul\":13850:13924   */\n      swap2\n      pop\n        /* \"#utility.yul\":13933:14026   */\n      tag_414\n        /* \"#utility.yul\":14022:14025   */\n      dup3\n        /* \"#utility.yul\":13933:14026   */\n      tag_257\n      jump\t// in\n    tag_414:\n        /* \"#utility.yul\":14051:14053   */\n      0x20\n        /* \"#utility.yul\":14046:14049   */\n      dup3\n        /* \"#utility.yul\":14042:14054   */\n      add\n        /* \"#utility.yul\":14035:14054   */\n      swap1\n      pop\n        /* \"#utility.yul\":13694:14060   */\n      swap2\n      swap1\n      pop\n      jump\t// out\n        /* \"#utility.yul\":14066:14485   */\n    tag_163:\n        /* \"#utility.yul\":14232:14236   */\n      0x00\n        /* \"#utility.yul\":14270:14272   */\n      0x20\n        /* \"#utility.yul\":14259:14268   */\n      dup3\n        /* \"#utility.yul\":14255:14273   */\n      add\n        /* \"#utility.yul\":14247:14273   */\n      swap1\n      pop\n        /* \"#utility.yul\":14319:14328   */\n      dup2\n        /* \"#utility.yul\":14313:14317   */\n      dup2\n        /* \"#utility.yul\":14309:14329   */\n      sub\n        /* \"#utility.yul\":14305:14306   */\n      0x00\n        /* \"#utility.yul\":14294:14303   */\n      dup4\n        /* \"#utility.yul\":14290:14307   */\n      add\n        /* \"#utility.yul\":14283:14330   */\n      mstore\n        /* \"#utility.yul\":14347:14478   */\n      tag_416\n        /* \"#utility.yul\":14473:14477   */\n      dup2\n        /* \"#utility.yul\":14347:14478   */\n      tag_258\n      jump\t// in\n    tag_416:\n        /* \"#utility.yul\":14339:14478   */\n      swap1\n      pop\n        /* \"#utility.yul\":14066:14485   */\n      swap2\n      swap1\n      pop\n      jump\t// out\n        /* \"#utility.yul\":14491:14716   */\n    tag_259:\n        /* \"#utility.yul\":14631:14665   */\n      0x4f776e61626c653a206e6577206f776e657220697320746865207a65726f2061\n        /* \"#utility.yul\":14627:14628   */\n      0x00\n        /* \"#utility.yul\":14619:14625   */\n      dup3\n        /* \"#utility.yul\":14615:14629   */\n      add\n        /* \"#utility.yul\":14608:14666   */\n      mstore\n        /* \"#utility.yul\":14700:14708   */\n      0x6464726573730000000000000000000000000000000000000000000000000000\n        /* \"#utility.yul\":14695:14697   */\n      0x20\n        /* \"#utility.yul\":14687:14693   */\n      dup3\n        /* \"#utility.yul\":14683:14698   */\n      add\n        /* \"#utility.yul\":14676:14709   */\n      mstore\n        /* \"#utility.yul\":14491:14716   */\n      pop\n      jump\t// out\n        /* \"#utility.yul\":14722:15088   */\n    tag_260:\n        /* \"#utility.yul\":14864:14867   */\n      0x00\n        /* \"#utility.yul\":14885:14952   */\n      tag_419\n        /* \"#utility.yul\":14949:14951   */\n      0x26\n        /* \"#utility.yul\":14944:14947   */\n      dup4\n        /* \"#utility.yul\":14885:14952   */\n      tag_219\n      jump\t// in\n    tag_419:\n        /* \"#utility.yul\":14878:14952   */\n      swap2\n      pop\n        /* \"#utility.yul\":14961:15054   */\n      tag_420\n        /* \"#utility.yul\":15050:15053   */\n      dup3\n        /* \"#utility.yul\":14961:15054   */\n      tag_259\n      jump\t// in\n    tag_420:\n        /* \"#utility.yul\":15079:15081   */\n      0x40\n        /* \"#utility.yul\":15074:15077   */\n      dup3\n        /* \"#utility.yul\":15070:15082   */\n      add\n        /* \"#utility.yul\":15063:15082   */\n      swap1\n      pop\n        /* \"#utility.yul\":14722:15088   */\n      swap2\n      swap1\n      pop\n      jump\t// out\n        /* \"#utility.yul\":15094:15513   */\n    tag_174:\n        /* \"#utility.yul\":15260:15264   */\n      0x00\n        /* \"#utility.yul\":15298:15300   */\n      0x20\n        /* \"#utility.yul\":15287:15296   */\n      dup3\n        /* \"#utility.yul\":15283:15301   */\n      add\n        /* \"#utility.yul\":15275:15301   */\n      swap1\n      pop\n        /* \"#utility.yul\":15347:15356   */\n      dup2\n        /* \"#utility.yul\":15341:15345   */\n      dup2\n        /* \"#utility.yul\":15337:15357   */\n      sub\n        /* \"#utility.yul\":15333:15334   */\n      0x00\n        /* \"#utility.yul\":15322:15331   */\n      dup4\n        /* \"#utility.yul\":15318:15335   */\n      add\n        /* \"#utility.yul\":15311:15358   */\n      mstore\n        /* \"#utility.yul\":15375:15506   */\n      tag_422\n        /* \"#utility.yul\":15501:15505   */\n      dup2\n        /* \"#utility.yul\":15375:15506   */\n      tag_260\n      jump\t// in\n    tag_422:\n        /* \"#utility.yul\":15367:15506   */\n      swap1\n      pop\n        /* \"#utility.yul\":15094:15513   */\n      swap2\n      swap1\n      pop\n      jump\t// out\n        /* \"#utility.yul\":15519:15742   */\n    tag_261:\n        /* \"#utility.yul\":15659:15693   */\n      0x45524332303a20617070726f76652066726f6d20746865207a65726f20616464\n        /* \"#utility.yul\":15655:15656   */\n      0x00\n        /* \"#utility.yul\":15647:15653   */\n      dup3\n        /* \"#utility.yul\":15643:15657   */\n      add\n        /* \"#utility.yul\":15636:15694   */\n      mstore\n        /* \"#utility.yul\":15728:15734   */\n      0x7265737300000000000000000000000000000000000000000000000000000000\n        /* \"#utility.yul\":15723:15725   */\n      0x20\n        /* \"#utility.yul\":15715:15721   */\n      dup3\n        /* \"#utility.yul\":15711:15726   */\n      add\n        /* \"#utility.yul\":15704:15735   */\n      mstore\n        /* \"#utility.yul\":15519:15742   */\n      pop\n      jump\t// out\n        /* \"#utility.yul\":15748:16114   */\n    tag_262:\n        /* \"#utility.yul\":15890:15893   */\n      0x00\n        /* \"#utility.yul\":15911:15978   */\n      tag_425\n        /* \"#utility.yul\":15975:15977   */\n      0x24\n        /* \"#utility.yul\":15970:15973   */\n      dup4\n        /* \"#utility.yul\":15911:15978   */\n      tag_219\n      jump\t// in\n    tag_425:\n        /* \"#utility.yul\":15904:15978   */\n      swap2\n      pop\n        /* \"#utility.yul\":15987:16080   */\n      tag_426\n        /* \"#utility.yul\":16076:16079   */\n      dup3\n        /* \"#utility.yul\":15987:16080   */\n      tag_261\n      jump\t// in\n    tag_426:\n        /* \"#utility.yul\":16105:16107   */\n      0x40\n        /* \"#utility.yul\":16100:16103   */\n      dup3\n        /* \"#utility.yul\":16096:16108   */\n      add\n        /* \"#utility.yul\":16089:16108   */\n      swap1\n      pop\n        /* \"#utility.yul\":15748:16114   */\n      swap2\n      swap1\n      pop\n      jump\t// out\n        /* \"#utility.yul\":16120:16539   */\n    tag_179:\n        /* \"#utility.yul\":16286:16290   */\n      0x00\n        /* \"#utility.yul\":16324:16326   */\n      0x20\n        /* \"#utility.yul\":16313:16322   */\n      dup3\n        /* \"#utility.yul\":16309:16327   */\n      add\n        /* \"#utility.yul\":16301:16327   */\n      swap1\n      pop\n        /* \"#utility.yul\":16373:16382   */\n      dup2\n        /* \"#utility.yul\":16367:16371   */\n      dup2\n        /* \"#utility.yul\":16363:16383   */\n      sub\n        /* \"#utility.yul\":16359:16360   */\n      0x00\n        /* \"#utility.yul\":16348:16357   */\n      dup4\n        /* \"#utility.yul\":16344:16361   */\n      add\n        /* \"#utility.yul\":16337:16384   */\n      mstore\n        /* \"#utility.yul\":16401:16532   */\n      tag_428\n        /* \"#utility.yul\":16527:16531   */\n      dup2\n        /* \"#utility.yul\":16401:16532   */\n      tag_262\n      jump\t// in\n    tag_428:\n        /* \"#utility.yul\":16393:16532   */\n      swap1\n      pop\n        /* \"#utility.yul\":16120:16539   */\n      swap2\n      swap1\n      pop\n      jump\t// out\n        /* \"#utility.yul\":16545:16766   */\n    tag_263:\n        /* \"#utility.yul\":16685:16719   */\n      0x45524332303a20617070726f766520746f20746865207a65726f206164647265\n        /* \"#utility.yul\":16681:16682   */\n      0x00\n        /* \"#utility.yul\":16673:16679   */\n      dup3\n        /* \"#utility.yul\":16669:16683   */\n      add\n        /* \"#utility.yul\":16662:16720   */\n      mstore\n        /* \"#utility.yul\":16754:16758   */\n      0x7373000000000000000000000000000000000000000000000000000000000000\n        /* \"#utility.yul\":16749:16751   */\n      0x20\n        /* \"#utility.yul\":16741:16747   */\n      dup3\n        /* \"#utility.yul\":16737:16752   */\n      add\n        /* \"#utility.yul\":16730:16759   */\n      mstore\n        /* \"#utility.yul\":16545:16766   */\n      pop\n      jump\t// out\n        /* \"#utility.yul\":16772:17138   */\n    tag_264:\n        /* \"#utility.yul\":16914:16917   */\n      0x00\n        /* \"#utility.yul\":16935:17002   */\n      tag_431\n        /* \"#utility.yul\":16999:17001   */\n      0x22\n        /* \"#utility.yul\":16994:16997   */\n      dup4\n        /* \"#utility.yul\":16935:17002   */\n      tag_219\n      jump\t// in\n    tag_431:\n        /* \"#utility.yul\":16928:17002   */\n      swap2\n      pop\n        /* \"#utility.yul\":17011:17104   */\n      tag_432\n        /* \"#utility.yul\":17100:17103   */\n      dup3\n        /* \"#utility.yul\":17011:17104   */\n      tag_263\n      jump\t// in\n    tag_432:\n        /* \"#utility.yul\":17129:17131   */\n      0x40\n        /* \"#utility.yul\":17124:17127   */\n      dup3\n        /* \"#utility.yul\":17120:17132   */\n      add\n        /* \"#utility.yul\":17113:17132   */\n      swap1\n      pop\n        /* \"#utility.yul\":16772:17138   */\n      swap2\n      swap1\n      pop\n      jump\t// out\n        /* \"#utility.yul\":17144:17563   */\n    tag_182:\n        /* \"#utility.yul\":17310:17314   */\n      0x00\n        /* \"#utility.yul\":17348:17350   */\n      0x20\n        /* \"#utility.yul\":17337:17346   */\n      dup3\n        /* \"#utility.yul\":17333:17351   */\n      add\n        /* \"#utility.yul\":17325:17351   */\n      swap1\n      pop\n        /* \"#utility.yul\":17397:17406   */\n      dup2\n        /* \"#utility.yul\":17391:17395   */\n      dup2\n        /* \"#utility.yul\":17387:17407   */\n      sub\n        /* \"#utility.yul\":17383:17384   */\n      0x00\n        /* \"#utility.yul\":17372:17381   */\n      dup4\n        /* \"#utility.yul\":17368:17385   */\n      add\n        /* \"#utility.yul\":17361:17408   */\n      mstore\n        /* \"#utility.yul\":17425:17556   */\n      tag_434\n        /* \"#utility.yul\":17551:17555   */\n      dup2\n        /* \"#utility.yul\":17425:17556   */\n      tag_264\n      jump\t// in\n    tag_434:\n        /* \"#utility.yul\":17417:17556   */\n      swap1\n      pop\n        /* \"#utility.yul\":17144:17563   */\n      swap2\n      swap1\n      pop\n      jump\t// out\n        /* \"#utility.yul\":17569:17751   */\n    tag_265:\n        /* \"#utility.yul\":17709:17743   */\n      0x4f776e61626c653a2063616c6c6572206973206e6f7420746865206f776e6572\n        /* \"#utility.yul\":17705:17706   */\n      0x00\n        /* \"#utility.yul\":17697:17703   */\n      dup3\n        /* \"#utility.yul\":17693:17707   */\n      add\n        /* \"#utility.yul\":17686:17744   */\n      mstore\n        /* \"#utility.yul\":17569:17751   */\n      pop\n      jump\t// out\n        /* \"#utility.yul\":17757:18123   */\n    tag_266:\n        /* \"#utility.yul\":17899:17902   */\n      0x00\n        /* \"#utility.yul\":17920:17987   */\n      tag_437\n        /* \"#utility.yul\":17984:17986   */\n      0x20\n        /* \"#utility.yul\":17979:17982   */\n      dup4\n        /* \"#utility.yul\":17920:17987   */\n      tag_219\n      jump\t// in\n    tag_437:\n        /* \"#utility.yul\":17913:17987   */\n      swap2\n      pop\n        /* \"#utility.yul\":17996:18089   */\n      tag_438\n        /* \"#utility.yul\":18085:18088   */\n      dup3\n        /* \"#utility.yul\":17996:18089   */\n      tag_265\n      jump\t// in\n    tag_438:\n        /* \"#utility.yul\":18114:18116   */\n      0x20\n        /* \"#utility.yul\":18109:18112   */\n      dup3\n        /* \"#utility.yul\":18105:18117   */\n      add\n        /* \"#utility.yul\":18098:18117   */\n      swap1\n      pop\n        /* \"#utility.yul\":17757:18123   */\n      swap2\n      swap1\n      pop\n      jump\t// out\n        /* \"#utility.yul\":18129:18548   */\n    tag_190:\n        /* \"#utility.yul\":18295:18299   */\n      0x00\n        /* \"#utility.yul\":18333:18335   */\n      0x20\n        /* \"#utility.yul\":18322:18331   */\n      dup3\n        /* \"#utility.yul\":18318:18336   */\n      add\n        /* \"#utility.yul\":18310:18336   */\n      swap1\n      pop\n        /* \"#utility.yul\":18382:18391   */\n      dup2\n        /* \"#utility.yul\":18376:18380   */\n      dup2\n        /* \"#utility.yul\":18372:18392   */\n      sub\n        /* \"#utility.yul\":18368:18369   */\n      0x00\n        /* \"#utility.yul\":18357:18366   */\n      dup4\n        /* \"#utility.yul\":18353:18370   */\n      add\n        /* \"#utility.yul\":18346:18393   */\n      mstore\n        /* \"#utility.yul\":18410:18541   */\n      tag_440\n        /* \"#utility.yul\":18536:18540   */\n      dup2\n        /* \"#utility.yul\":18410:18541   */\n      tag_266\n      jump\t// in\n    tag_440:\n        /* \"#utility.yul\":18402:18541   */\n      swap1\n      pop\n        /* \"#utility.yul\":18129:18548   */\n      swap2\n      swap1\n      pop\n      jump\t// out\n        /* \"#utility.yul\":18554:18778   */\n    tag_267:\n        /* \"#utility.yul\":18694:18728   */\n      0x45524332303a207472616e736665722066726f6d20746865207a65726f206164\n        /* \"#utility.yul\":18690:18691   */\n      0x00\n        /* \"#utility.yul\":18682:18688   */\n      dup3\n        /* \"#utility.yul\":18678:18692   */\n      add\n        /* \"#utility.yul\":18671:18729   */\n      mstore\n        /* \"#utility.yul\":18763:18770   */\n      0x6472657373000000000000000000000000000000000000000000000000000000\n        /* \"#utility.yul\":18758:18760   */\n      0x20\n        /* \"#utility.yul\":18750:18756   */\n      dup3\n        /* \"#utility.yul\":18746:18761   */\n      add\n        /* \"#utility.yul\":18739:18771   */\n      mstore\n        /* \"#utility.yul\":18554:18778   */\n      pop\n      jump\t// out\n        /* \"#utility.yul\":18784:19150   */\n    tag_268:\n        /* \"#utility.yul\":18926:18929   */\n      0x00\n        /* \"#utility.yul\":18947:19014   */\n      tag_443\n        /* \"#utility.yul\":19011:19013   */\n      0x25\n        /* \"#utility.yul\":19006:19009   */\n      dup4\n        /* \"#utility.yul\":18947:19014   */\n      tag_219\n      jump\t// in\n    tag_443:\n        /* \"#utility.yul\":18940:19014   */\n      swap2\n      pop\n        /* \"#utility.yul\":19023:19116   */\n      tag_444\n        /* \"#utility.yul\":19112:19115   */\n      dup3\n        /* \"#utility.yul\":19023:19116   */\n      tag_267\n      jump\t// in\n    tag_444:\n        /* \"#utility.yul\":19141:19143   */\n      0x40\n        /* \"#utility.yul\":19136:19139   */\n      dup3\n        /* \"#utility.yul\":19132:19144   */\n      add\n        /* \"#utility.yul\":19125:19144   */\n      swap1\n      pop\n        /* \"#utility.yul\":18784:19150   */\n      swap2\n      swap1\n      pop\n      jump\t// out\n        /* \"#utility.yul\":19156:19575   */\n    tag_194:\n        /* \"#utility.yul\":19322:19326   */\n      0x00\n        /* \"#utility.yul\":19360:19362   */\n      0x20\n        /* \"#utility.yul\":19349:19358   */\n      dup3\n        /* \"#utility.yul\":19345:19363   */\n      add\n        /* \"#utility.yul\":19337:19363   */\n      swap1\n      pop\n        /* \"#utility.yul\":19409:19418   */\n      dup2\n        /* \"#utility.yul\":19403:19407   */\n      dup2\n        /* \"#utility.yul\":19399:19419   */\n      sub\n        /* \"#utility.yul\":19395:19396   */\n      0x00\n        /* \"#utility.yul\":19384:19393   */\n      dup4\n        /* \"#utility.yul\":19380:19397   */\n      add\n        /* \"#utility.yul\":19373:19420   */\n      mstore\n        /* \"#utility.yul\":19437:19568   */\n      tag_446\n        /* \"#utility.yul\":19563:19567   */\n      dup2\n        /* \"#utility.yul\":19437:19568   */\n      tag_268\n      jump\t// in\n    tag_446:\n        /* \"#utility.yul\":19429:19568   */\n      swap1\n      pop\n        /* \"#utility.yul\":19156:19575   */\n      swap2\n      swap1\n      pop\n      jump\t// out\n        /* \"#utility.yul\":19581:19803   */\n    tag_269:\n        /* \"#utility.yul\":19721:19755   */\n      0x45524332303a207472616e7366657220746f20746865207a65726f2061646472\n        /* \"#utility.yul\":19717:19718   */\n      0x00\n        /* \"#utility.yul\":19709:19715   */\n      dup3\n        /* \"#utility.yul\":19705:19719   */\n      add\n        /* \"#utility.yul\":19698:19756   */\n      mstore\n        /* \"#utility.yul\":19790:19795   */\n      0x6573730000000000000000000000000000000000000000000000000000000000\n        /* \"#utility.yul\":19785:19787   */\n      0x20\n        /* \"#utility.yul\":19777:19783   */\n      dup3\n        /* \"#utility.yul\":19773:19788   */\n      add\n        /* \"#utility.yul\":19766:19796   */\n      mstore\n        /* \"#utility.yul\":19581:19803   */\n      pop\n      jump\t// out\n        /* \"#utility.yul\":19809:20175   */\n    tag_270:\n        /* \"#utility.yul\":19951:19954   */\n      0x00\n        /* \"#utility.yul\":19972:20039   */\n      tag_449\n        /* \"#utility.yul\":20036:20038   */\n      0x23\n        /* \"#utility.yul\":20031:20034   */\n      dup4\n        /* \"#utility.yul\":19972:20039   */\n      tag_219\n      jump\t// in\n    tag_449:\n        /* \"#utility.yul\":19965:20039   */\n      swap2\n      pop\n        /* \"#utility.yul\":20048:20141   */\n      tag_450\n        /* \"#utility.yul\":20137:20140   */\n      dup3\n        /* \"#utility.yul\":20048:20141   */\n      tag_269\n      jump\t// in\n    tag_450:\n        /* \"#utility.yul\":20166:20168   */\n      0x40\n        /* \"#utility.yul\":20161:20164   */\n      dup3\n        /* \"#utility.yul\":20157:20169   */\n      add\n        /* \"#utility.yul\":20150:20169   */\n      swap1\n      pop\n        /* \"#utility.yul\":19809:20175   */\n      swap2\n      swap1\n      pop\n      jump\t// out\n        /* \"#utility.yul\":20181:20600   */\n    tag_197:\n        /* \"#utility.yul\":20347:20351   */\n      0x00\n        /* \"#utility.yul\":20385:20387   */\n      0x20\n        /* \"#utility.yul\":20374:20383   */\n      dup3\n        /* \"#utility.yul\":20370:20388   */\n      add\n        /* \"#utility.yul\":20362:20388   */\n      swap1\n      pop\n        /* \"#utility.yul\":20434:20443   */\n      dup2\n        /* \"#utility.yul\":20428:20432   */\n      dup2\n        /* \"#utility.yul\":20424:20444   */\n      sub\n        /* \"#utility.yul\":20420:20421   */\n      0x00\n        /* \"#utility.yul\":20409:20418   */\n      dup4\n        /* \"#utility.yul\":20405:20422   */\n      add\n        /* \"#utility.yul\":20398:20445   */\n      mstore\n        /* \"#utility.yul\":20462:20593   */\n      tag_452\n        /* \"#utility.yul\":20588:20592   */\n      dup2\n        /* \"#utility.yul\":20462:20593   */\n      tag_270\n      jump\t// in\n    tag_452:\n        /* \"#utility.yul\":20454:20593   */\n      swap1\n      pop\n        /* \"#utility.yul\":20181:20600   */\n      swap2\n      swap1\n      pop\n      jump\t// out\n        /* \"#utility.yul\":20606:20911   */\n    tag_200:\n        /* \"#utility.yul\":20646:20649   */\n      0x00\n        /* \"#utility.yul\":20665:20685   */\n      tag_454\n        /* \"#utility.yul\":20683:20684   */\n      dup3\n        /* \"#utility.yul\":20665:20685   */\n      tag_230\n      jump\t// in\n    tag_454:\n        /* \"#utility.yul\":20660:20685   */\n      swap2\n      pop\n        /* \"#utility.yul\":20699:20719   */\n      tag_455\n        /* \"#utility.yul\":20717:20718   */\n      dup4\n        /* \"#utility.yul\":20699:20719   */\n      tag_230\n      jump\t// in\n    tag_455:\n        /* \"#utility.yul\":20694:20719   */\n      swap3\n      pop\n        /* \"#utility.yul\":20853:20854   */\n      dup3\n        /* \"#utility.yul\":20785:20851   */\n      0xffffffffffffffffffffffffffffffffffffffffffffffffffffffffffffffff\n        /* \"#utility.yul\":20781:20855   */\n      sub\n        /* \"#utility.yul\":20778:20779   */\n      dup3\n        /* \"#utility.yul\":20775:20856   */\n      gt\n        /* \"#utility.yul\":20772:20879   */\n      iszero\n      tag_456\n      jumpi\n        /* \"#utility.yul\":20859:20877   */\n      tag_457\n      tag_246\n      jump\t// in\n    tag_457:\n        /* \"#utility.yul\":20772:20879   */\n    tag_456:\n        /* \"#utility.yul\":20903:20904   */\n      dup3\n        /* \"#utility.yul\":20900:20901   */\n      dup3\n        /* \"#utility.yul\":20896:20905   */\n      add\n        /* \"#utility.yul\":20889:20905   */\n      swap1\n      pop\n        /* \"#utility.yul\":20606:20911   */\n      swap3\n      swap2\n      pop\n      pop\n      jump\t// out\n        /* \"#utility.yul\":20917:21098   */\n    tag_271:\n        /* \"#utility.yul\":21057:21090   */\n      0x45524332303a206d696e7420746f20746865207a65726f206164647265737300\n        /* \"#utility.yul\":21053:21054   */\n      0x00\n        /* \"#utility.yul\":21045:21051   */\n      dup3\n        /* \"#utility.yul\":21041:21055   */\n      add\n        /* \"#utility.yul\":21034:21091   */\n      mstore\n        /* \"#utility.yul\":20917:21098   */\n      pop\n      jump\t// out\n        /* \"#utility.yul\":21104:21470   */\n    tag_272:\n        /* \"#utility.yul\":21246:21249   */\n      0x00\n        /* \"#utility.yul\":21267:21334   */\n      tag_460\n        /* \"#utility.yul\":21331:21333   */\n      0x1f\n        /* \"#utility.yul\":21326:21329   */\n      dup4\n        /* \"#utility.yul\":21267:21334   */\n      tag_219\n      jump\t// in\n    tag_460:\n        /* \"#utility.yul\":21260:21334   */\n      swap2\n      pop\n        /* \"#utility.yul\":21343:21436   */\n      tag_461\n        /* \"#utility.yul\":21432:21435   */\n      dup3\n        /* \"#utility.yul\":21343:21436   */\n      tag_271\n      jump\t// in\n    tag_461:\n        /* \"#utility.yul\":21461:21463   */\n      0x20\n        /* \"#utility.yul\":21456:21459   */\n      dup3\n        /* \"#utility.yul\":21452:21464   */\n      add\n        /* \"#utility.yul\":21445:21464   */\n      swap1\n      pop\n        /* \"#utility.yul\":21104:21470   */\n      swap2\n      swap1\n      pop\n      jump\t// out\n        /* \"#utility.yul\":21476:21895   */\n    tag_205:\n        /* \"#utility.yul\":21642:21646   */\n      0x00\n        /* \"#utility.yul\":21680:21682   */\n      0x20\n        /* \"#utility.yul\":21669:21678   */\n      dup3\n        /* \"#utility.yul\":21665:21683   */\n      add\n        /* \"#utility.yul\":21657:21683   */\n      swap1\n      pop\n        /* \"#utility.yul\":21729:21738   */\n      dup2\n        /* \"#utility.yul\":21723:21727   */\n      dup2\n        /* \"#utility.yul\":21719:21739   */\n      sub\n        /* \"#utility.yul\":21715:21716   */\n      0x00\n        /* \"#utility.yul\":21704:21713   */\n      dup4\n        /* \"#utility.yul\":21700:21717   */\n      add\n        /* \"#utility.yul\":21693:21740   */\n      mstore\n        /* \"#utility.yul\":21757:21888   */\n      tag_463\n        /* \"#utility.yul\":21883:21887   */\n      dup2\n        /* \"#utility.yul\":21757:21888   */\n      tag_272\n      jump\t// in\n    tag_463:\n        /* \"#utility.yul\":21749:21888   */\n      swap1\n      pop\n        /* \"#utility.yul\":21476:21895   */\n      swap2\n      swap1\n      pop\n      jump\t// out\n        /* \"#utility.yul\":21901:22121   */\n    tag_273:\n        /* \"#utility.yul\":22041:22075   */\n      0x45524332303a206275726e2066726f6d20746865207a65726f20616464726573\n        /* \"#utility.yul\":22037:22038   */\n      0x00\n        /* \"#utility.yul\":22029:22035   */\n      dup3\n        /* \"#utility.yul\":22025:22039   */\n      add\n        /* \"#utility.yul\":22018:22076   */\n      mstore\n        /* \"#utility.yul\":22110:22113   */\n      0x7300000000000000000000000000000000000000000000000000000000000000\n        /* \"#utility.yul\":22105:22107   */\n      0x20\n        /* \"#utility.yul\":22097:22103   */\n      dup3\n        /* \"#utility.yul\":22093:22108   */\n      add\n        /* \"#utility.yul\":22086:22114   */\n      mstore\n        /* \"#utility.yul\":21901:22121   */\n      pop\n      jump\t// out\n        /* \"#utility.yul\":22127:22493   */\n    tag_274:\n        /* \"#utility.yul\":22269:22272   */\n      0x00\n        /* \"#utility.yul\":22290:22357   */\n      tag_466\n        /* \"#utility.yul\":22354:22356   */\n      0x21\n        /* \"#utility.yul\":22349:22352   */\n      dup4\n        /* \"#utility.yul\":22290:22357   */\n      tag_219\n      jump\t// in\n    tag_466:\n        /* \"#utility.yul\":22283:22357   */\n      swap2\n      pop\n        /* \"#utility.yul\":22366:22459   */\n      tag_467\n        /* \"#utility.yul\":22455:22458   */\n      dup3\n        /* \"#utility.yul\":22366:22459   */\n      tag_273\n      jump\t// in\n    tag_467:\n        /* \"#utility.yul\":22484:22486   */\n      0x40\n        /* \"#utility.yul\":22479:22482   */\n      dup3\n        /* \"#utility.yul\":22475:22487   */\n      add\n        /* \"#utility.yul\":22468:22487   */\n      swap1\n      pop\n        /* \"#utility.yul\":22127:22493   */\n      swap2\n      swap1\n      pop\n      jump\t// out\n        /* \"#utility.yul\":22499:22918   */\n    tag_213:\n        /* \"#utility.yul\":22665:22669   */\n      0x00\n        /* \"#utility.yul\":22703:22705   */\n      0x20\n        /* \"#utility.yul\":22692:22701   */\n      dup3\n        /* \"#utility.yul\":22688:22706   */\n      add\n        /* \"#utility.yul\":22680:22706   */\n      swap1\n      pop\n        /* \"#utility.yul\":22752:22761   */\n      dup2\n        /* \"#utility.yul\":22746:22750   */\n      dup2\n        /* \"#utility.yul\":22742:22762   */\n      sub\n        /* \"#utility.yul\":22738:22739   */\n      0x00\n        /* \"#utility.yul\":22727:22736   */\n      dup4\n        /* \"#utility.yul\":22723:22740   */\n      add\n        /* \"#utility.yul\":22716:22763   */\n      mstore\n        /* \"#utility.yul\":22780:22911   */\n      tag_469\n        /* \"#utility.yul\":22906:22910   */\n      dup2\n        /* \"#utility.yul\":22780:22911   */\n      tag_274\n      jump\t// in\n    tag_469:\n        /* \"#utility.yul\":22772:22911   */\n      swap1\n      pop\n        /* \"#utility.yul\":22499:22918   */\n      swap2\n      swap1\n      pop\n      jump\t// out\n\n    auxdata: 0xa2646970667358221220cfd6b0fdb361cdd1c51358dd490f8e09551a4dc56b40da975b8d8c296aeb0ee764736f6c63430008090033\n}\n",
				"bytecode": {
					"linkReferences": {},
					"object": "608060405234801561001057600080fd5b5061002d61002261003260201b60201c565b61003a60201b60201c565b6100fe565b600033905090565b60008060009054906101000a900473ffffffffffffffffffffffffffffffffffffffff169050816000806101000a81548173ffffffffffffffffffffffffffffffffffffffff021916908373ffffffffffffffffffffffffffffffffffffffff1602179055508173ffffffffffffffffffffffffffffffffffffffff168173ffffffffffffffffffffffffffffffffffffffff167f8be0079c531659141344cd1fd0a4f28419497f9722a3daafe3b4186f6b6457e060405160405180910390a35050565b611ea58061010d6000396000f3fe6080604052600436106101095760003560e01c8063715018a61161009557806395d89b411161006457806395d89b411461034a578063a9059cbb14610375578063d9e69a05146103b2578063dd62ed3e146103dd578063f2fde38b1461041a57610109565b8063715018a6146102c35780638da5cb5b146102da5780638f58a8b41461030557806395a9fc2f1461032e57610109565b806318160ddd116100dc57806318160ddd146101ca57806323b872dd146101f5578063313ce5671461023257806355313a7b1461025d57806370a082311461028657610109565b806306fdde031461010e578063095ea7b3146101395780630ca373281461017657806316a54af01461019f575b600080fd5b34801561011a57600080fd5b50610123610443565b604051610130919061130d565b60405180910390f35b34801561014557600080fd5b50610160600480360381019061015b91906113c8565b61047c565b60405161016d9190611423565b60405180910390f35b34801561018257600080fd5b5061019d6004803603810190610198919061143e565b610493565b005b3480156101ab57600080fd5b506101b461054f565b6040516101c191906114ca565b60405180910390f35b3480156101d657600080fd5b506101df610575565b6040516101ec91906114f4565b60405180910390f35b34801561020157600080fd5b5061021c6004803603810190610217919061150f565b61057f565b6040516102299190611423565b60405180910390f35b34801561023e57600080fd5b50610247610629565b604051610254919061157e565b60405180910390f35b34801561026957600080fd5b50610284600480360381019061027f91906113c8565b61062e565b005b34801561029257600080fd5b506102ad60048036038101906102a8919061143e565b6106cc565b6040516102ba91906114f4565b60405180910390f35b3480156102cf57600080fd5b506102d8610715565b005b3480156102e657600080fd5b506102ef610729565b6040516102fc91906115a8565b60405180910390f35b34801561031157600080fd5b5061032c600480360381019061032791906115c3565b610752565b005b610348600480360381019061034391906115c3565b610878565b005b34801561035657600080fd5b5061035f610977565b60405161036c919061130d565b60405180910390f35b34801561038157600080fd5b5061039c600480360381019061039791906113c8565b6109b0565b6040516103a99190611423565b60405180910390f35b3480156103be57600080fd5b506103c76109c7565b6040516103d491906114f4565b60405180910390f35b3480156103e957600080fd5b5061040460048036038101906103ff91906115f0565b6109cc565b60405161041191906114f4565b60405180910390f35b34801561042657600080fd5b50610441600480360381019061043c919061143e565b610a53565b005b6040518060400160405280600981526020017f53696d706c65444149000000000000000000000000000000000000000000000081525081565b6000610489338484610ad7565b6001905092915050565b61049b610ca2565b600073ffffffffffffffffffffffffffffffffffffffff168173ffffffffffffffffffffffffffffffffffffffff16141561050b576040517f08c379a00000000000000000000000000000000000000000000000000000000081526004016105029061167c565b60405180910390fd5b80600160006101000a81548173ffffffffffffffffffffffffffffffffffffffff021916908373ffffffffffffffffffffffffffffffffffffffff16021790555050565b600160009054906101000a900473ffffffffffffffffffffffffffffffffffffffff1681565b6000600454905090565b600061058c848484610d20565b61061e843384600360008973ffffffffffffffffffffffffffffffffffffffff1673ffffffffffffffffffffffffffffffffffffffff16815260200190815260200160002060003373ffffffffffffffffffffffffffffffffffffffff1673ffffffffffffffffffffffffffffffffffffffff1681526020019081526020016000205461061991906116cb565b610ad7565b600190509392505050565b601281565b600160009054906101000a900473ffffffffffffffffffffffffffffffffffffffff1673ffffffffffffffffffffffffffffffffffffffff163373ffffffffffffffffffffffffffffffffffffffff16146106be576040517f08c379a00000000000000000000000000000000000000000000000000000000081526004016106b590611771565b60405180910390fd5b6106c88282610f16565b5050565b6000600260008373ffffffffffffffffffffffffffffffffffffffff1673ffffffffffffffffffffffffffffffffffffffff168152602001908152602001600020549050919050565b61071d610ca2565b610727600061105f565b565b60008060009054906101000a900473ffffffffffffffffffffffffffffffffffffffff16905090565b61075c3382611123565b6000600454478361076d9190611791565b610777919061181a565b905060003373ffffffffffffffffffffffffffffffffffffffff168260405161079f9061187c565b60006040518083038185875af1925050503d80600081146107dc576040519150601f19603f3d011682016040523d82523d6000602084013e6107e1565b606091505b5050905080610825576040517f08c379a000000000000000000000000000000000000000000000000000000000815260040161081c906118dd565b60405180910390fd5b3373ffffffffffffffffffffffffffffffffffffffff167fcc16f5dbb4873280815c1ee09dbd06736cffcc184412cf7a71a0fdb75d397ca58460405161086b91906114f4565b60405180910390a2505050565b600034116108bb576040517f08c379a00000000000000000000000000000000000000000000000000000000081526004016108b290611949565b60405180910390fd5b600060646096836108cc9190611791565b6108d6919061181a565b90508034101561091b576040517f08c379a0000000000000000000000000000000000000000000000000000000008152600401610912906119b5565b60405180910390fd5b6109253383610f16565b3373ffffffffffffffffffffffffffffffffffffffff167f0f6798a560793a54c3bcfe86a93cde1e73087d944c0ea20544137d41213968858360405161096b91906114f4565b60405180910390a25050565b6040518060400160405280600481526020017f734441490000000000000000000000000000000000000000000000000000000081525081565b60006109bd338484610d20565b6001905092915050565b609681565b6000600360008473ffffffffffffffffffffffffffffffffffffffff1673ffffffffffffffffffffffffffffffffffffffff16815260200190815260200160002060008373ffffffffffffffffffffffffffffffffffffffff1673ffffffffffffffffffffffffffffffffffffffff16815260200190815260200160002054905092915050565b610a5b610ca2565b600073ffffffffffffffffffffffffffffffffffffffff168173ffffffffffffffffffffffffffffffffffffffff161415610acb576040517f08c379a0000000000000000000000000000000000000000000000000000000008152600401610ac290611a47565b60405180910390fd5b610ad48161105f565b50565b600073ffffffffffffffffffffffffffffffffffffffff168373ffffffffffffffffffffffffffffffffffffffff161415610b47576040517f08c379a0000000000000000000000000000000000000000000000000000000008152600401610b3e90611ad9565b60405180910390fd5b600073ffffffffffffffffffffffffffffffffffffffff168273ffffffffffffffffffffffffffffffffffffffff161415610bb7576040517f08c379a0000000000000000000000000000000000000000000000000000000008152600401610bae90611b6b565b60405180910390fd5b80600360008573ffffffffffffffffffffffffffffffffffffffff1673ffffffffffffffffffffffffffffffffffffffff16815260200190815260200160002060008473ffffffffffffffffffffffffffffffffffffffff1673ffffffffffffffffffffffffffffffffffffffff168152602001908152602001600020819055508173ffffffffffffffffffffffffffffffffffffffff168373ffffffffffffffffffffffffffffffffffffffff167f8c5be1e5ebec7d5bd14f71427d1e84f3dd0314c0f7b2291e5b200ac8c7c3b92583604051610c9591906114f4565b60405180910390a3505050565b610caa61126c565b73ffffffffffffffffffffffffffffffffffffffff16610cc8610729565b73ffffffffffffffffffffffffffffffffffffffff1614610d1e576040517f08c379a0000000000000000000000000000000000000000000000000000000008152600401610d1590611bd7565b60405180910390fd5b565b600073ffffffffffffffffffffffffffffffffffffffff168373ffffffffffffffffffffffffffffffffffffffff161415610d90576040517f08c379a0000000000000000000000000000000000000000000000000000000008152600401610d8790611c69565b60405180910390fd5b600073ffffffffffffffffffffffffffffffffffffffff168273ffffffffffffffffffffffffffffffffffffffff161415610e00576040517f08c379a0000000000000000000000000000000000000000000000000000000008152600401610df790611cfb565b60405180910390fd5b80600260008573ffffffffffffffffffffffffffffffffffffffff1673ffffffffffffffffffffffffffffffffffffffff1681526020019081526020016000206000828254610e4f91906116cb565b9250508190555080600260008473ffffffffffffffffffffffffffffffffffffffff1673ffffffffffffffffffffffffffffffffffffffff1681526020019081526020016000206000828254610ea59190611d1b565b925050819055508173ffffffffffffffffffffffffffffffffffffffff168373ffffffffffffffffffffffffffffffffffffffff167fddf252ad1be2c89b69c2b068fc378daa952ba7f163c4a11628f55a4df523b3ef83604051610f0991906114f4565b60405180910390a3505050565b600073ffffffffffffffffffffffffffffffffffffffff168273ffffffffffffffffffffffffffffffffffffffff161415610f86576040517f08c379a0000000000000000000000000000000000000000000000000000000008152600401610f7d90611dbd565b60405180910390fd5b8060046000828254610f989190611d1b565b9250508190555080600260008473ffffffffffffffffffffffffffffffffffffffff1673ffffffffffffffffffffffffffffffffffffffff1681526020019081526020016000206000828254610fee9190611d1b565b925050819055508173ffffffffffffffffffffffffffffffffffffffff16600073ffffffffffffffffffffffffffffffffffffffff167fddf252ad1be2c89b69c2b068fc378daa952ba7f163c4a11628f55a4df523b3ef8360405161105391906114f4565b60405180910390a35050565b60008060009054906101000a900473ffffffffffffffffffffffffffffffffffffffff169050816000806101000a81548173ffffffffffffffffffffffffffffffffffffffff021916908373ffffffffffffffffffffffffffffffffffffffff1602179055508173ffffffffffffffffffffffffffffffffffffffff168173ffffffffffffffffffffffffffffffffffffffff167f8be0079c531659141344cd1fd0a4f28419497f9722a3daafe3b4186f6b6457e060405160405180910390a35050565b600073ffffffffffffffffffffffffffffffffffffffff168273ffffffffffffffffffffffffffffffffffffffff161415611193576040517f08c379a000000000000000000000000000000000000000000000000000000000815260040161118a90611e4f565b60405180910390fd5b80600260008473ffffffffffffffffffffffffffffffffffffffff1673ffffffffffffffffffffffffffffffffffffffff16815260200190815260200160002060008282546111e291906116cb565b9250508190555080600460008282546111fb91906116cb565b92505081905550600073ffffffffffffffffffffffffffffffffffffffff168273ffffffffffffffffffffffffffffffffffffffff167fddf252ad1be2c89b69c2b068fc378daa952ba7f163c4a11628f55a4df523b3ef8360405161126091906114f4565b60405180910390a35050565b600033905090565b600081519050919050565b600082825260208201905092915050565b60005b838110156112ae578082015181840152602081019050611293565b838111156112bd576000848401525b50505050565b6000601f19601f8301169050919050565b60006112df82611274565b6112e9818561127f565b93506112f9818560208601611290565b611302816112c3565b840191505092915050565b6000602082019050818103600083015261132781846112d4565b905092915050565b600080fd5b600073ffffffffffffffffffffffffffffffffffffffff82169050919050565b600061135f82611334565b9050919050565b61136f81611354565b811461137a57600080fd5b50565b60008135905061138c81611366565b92915050565b6000819050919050565b6113a581611392565b81146113b057600080fd5b50565b6000813590506113c28161139c565b92915050565b600080604083850312156113df576113de61132f565b5b60006113ed8582860161137d565b92505060206113fe858286016113b3565b9150509250929050565b60008115159050919050565b61141d81611408565b82525050565b60006020820190506114386000830184611414565b92915050565b6000602082840312156114545761145361132f565b5b60006114628482850161137d565b91505092915050565b6000819050919050565b600061149061148b61148684611334565b61146b565b611334565b9050919050565b60006114a282611475565b9050919050565b60006114b482611497565b9050919050565b6114c4816114a9565b82525050565b60006020820190506114df60008301846114bb565b92915050565b6114ee81611392565b82525050565b600060208201905061150960008301846114e5565b92915050565b6000806000606084860312156115285761152761132f565b5b60006115368682870161137d565b93505060206115478682870161137d565b9250506040611558868287016113b3565b9150509250925092565b600060ff82169050919050565b61157881611562565b82525050565b6000602082019050611593600083018461156f565b92915050565b6115a281611354565b82525050565b60006020820190506115bd6000830184611599565b92915050565b6000602082840312156115d9576115d861132f565b5b60006115e7848285016113b3565b91505092915050565b600080604083850312156116075761160661132f565b5b60006116158582860161137d565b92505060206116268582860161137d565b9150509250929050565b7f496e76616c696420616464726573730000000000000000000000000000000000600082015250565b6000611666600f8361127f565b915061167182611630565b602082019050919050565b6000602082019050818103600083015261169581611659565b9050919050565b7f4e487b7100000000000000000000000000000000000000000000000000000000600052601160045260246000fd5b60006116d682611392565b91506116e183611392565b9250828210156116f4576116f361169c565b5b828203905092915050565b7f4f6e6c79205072654275726e5072654d696e7420636f6e74726163742063616e60008201527f206d696e7420776974686f757420636f6c6c61746572616c0000000000000000602082015250565b600061175b60388361127f565b9150611766826116ff565b604082019050919050565b6000602082019050818103600083015261178a8161174e565b9050919050565b600061179c82611392565b91506117a783611392565b9250817fffffffffffffffffffffffffffffffffffffffffffffffffffffffffffffffff04831182151516156117e0576117df61169c565b5b828202905092915050565b7f4e487b7100000000000000000000000000000000000000000000000000000000600052601260045260246000fd5b600061182582611392565b915061183083611392565b9250826118405761183f6117eb565b5b828204905092915050565b600081905092915050565b50565b600061186660008361184b565b915061187182611856565b600082019050919050565b600061188782611859565b9150819050919050565b7f5472616e73666572206f6620636f6c6c61746572616c206661696c6564000000600082015250565b60006118c7601d8361127f565b91506118d282611891565b602082019050919050565b600060208201905081810360008301526118f6816118ba565b9050919050565b7f4d7573742070726f7669646520636f6c6c61746572616c202845544829000000600082015250565b6000611933601d8361127f565b915061193e826118fd565b602082019050919050565b6000602082019050818103600083015261196281611926565b9050919050565b7f496e73756666696369656e7420636f6c6c61746572616c000000000000000000600082015250565b600061199f60178361127f565b91506119aa82611969565b602082019050919050565b600060208201905081810360008301526119ce81611992565b9050919050565b7f4f776e61626c653a206e6577206f776e657220697320746865207a65726f206160008201527f6464726573730000000000000000000000000000000000000000000000000000602082015250565b6000611a3160268361127f565b9150611a3c826119d5565b604082019050919050565b60006020820190508181036000830152611a6081611a24565b9050919050565b7f45524332303a20617070726f76652066726f6d20746865207a65726f2061646460008201527f7265737300000000000000000000000000000000000000000000000000000000602082015250565b6000611ac360248361127f565b9150611ace82611a67565b604082019050919050565b60006020820190508181036000830152611af281611ab6565b9050919050565b7f45524332303a20617070726f766520746f20746865207a65726f20616464726560008201527f7373000000000000000000000000000000000000000000000000000000000000602082015250565b6000611b5560228361127f565b9150611b6082611af9565b604082019050919050565b60006020820190508181036000830152611b8481611b48565b9050919050565b7f4f776e61626c653a2063616c6c6572206973206e6f7420746865206f776e6572600082015250565b6000611bc160208361127f565b9150611bcc82611b8b565b602082019050919050565b60006020820190508181036000830152611bf081611bb4565b9050919050565b7f45524332303a207472616e736665722066726f6d20746865207a65726f20616460008201527f6472657373000000000000000000000000000000000000000000000000000000602082015250565b6000611c5360258361127f565b9150611c5e82611bf7565b604082019050919050565b60006020820190508181036000830152611c8281611c46565b9050919050565b7f45524332303a207472616e7366657220746f20746865207a65726f206164647260008201527f6573730000000000000000000000000000000000000000000000000000000000602082015250565b6000611ce560238361127f565b9150611cf082611c89565b604082019050919050565b60006020820190508181036000830152611d1481611cd8565b9050919050565b6000611d2682611392565b9150611d3183611392565b9250827fffffffffffffffffffffffffffffffffffffffffffffffffffffffffffffffff03821115611d6657611d6561169c565b5b828201905092915050565b7f45524332303a206d696e7420746f20746865207a65726f206164647265737300600082015250565b6000611da7601f8361127f565b9150611db282611d71565b602082019050919050565b60006020820190508181036000830152611dd681611d9a565b9050919050565b7f45524332303a206275726e2066726f6d20746865207a65726f2061646472657360008201527f7300000000000000000000000000000000000000000000000000000000000000602082015250565b6000611e3960218361127f565b9150611e4482611ddd565b604082019050919050565b60006020820190508181036000830152611e6881611e2c565b905091905056fea2646970667358221220cfd6b0fdb361cdd1c51358dd490f8e09551a4dc56b40da975b8d8c296aeb0ee764736f6c63430008090033",
					"opcodes": "PUSH1 0x80 PUSH1 0x40 MSTORE CALLVALUE DUP1 ISZERO PUSH2 0x10 JUMPI PUSH1 0x0 DUP1 REVERT JUMPDEST POP PUSH2 0x2D PUSH2 0x22 PUSH2 0x32 PUSH1 0x20 SHL PUSH1 0x20 SHR JUMP JUMPDEST PUSH2 0x3A PUSH1 0x20 SHL PUSH1 0x20 SHR JUMP JUMPDEST PUSH2 0xFE JUMP JUMPDEST PUSH1 0x0 CALLER SWAP1 POP SWAP1 JUMP JUMPDEST PUSH1 0x0 DUP1 PUSH1 0x0 SWAP1 SLOAD SWAP1 PUSH2 0x100 EXP SWAP1 DIV PUSH20 0xFFFFFFFFFFFFFFFFFFFFFFFFFFFFFFFFFFFFFFFF AND SWAP1 POP DUP2 PUSH1 0x0 DUP1 PUSH2 0x100 EXP DUP2 SLOAD DUP2 PUSH20 0xFFFFFFFFFFFFFFFFFFFFFFFFFFFFFFFFFFFFFFFF MUL NOT AND SWAP1 DUP4 PUSH20 0xFFFFFFFFFFFFFFFFFFFFFFFFFFFFFFFFFFFFFFFF AND MUL OR SWAP1 SSTORE POP DUP2 PUSH20 0xFFFFFFFFFFFFFFFFFFFFFFFFFFFFFFFFFFFFFFFF AND DUP2 PUSH20 0xFFFFFFFFFFFFFFFFFFFFFFFFFFFFFFFFFFFFFFFF AND PUSH32 0x8BE0079C531659141344CD1FD0A4F28419497F9722A3DAAFE3B4186F6B6457E0 PUSH1 0x40 MLOAD PUSH1 0x40 MLOAD DUP1 SWAP2 SUB SWAP1 LOG3 POP POP JUMP JUMPDEST PUSH2 0x1EA5 DUP1 PUSH2 0x10D PUSH1 0x0 CODECOPY PUSH1 0x0 RETURN INVALID PUSH1 0x80 PUSH1 0x40 MSTORE PUSH1 0x4 CALLDATASIZE LT PUSH2 0x109 JUMPI PUSH1 0x0 CALLDATALOAD PUSH1 0xE0 SHR DUP1 PUSH4 0x715018A6 GT PUSH2 0x95 JUMPI DUP1 PUSH4 0x95D89B41 GT PUSH2 0x64 JUMPI DUP1 PUSH4 0x95D89B41 EQ PUSH2 0x34A JUMPI DUP1 PUSH4 0xA9059CBB EQ PUSH2 0x375 JUMPI DUP1 PUSH4 0xD9E69A05 EQ PUSH2 0x3B2 JUMPI DUP1 PUSH4 0xDD62ED3E EQ PUSH2 0x3DD JUMPI DUP1 PUSH4 0xF2FDE38B EQ PUSH2 0x41A JUMPI PUSH2 0x109 JUMP JUMPDEST DUP1 PUSH4 0x715018A6 EQ PUSH2 0x2C3 JUMPI DUP1 PUSH4 0x8DA5CB5B EQ PUSH2 0x2DA JUMPI DUP1 PUSH4 0x8F58A8B4 EQ PUSH2 0x305 JUMPI DUP1 PUSH4 0x95A9FC2F EQ PUSH2 0x32E JUMPI PUSH2 0x109 JUMP JUMPDEST DUP1 PUSH4 0x18160DDD GT PUSH2 0xDC JUMPI DUP1 PUSH4 0x18160DDD EQ PUSH2 0x1CA JUMPI DUP1 PUSH4 0x23B872DD EQ PUSH2 0x1F5 JUMPI DUP1 PUSH4 0x313CE567 EQ PUSH2 0x232 JUMPI DUP1 PUSH4 0x55313A7B EQ PUSH2 0x25D JUMPI DUP1 PUSH4 0x70A08231 EQ PUSH2 0x286 JUMPI PUSH2 0x109 JUMP JUMPDEST DUP1 PUSH4 0x6FDDE03 EQ PUSH2 0x10E JUMPI DUP1 PUSH4 0x95EA7B3 EQ PUSH2 0x139 JUMPI DUP1 PUSH4 0xCA37328 EQ PUSH2 0x176 JUMPI DUP1 PUSH4 0x16A54AF0 EQ PUSH2 0x19F JUMPI JUMPDEST PUSH1 0x0 DUP1 REVERT JUMPDEST CALLVALUE DUP1 ISZERO PUSH2 0x11A JUMPI PUSH1 0x0 DUP1 REVERT JUMPDEST POP PUSH2 0x123 PUSH2 0x443 JUMP JUMPDEST PUSH1 0x40 MLOAD PUSH2 0x130 SWAP2 SWAP1 PUSH2 0x130D JUMP JUMPDEST PUSH1 0x40 MLOAD DUP1 SWAP2 SUB SWAP1 RETURN JUMPDEST CALLVALUE DUP1 ISZERO PUSH2 0x145 JUMPI PUSH1 0x0 DUP1 REVERT JUMPDEST POP PUSH2 0x160 PUSH1 0x4 DUP1 CALLDATASIZE SUB DUP2 ADD SWAP1 PUSH2 0x15B SWAP2 SWAP1 PUSH2 0x13C8 JUMP JUMPDEST PUSH2 0x47C JUMP JUMPDEST PUSH1 0x40 MLOAD PUSH2 0x16D SWAP2 SWAP1 PUSH2 0x1423 JUMP JUMPDEST PUSH1 0x40 MLOAD DUP1 SWAP2 SUB SWAP1 RETURN JUMPDEST CALLVALUE DUP1 ISZERO PUSH2 0x182 JUMPI PUSH1 0x0 DUP1 REVERT JUMPDEST POP PUSH2 0x19D PUSH1 0x4 DUP1 CALLDATASIZE SUB DUP2 ADD SWAP1 PUSH2 0x198 SWAP2 SWAP1 PUSH2 0x143E JUMP JUMPDEST PUSH2 0x493 JUMP JUMPDEST STOP JUMPDEST CALLVALUE DUP1 ISZERO PUSH2 0x1AB JUMPI PUSH1 0x0 DUP1 REVERT JUMPDEST POP PUSH2 0x1B4 PUSH2 0x54F JUMP JUMPDEST PUSH1 0x40 MLOAD PUSH2 0x1C1 SWAP2 SWAP1 PUSH2 0x14CA JUMP JUMPDEST PUSH1 0x40 MLOAD DUP1 SWAP2 SUB SWAP1 RETURN JUMPDEST CALLVALUE DUP1 ISZERO PUSH2 0x1D6 JUMPI PUSH1 0x0 DUP1 REVERT JUMPDEST POP PUSH2 0x1DF PUSH2 0x575 JUMP JUMPDEST PUSH1 0x40 MLOAD PUSH2 0x1EC SWAP2 SWAP1 PUSH2 0x14F4 JUMP JUMPDEST PUSH1 0x40 MLOAD DUP1 SWAP2 SUB SWAP1 RETURN JUMPDEST CALLVALUE DUP1 ISZERO PUSH2 0x201 JUMPI PUSH1 0x0 DUP1 REVERT JUMPDEST POP PUSH2 0x21C PUSH1 0x4 DUP1 CALLDATASIZE SUB DUP2 ADD SWAP1 PUSH2 0x217 SWAP2 SWAP1 PUSH2 0x150F JUMP JUMPDEST PUSH2 0x57F JUMP JUMPDEST PUSH1 0x40 MLOAD PUSH2 0x229 SWAP2 SWAP1 PUSH2 0x1423 JUMP JUMPDEST PUSH1 0x40 MLOAD DUP1 SWAP2 SUB SWAP1 RETURN JUMPDEST CALLVALUE DUP1 ISZERO PUSH2 0x23E JUMPI PUSH1 0x0 DUP1 REVERT JUMPDEST POP PUSH2 0x247 PUSH2 0x629 JUMP JUMPDEST PUSH1 0x40 MLOAD PUSH2 0x254 SWAP2 SWAP1 PUSH2 0x157E JUMP JUMPDEST PUSH1 0x40 MLOAD DUP1 SWAP2 SUB SWAP1 RETURN JUMPDEST CALLVALUE DUP1 ISZERO PUSH2 0x269 JUMPI PUSH1 0x0 DUP1 REVERT JUMPDEST POP PUSH2 0x284 PUSH1 0x4 DUP1 CALLDATASIZE SUB DUP2 ADD SWAP1 PUSH2 0x27F SWAP2 SWAP1 PUSH2 0x13C8 JUMP JUMPDEST PUSH2 0x62E JUMP JUMPDEST STOP JUMPDEST CALLVALUE DUP1 ISZERO PUSH2 0x292 JUMPI PUSH1 0x0 DUP1 REVERT JUMPDEST POP PUSH2 0x2AD PUSH1 0x4 DUP1 CALLDATASIZE SUB DUP2 ADD SWAP1 PUSH2 0x2A8 SWAP2 SWAP1 PUSH2 0x143E JUMP JUMPDEST PUSH2 0x6CC JUMP JUMPDEST PUSH1 0x40 MLOAD PUSH2 0x2BA SWAP2 SWAP1 PUSH2 0x14F4 JUMP JUMPDEST PUSH1 0x40 MLOAD DUP1 SWAP2 SUB SWAP1 RETURN JUMPDEST CALLVALUE DUP1 ISZERO PUSH2 0x2CF JUMPI PUSH1 0x0 DUP1 REVERT JUMPDEST POP PUSH2 0x2D8 PUSH2 0x715 JUMP JUMPDEST STOP JUMPDEST CALLVALUE DUP1 ISZERO PUSH2 0x2E6 JUMPI PUSH1 0x0 DUP1 REVERT JUMPDEST POP PUSH2 0x2EF PUSH2 0x729 JUMP JUMPDEST PUSH1 0x40 MLOAD PUSH2 0x2FC SWAP2 SWAP1 PUSH2 0x15A8 JUMP JUMPDEST PUSH1 0x40 MLOAD DUP1 SWAP2 SUB SWAP1 RETURN JUMPDEST CALLVALUE DUP1 ISZERO PUSH2 0x311 JUMPI PUSH1 0x0 DUP1 REVERT JUMPDEST POP PUSH2 0x32C PUSH1 0x4 DUP1 CALLDATASIZE SUB DUP2 ADD SWAP1 PUSH2 0x327 SWAP2 SWAP1 PUSH2 0x15C3 JUMP JUMPDEST PUSH2 0x752 JUMP JUMPDEST STOP JUMPDEST PUSH2 0x348 PUSH1 0x4 DUP1 CALLDATASIZE SUB DUP2 ADD SWAP1 PUSH2 0x343 SWAP2 SWAP1 PUSH2 0x15C3 JUMP JUMPDEST PUSH2 0x878 JUMP JUMPDEST STOP JUMPDEST CALLVALUE DUP1 ISZERO PUSH2 0x356 JUMPI PUSH1 0x0 DUP1 REVERT JUMPDEST POP PUSH2 0x35F PUSH2 0x977 JUMP JUMPDEST PUSH1 0x40 MLOAD PUSH2 0x36C SWAP2 SWAP1 PUSH2 0x130D JUMP JUMPDEST PUSH1 0x40 MLOAD DUP1 SWAP2 SUB SWAP1 RETURN JUMPDEST CALLVALUE DUP1 ISZERO PUSH2 0x381 JUMPI PUSH1 0x0 DUP1 REVERT JUMPDEST POP PUSH2 0x39C PUSH1 0x4 DUP1 CALLDATASIZE SUB DUP2 ADD SWAP1 PUSH2 0x397 SWAP2 SWAP1 PUSH2 0x13C8 JUMP JUMPDEST PUSH2 0x9B0 JUMP JUMPDEST PUSH1 0x40 MLOAD PUSH2 0x3A9 SWAP2 SWAP1 PUSH2 0x1423 JUMP JUMPDEST PUSH1 0x40 MLOAD DUP1 SWAP2 SUB SWAP1 RETURN JUMPDEST CALLVALUE DUP1 ISZERO PUSH2 0x3BE JUMPI PUSH1 0x0 DUP1 REVERT JUMPDEST POP PUSH2 0x3C7 PUSH2 0x9C7 JUMP JUMPDEST PUSH1 0x40 MLOAD PUSH2 0x3D4 SWAP2 SWAP1 PUSH2 0x14F4 JUMP JUMPDEST PUSH1 0x40 MLOAD DUP1 SWAP2 SUB SWAP1 RETURN JUMPDEST CALLVALUE DUP1 ISZERO PUSH2 0x3E9 JUMPI PUSH1 0x0 DUP1 REVERT JUMPDEST POP PUSH2 0x404 PUSH1 0x4 DUP1 CALLDATASIZE SUB DUP2 ADD SWAP1 PUSH2 0x3FF SWAP2 SWAP1 PUSH2 0x15F0 JUMP JUMPDEST PUSH2 0x9CC JUMP JUMPDEST PUSH1 0x40 MLOAD PUSH2 0x411 SWAP2 SWAP1 PUSH2 0x14F4 JUMP JUMPDEST PUSH1 0x40 MLOAD DUP1 SWAP2 SUB SWAP1 RETURN JUMPDEST CALLVALUE DUP1 ISZERO PUSH2 0x426 JUMPI PUSH1 0x0 DUP1 REVERT JUMPDEST POP PUSH2 0x441 PUSH1 0x4 DUP1 CALLDATASIZE SUB DUP2 ADD SWAP1 PUSH2 0x43C SWAP2 SWAP1 PUSH2 0x143E JUMP JUMPDEST PUSH2 0xA53 JUMP JUMPDEST STOP JUMPDEST PUSH1 0x40 MLOAD DUP1 PUSH1 0x40 ADD PUSH1 0x40 MSTORE DUP1 PUSH1 0x9 DUP2 MSTORE PUSH1 0x20 ADD PUSH32 0x53696D706C654441490000000000000000000000000000000000000000000000 DUP2 MSTORE POP DUP2 JUMP JUMPDEST PUSH1 0x0 PUSH2 0x489 CALLER DUP5 DUP5 PUSH2 0xAD7 JUMP JUMPDEST PUSH1 0x1 SWAP1 POP SWAP3 SWAP2 POP POP JUMP JUMPDEST PUSH2 0x49B PUSH2 0xCA2 JUMP JUMPDEST PUSH1 0x0 PUSH20 0xFFFFFFFFFFFFFFFFFFFFFFFFFFFFFFFFFFFFFFFF AND DUP2 PUSH20 0xFFFFFFFFFFFFFFFFFFFFFFFFFFFFFFFFFFFFFFFF AND EQ ISZERO PUSH2 0x50B JUMPI PUSH1 0x40 MLOAD PUSH32 0x8C379A000000000000000000000000000000000000000000000000000000000 DUP2 MSTORE PUSH1 0x4 ADD PUSH2 0x502 SWAP1 PUSH2 0x167C JUMP JUMPDEST PUSH1 0x40 MLOAD DUP1 SWAP2 SUB SWAP1 REVERT JUMPDEST DUP1 PUSH1 0x1 PUSH1 0x0 PUSH2 0x100 EXP DUP2 SLOAD DUP2 PUSH20 0xFFFFFFFFFFFFFFFFFFFFFFFFFFFFFFFFFFFFFFFF MUL NOT AND SWAP1 DUP4 PUSH20 0xFFFFFFFFFFFFFFFFFFFFFFFFFFFFFFFFFFFFFFFF AND MUL OR SWAP1 SSTORE POP POP JUMP JUMPDEST PUSH1 0x1 PUSH1 0x0 SWAP1 SLOAD SWAP1 PUSH2 0x100 EXP SWAP1 DIV PUSH20 0xFFFFFFFFFFFFFFFFFFFFFFFFFFFFFFFFFFFFFFFF AND DUP2 JUMP JUMPDEST PUSH1 0x0 PUSH1 0x4 SLOAD SWAP1 POP SWAP1 JUMP JUMPDEST PUSH1 0x0 PUSH2 0x58C DUP5 DUP5 DUP5 PUSH2 0xD20 JUMP JUMPDEST PUSH2 0x61E DUP5 CALLER DUP5 PUSH1 0x3 PUSH1 0x0 DUP10 PUSH20 0xFFFFFFFFFFFFFFFFFFFFFFFFFFFFFFFFFFFFFFFF AND PUSH20 0xFFFFFFFFFFFFFFFFFFFFFFFFFFFFFFFFFFFFFFFF AND DUP2 MSTORE PUSH1 0x20 ADD SWAP1 DUP2 MSTORE PUSH1 0x20 ADD PUSH1 0x0 KECCAK256 PUSH1 0x0 CALLER PUSH20 0xFFFFFFFFFFFFFFFFFFFFFFFFFFFFFFFFFFFFFFFF AND PUSH20 0xFFFFFFFFFFFFFFFFFFFFFFFFFFFFFFFFFFFFFFFF AND DUP2 MSTORE PUSH1 0x20 ADD SWAP1 DUP2 MSTORE PUSH1 0x20 ADD PUSH1 0x0 KECCAK256 SLOAD PUSH2 0x619 SWAP2 SWAP1 PUSH2 0x16CB JUMP JUMPDEST PUSH2 0xAD7 JUMP JUMPDEST PUSH1 0x1 SWAP1 POP SWAP4 SWAP3 POP POP POP JUMP JUMPDEST PUSH1 0x12 DUP2 JUMP JUMPDEST PUSH1 0x1 PUSH1 0x0 SWAP1 SLOAD SWAP1 PUSH2 0x100 EXP SWAP1 DIV PUSH20 0xFFFFFFFFFFFFFFFFFFFFFFFFFFFFFFFFFFFFFFFF AND PUSH20 0xFFFFFFFFFFFFFFFFFFFFFFFFFFFFFFFFFFFFFFFF AND CALLER PUSH20 0xFFFFFFFFFFFFFFFFFFFFFFFFFFFFFFFFFFFFFFFF AND EQ PUSH2 0x6BE JUMPI PUSH1 0x40 MLOAD PUSH32 0x8C379A000000000000000000000000000000000000000000000000000000000 DUP2 MSTORE PUSH1 0x4 ADD PUSH2 0x6B5 SWAP1 PUSH2 0x1771 JUMP JUMPDEST PUSH1 0x40 MLOAD DUP1 SWAP2 SUB SWAP1 REVERT JUMPDEST PUSH2 0x6C8 DUP3 DUP3 PUSH2 0xF16 JUMP JUMPDEST POP POP JUMP JUMPDEST PUSH1 0x0 PUSH1 0x2 PUSH1 0x0 DUP4 PUSH20 0xFFFFFFFFFFFFFFFFFFFFFFFFFFFFFFFFFFFFFFFF AND PUSH20 0xFFFFFFFFFFFFFFFFFFFFFFFFFFFFFFFFFFFFFFFF AND DUP2 MSTORE PUSH1 0x20 ADD SWAP1 DUP2 MSTORE PUSH1 0x20 ADD PUSH1 0x0 KECCAK256 SLOAD SWAP1 POP SWAP2 SWAP1 POP JUMP JUMPDEST PUSH2 0x71D PUSH2 0xCA2 JUMP JUMPDEST PUSH2 0x727 PUSH1 0x0 PUSH2 0x105F JUMP JUMPDEST JUMP JUMPDEST PUSH1 0x0 DUP1 PUSH1 0x0 SWAP1 SLOAD SWAP1 PUSH2 0x100 EXP SWAP1 DIV PUSH20 0xFFFFFFFFFFFFFFFFFFFFFFFFFFFFFFFFFFFFFFFF AND SWAP1 POP SWAP1 JUMP JUMPDEST PUSH2 0x75C CALLER DUP3 PUSH2 0x1123 JUMP JUMPDEST PUSH1 0x0 PUSH1 0x4 SLOAD SELFBALANCE DUP4 PUSH2 0x76D SWAP2 SWAP1 PUSH2 0x1791 JUMP JUMPDEST PUSH2 0x777 SWAP2 SWAP1 PUSH2 0x181A JUMP JUMPDEST SWAP1 POP PUSH1 0x0 CALLER PUSH20 0xFFFFFFFFFFFFFFFFFFFFFFFFFFFFFFFFFFFFFFFF AND DUP3 PUSH1 0x40 MLOAD PUSH2 0x79F SWAP1 PUSH2 0x187C JUMP JUMPDEST PUSH1 0x0 PUSH1 0x40 MLOAD DUP1 DUP4 SUB DUP2 DUP6 DUP8 GAS CALL SWAP3 POP POP POP RETURNDATASIZE DUP1 PUSH1 0x0 DUP2 EQ PUSH2 0x7DC JUMPI PUSH1 0x40 MLOAD SWAP2 POP PUSH1 0x1F NOT PUSH1 0x3F RETURNDATASIZE ADD AND DUP3 ADD PUSH1 0x40 MSTORE RETURNDATASIZE DUP3 MSTORE RETURNDATASIZE PUSH1 0x0 PUSH1 0x20 DUP5 ADD RETURNDATACOPY PUSH2 0x7E1 JUMP JUMPDEST PUSH1 0x60 SWAP2 POP JUMPDEST POP POP SWAP1 POP DUP1 PUSH2 0x825 JUMPI PUSH1 0x40 MLOAD PUSH32 0x8C379A000000000000000000000000000000000000000000000000000000000 DUP2 MSTORE PUSH1 0x4 ADD PUSH2 0x81C SWAP1 PUSH2 0x18DD JUMP JUMPDEST PUSH1 0x40 MLOAD DUP1 SWAP2 SUB SWAP1 REVERT JUMPDEST CALLER PUSH20 0xFFFFFFFFFFFFFFFFFFFFFFFFFFFFFFFFFFFFFFFF AND PUSH32 0xCC16F5DBB4873280815C1EE09DBD06736CFFCC184412CF7A71A0FDB75D397CA5 DUP5 PUSH1 0x40 MLOAD PUSH2 0x86B SWAP2 SWAP1 PUSH2 0x14F4 JUMP JUMPDEST PUSH1 0x40 MLOAD DUP1 SWAP2 SUB SWAP1 LOG2 POP POP POP JUMP JUMPDEST PUSH1 0x0 CALLVALUE GT PUSH2 0x8BB JUMPI PUSH1 0x40 MLOAD PUSH32 0x8C379A000000000000000000000000000000000000000000000000000000000 DUP2 MSTORE PUSH1 0x4 ADD PUSH2 0x8B2 SWAP1 PUSH2 0x1949 JUMP JUMPDEST PUSH1 0x40 MLOAD DUP1 SWAP2 SUB SWAP1 REVERT JUMPDEST PUSH1 0x0 PUSH1 0x64 PUSH1 0x96 DUP4 PUSH2 0x8CC SWAP2 SWAP1 PUSH2 0x1791 JUMP JUMPDEST PUSH2 0x8D6 SWAP2 SWAP1 PUSH2 0x181A JUMP JUMPDEST SWAP1 POP DUP1 CALLVALUE LT ISZERO PUSH2 0x91B JUMPI PUSH1 0x40 MLOAD PUSH32 0x8C379A000000000000000000000000000000000000000000000000000000000 DUP2 MSTORE PUSH1 0x4 ADD PUSH2 0x912 SWAP1 PUSH2 0x19B5 JUMP JUMPDEST PUSH1 0x40 MLOAD DUP1 SWAP2 SUB SWAP1 REVERT JUMPDEST PUSH2 0x925 CALLER DUP4 PUSH2 0xF16 JUMP JUMPDEST CALLER PUSH20 0xFFFFFFFFFFFFFFFFFFFFFFFFFFFFFFFFFFFFFFFF AND PUSH32 0xF6798A560793A54C3BCFE86A93CDE1E73087D944C0EA20544137D4121396885 DUP4 PUSH1 0x40 MLOAD PUSH2 0x96B SWAP2 SWAP1 PUSH2 0x14F4 JUMP JUMPDEST PUSH1 0x40 MLOAD DUP1 SWAP2 SUB SWAP1 LOG2 POP POP JUMP JUMPDEST PUSH1 0x40 MLOAD DUP1 PUSH1 0x40 ADD PUSH1 0x40 MSTORE DUP1 PUSH1 0x4 DUP2 MSTORE PUSH1 0x20 ADD PUSH32 0x7344414900000000000000000000000000000000000000000000000000000000 DUP2 MSTORE POP DUP2 JUMP JUMPDEST PUSH1 0x0 PUSH2 0x9BD CALLER DUP5 DUP5 PUSH2 0xD20 JUMP JUMPDEST PUSH1 0x1 SWAP1 POP SWAP3 SWAP2 POP POP JUMP JUMPDEST PUSH1 0x96 DUP2 JUMP JUMPDEST PUSH1 0x0 PUSH1 0x3 PUSH1 0x0 DUP5 PUSH20 0xFFFFFFFFFFFFFFFFFFFFFFFFFFFFFFFFFFFFFFFF AND PUSH20 0xFFFFFFFFFFFFFFFFFFFFFFFFFFFFFFFFFFFFFFFF AND DUP2 MSTORE PUSH1 0x20 ADD SWAP1 DUP2 MSTORE PUSH1 0x20 ADD PUSH1 0x0 KECCAK256 PUSH1 0x0 DUP4 PUSH20 0xFFFFFFFFFFFFFFFFFFFFFFFFFFFFFFFFFFFFFFFF AND PUSH20 0xFFFFFFFFFFFFFFFFFFFFFFFFFFFFFFFFFFFFFFFF AND DUP2 MSTORE PUSH1 0x20 ADD SWAP1 DUP2 MSTORE PUSH1 0x20 ADD PUSH1 0x0 KECCAK256 SLOAD SWAP1 POP SWAP3 SWAP2 POP POP JUMP JUMPDEST PUSH2 0xA5B PUSH2 0xCA2 JUMP JUMPDEST PUSH1 0x0 PUSH20 0xFFFFFFFFFFFFFFFFFFFFFFFFFFFFFFFFFFFFFFFF AND DUP2 PUSH20 0xFFFFFFFFFFFFFFFFFFFFFFFFFFFFFFFFFFFFFFFF AND EQ ISZERO PUSH2 0xACB JUMPI PUSH1 0x40 MLOAD PUSH32 0x8C379A000000000000000000000000000000000000000000000000000000000 DUP2 MSTORE PUSH1 0x4 ADD PUSH2 0xAC2 SWAP1 PUSH2 0x1A47 JUMP JUMPDEST PUSH1 0x40 MLOAD DUP1 SWAP2 SUB SWAP1 REVERT JUMPDEST PUSH2 0xAD4 DUP2 PUSH2 0x105F JUMP JUMPDEST POP JUMP JUMPDEST PUSH1 0x0 PUSH20 0xFFFFFFFFFFFFFFFFFFFFFFFFFFFFFFFFFFFFFFFF AND DUP4 PUSH20 0xFFFFFFFFFFFFFFFFFFFFFFFFFFFFFFFFFFFFFFFF AND EQ ISZERO PUSH2 0xB47 JUMPI PUSH1 0x40 MLOAD PUSH32 0x8C379A000000000000000000000000000000000000000000000000000000000 DUP2 MSTORE PUSH1 0x4 ADD PUSH2 0xB3E SWAP1 PUSH2 0x1AD9 JUMP JUMPDEST PUSH1 0x40 MLOAD DUP1 SWAP2 SUB SWAP1 REVERT JUMPDEST PUSH1 0x0 PUSH20 0xFFFFFFFFFFFFFFFFFFFFFFFFFFFFFFFFFFFFFFFF AND DUP3 PUSH20 0xFFFFFFFFFFFFFFFFFFFFFFFFFFFFFFFFFFFFFFFF AND EQ ISZERO PUSH2 0xBB7 JUMPI PUSH1 0x40 MLOAD PUSH32 0x8C379A000000000000000000000000000000000000000000000000000000000 DUP2 MSTORE PUSH1 0x4 ADD PUSH2 0xBAE SWAP1 PUSH2 0x1B6B JUMP JUMPDEST PUSH1 0x40 MLOAD DUP1 SWAP2 SUB SWAP1 REVERT JUMPDEST DUP1 PUSH1 0x3 PUSH1 0x0 DUP6 PUSH20 0xFFFFFFFFFFFFFFFFFFFFFFFFFFFFFFFFFFFFFFFF AND PUSH20 0xFFFFFFFFFFFFFFFFFFFFFFFFFFFFFFFFFFFFFFFF AND DUP2 MSTORE PUSH1 0x20 ADD SWAP1 DUP2 MSTORE PUSH1 0x20 ADD PUSH1 0x0 KECCAK256 PUSH1 0x0 DUP5 PUSH20 0xFFFFFFFFFFFFFFFFFFFFFFFFFFFFFFFFFFFFFFFF AND PUSH20 0xFFFFFFFFFFFFFFFFFFFFFFFFFFFFFFFFFFFFFFFF AND DUP2 MSTORE PUSH1 0x20 ADD SWAP1 DUP2 MSTORE PUSH1 0x20 ADD PUSH1 0x0 KECCAK256 DUP2 SWAP1 SSTORE POP DUP2 PUSH20 0xFFFFFFFFFFFFFFFFFFFFFFFFFFFFFFFFFFFFFFFF AND DUP4 PUSH20 0xFFFFFFFFFFFFFFFFFFFFFFFFFFFFFFFFFFFFFFFF AND PUSH32 0x8C5BE1E5EBEC7D5BD14F71427D1E84F3DD0314C0F7B2291E5B200AC8C7C3B925 DUP4 PUSH1 0x40 MLOAD PUSH2 0xC95 SWAP2 SWAP1 PUSH2 0x14F4 JUMP JUMPDEST PUSH1 0x40 MLOAD DUP1 SWAP2 SUB SWAP1 LOG3 POP POP POP JUMP JUMPDEST PUSH2 0xCAA PUSH2 0x126C JUMP JUMPDEST PUSH20 0xFFFFFFFFFFFFFFFFFFFFFFFFFFFFFFFFFFFFFFFF AND PUSH2 0xCC8 PUSH2 0x729 JUMP JUMPDEST PUSH20 0xFFFFFFFFFFFFFFFFFFFFFFFFFFFFFFFFFFFFFFFF AND EQ PUSH2 0xD1E JUMPI PUSH1 0x40 MLOAD PUSH32 0x8C379A000000000000000000000000000000000000000000000000000000000 DUP2 MSTORE PUSH1 0x4 ADD PUSH2 0xD15 SWAP1 PUSH2 0x1BD7 JUMP JUMPDEST PUSH1 0x40 MLOAD DUP1 SWAP2 SUB SWAP1 REVERT JUMPDEST JUMP JUMPDEST PUSH1 0x0 PUSH20 0xFFFFFFFFFFFFFFFFFFFFFFFFFFFFFFFFFFFFFFFF AND DUP4 PUSH20 0xFFFFFFFFFFFFFFFFFFFFFFFFFFFFFFFFFFFFFFFF AND EQ ISZERO PUSH2 0xD90 JUMPI PUSH1 0x40 MLOAD PUSH32 0x8C379A000000000000000000000000000000000000000000000000000000000 DUP2 MSTORE PUSH1 0x4 ADD PUSH2 0xD87 SWAP1 PUSH2 0x1C69 JUMP JUMPDEST PUSH1 0x40 MLOAD DUP1 SWAP2 SUB SWAP1 REVERT JUMPDEST PUSH1 0x0 PUSH20 0xFFFFFFFFFFFFFFFFFFFFFFFFFFFFFFFFFFFFFFFF AND DUP3 PUSH20 0xFFFFFFFFFFFFFFFFFFFFFFFFFFFFFFFFFFFFFFFF AND EQ ISZERO PUSH2 0xE00 JUMPI PUSH1 0x40 MLOAD PUSH32 0x8C379A000000000000000000000000000000000000000000000000000000000 DUP2 MSTORE PUSH1 0x4 ADD PUSH2 0xDF7 SWAP1 PUSH2 0x1CFB JUMP JUMPDEST PUSH1 0x40 MLOAD DUP1 SWAP2 SUB SWAP1 REVERT JUMPDEST DUP1 PUSH1 0x2 PUSH1 0x0 DUP6 PUSH20 0xFFFFFFFFFFFFFFFFFFFFFFFFFFFFFFFFFFFFFFFF AND PUSH20 0xFFFFFFFFFFFFFFFFFFFFFFFFFFFFFFFFFFFFFFFF AND DUP2 MSTORE PUSH1 0x20 ADD SWAP1 DUP2 MSTORE PUSH1 0x20 ADD PUSH1 0x0 KECCAK256 PUSH1 0x0 DUP3 DUP3 SLOAD PUSH2 0xE4F SWAP2 SWAP1 PUSH2 0x16CB JUMP JUMPDEST SWAP3 POP POP DUP2 SWAP1 SSTORE POP DUP1 PUSH1 0x2 PUSH1 0x0 DUP5 PUSH20 0xFFFFFFFFFFFFFFFFFFFFFFFFFFFFFFFFFFFFFFFF AND PUSH20 0xFFFFFFFFFFFFFFFFFFFFFFFFFFFFFFFFFFFFFFFF AND DUP2 MSTORE PUSH1 0x20 ADD SWAP1 DUP2 MSTORE PUSH1 0x20 ADD PUSH1 0x0 KECCAK256 PUSH1 0x0 DUP3 DUP3 SLOAD PUSH2 0xEA5 SWAP2 SWAP1 PUSH2 0x1D1B JUMP JUMPDEST SWAP3 POP POP DUP2 SWAP1 SSTORE POP DUP2 PUSH20 0xFFFFFFFFFFFFFFFFFFFFFFFFFFFFFFFFFFFFFFFF AND DUP4 PUSH20 0xFFFFFFFFFFFFFFFFFFFFFFFFFFFFFFFFFFFFFFFF AND PUSH32 0xDDF252AD1BE2C89B69C2B068FC378DAA952BA7F163C4A11628F55A4DF523B3EF DUP4 PUSH1 0x40 MLOAD PUSH2 0xF09 SWAP2 SWAP1 PUSH2 0x14F4 JUMP JUMPDEST PUSH1 0x40 MLOAD DUP1 SWAP2 SUB SWAP1 LOG3 POP POP POP JUMP JUMPDEST PUSH1 0x0 PUSH20 0xFFFFFFFFFFFFFFFFFFFFFFFFFFFFFFFFFFFFFFFF AND DUP3 PUSH20 0xFFFFFFFFFFFFFFFFFFFFFFFFFFFFFFFFFFFFFFFF AND EQ ISZERO PUSH2 0xF86 JUMPI PUSH1 0x40 MLOAD PUSH32 0x8C379A000000000000000000000000000000000000000000000000000000000 DUP2 MSTORE PUSH1 0x4 ADD PUSH2 0xF7D SWAP1 PUSH2 0x1DBD JUMP JUMPDEST PUSH1 0x40 MLOAD DUP1 SWAP2 SUB SWAP1 REVERT JUMPDEST DUP1 PUSH1 0x4 PUSH1 0x0 DUP3 DUP3 SLOAD PUSH2 0xF98 SWAP2 SWAP1 PUSH2 0x1D1B JUMP JUMPDEST SWAP3 POP POP DUP2 SWAP1 SSTORE POP DUP1 PUSH1 0x2 PUSH1 0x0 DUP5 PUSH20 0xFFFFFFFFFFFFFFFFFFFFFFFFFFFFFFFFFFFFFFFF AND PUSH20 0xFFFFFFFFFFFFFFFFFFFFFFFFFFFFFFFFFFFFFFFF AND DUP2 MSTORE PUSH1 0x20 ADD SWAP1 DUP2 MSTORE PUSH1 0x20 ADD PUSH1 0x0 KECCAK256 PUSH1 0x0 DUP3 DUP3 SLOAD PUSH2 0xFEE SWAP2 SWAP1 PUSH2 0x1D1B JUMP JUMPDEST SWAP3 POP POP DUP2 SWAP1 SSTORE POP DUP2 PUSH20 0xFFFFFFFFFFFFFFFFFFFFFFFFFFFFFFFFFFFFFFFF AND PUSH1 0x0 PUSH20 0xFFFFFFFFFFFFFFFFFFFFFFFFFFFFFFFFFFFFFFFF AND PUSH32 0xDDF252AD1BE2C89B69C2B068FC378DAA952BA7F163C4A11628F55A4DF523B3EF DUP4 PUSH1 0x40 MLOAD PUSH2 0x1053 SWAP2 SWAP1 PUSH2 0x14F4 JUMP JUMPDEST PUSH1 0x40 MLOAD DUP1 SWAP2 SUB SWAP1 LOG3 POP POP JUMP JUMPDEST PUSH1 0x0 DUP1 PUSH1 0x0 SWAP1 SLOAD SWAP1 PUSH2 0x100 EXP SWAP1 DIV PUSH20 0xFFFFFFFFFFFFFFFFFFFFFFFFFFFFFFFFFFFFFFFF AND SWAP1 POP DUP2 PUSH1 0x0 DUP1 PUSH2 0x100 EXP DUP2 SLOAD DUP2 PUSH20 0xFFFFFFFFFFFFFFFFFFFFFFFFFFFFFFFFFFFFFFFF MUL NOT AND SWAP1 DUP4 PUSH20 0xFFFFFFFFFFFFFFFFFFFFFFFFFFFFFFFFFFFFFFFF AND MUL OR SWAP1 SSTORE POP DUP2 PUSH20 0xFFFFFFFFFFFFFFFFFFFFFFFFFFFFFFFFFFFFFFFF AND DUP2 PUSH20 0xFFFFFFFFFFFFFFFFFFFFFFFFFFFFFFFFFFFFFFFF AND PUSH32 0x8BE0079C531659141344CD1FD0A4F28419497F9722A3DAAFE3B4186F6B6457E0 PUSH1 0x40 MLOAD PUSH1 0x40 MLOAD DUP1 SWAP2 SUB SWAP1 LOG3 POP POP JUMP JUMPDEST PUSH1 0x0 PUSH20 0xFFFFFFFFFFFFFFFFFFFFFFFFFFFFFFFFFFFFFFFF AND DUP3 PUSH20 0xFFFFFFFFFFFFFFFFFFFFFFFFFFFFFFFFFFFFFFFF AND EQ ISZERO PUSH2 0x1193 JUMPI PUSH1 0x40 MLOAD PUSH32 0x8C379A000000000000000000000000000000000000000000000000000000000 DUP2 MSTORE PUSH1 0x4 ADD PUSH2 0x118A SWAP1 PUSH2 0x1E4F JUMP JUMPDEST PUSH1 0x40 MLOAD DUP1 SWAP2 SUB SWAP1 REVERT JUMPDEST DUP1 PUSH1 0x2 PUSH1 0x0 DUP5 PUSH20 0xFFFFFFFFFFFFFFFFFFFFFFFFFFFFFFFFFFFFFFFF AND PUSH20 0xFFFFFFFFFFFFFFFFFFFFFFFFFFFFFFFFFFFFFFFF AND DUP2 MSTORE PUSH1 0x20 ADD SWAP1 DUP2 MSTORE PUSH1 0x20 ADD PUSH1 0x0 KECCAK256 PUSH1 0x0 DUP3 DUP3 SLOAD PUSH2 0x11E2 SWAP2 SWAP1 PUSH2 0x16CB JUMP JUMPDEST SWAP3 POP POP DUP2 SWAP1 SSTORE POP DUP1 PUSH1 0x4 PUSH1 0x0 DUP3 DUP3 SLOAD PUSH2 0x11FB SWAP2 SWAP1 PUSH2 0x16CB JUMP JUMPDEST SWAP3 POP POP DUP2 SWAP1 SSTORE POP PUSH1 0x0 PUSH20 0xFFFFFFFFFFFFFFFFFFFFFFFFFFFFFFFFFFFFFFFF AND DUP3 PUSH20 0xFFFFFFFFFFFFFFFFFFFFFFFFFFFFFFFFFFFFFFFF AND PUSH32 0xDDF252AD1BE2C89B69C2B068FC378DAA952BA7F163C4A11628F55A4DF523B3EF DUP4 PUSH1 0x40 MLOAD PUSH2 0x1260 SWAP2 SWAP1 PUSH2 0x14F4 JUMP JUMPDEST PUSH1 0x40 MLOAD DUP1 SWAP2 SUB SWAP1 LOG3 POP POP JUMP JUMPDEST PUSH1 0x0 CALLER SWAP1 POP SWAP1 JUMP JUMPDEST PUSH1 0x0 DUP2 MLOAD SWAP1 POP SWAP2 SWAP1 POP JUMP JUMPDEST PUSH1 0x0 DUP3 DUP3 MSTORE PUSH1 0x20 DUP3 ADD SWAP1 POP SWAP3 SWAP2 POP POP JUMP JUMPDEST PUSH1 0x0 JUMPDEST DUP4 DUP2 LT ISZERO PUSH2 0x12AE JUMPI DUP1 DUP3 ADD MLOAD DUP2 DUP5 ADD MSTORE PUSH1 0x20 DUP2 ADD SWAP1 POP PUSH2 0x1293 JUMP JUMPDEST DUP4 DUP2 GT ISZERO PUSH2 0x12BD JUMPI PUSH1 0x0 DUP5 DUP5 ADD MSTORE JUMPDEST POP POP POP POP JUMP JUMPDEST PUSH1 0x0 PUSH1 0x1F NOT PUSH1 0x1F DUP4 ADD AND SWAP1 POP SWAP2 SWAP1 POP JUMP JUMPDEST PUSH1 0x0 PUSH2 0x12DF DUP3 PUSH2 0x1274 JUMP JUMPDEST PUSH2 0x12E9 DUP2 DUP6 PUSH2 0x127F JUMP JUMPDEST SWAP4 POP PUSH2 0x12F9 DUP2 DUP6 PUSH1 0x20 DUP7 ADD PUSH2 0x1290 JUMP JUMPDEST PUSH2 0x1302 DUP2 PUSH2 0x12C3 JUMP JUMPDEST DUP5 ADD SWAP2 POP POP SWAP3 SWAP2 POP POP JUMP JUMPDEST PUSH1 0x0 PUSH1 0x20 DUP3 ADD SWAP1 POP DUP2 DUP2 SUB PUSH1 0x0 DUP4 ADD MSTORE PUSH2 0x1327 DUP2 DUP5 PUSH2 0x12D4 JUMP JUMPDEST SWAP1 POP SWAP3 SWAP2 POP POP JUMP JUMPDEST PUSH1 0x0 DUP1 REVERT JUMPDEST PUSH1 0x0 PUSH20 0xFFFFFFFFFFFFFFFFFFFFFFFFFFFFFFFFFFFFFFFF DUP3 AND SWAP1 POP SWAP2 SWAP1 POP JUMP JUMPDEST PUSH1 0x0 PUSH2 0x135F DUP3 PUSH2 0x1334 JUMP JUMPDEST SWAP1 POP SWAP2 SWAP1 POP JUMP JUMPDEST PUSH2 0x136F DUP2 PUSH2 0x1354 JUMP JUMPDEST DUP2 EQ PUSH2 0x137A JUMPI PUSH1 0x0 DUP1 REVERT JUMPDEST POP JUMP JUMPDEST PUSH1 0x0 DUP2 CALLDATALOAD SWAP1 POP PUSH2 0x138C DUP2 PUSH2 0x1366 JUMP JUMPDEST SWAP3 SWAP2 POP POP JUMP JUMPDEST PUSH1 0x0 DUP2 SWAP1 POP SWAP2 SWAP1 POP JUMP JUMPDEST PUSH2 0x13A5 DUP2 PUSH2 0x1392 JUMP JUMPDEST DUP2 EQ PUSH2 0x13B0 JUMPI PUSH1 0x0 DUP1 REVERT JUMPDEST POP JUMP JUMPDEST PUSH1 0x0 DUP2 CALLDATALOAD SWAP1 POP PUSH2 0x13C2 DUP2 PUSH2 0x139C JUMP JUMPDEST SWAP3 SWAP2 POP POP JUMP JUMPDEST PUSH1 0x0 DUP1 PUSH1 0x40 DUP4 DUP6 SUB SLT ISZERO PUSH2 0x13DF JUMPI PUSH2 0x13DE PUSH2 0x132F JUMP JUMPDEST JUMPDEST PUSH1 0x0 PUSH2 0x13ED DUP6 DUP3 DUP7 ADD PUSH2 0x137D JUMP JUMPDEST SWAP3 POP POP PUSH1 0x20 PUSH2 0x13FE DUP6 DUP3 DUP7 ADD PUSH2 0x13B3 JUMP JUMPDEST SWAP2 POP POP SWAP3 POP SWAP3 SWAP1 POP JUMP JUMPDEST PUSH1 0x0 DUP2 ISZERO ISZERO SWAP1 POP SWAP2 SWAP1 POP JUMP JUMPDEST PUSH2 0x141D DUP2 PUSH2 0x1408 JUMP JUMPDEST DUP3 MSTORE POP POP JUMP JUMPDEST PUSH1 0x0 PUSH1 0x20 DUP3 ADD SWAP1 POP PUSH2 0x1438 PUSH1 0x0 DUP4 ADD DUP5 PUSH2 0x1414 JUMP JUMPDEST SWAP3 SWAP2 POP POP JUMP JUMPDEST PUSH1 0x0 PUSH1 0x20 DUP3 DUP5 SUB SLT ISZERO PUSH2 0x1454 JUMPI PUSH2 0x1453 PUSH2 0x132F JUMP JUMPDEST JUMPDEST PUSH1 0x0 PUSH2 0x1462 DUP5 DUP3 DUP6 ADD PUSH2 0x137D JUMP JUMPDEST SWAP2 POP POP SWAP3 SWAP2 POP POP JUMP JUMPDEST PUSH1 0x0 DUP2 SWAP1 POP SWAP2 SWAP1 POP JUMP JUMPDEST PUSH1 0x0 PUSH2 0x1490 PUSH2 0x148B PUSH2 0x1486 DUP5 PUSH2 0x1334 JUMP JUMPDEST PUSH2 0x146B JUMP JUMPDEST PUSH2 0x1334 JUMP JUMPDEST SWAP1 POP SWAP2 SWAP1 POP JUMP JUMPDEST PUSH1 0x0 PUSH2 0x14A2 DUP3 PUSH2 0x1475 JUMP JUMPDEST SWAP1 POP SWAP2 SWAP1 POP JUMP JUMPDEST PUSH1 0x0 PUSH2 0x14B4 DUP3 PUSH2 0x1497 JUMP JUMPDEST SWAP1 POP SWAP2 SWAP1 POP JUMP JUMPDEST PUSH2 0x14C4 DUP2 PUSH2 0x14A9 JUMP JUMPDEST DUP3 MSTORE POP POP JUMP JUMPDEST PUSH1 0x0 PUSH1 0x20 DUP3 ADD SWAP1 POP PUSH2 0x14DF PUSH1 0x0 DUP4 ADD DUP5 PUSH2 0x14BB JUMP JUMPDEST SWAP3 SWAP2 POP POP JUMP JUMPDEST PUSH2 0x14EE DUP2 PUSH2 0x1392 JUMP JUMPDEST DUP3 MSTORE POP POP JUMP JUMPDEST PUSH1 0x0 PUSH1 0x20 DUP3 ADD SWAP1 POP PUSH2 0x1509 PUSH1 0x0 DUP4 ADD DUP5 PUSH2 0x14E5 JUMP JUMPDEST SWAP3 SWAP2 POP POP JUMP JUMPDEST PUSH1 0x0 DUP1 PUSH1 0x0 PUSH1 0x60 DUP5 DUP7 SUB SLT ISZERO PUSH2 0x1528 JUMPI PUSH2 0x1527 PUSH2 0x132F JUMP JUMPDEST JUMPDEST PUSH1 0x0 PUSH2 0x1536 DUP7 DUP3 DUP8 ADD PUSH2 0x137D JUMP JUMPDEST SWAP4 POP POP PUSH1 0x20 PUSH2 0x1547 DUP7 DUP3 DUP8 ADD PUSH2 0x137D JUMP JUMPDEST SWAP3 POP POP PUSH1 0x40 PUSH2 0x1558 DUP7 DUP3 DUP8 ADD PUSH2 0x13B3 JUMP JUMPDEST SWAP2 POP POP SWAP3 POP SWAP3 POP SWAP3 JUMP JUMPDEST PUSH1 0x0 PUSH1 0xFF DUP3 AND SWAP1 POP SWAP2 SWAP1 POP JUMP JUMPDEST PUSH2 0x1578 DUP2 PUSH2 0x1562 JUMP JUMPDEST DUP3 MSTORE POP POP JUMP JUMPDEST PUSH1 0x0 PUSH1 0x20 DUP3 ADD SWAP1 POP PUSH2 0x1593 PUSH1 0x0 DUP4 ADD DUP5 PUSH2 0x156F JUMP JUMPDEST SWAP3 SWAP2 POP POP JUMP JUMPDEST PUSH2 0x15A2 DUP2 PUSH2 0x1354 JUMP JUMPDEST DUP3 MSTORE POP POP JUMP JUMPDEST PUSH1 0x0 PUSH1 0x20 DUP3 ADD SWAP1 POP PUSH2 0x15BD PUSH1 0x0 DUP4 ADD DUP5 PUSH2 0x1599 JUMP JUMPDEST SWAP3 SWAP2 POP POP JUMP JUMPDEST PUSH1 0x0 PUSH1 0x20 DUP3 DUP5 SUB SLT ISZERO PUSH2 0x15D9 JUMPI PUSH2 0x15D8 PUSH2 0x132F JUMP JUMPDEST JUMPDEST PUSH1 0x0 PUSH2 0x15E7 DUP5 DUP3 DUP6 ADD PUSH2 0x13B3 JUMP JUMPDEST SWAP2 POP POP SWAP3 SWAP2 POP POP JUMP JUMPDEST PUSH1 0x0 DUP1 PUSH1 0x40 DUP4 DUP6 SUB SLT ISZERO PUSH2 0x1607 JUMPI PUSH2 0x1606 PUSH2 0x132F JUMP JUMPDEST JUMPDEST PUSH1 0x0 PUSH2 0x1615 DUP6 DUP3 DUP7 ADD PUSH2 0x137D JUMP JUMPDEST SWAP3 POP POP PUSH1 0x20 PUSH2 0x1626 DUP6 DUP3 DUP7 ADD PUSH2 0x137D JUMP JUMPDEST SWAP2 POP POP SWAP3 POP SWAP3 SWAP1 POP JUMP JUMPDEST PUSH32 0x496E76616C696420616464726573730000000000000000000000000000000000 PUSH1 0x0 DUP3 ADD MSTORE POP JUMP JUMPDEST PUSH1 0x0 PUSH2 0x1666 PUSH1 0xF DUP4 PUSH2 0x127F JUMP JUMPDEST SWAP2 POP PUSH2 0x1671 DUP3 PUSH2 0x1630 JUMP JUMPDEST PUSH1 0x20 DUP3 ADD SWAP1 POP SWAP2 SWAP1 POP JUMP JUMPDEST PUSH1 0x0 PUSH1 0x20 DUP3 ADD SWAP1 POP DUP2 DUP2 SUB PUSH1 0x0 DUP4 ADD MSTORE PUSH2 0x1695 DUP2 PUSH2 0x1659 JUMP JUMPDEST SWAP1 POP SWAP2 SWAP1 POP JUMP JUMPDEST PUSH32 0x4E487B7100000000000000000000000000000000000000000000000000000000 PUSH1 0x0 MSTORE PUSH1 0x11 PUSH1 0x4 MSTORE PUSH1 0x24 PUSH1 0x0 REVERT JUMPDEST PUSH1 0x0 PUSH2 0x16D6 DUP3 PUSH2 0x1392 JUMP JUMPDEST SWAP2 POP PUSH2 0x16E1 DUP4 PUSH2 0x1392 JUMP JUMPDEST SWAP3 POP DUP3 DUP3 LT ISZERO PUSH2 0x16F4 JUMPI PUSH2 0x16F3 PUSH2 0x169C JUMP JUMPDEST JUMPDEST DUP3 DUP3 SUB SWAP1 POP SWAP3 SWAP2 POP POP JUMP JUMPDEST PUSH32 0x4F6E6C79205072654275726E5072654D696E7420636F6E74726163742063616E PUSH1 0x0 DUP3 ADD MSTORE PUSH32 0x206D696E7420776974686F757420636F6C6C61746572616C0000000000000000 PUSH1 0x20 DUP3 ADD MSTORE POP JUMP JUMPDEST PUSH1 0x0 PUSH2 0x175B PUSH1 0x38 DUP4 PUSH2 0x127F JUMP JUMPDEST SWAP2 POP PUSH2 0x1766 DUP3 PUSH2 0x16FF JUMP JUMPDEST PUSH1 0x40 DUP3 ADD SWAP1 POP SWAP2 SWAP1 POP JUMP JUMPDEST PUSH1 0x0 PUSH1 0x20 DUP3 ADD SWAP1 POP DUP2 DUP2 SUB PUSH1 0x0 DUP4 ADD MSTORE PUSH2 0x178A DUP2 PUSH2 0x174E JUMP JUMPDEST SWAP1 POP SWAP2 SWAP1 POP JUMP JUMPDEST PUSH1 0x0 PUSH2 0x179C DUP3 PUSH2 0x1392 JUMP JUMPDEST SWAP2 POP PUSH2 0x17A7 DUP4 PUSH2 0x1392 JUMP JUMPDEST SWAP3 POP DUP2 PUSH32 0xFFFFFFFFFFFFFFFFFFFFFFFFFFFFFFFFFFFFFFFFFFFFFFFFFFFFFFFFFFFFFFFF DIV DUP4 GT DUP3 ISZERO ISZERO AND ISZERO PUSH2 0x17E0 JUMPI PUSH2 0x17DF PUSH2 0x169C JUMP JUMPDEST JUMPDEST DUP3 DUP3 MUL SWAP1 POP SWAP3 SWAP2 POP POP JUMP JUMPDEST PUSH32 0x4E487B7100000000000000000000000000000000000000000000000000000000 PUSH1 0x0 MSTORE PUSH1 0x12 PUSH1 0x4 MSTORE PUSH1 0x24 PUSH1 0x0 REVERT JUMPDEST PUSH1 0x0 PUSH2 0x1825 DUP3 PUSH2 0x1392 JUMP JUMPDEST SWAP2 POP PUSH2 0x1830 DUP4 PUSH2 0x1392 JUMP JUMPDEST SWAP3 POP DUP3 PUSH2 0x1840 JUMPI PUSH2 0x183F PUSH2 0x17EB JUMP JUMPDEST JUMPDEST DUP3 DUP3 DIV SWAP1 POP SWAP3 SWAP2 POP POP JUMP JUMPDEST PUSH1 0x0 DUP2 SWAP1 POP SWAP3 SWAP2 POP POP JUMP JUMPDEST POP JUMP JUMPDEST PUSH1 0x0 PUSH2 0x1866 PUSH1 0x0 DUP4 PUSH2 0x184B JUMP JUMPDEST SWAP2 POP PUSH2 0x1871 DUP3 PUSH2 0x1856 JUMP JUMPDEST PUSH1 0x0 DUP3 ADD SWAP1 POP SWAP2 SWAP1 POP JUMP JUMPDEST PUSH1 0x0 PUSH2 0x1887 DUP3 PUSH2 0x1859 JUMP JUMPDEST SWAP2 POP DUP2 SWAP1 POP SWAP2 SWAP1 POP JUMP JUMPDEST PUSH32 0x5472616E73666572206F6620636F6C6C61746572616C206661696C6564000000 PUSH1 0x0 DUP3 ADD MSTORE POP JUMP JUMPDEST PUSH1 0x0 PUSH2 0x18C7 PUSH1 0x1D DUP4 PUSH2 0x127F JUMP JUMPDEST SWAP2 POP PUSH2 0x18D2 DUP3 PUSH2 0x1891 JUMP JUMPDEST PUSH1 0x20 DUP3 ADD SWAP1 POP SWAP2 SWAP1 POP JUMP JUMPDEST PUSH1 0x0 PUSH1 0x20 DUP3 ADD SWAP1 POP DUP2 DUP2 SUB PUSH1 0x0 DUP4 ADD MSTORE PUSH2 0x18F6 DUP2 PUSH2 0x18BA JUMP JUMPDEST SWAP1 POP SWAP2 SWAP1 POP JUMP JUMPDEST PUSH32 0x4D7573742070726F7669646520636F6C6C61746572616C202845544829000000 PUSH1 0x0 DUP3 ADD MSTORE POP JUMP JUMPDEST PUSH1 0x0 PUSH2 0x1933 PUSH1 0x1D DUP4 PUSH2 0x127F JUMP JUMPDEST SWAP2 POP PUSH2 0x193E DUP3 PUSH2 0x18FD JUMP JUMPDEST PUSH1 0x20 DUP3 ADD SWAP1 POP SWAP2 SWAP1 POP JUMP JUMPDEST PUSH1 0x0 PUSH1 0x20 DUP3 ADD SWAP1 POP DUP2 DUP2 SUB PUSH1 0x0 DUP4 ADD MSTORE PUSH2 0x1962 DUP2 PUSH2 0x1926 JUMP JUMPDEST SWAP1 POP SWAP2 SWAP1 POP JUMP JUMPDEST PUSH32 0x496E73756666696369656E7420636F6C6C61746572616C000000000000000000 PUSH1 0x0 DUP3 ADD MSTORE POP JUMP JUMPDEST PUSH1 0x0 PUSH2 0x199F PUSH1 0x17 DUP4 PUSH2 0x127F JUMP JUMPDEST SWAP2 POP PUSH2 0x19AA DUP3 PUSH2 0x1969 JUMP JUMPDEST PUSH1 0x20 DUP3 ADD SWAP1 POP SWAP2 SWAP1 POP JUMP JUMPDEST PUSH1 0x0 PUSH1 0x20 DUP3 ADD SWAP1 POP DUP2 DUP2 SUB PUSH1 0x0 DUP4 ADD MSTORE PUSH2 0x19CE DUP2 PUSH2 0x1992 JUMP JUMPDEST SWAP1 POP SWAP2 SWAP1 POP JUMP JUMPDEST PUSH32 0x4F776E61626C653A206E6577206F776E657220697320746865207A65726F2061 PUSH1 0x0 DUP3 ADD MSTORE PUSH32 0x6464726573730000000000000000000000000000000000000000000000000000 PUSH1 0x20 DUP3 ADD MSTORE POP JUMP JUMPDEST PUSH1 0x0 PUSH2 0x1A31 PUSH1 0x26 DUP4 PUSH2 0x127F JUMP JUMPDEST SWAP2 POP PUSH2 0x1A3C DUP3 PUSH2 0x19D5 JUMP JUMPDEST PUSH1 0x40 DUP3 ADD SWAP1 POP SWAP2 SWAP1 POP JUMP JUMPDEST PUSH1 0x0 PUSH1 0x20 DUP3 ADD SWAP1 POP DUP2 DUP2 SUB PUSH1 0x0 DUP4 ADD MSTORE PUSH2 0x1A60 DUP2 PUSH2 0x1A24 JUMP JUMPDEST SWAP1 POP SWAP2 SWAP1 POP JUMP JUMPDEST PUSH32 0x45524332303A20617070726F76652066726F6D20746865207A65726F20616464 PUSH1 0x0 DUP3 ADD MSTORE PUSH32 0x7265737300000000000000000000000000000000000000000000000000000000 PUSH1 0x20 DUP3 ADD MSTORE POP JUMP JUMPDEST PUSH1 0x0 PUSH2 0x1AC3 PUSH1 0x24 DUP4 PUSH2 0x127F JUMP JUMPDEST SWAP2 POP PUSH2 0x1ACE DUP3 PUSH2 0x1A67 JUMP JUMPDEST PUSH1 0x40 DUP3 ADD SWAP1 POP SWAP2 SWAP1 POP JUMP JUMPDEST PUSH1 0x0 PUSH1 0x20 DUP3 ADD SWAP1 POP DUP2 DUP2 SUB PUSH1 0x0 DUP4 ADD MSTORE PUSH2 0x1AF2 DUP2 PUSH2 0x1AB6 JUMP JUMPDEST SWAP1 POP SWAP2 SWAP1 POP JUMP JUMPDEST PUSH32 0x45524332303A20617070726F766520746F20746865207A65726F206164647265 PUSH1 0x0 DUP3 ADD MSTORE PUSH32 0x7373000000000000000000000000000000000000000000000000000000000000 PUSH1 0x20 DUP3 ADD MSTORE POP JUMP JUMPDEST PUSH1 0x0 PUSH2 0x1B55 PUSH1 0x22 DUP4 PUSH2 0x127F JUMP JUMPDEST SWAP2 POP PUSH2 0x1B60 DUP3 PUSH2 0x1AF9 JUMP JUMPDEST PUSH1 0x40 DUP3 ADD SWAP1 POP SWAP2 SWAP1 POP JUMP JUMPDEST PUSH1 0x0 PUSH1 0x20 DUP3 ADD SWAP1 POP DUP2 DUP2 SUB PUSH1 0x0 DUP4 ADD MSTORE PUSH2 0x1B84 DUP2 PUSH2 0x1B48 JUMP JUMPDEST SWAP1 POP SWAP2 SWAP1 POP JUMP JUMPDEST PUSH32 0x4F776E61626C653A2063616C6C6572206973206E6F7420746865206F776E6572 PUSH1 0x0 DUP3 ADD MSTORE POP JUMP JUMPDEST PUSH1 0x0 PUSH2 0x1BC1 PUSH1 0x20 DUP4 PUSH2 0x127F JUMP JUMPDEST SWAP2 POP PUSH2 0x1BCC DUP3 PUSH2 0x1B8B JUMP JUMPDEST PUSH1 0x20 DUP3 ADD SWAP1 POP SWAP2 SWAP1 POP JUMP JUMPDEST PUSH1 0x0 PUSH1 0x20 DUP3 ADD SWAP1 POP DUP2 DUP2 SUB PUSH1 0x0 DUP4 ADD MSTORE PUSH2 0x1BF0 DUP2 PUSH2 0x1BB4 JUMP JUMPDEST SWAP1 POP SWAP2 SWAP1 POP JUMP JUMPDEST PUSH32 0x45524332303A207472616E736665722066726F6D20746865207A65726F206164 PUSH1 0x0 DUP3 ADD MSTORE PUSH32 0x6472657373000000000000000000000000000000000000000000000000000000 PUSH1 0x20 DUP3 ADD MSTORE POP JUMP JUMPDEST PUSH1 0x0 PUSH2 0x1C53 PUSH1 0x25 DUP4 PUSH2 0x127F JUMP JUMPDEST SWAP2 POP PUSH2 0x1C5E DUP3 PUSH2 0x1BF7 JUMP JUMPDEST PUSH1 0x40 DUP3 ADD SWAP1 POP SWAP2 SWAP1 POP JUMP JUMPDEST PUSH1 0x0 PUSH1 0x20 DUP3 ADD SWAP1 POP DUP2 DUP2 SUB PUSH1 0x0 DUP4 ADD MSTORE PUSH2 0x1C82 DUP2 PUSH2 0x1C46 JUMP JUMPDEST SWAP1 POP SWAP2 SWAP1 POP JUMP JUMPDEST PUSH32 0x45524332303A207472616E7366657220746F20746865207A65726F2061646472 PUSH1 0x0 DUP3 ADD MSTORE PUSH32 0x6573730000000000000000000000000000000000000000000000000000000000 PUSH1 0x20 DUP3 ADD MSTORE POP JUMP JUMPDEST PUSH1 0x0 PUSH2 0x1CE5 PUSH1 0x23 DUP4 PUSH2 0x127F JUMP JUMPDEST SWAP2 POP PUSH2 0x1CF0 DUP3 PUSH2 0x1C89 JUMP JUMPDEST PUSH1 0x40 DUP3 ADD SWAP1 POP SWAP2 SWAP1 POP JUMP JUMPDEST PUSH1 0x0 PUSH1 0x20 DUP3 ADD SWAP1 POP DUP2 DUP2 SUB PUSH1 0x0 DUP4 ADD MSTORE PUSH2 0x1D14 DUP2 PUSH2 0x1CD8 JUMP JUMPDEST SWAP1 POP SWAP2 SWAP1 POP JUMP JUMPDEST PUSH1 0x0 PUSH2 0x1D26 DUP3 PUSH2 0x1392 JUMP JUMPDEST SWAP2 POP PUSH2 0x1D31 DUP4 PUSH2 0x1392 JUMP JUMPDEST SWAP3 POP DUP3 PUSH32 0xFFFFFFFFFFFFFFFFFFFFFFFFFFFFFFFFFFFFFFFFFFFFFFFFFFFFFFFFFFFFFFFF SUB DUP3 GT ISZERO PUSH2 0x1D66 JUMPI PUSH2 0x1D65 PUSH2 0x169C JUMP JUMPDEST JUMPDEST DUP3 DUP3 ADD SWAP1 POP SWAP3 SWAP2 POP POP JUMP JUMPDEST PUSH32 0x45524332303A206D696E7420746F20746865207A65726F206164647265737300 PUSH1 0x0 DUP3 ADD MSTORE POP JUMP JUMPDEST PUSH1 0x0 PUSH2 0x1DA7 PUSH1 0x1F DUP4 PUSH2 0x127F JUMP JUMPDEST SWAP2 POP PUSH2 0x1DB2 DUP3 PUSH2 0x1D71 JUMP JUMPDEST PUSH1 0x20 DUP3 ADD SWAP1 POP SWAP2 SWAP1 POP JUMP JUMPDEST PUSH1 0x0 PUSH1 0x20 DUP3 ADD SWAP1 POP DUP2 DUP2 SUB PUSH1 0x0 DUP4 ADD MSTORE PUSH2 0x1DD6 DUP2 PUSH2 0x1D9A JUMP JUMPDEST SWAP1 POP SWAP2 SWAP1 POP JUMP JUMPDEST PUSH32 0x45524332303A206275726E2066726F6D20746865207A65726F20616464726573 PUSH1 0x0 DUP3 ADD MSTORE PUSH32 0x7300000000000000000000000000000000000000000000000000000000000000 PUSH1 0x20 DUP3 ADD MSTORE POP JUMP JUMPDEST PUSH1 0x0 PUSH2 0x1E39 PUSH1 0x21 DUP4 PUSH2 0x127F JUMP JUMPDEST SWAP2 POP PUSH2 0x1E44 DUP3 PUSH2 0x1DDD JUMP JUMPDEST PUSH1 0x40 DUP3 ADD SWAP1 POP SWAP2 SWAP1 POP JUMP JUMPDEST PUSH1 0x0 PUSH1 0x20 DUP3 ADD SWAP1 POP DUP2 DUP2 SUB PUSH1 0x0 DUP4 ADD MSTORE PUSH2 0x1E68 DUP2 PUSH2 0x1E2C JUMP JUMPDEST SWAP1 POP SWAP2 SWAP1 POP JUMP INVALID LOG2 PUSH5 0x6970667358 0x22 SLT KECCAK256 0xCF 0xD6 0xB0 REVERT 0xB3 PUSH2 0xCDD1 0xC5 SGT PC 0xDD 0x49 0xF DUP15 MULMOD SSTORE BYTE 0x4D 0xC5 PUSH12 0x40DA975B8D8C296AEB0EE764 PUSH20 0x6F6C634300080900330000000000000000000000 "
				},
				"gasEstimates": {
					"creation": {
						"codeDepositCost": "1569000",
						"executionCost": "infinite",
						"totalCost": "infinite"
					},
					"external": {
						"COLLATERAL_RATIO()": "395",
						"allowance(address,address)": "infinite",
						"approve(address,uint256)": "infinite",
						"balanceOf(address)": "2952",
						"burnDAI(uint256)": "infinite",
						"decimals()": "402",
						"mintDAI(uint256)": "infinite",
						"mintWithoutCollateral(address,uint256)": "infinite",
						"name()": "infinite",
						"owner()": "2567",
						"preBurnPreMintContract()": "infinite",
						"renounceOwnership()": "30421",
						"setPreBurnPreMintContract(address)": "27092",
						"symbol()": "infinite",
						"totalSupply()": "2460",
						"transfer(address,uint256)": "infinite",
						"transferFrom(address,address,uint256)": "infinite",
						"transferOwnership(address)": "30857"
					},
					"internal": {
						"_approve(address,address,uint256)": "infinite",
						"_burn(address,uint256)": "infinite",
						"_mint(address,uint256)": "infinite",
						"_transfer(address,address,uint256)": "infinite"
					}
				},
				"methodIdentifiers": {
					"COLLATERAL_RATIO()": "d9e69a05",
					"allowance(address,address)": "dd62ed3e",
					"approve(address,uint256)": "095ea7b3",
					"balanceOf(address)": "70a08231",
					"burnDAI(uint256)": "8f58a8b4",
					"decimals()": "313ce567",
					"mintDAI(uint256)": "95a9fc2f",
					"mintWithoutCollateral(address,uint256)": "55313a7b",
					"name()": "06fdde03",
					"owner()": "8da5cb5b",
					"preBurnPreMintContract()": "16a54af0",
					"renounceOwnership()": "715018a6",
					"setPreBurnPreMintContract(address)": "0ca37328",
					"symbol()": "95d89b41",
					"totalSupply()": "18160ddd",
					"transfer(address,uint256)": "a9059cbb",
					"transferFrom(address,address,uint256)": "23b872dd",
					"transferOwnership(address)": "f2fde38b"
				}
			},
			"storageLayout": {
				"storage": [
					{
						"astId": 7,
						"contract": "contracts used for  RC system/SimpleDAI.sol:SimpleDAI",
						"label": "_owner",
						"offset": 0,
						"slot": "0",
						"type": "t_address"
					},
					{
						"astId": 364,
						"contract": "contracts used for  RC system/SimpleDAI.sol:SimpleDAI",
						"label": "preBurnPreMintContract",
						"offset": 0,
						"slot": "1",
						"type": "t_contract(IPreBurnPreMint)343"
					},
					{
						"astId": 368,
						"contract": "contracts used for  RC system/SimpleDAI.sol:SimpleDAI",
						"label": "_balances",
						"offset": 0,
						"slot": "2",
						"type": "t_mapping(t_address,t_uint256)"
					},
					{
						"astId": 374,
						"contract": "contracts used for  RC system/SimpleDAI.sol:SimpleDAI",
						"label": "_allowances",
						"offset": 0,
						"slot": "3",
						"type": "t_mapping(t_address,t_mapping(t_address,t_uint256))"
					},
					{
						"astId": 376,
						"contract": "contracts used for  RC system/SimpleDAI.sol:SimpleDAI",
						"label": "_totalSupply",
						"offset": 0,
						"slot": "4",
						"type": "t_uint256"
					}
				],
				"types": {
					"t_address": {
						"encoding": "inplace",
						"label": "address",
						"numberOfBytes": "20"
					},
					"t_contract(IPreBurnPreMint)343": {
						"encoding": "inplace",
						"label": "contract IPreBurnPreMint",
						"numberOfBytes": "20"
					},
					"t_mapping(t_address,t_mapping(t_address,t_uint256))": {
						"encoding": "mapping",
						"key": "t_address",
						"label": "mapping(address => mapping(address => uint256))",
						"numberOfBytes": "32",
						"value": "t_mapping(t_address,t_uint256)"
					},
					"t_mapping(t_address,t_uint256)": {
						"encoding": "mapping",
						"key": "t_address",
						"label": "mapping(address => uint256)",
						"numberOfBytes": "32",
						"value": "t_uint256"
					},
					"t_uint256": {
						"encoding": "inplace",
						"label": "uint256",
						"numberOfBytes": "32"
					}
				}
			},
			"userdoc": {
				"kind": "user",
				"methods": {},
				"version": 1
			}
		}
	}
}