{
	"contracts used for  RC system/DAI.sol": {
		"SimpleDAI": {
			"abi": [
				{
					"inputs": [],
					"name": "COLLATERAL_RATIO",
					"outputs": [
						{
							"internalType": "uint256",
							"name": "",
							"type": "uint256"
						}
					],
					"stateMutability": "view",
					"type": "function"
				},
				{
					"inputs": [
						{
							"internalType": "uint256",
							"name": "daiAmount",
							"type": "uint256"
						}
					],
					"name": "burnDAI",
					"outputs": [],
					"stateMutability": "nonpayable",
					"type": "function"
				},
				{
					"inputs": [
						{
							"internalType": "address",
							"name": "",
							"type": "address"
						}
					],
					"name": "collateralBalance",
					"outputs": [
						{
							"internalType": "uint256",
							"name": "",
							"type": "uint256"
						}
					],
					"stateMutability": "view",
					"type": "function"
				},
				{
					"inputs": [
						{
							"internalType": "address",
							"name": "",
							"type": "address"
						}
					],
					"name": "daiBalance",
					"outputs": [
						{
							"internalType": "uint256",
							"name": "",
							"type": "uint256"
						}
					],
					"stateMutability": "view",
					"type": "function"
				},
				{
					"inputs": [
						{
							"internalType": "uint256",
							"name": "daiAmount",
							"type": "uint256"
						}
					],
					"name": "mintDAI",
					"outputs": [],
					"stateMutability": "payable",
					"type": "function"
				}
			],
			"devdoc": {
				"kind": "dev",
				"methods": {},
				"version": 1
			},
			"evm": {
				"assembly": "    /* \"contracts used for\\xc2\\xa0 RC system/DAI.sol\":27:1101  contract SimpleDAI {... */\n  mstore(0x40, 0x80)\n  callvalue\n  dup1\n  iszero\n  tag_1\n  jumpi\n  0x00\n  dup1\n  revert\ntag_1:\n  pop\n  dataSize(sub_0)\n  dup1\n  dataOffset(sub_0)\n  0x00\n  codecopy\n  0x00\n  return\nstop\n\nsub_0: assembly {\n        /* \"contracts used for\\xc2\\xa0 RC system/DAI.sol\":27:1101  contract SimpleDAI {... */\n      mstore(0x40, 0x80)\n      jumpi(tag_1, lt(calldatasize, 0x04))\n      shr(0xe0, calldataload(0x00))\n      dup1\n      0x8f58a8b4\n      eq\n      tag_2\n      jumpi\n      dup1\n      0x95a9fc2f\n      eq\n      tag_3\n      jumpi\n      dup1\n      0xa1bf2840\n      eq\n      tag_4\n      jumpi\n      dup1\n      0xd7f7098f\n      eq\n      tag_5\n      jumpi\n      dup1\n      0xd9e69a05\n      eq\n      tag_6\n      jumpi\n    tag_1:\n      0x00\n      dup1\n      revert\n        /* \"contracts used for\\xc2\\xa0 RC system/DAI.sol\":606:1098  function burnDAI(uint256 daiAmount) external {... */\n    tag_2:\n      callvalue\n      dup1\n      iszero\n      tag_7\n      jumpi\n      0x00\n      dup1\n      revert\n    tag_7:\n      pop\n      tag_8\n      0x04\n      dup1\n      calldatasize\n      sub\n      dup2\n      add\n      swap1\n      tag_9\n      swap2\n      swap1\n      tag_10\n      jump\t// in\n    tag_9:\n      tag_11\n      jump\t// in\n    tag_8:\n      stop\n        /* \"contracts used for\\xc2\\xa0 RC system/DAI.sol\":244:598  function mintDAI(uint256 daiAmount) external payable {... */\n    tag_3:\n      tag_12\n      0x04\n      dup1\n      calldatasize\n      sub\n      dup2\n      add\n      swap1\n      tag_13\n      swap2\n      swap1\n      tag_10\n      jump\t// in\n    tag_13:\n      tag_14\n      jump\t// in\n    tag_12:\n      stop\n        /* \"contracts used for\\xc2\\xa0 RC system/DAI.sol\":105:157  mapping(address => uint256) public collateralBalance */\n    tag_4:\n      callvalue\n      dup1\n      iszero\n      tag_15\n      jumpi\n      0x00\n      dup1\n      revert\n    tag_15:\n      pop\n      tag_16\n      0x04\n      dup1\n      calldatasize\n      sub\n      dup2\n      add\n      swap1\n      tag_17\n      swap2\n      swap1\n      tag_18\n      jump\t// in\n    tag_17:\n      tag_19\n      jump\t// in\n    tag_16:\n      mload(0x40)\n      tag_20\n      swap2\n      swap1\n      tag_21\n      jump\t// in\n    tag_20:\n      mload(0x40)\n      dup1\n      swap2\n      sub\n      swap1\n      return\n        /* \"contracts used for\\xc2\\xa0 RC system/DAI.sol\":53:98  mapping(address => uint256) public daiBalance */\n    tag_5:\n      callvalue\n      dup1\n      iszero\n      tag_22\n      jumpi\n      0x00\n      dup1\n      revert\n    tag_22:\n      pop\n      tag_23\n      0x04\n      dup1\n      calldatasize\n      sub\n      dup2\n      add\n      swap1\n      tag_24\n      swap2\n      swap1\n      tag_18\n      jump\t// in\n    tag_24:\n      tag_25\n      jump\t// in\n    tag_23:\n      mload(0x40)\n      tag_26\n      swap2\n      swap1\n      tag_21\n      jump\t// in\n    tag_26:\n      mload(0x40)\n      dup1\n      swap2\n      sub\n      swap1\n      return\n        /* \"contracts used for\\xc2\\xa0 RC system/DAI.sol\":164:210  uint256 public constant COLLATERAL_RATIO = 150 */\n    tag_6:\n      callvalue\n      dup1\n      iszero\n      tag_27\n      jumpi\n      0x00\n      dup1\n      revert\n    tag_27:\n      pop\n      tag_28\n      tag_29\n      jump\t// in\n    tag_28:\n      mload(0x40)\n      tag_30\n      swap2\n      swap1\n      tag_21\n      jump\t// in\n    tag_30:\n      mload(0x40)\n      dup1\n      swap2\n      sub\n      swap1\n      return\n        /* \"contracts used for\\xc2\\xa0 RC system/DAI.sol\":606:1098  function burnDAI(uint256 daiAmount) external {... */\n    tag_11:\n        /* \"contracts used for\\xc2\\xa0 RC system/DAI.sol\":696:705  daiAmount */\n      dup1\n        /* \"contracts used for\\xc2\\xa0 RC system/DAI.sol\":670:680  daiBalance */\n      0x00\n        /* \"contracts used for\\xc2\\xa0 RC system/DAI.sol\":670:692  daiBalance[msg.sender] */\n      dup1\n        /* \"contracts used for\\xc2\\xa0 RC system/DAI.sol\":681:691  msg.sender */\n      caller\n        /* \"contracts used for\\xc2\\xa0 RC system/DAI.sol\":670:692  daiBalance[msg.sender] */\n      0xffffffffffffffffffffffffffffffffffffffff\n      and\n      0xffffffffffffffffffffffffffffffffffffffff\n      and\n      dup2\n      mstore\n      0x20\n      add\n      swap1\n      dup2\n      mstore\n      0x20\n      add\n      0x00\n      keccak256\n      sload\n        /* \"contracts used for\\xc2\\xa0 RC system/DAI.sol\":670:705  daiBalance[msg.sender] >= daiAmount */\n      lt\n      iszero\n        /* \"contracts used for\\xc2\\xa0 RC system/DAI.sol\":662:734  require(daiBalance[msg.sender] >= daiAmount, \"Insufficient DAI balance\") */\n      tag_32\n      jumpi\n      mload(0x40)\n      0x08c379a000000000000000000000000000000000000000000000000000000000\n      dup2\n      mstore\n      0x04\n      add\n      tag_33\n      swap1\n      tag_34\n      jump\t// in\n    tag_33:\n      mload(0x40)\n      dup1\n      swap2\n      sub\n      swap1\n      revert\n    tag_32:\n        /* \"contracts used for\\xc2\\xa0 RC system/DAI.sol\":747:773  uint256 collateralToReturn */\n      0x00\n        /* \"contracts used for\\xc2\\xa0 RC system/DAI.sol\":822:832  daiBalance */\n      dup1\n        /* \"contracts used for\\xc2\\xa0 RC system/DAI.sol\":822:844  daiBalance[msg.sender] */\n      0x00\n        /* \"contracts used for\\xc2\\xa0 RC system/DAI.sol\":833:843  msg.sender */\n      caller\n        /* \"contracts used for\\xc2\\xa0 RC system/DAI.sol\":822:844  daiBalance[msg.sender] */\n      0xffffffffffffffffffffffffffffffffffffffff\n      and\n      0xffffffffffffffffffffffffffffffffffffffff\n      and\n      dup2\n      mstore\n      0x20\n      add\n      swap1\n      dup2\n      mstore\n      0x20\n      add\n      0x00\n      keccak256\n      sload\n        /* \"contracts used for\\xc2\\xa0 RC system/DAI.sol\":789:806  collateralBalance */\n      0x01\n        /* \"contracts used for\\xc2\\xa0 RC system/DAI.sol\":789:818  collateralBalance[msg.sender] */\n      0x00\n        /* \"contracts used for\\xc2\\xa0 RC system/DAI.sol\":807:817  msg.sender */\n      caller\n        /* \"contracts used for\\xc2\\xa0 RC system/DAI.sol\":789:818  collateralBalance[msg.sender] */\n      0xffffffffffffffffffffffffffffffffffffffff\n      and\n      0xffffffffffffffffffffffffffffffffffffffff\n      and\n      dup2\n      mstore\n      0x20\n      add\n      swap1\n      dup2\n      mstore\n      0x20\n      add\n      0x00\n      keccak256\n      sload\n        /* \"contracts used for\\xc2\\xa0 RC system/DAI.sol\":777:786  daiAmount */\n      dup4\n        /* \"contracts used for\\xc2\\xa0 RC system/DAI.sol\":777:818  daiAmount * collateralBalance[msg.sender] */\n      tag_35\n      swap2\n      swap1\n      tag_36\n      jump\t// in\n    tag_35:\n        /* \"contracts used for\\xc2\\xa0 RC system/DAI.sol\":776:844  (daiAmount * collateralBalance[msg.sender]) / daiBalance[msg.sender] */\n      tag_37\n      swap2\n      swap1\n      tag_38\n      jump\t// in\n    tag_37:\n        /* \"contracts used for\\xc2\\xa0 RC system/DAI.sol\":747:844  uint256 collateralToReturn = (daiAmount * collateralBalance[msg.sender]) / daiBalance[msg.sender] */\n      swap1\n      pop\n        /* \"contracts used for\\xc2\\xa0 RC system/DAI.sol\":881:890  daiAmount */\n      dup2\n        /* \"contracts used for\\xc2\\xa0 RC system/DAI.sol\":855:865  daiBalance */\n      0x00\n        /* \"contracts used for\\xc2\\xa0 RC system/DAI.sol\":855:877  daiBalance[msg.sender] */\n      dup1\n        /* \"contracts used for\\xc2\\xa0 RC system/DAI.sol\":866:876  msg.sender */\n      caller\n        /* \"contracts used for\\xc2\\xa0 RC system/DAI.sol\":855:877  daiBalance[msg.sender] */\n      0xffffffffffffffffffffffffffffffffffffffff\n      and\n      0xffffffffffffffffffffffffffffffffffffffff\n      and\n      dup2\n      mstore\n      0x20\n      add\n      swap1\n      dup2\n      mstore\n      0x20\n      add\n      0x00\n      keccak256\n      0x00\n        /* \"contracts used for\\xc2\\xa0 RC system/DAI.sol\":855:890  daiBalance[msg.sender] -= daiAmount */\n      dup3\n      dup3\n      sload\n      tag_39\n      swap2\n      swap1\n      tag_40\n      jump\t// in\n    tag_39:\n      swap3\n      pop\n      pop\n      dup2\n      swap1\n      sstore\n      pop\n        /* \"contracts used for\\xc2\\xa0 RC system/DAI.sol\":934:952  collateralToReturn */\n      dup1\n        /* \"contracts used for\\xc2\\xa0 RC system/DAI.sol\":901:918  collateralBalance */\n      0x01\n        /* \"contracts used for\\xc2\\xa0 RC system/DAI.sol\":901:930  collateralBalance[msg.sender] */\n      0x00\n        /* \"contracts used for\\xc2\\xa0 RC system/DAI.sol\":919:929  msg.sender */\n      caller\n        /* \"contracts used for\\xc2\\xa0 RC system/DAI.sol\":901:930  collateralBalance[msg.sender] */\n      0xffffffffffffffffffffffffffffffffffffffff\n      and\n      0xffffffffffffffffffffffffffffffffffffffff\n      and\n      dup2\n      mstore\n      0x20\n      add\n      swap1\n      dup2\n      mstore\n      0x20\n      add\n      0x00\n      keccak256\n      0x00\n        /* \"contracts used for\\xc2\\xa0 RC system/DAI.sol\":901:952  collateralBalance[msg.sender] -= collateralToReturn */\n      dup3\n      dup3\n      sload\n      tag_41\n      swap2\n      swap1\n      tag_40\n      jump\t// in\n    tag_41:\n      swap3\n      pop\n      pop\n      dup2\n      swap1\n      sstore\n      pop\n        /* \"contracts used for\\xc2\\xa0 RC system/DAI.sol\":966:978  bool success */\n      0x00\n        /* \"contracts used for\\xc2\\xa0 RC system/DAI.sol\":984:994  msg.sender */\n      caller\n        /* \"contracts used for\\xc2\\xa0 RC system/DAI.sol\":984:999  msg.sender.call */\n      0xffffffffffffffffffffffffffffffffffffffff\n      and\n        /* \"contracts used for\\xc2\\xa0 RC system/DAI.sol\":1007:1025  collateralToReturn */\n      dup3\n        /* \"contracts used for\\xc2\\xa0 RC system/DAI.sol\":984:1030  msg.sender.call{value: collateralToReturn}(\"\") */\n      mload(0x40)\n      tag_42\n      swap1\n      tag_43\n      jump\t// in\n    tag_42:\n      0x00\n      mload(0x40)\n      dup1\n      dup4\n      sub\n      dup2\n      dup6\n      dup8\n      gas\n      call\n      swap3\n      pop\n      pop\n      pop\n      returndatasize\n      dup1\n      0x00\n      dup2\n      eq\n      tag_46\n      jumpi\n      mload(0x40)\n      swap2\n      pop\n      and(add(returndatasize, 0x3f), not(0x1f))\n      dup3\n      add\n      0x40\n      mstore\n      returndatasize\n      dup3\n      mstore\n      returndatasize\n      0x00\n      0x20\n      dup5\n      add\n      returndatacopy\n      jump(tag_45)\n    tag_46:\n      0x60\n      swap2\n      pop\n    tag_45:\n      pop\n        /* \"contracts used for\\xc2\\xa0 RC system/DAI.sol\":965:1030  (bool success, ) = msg.sender.call{value: collateralToReturn}(\"\") */\n      pop\n      swap1\n      pop\n        /* \"contracts used for\\xc2\\xa0 RC system/DAI.sol\":1049:1056  success */\n      dup1\n        /* \"contracts used for\\xc2\\xa0 RC system/DAI.sol\":1041:1090  require(success, \"Transfer of collateral failed\") */\n      tag_47\n      jumpi\n      mload(0x40)\n      0x08c379a000000000000000000000000000000000000000000000000000000000\n      dup2\n      mstore\n      0x04\n      add\n      tag_48\n      swap1\n      tag_49\n      jump\t// in\n    tag_48:\n      mload(0x40)\n      dup1\n      swap2\n      sub\n      swap1\n      revert\n    tag_47:\n        /* \"contracts used for\\xc2\\xa0 RC system/DAI.sol\":651:1098  {... */\n      pop\n      pop\n        /* \"contracts used for\\xc2\\xa0 RC system/DAI.sol\":606:1098  function burnDAI(uint256 daiAmount) external {... */\n      pop\n      jump\t// out\n        /* \"contracts used for\\xc2\\xa0 RC system/DAI.sol\":244:598  function mintDAI(uint256 daiAmount) external payable {... */\n    tag_14:\n        /* \"contracts used for\\xc2\\xa0 RC system/DAI.sol\":328:329  0 */\n      0x00\n        /* \"contracts used for\\xc2\\xa0 RC system/DAI.sol\":316:325  msg.value */\n      callvalue\n        /* \"contracts used for\\xc2\\xa0 RC system/DAI.sol\":316:329  msg.value > 0 */\n      gt\n        /* \"contracts used for\\xc2\\xa0 RC system/DAI.sol\":308:363  require(msg.value > 0, \"Must provide collateral (ETH)\") */\n      tag_51\n      jumpi\n      mload(0x40)\n      0x08c379a000000000000000000000000000000000000000000000000000000000\n      dup2\n      mstore\n      0x04\n      add\n      tag_52\n      swap1\n      tag_53\n      jump\t// in\n    tag_52:\n      mload(0x40)\n      dup1\n      swap2\n      sub\n      swap1\n      revert\n    tag_51:\n        /* \"contracts used for\\xc2\\xa0 RC system/DAI.sol\":374:400  uint256 collateralRequired */\n      0x00\n        /* \"contracts used for\\xc2\\xa0 RC system/DAI.sol\":436:439  100 */\n      0x64\n        /* \"contracts used for\\xc2\\xa0 RC system/DAI.sol\":207:210  150 */\n      0x96\n        /* \"contracts used for\\xc2\\xa0 RC system/DAI.sol\":404:413  daiAmount */\n      dup4\n        /* \"contracts used for\\xc2\\xa0 RC system/DAI.sol\":404:432  daiAmount * COLLATERAL_RATIO */\n      tag_54\n      swap2\n      swap1\n      tag_36\n      jump\t// in\n    tag_54:\n        /* \"contracts used for\\xc2\\xa0 RC system/DAI.sol\":403:439  (daiAmount * COLLATERAL_RATIO) / 100 */\n      tag_55\n      swap2\n      swap1\n      tag_38\n      jump\t// in\n    tag_55:\n        /* \"contracts used for\\xc2\\xa0 RC system/DAI.sol\":374:439  uint256 collateralRequired = (daiAmount * COLLATERAL_RATIO) / 100 */\n      swap1\n      pop\n        /* \"contracts used for\\xc2\\xa0 RC system/DAI.sol\":471:489  collateralRequired */\n      dup1\n        /* \"contracts used for\\xc2\\xa0 RC system/DAI.sol\":458:467  msg.value */\n      callvalue\n        /* \"contracts used for\\xc2\\xa0 RC system/DAI.sol\":458:489  msg.value >= collateralRequired */\n      lt\n      iszero\n        /* \"contracts used for\\xc2\\xa0 RC system/DAI.sol\":450:517  require(msg.value >= collateralRequired, \"Insufficient collateral\") */\n      tag_56\n      jumpi\n      mload(0x40)\n      0x08c379a000000000000000000000000000000000000000000000000000000000\n      dup2\n      mstore\n      0x04\n      add\n      tag_57\n      swap1\n      tag_58\n      jump\t// in\n    tag_57:\n      mload(0x40)\n      dup1\n      swap2\n      sub\n      swap1\n      revert\n    tag_56:\n        /* \"contracts used for\\xc2\\xa0 RC system/DAI.sol\":297:598  {... */\n      pop\n        /* \"contracts used for\\xc2\\xa0 RC system/DAI.sol\":244:598  function mintDAI(uint256 daiAmount) external payable {... */\n      pop\n      jump\t// out\n        /* \"contracts used for\\xc2\\xa0 RC system/DAI.sol\":105:157  mapping(address => uint256) public collateralBalance */\n    tag_19:\n      mstore(0x20, 0x01)\n      dup1\n      0x00\n      mstore\n      keccak256(0x00, 0x40)\n      0x00\n      swap2\n      pop\n      swap1\n      pop\n      sload\n      dup2\n      jump\t// out\n        /* \"contracts used for\\xc2\\xa0 RC system/DAI.sol\":53:98  mapping(address => uint256) public daiBalance */\n    tag_25:\n      mstore(0x20, 0x00)\n      dup1\n      0x00\n      mstore\n      keccak256(0x00, 0x40)\n      0x00\n      swap2\n      pop\n      swap1\n      pop\n      sload\n      dup2\n      jump\t// out\n        /* \"contracts used for\\xc2\\xa0 RC system/DAI.sol\":164:210  uint256 public constant COLLATERAL_RATIO = 150 */\n    tag_29:\n        /* \"contracts used for\\xc2\\xa0 RC system/DAI.sol\":207:210  150 */\n      0x96\n        /* \"contracts used for\\xc2\\xa0 RC system/DAI.sol\":164:210  uint256 public constant COLLATERAL_RATIO = 150 */\n      dup2\n      jump\t// out\n        /* \"#utility.yul\":88:205   */\n    tag_60:\n        /* \"#utility.yul\":197:198   */\n      0x00\n        /* \"#utility.yul\":194:195   */\n      dup1\n        /* \"#utility.yul\":187:199   */\n      revert\n        /* \"#utility.yul\":334:411   */\n    tag_62:\n        /* \"#utility.yul\":371:378   */\n      0x00\n        /* \"#utility.yul\":400:405   */\n      dup2\n        /* \"#utility.yul\":389:405   */\n      swap1\n      pop\n        /* \"#utility.yul\":334:411   */\n      swap2\n      swap1\n      pop\n      jump\t// out\n        /* \"#utility.yul\":417:539   */\n    tag_63:\n        /* \"#utility.yul\":490:514   */\n      tag_90\n        /* \"#utility.yul\":508:513   */\n      dup2\n        /* \"#utility.yul\":490:514   */\n      tag_62\n      jump\t// in\n    tag_90:\n        /* \"#utility.yul\":483:488   */\n      dup2\n        /* \"#utility.yul\":480:515   */\n      eq\n        /* \"#utility.yul\":470:533   */\n      tag_91\n      jumpi\n        /* \"#utility.yul\":529:530   */\n      0x00\n        /* \"#utility.yul\":526:527   */\n      dup1\n        /* \"#utility.yul\":519:531   */\n      revert\n        /* \"#utility.yul\":470:533   */\n    tag_91:\n        /* \"#utility.yul\":417:539   */\n      pop\n      jump\t// out\n        /* \"#utility.yul\":545:684   */\n    tag_64:\n        /* \"#utility.yul\":591:596   */\n      0x00\n        /* \"#utility.yul\":629:635   */\n      dup2\n        /* \"#utility.yul\":616:636   */\n      calldataload\n        /* \"#utility.yul\":607:636   */\n      swap1\n      pop\n        /* \"#utility.yul\":645:678   */\n      tag_93\n        /* \"#utility.yul\":672:677   */\n      dup2\n        /* \"#utility.yul\":645:678   */\n      tag_63\n      jump\t// in\n    tag_93:\n        /* \"#utility.yul\":545:684   */\n      swap3\n      swap2\n      pop\n      pop\n      jump\t// out\n        /* \"#utility.yul\":690:1019   */\n    tag_10:\n        /* \"#utility.yul\":749:755   */\n      0x00\n        /* \"#utility.yul\":798:800   */\n      0x20\n        /* \"#utility.yul\":786:795   */\n      dup3\n        /* \"#utility.yul\":777:784   */\n      dup5\n        /* \"#utility.yul\":773:796   */\n      sub\n        /* \"#utility.yul\":769:801   */\n      slt\n        /* \"#utility.yul\":766:885   */\n      iszero\n      tag_95\n      jumpi\n        /* \"#utility.yul\":804:883   */\n      tag_96\n      tag_60\n      jump\t// in\n    tag_96:\n        /* \"#utility.yul\":766:885   */\n    tag_95:\n        /* \"#utility.yul\":924:925   */\n      0x00\n        /* \"#utility.yul\":949:1002   */\n      tag_97\n        /* \"#utility.yul\":994:1001   */\n      dup5\n        /* \"#utility.yul\":985:991   */\n      dup3\n        /* \"#utility.yul\":974:983   */\n      dup6\n        /* \"#utility.yul\":970:992   */\n      add\n        /* \"#utility.yul\":949:1002   */\n      tag_64\n      jump\t// in\n    tag_97:\n        /* \"#utility.yul\":939:1002   */\n      swap2\n      pop\n        /* \"#utility.yul\":895:1012   */\n      pop\n        /* \"#utility.yul\":690:1019   */\n      swap3\n      swap2\n      pop\n      pop\n      jump\t// out\n        /* \"#utility.yul\":1025:1151   */\n    tag_65:\n        /* \"#utility.yul\":1062:1069   */\n      0x00\n        /* \"#utility.yul\":1102:1144   */\n      0xffffffffffffffffffffffffffffffffffffffff\n        /* \"#utility.yul\":1095:1100   */\n      dup3\n        /* \"#utility.yul\":1091:1145   */\n      and\n        /* \"#utility.yul\":1080:1145   */\n      swap1\n      pop\n        /* \"#utility.yul\":1025:1151   */\n      swap2\n      swap1\n      pop\n      jump\t// out\n        /* \"#utility.yul\":1157:1253   */\n    tag_66:\n        /* \"#utility.yul\":1194:1201   */\n      0x00\n        /* \"#utility.yul\":1223:1247   */\n      tag_100\n        /* \"#utility.yul\":1241:1246   */\n      dup3\n        /* \"#utility.yul\":1223:1247   */\n      tag_65\n      jump\t// in\n    tag_100:\n        /* \"#utility.yul\":1212:1247   */\n      swap1\n      pop\n        /* \"#utility.yul\":1157:1253   */\n      swap2\n      swap1\n      pop\n      jump\t// out\n        /* \"#utility.yul\":1259:1381   */\n    tag_67:\n        /* \"#utility.yul\":1332:1356   */\n      tag_102\n        /* \"#utility.yul\":1350:1355   */\n      dup2\n        /* \"#utility.yul\":1332:1356   */\n      tag_66\n      jump\t// in\n    tag_102:\n        /* \"#utility.yul\":1325:1330   */\n      dup2\n        /* \"#utility.yul\":1322:1357   */\n      eq\n        /* \"#utility.yul\":1312:1375   */\n      tag_103\n      jumpi\n        /* \"#utility.yul\":1371:1372   */\n      0x00\n        /* \"#utility.yul\":1368:1369   */\n      dup1\n        /* \"#utility.yul\":1361:1373   */\n      revert\n        /* \"#utility.yul\":1312:1375   */\n    tag_103:\n        /* \"#utility.yul\":1259:1381   */\n      pop\n      jump\t// out\n        /* \"#utility.yul\":1387:1526   */\n    tag_68:\n        /* \"#utility.yul\":1433:1438   */\n      0x00\n        /* \"#utility.yul\":1471:1477   */\n      dup2\n        /* \"#utility.yul\":1458:1478   */\n      calldataload\n        /* \"#utility.yul\":1449:1478   */\n      swap1\n      pop\n        /* \"#utility.yul\":1487:1520   */\n      tag_105\n        /* \"#utility.yul\":1514:1519   */\n      dup2\n        /* \"#utility.yul\":1487:1520   */\n      tag_67\n      jump\t// in\n    tag_105:\n        /* \"#utility.yul\":1387:1526   */\n      swap3\n      swap2\n      pop\n      pop\n      jump\t// out\n        /* \"#utility.yul\":1532:1861   */\n    tag_18:\n        /* \"#utility.yul\":1591:1597   */\n      0x00\n        /* \"#utility.yul\":1640:1642   */\n      0x20\n        /* \"#utility.yul\":1628:1637   */\n      dup3\n        /* \"#utility.yul\":1619:1626   */\n      dup5\n        /* \"#utility.yul\":1615:1638   */\n      sub\n        /* \"#utility.yul\":1611:1643   */\n      slt\n        /* \"#utility.yul\":1608:1727   */\n      iszero\n      tag_107\n      jumpi\n        /* \"#utility.yul\":1646:1725   */\n      tag_108\n      tag_60\n      jump\t// in\n    tag_108:\n        /* \"#utility.yul\":1608:1727   */\n    tag_107:\n        /* \"#utility.yul\":1766:1767   */\n      0x00\n        /* \"#utility.yul\":1791:1844   */\n      tag_109\n        /* \"#utility.yul\":1836:1843   */\n      dup5\n        /* \"#utility.yul\":1827:1833   */\n      dup3\n        /* \"#utility.yul\":1816:1825   */\n      dup6\n        /* \"#utility.yul\":1812:1834   */\n      add\n        /* \"#utility.yul\":1791:1844   */\n      tag_68\n      jump\t// in\n    tag_109:\n        /* \"#utility.yul\":1781:1844   */\n      swap2\n      pop\n        /* \"#utility.yul\":1737:1854   */\n      pop\n        /* \"#utility.yul\":1532:1861   */\n      swap3\n      swap2\n      pop\n      pop\n      jump\t// out\n        /* \"#utility.yul\":1867:1985   */\n    tag_69:\n        /* \"#utility.yul\":1954:1978   */\n      tag_111\n        /* \"#utility.yul\":1972:1977   */\n      dup2\n        /* \"#utility.yul\":1954:1978   */\n      tag_62\n      jump\t// in\n    tag_111:\n        /* \"#utility.yul\":1949:1952   */\n      dup3\n        /* \"#utility.yul\":1942:1979   */\n      mstore\n        /* \"#utility.yul\":1867:1985   */\n      pop\n      pop\n      jump\t// out\n        /* \"#utility.yul\":1991:2213   */\n    tag_21:\n        /* \"#utility.yul\":2084:2088   */\n      0x00\n        /* \"#utility.yul\":2122:2124   */\n      0x20\n        /* \"#utility.yul\":2111:2120   */\n      dup3\n        /* \"#utility.yul\":2107:2125   */\n      add\n        /* \"#utility.yul\":2099:2125   */\n      swap1\n      pop\n        /* \"#utility.yul\":2135:2206   */\n      tag_113\n        /* \"#utility.yul\":2203:2204   */\n      0x00\n        /* \"#utility.yul\":2192:2201   */\n      dup4\n        /* \"#utility.yul\":2188:2205   */\n      add\n        /* \"#utility.yul\":2179:2185   */\n      dup5\n        /* \"#utility.yul\":2135:2206   */\n      tag_69\n      jump\t// in\n    tag_113:\n        /* \"#utility.yul\":1991:2213   */\n      swap3\n      swap2\n      pop\n      pop\n      jump\t// out\n        /* \"#utility.yul\":2219:2388   */\n    tag_70:\n        /* \"#utility.yul\":2303:2314   */\n      0x00\n        /* \"#utility.yul\":2337:2343   */\n      dup3\n        /* \"#utility.yul\":2332:2335   */\n      dup3\n        /* \"#utility.yul\":2325:2344   */\n      mstore\n        /* \"#utility.yul\":2377:2381   */\n      0x20\n        /* \"#utility.yul\":2372:2375   */\n      dup3\n        /* \"#utility.yul\":2368:2382   */\n      add\n        /* \"#utility.yul\":2353:2382   */\n      swap1\n      pop\n        /* \"#utility.yul\":2219:2388   */\n      swap3\n      swap2\n      pop\n      pop\n      jump\t// out\n        /* \"#utility.yul\":2394:2568   */\n    tag_71:\n        /* \"#utility.yul\":2534:2560   */\n      0x496e73756666696369656e74204441492062616c616e63650000000000000000\n        /* \"#utility.yul\":2530:2531   */\n      0x00\n        /* \"#utility.yul\":2522:2528   */\n      dup3\n        /* \"#utility.yul\":2518:2532   */\n      add\n        /* \"#utility.yul\":2511:2561   */\n      mstore\n        /* \"#utility.yul\":2394:2568   */\n      pop\n      jump\t// out\n        /* \"#utility.yul\":2574:2940   */\n    tag_72:\n        /* \"#utility.yul\":2716:2719   */\n      0x00\n        /* \"#utility.yul\":2737:2804   */\n      tag_117\n        /* \"#utility.yul\":2801:2803   */\n      0x18\n        /* \"#utility.yul\":2796:2799   */\n      dup4\n        /* \"#utility.yul\":2737:2804   */\n      tag_70\n      jump\t// in\n    tag_117:\n        /* \"#utility.yul\":2730:2804   */\n      swap2\n      pop\n        /* \"#utility.yul\":2813:2906   */\n      tag_118\n        /* \"#utility.yul\":2902:2905   */\n      dup3\n        /* \"#utility.yul\":2813:2906   */\n      tag_71\n      jump\t// in\n    tag_118:\n        /* \"#utility.yul\":2931:2933   */\n      0x20\n        /* \"#utility.yul\":2926:2929   */\n      dup3\n        /* \"#utility.yul\":2922:2934   */\n      add\n        /* \"#utility.yul\":2915:2934   */\n      swap1\n      pop\n        /* \"#utility.yul\":2574:2940   */\n      swap2\n      swap1\n      pop\n      jump\t// out\n        /* \"#utility.yul\":2946:3365   */\n    tag_34:\n        /* \"#utility.yul\":3112:3116   */\n      0x00\n        /* \"#utility.yul\":3150:3152   */\n      0x20\n        /* \"#utility.yul\":3139:3148   */\n      dup3\n        /* \"#utility.yul\":3135:3153   */\n      add\n        /* \"#utility.yul\":3127:3153   */\n      swap1\n      pop\n        /* \"#utility.yul\":3199:3208   */\n      dup2\n        /* \"#utility.yul\":3193:3197   */\n      dup2\n        /* \"#utility.yul\":3189:3209   */\n      sub\n        /* \"#utility.yul\":3185:3186   */\n      0x00\n        /* \"#utility.yul\":3174:3183   */\n      dup4\n        /* \"#utility.yul\":3170:3187   */\n      add\n        /* \"#utility.yul\":3163:3210   */\n      mstore\n        /* \"#utility.yul\":3227:3358   */\n      tag_120\n        /* \"#utility.yul\":3353:3357   */\n      dup2\n        /* \"#utility.yul\":3227:3358   */\n      tag_72\n      jump\t// in\n    tag_120:\n        /* \"#utility.yul\":3219:3358   */\n      swap1\n      pop\n        /* \"#utility.yul\":2946:3365   */\n      swap2\n      swap1\n      pop\n      jump\t// out\n        /* \"#utility.yul\":3371:3551   */\n    tag_73:\n        /* \"#utility.yul\":3419:3496   */\n      0x4e487b7100000000000000000000000000000000000000000000000000000000\n        /* \"#utility.yul\":3416:3417   */\n      0x00\n        /* \"#utility.yul\":3409:3497   */\n      mstore\n        /* \"#utility.yul\":3516:3520   */\n      0x11\n        /* \"#utility.yul\":3513:3514   */\n      0x04\n        /* \"#utility.yul\":3506:3521   */\n      mstore\n        /* \"#utility.yul\":3540:3544   */\n      0x24\n        /* \"#utility.yul\":3537:3538   */\n      0x00\n        /* \"#utility.yul\":3530:3545   */\n      revert\n        /* \"#utility.yul\":3557:3967   */\n    tag_36:\n        /* \"#utility.yul\":3597:3604   */\n      0x00\n        /* \"#utility.yul\":3620:3640   */\n      tag_123\n        /* \"#utility.yul\":3638:3639   */\n      dup3\n        /* \"#utility.yul\":3620:3640   */\n      tag_62\n      jump\t// in\n    tag_123:\n        /* \"#utility.yul\":3615:3640   */\n      swap2\n      pop\n        /* \"#utility.yul\":3654:3674   */\n      tag_124\n        /* \"#utility.yul\":3672:3673   */\n      dup4\n        /* \"#utility.yul\":3654:3674   */\n      tag_62\n      jump\t// in\n    tag_124:\n        /* \"#utility.yul\":3649:3674   */\n      swap3\n      pop\n        /* \"#utility.yul\":3709:3710   */\n      dup3\n        /* \"#utility.yul\":3706:3707   */\n      dup3\n        /* \"#utility.yul\":3702:3711   */\n      mul\n        /* \"#utility.yul\":3731:3761   */\n      tag_125\n        /* \"#utility.yul\":3749:3760   */\n      dup2\n        /* \"#utility.yul\":3731:3761   */\n      tag_62\n      jump\t// in\n    tag_125:\n        /* \"#utility.yul\":3720:3761   */\n      swap2\n      pop\n        /* \"#utility.yul\":3910:3911   */\n      dup3\n        /* \"#utility.yul\":3901:3908   */\n      dup3\n        /* \"#utility.yul\":3897:3912   */\n      div\n        /* \"#utility.yul\":3894:3895   */\n      dup5\n        /* \"#utility.yul\":3891:3913   */\n      eq\n        /* \"#utility.yul\":3871:3872   */\n      dup4\n        /* \"#utility.yul\":3864:3873   */\n      iszero\n        /* \"#utility.yul\":3844:3927   */\n      or\n        /* \"#utility.yul\":3821:3960   */\n      tag_126\n      jumpi\n        /* \"#utility.yul\":3940:3958   */\n      tag_127\n      tag_73\n      jump\t// in\n    tag_127:\n        /* \"#utility.yul\":3821:3960   */\n    tag_126:\n        /* \"#utility.yul\":3605:3967   */\n      pop\n        /* \"#utility.yul\":3557:3967   */\n      swap3\n      swap2\n      pop\n      pop\n      jump\t// out\n        /* \"#utility.yul\":3973:4153   */\n    tag_74:\n        /* \"#utility.yul\":4021:4098   */\n      0x4e487b7100000000000000000000000000000000000000000000000000000000\n        /* \"#utility.yul\":4018:4019   */\n      0x00\n        /* \"#utility.yul\":4011:4099   */\n      mstore\n        /* \"#utility.yul\":4118:4122   */\n      0x12\n        /* \"#utility.yul\":4115:4116   */\n      0x04\n        /* \"#utility.yul\":4108:4123   */\n      mstore\n        /* \"#utility.yul\":4142:4146   */\n      0x24\n        /* \"#utility.yul\":4139:4140   */\n      0x00\n        /* \"#utility.yul\":4132:4147   */\n      revert\n        /* \"#utility.yul\":4159:4344   */\n    tag_38:\n        /* \"#utility.yul\":4199:4200   */\n      0x00\n        /* \"#utility.yul\":4216:4236   */\n      tag_130\n        /* \"#utility.yul\":4234:4235   */\n      dup3\n        /* \"#utility.yul\":4216:4236   */\n      tag_62\n      jump\t// in\n    tag_130:\n        /* \"#utility.yul\":4211:4236   */\n      swap2\n      pop\n        /* \"#utility.yul\":4250:4270   */\n      tag_131\n        /* \"#utility.yul\":4268:4269   */\n      dup4\n        /* \"#utility.yul\":4250:4270   */\n      tag_62\n      jump\t// in\n    tag_131:\n        /* \"#utility.yul\":4245:4270   */\n      swap3\n      pop\n        /* \"#utility.yul\":4289:4290   */\n      dup3\n        /* \"#utility.yul\":4279:4314   */\n      tag_132\n      jumpi\n        /* \"#utility.yul\":4294:4312   */\n      tag_133\n      tag_74\n      jump\t// in\n    tag_133:\n        /* \"#utility.yul\":4279:4314   */\n    tag_132:\n        /* \"#utility.yul\":4336:4337   */\n      dup3\n        /* \"#utility.yul\":4333:4334   */\n      dup3\n        /* \"#utility.yul\":4329:4338   */\n      div\n        /* \"#utility.yul\":4324:4338   */\n      swap1\n      pop\n        /* \"#utility.yul\":4159:4344   */\n      swap3\n      swap2\n      pop\n      pop\n      jump\t// out\n        /* \"#utility.yul\":4350:4544   */\n    tag_40:\n        /* \"#utility.yul\":4390:4394   */\n      0x00\n        /* \"#utility.yul\":4410:4430   */\n      tag_135\n        /* \"#utility.yul\":4428:4429   */\n      dup3\n        /* \"#utility.yul\":4410:4430   */\n      tag_62\n      jump\t// in\n    tag_135:\n        /* \"#utility.yul\":4405:4430   */\n      swap2\n      pop\n        /* \"#utility.yul\":4444:4464   */\n      tag_136\n        /* \"#utility.yul\":4462:4463   */\n      dup4\n        /* \"#utility.yul\":4444:4464   */\n      tag_62\n      jump\t// in\n    tag_136:\n        /* \"#utility.yul\":4439:4464   */\n      swap3\n      pop\n        /* \"#utility.yul\":4488:4489   */\n      dup3\n        /* \"#utility.yul\":4485:4486   */\n      dup3\n        /* \"#utility.yul\":4481:4490   */\n      sub\n        /* \"#utility.yul\":4473:4490   */\n      swap1\n      pop\n        /* \"#utility.yul\":4512:4513   */\n      dup2\n        /* \"#utility.yul\":4506:4510   */\n      dup2\n        /* \"#utility.yul\":4503:4514   */\n      gt\n        /* \"#utility.yul\":4500:4537   */\n      iszero\n      tag_137\n      jumpi\n        /* \"#utility.yul\":4517:4535   */\n      tag_138\n      tag_73\n      jump\t// in\n    tag_138:\n        /* \"#utility.yul\":4500:4537   */\n    tag_137:\n        /* \"#utility.yul\":4350:4544   */\n      swap3\n      swap2\n      pop\n      pop\n      jump\t// out\n        /* \"#utility.yul\":4550:4697   */\n    tag_75:\n        /* \"#utility.yul\":4651:4662   */\n      0x00\n        /* \"#utility.yul\":4688:4691   */\n      dup2\n        /* \"#utility.yul\":4673:4691   */\n      swap1\n      pop\n        /* \"#utility.yul\":4550:4697   */\n      swap3\n      swap2\n      pop\n      pop\n      jump\t// out\n        /* \"#utility.yul\":4703:4817   */\n    tag_76:\n      pop\n      jump\t// out\n        /* \"#utility.yul\":4823:5221   */\n    tag_77:\n        /* \"#utility.yul\":4982:4985   */\n      0x00\n        /* \"#utility.yul\":5003:5086   */\n      tag_142\n        /* \"#utility.yul\":5084:5085   */\n      0x00\n        /* \"#utility.yul\":5079:5082   */\n      dup4\n        /* \"#utility.yul\":5003:5086   */\n      tag_75\n      jump\t// in\n    tag_142:\n        /* \"#utility.yul\":4996:5086   */\n      swap2\n      pop\n        /* \"#utility.yul\":5095:5188   */\n      tag_143\n        /* \"#utility.yul\":5184:5187   */\n      dup3\n        /* \"#utility.yul\":5095:5188   */\n      tag_76\n      jump\t// in\n    tag_143:\n        /* \"#utility.yul\":5213:5214   */\n      0x00\n        /* \"#utility.yul\":5208:5211   */\n      dup3\n        /* \"#utility.yul\":5204:5215   */\n      add\n        /* \"#utility.yul\":5197:5215   */\n      swap1\n      pop\n        /* \"#utility.yul\":4823:5221   */\n      swap2\n      swap1\n      pop\n      jump\t// out\n        /* \"#utility.yul\":5227:5606   */\n    tag_43:\n        /* \"#utility.yul\":5411:5414   */\n      0x00\n        /* \"#utility.yul\":5433:5580   */\n      tag_145\n        /* \"#utility.yul\":5576:5579   */\n      dup3\n        /* \"#utility.yul\":5433:5580   */\n      tag_77\n      jump\t// in\n    tag_145:\n        /* \"#utility.yul\":5426:5580   */\n      swap2\n      pop\n        /* \"#utility.yul\":5597:5600   */\n      dup2\n        /* \"#utility.yul\":5590:5600   */\n      swap1\n      pop\n        /* \"#utility.yul\":5227:5606   */\n      swap2\n      swap1\n      pop\n      jump\t// out\n        /* \"#utility.yul\":5612:5791   */\n    tag_78:\n        /* \"#utility.yul\":5752:5783   */\n      0x5472616e73666572206f6620636f6c6c61746572616c206661696c6564000000\n        /* \"#utility.yul\":5748:5749   */\n      0x00\n        /* \"#utility.yul\":5740:5746   */\n      dup3\n        /* \"#utility.yul\":5736:5750   */\n      add\n        /* \"#utility.yul\":5729:5784   */\n      mstore\n        /* \"#utility.yul\":5612:5791   */\n      pop\n      jump\t// out\n        /* \"#utility.yul\":5797:6163   */\n    tag_79:\n        /* \"#utility.yul\":5939:5942   */\n      0x00\n        /* \"#utility.yul\":5960:6027   */\n      tag_148\n        /* \"#utility.yul\":6024:6026   */\n      0x1d\n        /* \"#utility.yul\":6019:6022   */\n      dup4\n        /* \"#utility.yul\":5960:6027   */\n      tag_70\n      jump\t// in\n    tag_148:\n        /* \"#utility.yul\":5953:6027   */\n      swap2\n      pop\n        /* \"#utility.yul\":6036:6129   */\n      tag_149\n        /* \"#utility.yul\":6125:6128   */\n      dup3\n        /* \"#utility.yul\":6036:6129   */\n      tag_78\n      jump\t// in\n    tag_149:\n        /* \"#utility.yul\":6154:6156   */\n      0x20\n        /* \"#utility.yul\":6149:6152   */\n      dup3\n        /* \"#utility.yul\":6145:6157   */\n      add\n        /* \"#utility.yul\":6138:6157   */\n      swap1\n      pop\n        /* \"#utility.yul\":5797:6163   */\n      swap2\n      swap1\n      pop\n      jump\t// out\n        /* \"#utility.yul\":6169:6588   */\n    tag_49:\n        /* \"#utility.yul\":6335:6339   */\n      0x00\n        /* \"#utility.yul\":6373:6375   */\n      0x20\n        /* \"#utility.yul\":6362:6371   */\n      dup3\n        /* \"#utility.yul\":6358:6376   */\n      add\n        /* \"#utility.yul\":6350:6376   */\n      swap1\n      pop\n        /* \"#utility.yul\":6422:6431   */\n      dup2\n        /* \"#utility.yul\":6416:6420   */\n      dup2\n        /* \"#utility.yul\":6412:6432   */\n      sub\n        /* \"#utility.yul\":6408:6409   */\n      0x00\n        /* \"#utility.yul\":6397:6406   */\n      dup4\n        /* \"#utility.yul\":6393:6410   */\n      add\n        /* \"#utility.yul\":6386:6433   */\n      mstore\n        /* \"#utility.yul\":6450:6581   */\n      tag_151\n        /* \"#utility.yul\":6576:6580   */\n      dup2\n        /* \"#utility.yul\":6450:6581   */\n      tag_79\n      jump\t// in\n    tag_151:\n        /* \"#utility.yul\":6442:6581   */\n      swap1\n      pop\n        /* \"#utility.yul\":6169:6588   */\n      swap2\n      swap1\n      pop\n      jump\t// out\n        /* \"#utility.yul\":6594:6773   */\n    tag_80:\n        /* \"#utility.yul\":6734:6765   */\n      0x4d7573742070726f7669646520636f6c6c61746572616c202845544829000000\n        /* \"#utility.yul\":6730:6731   */\n      0x00\n        /* \"#utility.yul\":6722:6728   */\n      dup3\n        /* \"#utility.yul\":6718:6732   */\n      add\n        /* \"#utility.yul\":6711:6766   */\n      mstore\n        /* \"#utility.yul\":6594:6773   */\n      pop\n      jump\t// out\n        /* \"#utility.yul\":6779:7145   */\n    tag_81:\n        /* \"#utility.yul\":6921:6924   */\n      0x00\n        /* \"#utility.yul\":6942:7009   */\n      tag_154\n        /* \"#utility.yul\":7006:7008   */\n      0x1d\n        /* \"#utility.yul\":7001:7004   */\n      dup4\n        /* \"#utility.yul\":6942:7009   */\n      tag_70\n      jump\t// in\n    tag_154:\n        /* \"#utility.yul\":6935:7009   */\n      swap2\n      pop\n        /* \"#utility.yul\":7018:7111   */\n      tag_155\n        /* \"#utility.yul\":7107:7110   */\n      dup3\n        /* \"#utility.yul\":7018:7111   */\n      tag_80\n      jump\t// in\n    tag_155:\n        /* \"#utility.yul\":7136:7138   */\n      0x20\n        /* \"#utility.yul\":7131:7134   */\n      dup3\n        /* \"#utility.yul\":7127:7139   */\n      add\n        /* \"#utility.yul\":7120:7139   */\n      swap1\n      pop\n        /* \"#utility.yul\":6779:7145   */\n      swap2\n      swap1\n      pop\n      jump\t// out\n        /* \"#utility.yul\":7151:7570   */\n    tag_53:\n        /* \"#utility.yul\":7317:7321   */\n      0x00\n        /* \"#utility.yul\":7355:7357   */\n      0x20\n        /* \"#utility.yul\":7344:7353   */\n      dup3\n        /* \"#utility.yul\":7340:7358   */\n      add\n        /* \"#utility.yul\":7332:7358   */\n      swap1\n      pop\n        /* \"#utility.yul\":7404:7413   */\n      dup2\n        /* \"#utility.yul\":7398:7402   */\n      dup2\n        /* \"#utility.yul\":7394:7414   */\n      sub\n        /* \"#utility.yul\":7390:7391   */\n      0x00\n        /* \"#utility.yul\":7379:7388   */\n      dup4\n        /* \"#utility.yul\":7375:7392   */\n      add\n        /* \"#utility.yul\":7368:7415   */\n      mstore\n        /* \"#utility.yul\":7432:7563   */\n      tag_157\n        /* \"#utility.yul\":7558:7562   */\n      dup2\n        /* \"#utility.yul\":7432:7563   */\n      tag_81\n      jump\t// in\n    tag_157:\n        /* \"#utility.yul\":7424:7563   */\n      swap1\n      pop\n        /* \"#utility.yul\":7151:7570   */\n      swap2\n      swap1\n      pop\n      jump\t// out\n        /* \"#utility.yul\":7576:7749   */\n    tag_82:\n        /* \"#utility.yul\":7716:7741   */\n      0x496e73756666696369656e7420636f6c6c61746572616c000000000000000000\n        /* \"#utility.yul\":7712:7713   */\n      0x00\n        /* \"#utility.yul\":7704:7710   */\n      dup3\n        /* \"#utility.yul\":7700:7714   */\n      add\n        /* \"#utility.yul\":7693:7742   */\n      mstore\n        /* \"#utility.yul\":7576:7749   */\n      pop\n      jump\t// out\n        /* \"#utility.yul\":7755:8121   */\n    tag_83:\n        /* \"#utility.yul\":7897:7900   */\n      0x00\n        /* \"#utility.yul\":7918:7985   */\n      tag_160\n        /* \"#utility.yul\":7982:7984   */\n      0x17\n        /* \"#utility.yul\":7977:7980   */\n      dup4\n        /* \"#utility.yul\":7918:7985   */\n      tag_70\n      jump\t// in\n    tag_160:\n        /* \"#utility.yul\":7911:7985   */\n      swap2\n      pop\n        /* \"#utility.yul\":7994:8087   */\n      tag_161\n        /* \"#utility.yul\":8083:8086   */\n      dup3\n        /* \"#utility.yul\":7994:8087   */\n      tag_82\n      jump\t// in\n    tag_161:\n        /* \"#utility.yul\":8112:8114   */\n      0x20\n        /* \"#utility.yul\":8107:8110   */\n      dup3\n        /* \"#utility.yul\":8103:8115   */\n      add\n        /* \"#utility.yul\":8096:8115   */\n      swap1\n      pop\n        /* \"#utility.yul\":7755:8121   */\n      swap2\n      swap1\n      pop\n      jump\t// out\n        /* \"#utility.yul\":8127:8546   */\n    tag_58:\n        /* \"#utility.yul\":8293:8297   */\n      0x00\n        /* \"#utility.yul\":8331:8333   */\n      0x20\n        /* \"#utility.yul\":8320:8329   */\n      dup3\n        /* \"#utility.yul\":8316:8334   */\n      add\n        /* \"#utility.yul\":8308:8334   */\n      swap1\n      pop\n        /* \"#utility.yul\":8380:8389   */\n      dup2\n        /* \"#utility.yul\":8374:8378   */\n      dup2\n        /* \"#utility.yul\":8370:8390   */\n      sub\n        /* \"#utility.yul\":8366:8367   */\n      0x00\n        /* \"#utility.yul\":8355:8364   */\n      dup4\n        /* \"#utility.yul\":8351:8368   */\n      add\n        /* \"#utility.yul\":8344:8391   */\n      mstore\n        /* \"#utility.yul\":8408:8539   */\n      tag_163\n        /* \"#utility.yul\":8534:8538   */\n      dup2\n        /* \"#utility.yul\":8408:8539   */\n      tag_83\n      jump\t// in\n    tag_163:\n        /* \"#utility.yul\":8400:8539   */\n      swap1\n      pop\n        /* \"#utility.yul\":8127:8546   */\n      swap2\n      swap1\n      pop\n      jump\t// out\n\n    auxdata: 0xa2646970667358221220eb73fe9f262e3cc8d80caedbce24f82f3befd3195f94798d334d2ac3687add9264736f6c63430008120033\n}\n",
				"bytecode": {
					"linkReferences": {},
					"object": "608060405234801561001057600080fd5b506108e9806100206000396000f3fe60806040526004361061004a5760003560e01c80638f58a8b41461004f57806395a9fc2f14610078578063a1bf284014610094578063d7f7098f146100d1578063d9e69a051461010e575b600080fd5b34801561005b57600080fd5b50610076600480360381019061007191906104c5565b610139565b005b610092600480360381019061008d91906104c5565b6103ae565b005b3480156100a057600080fd5b506100bb60048036038101906100b69190610550565b610455565b6040516100c8919061058c565b60405180910390f35b3480156100dd57600080fd5b506100f860048036038101906100f39190610550565b61046d565b604051610105919061058c565b60405180910390f35b34801561011a57600080fd5b50610123610485565b604051610130919061058c565b60405180910390f35b806000803373ffffffffffffffffffffffffffffffffffffffff1673ffffffffffffffffffffffffffffffffffffffff1681526020019081526020016000205410156101ba576040517f08c379a00000000000000000000000000000000000000000000000000000000081526004016101b190610604565b60405180910390fd5b60008060003373ffffffffffffffffffffffffffffffffffffffff1673ffffffffffffffffffffffffffffffffffffffff16815260200190815260200160002054600160003373ffffffffffffffffffffffffffffffffffffffff1673ffffffffffffffffffffffffffffffffffffffff16815260200190815260200160002054836102469190610653565b61025091906106c4565b9050816000803373ffffffffffffffffffffffffffffffffffffffff1673ffffffffffffffffffffffffffffffffffffffff16815260200190815260200160002060008282546102a091906106f5565b9250508190555080600160003373ffffffffffffffffffffffffffffffffffffffff1673ffffffffffffffffffffffffffffffffffffffff16815260200190815260200160002060008282546102f691906106f5565b9250508190555060003373ffffffffffffffffffffffffffffffffffffffff16826040516103239061075a565b60006040518083038185875af1925050503d8060008114610360576040519150601f19603f3d011682016040523d82523d6000602084013e610365565b606091505b50509050806103a9576040517f08c379a00000000000000000000000000000000000000000000000000000000081526004016103a0906107bb565b60405180910390fd5b505050565b600034116103f1576040517f08c379a00000000000000000000000000000000000000000000000000000000081526004016103e890610827565b60405180910390fd5b600060646096836104029190610653565b61040c91906106c4565b905080341015610451576040517f08c379a000000000000000000000000000000000000000000000000000000000815260040161044890610893565b60405180910390fd5b5050565b60016020528060005260406000206000915090505481565b60006020528060005260406000206000915090505481565b609681565b600080fd5b6000819050919050565b6104a28161048f565b81146104ad57600080fd5b50565b6000813590506104bf81610499565b92915050565b6000602082840312156104db576104da61048a565b5b60006104e9848285016104b0565b91505092915050565b600073ffffffffffffffffffffffffffffffffffffffff82169050919050565b600061051d826104f2565b9050919050565b61052d81610512565b811461053857600080fd5b50565b60008135905061054a81610524565b92915050565b6000602082840312156105665761056561048a565b5b60006105748482850161053b565b91505092915050565b6105868161048f565b82525050565b60006020820190506105a1600083018461057d565b92915050565b600082825260208201905092915050565b7f496e73756666696369656e74204441492062616c616e63650000000000000000600082015250565b60006105ee6018836105a7565b91506105f9826105b8565b602082019050919050565b6000602082019050818103600083015261061d816105e1565b9050919050565b7f4e487b7100000000000000000000000000000000000000000000000000000000600052601160045260246000fd5b600061065e8261048f565b91506106698361048f565b92508282026106778161048f565b9150828204841483151761068e5761068d610624565b5b5092915050565b7f4e487b7100000000000000000000000000000000000000000000000000000000600052601260045260246000fd5b60006106cf8261048f565b91506106da8361048f565b9250826106ea576106e9610695565b5b828204905092915050565b60006107008261048f565b915061070b8361048f565b925082820390508181111561072357610722610624565b5b92915050565b600081905092915050565b50565b6000610744600083610729565b915061074f82610734565b600082019050919050565b600061076582610737565b9150819050919050565b7f5472616e73666572206f6620636f6c6c61746572616c206661696c6564000000600082015250565b60006107a5601d836105a7565b91506107b08261076f565b602082019050919050565b600060208201905081810360008301526107d481610798565b9050919050565b7f4d7573742070726f7669646520636f6c6c61746572616c202845544829000000600082015250565b6000610811601d836105a7565b915061081c826107db565b602082019050919050565b6000602082019050818103600083015261084081610804565b9050919050565b7f496e73756666696369656e7420636f6c6c61746572616c000000000000000000600082015250565b600061087d6017836105a7565b915061088882610847565b602082019050919050565b600060208201905081810360008301526108ac81610870565b905091905056fea2646970667358221220eb73fe9f262e3cc8d80caedbce24f82f3befd3195f94798d334d2ac3687add9264736f6c63430008120033",
					"opcodes": "PUSH1 0x80 PUSH1 0x40 MSTORE CALLVALUE DUP1 ISZERO PUSH2 0x10 JUMPI PUSH1 0x0 DUP1 REVERT JUMPDEST POP PUSH2 0x8E9 DUP1 PUSH2 0x20 PUSH1 0x0 CODECOPY PUSH1 0x0 RETURN INVALID PUSH1 0x80 PUSH1 0x40 MSTORE PUSH1 0x4 CALLDATASIZE LT PUSH2 0x4A JUMPI PUSH1 0x0 CALLDATALOAD PUSH1 0xE0 SHR DUP1 PUSH4 0x8F58A8B4 EQ PUSH2 0x4F JUMPI DUP1 PUSH4 0x95A9FC2F EQ PUSH2 0x78 JUMPI DUP1 PUSH4 0xA1BF2840 EQ PUSH2 0x94 JUMPI DUP1 PUSH4 0xD7F7098F EQ PUSH2 0xD1 JUMPI DUP1 PUSH4 0xD9E69A05 EQ PUSH2 0x10E JUMPI JUMPDEST PUSH1 0x0 DUP1 REVERT JUMPDEST CALLVALUE DUP1 ISZERO PUSH2 0x5B JUMPI PUSH1 0x0 DUP1 REVERT JUMPDEST POP PUSH2 0x76 PUSH1 0x4 DUP1 CALLDATASIZE SUB DUP2 ADD SWAP1 PUSH2 0x71 SWAP2 SWAP1 PUSH2 0x4C5 JUMP JUMPDEST PUSH2 0x139 JUMP JUMPDEST STOP JUMPDEST PUSH2 0x92 PUSH1 0x4 DUP1 CALLDATASIZE SUB DUP2 ADD SWAP1 PUSH2 0x8D SWAP2 SWAP1 PUSH2 0x4C5 JUMP JUMPDEST PUSH2 0x3AE JUMP JUMPDEST STOP JUMPDEST CALLVALUE DUP1 ISZERO PUSH2 0xA0 JUMPI PUSH1 0x0 DUP1 REVERT JUMPDEST POP PUSH2 0xBB PUSH1 0x4 DUP1 CALLDATASIZE SUB DUP2 ADD SWAP1 PUSH2 0xB6 SWAP2 SWAP1 PUSH2 0x550 JUMP JUMPDEST PUSH2 0x455 JUMP JUMPDEST PUSH1 0x40 MLOAD PUSH2 0xC8 SWAP2 SWAP1 PUSH2 0x58C JUMP JUMPDEST PUSH1 0x40 MLOAD DUP1 SWAP2 SUB SWAP1 RETURN JUMPDEST CALLVALUE DUP1 ISZERO PUSH2 0xDD JUMPI PUSH1 0x0 DUP1 REVERT JUMPDEST POP PUSH2 0xF8 PUSH1 0x4 DUP1 CALLDATASIZE SUB DUP2 ADD SWAP1 PUSH2 0xF3 SWAP2 SWAP1 PUSH2 0x550 JUMP JUMPDEST PUSH2 0x46D JUMP JUMPDEST PUSH1 0x40 MLOAD PUSH2 0x105 SWAP2 SWAP1 PUSH2 0x58C JUMP JUMPDEST PUSH1 0x40 MLOAD DUP1 SWAP2 SUB SWAP1 RETURN JUMPDEST CALLVALUE DUP1 ISZERO PUSH2 0x11A JUMPI PUSH1 0x0 DUP1 REVERT JUMPDEST POP PUSH2 0x123 PUSH2 0x485 JUMP JUMPDEST PUSH1 0x40 MLOAD PUSH2 0x130 SWAP2 SWAP1 PUSH2 0x58C JUMP JUMPDEST PUSH1 0x40 MLOAD DUP1 SWAP2 SUB SWAP1 RETURN JUMPDEST DUP1 PUSH1 0x0 DUP1 CALLER PUSH20 0xFFFFFFFFFFFFFFFFFFFFFFFFFFFFFFFFFFFFFFFF AND PUSH20 0xFFFFFFFFFFFFFFFFFFFFFFFFFFFFFFFFFFFFFFFF AND DUP2 MSTORE PUSH1 0x20 ADD SWAP1 DUP2 MSTORE PUSH1 0x20 ADD PUSH1 0x0 KECCAK256 SLOAD LT ISZERO PUSH2 0x1BA JUMPI PUSH1 0x40 MLOAD PUSH32 0x8C379A000000000000000000000000000000000000000000000000000000000 DUP2 MSTORE PUSH1 0x4 ADD PUSH2 0x1B1 SWAP1 PUSH2 0x604 JUMP JUMPDEST PUSH1 0x40 MLOAD DUP1 SWAP2 SUB SWAP1 REVERT JUMPDEST PUSH1 0x0 DUP1 PUSH1 0x0 CALLER PUSH20 0xFFFFFFFFFFFFFFFFFFFFFFFFFFFFFFFFFFFFFFFF AND PUSH20 0xFFFFFFFFFFFFFFFFFFFFFFFFFFFFFFFFFFFFFFFF AND DUP2 MSTORE PUSH1 0x20 ADD SWAP1 DUP2 MSTORE PUSH1 0x20 ADD PUSH1 0x0 KECCAK256 SLOAD PUSH1 0x1 PUSH1 0x0 CALLER PUSH20 0xFFFFFFFFFFFFFFFFFFFFFFFFFFFFFFFFFFFFFFFF AND PUSH20 0xFFFFFFFFFFFFFFFFFFFFFFFFFFFFFFFFFFFFFFFF AND DUP2 MSTORE PUSH1 0x20 ADD SWAP1 DUP2 MSTORE PUSH1 0x20 ADD PUSH1 0x0 KECCAK256 SLOAD DUP4 PUSH2 0x246 SWAP2 SWAP1 PUSH2 0x653 JUMP JUMPDEST PUSH2 0x250 SWAP2 SWAP1 PUSH2 0x6C4 JUMP JUMPDEST SWAP1 POP DUP2 PUSH1 0x0 DUP1 CALLER PUSH20 0xFFFFFFFFFFFFFFFFFFFFFFFFFFFFFFFFFFFFFFFF AND PUSH20 0xFFFFFFFFFFFFFFFFFFFFFFFFFFFFFFFFFFFFFFFF AND DUP2 MSTORE PUSH1 0x20 ADD SWAP1 DUP2 MSTORE PUSH1 0x20 ADD PUSH1 0x0 KECCAK256 PUSH1 0x0 DUP3 DUP3 SLOAD PUSH2 0x2A0 SWAP2 SWAP1 PUSH2 0x6F5 JUMP JUMPDEST SWAP3 POP POP DUP2 SWAP1 SSTORE POP DUP1 PUSH1 0x1 PUSH1 0x0 CALLER PUSH20 0xFFFFFFFFFFFFFFFFFFFFFFFFFFFFFFFFFFFFFFFF AND PUSH20 0xFFFFFFFFFFFFFFFFFFFFFFFFFFFFFFFFFFFFFFFF AND DUP2 MSTORE PUSH1 0x20 ADD SWAP1 DUP2 MSTORE PUSH1 0x20 ADD PUSH1 0x0 KECCAK256 PUSH1 0x0 DUP3 DUP3 SLOAD PUSH2 0x2F6 SWAP2 SWAP1 PUSH2 0x6F5 JUMP JUMPDEST SWAP3 POP POP DUP2 SWAP1 SSTORE POP PUSH1 0x0 CALLER PUSH20 0xFFFFFFFFFFFFFFFFFFFFFFFFFFFFFFFFFFFFFFFF AND DUP3 PUSH1 0x40 MLOAD PUSH2 0x323 SWAP1 PUSH2 0x75A JUMP JUMPDEST PUSH1 0x0 PUSH1 0x40 MLOAD DUP1 DUP4 SUB DUP2 DUP6 DUP8 GAS CALL SWAP3 POP POP POP RETURNDATASIZE DUP1 PUSH1 0x0 DUP2 EQ PUSH2 0x360 JUMPI PUSH1 0x40 MLOAD SWAP2 POP PUSH1 0x1F NOT PUSH1 0x3F RETURNDATASIZE ADD AND DUP3 ADD PUSH1 0x40 MSTORE RETURNDATASIZE DUP3 MSTORE RETURNDATASIZE PUSH1 0x0 PUSH1 0x20 DUP5 ADD RETURNDATACOPY PUSH2 0x365 JUMP JUMPDEST PUSH1 0x60 SWAP2 POP JUMPDEST POP POP SWAP1 POP DUP1 PUSH2 0x3A9 JUMPI PUSH1 0x40 MLOAD PUSH32 0x8C379A000000000000000000000000000000000000000000000000000000000 DUP2 MSTORE PUSH1 0x4 ADD PUSH2 0x3A0 SWAP1 PUSH2 0x7BB JUMP JUMPDEST PUSH1 0x40 MLOAD DUP1 SWAP2 SUB SWAP1 REVERT JUMPDEST POP POP POP JUMP JUMPDEST PUSH1 0x0 CALLVALUE GT PUSH2 0x3F1 JUMPI PUSH1 0x40 MLOAD PUSH32 0x8C379A000000000000000000000000000000000000000000000000000000000 DUP2 MSTORE PUSH1 0x4 ADD PUSH2 0x3E8 SWAP1 PUSH2 0x827 JUMP JUMPDEST PUSH1 0x40 MLOAD DUP1 SWAP2 SUB SWAP1 REVERT JUMPDEST PUSH1 0x0 PUSH1 0x64 PUSH1 0x96 DUP4 PUSH2 0x402 SWAP2 SWAP1 PUSH2 0x653 JUMP JUMPDEST PUSH2 0x40C SWAP2 SWAP1 PUSH2 0x6C4 JUMP JUMPDEST SWAP1 POP DUP1 CALLVALUE LT ISZERO PUSH2 0x451 JUMPI PUSH1 0x40 MLOAD PUSH32 0x8C379A000000000000000000000000000000000000000000000000000000000 DUP2 MSTORE PUSH1 0x4 ADD PUSH2 0x448 SWAP1 PUSH2 0x893 JUMP JUMPDEST PUSH1 0x40 MLOAD DUP1 SWAP2 SUB SWAP1 REVERT JUMPDEST POP POP JUMP JUMPDEST PUSH1 0x1 PUSH1 0x20 MSTORE DUP1 PUSH1 0x0 MSTORE PUSH1 0x40 PUSH1 0x0 KECCAK256 PUSH1 0x0 SWAP2 POP SWAP1 POP SLOAD DUP2 JUMP JUMPDEST PUSH1 0x0 PUSH1 0x20 MSTORE DUP1 PUSH1 0x0 MSTORE PUSH1 0x40 PUSH1 0x0 KECCAK256 PUSH1 0x0 SWAP2 POP SWAP1 POP SLOAD DUP2 JUMP JUMPDEST PUSH1 0x96 DUP2 JUMP JUMPDEST PUSH1 0x0 DUP1 REVERT JUMPDEST PUSH1 0x0 DUP2 SWAP1 POP SWAP2 SWAP1 POP JUMP JUMPDEST PUSH2 0x4A2 DUP2 PUSH2 0x48F JUMP JUMPDEST DUP2 EQ PUSH2 0x4AD JUMPI PUSH1 0x0 DUP1 REVERT JUMPDEST POP JUMP JUMPDEST PUSH1 0x0 DUP2 CALLDATALOAD SWAP1 POP PUSH2 0x4BF DUP2 PUSH2 0x499 JUMP JUMPDEST SWAP3 SWAP2 POP POP JUMP JUMPDEST PUSH1 0x0 PUSH1 0x20 DUP3 DUP5 SUB SLT ISZERO PUSH2 0x4DB JUMPI PUSH2 0x4DA PUSH2 0x48A JUMP JUMPDEST JUMPDEST PUSH1 0x0 PUSH2 0x4E9 DUP5 DUP3 DUP6 ADD PUSH2 0x4B0 JUMP JUMPDEST SWAP2 POP POP SWAP3 SWAP2 POP POP JUMP JUMPDEST PUSH1 0x0 PUSH20 0xFFFFFFFFFFFFFFFFFFFFFFFFFFFFFFFFFFFFFFFF DUP3 AND SWAP1 POP SWAP2 SWAP1 POP JUMP JUMPDEST PUSH1 0x0 PUSH2 0x51D DUP3 PUSH2 0x4F2 JUMP JUMPDEST SWAP1 POP SWAP2 SWAP1 POP JUMP JUMPDEST PUSH2 0x52D DUP2 PUSH2 0x512 JUMP JUMPDEST DUP2 EQ PUSH2 0x538 JUMPI PUSH1 0x0 DUP1 REVERT JUMPDEST POP JUMP JUMPDEST PUSH1 0x0 DUP2 CALLDATALOAD SWAP1 POP PUSH2 0x54A DUP2 PUSH2 0x524 JUMP JUMPDEST SWAP3 SWAP2 POP POP JUMP JUMPDEST PUSH1 0x0 PUSH1 0x20 DUP3 DUP5 SUB SLT ISZERO PUSH2 0x566 JUMPI PUSH2 0x565 PUSH2 0x48A JUMP JUMPDEST JUMPDEST PUSH1 0x0 PUSH2 0x574 DUP5 DUP3 DUP6 ADD PUSH2 0x53B JUMP JUMPDEST SWAP2 POP POP SWAP3 SWAP2 POP POP JUMP JUMPDEST PUSH2 0x586 DUP2 PUSH2 0x48F JUMP JUMPDEST DUP3 MSTORE POP POP JUMP JUMPDEST PUSH1 0x0 PUSH1 0x20 DUP3 ADD SWAP1 POP PUSH2 0x5A1 PUSH1 0x0 DUP4 ADD DUP5 PUSH2 0x57D JUMP JUMPDEST SWAP3 SWAP2 POP POP JUMP JUMPDEST PUSH1 0x0 DUP3 DUP3 MSTORE PUSH1 0x20 DUP3 ADD SWAP1 POP SWAP3 SWAP2 POP POP JUMP JUMPDEST PUSH32 0x496E73756666696369656E74204441492062616C616E63650000000000000000 PUSH1 0x0 DUP3 ADD MSTORE POP JUMP JUMPDEST PUSH1 0x0 PUSH2 0x5EE PUSH1 0x18 DUP4 PUSH2 0x5A7 JUMP JUMPDEST SWAP2 POP PUSH2 0x5F9 DUP3 PUSH2 0x5B8 JUMP JUMPDEST PUSH1 0x20 DUP3 ADD SWAP1 POP SWAP2 SWAP1 POP JUMP JUMPDEST PUSH1 0x0 PUSH1 0x20 DUP3 ADD SWAP1 POP DUP2 DUP2 SUB PUSH1 0x0 DUP4 ADD MSTORE PUSH2 0x61D DUP2 PUSH2 0x5E1 JUMP JUMPDEST SWAP1 POP SWAP2 SWAP1 POP JUMP JUMPDEST PUSH32 0x4E487B7100000000000000000000000000000000000000000000000000000000 PUSH1 0x0 MSTORE PUSH1 0x11 PUSH1 0x4 MSTORE PUSH1 0x24 PUSH1 0x0 REVERT JUMPDEST PUSH1 0x0 PUSH2 0x65E DUP3 PUSH2 0x48F JUMP JUMPDEST SWAP2 POP PUSH2 0x669 DUP4 PUSH2 0x48F JUMP JUMPDEST SWAP3 POP DUP3 DUP3 MUL PUSH2 0x677 DUP2 PUSH2 0x48F JUMP JUMPDEST SWAP2 POP DUP3 DUP3 DIV DUP5 EQ DUP4 ISZERO OR PUSH2 0x68E JUMPI PUSH2 0x68D PUSH2 0x624 JUMP JUMPDEST JUMPDEST POP SWAP3 SWAP2 POP POP JUMP JUMPDEST PUSH32 0x4E487B7100000000000000000000000000000000000000000000000000000000 PUSH1 0x0 MSTORE PUSH1 0x12 PUSH1 0x4 MSTORE PUSH1 0x24 PUSH1 0x0 REVERT JUMPDEST PUSH1 0x0 PUSH2 0x6CF DUP3 PUSH2 0x48F JUMP JUMPDEST SWAP2 POP PUSH2 0x6DA DUP4 PUSH2 0x48F JUMP JUMPDEST SWAP3 POP DUP3 PUSH2 0x6EA JUMPI PUSH2 0x6E9 PUSH2 0x695 JUMP JUMPDEST JUMPDEST DUP3 DUP3 DIV SWAP1 POP SWAP3 SWAP2 POP POP JUMP JUMPDEST PUSH1 0x0 PUSH2 0x700 DUP3 PUSH2 0x48F JUMP JUMPDEST SWAP2 POP PUSH2 0x70B DUP4 PUSH2 0x48F JUMP JUMPDEST SWAP3 POP DUP3 DUP3 SUB SWAP1 POP DUP2 DUP2 GT ISZERO PUSH2 0x723 JUMPI PUSH2 0x722 PUSH2 0x624 JUMP JUMPDEST JUMPDEST SWAP3 SWAP2 POP POP JUMP JUMPDEST PUSH1 0x0 DUP2 SWAP1 POP SWAP3 SWAP2 POP POP JUMP JUMPDEST POP JUMP JUMPDEST PUSH1 0x0 PUSH2 0x744 PUSH1 0x0 DUP4 PUSH2 0x729 JUMP JUMPDEST SWAP2 POP PUSH2 0x74F DUP3 PUSH2 0x734 JUMP JUMPDEST PUSH1 0x0 DUP3 ADD SWAP1 POP SWAP2 SWAP1 POP JUMP JUMPDEST PUSH1 0x0 PUSH2 0x765 DUP3 PUSH2 0x737 JUMP JUMPDEST SWAP2 POP DUP2 SWAP1 POP SWAP2 SWAP1 POP JUMP JUMPDEST PUSH32 0x5472616E73666572206F6620636F6C6C61746572616C206661696C6564000000 PUSH1 0x0 DUP3 ADD MSTORE POP JUMP JUMPDEST PUSH1 0x0 PUSH2 0x7A5 PUSH1 0x1D DUP4 PUSH2 0x5A7 JUMP JUMPDEST SWAP2 POP PUSH2 0x7B0 DUP3 PUSH2 0x76F JUMP JUMPDEST PUSH1 0x20 DUP3 ADD SWAP1 POP SWAP2 SWAP1 POP JUMP JUMPDEST PUSH1 0x0 PUSH1 0x20 DUP3 ADD SWAP1 POP DUP2 DUP2 SUB PUSH1 0x0 DUP4 ADD MSTORE PUSH2 0x7D4 DUP2 PUSH2 0x798 JUMP JUMPDEST SWAP1 POP SWAP2 SWAP1 POP JUMP JUMPDEST PUSH32 0x4D7573742070726F7669646520636F6C6C61746572616C202845544829000000 PUSH1 0x0 DUP3 ADD MSTORE POP JUMP JUMPDEST PUSH1 0x0 PUSH2 0x811 PUSH1 0x1D DUP4 PUSH2 0x5A7 JUMP JUMPDEST SWAP2 POP PUSH2 0x81C DUP3 PUSH2 0x7DB JUMP JUMPDEST PUSH1 0x20 DUP3 ADD SWAP1 POP SWAP2 SWAP1 POP JUMP JUMPDEST PUSH1 0x0 PUSH1 0x20 DUP3 ADD SWAP1 POP DUP2 DUP2 SUB PUSH1 0x0 DUP4 ADD MSTORE PUSH2 0x840 DUP2 PUSH2 0x804 JUMP JUMPDEST SWAP1 POP SWAP2 SWAP1 POP JUMP JUMPDEST PUSH32 0x496E73756666696369656E7420636F6C6C61746572616C000000000000000000 PUSH1 0x0 DUP3 ADD MSTORE POP JUMP JUMPDEST PUSH1 0x0 PUSH2 0x87D PUSH1 0x17 DUP4 PUSH2 0x5A7 JUMP JUMPDEST SWAP2 POP PUSH2 0x888 DUP3 PUSH2 0x847 JUMP JUMPDEST PUSH1 0x20 DUP3 ADD SWAP1 POP SWAP2 SWAP1 POP JUMP JUMPDEST PUSH1 0x0 PUSH1 0x20 DUP3 ADD SWAP1 POP DUP2 DUP2 SUB PUSH1 0x0 DUP4 ADD MSTORE PUSH2 0x8AC DUP2 PUSH2 0x870 JUMP JUMPDEST SWAP1 POP SWAP2 SWAP1 POP JUMP INVALID LOG2 PUSH5 0x6970667358 0x22 SLT KECCAK256 0xEB PUSH20 0xFE9F262E3CC8D80CAEDBCE24F82F3BEFD3195F94 PUSH26 0x8D334D2AC3687ADD9264736F6C63430008120033000000000000 "
				},
				"gasEstimates": {
					"creation": {
						"codeDepositCost": "456200",
						"executionCost": "493",
						"totalCost": "456693"
					},
					"external": {
						"COLLATERAL_RATIO()": "395",
						"burnDAI(uint256)": "infinite",
						"collateralBalance(address)": "2836",
						"daiBalance(address)": "2858",
						"mintDAI(uint256)": "infinite"
					}
				},
				"methodIdentifiers": {
					"COLLATERAL_RATIO()": "d9e69a05",
					"burnDAI(uint256)": "8f58a8b4",
					"collateralBalance(address)": "a1bf2840",
					"daiBalance(address)": "d7f7098f",
					"mintDAI(uint256)": "95a9fc2f"
				}
			},
			"storageLayout": {
				"storage": [
					{
						"astId": 5,
						"contract": "contracts used for  RC system/DAI.sol:SimpleDAI",
						"label": "daiBalance",
						"offset": 0,
						"slot": "0",
						"type": "t_mapping(t_address,t_uint256)"
					},
					{
						"astId": 9,
						"contract": "contracts used for  RC system/DAI.sol:SimpleDAI",
						"label": "collateralBalance",
						"offset": 0,
						"slot": "1",
						"type": "t_mapping(t_address,t_uint256)"
					}
				],
				"types": {
					"t_address": {
						"encoding": "inplace",
						"label": "address",
						"numberOfBytes": "20"
					},
					"t_mapping(t_address,t_uint256)": {
						"encoding": "mapping",
						"key": "t_address",
						"label": "mapping(address => uint256)",
						"numberOfBytes": "32",
						"value": "t_uint256"
					},
					"t_uint256": {
						"encoding": "inplace",
						"label": "uint256",
						"numberOfBytes": "32"
					}
				}
			},
			"userdoc": {
				"kind": "user",
				"methods": {},
				"version": 1
			}
		}
	}
}