{
	"trustless cross-chain/merkle proof/MTP.sol": {
		"MerkleProof": {
			"abi": [
				{
					"inputs": [
						{
							"internalType": "bytes32[]",
							"name": "leaves",
							"type": "bytes32[]"
						},
						{
							"internalType": "uint256",
							"name": "index",
							"type": "uint256"
						}
					],
					"name": "getMerkleProof",
					"outputs": [
						{
							"internalType": "bytes32[]",
							"name": "",
							"type": "bytes32[]"
						}
					],
					"stateMutability": "pure",
					"type": "function"
				}
			],
			"devdoc": {
				"kind": "dev",
				"methods": {},
				"version": 1
			},
			"evm": {
				"assembly": "    /* \"trustless cross-chain/merkle proof/MTP.sol\":25:723  contract MerkleProof {... */\n  mstore(0x40, 0x80)\n  callvalue\n  dup1\n  iszero\n  tag_1\n  jumpi\n  0x00\n  dup1\n  revert\ntag_1:\n  pop\n  dataSize(sub_0)\n  dup1\n  dataOffset(sub_0)\n  0x00\n  codecopy\n  0x00\n  return\nstop\n\nsub_0: assembly {\n        /* \"trustless cross-chain/merkle proof/MTP.sol\":25:723  contract MerkleProof {... */\n      mstore(0x40, 0x80)\n      callvalue\n      dup1\n      iszero\n      tag_1\n      jumpi\n      0x00\n      dup1\n      revert\n    tag_1:\n      pop\n      jumpi(tag_2, lt(calldatasize, 0x04))\n      shr(0xe0, calldataload(0x00))\n      dup1\n      0x207fa3ac\n      eq\n      tag_3\n      jumpi\n    tag_2:\n      0x00\n      dup1\n      revert\n        /* \"trustless cross-chain/merkle proof/MTP.sol\":52:721  function getMerkleProof(bytes32[] memory leaves, uint256 index) public pure returns (bytes32[] memory) {... */\n    tag_3:\n      tag_4\n      0x04\n      dup1\n      calldatasize\n      sub\n      dup2\n      add\n      swap1\n      tag_5\n      swap2\n      swap1\n      tag_6\n      jump\t// in\n    tag_5:\n      tag_7\n      jump\t// in\n    tag_4:\n      mload(0x40)\n      tag_8\n      swap2\n      swap1\n      tag_9\n      jump\t// in\n    tag_8:\n      mload(0x40)\n      dup1\n      swap2\n      sub\n      swap1\n      return\n    tag_7:\n        /* \"trustless cross-chain/merkle proof/MTP.sol\":137:153  bytes32[] memory */\n      0x60\n        /* \"trustless cross-chain/merkle proof/MTP.sol\":189:190  0 */\n      0x00\n        /* \"trustless cross-chain/merkle proof/MTP.sol\":173:179  leaves */\n      dup4\n        /* \"trustless cross-chain/merkle proof/MTP.sol\":173:186  leaves.length */\n      mload\n        /* \"trustless cross-chain/merkle proof/MTP.sol\":173:190  leaves.length > 0 */\n      gt\n        /* \"trustless cross-chain/merkle proof/MTP.sol\":173:236  leaves.length > 0 && (leaves.length & (leaves.length - 1)) == 0 */\n      dup1\n      iszero\n      tag_11\n      jumpi\n      pop\n        /* \"trustless cross-chain/merkle proof/MTP.sol\":235:236  0 */\n      0x00\n        /* \"trustless cross-chain/merkle proof/MTP.sol\":228:229  1 */\n      0x01\n        /* \"trustless cross-chain/merkle proof/MTP.sol\":212:218  leaves */\n      dup5\n        /* \"trustless cross-chain/merkle proof/MTP.sol\":212:225  leaves.length */\n      mload\n        /* \"trustless cross-chain/merkle proof/MTP.sol\":212:229  leaves.length - 1 */\n      tag_12\n      swap2\n      swap1\n      tag_13\n      jump\t// in\n    tag_12:\n        /* \"trustless cross-chain/merkle proof/MTP.sol\":195:201  leaves */\n      dup5\n        /* \"trustless cross-chain/merkle proof/MTP.sol\":195:208  leaves.length */\n      mload\n        /* \"trustless cross-chain/merkle proof/MTP.sol\":195:230  leaves.length & (leaves.length - 1) */\n      and\n        /* \"trustless cross-chain/merkle proof/MTP.sol\":194:236  (leaves.length & (leaves.length - 1)) == 0 */\n      eq\n        /* \"trustless cross-chain/merkle proof/MTP.sol\":173:236  leaves.length > 0 && (leaves.length & (leaves.length - 1)) == 0 */\n    tag_11:\n        /* \"trustless cross-chain/merkle proof/MTP.sol\":165:265  require(leaves.length > 0 && (leaves.length & (leaves.length - 1)) == 0, \"Invalid number of leaves\") */\n      tag_14\n      jumpi\n      mload(0x40)\n      0x08c379a000000000000000000000000000000000000000000000000000000000\n      dup2\n      mstore\n      0x04\n      add\n      tag_15\n      swap1\n      tag_16\n      jump\t// in\n    tag_15:\n      mload(0x40)\n      dup1\n      swap2\n      sub\n      swap1\n      revert\n    tag_14:\n        /* \"trustless cross-chain/merkle proof/MTP.sol\":276:289  uint256 nodes */\n      0x00\n        /* \"trustless cross-chain/merkle proof/MTP.sol\":312:313  1 */\n      0x01\n        /* \"trustless cross-chain/merkle proof/MTP.sol\":308:309  2 */\n      0x02\n        /* \"trustless cross-chain/merkle proof/MTP.sol\":292:298  leaves */\n      dup6\n        /* \"trustless cross-chain/merkle proof/MTP.sol\":292:305  leaves.length */\n      mload\n        /* \"trustless cross-chain/merkle proof/MTP.sol\":292:309  leaves.length * 2 */\n      tag_17\n      swap2\n      swap1\n      tag_18\n      jump\t// in\n    tag_17:\n        /* \"trustless cross-chain/merkle proof/MTP.sol\":292:313  leaves.length * 2 - 1 */\n      tag_19\n      swap2\n      swap1\n      tag_13\n      jump\t// in\n    tag_19:\n        /* \"trustless cross-chain/merkle proof/MTP.sol\":276:313  uint256 nodes = leaves.length * 2 - 1 */\n      swap1\n      pop\n        /* \"trustless cross-chain/merkle proof/MTP.sol\":323:345  bytes32[] memory proof */\n      0x00\n        /* \"trustless cross-chain/merkle proof/MTP.sol\":370:376  leaves */\n      dup5\n        /* \"trustless cross-chain/merkle proof/MTP.sol\":370:383  leaves.length */\n      mload\n        /* \"trustless cross-chain/merkle proof/MTP.sol\":362:367  nodes */\n      dup3\n        /* \"trustless cross-chain/merkle proof/MTP.sol\":362:383  nodes - leaves.length */\n      tag_20\n      swap2\n      swap1\n      tag_13\n      jump\t// in\n    tag_20:\n        /* \"trustless cross-chain/merkle proof/MTP.sol\":348:384  new bytes32[](nodes - leaves.length) */\n      0xffffffffffffffff\n      dup2\n      gt\n      iszero\n      tag_21\n      jumpi\n      tag_22\n      tag_23\n      jump\t// in\n    tag_22:\n    tag_21:\n      mload(0x40)\n      swap1\n      dup1\n      dup3\n      mstore\n      dup1\n      0x20\n      mul\n      0x20\n      add\n      dup3\n      add\n      0x40\n      mstore\n      dup1\n      iszero\n      tag_24\n      jumpi\n      dup2\n      0x20\n      add\n      0x20\n      dup3\n      mul\n      dup1\n      calldatasize\n      dup4\n      calldatacopy\n      dup1\n      dup3\n      add\n      swap2\n      pop\n      pop\n      swap1\n      pop\n    tag_24:\n      pop\n        /* \"trustless cross-chain/merkle proof/MTP.sol\":323:384  bytes32[] memory proof = new bytes32[](nodes - leaves.length) */\n      swap1\n      pop\n        /* \"trustless cross-chain/merkle proof/MTP.sol\":395:407  uint256 path */\n      0x00\n        /* \"trustless cross-chain/merkle proof/MTP.sol\":434:435  1 */\n      0x01\n        /* \"trustless cross-chain/merkle proof/MTP.sol\":418:424  leaves */\n      dup7\n        /* \"trustless cross-chain/merkle proof/MTP.sol\":418:431  leaves.length */\n      mload\n        /* \"trustless cross-chain/merkle proof/MTP.sol\":410:415  index */\n      dup7\n        /* \"trustless cross-chain/merkle proof/MTP.sol\":410:431  index + leaves.length */\n      tag_25\n      swap2\n      swap1\n      tag_26\n      jump\t// in\n    tag_25:\n        /* \"trustless cross-chain/merkle proof/MTP.sol\":410:435  index + leaves.length - 1 */\n      tag_27\n      swap2\n      swap1\n      tag_13\n      jump\t// in\n    tag_27:\n        /* \"trustless cross-chain/merkle proof/MTP.sol\":395:435  uint256 path = index + leaves.length - 1 */\n      swap1\n      pop\n        /* \"trustless cross-chain/merkle proof/MTP.sol\":450:459  uint256 i */\n      0x00\n        /* \"trustless cross-chain/merkle proof/MTP.sol\":445:692  for (uint256 i = 0; i < proof.length; i++) {... */\n    tag_28:\n        /* \"trustless cross-chain/merkle proof/MTP.sol\":469:474  proof */\n      dup3\n        /* \"trustless cross-chain/merkle proof/MTP.sol\":469:481  proof.length */\n      mload\n        /* \"trustless cross-chain/merkle proof/MTP.sol\":465:466  i */\n      dup2\n        /* \"trustless cross-chain/merkle proof/MTP.sol\":465:481  i < proof.length */\n      lt\n        /* \"trustless cross-chain/merkle proof/MTP.sol\":445:692  for (uint256 i = 0; i < proof.length; i++) {... */\n      iszero\n      tag_29\n      jumpi\n        /* \"trustless cross-chain/merkle proof/MTP.sol\":518:519  0 */\n      0x00\n        /* \"trustless cross-chain/merkle proof/MTP.sol\":513:514  2 */\n      0x02\n        /* \"trustless cross-chain/merkle proof/MTP.sol\":506:510  path */\n      dup4\n        /* \"trustless cross-chain/merkle proof/MTP.sol\":506:514  path % 2 */\n      tag_31\n      swap2\n      swap1\n      tag_32\n      jump\t// in\n    tag_31:\n        /* \"trustless cross-chain/merkle proof/MTP.sol\":506:519  path % 2 == 0 */\n      sub\n        /* \"trustless cross-chain/merkle proof/MTP.sol\":502:647  if (path % 2 == 0) {... */\n      tag_33\n      jumpi\n        /* \"trustless cross-chain/merkle proof/MTP.sol\":550:556  leaves */\n      dup7\n        /* \"trustless cross-chain/merkle proof/MTP.sol\":564:565  1 */\n      0x01\n        /* \"trustless cross-chain/merkle proof/MTP.sol\":557:561  path */\n      dup4\n        /* \"trustless cross-chain/merkle proof/MTP.sol\":557:565  path - 1 */\n      tag_34\n      swap2\n      swap1\n      tag_13\n      jump\t// in\n    tag_34:\n        /* \"trustless cross-chain/merkle proof/MTP.sol\":550:566  leaves[path - 1] */\n      dup2\n      mload\n      dup2\n      lt\n      tag_35\n      jumpi\n      tag_36\n      tag_37\n      jump\t// in\n    tag_36:\n    tag_35:\n      0x20\n      mul\n      0x20\n      add\n      add\n      mload\n        /* \"trustless cross-chain/merkle proof/MTP.sol\":539:544  proof */\n      dup4\n        /* \"trustless cross-chain/merkle proof/MTP.sol\":545:546  i */\n      dup3\n        /* \"trustless cross-chain/merkle proof/MTP.sol\":539:547  proof[i] */\n      dup2\n      mload\n      dup2\n      lt\n      tag_38\n      jumpi\n      tag_39\n      tag_37\n      jump\t// in\n    tag_39:\n    tag_38:\n      0x20\n      mul\n      0x20\n      add\n      add\n        /* \"trustless cross-chain/merkle proof/MTP.sol\":539:566  proof[i] = leaves[path - 1] */\n      dup2\n      dup2\n      mstore\n      pop\n      pop\n        /* \"trustless cross-chain/merkle proof/MTP.sol\":502:647  if (path % 2 == 0) {... */\n      jump(tag_40)\n    tag_33:\n        /* \"trustless cross-chain/merkle proof/MTP.sol\":616:622  leaves */\n      dup7\n        /* \"trustless cross-chain/merkle proof/MTP.sol\":630:631  1 */\n      0x01\n        /* \"trustless cross-chain/merkle proof/MTP.sol\":623:627  path */\n      dup4\n        /* \"trustless cross-chain/merkle proof/MTP.sol\":623:631  path + 1 */\n      tag_41\n      swap2\n      swap1\n      tag_26\n      jump\t// in\n    tag_41:\n        /* \"trustless cross-chain/merkle proof/MTP.sol\":616:632  leaves[path + 1] */\n      dup2\n      mload\n      dup2\n      lt\n      tag_42\n      jumpi\n      tag_43\n      tag_37\n      jump\t// in\n    tag_43:\n    tag_42:\n      0x20\n      mul\n      0x20\n      add\n      add\n      mload\n        /* \"trustless cross-chain/merkle proof/MTP.sol\":605:610  proof */\n      dup4\n        /* \"trustless cross-chain/merkle proof/MTP.sol\":611:612  i */\n      dup3\n        /* \"trustless cross-chain/merkle proof/MTP.sol\":605:613  proof[i] */\n      dup2\n      mload\n      dup2\n      lt\n      tag_44\n      jumpi\n      tag_45\n      tag_37\n      jump\t// in\n    tag_45:\n    tag_44:\n      0x20\n      mul\n      0x20\n      add\n      add\n        /* \"trustless cross-chain/merkle proof/MTP.sol\":605:632  proof[i] = leaves[path + 1] */\n      dup2\n      dup2\n      mstore\n      pop\n      pop\n        /* \"trustless cross-chain/merkle proof/MTP.sol\":502:647  if (path % 2 == 0) {... */\n    tag_40:\n        /* \"trustless cross-chain/merkle proof/MTP.sol\":680:681  2 */\n      0x02\n        /* \"trustless cross-chain/merkle proof/MTP.sol\":675:676  1 */\n      0x01\n        /* \"trustless cross-chain/merkle proof/MTP.sol\":668:672  path */\n      dup4\n        /* \"trustless cross-chain/merkle proof/MTP.sol\":668:676  path - 1 */\n      tag_46\n      swap2\n      swap1\n      tag_13\n      jump\t// in\n    tag_46:\n        /* \"trustless cross-chain/merkle proof/MTP.sol\":667:681  (path - 1) / 2 */\n      tag_47\n      swap2\n      swap1\n      tag_48\n      jump\t// in\n    tag_47:\n        /* \"trustless cross-chain/merkle proof/MTP.sol\":660:681  path = (path - 1) / 2 */\n      swap2\n      pop\n        /* \"trustless cross-chain/merkle proof/MTP.sol\":483:486  i++ */\n      dup1\n      dup1\n      tag_49\n      swap1\n      tag_50\n      jump\t// in\n    tag_49:\n      swap2\n      pop\n      pop\n        /* \"trustless cross-chain/merkle proof/MTP.sol\":445:692  for (uint256 i = 0; i < proof.length; i++) {... */\n      jump(tag_28)\n    tag_29:\n      pop\n        /* \"trustless cross-chain/merkle proof/MTP.sol\":709:714  proof */\n      dup2\n        /* \"trustless cross-chain/merkle proof/MTP.sol\":702:714  return proof */\n      swap4\n      pop\n      pop\n      pop\n      pop\n        /* \"trustless cross-chain/merkle proof/MTP.sol\":52:721  function getMerkleProof(bytes32[] memory leaves, uint256 index) public pure returns (bytes32[] memory) {... */\n      swap3\n      swap2\n      pop\n      pop\n      jump\t// out\n        /* \"#utility.yul\":7:82   */\n    tag_51:\n        /* \"#utility.yul\":40:46   */\n      0x00\n        /* \"#utility.yul\":73:75   */\n      0x40\n        /* \"#utility.yul\":67:76   */\n      mload\n        /* \"#utility.yul\":57:76   */\n      swap1\n      pop\n        /* \"#utility.yul\":7:82   */\n      swap1\n      jump\t// out\n        /* \"#utility.yul\":88:205   */\n    tag_52:\n        /* \"#utility.yul\":197:198   */\n      0x00\n        /* \"#utility.yul\":194:195   */\n      dup1\n        /* \"#utility.yul\":187:199   */\n      revert\n        /* \"#utility.yul\":211:328   */\n    tag_53:\n        /* \"#utility.yul\":320:321   */\n      0x00\n        /* \"#utility.yul\":317:318   */\n      dup1\n        /* \"#utility.yul\":310:322   */\n      revert\n        /* \"#utility.yul\":334:451   */\n    tag_54:\n        /* \"#utility.yul\":443:444   */\n      0x00\n        /* \"#utility.yul\":440:441   */\n      dup1\n        /* \"#utility.yul\":433:445   */\n      revert\n        /* \"#utility.yul\":457:559   */\n    tag_55:\n        /* \"#utility.yul\":498:504   */\n      0x00\n        /* \"#utility.yul\":549:551   */\n      0x1f\n        /* \"#utility.yul\":545:552   */\n      not\n        /* \"#utility.yul\":540:542   */\n      0x1f\n        /* \"#utility.yul\":533:538   */\n      dup4\n        /* \"#utility.yul\":529:543   */\n      add\n        /* \"#utility.yul\":525:553   */\n      and\n        /* \"#utility.yul\":515:553   */\n      swap1\n      pop\n        /* \"#utility.yul\":457:559   */\n      swap2\n      swap1\n      pop\n      jump\t// out\n        /* \"#utility.yul\":565:745   */\n    tag_23:\n        /* \"#utility.yul\":613:690   */\n      0x4e487b7100000000000000000000000000000000000000000000000000000000\n        /* \"#utility.yul\":610:611   */\n      0x00\n        /* \"#utility.yul\":603:691   */\n      mstore\n        /* \"#utility.yul\":710:714   */\n      0x41\n        /* \"#utility.yul\":707:708   */\n      0x04\n        /* \"#utility.yul\":700:715   */\n      mstore\n        /* \"#utility.yul\":734:738   */\n      0x24\n        /* \"#utility.yul\":731:732   */\n      0x00\n        /* \"#utility.yul\":724:739   */\n      revert\n        /* \"#utility.yul\":751:1032   */\n    tag_56:\n        /* \"#utility.yul\":834:861   */\n      tag_88\n        /* \"#utility.yul\":856:860   */\n      dup3\n        /* \"#utility.yul\":834:861   */\n      tag_55\n      jump\t// in\n    tag_88:\n        /* \"#utility.yul\":826:832   */\n      dup2\n        /* \"#utility.yul\":822:862   */\n      add\n        /* \"#utility.yul\":964:970   */\n      dup2\n        /* \"#utility.yul\":952:962   */\n      dup2\n        /* \"#utility.yul\":949:971   */\n      lt\n        /* \"#utility.yul\":928:946   */\n      0xffffffffffffffff\n        /* \"#utility.yul\":916:926   */\n      dup3\n        /* \"#utility.yul\":913:947   */\n      gt\n        /* \"#utility.yul\":910:972   */\n      or\n        /* \"#utility.yul\":907:995   */\n      iszero\n      tag_89\n      jumpi\n        /* \"#utility.yul\":975:993   */\n      tag_90\n      tag_23\n      jump\t// in\n    tag_90:\n        /* \"#utility.yul\":907:995   */\n    tag_89:\n        /* \"#utility.yul\":1015:1025   */\n      dup1\n        /* \"#utility.yul\":1011:1013   */\n      0x40\n        /* \"#utility.yul\":1004:1026   */\n      mstore\n        /* \"#utility.yul\":794:1032   */\n      pop\n        /* \"#utility.yul\":751:1032   */\n      pop\n      pop\n      jump\t// out\n        /* \"#utility.yul\":1038:1167   */\n    tag_57:\n        /* \"#utility.yul\":1072:1078   */\n      0x00\n        /* \"#utility.yul\":1099:1119   */\n      tag_92\n      tag_51\n      jump\t// in\n    tag_92:\n        /* \"#utility.yul\":1089:1119   */\n      swap1\n      pop\n        /* \"#utility.yul\":1128:1161   */\n      tag_93\n        /* \"#utility.yul\":1156:1160   */\n      dup3\n        /* \"#utility.yul\":1148:1154   */\n      dup3\n        /* \"#utility.yul\":1128:1161   */\n      tag_56\n      jump\t// in\n    tag_93:\n        /* \"#utility.yul\":1038:1167   */\n      swap2\n      swap1\n      pop\n      jump\t// out\n        /* \"#utility.yul\":1173:1484   */\n    tag_58:\n        /* \"#utility.yul\":1250:1254   */\n      0x00\n        /* \"#utility.yul\":1340:1358   */\n      0xffffffffffffffff\n        /* \"#utility.yul\":1332:1338   */\n      dup3\n        /* \"#utility.yul\":1329:1359   */\n      gt\n        /* \"#utility.yul\":1326:1382   */\n      iszero\n      tag_95\n      jumpi\n        /* \"#utility.yul\":1362:1380   */\n      tag_96\n      tag_23\n      jump\t// in\n    tag_96:\n        /* \"#utility.yul\":1326:1382   */\n    tag_95:\n        /* \"#utility.yul\":1412:1416   */\n      0x20\n        /* \"#utility.yul\":1404:1410   */\n      dup3\n        /* \"#utility.yul\":1400:1417   */\n      mul\n        /* \"#utility.yul\":1392:1417   */\n      swap1\n      pop\n        /* \"#utility.yul\":1472:1476   */\n      0x20\n        /* \"#utility.yul\":1466:1470   */\n      dup2\n        /* \"#utility.yul\":1462:1477   */\n      add\n        /* \"#utility.yul\":1454:1477   */\n      swap1\n      pop\n        /* \"#utility.yul\":1173:1484   */\n      swap2\n      swap1\n      pop\n      jump\t// out\n        /* \"#utility.yul\":1490:1607   */\n    tag_59:\n        /* \"#utility.yul\":1599:1600   */\n      0x00\n        /* \"#utility.yul\":1596:1597   */\n      dup1\n        /* \"#utility.yul\":1589:1601   */\n      revert\n        /* \"#utility.yul\":1613:1690   */\n    tag_60:\n        /* \"#utility.yul\":1650:1657   */\n      0x00\n        /* \"#utility.yul\":1679:1684   */\n      dup2\n        /* \"#utility.yul\":1668:1684   */\n      swap1\n      pop\n        /* \"#utility.yul\":1613:1690   */\n      swap2\n      swap1\n      pop\n      jump\t// out\n        /* \"#utility.yul\":1696:1818   */\n    tag_61:\n        /* \"#utility.yul\":1769:1793   */\n      tag_100\n        /* \"#utility.yul\":1787:1792   */\n      dup2\n        /* \"#utility.yul\":1769:1793   */\n      tag_60\n      jump\t// in\n    tag_100:\n        /* \"#utility.yul\":1762:1767   */\n      dup2\n        /* \"#utility.yul\":1759:1794   */\n      eq\n        /* \"#utility.yul\":1749:1812   */\n      tag_101\n      jumpi\n        /* \"#utility.yul\":1808:1809   */\n      0x00\n        /* \"#utility.yul\":1805:1806   */\n      dup1\n        /* \"#utility.yul\":1798:1810   */\n      revert\n        /* \"#utility.yul\":1749:1812   */\n    tag_101:\n        /* \"#utility.yul\":1696:1818   */\n      pop\n      jump\t// out\n        /* \"#utility.yul\":1824:1963   */\n    tag_62:\n        /* \"#utility.yul\":1870:1875   */\n      0x00\n        /* \"#utility.yul\":1908:1914   */\n      dup2\n        /* \"#utility.yul\":1895:1915   */\n      calldataload\n        /* \"#utility.yul\":1886:1915   */\n      swap1\n      pop\n        /* \"#utility.yul\":1924:1957   */\n      tag_103\n        /* \"#utility.yul\":1951:1956   */\n      dup2\n        /* \"#utility.yul\":1924:1957   */\n      tag_61\n      jump\t// in\n    tag_103:\n        /* \"#utility.yul\":1824:1963   */\n      swap3\n      swap2\n      pop\n      pop\n      jump\t// out\n        /* \"#utility.yul\":1986:2696   */\n    tag_63:\n        /* \"#utility.yul\":2082:2087   */\n      0x00\n        /* \"#utility.yul\":2107:2188   */\n      tag_105\n        /* \"#utility.yul\":2123:2187   */\n      tag_106\n        /* \"#utility.yul\":2180:2186   */\n      dup5\n        /* \"#utility.yul\":2123:2187   */\n      tag_58\n      jump\t// in\n    tag_106:\n        /* \"#utility.yul\":2107:2188   */\n      tag_57\n      jump\t// in\n    tag_105:\n        /* \"#utility.yul\":2098:2188   */\n      swap1\n      pop\n        /* \"#utility.yul\":2208:2213   */\n      dup1\n        /* \"#utility.yul\":2237:2243   */\n      dup4\n        /* \"#utility.yul\":2230:2235   */\n      dup3\n        /* \"#utility.yul\":2223:2244   */\n      mstore\n        /* \"#utility.yul\":2271:2275   */\n      0x20\n        /* \"#utility.yul\":2264:2269   */\n      dup3\n        /* \"#utility.yul\":2260:2276   */\n      add\n        /* \"#utility.yul\":2253:2276   */\n      swap1\n      pop\n        /* \"#utility.yul\":2324:2328   */\n      0x20\n        /* \"#utility.yul\":2316:2322   */\n      dup5\n        /* \"#utility.yul\":2312:2329   */\n      mul\n        /* \"#utility.yul\":2304:2310   */\n      dup4\n        /* \"#utility.yul\":2300:2330   */\n      add\n        /* \"#utility.yul\":2353:2356   */\n      dup6\n        /* \"#utility.yul\":2345:2351   */\n      dup2\n        /* \"#utility.yul\":2342:2357   */\n      gt\n        /* \"#utility.yul\":2339:2461   */\n      iszero\n      tag_107\n      jumpi\n        /* \"#utility.yul\":2372:2451   */\n      tag_108\n      tag_59\n      jump\t// in\n    tag_108:\n        /* \"#utility.yul\":2339:2461   */\n    tag_107:\n        /* \"#utility.yul\":2487:2493   */\n      dup4\n        /* \"#utility.yul\":2470:2690   */\n    tag_109:\n        /* \"#utility.yul\":2504:2510   */\n      dup2\n        /* \"#utility.yul\":2499:2502   */\n      dup2\n        /* \"#utility.yul\":2496:2511   */\n      lt\n        /* \"#utility.yul\":2470:2690   */\n      iszero\n      tag_111\n      jumpi\n        /* \"#utility.yul\":2579:2582   */\n      dup1\n        /* \"#utility.yul\":2608:2645   */\n      tag_112\n        /* \"#utility.yul\":2641:2644   */\n      dup9\n        /* \"#utility.yul\":2629:2639   */\n      dup3\n        /* \"#utility.yul\":2608:2645   */\n      tag_62\n      jump\t// in\n    tag_112:\n        /* \"#utility.yul\":2603:2606   */\n      dup5\n        /* \"#utility.yul\":2596:2646   */\n      mstore\n        /* \"#utility.yul\":2675:2679   */\n      0x20\n        /* \"#utility.yul\":2670:2673   */\n      dup5\n        /* \"#utility.yul\":2666:2680   */\n      add\n        /* \"#utility.yul\":2659:2680   */\n      swap4\n      pop\n        /* \"#utility.yul\":2546:2690   */\n      pop\n        /* \"#utility.yul\":2530:2534   */\n      0x20\n        /* \"#utility.yul\":2525:2528   */\n      dup2\n        /* \"#utility.yul\":2521:2535   */\n      add\n        /* \"#utility.yul\":2514:2535   */\n      swap1\n      pop\n        /* \"#utility.yul\":2470:2690   */\n      jump(tag_109)\n    tag_111:\n        /* \"#utility.yul\":2474:2495   */\n      pop\n        /* \"#utility.yul\":2088:2696   */\n      pop\n      pop\n        /* \"#utility.yul\":1986:2696   */\n      swap4\n      swap3\n      pop\n      pop\n      pop\n      jump\t// out\n        /* \"#utility.yul\":2719:3089   */\n    tag_64:\n        /* \"#utility.yul\":2790:2795   */\n      0x00\n        /* \"#utility.yul\":2839:2842   */\n      dup3\n        /* \"#utility.yul\":2832:2836   */\n      0x1f\n        /* \"#utility.yul\":2824:2830   */\n      dup4\n        /* \"#utility.yul\":2820:2837   */\n      add\n        /* \"#utility.yul\":2816:2843   */\n      slt\n        /* \"#utility.yul\":2806:2928   */\n      tag_114\n      jumpi\n        /* \"#utility.yul\":2847:2926   */\n      tag_115\n      tag_54\n      jump\t// in\n    tag_115:\n        /* \"#utility.yul\":2806:2928   */\n    tag_114:\n        /* \"#utility.yul\":2964:2970   */\n      dup2\n        /* \"#utility.yul\":2951:2971   */\n      calldataload\n        /* \"#utility.yul\":2989:3083   */\n      tag_116\n        /* \"#utility.yul\":3079:3082   */\n      dup5\n        /* \"#utility.yul\":3071:3077   */\n      dup3\n        /* \"#utility.yul\":3064:3068   */\n      0x20\n        /* \"#utility.yul\":3056:3062   */\n      dup7\n        /* \"#utility.yul\":3052:3069   */\n      add\n        /* \"#utility.yul\":2989:3083   */\n      tag_63\n      jump\t// in\n    tag_116:\n        /* \"#utility.yul\":2980:3083   */\n      swap2\n      pop\n        /* \"#utility.yul\":2796:3089   */\n      pop\n        /* \"#utility.yul\":2719:3089   */\n      swap3\n      swap2\n      pop\n      pop\n      jump\t// out\n        /* \"#utility.yul\":3095:3172   */\n    tag_65:\n        /* \"#utility.yul\":3132:3139   */\n      0x00\n        /* \"#utility.yul\":3161:3166   */\n      dup2\n        /* \"#utility.yul\":3150:3166   */\n      swap1\n      pop\n        /* \"#utility.yul\":3095:3172   */\n      swap2\n      swap1\n      pop\n      jump\t// out\n        /* \"#utility.yul\":3178:3300   */\n    tag_66:\n        /* \"#utility.yul\":3251:3275   */\n      tag_119\n        /* \"#utility.yul\":3269:3274   */\n      dup2\n        /* \"#utility.yul\":3251:3275   */\n      tag_65\n      jump\t// in\n    tag_119:\n        /* \"#utility.yul\":3244:3249   */\n      dup2\n        /* \"#utility.yul\":3241:3276   */\n      eq\n        /* \"#utility.yul\":3231:3294   */\n      tag_120\n      jumpi\n        /* \"#utility.yul\":3290:3291   */\n      0x00\n        /* \"#utility.yul\":3287:3288   */\n      dup1\n        /* \"#utility.yul\":3280:3292   */\n      revert\n        /* \"#utility.yul\":3231:3294   */\n    tag_120:\n        /* \"#utility.yul\":3178:3300   */\n      pop\n      jump\t// out\n        /* \"#utility.yul\":3306:3445   */\n    tag_67:\n        /* \"#utility.yul\":3352:3357   */\n      0x00\n        /* \"#utility.yul\":3390:3396   */\n      dup2\n        /* \"#utility.yul\":3377:3397   */\n      calldataload\n        /* \"#utility.yul\":3368:3397   */\n      swap1\n      pop\n        /* \"#utility.yul\":3406:3439   */\n      tag_122\n        /* \"#utility.yul\":3433:3438   */\n      dup2\n        /* \"#utility.yul\":3406:3439   */\n      tag_66\n      jump\t// in\n    tag_122:\n        /* \"#utility.yul\":3306:3445   */\n      swap3\n      swap2\n      pop\n      pop\n      jump\t// out\n        /* \"#utility.yul\":3451:4135   */\n    tag_6:\n        /* \"#utility.yul\":3544:3550   */\n      0x00\n        /* \"#utility.yul\":3552:3558   */\n      dup1\n        /* \"#utility.yul\":3601:3603   */\n      0x40\n        /* \"#utility.yul\":3589:3598   */\n      dup4\n        /* \"#utility.yul\":3580:3587   */\n      dup6\n        /* \"#utility.yul\":3576:3599   */\n      sub\n        /* \"#utility.yul\":3572:3604   */\n      slt\n        /* \"#utility.yul\":3569:3688   */\n      iszero\n      tag_124\n      jumpi\n        /* \"#utility.yul\":3607:3686   */\n      tag_125\n      tag_52\n      jump\t// in\n    tag_125:\n        /* \"#utility.yul\":3569:3688   */\n    tag_124:\n        /* \"#utility.yul\":3755:3756   */\n      0x00\n        /* \"#utility.yul\":3744:3753   */\n      dup4\n        /* \"#utility.yul\":3740:3757   */\n      add\n        /* \"#utility.yul\":3727:3758   */\n      calldataload\n        /* \"#utility.yul\":3785:3803   */\n      0xffffffffffffffff\n        /* \"#utility.yul\":3777:3783   */\n      dup2\n        /* \"#utility.yul\":3774:3804   */\n      gt\n        /* \"#utility.yul\":3771:3888   */\n      iszero\n      tag_126\n      jumpi\n        /* \"#utility.yul\":3807:3886   */\n      tag_127\n      tag_53\n      jump\t// in\n    tag_127:\n        /* \"#utility.yul\":3771:3888   */\n    tag_126:\n        /* \"#utility.yul\":3912:3990   */\n      tag_128\n        /* \"#utility.yul\":3982:3989   */\n      dup6\n        /* \"#utility.yul\":3973:3979   */\n      dup3\n        /* \"#utility.yul\":3962:3971   */\n      dup7\n        /* \"#utility.yul\":3958:3980   */\n      add\n        /* \"#utility.yul\":3912:3990   */\n      tag_64\n      jump\t// in\n    tag_128:\n        /* \"#utility.yul\":3902:3990   */\n      swap3\n      pop\n        /* \"#utility.yul\":3698:4000   */\n      pop\n        /* \"#utility.yul\":4039:4041   */\n      0x20\n        /* \"#utility.yul\":4065:4118   */\n      tag_129\n        /* \"#utility.yul\":4110:4117   */\n      dup6\n        /* \"#utility.yul\":4101:4107   */\n      dup3\n        /* \"#utility.yul\":4090:4099   */\n      dup7\n        /* \"#utility.yul\":4086:4108   */\n      add\n        /* \"#utility.yul\":4065:4118   */\n      tag_67\n      jump\t// in\n    tag_129:\n        /* \"#utility.yul\":4055:4118   */\n      swap2\n      pop\n        /* \"#utility.yul\":4010:4128   */\n      pop\n        /* \"#utility.yul\":3451:4135   */\n      swap3\n      pop\n      swap3\n      swap1\n      pop\n      jump\t// out\n        /* \"#utility.yul\":4141:4255   */\n    tag_68:\n        /* \"#utility.yul\":4208:4214   */\n      0x00\n        /* \"#utility.yul\":4242:4247   */\n      dup2\n        /* \"#utility.yul\":4236:4248   */\n      mload\n        /* \"#utility.yul\":4226:4248   */\n      swap1\n      pop\n        /* \"#utility.yul\":4141:4255   */\n      swap2\n      swap1\n      pop\n      jump\t// out\n        /* \"#utility.yul\":4261:4445   */\n    tag_69:\n        /* \"#utility.yul\":4360:4371   */\n      0x00\n        /* \"#utility.yul\":4394:4400   */\n      dup3\n        /* \"#utility.yul\":4389:4392   */\n      dup3\n        /* \"#utility.yul\":4382:4401   */\n      mstore\n        /* \"#utility.yul\":4434:4438   */\n      0x20\n        /* \"#utility.yul\":4429:4432   */\n      dup3\n        /* \"#utility.yul\":4425:4439   */\n      add\n        /* \"#utility.yul\":4410:4439   */\n      swap1\n      pop\n        /* \"#utility.yul\":4261:4445   */\n      swap3\n      swap2\n      pop\n      pop\n      jump\t// out\n        /* \"#utility.yul\":4451:4583   */\n    tag_70:\n        /* \"#utility.yul\":4518:4522   */\n      0x00\n        /* \"#utility.yul\":4541:4544   */\n      dup2\n        /* \"#utility.yul\":4533:4544   */\n      swap1\n      pop\n        /* \"#utility.yul\":4571:4575   */\n      0x20\n        /* \"#utility.yul\":4566:4569   */\n      dup3\n        /* \"#utility.yul\":4562:4576   */\n      add\n        /* \"#utility.yul\":4554:4576   */\n      swap1\n      pop\n        /* \"#utility.yul\":4451:4583   */\n      swap2\n      swap1\n      pop\n      jump\t// out\n        /* \"#utility.yul\":4589:4697   */\n    tag_71:\n        /* \"#utility.yul\":4666:4690   */\n      tag_134\n        /* \"#utility.yul\":4684:4689   */\n      dup2\n        /* \"#utility.yul\":4666:4690   */\n      tag_60\n      jump\t// in\n    tag_134:\n        /* \"#utility.yul\":4661:4664   */\n      dup3\n        /* \"#utility.yul\":4654:4691   */\n      mstore\n        /* \"#utility.yul\":4589:4697   */\n      pop\n      pop\n      jump\t// out\n        /* \"#utility.yul\":4703:4882   */\n    tag_72:\n        /* \"#utility.yul\":4772:4782   */\n      0x00\n        /* \"#utility.yul\":4793:4839   */\n      tag_136\n        /* \"#utility.yul\":4835:4838   */\n      dup4\n        /* \"#utility.yul\":4827:4833   */\n      dup4\n        /* \"#utility.yul\":4793:4839   */\n      tag_71\n      jump\t// in\n    tag_136:\n        /* \"#utility.yul\":4871:4875   */\n      0x20\n        /* \"#utility.yul\":4866:4869   */\n      dup4\n        /* \"#utility.yul\":4862:4876   */\n      add\n        /* \"#utility.yul\":4848:4876   */\n      swap1\n      pop\n        /* \"#utility.yul\":4703:4882   */\n      swap3\n      swap2\n      pop\n      pop\n      jump\t// out\n        /* \"#utility.yul\":4888:5001   */\n    tag_73:\n        /* \"#utility.yul\":4958:4962   */\n      0x00\n        /* \"#utility.yul\":4990:4994   */\n      0x20\n        /* \"#utility.yul\":4985:4988   */\n      dup3\n        /* \"#utility.yul\":4981:4995   */\n      add\n        /* \"#utility.yul\":4973:4995   */\n      swap1\n      pop\n        /* \"#utility.yul\":4888:5001   */\n      swap2\n      swap1\n      pop\n      jump\t// out\n        /* \"#utility.yul\":5037:5769   */\n    tag_74:\n        /* \"#utility.yul\":5156:5159   */\n      0x00\n        /* \"#utility.yul\":5185:5239   */\n      tag_139\n        /* \"#utility.yul\":5233:5238   */\n      dup3\n        /* \"#utility.yul\":5185:5239   */\n      tag_68\n      jump\t// in\n    tag_139:\n        /* \"#utility.yul\":5255:5341   */\n      tag_140\n        /* \"#utility.yul\":5334:5340   */\n      dup2\n        /* \"#utility.yul\":5329:5332   */\n      dup6\n        /* \"#utility.yul\":5255:5341   */\n      tag_69\n      jump\t// in\n    tag_140:\n        /* \"#utility.yul\":5248:5341   */\n      swap4\n      pop\n        /* \"#utility.yul\":5365:5421   */\n      tag_141\n        /* \"#utility.yul\":5415:5420   */\n      dup4\n        /* \"#utility.yul\":5365:5421   */\n      tag_70\n      jump\t// in\n    tag_141:\n        /* \"#utility.yul\":5444:5451   */\n      dup1\n        /* \"#utility.yul\":5475:5476   */\n      0x00\n        /* \"#utility.yul\":5460:5744   */\n    tag_142:\n        /* \"#utility.yul\":5485:5491   */\n      dup4\n        /* \"#utility.yul\":5482:5483   */\n      dup2\n        /* \"#utility.yul\":5479:5492   */\n      lt\n        /* \"#utility.yul\":5460:5744   */\n      iszero\n      tag_144\n      jumpi\n        /* \"#utility.yul\":5561:5567   */\n      dup2\n        /* \"#utility.yul\":5555:5568   */\n      mload\n        /* \"#utility.yul\":5588:5651   */\n      tag_145\n        /* \"#utility.yul\":5647:5650   */\n      dup9\n        /* \"#utility.yul\":5632:5645   */\n      dup3\n        /* \"#utility.yul\":5588:5651   */\n      tag_72\n      jump\t// in\n    tag_145:\n        /* \"#utility.yul\":5581:5651   */\n      swap8\n      pop\n        /* \"#utility.yul\":5674:5734   */\n      tag_146\n        /* \"#utility.yul\":5727:5733   */\n      dup4\n        /* \"#utility.yul\":5674:5734   */\n      tag_73\n      jump\t// in\n    tag_146:\n        /* \"#utility.yul\":5664:5734   */\n      swap3\n      pop\n        /* \"#utility.yul\":5520:5744   */\n      pop\n        /* \"#utility.yul\":5507:5508   */\n      0x01\n        /* \"#utility.yul\":5504:5505   */\n      dup2\n        /* \"#utility.yul\":5500:5509   */\n      add\n        /* \"#utility.yul\":5495:5509   */\n      swap1\n      pop\n        /* \"#utility.yul\":5460:5744   */\n      jump(tag_142)\n    tag_144:\n        /* \"#utility.yul\":5464:5478   */\n      pop\n        /* \"#utility.yul\":5760:5763   */\n      dup6\n        /* \"#utility.yul\":5753:5763   */\n      swap4\n      pop\n        /* \"#utility.yul\":5161:5769   */\n      pop\n      pop\n      pop\n        /* \"#utility.yul\":5037:5769   */\n      swap3\n      swap2\n      pop\n      pop\n      jump\t// out\n        /* \"#utility.yul\":5775:6148   */\n    tag_9:\n        /* \"#utility.yul\":5918:5922   */\n      0x00\n        /* \"#utility.yul\":5956:5958   */\n      0x20\n        /* \"#utility.yul\":5945:5954   */\n      dup3\n        /* \"#utility.yul\":5941:5959   */\n      add\n        /* \"#utility.yul\":5933:5959   */\n      swap1\n      pop\n        /* \"#utility.yul\":6005:6014   */\n      dup2\n        /* \"#utility.yul\":5999:6003   */\n      dup2\n        /* \"#utility.yul\":5995:6015   */\n      sub\n        /* \"#utility.yul\":5991:5992   */\n      0x00\n        /* \"#utility.yul\":5980:5989   */\n      dup4\n        /* \"#utility.yul\":5976:5993   */\n      add\n        /* \"#utility.yul\":5969:6016   */\n      mstore\n        /* \"#utility.yul\":6033:6141   */\n      tag_148\n        /* \"#utility.yul\":6136:6140   */\n      dup2\n        /* \"#utility.yul\":6127:6133   */\n      dup5\n        /* \"#utility.yul\":6033:6141   */\n      tag_74\n      jump\t// in\n    tag_148:\n        /* \"#utility.yul\":6025:6141   */\n      swap1\n      pop\n        /* \"#utility.yul\":5775:6148   */\n      swap3\n      swap2\n      pop\n      pop\n      jump\t// out\n        /* \"#utility.yul\":6154:6334   */\n    tag_75:\n        /* \"#utility.yul\":6202:6279   */\n      0x4e487b7100000000000000000000000000000000000000000000000000000000\n        /* \"#utility.yul\":6199:6200   */\n      0x00\n        /* \"#utility.yul\":6192:6280   */\n      mstore\n        /* \"#utility.yul\":6299:6303   */\n      0x11\n        /* \"#utility.yul\":6296:6297   */\n      0x04\n        /* \"#utility.yul\":6289:6304   */\n      mstore\n        /* \"#utility.yul\":6323:6327   */\n      0x24\n        /* \"#utility.yul\":6320:6321   */\n      0x00\n        /* \"#utility.yul\":6313:6328   */\n      revert\n        /* \"#utility.yul\":6340:6534   */\n    tag_13:\n        /* \"#utility.yul\":6380:6384   */\n      0x00\n        /* \"#utility.yul\":6400:6420   */\n      tag_151\n        /* \"#utility.yul\":6418:6419   */\n      dup3\n        /* \"#utility.yul\":6400:6420   */\n      tag_65\n      jump\t// in\n    tag_151:\n        /* \"#utility.yul\":6395:6420   */\n      swap2\n      pop\n        /* \"#utility.yul\":6434:6454   */\n      tag_152\n        /* \"#utility.yul\":6452:6453   */\n      dup4\n        /* \"#utility.yul\":6434:6454   */\n      tag_65\n      jump\t// in\n    tag_152:\n        /* \"#utility.yul\":6429:6454   */\n      swap3\n      pop\n        /* \"#utility.yul\":6478:6479   */\n      dup3\n        /* \"#utility.yul\":6475:6476   */\n      dup3\n        /* \"#utility.yul\":6471:6480   */\n      sub\n        /* \"#utility.yul\":6463:6480   */\n      swap1\n      pop\n        /* \"#utility.yul\":6502:6503   */\n      dup2\n        /* \"#utility.yul\":6496:6500   */\n      dup2\n        /* \"#utility.yul\":6493:6504   */\n      gt\n        /* \"#utility.yul\":6490:6527   */\n      iszero\n      tag_153\n      jumpi\n        /* \"#utility.yul\":6507:6525   */\n      tag_154\n      tag_75\n      jump\t// in\n    tag_154:\n        /* \"#utility.yul\":6490:6527   */\n    tag_153:\n        /* \"#utility.yul\":6340:6534   */\n      swap3\n      swap2\n      pop\n      pop\n      jump\t// out\n        /* \"#utility.yul\":6540:6709   */\n    tag_76:\n        /* \"#utility.yul\":6624:6635   */\n      0x00\n        /* \"#utility.yul\":6658:6664   */\n      dup3\n        /* \"#utility.yul\":6653:6656   */\n      dup3\n        /* \"#utility.yul\":6646:6665   */\n      mstore\n        /* \"#utility.yul\":6698:6702   */\n      0x20\n        /* \"#utility.yul\":6693:6696   */\n      dup3\n        /* \"#utility.yul\":6689:6703   */\n      add\n        /* \"#utility.yul\":6674:6703   */\n      swap1\n      pop\n        /* \"#utility.yul\":6540:6709   */\n      swap3\n      swap2\n      pop\n      pop\n      jump\t// out\n        /* \"#utility.yul\":6715:6889   */\n    tag_77:\n        /* \"#utility.yul\":6855:6881   */\n      0x496e76616c6964206e756d626572206f66206c65617665730000000000000000\n        /* \"#utility.yul\":6851:6852   */\n      0x00\n        /* \"#utility.yul\":6843:6849   */\n      dup3\n        /* \"#utility.yul\":6839:6853   */\n      add\n        /* \"#utility.yul\":6832:6882   */\n      mstore\n        /* \"#utility.yul\":6715:6889   */\n      pop\n      jump\t// out\n        /* \"#utility.yul\":6895:7261   */\n    tag_78:\n        /* \"#utility.yul\":7037:7040   */\n      0x00\n        /* \"#utility.yul\":7058:7125   */\n      tag_158\n        /* \"#utility.yul\":7122:7124   */\n      0x18\n        /* \"#utility.yul\":7117:7120   */\n      dup4\n        /* \"#utility.yul\":7058:7125   */\n      tag_76\n      jump\t// in\n    tag_158:\n        /* \"#utility.yul\":7051:7125   */\n      swap2\n      pop\n        /* \"#utility.yul\":7134:7227   */\n      tag_159\n        /* \"#utility.yul\":7223:7226   */\n      dup3\n        /* \"#utility.yul\":7134:7227   */\n      tag_77\n      jump\t// in\n    tag_159:\n        /* \"#utility.yul\":7252:7254   */\n      0x20\n        /* \"#utility.yul\":7247:7250   */\n      dup3\n        /* \"#utility.yul\":7243:7255   */\n      add\n        /* \"#utility.yul\":7236:7255   */\n      swap1\n      pop\n        /* \"#utility.yul\":6895:7261   */\n      swap2\n      swap1\n      pop\n      jump\t// out\n        /* \"#utility.yul\":7267:7686   */\n    tag_16:\n        /* \"#utility.yul\":7433:7437   */\n      0x00\n        /* \"#utility.yul\":7471:7473   */\n      0x20\n        /* \"#utility.yul\":7460:7469   */\n      dup3\n        /* \"#utility.yul\":7456:7474   */\n      add\n        /* \"#utility.yul\":7448:7474   */\n      swap1\n      pop\n        /* \"#utility.yul\":7520:7529   */\n      dup2\n        /* \"#utility.yul\":7514:7518   */\n      dup2\n        /* \"#utility.yul\":7510:7530   */\n      sub\n        /* \"#utility.yul\":7506:7507   */\n      0x00\n        /* \"#utility.yul\":7495:7504   */\n      dup4\n        /* \"#utility.yul\":7491:7508   */\n      add\n        /* \"#utility.yul\":7484:7531   */\n      mstore\n        /* \"#utility.yul\":7548:7679   */\n      tag_161\n        /* \"#utility.yul\":7674:7678   */\n      dup2\n        /* \"#utility.yul\":7548:7679   */\n      tag_78\n      jump\t// in\n    tag_161:\n        /* \"#utility.yul\":7540:7679   */\n      swap1\n      pop\n        /* \"#utility.yul\":7267:7686   */\n      swap2\n      swap1\n      pop\n      jump\t// out\n        /* \"#utility.yul\":7692:8102   */\n    tag_18:\n        /* \"#utility.yul\":7732:7739   */\n      0x00\n        /* \"#utility.yul\":7755:7775   */\n      tag_163\n        /* \"#utility.yul\":7773:7774   */\n      dup3\n        /* \"#utility.yul\":7755:7775   */\n      tag_65\n      jump\t// in\n    tag_163:\n        /* \"#utility.yul\":7750:7775   */\n      swap2\n      pop\n        /* \"#utility.yul\":7789:7809   */\n      tag_164\n        /* \"#utility.yul\":7807:7808   */\n      dup4\n        /* \"#utility.yul\":7789:7809   */\n      tag_65\n      jump\t// in\n    tag_164:\n        /* \"#utility.yul\":7784:7809   */\n      swap3\n      pop\n        /* \"#utility.yul\":7844:7845   */\n      dup3\n        /* \"#utility.yul\":7841:7842   */\n      dup3\n        /* \"#utility.yul\":7837:7846   */\n      mul\n        /* \"#utility.yul\":7866:7896   */\n      tag_165\n        /* \"#utility.yul\":7884:7895   */\n      dup2\n        /* \"#utility.yul\":7866:7896   */\n      tag_65\n      jump\t// in\n    tag_165:\n        /* \"#utility.yul\":7855:7896   */\n      swap2\n      pop\n        /* \"#utility.yul\":8045:8046   */\n      dup3\n        /* \"#utility.yul\":8036:8043   */\n      dup3\n        /* \"#utility.yul\":8032:8047   */\n      div\n        /* \"#utility.yul\":8029:8030   */\n      dup5\n        /* \"#utility.yul\":8026:8048   */\n      eq\n        /* \"#utility.yul\":8006:8007   */\n      dup4\n        /* \"#utility.yul\":7999:8008   */\n      iszero\n        /* \"#utility.yul\":7979:8062   */\n      or\n        /* \"#utility.yul\":7956:8095   */\n      tag_166\n      jumpi\n        /* \"#utility.yul\":8075:8093   */\n      tag_167\n      tag_75\n      jump\t// in\n    tag_167:\n        /* \"#utility.yul\":7956:8095   */\n    tag_166:\n        /* \"#utility.yul\":7740:8102   */\n      pop\n        /* \"#utility.yul\":7692:8102   */\n      swap3\n      swap2\n      pop\n      pop\n      jump\t// out\n        /* \"#utility.yul\":8108:8299   */\n    tag_26:\n        /* \"#utility.yul\":8148:8151   */\n      0x00\n        /* \"#utility.yul\":8167:8187   */\n      tag_169\n        /* \"#utility.yul\":8185:8186   */\n      dup3\n        /* \"#utility.yul\":8167:8187   */\n      tag_65\n      jump\t// in\n    tag_169:\n        /* \"#utility.yul\":8162:8187   */\n      swap2\n      pop\n        /* \"#utility.yul\":8201:8221   */\n      tag_170\n        /* \"#utility.yul\":8219:8220   */\n      dup4\n        /* \"#utility.yul\":8201:8221   */\n      tag_65\n      jump\t// in\n    tag_170:\n        /* \"#utility.yul\":8196:8221   */\n      swap3\n      pop\n        /* \"#utility.yul\":8244:8245   */\n      dup3\n        /* \"#utility.yul\":8241:8242   */\n      dup3\n        /* \"#utility.yul\":8237:8246   */\n      add\n        /* \"#utility.yul\":8230:8246   */\n      swap1\n      pop\n        /* \"#utility.yul\":8265:8268   */\n      dup1\n        /* \"#utility.yul\":8262:8263   */\n      dup3\n        /* \"#utility.yul\":8259:8269   */\n      gt\n        /* \"#utility.yul\":8256:8292   */\n      iszero\n      tag_171\n      jumpi\n        /* \"#utility.yul\":8272:8290   */\n      tag_172\n      tag_75\n      jump\t// in\n    tag_172:\n        /* \"#utility.yul\":8256:8292   */\n    tag_171:\n        /* \"#utility.yul\":8108:8299   */\n      swap3\n      swap2\n      pop\n      pop\n      jump\t// out\n        /* \"#utility.yul\":8305:8485   */\n    tag_79:\n        /* \"#utility.yul\":8353:8430   */\n      0x4e487b7100000000000000000000000000000000000000000000000000000000\n        /* \"#utility.yul\":8350:8351   */\n      0x00\n        /* \"#utility.yul\":8343:8431   */\n      mstore\n        /* \"#utility.yul\":8450:8454   */\n      0x12\n        /* \"#utility.yul\":8447:8448   */\n      0x04\n        /* \"#utility.yul\":8440:8455   */\n      mstore\n        /* \"#utility.yul\":8474:8478   */\n      0x24\n        /* \"#utility.yul\":8471:8472   */\n      0x00\n        /* \"#utility.yul\":8464:8479   */\n      revert\n        /* \"#utility.yul\":8491:8667   */\n    tag_32:\n        /* \"#utility.yul\":8523:8524   */\n      0x00\n        /* \"#utility.yul\":8540:8560   */\n      tag_175\n        /* \"#utility.yul\":8558:8559   */\n      dup3\n        /* \"#utility.yul\":8540:8560   */\n      tag_65\n      jump\t// in\n    tag_175:\n        /* \"#utility.yul\":8535:8560   */\n      swap2\n      pop\n        /* \"#utility.yul\":8574:8594   */\n      tag_176\n        /* \"#utility.yul\":8592:8593   */\n      dup4\n        /* \"#utility.yul\":8574:8594   */\n      tag_65\n      jump\t// in\n    tag_176:\n        /* \"#utility.yul\":8569:8594   */\n      swap3\n      pop\n        /* \"#utility.yul\":8613:8614   */\n      dup3\n        /* \"#utility.yul\":8603:8638   */\n      tag_177\n      jumpi\n        /* \"#utility.yul\":8618:8636   */\n      tag_178\n      tag_79\n      jump\t// in\n    tag_178:\n        /* \"#utility.yul\":8603:8638   */\n    tag_177:\n        /* \"#utility.yul\":8659:8660   */\n      dup3\n        /* \"#utility.yul\":8656:8657   */\n      dup3\n        /* \"#utility.yul\":8652:8661   */\n      mod\n        /* \"#utility.yul\":8647:8661   */\n      swap1\n      pop\n        /* \"#utility.yul\":8491:8667   */\n      swap3\n      swap2\n      pop\n      pop\n      jump\t// out\n        /* \"#utility.yul\":8673:8853   */\n    tag_37:\n        /* \"#utility.yul\":8721:8798   */\n      0x4e487b7100000000000000000000000000000000000000000000000000000000\n        /* \"#utility.yul\":8718:8719   */\n      0x00\n        /* \"#utility.yul\":8711:8799   */\n      mstore\n        /* \"#utility.yul\":8818:8822   */\n      0x32\n        /* \"#utility.yul\":8815:8816   */\n      0x04\n        /* \"#utility.yul\":8808:8823   */\n      mstore\n        /* \"#utility.yul\":8842:8846   */\n      0x24\n        /* \"#utility.yul\":8839:8840   */\n      0x00\n        /* \"#utility.yul\":8832:8847   */\n      revert\n        /* \"#utility.yul\":8859:9044   */\n    tag_48:\n        /* \"#utility.yul\":8899:8900   */\n      0x00\n        /* \"#utility.yul\":8916:8936   */\n      tag_181\n        /* \"#utility.yul\":8934:8935   */\n      dup3\n        /* \"#utility.yul\":8916:8936   */\n      tag_65\n      jump\t// in\n    tag_181:\n        /* \"#utility.yul\":8911:8936   */\n      swap2\n      pop\n        /* \"#utility.yul\":8950:8970   */\n      tag_182\n        /* \"#utility.yul\":8968:8969   */\n      dup4\n        /* \"#utility.yul\":8950:8970   */\n      tag_65\n      jump\t// in\n    tag_182:\n        /* \"#utility.yul\":8945:8970   */\n      swap3\n      pop\n        /* \"#utility.yul\":8989:8990   */\n      dup3\n        /* \"#utility.yul\":8979:9014   */\n      tag_183\n      jumpi\n        /* \"#utility.yul\":8994:9012   */\n      tag_184\n      tag_79\n      jump\t// in\n    tag_184:\n        /* \"#utility.yul\":8979:9014   */\n    tag_183:\n        /* \"#utility.yul\":9036:9037   */\n      dup3\n        /* \"#utility.yul\":9033:9034   */\n      dup3\n        /* \"#utility.yul\":9029:9038   */\n      div\n        /* \"#utility.yul\":9024:9038   */\n      swap1\n      pop\n        /* \"#utility.yul\":8859:9044   */\n      swap3\n      swap2\n      pop\n      pop\n      jump\t// out\n        /* \"#utility.yul\":9050:9283   */\n    tag_50:\n        /* \"#utility.yul\":9089:9092   */\n      0x00\n        /* \"#utility.yul\":9112:9136   */\n      tag_186\n        /* \"#utility.yul\":9130:9135   */\n      dup3\n        /* \"#utility.yul\":9112:9136   */\n      tag_65\n      jump\t// in\n    tag_186:\n        /* \"#utility.yul\":9103:9136   */\n      swap2\n      pop\n        /* \"#utility.yul\":9158:9224   */\n      0xffffffffffffffffffffffffffffffffffffffffffffffffffffffffffffffff\n        /* \"#utility.yul\":9151:9156   */\n      dup3\n        /* \"#utility.yul\":9148:9225   */\n      sub\n        /* \"#utility.yul\":9145:9248   */\n      tag_187\n      jumpi\n        /* \"#utility.yul\":9228:9246   */\n      tag_188\n      tag_75\n      jump\t// in\n    tag_188:\n        /* \"#utility.yul\":9145:9248   */\n    tag_187:\n        /* \"#utility.yul\":9275:9276   */\n      0x01\n        /* \"#utility.yul\":9268:9273   */\n      dup3\n        /* \"#utility.yul\":9264:9277   */\n      add\n        /* \"#utility.yul\":9257:9277   */\n      swap1\n      pop\n        /* \"#utility.yul\":9050:9283   */\n      swap2\n      swap1\n      pop\n      jump\t// out\n\n    auxdata: 0xa26469706673582212207d0ca2af1beeea929137c6ddc8b6b67afde8376cacc8cf60463dcbed1ac90df564736f6c63430008130033\n}\n",
				"bytecode": {
					"linkReferences": {},
					"object": "608060405234801561001057600080fd5b506107ec806100206000396000f3fe608060405234801561001057600080fd5b506004361061002b5760003560e01c8063207fa3ac14610030575b600080fd5b61004a6004803603810190610045919061041c565b610060565b6040516100579190610536565b60405180910390f35b606060008351118015610083575060006001845161007e9190610587565b845116145b6100c2576040517f08c379a00000000000000000000000000000000000000000000000000000000081526004016100b990610618565b60405180910390fd5b60006001600285516100d49190610638565b6100de9190610587565b905060008451826100ef9190610587565b67ffffffffffffffff8111156101085761010761026d565b5b6040519080825280602002602001820160405280156101365781602001602082028036833780820191505090505b5090506000600186518661014a919061067a565b6101549190610587565b905060005b825181101561023657600060028361017191906106dd565b036101c157866001836101849190610587565b815181106101955761019461070e565b5b60200260200101518382815181106101b0576101af61070e565b5b602002602001018181525050610208565b866001836101cf919061067a565b815181106101e0576101df61070e565b5b60200260200101518382815181106101fb576101fa61070e565b5b6020026020010181815250505b60026001836102179190610587565b610221919061073d565b9150808061022e9061076e565b915050610159565b5081935050505092915050565b6000604051905090565b600080fd5b600080fd5b600080fd5b6000601f19601f8301169050919050565b7f4e487b7100000000000000000000000000000000000000000000000000000000600052604160045260246000fd5b6102a58261025c565b810181811067ffffffffffffffff821117156102c4576102c361026d565b5b80604052505050565b60006102d7610243565b90506102e3828261029c565b919050565b600067ffffffffffffffff8211156103035761030261026d565b5b602082029050602081019050919050565b600080fd5b6000819050919050565b61032c81610319565b811461033757600080fd5b50565b60008135905061034981610323565b92915050565b600061036261035d846102e8565b6102cd565b9050808382526020820190506020840283018581111561038557610384610314565b5b835b818110156103ae578061039a888261033a565b845260208401935050602081019050610387565b5050509392505050565b600082601f8301126103cd576103cc610257565b5b81356103dd84826020860161034f565b91505092915050565b6000819050919050565b6103f9816103e6565b811461040457600080fd5b50565b600081359050610416816103f0565b92915050565b600080604083850312156104335761043261024d565b5b600083013567ffffffffffffffff81111561045157610450610252565b5b61045d858286016103b8565b925050602061046e85828601610407565b9150509250929050565b600081519050919050565b600082825260208201905092915050565b6000819050602082019050919050565b6104ad81610319565b82525050565b60006104bf83836104a4565b60208301905092915050565b6000602082019050919050565b60006104e382610478565b6104ed8185610483565b93506104f883610494565b8060005b8381101561052957815161051088826104b3565b975061051b836104cb565b9250506001810190506104fc565b5085935050505092915050565b6000602082019050818103600083015261055081846104d8565b905092915050565b7f4e487b7100000000000000000000000000000000000000000000000000000000600052601160045260246000fd5b6000610592826103e6565b915061059d836103e6565b92508282039050818111156105b5576105b4610558565b5b92915050565b600082825260208201905092915050565b7f496e76616c6964206e756d626572206f66206c65617665730000000000000000600082015250565b60006106026018836105bb565b915061060d826105cc565b602082019050919050565b60006020820190508181036000830152610631816105f5565b9050919050565b6000610643826103e6565b915061064e836103e6565b925082820261065c816103e6565b9150828204841483151761067357610672610558565b5b5092915050565b6000610685826103e6565b9150610690836103e6565b92508282019050808211156106a8576106a7610558565b5b92915050565b7f4e487b7100000000000000000000000000000000000000000000000000000000600052601260045260246000fd5b60006106e8826103e6565b91506106f3836103e6565b925082610703576107026106ae565b5b828206905092915050565b7f4e487b7100000000000000000000000000000000000000000000000000000000600052603260045260246000fd5b6000610748826103e6565b9150610753836103e6565b925082610763576107626106ae565b5b828204905092915050565b6000610779826103e6565b91507fffffffffffffffffffffffffffffffffffffffffffffffffffffffffffffffff82036107ab576107aa610558565b5b60018201905091905056fea26469706673582212207d0ca2af1beeea929137c6ddc8b6b67afde8376cacc8cf60463dcbed1ac90df564736f6c63430008130033",
					"opcodes": "PUSH1 0x80 PUSH1 0x40 MSTORE CALLVALUE DUP1 ISZERO PUSH2 0x10 JUMPI PUSH1 0x0 DUP1 REVERT JUMPDEST POP PUSH2 0x7EC DUP1 PUSH2 0x20 PUSH1 0x0 CODECOPY PUSH1 0x0 RETURN INVALID PUSH1 0x80 PUSH1 0x40 MSTORE CALLVALUE DUP1 ISZERO PUSH2 0x10 JUMPI PUSH1 0x0 DUP1 REVERT JUMPDEST POP PUSH1 0x4 CALLDATASIZE LT PUSH2 0x2B JUMPI PUSH1 0x0 CALLDATALOAD PUSH1 0xE0 SHR DUP1 PUSH4 0x207FA3AC EQ PUSH2 0x30 JUMPI JUMPDEST PUSH1 0x0 DUP1 REVERT JUMPDEST PUSH2 0x4A PUSH1 0x4 DUP1 CALLDATASIZE SUB DUP2 ADD SWAP1 PUSH2 0x45 SWAP2 SWAP1 PUSH2 0x41C JUMP JUMPDEST PUSH2 0x60 JUMP JUMPDEST PUSH1 0x40 MLOAD PUSH2 0x57 SWAP2 SWAP1 PUSH2 0x536 JUMP JUMPDEST PUSH1 0x40 MLOAD DUP1 SWAP2 SUB SWAP1 RETURN JUMPDEST PUSH1 0x60 PUSH1 0x0 DUP4 MLOAD GT DUP1 ISZERO PUSH2 0x83 JUMPI POP PUSH1 0x0 PUSH1 0x1 DUP5 MLOAD PUSH2 0x7E SWAP2 SWAP1 PUSH2 0x587 JUMP JUMPDEST DUP5 MLOAD AND EQ JUMPDEST PUSH2 0xC2 JUMPI PUSH1 0x40 MLOAD PUSH32 0x8C379A000000000000000000000000000000000000000000000000000000000 DUP2 MSTORE PUSH1 0x4 ADD PUSH2 0xB9 SWAP1 PUSH2 0x618 JUMP JUMPDEST PUSH1 0x40 MLOAD DUP1 SWAP2 SUB SWAP1 REVERT JUMPDEST PUSH1 0x0 PUSH1 0x1 PUSH1 0x2 DUP6 MLOAD PUSH2 0xD4 SWAP2 SWAP1 PUSH2 0x638 JUMP JUMPDEST PUSH2 0xDE SWAP2 SWAP1 PUSH2 0x587 JUMP JUMPDEST SWAP1 POP PUSH1 0x0 DUP5 MLOAD DUP3 PUSH2 0xEF SWAP2 SWAP1 PUSH2 0x587 JUMP JUMPDEST PUSH8 0xFFFFFFFFFFFFFFFF DUP2 GT ISZERO PUSH2 0x108 JUMPI PUSH2 0x107 PUSH2 0x26D JUMP JUMPDEST JUMPDEST PUSH1 0x40 MLOAD SWAP1 DUP1 DUP3 MSTORE DUP1 PUSH1 0x20 MUL PUSH1 0x20 ADD DUP3 ADD PUSH1 0x40 MSTORE DUP1 ISZERO PUSH2 0x136 JUMPI DUP2 PUSH1 0x20 ADD PUSH1 0x20 DUP3 MUL DUP1 CALLDATASIZE DUP4 CALLDATACOPY DUP1 DUP3 ADD SWAP2 POP POP SWAP1 POP JUMPDEST POP SWAP1 POP PUSH1 0x0 PUSH1 0x1 DUP7 MLOAD DUP7 PUSH2 0x14A SWAP2 SWAP1 PUSH2 0x67A JUMP JUMPDEST PUSH2 0x154 SWAP2 SWAP1 PUSH2 0x587 JUMP JUMPDEST SWAP1 POP PUSH1 0x0 JUMPDEST DUP3 MLOAD DUP2 LT ISZERO PUSH2 0x236 JUMPI PUSH1 0x0 PUSH1 0x2 DUP4 PUSH2 0x171 SWAP2 SWAP1 PUSH2 0x6DD JUMP JUMPDEST SUB PUSH2 0x1C1 JUMPI DUP7 PUSH1 0x1 DUP4 PUSH2 0x184 SWAP2 SWAP1 PUSH2 0x587 JUMP JUMPDEST DUP2 MLOAD DUP2 LT PUSH2 0x195 JUMPI PUSH2 0x194 PUSH2 0x70E JUMP JUMPDEST JUMPDEST PUSH1 0x20 MUL PUSH1 0x20 ADD ADD MLOAD DUP4 DUP3 DUP2 MLOAD DUP2 LT PUSH2 0x1B0 JUMPI PUSH2 0x1AF PUSH2 0x70E JUMP JUMPDEST JUMPDEST PUSH1 0x20 MUL PUSH1 0x20 ADD ADD DUP2 DUP2 MSTORE POP POP PUSH2 0x208 JUMP JUMPDEST DUP7 PUSH1 0x1 DUP4 PUSH2 0x1CF SWAP2 SWAP1 PUSH2 0x67A JUMP JUMPDEST DUP2 MLOAD DUP2 LT PUSH2 0x1E0 JUMPI PUSH2 0x1DF PUSH2 0x70E JUMP JUMPDEST JUMPDEST PUSH1 0x20 MUL PUSH1 0x20 ADD ADD MLOAD DUP4 DUP3 DUP2 MLOAD DUP2 LT PUSH2 0x1FB JUMPI PUSH2 0x1FA PUSH2 0x70E JUMP JUMPDEST JUMPDEST PUSH1 0x20 MUL PUSH1 0x20 ADD ADD DUP2 DUP2 MSTORE POP POP JUMPDEST PUSH1 0x2 PUSH1 0x1 DUP4 PUSH2 0x217 SWAP2 SWAP1 PUSH2 0x587 JUMP JUMPDEST PUSH2 0x221 SWAP2 SWAP1 PUSH2 0x73D JUMP JUMPDEST SWAP2 POP DUP1 DUP1 PUSH2 0x22E SWAP1 PUSH2 0x76E JUMP JUMPDEST SWAP2 POP POP PUSH2 0x159 JUMP JUMPDEST POP DUP2 SWAP4 POP POP POP POP SWAP3 SWAP2 POP POP JUMP JUMPDEST PUSH1 0x0 PUSH1 0x40 MLOAD SWAP1 POP SWAP1 JUMP JUMPDEST PUSH1 0x0 DUP1 REVERT JUMPDEST PUSH1 0x0 DUP1 REVERT JUMPDEST PUSH1 0x0 DUP1 REVERT JUMPDEST PUSH1 0x0 PUSH1 0x1F NOT PUSH1 0x1F DUP4 ADD AND SWAP1 POP SWAP2 SWAP1 POP JUMP JUMPDEST PUSH32 0x4E487B7100000000000000000000000000000000000000000000000000000000 PUSH1 0x0 MSTORE PUSH1 0x41 PUSH1 0x4 MSTORE PUSH1 0x24 PUSH1 0x0 REVERT JUMPDEST PUSH2 0x2A5 DUP3 PUSH2 0x25C JUMP JUMPDEST DUP2 ADD DUP2 DUP2 LT PUSH8 0xFFFFFFFFFFFFFFFF DUP3 GT OR ISZERO PUSH2 0x2C4 JUMPI PUSH2 0x2C3 PUSH2 0x26D JUMP JUMPDEST JUMPDEST DUP1 PUSH1 0x40 MSTORE POP POP POP JUMP JUMPDEST PUSH1 0x0 PUSH2 0x2D7 PUSH2 0x243 JUMP JUMPDEST SWAP1 POP PUSH2 0x2E3 DUP3 DUP3 PUSH2 0x29C JUMP JUMPDEST SWAP2 SWAP1 POP JUMP JUMPDEST PUSH1 0x0 PUSH8 0xFFFFFFFFFFFFFFFF DUP3 GT ISZERO PUSH2 0x303 JUMPI PUSH2 0x302 PUSH2 0x26D JUMP JUMPDEST JUMPDEST PUSH1 0x20 DUP3 MUL SWAP1 POP PUSH1 0x20 DUP2 ADD SWAP1 POP SWAP2 SWAP1 POP JUMP JUMPDEST PUSH1 0x0 DUP1 REVERT JUMPDEST PUSH1 0x0 DUP2 SWAP1 POP SWAP2 SWAP1 POP JUMP JUMPDEST PUSH2 0x32C DUP2 PUSH2 0x319 JUMP JUMPDEST DUP2 EQ PUSH2 0x337 JUMPI PUSH1 0x0 DUP1 REVERT JUMPDEST POP JUMP JUMPDEST PUSH1 0x0 DUP2 CALLDATALOAD SWAP1 POP PUSH2 0x349 DUP2 PUSH2 0x323 JUMP JUMPDEST SWAP3 SWAP2 POP POP JUMP JUMPDEST PUSH1 0x0 PUSH2 0x362 PUSH2 0x35D DUP5 PUSH2 0x2E8 JUMP JUMPDEST PUSH2 0x2CD JUMP JUMPDEST SWAP1 POP DUP1 DUP4 DUP3 MSTORE PUSH1 0x20 DUP3 ADD SWAP1 POP PUSH1 0x20 DUP5 MUL DUP4 ADD DUP6 DUP2 GT ISZERO PUSH2 0x385 JUMPI PUSH2 0x384 PUSH2 0x314 JUMP JUMPDEST JUMPDEST DUP4 JUMPDEST DUP2 DUP2 LT ISZERO PUSH2 0x3AE JUMPI DUP1 PUSH2 0x39A DUP9 DUP3 PUSH2 0x33A JUMP JUMPDEST DUP5 MSTORE PUSH1 0x20 DUP5 ADD SWAP4 POP POP PUSH1 0x20 DUP2 ADD SWAP1 POP PUSH2 0x387 JUMP JUMPDEST POP POP POP SWAP4 SWAP3 POP POP POP JUMP JUMPDEST PUSH1 0x0 DUP3 PUSH1 0x1F DUP4 ADD SLT PUSH2 0x3CD JUMPI PUSH2 0x3CC PUSH2 0x257 JUMP JUMPDEST JUMPDEST DUP2 CALLDATALOAD PUSH2 0x3DD DUP5 DUP3 PUSH1 0x20 DUP7 ADD PUSH2 0x34F JUMP JUMPDEST SWAP2 POP POP SWAP3 SWAP2 POP POP JUMP JUMPDEST PUSH1 0x0 DUP2 SWAP1 POP SWAP2 SWAP1 POP JUMP JUMPDEST PUSH2 0x3F9 DUP2 PUSH2 0x3E6 JUMP JUMPDEST DUP2 EQ PUSH2 0x404 JUMPI PUSH1 0x0 DUP1 REVERT JUMPDEST POP JUMP JUMPDEST PUSH1 0x0 DUP2 CALLDATALOAD SWAP1 POP PUSH2 0x416 DUP2 PUSH2 0x3F0 JUMP JUMPDEST SWAP3 SWAP2 POP POP JUMP JUMPDEST PUSH1 0x0 DUP1 PUSH1 0x40 DUP4 DUP6 SUB SLT ISZERO PUSH2 0x433 JUMPI PUSH2 0x432 PUSH2 0x24D JUMP JUMPDEST JUMPDEST PUSH1 0x0 DUP4 ADD CALLDATALOAD PUSH8 0xFFFFFFFFFFFFFFFF DUP2 GT ISZERO PUSH2 0x451 JUMPI PUSH2 0x450 PUSH2 0x252 JUMP JUMPDEST JUMPDEST PUSH2 0x45D DUP6 DUP3 DUP7 ADD PUSH2 0x3B8 JUMP JUMPDEST SWAP3 POP POP PUSH1 0x20 PUSH2 0x46E DUP6 DUP3 DUP7 ADD PUSH2 0x407 JUMP JUMPDEST SWAP2 POP POP SWAP3 POP SWAP3 SWAP1 POP JUMP JUMPDEST PUSH1 0x0 DUP2 MLOAD SWAP1 POP SWAP2 SWAP1 POP JUMP JUMPDEST PUSH1 0x0 DUP3 DUP3 MSTORE PUSH1 0x20 DUP3 ADD SWAP1 POP SWAP3 SWAP2 POP POP JUMP JUMPDEST PUSH1 0x0 DUP2 SWAP1 POP PUSH1 0x20 DUP3 ADD SWAP1 POP SWAP2 SWAP1 POP JUMP JUMPDEST PUSH2 0x4AD DUP2 PUSH2 0x319 JUMP JUMPDEST DUP3 MSTORE POP POP JUMP JUMPDEST PUSH1 0x0 PUSH2 0x4BF DUP4 DUP4 PUSH2 0x4A4 JUMP JUMPDEST PUSH1 0x20 DUP4 ADD SWAP1 POP SWAP3 SWAP2 POP POP JUMP JUMPDEST PUSH1 0x0 PUSH1 0x20 DUP3 ADD SWAP1 POP SWAP2 SWAP1 POP JUMP JUMPDEST PUSH1 0x0 PUSH2 0x4E3 DUP3 PUSH2 0x478 JUMP JUMPDEST PUSH2 0x4ED DUP2 DUP6 PUSH2 0x483 JUMP JUMPDEST SWAP4 POP PUSH2 0x4F8 DUP4 PUSH2 0x494 JUMP JUMPDEST DUP1 PUSH1 0x0 JUMPDEST DUP4 DUP2 LT ISZERO PUSH2 0x529 JUMPI DUP2 MLOAD PUSH2 0x510 DUP9 DUP3 PUSH2 0x4B3 JUMP JUMPDEST SWAP8 POP PUSH2 0x51B DUP4 PUSH2 0x4CB JUMP JUMPDEST SWAP3 POP POP PUSH1 0x1 DUP2 ADD SWAP1 POP PUSH2 0x4FC JUMP JUMPDEST POP DUP6 SWAP4 POP POP POP POP SWAP3 SWAP2 POP POP JUMP JUMPDEST PUSH1 0x0 PUSH1 0x20 DUP3 ADD SWAP1 POP DUP2 DUP2 SUB PUSH1 0x0 DUP4 ADD MSTORE PUSH2 0x550 DUP2 DUP5 PUSH2 0x4D8 JUMP JUMPDEST SWAP1 POP SWAP3 SWAP2 POP POP JUMP JUMPDEST PUSH32 0x4E487B7100000000000000000000000000000000000000000000000000000000 PUSH1 0x0 MSTORE PUSH1 0x11 PUSH1 0x4 MSTORE PUSH1 0x24 PUSH1 0x0 REVERT JUMPDEST PUSH1 0x0 PUSH2 0x592 DUP3 PUSH2 0x3E6 JUMP JUMPDEST SWAP2 POP PUSH2 0x59D DUP4 PUSH2 0x3E6 JUMP JUMPDEST SWAP3 POP DUP3 DUP3 SUB SWAP1 POP DUP2 DUP2 GT ISZERO PUSH2 0x5B5 JUMPI PUSH2 0x5B4 PUSH2 0x558 JUMP JUMPDEST JUMPDEST SWAP3 SWAP2 POP POP JUMP JUMPDEST PUSH1 0x0 DUP3 DUP3 MSTORE PUSH1 0x20 DUP3 ADD SWAP1 POP SWAP3 SWAP2 POP POP JUMP JUMPDEST PUSH32 0x496E76616C6964206E756D626572206F66206C65617665730000000000000000 PUSH1 0x0 DUP3 ADD MSTORE POP JUMP JUMPDEST PUSH1 0x0 PUSH2 0x602 PUSH1 0x18 DUP4 PUSH2 0x5BB JUMP JUMPDEST SWAP2 POP PUSH2 0x60D DUP3 PUSH2 0x5CC JUMP JUMPDEST PUSH1 0x20 DUP3 ADD SWAP1 POP SWAP2 SWAP1 POP JUMP JUMPDEST PUSH1 0x0 PUSH1 0x20 DUP3 ADD SWAP1 POP DUP2 DUP2 SUB PUSH1 0x0 DUP4 ADD MSTORE PUSH2 0x631 DUP2 PUSH2 0x5F5 JUMP JUMPDEST SWAP1 POP SWAP2 SWAP1 POP JUMP JUMPDEST PUSH1 0x0 PUSH2 0x643 DUP3 PUSH2 0x3E6 JUMP JUMPDEST SWAP2 POP PUSH2 0x64E DUP4 PUSH2 0x3E6 JUMP JUMPDEST SWAP3 POP DUP3 DUP3 MUL PUSH2 0x65C DUP2 PUSH2 0x3E6 JUMP JUMPDEST SWAP2 POP DUP3 DUP3 DIV DUP5 EQ DUP4 ISZERO OR PUSH2 0x673 JUMPI PUSH2 0x672 PUSH2 0x558 JUMP JUMPDEST JUMPDEST POP SWAP3 SWAP2 POP POP JUMP JUMPDEST PUSH1 0x0 PUSH2 0x685 DUP3 PUSH2 0x3E6 JUMP JUMPDEST SWAP2 POP PUSH2 0x690 DUP4 PUSH2 0x3E6 JUMP JUMPDEST SWAP3 POP DUP3 DUP3 ADD SWAP1 POP DUP1 DUP3 GT ISZERO PUSH2 0x6A8 JUMPI PUSH2 0x6A7 PUSH2 0x558 JUMP JUMPDEST JUMPDEST SWAP3 SWAP2 POP POP JUMP JUMPDEST PUSH32 0x4E487B7100000000000000000000000000000000000000000000000000000000 PUSH1 0x0 MSTORE PUSH1 0x12 PUSH1 0x4 MSTORE PUSH1 0x24 PUSH1 0x0 REVERT JUMPDEST PUSH1 0x0 PUSH2 0x6E8 DUP3 PUSH2 0x3E6 JUMP JUMPDEST SWAP2 POP PUSH2 0x6F3 DUP4 PUSH2 0x3E6 JUMP JUMPDEST SWAP3 POP DUP3 PUSH2 0x703 JUMPI PUSH2 0x702 PUSH2 0x6AE JUMP JUMPDEST JUMPDEST DUP3 DUP3 MOD SWAP1 POP SWAP3 SWAP2 POP POP JUMP JUMPDEST PUSH32 0x4E487B7100000000000000000000000000000000000000000000000000000000 PUSH1 0x0 MSTORE PUSH1 0x32 PUSH1 0x4 MSTORE PUSH1 0x24 PUSH1 0x0 REVERT JUMPDEST PUSH1 0x0 PUSH2 0x748 DUP3 PUSH2 0x3E6 JUMP JUMPDEST SWAP2 POP PUSH2 0x753 DUP4 PUSH2 0x3E6 JUMP JUMPDEST SWAP3 POP DUP3 PUSH2 0x763 JUMPI PUSH2 0x762 PUSH2 0x6AE JUMP JUMPDEST JUMPDEST DUP3 DUP3 DIV SWAP1 POP SWAP3 SWAP2 POP POP JUMP JUMPDEST PUSH1 0x0 PUSH2 0x779 DUP3 PUSH2 0x3E6 JUMP JUMPDEST SWAP2 POP PUSH32 0xFFFFFFFFFFFFFFFFFFFFFFFFFFFFFFFFFFFFFFFFFFFFFFFFFFFFFFFFFFFFFFFF DUP3 SUB PUSH2 0x7AB JUMPI PUSH2 0x7AA PUSH2 0x558 JUMP JUMPDEST JUMPDEST PUSH1 0x1 DUP3 ADD SWAP1 POP SWAP2 SWAP1 POP JUMP INVALID LOG2 PUSH5 0x6970667358 0x22 SLT KECCAK256 PUSH30 0xCA2AF1BEEEA929137C6DDC8B6B67AFDE8376CACC8CF60463DCBED1AC90D CREATE2 PUSH5 0x736F6C6343 STOP ADDMOD SGT STOP CALLER "
				},
				"gasEstimates": {
					"creation": {
						"codeDepositCost": "405600",
						"executionCost": "443",
						"totalCost": "406043"
					},
					"external": {
						"getMerkleProof(bytes32[],uint256)": "infinite"
					}
				},
				"methodIdentifiers": {
					"getMerkleProof(bytes32[],uint256)": "207fa3ac"
				}
			},
			"storageLayout": {
				"storage": [],
				"types": null
			},
			"userdoc": {
				"kind": "user",
				"methods": {},
				"version": 1
			}
		}
	}
}