{
	"trustless cross-chain/merkle proof/test222.sol": {
		"SimpleNFT": {
			"abi": [
				{
					"inputs": [
						{
							"internalType": "uint256",
							"name": "attack",
							"type": "uint256"
						},
						{
							"internalType": "uint256",
							"name": "defense",
							"type": "uint256"
						},
						{
							"internalType": "uint256",
							"name": "experience",
							"type": "uint256"
						},
						{
							"internalType": "uint256",
							"name": "luck",
							"type": "uint256"
						},
						{
							"internalType": "string",
							"name": "city",
							"type": "string"
						},
						{
							"internalType": "string",
							"name": "country",
							"type": "string"
						},
						{
							"internalType": "string",
							"name": "name",
							"type": "string"
						},
						{
							"internalType": "string",
							"name": "extraField1",
							"type": "string"
						},
						{
							"internalType": "string",
							"name": "extraField2",
							"type": "string"
						}
					],
					"name": "createNFT",
					"outputs": [],
					"stateMutability": "nonpayable",
					"type": "function"
				},
				{
					"inputs": [
						{
							"internalType": "address",
							"name": "owner",
							"type": "address"
						}
					],
					"name": "getNFT",
					"outputs": [
						{
							"components": [
								{
									"internalType": "uint256",
									"name": "attack",
									"type": "uint256"
								},
								{
									"internalType": "uint256",
									"name": "defense",
									"type": "uint256"
								},
								{
									"internalType": "uint256",
									"name": "experience",
									"type": "uint256"
								},
								{
									"internalType": "uint256",
									"name": "luck",
									"type": "uint256"
								},
								{
									"internalType": "string",
									"name": "city",
									"type": "string"
								},
								{
									"internalType": "string",
									"name": "country",
									"type": "string"
								},
								{
									"internalType": "string",
									"name": "name",
									"type": "string"
								},
								{
									"internalType": "string",
									"name": "extraField1",
									"type": "string"
								},
								{
									"internalType": "string",
									"name": "extraField2",
									"type": "string"
								}
							],
							"internalType": "struct SimpleNFT.NFT",
							"name": "",
							"type": "tuple"
						}
					],
					"stateMutability": "view",
					"type": "function"
				},
				{
					"inputs": [
						{
							"internalType": "address",
							"name": "",
							"type": "address"
						}
					],
					"name": "nftData",
					"outputs": [
						{
							"internalType": "uint256",
							"name": "attack",
							"type": "uint256"
						},
						{
							"internalType": "uint256",
							"name": "defense",
							"type": "uint256"
						},
						{
							"internalType": "uint256",
							"name": "experience",
							"type": "uint256"
						},
						{
							"internalType": "uint256",
							"name": "luck",
							"type": "uint256"
						},
						{
							"internalType": "string",
							"name": "city",
							"type": "string"
						},
						{
							"internalType": "string",
							"name": "country",
							"type": "string"
						},
						{
							"internalType": "string",
							"name": "name",
							"type": "string"
						},
						{
							"internalType": "string",
							"name": "extraField1",
							"type": "string"
						},
						{
							"internalType": "string",
							"name": "extraField2",
							"type": "string"
						}
					],
					"stateMutability": "view",
					"type": "function"
				}
			],
			"devdoc": {
				"kind": "dev",
				"methods": {},
				"version": 1
			},
			"evm": {
				"assembly": "    /* \"trustless cross-chain/merkle proof/test222.sol\":25:1100  contract SimpleNFT {... */\n  mstore(0x40, 0x80)\n  callvalue\n  dup1\n  iszero\n  tag_1\n  jumpi\n  0x00\n  dup1\n  revert\ntag_1:\n  pop\n  dataSize(sub_0)\n  dup1\n  dataOffset(sub_0)\n  0x00\n  codecopy\n  0x00\n  return\nstop\n\nsub_0: assembly {\n        /* \"trustless cross-chain/merkle proof/test222.sol\":25:1100  contract SimpleNFT {... */\n      mstore(0x40, 0x80)\n      callvalue\n      dup1\n      iszero\n      tag_1\n      jumpi\n      0x00\n      dup1\n      revert\n    tag_1:\n      pop\n      jumpi(tag_2, lt(calldatasize, 0x04))\n      shr(0xe0, calldataload(0x00))\n      dup1\n      0x161a6c1e\n      eq\n      tag_3\n      jumpi\n      dup1\n      0xe69f34b0\n      eq\n      tag_4\n      jumpi\n      dup1\n      0xf8c9e72c\n      eq\n      tag_5\n      jumpi\n    tag_2:\n      0x00\n      dup1\n      revert\n        /* \"trustless cross-chain/merkle proof/test222.sol\":996:1098  function getNFT(address owner) public view returns (NFT memory) {... */\n    tag_3:\n      tag_6\n      0x04\n      dup1\n      calldatasize\n      sub\n      dup2\n      add\n      swap1\n      tag_7\n      swap2\n      swap1\n      tag_8\n      jump\t// in\n    tag_7:\n      tag_9\n      jump\t// in\n    tag_6:\n      mload(0x40)\n      tag_10\n      swap2\n      swap1\n      tag_11\n      jump\t// in\n    tag_10:\n      mload(0x40)\n      dup1\n      swap2\n      sub\n      swap1\n      return\n        /* \"trustless cross-chain/merkle proof/test222.sol\":295:333  mapping(address => NFT) public nftData */\n    tag_4:\n      tag_12\n      0x04\n      dup1\n      calldatasize\n      sub\n      dup2\n      add\n      swap1\n      tag_13\n      swap2\n      swap1\n      tag_8\n      jump\t// in\n    tag_13:\n      tag_14\n      jump\t// in\n    tag_12:\n      mload(0x40)\n      tag_15\n      swap10\n      swap9\n      swap8\n      swap7\n      swap6\n      swap5\n      swap4\n      swap3\n      swap2\n      swap1\n      tag_16\n      jump\t// in\n    tag_15:\n      mload(0x40)\n      dup1\n      swap2\n      sub\n      swap1\n      return\n        /* \"trustless cross-chain/merkle proof/test222.sol\":340:991  function createNFT(... */\n    tag_5:\n      tag_17\n      0x04\n      dup1\n      calldatasize\n      sub\n      dup2\n      add\n      swap1\n      tag_18\n      swap2\n      swap1\n      tag_19\n      jump\t// in\n    tag_18:\n      tag_20\n      jump\t// in\n    tag_17:\n      stop\n        /* \"trustless cross-chain/merkle proof/test222.sol\":996:1098  function getNFT(address owner) public view returns (NFT memory) {... */\n    tag_9:\n        /* \"trustless cross-chain/merkle proof/test222.sol\":1048:1058  NFT memory */\n      tag_21\n      tag_22\n      jump\t// in\n    tag_21:\n        /* \"trustless cross-chain/merkle proof/test222.sol\":1077:1084  nftData */\n      0x00\n        /* \"trustless cross-chain/merkle proof/test222.sol\":1077:1091  nftData[owner] */\n      dup1\n        /* \"trustless cross-chain/merkle proof/test222.sol\":1085:1090  owner */\n      dup4\n        /* \"trustless cross-chain/merkle proof/test222.sol\":1077:1091  nftData[owner] */\n      0xffffffffffffffffffffffffffffffffffffffff\n      and\n      0xffffffffffffffffffffffffffffffffffffffff\n      and\n      dup2\n      mstore\n      0x20\n      add\n      swap1\n      dup2\n      mstore\n      0x20\n      add\n      0x00\n      keccak256\n        /* \"trustless cross-chain/merkle proof/test222.sol\":1070:1091  return nftData[owner] */\n      mload(0x40)\n      dup1\n      0x0120\n      add\n      0x40\n      mstore\n      swap1\n      dup2\n      0x00\n      dup3\n      add\n      sload\n      dup2\n      mstore\n      0x20\n      add\n      0x01\n      dup3\n      add\n      sload\n      dup2\n      mstore\n      0x20\n      add\n      0x02\n      dup3\n      add\n      sload\n      dup2\n      mstore\n      0x20\n      add\n      0x03\n      dup3\n      add\n      sload\n      dup2\n      mstore\n      0x20\n      add\n      0x04\n      dup3\n      add\n      dup1\n      sload\n      tag_24\n      swap1\n      tag_25\n      jump\t// in\n    tag_24:\n      dup1\n      0x1f\n      add\n      0x20\n      dup1\n      swap2\n      div\n      mul\n      0x20\n      add\n      mload(0x40)\n      swap1\n      dup2\n      add\n      0x40\n      mstore\n      dup1\n      swap3\n      swap2\n      swap1\n      dup2\n      dup2\n      mstore\n      0x20\n      add\n      dup3\n      dup1\n      sload\n      tag_26\n      swap1\n      tag_25\n      jump\t// in\n    tag_26:\n      dup1\n      iszero\n      tag_27\n      jumpi\n      dup1\n      0x1f\n      lt\n      tag_28\n      jumpi\n      0x0100\n      dup1\n      dup4\n      sload\n      div\n      mul\n      dup4\n      mstore\n      swap2\n      0x20\n      add\n      swap2\n      jump(tag_27)\n    tag_28:\n      dup3\n      add\n      swap2\n      swap1\n      0x00\n      mstore\n      keccak256(0x00, 0x20)\n      swap1\n    tag_29:\n      dup2\n      sload\n      dup2\n      mstore\n      swap1\n      0x01\n      add\n      swap1\n      0x20\n      add\n      dup1\n      dup4\n      gt\n      tag_29\n      jumpi\n      dup3\n      swap1\n      sub\n      0x1f\n      and\n      dup3\n      add\n      swap2\n    tag_27:\n      pop\n      pop\n      pop\n      pop\n      pop\n      dup2\n      mstore\n      0x20\n      add\n      0x05\n      dup3\n      add\n      dup1\n      sload\n      tag_30\n      swap1\n      tag_25\n      jump\t// in\n    tag_30:\n      dup1\n      0x1f\n      add\n      0x20\n      dup1\n      swap2\n      div\n      mul\n      0x20\n      add\n      mload(0x40)\n      swap1\n      dup2\n      add\n      0x40\n      mstore\n      dup1\n      swap3\n      swap2\n      swap1\n      dup2\n      dup2\n      mstore\n      0x20\n      add\n      dup3\n      dup1\n      sload\n      tag_31\n      swap1\n      tag_25\n      jump\t// in\n    tag_31:\n      dup1\n      iszero\n      tag_32\n      jumpi\n      dup1\n      0x1f\n      lt\n      tag_33\n      jumpi\n      0x0100\n      dup1\n      dup4\n      sload\n      div\n      mul\n      dup4\n      mstore\n      swap2\n      0x20\n      add\n      swap2\n      jump(tag_32)\n    tag_33:\n      dup3\n      add\n      swap2\n      swap1\n      0x00\n      mstore\n      keccak256(0x00, 0x20)\n      swap1\n    tag_34:\n      dup2\n      sload\n      dup2\n      mstore\n      swap1\n      0x01\n      add\n      swap1\n      0x20\n      add\n      dup1\n      dup4\n      gt\n      tag_34\n      jumpi\n      dup3\n      swap1\n      sub\n      0x1f\n      and\n      dup3\n      add\n      swap2\n    tag_32:\n      pop\n      pop\n      pop\n      pop\n      pop\n      dup2\n      mstore\n      0x20\n      add\n      0x06\n      dup3\n      add\n      dup1\n      sload\n      tag_35\n      swap1\n      tag_25\n      jump\t// in\n    tag_35:\n      dup1\n      0x1f\n      add\n      0x20\n      dup1\n      swap2\n      div\n      mul\n      0x20\n      add\n      mload(0x40)\n      swap1\n      dup2\n      add\n      0x40\n      mstore\n      dup1\n      swap3\n      swap2\n      swap1\n      dup2\n      dup2\n      mstore\n      0x20\n      add\n      dup3\n      dup1\n      sload\n      tag_36\n      swap1\n      tag_25\n      jump\t// in\n    tag_36:\n      dup1\n      iszero\n      tag_37\n      jumpi\n      dup1\n      0x1f\n      lt\n      tag_38\n      jumpi\n      0x0100\n      dup1\n      dup4\n      sload\n      div\n      mul\n      dup4\n      mstore\n      swap2\n      0x20\n      add\n      swap2\n      jump(tag_37)\n    tag_38:\n      dup3\n      add\n      swap2\n      swap1\n      0x00\n      mstore\n      keccak256(0x00, 0x20)\n      swap1\n    tag_39:\n      dup2\n      sload\n      dup2\n      mstore\n      swap1\n      0x01\n      add\n      swap1\n      0x20\n      add\n      dup1\n      dup4\n      gt\n      tag_39\n      jumpi\n      dup3\n      swap1\n      sub\n      0x1f\n      and\n      dup3\n      add\n      swap2\n    tag_37:\n      pop\n      pop\n      pop\n      pop\n      pop\n      dup2\n      mstore\n      0x20\n      add\n      0x07\n      dup3\n      add\n      dup1\n      sload\n      tag_40\n      swap1\n      tag_25\n      jump\t// in\n    tag_40:\n      dup1\n      0x1f\n      add\n      0x20\n      dup1\n      swap2\n      div\n      mul\n      0x20\n      add\n      mload(0x40)\n      swap1\n      dup2\n      add\n      0x40\n      mstore\n      dup1\n      swap3\n      swap2\n      swap1\n      dup2\n      dup2\n      mstore\n      0x20\n      add\n      dup3\n      dup1\n      sload\n      tag_41\n      swap1\n      tag_25\n      jump\t// in\n    tag_41:\n      dup1\n      iszero\n      tag_42\n      jumpi\n      dup1\n      0x1f\n      lt\n      tag_43\n      jumpi\n      0x0100\n      dup1\n      dup4\n      sload\n      div\n      mul\n      dup4\n      mstore\n      swap2\n      0x20\n      add\n      swap2\n      jump(tag_42)\n    tag_43:\n      dup3\n      add\n      swap2\n      swap1\n      0x00\n      mstore\n      keccak256(0x00, 0x20)\n      swap1\n    tag_44:\n      dup2\n      sload\n      dup2\n      mstore\n      swap1\n      0x01\n      add\n      swap1\n      0x20\n      add\n      dup1\n      dup4\n      gt\n      tag_44\n      jumpi\n      dup3\n      swap1\n      sub\n      0x1f\n      and\n      dup3\n      add\n      swap2\n    tag_42:\n      pop\n      pop\n      pop\n      pop\n      pop\n      dup2\n      mstore\n      0x20\n      add\n      0x08\n      dup3\n      add\n      dup1\n      sload\n      tag_45\n      swap1\n      tag_25\n      jump\t// in\n    tag_45:\n      dup1\n      0x1f\n      add\n      0x20\n      dup1\n      swap2\n      div\n      mul\n      0x20\n      add\n      mload(0x40)\n      swap1\n      dup2\n      add\n      0x40\n      mstore\n      dup1\n      swap3\n      swap2\n      swap1\n      dup2\n      dup2\n      mstore\n      0x20\n      add\n      dup3\n      dup1\n      sload\n      tag_46\n      swap1\n      tag_25\n      jump\t// in\n    tag_46:\n      dup1\n      iszero\n      tag_47\n      jumpi\n      dup1\n      0x1f\n      lt\n      tag_48\n      jumpi\n      0x0100\n      dup1\n      dup4\n      sload\n      div\n      mul\n      dup4\n      mstore\n      swap2\n      0x20\n      add\n      swap2\n      jump(tag_47)\n    tag_48:\n      dup3\n      add\n      swap2\n      swap1\n      0x00\n      mstore\n      keccak256(0x00, 0x20)\n      swap1\n    tag_49:\n      dup2\n      sload\n      dup2\n      mstore\n      swap1\n      0x01\n      add\n      swap1\n      0x20\n      add\n      dup1\n      dup4\n      gt\n      tag_49\n      jumpi\n      dup3\n      swap1\n      sub\n      0x1f\n      and\n      dup3\n      add\n      swap2\n    tag_47:\n      pop\n      pop\n      pop\n      pop\n      pop\n      dup2\n      mstore\n      pop\n      pop\n      swap1\n      pop\n        /* \"trustless cross-chain/merkle proof/test222.sol\":996:1098  function getNFT(address owner) public view returns (NFT memory) {... */\n      swap2\n      swap1\n      pop\n      jump\t// out\n        /* \"trustless cross-chain/merkle proof/test222.sol\":295:333  mapping(address => NFT) public nftData */\n    tag_14:\n      mstore(0x20, 0x00)\n      dup1\n      0x00\n      mstore\n      keccak256(0x00, 0x40)\n      0x00\n      swap2\n      pop\n      swap1\n      pop\n      dup1\n      0x00\n      add\n      sload\n      swap1\n      dup1\n      0x01\n      add\n      sload\n      swap1\n      dup1\n      0x02\n      add\n      sload\n      swap1\n      dup1\n      0x03\n      add\n      sload\n      swap1\n      dup1\n      0x04\n      add\n      dup1\n      sload\n      tag_50\n      swap1\n      tag_25\n      jump\t// in\n    tag_50:\n      dup1\n      0x1f\n      add\n      0x20\n      dup1\n      swap2\n      div\n      mul\n      0x20\n      add\n      mload(0x40)\n      swap1\n      dup2\n      add\n      0x40\n      mstore\n      dup1\n      swap3\n      swap2\n      swap1\n      dup2\n      dup2\n      mstore\n      0x20\n      add\n      dup3\n      dup1\n      sload\n      tag_51\n      swap1\n      tag_25\n      jump\t// in\n    tag_51:\n      dup1\n      iszero\n      tag_52\n      jumpi\n      dup1\n      0x1f\n      lt\n      tag_53\n      jumpi\n      0x0100\n      dup1\n      dup4\n      sload\n      div\n      mul\n      dup4\n      mstore\n      swap2\n      0x20\n      add\n      swap2\n      jump(tag_52)\n    tag_53:\n      dup3\n      add\n      swap2\n      swap1\n      0x00\n      mstore\n      keccak256(0x00, 0x20)\n      swap1\n    tag_54:\n      dup2\n      sload\n      dup2\n      mstore\n      swap1\n      0x01\n      add\n      swap1\n      0x20\n      add\n      dup1\n      dup4\n      gt\n      tag_54\n      jumpi\n      dup3\n      swap1\n      sub\n      0x1f\n      and\n      dup3\n      add\n      swap2\n    tag_52:\n      pop\n      pop\n      pop\n      pop\n      pop\n      swap1\n      dup1\n      0x05\n      add\n      dup1\n      sload\n      tag_55\n      swap1\n      tag_25\n      jump\t// in\n    tag_55:\n      dup1\n      0x1f\n      add\n      0x20\n      dup1\n      swap2\n      div\n      mul\n      0x20\n      add\n      mload(0x40)\n      swap1\n      dup2\n      add\n      0x40\n      mstore\n      dup1\n      swap3\n      swap2\n      swap1\n      dup2\n      dup2\n      mstore\n      0x20\n      add\n      dup3\n      dup1\n      sload\n      tag_56\n      swap1\n      tag_25\n      jump\t// in\n    tag_56:\n      dup1\n      iszero\n      tag_57\n      jumpi\n      dup1\n      0x1f\n      lt\n      tag_58\n      jumpi\n      0x0100\n      dup1\n      dup4\n      sload\n      div\n      mul\n      dup4\n      mstore\n      swap2\n      0x20\n      add\n      swap2\n      jump(tag_57)\n    tag_58:\n      dup3\n      add\n      swap2\n      swap1\n      0x00\n      mstore\n      keccak256(0x00, 0x20)\n      swap1\n    tag_59:\n      dup2\n      sload\n      dup2\n      mstore\n      swap1\n      0x01\n      add\n      swap1\n      0x20\n      add\n      dup1\n      dup4\n      gt\n      tag_59\n      jumpi\n      dup3\n      swap1\n      sub\n      0x1f\n      and\n      dup3\n      add\n      swap2\n    tag_57:\n      pop\n      pop\n      pop\n      pop\n      pop\n      swap1\n      dup1\n      0x06\n      add\n      dup1\n      sload\n      tag_60\n      swap1\n      tag_25\n      jump\t// in\n    tag_60:\n      dup1\n      0x1f\n      add\n      0x20\n      dup1\n      swap2\n      div\n      mul\n      0x20\n      add\n      mload(0x40)\n      swap1\n      dup2\n      add\n      0x40\n      mstore\n      dup1\n      swap3\n      swap2\n      swap1\n      dup2\n      dup2\n      mstore\n      0x20\n      add\n      dup3\n      dup1\n      sload\n      tag_61\n      swap1\n      tag_25\n      jump\t// in\n    tag_61:\n      dup1\n      iszero\n      tag_62\n      jumpi\n      dup1\n      0x1f\n      lt\n      tag_63\n      jumpi\n      0x0100\n      dup1\n      dup4\n      sload\n      div\n      mul\n      dup4\n      mstore\n      swap2\n      0x20\n      add\n      swap2\n      jump(tag_62)\n    tag_63:\n      dup3\n      add\n      swap2\n      swap1\n      0x00\n      mstore\n      keccak256(0x00, 0x20)\n      swap1\n    tag_64:\n      dup2\n      sload\n      dup2\n      mstore\n      swap1\n      0x01\n      add\n      swap1\n      0x20\n      add\n      dup1\n      dup4\n      gt\n      tag_64\n      jumpi\n      dup3\n      swap1\n      sub\n      0x1f\n      and\n      dup3\n      add\n      swap2\n    tag_62:\n      pop\n      pop\n      pop\n      pop\n      pop\n      swap1\n      dup1\n      0x07\n      add\n      dup1\n      sload\n      tag_65\n      swap1\n      tag_25\n      jump\t// in\n    tag_65:\n      dup1\n      0x1f\n      add\n      0x20\n      dup1\n      swap2\n      div\n      mul\n      0x20\n      add\n      mload(0x40)\n      swap1\n      dup2\n      add\n      0x40\n      mstore\n      dup1\n      swap3\n      swap2\n      swap1\n      dup2\n      dup2\n      mstore\n      0x20\n      add\n      dup3\n      dup1\n      sload\n      tag_66\n      swap1\n      tag_25\n      jump\t// in\n    tag_66:\n      dup1\n      iszero\n      tag_67\n      jumpi\n      dup1\n      0x1f\n      lt\n      tag_68\n      jumpi\n      0x0100\n      dup1\n      dup4\n      sload\n      div\n      mul\n      dup4\n      mstore\n      swap2\n      0x20\n      add\n      swap2\n      jump(tag_67)\n    tag_68:\n      dup3\n      add\n      swap2\n      swap1\n      0x00\n      mstore\n      keccak256(0x00, 0x20)\n      swap1\n    tag_69:\n      dup2\n      sload\n      dup2\n      mstore\n      swap1\n      0x01\n      add\n      swap1\n      0x20\n      add\n      dup1\n      dup4\n      gt\n      tag_69\n      jumpi\n      dup3\n      swap1\n      sub\n      0x1f\n      and\n      dup3\n      add\n      swap2\n    tag_67:\n      pop\n      pop\n      pop\n      pop\n      pop\n      swap1\n      dup1\n      0x08\n      add\n      dup1\n      sload\n      tag_70\n      swap1\n      tag_25\n      jump\t// in\n    tag_70:\n      dup1\n      0x1f\n      add\n      0x20\n      dup1\n      swap2\n      div\n      mul\n      0x20\n      add\n      mload(0x40)\n      swap1\n      dup2\n      add\n      0x40\n      mstore\n      dup1\n      swap3\n      swap2\n      swap1\n      dup2\n      dup2\n      mstore\n      0x20\n      add\n      dup3\n      dup1\n      sload\n      tag_71\n      swap1\n      tag_25\n      jump\t// in\n    tag_71:\n      dup1\n      iszero\n      tag_72\n      jumpi\n      dup1\n      0x1f\n      lt\n      tag_73\n      jumpi\n      0x0100\n      dup1\n      dup4\n      sload\n      div\n      mul\n      dup4\n      mstore\n      swap2\n      0x20\n      add\n      swap2\n      jump(tag_72)\n    tag_73:\n      dup3\n      add\n      swap2\n      swap1\n      0x00\n      mstore\n      keccak256(0x00, 0x20)\n      swap1\n    tag_74:\n      dup2\n      sload\n      dup2\n      mstore\n      swap1\n      0x01\n      add\n      swap1\n      0x20\n      add\n      dup1\n      dup4\n      gt\n      tag_74\n      jumpi\n      dup3\n      swap1\n      sub\n      0x1f\n      and\n      dup3\n      add\n      swap2\n    tag_72:\n      pop\n      pop\n      pop\n      pop\n      pop\n      swap1\n      pop\n      dup10\n      jump\t// out\n        /* \"trustless cross-chain/merkle proof/test222.sol\":340:991  function createNFT(... */\n    tag_20:\n        /* \"trustless cross-chain/merkle proof/test222.sol\":638:655  NFT memory newNFT */\n      0x00\n        /* \"trustless cross-chain/merkle proof/test222.sol\":658:945  NFT({... */\n      mload(0x40)\n      dup1\n      0x0120\n      add\n      0x40\n      mstore\n      dup1\n        /* \"trustless cross-chain/merkle proof/test222.sol\":684:690  attack */\n      dup12\n        /* \"trustless cross-chain/merkle proof/test222.sol\":658:945  NFT({... */\n      dup2\n      mstore\n      0x20\n      add\n        /* \"trustless cross-chain/merkle proof/test222.sol\":713:720  defense */\n      dup11\n        /* \"trustless cross-chain/merkle proof/test222.sol\":658:945  NFT({... */\n      dup2\n      mstore\n      0x20\n      add\n        /* \"trustless cross-chain/merkle proof/test222.sol\":746:756  experience */\n      dup10\n        /* \"trustless cross-chain/merkle proof/test222.sol\":658:945  NFT({... */\n      dup2\n      mstore\n      0x20\n      add\n        /* \"trustless cross-chain/merkle proof/test222.sol\":776:780  luck */\n      dup9\n        /* \"trustless cross-chain/merkle proof/test222.sol\":658:945  NFT({... */\n      dup2\n      mstore\n      0x20\n      add\n        /* \"trustless cross-chain/merkle proof/test222.sol\":800:804  city */\n      dup8\n        /* \"trustless cross-chain/merkle proof/test222.sol\":658:945  NFT({... */\n      dup2\n      mstore\n      0x20\n      add\n        /* \"trustless cross-chain/merkle proof/test222.sol\":827:834  country */\n      dup7\n        /* \"trustless cross-chain/merkle proof/test222.sol\":658:945  NFT({... */\n      dup2\n      mstore\n      0x20\n      add\n        /* \"trustless cross-chain/merkle proof/test222.sol\":854:858  name */\n      dup6\n        /* \"trustless cross-chain/merkle proof/test222.sol\":658:945  NFT({... */\n      dup2\n      mstore\n      0x20\n      add\n        /* \"trustless cross-chain/merkle proof/test222.sol\":885:896  extraField1 */\n      dup5\n        /* \"trustless cross-chain/merkle proof/test222.sol\":658:945  NFT({... */\n      dup2\n      mstore\n      0x20\n      add\n        /* \"trustless cross-chain/merkle proof/test222.sol\":923:934  extraField2 */\n      dup4\n        /* \"trustless cross-chain/merkle proof/test222.sol\":658:945  NFT({... */\n      dup2\n      mstore\n      pop\n        /* \"trustless cross-chain/merkle proof/test222.sol\":638:945  NFT memory newNFT = NFT({... */\n      swap1\n      pop\n        /* \"trustless cross-chain/merkle proof/test222.sol\":978:984  newNFT */\n      dup1\n        /* \"trustless cross-chain/merkle proof/test222.sol\":956:963  nftData */\n      0x00\n        /* \"trustless cross-chain/merkle proof/test222.sol\":956:975  nftData[msg.sender] */\n      dup1\n        /* \"trustless cross-chain/merkle proof/test222.sol\":964:974  msg.sender */\n      caller\n        /* \"trustless cross-chain/merkle proof/test222.sol\":956:975  nftData[msg.sender] */\n      0xffffffffffffffffffffffffffffffffffffffff\n      and\n      0xffffffffffffffffffffffffffffffffffffffff\n      and\n      dup2\n      mstore\n      0x20\n      add\n      swap1\n      dup2\n      mstore\n      0x20\n      add\n      0x00\n      keccak256\n        /* \"trustless cross-chain/merkle proof/test222.sol\":956:984  nftData[msg.sender] = newNFT */\n      0x00\n      dup3\n      add\n      mload\n      dup2\n      0x00\n      add\n      sstore\n      0x20\n      dup3\n      add\n      mload\n      dup2\n      0x01\n      add\n      sstore\n      0x40\n      dup3\n      add\n      mload\n      dup2\n      0x02\n      add\n      sstore\n      0x60\n      dup3\n      add\n      mload\n      dup2\n      0x03\n      add\n      sstore\n      0x80\n      dup3\n      add\n      mload\n      dup2\n      0x04\n      add\n      swap1\n      dup2\n      tag_76\n      swap2\n      swap1\n      tag_77\n      jump\t// in\n    tag_76:\n      pop\n      0xa0\n      dup3\n      add\n      mload\n      dup2\n      0x05\n      add\n      swap1\n      dup2\n      tag_78\n      swap2\n      swap1\n      tag_77\n      jump\t// in\n    tag_78:\n      pop\n      0xc0\n      dup3\n      add\n      mload\n      dup2\n      0x06\n      add\n      swap1\n      dup2\n      tag_79\n      swap2\n      swap1\n      tag_77\n      jump\t// in\n    tag_79:\n      pop\n      0xe0\n      dup3\n      add\n      mload\n      dup2\n      0x07\n      add\n      swap1\n      dup2\n      tag_80\n      swap2\n      swap1\n      tag_77\n      jump\t// in\n    tag_80:\n      pop\n      0x0100\n      dup3\n      add\n      mload\n      dup2\n      0x08\n      add\n      swap1\n      dup2\n      tag_81\n      swap2\n      swap1\n      tag_77\n      jump\t// in\n    tag_81:\n      pop\n      swap1\n      pop\n      pop\n        /* \"trustless cross-chain/merkle proof/test222.sol\":628:991  {... */\n      pop\n        /* \"trustless cross-chain/merkle proof/test222.sol\":340:991  function createNFT(... */\n      pop\n      pop\n      pop\n      pop\n      pop\n      pop\n      pop\n      pop\n      pop\n      jump\t// out\n    tag_22:\n      mload(0x40)\n      dup1\n      0x0120\n      add\n      0x40\n      mstore\n      dup1\n      0x00\n      dup2\n      mstore\n      0x20\n      add\n      0x00\n      dup2\n      mstore\n      0x20\n      add\n      0x00\n      dup2\n      mstore\n      0x20\n      add\n      0x00\n      dup2\n      mstore\n      0x20\n      add\n      0x60\n      dup2\n      mstore\n      0x20\n      add\n      0x60\n      dup2\n      mstore\n      0x20\n      add\n      0x60\n      dup2\n      mstore\n      0x20\n      add\n      0x60\n      dup2\n      mstore\n      0x20\n      add\n      0x60\n      dup2\n      mstore\n      pop\n      swap1\n      jump\t// out\n        /* \"#utility.yul\":7:82   */\n    tag_82:\n        /* \"#utility.yul\":40:46   */\n      0x00\n        /* \"#utility.yul\":73:75   */\n      0x40\n        /* \"#utility.yul\":67:76   */\n      mload\n        /* \"#utility.yul\":57:76   */\n      swap1\n      pop\n        /* \"#utility.yul\":7:82   */\n      swap1\n      jump\t// out\n        /* \"#utility.yul\":88:205   */\n    tag_83:\n        /* \"#utility.yul\":197:198   */\n      0x00\n        /* \"#utility.yul\":194:195   */\n      dup1\n        /* \"#utility.yul\":187:199   */\n      revert\n        /* \"#utility.yul\":211:328   */\n    tag_84:\n        /* \"#utility.yul\":320:321   */\n      0x00\n        /* \"#utility.yul\":317:318   */\n      dup1\n        /* \"#utility.yul\":310:322   */\n      revert\n        /* \"#utility.yul\":334:460   */\n    tag_85:\n        /* \"#utility.yul\":371:378   */\n      0x00\n        /* \"#utility.yul\":411:453   */\n      0xffffffffffffffffffffffffffffffffffffffff\n        /* \"#utility.yul\":404:409   */\n      dup3\n        /* \"#utility.yul\":400:454   */\n      and\n        /* \"#utility.yul\":389:454   */\n      swap1\n      pop\n        /* \"#utility.yul\":334:460   */\n      swap2\n      swap1\n      pop\n      jump\t// out\n        /* \"#utility.yul\":466:562   */\n    tag_86:\n        /* \"#utility.yul\":503:510   */\n      0x00\n        /* \"#utility.yul\":532:556   */\n      tag_133\n        /* \"#utility.yul\":550:555   */\n      dup3\n        /* \"#utility.yul\":532:556   */\n      tag_85\n      jump\t// in\n    tag_133:\n        /* \"#utility.yul\":521:556   */\n      swap1\n      pop\n        /* \"#utility.yul\":466:562   */\n      swap2\n      swap1\n      pop\n      jump\t// out\n        /* \"#utility.yul\":568:690   */\n    tag_87:\n        /* \"#utility.yul\":641:665   */\n      tag_135\n        /* \"#utility.yul\":659:664   */\n      dup2\n        /* \"#utility.yul\":641:665   */\n      tag_86\n      jump\t// in\n    tag_135:\n        /* \"#utility.yul\":634:639   */\n      dup2\n        /* \"#utility.yul\":631:666   */\n      eq\n        /* \"#utility.yul\":621:684   */\n      tag_136\n      jumpi\n        /* \"#utility.yul\":680:681   */\n      0x00\n        /* \"#utility.yul\":677:678   */\n      dup1\n        /* \"#utility.yul\":670:682   */\n      revert\n        /* \"#utility.yul\":621:684   */\n    tag_136:\n        /* \"#utility.yul\":568:690   */\n      pop\n      jump\t// out\n        /* \"#utility.yul\":696:835   */\n    tag_88:\n        /* \"#utility.yul\":742:747   */\n      0x00\n        /* \"#utility.yul\":780:786   */\n      dup2\n        /* \"#utility.yul\":767:787   */\n      calldataload\n        /* \"#utility.yul\":758:787   */\n      swap1\n      pop\n        /* \"#utility.yul\":796:829   */\n      tag_138\n        /* \"#utility.yul\":823:828   */\n      dup2\n        /* \"#utility.yul\":796:829   */\n      tag_87\n      jump\t// in\n    tag_138:\n        /* \"#utility.yul\":696:835   */\n      swap3\n      swap2\n      pop\n      pop\n      jump\t// out\n        /* \"#utility.yul\":841:1170   */\n    tag_8:\n        /* \"#utility.yul\":900:906   */\n      0x00\n        /* \"#utility.yul\":949:951   */\n      0x20\n        /* \"#utility.yul\":937:946   */\n      dup3\n        /* \"#utility.yul\":928:935   */\n      dup5\n        /* \"#utility.yul\":924:947   */\n      sub\n        /* \"#utility.yul\":920:952   */\n      slt\n        /* \"#utility.yul\":917:1036   */\n      iszero\n      tag_140\n      jumpi\n        /* \"#utility.yul\":955:1034   */\n      tag_141\n      tag_83\n      jump\t// in\n    tag_141:\n        /* \"#utility.yul\":917:1036   */\n    tag_140:\n        /* \"#utility.yul\":1075:1076   */\n      0x00\n        /* \"#utility.yul\":1100:1153   */\n      tag_142\n        /* \"#utility.yul\":1145:1152   */\n      dup5\n        /* \"#utility.yul\":1136:1142   */\n      dup3\n        /* \"#utility.yul\":1125:1134   */\n      dup6\n        /* \"#utility.yul\":1121:1143   */\n      add\n        /* \"#utility.yul\":1100:1153   */\n      tag_88\n      jump\t// in\n    tag_142:\n        /* \"#utility.yul\":1090:1153   */\n      swap2\n      pop\n        /* \"#utility.yul\":1046:1163   */\n      pop\n        /* \"#utility.yul\":841:1170   */\n      swap3\n      swap2\n      pop\n      pop\n      jump\t// out\n        /* \"#utility.yul\":1176:1253   */\n    tag_89:\n        /* \"#utility.yul\":1213:1220   */\n      0x00\n        /* \"#utility.yul\":1242:1247   */\n      dup2\n        /* \"#utility.yul\":1231:1247   */\n      swap1\n      pop\n        /* \"#utility.yul\":1176:1253   */\n      swap2\n      swap1\n      pop\n      jump\t// out\n        /* \"#utility.yul\":1259:1367   */\n    tag_90:\n        /* \"#utility.yul\":1336:1360   */\n      tag_145\n        /* \"#utility.yul\":1354:1359   */\n      dup2\n        /* \"#utility.yul\":1336:1360   */\n      tag_89\n      jump\t// in\n    tag_145:\n        /* \"#utility.yul\":1331:1334   */\n      dup3\n        /* \"#utility.yul\":1324:1361   */\n      mstore\n        /* \"#utility.yul\":1259:1367   */\n      pop\n      pop\n      jump\t// out\n        /* \"#utility.yul\":1373:1472   */\n    tag_91:\n        /* \"#utility.yul\":1425:1431   */\n      0x00\n        /* \"#utility.yul\":1459:1464   */\n      dup2\n        /* \"#utility.yul\":1453:1465   */\n      mload\n        /* \"#utility.yul\":1443:1465   */\n      swap1\n      pop\n        /* \"#utility.yul\":1373:1472   */\n      swap2\n      swap1\n      pop\n      jump\t// out\n        /* \"#utility.yul\":1478:1637   */\n    tag_92:\n        /* \"#utility.yul\":1552:1563   */\n      0x00\n        /* \"#utility.yul\":1586:1592   */\n      dup3\n        /* \"#utility.yul\":1581:1584   */\n      dup3\n        /* \"#utility.yul\":1574:1593   */\n      mstore\n        /* \"#utility.yul\":1626:1630   */\n      0x20\n        /* \"#utility.yul\":1621:1624   */\n      dup3\n        /* \"#utility.yul\":1617:1631   */\n      add\n        /* \"#utility.yul\":1602:1631   */\n      swap1\n      pop\n        /* \"#utility.yul\":1478:1637   */\n      swap3\n      swap2\n      pop\n      pop\n      jump\t// out\n        /* \"#utility.yul\":1643:1889   */\n    tag_93:\n        /* \"#utility.yul\":1724:1725   */\n      0x00\n        /* \"#utility.yul\":1734:1847   */\n    tag_149:\n        /* \"#utility.yul\":1748:1754   */\n      dup4\n        /* \"#utility.yul\":1745:1746   */\n      dup2\n        /* \"#utility.yul\":1742:1755   */\n      lt\n        /* \"#utility.yul\":1734:1847   */\n      iszero\n      tag_151\n      jumpi\n        /* \"#utility.yul\":1833:1834   */\n      dup1\n        /* \"#utility.yul\":1828:1831   */\n      dup3\n        /* \"#utility.yul\":1824:1835   */\n      add\n        /* \"#utility.yul\":1818:1836   */\n      mload\n        /* \"#utility.yul\":1814:1815   */\n      dup2\n        /* \"#utility.yul\":1809:1812   */\n      dup5\n        /* \"#utility.yul\":1805:1816   */\n      add\n        /* \"#utility.yul\":1798:1837   */\n      mstore\n        /* \"#utility.yul\":1770:1772   */\n      0x20\n        /* \"#utility.yul\":1767:1768   */\n      dup2\n        /* \"#utility.yul\":1763:1773   */\n      add\n        /* \"#utility.yul\":1758:1773   */\n      swap1\n      pop\n        /* \"#utility.yul\":1734:1847   */\n      jump(tag_149)\n    tag_151:\n        /* \"#utility.yul\":1881:1882   */\n      0x00\n        /* \"#utility.yul\":1872:1878   */\n      dup5\n        /* \"#utility.yul\":1867:1870   */\n      dup5\n        /* \"#utility.yul\":1863:1879   */\n      add\n        /* \"#utility.yul\":1856:1883   */\n      mstore\n        /* \"#utility.yul\":1705:1889   */\n      pop\n        /* \"#utility.yul\":1643:1889   */\n      pop\n      pop\n      pop\n      jump\t// out\n        /* \"#utility.yul\":1895:1997   */\n    tag_94:\n        /* \"#utility.yul\":1936:1942   */\n      0x00\n        /* \"#utility.yul\":1987:1989   */\n      0x1f\n        /* \"#utility.yul\":1983:1990   */\n      not\n        /* \"#utility.yul\":1978:1980   */\n      0x1f\n        /* \"#utility.yul\":1971:1976   */\n      dup4\n        /* \"#utility.yul\":1967:1981   */\n      add\n        /* \"#utility.yul\":1963:1991   */\n      and\n        /* \"#utility.yul\":1953:1991   */\n      swap1\n      pop\n        /* \"#utility.yul\":1895:1997   */\n      swap2\n      swap1\n      pop\n      jump\t// out\n        /* \"#utility.yul\":2003:2360   */\n    tag_95:\n        /* \"#utility.yul\":2081:2084   */\n      0x00\n        /* \"#utility.yul\":2109:2148   */\n      tag_154\n        /* \"#utility.yul\":2142:2147   */\n      dup3\n        /* \"#utility.yul\":2109:2148   */\n      tag_91\n      jump\t// in\n    tag_154:\n        /* \"#utility.yul\":2164:2225   */\n      tag_155\n        /* \"#utility.yul\":2218:2224   */\n      dup2\n        /* \"#utility.yul\":2213:2216   */\n      dup6\n        /* \"#utility.yul\":2164:2225   */\n      tag_92\n      jump\t// in\n    tag_155:\n        /* \"#utility.yul\":2157:2225   */\n      swap4\n      pop\n        /* \"#utility.yul\":2234:2299   */\n      tag_156\n        /* \"#utility.yul\":2292:2298   */\n      dup2\n        /* \"#utility.yul\":2287:2290   */\n      dup6\n        /* \"#utility.yul\":2280:2284   */\n      0x20\n        /* \"#utility.yul\":2273:2278   */\n      dup7\n        /* \"#utility.yul\":2269:2285   */\n      add\n        /* \"#utility.yul\":2234:2299   */\n      tag_93\n      jump\t// in\n    tag_156:\n        /* \"#utility.yul\":2324:2353   */\n      tag_157\n        /* \"#utility.yul\":2346:2352   */\n      dup2\n        /* \"#utility.yul\":2324:2353   */\n      tag_94\n      jump\t// in\n    tag_157:\n        /* \"#utility.yul\":2319:2322   */\n      dup5\n        /* \"#utility.yul\":2315:2354   */\n      add\n        /* \"#utility.yul\":2308:2354   */\n      swap2\n      pop\n        /* \"#utility.yul\":2085:2360   */\n      pop\n        /* \"#utility.yul\":2003:2360   */\n      swap3\n      swap2\n      pop\n      pop\n      jump\t// out\n        /* \"#utility.yul\":2418:4548   */\n    tag_96:\n        /* \"#utility.yul\":2525:2528   */\n      0x00\n        /* \"#utility.yul\":2561:2567   */\n      0x0120\n        /* \"#utility.yul\":2556:2559   */\n      dup4\n        /* \"#utility.yul\":2552:2568   */\n      add\n        /* \"#utility.yul\":2652:2656   */\n      0x00\n        /* \"#utility.yul\":2645:2650   */\n      dup4\n        /* \"#utility.yul\":2641:2657   */\n      add\n        /* \"#utility.yul\":2635:2658   */\n      mload\n        /* \"#utility.yul\":2671:2734   */\n      tag_159\n        /* \"#utility.yul\":2728:2732   */\n      0x00\n        /* \"#utility.yul\":2723:2726   */\n      dup7\n        /* \"#utility.yul\":2719:2733   */\n      add\n        /* \"#utility.yul\":2705:2717   */\n      dup3\n        /* \"#utility.yul\":2671:2734   */\n      tag_90\n      jump\t// in\n    tag_159:\n        /* \"#utility.yul\":2578:2744   */\n      pop\n        /* \"#utility.yul\":2829:2833   */\n      0x20\n        /* \"#utility.yul\":2822:2827   */\n      dup4\n        /* \"#utility.yul\":2818:2834   */\n      add\n        /* \"#utility.yul\":2812:2835   */\n      mload\n        /* \"#utility.yul\":2848:2911   */\n      tag_160\n        /* \"#utility.yul\":2905:2909   */\n      0x20\n        /* \"#utility.yul\":2900:2903   */\n      dup7\n        /* \"#utility.yul\":2896:2910   */\n      add\n        /* \"#utility.yul\":2882:2894   */\n      dup3\n        /* \"#utility.yul\":2848:2911   */\n      tag_90\n      jump\t// in\n    tag_160:\n        /* \"#utility.yul\":2754:2921   */\n      pop\n        /* \"#utility.yul\":3009:3013   */\n      0x40\n        /* \"#utility.yul\":3002:3007   */\n      dup4\n        /* \"#utility.yul\":2998:3014   */\n      add\n        /* \"#utility.yul\":2992:3015   */\n      mload\n        /* \"#utility.yul\":3028:3091   */\n      tag_161\n        /* \"#utility.yul\":3085:3089   */\n      0x40\n        /* \"#utility.yul\":3080:3083   */\n      dup7\n        /* \"#utility.yul\":3076:3090   */\n      add\n        /* \"#utility.yul\":3062:3074   */\n      dup3\n        /* \"#utility.yul\":3028:3091   */\n      tag_90\n      jump\t// in\n    tag_161:\n        /* \"#utility.yul\":2931:3101   */\n      pop\n        /* \"#utility.yul\":3183:3187   */\n      0x60\n        /* \"#utility.yul\":3176:3181   */\n      dup4\n        /* \"#utility.yul\":3172:3188   */\n      add\n        /* \"#utility.yul\":3166:3189   */\n      mload\n        /* \"#utility.yul\":3202:3265   */\n      tag_162\n        /* \"#utility.yul\":3259:3263   */\n      0x60\n        /* \"#utility.yul\":3254:3257   */\n      dup7\n        /* \"#utility.yul\":3250:3264   */\n      add\n        /* \"#utility.yul\":3236:3248   */\n      dup3\n        /* \"#utility.yul\":3202:3265   */\n      tag_90\n      jump\t// in\n    tag_162:\n        /* \"#utility.yul\":3111:3275   */\n      pop\n        /* \"#utility.yul\":3357:3361   */\n      0x80\n        /* \"#utility.yul\":3350:3355   */\n      dup4\n        /* \"#utility.yul\":3346:3362   */\n      add\n        /* \"#utility.yul\":3340:3363   */\n      mload\n        /* \"#utility.yul\":3410:3413   */\n      dup5\n        /* \"#utility.yul\":3404:3408   */\n      dup3\n        /* \"#utility.yul\":3400:3414   */\n      sub\n        /* \"#utility.yul\":3393:3397   */\n      0x80\n        /* \"#utility.yul\":3388:3391   */\n      dup7\n        /* \"#utility.yul\":3384:3398   */\n      add\n        /* \"#utility.yul\":3377:3415   */\n      mstore\n        /* \"#utility.yul\":3436:3509   */\n      tag_163\n        /* \"#utility.yul\":3504:3508   */\n      dup3\n        /* \"#utility.yul\":3490:3502   */\n      dup3\n        /* \"#utility.yul\":3436:3509   */\n      tag_95\n      jump\t// in\n    tag_163:\n        /* \"#utility.yul\":3428:3509   */\n      swap2\n      pop\n        /* \"#utility.yul\":3285:3520   */\n      pop\n        /* \"#utility.yul\":3605:3609   */\n      0xa0\n        /* \"#utility.yul\":3598:3603   */\n      dup4\n        /* \"#utility.yul\":3594:3610   */\n      add\n        /* \"#utility.yul\":3588:3611   */\n      mload\n        /* \"#utility.yul\":3658:3661   */\n      dup5\n        /* \"#utility.yul\":3652:3656   */\n      dup3\n        /* \"#utility.yul\":3648:3662   */\n      sub\n        /* \"#utility.yul\":3641:3645   */\n      0xa0\n        /* \"#utility.yul\":3636:3639   */\n      dup7\n        /* \"#utility.yul\":3632:3646   */\n      add\n        /* \"#utility.yul\":3625:3663   */\n      mstore\n        /* \"#utility.yul\":3684:3757   */\n      tag_164\n        /* \"#utility.yul\":3752:3756   */\n      dup3\n        /* \"#utility.yul\":3738:3750   */\n      dup3\n        /* \"#utility.yul\":3684:3757   */\n      tag_95\n      jump\t// in\n    tag_164:\n        /* \"#utility.yul\":3676:3757   */\n      swap2\n      pop\n        /* \"#utility.yul\":3530:3768   */\n      pop\n        /* \"#utility.yul\":3850:3854   */\n      0xc0\n        /* \"#utility.yul\":3843:3848   */\n      dup4\n        /* \"#utility.yul\":3839:3855   */\n      add\n        /* \"#utility.yul\":3833:3856   */\n      mload\n        /* \"#utility.yul\":3903:3906   */\n      dup5\n        /* \"#utility.yul\":3897:3901   */\n      dup3\n        /* \"#utility.yul\":3893:3907   */\n      sub\n        /* \"#utility.yul\":3886:3890   */\n      0xc0\n        /* \"#utility.yul\":3881:3884   */\n      dup7\n        /* \"#utility.yul\":3877:3891   */\n      add\n        /* \"#utility.yul\":3870:3908   */\n      mstore\n        /* \"#utility.yul\":3929:4002   */\n      tag_165\n        /* \"#utility.yul\":3997:4001   */\n      dup3\n        /* \"#utility.yul\":3983:3995   */\n      dup3\n        /* \"#utility.yul\":3929:4002   */\n      tag_95\n      jump\t// in\n    tag_165:\n        /* \"#utility.yul\":3921:4002   */\n      swap2\n      pop\n        /* \"#utility.yul\":3778:4013   */\n      pop\n        /* \"#utility.yul\":4102:4106   */\n      0xe0\n        /* \"#utility.yul\":4095:4100   */\n      dup4\n        /* \"#utility.yul\":4091:4107   */\n      add\n        /* \"#utility.yul\":4085:4108   */\n      mload\n        /* \"#utility.yul\":4155:4158   */\n      dup5\n        /* \"#utility.yul\":4149:4153   */\n      dup3\n        /* \"#utility.yul\":4145:4159   */\n      sub\n        /* \"#utility.yul\":4138:4142   */\n      0xe0\n        /* \"#utility.yul\":4133:4136   */\n      dup7\n        /* \"#utility.yul\":4129:4143   */\n      add\n        /* \"#utility.yul\":4122:4160   */\n      mstore\n        /* \"#utility.yul\":4181:4254   */\n      tag_166\n        /* \"#utility.yul\":4249:4253   */\n      dup3\n        /* \"#utility.yul\":4235:4247   */\n      dup3\n        /* \"#utility.yul\":4181:4254   */\n      tag_95\n      jump\t// in\n    tag_166:\n        /* \"#utility.yul\":4173:4254   */\n      swap2\n      pop\n        /* \"#utility.yul\":4023:4265   */\n      pop\n        /* \"#utility.yul\":4354:4360   */\n      0x0100\n        /* \"#utility.yul\":4347:4352   */\n      dup4\n        /* \"#utility.yul\":4343:4361   */\n      add\n        /* \"#utility.yul\":4337:4362   */\n      mload\n        /* \"#utility.yul\":4411:4414   */\n      dup5\n        /* \"#utility.yul\":4405:4409   */\n      dup3\n        /* \"#utility.yul\":4401:4415   */\n      sub\n        /* \"#utility.yul\":4392:4398   */\n      0x0100\n        /* \"#utility.yul\":4387:4390   */\n      dup7\n        /* \"#utility.yul\":4383:4399   */\n      add\n        /* \"#utility.yul\":4376:4416   */\n      mstore\n        /* \"#utility.yul\":4437:4510   */\n      tag_167\n        /* \"#utility.yul\":4505:4509   */\n      dup3\n        /* \"#utility.yul\":4491:4503   */\n      dup3\n        /* \"#utility.yul\":4437:4510   */\n      tag_95\n      jump\t// in\n    tag_167:\n        /* \"#utility.yul\":4429:4510   */\n      swap2\n      pop\n        /* \"#utility.yul\":4275:4521   */\n      pop\n        /* \"#utility.yul\":4538:4542   */\n      dup1\n        /* \"#utility.yul\":4531:4542   */\n      swap2\n      pop\n        /* \"#utility.yul\":2530:4548   */\n      pop\n        /* \"#utility.yul\":2418:4548   */\n      swap3\n      swap2\n      pop\n      pop\n      jump\t// out\n        /* \"#utility.yul\":4554:4903   */\n    tag_11:\n        /* \"#utility.yul\":4685:4689   */\n      0x00\n        /* \"#utility.yul\":4723:4725   */\n      0x20\n        /* \"#utility.yul\":4712:4721   */\n      dup3\n        /* \"#utility.yul\":4708:4726   */\n      add\n        /* \"#utility.yul\":4700:4726   */\n      swap1\n      pop\n        /* \"#utility.yul\":4772:4781   */\n      dup2\n        /* \"#utility.yul\":4766:4770   */\n      dup2\n        /* \"#utility.yul\":4762:4782   */\n      sub\n        /* \"#utility.yul\":4758:4759   */\n      0x00\n        /* \"#utility.yul\":4747:4756   */\n      dup4\n        /* \"#utility.yul\":4743:4760   */\n      add\n        /* \"#utility.yul\":4736:4783   */\n      mstore\n        /* \"#utility.yul\":4800:4896   */\n      tag_169\n        /* \"#utility.yul\":4891:4895   */\n      dup2\n        /* \"#utility.yul\":4882:4888   */\n      dup5\n        /* \"#utility.yul\":4800:4896   */\n      tag_96\n      jump\t// in\n    tag_169:\n        /* \"#utility.yul\":4792:4896   */\n      swap1\n      pop\n        /* \"#utility.yul\":4554:4903   */\n      swap3\n      swap2\n      pop\n      pop\n      jump\t// out\n        /* \"#utility.yul\":4909:5027   */\n    tag_97:\n        /* \"#utility.yul\":4996:5020   */\n      tag_171\n        /* \"#utility.yul\":5014:5019   */\n      dup2\n        /* \"#utility.yul\":4996:5020   */\n      tag_89\n      jump\t// in\n    tag_171:\n        /* \"#utility.yul\":4991:4994   */\n      dup3\n        /* \"#utility.yul\":4984:5021   */\n      mstore\n        /* \"#utility.yul\":4909:5027   */\n      pop\n      pop\n      jump\t// out\n        /* \"#utility.yul\":5033:5202   */\n    tag_98:\n        /* \"#utility.yul\":5117:5128   */\n      0x00\n        /* \"#utility.yul\":5151:5157   */\n      dup3\n        /* \"#utility.yul\":5146:5149   */\n      dup3\n        /* \"#utility.yul\":5139:5158   */\n      mstore\n        /* \"#utility.yul\":5191:5195   */\n      0x20\n        /* \"#utility.yul\":5186:5189   */\n      dup3\n        /* \"#utility.yul\":5182:5196   */\n      add\n        /* \"#utility.yul\":5167:5196   */\n      swap1\n      pop\n        /* \"#utility.yul\":5033:5202   */\n      swap3\n      swap2\n      pop\n      pop\n      jump\t// out\n        /* \"#utility.yul\":5208:5585   */\n    tag_99:\n        /* \"#utility.yul\":5296:5299   */\n      0x00\n        /* \"#utility.yul\":5324:5363   */\n      tag_174\n        /* \"#utility.yul\":5357:5362   */\n      dup3\n        /* \"#utility.yul\":5324:5363   */\n      tag_91\n      jump\t// in\n    tag_174:\n        /* \"#utility.yul\":5379:5450   */\n      tag_175\n        /* \"#utility.yul\":5443:5449   */\n      dup2\n        /* \"#utility.yul\":5438:5441   */\n      dup6\n        /* \"#utility.yul\":5379:5450   */\n      tag_98\n      jump\t// in\n    tag_175:\n        /* \"#utility.yul\":5372:5450   */\n      swap4\n      pop\n        /* \"#utility.yul\":5459:5524   */\n      tag_176\n        /* \"#utility.yul\":5517:5523   */\n      dup2\n        /* \"#utility.yul\":5512:5515   */\n      dup6\n        /* \"#utility.yul\":5505:5509   */\n      0x20\n        /* \"#utility.yul\":5498:5503   */\n      dup7\n        /* \"#utility.yul\":5494:5510   */\n      add\n        /* \"#utility.yul\":5459:5524   */\n      tag_93\n      jump\t// in\n    tag_176:\n        /* \"#utility.yul\":5549:5578   */\n      tag_177\n        /* \"#utility.yul\":5571:5577   */\n      dup2\n        /* \"#utility.yul\":5549:5578   */\n      tag_94\n      jump\t// in\n    tag_177:\n        /* \"#utility.yul\":5544:5547   */\n      dup5\n        /* \"#utility.yul\":5540:5579   */\n      add\n        /* \"#utility.yul\":5533:5579   */\n      swap2\n      pop\n        /* \"#utility.yul\":5300:5585   */\n      pop\n        /* \"#utility.yul\":5208:5585   */\n      swap3\n      swap2\n      pop\n      pop\n      jump\t// out\n        /* \"#utility.yul\":5591:7154   */\n    tag_16:\n        /* \"#utility.yul\":6008:6012   */\n      0x00\n        /* \"#utility.yul\":6046:6049   */\n      0x0120\n        /* \"#utility.yul\":6035:6044   */\n      dup3\n        /* \"#utility.yul\":6031:6050   */\n      add\n        /* \"#utility.yul\":6023:6050   */\n      swap1\n      pop\n        /* \"#utility.yul\":6060:6131   */\n      tag_179\n        /* \"#utility.yul\":6128:6129   */\n      0x00\n        /* \"#utility.yul\":6117:6126   */\n      dup4\n        /* \"#utility.yul\":6113:6130   */\n      add\n        /* \"#utility.yul\":6104:6110   */\n      dup13\n        /* \"#utility.yul\":6060:6131   */\n      tag_97\n      jump\t// in\n    tag_179:\n        /* \"#utility.yul\":6141:6213   */\n      tag_180\n        /* \"#utility.yul\":6209:6211   */\n      0x20\n        /* \"#utility.yul\":6198:6207   */\n      dup4\n        /* \"#utility.yul\":6194:6212   */\n      add\n        /* \"#utility.yul\":6185:6191   */\n      dup12\n        /* \"#utility.yul\":6141:6213   */\n      tag_97\n      jump\t// in\n    tag_180:\n        /* \"#utility.yul\":6223:6295   */\n      tag_181\n        /* \"#utility.yul\":6291:6293   */\n      0x40\n        /* \"#utility.yul\":6280:6289   */\n      dup4\n        /* \"#utility.yul\":6276:6294   */\n      add\n        /* \"#utility.yul\":6267:6273   */\n      dup11\n        /* \"#utility.yul\":6223:6295   */\n      tag_97\n      jump\t// in\n    tag_181:\n        /* \"#utility.yul\":6305:6377   */\n      tag_182\n        /* \"#utility.yul\":6373:6375   */\n      0x60\n        /* \"#utility.yul\":6362:6371   */\n      dup4\n        /* \"#utility.yul\":6358:6376   */\n      add\n        /* \"#utility.yul\":6349:6355   */\n      dup10\n        /* \"#utility.yul\":6305:6377   */\n      tag_97\n      jump\t// in\n    tag_182:\n        /* \"#utility.yul\":6425:6434   */\n      dup2\n        /* \"#utility.yul\":6419:6423   */\n      dup2\n        /* \"#utility.yul\":6415:6435   */\n      sub\n        /* \"#utility.yul\":6409:6412   */\n      0x80\n        /* \"#utility.yul\":6398:6407   */\n      dup4\n        /* \"#utility.yul\":6394:6413   */\n      add\n        /* \"#utility.yul\":6387:6436   */\n      mstore\n        /* \"#utility.yul\":6453:6531   */\n      tag_183\n        /* \"#utility.yul\":6526:6530   */\n      dup2\n        /* \"#utility.yul\":6517:6523   */\n      dup9\n        /* \"#utility.yul\":6453:6531   */\n      tag_99\n      jump\t// in\n    tag_183:\n        /* \"#utility.yul\":6445:6531   */\n      swap1\n      pop\n        /* \"#utility.yul\":6579:6588   */\n      dup2\n        /* \"#utility.yul\":6573:6577   */\n      dup2\n        /* \"#utility.yul\":6569:6589   */\n      sub\n        /* \"#utility.yul\":6563:6566   */\n      0xa0\n        /* \"#utility.yul\":6552:6561   */\n      dup4\n        /* \"#utility.yul\":6548:6567   */\n      add\n        /* \"#utility.yul\":6541:6590   */\n      mstore\n        /* \"#utility.yul\":6607:6685   */\n      tag_184\n        /* \"#utility.yul\":6680:6684   */\n      dup2\n        /* \"#utility.yul\":6671:6677   */\n      dup8\n        /* \"#utility.yul\":6607:6685   */\n      tag_99\n      jump\t// in\n    tag_184:\n        /* \"#utility.yul\":6599:6685   */\n      swap1\n      pop\n        /* \"#utility.yul\":6733:6742   */\n      dup2\n        /* \"#utility.yul\":6727:6731   */\n      dup2\n        /* \"#utility.yul\":6723:6743   */\n      sub\n        /* \"#utility.yul\":6717:6720   */\n      0xc0\n        /* \"#utility.yul\":6706:6715   */\n      dup4\n        /* \"#utility.yul\":6702:6721   */\n      add\n        /* \"#utility.yul\":6695:6744   */\n      mstore\n        /* \"#utility.yul\":6761:6839   */\n      tag_185\n        /* \"#utility.yul\":6834:6838   */\n      dup2\n        /* \"#utility.yul\":6825:6831   */\n      dup7\n        /* \"#utility.yul\":6761:6839   */\n      tag_99\n      jump\t// in\n    tag_185:\n        /* \"#utility.yul\":6753:6839   */\n      swap1\n      pop\n        /* \"#utility.yul\":6887:6896   */\n      dup2\n        /* \"#utility.yul\":6881:6885   */\n      dup2\n        /* \"#utility.yul\":6877:6897   */\n      sub\n        /* \"#utility.yul\":6871:6874   */\n      0xe0\n        /* \"#utility.yul\":6860:6869   */\n      dup4\n        /* \"#utility.yul\":6856:6875   */\n      add\n        /* \"#utility.yul\":6849:6898   */\n      mstore\n        /* \"#utility.yul\":6915:6993   */\n      tag_186\n        /* \"#utility.yul\":6988:6992   */\n      dup2\n        /* \"#utility.yul\":6979:6985   */\n      dup6\n        /* \"#utility.yul\":6915:6993   */\n      tag_99\n      jump\t// in\n    tag_186:\n        /* \"#utility.yul\":6907:6993   */\n      swap1\n      pop\n        /* \"#utility.yul\":7041:7050   */\n      dup2\n        /* \"#utility.yul\":7035:7039   */\n      dup2\n        /* \"#utility.yul\":7031:7051   */\n      sub\n        /* \"#utility.yul\":7025:7028   */\n      0x0100\n        /* \"#utility.yul\":7014:7023   */\n      dup4\n        /* \"#utility.yul\":7010:7029   */\n      add\n        /* \"#utility.yul\":7003:7052   */\n      mstore\n        /* \"#utility.yul\":7069:7147   */\n      tag_187\n        /* \"#utility.yul\":7142:7146   */\n      dup2\n        /* \"#utility.yul\":7133:7139   */\n      dup5\n        /* \"#utility.yul\":7069:7147   */\n      tag_99\n      jump\t// in\n    tag_187:\n        /* \"#utility.yul\":7061:7147   */\n      swap1\n      pop\n        /* \"#utility.yul\":5591:7154   */\n      swap11\n      swap10\n      pop\n      pop\n      pop\n      pop\n      pop\n      pop\n      pop\n      pop\n      pop\n      pop\n      jump\t// out\n        /* \"#utility.yul\":7160:7282   */\n    tag_100:\n        /* \"#utility.yul\":7233:7257   */\n      tag_189\n        /* \"#utility.yul\":7251:7256   */\n      dup2\n        /* \"#utility.yul\":7233:7257   */\n      tag_89\n      jump\t// in\n    tag_189:\n        /* \"#utility.yul\":7226:7231   */\n      dup2\n        /* \"#utility.yul\":7223:7258   */\n      eq\n        /* \"#utility.yul\":7213:7276   */\n      tag_190\n      jumpi\n        /* \"#utility.yul\":7272:7273   */\n      0x00\n        /* \"#utility.yul\":7269:7270   */\n      dup1\n        /* \"#utility.yul\":7262:7274   */\n      revert\n        /* \"#utility.yul\":7213:7276   */\n    tag_190:\n        /* \"#utility.yul\":7160:7282   */\n      pop\n      jump\t// out\n        /* \"#utility.yul\":7288:7427   */\n    tag_101:\n        /* \"#utility.yul\":7334:7339   */\n      0x00\n        /* \"#utility.yul\":7372:7378   */\n      dup2\n        /* \"#utility.yul\":7359:7379   */\n      calldataload\n        /* \"#utility.yul\":7350:7379   */\n      swap1\n      pop\n        /* \"#utility.yul\":7388:7421   */\n      tag_192\n        /* \"#utility.yul\":7415:7420   */\n      dup2\n        /* \"#utility.yul\":7388:7421   */\n      tag_100\n      jump\t// in\n    tag_192:\n        /* \"#utility.yul\":7288:7427   */\n      swap3\n      swap2\n      pop\n      pop\n      jump\t// out\n        /* \"#utility.yul\":7433:7550   */\n    tag_102:\n        /* \"#utility.yul\":7542:7543   */\n      0x00\n        /* \"#utility.yul\":7539:7540   */\n      dup1\n        /* \"#utility.yul\":7532:7544   */\n      revert\n        /* \"#utility.yul\":7556:7673   */\n    tag_103:\n        /* \"#utility.yul\":7665:7666   */\n      0x00\n        /* \"#utility.yul\":7662:7663   */\n      dup1\n        /* \"#utility.yul\":7655:7667   */\n      revert\n        /* \"#utility.yul\":7679:7859   */\n    tag_104:\n        /* \"#utility.yul\":7727:7804   */\n      0x4e487b7100000000000000000000000000000000000000000000000000000000\n        /* \"#utility.yul\":7724:7725   */\n      0x00\n        /* \"#utility.yul\":7717:7805   */\n      mstore\n        /* \"#utility.yul\":7824:7828   */\n      0x41\n        /* \"#utility.yul\":7821:7822   */\n      0x04\n        /* \"#utility.yul\":7814:7829   */\n      mstore\n        /* \"#utility.yul\":7848:7852   */\n      0x24\n        /* \"#utility.yul\":7845:7846   */\n      0x00\n        /* \"#utility.yul\":7838:7853   */\n      revert\n        /* \"#utility.yul\":7865:8146   */\n    tag_105:\n        /* \"#utility.yul\":7948:7975   */\n      tag_197\n        /* \"#utility.yul\":7970:7974   */\n      dup3\n        /* \"#utility.yul\":7948:7975   */\n      tag_94\n      jump\t// in\n    tag_197:\n        /* \"#utility.yul\":7940:7946   */\n      dup2\n        /* \"#utility.yul\":7936:7976   */\n      add\n        /* \"#utility.yul\":8078:8084   */\n      dup2\n        /* \"#utility.yul\":8066:8076   */\n      dup2\n        /* \"#utility.yul\":8063:8085   */\n      lt\n        /* \"#utility.yul\":8042:8060   */\n      0xffffffffffffffff\n        /* \"#utility.yul\":8030:8040   */\n      dup3\n        /* \"#utility.yul\":8027:8061   */\n      gt\n        /* \"#utility.yul\":8024:8086   */\n      or\n        /* \"#utility.yul\":8021:8109   */\n      iszero\n      tag_198\n      jumpi\n        /* \"#utility.yul\":8089:8107   */\n      tag_199\n      tag_104\n      jump\t// in\n    tag_199:\n        /* \"#utility.yul\":8021:8109   */\n    tag_198:\n        /* \"#utility.yul\":8129:8139   */\n      dup1\n        /* \"#utility.yul\":8125:8127   */\n      0x40\n        /* \"#utility.yul\":8118:8140   */\n      mstore\n        /* \"#utility.yul\":7908:8146   */\n      pop\n        /* \"#utility.yul\":7865:8146   */\n      pop\n      pop\n      jump\t// out\n        /* \"#utility.yul\":8152:8281   */\n    tag_106:\n        /* \"#utility.yul\":8186:8192   */\n      0x00\n        /* \"#utility.yul\":8213:8233   */\n      tag_201\n      tag_82\n      jump\t// in\n    tag_201:\n        /* \"#utility.yul\":8203:8233   */\n      swap1\n      pop\n        /* \"#utility.yul\":8242:8275   */\n      tag_202\n        /* \"#utility.yul\":8270:8274   */\n      dup3\n        /* \"#utility.yul\":8262:8268   */\n      dup3\n        /* \"#utility.yul\":8242:8275   */\n      tag_105\n      jump\t// in\n    tag_202:\n        /* \"#utility.yul\":8152:8281   */\n      swap2\n      swap1\n      pop\n      jump\t// out\n        /* \"#utility.yul\":8287:8595   */\n    tag_107:\n        /* \"#utility.yul\":8349:8353   */\n      0x00\n        /* \"#utility.yul\":8439:8457   */\n      0xffffffffffffffff\n        /* \"#utility.yul\":8431:8437   */\n      dup3\n        /* \"#utility.yul\":8428:8458   */\n      gt\n        /* \"#utility.yul\":8425:8481   */\n      iszero\n      tag_204\n      jumpi\n        /* \"#utility.yul\":8461:8479   */\n      tag_205\n      tag_104\n      jump\t// in\n    tag_205:\n        /* \"#utility.yul\":8425:8481   */\n    tag_204:\n        /* \"#utility.yul\":8499:8528   */\n      tag_206\n        /* \"#utility.yul\":8521:8527   */\n      dup3\n        /* \"#utility.yul\":8499:8528   */\n      tag_94\n      jump\t// in\n    tag_206:\n        /* \"#utility.yul\":8491:8528   */\n      swap1\n      pop\n        /* \"#utility.yul\":8583:8587   */\n      0x20\n        /* \"#utility.yul\":8577:8581   */\n      dup2\n        /* \"#utility.yul\":8573:8588   */\n      add\n        /* \"#utility.yul\":8565:8588   */\n      swap1\n      pop\n        /* \"#utility.yul\":8287:8595   */\n      swap2\n      swap1\n      pop\n      jump\t// out\n        /* \"#utility.yul\":8601:8747   */\n    tag_108:\n        /* \"#utility.yul\":8698:8704   */\n      dup3\n        /* \"#utility.yul\":8693:8696   */\n      dup2\n        /* \"#utility.yul\":8688:8691   */\n      dup4\n        /* \"#utility.yul\":8675:8705   */\n      calldatacopy\n        /* \"#utility.yul\":8739:8740   */\n      0x00\n        /* \"#utility.yul\":8730:8736   */\n      dup4\n        /* \"#utility.yul\":8725:8728   */\n      dup4\n        /* \"#utility.yul\":8721:8737   */\n      add\n        /* \"#utility.yul\":8714:8741   */\n      mstore\n        /* \"#utility.yul\":8601:8747   */\n      pop\n      pop\n      pop\n      jump\t// out\n        /* \"#utility.yul\":8753:9178   */\n    tag_109:\n        /* \"#utility.yul\":8831:8836   */\n      0x00\n        /* \"#utility.yul\":8856:8922   */\n      tag_209\n        /* \"#utility.yul\":8872:8921   */\n      tag_210\n        /* \"#utility.yul\":8914:8920   */\n      dup5\n        /* \"#utility.yul\":8872:8921   */\n      tag_107\n      jump\t// in\n    tag_210:\n        /* \"#utility.yul\":8856:8922   */\n      tag_106\n      jump\t// in\n    tag_209:\n        /* \"#utility.yul\":8847:8922   */\n      swap1\n      pop\n        /* \"#utility.yul\":8945:8951   */\n      dup3\n        /* \"#utility.yul\":8938:8943   */\n      dup2\n        /* \"#utility.yul\":8931:8952   */\n      mstore\n        /* \"#utility.yul\":8983:8987   */\n      0x20\n        /* \"#utility.yul\":8976:8981   */\n      dup2\n        /* \"#utility.yul\":8972:8988   */\n      add\n        /* \"#utility.yul\":9021:9024   */\n      dup5\n        /* \"#utility.yul\":9012:9018   */\n      dup5\n        /* \"#utility.yul\":9007:9010   */\n      dup5\n        /* \"#utility.yul\":9003:9019   */\n      add\n        /* \"#utility.yul\":9000:9025   */\n      gt\n        /* \"#utility.yul\":8997:9109   */\n      iszero\n      tag_211\n      jumpi\n        /* \"#utility.yul\":9028:9107   */\n      tag_212\n      tag_103\n      jump\t// in\n    tag_212:\n        /* \"#utility.yul\":8997:9109   */\n    tag_211:\n        /* \"#utility.yul\":9118:9172   */\n      tag_213\n        /* \"#utility.yul\":9165:9171   */\n      dup5\n        /* \"#utility.yul\":9160:9163   */\n      dup3\n        /* \"#utility.yul\":9155:9158   */\n      dup6\n        /* \"#utility.yul\":9118:9172   */\n      tag_108\n      jump\t// in\n    tag_213:\n        /* \"#utility.yul\":8837:9178   */\n      pop\n        /* \"#utility.yul\":8753:9178   */\n      swap4\n      swap3\n      pop\n      pop\n      pop\n      jump\t// out\n        /* \"#utility.yul\":9198:9538   */\n    tag_110:\n        /* \"#utility.yul\":9254:9259   */\n      0x00\n        /* \"#utility.yul\":9303:9306   */\n      dup3\n        /* \"#utility.yul\":9296:9300   */\n      0x1f\n        /* \"#utility.yul\":9288:9294   */\n      dup4\n        /* \"#utility.yul\":9284:9301   */\n      add\n        /* \"#utility.yul\":9280:9307   */\n      slt\n        /* \"#utility.yul\":9270:9392   */\n      tag_215\n      jumpi\n        /* \"#utility.yul\":9311:9390   */\n      tag_216\n      tag_102\n      jump\t// in\n    tag_216:\n        /* \"#utility.yul\":9270:9392   */\n    tag_215:\n        /* \"#utility.yul\":9428:9434   */\n      dup2\n        /* \"#utility.yul\":9415:9435   */\n      calldataload\n        /* \"#utility.yul\":9453:9532   */\n      tag_217\n        /* \"#utility.yul\":9528:9531   */\n      dup5\n        /* \"#utility.yul\":9520:9526   */\n      dup3\n        /* \"#utility.yul\":9513:9517   */\n      0x20\n        /* \"#utility.yul\":9505:9511   */\n      dup7\n        /* \"#utility.yul\":9501:9518   */\n      add\n        /* \"#utility.yul\":9453:9532   */\n      tag_109\n      jump\t// in\n    tag_217:\n        /* \"#utility.yul\":9444:9532   */\n      swap2\n      pop\n        /* \"#utility.yul\":9260:9538   */\n      pop\n        /* \"#utility.yul\":9198:9538   */\n      swap3\n      swap2\n      pop\n      pop\n      jump\t// out\n        /* \"#utility.yul\":9544:11939   */\n    tag_19:\n        /* \"#utility.yul\":9725:9731   */\n      0x00\n        /* \"#utility.yul\":9733:9739   */\n      dup1\n        /* \"#utility.yul\":9741:9747   */\n      0x00\n        /* \"#utility.yul\":9749:9755   */\n      dup1\n        /* \"#utility.yul\":9757:9763   */\n      0x00\n        /* \"#utility.yul\":9765:9771   */\n      dup1\n        /* \"#utility.yul\":9773:9779   */\n      0x00\n        /* \"#utility.yul\":9781:9787   */\n      dup1\n        /* \"#utility.yul\":9789:9795   */\n      0x00\n        /* \"#utility.yul\":9838:9841   */\n      0x0120\n        /* \"#utility.yul\":9826:9835   */\n      dup11\n        /* \"#utility.yul\":9817:9824   */\n      dup13\n        /* \"#utility.yul\":9813:9836   */\n      sub\n        /* \"#utility.yul\":9809:9842   */\n      slt\n        /* \"#utility.yul\":9806:9926   */\n      iszero\n      tag_219\n      jumpi\n        /* \"#utility.yul\":9845:9924   */\n      tag_220\n      tag_83\n      jump\t// in\n    tag_220:\n        /* \"#utility.yul\":9806:9926   */\n    tag_219:\n        /* \"#utility.yul\":9965:9966   */\n      0x00\n        /* \"#utility.yul\":9990:10043   */\n      tag_221\n        /* \"#utility.yul\":10035:10042   */\n      dup13\n        /* \"#utility.yul\":10026:10032   */\n      dup3\n        /* \"#utility.yul\":10015:10024   */\n      dup14\n        /* \"#utility.yul\":10011:10033   */\n      add\n        /* \"#utility.yul\":9990:10043   */\n      tag_101\n      jump\t// in\n    tag_221:\n        /* \"#utility.yul\":9980:10043   */\n      swap10\n      pop\n        /* \"#utility.yul\":9936:10053   */\n      pop\n        /* \"#utility.yul\":10092:10094   */\n      0x20\n        /* \"#utility.yul\":10118:10171   */\n      tag_222\n        /* \"#utility.yul\":10163:10170   */\n      dup13\n        /* \"#utility.yul\":10154:10160   */\n      dup3\n        /* \"#utility.yul\":10143:10152   */\n      dup14\n        /* \"#utility.yul\":10139:10161   */\n      add\n        /* \"#utility.yul\":10118:10171   */\n      tag_101\n      jump\t// in\n    tag_222:\n        /* \"#utility.yul\":10108:10171   */\n      swap9\n      pop\n        /* \"#utility.yul\":10063:10181   */\n      pop\n        /* \"#utility.yul\":10220:10222   */\n      0x40\n        /* \"#utility.yul\":10246:10299   */\n      tag_223\n        /* \"#utility.yul\":10291:10298   */\n      dup13\n        /* \"#utility.yul\":10282:10288   */\n      dup3\n        /* \"#utility.yul\":10271:10280   */\n      dup14\n        /* \"#utility.yul\":10267:10289   */\n      add\n        /* \"#utility.yul\":10246:10299   */\n      tag_101\n      jump\t// in\n    tag_223:\n        /* \"#utility.yul\":10236:10299   */\n      swap8\n      pop\n        /* \"#utility.yul\":10191:10309   */\n      pop\n        /* \"#utility.yul\":10348:10350   */\n      0x60\n        /* \"#utility.yul\":10374:10427   */\n      tag_224\n        /* \"#utility.yul\":10419:10426   */\n      dup13\n        /* \"#utility.yul\":10410:10416   */\n      dup3\n        /* \"#utility.yul\":10399:10408   */\n      dup14\n        /* \"#utility.yul\":10395:10417   */\n      add\n        /* \"#utility.yul\":10374:10427   */\n      tag_101\n      jump\t// in\n    tag_224:\n        /* \"#utility.yul\":10364:10427   */\n      swap7\n      pop\n        /* \"#utility.yul\":10319:10437   */\n      pop\n        /* \"#utility.yul\":10504:10507   */\n      0x80\n        /* \"#utility.yul\":10493:10502   */\n      dup11\n        /* \"#utility.yul\":10489:10508   */\n      add\n        /* \"#utility.yul\":10476:10509   */\n      calldataload\n        /* \"#utility.yul\":10536:10554   */\n      0xffffffffffffffff\n        /* \"#utility.yul\":10528:10534   */\n      dup2\n        /* \"#utility.yul\":10525:10555   */\n      gt\n        /* \"#utility.yul\":10522:10639   */\n      iszero\n      tag_225\n      jumpi\n        /* \"#utility.yul\":10558:10637   */\n      tag_226\n      tag_84\n      jump\t// in\n    tag_226:\n        /* \"#utility.yul\":10522:10639   */\n    tag_225:\n        /* \"#utility.yul\":10663:10726   */\n      tag_227\n        /* \"#utility.yul\":10718:10725   */\n      dup13\n        /* \"#utility.yul\":10709:10715   */\n      dup3\n        /* \"#utility.yul\":10698:10707   */\n      dup14\n        /* \"#utility.yul\":10694:10716   */\n      add\n        /* \"#utility.yul\":10663:10726   */\n      tag_110\n      jump\t// in\n    tag_227:\n        /* \"#utility.yul\":10653:10726   */\n      swap6\n      pop\n        /* \"#utility.yul\":10447:10736   */\n      pop\n        /* \"#utility.yul\":10803:10806   */\n      0xa0\n        /* \"#utility.yul\":10792:10801   */\n      dup11\n        /* \"#utility.yul\":10788:10807   */\n      add\n        /* \"#utility.yul\":10775:10808   */\n      calldataload\n        /* \"#utility.yul\":10835:10853   */\n      0xffffffffffffffff\n        /* \"#utility.yul\":10827:10833   */\n      dup2\n        /* \"#utility.yul\":10824:10854   */\n      gt\n        /* \"#utility.yul\":10821:10938   */\n      iszero\n      tag_228\n      jumpi\n        /* \"#utility.yul\":10857:10936   */\n      tag_229\n      tag_84\n      jump\t// in\n    tag_229:\n        /* \"#utility.yul\":10821:10938   */\n    tag_228:\n        /* \"#utility.yul\":10962:11025   */\n      tag_230\n        /* \"#utility.yul\":11017:11024   */\n      dup13\n        /* \"#utility.yul\":11008:11014   */\n      dup3\n        /* \"#utility.yul\":10997:11006   */\n      dup14\n        /* \"#utility.yul\":10993:11015   */\n      add\n        /* \"#utility.yul\":10962:11025   */\n      tag_110\n      jump\t// in\n    tag_230:\n        /* \"#utility.yul\":10952:11025   */\n      swap5\n      pop\n        /* \"#utility.yul\":10746:11035   */\n      pop\n        /* \"#utility.yul\":11102:11105   */\n      0xc0\n        /* \"#utility.yul\":11091:11100   */\n      dup11\n        /* \"#utility.yul\":11087:11106   */\n      add\n        /* \"#utility.yul\":11074:11107   */\n      calldataload\n        /* \"#utility.yul\":11134:11152   */\n      0xffffffffffffffff\n        /* \"#utility.yul\":11126:11132   */\n      dup2\n        /* \"#utility.yul\":11123:11153   */\n      gt\n        /* \"#utility.yul\":11120:11237   */\n      iszero\n      tag_231\n      jumpi\n        /* \"#utility.yul\":11156:11235   */\n      tag_232\n      tag_84\n      jump\t// in\n    tag_232:\n        /* \"#utility.yul\":11120:11237   */\n    tag_231:\n        /* \"#utility.yul\":11261:11324   */\n      tag_233\n        /* \"#utility.yul\":11316:11323   */\n      dup13\n        /* \"#utility.yul\":11307:11313   */\n      dup3\n        /* \"#utility.yul\":11296:11305   */\n      dup14\n        /* \"#utility.yul\":11292:11314   */\n      add\n        /* \"#utility.yul\":11261:11324   */\n      tag_110\n      jump\t// in\n    tag_233:\n        /* \"#utility.yul\":11251:11324   */\n      swap4\n      pop\n        /* \"#utility.yul\":11045:11334   */\n      pop\n        /* \"#utility.yul\":11401:11404   */\n      0xe0\n        /* \"#utility.yul\":11390:11399   */\n      dup11\n        /* \"#utility.yul\":11386:11405   */\n      add\n        /* \"#utility.yul\":11373:11406   */\n      calldataload\n        /* \"#utility.yul\":11433:11451   */\n      0xffffffffffffffff\n        /* \"#utility.yul\":11425:11431   */\n      dup2\n        /* \"#utility.yul\":11422:11452   */\n      gt\n        /* \"#utility.yul\":11419:11536   */\n      iszero\n      tag_234\n      jumpi\n        /* \"#utility.yul\":11455:11534   */\n      tag_235\n      tag_84\n      jump\t// in\n    tag_235:\n        /* \"#utility.yul\":11419:11536   */\n    tag_234:\n        /* \"#utility.yul\":11560:11623   */\n      tag_236\n        /* \"#utility.yul\":11615:11622   */\n      dup13\n        /* \"#utility.yul\":11606:11612   */\n      dup3\n        /* \"#utility.yul\":11595:11604   */\n      dup14\n        /* \"#utility.yul\":11591:11613   */\n      add\n        /* \"#utility.yul\":11560:11623   */\n      tag_110\n      jump\t// in\n    tag_236:\n        /* \"#utility.yul\":11550:11623   */\n      swap3\n      pop\n        /* \"#utility.yul\":11344:11633   */\n      pop\n        /* \"#utility.yul\":11700:11703   */\n      0x0100\n        /* \"#utility.yul\":11689:11698   */\n      dup11\n        /* \"#utility.yul\":11685:11704   */\n      add\n        /* \"#utility.yul\":11672:11705   */\n      calldataload\n        /* \"#utility.yul\":11732:11750   */\n      0xffffffffffffffff\n        /* \"#utility.yul\":11724:11730   */\n      dup2\n        /* \"#utility.yul\":11721:11751   */\n      gt\n        /* \"#utility.yul\":11718:11835   */\n      iszero\n      tag_237\n      jumpi\n        /* \"#utility.yul\":11754:11833   */\n      tag_238\n      tag_84\n      jump\t// in\n    tag_238:\n        /* \"#utility.yul\":11718:11835   */\n    tag_237:\n        /* \"#utility.yul\":11859:11922   */\n      tag_239\n        /* \"#utility.yul\":11914:11921   */\n      dup13\n        /* \"#utility.yul\":11905:11911   */\n      dup3\n        /* \"#utility.yul\":11894:11903   */\n      dup14\n        /* \"#utility.yul\":11890:11912   */\n      add\n        /* \"#utility.yul\":11859:11922   */\n      tag_110\n      jump\t// in\n    tag_239:\n        /* \"#utility.yul\":11849:11922   */\n      swap2\n      pop\n        /* \"#utility.yul\":11643:11932   */\n      pop\n        /* \"#utility.yul\":9544:11939   */\n      swap3\n      swap6\n      swap9\n      pop\n      swap3\n      swap6\n      swap9\n      pop\n      swap3\n      swap6\n      swap9\n      jump\t// out\n        /* \"#utility.yul\":11945:12125   */\n    tag_111:\n        /* \"#utility.yul\":11993:12070   */\n      0x4e487b7100000000000000000000000000000000000000000000000000000000\n        /* \"#utility.yul\":11990:11991   */\n      0x00\n        /* \"#utility.yul\":11983:12071   */\n      mstore\n        /* \"#utility.yul\":12090:12094   */\n      0x22\n        /* \"#utility.yul\":12087:12088   */\n      0x04\n        /* \"#utility.yul\":12080:12095   */\n      mstore\n        /* \"#utility.yul\":12114:12118   */\n      0x24\n        /* \"#utility.yul\":12111:12112   */\n      0x00\n        /* \"#utility.yul\":12104:12119   */\n      revert\n        /* \"#utility.yul\":12131:12451   */\n    tag_25:\n        /* \"#utility.yul\":12175:12181   */\n      0x00\n        /* \"#utility.yul\":12212:12213   */\n      0x02\n        /* \"#utility.yul\":12206:12210   */\n      dup3\n        /* \"#utility.yul\":12202:12214   */\n      div\n        /* \"#utility.yul\":12192:12214   */\n      swap1\n      pop\n        /* \"#utility.yul\":12259:12260   */\n      0x01\n        /* \"#utility.yul\":12253:12257   */\n      dup3\n        /* \"#utility.yul\":12249:12261   */\n      and\n        /* \"#utility.yul\":12280:12298   */\n      dup1\n        /* \"#utility.yul\":12270:12351   */\n      tag_242\n      jumpi\n        /* \"#utility.yul\":12336:12340   */\n      0x7f\n        /* \"#utility.yul\":12328:12334   */\n      dup3\n        /* \"#utility.yul\":12324:12341   */\n      and\n        /* \"#utility.yul\":12314:12341   */\n      swap2\n      pop\n        /* \"#utility.yul\":12270:12351   */\n    tag_242:\n        /* \"#utility.yul\":12398:12400   */\n      0x20\n        /* \"#utility.yul\":12390:12396   */\n      dup3\n        /* \"#utility.yul\":12387:12401   */\n      lt\n        /* \"#utility.yul\":12367:12385   */\n      dup2\n        /* \"#utility.yul\":12364:12402   */\n      sub\n        /* \"#utility.yul\":12361:12445   */\n      tag_243\n      jumpi\n        /* \"#utility.yul\":12417:12435   */\n      tag_244\n      tag_111\n      jump\t// in\n    tag_244:\n        /* \"#utility.yul\":12361:12445   */\n    tag_243:\n        /* \"#utility.yul\":12182:12451   */\n      pop\n        /* \"#utility.yul\":12131:12451   */\n      swap2\n      swap1\n      pop\n      jump\t// out\n        /* \"#utility.yul\":12457:12598   */\n    tag_112:\n        /* \"#utility.yul\":12506:12510   */\n      0x00\n        /* \"#utility.yul\":12529:12532   */\n      dup2\n        /* \"#utility.yul\":12521:12532   */\n      swap1\n      pop\n        /* \"#utility.yul\":12552:12555   */\n      dup2\n        /* \"#utility.yul\":12549:12550   */\n      0x00\n        /* \"#utility.yul\":12542:12556   */\n      mstore\n        /* \"#utility.yul\":12586:12590   */\n      0x20\n        /* \"#utility.yul\":12583:12584   */\n      0x00\n        /* \"#utility.yul\":12573:12591   */\n      keccak256\n        /* \"#utility.yul\":12565:12591   */\n      swap1\n      pop\n        /* \"#utility.yul\":12457:12598   */\n      swap2\n      swap1\n      pop\n      jump\t// out\n        /* \"#utility.yul\":12604:12697   */\n    tag_113:\n        /* \"#utility.yul\":12641:12647   */\n      0x00\n        /* \"#utility.yul\":12688:12690   */\n      0x20\n        /* \"#utility.yul\":12683:12685   */\n      0x1f\n        /* \"#utility.yul\":12676:12681   */\n      dup4\n        /* \"#utility.yul\":12672:12686   */\n      add\n        /* \"#utility.yul\":12668:12691   */\n      div\n        /* \"#utility.yul\":12658:12691   */\n      swap1\n      pop\n        /* \"#utility.yul\":12604:12697   */\n      swap2\n      swap1\n      pop\n      jump\t// out\n        /* \"#utility.yul\":12703:12810   */\n    tag_114:\n        /* \"#utility.yul\":12747:12755   */\n      0x00\n        /* \"#utility.yul\":12797:12802   */\n      dup3\n        /* \"#utility.yul\":12791:12795   */\n      dup3\n        /* \"#utility.yul\":12787:12803   */\n      shl\n        /* \"#utility.yul\":12766:12803   */\n      swap1\n      pop\n        /* \"#utility.yul\":12703:12810   */\n      swap3\n      swap2\n      pop\n      pop\n      jump\t// out\n        /* \"#utility.yul\":12816:13209   */\n    tag_115:\n        /* \"#utility.yul\":12885:12891   */\n      0x00\n        /* \"#utility.yul\":12935:12936   */\n      0x08\n        /* \"#utility.yul\":12923:12933   */\n      dup4\n        /* \"#utility.yul\":12919:12937   */\n      mul\n        /* \"#utility.yul\":12958:13055   */\n      tag_249\n        /* \"#utility.yul\":12988:13054   */\n      0xffffffffffffffffffffffffffffffffffffffffffffffffffffffffffffffff\n        /* \"#utility.yul\":12977:12986   */\n      dup3\n        /* \"#utility.yul\":12958:13055   */\n      tag_114\n      jump\t// in\n    tag_249:\n        /* \"#utility.yul\":13076:13115   */\n      tag_250\n        /* \"#utility.yul\":13106:13114   */\n      dup7\n        /* \"#utility.yul\":13095:13104   */\n      dup4\n        /* \"#utility.yul\":13076:13115   */\n      tag_114\n      jump\t// in\n    tag_250:\n        /* \"#utility.yul\":13064:13115   */\n      swap6\n      pop\n        /* \"#utility.yul\":13148:13152   */\n      dup1\n        /* \"#utility.yul\":13144:13153   */\n      not\n        /* \"#utility.yul\":13137:13142   */\n      dup5\n        /* \"#utility.yul\":13133:13154   */\n      and\n        /* \"#utility.yul\":13124:13154   */\n      swap4\n      pop\n        /* \"#utility.yul\":13197:13201   */\n      dup1\n        /* \"#utility.yul\":13187:13195   */\n      dup7\n        /* \"#utility.yul\":13183:13202   */\n      and\n        /* \"#utility.yul\":13176:13181   */\n      dup5\n        /* \"#utility.yul\":13173:13203   */\n      or\n        /* \"#utility.yul\":13163:13203   */\n      swap3\n      pop\n        /* \"#utility.yul\":12892:13209   */\n      pop\n      pop\n        /* \"#utility.yul\":12816:13209   */\n      swap4\n      swap3\n      pop\n      pop\n      pop\n      jump\t// out\n        /* \"#utility.yul\":13215:13275   */\n    tag_116:\n        /* \"#utility.yul\":13243:13246   */\n      0x00\n        /* \"#utility.yul\":13264:13269   */\n      dup2\n        /* \"#utility.yul\":13257:13269   */\n      swap1\n      pop\n        /* \"#utility.yul\":13215:13275   */\n      swap2\n      swap1\n      pop\n      jump\t// out\n        /* \"#utility.yul\":13281:13423   */\n    tag_117:\n        /* \"#utility.yul\":13331:13340   */\n      0x00\n        /* \"#utility.yul\":13364:13417   */\n      tag_253\n        /* \"#utility.yul\":13382:13416   */\n      tag_254\n        /* \"#utility.yul\":13391:13415   */\n      tag_255\n        /* \"#utility.yul\":13409:13414   */\n      dup5\n        /* \"#utility.yul\":13391:13415   */\n      tag_89\n      jump\t// in\n    tag_255:\n        /* \"#utility.yul\":13382:13416   */\n      tag_116\n      jump\t// in\n    tag_254:\n        /* \"#utility.yul\":13364:13417   */\n      tag_89\n      jump\t// in\n    tag_253:\n        /* \"#utility.yul\":13351:13417   */\n      swap1\n      pop\n        /* \"#utility.yul\":13281:13423   */\n      swap2\n      swap1\n      pop\n      jump\t// out\n        /* \"#utility.yul\":13429:13504   */\n    tag_118:\n        /* \"#utility.yul\":13472:13475   */\n      0x00\n        /* \"#utility.yul\":13493:13498   */\n      dup2\n        /* \"#utility.yul\":13486:13498   */\n      swap1\n      pop\n        /* \"#utility.yul\":13429:13504   */\n      swap2\n      swap1\n      pop\n      jump\t// out\n        /* \"#utility.yul\":13510:13779   */\n    tag_119:\n        /* \"#utility.yul\":13620:13659   */\n      tag_258\n        /* \"#utility.yul\":13651:13658   */\n      dup4\n        /* \"#utility.yul\":13620:13659   */\n      tag_117\n      jump\t// in\n    tag_258:\n        /* \"#utility.yul\":13681:13772   */\n      tag_259\n        /* \"#utility.yul\":13730:13771   */\n      tag_260\n        /* \"#utility.yul\":13754:13770   */\n      dup3\n        /* \"#utility.yul\":13730:13771   */\n      tag_118\n      jump\t// in\n    tag_260:\n        /* \"#utility.yul\":13722:13728   */\n      dup5\n        /* \"#utility.yul\":13715:13719   */\n      dup5\n        /* \"#utility.yul\":13709:13720   */\n      sload\n        /* \"#utility.yul\":13681:13772   */\n      tag_115\n      jump\t// in\n    tag_259:\n        /* \"#utility.yul\":13675:13679   */\n      dup3\n        /* \"#utility.yul\":13668:13773   */\n      sstore\n        /* \"#utility.yul\":13586:13779   */\n      pop\n        /* \"#utility.yul\":13510:13779   */\n      pop\n      pop\n      pop\n      jump\t// out\n        /* \"#utility.yul\":13785:13858   */\n    tag_120:\n        /* \"#utility.yul\":13830:13833   */\n      0x00\n        /* \"#utility.yul\":13785:13858   */\n      swap1\n      jump\t// out\n        /* \"#utility.yul\":13864:14053   */\n    tag_121:\n        /* \"#utility.yul\":13941:13973   */\n      tag_263\n      tag_120\n      jump\t// in\n    tag_263:\n        /* \"#utility.yul\":13982:14047   */\n      tag_264\n        /* \"#utility.yul\":14040:14046   */\n      dup2\n        /* \"#utility.yul\":14032:14038   */\n      dup5\n        /* \"#utility.yul\":14026:14030   */\n      dup5\n        /* \"#utility.yul\":13982:14047   */\n      tag_119\n      jump\t// in\n    tag_264:\n        /* \"#utility.yul\":13917:14053   */\n      pop\n        /* \"#utility.yul\":13864:14053   */\n      pop\n      pop\n      jump\t// out\n        /* \"#utility.yul\":14059:14245   */\n    tag_122:\n        /* \"#utility.yul\":14119:14239   */\n    tag_266:\n        /* \"#utility.yul\":14136:14139   */\n      dup2\n        /* \"#utility.yul\":14129:14134   */\n      dup2\n        /* \"#utility.yul\":14126:14140   */\n      lt\n        /* \"#utility.yul\":14119:14239   */\n      iszero\n      tag_268\n      jumpi\n        /* \"#utility.yul\":14190:14229   */\n      tag_269\n        /* \"#utility.yul\":14227:14228   */\n      0x00\n        /* \"#utility.yul\":14220:14225   */\n      dup3\n        /* \"#utility.yul\":14190:14229   */\n      tag_121\n      jump\t// in\n    tag_269:\n        /* \"#utility.yul\":14163:14164   */\n      0x01\n        /* \"#utility.yul\":14156:14161   */\n      dup2\n        /* \"#utility.yul\":14152:14165   */\n      add\n        /* \"#utility.yul\":14143:14165   */\n      swap1\n      pop\n        /* \"#utility.yul\":14119:14239   */\n      jump(tag_266)\n    tag_268:\n        /* \"#utility.yul\":14059:14245   */\n      pop\n      pop\n      jump\t// out\n        /* \"#utility.yul\":14251:14794   */\n    tag_123:\n        /* \"#utility.yul\":14352:14354   */\n      0x1f\n        /* \"#utility.yul\":14347:14350   */\n      dup3\n        /* \"#utility.yul\":14344:14355   */\n      gt\n        /* \"#utility.yul\":14341:14787   */\n      iszero\n      tag_271\n      jumpi\n        /* \"#utility.yul\":14386:14424   */\n      tag_272\n        /* \"#utility.yul\":14418:14423   */\n      dup2\n        /* \"#utility.yul\":14386:14424   */\n      tag_112\n      jump\t// in\n    tag_272:\n        /* \"#utility.yul\":14470:14499   */\n      tag_273\n        /* \"#utility.yul\":14488:14498   */\n      dup5\n        /* \"#utility.yul\":14470:14499   */\n      tag_113\n      jump\t// in\n    tag_273:\n        /* \"#utility.yul\":14460:14468   */\n      dup2\n        /* \"#utility.yul\":14456:14500   */\n      add\n        /* \"#utility.yul\":14653:14655   */\n      0x20\n        /* \"#utility.yul\":14641:14651   */\n      dup6\n        /* \"#utility.yul\":14638:14656   */\n      lt\n        /* \"#utility.yul\":14635:14684   */\n      iszero\n      tag_274\n      jumpi\n        /* \"#utility.yul\":14674:14682   */\n      dup2\n        /* \"#utility.yul\":14659:14682   */\n      swap1\n      pop\n        /* \"#utility.yul\":14635:14684   */\n    tag_274:\n        /* \"#utility.yul\":14697:14777   */\n      tag_275\n        /* \"#utility.yul\":14753:14775   */\n      tag_276\n        /* \"#utility.yul\":14771:14774   */\n      dup6\n        /* \"#utility.yul\":14753:14775   */\n      tag_113\n      jump\t// in\n    tag_276:\n        /* \"#utility.yul\":14743:14751   */\n      dup4\n        /* \"#utility.yul\":14739:14776   */\n      add\n        /* \"#utility.yul\":14726:14737   */\n      dup3\n        /* \"#utility.yul\":14697:14777   */\n      tag_122\n      jump\t// in\n    tag_275:\n        /* \"#utility.yul\":14356:14787   */\n      pop\n      pop\n        /* \"#utility.yul\":14341:14787   */\n    tag_271:\n        /* \"#utility.yul\":14251:14794   */\n      pop\n      pop\n      pop\n      jump\t// out\n        /* \"#utility.yul\":14800:14917   */\n    tag_124:\n        /* \"#utility.yul\":14854:14862   */\n      0x00\n        /* \"#utility.yul\":14904:14909   */\n      dup3\n        /* \"#utility.yul\":14898:14902   */\n      dup3\n        /* \"#utility.yul\":14894:14910   */\n      shr\n        /* \"#utility.yul\":14873:14910   */\n      swap1\n      pop\n        /* \"#utility.yul\":14800:14917   */\n      swap3\n      swap2\n      pop\n      pop\n      jump\t// out\n        /* \"#utility.yul\":14923:15092   */\n    tag_125:\n        /* \"#utility.yul\":14967:14973   */\n      0x00\n        /* \"#utility.yul\":15000:15051   */\n      tag_279\n        /* \"#utility.yul\":15048:15049   */\n      0x00\n        /* \"#utility.yul\":15044:15050   */\n      not\n        /* \"#utility.yul\":15036:15041   */\n      dup5\n        /* \"#utility.yul\":15033:15034   */\n      0x08\n        /* \"#utility.yul\":15029:15042   */\n      mul\n        /* \"#utility.yul\":15000:15051   */\n      tag_124\n      jump\t// in\n    tag_279:\n        /* \"#utility.yul\":14996:15052   */\n      not\n        /* \"#utility.yul\":15081:15085   */\n      dup1\n        /* \"#utility.yul\":15075:15079   */\n      dup4\n        /* \"#utility.yul\":15071:15086   */\n      and\n        /* \"#utility.yul\":15061:15086   */\n      swap2\n      pop\n        /* \"#utility.yul\":14974:15092   */\n      pop\n        /* \"#utility.yul\":14923:15092   */\n      swap3\n      swap2\n      pop\n      pop\n      jump\t// out\n        /* \"#utility.yul\":15097:15392   */\n    tag_126:\n        /* \"#utility.yul\":15173:15177   */\n      0x00\n        /* \"#utility.yul\":15319:15348   */\n      tag_281\n        /* \"#utility.yul\":15344:15347   */\n      dup4\n        /* \"#utility.yul\":15338:15342   */\n      dup4\n        /* \"#utility.yul\":15319:15348   */\n      tag_125\n      jump\t// in\n    tag_281:\n        /* \"#utility.yul\":15311:15348   */\n      swap2\n      pop\n        /* \"#utility.yul\":15381:15384   */\n      dup3\n        /* \"#utility.yul\":15378:15379   */\n      0x02\n        /* \"#utility.yul\":15374:15385   */\n      mul\n        /* \"#utility.yul\":15368:15372   */\n      dup3\n        /* \"#utility.yul\":15365:15386   */\n      or\n        /* \"#utility.yul\":15357:15386   */\n      swap1\n      pop\n        /* \"#utility.yul\":15097:15392   */\n      swap3\n      swap2\n      pop\n      pop\n      jump\t// out\n        /* \"#utility.yul\":15397:16792   */\n    tag_77:\n        /* \"#utility.yul\":15514:15551   */\n      tag_283\n        /* \"#utility.yul\":15547:15550   */\n      dup3\n        /* \"#utility.yul\":15514:15551   */\n      tag_91\n      jump\t// in\n    tag_283:\n        /* \"#utility.yul\":15616:15634   */\n      0xffffffffffffffff\n        /* \"#utility.yul\":15608:15614   */\n      dup2\n        /* \"#utility.yul\":15605:15635   */\n      gt\n        /* \"#utility.yul\":15602:15658   */\n      iszero\n      tag_284\n      jumpi\n        /* \"#utility.yul\":15638:15656   */\n      tag_285\n      tag_104\n      jump\t// in\n    tag_285:\n        /* \"#utility.yul\":15602:15658   */\n    tag_284:\n        /* \"#utility.yul\":15682:15720   */\n      tag_286\n        /* \"#utility.yul\":15714:15718   */\n      dup3\n        /* \"#utility.yul\":15708:15719   */\n      sload\n        /* \"#utility.yul\":15682:15720   */\n      tag_25\n      jump\t// in\n    tag_286:\n        /* \"#utility.yul\":15767:15834   */\n      tag_287\n        /* \"#utility.yul\":15827:15833   */\n      dup3\n        /* \"#utility.yul\":15819:15825   */\n      dup3\n        /* \"#utility.yul\":15813:15817   */\n      dup6\n        /* \"#utility.yul\":15767:15834   */\n      tag_123\n      jump\t// in\n    tag_287:\n        /* \"#utility.yul\":15861:15862   */\n      0x00\n        /* \"#utility.yul\":15885:15889   */\n      0x20\n        /* \"#utility.yul\":15872:15889   */\n      swap1\n      pop\n        /* \"#utility.yul\":15917:15919   */\n      0x1f\n        /* \"#utility.yul\":15909:15915   */\n      dup4\n        /* \"#utility.yul\":15906:15920   */\n      gt\n        /* \"#utility.yul\":15934:15935   */\n      0x01\n        /* \"#utility.yul\":15929:16547   */\n      dup2\n      eq\n      tag_289\n      jumpi\n        /* \"#utility.yul\":16591:16592   */\n      0x00\n        /* \"#utility.yul\":16608:16614   */\n      dup5\n        /* \"#utility.yul\":16605:16682   */\n      iszero\n      tag_290\n      jumpi\n        /* \"#utility.yul\":16657:16666   */\n      dup3\n        /* \"#utility.yul\":16652:16655   */\n      dup8\n        /* \"#utility.yul\":16648:16667   */\n      add\n        /* \"#utility.yul\":16642:16668   */\n      mload\n        /* \"#utility.yul\":16633:16668   */\n      swap1\n      pop\n        /* \"#utility.yul\":16605:16682   */\n    tag_290:\n        /* \"#utility.yul\":16708:16775   */\n      tag_291\n        /* \"#utility.yul\":16768:16774   */\n      dup6\n        /* \"#utility.yul\":16761:16766   */\n      dup3\n        /* \"#utility.yul\":16708:16775   */\n      tag_126\n      jump\t// in\n    tag_291:\n        /* \"#utility.yul\":16702:16706   */\n      dup7\n        /* \"#utility.yul\":16695:16776   */\n      sstore\n        /* \"#utility.yul\":16564:16786   */\n      pop\n        /* \"#utility.yul\":15899:16786   */\n      jump(tag_288)\n        /* \"#utility.yul\":15929:16547   */\n    tag_289:\n        /* \"#utility.yul\":15981:15985   */\n      0x1f\n        /* \"#utility.yul\":15977:15986   */\n      not\n        /* \"#utility.yul\":15969:15975   */\n      dup5\n        /* \"#utility.yul\":15965:15987   */\n      and\n        /* \"#utility.yul\":16015:16052   */\n      tag_292\n        /* \"#utility.yul\":16047:16051   */\n      dup7\n        /* \"#utility.yul\":16015:16052   */\n      tag_112\n      jump\t// in\n    tag_292:\n        /* \"#utility.yul\":16074:16075   */\n      0x00\n        /* \"#utility.yul\":16088:16296   */\n    tag_293:\n        /* \"#utility.yul\":16102:16109   */\n      dup3\n        /* \"#utility.yul\":16099:16100   */\n      dup2\n        /* \"#utility.yul\":16096:16110   */\n      lt\n        /* \"#utility.yul\":16088:16296   */\n      iszero\n      tag_295\n      jumpi\n        /* \"#utility.yul\":16181:16190   */\n      dup5\n        /* \"#utility.yul\":16176:16179   */\n      dup10\n        /* \"#utility.yul\":16172:16191   */\n      add\n        /* \"#utility.yul\":16166:16192   */\n      mload\n        /* \"#utility.yul\":16158:16164   */\n      dup3\n        /* \"#utility.yul\":16151:16193   */\n      sstore\n        /* \"#utility.yul\":16232:16233   */\n      0x01\n        /* \"#utility.yul\":16224:16230   */\n      dup3\n        /* \"#utility.yul\":16220:16234   */\n      add\n        /* \"#utility.yul\":16210:16234   */\n      swap2\n      pop\n        /* \"#utility.yul\":16279:16281   */\n      0x20\n        /* \"#utility.yul\":16268:16277   */\n      dup6\n        /* \"#utility.yul\":16264:16282   */\n      add\n        /* \"#utility.yul\":16251:16282   */\n      swap5\n      pop\n        /* \"#utility.yul\":16125:16129   */\n      0x20\n        /* \"#utility.yul\":16122:16123   */\n      dup2\n        /* \"#utility.yul\":16118:16130   */\n      add\n        /* \"#utility.yul\":16113:16130   */\n      swap1\n      pop\n        /* \"#utility.yul\":16088:16296   */\n      jump(tag_293)\n    tag_295:\n        /* \"#utility.yul\":16324:16330   */\n      dup7\n        /* \"#utility.yul\":16315:16322   */\n      dup4\n        /* \"#utility.yul\":16312:16331   */\n      lt\n        /* \"#utility.yul\":16309:16488   */\n      iszero\n      tag_296\n      jumpi\n        /* \"#utility.yul\":16382:16391   */\n      dup5\n        /* \"#utility.yul\":16377:16380   */\n      dup10\n        /* \"#utility.yul\":16373:16392   */\n      add\n        /* \"#utility.yul\":16367:16393   */\n      mload\n        /* \"#utility.yul\":16425:16473   */\n      tag_297\n        /* \"#utility.yul\":16467:16471   */\n      0x1f\n        /* \"#utility.yul\":16459:16465   */\n      dup10\n        /* \"#utility.yul\":16455:16472   */\n      and\n        /* \"#utility.yul\":16444:16453   */\n      dup3\n        /* \"#utility.yul\":16425:16473   */\n      tag_125\n      jump\t// in\n    tag_297:\n        /* \"#utility.yul\":16417:16423   */\n      dup4\n        /* \"#utility.yul\":16410:16474   */\n      sstore\n        /* \"#utility.yul\":16332:16488   */\n      pop\n        /* \"#utility.yul\":16309:16488   */\n    tag_296:\n        /* \"#utility.yul\":16534:16535   */\n      0x01\n        /* \"#utility.yul\":16530:16531   */\n      0x02\n        /* \"#utility.yul\":16522:16528   */\n      dup9\n        /* \"#utility.yul\":16518:16532   */\n      mul\n        /* \"#utility.yul\":16514:16536   */\n      add\n        /* \"#utility.yul\":16508:16512   */\n      dup9\n        /* \"#utility.yul\":16501:16537   */\n      sstore\n        /* \"#utility.yul\":15936:16547   */\n      pop\n      pop\n      pop\n        /* \"#utility.yul\":15899:16786   */\n    tag_288:\n      pop\n        /* \"#utility.yul\":15489:16792   */\n      pop\n      pop\n      pop\n        /* \"#utility.yul\":15397:16792   */\n      pop\n      pop\n      jump\t// out\n\n    auxdata: 0xa26469706673582212205f43078f8deabf08ace3fec52e683cc636aa7a3a7583d6aff48f943fa14bea2964736f6c63430008130033\n}\n",
				"bytecode": {
					"linkReferences": {},
					"object": "608060405234801561001057600080fd5b506111af806100206000396000f3fe608060405234801561001057600080fd5b50600436106100415760003560e01c8063161a6c1e14610046578063e69f34b014610076578063f8c9e72c146100ae575b600080fd5b610060600480360381019061005b9190610902565b6100ca565b60405161006d9190610ab9565b60405180910390f35b610090600480360381019061008b9190610902565b610425565b6040516100a599989796959493929190610b34565b60405180910390f35b6100c860048036038101906100c39190610d45565b61071b565b005b6100d2610844565b6000808373ffffffffffffffffffffffffffffffffffffffff1673ffffffffffffffffffffffffffffffffffffffff168152602001908152602001600020604051806101200160405290816000820154815260200160018201548152602001600282015481526020016003820154815260200160048201805461015490610eca565b80601f016020809104026020016040519081016040528092919081815260200182805461018090610eca565b80156101cd5780601f106101a2576101008083540402835291602001916101cd565b820191906000526020600020905b8154815290600101906020018083116101b057829003601f168201915b505050505081526020016005820180546101e690610eca565b80601f016020809104026020016040519081016040528092919081815260200182805461021290610eca565b801561025f5780601f106102345761010080835404028352916020019161025f565b820191906000526020600020905b81548152906001019060200180831161024257829003601f168201915b5050505050815260200160068201805461027890610eca565b80601f01602080910402602001604051908101604052809291908181526020018280546102a490610eca565b80156102f15780601f106102c6576101008083540402835291602001916102f1565b820191906000526020600020905b8154815290600101906020018083116102d457829003601f168201915b5050505050815260200160078201805461030a90610eca565b80601f016020809104026020016040519081016040528092919081815260200182805461033690610eca565b80156103835780601f1061035857610100808354040283529160200191610383565b820191906000526020600020905b81548152906001019060200180831161036657829003601f168201915b5050505050815260200160088201805461039c90610eca565b80601f01602080910402602001604051908101604052809291908181526020018280546103c890610eca565b80156104155780601f106103ea57610100808354040283529160200191610415565b820191906000526020600020905b8154815290600101906020018083116103f857829003601f168201915b5050505050815250509050919050565b600060205280600052604060002060009150905080600001549080600101549080600201549080600301549080600401805461046090610eca565b80601f016020809104026020016040519081016040528092919081815260200182805461048c90610eca565b80156104d95780601f106104ae576101008083540402835291602001916104d9565b820191906000526020600020905b8154815290600101906020018083116104bc57829003601f168201915b5050505050908060050180546104ee90610eca565b80601f016020809104026020016040519081016040528092919081815260200182805461051a90610eca565b80156105675780601f1061053c57610100808354040283529160200191610567565b820191906000526020600020905b81548152906001019060200180831161054a57829003601f168201915b50505050509080600601805461057c90610eca565b80601f01602080910402602001604051908101604052809291908181526020018280546105a890610eca565b80156105f55780601f106105ca576101008083540402835291602001916105f5565b820191906000526020600020905b8154815290600101906020018083116105d857829003601f168201915b50505050509080600701805461060a90610eca565b80601f016020809104026020016040519081016040528092919081815260200182805461063690610eca565b80156106835780601f1061065857610100808354040283529160200191610683565b820191906000526020600020905b81548152906001019060200180831161066657829003601f168201915b50505050509080600801805461069890610eca565b80601f01602080910402602001604051908101604052809291908181526020018280546106c490610eca565b80156107115780601f106106e657610100808354040283529160200191610711565b820191906000526020600020905b8154815290600101906020018083116106f457829003601f168201915b5050505050905089565b60006040518061012001604052808b81526020018a8152602001898152602001888152602001878152602001868152602001858152602001848152602001838152509050806000803373ffffffffffffffffffffffffffffffffffffffff1673ffffffffffffffffffffffffffffffffffffffff1681526020019081526020016000206000820151816000015560208201518160010155604082015181600201556060820151816003015560808201518160040190816107db91906110a7565b5060a08201518160050190816107f191906110a7565b5060c082015181600601908161080791906110a7565b5060e082015181600701908161081d91906110a7565b5061010082015181600801908161083491906110a7565b5090505050505050505050505050565b6040518061012001604052806000815260200160008152602001600081526020016000815260200160608152602001606081526020016060815260200160608152602001606081525090565b6000604051905090565b600080fd5b600080fd5b600073ffffffffffffffffffffffffffffffffffffffff82169050919050565b60006108cf826108a4565b9050919050565b6108df816108c4565b81146108ea57600080fd5b50565b6000813590506108fc816108d6565b92915050565b6000602082840312156109185761091761089a565b5b6000610926848285016108ed565b91505092915050565b6000819050919050565b6109428161092f565b82525050565b600081519050919050565b600082825260208201905092915050565b60005b83811015610982578082015181840152602081019050610967565b60008484015250505050565b6000601f19601f8301169050919050565b60006109aa82610948565b6109b48185610953565b93506109c4818560208601610964565b6109cd8161098e565b840191505092915050565b6000610120830160008301516109f16000860182610939565b506020830151610a046020860182610939565b506040830151610a176040860182610939565b506060830151610a2a6060860182610939565b5060808301518482036080860152610a42828261099f565b91505060a083015184820360a0860152610a5c828261099f565b91505060c083015184820360c0860152610a76828261099f565b91505060e083015184820360e0860152610a90828261099f565b915050610100830151848203610100860152610aac828261099f565b9150508091505092915050565b60006020820190508181036000830152610ad381846109d8565b905092915050565b610ae48161092f565b82525050565b600082825260208201905092915050565b6000610b0682610948565b610b108185610aea565b9350610b20818560208601610964565b610b298161098e565b840191505092915050565b600061012082019050610b4a600083018c610adb565b610b57602083018b610adb565b610b64604083018a610adb565b610b716060830189610adb565b8181036080830152610b838188610afb565b905081810360a0830152610b978187610afb565b905081810360c0830152610bab8186610afb565b905081810360e0830152610bbf8185610afb565b9050818103610100830152610bd48184610afb565b90509a9950505050505050505050565b610bed8161092f565b8114610bf857600080fd5b50565b600081359050610c0a81610be4565b92915050565b600080fd5b600080fd5b7f4e487b7100000000000000000000000000000000000000000000000000000000600052604160045260246000fd5b610c528261098e565b810181811067ffffffffffffffff82111715610c7157610c70610c1a565b5b80604052505050565b6000610c84610890565b9050610c908282610c49565b919050565b600067ffffffffffffffff821115610cb057610caf610c1a565b5b610cb98261098e565b9050602081019050919050565b82818337600083830152505050565b6000610ce8610ce384610c95565b610c7a565b905082815260208101848484011115610d0457610d03610c15565b5b610d0f848285610cc6565b509392505050565b600082601f830112610d2c57610d2b610c10565b5b8135610d3c848260208601610cd5565b91505092915050565b60008060008060008060008060006101208a8c031215610d6857610d6761089a565b5b6000610d768c828d01610bfb565b9950506020610d878c828d01610bfb565b9850506040610d988c828d01610bfb565b9750506060610da98c828d01610bfb565b96505060808a013567ffffffffffffffff811115610dca57610dc961089f565b5b610dd68c828d01610d17565b95505060a08a013567ffffffffffffffff811115610df757610df661089f565b5b610e038c828d01610d17565b94505060c08a013567ffffffffffffffff811115610e2457610e2361089f565b5b610e308c828d01610d17565b93505060e08a013567ffffffffffffffff811115610e5157610e5061089f565b5b610e5d8c828d01610d17565b9250506101008a013567ffffffffffffffff811115610e7f57610e7e61089f565b5b610e8b8c828d01610d17565b9150509295985092959850929598565b7f4e487b7100000000000000000000000000000000000000000000000000000000600052602260045260246000fd5b60006002820490506001821680610ee257607f821691505b602082108103610ef557610ef4610e9b565b5b50919050565b60008190508160005260206000209050919050565b60006020601f8301049050919050565b600082821b905092915050565b600060088302610f5d7fffffffffffffffffffffffffffffffffffffffffffffffffffffffffffffffff82610f20565b610f678683610f20565b95508019841693508086168417925050509392505050565b6000819050919050565b6000610fa4610f9f610f9a8461092f565b610f7f565b61092f565b9050919050565b6000819050919050565b610fbe83610f89565b610fd2610fca82610fab565b848454610f2d565b825550505050565b600090565b610fe7610fda565b610ff2818484610fb5565b505050565b5b818110156110165761100b600082610fdf565b600181019050610ff8565b5050565b601f82111561105b5761102c81610efb565b61103584610f10565b81016020851015611044578190505b61105861105085610f10565b830182610ff7565b50505b505050565b600082821c905092915050565b600061107e60001984600802611060565b1980831691505092915050565b6000611097838361106d565b9150826002028217905092915050565b6110b082610948565b67ffffffffffffffff8111156110c9576110c8610c1a565b5b6110d38254610eca565b6110de82828561101a565b600060209050601f83116001811461111157600084156110ff578287015190505b611109858261108b565b865550611171565b601f19841661111f86610efb565b60005b8281101561114757848901518255600182019150602085019450602081019050611122565b868310156111645784890151611160601f89168261106d565b8355505b6001600288020188555050505b50505050505056fea26469706673582212205f43078f8deabf08ace3fec52e683cc636aa7a3a7583d6aff48f943fa14bea2964736f6c63430008130033",
					"opcodes": "PUSH1 0x80 PUSH1 0x40 MSTORE CALLVALUE DUP1 ISZERO PUSH2 0x10 JUMPI PUSH1 0x0 DUP1 REVERT JUMPDEST POP PUSH2 0x11AF DUP1 PUSH2 0x20 PUSH1 0x0 CODECOPY PUSH1 0x0 RETURN INVALID PUSH1 0x80 PUSH1 0x40 MSTORE CALLVALUE DUP1 ISZERO PUSH2 0x10 JUMPI PUSH1 0x0 DUP1 REVERT JUMPDEST POP PUSH1 0x4 CALLDATASIZE LT PUSH2 0x41 JUMPI PUSH1 0x0 CALLDATALOAD PUSH1 0xE0 SHR DUP1 PUSH4 0x161A6C1E EQ PUSH2 0x46 JUMPI DUP1 PUSH4 0xE69F34B0 EQ PUSH2 0x76 JUMPI DUP1 PUSH4 0xF8C9E72C EQ PUSH2 0xAE JUMPI JUMPDEST PUSH1 0x0 DUP1 REVERT JUMPDEST PUSH2 0x60 PUSH1 0x4 DUP1 CALLDATASIZE SUB DUP2 ADD SWAP1 PUSH2 0x5B SWAP2 SWAP1 PUSH2 0x902 JUMP JUMPDEST PUSH2 0xCA JUMP JUMPDEST PUSH1 0x40 MLOAD PUSH2 0x6D SWAP2 SWAP1 PUSH2 0xAB9 JUMP JUMPDEST PUSH1 0x40 MLOAD DUP1 SWAP2 SUB SWAP1 RETURN JUMPDEST PUSH2 0x90 PUSH1 0x4 DUP1 CALLDATASIZE SUB DUP2 ADD SWAP1 PUSH2 0x8B SWAP2 SWAP1 PUSH2 0x902 JUMP JUMPDEST PUSH2 0x425 JUMP JUMPDEST PUSH1 0x40 MLOAD PUSH2 0xA5 SWAP10 SWAP9 SWAP8 SWAP7 SWAP6 SWAP5 SWAP4 SWAP3 SWAP2 SWAP1 PUSH2 0xB34 JUMP JUMPDEST PUSH1 0x40 MLOAD DUP1 SWAP2 SUB SWAP1 RETURN JUMPDEST PUSH2 0xC8 PUSH1 0x4 DUP1 CALLDATASIZE SUB DUP2 ADD SWAP1 PUSH2 0xC3 SWAP2 SWAP1 PUSH2 0xD45 JUMP JUMPDEST PUSH2 0x71B JUMP JUMPDEST STOP JUMPDEST PUSH2 0xD2 PUSH2 0x844 JUMP JUMPDEST PUSH1 0x0 DUP1 DUP4 PUSH20 0xFFFFFFFFFFFFFFFFFFFFFFFFFFFFFFFFFFFFFFFF AND PUSH20 0xFFFFFFFFFFFFFFFFFFFFFFFFFFFFFFFFFFFFFFFF AND DUP2 MSTORE PUSH1 0x20 ADD SWAP1 DUP2 MSTORE PUSH1 0x20 ADD PUSH1 0x0 KECCAK256 PUSH1 0x40 MLOAD DUP1 PUSH2 0x120 ADD PUSH1 0x40 MSTORE SWAP1 DUP2 PUSH1 0x0 DUP3 ADD SLOAD DUP2 MSTORE PUSH1 0x20 ADD PUSH1 0x1 DUP3 ADD SLOAD DUP2 MSTORE PUSH1 0x20 ADD PUSH1 0x2 DUP3 ADD SLOAD DUP2 MSTORE PUSH1 0x20 ADD PUSH1 0x3 DUP3 ADD SLOAD DUP2 MSTORE PUSH1 0x20 ADD PUSH1 0x4 DUP3 ADD DUP1 SLOAD PUSH2 0x154 SWAP1 PUSH2 0xECA JUMP JUMPDEST DUP1 PUSH1 0x1F ADD PUSH1 0x20 DUP1 SWAP2 DIV MUL PUSH1 0x20 ADD PUSH1 0x40 MLOAD SWAP1 DUP2 ADD PUSH1 0x40 MSTORE DUP1 SWAP3 SWAP2 SWAP1 DUP2 DUP2 MSTORE PUSH1 0x20 ADD DUP3 DUP1 SLOAD PUSH2 0x180 SWAP1 PUSH2 0xECA JUMP JUMPDEST DUP1 ISZERO PUSH2 0x1CD JUMPI DUP1 PUSH1 0x1F LT PUSH2 0x1A2 JUMPI PUSH2 0x100 DUP1 DUP4 SLOAD DIV MUL DUP4 MSTORE SWAP2 PUSH1 0x20 ADD SWAP2 PUSH2 0x1CD JUMP JUMPDEST DUP3 ADD SWAP2 SWAP1 PUSH1 0x0 MSTORE PUSH1 0x20 PUSH1 0x0 KECCAK256 SWAP1 JUMPDEST DUP2 SLOAD DUP2 MSTORE SWAP1 PUSH1 0x1 ADD SWAP1 PUSH1 0x20 ADD DUP1 DUP4 GT PUSH2 0x1B0 JUMPI DUP3 SWAP1 SUB PUSH1 0x1F AND DUP3 ADD SWAP2 JUMPDEST POP POP POP POP POP DUP2 MSTORE PUSH1 0x20 ADD PUSH1 0x5 DUP3 ADD DUP1 SLOAD PUSH2 0x1E6 SWAP1 PUSH2 0xECA JUMP JUMPDEST DUP1 PUSH1 0x1F ADD PUSH1 0x20 DUP1 SWAP2 DIV MUL PUSH1 0x20 ADD PUSH1 0x40 MLOAD SWAP1 DUP2 ADD PUSH1 0x40 MSTORE DUP1 SWAP3 SWAP2 SWAP1 DUP2 DUP2 MSTORE PUSH1 0x20 ADD DUP3 DUP1 SLOAD PUSH2 0x212 SWAP1 PUSH2 0xECA JUMP JUMPDEST DUP1 ISZERO PUSH2 0x25F JUMPI DUP1 PUSH1 0x1F LT PUSH2 0x234 JUMPI PUSH2 0x100 DUP1 DUP4 SLOAD DIV MUL DUP4 MSTORE SWAP2 PUSH1 0x20 ADD SWAP2 PUSH2 0x25F JUMP JUMPDEST DUP3 ADD SWAP2 SWAP1 PUSH1 0x0 MSTORE PUSH1 0x20 PUSH1 0x0 KECCAK256 SWAP1 JUMPDEST DUP2 SLOAD DUP2 MSTORE SWAP1 PUSH1 0x1 ADD SWAP1 PUSH1 0x20 ADD DUP1 DUP4 GT PUSH2 0x242 JUMPI DUP3 SWAP1 SUB PUSH1 0x1F AND DUP3 ADD SWAP2 JUMPDEST POP POP POP POP POP DUP2 MSTORE PUSH1 0x20 ADD PUSH1 0x6 DUP3 ADD DUP1 SLOAD PUSH2 0x278 SWAP1 PUSH2 0xECA JUMP JUMPDEST DUP1 PUSH1 0x1F ADD PUSH1 0x20 DUP1 SWAP2 DIV MUL PUSH1 0x20 ADD PUSH1 0x40 MLOAD SWAP1 DUP2 ADD PUSH1 0x40 MSTORE DUP1 SWAP3 SWAP2 SWAP1 DUP2 DUP2 MSTORE PUSH1 0x20 ADD DUP3 DUP1 SLOAD PUSH2 0x2A4 SWAP1 PUSH2 0xECA JUMP JUMPDEST DUP1 ISZERO PUSH2 0x2F1 JUMPI DUP1 PUSH1 0x1F LT PUSH2 0x2C6 JUMPI PUSH2 0x100 DUP1 DUP4 SLOAD DIV MUL DUP4 MSTORE SWAP2 PUSH1 0x20 ADD SWAP2 PUSH2 0x2F1 JUMP JUMPDEST DUP3 ADD SWAP2 SWAP1 PUSH1 0x0 MSTORE PUSH1 0x20 PUSH1 0x0 KECCAK256 SWAP1 JUMPDEST DUP2 SLOAD DUP2 MSTORE SWAP1 PUSH1 0x1 ADD SWAP1 PUSH1 0x20 ADD DUP1 DUP4 GT PUSH2 0x2D4 JUMPI DUP3 SWAP1 SUB PUSH1 0x1F AND DUP3 ADD SWAP2 JUMPDEST POP POP POP POP POP DUP2 MSTORE PUSH1 0x20 ADD PUSH1 0x7 DUP3 ADD DUP1 SLOAD PUSH2 0x30A SWAP1 PUSH2 0xECA JUMP JUMPDEST DUP1 PUSH1 0x1F ADD PUSH1 0x20 DUP1 SWAP2 DIV MUL PUSH1 0x20 ADD PUSH1 0x40 MLOAD SWAP1 DUP2 ADD PUSH1 0x40 MSTORE DUP1 SWAP3 SWAP2 SWAP1 DUP2 DUP2 MSTORE PUSH1 0x20 ADD DUP3 DUP1 SLOAD PUSH2 0x336 SWAP1 PUSH2 0xECA JUMP JUMPDEST DUP1 ISZERO PUSH2 0x383 JUMPI DUP1 PUSH1 0x1F LT PUSH2 0x358 JUMPI PUSH2 0x100 DUP1 DUP4 SLOAD DIV MUL DUP4 MSTORE SWAP2 PUSH1 0x20 ADD SWAP2 PUSH2 0x383 JUMP JUMPDEST DUP3 ADD SWAP2 SWAP1 PUSH1 0x0 MSTORE PUSH1 0x20 PUSH1 0x0 KECCAK256 SWAP1 JUMPDEST DUP2 SLOAD DUP2 MSTORE SWAP1 PUSH1 0x1 ADD SWAP1 PUSH1 0x20 ADD DUP1 DUP4 GT PUSH2 0x366 JUMPI DUP3 SWAP1 SUB PUSH1 0x1F AND DUP3 ADD SWAP2 JUMPDEST POP POP POP POP POP DUP2 MSTORE PUSH1 0x20 ADD PUSH1 0x8 DUP3 ADD DUP1 SLOAD PUSH2 0x39C SWAP1 PUSH2 0xECA JUMP JUMPDEST DUP1 PUSH1 0x1F ADD PUSH1 0x20 DUP1 SWAP2 DIV MUL PUSH1 0x20 ADD PUSH1 0x40 MLOAD SWAP1 DUP2 ADD PUSH1 0x40 MSTORE DUP1 SWAP3 SWAP2 SWAP1 DUP2 DUP2 MSTORE PUSH1 0x20 ADD DUP3 DUP1 SLOAD PUSH2 0x3C8 SWAP1 PUSH2 0xECA JUMP JUMPDEST DUP1 ISZERO PUSH2 0x415 JUMPI DUP1 PUSH1 0x1F LT PUSH2 0x3EA JUMPI PUSH2 0x100 DUP1 DUP4 SLOAD DIV MUL DUP4 MSTORE SWAP2 PUSH1 0x20 ADD SWAP2 PUSH2 0x415 JUMP JUMPDEST DUP3 ADD SWAP2 SWAP1 PUSH1 0x0 MSTORE PUSH1 0x20 PUSH1 0x0 KECCAK256 SWAP1 JUMPDEST DUP2 SLOAD DUP2 MSTORE SWAP1 PUSH1 0x1 ADD SWAP1 PUSH1 0x20 ADD DUP1 DUP4 GT PUSH2 0x3F8 JUMPI DUP3 SWAP1 SUB PUSH1 0x1F AND DUP3 ADD SWAP2 JUMPDEST POP POP POP POP POP DUP2 MSTORE POP POP SWAP1 POP SWAP2 SWAP1 POP JUMP JUMPDEST PUSH1 0x0 PUSH1 0x20 MSTORE DUP1 PUSH1 0x0 MSTORE PUSH1 0x40 PUSH1 0x0 KECCAK256 PUSH1 0x0 SWAP2 POP SWAP1 POP DUP1 PUSH1 0x0 ADD SLOAD SWAP1 DUP1 PUSH1 0x1 ADD SLOAD SWAP1 DUP1 PUSH1 0x2 ADD SLOAD SWAP1 DUP1 PUSH1 0x3 ADD SLOAD SWAP1 DUP1 PUSH1 0x4 ADD DUP1 SLOAD PUSH2 0x460 SWAP1 PUSH2 0xECA JUMP JUMPDEST DUP1 PUSH1 0x1F ADD PUSH1 0x20 DUP1 SWAP2 DIV MUL PUSH1 0x20 ADD PUSH1 0x40 MLOAD SWAP1 DUP2 ADD PUSH1 0x40 MSTORE DUP1 SWAP3 SWAP2 SWAP1 DUP2 DUP2 MSTORE PUSH1 0x20 ADD DUP3 DUP1 SLOAD PUSH2 0x48C SWAP1 PUSH2 0xECA JUMP JUMPDEST DUP1 ISZERO PUSH2 0x4D9 JUMPI DUP1 PUSH1 0x1F LT PUSH2 0x4AE JUMPI PUSH2 0x100 DUP1 DUP4 SLOAD DIV MUL DUP4 MSTORE SWAP2 PUSH1 0x20 ADD SWAP2 PUSH2 0x4D9 JUMP JUMPDEST DUP3 ADD SWAP2 SWAP1 PUSH1 0x0 MSTORE PUSH1 0x20 PUSH1 0x0 KECCAK256 SWAP1 JUMPDEST DUP2 SLOAD DUP2 MSTORE SWAP1 PUSH1 0x1 ADD SWAP1 PUSH1 0x20 ADD DUP1 DUP4 GT PUSH2 0x4BC JUMPI DUP3 SWAP1 SUB PUSH1 0x1F AND DUP3 ADD SWAP2 JUMPDEST POP POP POP POP POP SWAP1 DUP1 PUSH1 0x5 ADD DUP1 SLOAD PUSH2 0x4EE SWAP1 PUSH2 0xECA JUMP JUMPDEST DUP1 PUSH1 0x1F ADD PUSH1 0x20 DUP1 SWAP2 DIV MUL PUSH1 0x20 ADD PUSH1 0x40 MLOAD SWAP1 DUP2 ADD PUSH1 0x40 MSTORE DUP1 SWAP3 SWAP2 SWAP1 DUP2 DUP2 MSTORE PUSH1 0x20 ADD DUP3 DUP1 SLOAD PUSH2 0x51A SWAP1 PUSH2 0xECA JUMP JUMPDEST DUP1 ISZERO PUSH2 0x567 JUMPI DUP1 PUSH1 0x1F LT PUSH2 0x53C JUMPI PUSH2 0x100 DUP1 DUP4 SLOAD DIV MUL DUP4 MSTORE SWAP2 PUSH1 0x20 ADD SWAP2 PUSH2 0x567 JUMP JUMPDEST DUP3 ADD SWAP2 SWAP1 PUSH1 0x0 MSTORE PUSH1 0x20 PUSH1 0x0 KECCAK256 SWAP1 JUMPDEST DUP2 SLOAD DUP2 MSTORE SWAP1 PUSH1 0x1 ADD SWAP1 PUSH1 0x20 ADD DUP1 DUP4 GT PUSH2 0x54A JUMPI DUP3 SWAP1 SUB PUSH1 0x1F AND DUP3 ADD SWAP2 JUMPDEST POP POP POP POP POP SWAP1 DUP1 PUSH1 0x6 ADD DUP1 SLOAD PUSH2 0x57C SWAP1 PUSH2 0xECA JUMP JUMPDEST DUP1 PUSH1 0x1F ADD PUSH1 0x20 DUP1 SWAP2 DIV MUL PUSH1 0x20 ADD PUSH1 0x40 MLOAD SWAP1 DUP2 ADD PUSH1 0x40 MSTORE DUP1 SWAP3 SWAP2 SWAP1 DUP2 DUP2 MSTORE PUSH1 0x20 ADD DUP3 DUP1 SLOAD PUSH2 0x5A8 SWAP1 PUSH2 0xECA JUMP JUMPDEST DUP1 ISZERO PUSH2 0x5F5 JUMPI DUP1 PUSH1 0x1F LT PUSH2 0x5CA JUMPI PUSH2 0x100 DUP1 DUP4 SLOAD DIV MUL DUP4 MSTORE SWAP2 PUSH1 0x20 ADD SWAP2 PUSH2 0x5F5 JUMP JUMPDEST DUP3 ADD SWAP2 SWAP1 PUSH1 0x0 MSTORE PUSH1 0x20 PUSH1 0x0 KECCAK256 SWAP1 JUMPDEST DUP2 SLOAD DUP2 MSTORE SWAP1 PUSH1 0x1 ADD SWAP1 PUSH1 0x20 ADD DUP1 DUP4 GT PUSH2 0x5D8 JUMPI DUP3 SWAP1 SUB PUSH1 0x1F AND DUP3 ADD SWAP2 JUMPDEST POP POP POP POP POP SWAP1 DUP1 PUSH1 0x7 ADD DUP1 SLOAD PUSH2 0x60A SWAP1 PUSH2 0xECA JUMP JUMPDEST DUP1 PUSH1 0x1F ADD PUSH1 0x20 DUP1 SWAP2 DIV MUL PUSH1 0x20 ADD PUSH1 0x40 MLOAD SWAP1 DUP2 ADD PUSH1 0x40 MSTORE DUP1 SWAP3 SWAP2 SWAP1 DUP2 DUP2 MSTORE PUSH1 0x20 ADD DUP3 DUP1 SLOAD PUSH2 0x636 SWAP1 PUSH2 0xECA JUMP JUMPDEST DUP1 ISZERO PUSH2 0x683 JUMPI DUP1 PUSH1 0x1F LT PUSH2 0x658 JUMPI PUSH2 0x100 DUP1 DUP4 SLOAD DIV MUL DUP4 MSTORE SWAP2 PUSH1 0x20 ADD SWAP2 PUSH2 0x683 JUMP JUMPDEST DUP3 ADD SWAP2 SWAP1 PUSH1 0x0 MSTORE PUSH1 0x20 PUSH1 0x0 KECCAK256 SWAP1 JUMPDEST DUP2 SLOAD DUP2 MSTORE SWAP1 PUSH1 0x1 ADD SWAP1 PUSH1 0x20 ADD DUP1 DUP4 GT PUSH2 0x666 JUMPI DUP3 SWAP1 SUB PUSH1 0x1F AND DUP3 ADD SWAP2 JUMPDEST POP POP POP POP POP SWAP1 DUP1 PUSH1 0x8 ADD DUP1 SLOAD PUSH2 0x698 SWAP1 PUSH2 0xECA JUMP JUMPDEST DUP1 PUSH1 0x1F ADD PUSH1 0x20 DUP1 SWAP2 DIV MUL PUSH1 0x20 ADD PUSH1 0x40 MLOAD SWAP1 DUP2 ADD PUSH1 0x40 MSTORE DUP1 SWAP3 SWAP2 SWAP1 DUP2 DUP2 MSTORE PUSH1 0x20 ADD DUP3 DUP1 SLOAD PUSH2 0x6C4 SWAP1 PUSH2 0xECA JUMP JUMPDEST DUP1 ISZERO PUSH2 0x711 JUMPI DUP1 PUSH1 0x1F LT PUSH2 0x6E6 JUMPI PUSH2 0x100 DUP1 DUP4 SLOAD DIV MUL DUP4 MSTORE SWAP2 PUSH1 0x20 ADD SWAP2 PUSH2 0x711 JUMP JUMPDEST DUP3 ADD SWAP2 SWAP1 PUSH1 0x0 MSTORE PUSH1 0x20 PUSH1 0x0 KECCAK256 SWAP1 JUMPDEST DUP2 SLOAD DUP2 MSTORE SWAP1 PUSH1 0x1 ADD SWAP1 PUSH1 0x20 ADD DUP1 DUP4 GT PUSH2 0x6F4 JUMPI DUP3 SWAP1 SUB PUSH1 0x1F AND DUP3 ADD SWAP2 JUMPDEST POP POP POP POP POP SWAP1 POP DUP10 JUMP JUMPDEST PUSH1 0x0 PUSH1 0x40 MLOAD DUP1 PUSH2 0x120 ADD PUSH1 0x40 MSTORE DUP1 DUP12 DUP2 MSTORE PUSH1 0x20 ADD DUP11 DUP2 MSTORE PUSH1 0x20 ADD DUP10 DUP2 MSTORE PUSH1 0x20 ADD DUP9 DUP2 MSTORE PUSH1 0x20 ADD DUP8 DUP2 MSTORE PUSH1 0x20 ADD DUP7 DUP2 MSTORE PUSH1 0x20 ADD DUP6 DUP2 MSTORE PUSH1 0x20 ADD DUP5 DUP2 MSTORE PUSH1 0x20 ADD DUP4 DUP2 MSTORE POP SWAP1 POP DUP1 PUSH1 0x0 DUP1 CALLER PUSH20 0xFFFFFFFFFFFFFFFFFFFFFFFFFFFFFFFFFFFFFFFF AND PUSH20 0xFFFFFFFFFFFFFFFFFFFFFFFFFFFFFFFFFFFFFFFF AND DUP2 MSTORE PUSH1 0x20 ADD SWAP1 DUP2 MSTORE PUSH1 0x20 ADD PUSH1 0x0 KECCAK256 PUSH1 0x0 DUP3 ADD MLOAD DUP2 PUSH1 0x0 ADD SSTORE PUSH1 0x20 DUP3 ADD MLOAD DUP2 PUSH1 0x1 ADD SSTORE PUSH1 0x40 DUP3 ADD MLOAD DUP2 PUSH1 0x2 ADD SSTORE PUSH1 0x60 DUP3 ADD MLOAD DUP2 PUSH1 0x3 ADD SSTORE PUSH1 0x80 DUP3 ADD MLOAD DUP2 PUSH1 0x4 ADD SWAP1 DUP2 PUSH2 0x7DB SWAP2 SWAP1 PUSH2 0x10A7 JUMP JUMPDEST POP PUSH1 0xA0 DUP3 ADD MLOAD DUP2 PUSH1 0x5 ADD SWAP1 DUP2 PUSH2 0x7F1 SWAP2 SWAP1 PUSH2 0x10A7 JUMP JUMPDEST POP PUSH1 0xC0 DUP3 ADD MLOAD DUP2 PUSH1 0x6 ADD SWAP1 DUP2 PUSH2 0x807 SWAP2 SWAP1 PUSH2 0x10A7 JUMP JUMPDEST POP PUSH1 0xE0 DUP3 ADD MLOAD DUP2 PUSH1 0x7 ADD SWAP1 DUP2 PUSH2 0x81D SWAP2 SWAP1 PUSH2 0x10A7 JUMP JUMPDEST POP PUSH2 0x100 DUP3 ADD MLOAD DUP2 PUSH1 0x8 ADD SWAP1 DUP2 PUSH2 0x834 SWAP2 SWAP1 PUSH2 0x10A7 JUMP JUMPDEST POP SWAP1 POP POP POP POP POP POP POP POP POP POP POP POP JUMP JUMPDEST PUSH1 0x40 MLOAD DUP1 PUSH2 0x120 ADD PUSH1 0x40 MSTORE DUP1 PUSH1 0x0 DUP2 MSTORE PUSH1 0x20 ADD PUSH1 0x0 DUP2 MSTORE PUSH1 0x20 ADD PUSH1 0x0 DUP2 MSTORE PUSH1 0x20 ADD PUSH1 0x0 DUP2 MSTORE PUSH1 0x20 ADD PUSH1 0x60 DUP2 MSTORE PUSH1 0x20 ADD PUSH1 0x60 DUP2 MSTORE PUSH1 0x20 ADD PUSH1 0x60 DUP2 MSTORE PUSH1 0x20 ADD PUSH1 0x60 DUP2 MSTORE PUSH1 0x20 ADD PUSH1 0x60 DUP2 MSTORE POP SWAP1 JUMP JUMPDEST PUSH1 0x0 PUSH1 0x40 MLOAD SWAP1 POP SWAP1 JUMP JUMPDEST PUSH1 0x0 DUP1 REVERT JUMPDEST PUSH1 0x0 DUP1 REVERT JUMPDEST PUSH1 0x0 PUSH20 0xFFFFFFFFFFFFFFFFFFFFFFFFFFFFFFFFFFFFFFFF DUP3 AND SWAP1 POP SWAP2 SWAP1 POP JUMP JUMPDEST PUSH1 0x0 PUSH2 0x8CF DUP3 PUSH2 0x8A4 JUMP JUMPDEST SWAP1 POP SWAP2 SWAP1 POP JUMP JUMPDEST PUSH2 0x8DF DUP2 PUSH2 0x8C4 JUMP JUMPDEST DUP2 EQ PUSH2 0x8EA JUMPI PUSH1 0x0 DUP1 REVERT JUMPDEST POP JUMP JUMPDEST PUSH1 0x0 DUP2 CALLDATALOAD SWAP1 POP PUSH2 0x8FC DUP2 PUSH2 0x8D6 JUMP JUMPDEST SWAP3 SWAP2 POP POP JUMP JUMPDEST PUSH1 0x0 PUSH1 0x20 DUP3 DUP5 SUB SLT ISZERO PUSH2 0x918 JUMPI PUSH2 0x917 PUSH2 0x89A JUMP JUMPDEST JUMPDEST PUSH1 0x0 PUSH2 0x926 DUP5 DUP3 DUP6 ADD PUSH2 0x8ED JUMP JUMPDEST SWAP2 POP POP SWAP3 SWAP2 POP POP JUMP JUMPDEST PUSH1 0x0 DUP2 SWAP1 POP SWAP2 SWAP1 POP JUMP JUMPDEST PUSH2 0x942 DUP2 PUSH2 0x92F JUMP JUMPDEST DUP3 MSTORE POP POP JUMP JUMPDEST PUSH1 0x0 DUP2 MLOAD SWAP1 POP SWAP2 SWAP1 POP JUMP JUMPDEST PUSH1 0x0 DUP3 DUP3 MSTORE PUSH1 0x20 DUP3 ADD SWAP1 POP SWAP3 SWAP2 POP POP JUMP JUMPDEST PUSH1 0x0 JUMPDEST DUP4 DUP2 LT ISZERO PUSH2 0x982 JUMPI DUP1 DUP3 ADD MLOAD DUP2 DUP5 ADD MSTORE PUSH1 0x20 DUP2 ADD SWAP1 POP PUSH2 0x967 JUMP JUMPDEST PUSH1 0x0 DUP5 DUP5 ADD MSTORE POP POP POP POP JUMP JUMPDEST PUSH1 0x0 PUSH1 0x1F NOT PUSH1 0x1F DUP4 ADD AND SWAP1 POP SWAP2 SWAP1 POP JUMP JUMPDEST PUSH1 0x0 PUSH2 0x9AA DUP3 PUSH2 0x948 JUMP JUMPDEST PUSH2 0x9B4 DUP2 DUP6 PUSH2 0x953 JUMP JUMPDEST SWAP4 POP PUSH2 0x9C4 DUP2 DUP6 PUSH1 0x20 DUP7 ADD PUSH2 0x964 JUMP JUMPDEST PUSH2 0x9CD DUP2 PUSH2 0x98E JUMP JUMPDEST DUP5 ADD SWAP2 POP POP SWAP3 SWAP2 POP POP JUMP JUMPDEST PUSH1 0x0 PUSH2 0x120 DUP4 ADD PUSH1 0x0 DUP4 ADD MLOAD PUSH2 0x9F1 PUSH1 0x0 DUP7 ADD DUP3 PUSH2 0x939 JUMP JUMPDEST POP PUSH1 0x20 DUP4 ADD MLOAD PUSH2 0xA04 PUSH1 0x20 DUP7 ADD DUP3 PUSH2 0x939 JUMP JUMPDEST POP PUSH1 0x40 DUP4 ADD MLOAD PUSH2 0xA17 PUSH1 0x40 DUP7 ADD DUP3 PUSH2 0x939 JUMP JUMPDEST POP PUSH1 0x60 DUP4 ADD MLOAD PUSH2 0xA2A PUSH1 0x60 DUP7 ADD DUP3 PUSH2 0x939 JUMP JUMPDEST POP PUSH1 0x80 DUP4 ADD MLOAD DUP5 DUP3 SUB PUSH1 0x80 DUP7 ADD MSTORE PUSH2 0xA42 DUP3 DUP3 PUSH2 0x99F JUMP JUMPDEST SWAP2 POP POP PUSH1 0xA0 DUP4 ADD MLOAD DUP5 DUP3 SUB PUSH1 0xA0 DUP7 ADD MSTORE PUSH2 0xA5C DUP3 DUP3 PUSH2 0x99F JUMP JUMPDEST SWAP2 POP POP PUSH1 0xC0 DUP4 ADD MLOAD DUP5 DUP3 SUB PUSH1 0xC0 DUP7 ADD MSTORE PUSH2 0xA76 DUP3 DUP3 PUSH2 0x99F JUMP JUMPDEST SWAP2 POP POP PUSH1 0xE0 DUP4 ADD MLOAD DUP5 DUP3 SUB PUSH1 0xE0 DUP7 ADD MSTORE PUSH2 0xA90 DUP3 DUP3 PUSH2 0x99F JUMP JUMPDEST SWAP2 POP POP PUSH2 0x100 DUP4 ADD MLOAD DUP5 DUP3 SUB PUSH2 0x100 DUP7 ADD MSTORE PUSH2 0xAAC DUP3 DUP3 PUSH2 0x99F JUMP JUMPDEST SWAP2 POP POP DUP1 SWAP2 POP POP SWAP3 SWAP2 POP POP JUMP JUMPDEST PUSH1 0x0 PUSH1 0x20 DUP3 ADD SWAP1 POP DUP2 DUP2 SUB PUSH1 0x0 DUP4 ADD MSTORE PUSH2 0xAD3 DUP2 DUP5 PUSH2 0x9D8 JUMP JUMPDEST SWAP1 POP SWAP3 SWAP2 POP POP JUMP JUMPDEST PUSH2 0xAE4 DUP2 PUSH2 0x92F JUMP JUMPDEST DUP3 MSTORE POP POP JUMP JUMPDEST PUSH1 0x0 DUP3 DUP3 MSTORE PUSH1 0x20 DUP3 ADD SWAP1 POP SWAP3 SWAP2 POP POP JUMP JUMPDEST PUSH1 0x0 PUSH2 0xB06 DUP3 PUSH2 0x948 JUMP JUMPDEST PUSH2 0xB10 DUP2 DUP6 PUSH2 0xAEA JUMP JUMPDEST SWAP4 POP PUSH2 0xB20 DUP2 DUP6 PUSH1 0x20 DUP7 ADD PUSH2 0x964 JUMP JUMPDEST PUSH2 0xB29 DUP2 PUSH2 0x98E JUMP JUMPDEST DUP5 ADD SWAP2 POP POP SWAP3 SWAP2 POP POP JUMP JUMPDEST PUSH1 0x0 PUSH2 0x120 DUP3 ADD SWAP1 POP PUSH2 0xB4A PUSH1 0x0 DUP4 ADD DUP13 PUSH2 0xADB JUMP JUMPDEST PUSH2 0xB57 PUSH1 0x20 DUP4 ADD DUP12 PUSH2 0xADB JUMP JUMPDEST PUSH2 0xB64 PUSH1 0x40 DUP4 ADD DUP11 PUSH2 0xADB JUMP JUMPDEST PUSH2 0xB71 PUSH1 0x60 DUP4 ADD DUP10 PUSH2 0xADB JUMP JUMPDEST DUP2 DUP2 SUB PUSH1 0x80 DUP4 ADD MSTORE PUSH2 0xB83 DUP2 DUP9 PUSH2 0xAFB JUMP JUMPDEST SWAP1 POP DUP2 DUP2 SUB PUSH1 0xA0 DUP4 ADD MSTORE PUSH2 0xB97 DUP2 DUP8 PUSH2 0xAFB JUMP JUMPDEST SWAP1 POP DUP2 DUP2 SUB PUSH1 0xC0 DUP4 ADD MSTORE PUSH2 0xBAB DUP2 DUP7 PUSH2 0xAFB JUMP JUMPDEST SWAP1 POP DUP2 DUP2 SUB PUSH1 0xE0 DUP4 ADD MSTORE PUSH2 0xBBF DUP2 DUP6 PUSH2 0xAFB JUMP JUMPDEST SWAP1 POP DUP2 DUP2 SUB PUSH2 0x100 DUP4 ADD MSTORE PUSH2 0xBD4 DUP2 DUP5 PUSH2 0xAFB JUMP JUMPDEST SWAP1 POP SWAP11 SWAP10 POP POP POP POP POP POP POP POP POP POP JUMP JUMPDEST PUSH2 0xBED DUP2 PUSH2 0x92F JUMP JUMPDEST DUP2 EQ PUSH2 0xBF8 JUMPI PUSH1 0x0 DUP1 REVERT JUMPDEST POP JUMP JUMPDEST PUSH1 0x0 DUP2 CALLDATALOAD SWAP1 POP PUSH2 0xC0A DUP2 PUSH2 0xBE4 JUMP JUMPDEST SWAP3 SWAP2 POP POP JUMP JUMPDEST PUSH1 0x0 DUP1 REVERT JUMPDEST PUSH1 0x0 DUP1 REVERT JUMPDEST PUSH32 0x4E487B7100000000000000000000000000000000000000000000000000000000 PUSH1 0x0 MSTORE PUSH1 0x41 PUSH1 0x4 MSTORE PUSH1 0x24 PUSH1 0x0 REVERT JUMPDEST PUSH2 0xC52 DUP3 PUSH2 0x98E JUMP JUMPDEST DUP2 ADD DUP2 DUP2 LT PUSH8 0xFFFFFFFFFFFFFFFF DUP3 GT OR ISZERO PUSH2 0xC71 JUMPI PUSH2 0xC70 PUSH2 0xC1A JUMP JUMPDEST JUMPDEST DUP1 PUSH1 0x40 MSTORE POP POP POP JUMP JUMPDEST PUSH1 0x0 PUSH2 0xC84 PUSH2 0x890 JUMP JUMPDEST SWAP1 POP PUSH2 0xC90 DUP3 DUP3 PUSH2 0xC49 JUMP JUMPDEST SWAP2 SWAP1 POP JUMP JUMPDEST PUSH1 0x0 PUSH8 0xFFFFFFFFFFFFFFFF DUP3 GT ISZERO PUSH2 0xCB0 JUMPI PUSH2 0xCAF PUSH2 0xC1A JUMP JUMPDEST JUMPDEST PUSH2 0xCB9 DUP3 PUSH2 0x98E JUMP JUMPDEST SWAP1 POP PUSH1 0x20 DUP2 ADD SWAP1 POP SWAP2 SWAP1 POP JUMP JUMPDEST DUP3 DUP2 DUP4 CALLDATACOPY PUSH1 0x0 DUP4 DUP4 ADD MSTORE POP POP POP JUMP JUMPDEST PUSH1 0x0 PUSH2 0xCE8 PUSH2 0xCE3 DUP5 PUSH2 0xC95 JUMP JUMPDEST PUSH2 0xC7A JUMP JUMPDEST SWAP1 POP DUP3 DUP2 MSTORE PUSH1 0x20 DUP2 ADD DUP5 DUP5 DUP5 ADD GT ISZERO PUSH2 0xD04 JUMPI PUSH2 0xD03 PUSH2 0xC15 JUMP JUMPDEST JUMPDEST PUSH2 0xD0F DUP5 DUP3 DUP6 PUSH2 0xCC6 JUMP JUMPDEST POP SWAP4 SWAP3 POP POP POP JUMP JUMPDEST PUSH1 0x0 DUP3 PUSH1 0x1F DUP4 ADD SLT PUSH2 0xD2C JUMPI PUSH2 0xD2B PUSH2 0xC10 JUMP JUMPDEST JUMPDEST DUP2 CALLDATALOAD PUSH2 0xD3C DUP5 DUP3 PUSH1 0x20 DUP7 ADD PUSH2 0xCD5 JUMP JUMPDEST SWAP2 POP POP SWAP3 SWAP2 POP POP JUMP JUMPDEST PUSH1 0x0 DUP1 PUSH1 0x0 DUP1 PUSH1 0x0 DUP1 PUSH1 0x0 DUP1 PUSH1 0x0 PUSH2 0x120 DUP11 DUP13 SUB SLT ISZERO PUSH2 0xD68 JUMPI PUSH2 0xD67 PUSH2 0x89A JUMP JUMPDEST JUMPDEST PUSH1 0x0 PUSH2 0xD76 DUP13 DUP3 DUP14 ADD PUSH2 0xBFB JUMP JUMPDEST SWAP10 POP POP PUSH1 0x20 PUSH2 0xD87 DUP13 DUP3 DUP14 ADD PUSH2 0xBFB JUMP JUMPDEST SWAP9 POP POP PUSH1 0x40 PUSH2 0xD98 DUP13 DUP3 DUP14 ADD PUSH2 0xBFB JUMP JUMPDEST SWAP8 POP POP PUSH1 0x60 PUSH2 0xDA9 DUP13 DUP3 DUP14 ADD PUSH2 0xBFB JUMP JUMPDEST SWAP7 POP POP PUSH1 0x80 DUP11 ADD CALLDATALOAD PUSH8 0xFFFFFFFFFFFFFFFF DUP2 GT ISZERO PUSH2 0xDCA JUMPI PUSH2 0xDC9 PUSH2 0x89F JUMP JUMPDEST JUMPDEST PUSH2 0xDD6 DUP13 DUP3 DUP14 ADD PUSH2 0xD17 JUMP JUMPDEST SWAP6 POP POP PUSH1 0xA0 DUP11 ADD CALLDATALOAD PUSH8 0xFFFFFFFFFFFFFFFF DUP2 GT ISZERO PUSH2 0xDF7 JUMPI PUSH2 0xDF6 PUSH2 0x89F JUMP JUMPDEST JUMPDEST PUSH2 0xE03 DUP13 DUP3 DUP14 ADD PUSH2 0xD17 JUMP JUMPDEST SWAP5 POP POP PUSH1 0xC0 DUP11 ADD CALLDATALOAD PUSH8 0xFFFFFFFFFFFFFFFF DUP2 GT ISZERO PUSH2 0xE24 JUMPI PUSH2 0xE23 PUSH2 0x89F JUMP JUMPDEST JUMPDEST PUSH2 0xE30 DUP13 DUP3 DUP14 ADD PUSH2 0xD17 JUMP JUMPDEST SWAP4 POP POP PUSH1 0xE0 DUP11 ADD CALLDATALOAD PUSH8 0xFFFFFFFFFFFFFFFF DUP2 GT ISZERO PUSH2 0xE51 JUMPI PUSH2 0xE50 PUSH2 0x89F JUMP JUMPDEST JUMPDEST PUSH2 0xE5D DUP13 DUP3 DUP14 ADD PUSH2 0xD17 JUMP JUMPDEST SWAP3 POP POP PUSH2 0x100 DUP11 ADD CALLDATALOAD PUSH8 0xFFFFFFFFFFFFFFFF DUP2 GT ISZERO PUSH2 0xE7F JUMPI PUSH2 0xE7E PUSH2 0x89F JUMP JUMPDEST JUMPDEST PUSH2 0xE8B DUP13 DUP3 DUP14 ADD PUSH2 0xD17 JUMP JUMPDEST SWAP2 POP POP SWAP3 SWAP6 SWAP9 POP SWAP3 SWAP6 SWAP9 POP SWAP3 SWAP6 SWAP9 JUMP JUMPDEST PUSH32 0x4E487B7100000000000000000000000000000000000000000000000000000000 PUSH1 0x0 MSTORE PUSH1 0x22 PUSH1 0x4 MSTORE PUSH1 0x24 PUSH1 0x0 REVERT JUMPDEST PUSH1 0x0 PUSH1 0x2 DUP3 DIV SWAP1 POP PUSH1 0x1 DUP3 AND DUP1 PUSH2 0xEE2 JUMPI PUSH1 0x7F DUP3 AND SWAP2 POP JUMPDEST PUSH1 0x20 DUP3 LT DUP2 SUB PUSH2 0xEF5 JUMPI PUSH2 0xEF4 PUSH2 0xE9B JUMP JUMPDEST JUMPDEST POP SWAP2 SWAP1 POP JUMP JUMPDEST PUSH1 0x0 DUP2 SWAP1 POP DUP2 PUSH1 0x0 MSTORE PUSH1 0x20 PUSH1 0x0 KECCAK256 SWAP1 POP SWAP2 SWAP1 POP JUMP JUMPDEST PUSH1 0x0 PUSH1 0x20 PUSH1 0x1F DUP4 ADD DIV SWAP1 POP SWAP2 SWAP1 POP JUMP JUMPDEST PUSH1 0x0 DUP3 DUP3 SHL SWAP1 POP SWAP3 SWAP2 POP POP JUMP JUMPDEST PUSH1 0x0 PUSH1 0x8 DUP4 MUL PUSH2 0xF5D PUSH32 0xFFFFFFFFFFFFFFFFFFFFFFFFFFFFFFFFFFFFFFFFFFFFFFFFFFFFFFFFFFFFFFFF DUP3 PUSH2 0xF20 JUMP JUMPDEST PUSH2 0xF67 DUP7 DUP4 PUSH2 0xF20 JUMP JUMPDEST SWAP6 POP DUP1 NOT DUP5 AND SWAP4 POP DUP1 DUP7 AND DUP5 OR SWAP3 POP POP POP SWAP4 SWAP3 POP POP POP JUMP JUMPDEST PUSH1 0x0 DUP2 SWAP1 POP SWAP2 SWAP1 POP JUMP JUMPDEST PUSH1 0x0 PUSH2 0xFA4 PUSH2 0xF9F PUSH2 0xF9A DUP5 PUSH2 0x92F JUMP JUMPDEST PUSH2 0xF7F JUMP JUMPDEST PUSH2 0x92F JUMP JUMPDEST SWAP1 POP SWAP2 SWAP1 POP JUMP JUMPDEST PUSH1 0x0 DUP2 SWAP1 POP SWAP2 SWAP1 POP JUMP JUMPDEST PUSH2 0xFBE DUP4 PUSH2 0xF89 JUMP JUMPDEST PUSH2 0xFD2 PUSH2 0xFCA DUP3 PUSH2 0xFAB JUMP JUMPDEST DUP5 DUP5 SLOAD PUSH2 0xF2D JUMP JUMPDEST DUP3 SSTORE POP POP POP POP JUMP JUMPDEST PUSH1 0x0 SWAP1 JUMP JUMPDEST PUSH2 0xFE7 PUSH2 0xFDA JUMP JUMPDEST PUSH2 0xFF2 DUP2 DUP5 DUP5 PUSH2 0xFB5 JUMP JUMPDEST POP POP POP JUMP JUMPDEST JUMPDEST DUP2 DUP2 LT ISZERO PUSH2 0x1016 JUMPI PUSH2 0x100B PUSH1 0x0 DUP3 PUSH2 0xFDF JUMP JUMPDEST PUSH1 0x1 DUP2 ADD SWAP1 POP PUSH2 0xFF8 JUMP JUMPDEST POP POP JUMP JUMPDEST PUSH1 0x1F DUP3 GT ISZERO PUSH2 0x105B JUMPI PUSH2 0x102C DUP2 PUSH2 0xEFB JUMP JUMPDEST PUSH2 0x1035 DUP5 PUSH2 0xF10 JUMP JUMPDEST DUP2 ADD PUSH1 0x20 DUP6 LT ISZERO PUSH2 0x1044 JUMPI DUP2 SWAP1 POP JUMPDEST PUSH2 0x1058 PUSH2 0x1050 DUP6 PUSH2 0xF10 JUMP JUMPDEST DUP4 ADD DUP3 PUSH2 0xFF7 JUMP JUMPDEST POP POP JUMPDEST POP POP POP JUMP JUMPDEST PUSH1 0x0 DUP3 DUP3 SHR SWAP1 POP SWAP3 SWAP2 POP POP JUMP JUMPDEST PUSH1 0x0 PUSH2 0x107E PUSH1 0x0 NOT DUP5 PUSH1 0x8 MUL PUSH2 0x1060 JUMP JUMPDEST NOT DUP1 DUP4 AND SWAP2 POP POP SWAP3 SWAP2 POP POP JUMP JUMPDEST PUSH1 0x0 PUSH2 0x1097 DUP4 DUP4 PUSH2 0x106D JUMP JUMPDEST SWAP2 POP DUP3 PUSH1 0x2 MUL DUP3 OR SWAP1 POP SWAP3 SWAP2 POP POP JUMP JUMPDEST PUSH2 0x10B0 DUP3 PUSH2 0x948 JUMP JUMPDEST PUSH8 0xFFFFFFFFFFFFFFFF DUP2 GT ISZERO PUSH2 0x10C9 JUMPI PUSH2 0x10C8 PUSH2 0xC1A JUMP JUMPDEST JUMPDEST PUSH2 0x10D3 DUP3 SLOAD PUSH2 0xECA JUMP JUMPDEST PUSH2 0x10DE DUP3 DUP3 DUP6 PUSH2 0x101A JUMP JUMPDEST PUSH1 0x0 PUSH1 0x20 SWAP1 POP PUSH1 0x1F DUP4 GT PUSH1 0x1 DUP2 EQ PUSH2 0x1111 JUMPI PUSH1 0x0 DUP5 ISZERO PUSH2 0x10FF JUMPI DUP3 DUP8 ADD MLOAD SWAP1 POP JUMPDEST PUSH2 0x1109 DUP6 DUP3 PUSH2 0x108B JUMP JUMPDEST DUP7 SSTORE POP PUSH2 0x1171 JUMP JUMPDEST PUSH1 0x1F NOT DUP5 AND PUSH2 0x111F DUP7 PUSH2 0xEFB JUMP JUMPDEST PUSH1 0x0 JUMPDEST DUP3 DUP2 LT ISZERO PUSH2 0x1147 JUMPI DUP5 DUP10 ADD MLOAD DUP3 SSTORE PUSH1 0x1 DUP3 ADD SWAP2 POP PUSH1 0x20 DUP6 ADD SWAP5 POP PUSH1 0x20 DUP2 ADD SWAP1 POP PUSH2 0x1122 JUMP JUMPDEST DUP7 DUP4 LT ISZERO PUSH2 0x1164 JUMPI DUP5 DUP10 ADD MLOAD PUSH2 0x1160 PUSH1 0x1F DUP10 AND DUP3 PUSH2 0x106D JUMP JUMPDEST DUP4 SSTORE POP JUMPDEST PUSH1 0x1 PUSH1 0x2 DUP9 MUL ADD DUP9 SSTORE POP POP POP JUMPDEST POP POP POP POP POP POP JUMP INVALID LOG2 PUSH5 0x6970667358 0x22 SLT KECCAK256 0x5F NUMBER SMOD DUP16 DUP14 0xEA 0xBF ADDMOD 0xAC 0xE3 INVALID 0xC5 0x2E PUSH9 0x3CC636AA7A3A7583D6 0xAF DELEGATECALL DUP16 SWAP5 EXTCODEHASH LOG1 0x4B 0xEA 0x29 PUSH5 0x736F6C6343 STOP ADDMOD SGT STOP CALLER "
				},
				"gasEstimates": {
					"creation": {
						"codeDepositCost": "905400",
						"executionCost": "942",
						"totalCost": "906342"
					},
					"external": {
						"createNFT(uint256,uint256,uint256,uint256,string,string,string,string,string)": "infinite",
						"getNFT(address)": "infinite",
						"nftData(address)": "infinite"
					}
				},
				"methodIdentifiers": {
					"createNFT(uint256,uint256,uint256,uint256,string,string,string,string,string)": "f8c9e72c",
					"getNFT(address)": "161a6c1e",
					"nftData(address)": "e69f34b0"
				}
			},
			"storageLayout": {
				"storage": [
					{
						"astId": 71,
						"contract": "trustless cross-chain/merkle proof/test222.sol:SimpleNFT",
						"label": "nftData",
						"offset": 0,
						"slot": "0",
						"type": "t_mapping(t_address,t_struct(NFT)66_storage)"
					}
				],
				"types": {
					"t_address": {
						"encoding": "inplace",
						"label": "address",
						"numberOfBytes": "20"
					},
					"t_mapping(t_address,t_struct(NFT)66_storage)": {
						"encoding": "mapping",
						"key": "t_address",
						"label": "mapping(address => struct SimpleNFT.NFT)",
						"numberOfBytes": "32",
						"value": "t_struct(NFT)66_storage"
					},
					"t_string_storage": {
						"encoding": "bytes",
						"label": "string",
						"numberOfBytes": "32"
					},
					"t_struct(NFT)66_storage": {
						"encoding": "inplace",
						"label": "struct SimpleNFT.NFT",
						"members": [
							{
								"astId": 49,
								"contract": "trustless cross-chain/merkle proof/test222.sol:SimpleNFT",
								"label": "attack",
								"offset": 0,
								"slot": "0",
								"type": "t_uint256"
							},
							{
								"astId": 51,
								"contract": "trustless cross-chain/merkle proof/test222.sol:SimpleNFT",
								"label": "defense",
								"offset": 0,
								"slot": "1",
								"type": "t_uint256"
							},
							{
								"astId": 53,
								"contract": "trustless cross-chain/merkle proof/test222.sol:SimpleNFT",
								"label": "experience",
								"offset": 0,
								"slot": "2",
								"type": "t_uint256"
							},
							{
								"astId": 55,
								"contract": "trustless cross-chain/merkle proof/test222.sol:SimpleNFT",
								"label": "luck",
								"offset": 0,
								"slot": "3",
								"type": "t_uint256"
							},
							{
								"astId": 57,
								"contract": "trustless cross-chain/merkle proof/test222.sol:SimpleNFT",
								"label": "city",
								"offset": 0,
								"slot": "4",
								"type": "t_string_storage"
							},
							{
								"astId": 59,
								"contract": "trustless cross-chain/merkle proof/test222.sol:SimpleNFT",
								"label": "country",
								"offset": 0,
								"slot": "5",
								"type": "t_string_storage"
							},
							{
								"astId": 61,
								"contract": "trustless cross-chain/merkle proof/test222.sol:SimpleNFT",
								"label": "name",
								"offset": 0,
								"slot": "6",
								"type": "t_string_storage"
							},
							{
								"astId": 63,
								"contract": "trustless cross-chain/merkle proof/test222.sol:SimpleNFT",
								"label": "extraField1",
								"offset": 0,
								"slot": "7",
								"type": "t_string_storage"
							},
							{
								"astId": 65,
								"contract": "trustless cross-chain/merkle proof/test222.sol:SimpleNFT",
								"label": "extraField2",
								"offset": 0,
								"slot": "8",
								"type": "t_string_storage"
							}
						],
						"numberOfBytes": "288"
					},
					"t_uint256": {
						"encoding": "inplace",
						"label": "uint256",
						"numberOfBytes": "32"
					}
				}
			},
			"userdoc": {
				"kind": "user",
				"methods": {},
				"version": 1
			}
		}
	}
}