{
	"trustless cross-chain/merkle proof/Test33.sol": {
		"NFTStorage": {
			"abi": [
				{
					"inputs": [
						{
							"internalType": "address",
							"name": "_simpleNFTAddress",
							"type": "address"
						}
					],
					"stateMutability": "nonpayable",
					"type": "constructor"
				},
				{
					"inputs": [],
					"name": "simpleNFTContract",
					"outputs": [
						{
							"internalType": "contract SimpleNFT",
							"name": "",
							"type": "address"
						}
					],
					"stateMutability": "view",
					"type": "function"
				},
				{
					"inputs": [
						{
							"internalType": "address",
							"name": "_nftOwner",
							"type": "address"
						}
					],
					"name": "storeNFT",
					"outputs": [],
					"stateMutability": "nonpayable",
					"type": "function"
				},
				{
					"inputs": [
						{
							"internalType": "address",
							"name": "",
							"type": "address"
						}
					],
					"name": "storedNFTs",
					"outputs": [
						{
							"internalType": "uint256",
							"name": "attack",
							"type": "uint256"
						},
						{
							"internalType": "uint256",
							"name": "defense",
							"type": "uint256"
						},
						{
							"internalType": "uint256",
							"name": "experience",
							"type": "uint256"
						},
						{
							"internalType": "uint256",
							"name": "luck",
							"type": "uint256"
						},
						{
							"internalType": "string",
							"name": "city",
							"type": "string"
						},
						{
							"internalType": "string",
							"name": "country",
							"type": "string"
						},
						{
							"internalType": "string",
							"name": "name",
							"type": "string"
						},
						{
							"internalType": "string",
							"name": "extraField1",
							"type": "string"
						},
						{
							"internalType": "string",
							"name": "extraField2",
							"type": "string"
						}
					],
					"stateMutability": "view",
					"type": "function"
				}
			],
			"devdoc": {
				"kind": "dev",
				"methods": {},
				"version": 1
			},
			"evm": {
				"assembly": "    /* \"trustless cross-chain/merkle proof/Test33.sol\":50:460  contract NFTStorage {... */\n  mstore(0x40, 0x80)\n    /* \"trustless cross-chain/merkle proof/Test33.sol\":174:278  constructor(address _simpleNFTAddress) {... */\n  callvalue\n  dup1\n  iszero\n  tag_1\n  jumpi\n  0x00\n  dup1\n  revert\ntag_1:\n  pop\n  mload(0x40)\n  sub(codesize, bytecodeSize)\n  dup1\n  bytecodeSize\n  dup4\n  codecopy\n  dup2\n  dup2\n  add\n  0x40\n  mstore\n  dup2\n  add\n  swap1\n  tag_2\n  swap2\n  swap1\n  tag_3\n  jump\t// in\ntag_2:\n    /* \"trustless cross-chain/merkle proof/Test33.sol\":253:270  _simpleNFTAddress */\n  dup1\n    /* \"trustless cross-chain/merkle proof/Test33.sol\":223:240  simpleNFTContract */\n  0x00\n  dup1\n    /* \"trustless cross-chain/merkle proof/Test33.sol\":223:271  simpleNFTContract = SimpleNFT(_simpleNFTAddress) */\n  0x0100\n  exp\n  dup2\n  sload\n  dup2\n  0xffffffffffffffffffffffffffffffffffffffff\n  mul\n  not\n  and\n  swap1\n  dup4\n  0xffffffffffffffffffffffffffffffffffffffff\n  and\n  mul\n  or\n  swap1\n  sstore\n  pop\n    /* \"trustless cross-chain/merkle proof/Test33.sol\":174:278  constructor(address _simpleNFTAddress) {... */\n  pop\n    /* \"trustless cross-chain/merkle proof/Test33.sol\":50:460  contract NFTStorage {... */\n  jump(tag_6)\n    /* \"#utility.yul\":88:205   */\ntag_8:\n    /* \"#utility.yul\":197:198   */\n  0x00\n    /* \"#utility.yul\":194:195   */\n  dup1\n    /* \"#utility.yul\":187:199   */\n  revert\n    /* \"#utility.yul\":334:460   */\ntag_10:\n    /* \"#utility.yul\":371:378   */\n  0x00\n    /* \"#utility.yul\":411:453   */\n  0xffffffffffffffffffffffffffffffffffffffff\n    /* \"#utility.yul\":404:409   */\n  dup3\n    /* \"#utility.yul\":400:454   */\n  and\n    /* \"#utility.yul\":389:454   */\n  swap1\n  pop\n    /* \"#utility.yul\":334:460   */\n  swap2\n  swap1\n  pop\n  jump\t// out\n    /* \"#utility.yul\":466:562   */\ntag_11:\n    /* \"#utility.yul\":503:510   */\n  0x00\n    /* \"#utility.yul\":532:556   */\n  tag_20\n    /* \"#utility.yul\":550:555   */\n  dup3\n    /* \"#utility.yul\":532:556   */\n  tag_10\n  jump\t// in\ntag_20:\n    /* \"#utility.yul\":521:556   */\n  swap1\n  pop\n    /* \"#utility.yul\":466:562   */\n  swap2\n  swap1\n  pop\n  jump\t// out\n    /* \"#utility.yul\":568:690   */\ntag_12:\n    /* \"#utility.yul\":641:665   */\n  tag_22\n    /* \"#utility.yul\":659:664   */\n  dup2\n    /* \"#utility.yul\":641:665   */\n  tag_11\n  jump\t// in\ntag_22:\n    /* \"#utility.yul\":634:639   */\n  dup2\n    /* \"#utility.yul\":631:666   */\n  eq\n    /* \"#utility.yul\":621:684   */\n  tag_23\n  jumpi\n    /* \"#utility.yul\":680:681   */\n  0x00\n    /* \"#utility.yul\":677:678   */\n  dup1\n    /* \"#utility.yul\":670:682   */\n  revert\n    /* \"#utility.yul\":621:684   */\ntag_23:\n    /* \"#utility.yul\":568:690   */\n  pop\n  jump\t// out\n    /* \"#utility.yul\":696:839   */\ntag_13:\n    /* \"#utility.yul\":753:758   */\n  0x00\n    /* \"#utility.yul\":784:790   */\n  dup2\n    /* \"#utility.yul\":778:791   */\n  mload\n    /* \"#utility.yul\":769:791   */\n  swap1\n  pop\n    /* \"#utility.yul\":800:833   */\n  tag_25\n    /* \"#utility.yul\":827:832   */\n  dup2\n    /* \"#utility.yul\":800:833   */\n  tag_12\n  jump\t// in\ntag_25:\n    /* \"#utility.yul\":696:839   */\n  swap3\n  swap2\n  pop\n  pop\n  jump\t// out\n    /* \"#utility.yul\":845:1196   */\ntag_3:\n    /* \"#utility.yul\":915:921   */\n  0x00\n    /* \"#utility.yul\":964:966   */\n  0x20\n    /* \"#utility.yul\":952:961   */\n  dup3\n    /* \"#utility.yul\":943:950   */\n  dup5\n    /* \"#utility.yul\":939:962   */\n  sub\n    /* \"#utility.yul\":935:967   */\n  slt\n    /* \"#utility.yul\":932:1051   */\n  iszero\n  tag_27\n  jumpi\n    /* \"#utility.yul\":970:1049   */\n  tag_28\n  tag_8\n  jump\t// in\ntag_28:\n    /* \"#utility.yul\":932:1051   */\ntag_27:\n    /* \"#utility.yul\":1090:1091   */\n  0x00\n    /* \"#utility.yul\":1115:1179   */\n  tag_29\n    /* \"#utility.yul\":1171:1178   */\n  dup5\n    /* \"#utility.yul\":1162:1168   */\n  dup3\n    /* \"#utility.yul\":1151:1160   */\n  dup6\n    /* \"#utility.yul\":1147:1169   */\n  add\n    /* \"#utility.yul\":1115:1179   */\n  tag_13\n  jump\t// in\ntag_29:\n    /* \"#utility.yul\":1105:1179   */\n  swap2\n  pop\n    /* \"#utility.yul\":1061:1189   */\n  pop\n    /* \"#utility.yul\":845:1196   */\n  swap3\n  swap2\n  pop\n  pop\n  jump\t// out\n    /* \"trustless cross-chain/merkle proof/Test33.sol\":50:460  contract NFTStorage {... */\ntag_6:\n  dataSize(sub_0)\n  dup1\n  dataOffset(sub_0)\n  0x00\n  codecopy\n  0x00\n  return\nstop\n\nsub_0: assembly {\n        /* \"trustless cross-chain/merkle proof/Test33.sol\":50:460  contract NFTStorage {... */\n      mstore(0x40, 0x80)\n      callvalue\n      dup1\n      iszero\n      tag_1\n      jumpi\n      0x00\n      dup1\n      revert\n    tag_1:\n      pop\n      jumpi(tag_2, lt(calldatasize, 0x04))\n      shr(0xe0, calldataload(0x00))\n      dup1\n      0x25b6bbfb\n      eq\n      tag_3\n      jumpi\n      dup1\n      0x62305f53\n      eq\n      tag_4\n      jumpi\n      dup1\n      0xda0e3eda\n      eq\n      tag_5\n      jumpi\n    tag_2:\n      0x00\n      dup1\n      revert\n        /* \"trustless cross-chain/merkle proof/Test33.sol\":76:110  SimpleNFT public simpleNFTContract */\n    tag_3:\n      tag_6\n      tag_7\n      jump\t// in\n    tag_6:\n      mload(0x40)\n      tag_8\n      swap2\n      swap1\n      tag_9\n      jump\t// in\n    tag_8:\n      mload(0x40)\n      dup1\n      swap2\n      sub\n      swap1\n      return\n        /* \"trustless cross-chain/merkle proof/Test33.sol\":284:458  function storeNFT(address _nftOwner) public {... */\n    tag_4:\n      tag_10\n      0x04\n      dup1\n      calldatasize\n      sub\n      dup2\n      add\n      swap1\n      tag_11\n      swap2\n      swap1\n      tag_12\n      jump\t// in\n    tag_11:\n      tag_13\n      jump\t// in\n    tag_10:\n      stop\n        /* \"trustless cross-chain/merkle proof/Test33.sol\":116:167  mapping(address => SimpleNFT.NFT) public storedNFTs */\n    tag_5:\n      tag_14\n      0x04\n      dup1\n      calldatasize\n      sub\n      dup2\n      add\n      swap1\n      tag_15\n      swap2\n      swap1\n      tag_12\n      jump\t// in\n    tag_15:\n      tag_16\n      jump\t// in\n    tag_14:\n      mload(0x40)\n      tag_17\n      swap10\n      swap9\n      swap8\n      swap7\n      swap6\n      swap5\n      swap4\n      swap3\n      swap2\n      swap1\n      tag_18\n      jump\t// in\n    tag_17:\n      mload(0x40)\n      dup1\n      swap2\n      sub\n      swap1\n      return\n        /* \"trustless cross-chain/merkle proof/Test33.sol\":76:110  SimpleNFT public simpleNFTContract */\n    tag_7:\n      0x00\n      dup1\n      sload\n      swap1\n      0x0100\n      exp\n      swap1\n      div\n      0xffffffffffffffffffffffffffffffffffffffff\n      and\n      dup2\n      jump\t// out\n        /* \"trustless cross-chain/merkle proof/Test33.sol\":284:458  function storeNFT(address _nftOwner) public {... */\n    tag_13:\n        /* \"trustless cross-chain/merkle proof/Test33.sol\":338:369  SimpleNFT.NFT memory nftToStore */\n      0x00\n        /* \"trustless cross-chain/merkle proof/Test33.sol\":372:389  simpleNFTContract */\n      dup1\n      0x00\n      swap1\n      sload\n      swap1\n      0x0100\n      exp\n      swap1\n      div\n      0xffffffffffffffffffffffffffffffffffffffff\n      and\n        /* \"trustless cross-chain/merkle proof/Test33.sol\":372:396  simpleNFTContract.getNFT */\n      0xffffffffffffffffffffffffffffffffffffffff\n      and\n      0x161a6c1e\n        /* \"trustless cross-chain/merkle proof/Test33.sol\":397:406  _nftOwner */\n      dup4\n        /* \"trustless cross-chain/merkle proof/Test33.sol\":372:407  simpleNFTContract.getNFT(_nftOwner) */\n      mload(0x40)\n      dup3\n      0xffffffff\n      and\n      0xe0\n      shl\n      dup2\n      mstore\n      0x04\n      add\n      tag_20\n      swap2\n      swap1\n      tag_21\n      jump\t// in\n    tag_20:\n      0x00\n      mload(0x40)\n      dup1\n      dup4\n      sub\n      dup2\n      dup7\n      gas\n      staticcall\n      iszero\n      dup1\n      iszero\n      tag_23\n      jumpi\n      returndatasize\n      0x00\n      dup1\n      returndatacopy\n      revert(0x00, returndatasize)\n    tag_23:\n      pop\n      pop\n      pop\n      pop\n      mload(0x40)\n      returndatasize\n      0x00\n      dup3\n      returndatacopy\n      returndatasize\n      not(0x1f)\n      0x1f\n      dup3\n      add\n      and\n      dup3\n      add\n      dup1\n      0x40\n      mstore\n      pop\n      dup2\n      add\n      swap1\n      tag_24\n      swap2\n      swap1\n      tag_25\n      jump\t// in\n    tag_24:\n        /* \"trustless cross-chain/merkle proof/Test33.sol\":338:407  SimpleNFT.NFT memory nftToStore = simpleNFTContract.getNFT(_nftOwner) */\n      swap1\n      pop\n        /* \"trustless cross-chain/merkle proof/Test33.sol\":441:451  nftToStore */\n      dup1\n        /* \"trustless cross-chain/merkle proof/Test33.sol\":417:427  storedNFTs */\n      0x01\n        /* \"trustless cross-chain/merkle proof/Test33.sol\":417:438  storedNFTs[_nftOwner] */\n      0x00\n        /* \"trustless cross-chain/merkle proof/Test33.sol\":428:437  _nftOwner */\n      dup5\n        /* \"trustless cross-chain/merkle proof/Test33.sol\":417:438  storedNFTs[_nftOwner] */\n      0xffffffffffffffffffffffffffffffffffffffff\n      and\n      0xffffffffffffffffffffffffffffffffffffffff\n      and\n      dup2\n      mstore\n      0x20\n      add\n      swap1\n      dup2\n      mstore\n      0x20\n      add\n      0x00\n      keccak256\n        /* \"trustless cross-chain/merkle proof/Test33.sol\":417:451  storedNFTs[_nftOwner] = nftToStore */\n      0x00\n      dup3\n      add\n      mload\n      dup2\n      0x00\n      add\n      sstore\n      0x20\n      dup3\n      add\n      mload\n      dup2\n      0x01\n      add\n      sstore\n      0x40\n      dup3\n      add\n      mload\n      dup2\n      0x02\n      add\n      sstore\n      0x60\n      dup3\n      add\n      mload\n      dup2\n      0x03\n      add\n      sstore\n      0x80\n      dup3\n      add\n      mload\n      dup2\n      0x04\n      add\n      swap1\n      dup2\n      tag_26\n      swap2\n      swap1\n      tag_27\n      jump\t// in\n    tag_26:\n      pop\n      0xa0\n      dup3\n      add\n      mload\n      dup2\n      0x05\n      add\n      swap1\n      dup2\n      tag_28\n      swap2\n      swap1\n      tag_27\n      jump\t// in\n    tag_28:\n      pop\n      0xc0\n      dup3\n      add\n      mload\n      dup2\n      0x06\n      add\n      swap1\n      dup2\n      tag_29\n      swap2\n      swap1\n      tag_27\n      jump\t// in\n    tag_29:\n      pop\n      0xe0\n      dup3\n      add\n      mload\n      dup2\n      0x07\n      add\n      swap1\n      dup2\n      tag_30\n      swap2\n      swap1\n      tag_27\n      jump\t// in\n    tag_30:\n      pop\n      0x0100\n      dup3\n      add\n      mload\n      dup2\n      0x08\n      add\n      swap1\n      dup2\n      tag_31\n      swap2\n      swap1\n      tag_27\n      jump\t// in\n    tag_31:\n      pop\n      swap1\n      pop\n      pop\n        /* \"trustless cross-chain/merkle proof/Test33.sol\":328:458  {... */\n      pop\n        /* \"trustless cross-chain/merkle proof/Test33.sol\":284:458  function storeNFT(address _nftOwner) public {... */\n      pop\n      jump\t// out\n        /* \"trustless cross-chain/merkle proof/Test33.sol\":116:167  mapping(address => SimpleNFT.NFT) public storedNFTs */\n    tag_16:\n      mstore(0x20, 0x01)\n      dup1\n      0x00\n      mstore\n      keccak256(0x00, 0x40)\n      0x00\n      swap2\n      pop\n      swap1\n      pop\n      dup1\n      0x00\n      add\n      sload\n      swap1\n      dup1\n      0x01\n      add\n      sload\n      swap1\n      dup1\n      0x02\n      add\n      sload\n      swap1\n      dup1\n      0x03\n      add\n      sload\n      swap1\n      dup1\n      0x04\n      add\n      dup1\n      sload\n      tag_32\n      swap1\n      tag_33\n      jump\t// in\n    tag_32:\n      dup1\n      0x1f\n      add\n      0x20\n      dup1\n      swap2\n      div\n      mul\n      0x20\n      add\n      mload(0x40)\n      swap1\n      dup2\n      add\n      0x40\n      mstore\n      dup1\n      swap3\n      swap2\n      swap1\n      dup2\n      dup2\n      mstore\n      0x20\n      add\n      dup3\n      dup1\n      sload\n      tag_34\n      swap1\n      tag_33\n      jump\t// in\n    tag_34:\n      dup1\n      iszero\n      tag_35\n      jumpi\n      dup1\n      0x1f\n      lt\n      tag_36\n      jumpi\n      0x0100\n      dup1\n      dup4\n      sload\n      div\n      mul\n      dup4\n      mstore\n      swap2\n      0x20\n      add\n      swap2\n      jump(tag_35)\n    tag_36:\n      dup3\n      add\n      swap2\n      swap1\n      0x00\n      mstore\n      keccak256(0x00, 0x20)\n      swap1\n    tag_37:\n      dup2\n      sload\n      dup2\n      mstore\n      swap1\n      0x01\n      add\n      swap1\n      0x20\n      add\n      dup1\n      dup4\n      gt\n      tag_37\n      jumpi\n      dup3\n      swap1\n      sub\n      0x1f\n      and\n      dup3\n      add\n      swap2\n    tag_35:\n      pop\n      pop\n      pop\n      pop\n      pop\n      swap1\n      dup1\n      0x05\n      add\n      dup1\n      sload\n      tag_38\n      swap1\n      tag_33\n      jump\t// in\n    tag_38:\n      dup1\n      0x1f\n      add\n      0x20\n      dup1\n      swap2\n      div\n      mul\n      0x20\n      add\n      mload(0x40)\n      swap1\n      dup2\n      add\n      0x40\n      mstore\n      dup1\n      swap3\n      swap2\n      swap1\n      dup2\n      dup2\n      mstore\n      0x20\n      add\n      dup3\n      dup1\n      sload\n      tag_39\n      swap1\n      tag_33\n      jump\t// in\n    tag_39:\n      dup1\n      iszero\n      tag_40\n      jumpi\n      dup1\n      0x1f\n      lt\n      tag_41\n      jumpi\n      0x0100\n      dup1\n      dup4\n      sload\n      div\n      mul\n      dup4\n      mstore\n      swap2\n      0x20\n      add\n      swap2\n      jump(tag_40)\n    tag_41:\n      dup3\n      add\n      swap2\n      swap1\n      0x00\n      mstore\n      keccak256(0x00, 0x20)\n      swap1\n    tag_42:\n      dup2\n      sload\n      dup2\n      mstore\n      swap1\n      0x01\n      add\n      swap1\n      0x20\n      add\n      dup1\n      dup4\n      gt\n      tag_42\n      jumpi\n      dup3\n      swap1\n      sub\n      0x1f\n      and\n      dup3\n      add\n      swap2\n    tag_40:\n      pop\n      pop\n      pop\n      pop\n      pop\n      swap1\n      dup1\n      0x06\n      add\n      dup1\n      sload\n      tag_43\n      swap1\n      tag_33\n      jump\t// in\n    tag_43:\n      dup1\n      0x1f\n      add\n      0x20\n      dup1\n      swap2\n      div\n      mul\n      0x20\n      add\n      mload(0x40)\n      swap1\n      dup2\n      add\n      0x40\n      mstore\n      dup1\n      swap3\n      swap2\n      swap1\n      dup2\n      dup2\n      mstore\n      0x20\n      add\n      dup3\n      dup1\n      sload\n      tag_44\n      swap1\n      tag_33\n      jump\t// in\n    tag_44:\n      dup1\n      iszero\n      tag_45\n      jumpi\n      dup1\n      0x1f\n      lt\n      tag_46\n      jumpi\n      0x0100\n      dup1\n      dup4\n      sload\n      div\n      mul\n      dup4\n      mstore\n      swap2\n      0x20\n      add\n      swap2\n      jump(tag_45)\n    tag_46:\n      dup3\n      add\n      swap2\n      swap1\n      0x00\n      mstore\n      keccak256(0x00, 0x20)\n      swap1\n    tag_47:\n      dup2\n      sload\n      dup2\n      mstore\n      swap1\n      0x01\n      add\n      swap1\n      0x20\n      add\n      dup1\n      dup4\n      gt\n      tag_47\n      jumpi\n      dup3\n      swap1\n      sub\n      0x1f\n      and\n      dup3\n      add\n      swap2\n    tag_45:\n      pop\n      pop\n      pop\n      pop\n      pop\n      swap1\n      dup1\n      0x07\n      add\n      dup1\n      sload\n      tag_48\n      swap1\n      tag_33\n      jump\t// in\n    tag_48:\n      dup1\n      0x1f\n      add\n      0x20\n      dup1\n      swap2\n      div\n      mul\n      0x20\n      add\n      mload(0x40)\n      swap1\n      dup2\n      add\n      0x40\n      mstore\n      dup1\n      swap3\n      swap2\n      swap1\n      dup2\n      dup2\n      mstore\n      0x20\n      add\n      dup3\n      dup1\n      sload\n      tag_49\n      swap1\n      tag_33\n      jump\t// in\n    tag_49:\n      dup1\n      iszero\n      tag_50\n      jumpi\n      dup1\n      0x1f\n      lt\n      tag_51\n      jumpi\n      0x0100\n      dup1\n      dup4\n      sload\n      div\n      mul\n      dup4\n      mstore\n      swap2\n      0x20\n      add\n      swap2\n      jump(tag_50)\n    tag_51:\n      dup3\n      add\n      swap2\n      swap1\n      0x00\n      mstore\n      keccak256(0x00, 0x20)\n      swap1\n    tag_52:\n      dup2\n      sload\n      dup2\n      mstore\n      swap1\n      0x01\n      add\n      swap1\n      0x20\n      add\n      dup1\n      dup4\n      gt\n      tag_52\n      jumpi\n      dup3\n      swap1\n      sub\n      0x1f\n      and\n      dup3\n      add\n      swap2\n    tag_50:\n      pop\n      pop\n      pop\n      pop\n      pop\n      swap1\n      dup1\n      0x08\n      add\n      dup1\n      sload\n      tag_53\n      swap1\n      tag_33\n      jump\t// in\n    tag_53:\n      dup1\n      0x1f\n      add\n      0x20\n      dup1\n      swap2\n      div\n      mul\n      0x20\n      add\n      mload(0x40)\n      swap1\n      dup2\n      add\n      0x40\n      mstore\n      dup1\n      swap3\n      swap2\n      swap1\n      dup2\n      dup2\n      mstore\n      0x20\n      add\n      dup3\n      dup1\n      sload\n      tag_54\n      swap1\n      tag_33\n      jump\t// in\n    tag_54:\n      dup1\n      iszero\n      tag_55\n      jumpi\n      dup1\n      0x1f\n      lt\n      tag_56\n      jumpi\n      0x0100\n      dup1\n      dup4\n      sload\n      div\n      mul\n      dup4\n      mstore\n      swap2\n      0x20\n      add\n      swap2\n      jump(tag_55)\n    tag_56:\n      dup3\n      add\n      swap2\n      swap1\n      0x00\n      mstore\n      keccak256(0x00, 0x20)\n      swap1\n    tag_57:\n      dup2\n      sload\n      dup2\n      mstore\n      swap1\n      0x01\n      add\n      swap1\n      0x20\n      add\n      dup1\n      dup4\n      gt\n      tag_57\n      jumpi\n      dup3\n      swap1\n      sub\n      0x1f\n      and\n      dup3\n      add\n      swap2\n    tag_55:\n      pop\n      pop\n      pop\n      pop\n      pop\n      swap1\n      pop\n      dup10\n      jump\t// out\n        /* \"#utility.yul\":7:133   */\n    tag_58:\n        /* \"#utility.yul\":44:51   */\n      0x00\n        /* \"#utility.yul\":84:126   */\n      0xffffffffffffffffffffffffffffffffffffffff\n        /* \"#utility.yul\":77:82   */\n      dup3\n        /* \"#utility.yul\":73:127   */\n      and\n        /* \"#utility.yul\":62:127   */\n      swap1\n      pop\n        /* \"#utility.yul\":7:133   */\n      swap2\n      swap1\n      pop\n      jump\t// out\n        /* \"#utility.yul\":139:199   */\n    tag_59:\n        /* \"#utility.yul\":167:170   */\n      0x00\n        /* \"#utility.yul\":188:193   */\n      dup2\n        /* \"#utility.yul\":181:193   */\n      swap1\n      pop\n        /* \"#utility.yul\":139:199   */\n      swap2\n      swap1\n      pop\n      jump\t// out\n        /* \"#utility.yul\":205:347   */\n    tag_60:\n        /* \"#utility.yul\":255:264   */\n      0x00\n        /* \"#utility.yul\":288:341   */\n      tag_110\n        /* \"#utility.yul\":306:340   */\n      tag_111\n        /* \"#utility.yul\":315:339   */\n      tag_112\n        /* \"#utility.yul\":333:338   */\n      dup5\n        /* \"#utility.yul\":315:339   */\n      tag_58\n      jump\t// in\n    tag_112:\n        /* \"#utility.yul\":306:340   */\n      tag_59\n      jump\t// in\n    tag_111:\n        /* \"#utility.yul\":288:341   */\n      tag_58\n      jump\t// in\n    tag_110:\n        /* \"#utility.yul\":275:341   */\n      swap1\n      pop\n        /* \"#utility.yul\":205:347   */\n      swap2\n      swap1\n      pop\n      jump\t// out\n        /* \"#utility.yul\":353:479   */\n    tag_61:\n        /* \"#utility.yul\":403:412   */\n      0x00\n        /* \"#utility.yul\":436:473   */\n      tag_114\n        /* \"#utility.yul\":467:472   */\n      dup3\n        /* \"#utility.yul\":436:473   */\n      tag_60\n      jump\t// in\n    tag_114:\n        /* \"#utility.yul\":423:473   */\n      swap1\n      pop\n        /* \"#utility.yul\":353:479   */\n      swap2\n      swap1\n      pop\n      jump\t// out\n        /* \"#utility.yul\":485:628   */\n    tag_62:\n        /* \"#utility.yul\":552:561   */\n      0x00\n        /* \"#utility.yul\":585:622   */\n      tag_116\n        /* \"#utility.yul\":616:621   */\n      dup3\n        /* \"#utility.yul\":585:622   */\n      tag_61\n      jump\t// in\n    tag_116:\n        /* \"#utility.yul\":572:622   */\n      swap1\n      pop\n        /* \"#utility.yul\":485:628   */\n      swap2\n      swap1\n      pop\n      jump\t// out\n        /* \"#utility.yul\":634:799   */\n    tag_63:\n        /* \"#utility.yul\":738:792   */\n      tag_118\n        /* \"#utility.yul\":786:791   */\n      dup2\n        /* \"#utility.yul\":738:792   */\n      tag_62\n      jump\t// in\n    tag_118:\n        /* \"#utility.yul\":733:736   */\n      dup3\n        /* \"#utility.yul\":726:793   */\n      mstore\n        /* \"#utility.yul\":634:799   */\n      pop\n      pop\n      jump\t// out\n        /* \"#utility.yul\":805:1061   */\n    tag_9:\n        /* \"#utility.yul\":915:919   */\n      0x00\n        /* \"#utility.yul\":953:955   */\n      0x20\n        /* \"#utility.yul\":942:951   */\n      dup3\n        /* \"#utility.yul\":938:956   */\n      add\n        /* \"#utility.yul\":930:956   */\n      swap1\n      pop\n        /* \"#utility.yul\":966:1054   */\n      tag_120\n        /* \"#utility.yul\":1051:1052   */\n      0x00\n        /* \"#utility.yul\":1040:1049   */\n      dup4\n        /* \"#utility.yul\":1036:1053   */\n      add\n        /* \"#utility.yul\":1027:1033   */\n      dup5\n        /* \"#utility.yul\":966:1054   */\n      tag_63\n      jump\t// in\n    tag_120:\n        /* \"#utility.yul\":805:1061   */\n      swap3\n      swap2\n      pop\n      pop\n      jump\t// out\n        /* \"#utility.yul\":1067:1142   */\n    tag_64:\n        /* \"#utility.yul\":1100:1106   */\n      0x00\n        /* \"#utility.yul\":1133:1135   */\n      0x40\n        /* \"#utility.yul\":1127:1136   */\n      mload\n        /* \"#utility.yul\":1117:1136   */\n      swap1\n      pop\n        /* \"#utility.yul\":1067:1142   */\n      swap1\n      jump\t// out\n        /* \"#utility.yul\":1148:1265   */\n    tag_65:\n        /* \"#utility.yul\":1257:1258   */\n      0x00\n        /* \"#utility.yul\":1254:1255   */\n      dup1\n        /* \"#utility.yul\":1247:1259   */\n      revert\n        /* \"#utility.yul\":1271:1388   */\n    tag_66:\n        /* \"#utility.yul\":1380:1381   */\n      0x00\n        /* \"#utility.yul\":1377:1378   */\n      dup1\n        /* \"#utility.yul\":1370:1382   */\n      revert\n        /* \"#utility.yul\":1394:1490   */\n    tag_67:\n        /* \"#utility.yul\":1431:1438   */\n      0x00\n        /* \"#utility.yul\":1460:1484   */\n      tag_125\n        /* \"#utility.yul\":1478:1483   */\n      dup3\n        /* \"#utility.yul\":1460:1484   */\n      tag_58\n      jump\t// in\n    tag_125:\n        /* \"#utility.yul\":1449:1484   */\n      swap1\n      pop\n        /* \"#utility.yul\":1394:1490   */\n      swap2\n      swap1\n      pop\n      jump\t// out\n        /* \"#utility.yul\":1496:1618   */\n    tag_68:\n        /* \"#utility.yul\":1569:1593   */\n      tag_127\n        /* \"#utility.yul\":1587:1592   */\n      dup2\n        /* \"#utility.yul\":1569:1593   */\n      tag_67\n      jump\t// in\n    tag_127:\n        /* \"#utility.yul\":1562:1567   */\n      dup2\n        /* \"#utility.yul\":1559:1594   */\n      eq\n        /* \"#utility.yul\":1549:1612   */\n      tag_128\n      jumpi\n        /* \"#utility.yul\":1608:1609   */\n      0x00\n        /* \"#utility.yul\":1605:1606   */\n      dup1\n        /* \"#utility.yul\":1598:1610   */\n      revert\n        /* \"#utility.yul\":1549:1612   */\n    tag_128:\n        /* \"#utility.yul\":1496:1618   */\n      pop\n      jump\t// out\n        /* \"#utility.yul\":1624:1763   */\n    tag_69:\n        /* \"#utility.yul\":1670:1675   */\n      0x00\n        /* \"#utility.yul\":1708:1714   */\n      dup2\n        /* \"#utility.yul\":1695:1715   */\n      calldataload\n        /* \"#utility.yul\":1686:1715   */\n      swap1\n      pop\n        /* \"#utility.yul\":1724:1757   */\n      tag_130\n        /* \"#utility.yul\":1751:1756   */\n      dup2\n        /* \"#utility.yul\":1724:1757   */\n      tag_68\n      jump\t// in\n    tag_130:\n        /* \"#utility.yul\":1624:1763   */\n      swap3\n      swap2\n      pop\n      pop\n      jump\t// out\n        /* \"#utility.yul\":1769:2098   */\n    tag_12:\n        /* \"#utility.yul\":1828:1834   */\n      0x00\n        /* \"#utility.yul\":1877:1879   */\n      0x20\n        /* \"#utility.yul\":1865:1874   */\n      dup3\n        /* \"#utility.yul\":1856:1863   */\n      dup5\n        /* \"#utility.yul\":1852:1875   */\n      sub\n        /* \"#utility.yul\":1848:1880   */\n      slt\n        /* \"#utility.yul\":1845:1964   */\n      iszero\n      tag_132\n      jumpi\n        /* \"#utility.yul\":1883:1962   */\n      tag_133\n      tag_65\n      jump\t// in\n    tag_133:\n        /* \"#utility.yul\":1845:1964   */\n    tag_132:\n        /* \"#utility.yul\":2003:2004   */\n      0x00\n        /* \"#utility.yul\":2028:2081   */\n      tag_134\n        /* \"#utility.yul\":2073:2080   */\n      dup5\n        /* \"#utility.yul\":2064:2070   */\n      dup3\n        /* \"#utility.yul\":2053:2062   */\n      dup6\n        /* \"#utility.yul\":2049:2071   */\n      add\n        /* \"#utility.yul\":2028:2081   */\n      tag_69\n      jump\t// in\n    tag_134:\n        /* \"#utility.yul\":2018:2081   */\n      swap2\n      pop\n        /* \"#utility.yul\":1974:2091   */\n      pop\n        /* \"#utility.yul\":1769:2098   */\n      swap3\n      swap2\n      pop\n      pop\n      jump\t// out\n        /* \"#utility.yul\":2104:2181   */\n    tag_70:\n        /* \"#utility.yul\":2141:2148   */\n      0x00\n        /* \"#utility.yul\":2170:2175   */\n      dup2\n        /* \"#utility.yul\":2159:2175   */\n      swap1\n      pop\n        /* \"#utility.yul\":2104:2181   */\n      swap2\n      swap1\n      pop\n      jump\t// out\n        /* \"#utility.yul\":2187:2305   */\n    tag_71:\n        /* \"#utility.yul\":2274:2298   */\n      tag_137\n        /* \"#utility.yul\":2292:2297   */\n      dup2\n        /* \"#utility.yul\":2274:2298   */\n      tag_70\n      jump\t// in\n    tag_137:\n        /* \"#utility.yul\":2269:2272   */\n      dup3\n        /* \"#utility.yul\":2262:2299   */\n      mstore\n        /* \"#utility.yul\":2187:2305   */\n      pop\n      pop\n      jump\t// out\n        /* \"#utility.yul\":2311:2410   */\n    tag_72:\n        /* \"#utility.yul\":2363:2369   */\n      0x00\n        /* \"#utility.yul\":2397:2402   */\n      dup2\n        /* \"#utility.yul\":2391:2403   */\n      mload\n        /* \"#utility.yul\":2381:2403   */\n      swap1\n      pop\n        /* \"#utility.yul\":2311:2410   */\n      swap2\n      swap1\n      pop\n      jump\t// out\n        /* \"#utility.yul\":2416:2585   */\n    tag_73:\n        /* \"#utility.yul\":2500:2511   */\n      0x00\n        /* \"#utility.yul\":2534:2540   */\n      dup3\n        /* \"#utility.yul\":2529:2532   */\n      dup3\n        /* \"#utility.yul\":2522:2541   */\n      mstore\n        /* \"#utility.yul\":2574:2578   */\n      0x20\n        /* \"#utility.yul\":2569:2572   */\n      dup3\n        /* \"#utility.yul\":2565:2579   */\n      add\n        /* \"#utility.yul\":2550:2579   */\n      swap1\n      pop\n        /* \"#utility.yul\":2416:2585   */\n      swap3\n      swap2\n      pop\n      pop\n      jump\t// out\n        /* \"#utility.yul\":2591:2837   */\n    tag_74:\n        /* \"#utility.yul\":2672:2673   */\n      0x00\n        /* \"#utility.yul\":2682:2795   */\n    tag_141:\n        /* \"#utility.yul\":2696:2702   */\n      dup4\n        /* \"#utility.yul\":2693:2694   */\n      dup2\n        /* \"#utility.yul\":2690:2703   */\n      lt\n        /* \"#utility.yul\":2682:2795   */\n      iszero\n      tag_143\n      jumpi\n        /* \"#utility.yul\":2781:2782   */\n      dup1\n        /* \"#utility.yul\":2776:2779   */\n      dup3\n        /* \"#utility.yul\":2772:2783   */\n      add\n        /* \"#utility.yul\":2766:2784   */\n      mload\n        /* \"#utility.yul\":2762:2763   */\n      dup2\n        /* \"#utility.yul\":2757:2760   */\n      dup5\n        /* \"#utility.yul\":2753:2764   */\n      add\n        /* \"#utility.yul\":2746:2785   */\n      mstore\n        /* \"#utility.yul\":2718:2720   */\n      0x20\n        /* \"#utility.yul\":2715:2716   */\n      dup2\n        /* \"#utility.yul\":2711:2721   */\n      add\n        /* \"#utility.yul\":2706:2721   */\n      swap1\n      pop\n        /* \"#utility.yul\":2682:2795   */\n      jump(tag_141)\n    tag_143:\n        /* \"#utility.yul\":2829:2830   */\n      0x00\n        /* \"#utility.yul\":2820:2826   */\n      dup5\n        /* \"#utility.yul\":2815:2818   */\n      dup5\n        /* \"#utility.yul\":2811:2827   */\n      add\n        /* \"#utility.yul\":2804:2831   */\n      mstore\n        /* \"#utility.yul\":2653:2837   */\n      pop\n        /* \"#utility.yul\":2591:2837   */\n      pop\n      pop\n      pop\n      jump\t// out\n        /* \"#utility.yul\":2843:2945   */\n    tag_75:\n        /* \"#utility.yul\":2884:2890   */\n      0x00\n        /* \"#utility.yul\":2935:2937   */\n      0x1f\n        /* \"#utility.yul\":2931:2938   */\n      not\n        /* \"#utility.yul\":2926:2928   */\n      0x1f\n        /* \"#utility.yul\":2919:2924   */\n      dup4\n        /* \"#utility.yul\":2915:2929   */\n      add\n        /* \"#utility.yul\":2911:2939   */\n      and\n        /* \"#utility.yul\":2901:2939   */\n      swap1\n      pop\n        /* \"#utility.yul\":2843:2945   */\n      swap2\n      swap1\n      pop\n      jump\t// out\n        /* \"#utility.yul\":2951:3328   */\n    tag_76:\n        /* \"#utility.yul\":3039:3042   */\n      0x00\n        /* \"#utility.yul\":3067:3106   */\n      tag_146\n        /* \"#utility.yul\":3100:3105   */\n      dup3\n        /* \"#utility.yul\":3067:3106   */\n      tag_72\n      jump\t// in\n    tag_146:\n        /* \"#utility.yul\":3122:3193   */\n      tag_147\n        /* \"#utility.yul\":3186:3192   */\n      dup2\n        /* \"#utility.yul\":3181:3184   */\n      dup6\n        /* \"#utility.yul\":3122:3193   */\n      tag_73\n      jump\t// in\n    tag_147:\n        /* \"#utility.yul\":3115:3193   */\n      swap4\n      pop\n        /* \"#utility.yul\":3202:3267   */\n      tag_148\n        /* \"#utility.yul\":3260:3266   */\n      dup2\n        /* \"#utility.yul\":3255:3258   */\n      dup6\n        /* \"#utility.yul\":3248:3252   */\n      0x20\n        /* \"#utility.yul\":3241:3246   */\n      dup7\n        /* \"#utility.yul\":3237:3253   */\n      add\n        /* \"#utility.yul\":3202:3267   */\n      tag_74\n      jump\t// in\n    tag_148:\n        /* \"#utility.yul\":3292:3321   */\n      tag_149\n        /* \"#utility.yul\":3314:3320   */\n      dup2\n        /* \"#utility.yul\":3292:3321   */\n      tag_75\n      jump\t// in\n    tag_149:\n        /* \"#utility.yul\":3287:3290   */\n      dup5\n        /* \"#utility.yul\":3283:3322   */\n      add\n        /* \"#utility.yul\":3276:3322   */\n      swap2\n      pop\n        /* \"#utility.yul\":3043:3328   */\n      pop\n        /* \"#utility.yul\":2951:3328   */\n      swap3\n      swap2\n      pop\n      pop\n      jump\t// out\n        /* \"#utility.yul\":3334:4897   */\n    tag_18:\n        /* \"#utility.yul\":3751:3755   */\n      0x00\n        /* \"#utility.yul\":3789:3792   */\n      0x0120\n        /* \"#utility.yul\":3778:3787   */\n      dup3\n        /* \"#utility.yul\":3774:3793   */\n      add\n        /* \"#utility.yul\":3766:3793   */\n      swap1\n      pop\n        /* \"#utility.yul\":3803:3874   */\n      tag_151\n        /* \"#utility.yul\":3871:3872   */\n      0x00\n        /* \"#utility.yul\":3860:3869   */\n      dup4\n        /* \"#utility.yul\":3856:3873   */\n      add\n        /* \"#utility.yul\":3847:3853   */\n      dup13\n        /* \"#utility.yul\":3803:3874   */\n      tag_71\n      jump\t// in\n    tag_151:\n        /* \"#utility.yul\":3884:3956   */\n      tag_152\n        /* \"#utility.yul\":3952:3954   */\n      0x20\n        /* \"#utility.yul\":3941:3950   */\n      dup4\n        /* \"#utility.yul\":3937:3955   */\n      add\n        /* \"#utility.yul\":3928:3934   */\n      dup12\n        /* \"#utility.yul\":3884:3956   */\n      tag_71\n      jump\t// in\n    tag_152:\n        /* \"#utility.yul\":3966:4038   */\n      tag_153\n        /* \"#utility.yul\":4034:4036   */\n      0x40\n        /* \"#utility.yul\":4023:4032   */\n      dup4\n        /* \"#utility.yul\":4019:4037   */\n      add\n        /* \"#utility.yul\":4010:4016   */\n      dup11\n        /* \"#utility.yul\":3966:4038   */\n      tag_71\n      jump\t// in\n    tag_153:\n        /* \"#utility.yul\":4048:4120   */\n      tag_154\n        /* \"#utility.yul\":4116:4118   */\n      0x60\n        /* \"#utility.yul\":4105:4114   */\n      dup4\n        /* \"#utility.yul\":4101:4119   */\n      add\n        /* \"#utility.yul\":4092:4098   */\n      dup10\n        /* \"#utility.yul\":4048:4120   */\n      tag_71\n      jump\t// in\n    tag_154:\n        /* \"#utility.yul\":4168:4177   */\n      dup2\n        /* \"#utility.yul\":4162:4166   */\n      dup2\n        /* \"#utility.yul\":4158:4178   */\n      sub\n        /* \"#utility.yul\":4152:4155   */\n      0x80\n        /* \"#utility.yul\":4141:4150   */\n      dup4\n        /* \"#utility.yul\":4137:4156   */\n      add\n        /* \"#utility.yul\":4130:4179   */\n      mstore\n        /* \"#utility.yul\":4196:4274   */\n      tag_155\n        /* \"#utility.yul\":4269:4273   */\n      dup2\n        /* \"#utility.yul\":4260:4266   */\n      dup9\n        /* \"#utility.yul\":4196:4274   */\n      tag_76\n      jump\t// in\n    tag_155:\n        /* \"#utility.yul\":4188:4274   */\n      swap1\n      pop\n        /* \"#utility.yul\":4322:4331   */\n      dup2\n        /* \"#utility.yul\":4316:4320   */\n      dup2\n        /* \"#utility.yul\":4312:4332   */\n      sub\n        /* \"#utility.yul\":4306:4309   */\n      0xa0\n        /* \"#utility.yul\":4295:4304   */\n      dup4\n        /* \"#utility.yul\":4291:4310   */\n      add\n        /* \"#utility.yul\":4284:4333   */\n      mstore\n        /* \"#utility.yul\":4350:4428   */\n      tag_156\n        /* \"#utility.yul\":4423:4427   */\n      dup2\n        /* \"#utility.yul\":4414:4420   */\n      dup8\n        /* \"#utility.yul\":4350:4428   */\n      tag_76\n      jump\t// in\n    tag_156:\n        /* \"#utility.yul\":4342:4428   */\n      swap1\n      pop\n        /* \"#utility.yul\":4476:4485   */\n      dup2\n        /* \"#utility.yul\":4470:4474   */\n      dup2\n        /* \"#utility.yul\":4466:4486   */\n      sub\n        /* \"#utility.yul\":4460:4463   */\n      0xc0\n        /* \"#utility.yul\":4449:4458   */\n      dup4\n        /* \"#utility.yul\":4445:4464   */\n      add\n        /* \"#utility.yul\":4438:4487   */\n      mstore\n        /* \"#utility.yul\":4504:4582   */\n      tag_157\n        /* \"#utility.yul\":4577:4581   */\n      dup2\n        /* \"#utility.yul\":4568:4574   */\n      dup7\n        /* \"#utility.yul\":4504:4582   */\n      tag_76\n      jump\t// in\n    tag_157:\n        /* \"#utility.yul\":4496:4582   */\n      swap1\n      pop\n        /* \"#utility.yul\":4630:4639   */\n      dup2\n        /* \"#utility.yul\":4624:4628   */\n      dup2\n        /* \"#utility.yul\":4620:4640   */\n      sub\n        /* \"#utility.yul\":4614:4617   */\n      0xe0\n        /* \"#utility.yul\":4603:4612   */\n      dup4\n        /* \"#utility.yul\":4599:4618   */\n      add\n        /* \"#utility.yul\":4592:4641   */\n      mstore\n        /* \"#utility.yul\":4658:4736   */\n      tag_158\n        /* \"#utility.yul\":4731:4735   */\n      dup2\n        /* \"#utility.yul\":4722:4728   */\n      dup6\n        /* \"#utility.yul\":4658:4736   */\n      tag_76\n      jump\t// in\n    tag_158:\n        /* \"#utility.yul\":4650:4736   */\n      swap1\n      pop\n        /* \"#utility.yul\":4784:4793   */\n      dup2\n        /* \"#utility.yul\":4778:4782   */\n      dup2\n        /* \"#utility.yul\":4774:4794   */\n      sub\n        /* \"#utility.yul\":4768:4771   */\n      0x0100\n        /* \"#utility.yul\":4757:4766   */\n      dup4\n        /* \"#utility.yul\":4753:4772   */\n      add\n        /* \"#utility.yul\":4746:4795   */\n      mstore\n        /* \"#utility.yul\":4812:4890   */\n      tag_159\n        /* \"#utility.yul\":4885:4889   */\n      dup2\n        /* \"#utility.yul\":4876:4882   */\n      dup5\n        /* \"#utility.yul\":4812:4890   */\n      tag_76\n      jump\t// in\n    tag_159:\n        /* \"#utility.yul\":4804:4890   */\n      swap1\n      pop\n        /* \"#utility.yul\":3334:4897   */\n      swap11\n      swap10\n      pop\n      pop\n      pop\n      pop\n      pop\n      pop\n      pop\n      pop\n      pop\n      pop\n      jump\t// out\n        /* \"#utility.yul\":4903:5021   */\n    tag_77:\n        /* \"#utility.yul\":4990:5014   */\n      tag_161\n        /* \"#utility.yul\":5008:5013   */\n      dup2\n        /* \"#utility.yul\":4990:5014   */\n      tag_67\n      jump\t// in\n    tag_161:\n        /* \"#utility.yul\":4985:4988   */\n      dup3\n        /* \"#utility.yul\":4978:5015   */\n      mstore\n        /* \"#utility.yul\":4903:5021   */\n      pop\n      pop\n      jump\t// out\n        /* \"#utility.yul\":5027:5249   */\n    tag_21:\n        /* \"#utility.yul\":5120:5124   */\n      0x00\n        /* \"#utility.yul\":5158:5160   */\n      0x20\n        /* \"#utility.yul\":5147:5156   */\n      dup3\n        /* \"#utility.yul\":5143:5161   */\n      add\n        /* \"#utility.yul\":5135:5161   */\n      swap1\n      pop\n        /* \"#utility.yul\":5171:5242   */\n      tag_163\n        /* \"#utility.yul\":5239:5240   */\n      0x00\n        /* \"#utility.yul\":5228:5237   */\n      dup4\n        /* \"#utility.yul\":5224:5241   */\n      add\n        /* \"#utility.yul\":5215:5221   */\n      dup5\n        /* \"#utility.yul\":5171:5242   */\n      tag_77\n      jump\t// in\n    tag_163:\n        /* \"#utility.yul\":5027:5249   */\n      swap3\n      swap2\n      pop\n      pop\n      jump\t// out\n        /* \"#utility.yul\":5255:5372   */\n    tag_78:\n        /* \"#utility.yul\":5364:5365   */\n      0x00\n        /* \"#utility.yul\":5361:5362   */\n      dup1\n        /* \"#utility.yul\":5354:5366   */\n      revert\n        /* \"#utility.yul\":5378:5558   */\n    tag_79:\n        /* \"#utility.yul\":5426:5503   */\n      0x4e487b7100000000000000000000000000000000000000000000000000000000\n        /* \"#utility.yul\":5423:5424   */\n      0x00\n        /* \"#utility.yul\":5416:5504   */\n      mstore\n        /* \"#utility.yul\":5523:5527   */\n      0x41\n        /* \"#utility.yul\":5520:5521   */\n      0x04\n        /* \"#utility.yul\":5513:5528   */\n      mstore\n        /* \"#utility.yul\":5547:5551   */\n      0x24\n        /* \"#utility.yul\":5544:5545   */\n      0x00\n        /* \"#utility.yul\":5537:5552   */\n      revert\n        /* \"#utility.yul\":5564:5845   */\n    tag_80:\n        /* \"#utility.yul\":5647:5674   */\n      tag_167\n        /* \"#utility.yul\":5669:5673   */\n      dup3\n        /* \"#utility.yul\":5647:5674   */\n      tag_75\n      jump\t// in\n    tag_167:\n        /* \"#utility.yul\":5639:5645   */\n      dup2\n        /* \"#utility.yul\":5635:5675   */\n      add\n        /* \"#utility.yul\":5777:5783   */\n      dup2\n        /* \"#utility.yul\":5765:5775   */\n      dup2\n        /* \"#utility.yul\":5762:5784   */\n      lt\n        /* \"#utility.yul\":5741:5759   */\n      0xffffffffffffffff\n        /* \"#utility.yul\":5729:5739   */\n      dup3\n        /* \"#utility.yul\":5726:5760   */\n      gt\n        /* \"#utility.yul\":5723:5785   */\n      or\n        /* \"#utility.yul\":5720:5808   */\n      iszero\n      tag_168\n      jumpi\n        /* \"#utility.yul\":5788:5806   */\n      tag_169\n      tag_79\n      jump\t// in\n    tag_169:\n        /* \"#utility.yul\":5720:5808   */\n    tag_168:\n        /* \"#utility.yul\":5828:5838   */\n      dup1\n        /* \"#utility.yul\":5824:5826   */\n      0x40\n        /* \"#utility.yul\":5817:5839   */\n      mstore\n        /* \"#utility.yul\":5607:5845   */\n      pop\n        /* \"#utility.yul\":5564:5845   */\n      pop\n      pop\n      jump\t// out\n        /* \"#utility.yul\":5851:5980   */\n    tag_81:\n        /* \"#utility.yul\":5885:5891   */\n      0x00\n        /* \"#utility.yul\":5912:5932   */\n      tag_171\n      tag_64\n      jump\t// in\n    tag_171:\n        /* \"#utility.yul\":5902:5932   */\n      swap1\n      pop\n        /* \"#utility.yul\":5941:5974   */\n      tag_172\n        /* \"#utility.yul\":5969:5973   */\n      dup3\n        /* \"#utility.yul\":5961:5967   */\n      dup3\n        /* \"#utility.yul\":5941:5974   */\n      tag_80\n      jump\t// in\n    tag_172:\n        /* \"#utility.yul\":5851:5980   */\n      swap2\n      swap1\n      pop\n      jump\t// out\n        /* \"#utility.yul\":5986:6103   */\n    tag_82:\n        /* \"#utility.yul\":6095:6096   */\n      0x00\n        /* \"#utility.yul\":6092:6093   */\n      dup1\n        /* \"#utility.yul\":6085:6097   */\n      revert\n        /* \"#utility.yul\":6109:6231   */\n    tag_83:\n        /* \"#utility.yul\":6182:6206   */\n      tag_175\n        /* \"#utility.yul\":6200:6205   */\n      dup2\n        /* \"#utility.yul\":6182:6206   */\n      tag_70\n      jump\t// in\n    tag_175:\n        /* \"#utility.yul\":6175:6180   */\n      dup2\n        /* \"#utility.yul\":6172:6207   */\n      eq\n        /* \"#utility.yul\":6162:6225   */\n      tag_176\n      jumpi\n        /* \"#utility.yul\":6221:6222   */\n      0x00\n        /* \"#utility.yul\":6218:6219   */\n      dup1\n        /* \"#utility.yul\":6211:6223   */\n      revert\n        /* \"#utility.yul\":6162:6225   */\n    tag_176:\n        /* \"#utility.yul\":6109:6231   */\n      pop\n      jump\t// out\n        /* \"#utility.yul\":6237:6380   */\n    tag_84:\n        /* \"#utility.yul\":6294:6299   */\n      0x00\n        /* \"#utility.yul\":6325:6331   */\n      dup2\n        /* \"#utility.yul\":6319:6332   */\n      mload\n        /* \"#utility.yul\":6310:6332   */\n      swap1\n      pop\n        /* \"#utility.yul\":6341:6374   */\n      tag_178\n        /* \"#utility.yul\":6368:6373   */\n      dup2\n        /* \"#utility.yul\":6341:6374   */\n      tag_83\n      jump\t// in\n    tag_178:\n        /* \"#utility.yul\":6237:6380   */\n      swap3\n      swap2\n      pop\n      pop\n      jump\t// out\n        /* \"#utility.yul\":6386:6503   */\n    tag_85:\n        /* \"#utility.yul\":6495:6496   */\n      0x00\n        /* \"#utility.yul\":6492:6493   */\n      dup1\n        /* \"#utility.yul\":6485:6497   */\n      revert\n        /* \"#utility.yul\":6509:6626   */\n    tag_86:\n        /* \"#utility.yul\":6618:6619   */\n      0x00\n        /* \"#utility.yul\":6615:6616   */\n      dup1\n        /* \"#utility.yul\":6608:6620   */\n      revert\n        /* \"#utility.yul\":6632:6940   */\n    tag_87:\n        /* \"#utility.yul\":6694:6698   */\n      0x00\n        /* \"#utility.yul\":6784:6802   */\n      0xffffffffffffffff\n        /* \"#utility.yul\":6776:6782   */\n      dup3\n        /* \"#utility.yul\":6773:6803   */\n      gt\n        /* \"#utility.yul\":6770:6826   */\n      iszero\n      tag_182\n      jumpi\n        /* \"#utility.yul\":6806:6824   */\n      tag_183\n      tag_79\n      jump\t// in\n    tag_183:\n        /* \"#utility.yul\":6770:6826   */\n    tag_182:\n        /* \"#utility.yul\":6844:6873   */\n      tag_184\n        /* \"#utility.yul\":6866:6872   */\n      dup3\n        /* \"#utility.yul\":6844:6873   */\n      tag_75\n      jump\t// in\n    tag_184:\n        /* \"#utility.yul\":6836:6873   */\n      swap1\n      pop\n        /* \"#utility.yul\":6928:6932   */\n      0x20\n        /* \"#utility.yul\":6922:6926   */\n      dup2\n        /* \"#utility.yul\":6918:6933   */\n      add\n        /* \"#utility.yul\":6910:6933   */\n      swap1\n      pop\n        /* \"#utility.yul\":6632:6940   */\n      swap2\n      swap1\n      pop\n      jump\t// out\n        /* \"#utility.yul\":6946:7380   */\n    tag_88:\n        /* \"#utility.yul\":7035:7040   */\n      0x00\n        /* \"#utility.yul\":7060:7126   */\n      tag_186\n        /* \"#utility.yul\":7076:7125   */\n      tag_187\n        /* \"#utility.yul\":7118:7124   */\n      dup5\n        /* \"#utility.yul\":7076:7125   */\n      tag_87\n      jump\t// in\n    tag_187:\n        /* \"#utility.yul\":7060:7126   */\n      tag_81\n      jump\t// in\n    tag_186:\n        /* \"#utility.yul\":7051:7126   */\n      swap1\n      pop\n        /* \"#utility.yul\":7149:7155   */\n      dup3\n        /* \"#utility.yul\":7142:7147   */\n      dup2\n        /* \"#utility.yul\":7135:7156   */\n      mstore\n        /* \"#utility.yul\":7187:7191   */\n      0x20\n        /* \"#utility.yul\":7180:7185   */\n      dup2\n        /* \"#utility.yul\":7176:7192   */\n      add\n        /* \"#utility.yul\":7225:7228   */\n      dup5\n        /* \"#utility.yul\":7216:7222   */\n      dup5\n        /* \"#utility.yul\":7211:7214   */\n      dup5\n        /* \"#utility.yul\":7207:7223   */\n      add\n        /* \"#utility.yul\":7204:7229   */\n      gt\n        /* \"#utility.yul\":7201:7313   */\n      iszero\n      tag_188\n      jumpi\n        /* \"#utility.yul\":7232:7311   */\n      tag_189\n      tag_86\n      jump\t// in\n    tag_189:\n        /* \"#utility.yul\":7201:7313   */\n    tag_188:\n        /* \"#utility.yul\":7322:7374   */\n      tag_190\n        /* \"#utility.yul\":7367:7373   */\n      dup5\n        /* \"#utility.yul\":7362:7365   */\n      dup3\n        /* \"#utility.yul\":7357:7360   */\n      dup6\n        /* \"#utility.yul\":7322:7374   */\n      tag_74\n      jump\t// in\n    tag_190:\n        /* \"#utility.yul\":7041:7380   */\n      pop\n        /* \"#utility.yul\":6946:7380   */\n      swap4\n      swap3\n      pop\n      pop\n      pop\n      jump\t// out\n        /* \"#utility.yul\":7400:7755   */\n    tag_89:\n        /* \"#utility.yul\":7467:7472   */\n      0x00\n        /* \"#utility.yul\":7516:7519   */\n      dup3\n        /* \"#utility.yul\":7509:7513   */\n      0x1f\n        /* \"#utility.yul\":7501:7507   */\n      dup4\n        /* \"#utility.yul\":7497:7514   */\n      add\n        /* \"#utility.yul\":7493:7520   */\n      slt\n        /* \"#utility.yul\":7483:7605   */\n      tag_192\n      jumpi\n        /* \"#utility.yul\":7524:7603   */\n      tag_193\n      tag_85\n      jump\t// in\n    tag_193:\n        /* \"#utility.yul\":7483:7605   */\n    tag_192:\n        /* \"#utility.yul\":7634:7640   */\n      dup2\n        /* \"#utility.yul\":7628:7641   */\n      mload\n        /* \"#utility.yul\":7659:7749   */\n      tag_194\n        /* \"#utility.yul\":7745:7748   */\n      dup5\n        /* \"#utility.yul\":7737:7743   */\n      dup3\n        /* \"#utility.yul\":7730:7734   */\n      0x20\n        /* \"#utility.yul\":7722:7728   */\n      dup7\n        /* \"#utility.yul\":7718:7735   */\n      add\n        /* \"#utility.yul\":7659:7749   */\n      tag_88\n      jump\t// in\n    tag_194:\n        /* \"#utility.yul\":7650:7749   */\n      swap2\n      pop\n        /* \"#utility.yul\":7473:7755   */\n      pop\n        /* \"#utility.yul\":7400:7755   */\n      swap3\n      swap2\n      pop\n      pop\n      jump\t// out\n        /* \"#utility.yul\":7789:10448   */\n    tag_90:\n        /* \"#utility.yul\":7868:7873   */\n      0x00\n        /* \"#utility.yul\":7912:7918   */\n      0x0120\n        /* \"#utility.yul\":7900:7909   */\n      dup3\n        /* \"#utility.yul\":7895:7898   */\n      dup5\n        /* \"#utility.yul\":7891:7910   */\n      sub\n        /* \"#utility.yul\":7887:7919   */\n      slt\n        /* \"#utility.yul\":7884:8003   */\n      iszero\n      tag_196\n      jumpi\n        /* \"#utility.yul\":7922:8001   */\n      tag_197\n      tag_78\n      jump\t// in\n    tag_197:\n        /* \"#utility.yul\":7884:8003   */\n    tag_196:\n        /* \"#utility.yul\":8021:8044   */\n      tag_198\n        /* \"#utility.yul\":8037:8043   */\n      0x0120\n        /* \"#utility.yul\":8021:8044   */\n      tag_81\n      jump\t// in\n    tag_198:\n        /* \"#utility.yul\":8012:8044   */\n      swap1\n      pop\n        /* \"#utility.yul\":8105:8106   */\n      0x00\n        /* \"#utility.yul\":8145:8205   */\n      tag_199\n        /* \"#utility.yul\":8201:8204   */\n      dup5\n        /* \"#utility.yul\":8192:8198   */\n      dup3\n        /* \"#utility.yul\":8181:8190   */\n      dup6\n        /* \"#utility.yul\":8177:8199   */\n      add\n        /* \"#utility.yul\":8145:8205   */\n      tag_84\n      jump\t// in\n    tag_199:\n        /* \"#utility.yul\":8138:8142   */\n      0x00\n        /* \"#utility.yul\":8131:8136   */\n      dup4\n        /* \"#utility.yul\":8127:8143   */\n      add\n        /* \"#utility.yul\":8120:8206   */\n      mstore\n        /* \"#utility.yul\":8054:8217   */\n      pop\n        /* \"#utility.yul\":8279:8281   */\n      0x20\n        /* \"#utility.yul\":8320:8380   */\n      tag_200\n        /* \"#utility.yul\":8376:8379   */\n      dup5\n        /* \"#utility.yul\":8367:8373   */\n      dup3\n        /* \"#utility.yul\":8356:8365   */\n      dup6\n        /* \"#utility.yul\":8352:8374   */\n      add\n        /* \"#utility.yul\":8320:8380   */\n      tag_84\n      jump\t// in\n    tag_200:\n        /* \"#utility.yul\":8313:8317   */\n      0x20\n        /* \"#utility.yul\":8306:8311   */\n      dup4\n        /* \"#utility.yul\":8302:8318   */\n      add\n        /* \"#utility.yul\":8295:8381   */\n      mstore\n        /* \"#utility.yul\":8227:8392   */\n      pop\n        /* \"#utility.yul\":8457:8459   */\n      0x40\n        /* \"#utility.yul\":8498:8558   */\n      tag_201\n        /* \"#utility.yul\":8554:8557   */\n      dup5\n        /* \"#utility.yul\":8545:8551   */\n      dup3\n        /* \"#utility.yul\":8534:8543   */\n      dup6\n        /* \"#utility.yul\":8530:8552   */\n      add\n        /* \"#utility.yul\":8498:8558   */\n      tag_84\n      jump\t// in\n    tag_201:\n        /* \"#utility.yul\":8491:8495   */\n      0x40\n        /* \"#utility.yul\":8484:8489   */\n      dup4\n        /* \"#utility.yul\":8480:8496   */\n      add\n        /* \"#utility.yul\":8473:8559   */\n      mstore\n        /* \"#utility.yul\":8402:8570   */\n      pop\n        /* \"#utility.yul\":8629:8631   */\n      0x60\n        /* \"#utility.yul\":8670:8730   */\n      tag_202\n        /* \"#utility.yul\":8726:8729   */\n      dup5\n        /* \"#utility.yul\":8717:8723   */\n      dup3\n        /* \"#utility.yul\":8706:8715   */\n      dup6\n        /* \"#utility.yul\":8702:8724   */\n      add\n        /* \"#utility.yul\":8670:8730   */\n      tag_84\n      jump\t// in\n    tag_202:\n        /* \"#utility.yul\":8663:8667   */\n      0x60\n        /* \"#utility.yul\":8656:8661   */\n      dup4\n        /* \"#utility.yul\":8652:8668   */\n      add\n        /* \"#utility.yul\":8645:8731   */\n      mstore\n        /* \"#utility.yul\":8580:8742   */\n      pop\n        /* \"#utility.yul\":8822:8825   */\n      0x80\n        /* \"#utility.yul\":8811:8820   */\n      dup3\n        /* \"#utility.yul\":8807:8826   */\n      add\n        /* \"#utility.yul\":8801:8827   */\n      mload\n        /* \"#utility.yul\":8854:8872   */\n      0xffffffffffffffff\n        /* \"#utility.yul\":8846:8852   */\n      dup2\n        /* \"#utility.yul\":8843:8873   */\n      gt\n        /* \"#utility.yul\":8840:8957   */\n      iszero\n      tag_203\n      jumpi\n        /* \"#utility.yul\":8876:8955   */\n      tag_204\n      tag_82\n      jump\t// in\n    tag_204:\n        /* \"#utility.yul\":8840:8957   */\n    tag_203:\n        /* \"#utility.yul\":8996:9066   */\n      tag_205\n        /* \"#utility.yul\":9062:9065   */\n      dup5\n        /* \"#utility.yul\":9053:9059   */\n      dup3\n        /* \"#utility.yul\":9042:9051   */\n      dup6\n        /* \"#utility.yul\":9038:9060   */\n      add\n        /* \"#utility.yul\":8996:9066   */\n      tag_89\n      jump\t// in\n    tag_205:\n        /* \"#utility.yul\":8989:8993   */\n      0x80\n        /* \"#utility.yul\":8982:8987   */\n      dup4\n        /* \"#utility.yul\":8978:8994   */\n      add\n        /* \"#utility.yul\":8971:9067   */\n      mstore\n        /* \"#utility.yul\":8752:9078   */\n      pop\n        /* \"#utility.yul\":9161:9164   */\n      0xa0\n        /* \"#utility.yul\":9150:9159   */\n      dup3\n        /* \"#utility.yul\":9146:9165   */\n      add\n        /* \"#utility.yul\":9140:9166   */\n      mload\n        /* \"#utility.yul\":9193:9211   */\n      0xffffffffffffffff\n        /* \"#utility.yul\":9185:9191   */\n      dup2\n        /* \"#utility.yul\":9182:9212   */\n      gt\n        /* \"#utility.yul\":9179:9296   */\n      iszero\n      tag_206\n      jumpi\n        /* \"#utility.yul\":9215:9294   */\n      tag_207\n      tag_82\n      jump\t// in\n    tag_207:\n        /* \"#utility.yul\":9179:9296   */\n    tag_206:\n        /* \"#utility.yul\":9335:9405   */\n      tag_208\n        /* \"#utility.yul\":9401:9404   */\n      dup5\n        /* \"#utility.yul\":9392:9398   */\n      dup3\n        /* \"#utility.yul\":9381:9390   */\n      dup6\n        /* \"#utility.yul\":9377:9399   */\n      add\n        /* \"#utility.yul\":9335:9405   */\n      tag_89\n      jump\t// in\n    tag_208:\n        /* \"#utility.yul\":9328:9332   */\n      0xa0\n        /* \"#utility.yul\":9321:9326   */\n      dup4\n        /* \"#utility.yul\":9317:9333   */\n      add\n        /* \"#utility.yul\":9310:9406   */\n      mstore\n        /* \"#utility.yul\":9088:9417   */\n      pop\n        /* \"#utility.yul\":9497:9500   */\n      0xc0\n        /* \"#utility.yul\":9486:9495   */\n      dup3\n        /* \"#utility.yul\":9482:9501   */\n      add\n        /* \"#utility.yul\":9476:9502   */\n      mload\n        /* \"#utility.yul\":9529:9547   */\n      0xffffffffffffffff\n        /* \"#utility.yul\":9521:9527   */\n      dup2\n        /* \"#utility.yul\":9518:9548   */\n      gt\n        /* \"#utility.yul\":9515:9632   */\n      iszero\n      tag_209\n      jumpi\n        /* \"#utility.yul\":9551:9630   */\n      tag_210\n      tag_82\n      jump\t// in\n    tag_210:\n        /* \"#utility.yul\":9515:9632   */\n    tag_209:\n        /* \"#utility.yul\":9671:9741   */\n      tag_211\n        /* \"#utility.yul\":9737:9740   */\n      dup5\n        /* \"#utility.yul\":9728:9734   */\n      dup3\n        /* \"#utility.yul\":9717:9726   */\n      dup6\n        /* \"#utility.yul\":9713:9735   */\n      add\n        /* \"#utility.yul\":9671:9741   */\n      tag_89\n      jump\t// in\n    tag_211:\n        /* \"#utility.yul\":9664:9668   */\n      0xc0\n        /* \"#utility.yul\":9657:9662   */\n      dup4\n        /* \"#utility.yul\":9653:9669   */\n      add\n        /* \"#utility.yul\":9646:9742   */\n      mstore\n        /* \"#utility.yul\":9427:9753   */\n      pop\n        /* \"#utility.yul\":9840:9843   */\n      0xe0\n        /* \"#utility.yul\":9829:9838   */\n      dup3\n        /* \"#utility.yul\":9825:9844   */\n      add\n        /* \"#utility.yul\":9819:9845   */\n      mload\n        /* \"#utility.yul\":9872:9890   */\n      0xffffffffffffffff\n        /* \"#utility.yul\":9864:9870   */\n      dup2\n        /* \"#utility.yul\":9861:9891   */\n      gt\n        /* \"#utility.yul\":9858:9975   */\n      iszero\n      tag_212\n      jumpi\n        /* \"#utility.yul\":9894:9973   */\n      tag_213\n      tag_82\n      jump\t// in\n    tag_213:\n        /* \"#utility.yul\":9858:9975   */\n    tag_212:\n        /* \"#utility.yul\":10014:10084   */\n      tag_214\n        /* \"#utility.yul\":10080:10083   */\n      dup5\n        /* \"#utility.yul\":10071:10077   */\n      dup3\n        /* \"#utility.yul\":10060:10069   */\n      dup6\n        /* \"#utility.yul\":10056:10078   */\n      add\n        /* \"#utility.yul\":10014:10084   */\n      tag_89\n      jump\t// in\n    tag_214:\n        /* \"#utility.yul\":10007:10011   */\n      0xe0\n        /* \"#utility.yul\":10000:10005   */\n      dup4\n        /* \"#utility.yul\":9996:10012   */\n      add\n        /* \"#utility.yul\":9989:10085   */\n      mstore\n        /* \"#utility.yul\":9763:10096   */\n      pop\n        /* \"#utility.yul\":10183:10186   */\n      0x0100\n        /* \"#utility.yul\":10172:10181   */\n      dup3\n        /* \"#utility.yul\":10168:10187   */\n      add\n        /* \"#utility.yul\":10162:10188   */\n      mload\n        /* \"#utility.yul\":10215:10233   */\n      0xffffffffffffffff\n        /* \"#utility.yul\":10207:10213   */\n      dup2\n        /* \"#utility.yul\":10204:10234   */\n      gt\n        /* \"#utility.yul\":10201:10318   */\n      iszero\n      tag_215\n      jumpi\n        /* \"#utility.yul\":10237:10316   */\n      tag_216\n      tag_82\n      jump\t// in\n    tag_216:\n        /* \"#utility.yul\":10201:10318   */\n    tag_215:\n        /* \"#utility.yul\":10359:10429   */\n      tag_217\n        /* \"#utility.yul\":10425:10428   */\n      dup5\n        /* \"#utility.yul\":10416:10422   */\n      dup3\n        /* \"#utility.yul\":10405:10414   */\n      dup6\n        /* \"#utility.yul\":10401:10423   */\n      add\n        /* \"#utility.yul\":10359:10429   */\n      tag_89\n      jump\t// in\n    tag_217:\n        /* \"#utility.yul\":10350:10356   */\n      0x0100\n        /* \"#utility.yul\":10343:10348   */\n      dup4\n        /* \"#utility.yul\":10339:10357   */\n      add\n        /* \"#utility.yul\":10332:10430   */\n      mstore\n        /* \"#utility.yul\":10106:10441   */\n      pop\n        /* \"#utility.yul\":7789:10448   */\n      swap3\n      swap2\n      pop\n      pop\n      jump\t// out\n        /* \"#utility.yul\":10454:10996   */\n    tag_25:\n        /* \"#utility.yul\":10543:10549   */\n      0x00\n        /* \"#utility.yul\":10592:10594   */\n      0x20\n        /* \"#utility.yul\":10580:10589   */\n      dup3\n        /* \"#utility.yul\":10571:10578   */\n      dup5\n        /* \"#utility.yul\":10567:10590   */\n      sub\n        /* \"#utility.yul\":10563:10595   */\n      slt\n        /* \"#utility.yul\":10560:10679   */\n      iszero\n      tag_219\n      jumpi\n        /* \"#utility.yul\":10598:10677   */\n      tag_220\n      tag_65\n      jump\t// in\n    tag_220:\n        /* \"#utility.yul\":10560:10679   */\n    tag_219:\n        /* \"#utility.yul\":10739:10740   */\n      0x00\n        /* \"#utility.yul\":10728:10737   */\n      dup3\n        /* \"#utility.yul\":10724:10741   */\n      add\n        /* \"#utility.yul\":10718:10742   */\n      mload\n        /* \"#utility.yul\":10769:10787   */\n      0xffffffffffffffff\n        /* \"#utility.yul\":10761:10767   */\n      dup2\n        /* \"#utility.yul\":10758:10788   */\n      gt\n        /* \"#utility.yul\":10755:10872   */\n      iszero\n      tag_221\n      jumpi\n        /* \"#utility.yul\":10791:10870   */\n      tag_222\n      tag_66\n      jump\t// in\n    tag_222:\n        /* \"#utility.yul\":10755:10872   */\n    tag_221:\n        /* \"#utility.yul\":10896:10979   */\n      tag_223\n        /* \"#utility.yul\":10971:10978   */\n      dup5\n        /* \"#utility.yul\":10962:10968   */\n      dup3\n        /* \"#utility.yul\":10951:10960   */\n      dup6\n        /* \"#utility.yul\":10947:10969   */\n      add\n        /* \"#utility.yul\":10896:10979   */\n      tag_90\n      jump\t// in\n    tag_223:\n        /* \"#utility.yul\":10886:10979   */\n      swap2\n      pop\n        /* \"#utility.yul\":10689:10989   */\n      pop\n        /* \"#utility.yul\":10454:10996   */\n      swap3\n      swap2\n      pop\n      pop\n      jump\t// out\n        /* \"#utility.yul\":11002:11182   */\n    tag_91:\n        /* \"#utility.yul\":11050:11127   */\n      0x4e487b7100000000000000000000000000000000000000000000000000000000\n        /* \"#utility.yul\":11047:11048   */\n      0x00\n        /* \"#utility.yul\":11040:11128   */\n      mstore\n        /* \"#utility.yul\":11147:11151   */\n      0x22\n        /* \"#utility.yul\":11144:11145   */\n      0x04\n        /* \"#utility.yul\":11137:11152   */\n      mstore\n        /* \"#utility.yul\":11171:11175   */\n      0x24\n        /* \"#utility.yul\":11168:11169   */\n      0x00\n        /* \"#utility.yul\":11161:11176   */\n      revert\n        /* \"#utility.yul\":11188:11508   */\n    tag_33:\n        /* \"#utility.yul\":11232:11238   */\n      0x00\n        /* \"#utility.yul\":11269:11270   */\n      0x02\n        /* \"#utility.yul\":11263:11267   */\n      dup3\n        /* \"#utility.yul\":11259:11271   */\n      div\n        /* \"#utility.yul\":11249:11271   */\n      swap1\n      pop\n        /* \"#utility.yul\":11316:11317   */\n      0x01\n        /* \"#utility.yul\":11310:11314   */\n      dup3\n        /* \"#utility.yul\":11306:11318   */\n      and\n        /* \"#utility.yul\":11337:11355   */\n      dup1\n        /* \"#utility.yul\":11327:11408   */\n      tag_226\n      jumpi\n        /* \"#utility.yul\":11393:11397   */\n      0x7f\n        /* \"#utility.yul\":11385:11391   */\n      dup3\n        /* \"#utility.yul\":11381:11398   */\n      and\n        /* \"#utility.yul\":11371:11398   */\n      swap2\n      pop\n        /* \"#utility.yul\":11327:11408   */\n    tag_226:\n        /* \"#utility.yul\":11455:11457   */\n      0x20\n        /* \"#utility.yul\":11447:11453   */\n      dup3\n        /* \"#utility.yul\":11444:11458   */\n      lt\n        /* \"#utility.yul\":11424:11442   */\n      dup2\n        /* \"#utility.yul\":11421:11459   */\n      sub\n        /* \"#utility.yul\":11418:11502   */\n      tag_227\n      jumpi\n        /* \"#utility.yul\":11474:11492   */\n      tag_228\n      tag_91\n      jump\t// in\n    tag_228:\n        /* \"#utility.yul\":11418:11502   */\n    tag_227:\n        /* \"#utility.yul\":11239:11508   */\n      pop\n        /* \"#utility.yul\":11188:11508   */\n      swap2\n      swap1\n      pop\n      jump\t// out\n        /* \"#utility.yul\":11514:11655   */\n    tag_92:\n        /* \"#utility.yul\":11563:11567   */\n      0x00\n        /* \"#utility.yul\":11586:11589   */\n      dup2\n        /* \"#utility.yul\":11578:11589   */\n      swap1\n      pop\n        /* \"#utility.yul\":11609:11612   */\n      dup2\n        /* \"#utility.yul\":11606:11607   */\n      0x00\n        /* \"#utility.yul\":11599:11613   */\n      mstore\n        /* \"#utility.yul\":11643:11647   */\n      0x20\n        /* \"#utility.yul\":11640:11641   */\n      0x00\n        /* \"#utility.yul\":11630:11648   */\n      keccak256\n        /* \"#utility.yul\":11622:11648   */\n      swap1\n      pop\n        /* \"#utility.yul\":11514:11655   */\n      swap2\n      swap1\n      pop\n      jump\t// out\n        /* \"#utility.yul\":11661:11754   */\n    tag_93:\n        /* \"#utility.yul\":11698:11704   */\n      0x00\n        /* \"#utility.yul\":11745:11747   */\n      0x20\n        /* \"#utility.yul\":11740:11742   */\n      0x1f\n        /* \"#utility.yul\":11733:11738   */\n      dup4\n        /* \"#utility.yul\":11729:11743   */\n      add\n        /* \"#utility.yul\":11725:11748   */\n      div\n        /* \"#utility.yul\":11715:11748   */\n      swap1\n      pop\n        /* \"#utility.yul\":11661:11754   */\n      swap2\n      swap1\n      pop\n      jump\t// out\n        /* \"#utility.yul\":11760:11867   */\n    tag_94:\n        /* \"#utility.yul\":11804:11812   */\n      0x00\n        /* \"#utility.yul\":11854:11859   */\n      dup3\n        /* \"#utility.yul\":11848:11852   */\n      dup3\n        /* \"#utility.yul\":11844:11860   */\n      shl\n        /* \"#utility.yul\":11823:11860   */\n      swap1\n      pop\n        /* \"#utility.yul\":11760:11867   */\n      swap3\n      swap2\n      pop\n      pop\n      jump\t// out\n        /* \"#utility.yul\":11873:12266   */\n    tag_95:\n        /* \"#utility.yul\":11942:11948   */\n      0x00\n        /* \"#utility.yul\":11992:11993   */\n      0x08\n        /* \"#utility.yul\":11980:11990   */\n      dup4\n        /* \"#utility.yul\":11976:11994   */\n      mul\n        /* \"#utility.yul\":12015:12112   */\n      tag_233\n        /* \"#utility.yul\":12045:12111   */\n      0xffffffffffffffffffffffffffffffffffffffffffffffffffffffffffffffff\n        /* \"#utility.yul\":12034:12043   */\n      dup3\n        /* \"#utility.yul\":12015:12112   */\n      tag_94\n      jump\t// in\n    tag_233:\n        /* \"#utility.yul\":12133:12172   */\n      tag_234\n        /* \"#utility.yul\":12163:12171   */\n      dup7\n        /* \"#utility.yul\":12152:12161   */\n      dup4\n        /* \"#utility.yul\":12133:12172   */\n      tag_94\n      jump\t// in\n    tag_234:\n        /* \"#utility.yul\":12121:12172   */\n      swap6\n      pop\n        /* \"#utility.yul\":12205:12209   */\n      dup1\n        /* \"#utility.yul\":12201:12210   */\n      not\n        /* \"#utility.yul\":12194:12199   */\n      dup5\n        /* \"#utility.yul\":12190:12211   */\n      and\n        /* \"#utility.yul\":12181:12211   */\n      swap4\n      pop\n        /* \"#utility.yul\":12254:12258   */\n      dup1\n        /* \"#utility.yul\":12244:12252   */\n      dup7\n        /* \"#utility.yul\":12240:12259   */\n      and\n        /* \"#utility.yul\":12233:12238   */\n      dup5\n        /* \"#utility.yul\":12230:12260   */\n      or\n        /* \"#utility.yul\":12220:12260   */\n      swap3\n      pop\n        /* \"#utility.yul\":11949:12266   */\n      pop\n      pop\n        /* \"#utility.yul\":11873:12266   */\n      swap4\n      swap3\n      pop\n      pop\n      pop\n      jump\t// out\n        /* \"#utility.yul\":12272:12414   */\n    tag_96:\n        /* \"#utility.yul\":12322:12331   */\n      0x00\n        /* \"#utility.yul\":12355:12408   */\n      tag_236\n        /* \"#utility.yul\":12373:12407   */\n      tag_237\n        /* \"#utility.yul\":12382:12406   */\n      tag_238\n        /* \"#utility.yul\":12400:12405   */\n      dup5\n        /* \"#utility.yul\":12382:12406   */\n      tag_70\n      jump\t// in\n    tag_238:\n        /* \"#utility.yul\":12373:12407   */\n      tag_59\n      jump\t// in\n    tag_237:\n        /* \"#utility.yul\":12355:12408   */\n      tag_70\n      jump\t// in\n    tag_236:\n        /* \"#utility.yul\":12342:12408   */\n      swap1\n      pop\n        /* \"#utility.yul\":12272:12414   */\n      swap2\n      swap1\n      pop\n      jump\t// out\n        /* \"#utility.yul\":12420:12495   */\n    tag_97:\n        /* \"#utility.yul\":12463:12466   */\n      0x00\n        /* \"#utility.yul\":12484:12489   */\n      dup2\n        /* \"#utility.yul\":12477:12489   */\n      swap1\n      pop\n        /* \"#utility.yul\":12420:12495   */\n      swap2\n      swap1\n      pop\n      jump\t// out\n        /* \"#utility.yul\":12501:12770   */\n    tag_98:\n        /* \"#utility.yul\":12611:12650   */\n      tag_241\n        /* \"#utility.yul\":12642:12649   */\n      dup4\n        /* \"#utility.yul\":12611:12650   */\n      tag_96\n      jump\t// in\n    tag_241:\n        /* \"#utility.yul\":12672:12763   */\n      tag_242\n        /* \"#utility.yul\":12721:12762   */\n      tag_243\n        /* \"#utility.yul\":12745:12761   */\n      dup3\n        /* \"#utility.yul\":12721:12762   */\n      tag_97\n      jump\t// in\n    tag_243:\n        /* \"#utility.yul\":12713:12719   */\n      dup5\n        /* \"#utility.yul\":12706:12710   */\n      dup5\n        /* \"#utility.yul\":12700:12711   */\n      sload\n        /* \"#utility.yul\":12672:12763   */\n      tag_95\n      jump\t// in\n    tag_242:\n        /* \"#utility.yul\":12666:12670   */\n      dup3\n        /* \"#utility.yul\":12659:12764   */\n      sstore\n        /* \"#utility.yul\":12577:12770   */\n      pop\n        /* \"#utility.yul\":12501:12770   */\n      pop\n      pop\n      pop\n      jump\t// out\n        /* \"#utility.yul\":12776:12849   */\n    tag_99:\n        /* \"#utility.yul\":12821:12824   */\n      0x00\n        /* \"#utility.yul\":12776:12849   */\n      swap1\n      jump\t// out\n        /* \"#utility.yul\":12855:13044   */\n    tag_100:\n        /* \"#utility.yul\":12932:12964   */\n      tag_246\n      tag_99\n      jump\t// in\n    tag_246:\n        /* \"#utility.yul\":12973:13038   */\n      tag_247\n        /* \"#utility.yul\":13031:13037   */\n      dup2\n        /* \"#utility.yul\":13023:13029   */\n      dup5\n        /* \"#utility.yul\":13017:13021   */\n      dup5\n        /* \"#utility.yul\":12973:13038   */\n      tag_98\n      jump\t// in\n    tag_247:\n        /* \"#utility.yul\":12908:13044   */\n      pop\n        /* \"#utility.yul\":12855:13044   */\n      pop\n      pop\n      jump\t// out\n        /* \"#utility.yul\":13050:13236   */\n    tag_101:\n        /* \"#utility.yul\":13110:13230   */\n    tag_249:\n        /* \"#utility.yul\":13127:13130   */\n      dup2\n        /* \"#utility.yul\":13120:13125   */\n      dup2\n        /* \"#utility.yul\":13117:13131   */\n      lt\n        /* \"#utility.yul\":13110:13230   */\n      iszero\n      tag_251\n      jumpi\n        /* \"#utility.yul\":13181:13220   */\n      tag_252\n        /* \"#utility.yul\":13218:13219   */\n      0x00\n        /* \"#utility.yul\":13211:13216   */\n      dup3\n        /* \"#utility.yul\":13181:13220   */\n      tag_100\n      jump\t// in\n    tag_252:\n        /* \"#utility.yul\":13154:13155   */\n      0x01\n        /* \"#utility.yul\":13147:13152   */\n      dup2\n        /* \"#utility.yul\":13143:13156   */\n      add\n        /* \"#utility.yul\":13134:13156   */\n      swap1\n      pop\n        /* \"#utility.yul\":13110:13230   */\n      jump(tag_249)\n    tag_251:\n        /* \"#utility.yul\":13050:13236   */\n      pop\n      pop\n      jump\t// out\n        /* \"#utility.yul\":13242:13785   */\n    tag_102:\n        /* \"#utility.yul\":13343:13345   */\n      0x1f\n        /* \"#utility.yul\":13338:13341   */\n      dup3\n        /* \"#utility.yul\":13335:13346   */\n      gt\n        /* \"#utility.yul\":13332:13778   */\n      iszero\n      tag_254\n      jumpi\n        /* \"#utility.yul\":13377:13415   */\n      tag_255\n        /* \"#utility.yul\":13409:13414   */\n      dup2\n        /* \"#utility.yul\":13377:13415   */\n      tag_92\n      jump\t// in\n    tag_255:\n        /* \"#utility.yul\":13461:13490   */\n      tag_256\n        /* \"#utility.yul\":13479:13489   */\n      dup5\n        /* \"#utility.yul\":13461:13490   */\n      tag_93\n      jump\t// in\n    tag_256:\n        /* \"#utility.yul\":13451:13459   */\n      dup2\n        /* \"#utility.yul\":13447:13491   */\n      add\n        /* \"#utility.yul\":13644:13646   */\n      0x20\n        /* \"#utility.yul\":13632:13642   */\n      dup6\n        /* \"#utility.yul\":13629:13647   */\n      lt\n        /* \"#utility.yul\":13626:13675   */\n      iszero\n      tag_257\n      jumpi\n        /* \"#utility.yul\":13665:13673   */\n      dup2\n        /* \"#utility.yul\":13650:13673   */\n      swap1\n      pop\n        /* \"#utility.yul\":13626:13675   */\n    tag_257:\n        /* \"#utility.yul\":13688:13768   */\n      tag_258\n        /* \"#utility.yul\":13744:13766   */\n      tag_259\n        /* \"#utility.yul\":13762:13765   */\n      dup6\n        /* \"#utility.yul\":13744:13766   */\n      tag_93\n      jump\t// in\n    tag_259:\n        /* \"#utility.yul\":13734:13742   */\n      dup4\n        /* \"#utility.yul\":13730:13767   */\n      add\n        /* \"#utility.yul\":13717:13728   */\n      dup3\n        /* \"#utility.yul\":13688:13768   */\n      tag_101\n      jump\t// in\n    tag_258:\n        /* \"#utility.yul\":13347:13778   */\n      pop\n      pop\n        /* \"#utility.yul\":13332:13778   */\n    tag_254:\n        /* \"#utility.yul\":13242:13785   */\n      pop\n      pop\n      pop\n      jump\t// out\n        /* \"#utility.yul\":13791:13908   */\n    tag_103:\n        /* \"#utility.yul\":13845:13853   */\n      0x00\n        /* \"#utility.yul\":13895:13900   */\n      dup3\n        /* \"#utility.yul\":13889:13893   */\n      dup3\n        /* \"#utility.yul\":13885:13901   */\n      shr\n        /* \"#utility.yul\":13864:13901   */\n      swap1\n      pop\n        /* \"#utility.yul\":13791:13908   */\n      swap3\n      swap2\n      pop\n      pop\n      jump\t// out\n        /* \"#utility.yul\":13914:14083   */\n    tag_104:\n        /* \"#utility.yul\":13958:13964   */\n      0x00\n        /* \"#utility.yul\":13991:14042   */\n      tag_262\n        /* \"#utility.yul\":14039:14040   */\n      0x00\n        /* \"#utility.yul\":14035:14041   */\n      not\n        /* \"#utility.yul\":14027:14032   */\n      dup5\n        /* \"#utility.yul\":14024:14025   */\n      0x08\n        /* \"#utility.yul\":14020:14033   */\n      mul\n        /* \"#utility.yul\":13991:14042   */\n      tag_103\n      jump\t// in\n    tag_262:\n        /* \"#utility.yul\":13987:14043   */\n      not\n        /* \"#utility.yul\":14072:14076   */\n      dup1\n        /* \"#utility.yul\":14066:14070   */\n      dup4\n        /* \"#utility.yul\":14062:14077   */\n      and\n        /* \"#utility.yul\":14052:14077   */\n      swap2\n      pop\n        /* \"#utility.yul\":13965:14083   */\n      pop\n        /* \"#utility.yul\":13914:14083   */\n      swap3\n      swap2\n      pop\n      pop\n      jump\t// out\n        /* \"#utility.yul\":14088:14383   */\n    tag_105:\n        /* \"#utility.yul\":14164:14168   */\n      0x00\n        /* \"#utility.yul\":14310:14339   */\n      tag_264\n        /* \"#utility.yul\":14335:14338   */\n      dup4\n        /* \"#utility.yul\":14329:14333   */\n      dup4\n        /* \"#utility.yul\":14310:14339   */\n      tag_104\n      jump\t// in\n    tag_264:\n        /* \"#utility.yul\":14302:14339   */\n      swap2\n      pop\n        /* \"#utility.yul\":14372:14375   */\n      dup3\n        /* \"#utility.yul\":14369:14370   */\n      0x02\n        /* \"#utility.yul\":14365:14376   */\n      mul\n        /* \"#utility.yul\":14359:14363   */\n      dup3\n        /* \"#utility.yul\":14356:14377   */\n      or\n        /* \"#utility.yul\":14348:14377   */\n      swap1\n      pop\n        /* \"#utility.yul\":14088:14383   */\n      swap3\n      swap2\n      pop\n      pop\n      jump\t// out\n        /* \"#utility.yul\":14388:15783   */\n    tag_27:\n        /* \"#utility.yul\":14505:14542   */\n      tag_266\n        /* \"#utility.yul\":14538:14541   */\n      dup3\n        /* \"#utility.yul\":14505:14542   */\n      tag_72\n      jump\t// in\n    tag_266:\n        /* \"#utility.yul\":14607:14625   */\n      0xffffffffffffffff\n        /* \"#utility.yul\":14599:14605   */\n      dup2\n        /* \"#utility.yul\":14596:14626   */\n      gt\n        /* \"#utility.yul\":14593:14649   */\n      iszero\n      tag_267\n      jumpi\n        /* \"#utility.yul\":14629:14647   */\n      tag_268\n      tag_79\n      jump\t// in\n    tag_268:\n        /* \"#utility.yul\":14593:14649   */\n    tag_267:\n        /* \"#utility.yul\":14673:14711   */\n      tag_269\n        /* \"#utility.yul\":14705:14709   */\n      dup3\n        /* \"#utility.yul\":14699:14710   */\n      sload\n        /* \"#utility.yul\":14673:14711   */\n      tag_33\n      jump\t// in\n    tag_269:\n        /* \"#utility.yul\":14758:14825   */\n      tag_270\n        /* \"#utility.yul\":14818:14824   */\n      dup3\n        /* \"#utility.yul\":14810:14816   */\n      dup3\n        /* \"#utility.yul\":14804:14808   */\n      dup6\n        /* \"#utility.yul\":14758:14825   */\n      tag_102\n      jump\t// in\n    tag_270:\n        /* \"#utility.yul\":14852:14853   */\n      0x00\n        /* \"#utility.yul\":14876:14880   */\n      0x20\n        /* \"#utility.yul\":14863:14880   */\n      swap1\n      pop\n        /* \"#utility.yul\":14908:14910   */\n      0x1f\n        /* \"#utility.yul\":14900:14906   */\n      dup4\n        /* \"#utility.yul\":14897:14911   */\n      gt\n        /* \"#utility.yul\":14925:14926   */\n      0x01\n        /* \"#utility.yul\":14920:15538   */\n      dup2\n      eq\n      tag_272\n      jumpi\n        /* \"#utility.yul\":15582:15583   */\n      0x00\n        /* \"#utility.yul\":15599:15605   */\n      dup5\n        /* \"#utility.yul\":15596:15673   */\n      iszero\n      tag_273\n      jumpi\n        /* \"#utility.yul\":15648:15657   */\n      dup3\n        /* \"#utility.yul\":15643:15646   */\n      dup8\n        /* \"#utility.yul\":15639:15658   */\n      add\n        /* \"#utility.yul\":15633:15659   */\n      mload\n        /* \"#utility.yul\":15624:15659   */\n      swap1\n      pop\n        /* \"#utility.yul\":15596:15673   */\n    tag_273:\n        /* \"#utility.yul\":15699:15766   */\n      tag_274\n        /* \"#utility.yul\":15759:15765   */\n      dup6\n        /* \"#utility.yul\":15752:15757   */\n      dup3\n        /* \"#utility.yul\":15699:15766   */\n      tag_105\n      jump\t// in\n    tag_274:\n        /* \"#utility.yul\":15693:15697   */\n      dup7\n        /* \"#utility.yul\":15686:15767   */\n      sstore\n        /* \"#utility.yul\":15555:15777   */\n      pop\n        /* \"#utility.yul\":14890:15777   */\n      jump(tag_271)\n        /* \"#utility.yul\":14920:15538   */\n    tag_272:\n        /* \"#utility.yul\":14972:14976   */\n      0x1f\n        /* \"#utility.yul\":14968:14977   */\n      not\n        /* \"#utility.yul\":14960:14966   */\n      dup5\n        /* \"#utility.yul\":14956:14978   */\n      and\n        /* \"#utility.yul\":15006:15043   */\n      tag_275\n        /* \"#utility.yul\":15038:15042   */\n      dup7\n        /* \"#utility.yul\":15006:15043   */\n      tag_92\n      jump\t// in\n    tag_275:\n        /* \"#utility.yul\":15065:15066   */\n      0x00\n        /* \"#utility.yul\":15079:15287   */\n    tag_276:\n        /* \"#utility.yul\":15093:15100   */\n      dup3\n        /* \"#utility.yul\":15090:15091   */\n      dup2\n        /* \"#utility.yul\":15087:15101   */\n      lt\n        /* \"#utility.yul\":15079:15287   */\n      iszero\n      tag_278\n      jumpi\n        /* \"#utility.yul\":15172:15181   */\n      dup5\n        /* \"#utility.yul\":15167:15170   */\n      dup10\n        /* \"#utility.yul\":15163:15182   */\n      add\n        /* \"#utility.yul\":15157:15183   */\n      mload\n        /* \"#utility.yul\":15149:15155   */\n      dup3\n        /* \"#utility.yul\":15142:15184   */\n      sstore\n        /* \"#utility.yul\":15223:15224   */\n      0x01\n        /* \"#utility.yul\":15215:15221   */\n      dup3\n        /* \"#utility.yul\":15211:15225   */\n      add\n        /* \"#utility.yul\":15201:15225   */\n      swap2\n      pop\n        /* \"#utility.yul\":15270:15272   */\n      0x20\n        /* \"#utility.yul\":15259:15268   */\n      dup6\n        /* \"#utility.yul\":15255:15273   */\n      add\n        /* \"#utility.yul\":15242:15273   */\n      swap5\n      pop\n        /* \"#utility.yul\":15116:15120   */\n      0x20\n        /* \"#utility.yul\":15113:15114   */\n      dup2\n        /* \"#utility.yul\":15109:15121   */\n      add\n        /* \"#utility.yul\":15104:15121   */\n      swap1\n      pop\n        /* \"#utility.yul\":15079:15287   */\n      jump(tag_276)\n    tag_278:\n        /* \"#utility.yul\":15315:15321   */\n      dup7\n        /* \"#utility.yul\":15306:15313   */\n      dup4\n        /* \"#utility.yul\":15303:15322   */\n      lt\n        /* \"#utility.yul\":15300:15479   */\n      iszero\n      tag_279\n      jumpi\n        /* \"#utility.yul\":15373:15382   */\n      dup5\n        /* \"#utility.yul\":15368:15371   */\n      dup10\n        /* \"#utility.yul\":15364:15383   */\n      add\n        /* \"#utility.yul\":15358:15384   */\n      mload\n        /* \"#utility.yul\":15416:15464   */\n      tag_280\n        /* \"#utility.yul\":15458:15462   */\n      0x1f\n        /* \"#utility.yul\":15450:15456   */\n      dup10\n        /* \"#utility.yul\":15446:15463   */\n      and\n        /* \"#utility.yul\":15435:15444   */\n      dup3\n        /* \"#utility.yul\":15416:15464   */\n      tag_104\n      jump\t// in\n    tag_280:\n        /* \"#utility.yul\":15408:15414   */\n      dup4\n        /* \"#utility.yul\":15401:15465   */\n      sstore\n        /* \"#utility.yul\":15323:15479   */\n      pop\n        /* \"#utility.yul\":15300:15479   */\n    tag_279:\n        /* \"#utility.yul\":15525:15526   */\n      0x01\n        /* \"#utility.yul\":15521:15522   */\n      0x02\n        /* \"#utility.yul\":15513:15519   */\n      dup9\n        /* \"#utility.yul\":15509:15523   */\n      mul\n        /* \"#utility.yul\":15505:15527   */\n      add\n        /* \"#utility.yul\":15499:15503   */\n      dup9\n        /* \"#utility.yul\":15492:15528   */\n      sstore\n        /* \"#utility.yul\":14927:15538   */\n      pop\n      pop\n      pop\n        /* \"#utility.yul\":14890:15777   */\n    tag_271:\n      pop\n        /* \"#utility.yul\":14480:15783   */\n      pop\n      pop\n      pop\n        /* \"#utility.yul\":14388:15783   */\n      pop\n      pop\n      jump\t// out\n\n    auxdata: 0xa26469706673582212201266fea06048e19037fc56218e8ae2c8be46d70384edce339d120a294552987964736f6c63430008130033\n}\n",
				"bytecode": {
					"linkReferences": {},
					"object": "608060405234801561001057600080fd5b50604051610f22380380610f22833981810160405281019061003291906100db565b806000806101000a81548173ffffffffffffffffffffffffffffffffffffffff021916908373ffffffffffffffffffffffffffffffffffffffff16021790555050610108565b600080fd5b600073ffffffffffffffffffffffffffffffffffffffff82169050919050565b60006100a88261007d565b9050919050565b6100b88161009d565b81146100c357600080fd5b50565b6000815190506100d5816100af565b92915050565b6000602082840312156100f1576100f0610078565b5b60006100ff848285016100c6565b91505092915050565b610e0b806101176000396000f3fe608060405234801561001057600080fd5b50600436106100415760003560e01c806325b6bbfb1461004657806362305f5314610064578063da0e3eda14610080575b600080fd5b61004e6100b8565b60405161005b91906105d3565b60405180910390f35b61007e60048036038101906100799190610640565b6100dc565b005b61009a60048036038101906100959190610640565b61025e565b6040516100af99989796959493929190610716565b60405180910390f35b60008054906101000a900473ffffffffffffffffffffffffffffffffffffffff1681565b60008060009054906101000a900473ffffffffffffffffffffffffffffffffffffffff1673ffffffffffffffffffffffffffffffffffffffff1663161a6c1e836040518263ffffffff1660e01b815260040161013891906107d5565b600060405180830381865afa158015610155573d6000803e3d6000fd5b505050506040513d6000823e3d601f19601f8201168201806040525081019061017e9190610ab8565b905080600160008473ffffffffffffffffffffffffffffffffffffffff1673ffffffffffffffffffffffffffffffffffffffff1681526020019081526020016000206000820151816000015560208201518160010155604082015181600201556060820151816003015560808201518160040190816101fd9190610d03565b5060a08201518160050190816102139190610d03565b5060c08201518160060190816102299190610d03565b5060e082015181600701908161023f9190610d03565b506101008201518160080190816102569190610d03565b509050505050565b600160205280600052604060002060009150905080600001549080600101549080600201549080600301549080600401805461029990610b30565b80601f01602080910402602001604051908101604052809291908181526020018280546102c590610b30565b80156103125780601f106102e757610100808354040283529160200191610312565b820191906000526020600020905b8154815290600101906020018083116102f557829003601f168201915b50505050509080600501805461032790610b30565b80601f016020809104026020016040519081016040528092919081815260200182805461035390610b30565b80156103a05780601f10610375576101008083540402835291602001916103a0565b820191906000526020600020905b81548152906001019060200180831161038357829003601f168201915b5050505050908060060180546103b590610b30565b80601f01602080910402602001604051908101604052809291908181526020018280546103e190610b30565b801561042e5780601f106104035761010080835404028352916020019161042e565b820191906000526020600020905b81548152906001019060200180831161041157829003601f168201915b50505050509080600701805461044390610b30565b80601f016020809104026020016040519081016040528092919081815260200182805461046f90610b30565b80156104bc5780601f10610491576101008083540402835291602001916104bc565b820191906000526020600020905b81548152906001019060200180831161049f57829003601f168201915b5050505050908060080180546104d190610b30565b80601f01602080910402602001604051908101604052809291908181526020018280546104fd90610b30565b801561054a5780601f1061051f5761010080835404028352916020019161054a565b820191906000526020600020905b81548152906001019060200180831161052d57829003601f168201915b5050505050905089565b600073ffffffffffffffffffffffffffffffffffffffff82169050919050565b6000819050919050565b600061059961059461058f84610554565b610574565b610554565b9050919050565b60006105ab8261057e565b9050919050565b60006105bd826105a0565b9050919050565b6105cd816105b2565b82525050565b60006020820190506105e860008301846105c4565b92915050565b6000604051905090565b600080fd5b600080fd5b600061060d82610554565b9050919050565b61061d81610602565b811461062857600080fd5b50565b60008135905061063a81610614565b92915050565b600060208284031215610656576106556105f8565b5b60006106648482850161062b565b91505092915050565b6000819050919050565b6106808161066d565b82525050565b600081519050919050565b600082825260208201905092915050565b60005b838110156106c05780820151818401526020810190506106a5565b60008484015250505050565b6000601f19601f8301169050919050565b60006106e882610686565b6106f28185610691565b93506107028185602086016106a2565b61070b816106cc565b840191505092915050565b60006101208201905061072c600083018c610677565b610739602083018b610677565b610746604083018a610677565b6107536060830189610677565b818103608083015261076581886106dd565b905081810360a083015261077981876106dd565b905081810360c083015261078d81866106dd565b905081810360e08301526107a181856106dd565b90508181036101008301526107b681846106dd565b90509a9950505050505050505050565b6107cf81610602565b82525050565b60006020820190506107ea60008301846107c6565b92915050565b600080fd5b7f4e487b7100000000000000000000000000000000000000000000000000000000600052604160045260246000fd5b61082d826106cc565b810181811067ffffffffffffffff8211171561084c5761084b6107f5565b5b80604052505050565b600061085f6105ee565b905061086b8282610824565b919050565b600080fd5b61087e8161066d565b811461088957600080fd5b50565b60008151905061089b81610875565b92915050565b600080fd5b600080fd5b600067ffffffffffffffff8211156108c6576108c56107f5565b5b6108cf826106cc565b9050602081019050919050565b60006108ef6108ea846108ab565b610855565b90508281526020810184848401111561090b5761090a6108a6565b5b6109168482856106a2565b509392505050565b600082601f830112610933576109326108a1565b5b81516109438482602086016108dc565b91505092915050565b60006101208284031215610963576109626107f0565b5b61096e610120610855565b9050600061097e8482850161088c565b60008301525060206109928482850161088c565b60208301525060406109a68482850161088c565b60408301525060606109ba8482850161088c565b606083015250608082015167ffffffffffffffff8111156109de576109dd610870565b5b6109ea8482850161091e565b60808301525060a082015167ffffffffffffffff811115610a0e57610a0d610870565b5b610a1a8482850161091e565b60a08301525060c082015167ffffffffffffffff811115610a3e57610a3d610870565b5b610a4a8482850161091e565b60c08301525060e082015167ffffffffffffffff811115610a6e57610a6d610870565b5b610a7a8482850161091e565b60e08301525061010082015167ffffffffffffffff811115610a9f57610a9e610870565b5b610aab8482850161091e565b6101008301525092915050565b600060208284031215610ace57610acd6105f8565b5b600082015167ffffffffffffffff811115610aec57610aeb6105fd565b5b610af88482850161094c565b91505092915050565b7f4e487b7100000000000000000000000000000000000000000000000000000000600052602260045260246000fd5b60006002820490506001821680610b4857607f821691505b602082108103610b5b57610b5a610b01565b5b50919050565b60008190508160005260206000209050919050565b60006020601f8301049050919050565b600082821b905092915050565b600060088302610bc37fffffffffffffffffffffffffffffffffffffffffffffffffffffffffffffffff82610b86565b610bcd8683610b86565b95508019841693508086168417925050509392505050565b6000610c00610bfb610bf68461066d565b610574565b61066d565b9050919050565b6000819050919050565b610c1a83610be5565b610c2e610c2682610c07565b848454610b93565b825550505050565b600090565b610c43610c36565b610c4e818484610c11565b505050565b5b81811015610c7257610c67600082610c3b565b600181019050610c54565b5050565b601f821115610cb757610c8881610b61565b610c9184610b76565b81016020851015610ca0578190505b610cb4610cac85610b76565b830182610c53565b50505b505050565b600082821c905092915050565b6000610cda60001984600802610cbc565b1980831691505092915050565b6000610cf38383610cc9565b9150826002028217905092915050565b610d0c82610686565b67ffffffffffffffff811115610d2557610d246107f5565b5b610d2f8254610b30565b610d3a828285610c76565b600060209050601f831160018114610d6d5760008415610d5b578287015190505b610d658582610ce7565b865550610dcd565b601f198416610d7b86610b61565b60005b82811015610da357848901518255600182019150602085019450602081019050610d7e565b86831015610dc05784890151610dbc601f891682610cc9565b8355505b6001600288020188555050505b50505050505056fea26469706673582212201266fea06048e19037fc56218e8ae2c8be46d70384edce339d120a294552987964736f6c63430008130033",
					"opcodes": "PUSH1 0x80 PUSH1 0x40 MSTORE CALLVALUE DUP1 ISZERO PUSH2 0x10 JUMPI PUSH1 0x0 DUP1 REVERT JUMPDEST POP PUSH1 0x40 MLOAD PUSH2 0xF22 CODESIZE SUB DUP1 PUSH2 0xF22 DUP4 CODECOPY DUP2 DUP2 ADD PUSH1 0x40 MSTORE DUP2 ADD SWAP1 PUSH2 0x32 SWAP2 SWAP1 PUSH2 0xDB JUMP JUMPDEST DUP1 PUSH1 0x0 DUP1 PUSH2 0x100 EXP DUP2 SLOAD DUP2 PUSH20 0xFFFFFFFFFFFFFFFFFFFFFFFFFFFFFFFFFFFFFFFF MUL NOT AND SWAP1 DUP4 PUSH20 0xFFFFFFFFFFFFFFFFFFFFFFFFFFFFFFFFFFFFFFFF AND MUL OR SWAP1 SSTORE POP POP PUSH2 0x108 JUMP JUMPDEST PUSH1 0x0 DUP1 REVERT JUMPDEST PUSH1 0x0 PUSH20 0xFFFFFFFFFFFFFFFFFFFFFFFFFFFFFFFFFFFFFFFF DUP3 AND SWAP1 POP SWAP2 SWAP1 POP JUMP JUMPDEST PUSH1 0x0 PUSH2 0xA8 DUP3 PUSH2 0x7D JUMP JUMPDEST SWAP1 POP SWAP2 SWAP1 POP JUMP JUMPDEST PUSH2 0xB8 DUP2 PUSH2 0x9D JUMP JUMPDEST DUP2 EQ PUSH2 0xC3 JUMPI PUSH1 0x0 DUP1 REVERT JUMPDEST POP JUMP JUMPDEST PUSH1 0x0 DUP2 MLOAD SWAP1 POP PUSH2 0xD5 DUP2 PUSH2 0xAF JUMP JUMPDEST SWAP3 SWAP2 POP POP JUMP JUMPDEST PUSH1 0x0 PUSH1 0x20 DUP3 DUP5 SUB SLT ISZERO PUSH2 0xF1 JUMPI PUSH2 0xF0 PUSH2 0x78 JUMP JUMPDEST JUMPDEST PUSH1 0x0 PUSH2 0xFF DUP5 DUP3 DUP6 ADD PUSH2 0xC6 JUMP JUMPDEST SWAP2 POP POP SWAP3 SWAP2 POP POP JUMP JUMPDEST PUSH2 0xE0B DUP1 PUSH2 0x117 PUSH1 0x0 CODECOPY PUSH1 0x0 RETURN INVALID PUSH1 0x80 PUSH1 0x40 MSTORE CALLVALUE DUP1 ISZERO PUSH2 0x10 JUMPI PUSH1 0x0 DUP1 REVERT JUMPDEST POP PUSH1 0x4 CALLDATASIZE LT PUSH2 0x41 JUMPI PUSH1 0x0 CALLDATALOAD PUSH1 0xE0 SHR DUP1 PUSH4 0x25B6BBFB EQ PUSH2 0x46 JUMPI DUP1 PUSH4 0x62305F53 EQ PUSH2 0x64 JUMPI DUP1 PUSH4 0xDA0E3EDA EQ PUSH2 0x80 JUMPI JUMPDEST PUSH1 0x0 DUP1 REVERT JUMPDEST PUSH2 0x4E PUSH2 0xB8 JUMP JUMPDEST PUSH1 0x40 MLOAD PUSH2 0x5B SWAP2 SWAP1 PUSH2 0x5D3 JUMP JUMPDEST PUSH1 0x40 MLOAD DUP1 SWAP2 SUB SWAP1 RETURN JUMPDEST PUSH2 0x7E PUSH1 0x4 DUP1 CALLDATASIZE SUB DUP2 ADD SWAP1 PUSH2 0x79 SWAP2 SWAP1 PUSH2 0x640 JUMP JUMPDEST PUSH2 0xDC JUMP JUMPDEST STOP JUMPDEST PUSH2 0x9A PUSH1 0x4 DUP1 CALLDATASIZE SUB DUP2 ADD SWAP1 PUSH2 0x95 SWAP2 SWAP1 PUSH2 0x640 JUMP JUMPDEST PUSH2 0x25E JUMP JUMPDEST PUSH1 0x40 MLOAD PUSH2 0xAF SWAP10 SWAP9 SWAP8 SWAP7 SWAP6 SWAP5 SWAP4 SWAP3 SWAP2 SWAP1 PUSH2 0x716 JUMP JUMPDEST PUSH1 0x40 MLOAD DUP1 SWAP2 SUB SWAP1 RETURN JUMPDEST PUSH1 0x0 DUP1 SLOAD SWAP1 PUSH2 0x100 EXP SWAP1 DIV PUSH20 0xFFFFFFFFFFFFFFFFFFFFFFFFFFFFFFFFFFFFFFFF AND DUP2 JUMP JUMPDEST PUSH1 0x0 DUP1 PUSH1 0x0 SWAP1 SLOAD SWAP1 PUSH2 0x100 EXP SWAP1 DIV PUSH20 0xFFFFFFFFFFFFFFFFFFFFFFFFFFFFFFFFFFFFFFFF AND PUSH20 0xFFFFFFFFFFFFFFFFFFFFFFFFFFFFFFFFFFFFFFFF AND PUSH4 0x161A6C1E DUP4 PUSH1 0x40 MLOAD DUP3 PUSH4 0xFFFFFFFF AND PUSH1 0xE0 SHL DUP2 MSTORE PUSH1 0x4 ADD PUSH2 0x138 SWAP2 SWAP1 PUSH2 0x7D5 JUMP JUMPDEST PUSH1 0x0 PUSH1 0x40 MLOAD DUP1 DUP4 SUB DUP2 DUP7 GAS STATICCALL ISZERO DUP1 ISZERO PUSH2 0x155 JUMPI RETURNDATASIZE PUSH1 0x0 DUP1 RETURNDATACOPY RETURNDATASIZE PUSH1 0x0 REVERT JUMPDEST POP POP POP POP PUSH1 0x40 MLOAD RETURNDATASIZE PUSH1 0x0 DUP3 RETURNDATACOPY RETURNDATASIZE PUSH1 0x1F NOT PUSH1 0x1F DUP3 ADD AND DUP3 ADD DUP1 PUSH1 0x40 MSTORE POP DUP2 ADD SWAP1 PUSH2 0x17E SWAP2 SWAP1 PUSH2 0xAB8 JUMP JUMPDEST SWAP1 POP DUP1 PUSH1 0x1 PUSH1 0x0 DUP5 PUSH20 0xFFFFFFFFFFFFFFFFFFFFFFFFFFFFFFFFFFFFFFFF AND PUSH20 0xFFFFFFFFFFFFFFFFFFFFFFFFFFFFFFFFFFFFFFFF AND DUP2 MSTORE PUSH1 0x20 ADD SWAP1 DUP2 MSTORE PUSH1 0x20 ADD PUSH1 0x0 KECCAK256 PUSH1 0x0 DUP3 ADD MLOAD DUP2 PUSH1 0x0 ADD SSTORE PUSH1 0x20 DUP3 ADD MLOAD DUP2 PUSH1 0x1 ADD SSTORE PUSH1 0x40 DUP3 ADD MLOAD DUP2 PUSH1 0x2 ADD SSTORE PUSH1 0x60 DUP3 ADD MLOAD DUP2 PUSH1 0x3 ADD SSTORE PUSH1 0x80 DUP3 ADD MLOAD DUP2 PUSH1 0x4 ADD SWAP1 DUP2 PUSH2 0x1FD SWAP2 SWAP1 PUSH2 0xD03 JUMP JUMPDEST POP PUSH1 0xA0 DUP3 ADD MLOAD DUP2 PUSH1 0x5 ADD SWAP1 DUP2 PUSH2 0x213 SWAP2 SWAP1 PUSH2 0xD03 JUMP JUMPDEST POP PUSH1 0xC0 DUP3 ADD MLOAD DUP2 PUSH1 0x6 ADD SWAP1 DUP2 PUSH2 0x229 SWAP2 SWAP1 PUSH2 0xD03 JUMP JUMPDEST POP PUSH1 0xE0 DUP3 ADD MLOAD DUP2 PUSH1 0x7 ADD SWAP1 DUP2 PUSH2 0x23F SWAP2 SWAP1 PUSH2 0xD03 JUMP JUMPDEST POP PUSH2 0x100 DUP3 ADD MLOAD DUP2 PUSH1 0x8 ADD SWAP1 DUP2 PUSH2 0x256 SWAP2 SWAP1 PUSH2 0xD03 JUMP JUMPDEST POP SWAP1 POP POP POP POP JUMP JUMPDEST PUSH1 0x1 PUSH1 0x20 MSTORE DUP1 PUSH1 0x0 MSTORE PUSH1 0x40 PUSH1 0x0 KECCAK256 PUSH1 0x0 SWAP2 POP SWAP1 POP DUP1 PUSH1 0x0 ADD SLOAD SWAP1 DUP1 PUSH1 0x1 ADD SLOAD SWAP1 DUP1 PUSH1 0x2 ADD SLOAD SWAP1 DUP1 PUSH1 0x3 ADD SLOAD SWAP1 DUP1 PUSH1 0x4 ADD DUP1 SLOAD PUSH2 0x299 SWAP1 PUSH2 0xB30 JUMP JUMPDEST DUP1 PUSH1 0x1F ADD PUSH1 0x20 DUP1 SWAP2 DIV MUL PUSH1 0x20 ADD PUSH1 0x40 MLOAD SWAP1 DUP2 ADD PUSH1 0x40 MSTORE DUP1 SWAP3 SWAP2 SWAP1 DUP2 DUP2 MSTORE PUSH1 0x20 ADD DUP3 DUP1 SLOAD PUSH2 0x2C5 SWAP1 PUSH2 0xB30 JUMP JUMPDEST DUP1 ISZERO PUSH2 0x312 JUMPI DUP1 PUSH1 0x1F LT PUSH2 0x2E7 JUMPI PUSH2 0x100 DUP1 DUP4 SLOAD DIV MUL DUP4 MSTORE SWAP2 PUSH1 0x20 ADD SWAP2 PUSH2 0x312 JUMP JUMPDEST DUP3 ADD SWAP2 SWAP1 PUSH1 0x0 MSTORE PUSH1 0x20 PUSH1 0x0 KECCAK256 SWAP1 JUMPDEST DUP2 SLOAD DUP2 MSTORE SWAP1 PUSH1 0x1 ADD SWAP1 PUSH1 0x20 ADD DUP1 DUP4 GT PUSH2 0x2F5 JUMPI DUP3 SWAP1 SUB PUSH1 0x1F AND DUP3 ADD SWAP2 JUMPDEST POP POP POP POP POP SWAP1 DUP1 PUSH1 0x5 ADD DUP1 SLOAD PUSH2 0x327 SWAP1 PUSH2 0xB30 JUMP JUMPDEST DUP1 PUSH1 0x1F ADD PUSH1 0x20 DUP1 SWAP2 DIV MUL PUSH1 0x20 ADD PUSH1 0x40 MLOAD SWAP1 DUP2 ADD PUSH1 0x40 MSTORE DUP1 SWAP3 SWAP2 SWAP1 DUP2 DUP2 MSTORE PUSH1 0x20 ADD DUP3 DUP1 SLOAD PUSH2 0x353 SWAP1 PUSH2 0xB30 JUMP JUMPDEST DUP1 ISZERO PUSH2 0x3A0 JUMPI DUP1 PUSH1 0x1F LT PUSH2 0x375 JUMPI PUSH2 0x100 DUP1 DUP4 SLOAD DIV MUL DUP4 MSTORE SWAP2 PUSH1 0x20 ADD SWAP2 PUSH2 0x3A0 JUMP JUMPDEST DUP3 ADD SWAP2 SWAP1 PUSH1 0x0 MSTORE PUSH1 0x20 PUSH1 0x0 KECCAK256 SWAP1 JUMPDEST DUP2 SLOAD DUP2 MSTORE SWAP1 PUSH1 0x1 ADD SWAP1 PUSH1 0x20 ADD DUP1 DUP4 GT PUSH2 0x383 JUMPI DUP3 SWAP1 SUB PUSH1 0x1F AND DUP3 ADD SWAP2 JUMPDEST POP POP POP POP POP SWAP1 DUP1 PUSH1 0x6 ADD DUP1 SLOAD PUSH2 0x3B5 SWAP1 PUSH2 0xB30 JUMP JUMPDEST DUP1 PUSH1 0x1F ADD PUSH1 0x20 DUP1 SWAP2 DIV MUL PUSH1 0x20 ADD PUSH1 0x40 MLOAD SWAP1 DUP2 ADD PUSH1 0x40 MSTORE DUP1 SWAP3 SWAP2 SWAP1 DUP2 DUP2 MSTORE PUSH1 0x20 ADD DUP3 DUP1 SLOAD PUSH2 0x3E1 SWAP1 PUSH2 0xB30 JUMP JUMPDEST DUP1 ISZERO PUSH2 0x42E JUMPI DUP1 PUSH1 0x1F LT PUSH2 0x403 JUMPI PUSH2 0x100 DUP1 DUP4 SLOAD DIV MUL DUP4 MSTORE SWAP2 PUSH1 0x20 ADD SWAP2 PUSH2 0x42E JUMP JUMPDEST DUP3 ADD SWAP2 SWAP1 PUSH1 0x0 MSTORE PUSH1 0x20 PUSH1 0x0 KECCAK256 SWAP1 JUMPDEST DUP2 SLOAD DUP2 MSTORE SWAP1 PUSH1 0x1 ADD SWAP1 PUSH1 0x20 ADD DUP1 DUP4 GT PUSH2 0x411 JUMPI DUP3 SWAP1 SUB PUSH1 0x1F AND DUP3 ADD SWAP2 JUMPDEST POP POP POP POP POP SWAP1 DUP1 PUSH1 0x7 ADD DUP1 SLOAD PUSH2 0x443 SWAP1 PUSH2 0xB30 JUMP JUMPDEST DUP1 PUSH1 0x1F ADD PUSH1 0x20 DUP1 SWAP2 DIV MUL PUSH1 0x20 ADD PUSH1 0x40 MLOAD SWAP1 DUP2 ADD PUSH1 0x40 MSTORE DUP1 SWAP3 SWAP2 SWAP1 DUP2 DUP2 MSTORE PUSH1 0x20 ADD DUP3 DUP1 SLOAD PUSH2 0x46F SWAP1 PUSH2 0xB30 JUMP JUMPDEST DUP1 ISZERO PUSH2 0x4BC JUMPI DUP1 PUSH1 0x1F LT PUSH2 0x491 JUMPI PUSH2 0x100 DUP1 DUP4 SLOAD DIV MUL DUP4 MSTORE SWAP2 PUSH1 0x20 ADD SWAP2 PUSH2 0x4BC JUMP JUMPDEST DUP3 ADD SWAP2 SWAP1 PUSH1 0x0 MSTORE PUSH1 0x20 PUSH1 0x0 KECCAK256 SWAP1 JUMPDEST DUP2 SLOAD DUP2 MSTORE SWAP1 PUSH1 0x1 ADD SWAP1 PUSH1 0x20 ADD DUP1 DUP4 GT PUSH2 0x49F JUMPI DUP3 SWAP1 SUB PUSH1 0x1F AND DUP3 ADD SWAP2 JUMPDEST POP POP POP POP POP SWAP1 DUP1 PUSH1 0x8 ADD DUP1 SLOAD PUSH2 0x4D1 SWAP1 PUSH2 0xB30 JUMP JUMPDEST DUP1 PUSH1 0x1F ADD PUSH1 0x20 DUP1 SWAP2 DIV MUL PUSH1 0x20 ADD PUSH1 0x40 MLOAD SWAP1 DUP2 ADD PUSH1 0x40 MSTORE DUP1 SWAP3 SWAP2 SWAP1 DUP2 DUP2 MSTORE PUSH1 0x20 ADD DUP3 DUP1 SLOAD PUSH2 0x4FD SWAP1 PUSH2 0xB30 JUMP JUMPDEST DUP1 ISZERO PUSH2 0x54A JUMPI DUP1 PUSH1 0x1F LT PUSH2 0x51F JUMPI PUSH2 0x100 DUP1 DUP4 SLOAD DIV MUL DUP4 MSTORE SWAP2 PUSH1 0x20 ADD SWAP2 PUSH2 0x54A JUMP JUMPDEST DUP3 ADD SWAP2 SWAP1 PUSH1 0x0 MSTORE PUSH1 0x20 PUSH1 0x0 KECCAK256 SWAP1 JUMPDEST DUP2 SLOAD DUP2 MSTORE SWAP1 PUSH1 0x1 ADD SWAP1 PUSH1 0x20 ADD DUP1 DUP4 GT PUSH2 0x52D JUMPI DUP3 SWAP1 SUB PUSH1 0x1F AND DUP3 ADD SWAP2 JUMPDEST POP POP POP POP POP SWAP1 POP DUP10 JUMP JUMPDEST PUSH1 0x0 PUSH20 0xFFFFFFFFFFFFFFFFFFFFFFFFFFFFFFFFFFFFFFFF DUP3 AND SWAP1 POP SWAP2 SWAP1 POP JUMP JUMPDEST PUSH1 0x0 DUP2 SWAP1 POP SWAP2 SWAP1 POP JUMP JUMPDEST PUSH1 0x0 PUSH2 0x599 PUSH2 0x594 PUSH2 0x58F DUP5 PUSH2 0x554 JUMP JUMPDEST PUSH2 0x574 JUMP JUMPDEST PUSH2 0x554 JUMP JUMPDEST SWAP1 POP SWAP2 SWAP1 POP JUMP JUMPDEST PUSH1 0x0 PUSH2 0x5AB DUP3 PUSH2 0x57E JUMP JUMPDEST SWAP1 POP SWAP2 SWAP1 POP JUMP JUMPDEST PUSH1 0x0 PUSH2 0x5BD DUP3 PUSH2 0x5A0 JUMP JUMPDEST SWAP1 POP SWAP2 SWAP1 POP JUMP JUMPDEST PUSH2 0x5CD DUP2 PUSH2 0x5B2 JUMP JUMPDEST DUP3 MSTORE POP POP JUMP JUMPDEST PUSH1 0x0 PUSH1 0x20 DUP3 ADD SWAP1 POP PUSH2 0x5E8 PUSH1 0x0 DUP4 ADD DUP5 PUSH2 0x5C4 JUMP JUMPDEST SWAP3 SWAP2 POP POP JUMP JUMPDEST PUSH1 0x0 PUSH1 0x40 MLOAD SWAP1 POP SWAP1 JUMP JUMPDEST PUSH1 0x0 DUP1 REVERT JUMPDEST PUSH1 0x0 DUP1 REVERT JUMPDEST PUSH1 0x0 PUSH2 0x60D DUP3 PUSH2 0x554 JUMP JUMPDEST SWAP1 POP SWAP2 SWAP1 POP JUMP JUMPDEST PUSH2 0x61D DUP2 PUSH2 0x602 JUMP JUMPDEST DUP2 EQ PUSH2 0x628 JUMPI PUSH1 0x0 DUP1 REVERT JUMPDEST POP JUMP JUMPDEST PUSH1 0x0 DUP2 CALLDATALOAD SWAP1 POP PUSH2 0x63A DUP2 PUSH2 0x614 JUMP JUMPDEST SWAP3 SWAP2 POP POP JUMP JUMPDEST PUSH1 0x0 PUSH1 0x20 DUP3 DUP5 SUB SLT ISZERO PUSH2 0x656 JUMPI PUSH2 0x655 PUSH2 0x5F8 JUMP JUMPDEST JUMPDEST PUSH1 0x0 PUSH2 0x664 DUP5 DUP3 DUP6 ADD PUSH2 0x62B JUMP JUMPDEST SWAP2 POP POP SWAP3 SWAP2 POP POP JUMP JUMPDEST PUSH1 0x0 DUP2 SWAP1 POP SWAP2 SWAP1 POP JUMP JUMPDEST PUSH2 0x680 DUP2 PUSH2 0x66D JUMP JUMPDEST DUP3 MSTORE POP POP JUMP JUMPDEST PUSH1 0x0 DUP2 MLOAD SWAP1 POP SWAP2 SWAP1 POP JUMP JUMPDEST PUSH1 0x0 DUP3 DUP3 MSTORE PUSH1 0x20 DUP3 ADD SWAP1 POP SWAP3 SWAP2 POP POP JUMP JUMPDEST PUSH1 0x0 JUMPDEST DUP4 DUP2 LT ISZERO PUSH2 0x6C0 JUMPI DUP1 DUP3 ADD MLOAD DUP2 DUP5 ADD MSTORE PUSH1 0x20 DUP2 ADD SWAP1 POP PUSH2 0x6A5 JUMP JUMPDEST PUSH1 0x0 DUP5 DUP5 ADD MSTORE POP POP POP POP JUMP JUMPDEST PUSH1 0x0 PUSH1 0x1F NOT PUSH1 0x1F DUP4 ADD AND SWAP1 POP SWAP2 SWAP1 POP JUMP JUMPDEST PUSH1 0x0 PUSH2 0x6E8 DUP3 PUSH2 0x686 JUMP JUMPDEST PUSH2 0x6F2 DUP2 DUP6 PUSH2 0x691 JUMP JUMPDEST SWAP4 POP PUSH2 0x702 DUP2 DUP6 PUSH1 0x20 DUP7 ADD PUSH2 0x6A2 JUMP JUMPDEST PUSH2 0x70B DUP2 PUSH2 0x6CC JUMP JUMPDEST DUP5 ADD SWAP2 POP POP SWAP3 SWAP2 POP POP JUMP JUMPDEST PUSH1 0x0 PUSH2 0x120 DUP3 ADD SWAP1 POP PUSH2 0x72C PUSH1 0x0 DUP4 ADD DUP13 PUSH2 0x677 JUMP JUMPDEST PUSH2 0x739 PUSH1 0x20 DUP4 ADD DUP12 PUSH2 0x677 JUMP JUMPDEST PUSH2 0x746 PUSH1 0x40 DUP4 ADD DUP11 PUSH2 0x677 JUMP JUMPDEST PUSH2 0x753 PUSH1 0x60 DUP4 ADD DUP10 PUSH2 0x677 JUMP JUMPDEST DUP2 DUP2 SUB PUSH1 0x80 DUP4 ADD MSTORE PUSH2 0x765 DUP2 DUP9 PUSH2 0x6DD JUMP JUMPDEST SWAP1 POP DUP2 DUP2 SUB PUSH1 0xA0 DUP4 ADD MSTORE PUSH2 0x779 DUP2 DUP8 PUSH2 0x6DD JUMP JUMPDEST SWAP1 POP DUP2 DUP2 SUB PUSH1 0xC0 DUP4 ADD MSTORE PUSH2 0x78D DUP2 DUP7 PUSH2 0x6DD JUMP JUMPDEST SWAP1 POP DUP2 DUP2 SUB PUSH1 0xE0 DUP4 ADD MSTORE PUSH2 0x7A1 DUP2 DUP6 PUSH2 0x6DD JUMP JUMPDEST SWAP1 POP DUP2 DUP2 SUB PUSH2 0x100 DUP4 ADD MSTORE PUSH2 0x7B6 DUP2 DUP5 PUSH2 0x6DD JUMP JUMPDEST SWAP1 POP SWAP11 SWAP10 POP POP POP POP POP POP POP POP POP POP JUMP JUMPDEST PUSH2 0x7CF DUP2 PUSH2 0x602 JUMP JUMPDEST DUP3 MSTORE POP POP JUMP JUMPDEST PUSH1 0x0 PUSH1 0x20 DUP3 ADD SWAP1 POP PUSH2 0x7EA PUSH1 0x0 DUP4 ADD DUP5 PUSH2 0x7C6 JUMP JUMPDEST SWAP3 SWAP2 POP POP JUMP JUMPDEST PUSH1 0x0 DUP1 REVERT JUMPDEST PUSH32 0x4E487B7100000000000000000000000000000000000000000000000000000000 PUSH1 0x0 MSTORE PUSH1 0x41 PUSH1 0x4 MSTORE PUSH1 0x24 PUSH1 0x0 REVERT JUMPDEST PUSH2 0x82D DUP3 PUSH2 0x6CC JUMP JUMPDEST DUP2 ADD DUP2 DUP2 LT PUSH8 0xFFFFFFFFFFFFFFFF DUP3 GT OR ISZERO PUSH2 0x84C JUMPI PUSH2 0x84B PUSH2 0x7F5 JUMP JUMPDEST JUMPDEST DUP1 PUSH1 0x40 MSTORE POP POP POP JUMP JUMPDEST PUSH1 0x0 PUSH2 0x85F PUSH2 0x5EE JUMP JUMPDEST SWAP1 POP PUSH2 0x86B DUP3 DUP3 PUSH2 0x824 JUMP JUMPDEST SWAP2 SWAP1 POP JUMP JUMPDEST PUSH1 0x0 DUP1 REVERT JUMPDEST PUSH2 0x87E DUP2 PUSH2 0x66D JUMP JUMPDEST DUP2 EQ PUSH2 0x889 JUMPI PUSH1 0x0 DUP1 REVERT JUMPDEST POP JUMP JUMPDEST PUSH1 0x0 DUP2 MLOAD SWAP1 POP PUSH2 0x89B DUP2 PUSH2 0x875 JUMP JUMPDEST SWAP3 SWAP2 POP POP JUMP JUMPDEST PUSH1 0x0 DUP1 REVERT JUMPDEST PUSH1 0x0 DUP1 REVERT JUMPDEST PUSH1 0x0 PUSH8 0xFFFFFFFFFFFFFFFF DUP3 GT ISZERO PUSH2 0x8C6 JUMPI PUSH2 0x8C5 PUSH2 0x7F5 JUMP JUMPDEST JUMPDEST PUSH2 0x8CF DUP3 PUSH2 0x6CC JUMP JUMPDEST SWAP1 POP PUSH1 0x20 DUP2 ADD SWAP1 POP SWAP2 SWAP1 POP JUMP JUMPDEST PUSH1 0x0 PUSH2 0x8EF PUSH2 0x8EA DUP5 PUSH2 0x8AB JUMP JUMPDEST PUSH2 0x855 JUMP JUMPDEST SWAP1 POP DUP3 DUP2 MSTORE PUSH1 0x20 DUP2 ADD DUP5 DUP5 DUP5 ADD GT ISZERO PUSH2 0x90B JUMPI PUSH2 0x90A PUSH2 0x8A6 JUMP JUMPDEST JUMPDEST PUSH2 0x916 DUP5 DUP3 DUP6 PUSH2 0x6A2 JUMP JUMPDEST POP SWAP4 SWAP3 POP POP POP JUMP JUMPDEST PUSH1 0x0 DUP3 PUSH1 0x1F DUP4 ADD SLT PUSH2 0x933 JUMPI PUSH2 0x932 PUSH2 0x8A1 JUMP JUMPDEST JUMPDEST DUP2 MLOAD PUSH2 0x943 DUP5 DUP3 PUSH1 0x20 DUP7 ADD PUSH2 0x8DC JUMP JUMPDEST SWAP2 POP POP SWAP3 SWAP2 POP POP JUMP JUMPDEST PUSH1 0x0 PUSH2 0x120 DUP3 DUP5 SUB SLT ISZERO PUSH2 0x963 JUMPI PUSH2 0x962 PUSH2 0x7F0 JUMP JUMPDEST JUMPDEST PUSH2 0x96E PUSH2 0x120 PUSH2 0x855 JUMP JUMPDEST SWAP1 POP PUSH1 0x0 PUSH2 0x97E DUP5 DUP3 DUP6 ADD PUSH2 0x88C JUMP JUMPDEST PUSH1 0x0 DUP4 ADD MSTORE POP PUSH1 0x20 PUSH2 0x992 DUP5 DUP3 DUP6 ADD PUSH2 0x88C JUMP JUMPDEST PUSH1 0x20 DUP4 ADD MSTORE POP PUSH1 0x40 PUSH2 0x9A6 DUP5 DUP3 DUP6 ADD PUSH2 0x88C JUMP JUMPDEST PUSH1 0x40 DUP4 ADD MSTORE POP PUSH1 0x60 PUSH2 0x9BA DUP5 DUP3 DUP6 ADD PUSH2 0x88C JUMP JUMPDEST PUSH1 0x60 DUP4 ADD MSTORE POP PUSH1 0x80 DUP3 ADD MLOAD PUSH8 0xFFFFFFFFFFFFFFFF DUP2 GT ISZERO PUSH2 0x9DE JUMPI PUSH2 0x9DD PUSH2 0x870 JUMP JUMPDEST JUMPDEST PUSH2 0x9EA DUP5 DUP3 DUP6 ADD PUSH2 0x91E JUMP JUMPDEST PUSH1 0x80 DUP4 ADD MSTORE POP PUSH1 0xA0 DUP3 ADD MLOAD PUSH8 0xFFFFFFFFFFFFFFFF DUP2 GT ISZERO PUSH2 0xA0E JUMPI PUSH2 0xA0D PUSH2 0x870 JUMP JUMPDEST JUMPDEST PUSH2 0xA1A DUP5 DUP3 DUP6 ADD PUSH2 0x91E JUMP JUMPDEST PUSH1 0xA0 DUP4 ADD MSTORE POP PUSH1 0xC0 DUP3 ADD MLOAD PUSH8 0xFFFFFFFFFFFFFFFF DUP2 GT ISZERO PUSH2 0xA3E JUMPI PUSH2 0xA3D PUSH2 0x870 JUMP JUMPDEST JUMPDEST PUSH2 0xA4A DUP5 DUP3 DUP6 ADD PUSH2 0x91E JUMP JUMPDEST PUSH1 0xC0 DUP4 ADD MSTORE POP PUSH1 0xE0 DUP3 ADD MLOAD PUSH8 0xFFFFFFFFFFFFFFFF DUP2 GT ISZERO PUSH2 0xA6E JUMPI PUSH2 0xA6D PUSH2 0x870 JUMP JUMPDEST JUMPDEST PUSH2 0xA7A DUP5 DUP3 DUP6 ADD PUSH2 0x91E JUMP JUMPDEST PUSH1 0xE0 DUP4 ADD MSTORE POP PUSH2 0x100 DUP3 ADD MLOAD PUSH8 0xFFFFFFFFFFFFFFFF DUP2 GT ISZERO PUSH2 0xA9F JUMPI PUSH2 0xA9E PUSH2 0x870 JUMP JUMPDEST JUMPDEST PUSH2 0xAAB DUP5 DUP3 DUP6 ADD PUSH2 0x91E JUMP JUMPDEST PUSH2 0x100 DUP4 ADD MSTORE POP SWAP3 SWAP2 POP POP JUMP JUMPDEST PUSH1 0x0 PUSH1 0x20 DUP3 DUP5 SUB SLT ISZERO PUSH2 0xACE JUMPI PUSH2 0xACD PUSH2 0x5F8 JUMP JUMPDEST JUMPDEST PUSH1 0x0 DUP3 ADD MLOAD PUSH8 0xFFFFFFFFFFFFFFFF DUP2 GT ISZERO PUSH2 0xAEC JUMPI PUSH2 0xAEB PUSH2 0x5FD JUMP JUMPDEST JUMPDEST PUSH2 0xAF8 DUP5 DUP3 DUP6 ADD PUSH2 0x94C JUMP JUMPDEST SWAP2 POP POP SWAP3 SWAP2 POP POP JUMP JUMPDEST PUSH32 0x4E487B7100000000000000000000000000000000000000000000000000000000 PUSH1 0x0 MSTORE PUSH1 0x22 PUSH1 0x4 MSTORE PUSH1 0x24 PUSH1 0x0 REVERT JUMPDEST PUSH1 0x0 PUSH1 0x2 DUP3 DIV SWAP1 POP PUSH1 0x1 DUP3 AND DUP1 PUSH2 0xB48 JUMPI PUSH1 0x7F DUP3 AND SWAP2 POP JUMPDEST PUSH1 0x20 DUP3 LT DUP2 SUB PUSH2 0xB5B JUMPI PUSH2 0xB5A PUSH2 0xB01 JUMP JUMPDEST JUMPDEST POP SWAP2 SWAP1 POP JUMP JUMPDEST PUSH1 0x0 DUP2 SWAP1 POP DUP2 PUSH1 0x0 MSTORE PUSH1 0x20 PUSH1 0x0 KECCAK256 SWAP1 POP SWAP2 SWAP1 POP JUMP JUMPDEST PUSH1 0x0 PUSH1 0x20 PUSH1 0x1F DUP4 ADD DIV SWAP1 POP SWAP2 SWAP1 POP JUMP JUMPDEST PUSH1 0x0 DUP3 DUP3 SHL SWAP1 POP SWAP3 SWAP2 POP POP JUMP JUMPDEST PUSH1 0x0 PUSH1 0x8 DUP4 MUL PUSH2 0xBC3 PUSH32 0xFFFFFFFFFFFFFFFFFFFFFFFFFFFFFFFFFFFFFFFFFFFFFFFFFFFFFFFFFFFFFFFF DUP3 PUSH2 0xB86 JUMP JUMPDEST PUSH2 0xBCD DUP7 DUP4 PUSH2 0xB86 JUMP JUMPDEST SWAP6 POP DUP1 NOT DUP5 AND SWAP4 POP DUP1 DUP7 AND DUP5 OR SWAP3 POP POP POP SWAP4 SWAP3 POP POP POP JUMP JUMPDEST PUSH1 0x0 PUSH2 0xC00 PUSH2 0xBFB PUSH2 0xBF6 DUP5 PUSH2 0x66D JUMP JUMPDEST PUSH2 0x574 JUMP JUMPDEST PUSH2 0x66D JUMP JUMPDEST SWAP1 POP SWAP2 SWAP1 POP JUMP JUMPDEST PUSH1 0x0 DUP2 SWAP1 POP SWAP2 SWAP1 POP JUMP JUMPDEST PUSH2 0xC1A DUP4 PUSH2 0xBE5 JUMP JUMPDEST PUSH2 0xC2E PUSH2 0xC26 DUP3 PUSH2 0xC07 JUMP JUMPDEST DUP5 DUP5 SLOAD PUSH2 0xB93 JUMP JUMPDEST DUP3 SSTORE POP POP POP POP JUMP JUMPDEST PUSH1 0x0 SWAP1 JUMP JUMPDEST PUSH2 0xC43 PUSH2 0xC36 JUMP JUMPDEST PUSH2 0xC4E DUP2 DUP5 DUP5 PUSH2 0xC11 JUMP JUMPDEST POP POP POP JUMP JUMPDEST JUMPDEST DUP2 DUP2 LT ISZERO PUSH2 0xC72 JUMPI PUSH2 0xC67 PUSH1 0x0 DUP3 PUSH2 0xC3B JUMP JUMPDEST PUSH1 0x1 DUP2 ADD SWAP1 POP PUSH2 0xC54 JUMP JUMPDEST POP POP JUMP JUMPDEST PUSH1 0x1F DUP3 GT ISZERO PUSH2 0xCB7 JUMPI PUSH2 0xC88 DUP2 PUSH2 0xB61 JUMP JUMPDEST PUSH2 0xC91 DUP5 PUSH2 0xB76 JUMP JUMPDEST DUP2 ADD PUSH1 0x20 DUP6 LT ISZERO PUSH2 0xCA0 JUMPI DUP2 SWAP1 POP JUMPDEST PUSH2 0xCB4 PUSH2 0xCAC DUP6 PUSH2 0xB76 JUMP JUMPDEST DUP4 ADD DUP3 PUSH2 0xC53 JUMP JUMPDEST POP POP JUMPDEST POP POP POP JUMP JUMPDEST PUSH1 0x0 DUP3 DUP3 SHR SWAP1 POP SWAP3 SWAP2 POP POP JUMP JUMPDEST PUSH1 0x0 PUSH2 0xCDA PUSH1 0x0 NOT DUP5 PUSH1 0x8 MUL PUSH2 0xCBC JUMP JUMPDEST NOT DUP1 DUP4 AND SWAP2 POP POP SWAP3 SWAP2 POP POP JUMP JUMPDEST PUSH1 0x0 PUSH2 0xCF3 DUP4 DUP4 PUSH2 0xCC9 JUMP JUMPDEST SWAP2 POP DUP3 PUSH1 0x2 MUL DUP3 OR SWAP1 POP SWAP3 SWAP2 POP POP JUMP JUMPDEST PUSH2 0xD0C DUP3 PUSH2 0x686 JUMP JUMPDEST PUSH8 0xFFFFFFFFFFFFFFFF DUP2 GT ISZERO PUSH2 0xD25 JUMPI PUSH2 0xD24 PUSH2 0x7F5 JUMP JUMPDEST JUMPDEST PUSH2 0xD2F DUP3 SLOAD PUSH2 0xB30 JUMP JUMPDEST PUSH2 0xD3A DUP3 DUP3 DUP6 PUSH2 0xC76 JUMP JUMPDEST PUSH1 0x0 PUSH1 0x20 SWAP1 POP PUSH1 0x1F DUP4 GT PUSH1 0x1 DUP2 EQ PUSH2 0xD6D JUMPI PUSH1 0x0 DUP5 ISZERO PUSH2 0xD5B JUMPI DUP3 DUP8 ADD MLOAD SWAP1 POP JUMPDEST PUSH2 0xD65 DUP6 DUP3 PUSH2 0xCE7 JUMP JUMPDEST DUP7 SSTORE POP PUSH2 0xDCD JUMP JUMPDEST PUSH1 0x1F NOT DUP5 AND PUSH2 0xD7B DUP7 PUSH2 0xB61 JUMP JUMPDEST PUSH1 0x0 JUMPDEST DUP3 DUP2 LT ISZERO PUSH2 0xDA3 JUMPI DUP5 DUP10 ADD MLOAD DUP3 SSTORE PUSH1 0x1 DUP3 ADD SWAP2 POP PUSH1 0x20 DUP6 ADD SWAP5 POP PUSH1 0x20 DUP2 ADD SWAP1 POP PUSH2 0xD7E JUMP JUMPDEST DUP7 DUP4 LT ISZERO PUSH2 0xDC0 JUMPI DUP5 DUP10 ADD MLOAD PUSH2 0xDBC PUSH1 0x1F DUP10 AND DUP3 PUSH2 0xCC9 JUMP JUMPDEST DUP4 SSTORE POP JUMPDEST PUSH1 0x1 PUSH1 0x2 DUP9 MUL ADD DUP9 SSTORE POP POP POP JUMPDEST POP POP POP POP POP POP JUMP INVALID LOG2 PUSH5 0x6970667358 0x22 SLT KECCAK256 SLT PUSH7 0xFEA06048E19037 0xFC JUMP 0x21 DUP15 DUP11 0xE2 0xC8 0xBE CHAINID 0xD7 SUB DUP5 0xED 0xCE CALLER SWAP14 SLT EXP 0x29 GASLIMIT MSTORE SWAP9 PUSH26 0x64736F6C63430008130033000000000000000000000000000000 "
				},
				"gasEstimates": {
					"creation": {
						"codeDepositCost": "719000",
						"executionCost": "infinite",
						"totalCost": "infinite"
					},
					"external": {
						"simpleNFTContract()": "infinite",
						"storeNFT(address)": "infinite",
						"storedNFTs(address)": "infinite"
					}
				},
				"methodIdentifiers": {
					"simpleNFTContract()": "25b6bbfb",
					"storeNFT(address)": "62305f53",
					"storedNFTs(address)": "da0e3eda"
				}
			},
			"storageLayout": {
				"storage": [
					{
						"astId": 5,
						"contract": "trustless cross-chain/merkle proof/Test33.sol:NFTStorage",
						"label": "simpleNFTContract",
						"offset": 0,
						"slot": "0",
						"type": "t_contract(SimpleNFT)129"
					},
					{
						"astId": 10,
						"contract": "trustless cross-chain/merkle proof/Test33.sol:NFTStorage",
						"label": "storedNFTs",
						"offset": 0,
						"slot": "1",
						"type": "t_mapping(t_address,t_struct(NFT)66_storage)"
					}
				],
				"types": {
					"t_address": {
						"encoding": "inplace",
						"label": "address",
						"numberOfBytes": "20"
					},
					"t_contract(SimpleNFT)129": {
						"encoding": "inplace",
						"label": "contract SimpleNFT",
						"numberOfBytes": "20"
					},
					"t_mapping(t_address,t_struct(NFT)66_storage)": {
						"encoding": "mapping",
						"key": "t_address",
						"label": "mapping(address => struct SimpleNFT.NFT)",
						"numberOfBytes": "32",
						"value": "t_struct(NFT)66_storage"
					},
					"t_string_storage": {
						"encoding": "bytes",
						"label": "string",
						"numberOfBytes": "32"
					},
					"t_struct(NFT)66_storage": {
						"encoding": "inplace",
						"label": "struct SimpleNFT.NFT",
						"members": [
							{
								"astId": 49,
								"contract": "trustless cross-chain/merkle proof/Test33.sol:NFTStorage",
								"label": "attack",
								"offset": 0,
								"slot": "0",
								"type": "t_uint256"
							},
							{
								"astId": 51,
								"contract": "trustless cross-chain/merkle proof/Test33.sol:NFTStorage",
								"label": "defense",
								"offset": 0,
								"slot": "1",
								"type": "t_uint256"
							},
							{
								"astId": 53,
								"contract": "trustless cross-chain/merkle proof/Test33.sol:NFTStorage",
								"label": "experience",
								"offset": 0,
								"slot": "2",
								"type": "t_uint256"
							},
							{
								"astId": 55,
								"contract": "trustless cross-chain/merkle proof/Test33.sol:NFTStorage",
								"label": "luck",
								"offset": 0,
								"slot": "3",
								"type": "t_uint256"
							},
							{
								"astId": 57,
								"contract": "trustless cross-chain/merkle proof/Test33.sol:NFTStorage",
								"label": "city",
								"offset": 0,
								"slot": "4",
								"type": "t_string_storage"
							},
							{
								"astId": 59,
								"contract": "trustless cross-chain/merkle proof/Test33.sol:NFTStorage",
								"label": "country",
								"offset": 0,
								"slot": "5",
								"type": "t_string_storage"
							},
							{
								"astId": 61,
								"contract": "trustless cross-chain/merkle proof/Test33.sol:NFTStorage",
								"label": "name",
								"offset": 0,
								"slot": "6",
								"type": "t_string_storage"
							},
							{
								"astId": 63,
								"contract": "trustless cross-chain/merkle proof/Test33.sol:NFTStorage",
								"label": "extraField1",
								"offset": 0,
								"slot": "7",
								"type": "t_string_storage"
							},
							{
								"astId": 65,
								"contract": "trustless cross-chain/merkle proof/Test33.sol:NFTStorage",
								"label": "extraField2",
								"offset": 0,
								"slot": "8",
								"type": "t_string_storage"
							}
						],
						"numberOfBytes": "288"
					},
					"t_uint256": {
						"encoding": "inplace",
						"label": "uint256",
						"numberOfBytes": "32"
					}
				}
			},
			"userdoc": {
				"kind": "user",
				"methods": {},
				"version": 1
			}
		}
	}
}