{
	"trustless cross-chain/merkle proof/GenMP.sol": {
		"MerkleTree": {
			"abi": [
				{
					"inputs": [
						{
							"internalType": "uint256",
							"name": "index",
							"type": "uint256"
						}
					],
					"name": "example",
					"outputs": [
						{
							"internalType": "bytes32[]",
							"name": "",
							"type": "bytes32[]"
						},
						{
							"internalType": "bytes32",
							"name": "",
							"type": "bytes32"
						},
						{
							"internalType": "bytes32",
							"name": "",
							"type": "bytes32"
						}
					],
					"stateMutability": "pure",
					"type": "function"
				},
				{
					"inputs": [
						{
							"internalType": "bytes32[]",
							"name": "leaves",
							"type": "bytes32[]"
						},
						{
							"internalType": "uint256",
							"name": "index",
							"type": "uint256"
						}
					],
					"name": "generateMerkleProof",
					"outputs": [
						{
							"internalType": "bytes32[]",
							"name": "",
							"type": "bytes32[]"
						}
					],
					"stateMutability": "pure",
					"type": "function"
				},
				{
					"inputs": [
						{
							"internalType": "bytes32[]",
							"name": "leaves",
							"type": "bytes32[]"
						}
					],
					"name": "generateMerkleRoot",
					"outputs": [
						{
							"internalType": "bytes32",
							"name": "",
							"type": "bytes32"
						}
					],
					"stateMutability": "pure",
					"type": "function"
				},
				{
					"inputs": [
						{
							"internalType": "uint256",
							"name": "index",
							"type": "uint256"
						}
					],
					"name": "testExampleFunction",
					"outputs": [
						{
							"internalType": "bool",
							"name": "",
							"type": "bool"
						}
					],
					"stateMutability": "pure",
					"type": "function"
				},
				{
					"inputs": [
						{
							"internalType": "bytes32[]",
							"name": "merkleProof",
							"type": "bytes32[]"
						},
						{
							"internalType": "bytes32",
							"name": "leafNode",
							"type": "bytes32"
						},
						{
							"internalType": "bytes32",
							"name": "rootHash",
							"type": "bytes32"
						}
					],
					"name": "verifyMerkleProof",
					"outputs": [
						{
							"internalType": "bool",
							"name": "",
							"type": "bool"
						}
					],
					"stateMutability": "pure",
					"type": "function"
				}
			],
			"devdoc": {
				"kind": "dev",
				"methods": {},
				"version": 1
			},
			"evm": {
				"assembly": "    /* \"trustless cross-chain/merkle proof/GenMP.sol\":152:3488  contract MerkleTree {... */\n  mstore(0x40, 0x80)\n  callvalue\n  dup1\n  iszero\n  tag_1\n  jumpi\n  0x00\n  dup1\n  revert\ntag_1:\n  pop\n  dataSize(sub_0)\n  dup1\n  dataOffset(sub_0)\n  0x00\n  codecopy\n  0x00\n  return\nstop\n\nsub_0: assembly {\n        /* \"trustless cross-chain/merkle proof/GenMP.sol\":152:3488  contract MerkleTree {... */\n      mstore(0x40, 0x80)\n      callvalue\n      dup1\n      iszero\n      tag_1\n      jumpi\n      0x00\n      dup1\n      revert\n    tag_1:\n      pop\n      jumpi(tag_2, lt(calldatasize, 0x04))\n      shr(0xe0, calldataload(0x00))\n      dup1\n      0x477e4a02\n      eq\n      tag_3\n      jumpi\n      dup1\n      0x7f410908\n      eq\n      tag_4\n      jumpi\n      dup1\n      0xada4fa18\n      eq\n      tag_5\n      jumpi\n      dup1\n      0xd1538949\n      eq\n      tag_6\n      jumpi\n      dup1\n      0xd6da100e\n      eq\n      tag_7\n      jumpi\n    tag_2:\n      0x00\n      dup1\n      revert\n        /* \"trustless cross-chain/merkle proof/GenMP.sol\":2745:3486  function example(uint256 index) public pure returns (bytes32[] memory, bytes32, bytes32) {... */\n    tag_3:\n      tag_8\n      0x04\n      dup1\n      calldatasize\n      sub\n      dup2\n      add\n      swap1\n      tag_9\n      swap2\n      swap1\n      tag_10\n      jump\t// in\n    tag_9:\n      tag_11\n      jump\t// in\n    tag_8:\n      mload(0x40)\n      tag_12\n      swap4\n      swap3\n      swap2\n      swap1\n      tag_13\n      jump\t// in\n    tag_12:\n      mload(0x40)\n      dup1\n      swap2\n      sub\n      swap1\n      return\n        /* \"trustless cross-chain/merkle proof/GenMP.sol\":2466:2738  function testExampleFunction(uint256 index) public pure returns (bool) {... */\n    tag_4:\n      tag_14\n      0x04\n      dup1\n      calldatasize\n      sub\n      dup2\n      add\n      swap1\n      tag_15\n      swap2\n      swap1\n      tag_10\n      jump\t// in\n    tag_15:\n      tag_16\n      jump\t// in\n    tag_14:\n      mload(0x40)\n      tag_17\n      swap2\n      swap1\n      tag_18\n      jump\t// in\n    tag_17:\n      mload(0x40)\n      dup1\n      swap2\n      sub\n      swap1\n      return\n        /* \"trustless cross-chain/merkle proof/GenMP.sol\":1835:2454  function verifyMerkleProof(bytes32[] memory merkleProof, bytes32 leafNode, bytes32 rootHash) public pure returns (bool) {... */\n    tag_5:\n      tag_19\n      0x04\n      dup1\n      calldatasize\n      sub\n      dup2\n      add\n      swap1\n      tag_20\n      swap2\n      swap1\n      tag_21\n      jump\t// in\n    tag_20:\n      tag_22\n      jump\t// in\n    tag_19:\n      mload(0x40)\n      tag_23\n      swap2\n      swap1\n      tag_18\n      jump\t// in\n    tag_23:\n      mload(0x40)\n      dup1\n      swap2\n      sub\n      swap1\n      return\n        /* \"trustless cross-chain/merkle proof/GenMP.sol\":1238:1827  function generateMerkleRoot(bytes32[] memory leaves) public pure returns (bytes32) {... */\n    tag_6:\n      tag_24\n      0x04\n      dup1\n      calldatasize\n      sub\n      dup2\n      add\n      swap1\n      tag_25\n      swap2\n      swap1\n      tag_26\n      jump\t// in\n    tag_25:\n      tag_27\n      jump\t// in\n    tag_24:\n      mload(0x40)\n      tag_28\n      swap2\n      swap1\n      tag_29\n      jump\t// in\n    tag_28:\n      mload(0x40)\n      dup1\n      swap2\n      sub\n      swap1\n      return\n        /* \"trustless cross-chain/merkle proof/GenMP.sol\":183:1222  function generateMerkleProof(bytes32[] memory leaves, uint256 index) public pure returns (bytes32[] memory) {... */\n    tag_7:\n      tag_30\n      0x04\n      dup1\n      calldatasize\n      sub\n      dup2\n      add\n      swap1\n      tag_31\n      swap2\n      swap1\n      tag_32\n      jump\t// in\n    tag_31:\n      tag_33\n      jump\t// in\n    tag_30:\n      mload(0x40)\n      tag_34\n      swap2\n      swap1\n      tag_35\n      jump\t// in\n    tag_34:\n      mload(0x40)\n      dup1\n      swap2\n      sub\n      swap1\n      return\n        /* \"trustless cross-chain/merkle proof/GenMP.sol\":2745:3486  function example(uint256 index) public pure returns (bytes32[] memory, bytes32, bytes32) {... */\n    tag_11:\n        /* \"trustless cross-chain/merkle proof/GenMP.sol\":2798:2814  bytes32[] memory */\n      0x60\n        /* \"trustless cross-chain/merkle proof/GenMP.sol\":2816:2823  bytes32 */\n      0x00\n        /* \"trustless cross-chain/merkle proof/GenMP.sol\":2825:2832  bytes32 */\n      dup1\n        /* \"trustless cross-chain/merkle proof/GenMP.sol\":2844:2857  bytes32 leaf1 */\n      0x00\n        /* \"trustless cross-chain/merkle proof/GenMP.sol\":2895:2896  1 */\n      0x01\n        /* \"trustless cross-chain/merkle proof/GenMP.sol\":2870:2898  abi.encodePacked(uint256(1)) */\n      add(0x20, mload(0x40))\n      tag_37\n      swap2\n      swap1\n      tag_38\n      jump\t// in\n    tag_37:\n      mload(0x40)\n      0x20\n      dup2\n      dup4\n      sub\n      sub\n      dup2\n      mstore\n      swap1\n      0x40\n      mstore\n        /* \"trustless cross-chain/merkle proof/GenMP.sol\":2860:2899  keccak256(abi.encodePacked(uint256(1))) */\n      dup1\n      mload\n      swap1\n      0x20\n      add\n      keccak256\n        /* \"trustless cross-chain/merkle proof/GenMP.sol\":2844:2899  bytes32 leaf1 = keccak256(abi.encodePacked(uint256(1))) */\n      swap1\n      pop\n        /* \"trustless cross-chain/merkle proof/GenMP.sol\":2909:2922  bytes32 leaf2 */\n      0x00\n        /* \"trustless cross-chain/merkle proof/GenMP.sol\":2960:2961  2 */\n      0x02\n        /* \"trustless cross-chain/merkle proof/GenMP.sol\":2935:2963  abi.encodePacked(uint256(2)) */\n      add(0x20, mload(0x40))\n      tag_39\n      swap2\n      swap1\n      tag_38\n      jump\t// in\n    tag_39:\n      mload(0x40)\n      0x20\n      dup2\n      dup4\n      sub\n      sub\n      dup2\n      mstore\n      swap1\n      0x40\n      mstore\n        /* \"trustless cross-chain/merkle proof/GenMP.sol\":2925:2964  keccak256(abi.encodePacked(uint256(2))) */\n      dup1\n      mload\n      swap1\n      0x20\n      add\n      keccak256\n        /* \"trustless cross-chain/merkle proof/GenMP.sol\":2909:2964  bytes32 leaf2 = keccak256(abi.encodePacked(uint256(2))) */\n      swap1\n      pop\n        /* \"trustless cross-chain/merkle proof/GenMP.sol\":2974:2987  bytes32 leaf3 */\n      0x00\n        /* \"trustless cross-chain/merkle proof/GenMP.sol\":3025:3026  3 */\n      0x03\n        /* \"trustless cross-chain/merkle proof/GenMP.sol\":3000:3028  abi.encodePacked(uint256(3)) */\n      add(0x20, mload(0x40))\n      tag_40\n      swap2\n      swap1\n      tag_38\n      jump\t// in\n    tag_40:\n      mload(0x40)\n      0x20\n      dup2\n      dup4\n      sub\n      sub\n      dup2\n      mstore\n      swap1\n      0x40\n      mstore\n        /* \"trustless cross-chain/merkle proof/GenMP.sol\":2990:3029  keccak256(abi.encodePacked(uint256(3))) */\n      dup1\n      mload\n      swap1\n      0x20\n      add\n      keccak256\n        /* \"trustless cross-chain/merkle proof/GenMP.sol\":2974:3029  bytes32 leaf3 = keccak256(abi.encodePacked(uint256(3))) */\n      swap1\n      pop\n        /* \"trustless cross-chain/merkle proof/GenMP.sol\":3039:3052  bytes32 leaf4 */\n      0x00\n        /* \"trustless cross-chain/merkle proof/GenMP.sol\":3090:3091  4 */\n      0x04\n        /* \"trustless cross-chain/merkle proof/GenMP.sol\":3065:3093  abi.encodePacked(uint256(4)) */\n      add(0x20, mload(0x40))\n      tag_41\n      swap2\n      swap1\n      tag_38\n      jump\t// in\n    tag_41:\n      mload(0x40)\n      0x20\n      dup2\n      dup4\n      sub\n      sub\n      dup2\n      mstore\n      swap1\n      0x40\n      mstore\n        /* \"trustless cross-chain/merkle proof/GenMP.sol\":3055:3094  keccak256(abi.encodePacked(uint256(4))) */\n      dup1\n      mload\n      swap1\n      0x20\n      add\n      keccak256\n        /* \"trustless cross-chain/merkle proof/GenMP.sol\":3039:3094  bytes32 leaf4 = keccak256(abi.encodePacked(uint256(4))) */\n      swap1\n      pop\n        /* \"trustless cross-chain/merkle proof/GenMP.sol\":3105:3128  bytes32[] memory leaves */\n      0x00\n        /* \"trustless cross-chain/merkle proof/GenMP.sol\":3145:3146  4 */\n      0x04\n        /* \"trustless cross-chain/merkle proof/GenMP.sol\":3131:3147  new bytes32[](4) */\n      0xffffffffffffffff\n      dup2\n      gt\n      iszero\n      tag_42\n      jumpi\n      tag_43\n      tag_44\n      jump\t// in\n    tag_43:\n    tag_42:\n      mload(0x40)\n      swap1\n      dup1\n      dup3\n      mstore\n      dup1\n      0x20\n      mul\n      0x20\n      add\n      dup3\n      add\n      0x40\n      mstore\n      dup1\n      iszero\n      tag_45\n      jumpi\n      dup2\n      0x20\n      add\n      0x20\n      dup3\n      mul\n      dup1\n      calldatasize\n      dup4\n      calldatacopy\n      dup1\n      dup3\n      add\n      swap2\n      pop\n      pop\n      swap1\n      pop\n    tag_45:\n      pop\n        /* \"trustless cross-chain/merkle proof/GenMP.sol\":3105:3147  bytes32[] memory leaves = new bytes32[](4) */\n      swap1\n      pop\n        /* \"trustless cross-chain/merkle proof/GenMP.sol\":3169:3174  leaf1 */\n      dup5\n        /* \"trustless cross-chain/merkle proof/GenMP.sol\":3157:3163  leaves */\n      dup2\n        /* \"trustless cross-chain/merkle proof/GenMP.sol\":3164:3165  0 */\n      0x00\n        /* \"trustless cross-chain/merkle proof/GenMP.sol\":3157:3166  leaves[0] */\n      dup2\n      mload\n      dup2\n      lt\n      tag_46\n      jumpi\n      tag_47\n      tag_48\n      jump\t// in\n    tag_47:\n    tag_46:\n      0x20\n      mul\n      0x20\n      add\n      add\n        /* \"trustless cross-chain/merkle proof/GenMP.sol\":3157:3174  leaves[0] = leaf1 */\n      dup2\n      dup2\n      mstore\n      pop\n      pop\n        /* \"trustless cross-chain/merkle proof/GenMP.sol\":3196:3201  leaf2 */\n      dup4\n        /* \"trustless cross-chain/merkle proof/GenMP.sol\":3184:3190  leaves */\n      dup2\n        /* \"trustless cross-chain/merkle proof/GenMP.sol\":3191:3192  1 */\n      0x01\n        /* \"trustless cross-chain/merkle proof/GenMP.sol\":3184:3193  leaves[1] */\n      dup2\n      mload\n      dup2\n      lt\n      tag_49\n      jumpi\n      tag_50\n      tag_48\n      jump\t// in\n    tag_50:\n    tag_49:\n      0x20\n      mul\n      0x20\n      add\n      add\n        /* \"trustless cross-chain/merkle proof/GenMP.sol\":3184:3201  leaves[1] = leaf2 */\n      dup2\n      dup2\n      mstore\n      pop\n      pop\n        /* \"trustless cross-chain/merkle proof/GenMP.sol\":3223:3228  leaf3 */\n      dup3\n        /* \"trustless cross-chain/merkle proof/GenMP.sol\":3211:3217  leaves */\n      dup2\n        /* \"trustless cross-chain/merkle proof/GenMP.sol\":3218:3219  2 */\n      0x02\n        /* \"trustless cross-chain/merkle proof/GenMP.sol\":3211:3220  leaves[2] */\n      dup2\n      mload\n      dup2\n      lt\n      tag_51\n      jumpi\n      tag_52\n      tag_48\n      jump\t// in\n    tag_52:\n    tag_51:\n      0x20\n      mul\n      0x20\n      add\n      add\n        /* \"trustless cross-chain/merkle proof/GenMP.sol\":3211:3228  leaves[2] = leaf3 */\n      dup2\n      dup2\n      mstore\n      pop\n      pop\n        /* \"trustless cross-chain/merkle proof/GenMP.sol\":3250:3255  leaf4 */\n      dup2\n        /* \"trustless cross-chain/merkle proof/GenMP.sol\":3238:3244  leaves */\n      dup2\n        /* \"trustless cross-chain/merkle proof/GenMP.sol\":3245:3246  3 */\n      0x03\n        /* \"trustless cross-chain/merkle proof/GenMP.sol\":3238:3247  leaves[3] */\n      dup2\n      mload\n      dup2\n      lt\n      tag_53\n      jumpi\n      tag_54\n      tag_48\n      jump\t// in\n    tag_54:\n    tag_53:\n      0x20\n      mul\n      0x20\n      add\n      add\n        /* \"trustless cross-chain/merkle proof/GenMP.sol\":3238:3255  leaves[3] = leaf4 */\n      dup2\n      dup2\n      mstore\n      pop\n      pop\n        /* \"trustless cross-chain/merkle proof/GenMP.sol\":3266:3294  bytes32[] memory merkleProof */\n      0x00\n        /* \"trustless cross-chain/merkle proof/GenMP.sol\":3297:3331  generateMerkleProof(leaves, index) */\n      tag_55\n        /* \"trustless cross-chain/merkle proof/GenMP.sol\":3317:3323  leaves */\n      dup3\n        /* \"trustless cross-chain/merkle proof/GenMP.sol\":3325:3330  index */\n      dup12\n        /* \"trustless cross-chain/merkle proof/GenMP.sol\":3297:3316  generateMerkleProof */\n      tag_33\n        /* \"trustless cross-chain/merkle proof/GenMP.sol\":3297:3331  generateMerkleProof(leaves, index) */\n      jump\t// in\n    tag_55:\n        /* \"trustless cross-chain/merkle proof/GenMP.sol\":3266:3331  bytes32[] memory merkleProof = generateMerkleProof(leaves, index) */\n      swap1\n      pop\n        /* \"trustless cross-chain/merkle proof/GenMP.sol\":3341:3357  bytes32 leafNode */\n      0x00\n        /* \"trustless cross-chain/merkle proof/GenMP.sol\":3360:3366  leaves */\n      dup3\n        /* \"trustless cross-chain/merkle proof/GenMP.sol\":3367:3372  index */\n      dup12\n        /* \"trustless cross-chain/merkle proof/GenMP.sol\":3360:3373  leaves[index] */\n      dup2\n      mload\n      dup2\n      lt\n      tag_56\n      jumpi\n      tag_57\n      tag_48\n      jump\t// in\n    tag_57:\n    tag_56:\n      0x20\n      mul\n      0x20\n      add\n      add\n      mload\n        /* \"trustless cross-chain/merkle proof/GenMP.sol\":3341:3373  bytes32 leafNode = leaves[index] */\n      swap1\n      pop\n        /* \"trustless cross-chain/merkle proof/GenMP.sol\":3383:3399  bytes32 rootHash */\n      0x00\n        /* \"trustless cross-chain/merkle proof/GenMP.sol\":3402:3428  generateMerkleRoot(leaves) */\n      tag_58\n        /* \"trustless cross-chain/merkle proof/GenMP.sol\":3421:3427  leaves */\n      dup5\n        /* \"trustless cross-chain/merkle proof/GenMP.sol\":3402:3420  generateMerkleRoot */\n      tag_27\n        /* \"trustless cross-chain/merkle proof/GenMP.sol\":3402:3428  generateMerkleRoot(leaves) */\n      jump\t// in\n    tag_58:\n        /* \"trustless cross-chain/merkle proof/GenMP.sol\":3383:3428  bytes32 rootHash = generateMerkleRoot(leaves) */\n      swap1\n      pop\n        /* \"trustless cross-chain/merkle proof/GenMP.sol\":3447:3458  merkleProof */\n      dup3\n        /* \"trustless cross-chain/merkle proof/GenMP.sol\":3460:3468  leafNode */\n      dup3\n        /* \"trustless cross-chain/merkle proof/GenMP.sol\":3470:3478  rootHash */\n      dup3\n        /* \"trustless cross-chain/merkle proof/GenMP.sol\":3439:3479  return (merkleProof, leafNode, rootHash) */\n      swap11\n      pop\n      swap11\n      pop\n      swap11\n      pop\n      pop\n      pop\n      pop\n      pop\n      pop\n      pop\n      pop\n      pop\n        /* \"trustless cross-chain/merkle proof/GenMP.sol\":2745:3486  function example(uint256 index) public pure returns (bytes32[] memory, bytes32, bytes32) {... */\n      swap2\n      swap4\n      swap1\n      swap3\n      pop\n      jump\t// out\n        /* \"trustless cross-chain/merkle proof/GenMP.sol\":2466:2738  function testExampleFunction(uint256 index) public pure returns (bool) {... */\n    tag_16:\n        /* \"trustless cross-chain/merkle proof/GenMP.sol\":2531:2535  bool */\n      0x00\n        /* \"trustless cross-chain/merkle proof/GenMP.sol\":2548:2576  bytes32[] memory merkleProof */\n      dup1\n        /* \"trustless cross-chain/merkle proof/GenMP.sol\":2578:2594  bytes32 leafNode */\n      0x00\n        /* \"trustless cross-chain/merkle proof/GenMP.sol\":2596:2612  bytes32 rootHash */\n      dup1\n        /* \"trustless cross-chain/merkle proof/GenMP.sol\":2616:2630  example(index) */\n      tag_60\n        /* \"trustless cross-chain/merkle proof/GenMP.sol\":2624:2629  index */\n      dup6\n        /* \"trustless cross-chain/merkle proof/GenMP.sol\":2616:2623  example */\n      tag_11\n        /* \"trustless cross-chain/merkle proof/GenMP.sol\":2616:2630  example(index) */\n      jump\t// in\n    tag_60:\n        /* \"trustless cross-chain/merkle proof/GenMP.sol\":2547:2630  (bytes32[] memory merkleProof, bytes32 leafNode, bytes32 rootHash) = example(index) */\n      swap3\n      pop\n      swap3\n      pop\n      swap3\n      pop\n        /* \"trustless cross-chain/merkle proof/GenMP.sol\":2641:2653  bool isValid */\n      0x00\n        /* \"trustless cross-chain/merkle proof/GenMP.sol\":2656:2706  verifyMerkleProof(merkleProof, leafNode, rootHash) */\n      tag_61\n        /* \"trustless cross-chain/merkle proof/GenMP.sol\":2674:2685  merkleProof */\n      dup5\n        /* \"trustless cross-chain/merkle proof/GenMP.sol\":2687:2695  leafNode */\n      dup5\n        /* \"trustless cross-chain/merkle proof/GenMP.sol\":2697:2705  rootHash */\n      dup5\n        /* \"trustless cross-chain/merkle proof/GenMP.sol\":2656:2673  verifyMerkleProof */\n      tag_22\n        /* \"trustless cross-chain/merkle proof/GenMP.sol\":2656:2706  verifyMerkleProof(merkleProof, leafNode, rootHash) */\n      jump\t// in\n    tag_61:\n        /* \"trustless cross-chain/merkle proof/GenMP.sol\":2641:2706  bool isValid = verifyMerkleProof(merkleProof, leafNode, rootHash) */\n      swap1\n      pop\n        /* \"trustless cross-chain/merkle proof/GenMP.sol\":2724:2731  isValid */\n      dup1\n        /* \"trustless cross-chain/merkle proof/GenMP.sol\":2717:2731  return isValid */\n      swap5\n      pop\n      pop\n      pop\n      pop\n      pop\n        /* \"trustless cross-chain/merkle proof/GenMP.sol\":2466:2738  function testExampleFunction(uint256 index) public pure returns (bool) {... */\n      swap2\n      swap1\n      pop\n      jump\t// out\n        /* \"trustless cross-chain/merkle proof/GenMP.sol\":1835:2454  function verifyMerkleProof(bytes32[] memory merkleProof, bytes32 leafNode, bytes32 rootHash) public pure returns (bool) {... */\n    tag_22:\n        /* \"trustless cross-chain/merkle proof/GenMP.sol\":1949:1953  bool */\n      0x00\n        /* \"trustless cross-chain/merkle proof/GenMP.sol\":1965:1985  bytes32 computedHash */\n      dup1\n        /* \"trustless cross-chain/merkle proof/GenMP.sol\":1988:1996  leafNode */\n      dup4\n        /* \"trustless cross-chain/merkle proof/GenMP.sol\":1965:1996  bytes32 computedHash = leafNode */\n      swap1\n      pop\n        /* \"trustless cross-chain/merkle proof/GenMP.sol\":2006:2019  uint256 index */\n      0x00\n        /* \"trustless cross-chain/merkle proof/GenMP.sol\":2038:2047  uint256 i */\n      dup1\n        /* \"trustless cross-chain/merkle proof/GenMP.sol\":2033:2406  for (uint256 i = 0; i < merkleProof.length; i++) {... */\n    tag_63:\n        /* \"trustless cross-chain/merkle proof/GenMP.sol\":2057:2068  merkleProof */\n      dup7\n        /* \"trustless cross-chain/merkle proof/GenMP.sol\":2057:2075  merkleProof.length */\n      mload\n        /* \"trustless cross-chain/merkle proof/GenMP.sol\":2053:2054  i */\n      dup2\n        /* \"trustless cross-chain/merkle proof/GenMP.sol\":2053:2075  i < merkleProof.length */\n      lt\n        /* \"trustless cross-chain/merkle proof/GenMP.sol\":2033:2406  for (uint256 i = 0; i < merkleProof.length; i++) {... */\n      iszero\n      tag_64\n      jumpi\n        /* \"trustless cross-chain/merkle proof/GenMP.sol\":2096:2111  bytes32 sibling */\n      0x00\n        /* \"trustless cross-chain/merkle proof/GenMP.sol\":2114:2125  merkleProof */\n      dup8\n        /* \"trustless cross-chain/merkle proof/GenMP.sol\":2126:2127  i */\n      dup3\n        /* \"trustless cross-chain/merkle proof/GenMP.sol\":2114:2128  merkleProof[i] */\n      dup2\n      mload\n      dup2\n      lt\n      tag_66\n      jumpi\n      tag_67\n      tag_48\n      jump\t// in\n    tag_67:\n    tag_66:\n      0x20\n      mul\n      0x20\n      add\n      add\n      mload\n        /* \"trustless cross-chain/merkle proof/GenMP.sol\":2096:2128  bytes32 sibling = merkleProof[i] */\n      swap1\n      pop\n        /* \"trustless cross-chain/merkle proof/GenMP.sol\":2160:2161  0 */\n      0x00\n        /* \"trustless cross-chain/merkle proof/GenMP.sol\":2155:2156  2 */\n      0x02\n        /* \"trustless cross-chain/merkle proof/GenMP.sol\":2147:2152  index */\n      dup5\n        /* \"trustless cross-chain/merkle proof/GenMP.sol\":2147:2156  index % 2 */\n      tag_68\n      swap2\n      swap1\n      tag_69\n      jump\t// in\n    tag_68:\n        /* \"trustless cross-chain/merkle proof/GenMP.sol\":2147:2161  index % 2 == 0 */\n      sub\n        /* \"trustless cross-chain/merkle proof/GenMP.sol\":2143:2365  if (index % 2 == 0) {... */\n      tag_70\n      jumpi\n        /* \"trustless cross-chain/merkle proof/GenMP.sol\":2223:2235  computedHash */\n      dup4\n        /* \"trustless cross-chain/merkle proof/GenMP.sol\":2237:2244  sibling */\n      dup2\n        /* \"trustless cross-chain/merkle proof/GenMP.sol\":2206:2245  abi.encodePacked(computedHash, sibling) */\n      add(0x20, mload(0x40))\n      tag_71\n      swap3\n      swap2\n      swap1\n      tag_72\n      jump\t// in\n    tag_71:\n      mload(0x40)\n      0x20\n      dup2\n      dup4\n      sub\n      sub\n      dup2\n      mstore\n      swap1\n      0x40\n      mstore\n        /* \"trustless cross-chain/merkle proof/GenMP.sol\":2196:2246  keccak256(abi.encodePacked(computedHash, sibling)) */\n      dup1\n      mload\n      swap1\n      0x20\n      add\n      keccak256\n        /* \"trustless cross-chain/merkle proof/GenMP.sol\":2181:2246  computedHash = keccak256(abi.encodePacked(computedHash, sibling)) */\n      swap4\n      pop\n        /* \"trustless cross-chain/merkle proof/GenMP.sol\":2143:2365  if (index % 2 == 0) {... */\n      jump(tag_73)\n    tag_70:\n        /* \"trustless cross-chain/merkle proof/GenMP.sol\":2327:2334  sibling */\n      dup1\n        /* \"trustless cross-chain/merkle proof/GenMP.sol\":2336:2348  computedHash */\n      dup5\n        /* \"trustless cross-chain/merkle proof/GenMP.sol\":2310:2349  abi.encodePacked(sibling, computedHash) */\n      add(0x20, mload(0x40))\n      tag_74\n      swap3\n      swap2\n      swap1\n      tag_72\n      jump\t// in\n    tag_74:\n      mload(0x40)\n      0x20\n      dup2\n      dup4\n      sub\n      sub\n      dup2\n      mstore\n      swap1\n      0x40\n      mstore\n        /* \"trustless cross-chain/merkle proof/GenMP.sol\":2300:2350  keccak256(abi.encodePacked(sibling, computedHash)) */\n      dup1\n      mload\n      swap1\n      0x20\n      add\n      keccak256\n        /* \"trustless cross-chain/merkle proof/GenMP.sol\":2285:2350  computedHash = keccak256(abi.encodePacked(sibling, computedHash)) */\n      swap4\n      pop\n        /* \"trustless cross-chain/merkle proof/GenMP.sol\":2143:2365  if (index % 2 == 0) {... */\n    tag_73:\n        /* \"trustless cross-chain/merkle proof/GenMP.sol\":2394:2395  2 */\n      0x02\n        /* \"trustless cross-chain/merkle proof/GenMP.sol\":2386:2391  index */\n      dup4\n        /* \"trustless cross-chain/merkle proof/GenMP.sol\":2386:2395  index / 2 */\n      tag_75\n      swap2\n      swap1\n      tag_76\n      jump\t// in\n    tag_75:\n        /* \"trustless cross-chain/merkle proof/GenMP.sol\":2378:2395  index = index / 2 */\n      swap3\n      pop\n        /* \"trustless cross-chain/merkle proof/GenMP.sol\":2082:2406  {... */\n      pop\n        /* \"trustless cross-chain/merkle proof/GenMP.sol\":2077:2080  i++ */\n      dup1\n      dup1\n      tag_77\n      swap1\n      tag_78\n      jump\t// in\n    tag_77:\n      swap2\n      pop\n      pop\n        /* \"trustless cross-chain/merkle proof/GenMP.sol\":2033:2406  for (uint256 i = 0; i < merkleProof.length; i++) {... */\n      jump(tag_63)\n    tag_64:\n      pop\n        /* \"trustless cross-chain/merkle proof/GenMP.sol\":2439:2447  rootHash */\n      dup4\n        /* \"trustless cross-chain/merkle proof/GenMP.sol\":2423:2435  computedHash */\n      dup3\n        /* \"trustless cross-chain/merkle proof/GenMP.sol\":2423:2447  computedHash == rootHash */\n      eq\n        /* \"trustless cross-chain/merkle proof/GenMP.sol\":2416:2447  return computedHash == rootHash */\n      swap3\n      pop\n      pop\n      pop\n        /* \"trustless cross-chain/merkle proof/GenMP.sol\":1835:2454  function verifyMerkleProof(bytes32[] memory merkleProof, bytes32 leafNode, bytes32 rootHash) public pure returns (bool) {... */\n      swap4\n      swap3\n      pop\n      pop\n      pop\n      jump\t// out\n        /* \"trustless cross-chain/merkle proof/GenMP.sol\":1238:1827  function generateMerkleRoot(bytes32[] memory leaves) public pure returns (bytes32) {... */\n    tag_27:\n        /* \"trustless cross-chain/merkle proof/GenMP.sol\":1312:1319  bytes32 */\n      0x00\n        /* \"trustless cross-chain/merkle proof/GenMP.sol\":1331:1340  uint256 n */\n      dup1\n        /* \"trustless cross-chain/merkle proof/GenMP.sol\":1343:1349  leaves */\n      dup3\n        /* \"trustless cross-chain/merkle proof/GenMP.sol\":1343:1356  leaves.length */\n      mload\n        /* \"trustless cross-chain/merkle proof/GenMP.sol\":1331:1356  uint256 n = leaves.length */\n      swap1\n      pop\n        /* \"trustless cross-chain/merkle proof/GenMP.sol\":1376:1377  0 */\n      0x00\n        /* \"trustless cross-chain/merkle proof/GenMP.sol\":1371:1372  n */\n      dup2\n        /* \"trustless cross-chain/merkle proof/GenMP.sol\":1371:1377  n == 0 */\n      sub\n        /* \"trustless cross-chain/merkle proof/GenMP.sol\":1367:1421  if (n == 0) {... */\n      tag_80\n      jumpi\n        /* \"trustless cross-chain/merkle proof/GenMP.sol\":1408:1409  0 */\n      0x00\n        /* \"trustless cross-chain/merkle proof/GenMP.sol\":1400:1410  bytes32(0) */\n      dup1\n      shl\n        /* \"trustless cross-chain/merkle proof/GenMP.sol\":1393:1410  return bytes32(0) */\n      swap2\n      pop\n      pop\n      jump(tag_79)\n        /* \"trustless cross-chain/merkle proof/GenMP.sol\":1367:1421  if (n == 0) {... */\n    tag_80:\n        /* \"trustless cross-chain/merkle proof/GenMP.sol\":1431:1794  while (n > 1) {... */\n    tag_81:\n        /* \"trustless cross-chain/merkle proof/GenMP.sol\":1442:1443  1 */\n      0x01\n        /* \"trustless cross-chain/merkle proof/GenMP.sol\":1438:1439  n */\n      dup2\n        /* \"trustless cross-chain/merkle proof/GenMP.sol\":1438:1443  n > 1 */\n      gt\n        /* \"trustless cross-chain/merkle proof/GenMP.sol\":1431:1794  while (n > 1) {... */\n      iszero\n      tag_82\n      jumpi\n        /* \"trustless cross-chain/merkle proof/GenMP.sol\":1459:1468  uint256 m */\n      0x00\n        /* \"trustless cross-chain/merkle proof/GenMP.sol\":1481:1482  2 */\n      0x02\n        /* \"trustless cross-chain/merkle proof/GenMP.sol\":1476:1477  1 */\n      0x01\n        /* \"trustless cross-chain/merkle proof/GenMP.sol\":1472:1473  n */\n      dup4\n        /* \"trustless cross-chain/merkle proof/GenMP.sol\":1472:1477  n + 1 */\n      tag_83\n      swap2\n      swap1\n      tag_84\n      jump\t// in\n    tag_83:\n        /* \"trustless cross-chain/merkle proof/GenMP.sol\":1471:1482  (n + 1) / 2 */\n      tag_85\n      swap2\n      swap1\n      tag_76\n      jump\t// in\n    tag_85:\n        /* \"trustless cross-chain/merkle proof/GenMP.sol\":1459:1482  uint256 m = (n + 1) / 2 */\n      swap1\n      pop\n        /* \"trustless cross-chain/merkle proof/GenMP.sol\":1501:1510  uint256 i */\n      0x00\n        /* \"trustless cross-chain/merkle proof/GenMP.sol\":1496:1765  for (uint256 i = 0; i < m; i++) {... */\n    tag_86:\n        /* \"trustless cross-chain/merkle proof/GenMP.sol\":1520:1521  m */\n      dup2\n        /* \"trustless cross-chain/merkle proof/GenMP.sol\":1516:1517  i */\n      dup2\n        /* \"trustless cross-chain/merkle proof/GenMP.sol\":1516:1521  i < m */\n      lt\n        /* \"trustless cross-chain/merkle proof/GenMP.sol\":1496:1765  for (uint256 i = 0; i < m; i++) {... */\n      iszero\n      tag_87\n      jumpi\n        /* \"trustless cross-chain/merkle proof/GenMP.sol\":1562:1563  n */\n      dup3\n        /* \"trustless cross-chain/merkle proof/GenMP.sol\":1558:1559  1 */\n      0x01\n        /* \"trustless cross-chain/merkle proof/GenMP.sol\":1554:1555  2 */\n      0x02\n        /* \"trustless cross-chain/merkle proof/GenMP.sol\":1550:1551  i */\n      dup4\n        /* \"trustless cross-chain/merkle proof/GenMP.sol\":1550:1555  i * 2 */\n      tag_89\n      swap2\n      swap1\n      tag_90\n      jump\t// in\n    tag_89:\n        /* \"trustless cross-chain/merkle proof/GenMP.sol\":1550:1559  i * 2 + 1 */\n      tag_91\n      swap2\n      swap1\n      tag_84\n      jump\t// in\n    tag_91:\n        /* \"trustless cross-chain/merkle proof/GenMP.sol\":1550:1563  i * 2 + 1 < n */\n      lt\n        /* \"trustless cross-chain/merkle proof/GenMP.sol\":1546:1751  if (i * 2 + 1 < n) {... */\n      iszero\n      tag_92\n      jumpi\n        /* \"trustless cross-chain/merkle proof/GenMP.sol\":1626:1632  leaves */\n      dup5\n        /* \"trustless cross-chain/merkle proof/GenMP.sol\":1637:1638  2 */\n      0x02\n        /* \"trustless cross-chain/merkle proof/GenMP.sol\":1633:1634  i */\n      dup3\n        /* \"trustless cross-chain/merkle proof/GenMP.sol\":1633:1638  i * 2 */\n      tag_93\n      swap2\n      swap1\n      tag_90\n      jump\t// in\n    tag_93:\n        /* \"trustless cross-chain/merkle proof/GenMP.sol\":1626:1639  leaves[i * 2] */\n      dup2\n      mload\n      dup2\n      lt\n      tag_94\n      jumpi\n      tag_95\n      tag_48\n      jump\t// in\n    tag_95:\n    tag_94:\n      0x20\n      mul\n      0x20\n      add\n      add\n      mload\n        /* \"trustless cross-chain/merkle proof/GenMP.sol\":1641:1647  leaves */\n      dup6\n        /* \"trustless cross-chain/merkle proof/GenMP.sol\":1656:1657  1 */\n      0x01\n        /* \"trustless cross-chain/merkle proof/GenMP.sol\":1652:1653  2 */\n      0x02\n        /* \"trustless cross-chain/merkle proof/GenMP.sol\":1648:1649  i */\n      dup5\n        /* \"trustless cross-chain/merkle proof/GenMP.sol\":1648:1653  i * 2 */\n      tag_96\n      swap2\n      swap1\n      tag_90\n      jump\t// in\n    tag_96:\n        /* \"trustless cross-chain/merkle proof/GenMP.sol\":1648:1657  i * 2 + 1 */\n      tag_97\n      swap2\n      swap1\n      tag_84\n      jump\t// in\n    tag_97:\n        /* \"trustless cross-chain/merkle proof/GenMP.sol\":1641:1658  leaves[i * 2 + 1] */\n      dup2\n      mload\n      dup2\n      lt\n      tag_98\n      jumpi\n      tag_99\n      tag_48\n      jump\t// in\n    tag_99:\n    tag_98:\n      0x20\n      mul\n      0x20\n      add\n      add\n      mload\n        /* \"trustless cross-chain/merkle proof/GenMP.sol\":1609:1659  abi.encodePacked(leaves[i * 2], leaves[i * 2 + 1]) */\n      add(0x20, mload(0x40))\n      tag_100\n      swap3\n      swap2\n      swap1\n      tag_72\n      jump\t// in\n    tag_100:\n      mload(0x40)\n      0x20\n      dup2\n      dup4\n      sub\n      sub\n      dup2\n      mstore\n      swap1\n      0x40\n      mstore\n        /* \"trustless cross-chain/merkle proof/GenMP.sol\":1599:1660  keccak256(abi.encodePacked(leaves[i * 2], leaves[i * 2 + 1])) */\n      dup1\n      mload\n      swap1\n      0x20\n      add\n      keccak256\n        /* \"trustless cross-chain/merkle proof/GenMP.sol\":1587:1593  leaves */\n      dup6\n        /* \"trustless cross-chain/merkle proof/GenMP.sol\":1594:1595  i */\n      dup3\n        /* \"trustless cross-chain/merkle proof/GenMP.sol\":1587:1596  leaves[i] */\n      dup2\n      mload\n      dup2\n      lt\n      tag_101\n      jumpi\n      tag_102\n      tag_48\n      jump\t// in\n    tag_102:\n    tag_101:\n      0x20\n      mul\n      0x20\n      add\n      add\n        /* \"trustless cross-chain/merkle proof/GenMP.sol\":1587:1660  leaves[i] = keccak256(abi.encodePacked(leaves[i * 2], leaves[i * 2 + 1])) */\n      dup2\n      dup2\n      mstore\n      pop\n      pop\n        /* \"trustless cross-chain/merkle proof/GenMP.sol\":1546:1751  if (i * 2 + 1 < n) {... */\n      jump(tag_103)\n    tag_92:\n        /* \"trustless cross-chain/merkle proof/GenMP.sol\":1719:1725  leaves */\n      dup5\n        /* \"trustless cross-chain/merkle proof/GenMP.sol\":1730:1731  2 */\n      0x02\n        /* \"trustless cross-chain/merkle proof/GenMP.sol\":1726:1727  i */\n      dup3\n        /* \"trustless cross-chain/merkle proof/GenMP.sol\":1726:1731  i * 2 */\n      tag_104\n      swap2\n      swap1\n      tag_90\n      jump\t// in\n    tag_104:\n        /* \"trustless cross-chain/merkle proof/GenMP.sol\":1719:1732  leaves[i * 2] */\n      dup2\n      mload\n      dup2\n      lt\n      tag_105\n      jumpi\n      tag_106\n      tag_48\n      jump\t// in\n    tag_106:\n    tag_105:\n      0x20\n      mul\n      0x20\n      add\n      add\n      mload\n        /* \"trustless cross-chain/merkle proof/GenMP.sol\":1707:1713  leaves */\n      dup6\n        /* \"trustless cross-chain/merkle proof/GenMP.sol\":1714:1715  i */\n      dup3\n        /* \"trustless cross-chain/merkle proof/GenMP.sol\":1707:1716  leaves[i] */\n      dup2\n      mload\n      dup2\n      lt\n      tag_107\n      jumpi\n      tag_108\n      tag_48\n      jump\t// in\n    tag_108:\n    tag_107:\n      0x20\n      mul\n      0x20\n      add\n      add\n        /* \"trustless cross-chain/merkle proof/GenMP.sol\":1707:1732  leaves[i] = leaves[i * 2] */\n      dup2\n      dup2\n      mstore\n      pop\n      pop\n        /* \"trustless cross-chain/merkle proof/GenMP.sol\":1546:1751  if (i * 2 + 1 < n) {... */\n    tag_103:\n        /* \"trustless cross-chain/merkle proof/GenMP.sol\":1523:1526  i++ */\n      dup1\n      dup1\n      tag_109\n      swap1\n      tag_78\n      jump\t// in\n    tag_109:\n      swap2\n      pop\n      pop\n        /* \"trustless cross-chain/merkle proof/GenMP.sol\":1496:1765  for (uint256 i = 0; i < m; i++) {... */\n      jump(tag_86)\n    tag_87:\n      pop\n        /* \"trustless cross-chain/merkle proof/GenMP.sol\":1782:1783  m */\n      dup1\n        /* \"trustless cross-chain/merkle proof/GenMP.sol\":1778:1783  n = m */\n      swap2\n      pop\n        /* \"trustless cross-chain/merkle proof/GenMP.sol\":1445:1794  {... */\n      pop\n        /* \"trustless cross-chain/merkle proof/GenMP.sol\":1431:1794  while (n > 1) {... */\n      jump(tag_81)\n    tag_82:\n        /* \"trustless cross-chain/merkle proof/GenMP.sol\":1811:1817  leaves */\n      dup3\n        /* \"trustless cross-chain/merkle proof/GenMP.sol\":1818:1819  0 */\n      0x00\n        /* \"trustless cross-chain/merkle proof/GenMP.sol\":1811:1820  leaves[0] */\n      dup2\n      mload\n      dup2\n      lt\n      tag_110\n      jumpi\n      tag_111\n      tag_48\n      jump\t// in\n    tag_111:\n    tag_110:\n      0x20\n      mul\n      0x20\n      add\n      add\n      mload\n        /* \"trustless cross-chain/merkle proof/GenMP.sol\":1804:1820  return leaves[0] */\n      swap2\n      pop\n      pop\n        /* \"trustless cross-chain/merkle proof/GenMP.sol\":1238:1827  function generateMerkleRoot(bytes32[] memory leaves) public pure returns (bytes32) {... */\n    tag_79:\n      swap2\n      swap1\n      pop\n      jump\t// out\n        /* \"trustless cross-chain/merkle proof/GenMP.sol\":183:1222  function generateMerkleProof(bytes32[] memory leaves, uint256 index) public pure returns (bytes32[] memory) {... */\n    tag_33:\n        /* \"trustless cross-chain/merkle proof/GenMP.sol\":273:289  bytes32[] memory */\n      0x60\n        /* \"trustless cross-chain/merkle proof/GenMP.sol\":317:323  leaves */\n      dup3\n        /* \"trustless cross-chain/merkle proof/GenMP.sol\":317:330  leaves.length */\n      mload\n        /* \"trustless cross-chain/merkle proof/GenMP.sol\":309:314  index */\n      dup3\n        /* \"trustless cross-chain/merkle proof/GenMP.sol\":309:330  index < leaves.length */\n      lt\n        /* \"trustless cross-chain/merkle proof/GenMP.sol\":301:353  require(index < leaves.length, \"Invalid leaf index\") */\n      tag_113\n      jumpi\n      mload(0x40)\n      0x08c379a000000000000000000000000000000000000000000000000000000000\n      dup2\n      mstore\n      0x04\n      add\n      tag_114\n      swap1\n      tag_115\n      jump\t// in\n    tag_114:\n      mload(0x40)\n      dup1\n      swap2\n      sub\n      swap1\n      revert\n    tag_113:\n        /* \"trustless cross-chain/merkle proof/GenMP.sol\":364:383  uint256 proofLength */\n      0x00\n        /* \"trustless cross-chain/merkle proof/GenMP.sol\":402:411  uint256 i */\n      dup1\n        /* \"trustless cross-chain/merkle proof/GenMP.sol\":414:420  leaves */\n      dup5\n        /* \"trustless cross-chain/merkle proof/GenMP.sol\":414:427  leaves.length */\n      mload\n        /* \"trustless cross-chain/merkle proof/GenMP.sol\":402:427  uint256 i = leaves.length */\n      swap1\n      pop\n        /* \"trustless cross-chain/merkle proof/GenMP.sol\":397:491  for (uint256 i = leaves.length; i > 1; i = (i + 1) / 2) {... */\n    tag_116:\n        /* \"trustless cross-chain/merkle proof/GenMP.sol\":433:434  1 */\n      0x01\n        /* \"trustless cross-chain/merkle proof/GenMP.sol\":429:430  i */\n      dup2\n        /* \"trustless cross-chain/merkle proof/GenMP.sol\":429:434  i > 1 */\n      gt\n        /* \"trustless cross-chain/merkle proof/GenMP.sol\":397:491  for (uint256 i = leaves.length; i > 1; i = (i + 1) / 2) {... */\n      iszero\n      tag_117\n      jumpi\n        /* \"trustless cross-chain/merkle proof/GenMP.sol\":467:480  proofLength++ */\n      dup2\n      dup1\n      tag_119\n      swap1\n      tag_78\n      jump\t// in\n    tag_119:\n      swap3\n      pop\n      pop\n        /* \"trustless cross-chain/merkle proof/GenMP.sol\":450:451  2 */\n      0x02\n        /* \"trustless cross-chain/merkle proof/GenMP.sol\":445:446  1 */\n      0x01\n        /* \"trustless cross-chain/merkle proof/GenMP.sol\":441:442  i */\n      dup3\n        /* \"trustless cross-chain/merkle proof/GenMP.sol\":441:446  i + 1 */\n      tag_120\n      swap2\n      swap1\n      tag_84\n      jump\t// in\n    tag_120:\n        /* \"trustless cross-chain/merkle proof/GenMP.sol\":440:451  (i + 1) / 2 */\n      tag_121\n      swap2\n      swap1\n      tag_76\n      jump\t// in\n    tag_121:\n        /* \"trustless cross-chain/merkle proof/GenMP.sol\":436:451  i = (i + 1) / 2 */\n      swap1\n      pop\n        /* \"trustless cross-chain/merkle proof/GenMP.sol\":397:491  for (uint256 i = leaves.length; i > 1; i = (i + 1) / 2) {... */\n      jump(tag_116)\n    tag_117:\n      pop\n        /* \"trustless cross-chain/merkle proof/GenMP.sol\":501:523  bytes32[] memory proof */\n      0x00\n        /* \"trustless cross-chain/merkle proof/GenMP.sol\":540:551  proofLength */\n      dup2\n        /* \"trustless cross-chain/merkle proof/GenMP.sol\":526:552  new bytes32[](proofLength) */\n      0xffffffffffffffff\n      dup2\n      gt\n      iszero\n      tag_122\n      jumpi\n      tag_123\n      tag_44\n      jump\t// in\n    tag_123:\n    tag_122:\n      mload(0x40)\n      swap1\n      dup1\n      dup3\n      mstore\n      dup1\n      0x20\n      mul\n      0x20\n      add\n      dup3\n      add\n      0x40\n      mstore\n      dup1\n      iszero\n      tag_124\n      jumpi\n      dup2\n      0x20\n      add\n      0x20\n      dup3\n      mul\n      dup1\n      calldatasize\n      dup4\n      calldatacopy\n      dup1\n      dup3\n      add\n      swap2\n      pop\n      pop\n      swap1\n      pop\n    tag_124:\n      pop\n        /* \"trustless cross-chain/merkle proof/GenMP.sol\":501:552  bytes32[] memory proof = new bytes32[](proofLength) */\n      swap1\n      pop\n        /* \"trustless cross-chain/merkle proof/GenMP.sol\":562:584  bytes32[] memory nodes */\n      0x00\n        /* \"trustless cross-chain/merkle proof/GenMP.sol\":587:593  leaves */\n      dup6\n        /* \"trustless cross-chain/merkle proof/GenMP.sol\":562:593  bytes32[] memory nodes = leaves */\n      swap1\n      pop\n        /* \"trustless cross-chain/merkle proof/GenMP.sol\":604:622  uint256 proofIndex */\n      0x00\n        /* \"trustless cross-chain/merkle proof/GenMP.sol\":636:1193  while (nodes.length > 1) {... */\n    tag_125:\n        /* \"trustless cross-chain/merkle proof/GenMP.sol\":658:659  1 */\n      0x01\n        /* \"trustless cross-chain/merkle proof/GenMP.sol\":643:648  nodes */\n      dup3\n        /* \"trustless cross-chain/merkle proof/GenMP.sol\":643:655  nodes.length */\n      mload\n        /* \"trustless cross-chain/merkle proof/GenMP.sol\":643:659  nodes.length > 1 */\n      gt\n        /* \"trustless cross-chain/merkle proof/GenMP.sol\":636:1193  while (nodes.length > 1) {... */\n      iszero\n      tag_126\n      jumpi\n        /* \"trustless cross-chain/merkle proof/GenMP.sol\":675:692  uint256 pairIndex */\n      0x00\n        /* \"trustless cross-chain/merkle proof/GenMP.sol\":708:709  0 */\n      dup1\n        /* \"trustless cross-chain/merkle proof/GenMP.sol\":703:704  2 */\n      0x02\n        /* \"trustless cross-chain/merkle proof/GenMP.sol\":695:700  index */\n      dup9\n        /* \"trustless cross-chain/merkle proof/GenMP.sol\":695:704  index % 2 */\n      tag_127\n      swap2\n      swap1\n      tag_69\n      jump\t// in\n    tag_127:\n        /* \"trustless cross-chain/merkle proof/GenMP.sol\":695:709  index % 2 == 0 */\n      eq\n        /* \"trustless cross-chain/merkle proof/GenMP.sol\":695:733  index % 2 == 0 ? index + 1 : index - 1 */\n      tag_128\n      jumpi\n        /* \"trustless cross-chain/merkle proof/GenMP.sol\":732:733  1 */\n      0x01\n        /* \"trustless cross-chain/merkle proof/GenMP.sol\":724:729  index */\n      dup8\n        /* \"trustless cross-chain/merkle proof/GenMP.sol\":724:733  index - 1 */\n      tag_129\n      swap2\n      swap1\n      tag_130\n      jump\t// in\n    tag_129:\n        /* \"trustless cross-chain/merkle proof/GenMP.sol\":695:733  index % 2 == 0 ? index + 1 : index - 1 */\n      jump(tag_131)\n    tag_128:\n        /* \"trustless cross-chain/merkle proof/GenMP.sol\":720:721  1 */\n      0x01\n        /* \"trustless cross-chain/merkle proof/GenMP.sol\":712:717  index */\n      dup8\n        /* \"trustless cross-chain/merkle proof/GenMP.sol\":712:721  index + 1 */\n      tag_132\n      swap2\n      swap1\n      tag_84\n      jump\t// in\n    tag_132:\n        /* \"trustless cross-chain/merkle proof/GenMP.sol\":695:733  index % 2 == 0 ? index + 1 : index - 1 */\n    tag_131:\n        /* \"trustless cross-chain/merkle proof/GenMP.sol\":675:733  uint256 pairIndex = index % 2 == 0 ? index + 1 : index - 1 */\n      swap1\n      pop\n        /* \"trustless cross-chain/merkle proof/GenMP.sol\":763:768  nodes */\n      dup3\n        /* \"trustless cross-chain/merkle proof/GenMP.sol\":763:775  nodes.length */\n      mload\n        /* \"trustless cross-chain/merkle proof/GenMP.sol\":751:760  pairIndex */\n      dup2\n        /* \"trustless cross-chain/merkle proof/GenMP.sol\":751:775  pairIndex < nodes.length */\n      lt\n        /* \"trustless cross-chain/merkle proof/GenMP.sol\":747:876  if (pairIndex < nodes.length) {... */\n      iszero\n      tag_133\n      jumpi\n        /* \"trustless cross-chain/merkle proof/GenMP.sol\":815:820  nodes */\n      dup3\n        /* \"trustless cross-chain/merkle proof/GenMP.sol\":821:830  pairIndex */\n      dup2\n        /* \"trustless cross-chain/merkle proof/GenMP.sol\":815:831  nodes[pairIndex] */\n      dup2\n      mload\n      dup2\n      lt\n      tag_134\n      jumpi\n      tag_135\n      tag_48\n      jump\t// in\n    tag_135:\n    tag_134:\n      0x20\n      mul\n      0x20\n      add\n      add\n      mload\n        /* \"trustless cross-chain/merkle proof/GenMP.sol\":795:800  proof */\n      dup5\n        /* \"trustless cross-chain/merkle proof/GenMP.sol\":801:811  proofIndex */\n      dup4\n        /* \"trustless cross-chain/merkle proof/GenMP.sol\":795:812  proof[proofIndex] */\n      dup2\n      mload\n      dup2\n      lt\n      tag_136\n      jumpi\n      tag_137\n      tag_48\n      jump\t// in\n    tag_137:\n    tag_136:\n      0x20\n      mul\n      0x20\n      add\n      add\n        /* \"trustless cross-chain/merkle proof/GenMP.sol\":795:831  proof[proofIndex] = nodes[pairIndex] */\n      dup2\n      dup2\n      mstore\n      pop\n      pop\n        /* \"trustless cross-chain/merkle proof/GenMP.sol\":849:861  proofIndex++ */\n      dup2\n      dup1\n      tag_138\n      swap1\n      tag_78\n      jump\t// in\n    tag_138:\n      swap3\n      pop\n      pop\n        /* \"trustless cross-chain/merkle proof/GenMP.sol\":747:876  if (pairIndex < nodes.length) {... */\n    tag_133:\n        /* \"trustless cross-chain/merkle proof/GenMP.sol\":890:921  bytes32[] memory nextLevelNodes */\n      0x00\n        /* \"trustless cross-chain/merkle proof/GenMP.sol\":959:960  2 */\n      0x02\n        /* \"trustless cross-chain/merkle proof/GenMP.sol\":954:955  1 */\n      0x01\n        /* \"trustless cross-chain/merkle proof/GenMP.sol\":939:944  nodes */\n      dup6\n        /* \"trustless cross-chain/merkle proof/GenMP.sol\":939:951  nodes.length */\n      mload\n        /* \"trustless cross-chain/merkle proof/GenMP.sol\":939:955  nodes.length + 1 */\n      tag_139\n      swap2\n      swap1\n      tag_84\n      jump\t// in\n    tag_139:\n        /* \"trustless cross-chain/merkle proof/GenMP.sol\":938:960  (nodes.length + 1) / 2 */\n      tag_140\n      swap2\n      swap1\n      tag_76\n      jump\t// in\n    tag_140:\n        /* \"trustless cross-chain/merkle proof/GenMP.sol\":924:961  new bytes32[]((nodes.length + 1) / 2) */\n      0xffffffffffffffff\n      dup2\n      gt\n      iszero\n      tag_141\n      jumpi\n      tag_142\n      tag_44\n      jump\t// in\n    tag_142:\n    tag_141:\n      mload(0x40)\n      swap1\n      dup1\n      dup3\n      mstore\n      dup1\n      0x20\n      mul\n      0x20\n      add\n      dup3\n      add\n      0x40\n      mstore\n      dup1\n      iszero\n      tag_143\n      jumpi\n      dup2\n      0x20\n      add\n      0x20\n      dup3\n      mul\n      dup1\n      calldatasize\n      dup4\n      calldatacopy\n      dup1\n      dup3\n      add\n      swap2\n      pop\n      pop\n      swap1\n      pop\n    tag_143:\n      pop\n        /* \"trustless cross-chain/merkle proof/GenMP.sol\":890:961  bytes32[] memory nextLevelNodes = new bytes32[]((nodes.length + 1) / 2) */\n      swap1\n      pop\n        /* \"trustless cross-chain/merkle proof/GenMP.sol\":980:989  uint256 i */\n      0x00\n        /* \"trustless cross-chain/merkle proof/GenMP.sol\":975:1123  for (uint256 i = 0; i < nodes.length; i += 2) {... */\n    tag_144:\n        /* \"trustless cross-chain/merkle proof/GenMP.sol\":999:1004  nodes */\n      dup5\n        /* \"trustless cross-chain/merkle proof/GenMP.sol\":999:1011  nodes.length */\n      mload\n        /* \"trustless cross-chain/merkle proof/GenMP.sol\":995:996  i */\n      dup2\n        /* \"trustless cross-chain/merkle proof/GenMP.sol\":995:1011  i < nodes.length */\n      lt\n        /* \"trustless cross-chain/merkle proof/GenMP.sol\":975:1123  for (uint256 i = 0; i < nodes.length; i += 2) {... */\n      iszero\n      tag_145\n      jumpi\n        /* \"trustless cross-chain/merkle proof/GenMP.sol\":1084:1089  nodes */\n      dup5\n        /* \"trustless cross-chain/merkle proof/GenMP.sol\":1090:1091  i */\n      dup2\n        /* \"trustless cross-chain/merkle proof/GenMP.sol\":1084:1092  nodes[i] */\n      dup2\n      mload\n      dup2\n      lt\n      tag_147\n      jumpi\n      tag_148\n      tag_48\n      jump\t// in\n    tag_148:\n    tag_147:\n      0x20\n      mul\n      0x20\n      add\n      add\n      mload\n        /* \"trustless cross-chain/merkle proof/GenMP.sol\":1094:1099  nodes */\n      dup6\n        /* \"trustless cross-chain/merkle proof/GenMP.sol\":1104:1105  1 */\n      0x01\n        /* \"trustless cross-chain/merkle proof/GenMP.sol\":1100:1101  i */\n      dup4\n        /* \"trustless cross-chain/merkle proof/GenMP.sol\":1100:1105  i + 1 */\n      tag_149\n      swap2\n      swap1\n      tag_84\n      jump\t// in\n    tag_149:\n        /* \"trustless cross-chain/merkle proof/GenMP.sol\":1094:1106  nodes[i + 1] */\n      dup2\n      mload\n      dup2\n      lt\n      tag_150\n      jumpi\n      tag_151\n      tag_48\n      jump\t// in\n    tag_151:\n    tag_150:\n      0x20\n      mul\n      0x20\n      add\n      add\n      mload\n        /* \"trustless cross-chain/merkle proof/GenMP.sol\":1073:1107  abi.encode(nodes[i], nodes[i + 1]) */\n      add(0x20, mload(0x40))\n      tag_152\n      swap3\n      swap2\n      swap1\n      tag_153\n      jump\t// in\n    tag_152:\n      mload(0x40)\n      0x20\n      dup2\n      dup4\n      sub\n      sub\n      dup2\n      mstore\n      swap1\n      0x40\n      mstore\n        /* \"trustless cross-chain/merkle proof/GenMP.sol\":1063:1108  keccak256(abi.encode(nodes[i], nodes[i + 1])) */\n      dup1\n      mload\n      swap1\n      0x20\n      add\n      keccak256\n        /* \"trustless cross-chain/merkle proof/GenMP.sol\":1039:1053  nextLevelNodes */\n      dup3\n        /* \"trustless cross-chain/merkle proof/GenMP.sol\":1058:1059  2 */\n      0x02\n        /* \"trustless cross-chain/merkle proof/GenMP.sol\":1054:1055  i */\n      dup4\n        /* \"trustless cross-chain/merkle proof/GenMP.sol\":1054:1059  i / 2 */\n      tag_154\n      swap2\n      swap1\n      tag_76\n      jump\t// in\n    tag_154:\n        /* \"trustless cross-chain/merkle proof/GenMP.sol\":1039:1060  nextLevelNodes[i / 2] */\n      dup2\n      mload\n      dup2\n      lt\n      tag_155\n      jumpi\n      tag_156\n      tag_48\n      jump\t// in\n    tag_156:\n    tag_155:\n      0x20\n      mul\n      0x20\n      add\n      add\n        /* \"trustless cross-chain/merkle proof/GenMP.sol\":1039:1108  nextLevelNodes[i / 2] = keccak256(abi.encode(nodes[i], nodes[i + 1])) */\n      dup2\n      dup2\n      mstore\n      pop\n      pop\n        /* \"trustless cross-chain/merkle proof/GenMP.sol\":1018:1019  2 */\n      0x02\n        /* \"trustless cross-chain/merkle proof/GenMP.sol\":1013:1019  i += 2 */\n      dup2\n      tag_157\n      swap2\n      swap1\n      tag_84\n      jump\t// in\n    tag_157:\n      swap1\n      pop\n        /* \"trustless cross-chain/merkle proof/GenMP.sol\":975:1123  for (uint256 i = 0; i < nodes.length; i += 2) {... */\n      jump(tag_144)\n    tag_145:\n      pop\n        /* \"trustless cross-chain/merkle proof/GenMP.sol\":1144:1158  nextLevelNodes */\n      dup1\n        /* \"trustless cross-chain/merkle proof/GenMP.sol\":1136:1158  nodes = nextLevelNodes */\n      swap4\n      pop\n        /* \"trustless cross-chain/merkle proof/GenMP.sol\":1181:1182  2 */\n      0x02\n        /* \"trustless cross-chain/merkle proof/GenMP.sol\":1172:1182  index /= 2 */\n      dup9\n      tag_158\n      swap2\n      swap1\n      tag_76\n      jump\t// in\n    tag_158:\n      swap8\n      pop\n        /* \"trustless cross-chain/merkle proof/GenMP.sol\":661:1193  {... */\n      pop\n      pop\n        /* \"trustless cross-chain/merkle proof/GenMP.sol\":636:1193  while (nodes.length > 1) {... */\n      jump(tag_125)\n    tag_126:\n        /* \"trustless cross-chain/merkle proof/GenMP.sol\":1210:1215  proof */\n      dup3\n        /* \"trustless cross-chain/merkle proof/GenMP.sol\":1203:1215  return proof */\n      swap5\n      pop\n      pop\n      pop\n      pop\n      pop\n        /* \"trustless cross-chain/merkle proof/GenMP.sol\":183:1222  function generateMerkleProof(bytes32[] memory leaves, uint256 index) public pure returns (bytes32[] memory) {... */\n      swap3\n      swap2\n      pop\n      pop\n      jump\t// out\n        /* \"#utility.yul\":7:82   */\n    tag_159:\n        /* \"#utility.yul\":40:46   */\n      0x00\n        /* \"#utility.yul\":73:75   */\n      0x40\n        /* \"#utility.yul\":67:76   */\n      mload\n        /* \"#utility.yul\":57:76   */\n      swap1\n      pop\n        /* \"#utility.yul\":7:82   */\n      swap1\n      jump\t// out\n        /* \"#utility.yul\":88:205   */\n    tag_160:\n        /* \"#utility.yul\":197:198   */\n      0x00\n        /* \"#utility.yul\":194:195   */\n      dup1\n        /* \"#utility.yul\":187:199   */\n      revert\n        /* \"#utility.yul\":211:328   */\n    tag_161:\n        /* \"#utility.yul\":320:321   */\n      0x00\n        /* \"#utility.yul\":317:318   */\n      dup1\n        /* \"#utility.yul\":310:322   */\n      revert\n        /* \"#utility.yul\":334:411   */\n    tag_162:\n        /* \"#utility.yul\":371:378   */\n      0x00\n        /* \"#utility.yul\":400:405   */\n      dup2\n        /* \"#utility.yul\":389:405   */\n      swap1\n      pop\n        /* \"#utility.yul\":334:411   */\n      swap2\n      swap1\n      pop\n      jump\t// out\n        /* \"#utility.yul\":417:539   */\n    tag_163:\n        /* \"#utility.yul\":490:514   */\n      tag_201\n        /* \"#utility.yul\":508:513   */\n      dup2\n        /* \"#utility.yul\":490:514   */\n      tag_162\n      jump\t// in\n    tag_201:\n        /* \"#utility.yul\":483:488   */\n      dup2\n        /* \"#utility.yul\":480:515   */\n      eq\n        /* \"#utility.yul\":470:533   */\n      tag_202\n      jumpi\n        /* \"#utility.yul\":529:530   */\n      0x00\n        /* \"#utility.yul\":526:527   */\n      dup1\n        /* \"#utility.yul\":519:531   */\n      revert\n        /* \"#utility.yul\":470:533   */\n    tag_202:\n        /* \"#utility.yul\":417:539   */\n      pop\n      jump\t// out\n        /* \"#utility.yul\":545:684   */\n    tag_164:\n        /* \"#utility.yul\":591:596   */\n      0x00\n        /* \"#utility.yul\":629:635   */\n      dup2\n        /* \"#utility.yul\":616:636   */\n      calldataload\n        /* \"#utility.yul\":607:636   */\n      swap1\n      pop\n        /* \"#utility.yul\":645:678   */\n      tag_204\n        /* \"#utility.yul\":672:677   */\n      dup2\n        /* \"#utility.yul\":645:678   */\n      tag_163\n      jump\t// in\n    tag_204:\n        /* \"#utility.yul\":545:684   */\n      swap3\n      swap2\n      pop\n      pop\n      jump\t// out\n        /* \"#utility.yul\":690:1019   */\n    tag_10:\n        /* \"#utility.yul\":749:755   */\n      0x00\n        /* \"#utility.yul\":798:800   */\n      0x20\n        /* \"#utility.yul\":786:795   */\n      dup3\n        /* \"#utility.yul\":777:784   */\n      dup5\n        /* \"#utility.yul\":773:796   */\n      sub\n        /* \"#utility.yul\":769:801   */\n      slt\n        /* \"#utility.yul\":766:885   */\n      iszero\n      tag_206\n      jumpi\n        /* \"#utility.yul\":804:883   */\n      tag_207\n      tag_160\n      jump\t// in\n    tag_207:\n        /* \"#utility.yul\":766:885   */\n    tag_206:\n        /* \"#utility.yul\":924:925   */\n      0x00\n        /* \"#utility.yul\":949:1002   */\n      tag_208\n        /* \"#utility.yul\":994:1001   */\n      dup5\n        /* \"#utility.yul\":985:991   */\n      dup3\n        /* \"#utility.yul\":974:983   */\n      dup6\n        /* \"#utility.yul\":970:992   */\n      add\n        /* \"#utility.yul\":949:1002   */\n      tag_164\n      jump\t// in\n    tag_208:\n        /* \"#utility.yul\":939:1002   */\n      swap2\n      pop\n        /* \"#utility.yul\":895:1012   */\n      pop\n        /* \"#utility.yul\":690:1019   */\n      swap3\n      swap2\n      pop\n      pop\n      jump\t// out\n        /* \"#utility.yul\":1025:1139   */\n    tag_165:\n        /* \"#utility.yul\":1092:1098   */\n      0x00\n        /* \"#utility.yul\":1126:1131   */\n      dup2\n        /* \"#utility.yul\":1120:1132   */\n      mload\n        /* \"#utility.yul\":1110:1132   */\n      swap1\n      pop\n        /* \"#utility.yul\":1025:1139   */\n      swap2\n      swap1\n      pop\n      jump\t// out\n        /* \"#utility.yul\":1145:1329   */\n    tag_166:\n        /* \"#utility.yul\":1244:1255   */\n      0x00\n        /* \"#utility.yul\":1278:1284   */\n      dup3\n        /* \"#utility.yul\":1273:1276   */\n      dup3\n        /* \"#utility.yul\":1266:1285   */\n      mstore\n        /* \"#utility.yul\":1318:1322   */\n      0x20\n        /* \"#utility.yul\":1313:1316   */\n      dup3\n        /* \"#utility.yul\":1309:1323   */\n      add\n        /* \"#utility.yul\":1294:1323   */\n      swap1\n      pop\n        /* \"#utility.yul\":1145:1329   */\n      swap3\n      swap2\n      pop\n      pop\n      jump\t// out\n        /* \"#utility.yul\":1335:1467   */\n    tag_167:\n        /* \"#utility.yul\":1402:1406   */\n      0x00\n        /* \"#utility.yul\":1425:1428   */\n      dup2\n        /* \"#utility.yul\":1417:1428   */\n      swap1\n      pop\n        /* \"#utility.yul\":1455:1459   */\n      0x20\n        /* \"#utility.yul\":1450:1453   */\n      dup3\n        /* \"#utility.yul\":1446:1460   */\n      add\n        /* \"#utility.yul\":1438:1460   */\n      swap1\n      pop\n        /* \"#utility.yul\":1335:1467   */\n      swap2\n      swap1\n      pop\n      jump\t// out\n        /* \"#utility.yul\":1473:1550   */\n    tag_168:\n        /* \"#utility.yul\":1510:1517   */\n      0x00\n        /* \"#utility.yul\":1539:1544   */\n      dup2\n        /* \"#utility.yul\":1528:1544   */\n      swap1\n      pop\n        /* \"#utility.yul\":1473:1550   */\n      swap2\n      swap1\n      pop\n      jump\t// out\n        /* \"#utility.yul\":1556:1664   */\n    tag_169:\n        /* \"#utility.yul\":1633:1657   */\n      tag_214\n        /* \"#utility.yul\":1651:1656   */\n      dup2\n        /* \"#utility.yul\":1633:1657   */\n      tag_168\n      jump\t// in\n    tag_214:\n        /* \"#utility.yul\":1628:1631   */\n      dup3\n        /* \"#utility.yul\":1621:1658   */\n      mstore\n        /* \"#utility.yul\":1556:1664   */\n      pop\n      pop\n      jump\t// out\n        /* \"#utility.yul\":1670:1849   */\n    tag_170:\n        /* \"#utility.yul\":1739:1749   */\n      0x00\n        /* \"#utility.yul\":1760:1806   */\n      tag_216\n        /* \"#utility.yul\":1802:1805   */\n      dup4\n        /* \"#utility.yul\":1794:1800   */\n      dup4\n        /* \"#utility.yul\":1760:1806   */\n      tag_169\n      jump\t// in\n    tag_216:\n        /* \"#utility.yul\":1838:1842   */\n      0x20\n        /* \"#utility.yul\":1833:1836   */\n      dup4\n        /* \"#utility.yul\":1829:1843   */\n      add\n        /* \"#utility.yul\":1815:1843   */\n      swap1\n      pop\n        /* \"#utility.yul\":1670:1849   */\n      swap3\n      swap2\n      pop\n      pop\n      jump\t// out\n        /* \"#utility.yul\":1855:1968   */\n    tag_171:\n        /* \"#utility.yul\":1925:1929   */\n      0x00\n        /* \"#utility.yul\":1957:1961   */\n      0x20\n        /* \"#utility.yul\":1952:1955   */\n      dup3\n        /* \"#utility.yul\":1948:1962   */\n      add\n        /* \"#utility.yul\":1940:1962   */\n      swap1\n      pop\n        /* \"#utility.yul\":1855:1968   */\n      swap2\n      swap1\n      pop\n      jump\t// out\n        /* \"#utility.yul\":2004:2736   */\n    tag_172:\n        /* \"#utility.yul\":2123:2126   */\n      0x00\n        /* \"#utility.yul\":2152:2206   */\n      tag_219\n        /* \"#utility.yul\":2200:2205   */\n      dup3\n        /* \"#utility.yul\":2152:2206   */\n      tag_165\n      jump\t// in\n    tag_219:\n        /* \"#utility.yul\":2222:2308   */\n      tag_220\n        /* \"#utility.yul\":2301:2307   */\n      dup2\n        /* \"#utility.yul\":2296:2299   */\n      dup6\n        /* \"#utility.yul\":2222:2308   */\n      tag_166\n      jump\t// in\n    tag_220:\n        /* \"#utility.yul\":2215:2308   */\n      swap4\n      pop\n        /* \"#utility.yul\":2332:2388   */\n      tag_221\n        /* \"#utility.yul\":2382:2387   */\n      dup4\n        /* \"#utility.yul\":2332:2388   */\n      tag_167\n      jump\t// in\n    tag_221:\n        /* \"#utility.yul\":2411:2418   */\n      dup1\n        /* \"#utility.yul\":2442:2443   */\n      0x00\n        /* \"#utility.yul\":2427:2711   */\n    tag_222:\n        /* \"#utility.yul\":2452:2458   */\n      dup4\n        /* \"#utility.yul\":2449:2450   */\n      dup2\n        /* \"#utility.yul\":2446:2459   */\n      lt\n        /* \"#utility.yul\":2427:2711   */\n      iszero\n      tag_224\n      jumpi\n        /* \"#utility.yul\":2528:2534   */\n      dup2\n        /* \"#utility.yul\":2522:2535   */\n      mload\n        /* \"#utility.yul\":2555:2618   */\n      tag_225\n        /* \"#utility.yul\":2614:2617   */\n      dup9\n        /* \"#utility.yul\":2599:2612   */\n      dup3\n        /* \"#utility.yul\":2555:2618   */\n      tag_170\n      jump\t// in\n    tag_225:\n        /* \"#utility.yul\":2548:2618   */\n      swap8\n      pop\n        /* \"#utility.yul\":2641:2701   */\n      tag_226\n        /* \"#utility.yul\":2694:2700   */\n      dup4\n        /* \"#utility.yul\":2641:2701   */\n      tag_171\n      jump\t// in\n    tag_226:\n        /* \"#utility.yul\":2631:2701   */\n      swap3\n      pop\n        /* \"#utility.yul\":2487:2711   */\n      pop\n        /* \"#utility.yul\":2474:2475   */\n      0x01\n        /* \"#utility.yul\":2471:2472   */\n      dup2\n        /* \"#utility.yul\":2467:2476   */\n      add\n        /* \"#utility.yul\":2462:2476   */\n      swap1\n      pop\n        /* \"#utility.yul\":2427:2711   */\n      jump(tag_222)\n    tag_224:\n        /* \"#utility.yul\":2431:2445   */\n      pop\n        /* \"#utility.yul\":2727:2730   */\n      dup6\n        /* \"#utility.yul\":2720:2730   */\n      swap4\n      pop\n        /* \"#utility.yul\":2128:2736   */\n      pop\n      pop\n      pop\n        /* \"#utility.yul\":2004:2736   */\n      swap3\n      swap2\n      pop\n      pop\n      jump\t// out\n        /* \"#utility.yul\":2742:2860   */\n    tag_173:\n        /* \"#utility.yul\":2829:2853   */\n      tag_228\n        /* \"#utility.yul\":2847:2852   */\n      dup2\n        /* \"#utility.yul\":2829:2853   */\n      tag_168\n      jump\t// in\n    tag_228:\n        /* \"#utility.yul\":2824:2827   */\n      dup3\n        /* \"#utility.yul\":2817:2854   */\n      mstore\n        /* \"#utility.yul\":2742:2860   */\n      pop\n      pop\n      jump\t// out\n        /* \"#utility.yul\":2866:3459   */\n    tag_13:\n        /* \"#utility.yul\":3065:3069   */\n      0x00\n        /* \"#utility.yul\":3103:3105   */\n      0x60\n        /* \"#utility.yul\":3092:3101   */\n      dup3\n        /* \"#utility.yul\":3088:3106   */\n      add\n        /* \"#utility.yul\":3080:3106   */\n      swap1\n      pop\n        /* \"#utility.yul\":3152:3161   */\n      dup2\n        /* \"#utility.yul\":3146:3150   */\n      dup2\n        /* \"#utility.yul\":3142:3162   */\n      sub\n        /* \"#utility.yul\":3138:3139   */\n      0x00\n        /* \"#utility.yul\":3127:3136   */\n      dup4\n        /* \"#utility.yul\":3123:3140   */\n      add\n        /* \"#utility.yul\":3116:3163   */\n      mstore\n        /* \"#utility.yul\":3180:3288   */\n      tag_230\n        /* \"#utility.yul\":3283:3287   */\n      dup2\n        /* \"#utility.yul\":3274:3280   */\n      dup7\n        /* \"#utility.yul\":3180:3288   */\n      tag_172\n      jump\t// in\n    tag_230:\n        /* \"#utility.yul\":3172:3288   */\n      swap1\n      pop\n        /* \"#utility.yul\":3298:3370   */\n      tag_231\n        /* \"#utility.yul\":3366:3368   */\n      0x20\n        /* \"#utility.yul\":3355:3364   */\n      dup4\n        /* \"#utility.yul\":3351:3369   */\n      add\n        /* \"#utility.yul\":3342:3348   */\n      dup6\n        /* \"#utility.yul\":3298:3370   */\n      tag_173\n      jump\t// in\n    tag_231:\n        /* \"#utility.yul\":3380:3452   */\n      tag_232\n        /* \"#utility.yul\":3448:3450   */\n      0x40\n        /* \"#utility.yul\":3437:3446   */\n      dup4\n        /* \"#utility.yul\":3433:3451   */\n      add\n        /* \"#utility.yul\":3424:3430   */\n      dup5\n        /* \"#utility.yul\":3380:3452   */\n      tag_173\n      jump\t// in\n    tag_232:\n        /* \"#utility.yul\":2866:3459   */\n      swap5\n      swap4\n      pop\n      pop\n      pop\n      pop\n      jump\t// out\n        /* \"#utility.yul\":3465:3555   */\n    tag_174:\n        /* \"#utility.yul\":3499:3506   */\n      0x00\n        /* \"#utility.yul\":3542:3547   */\n      dup2\n        /* \"#utility.yul\":3535:3548   */\n      iszero\n        /* \"#utility.yul\":3528:3549   */\n      iszero\n        /* \"#utility.yul\":3517:3549   */\n      swap1\n      pop\n        /* \"#utility.yul\":3465:3555   */\n      swap2\n      swap1\n      pop\n      jump\t// out\n        /* \"#utility.yul\":3561:3670   */\n    tag_175:\n        /* \"#utility.yul\":3642:3663   */\n      tag_235\n        /* \"#utility.yul\":3657:3662   */\n      dup2\n        /* \"#utility.yul\":3642:3663   */\n      tag_174\n      jump\t// in\n    tag_235:\n        /* \"#utility.yul\":3637:3640   */\n      dup3\n        /* \"#utility.yul\":3630:3664   */\n      mstore\n        /* \"#utility.yul\":3561:3670   */\n      pop\n      pop\n      jump\t// out\n        /* \"#utility.yul\":3676:3886   */\n    tag_18:\n        /* \"#utility.yul\":3763:3767   */\n      0x00\n        /* \"#utility.yul\":3801:3803   */\n      0x20\n        /* \"#utility.yul\":3790:3799   */\n      dup3\n        /* \"#utility.yul\":3786:3804   */\n      add\n        /* \"#utility.yul\":3778:3804   */\n      swap1\n      pop\n        /* \"#utility.yul\":3814:3879   */\n      tag_237\n        /* \"#utility.yul\":3876:3877   */\n      0x00\n        /* \"#utility.yul\":3865:3874   */\n      dup4\n        /* \"#utility.yul\":3861:3878   */\n      add\n        /* \"#utility.yul\":3852:3858   */\n      dup5\n        /* \"#utility.yul\":3814:3879   */\n      tag_175\n      jump\t// in\n    tag_237:\n        /* \"#utility.yul\":3676:3886   */\n      swap3\n      swap2\n      pop\n      pop\n      jump\t// out\n        /* \"#utility.yul\":3892:4009   */\n    tag_176:\n        /* \"#utility.yul\":4001:4002   */\n      0x00\n        /* \"#utility.yul\":3998:3999   */\n      dup1\n        /* \"#utility.yul\":3991:4003   */\n      revert\n        /* \"#utility.yul\":4015:4117   */\n    tag_177:\n        /* \"#utility.yul\":4056:4062   */\n      0x00\n        /* \"#utility.yul\":4107:4109   */\n      0x1f\n        /* \"#utility.yul\":4103:4110   */\n      not\n        /* \"#utility.yul\":4098:4100   */\n      0x1f\n        /* \"#utility.yul\":4091:4096   */\n      dup4\n        /* \"#utility.yul\":4087:4101   */\n      add\n        /* \"#utility.yul\":4083:4111   */\n      and\n        /* \"#utility.yul\":4073:4111   */\n      swap1\n      pop\n        /* \"#utility.yul\":4015:4117   */\n      swap2\n      swap1\n      pop\n      jump\t// out\n        /* \"#utility.yul\":4123:4303   */\n    tag_44:\n        /* \"#utility.yul\":4171:4248   */\n      0x4e487b7100000000000000000000000000000000000000000000000000000000\n        /* \"#utility.yul\":4168:4169   */\n      0x00\n        /* \"#utility.yul\":4161:4249   */\n      mstore\n        /* \"#utility.yul\":4268:4272   */\n      0x41\n        /* \"#utility.yul\":4265:4266   */\n      0x04\n        /* \"#utility.yul\":4258:4273   */\n      mstore\n        /* \"#utility.yul\":4292:4296   */\n      0x24\n        /* \"#utility.yul\":4289:4290   */\n      0x00\n        /* \"#utility.yul\":4282:4297   */\n      revert\n        /* \"#utility.yul\":4309:4590   */\n    tag_178:\n        /* \"#utility.yul\":4392:4419   */\n      tag_242\n        /* \"#utility.yul\":4414:4418   */\n      dup3\n        /* \"#utility.yul\":4392:4419   */\n      tag_177\n      jump\t// in\n    tag_242:\n        /* \"#utility.yul\":4384:4390   */\n      dup2\n        /* \"#utility.yul\":4380:4420   */\n      add\n        /* \"#utility.yul\":4522:4528   */\n      dup2\n        /* \"#utility.yul\":4510:4520   */\n      dup2\n        /* \"#utility.yul\":4507:4529   */\n      lt\n        /* \"#utility.yul\":4486:4504   */\n      0xffffffffffffffff\n        /* \"#utility.yul\":4474:4484   */\n      dup3\n        /* \"#utility.yul\":4471:4505   */\n      gt\n        /* \"#utility.yul\":4468:4530   */\n      or\n        /* \"#utility.yul\":4465:4553   */\n      iszero\n      tag_243\n      jumpi\n        /* \"#utility.yul\":4533:4551   */\n      tag_244\n      tag_44\n      jump\t// in\n    tag_244:\n        /* \"#utility.yul\":4465:4553   */\n    tag_243:\n        /* \"#utility.yul\":4573:4583   */\n      dup1\n        /* \"#utility.yul\":4569:4571   */\n      0x40\n        /* \"#utility.yul\":4562:4584   */\n      mstore\n        /* \"#utility.yul\":4352:4590   */\n      pop\n        /* \"#utility.yul\":4309:4590   */\n      pop\n      pop\n      jump\t// out\n        /* \"#utility.yul\":4596:4725   */\n    tag_179:\n        /* \"#utility.yul\":4630:4636   */\n      0x00\n        /* \"#utility.yul\":4657:4677   */\n      tag_246\n      tag_159\n      jump\t// in\n    tag_246:\n        /* \"#utility.yul\":4647:4677   */\n      swap1\n      pop\n        /* \"#utility.yul\":4686:4719   */\n      tag_247\n        /* \"#utility.yul\":4714:4718   */\n      dup3\n        /* \"#utility.yul\":4706:4712   */\n      dup3\n        /* \"#utility.yul\":4686:4719   */\n      tag_178\n      jump\t// in\n    tag_247:\n        /* \"#utility.yul\":4596:4725   */\n      swap2\n      swap1\n      pop\n      jump\t// out\n        /* \"#utility.yul\":4731:5042   */\n    tag_180:\n        /* \"#utility.yul\":4808:4812   */\n      0x00\n        /* \"#utility.yul\":4898:4916   */\n      0xffffffffffffffff\n        /* \"#utility.yul\":4890:4896   */\n      dup3\n        /* \"#utility.yul\":4887:4917   */\n      gt\n        /* \"#utility.yul\":4884:4940   */\n      iszero\n      tag_249\n      jumpi\n        /* \"#utility.yul\":4920:4938   */\n      tag_250\n      tag_44\n      jump\t// in\n    tag_250:\n        /* \"#utility.yul\":4884:4940   */\n    tag_249:\n        /* \"#utility.yul\":4970:4974   */\n      0x20\n        /* \"#utility.yul\":4962:4968   */\n      dup3\n        /* \"#utility.yul\":4958:4975   */\n      mul\n        /* \"#utility.yul\":4950:4975   */\n      swap1\n      pop\n        /* \"#utility.yul\":5030:5034   */\n      0x20\n        /* \"#utility.yul\":5024:5028   */\n      dup2\n        /* \"#utility.yul\":5020:5035   */\n      add\n        /* \"#utility.yul\":5012:5035   */\n      swap1\n      pop\n        /* \"#utility.yul\":4731:5042   */\n      swap2\n      swap1\n      pop\n      jump\t// out\n        /* \"#utility.yul\":5048:5165   */\n    tag_181:\n        /* \"#utility.yul\":5157:5158   */\n      0x00\n        /* \"#utility.yul\":5154:5155   */\n      dup1\n        /* \"#utility.yul\":5147:5159   */\n      revert\n        /* \"#utility.yul\":5171:5293   */\n    tag_182:\n        /* \"#utility.yul\":5244:5268   */\n      tag_253\n        /* \"#utility.yul\":5262:5267   */\n      dup2\n        /* \"#utility.yul\":5244:5268   */\n      tag_168\n      jump\t// in\n    tag_253:\n        /* \"#utility.yul\":5237:5242   */\n      dup2\n        /* \"#utility.yul\":5234:5269   */\n      eq\n        /* \"#utility.yul\":5224:5287   */\n      tag_254\n      jumpi\n        /* \"#utility.yul\":5283:5284   */\n      0x00\n        /* \"#utility.yul\":5280:5281   */\n      dup1\n        /* \"#utility.yul\":5273:5285   */\n      revert\n        /* \"#utility.yul\":5224:5287   */\n    tag_254:\n        /* \"#utility.yul\":5171:5293   */\n      pop\n      jump\t// out\n        /* \"#utility.yul\":5299:5438   */\n    tag_183:\n        /* \"#utility.yul\":5345:5350   */\n      0x00\n        /* \"#utility.yul\":5383:5389   */\n      dup2\n        /* \"#utility.yul\":5370:5390   */\n      calldataload\n        /* \"#utility.yul\":5361:5390   */\n      swap1\n      pop\n        /* \"#utility.yul\":5399:5432   */\n      tag_256\n        /* \"#utility.yul\":5426:5431   */\n      dup2\n        /* \"#utility.yul\":5399:5432   */\n      tag_182\n      jump\t// in\n    tag_256:\n        /* \"#utility.yul\":5299:5438   */\n      swap3\n      swap2\n      pop\n      pop\n      jump\t// out\n        /* \"#utility.yul\":5461:6171   */\n    tag_184:\n        /* \"#utility.yul\":5557:5562   */\n      0x00\n        /* \"#utility.yul\":5582:5663   */\n      tag_258\n        /* \"#utility.yul\":5598:5662   */\n      tag_259\n        /* \"#utility.yul\":5655:5661   */\n      dup5\n        /* \"#utility.yul\":5598:5662   */\n      tag_180\n      jump\t// in\n    tag_259:\n        /* \"#utility.yul\":5582:5663   */\n      tag_179\n      jump\t// in\n    tag_258:\n        /* \"#utility.yul\":5573:5663   */\n      swap1\n      pop\n        /* \"#utility.yul\":5683:5688   */\n      dup1\n        /* \"#utility.yul\":5712:5718   */\n      dup4\n        /* \"#utility.yul\":5705:5710   */\n      dup3\n        /* \"#utility.yul\":5698:5719   */\n      mstore\n        /* \"#utility.yul\":5746:5750   */\n      0x20\n        /* \"#utility.yul\":5739:5744   */\n      dup3\n        /* \"#utility.yul\":5735:5751   */\n      add\n        /* \"#utility.yul\":5728:5751   */\n      swap1\n      pop\n        /* \"#utility.yul\":5799:5803   */\n      0x20\n        /* \"#utility.yul\":5791:5797   */\n      dup5\n        /* \"#utility.yul\":5787:5804   */\n      mul\n        /* \"#utility.yul\":5779:5785   */\n      dup4\n        /* \"#utility.yul\":5775:5805   */\n      add\n        /* \"#utility.yul\":5828:5831   */\n      dup6\n        /* \"#utility.yul\":5820:5826   */\n      dup2\n        /* \"#utility.yul\":5817:5832   */\n      gt\n        /* \"#utility.yul\":5814:5936   */\n      iszero\n      tag_260\n      jumpi\n        /* \"#utility.yul\":5847:5926   */\n      tag_261\n      tag_181\n      jump\t// in\n    tag_261:\n        /* \"#utility.yul\":5814:5936   */\n    tag_260:\n        /* \"#utility.yul\":5962:5968   */\n      dup4\n        /* \"#utility.yul\":5945:6165   */\n    tag_262:\n        /* \"#utility.yul\":5979:5985   */\n      dup2\n        /* \"#utility.yul\":5974:5977   */\n      dup2\n        /* \"#utility.yul\":5971:5986   */\n      lt\n        /* \"#utility.yul\":5945:6165   */\n      iszero\n      tag_264\n      jumpi\n        /* \"#utility.yul\":6054:6057   */\n      dup1\n        /* \"#utility.yul\":6083:6120   */\n      tag_265\n        /* \"#utility.yul\":6116:6119   */\n      dup9\n        /* \"#utility.yul\":6104:6114   */\n      dup3\n        /* \"#utility.yul\":6083:6120   */\n      tag_183\n      jump\t// in\n    tag_265:\n        /* \"#utility.yul\":6078:6081   */\n      dup5\n        /* \"#utility.yul\":6071:6121   */\n      mstore\n        /* \"#utility.yul\":6150:6154   */\n      0x20\n        /* \"#utility.yul\":6145:6148   */\n      dup5\n        /* \"#utility.yul\":6141:6155   */\n      add\n        /* \"#utility.yul\":6134:6155   */\n      swap4\n      pop\n        /* \"#utility.yul\":6021:6165   */\n      pop\n        /* \"#utility.yul\":6005:6009   */\n      0x20\n        /* \"#utility.yul\":6000:6003   */\n      dup2\n        /* \"#utility.yul\":5996:6010   */\n      add\n        /* \"#utility.yul\":5989:6010   */\n      swap1\n      pop\n        /* \"#utility.yul\":5945:6165   */\n      jump(tag_262)\n    tag_264:\n        /* \"#utility.yul\":5949:5970   */\n      pop\n        /* \"#utility.yul\":5563:6171   */\n      pop\n      pop\n        /* \"#utility.yul\":5461:6171   */\n      swap4\n      swap3\n      pop\n      pop\n      pop\n      jump\t// out\n        /* \"#utility.yul\":6194:6564   */\n    tag_185:\n        /* \"#utility.yul\":6265:6270   */\n      0x00\n        /* \"#utility.yul\":6314:6317   */\n      dup3\n        /* \"#utility.yul\":6307:6311   */\n      0x1f\n        /* \"#utility.yul\":6299:6305   */\n      dup4\n        /* \"#utility.yul\":6295:6312   */\n      add\n        /* \"#utility.yul\":6291:6318   */\n      slt\n        /* \"#utility.yul\":6281:6403   */\n      tag_267\n      jumpi\n        /* \"#utility.yul\":6322:6401   */\n      tag_268\n      tag_176\n      jump\t// in\n    tag_268:\n        /* \"#utility.yul\":6281:6403   */\n    tag_267:\n        /* \"#utility.yul\":6439:6445   */\n      dup2\n        /* \"#utility.yul\":6426:6446   */\n      calldataload\n        /* \"#utility.yul\":6464:6558   */\n      tag_269\n        /* \"#utility.yul\":6554:6557   */\n      dup5\n        /* \"#utility.yul\":6546:6552   */\n      dup3\n        /* \"#utility.yul\":6539:6543   */\n      0x20\n        /* \"#utility.yul\":6531:6537   */\n      dup7\n        /* \"#utility.yul\":6527:6544   */\n      add\n        /* \"#utility.yul\":6464:6558   */\n      tag_184\n      jump\t// in\n    tag_269:\n        /* \"#utility.yul\":6455:6558   */\n      swap2\n      pop\n        /* \"#utility.yul\":6271:6564   */\n      pop\n        /* \"#utility.yul\":6194:6564   */\n      swap3\n      swap2\n      pop\n      pop\n      jump\t// out\n        /* \"#utility.yul\":6570:7399   */\n    tag_21:\n        /* \"#utility.yul\":6672:6678   */\n      0x00\n        /* \"#utility.yul\":6680:6686   */\n      dup1\n        /* \"#utility.yul\":6688:6694   */\n      0x00\n        /* \"#utility.yul\":6737:6739   */\n      0x60\n        /* \"#utility.yul\":6725:6734   */\n      dup5\n        /* \"#utility.yul\":6716:6723   */\n      dup7\n        /* \"#utility.yul\":6712:6735   */\n      sub\n        /* \"#utility.yul\":6708:6740   */\n      slt\n        /* \"#utility.yul\":6705:6824   */\n      iszero\n      tag_271\n      jumpi\n        /* \"#utility.yul\":6743:6822   */\n      tag_272\n      tag_160\n      jump\t// in\n    tag_272:\n        /* \"#utility.yul\":6705:6824   */\n    tag_271:\n        /* \"#utility.yul\":6891:6892   */\n      0x00\n        /* \"#utility.yul\":6880:6889   */\n      dup5\n        /* \"#utility.yul\":6876:6893   */\n      add\n        /* \"#utility.yul\":6863:6894   */\n      calldataload\n        /* \"#utility.yul\":6921:6939   */\n      0xffffffffffffffff\n        /* \"#utility.yul\":6913:6919   */\n      dup2\n        /* \"#utility.yul\":6910:6940   */\n      gt\n        /* \"#utility.yul\":6907:7024   */\n      iszero\n      tag_273\n      jumpi\n        /* \"#utility.yul\":6943:7022   */\n      tag_274\n      tag_161\n      jump\t// in\n    tag_274:\n        /* \"#utility.yul\":6907:7024   */\n    tag_273:\n        /* \"#utility.yul\":7048:7126   */\n      tag_275\n        /* \"#utility.yul\":7118:7125   */\n      dup7\n        /* \"#utility.yul\":7109:7115   */\n      dup3\n        /* \"#utility.yul\":7098:7107   */\n      dup8\n        /* \"#utility.yul\":7094:7116   */\n      add\n        /* \"#utility.yul\":7048:7126   */\n      tag_185\n      jump\t// in\n    tag_275:\n        /* \"#utility.yul\":7038:7126   */\n      swap4\n      pop\n        /* \"#utility.yul\":6834:7136   */\n      pop\n        /* \"#utility.yul\":7175:7177   */\n      0x20\n        /* \"#utility.yul\":7201:7254   */\n      tag_276\n        /* \"#utility.yul\":7246:7253   */\n      dup7\n        /* \"#utility.yul\":7237:7243   */\n      dup3\n        /* \"#utility.yul\":7226:7235   */\n      dup8\n        /* \"#utility.yul\":7222:7244   */\n      add\n        /* \"#utility.yul\":7201:7254   */\n      tag_183\n      jump\t// in\n    tag_276:\n        /* \"#utility.yul\":7191:7254   */\n      swap3\n      pop\n        /* \"#utility.yul\":7146:7264   */\n      pop\n        /* \"#utility.yul\":7303:7305   */\n      0x40\n        /* \"#utility.yul\":7329:7382   */\n      tag_277\n        /* \"#utility.yul\":7374:7381   */\n      dup7\n        /* \"#utility.yul\":7365:7371   */\n      dup3\n        /* \"#utility.yul\":7354:7363   */\n      dup8\n        /* \"#utility.yul\":7350:7372   */\n      add\n        /* \"#utility.yul\":7329:7382   */\n      tag_183\n      jump\t// in\n    tag_277:\n        /* \"#utility.yul\":7319:7382   */\n      swap2\n      pop\n        /* \"#utility.yul\":7274:7392   */\n      pop\n        /* \"#utility.yul\":6570:7399   */\n      swap3\n      pop\n      swap3\n      pop\n      swap3\n      jump\t// out\n        /* \"#utility.yul\":7405:7944   */\n    tag_26:\n        /* \"#utility.yul\":7489:7495   */\n      0x00\n        /* \"#utility.yul\":7538:7540   */\n      0x20\n        /* \"#utility.yul\":7526:7535   */\n      dup3\n        /* \"#utility.yul\":7517:7524   */\n      dup5\n        /* \"#utility.yul\":7513:7536   */\n      sub\n        /* \"#utility.yul\":7509:7541   */\n      slt\n        /* \"#utility.yul\":7506:7625   */\n      iszero\n      tag_279\n      jumpi\n        /* \"#utility.yul\":7544:7623   */\n      tag_280\n      tag_160\n      jump\t// in\n    tag_280:\n        /* \"#utility.yul\":7506:7625   */\n    tag_279:\n        /* \"#utility.yul\":7692:7693   */\n      0x00\n        /* \"#utility.yul\":7681:7690   */\n      dup3\n        /* \"#utility.yul\":7677:7694   */\n      add\n        /* \"#utility.yul\":7664:7695   */\n      calldataload\n        /* \"#utility.yul\":7722:7740   */\n      0xffffffffffffffff\n        /* \"#utility.yul\":7714:7720   */\n      dup2\n        /* \"#utility.yul\":7711:7741   */\n      gt\n        /* \"#utility.yul\":7708:7825   */\n      iszero\n      tag_281\n      jumpi\n        /* \"#utility.yul\":7744:7823   */\n      tag_282\n      tag_161\n      jump\t// in\n    tag_282:\n        /* \"#utility.yul\":7708:7825   */\n    tag_281:\n        /* \"#utility.yul\":7849:7927   */\n      tag_283\n        /* \"#utility.yul\":7919:7926   */\n      dup5\n        /* \"#utility.yul\":7910:7916   */\n      dup3\n        /* \"#utility.yul\":7899:7908   */\n      dup6\n        /* \"#utility.yul\":7895:7917   */\n      add\n        /* \"#utility.yul\":7849:7927   */\n      tag_185\n      jump\t// in\n    tag_283:\n        /* \"#utility.yul\":7839:7927   */\n      swap2\n      pop\n        /* \"#utility.yul\":7635:7937   */\n      pop\n        /* \"#utility.yul\":7405:7944   */\n      swap3\n      swap2\n      pop\n      pop\n      jump\t// out\n        /* \"#utility.yul\":7950:8172   */\n    tag_29:\n        /* \"#utility.yul\":8043:8047   */\n      0x00\n        /* \"#utility.yul\":8081:8083   */\n      0x20\n        /* \"#utility.yul\":8070:8079   */\n      dup3\n        /* \"#utility.yul\":8066:8084   */\n      add\n        /* \"#utility.yul\":8058:8084   */\n      swap1\n      pop\n        /* \"#utility.yul\":8094:8165   */\n      tag_285\n        /* \"#utility.yul\":8162:8163   */\n      0x00\n        /* \"#utility.yul\":8151:8160   */\n      dup4\n        /* \"#utility.yul\":8147:8164   */\n      add\n        /* \"#utility.yul\":8138:8144   */\n      dup5\n        /* \"#utility.yul\":8094:8165   */\n      tag_173\n      jump\t// in\n    tag_285:\n        /* \"#utility.yul\":7950:8172   */\n      swap3\n      swap2\n      pop\n      pop\n      jump\t// out\n        /* \"#utility.yul\":8178:8862   */\n    tag_32:\n        /* \"#utility.yul\":8271:8277   */\n      0x00\n        /* \"#utility.yul\":8279:8285   */\n      dup1\n        /* \"#utility.yul\":8328:8330   */\n      0x40\n        /* \"#utility.yul\":8316:8325   */\n      dup4\n        /* \"#utility.yul\":8307:8314   */\n      dup6\n        /* \"#utility.yul\":8303:8326   */\n      sub\n        /* \"#utility.yul\":8299:8331   */\n      slt\n        /* \"#utility.yul\":8296:8415   */\n      iszero\n      tag_287\n      jumpi\n        /* \"#utility.yul\":8334:8413   */\n      tag_288\n      tag_160\n      jump\t// in\n    tag_288:\n        /* \"#utility.yul\":8296:8415   */\n    tag_287:\n        /* \"#utility.yul\":8482:8483   */\n      0x00\n        /* \"#utility.yul\":8471:8480   */\n      dup4\n        /* \"#utility.yul\":8467:8484   */\n      add\n        /* \"#utility.yul\":8454:8485   */\n      calldataload\n        /* \"#utility.yul\":8512:8530   */\n      0xffffffffffffffff\n        /* \"#utility.yul\":8504:8510   */\n      dup2\n        /* \"#utility.yul\":8501:8531   */\n      gt\n        /* \"#utility.yul\":8498:8615   */\n      iszero\n      tag_289\n      jumpi\n        /* \"#utility.yul\":8534:8613   */\n      tag_290\n      tag_161\n      jump\t// in\n    tag_290:\n        /* \"#utility.yul\":8498:8615   */\n    tag_289:\n        /* \"#utility.yul\":8639:8717   */\n      tag_291\n        /* \"#utility.yul\":8709:8716   */\n      dup6\n        /* \"#utility.yul\":8700:8706   */\n      dup3\n        /* \"#utility.yul\":8689:8698   */\n      dup7\n        /* \"#utility.yul\":8685:8707   */\n      add\n        /* \"#utility.yul\":8639:8717   */\n      tag_185\n      jump\t// in\n    tag_291:\n        /* \"#utility.yul\":8629:8717   */\n      swap3\n      pop\n        /* \"#utility.yul\":8425:8727   */\n      pop\n        /* \"#utility.yul\":8766:8768   */\n      0x20\n        /* \"#utility.yul\":8792:8845   */\n      tag_292\n        /* \"#utility.yul\":8837:8844   */\n      dup6\n        /* \"#utility.yul\":8828:8834   */\n      dup3\n        /* \"#utility.yul\":8817:8826   */\n      dup7\n        /* \"#utility.yul\":8813:8835   */\n      add\n        /* \"#utility.yul\":8792:8845   */\n      tag_164\n      jump\t// in\n    tag_292:\n        /* \"#utility.yul\":8782:8845   */\n      swap2\n      pop\n        /* \"#utility.yul\":8737:8855   */\n      pop\n        /* \"#utility.yul\":8178:8862   */\n      swap3\n      pop\n      swap3\n      swap1\n      pop\n      jump\t// out\n        /* \"#utility.yul\":8868:9241   */\n    tag_35:\n        /* \"#utility.yul\":9011:9015   */\n      0x00\n        /* \"#utility.yul\":9049:9051   */\n      0x20\n        /* \"#utility.yul\":9038:9047   */\n      dup3\n        /* \"#utility.yul\":9034:9052   */\n      add\n        /* \"#utility.yul\":9026:9052   */\n      swap1\n      pop\n        /* \"#utility.yul\":9098:9107   */\n      dup2\n        /* \"#utility.yul\":9092:9096   */\n      dup2\n        /* \"#utility.yul\":9088:9108   */\n      sub\n        /* \"#utility.yul\":9084:9085   */\n      0x00\n        /* \"#utility.yul\":9073:9082   */\n      dup4\n        /* \"#utility.yul\":9069:9086   */\n      add\n        /* \"#utility.yul\":9062:9109   */\n      mstore\n        /* \"#utility.yul\":9126:9234   */\n      tag_294\n        /* \"#utility.yul\":9229:9233   */\n      dup2\n        /* \"#utility.yul\":9220:9226   */\n      dup5\n        /* \"#utility.yul\":9126:9234   */\n      tag_172\n      jump\t// in\n    tag_294:\n        /* \"#utility.yul\":9118:9234   */\n      swap1\n      pop\n        /* \"#utility.yul\":8868:9241   */\n      swap3\n      swap2\n      pop\n      pop\n      jump\t// out\n        /* \"#utility.yul\":9247:9326   */\n    tag_186:\n        /* \"#utility.yul\":9286:9293   */\n      0x00\n        /* \"#utility.yul\":9315:9320   */\n      dup2\n        /* \"#utility.yul\":9304:9320   */\n      swap1\n      pop\n        /* \"#utility.yul\":9247:9326   */\n      swap2\n      swap1\n      pop\n      jump\t// out\n        /* \"#utility.yul\":9332:9489   */\n    tag_187:\n        /* \"#utility.yul\":9437:9482   */\n      tag_297\n        /* \"#utility.yul\":9457:9481   */\n      tag_298\n        /* \"#utility.yul\":9475:9480   */\n      dup3\n        /* \"#utility.yul\":9457:9481   */\n      tag_162\n      jump\t// in\n    tag_298:\n        /* \"#utility.yul\":9437:9482   */\n      tag_186\n      jump\t// in\n    tag_297:\n        /* \"#utility.yul\":9432:9435   */\n      dup3\n        /* \"#utility.yul\":9425:9483   */\n      mstore\n        /* \"#utility.yul\":9332:9489   */\n      pop\n      pop\n      jump\t// out\n        /* \"#utility.yul\":9495:9751   */\n    tag_38:\n        /* \"#utility.yul\":9607:9610   */\n      0x00\n        /* \"#utility.yul\":9622:9697   */\n      tag_300\n        /* \"#utility.yul\":9693:9696   */\n      dup3\n        /* \"#utility.yul\":9684:9690   */\n      dup5\n        /* \"#utility.yul\":9622:9697   */\n      tag_187\n      jump\t// in\n    tag_300:\n        /* \"#utility.yul\":9722:9724   */\n      0x20\n        /* \"#utility.yul\":9717:9720   */\n      dup3\n        /* \"#utility.yul\":9713:9725   */\n      add\n        /* \"#utility.yul\":9706:9725   */\n      swap2\n      pop\n        /* \"#utility.yul\":9742:9745   */\n      dup2\n        /* \"#utility.yul\":9735:9745   */\n      swap1\n      pop\n        /* \"#utility.yul\":9495:9751   */\n      swap3\n      swap2\n      pop\n      pop\n      jump\t// out\n        /* \"#utility.yul\":9757:9937   */\n    tag_48:\n        /* \"#utility.yul\":9805:9882   */\n      0x4e487b7100000000000000000000000000000000000000000000000000000000\n        /* \"#utility.yul\":9802:9803   */\n      0x00\n        /* \"#utility.yul\":9795:9883   */\n      mstore\n        /* \"#utility.yul\":9902:9906   */\n      0x32\n        /* \"#utility.yul\":9899:9900   */\n      0x04\n        /* \"#utility.yul\":9892:9907   */\n      mstore\n        /* \"#utility.yul\":9926:9930   */\n      0x24\n        /* \"#utility.yul\":9923:9924   */\n      0x00\n        /* \"#utility.yul\":9916:9931   */\n      revert\n        /* \"#utility.yul\":9943:10123   */\n    tag_188:\n        /* \"#utility.yul\":9991:10068   */\n      0x4e487b7100000000000000000000000000000000000000000000000000000000\n        /* \"#utility.yul\":9988:9989   */\n      0x00\n        /* \"#utility.yul\":9981:10069   */\n      mstore\n        /* \"#utility.yul\":10088:10092   */\n      0x12\n        /* \"#utility.yul\":10085:10086   */\n      0x04\n        /* \"#utility.yul\":10078:10093   */\n      mstore\n        /* \"#utility.yul\":10112:10116   */\n      0x24\n        /* \"#utility.yul\":10109:10110   */\n      0x00\n        /* \"#utility.yul\":10102:10117   */\n      revert\n        /* \"#utility.yul\":10129:10305   */\n    tag_69:\n        /* \"#utility.yul\":10161:10162   */\n      0x00\n        /* \"#utility.yul\":10178:10198   */\n      tag_304\n        /* \"#utility.yul\":10196:10197   */\n      dup3\n        /* \"#utility.yul\":10178:10198   */\n      tag_162\n      jump\t// in\n    tag_304:\n        /* \"#utility.yul\":10173:10198   */\n      swap2\n      pop\n        /* \"#utility.yul\":10212:10232   */\n      tag_305\n        /* \"#utility.yul\":10230:10231   */\n      dup4\n        /* \"#utility.yul\":10212:10232   */\n      tag_162\n      jump\t// in\n    tag_305:\n        /* \"#utility.yul\":10207:10232   */\n      swap3\n      pop\n        /* \"#utility.yul\":10251:10252   */\n      dup3\n        /* \"#utility.yul\":10241:10276   */\n      tag_306\n      jumpi\n        /* \"#utility.yul\":10256:10274   */\n      tag_307\n      tag_188\n      jump\t// in\n    tag_307:\n        /* \"#utility.yul\":10241:10276   */\n    tag_306:\n        /* \"#utility.yul\":10297:10298   */\n      dup3\n        /* \"#utility.yul\":10294:10295   */\n      dup3\n        /* \"#utility.yul\":10290:10299   */\n      mod\n        /* \"#utility.yul\":10285:10299   */\n      swap1\n      pop\n        /* \"#utility.yul\":10129:10305   */\n      swap3\n      swap2\n      pop\n      pop\n      jump\t// out\n        /* \"#utility.yul\":10311:10390   */\n    tag_189:\n        /* \"#utility.yul\":10350:10357   */\n      0x00\n        /* \"#utility.yul\":10379:10384   */\n      dup2\n        /* \"#utility.yul\":10368:10384   */\n      swap1\n      pop\n        /* \"#utility.yul\":10311:10390   */\n      swap2\n      swap1\n      pop\n      jump\t// out\n        /* \"#utility.yul\":10396:10553   */\n    tag_190:\n        /* \"#utility.yul\":10501:10546   */\n      tag_310\n        /* \"#utility.yul\":10521:10545   */\n      tag_311\n        /* \"#utility.yul\":10539:10544   */\n      dup3\n        /* \"#utility.yul\":10521:10545   */\n      tag_168\n      jump\t// in\n    tag_311:\n        /* \"#utility.yul\":10501:10546   */\n      tag_189\n      jump\t// in\n    tag_310:\n        /* \"#utility.yul\":10496:10499   */\n      dup3\n        /* \"#utility.yul\":10489:10547   */\n      mstore\n        /* \"#utility.yul\":10396:10553   */\n      pop\n      pop\n      jump\t// out\n        /* \"#utility.yul\":10559:10956   */\n    tag_72:\n        /* \"#utility.yul\":10699:10702   */\n      0x00\n        /* \"#utility.yul\":10714:10789   */\n      tag_313\n        /* \"#utility.yul\":10785:10788   */\n      dup3\n        /* \"#utility.yul\":10776:10782   */\n      dup6\n        /* \"#utility.yul\":10714:10789   */\n      tag_190\n      jump\t// in\n    tag_313:\n        /* \"#utility.yul\":10814:10816   */\n      0x20\n        /* \"#utility.yul\":10809:10812   */\n      dup3\n        /* \"#utility.yul\":10805:10817   */\n      add\n        /* \"#utility.yul\":10798:10817   */\n      swap2\n      pop\n        /* \"#utility.yul\":10827:10902   */\n      tag_314\n        /* \"#utility.yul\":10898:10901   */\n      dup3\n        /* \"#utility.yul\":10889:10895   */\n      dup5\n        /* \"#utility.yul\":10827:10902   */\n      tag_190\n      jump\t// in\n    tag_314:\n        /* \"#utility.yul\":10927:10929   */\n      0x20\n        /* \"#utility.yul\":10922:10925   */\n      dup3\n        /* \"#utility.yul\":10918:10930   */\n      add\n        /* \"#utility.yul\":10911:10930   */\n      swap2\n      pop\n        /* \"#utility.yul\":10947:10950   */\n      dup2\n        /* \"#utility.yul\":10940:10950   */\n      swap1\n      pop\n        /* \"#utility.yul\":10559:10956   */\n      swap4\n      swap3\n      pop\n      pop\n      pop\n      jump\t// out\n        /* \"#utility.yul\":10962:11142   */\n    tag_191:\n        /* \"#utility.yul\":11010:11087   */\n      0x4e487b7100000000000000000000000000000000000000000000000000000000\n        /* \"#utility.yul\":11007:11008   */\n      0x00\n        /* \"#utility.yul\":11000:11088   */\n      mstore\n        /* \"#utility.yul\":11107:11111   */\n      0x11\n        /* \"#utility.yul\":11104:11105   */\n      0x04\n        /* \"#utility.yul\":11097:11112   */\n      mstore\n        /* \"#utility.yul\":11131:11135   */\n      0x24\n        /* \"#utility.yul\":11128:11129   */\n      0x00\n        /* \"#utility.yul\":11121:11136   */\n      revert\n        /* \"#utility.yul\":11148:11333   */\n    tag_76:\n        /* \"#utility.yul\":11188:11189   */\n      0x00\n        /* \"#utility.yul\":11205:11225   */\n      tag_317\n        /* \"#utility.yul\":11223:11224   */\n      dup3\n        /* \"#utility.yul\":11205:11225   */\n      tag_162\n      jump\t// in\n    tag_317:\n        /* \"#utility.yul\":11200:11225   */\n      swap2\n      pop\n        /* \"#utility.yul\":11239:11259   */\n      tag_318\n        /* \"#utility.yul\":11257:11258   */\n      dup4\n        /* \"#utility.yul\":11239:11259   */\n      tag_162\n      jump\t// in\n    tag_318:\n        /* \"#utility.yul\":11234:11259   */\n      swap3\n      pop\n        /* \"#utility.yul\":11278:11279   */\n      dup3\n        /* \"#utility.yul\":11268:11303   */\n      tag_319\n      jumpi\n        /* \"#utility.yul\":11283:11301   */\n      tag_320\n      tag_188\n      jump\t// in\n    tag_320:\n        /* \"#utility.yul\":11268:11303   */\n    tag_319:\n        /* \"#utility.yul\":11325:11326   */\n      dup3\n        /* \"#utility.yul\":11322:11323   */\n      dup3\n        /* \"#utility.yul\":11318:11327   */\n      div\n        /* \"#utility.yul\":11313:11327   */\n      swap1\n      pop\n        /* \"#utility.yul\":11148:11333   */\n      swap3\n      swap2\n      pop\n      pop\n      jump\t// out\n        /* \"#utility.yul\":11339:11572   */\n    tag_78:\n        /* \"#utility.yul\":11378:11381   */\n      0x00\n        /* \"#utility.yul\":11401:11425   */\n      tag_322\n        /* \"#utility.yul\":11419:11424   */\n      dup3\n        /* \"#utility.yul\":11401:11425   */\n      tag_162\n      jump\t// in\n    tag_322:\n        /* \"#utility.yul\":11392:11425   */\n      swap2\n      pop\n        /* \"#utility.yul\":11447:11513   */\n      0xffffffffffffffffffffffffffffffffffffffffffffffffffffffffffffffff\n        /* \"#utility.yul\":11440:11445   */\n      dup3\n        /* \"#utility.yul\":11437:11514   */\n      sub\n        /* \"#utility.yul\":11434:11537   */\n      tag_323\n      jumpi\n        /* \"#utility.yul\":11517:11535   */\n      tag_324\n      tag_191\n      jump\t// in\n    tag_324:\n        /* \"#utility.yul\":11434:11537   */\n    tag_323:\n        /* \"#utility.yul\":11564:11565   */\n      0x01\n        /* \"#utility.yul\":11557:11562   */\n      dup3\n        /* \"#utility.yul\":11553:11566   */\n      add\n        /* \"#utility.yul\":11546:11566   */\n      swap1\n      pop\n        /* \"#utility.yul\":11339:11572   */\n      swap2\n      swap1\n      pop\n      jump\t// out\n        /* \"#utility.yul\":11578:11769   */\n    tag_84:\n        /* \"#utility.yul\":11618:11621   */\n      0x00\n        /* \"#utility.yul\":11637:11657   */\n      tag_326\n        /* \"#utility.yul\":11655:11656   */\n      dup3\n        /* \"#utility.yul\":11637:11657   */\n      tag_162\n      jump\t// in\n    tag_326:\n        /* \"#utility.yul\":11632:11657   */\n      swap2\n      pop\n        /* \"#utility.yul\":11671:11691   */\n      tag_327\n        /* \"#utility.yul\":11689:11690   */\n      dup4\n        /* \"#utility.yul\":11671:11691   */\n      tag_162\n      jump\t// in\n    tag_327:\n        /* \"#utility.yul\":11666:11691   */\n      swap3\n      pop\n        /* \"#utility.yul\":11714:11715   */\n      dup3\n        /* \"#utility.yul\":11711:11712   */\n      dup3\n        /* \"#utility.yul\":11707:11716   */\n      add\n        /* \"#utility.yul\":11700:11716   */\n      swap1\n      pop\n        /* \"#utility.yul\":11735:11738   */\n      dup1\n        /* \"#utility.yul\":11732:11733   */\n      dup3\n        /* \"#utility.yul\":11729:11739   */\n      gt\n        /* \"#utility.yul\":11726:11762   */\n      iszero\n      tag_328\n      jumpi\n        /* \"#utility.yul\":11742:11760   */\n      tag_329\n      tag_191\n      jump\t// in\n    tag_329:\n        /* \"#utility.yul\":11726:11762   */\n    tag_328:\n        /* \"#utility.yul\":11578:11769   */\n      swap3\n      swap2\n      pop\n      pop\n      jump\t// out\n        /* \"#utility.yul\":11775:12185   */\n    tag_90:\n        /* \"#utility.yul\":11815:11822   */\n      0x00\n        /* \"#utility.yul\":11838:11858   */\n      tag_331\n        /* \"#utility.yul\":11856:11857   */\n      dup3\n        /* \"#utility.yul\":11838:11858   */\n      tag_162\n      jump\t// in\n    tag_331:\n        /* \"#utility.yul\":11833:11858   */\n      swap2\n      pop\n        /* \"#utility.yul\":11872:11892   */\n      tag_332\n        /* \"#utility.yul\":11890:11891   */\n      dup4\n        /* \"#utility.yul\":11872:11892   */\n      tag_162\n      jump\t// in\n    tag_332:\n        /* \"#utility.yul\":11867:11892   */\n      swap3\n      pop\n        /* \"#utility.yul\":11927:11928   */\n      dup3\n        /* \"#utility.yul\":11924:11925   */\n      dup3\n        /* \"#utility.yul\":11920:11929   */\n      mul\n        /* \"#utility.yul\":11949:11979   */\n      tag_333\n        /* \"#utility.yul\":11967:11978   */\n      dup2\n        /* \"#utility.yul\":11949:11979   */\n      tag_162\n      jump\t// in\n    tag_333:\n        /* \"#utility.yul\":11938:11979   */\n      swap2\n      pop\n        /* \"#utility.yul\":12128:12129   */\n      dup3\n        /* \"#utility.yul\":12119:12126   */\n      dup3\n        /* \"#utility.yul\":12115:12130   */\n      div\n        /* \"#utility.yul\":12112:12113   */\n      dup5\n        /* \"#utility.yul\":12109:12131   */\n      eq\n        /* \"#utility.yul\":12089:12090   */\n      dup4\n        /* \"#utility.yul\":12082:12091   */\n      iszero\n        /* \"#utility.yul\":12062:12145   */\n      or\n        /* \"#utility.yul\":12039:12178   */\n      tag_334\n      jumpi\n        /* \"#utility.yul\":12158:12176   */\n      tag_335\n      tag_191\n      jump\t// in\n    tag_335:\n        /* \"#utility.yul\":12039:12178   */\n    tag_334:\n        /* \"#utility.yul\":11823:12185   */\n      pop\n        /* \"#utility.yul\":11775:12185   */\n      swap3\n      swap2\n      pop\n      pop\n      jump\t// out\n        /* \"#utility.yul\":12191:12360   */\n    tag_192:\n        /* \"#utility.yul\":12275:12286   */\n      0x00\n        /* \"#utility.yul\":12309:12315   */\n      dup3\n        /* \"#utility.yul\":12304:12307   */\n      dup3\n        /* \"#utility.yul\":12297:12316   */\n      mstore\n        /* \"#utility.yul\":12349:12353   */\n      0x20\n        /* \"#utility.yul\":12344:12347   */\n      dup3\n        /* \"#utility.yul\":12340:12354   */\n      add\n        /* \"#utility.yul\":12325:12354   */\n      swap1\n      pop\n        /* \"#utility.yul\":12191:12360   */\n      swap3\n      swap2\n      pop\n      pop\n      jump\t// out\n        /* \"#utility.yul\":12366:12534   */\n    tag_193:\n        /* \"#utility.yul\":12506:12526   */\n      0x496e76616c6964206c65616620696e6465780000000000000000000000000000\n        /* \"#utility.yul\":12502:12503   */\n      0x00\n        /* \"#utility.yul\":12494:12500   */\n      dup3\n        /* \"#utility.yul\":12490:12504   */\n      add\n        /* \"#utility.yul\":12483:12527   */\n      mstore\n        /* \"#utility.yul\":12366:12534   */\n      pop\n      jump\t// out\n        /* \"#utility.yul\":12540:12906   */\n    tag_194:\n        /* \"#utility.yul\":12682:12685   */\n      0x00\n        /* \"#utility.yul\":12703:12770   */\n      tag_339\n        /* \"#utility.yul\":12767:12769   */\n      0x12\n        /* \"#utility.yul\":12762:12765   */\n      dup4\n        /* \"#utility.yul\":12703:12770   */\n      tag_192\n      jump\t// in\n    tag_339:\n        /* \"#utility.yul\":12696:12770   */\n      swap2\n      pop\n        /* \"#utility.yul\":12779:12872   */\n      tag_340\n        /* \"#utility.yul\":12868:12871   */\n      dup3\n        /* \"#utility.yul\":12779:12872   */\n      tag_193\n      jump\t// in\n    tag_340:\n        /* \"#utility.yul\":12897:12899   */\n      0x20\n        /* \"#utility.yul\":12892:12895   */\n      dup3\n        /* \"#utility.yul\":12888:12900   */\n      add\n        /* \"#utility.yul\":12881:12900   */\n      swap1\n      pop\n        /* \"#utility.yul\":12540:12906   */\n      swap2\n      swap1\n      pop\n      jump\t// out\n        /* \"#utility.yul\":12912:13331   */\n    tag_115:\n        /* \"#utility.yul\":13078:13082   */\n      0x00\n        /* \"#utility.yul\":13116:13118   */\n      0x20\n        /* \"#utility.yul\":13105:13114   */\n      dup3\n        /* \"#utility.yul\":13101:13119   */\n      add\n        /* \"#utility.yul\":13093:13119   */\n      swap1\n      pop\n        /* \"#utility.yul\":13165:13174   */\n      dup2\n        /* \"#utility.yul\":13159:13163   */\n      dup2\n        /* \"#utility.yul\":13155:13175   */\n      sub\n        /* \"#utility.yul\":13151:13152   */\n      0x00\n        /* \"#utility.yul\":13140:13149   */\n      dup4\n        /* \"#utility.yul\":13136:13153   */\n      add\n        /* \"#utility.yul\":13129:13176   */\n      mstore\n        /* \"#utility.yul\":13193:13324   */\n      tag_342\n        /* \"#utility.yul\":13319:13323   */\n      dup2\n        /* \"#utility.yul\":13193:13324   */\n      tag_194\n      jump\t// in\n    tag_342:\n        /* \"#utility.yul\":13185:13324   */\n      swap1\n      pop\n        /* \"#utility.yul\":12912:13331   */\n      swap2\n      swap1\n      pop\n      jump\t// out\n        /* \"#utility.yul\":13337:13531   */\n    tag_130:\n        /* \"#utility.yul\":13377:13381   */\n      0x00\n        /* \"#utility.yul\":13397:13417   */\n      tag_344\n        /* \"#utility.yul\":13415:13416   */\n      dup3\n        /* \"#utility.yul\":13397:13417   */\n      tag_162\n      jump\t// in\n    tag_344:\n        /* \"#utility.yul\":13392:13417   */\n      swap2\n      pop\n        /* \"#utility.yul\":13431:13451   */\n      tag_345\n        /* \"#utility.yul\":13449:13450   */\n      dup4\n        /* \"#utility.yul\":13431:13451   */\n      tag_162\n      jump\t// in\n    tag_345:\n        /* \"#utility.yul\":13426:13451   */\n      swap3\n      pop\n        /* \"#utility.yul\":13475:13476   */\n      dup3\n        /* \"#utility.yul\":13472:13473   */\n      dup3\n        /* \"#utility.yul\":13468:13477   */\n      sub\n        /* \"#utility.yul\":13460:13477   */\n      swap1\n      pop\n        /* \"#utility.yul\":13499:13500   */\n      dup2\n        /* \"#utility.yul\":13493:13497   */\n      dup2\n        /* \"#utility.yul\":13490:13501   */\n      gt\n        /* \"#utility.yul\":13487:13524   */\n      iszero\n      tag_346\n      jumpi\n        /* \"#utility.yul\":13504:13522   */\n      tag_347\n      tag_191\n      jump\t// in\n    tag_347:\n        /* \"#utility.yul\":13487:13524   */\n    tag_346:\n        /* \"#utility.yul\":13337:13531   */\n      swap3\n      swap2\n      pop\n      pop\n      jump\t// out\n        /* \"#utility.yul\":13537:13869   */\n    tag_153:\n        /* \"#utility.yul\":13658:13662   */\n      0x00\n        /* \"#utility.yul\":13696:13698   */\n      0x40\n        /* \"#utility.yul\":13685:13694   */\n      dup3\n        /* \"#utility.yul\":13681:13699   */\n      add\n        /* \"#utility.yul\":13673:13699   */\n      swap1\n      pop\n        /* \"#utility.yul\":13709:13780   */\n      tag_349\n        /* \"#utility.yul\":13777:13778   */\n      0x00\n        /* \"#utility.yul\":13766:13775   */\n      dup4\n        /* \"#utility.yul\":13762:13779   */\n      add\n        /* \"#utility.yul\":13753:13759   */\n      dup6\n        /* \"#utility.yul\":13709:13780   */\n      tag_173\n      jump\t// in\n    tag_349:\n        /* \"#utility.yul\":13790:13862   */\n      tag_350\n        /* \"#utility.yul\":13858:13860   */\n      0x20\n        /* \"#utility.yul\":13847:13856   */\n      dup4\n        /* \"#utility.yul\":13843:13861   */\n      add\n        /* \"#utility.yul\":13834:13840   */\n      dup5\n        /* \"#utility.yul\":13790:13862   */\n      tag_173\n      jump\t// in\n    tag_350:\n        /* \"#utility.yul\":13537:13869   */\n      swap4\n      swap3\n      pop\n      pop\n      pop\n      jump\t// out\n\n    auxdata: 0xa264697066735822122057b1365c6b74add0571da24505f272f4974517910d6b6790e19beed15d2aa99f64736f6c63430008130033\n}\n",
				"bytecode": {
					"linkReferences": {},
					"object": "608060405234801561001057600080fd5b50611052806100206000396000f3fe608060405234801561001057600080fd5b50600436106100575760003560e01c8063477e4a021461005c5780637f4109081461008e578063ada4fa18146100be578063d1538949146100ee578063d6da100e1461011e575b600080fd5b610076600480360381019061007191906108be565b61014e565b604051610085939291906109c2565b60405180910390f35b6100a860048036038101906100a391906108be565b610327565b6040516100b59190610a1b565b60405180910390f35b6100d860048036038101906100d39190610bbb565b610357565b6040516100e59190610a1b565b60405180910390f35b61010860048036038101906101039190610c2a565b61042b565b6040516101159190610c73565b60405180910390f35b61013860048036038101906101339190610c8e565b6105c6565b6040516101459190610cea565b60405180910390f35b6060600080600060016040516020016101679190610d2d565b604051602081830303815290604052805190602001209050600060026040516020016101939190610d2d565b604051602081830303815290604052805190602001209050600060036040516020016101bf9190610d2d565b604051602081830303815290604052805190602001209050600060046040516020016101eb9190610d2d565b6040516020818303038152906040528051906020012090506000600467ffffffffffffffff8111156102205761021f610a4c565b5b60405190808252806020026020018201604052801561024e5781602001602082028036833780820191505090505b509050848160008151811061026657610265610d48565b5b602002602001018181525050838160018151811061028757610286610d48565b5b60200260200101818152505082816002815181106102a8576102a7610d48565b5b60200260200101818152505081816003815181106102c9576102c8610d48565b5b60200260200101818152505060006102e1828b6105c6565b90506000828b815181106102f8576102f7610d48565b5b60200260200101519050600061030d8461042b565b90508282829a509a509a5050505050505050509193909250565b6000806000806103368561014e565b9250925092506000610349848484610357565b905080945050505050919050565b6000808390506000805b865181101561041c57600087828151811061037f5761037e610d48565b5b6020026020010151905060006002846103989190610da6565b036103cd5783816040516020016103b0929190610df8565b6040516020818303038152906040528051906020012093506103f9565b80846040516020016103e0929190610df8565b6040516020818303038152906040528051906020012093505b6002836104069190610e53565b925050808061041490610e84565b915050610361565b50838214925050509392505050565b6000808251905060008103610446576000801b9150506105c1565b5b60018111156105a157600060026001836104619190610ecc565b61046b9190610e53565b905060005b81811015610597578260016002836104889190610f00565b6104929190610ecc565b101561053d57846002826104a69190610f00565b815181106104b7576104b6610d48565b5b60200260200101518560016002846104cf9190610f00565b6104d99190610ecc565b815181106104ea576104e9610d48565b5b6020026020010151604051602001610503929190610df8565b6040516020818303038152906040528051906020012085828151811061052c5761052b610d48565b5b602002602001018181525050610584565b8460028261054b9190610f00565b8151811061055c5761055b610d48565b5b602002602001015185828151811061057757610576610d48565b5b6020026020010181815250505b808061058f90610e84565b915050610470565b5080915050610447565b826000815181106105b5576105b4610d48565b5b60200260200101519150505b919050565b60608251821061060b576040517f08c379a000000000000000000000000000000000000000000000000000000000815260040161060290610f9f565b60405180910390fd5b600080845190505b600181111561064a57818061062790610e84565b92505060026001826106399190610ecc565b6106439190610e53565b9050610613565b5060008167ffffffffffffffff81111561066757610666610a4c565b5b6040519080825280602002602001820160405280156106955781602001602082028036833780820191505090505b509050600085905060005b600182511115610867576000806002886106ba9190610da6565b146106d1576001876106cc9190610fbf565b6106df565b6001876106de9190610ecc565b5b90508251811015610733578281815181106106fd576106fc610d48565b5b602002602001015184838151811061071857610717610d48565b5b602002602001018181525050818061072f90610e84565b9250505b60006002600185516107459190610ecc565b61074f9190610e53565b67ffffffffffffffff81111561076857610767610a4c565b5b6040519080825280602002602001820160405280156107965781602001602082028036833780820191505090505b50905060005b845181101561084d578481815181106107b8576107b7610d48565b5b6020026020010151856001836107ce9190610ecc565b815181106107df576107de610d48565b5b60200260200101516040516020016107f8929190610ff3565b604051602081830303815290604052805190602001208260028361081c9190610e53565b8151811061082d5761082c610d48565b5b6020026020010181815250506002816108469190610ecc565b905061079c565b5080935060028861085e9190610e53565b975050506106a0565b8294505050505092915050565b6000604051905090565b600080fd5b600080fd5b6000819050919050565b61089b81610888565b81146108a657600080fd5b50565b6000813590506108b881610892565b92915050565b6000602082840312156108d4576108d361087e565b5b60006108e2848285016108a9565b91505092915050565b600081519050919050565b600082825260208201905092915050565b6000819050602082019050919050565b6000819050919050565b61092a81610917565b82525050565b600061093c8383610921565b60208301905092915050565b6000602082019050919050565b6000610960826108eb565b61096a81856108f6565b935061097583610907565b8060005b838110156109a657815161098d8882610930565b975061099883610948565b925050600181019050610979565b5085935050505092915050565b6109bc81610917565b82525050565b600060608201905081810360008301526109dc8186610955565b90506109eb60208301856109b3565b6109f860408301846109b3565b949350505050565b60008115159050919050565b610a1581610a00565b82525050565b6000602082019050610a306000830184610a0c565b92915050565b600080fd5b6000601f19601f8301169050919050565b7f4e487b7100000000000000000000000000000000000000000000000000000000600052604160045260246000fd5b610a8482610a3b565b810181811067ffffffffffffffff82111715610aa357610aa2610a4c565b5b80604052505050565b6000610ab6610874565b9050610ac28282610a7b565b919050565b600067ffffffffffffffff821115610ae257610ae1610a4c565b5b602082029050602081019050919050565b600080fd5b610b0181610917565b8114610b0c57600080fd5b50565b600081359050610b1e81610af8565b92915050565b6000610b37610b3284610ac7565b610aac565b90508083825260208201905060208402830185811115610b5a57610b59610af3565b5b835b81811015610b835780610b6f8882610b0f565b845260208401935050602081019050610b5c565b5050509392505050565b600082601f830112610ba257610ba1610a36565b5b8135610bb2848260208601610b24565b91505092915050565b600080600060608486031215610bd457610bd361087e565b5b600084013567ffffffffffffffff811115610bf257610bf1610883565b5b610bfe86828701610b8d565b9350506020610c0f86828701610b0f565b9250506040610c2086828701610b0f565b9150509250925092565b600060208284031215610c4057610c3f61087e565b5b600082013567ffffffffffffffff811115610c5e57610c5d610883565b5b610c6a84828501610b8d565b91505092915050565b6000602082019050610c8860008301846109b3565b92915050565b60008060408385031215610ca557610ca461087e565b5b600083013567ffffffffffffffff811115610cc357610cc2610883565b5b610ccf85828601610b8d565b9250506020610ce0858286016108a9565b9150509250929050565b60006020820190508181036000830152610d048184610955565b905092915050565b6000819050919050565b610d27610d2282610888565b610d0c565b82525050565b6000610d398284610d16565b60208201915081905092915050565b7f4e487b7100000000000000000000000000000000000000000000000000000000600052603260045260246000fd5b7f4e487b7100000000000000000000000000000000000000000000000000000000600052601260045260246000fd5b6000610db182610888565b9150610dbc83610888565b925082610dcc57610dcb610d77565b5b828206905092915050565b6000819050919050565b610df2610ded82610917565b610dd7565b82525050565b6000610e048285610de1565b602082019150610e148284610de1565b6020820191508190509392505050565b7f4e487b7100000000000000000000000000000000000000000000000000000000600052601160045260246000fd5b6000610e5e82610888565b9150610e6983610888565b925082610e7957610e78610d77565b5b828204905092915050565b6000610e8f82610888565b91507fffffffffffffffffffffffffffffffffffffffffffffffffffffffffffffffff8203610ec157610ec0610e24565b5b600182019050919050565b6000610ed782610888565b9150610ee283610888565b9250828201905080821115610efa57610ef9610e24565b5b92915050565b6000610f0b82610888565b9150610f1683610888565b9250828202610f2481610888565b91508282048414831517610f3b57610f3a610e24565b5b5092915050565b600082825260208201905092915050565b7f496e76616c6964206c65616620696e6465780000000000000000000000000000600082015250565b6000610f89601283610f42565b9150610f9482610f53565b602082019050919050565b60006020820190508181036000830152610fb881610f7c565b9050919050565b6000610fca82610888565b9150610fd583610888565b9250828203905081811115610fed57610fec610e24565b5b92915050565b600060408201905061100860008301856109b3565b61101560208301846109b3565b939250505056fea264697066735822122057b1365c6b74add0571da24505f272f4974517910d6b6790e19beed15d2aa99f64736f6c63430008130033",
					"opcodes": "PUSH1 0x80 PUSH1 0x40 MSTORE CALLVALUE DUP1 ISZERO PUSH2 0x10 JUMPI PUSH1 0x0 DUP1 REVERT JUMPDEST POP PUSH2 0x1052 DUP1 PUSH2 0x20 PUSH1 0x0 CODECOPY PUSH1 0x0 RETURN INVALID PUSH1 0x80 PUSH1 0x40 MSTORE CALLVALUE DUP1 ISZERO PUSH2 0x10 JUMPI PUSH1 0x0 DUP1 REVERT JUMPDEST POP PUSH1 0x4 CALLDATASIZE LT PUSH2 0x57 JUMPI PUSH1 0x0 CALLDATALOAD PUSH1 0xE0 SHR DUP1 PUSH4 0x477E4A02 EQ PUSH2 0x5C JUMPI DUP1 PUSH4 0x7F410908 EQ PUSH2 0x8E JUMPI DUP1 PUSH4 0xADA4FA18 EQ PUSH2 0xBE JUMPI DUP1 PUSH4 0xD1538949 EQ PUSH2 0xEE JUMPI DUP1 PUSH4 0xD6DA100E EQ PUSH2 0x11E JUMPI JUMPDEST PUSH1 0x0 DUP1 REVERT JUMPDEST PUSH2 0x76 PUSH1 0x4 DUP1 CALLDATASIZE SUB DUP2 ADD SWAP1 PUSH2 0x71 SWAP2 SWAP1 PUSH2 0x8BE JUMP JUMPDEST PUSH2 0x14E JUMP JUMPDEST PUSH1 0x40 MLOAD PUSH2 0x85 SWAP4 SWAP3 SWAP2 SWAP1 PUSH2 0x9C2 JUMP JUMPDEST PUSH1 0x40 MLOAD DUP1 SWAP2 SUB SWAP1 RETURN JUMPDEST PUSH2 0xA8 PUSH1 0x4 DUP1 CALLDATASIZE SUB DUP2 ADD SWAP1 PUSH2 0xA3 SWAP2 SWAP1 PUSH2 0x8BE JUMP JUMPDEST PUSH2 0x327 JUMP JUMPDEST PUSH1 0x40 MLOAD PUSH2 0xB5 SWAP2 SWAP1 PUSH2 0xA1B JUMP JUMPDEST PUSH1 0x40 MLOAD DUP1 SWAP2 SUB SWAP1 RETURN JUMPDEST PUSH2 0xD8 PUSH1 0x4 DUP1 CALLDATASIZE SUB DUP2 ADD SWAP1 PUSH2 0xD3 SWAP2 SWAP1 PUSH2 0xBBB JUMP JUMPDEST PUSH2 0x357 JUMP JUMPDEST PUSH1 0x40 MLOAD PUSH2 0xE5 SWAP2 SWAP1 PUSH2 0xA1B JUMP JUMPDEST PUSH1 0x40 MLOAD DUP1 SWAP2 SUB SWAP1 RETURN JUMPDEST PUSH2 0x108 PUSH1 0x4 DUP1 CALLDATASIZE SUB DUP2 ADD SWAP1 PUSH2 0x103 SWAP2 SWAP1 PUSH2 0xC2A JUMP JUMPDEST PUSH2 0x42B JUMP JUMPDEST PUSH1 0x40 MLOAD PUSH2 0x115 SWAP2 SWAP1 PUSH2 0xC73 JUMP JUMPDEST PUSH1 0x40 MLOAD DUP1 SWAP2 SUB SWAP1 RETURN JUMPDEST PUSH2 0x138 PUSH1 0x4 DUP1 CALLDATASIZE SUB DUP2 ADD SWAP1 PUSH2 0x133 SWAP2 SWAP1 PUSH2 0xC8E JUMP JUMPDEST PUSH2 0x5C6 JUMP JUMPDEST PUSH1 0x40 MLOAD PUSH2 0x145 SWAP2 SWAP1 PUSH2 0xCEA JUMP JUMPDEST PUSH1 0x40 MLOAD DUP1 SWAP2 SUB SWAP1 RETURN JUMPDEST PUSH1 0x60 PUSH1 0x0 DUP1 PUSH1 0x0 PUSH1 0x1 PUSH1 0x40 MLOAD PUSH1 0x20 ADD PUSH2 0x167 SWAP2 SWAP1 PUSH2 0xD2D JUMP JUMPDEST PUSH1 0x40 MLOAD PUSH1 0x20 DUP2 DUP4 SUB SUB DUP2 MSTORE SWAP1 PUSH1 0x40 MSTORE DUP1 MLOAD SWAP1 PUSH1 0x20 ADD KECCAK256 SWAP1 POP PUSH1 0x0 PUSH1 0x2 PUSH1 0x40 MLOAD PUSH1 0x20 ADD PUSH2 0x193 SWAP2 SWAP1 PUSH2 0xD2D JUMP JUMPDEST PUSH1 0x40 MLOAD PUSH1 0x20 DUP2 DUP4 SUB SUB DUP2 MSTORE SWAP1 PUSH1 0x40 MSTORE DUP1 MLOAD SWAP1 PUSH1 0x20 ADD KECCAK256 SWAP1 POP PUSH1 0x0 PUSH1 0x3 PUSH1 0x40 MLOAD PUSH1 0x20 ADD PUSH2 0x1BF SWAP2 SWAP1 PUSH2 0xD2D JUMP JUMPDEST PUSH1 0x40 MLOAD PUSH1 0x20 DUP2 DUP4 SUB SUB DUP2 MSTORE SWAP1 PUSH1 0x40 MSTORE DUP1 MLOAD SWAP1 PUSH1 0x20 ADD KECCAK256 SWAP1 POP PUSH1 0x0 PUSH1 0x4 PUSH1 0x40 MLOAD PUSH1 0x20 ADD PUSH2 0x1EB SWAP2 SWAP1 PUSH2 0xD2D JUMP JUMPDEST PUSH1 0x40 MLOAD PUSH1 0x20 DUP2 DUP4 SUB SUB DUP2 MSTORE SWAP1 PUSH1 0x40 MSTORE DUP1 MLOAD SWAP1 PUSH1 0x20 ADD KECCAK256 SWAP1 POP PUSH1 0x0 PUSH1 0x4 PUSH8 0xFFFFFFFFFFFFFFFF DUP2 GT ISZERO PUSH2 0x220 JUMPI PUSH2 0x21F PUSH2 0xA4C JUMP JUMPDEST JUMPDEST PUSH1 0x40 MLOAD SWAP1 DUP1 DUP3 MSTORE DUP1 PUSH1 0x20 MUL PUSH1 0x20 ADD DUP3 ADD PUSH1 0x40 MSTORE DUP1 ISZERO PUSH2 0x24E JUMPI DUP2 PUSH1 0x20 ADD PUSH1 0x20 DUP3 MUL DUP1 CALLDATASIZE DUP4 CALLDATACOPY DUP1 DUP3 ADD SWAP2 POP POP SWAP1 POP JUMPDEST POP SWAP1 POP DUP5 DUP2 PUSH1 0x0 DUP2 MLOAD DUP2 LT PUSH2 0x266 JUMPI PUSH2 0x265 PUSH2 0xD48 JUMP JUMPDEST JUMPDEST PUSH1 0x20 MUL PUSH1 0x20 ADD ADD DUP2 DUP2 MSTORE POP POP DUP4 DUP2 PUSH1 0x1 DUP2 MLOAD DUP2 LT PUSH2 0x287 JUMPI PUSH2 0x286 PUSH2 0xD48 JUMP JUMPDEST JUMPDEST PUSH1 0x20 MUL PUSH1 0x20 ADD ADD DUP2 DUP2 MSTORE POP POP DUP3 DUP2 PUSH1 0x2 DUP2 MLOAD DUP2 LT PUSH2 0x2A8 JUMPI PUSH2 0x2A7 PUSH2 0xD48 JUMP JUMPDEST JUMPDEST PUSH1 0x20 MUL PUSH1 0x20 ADD ADD DUP2 DUP2 MSTORE POP POP DUP2 DUP2 PUSH1 0x3 DUP2 MLOAD DUP2 LT PUSH2 0x2C9 JUMPI PUSH2 0x2C8 PUSH2 0xD48 JUMP JUMPDEST JUMPDEST PUSH1 0x20 MUL PUSH1 0x20 ADD ADD DUP2 DUP2 MSTORE POP POP PUSH1 0x0 PUSH2 0x2E1 DUP3 DUP12 PUSH2 0x5C6 JUMP JUMPDEST SWAP1 POP PUSH1 0x0 DUP3 DUP12 DUP2 MLOAD DUP2 LT PUSH2 0x2F8 JUMPI PUSH2 0x2F7 PUSH2 0xD48 JUMP JUMPDEST JUMPDEST PUSH1 0x20 MUL PUSH1 0x20 ADD ADD MLOAD SWAP1 POP PUSH1 0x0 PUSH2 0x30D DUP5 PUSH2 0x42B JUMP JUMPDEST SWAP1 POP DUP3 DUP3 DUP3 SWAP11 POP SWAP11 POP SWAP11 POP POP POP POP POP POP POP POP POP SWAP2 SWAP4 SWAP1 SWAP3 POP JUMP JUMPDEST PUSH1 0x0 DUP1 PUSH1 0x0 DUP1 PUSH2 0x336 DUP6 PUSH2 0x14E JUMP JUMPDEST SWAP3 POP SWAP3 POP SWAP3 POP PUSH1 0x0 PUSH2 0x349 DUP5 DUP5 DUP5 PUSH2 0x357 JUMP JUMPDEST SWAP1 POP DUP1 SWAP5 POP POP POP POP POP SWAP2 SWAP1 POP JUMP JUMPDEST PUSH1 0x0 DUP1 DUP4 SWAP1 POP PUSH1 0x0 DUP1 JUMPDEST DUP7 MLOAD DUP2 LT ISZERO PUSH2 0x41C JUMPI PUSH1 0x0 DUP8 DUP3 DUP2 MLOAD DUP2 LT PUSH2 0x37F JUMPI PUSH2 0x37E PUSH2 0xD48 JUMP JUMPDEST JUMPDEST PUSH1 0x20 MUL PUSH1 0x20 ADD ADD MLOAD SWAP1 POP PUSH1 0x0 PUSH1 0x2 DUP5 PUSH2 0x398 SWAP2 SWAP1 PUSH2 0xDA6 JUMP JUMPDEST SUB PUSH2 0x3CD JUMPI DUP4 DUP2 PUSH1 0x40 MLOAD PUSH1 0x20 ADD PUSH2 0x3B0 SWAP3 SWAP2 SWAP1 PUSH2 0xDF8 JUMP JUMPDEST PUSH1 0x40 MLOAD PUSH1 0x20 DUP2 DUP4 SUB SUB DUP2 MSTORE SWAP1 PUSH1 0x40 MSTORE DUP1 MLOAD SWAP1 PUSH1 0x20 ADD KECCAK256 SWAP4 POP PUSH2 0x3F9 JUMP JUMPDEST DUP1 DUP5 PUSH1 0x40 MLOAD PUSH1 0x20 ADD PUSH2 0x3E0 SWAP3 SWAP2 SWAP1 PUSH2 0xDF8 JUMP JUMPDEST PUSH1 0x40 MLOAD PUSH1 0x20 DUP2 DUP4 SUB SUB DUP2 MSTORE SWAP1 PUSH1 0x40 MSTORE DUP1 MLOAD SWAP1 PUSH1 0x20 ADD KECCAK256 SWAP4 POP JUMPDEST PUSH1 0x2 DUP4 PUSH2 0x406 SWAP2 SWAP1 PUSH2 0xE53 JUMP JUMPDEST SWAP3 POP POP DUP1 DUP1 PUSH2 0x414 SWAP1 PUSH2 0xE84 JUMP JUMPDEST SWAP2 POP POP PUSH2 0x361 JUMP JUMPDEST POP DUP4 DUP3 EQ SWAP3 POP POP POP SWAP4 SWAP3 POP POP POP JUMP JUMPDEST PUSH1 0x0 DUP1 DUP3 MLOAD SWAP1 POP PUSH1 0x0 DUP2 SUB PUSH2 0x446 JUMPI PUSH1 0x0 DUP1 SHL SWAP2 POP POP PUSH2 0x5C1 JUMP JUMPDEST JUMPDEST PUSH1 0x1 DUP2 GT ISZERO PUSH2 0x5A1 JUMPI PUSH1 0x0 PUSH1 0x2 PUSH1 0x1 DUP4 PUSH2 0x461 SWAP2 SWAP1 PUSH2 0xECC JUMP JUMPDEST PUSH2 0x46B SWAP2 SWAP1 PUSH2 0xE53 JUMP JUMPDEST SWAP1 POP PUSH1 0x0 JUMPDEST DUP2 DUP2 LT ISZERO PUSH2 0x597 JUMPI DUP3 PUSH1 0x1 PUSH1 0x2 DUP4 PUSH2 0x488 SWAP2 SWAP1 PUSH2 0xF00 JUMP JUMPDEST PUSH2 0x492 SWAP2 SWAP1 PUSH2 0xECC JUMP JUMPDEST LT ISZERO PUSH2 0x53D JUMPI DUP5 PUSH1 0x2 DUP3 PUSH2 0x4A6 SWAP2 SWAP1 PUSH2 0xF00 JUMP JUMPDEST DUP2 MLOAD DUP2 LT PUSH2 0x4B7 JUMPI PUSH2 0x4B6 PUSH2 0xD48 JUMP JUMPDEST JUMPDEST PUSH1 0x20 MUL PUSH1 0x20 ADD ADD MLOAD DUP6 PUSH1 0x1 PUSH1 0x2 DUP5 PUSH2 0x4CF SWAP2 SWAP1 PUSH2 0xF00 JUMP JUMPDEST PUSH2 0x4D9 SWAP2 SWAP1 PUSH2 0xECC JUMP JUMPDEST DUP2 MLOAD DUP2 LT PUSH2 0x4EA JUMPI PUSH2 0x4E9 PUSH2 0xD48 JUMP JUMPDEST JUMPDEST PUSH1 0x20 MUL PUSH1 0x20 ADD ADD MLOAD PUSH1 0x40 MLOAD PUSH1 0x20 ADD PUSH2 0x503 SWAP3 SWAP2 SWAP1 PUSH2 0xDF8 JUMP JUMPDEST PUSH1 0x40 MLOAD PUSH1 0x20 DUP2 DUP4 SUB SUB DUP2 MSTORE SWAP1 PUSH1 0x40 MSTORE DUP1 MLOAD SWAP1 PUSH1 0x20 ADD KECCAK256 DUP6 DUP3 DUP2 MLOAD DUP2 LT PUSH2 0x52C JUMPI PUSH2 0x52B PUSH2 0xD48 JUMP JUMPDEST JUMPDEST PUSH1 0x20 MUL PUSH1 0x20 ADD ADD DUP2 DUP2 MSTORE POP POP PUSH2 0x584 JUMP JUMPDEST DUP5 PUSH1 0x2 DUP3 PUSH2 0x54B SWAP2 SWAP1 PUSH2 0xF00 JUMP JUMPDEST DUP2 MLOAD DUP2 LT PUSH2 0x55C JUMPI PUSH2 0x55B PUSH2 0xD48 JUMP JUMPDEST JUMPDEST PUSH1 0x20 MUL PUSH1 0x20 ADD ADD MLOAD DUP6 DUP3 DUP2 MLOAD DUP2 LT PUSH2 0x577 JUMPI PUSH2 0x576 PUSH2 0xD48 JUMP JUMPDEST JUMPDEST PUSH1 0x20 MUL PUSH1 0x20 ADD ADD DUP2 DUP2 MSTORE POP POP JUMPDEST DUP1 DUP1 PUSH2 0x58F SWAP1 PUSH2 0xE84 JUMP JUMPDEST SWAP2 POP POP PUSH2 0x470 JUMP JUMPDEST POP DUP1 SWAP2 POP POP PUSH2 0x447 JUMP JUMPDEST DUP3 PUSH1 0x0 DUP2 MLOAD DUP2 LT PUSH2 0x5B5 JUMPI PUSH2 0x5B4 PUSH2 0xD48 JUMP JUMPDEST JUMPDEST PUSH1 0x20 MUL PUSH1 0x20 ADD ADD MLOAD SWAP2 POP POP JUMPDEST SWAP2 SWAP1 POP JUMP JUMPDEST PUSH1 0x60 DUP3 MLOAD DUP3 LT PUSH2 0x60B JUMPI PUSH1 0x40 MLOAD PUSH32 0x8C379A000000000000000000000000000000000000000000000000000000000 DUP2 MSTORE PUSH1 0x4 ADD PUSH2 0x602 SWAP1 PUSH2 0xF9F JUMP JUMPDEST PUSH1 0x40 MLOAD DUP1 SWAP2 SUB SWAP1 REVERT JUMPDEST PUSH1 0x0 DUP1 DUP5 MLOAD SWAP1 POP JUMPDEST PUSH1 0x1 DUP2 GT ISZERO PUSH2 0x64A JUMPI DUP2 DUP1 PUSH2 0x627 SWAP1 PUSH2 0xE84 JUMP JUMPDEST SWAP3 POP POP PUSH1 0x2 PUSH1 0x1 DUP3 PUSH2 0x639 SWAP2 SWAP1 PUSH2 0xECC JUMP JUMPDEST PUSH2 0x643 SWAP2 SWAP1 PUSH2 0xE53 JUMP JUMPDEST SWAP1 POP PUSH2 0x613 JUMP JUMPDEST POP PUSH1 0x0 DUP2 PUSH8 0xFFFFFFFFFFFFFFFF DUP2 GT ISZERO PUSH2 0x667 JUMPI PUSH2 0x666 PUSH2 0xA4C JUMP JUMPDEST JUMPDEST PUSH1 0x40 MLOAD SWAP1 DUP1 DUP3 MSTORE DUP1 PUSH1 0x20 MUL PUSH1 0x20 ADD DUP3 ADD PUSH1 0x40 MSTORE DUP1 ISZERO PUSH2 0x695 JUMPI DUP2 PUSH1 0x20 ADD PUSH1 0x20 DUP3 MUL DUP1 CALLDATASIZE DUP4 CALLDATACOPY DUP1 DUP3 ADD SWAP2 POP POP SWAP1 POP JUMPDEST POP SWAP1 POP PUSH1 0x0 DUP6 SWAP1 POP PUSH1 0x0 JUMPDEST PUSH1 0x1 DUP3 MLOAD GT ISZERO PUSH2 0x867 JUMPI PUSH1 0x0 DUP1 PUSH1 0x2 DUP9 PUSH2 0x6BA SWAP2 SWAP1 PUSH2 0xDA6 JUMP JUMPDEST EQ PUSH2 0x6D1 JUMPI PUSH1 0x1 DUP8 PUSH2 0x6CC SWAP2 SWAP1 PUSH2 0xFBF JUMP JUMPDEST PUSH2 0x6DF JUMP JUMPDEST PUSH1 0x1 DUP8 PUSH2 0x6DE SWAP2 SWAP1 PUSH2 0xECC JUMP JUMPDEST JUMPDEST SWAP1 POP DUP3 MLOAD DUP2 LT ISZERO PUSH2 0x733 JUMPI DUP3 DUP2 DUP2 MLOAD DUP2 LT PUSH2 0x6FD JUMPI PUSH2 0x6FC PUSH2 0xD48 JUMP JUMPDEST JUMPDEST PUSH1 0x20 MUL PUSH1 0x20 ADD ADD MLOAD DUP5 DUP4 DUP2 MLOAD DUP2 LT PUSH2 0x718 JUMPI PUSH2 0x717 PUSH2 0xD48 JUMP JUMPDEST JUMPDEST PUSH1 0x20 MUL PUSH1 0x20 ADD ADD DUP2 DUP2 MSTORE POP POP DUP2 DUP1 PUSH2 0x72F SWAP1 PUSH2 0xE84 JUMP JUMPDEST SWAP3 POP POP JUMPDEST PUSH1 0x0 PUSH1 0x2 PUSH1 0x1 DUP6 MLOAD PUSH2 0x745 SWAP2 SWAP1 PUSH2 0xECC JUMP JUMPDEST PUSH2 0x74F SWAP2 SWAP1 PUSH2 0xE53 JUMP JUMPDEST PUSH8 0xFFFFFFFFFFFFFFFF DUP2 GT ISZERO PUSH2 0x768 JUMPI PUSH2 0x767 PUSH2 0xA4C JUMP JUMPDEST JUMPDEST PUSH1 0x40 MLOAD SWAP1 DUP1 DUP3 MSTORE DUP1 PUSH1 0x20 MUL PUSH1 0x20 ADD DUP3 ADD PUSH1 0x40 MSTORE DUP1 ISZERO PUSH2 0x796 JUMPI DUP2 PUSH1 0x20 ADD PUSH1 0x20 DUP3 MUL DUP1 CALLDATASIZE DUP4 CALLDATACOPY DUP1 DUP3 ADD SWAP2 POP POP SWAP1 POP JUMPDEST POP SWAP1 POP PUSH1 0x0 JUMPDEST DUP5 MLOAD DUP2 LT ISZERO PUSH2 0x84D JUMPI DUP5 DUP2 DUP2 MLOAD DUP2 LT PUSH2 0x7B8 JUMPI PUSH2 0x7B7 PUSH2 0xD48 JUMP JUMPDEST JUMPDEST PUSH1 0x20 MUL PUSH1 0x20 ADD ADD MLOAD DUP6 PUSH1 0x1 DUP4 PUSH2 0x7CE SWAP2 SWAP1 PUSH2 0xECC JUMP JUMPDEST DUP2 MLOAD DUP2 LT PUSH2 0x7DF JUMPI PUSH2 0x7DE PUSH2 0xD48 JUMP JUMPDEST JUMPDEST PUSH1 0x20 MUL PUSH1 0x20 ADD ADD MLOAD PUSH1 0x40 MLOAD PUSH1 0x20 ADD PUSH2 0x7F8 SWAP3 SWAP2 SWAP1 PUSH2 0xFF3 JUMP JUMPDEST PUSH1 0x40 MLOAD PUSH1 0x20 DUP2 DUP4 SUB SUB DUP2 MSTORE SWAP1 PUSH1 0x40 MSTORE DUP1 MLOAD SWAP1 PUSH1 0x20 ADD KECCAK256 DUP3 PUSH1 0x2 DUP4 PUSH2 0x81C SWAP2 SWAP1 PUSH2 0xE53 JUMP JUMPDEST DUP2 MLOAD DUP2 LT PUSH2 0x82D JUMPI PUSH2 0x82C PUSH2 0xD48 JUMP JUMPDEST JUMPDEST PUSH1 0x20 MUL PUSH1 0x20 ADD ADD DUP2 DUP2 MSTORE POP POP PUSH1 0x2 DUP2 PUSH2 0x846 SWAP2 SWAP1 PUSH2 0xECC JUMP JUMPDEST SWAP1 POP PUSH2 0x79C JUMP JUMPDEST POP DUP1 SWAP4 POP PUSH1 0x2 DUP9 PUSH2 0x85E SWAP2 SWAP1 PUSH2 0xE53 JUMP JUMPDEST SWAP8 POP POP POP PUSH2 0x6A0 JUMP JUMPDEST DUP3 SWAP5 POP POP POP POP POP SWAP3 SWAP2 POP POP JUMP JUMPDEST PUSH1 0x0 PUSH1 0x40 MLOAD SWAP1 POP SWAP1 JUMP JUMPDEST PUSH1 0x0 DUP1 REVERT JUMPDEST PUSH1 0x0 DUP1 REVERT JUMPDEST PUSH1 0x0 DUP2 SWAP1 POP SWAP2 SWAP1 POP JUMP JUMPDEST PUSH2 0x89B DUP2 PUSH2 0x888 JUMP JUMPDEST DUP2 EQ PUSH2 0x8A6 JUMPI PUSH1 0x0 DUP1 REVERT JUMPDEST POP JUMP JUMPDEST PUSH1 0x0 DUP2 CALLDATALOAD SWAP1 POP PUSH2 0x8B8 DUP2 PUSH2 0x892 JUMP JUMPDEST SWAP3 SWAP2 POP POP JUMP JUMPDEST PUSH1 0x0 PUSH1 0x20 DUP3 DUP5 SUB SLT ISZERO PUSH2 0x8D4 JUMPI PUSH2 0x8D3 PUSH2 0x87E JUMP JUMPDEST JUMPDEST PUSH1 0x0 PUSH2 0x8E2 DUP5 DUP3 DUP6 ADD PUSH2 0x8A9 JUMP JUMPDEST SWAP2 POP POP SWAP3 SWAP2 POP POP JUMP JUMPDEST PUSH1 0x0 DUP2 MLOAD SWAP1 POP SWAP2 SWAP1 POP JUMP JUMPDEST PUSH1 0x0 DUP3 DUP3 MSTORE PUSH1 0x20 DUP3 ADD SWAP1 POP SWAP3 SWAP2 POP POP JUMP JUMPDEST PUSH1 0x0 DUP2 SWAP1 POP PUSH1 0x20 DUP3 ADD SWAP1 POP SWAP2 SWAP1 POP JUMP JUMPDEST PUSH1 0x0 DUP2 SWAP1 POP SWAP2 SWAP1 POP JUMP JUMPDEST PUSH2 0x92A DUP2 PUSH2 0x917 JUMP JUMPDEST DUP3 MSTORE POP POP JUMP JUMPDEST PUSH1 0x0 PUSH2 0x93C DUP4 DUP4 PUSH2 0x921 JUMP JUMPDEST PUSH1 0x20 DUP4 ADD SWAP1 POP SWAP3 SWAP2 POP POP JUMP JUMPDEST PUSH1 0x0 PUSH1 0x20 DUP3 ADD SWAP1 POP SWAP2 SWAP1 POP JUMP JUMPDEST PUSH1 0x0 PUSH2 0x960 DUP3 PUSH2 0x8EB JUMP JUMPDEST PUSH2 0x96A DUP2 DUP6 PUSH2 0x8F6 JUMP JUMPDEST SWAP4 POP PUSH2 0x975 DUP4 PUSH2 0x907 JUMP JUMPDEST DUP1 PUSH1 0x0 JUMPDEST DUP4 DUP2 LT ISZERO PUSH2 0x9A6 JUMPI DUP2 MLOAD PUSH2 0x98D DUP9 DUP3 PUSH2 0x930 JUMP JUMPDEST SWAP8 POP PUSH2 0x998 DUP4 PUSH2 0x948 JUMP JUMPDEST SWAP3 POP POP PUSH1 0x1 DUP2 ADD SWAP1 POP PUSH2 0x979 JUMP JUMPDEST POP DUP6 SWAP4 POP POP POP POP SWAP3 SWAP2 POP POP JUMP JUMPDEST PUSH2 0x9BC DUP2 PUSH2 0x917 JUMP JUMPDEST DUP3 MSTORE POP POP JUMP JUMPDEST PUSH1 0x0 PUSH1 0x60 DUP3 ADD SWAP1 POP DUP2 DUP2 SUB PUSH1 0x0 DUP4 ADD MSTORE PUSH2 0x9DC DUP2 DUP7 PUSH2 0x955 JUMP JUMPDEST SWAP1 POP PUSH2 0x9EB PUSH1 0x20 DUP4 ADD DUP6 PUSH2 0x9B3 JUMP JUMPDEST PUSH2 0x9F8 PUSH1 0x40 DUP4 ADD DUP5 PUSH2 0x9B3 JUMP JUMPDEST SWAP5 SWAP4 POP POP POP POP JUMP JUMPDEST PUSH1 0x0 DUP2 ISZERO ISZERO SWAP1 POP SWAP2 SWAP1 POP JUMP JUMPDEST PUSH2 0xA15 DUP2 PUSH2 0xA00 JUMP JUMPDEST DUP3 MSTORE POP POP JUMP JUMPDEST PUSH1 0x0 PUSH1 0x20 DUP3 ADD SWAP1 POP PUSH2 0xA30 PUSH1 0x0 DUP4 ADD DUP5 PUSH2 0xA0C JUMP JUMPDEST SWAP3 SWAP2 POP POP JUMP JUMPDEST PUSH1 0x0 DUP1 REVERT JUMPDEST PUSH1 0x0 PUSH1 0x1F NOT PUSH1 0x1F DUP4 ADD AND SWAP1 POP SWAP2 SWAP1 POP JUMP JUMPDEST PUSH32 0x4E487B7100000000000000000000000000000000000000000000000000000000 PUSH1 0x0 MSTORE PUSH1 0x41 PUSH1 0x4 MSTORE PUSH1 0x24 PUSH1 0x0 REVERT JUMPDEST PUSH2 0xA84 DUP3 PUSH2 0xA3B JUMP JUMPDEST DUP2 ADD DUP2 DUP2 LT PUSH8 0xFFFFFFFFFFFFFFFF DUP3 GT OR ISZERO PUSH2 0xAA3 JUMPI PUSH2 0xAA2 PUSH2 0xA4C JUMP JUMPDEST JUMPDEST DUP1 PUSH1 0x40 MSTORE POP POP POP JUMP JUMPDEST PUSH1 0x0 PUSH2 0xAB6 PUSH2 0x874 JUMP JUMPDEST SWAP1 POP PUSH2 0xAC2 DUP3 DUP3 PUSH2 0xA7B JUMP JUMPDEST SWAP2 SWAP1 POP JUMP JUMPDEST PUSH1 0x0 PUSH8 0xFFFFFFFFFFFFFFFF DUP3 GT ISZERO PUSH2 0xAE2 JUMPI PUSH2 0xAE1 PUSH2 0xA4C JUMP JUMPDEST JUMPDEST PUSH1 0x20 DUP3 MUL SWAP1 POP PUSH1 0x20 DUP2 ADD SWAP1 POP SWAP2 SWAP1 POP JUMP JUMPDEST PUSH1 0x0 DUP1 REVERT JUMPDEST PUSH2 0xB01 DUP2 PUSH2 0x917 JUMP JUMPDEST DUP2 EQ PUSH2 0xB0C JUMPI PUSH1 0x0 DUP1 REVERT JUMPDEST POP JUMP JUMPDEST PUSH1 0x0 DUP2 CALLDATALOAD SWAP1 POP PUSH2 0xB1E DUP2 PUSH2 0xAF8 JUMP JUMPDEST SWAP3 SWAP2 POP POP JUMP JUMPDEST PUSH1 0x0 PUSH2 0xB37 PUSH2 0xB32 DUP5 PUSH2 0xAC7 JUMP JUMPDEST PUSH2 0xAAC JUMP JUMPDEST SWAP1 POP DUP1 DUP4 DUP3 MSTORE PUSH1 0x20 DUP3 ADD SWAP1 POP PUSH1 0x20 DUP5 MUL DUP4 ADD DUP6 DUP2 GT ISZERO PUSH2 0xB5A JUMPI PUSH2 0xB59 PUSH2 0xAF3 JUMP JUMPDEST JUMPDEST DUP4 JUMPDEST DUP2 DUP2 LT ISZERO PUSH2 0xB83 JUMPI DUP1 PUSH2 0xB6F DUP9 DUP3 PUSH2 0xB0F JUMP JUMPDEST DUP5 MSTORE PUSH1 0x20 DUP5 ADD SWAP4 POP POP PUSH1 0x20 DUP2 ADD SWAP1 POP PUSH2 0xB5C JUMP JUMPDEST POP POP POP SWAP4 SWAP3 POP POP POP JUMP JUMPDEST PUSH1 0x0 DUP3 PUSH1 0x1F DUP4 ADD SLT PUSH2 0xBA2 JUMPI PUSH2 0xBA1 PUSH2 0xA36 JUMP JUMPDEST JUMPDEST DUP2 CALLDATALOAD PUSH2 0xBB2 DUP5 DUP3 PUSH1 0x20 DUP7 ADD PUSH2 0xB24 JUMP JUMPDEST SWAP2 POP POP SWAP3 SWAP2 POP POP JUMP JUMPDEST PUSH1 0x0 DUP1 PUSH1 0x0 PUSH1 0x60 DUP5 DUP7 SUB SLT ISZERO PUSH2 0xBD4 JUMPI PUSH2 0xBD3 PUSH2 0x87E JUMP JUMPDEST JUMPDEST PUSH1 0x0 DUP5 ADD CALLDATALOAD PUSH8 0xFFFFFFFFFFFFFFFF DUP2 GT ISZERO PUSH2 0xBF2 JUMPI PUSH2 0xBF1 PUSH2 0x883 JUMP JUMPDEST JUMPDEST PUSH2 0xBFE DUP7 DUP3 DUP8 ADD PUSH2 0xB8D JUMP JUMPDEST SWAP4 POP POP PUSH1 0x20 PUSH2 0xC0F DUP7 DUP3 DUP8 ADD PUSH2 0xB0F JUMP JUMPDEST SWAP3 POP POP PUSH1 0x40 PUSH2 0xC20 DUP7 DUP3 DUP8 ADD PUSH2 0xB0F JUMP JUMPDEST SWAP2 POP POP SWAP3 POP SWAP3 POP SWAP3 JUMP JUMPDEST PUSH1 0x0 PUSH1 0x20 DUP3 DUP5 SUB SLT ISZERO PUSH2 0xC40 JUMPI PUSH2 0xC3F PUSH2 0x87E JUMP JUMPDEST JUMPDEST PUSH1 0x0 DUP3 ADD CALLDATALOAD PUSH8 0xFFFFFFFFFFFFFFFF DUP2 GT ISZERO PUSH2 0xC5E JUMPI PUSH2 0xC5D PUSH2 0x883 JUMP JUMPDEST JUMPDEST PUSH2 0xC6A DUP5 DUP3 DUP6 ADD PUSH2 0xB8D JUMP JUMPDEST SWAP2 POP POP SWAP3 SWAP2 POP POP JUMP JUMPDEST PUSH1 0x0 PUSH1 0x20 DUP3 ADD SWAP1 POP PUSH2 0xC88 PUSH1 0x0 DUP4 ADD DUP5 PUSH2 0x9B3 JUMP JUMPDEST SWAP3 SWAP2 POP POP JUMP JUMPDEST PUSH1 0x0 DUP1 PUSH1 0x40 DUP4 DUP6 SUB SLT ISZERO PUSH2 0xCA5 JUMPI PUSH2 0xCA4 PUSH2 0x87E JUMP JUMPDEST JUMPDEST PUSH1 0x0 DUP4 ADD CALLDATALOAD PUSH8 0xFFFFFFFFFFFFFFFF DUP2 GT ISZERO PUSH2 0xCC3 JUMPI PUSH2 0xCC2 PUSH2 0x883 JUMP JUMPDEST JUMPDEST PUSH2 0xCCF DUP6 DUP3 DUP7 ADD PUSH2 0xB8D JUMP JUMPDEST SWAP3 POP POP PUSH1 0x20 PUSH2 0xCE0 DUP6 DUP3 DUP7 ADD PUSH2 0x8A9 JUMP JUMPDEST SWAP2 POP POP SWAP3 POP SWAP3 SWAP1 POP JUMP JUMPDEST PUSH1 0x0 PUSH1 0x20 DUP3 ADD SWAP1 POP DUP2 DUP2 SUB PUSH1 0x0 DUP4 ADD MSTORE PUSH2 0xD04 DUP2 DUP5 PUSH2 0x955 JUMP JUMPDEST SWAP1 POP SWAP3 SWAP2 POP POP JUMP JUMPDEST PUSH1 0x0 DUP2 SWAP1 POP SWAP2 SWAP1 POP JUMP JUMPDEST PUSH2 0xD27 PUSH2 0xD22 DUP3 PUSH2 0x888 JUMP JUMPDEST PUSH2 0xD0C JUMP JUMPDEST DUP3 MSTORE POP POP JUMP JUMPDEST PUSH1 0x0 PUSH2 0xD39 DUP3 DUP5 PUSH2 0xD16 JUMP JUMPDEST PUSH1 0x20 DUP3 ADD SWAP2 POP DUP2 SWAP1 POP SWAP3 SWAP2 POP POP JUMP JUMPDEST PUSH32 0x4E487B7100000000000000000000000000000000000000000000000000000000 PUSH1 0x0 MSTORE PUSH1 0x32 PUSH1 0x4 MSTORE PUSH1 0x24 PUSH1 0x0 REVERT JUMPDEST PUSH32 0x4E487B7100000000000000000000000000000000000000000000000000000000 PUSH1 0x0 MSTORE PUSH1 0x12 PUSH1 0x4 MSTORE PUSH1 0x24 PUSH1 0x0 REVERT JUMPDEST PUSH1 0x0 PUSH2 0xDB1 DUP3 PUSH2 0x888 JUMP JUMPDEST SWAP2 POP PUSH2 0xDBC DUP4 PUSH2 0x888 JUMP JUMPDEST SWAP3 POP DUP3 PUSH2 0xDCC JUMPI PUSH2 0xDCB PUSH2 0xD77 JUMP JUMPDEST JUMPDEST DUP3 DUP3 MOD SWAP1 POP SWAP3 SWAP2 POP POP JUMP JUMPDEST PUSH1 0x0 DUP2 SWAP1 POP SWAP2 SWAP1 POP JUMP JUMPDEST PUSH2 0xDF2 PUSH2 0xDED DUP3 PUSH2 0x917 JUMP JUMPDEST PUSH2 0xDD7 JUMP JUMPDEST DUP3 MSTORE POP POP JUMP JUMPDEST PUSH1 0x0 PUSH2 0xE04 DUP3 DUP6 PUSH2 0xDE1 JUMP JUMPDEST PUSH1 0x20 DUP3 ADD SWAP2 POP PUSH2 0xE14 DUP3 DUP5 PUSH2 0xDE1 JUMP JUMPDEST PUSH1 0x20 DUP3 ADD SWAP2 POP DUP2 SWAP1 POP SWAP4 SWAP3 POP POP POP JUMP JUMPDEST PUSH32 0x4E487B7100000000000000000000000000000000000000000000000000000000 PUSH1 0x0 MSTORE PUSH1 0x11 PUSH1 0x4 MSTORE PUSH1 0x24 PUSH1 0x0 REVERT JUMPDEST PUSH1 0x0 PUSH2 0xE5E DUP3 PUSH2 0x888 JUMP JUMPDEST SWAP2 POP PUSH2 0xE69 DUP4 PUSH2 0x888 JUMP JUMPDEST SWAP3 POP DUP3 PUSH2 0xE79 JUMPI PUSH2 0xE78 PUSH2 0xD77 JUMP JUMPDEST JUMPDEST DUP3 DUP3 DIV SWAP1 POP SWAP3 SWAP2 POP POP JUMP JUMPDEST PUSH1 0x0 PUSH2 0xE8F DUP3 PUSH2 0x888 JUMP JUMPDEST SWAP2 POP PUSH32 0xFFFFFFFFFFFFFFFFFFFFFFFFFFFFFFFFFFFFFFFFFFFFFFFFFFFFFFFFFFFFFFFF DUP3 SUB PUSH2 0xEC1 JUMPI PUSH2 0xEC0 PUSH2 0xE24 JUMP JUMPDEST JUMPDEST PUSH1 0x1 DUP3 ADD SWAP1 POP SWAP2 SWAP1 POP JUMP JUMPDEST PUSH1 0x0 PUSH2 0xED7 DUP3 PUSH2 0x888 JUMP JUMPDEST SWAP2 POP PUSH2 0xEE2 DUP4 PUSH2 0x888 JUMP JUMPDEST SWAP3 POP DUP3 DUP3 ADD SWAP1 POP DUP1 DUP3 GT ISZERO PUSH2 0xEFA JUMPI PUSH2 0xEF9 PUSH2 0xE24 JUMP JUMPDEST JUMPDEST SWAP3 SWAP2 POP POP JUMP JUMPDEST PUSH1 0x0 PUSH2 0xF0B DUP3 PUSH2 0x888 JUMP JUMPDEST SWAP2 POP PUSH2 0xF16 DUP4 PUSH2 0x888 JUMP JUMPDEST SWAP3 POP DUP3 DUP3 MUL PUSH2 0xF24 DUP2 PUSH2 0x888 JUMP JUMPDEST SWAP2 POP DUP3 DUP3 DIV DUP5 EQ DUP4 ISZERO OR PUSH2 0xF3B JUMPI PUSH2 0xF3A PUSH2 0xE24 JUMP JUMPDEST JUMPDEST POP SWAP3 SWAP2 POP POP JUMP JUMPDEST PUSH1 0x0 DUP3 DUP3 MSTORE PUSH1 0x20 DUP3 ADD SWAP1 POP SWAP3 SWAP2 POP POP JUMP JUMPDEST PUSH32 0x496E76616C6964206C65616620696E6465780000000000000000000000000000 PUSH1 0x0 DUP3 ADD MSTORE POP JUMP JUMPDEST PUSH1 0x0 PUSH2 0xF89 PUSH1 0x12 DUP4 PUSH2 0xF42 JUMP JUMPDEST SWAP2 POP PUSH2 0xF94 DUP3 PUSH2 0xF53 JUMP JUMPDEST PUSH1 0x20 DUP3 ADD SWAP1 POP SWAP2 SWAP1 POP JUMP JUMPDEST PUSH1 0x0 PUSH1 0x20 DUP3 ADD SWAP1 POP DUP2 DUP2 SUB PUSH1 0x0 DUP4 ADD MSTORE PUSH2 0xFB8 DUP2 PUSH2 0xF7C JUMP JUMPDEST SWAP1 POP SWAP2 SWAP1 POP JUMP JUMPDEST PUSH1 0x0 PUSH2 0xFCA DUP3 PUSH2 0x888 JUMP JUMPDEST SWAP2 POP PUSH2 0xFD5 DUP4 PUSH2 0x888 JUMP JUMPDEST SWAP3 POP DUP3 DUP3 SUB SWAP1 POP DUP2 DUP2 GT ISZERO PUSH2 0xFED JUMPI PUSH2 0xFEC PUSH2 0xE24 JUMP JUMPDEST JUMPDEST SWAP3 SWAP2 POP POP JUMP JUMPDEST PUSH1 0x0 PUSH1 0x40 DUP3 ADD SWAP1 POP PUSH2 0x1008 PUSH1 0x0 DUP4 ADD DUP6 PUSH2 0x9B3 JUMP JUMPDEST PUSH2 0x1015 PUSH1 0x20 DUP4 ADD DUP5 PUSH2 0x9B3 JUMP JUMPDEST SWAP4 SWAP3 POP POP POP JUMP INVALID LOG2 PUSH5 0x6970667358 0x22 SLT KECCAK256 JUMPI 0xB1 CALLDATASIZE 0x5C PUSH12 0x74ADD0571DA24505F272F497 GASLIMIT OR SWAP2 0xD PUSH12 0x6790E19BEED15D2AA99F6473 PUSH16 0x6C634300081300330000000000000000 "
				},
				"gasEstimates": {
					"creation": {
						"codeDepositCost": "835600",
						"executionCost": "870",
						"totalCost": "836470"
					},
					"external": {
						"example(uint256)": "infinite",
						"generateMerkleProof(bytes32[],uint256)": "infinite",
						"generateMerkleRoot(bytes32[])": "infinite",
						"testExampleFunction(uint256)": "infinite",
						"verifyMerkleProof(bytes32[],bytes32,bytes32)": "infinite"
					}
				},
				"methodIdentifiers": {
					"example(uint256)": "477e4a02",
					"generateMerkleProof(bytes32[],uint256)": "d6da100e",
					"generateMerkleRoot(bytes32[])": "d1538949",
					"testExampleFunction(uint256)": "7f410908",
					"verifyMerkleProof(bytes32[],bytes32,bytes32)": "ada4fa18"
				}
			},
			"storageLayout": {
				"storage": [],
				"types": null
			},
			"userdoc": {
				"kind": "user",
				"methods": {},
				"version": 1
			}
		}
	}
}