{
	"trustless cross-chain/trading pair formation/SDupdatevalidation.sol": {
		"SCv": {
			"abi": [
				{
					"inputs": [
						{
							"internalType": "address",
							"name": "_gameItemContract",
							"type": "address"
						}
					],
					"stateMutability": "nonpayable",
					"type": "constructor"
				},
				{
					"anonymous": false,
					"inputs": [
						{
							"indexed": true,
							"internalType": "address",
							"name": "previousOwner",
							"type": "address"
						},
						{
							"indexed": true,
							"internalType": "address",
							"name": "newOwner",
							"type": "address"
						}
					],
					"name": "OwnershipTransferred",
					"type": "event"
				},
				{
					"anonymous": false,
					"inputs": [
						{
							"indexed": true,
							"internalType": "address",
							"name": "owner",
							"type": "address"
						},
						{
							"indexed": false,
							"internalType": "bytes32[]",
							"name": "proof",
							"type": "bytes32[]"
						}
					],
					"name": "ProofStored",
					"type": "event"
				},
				{
					"inputs": [],
					"name": "gameItemContract",
					"outputs": [
						{
							"internalType": "contract IERC721",
							"name": "",
							"type": "address"
						}
					],
					"stateMutability": "view",
					"type": "function"
				},
				{
					"inputs": [
						{
							"internalType": "bytes32[]",
							"name": "proof",
							"type": "bytes32[]"
						}
					],
					"name": "getStoredStatus",
					"outputs": [
						{
							"internalType": "bool",
							"name": "",
							"type": "bool"
						}
					],
					"stateMutability": "view",
					"type": "function"
				},
				{
					"inputs": [],
					"name": "owner",
					"outputs": [
						{
							"internalType": "address",
							"name": "",
							"type": "address"
						}
					],
					"stateMutability": "view",
					"type": "function"
				},
				{
					"inputs": [],
					"name": "renounceOwnership",
					"outputs": [],
					"stateMutability": "nonpayable",
					"type": "function"
				},
				{
					"inputs": [
						{
							"internalType": "bytes32",
							"name": "",
							"type": "bytes32"
						}
					],
					"name": "storedProofs",
					"outputs": [
						{
							"internalType": "bool",
							"name": "",
							"type": "bool"
						}
					],
					"stateMutability": "view",
					"type": "function"
				},
				{
					"inputs": [
						{
							"internalType": "address",
							"name": "newOwner",
							"type": "address"
						}
					],
					"name": "transferOwnership",
					"outputs": [],
					"stateMutability": "nonpayable",
					"type": "function"
				},
				{
					"inputs": [
						{
							"internalType": "uint256",
							"name": "tokenId",
							"type": "uint256"
						},
						{
							"internalType": "uint256",
							"name": "blockNumber",
							"type": "uint256"
						},
						{
							"internalType": "bytes32[]",
							"name": "proof",
							"type": "bytes32[]"
						},
						{
							"internalType": "bytes32",
							"name": "root",
							"type": "bytes32"
						},
						{
							"internalType": "bytes32",
							"name": "leaf",
							"type": "bytes32"
						}
					],
					"name": "verifyAndStore",
					"outputs": [],
					"stateMutability": "nonpayable",
					"type": "function"
				}
			],
			"devdoc": {
				"kind": "dev",
				"methods": {
					"owner()": {
						"details": "Returns the address of the current owner."
					},
					"renounceOwnership()": {
						"details": "Leaves the contract without owner. It will not be possible to call `onlyOwner` functions anymore. Can only be called by the current owner. NOTE: Renouncing ownership will leave the contract without an owner, thereby removing any functionality that is only available to the owner."
					},
					"transferOwnership(address)": {
						"details": "Transfers ownership of the contract to a new account (`newOwner`). Can only be called by the current owner."
					}
				},
				"version": 1
			},
			"evm": {
				"assembly": "    /* \"trustless cross-chain/trading pair formation/SDupdatevalidation.sol\":859:2034  contract SCv is Ownable {... */\n  mstore(0x40, 0x80)\n    /* \"trustless cross-chain/trading pair formation/SDupdatevalidation.sol\":1041:1142  constructor(address _gameItemContract) {... */\n  callvalue\n  dup1\n  iszero\n  tag_1\n  jumpi\n  0x00\n  dup1\n  revert\ntag_1:\n  pop\n  mload(0x40)\n  sub(codesize, bytecodeSize)\n  dup1\n  bytecodeSize\n  dup4\n  codecopy\n  dup2\n  dup2\n  add\n  0x40\n  mstore\n  dup2\n  add\n  swap1\n  tag_2\n  swap2\n  swap1\n  tag_3\n  jump\t// in\ntag_2:\n    /* \"@openzeppelin/contracts/access/Ownable.sol\":936:968  _transferOwnership(_msgSender()) */\n  tag_7\n    /* \"@openzeppelin/contracts/access/Ownable.sol\":955:967  _msgSender() */\n  tag_8\n    /* \"@openzeppelin/contracts/access/Ownable.sol\":955:965  _msgSender */\n  shl(0x20, tag_9)\n    /* \"@openzeppelin/contracts/access/Ownable.sol\":955:967  _msgSender() */\n  0x20\n  shr\n  jump\t// in\ntag_8:\n    /* \"@openzeppelin/contracts/access/Ownable.sol\":936:954  _transferOwnership */\n  shl(0x20, tag_10)\n    /* \"@openzeppelin/contracts/access/Ownable.sol\":936:968  _transferOwnership(_msgSender()) */\n  0x20\n  shr\n  jump\t// in\ntag_7:\n    /* \"trustless cross-chain/trading pair formation/SDupdatevalidation.sol\":1117:1134  _gameItemContract */\n  dup1\n    /* \"trustless cross-chain/trading pair formation/SDupdatevalidation.sol\":1090:1106  gameItemContract */\n  0x01\n  0x00\n    /* \"trustless cross-chain/trading pair formation/SDupdatevalidation.sol\":1090:1135  gameItemContract = IERC721(_gameItemContract) */\n  0x0100\n  exp\n  dup2\n  sload\n  dup2\n  0xffffffffffffffffffffffffffffffffffffffff\n  mul\n  not\n  and\n  swap1\n  dup4\n  0xffffffffffffffffffffffffffffffffffffffff\n  and\n  mul\n  or\n  swap1\n  sstore\n  pop\n    /* \"trustless cross-chain/trading pair formation/SDupdatevalidation.sol\":1041:1142  constructor(address _gameItemContract) {... */\n  pop\n    /* \"trustless cross-chain/trading pair formation/SDupdatevalidation.sol\":859:2034  contract SCv is Ownable {... */\n  jump(tag_12)\n    /* \"@openzeppelin/contracts/utils/Context.sol\":640:736  function _msgSender() internal view virtual returns (address) {... */\ntag_9:\n    /* \"@openzeppelin/contracts/utils/Context.sol\":693:700  address */\n  0x00\n    /* \"@openzeppelin/contracts/utils/Context.sol\":719:729  msg.sender */\n  caller\n    /* \"@openzeppelin/contracts/utils/Context.sol\":712:729  return msg.sender */\n  swap1\n  pop\n    /* \"@openzeppelin/contracts/utils/Context.sol\":640:736  function _msgSender() internal view virtual returns (address) {... */\n  swap1\n  jump\t// out\n    /* \"@openzeppelin/contracts/access/Ownable.sol\":2433:2620  function _transferOwnership(address newOwner) internal virtual {... */\ntag_10:\n    /* \"@openzeppelin/contracts/access/Ownable.sol\":2506:2522  address oldOwner */\n  0x00\n    /* \"@openzeppelin/contracts/access/Ownable.sol\":2525:2531  _owner */\n  dup1\n  0x00\n  swap1\n  sload\n  swap1\n  0x0100\n  exp\n  swap1\n  div\n  0xffffffffffffffffffffffffffffffffffffffff\n  and\n    /* \"@openzeppelin/contracts/access/Ownable.sol\":2506:2531  address oldOwner = _owner */\n  swap1\n  pop\n    /* \"@openzeppelin/contracts/access/Ownable.sol\":2550:2558  newOwner */\n  dup2\n    /* \"@openzeppelin/contracts/access/Ownable.sol\":2541:2547  _owner */\n  0x00\n  dup1\n    /* \"@openzeppelin/contracts/access/Ownable.sol\":2541:2558  _owner = newOwner */\n  0x0100\n  exp\n  dup2\n  sload\n  dup2\n  0xffffffffffffffffffffffffffffffffffffffff\n  mul\n  not\n  and\n  swap1\n  dup4\n  0xffffffffffffffffffffffffffffffffffffffff\n  and\n  mul\n  or\n  swap1\n  sstore\n  pop\n    /* \"@openzeppelin/contracts/access/Ownable.sol\":2604:2612  newOwner */\n  dup2\n    /* \"@openzeppelin/contracts/access/Ownable.sol\":2573:2613  OwnershipTransferred(oldOwner, newOwner) */\n  0xffffffffffffffffffffffffffffffffffffffff\n  and\n    /* \"@openzeppelin/contracts/access/Ownable.sol\":2594:2602  oldOwner */\n  dup2\n    /* \"@openzeppelin/contracts/access/Ownable.sol\":2573:2613  OwnershipTransferred(oldOwner, newOwner) */\n  0xffffffffffffffffffffffffffffffffffffffff\n  and\n  0x8be0079c531659141344cd1fd0a4f28419497f9722a3daafe3b4186f6b6457e0\n  mload(0x40)\n  mload(0x40)\n  dup1\n  swap2\n  sub\n  swap1\n  log3\n    /* \"@openzeppelin/contracts/access/Ownable.sol\":2496:2620  {... */\n  pop\n    /* \"@openzeppelin/contracts/access/Ownable.sol\":2433:2620  function _transferOwnership(address newOwner) internal virtual {... */\n  pop\n  jump\t// out\n    /* \"#utility.yul\":88:205   */\ntag_16:\n    /* \"#utility.yul\":197:198   */\n  0x00\n    /* \"#utility.yul\":194:195   */\n  dup1\n    /* \"#utility.yul\":187:199   */\n  revert\n    /* \"#utility.yul\":334:460   */\ntag_18:\n    /* \"#utility.yul\":371:378   */\n  0x00\n    /* \"#utility.yul\":411:453   */\n  0xffffffffffffffffffffffffffffffffffffffff\n    /* \"#utility.yul\":404:409   */\n  dup3\n    /* \"#utility.yul\":400:454   */\n  and\n    /* \"#utility.yul\":389:454   */\n  swap1\n  pop\n    /* \"#utility.yul\":334:460   */\n  swap2\n  swap1\n  pop\n  jump\t// out\n    /* \"#utility.yul\":466:562   */\ntag_19:\n    /* \"#utility.yul\":503:510   */\n  0x00\n    /* \"#utility.yul\":532:556   */\n  tag_28\n    /* \"#utility.yul\":550:555   */\n  dup3\n    /* \"#utility.yul\":532:556   */\n  tag_18\n  jump\t// in\ntag_28:\n    /* \"#utility.yul\":521:556   */\n  swap1\n  pop\n    /* \"#utility.yul\":466:562   */\n  swap2\n  swap1\n  pop\n  jump\t// out\n    /* \"#utility.yul\":568:690   */\ntag_20:\n    /* \"#utility.yul\":641:665   */\n  tag_30\n    /* \"#utility.yul\":659:664   */\n  dup2\n    /* \"#utility.yul\":641:665   */\n  tag_19\n  jump\t// in\ntag_30:\n    /* \"#utility.yul\":634:639   */\n  dup2\n    /* \"#utility.yul\":631:666   */\n  eq\n    /* \"#utility.yul\":621:684   */\n  tag_31\n  jumpi\n    /* \"#utility.yul\":680:681   */\n  0x00\n    /* \"#utility.yul\":677:678   */\n  dup1\n    /* \"#utility.yul\":670:682   */\n  revert\n    /* \"#utility.yul\":621:684   */\ntag_31:\n    /* \"#utility.yul\":568:690   */\n  pop\n  jump\t// out\n    /* \"#utility.yul\":696:839   */\ntag_21:\n    /* \"#utility.yul\":753:758   */\n  0x00\n    /* \"#utility.yul\":784:790   */\n  dup2\n    /* \"#utility.yul\":778:791   */\n  mload\n    /* \"#utility.yul\":769:791   */\n  swap1\n  pop\n    /* \"#utility.yul\":800:833   */\n  tag_33\n    /* \"#utility.yul\":827:832   */\n  dup2\n    /* \"#utility.yul\":800:833   */\n  tag_20\n  jump\t// in\ntag_33:\n    /* \"#utility.yul\":696:839   */\n  swap3\n  swap2\n  pop\n  pop\n  jump\t// out\n    /* \"#utility.yul\":845:1196   */\ntag_3:\n    /* \"#utility.yul\":915:921   */\n  0x00\n    /* \"#utility.yul\":964:966   */\n  0x20\n    /* \"#utility.yul\":952:961   */\n  dup3\n    /* \"#utility.yul\":943:950   */\n  dup5\n    /* \"#utility.yul\":939:962   */\n  sub\n    /* \"#utility.yul\":935:967   */\n  slt\n    /* \"#utility.yul\":932:1051   */\n  iszero\n  tag_35\n  jumpi\n    /* \"#utility.yul\":970:1049   */\n  tag_36\n  tag_16\n  jump\t// in\ntag_36:\n    /* \"#utility.yul\":932:1051   */\ntag_35:\n    /* \"#utility.yul\":1090:1091   */\n  0x00\n    /* \"#utility.yul\":1115:1179   */\n  tag_37\n    /* \"#utility.yul\":1171:1178   */\n  dup5\n    /* \"#utility.yul\":1162:1168   */\n  dup3\n    /* \"#utility.yul\":1151:1160   */\n  dup6\n    /* \"#utility.yul\":1147:1169   */\n  add\n    /* \"#utility.yul\":1115:1179   */\n  tag_21\n  jump\t// in\ntag_37:\n    /* \"#utility.yul\":1105:1179   */\n  swap2\n  pop\n    /* \"#utility.yul\":1061:1189   */\n  pop\n    /* \"#utility.yul\":845:1196   */\n  swap3\n  swap2\n  pop\n  pop\n  jump\t// out\n    /* \"trustless cross-chain/trading pair formation/SDupdatevalidation.sol\":859:2034  contract SCv is Ownable {... */\ntag_12:\n  dataSize(sub_0)\n  dup1\n  dataOffset(sub_0)\n  0x00\n  codecopy\n  0x00\n  return\nstop\n\nsub_0: assembly {\n        /* \"trustless cross-chain/trading pair formation/SDupdatevalidation.sol\":859:2034  contract SCv is Ownable {... */\n      mstore(0x40, 0x80)\n      callvalue\n      dup1\n      iszero\n      tag_1\n      jumpi\n      0x00\n      dup1\n      revert\n    tag_1:\n      pop\n      jumpi(tag_2, lt(calldatasize, 0x04))\n      shr(0xe0, calldataload(0x00))\n      dup1\n      0x8da5cb5b\n      gt\n      tag_10\n      jumpi\n      dup1\n      0x8da5cb5b\n      eq\n      tag_6\n      jumpi\n      dup1\n      0x97a562a9\n      eq\n      tag_7\n      jumpi\n      dup1\n      0xf2fde38b\n      eq\n      tag_8\n      jumpi\n      dup1\n      0xf9be04ca\n      eq\n      tag_9\n      jumpi\n      jump(tag_2)\n    tag_10:\n      dup1\n      0x130b7686\n      eq\n      tag_3\n      jumpi\n      dup1\n      0x2a64e51b\n      eq\n      tag_4\n      jumpi\n      dup1\n      0x715018a6\n      eq\n      tag_5\n      jumpi\n    tag_2:\n      0x00\n      dup1\n      revert\n        /* \"trustless cross-chain/trading pair formation/SDupdatevalidation.sol\":1148:1549  function verifyAndStore(... */\n    tag_3:\n      tag_11\n      0x04\n      dup1\n      calldatasize\n      sub\n      dup2\n      add\n      swap1\n      tag_12\n      swap2\n      swap1\n      tag_13\n      jump\t// in\n    tag_12:\n      tag_14\n      jump\t// in\n    tag_11:\n      stop\n        /* \"trustless cross-chain/trading pair formation/SDupdatevalidation.sol\":1841:2032  function getStoredStatus(bytes32[] calldata proof) external view returns (bool) {... */\n    tag_4:\n      tag_15\n      0x04\n      dup1\n      calldatasize\n      sub\n      dup2\n      add\n      swap1\n      tag_16\n      swap2\n      swap1\n      tag_17\n      jump\t// in\n    tag_16:\n      tag_18\n      jump\t// in\n    tag_15:\n      mload(0x40)\n      tag_19\n      swap2\n      swap1\n      tag_20\n      jump\t// in\n    tag_19:\n      mload(0x40)\n      dup1\n      swap2\n      sub\n      swap1\n      return\n        /* \"@openzeppelin/contracts/access/Ownable.sol\":1831:1932  function renounceOwnership() public virtual onlyOwner {... */\n    tag_5:\n      tag_21\n      tag_22\n      jump\t// in\n    tag_21:\n      stop\n        /* \"@openzeppelin/contracts/access/Ownable.sol\":1201:1286  function owner() public view virtual returns (address) {... */\n    tag_6:\n      tag_23\n      tag_24\n      jump\t// in\n    tag_23:\n      mload(0x40)\n      tag_25\n      swap2\n      swap1\n      tag_26\n      jump\t// in\n    tag_25:\n      mload(0x40)\n      dup1\n      swap2\n      sub\n      swap1\n      return\n        /* \"trustless cross-chain/trading pair formation/SDupdatevalidation.sol\":926:970  mapping(bytes32 => bool) public storedProofs */\n    tag_7:\n      tag_27\n      0x04\n      dup1\n      calldatasize\n      sub\n      dup2\n      add\n      swap1\n      tag_28\n      swap2\n      swap1\n      tag_29\n      jump\t// in\n    tag_28:\n      tag_30\n      jump\t// in\n    tag_27:\n      mload(0x40)\n      tag_31\n      swap2\n      swap1\n      tag_20\n      jump\t// in\n    tag_31:\n      mload(0x40)\n      dup1\n      swap2\n      sub\n      swap1\n      return\n        /* \"@openzeppelin/contracts/access/Ownable.sol\":2081:2279  function transferOwnership(address newOwner) public virtual onlyOwner {... */\n    tag_8:\n      tag_32\n      0x04\n      dup1\n      calldatasize\n      sub\n      dup2\n      add\n      swap1\n      tag_33\n      swap2\n      swap1\n      tag_34\n      jump\t// in\n    tag_33:\n      tag_35\n      jump\t// in\n    tag_32:\n      stop\n        /* \"trustless cross-chain/trading pair formation/SDupdatevalidation.sol\":889:920  IERC721 public gameItemContract */\n    tag_9:\n      tag_36\n      tag_37\n      jump\t// in\n    tag_36:\n      mload(0x40)\n      tag_38\n      swap2\n      swap1\n      tag_39\n      jump\t// in\n    tag_38:\n      mload(0x40)\n      dup1\n      swap2\n      sub\n      swap1\n      return\n        /* \"trustless cross-chain/trading pair formation/SDupdatevalidation.sol\":1148:1549  function verifyAndStore(... */\n    tag_14:\n        /* \"trustless cross-chain/trading pair formation/SDupdatevalidation.sol\":1352:1363  blockNumber */\n      dup5\n        /* \"trustless cross-chain/trading pair formation/SDupdatevalidation.sol\":1337:1349  block.number */\n      number\n        /* \"trustless cross-chain/trading pair formation/SDupdatevalidation.sol\":1337:1363  block.number > blockNumber */\n      gt\n        /* \"trustless cross-chain/trading pair formation/SDupdatevalidation.sol\":1329:1434  require(block.number > blockNumber, \"Current block number is not greater than the provided block number\") */\n      tag_41\n      jumpi\n      mload(0x40)\n      0x08c379a000000000000000000000000000000000000000000000000000000000\n      dup2\n      mstore\n      0x04\n      add\n      tag_42\n      swap1\n      tag_43\n      jump\t// in\n    tag_42:\n      mload(0x40)\n      dup1\n      swap2\n      sub\n      swap1\n      revert\n    tag_41:\n        /* \"trustless cross-chain/trading pair formation/SDupdatevalidation.sol\":1452:1489  MerkleProof.verify(proof, root, leaf) */\n      tag_44\n        /* \"trustless cross-chain/trading pair formation/SDupdatevalidation.sol\":1471:1476  proof */\n      dup5\n      dup5\n        /* \"trustless cross-chain/trading pair formation/SDupdatevalidation.sol\":1452:1489  MerkleProof.verify(proof, root, leaf) */\n      dup1\n      dup1\n      0x20\n      mul\n      0x20\n      add\n      mload(0x40)\n      swap1\n      dup2\n      add\n      0x40\n      mstore\n      dup1\n      swap4\n      swap3\n      swap2\n      swap1\n      dup2\n      dup2\n      mstore\n      0x20\n      add\n      dup4\n      dup4\n      0x20\n      mul\n      dup1\n      dup3\n      dup5\n      calldatacopy\n      0x00\n      dup2\n      dup5\n      add\n      mstore\n      not(0x1f)\n      0x1f\n      dup3\n      add\n      and\n      swap1\n      pop\n      dup1\n      dup4\n      add\n      swap3\n      pop\n      pop\n      pop\n      pop\n      pop\n      pop\n      pop\n        /* \"trustless cross-chain/trading pair formation/SDupdatevalidation.sol\":1478:1482  root */\n      dup4\n        /* \"trustless cross-chain/trading pair formation/SDupdatevalidation.sol\":1484:1488  leaf */\n      dup4\n        /* \"trustless cross-chain/trading pair formation/SDupdatevalidation.sol\":1452:1470  MerkleProof.verify */\n      tag_45\n        /* \"trustless cross-chain/trading pair formation/SDupdatevalidation.sol\":1452:1489  MerkleProof.verify(proof, root, leaf) */\n      jump\t// in\n    tag_44:\n        /* \"trustless cross-chain/trading pair formation/SDupdatevalidation.sol\":1444:1514  require(MerkleProof.verify(proof, root, leaf), \"Invalid Merkle proof\") */\n      tag_46\n      jumpi\n      mload(0x40)\n      0x08c379a000000000000000000000000000000000000000000000000000000000\n      dup2\n      mstore\n      0x04\n      add\n      tag_47\n      swap1\n      tag_48\n      jump\t// in\n    tag_47:\n      mload(0x40)\n      dup1\n      swap2\n      sub\n      swap1\n      revert\n    tag_46:\n        /* \"trustless cross-chain/trading pair formation/SDupdatevalidation.sol\":1525:1542  storeProof(proof) */\n      tag_49\n        /* \"trustless cross-chain/trading pair formation/SDupdatevalidation.sol\":1536:1541  proof */\n      dup5\n      dup5\n        /* \"trustless cross-chain/trading pair formation/SDupdatevalidation.sol\":1525:1535  storeProof */\n      tag_50\n        /* \"trustless cross-chain/trading pair formation/SDupdatevalidation.sol\":1525:1542  storeProof(proof) */\n      jump\t// in\n    tag_49:\n        /* \"trustless cross-chain/trading pair formation/SDupdatevalidation.sol\":1148:1549  function verifyAndStore(... */\n      pop\n      pop\n      pop\n      pop\n      pop\n      pop\n      jump\t// out\n        /* \"trustless cross-chain/trading pair formation/SDupdatevalidation.sol\":1841:2032  function getStoredStatus(bytes32[] calldata proof) external view returns (bool) {... */\n    tag_18:\n        /* \"trustless cross-chain/trading pair formation/SDupdatevalidation.sol\":1915:1919  bool */\n      0x00\n        /* \"trustless cross-chain/trading pair formation/SDupdatevalidation.sol\":1931:1948  bytes32 proofHash */\n      dup1\n        /* \"trustless cross-chain/trading pair formation/SDupdatevalidation.sol\":1978:1983  proof */\n      dup4\n      dup4\n        /* \"trustless cross-chain/trading pair formation/SDupdatevalidation.sol\":1961:1984  abi.encodePacked(proof) */\n      add(0x20, mload(0x40))\n      tag_52\n      swap3\n      swap2\n      swap1\n      tag_53\n      jump\t// in\n    tag_52:\n      mload(0x40)\n      0x20\n      dup2\n      dup4\n      sub\n      sub\n      dup2\n      mstore\n      swap1\n      0x40\n      mstore\n        /* \"trustless cross-chain/trading pair formation/SDupdatevalidation.sol\":1951:1985  keccak256(abi.encodePacked(proof)) */\n      dup1\n      mload\n      swap1\n      0x20\n      add\n      keccak256\n        /* \"trustless cross-chain/trading pair formation/SDupdatevalidation.sol\":1931:1985  bytes32 proofHash = keccak256(abi.encodePacked(proof)) */\n      swap1\n      pop\n        /* \"trustless cross-chain/trading pair formation/SDupdatevalidation.sol\":2002:2014  storedProofs */\n      0x02\n        /* \"trustless cross-chain/trading pair formation/SDupdatevalidation.sol\":2002:2025  storedProofs[proofHash] */\n      0x00\n        /* \"trustless cross-chain/trading pair formation/SDupdatevalidation.sol\":2015:2024  proofHash */\n      dup3\n        /* \"trustless cross-chain/trading pair formation/SDupdatevalidation.sol\":2002:2025  storedProofs[proofHash] */\n      dup2\n      mstore\n      0x20\n      add\n      swap1\n      dup2\n      mstore\n      0x20\n      add\n      0x00\n      keccak256\n      0x00\n      swap1\n      sload\n      swap1\n      0x0100\n      exp\n      swap1\n      div\n      0xff\n      and\n        /* \"trustless cross-chain/trading pair formation/SDupdatevalidation.sol\":1995:2025  return storedProofs[proofHash] */\n      swap2\n      pop\n      pop\n        /* \"trustless cross-chain/trading pair formation/SDupdatevalidation.sol\":1841:2032  function getStoredStatus(bytes32[] calldata proof) external view returns (bool) {... */\n      swap3\n      swap2\n      pop\n      pop\n      jump\t// out\n        /* \"@openzeppelin/contracts/access/Ownable.sol\":1831:1932  function renounceOwnership() public virtual onlyOwner {... */\n    tag_22:\n        /* \"@openzeppelin/contracts/access/Ownable.sol\":1094:1107  _checkOwner() */\n      tag_55\n        /* \"@openzeppelin/contracts/access/Ownable.sol\":1094:1105  _checkOwner */\n      tag_56\n        /* \"@openzeppelin/contracts/access/Ownable.sol\":1094:1107  _checkOwner() */\n      jump\t// in\n    tag_55:\n        /* \"@openzeppelin/contracts/access/Ownable.sol\":1895:1925  _transferOwnership(address(0)) */\n      tag_58\n        /* \"@openzeppelin/contracts/access/Ownable.sol\":1922:1923  0 */\n      0x00\n        /* \"@openzeppelin/contracts/access/Ownable.sol\":1895:1913  _transferOwnership */\n      tag_59\n        /* \"@openzeppelin/contracts/access/Ownable.sol\":1895:1925  _transferOwnership(address(0)) */\n      jump\t// in\n    tag_58:\n        /* \"@openzeppelin/contracts/access/Ownable.sol\":1831:1932  function renounceOwnership() public virtual onlyOwner {... */\n      jump\t// out\n        /* \"@openzeppelin/contracts/access/Ownable.sol\":1201:1286  function owner() public view virtual returns (address) {... */\n    tag_24:\n        /* \"@openzeppelin/contracts/access/Ownable.sol\":1247:1254  address */\n      0x00\n        /* \"@openzeppelin/contracts/access/Ownable.sol\":1273:1279  _owner */\n      dup1\n      0x00\n      swap1\n      sload\n      swap1\n      0x0100\n      exp\n      swap1\n      div\n      0xffffffffffffffffffffffffffffffffffffffff\n      and\n        /* \"@openzeppelin/contracts/access/Ownable.sol\":1266:1279  return _owner */\n      swap1\n      pop\n        /* \"@openzeppelin/contracts/access/Ownable.sol\":1201:1286  function owner() public view virtual returns (address) {... */\n      swap1\n      jump\t// out\n        /* \"trustless cross-chain/trading pair formation/SDupdatevalidation.sol\":926:970  mapping(bytes32 => bool) public storedProofs */\n    tag_30:\n      mstore(0x20, 0x02)\n      dup1\n      0x00\n      mstore\n      keccak256(0x00, 0x40)\n      0x00\n      swap2\n      pop\n      sload\n      swap1\n      0x0100\n      exp\n      swap1\n      div\n      0xff\n      and\n      dup2\n      jump\t// out\n        /* \"@openzeppelin/contracts/access/Ownable.sol\":2081:2279  function transferOwnership(address newOwner) public virtual onlyOwner {... */\n    tag_35:\n        /* \"@openzeppelin/contracts/access/Ownable.sol\":1094:1107  _checkOwner() */\n      tag_62\n        /* \"@openzeppelin/contracts/access/Ownable.sol\":1094:1105  _checkOwner */\n      tag_56\n        /* \"@openzeppelin/contracts/access/Ownable.sol\":1094:1107  _checkOwner() */\n      jump\t// in\n    tag_62:\n        /* \"@openzeppelin/contracts/access/Ownable.sol\":2189:2190  0 */\n      0x00\n        /* \"@openzeppelin/contracts/access/Ownable.sol\":2169:2191  newOwner != address(0) */\n      0xffffffffffffffffffffffffffffffffffffffff\n      and\n        /* \"@openzeppelin/contracts/access/Ownable.sol\":2169:2177  newOwner */\n      dup2\n        /* \"@openzeppelin/contracts/access/Ownable.sol\":2169:2191  newOwner != address(0) */\n      0xffffffffffffffffffffffffffffffffffffffff\n      and\n      sub\n        /* \"@openzeppelin/contracts/access/Ownable.sol\":2161:2234  require(newOwner != address(0), \"Ownable: new owner is the zero address\") */\n      tag_64\n      jumpi\n      mload(0x40)\n      0x08c379a000000000000000000000000000000000000000000000000000000000\n      dup2\n      mstore\n      0x04\n      add\n      tag_65\n      swap1\n      tag_66\n      jump\t// in\n    tag_65:\n      mload(0x40)\n      dup1\n      swap2\n      sub\n      swap1\n      revert\n    tag_64:\n        /* \"@openzeppelin/contracts/access/Ownable.sol\":2244:2272  _transferOwnership(newOwner) */\n      tag_67\n        /* \"@openzeppelin/contracts/access/Ownable.sol\":2263:2271  newOwner */\n      dup2\n        /* \"@openzeppelin/contracts/access/Ownable.sol\":2244:2262  _transferOwnership */\n      tag_59\n        /* \"@openzeppelin/contracts/access/Ownable.sol\":2244:2272  _transferOwnership(newOwner) */\n      jump\t// in\n    tag_67:\n        /* \"@openzeppelin/contracts/access/Ownable.sol\":2081:2279  function transferOwnership(address newOwner) public virtual onlyOwner {... */\n      pop\n      jump\t// out\n        /* \"trustless cross-chain/trading pair formation/SDupdatevalidation.sol\":889:920  IERC721 public gameItemContract */\n    tag_37:\n      0x01\n      0x00\n      swap1\n      sload\n      swap1\n      0x0100\n      exp\n      swap1\n      div\n      0xffffffffffffffffffffffffffffffffffffffff\n      and\n      dup2\n      jump\t// out\n        /* \"trustless cross-chain/trading pair formation/SDupdatevalidation.sol\":196:380  function verify(... */\n    tag_45:\n        /* \"trustless cross-chain/trading pair formation/SDupdatevalidation.sol\":317:321  bool */\n      0x00\n        /* \"trustless cross-chain/trading pair formation/SDupdatevalidation.sol\":369:373  root */\n      dup3\n        /* \"trustless cross-chain/trading pair formation/SDupdatevalidation.sol\":340:365  processProof(proof, leaf) */\n      tag_69\n        /* \"trustless cross-chain/trading pair formation/SDupdatevalidation.sol\":353:358  proof */\n      dup6\n        /* \"trustless cross-chain/trading pair formation/SDupdatevalidation.sol\":360:364  leaf */\n      dup5\n        /* \"trustless cross-chain/trading pair formation/SDupdatevalidation.sol\":340:352  processProof */\n      tag_70\n        /* \"trustless cross-chain/trading pair formation/SDupdatevalidation.sol\":340:365  processProof(proof, leaf) */\n      jump\t// in\n    tag_69:\n        /* \"trustless cross-chain/trading pair formation/SDupdatevalidation.sol\":340:373  processProof(proof, leaf) == root */\n      eq\n        /* \"trustless cross-chain/trading pair formation/SDupdatevalidation.sol\":333:373  return processProof(proof, leaf) == root */\n      swap1\n      pop\n        /* \"trustless cross-chain/trading pair formation/SDupdatevalidation.sol\":196:380  function verify(... */\n      swap4\n      swap3\n      pop\n      pop\n      pop\n      jump\t// out\n        /* \"trustless cross-chain/trading pair formation/SDupdatevalidation.sol\":1555:1835  function storeProof(bytes32[] calldata proof) internal {... */\n    tag_50:\n        /* \"trustless cross-chain/trading pair formation/SDupdatevalidation.sol\":1620:1637  bytes32 proofHash */\n      0x00\n        /* \"trustless cross-chain/trading pair formation/SDupdatevalidation.sol\":1667:1672  proof */\n      dup3\n      dup3\n        /* \"trustless cross-chain/trading pair formation/SDupdatevalidation.sol\":1650:1673  abi.encodePacked(proof) */\n      add(0x20, mload(0x40))\n      tag_72\n      swap3\n      swap2\n      swap1\n      tag_53\n      jump\t// in\n    tag_72:\n      mload(0x40)\n      0x20\n      dup2\n      dup4\n      sub\n      sub\n      dup2\n      mstore\n      swap1\n      0x40\n      mstore\n        /* \"trustless cross-chain/trading pair formation/SDupdatevalidation.sol\":1640:1674  keccak256(abi.encodePacked(proof)) */\n      dup1\n      mload\n      swap1\n      0x20\n      add\n      keccak256\n        /* \"trustless cross-chain/trading pair formation/SDupdatevalidation.sol\":1620:1674  bytes32 proofHash = keccak256(abi.encodePacked(proof)) */\n      swap1\n      pop\n        /* \"trustless cross-chain/trading pair formation/SDupdatevalidation.sol\":1693:1705  storedProofs */\n      0x02\n        /* \"trustless cross-chain/trading pair formation/SDupdatevalidation.sol\":1693:1716  storedProofs[proofHash] */\n      0x00\n        /* \"trustless cross-chain/trading pair formation/SDupdatevalidation.sol\":1706:1715  proofHash */\n      dup3\n        /* \"trustless cross-chain/trading pair formation/SDupdatevalidation.sol\":1693:1716  storedProofs[proofHash] */\n      dup2\n      mstore\n      0x20\n      add\n      swap1\n      dup2\n      mstore\n      0x20\n      add\n      0x00\n      keccak256\n      0x00\n      swap1\n      sload\n      swap1\n      0x0100\n      exp\n      swap1\n      div\n      0xff\n      and\n        /* \"trustless cross-chain/trading pair formation/SDupdatevalidation.sol\":1692:1716  !storedProofs[proofHash] */\n      iszero\n        /* \"trustless cross-chain/trading pair formation/SDupdatevalidation.sol\":1684:1741  require(!storedProofs[proofHash], \"Proof already stored\") */\n      tag_73\n      jumpi\n      mload(0x40)\n      0x08c379a000000000000000000000000000000000000000000000000000000000\n      dup2\n      mstore\n      0x04\n      add\n      tag_74\n      swap1\n      tag_75\n      jump\t// in\n    tag_74:\n      mload(0x40)\n      dup1\n      swap2\n      sub\n      swap1\n      revert\n    tag_73:\n        /* \"trustless cross-chain/trading pair formation/SDupdatevalidation.sol\":1778:1782  true */\n      0x01\n        /* \"trustless cross-chain/trading pair formation/SDupdatevalidation.sol\":1752:1764  storedProofs */\n      0x02\n        /* \"trustless cross-chain/trading pair formation/SDupdatevalidation.sol\":1752:1775  storedProofs[proofHash] */\n      0x00\n        /* \"trustless cross-chain/trading pair formation/SDupdatevalidation.sol\":1765:1774  proofHash */\n      dup4\n        /* \"trustless cross-chain/trading pair formation/SDupdatevalidation.sol\":1752:1775  storedProofs[proofHash] */\n      dup2\n      mstore\n      0x20\n      add\n      swap1\n      dup2\n      mstore\n      0x20\n      add\n      0x00\n      keccak256\n      0x00\n        /* \"trustless cross-chain/trading pair formation/SDupdatevalidation.sol\":1752:1782  storedProofs[proofHash] = true */\n      0x0100\n      exp\n      dup2\n      sload\n      dup2\n      0xff\n      mul\n      not\n      and\n      swap1\n      dup4\n      iszero\n      iszero\n      mul\n      or\n      swap1\n      sstore\n      pop\n        /* \"trustless cross-chain/trading pair formation/SDupdatevalidation.sol\":1810:1820  msg.sender */\n      caller\n        /* \"trustless cross-chain/trading pair formation/SDupdatevalidation.sol\":1798:1828  ProofStored(msg.sender, proof) */\n      0xffffffffffffffffffffffffffffffffffffffff\n      and\n      0x89fa02a487d3fdccc0fa43f5e9fd046d94594945c194b5a85a2196116afc9c84\n        /* \"trustless cross-chain/trading pair formation/SDupdatevalidation.sol\":1822:1827  proof */\n      dup5\n      dup5\n        /* \"trustless cross-chain/trading pair formation/SDupdatevalidation.sol\":1798:1828  ProofStored(msg.sender, proof) */\n      mload(0x40)\n      tag_76\n      swap3\n      swap2\n      swap1\n      tag_77\n      jump\t// in\n    tag_76:\n      mload(0x40)\n      dup1\n      swap2\n      sub\n      swap1\n      log2\n        /* \"trustless cross-chain/trading pair formation/SDupdatevalidation.sol\":1610:1835  {... */\n      pop\n        /* \"trustless cross-chain/trading pair formation/SDupdatevalidation.sol\":1555:1835  function storeProof(bytes32[] calldata proof) internal {... */\n      pop\n      pop\n      jump\t// out\n        /* \"@openzeppelin/contracts/access/Ownable.sol\":1359:1489  function _checkOwner() internal view virtual {... */\n    tag_56:\n        /* \"@openzeppelin/contracts/access/Ownable.sol\":1433:1445  _msgSender() */\n      tag_79\n        /* \"@openzeppelin/contracts/access/Ownable.sol\":1433:1443  _msgSender */\n      tag_80\n        /* \"@openzeppelin/contracts/access/Ownable.sol\":1433:1445  _msgSender() */\n      jump\t// in\n    tag_79:\n        /* \"@openzeppelin/contracts/access/Ownable.sol\":1422:1445  owner() == _msgSender() */\n      0xffffffffffffffffffffffffffffffffffffffff\n      and\n        /* \"@openzeppelin/contracts/access/Ownable.sol\":1422:1429  owner() */\n      tag_81\n        /* \"@openzeppelin/contracts/access/Ownable.sol\":1422:1427  owner */\n      tag_24\n        /* \"@openzeppelin/contracts/access/Ownable.sol\":1422:1429  owner() */\n      jump\t// in\n    tag_81:\n        /* \"@openzeppelin/contracts/access/Ownable.sol\":1422:1445  owner() == _msgSender() */\n      0xffffffffffffffffffffffffffffffffffffffff\n      and\n      eq\n        /* \"@openzeppelin/contracts/access/Ownable.sol\":1414:1482  require(owner() == _msgSender(), \"Ownable: caller is not the owner\") */\n      tag_82\n      jumpi\n      mload(0x40)\n      0x08c379a000000000000000000000000000000000000000000000000000000000\n      dup2\n      mstore\n      0x04\n      add\n      tag_83\n      swap1\n      tag_84\n      jump\t// in\n    tag_83:\n      mload(0x40)\n      dup1\n      swap2\n      sub\n      swap1\n      revert\n    tag_82:\n        /* \"@openzeppelin/contracts/access/Ownable.sol\":1359:1489  function _checkOwner() internal view virtual {... */\n      jump\t// out\n        /* \"@openzeppelin/contracts/access/Ownable.sol\":2433:2620  function _transferOwnership(address newOwner) internal virtual {... */\n    tag_59:\n        /* \"@openzeppelin/contracts/access/Ownable.sol\":2506:2522  address oldOwner */\n      0x00\n        /* \"@openzeppelin/contracts/access/Ownable.sol\":2525:2531  _owner */\n      dup1\n      0x00\n      swap1\n      sload\n      swap1\n      0x0100\n      exp\n      swap1\n      div\n      0xffffffffffffffffffffffffffffffffffffffff\n      and\n        /* \"@openzeppelin/contracts/access/Ownable.sol\":2506:2531  address oldOwner = _owner */\n      swap1\n      pop\n        /* \"@openzeppelin/contracts/access/Ownable.sol\":2550:2558  newOwner */\n      dup2\n        /* \"@openzeppelin/contracts/access/Ownable.sol\":2541:2547  _owner */\n      0x00\n      dup1\n        /* \"@openzeppelin/contracts/access/Ownable.sol\":2541:2558  _owner = newOwner */\n      0x0100\n      exp\n      dup2\n      sload\n      dup2\n      0xffffffffffffffffffffffffffffffffffffffff\n      mul\n      not\n      and\n      swap1\n      dup4\n      0xffffffffffffffffffffffffffffffffffffffff\n      and\n      mul\n      or\n      swap1\n      sstore\n      pop\n        /* \"@openzeppelin/contracts/access/Ownable.sol\":2604:2612  newOwner */\n      dup2\n        /* \"@openzeppelin/contracts/access/Ownable.sol\":2573:2613  OwnershipTransferred(oldOwner, newOwner) */\n      0xffffffffffffffffffffffffffffffffffffffff\n      and\n        /* \"@openzeppelin/contracts/access/Ownable.sol\":2594:2602  oldOwner */\n      dup2\n        /* \"@openzeppelin/contracts/access/Ownable.sol\":2573:2613  OwnershipTransferred(oldOwner, newOwner) */\n      0xffffffffffffffffffffffffffffffffffffffff\n      and\n      0x8be0079c531659141344cd1fd0a4f28419497f9722a3daafe3b4186f6b6457e0\n      mload(0x40)\n      mload(0x40)\n      dup1\n      swap2\n      sub\n      swap1\n      log3\n        /* \"@openzeppelin/contracts/access/Ownable.sol\":2496:2620  {... */\n      pop\n        /* \"@openzeppelin/contracts/access/Ownable.sol\":2433:2620  function _transferOwnership(address newOwner) internal virtual {... */\n      pop\n      jump\t// out\n        /* \"trustless cross-chain/trading pair formation/SDupdatevalidation.sol\":386:676  function processProof(bytes32[] memory proof, bytes32 leaf) internal pure returns (bytes32) {... */\n    tag_70:\n        /* \"trustless cross-chain/trading pair formation/SDupdatevalidation.sol\":469:476  bytes32 */\n      0x00\n        /* \"trustless cross-chain/trading pair formation/SDupdatevalidation.sol\":488:508  bytes32 computedHash */\n      dup1\n        /* \"trustless cross-chain/trading pair formation/SDupdatevalidation.sol\":511:515  leaf */\n      dup3\n        /* \"trustless cross-chain/trading pair formation/SDupdatevalidation.sol\":488:515  bytes32 computedHash = leaf */\n      swap1\n      pop\n        /* \"trustless cross-chain/trading pair formation/SDupdatevalidation.sol\":530:539  uint256 i */\n      0x00\n        /* \"trustless cross-chain/trading pair formation/SDupdatevalidation.sol\":525:641  for (uint256 i = 0; i < proof.length; i++) {... */\n    tag_87:\n        /* \"trustless cross-chain/trading pair formation/SDupdatevalidation.sol\":549:554  proof */\n      dup5\n        /* \"trustless cross-chain/trading pair formation/SDupdatevalidation.sol\":549:561  proof.length */\n      mload\n        /* \"trustless cross-chain/trading pair formation/SDupdatevalidation.sol\":545:546  i */\n      dup2\n        /* \"trustless cross-chain/trading pair formation/SDupdatevalidation.sol\":545:561  i < proof.length */\n      lt\n        /* \"trustless cross-chain/trading pair formation/SDupdatevalidation.sol\":525:641  for (uint256 i = 0; i < proof.length; i++) {... */\n      iszero\n      tag_88\n      jumpi\n        /* \"trustless cross-chain/trading pair formation/SDupdatevalidation.sol\":597:630  _hashPair(computedHash, proof[i]) */\n      tag_90\n        /* \"trustless cross-chain/trading pair formation/SDupdatevalidation.sol\":607:619  computedHash */\n      dup3\n        /* \"trustless cross-chain/trading pair formation/SDupdatevalidation.sol\":621:626  proof */\n      dup7\n        /* \"trustless cross-chain/trading pair formation/SDupdatevalidation.sol\":627:628  i */\n      dup4\n        /* \"trustless cross-chain/trading pair formation/SDupdatevalidation.sol\":621:629  proof[i] */\n      dup2\n      mload\n      dup2\n      lt\n      tag_91\n      jumpi\n      tag_92\n      tag_93\n      jump\t// in\n    tag_92:\n    tag_91:\n      0x20\n      mul\n      0x20\n      add\n      add\n      mload\n        /* \"trustless cross-chain/trading pair formation/SDupdatevalidation.sol\":597:606  _hashPair */\n      tag_94\n        /* \"trustless cross-chain/trading pair formation/SDupdatevalidation.sol\":597:630  _hashPair(computedHash, proof[i]) */\n      jump\t// in\n    tag_90:\n        /* \"trustless cross-chain/trading pair formation/SDupdatevalidation.sol\":582:630  computedHash = _hashPair(computedHash, proof[i]) */\n      swap2\n      pop\n        /* \"trustless cross-chain/trading pair formation/SDupdatevalidation.sol\":563:566  i++ */\n      dup1\n      dup1\n      0x01\n      add\n      swap2\n      pop\n      pop\n        /* \"trustless cross-chain/trading pair formation/SDupdatevalidation.sol\":525:641  for (uint256 i = 0; i < proof.length; i++) {... */\n      jump(tag_87)\n    tag_88:\n      pop\n        /* \"trustless cross-chain/trading pair formation/SDupdatevalidation.sol\":657:669  computedHash */\n      dup1\n        /* \"trustless cross-chain/trading pair formation/SDupdatevalidation.sol\":650:669  return computedHash */\n      swap2\n      pop\n      pop\n        /* \"trustless cross-chain/trading pair formation/SDupdatevalidation.sol\":386:676  function processProof(bytes32[] memory proof, bytes32 leaf) internal pure returns (bytes32) {... */\n      swap3\n      swap2\n      pop\n      pop\n      jump\t// out\n        /* \"@openzeppelin/contracts/utils/Context.sol\":640:736  function _msgSender() internal view virtual returns (address) {... */\n    tag_80:\n        /* \"@openzeppelin/contracts/utils/Context.sol\":693:700  address */\n      0x00\n        /* \"@openzeppelin/contracts/utils/Context.sol\":719:729  msg.sender */\n      caller\n        /* \"@openzeppelin/contracts/utils/Context.sol\":712:729  return msg.sender */\n      swap1\n      pop\n        /* \"@openzeppelin/contracts/utils/Context.sol\":640:736  function _msgSender() internal view virtual returns (address) {... */\n      swap1\n      jump\t// out\n        /* \"trustless cross-chain/trading pair formation/SDupdatevalidation.sol\":682:855  function _hashPair(bytes32 a, bytes32 b) private pure returns (bytes32) {... */\n    tag_94:\n        /* \"trustless cross-chain/trading pair formation/SDupdatevalidation.sol\":745:752  bytes32 */\n      0x00\n        /* \"trustless cross-chain/trading pair formation/SDupdatevalidation.sol\":775:776  b */\n      dup2\n        /* \"trustless cross-chain/trading pair formation/SDupdatevalidation.sol\":771:772  a */\n      dup4\n        /* \"trustless cross-chain/trading pair formation/SDupdatevalidation.sol\":771:776  a < b */\n      lt\n        /* \"trustless cross-chain/trading pair formation/SDupdatevalidation.sol\":771:848  a < b ? keccak256(abi.encodePacked(a, b)) : keccak256(abi.encodePacked(b, a)) */\n      tag_97\n      jumpi\n        /* \"trustless cross-chain/trading pair formation/SDupdatevalidation.sol\":842:843  b */\n      dup2\n        /* \"trustless cross-chain/trading pair formation/SDupdatevalidation.sol\":845:846  a */\n      dup4\n        /* \"trustless cross-chain/trading pair formation/SDupdatevalidation.sol\":825:847  abi.encodePacked(b, a) */\n      add(0x20, mload(0x40))\n      tag_98\n      swap3\n      swap2\n      swap1\n      tag_99\n      jump\t// in\n    tag_98:\n      mload(0x40)\n      0x20\n      dup2\n      dup4\n      sub\n      sub\n      dup2\n      mstore\n      swap1\n      0x40\n      mstore\n        /* \"trustless cross-chain/trading pair formation/SDupdatevalidation.sol\":815:848  keccak256(abi.encodePacked(b, a)) */\n      dup1\n      mload\n      swap1\n      0x20\n      add\n      keccak256\n        /* \"trustless cross-chain/trading pair formation/SDupdatevalidation.sol\":771:848  a < b ? keccak256(abi.encodePacked(a, b)) : keccak256(abi.encodePacked(b, a)) */\n      jump(tag_100)\n    tag_97:\n        /* \"trustless cross-chain/trading pair formation/SDupdatevalidation.sol\":806:807  a */\n      dup3\n        /* \"trustless cross-chain/trading pair formation/SDupdatevalidation.sol\":809:810  b */\n      dup3\n        /* \"trustless cross-chain/trading pair formation/SDupdatevalidation.sol\":789:811  abi.encodePacked(a, b) */\n      add(0x20, mload(0x40))\n      tag_101\n      swap3\n      swap2\n      swap1\n      tag_99\n      jump\t// in\n    tag_101:\n      mload(0x40)\n      0x20\n      dup2\n      dup4\n      sub\n      sub\n      dup2\n      mstore\n      swap1\n      0x40\n      mstore\n        /* \"trustless cross-chain/trading pair formation/SDupdatevalidation.sol\":779:812  keccak256(abi.encodePacked(a, b)) */\n      dup1\n      mload\n      swap1\n      0x20\n      add\n      keccak256\n        /* \"trustless cross-chain/trading pair formation/SDupdatevalidation.sol\":771:848  a < b ? keccak256(abi.encodePacked(a, b)) : keccak256(abi.encodePacked(b, a)) */\n    tag_100:\n        /* \"trustless cross-chain/trading pair formation/SDupdatevalidation.sol\":764:848  return a < b ? keccak256(abi.encodePacked(a, b)) : keccak256(abi.encodePacked(b, a)) */\n      swap1\n      pop\n        /* \"trustless cross-chain/trading pair formation/SDupdatevalidation.sol\":682:855  function _hashPair(bytes32 a, bytes32 b) private pure returns (bytes32) {... */\n      swap3\n      swap2\n      pop\n      pop\n      jump\t// out\n        /* \"#utility.yul\":88:205   */\n    tag_103:\n        /* \"#utility.yul\":197:198   */\n      0x00\n        /* \"#utility.yul\":194:195   */\n      dup1\n        /* \"#utility.yul\":187:199   */\n      revert\n        /* \"#utility.yul\":211:328   */\n    tag_104:\n        /* \"#utility.yul\":320:321   */\n      0x00\n        /* \"#utility.yul\":317:318   */\n      dup1\n        /* \"#utility.yul\":310:322   */\n      revert\n        /* \"#utility.yul\":334:411   */\n    tag_105:\n        /* \"#utility.yul\":371:378   */\n      0x00\n        /* \"#utility.yul\":400:405   */\n      dup2\n        /* \"#utility.yul\":389:405   */\n      swap1\n      pop\n        /* \"#utility.yul\":334:411   */\n      swap2\n      swap1\n      pop\n      jump\t// out\n        /* \"#utility.yul\":417:539   */\n    tag_106:\n        /* \"#utility.yul\":490:514   */\n      tag_152\n        /* \"#utility.yul\":508:513   */\n      dup2\n        /* \"#utility.yul\":490:514   */\n      tag_105\n      jump\t// in\n    tag_152:\n        /* \"#utility.yul\":483:488   */\n      dup2\n        /* \"#utility.yul\":480:515   */\n      eq\n        /* \"#utility.yul\":470:533   */\n      tag_153\n      jumpi\n        /* \"#utility.yul\":529:530   */\n      0x00\n        /* \"#utility.yul\":526:527   */\n      dup1\n        /* \"#utility.yul\":519:531   */\n      revert\n        /* \"#utility.yul\":470:533   */\n    tag_153:\n        /* \"#utility.yul\":417:539   */\n      pop\n      jump\t// out\n        /* \"#utility.yul\":545:684   */\n    tag_107:\n        /* \"#utility.yul\":591:596   */\n      0x00\n        /* \"#utility.yul\":629:635   */\n      dup2\n        /* \"#utility.yul\":616:636   */\n      calldataload\n        /* \"#utility.yul\":607:636   */\n      swap1\n      pop\n        /* \"#utility.yul\":645:678   */\n      tag_155\n        /* \"#utility.yul\":672:677   */\n      dup2\n        /* \"#utility.yul\":645:678   */\n      tag_106\n      jump\t// in\n    tag_155:\n        /* \"#utility.yul\":545:684   */\n      swap3\n      swap2\n      pop\n      pop\n      jump\t// out\n        /* \"#utility.yul\":690:807   */\n    tag_108:\n        /* \"#utility.yul\":799:800   */\n      0x00\n        /* \"#utility.yul\":796:797   */\n      dup1\n        /* \"#utility.yul\":789:801   */\n      revert\n        /* \"#utility.yul\":813:930   */\n    tag_109:\n        /* \"#utility.yul\":922:923   */\n      0x00\n        /* \"#utility.yul\":919:920   */\n      dup1\n        /* \"#utility.yul\":912:924   */\n      revert\n        /* \"#utility.yul\":936:1053   */\n    tag_110:\n        /* \"#utility.yul\":1045:1046   */\n      0x00\n        /* \"#utility.yul\":1042:1043   */\n      dup1\n        /* \"#utility.yul\":1035:1047   */\n      revert\n        /* \"#utility.yul\":1076:1644   */\n    tag_111:\n        /* \"#utility.yul\":1149:1157   */\n      0x00\n        /* \"#utility.yul\":1159:1165   */\n      dup1\n        /* \"#utility.yul\":1209:1212   */\n      dup4\n        /* \"#utility.yul\":1202:1206   */\n      0x1f\n        /* \"#utility.yul\":1194:1200   */\n      dup5\n        /* \"#utility.yul\":1190:1207   */\n      add\n        /* \"#utility.yul\":1186:1213   */\n      slt\n        /* \"#utility.yul\":1176:1298   */\n      tag_160\n      jumpi\n        /* \"#utility.yul\":1217:1296   */\n      tag_161\n      tag_108\n      jump\t// in\n    tag_161:\n        /* \"#utility.yul\":1176:1298   */\n    tag_160:\n        /* \"#utility.yul\":1330:1336   */\n      dup3\n        /* \"#utility.yul\":1317:1337   */\n      calldataload\n        /* \"#utility.yul\":1307:1337   */\n      swap1\n      pop\n        /* \"#utility.yul\":1360:1378   */\n      0xffffffffffffffff\n        /* \"#utility.yul\":1352:1358   */\n      dup2\n        /* \"#utility.yul\":1349:1379   */\n      gt\n        /* \"#utility.yul\":1346:1463   */\n      iszero\n      tag_162\n      jumpi\n        /* \"#utility.yul\":1382:1461   */\n      tag_163\n      tag_109\n      jump\t// in\n    tag_163:\n        /* \"#utility.yul\":1346:1463   */\n    tag_162:\n        /* \"#utility.yul\":1496:1500   */\n      0x20\n        /* \"#utility.yul\":1488:1494   */\n      dup4\n        /* \"#utility.yul\":1484:1501   */\n      add\n        /* \"#utility.yul\":1472:1501   */\n      swap2\n      pop\n        /* \"#utility.yul\":1550:1553   */\n      dup4\n        /* \"#utility.yul\":1542:1546   */\n      0x20\n        /* \"#utility.yul\":1534:1540   */\n      dup3\n        /* \"#utility.yul\":1530:1547   */\n      mul\n        /* \"#utility.yul\":1520:1528   */\n      dup4\n        /* \"#utility.yul\":1516:1548   */\n      add\n        /* \"#utility.yul\":1513:1554   */\n      gt\n        /* \"#utility.yul\":1510:1638   */\n      iszero\n      tag_164\n      jumpi\n        /* \"#utility.yul\":1557:1636   */\n      tag_165\n      tag_110\n      jump\t// in\n    tag_165:\n        /* \"#utility.yul\":1510:1638   */\n    tag_164:\n        /* \"#utility.yul\":1076:1644   */\n      swap3\n      pop\n      swap3\n      swap1\n      pop\n      jump\t// out\n        /* \"#utility.yul\":1650:1727   */\n    tag_112:\n        /* \"#utility.yul\":1687:1694   */\n      0x00\n        /* \"#utility.yul\":1716:1721   */\n      dup2\n        /* \"#utility.yul\":1705:1721   */\n      swap1\n      pop\n        /* \"#utility.yul\":1650:1727   */\n      swap2\n      swap1\n      pop\n      jump\t// out\n        /* \"#utility.yul\":1733:1855   */\n    tag_113:\n        /* \"#utility.yul\":1806:1830   */\n      tag_168\n        /* \"#utility.yul\":1824:1829   */\n      dup2\n        /* \"#utility.yul\":1806:1830   */\n      tag_112\n      jump\t// in\n    tag_168:\n        /* \"#utility.yul\":1799:1804   */\n      dup2\n        /* \"#utility.yul\":1796:1831   */\n      eq\n        /* \"#utility.yul\":1786:1849   */\n      tag_169\n      jumpi\n        /* \"#utility.yul\":1845:1846   */\n      0x00\n        /* \"#utility.yul\":1842:1843   */\n      dup1\n        /* \"#utility.yul\":1835:1847   */\n      revert\n        /* \"#utility.yul\":1786:1849   */\n    tag_169:\n        /* \"#utility.yul\":1733:1855   */\n      pop\n      jump\t// out\n        /* \"#utility.yul\":1861:2000   */\n    tag_114:\n        /* \"#utility.yul\":1907:1912   */\n      0x00\n        /* \"#utility.yul\":1945:1951   */\n      dup2\n        /* \"#utility.yul\":1932:1952   */\n      calldataload\n        /* \"#utility.yul\":1923:1952   */\n      swap1\n      pop\n        /* \"#utility.yul\":1961:1994   */\n      tag_171\n        /* \"#utility.yul\":1988:1993   */\n      dup2\n        /* \"#utility.yul\":1961:1994   */\n      tag_113\n      jump\t// in\n    tag_171:\n        /* \"#utility.yul\":1861:2000   */\n      swap3\n      swap2\n      pop\n      pop\n      jump\t// out\n        /* \"#utility.yul\":2006:3147   */\n    tag_13:\n        /* \"#utility.yul\":2128:2134   */\n      0x00\n        /* \"#utility.yul\":2136:2142   */\n      dup1\n        /* \"#utility.yul\":2144:2150   */\n      0x00\n        /* \"#utility.yul\":2152:2158   */\n      dup1\n        /* \"#utility.yul\":2160:2166   */\n      0x00\n        /* \"#utility.yul\":2168:2174   */\n      dup1\n        /* \"#utility.yul\":2217:2220   */\n      0xa0\n        /* \"#utility.yul\":2205:2214   */\n      dup8\n        /* \"#utility.yul\":2196:2203   */\n      dup10\n        /* \"#utility.yul\":2192:2215   */\n      sub\n        /* \"#utility.yul\":2188:2221   */\n      slt\n        /* \"#utility.yul\":2185:2305   */\n      iszero\n      tag_173\n      jumpi\n        /* \"#utility.yul\":2224:2303   */\n      tag_174\n      tag_103\n      jump\t// in\n    tag_174:\n        /* \"#utility.yul\":2185:2305   */\n    tag_173:\n        /* \"#utility.yul\":2344:2345   */\n      0x00\n        /* \"#utility.yul\":2369:2422   */\n      tag_175\n        /* \"#utility.yul\":2414:2421   */\n      dup10\n        /* \"#utility.yul\":2405:2411   */\n      dup3\n        /* \"#utility.yul\":2394:2403   */\n      dup11\n        /* \"#utility.yul\":2390:2412   */\n      add\n        /* \"#utility.yul\":2369:2422   */\n      tag_107\n      jump\t// in\n    tag_175:\n        /* \"#utility.yul\":2359:2422   */\n      swap7\n      pop\n        /* \"#utility.yul\":2315:2432   */\n      pop\n        /* \"#utility.yul\":2471:2473   */\n      0x20\n        /* \"#utility.yul\":2497:2550   */\n      tag_176\n        /* \"#utility.yul\":2542:2549   */\n      dup10\n        /* \"#utility.yul\":2533:2539   */\n      dup3\n        /* \"#utility.yul\":2522:2531   */\n      dup11\n        /* \"#utility.yul\":2518:2540   */\n      add\n        /* \"#utility.yul\":2497:2550   */\n      tag_107\n      jump\t// in\n    tag_176:\n        /* \"#utility.yul\":2487:2550   */\n      swap6\n      pop\n        /* \"#utility.yul\":2442:2560   */\n      pop\n        /* \"#utility.yul\":2627:2629   */\n      0x40\n        /* \"#utility.yul\":2616:2625   */\n      dup8\n        /* \"#utility.yul\":2612:2630   */\n      add\n        /* \"#utility.yul\":2599:2631   */\n      calldataload\n        /* \"#utility.yul\":2658:2676   */\n      0xffffffffffffffff\n        /* \"#utility.yul\":2650:2656   */\n      dup2\n        /* \"#utility.yul\":2647:2677   */\n      gt\n        /* \"#utility.yul\":2644:2761   */\n      iszero\n      tag_177\n      jumpi\n        /* \"#utility.yul\":2680:2759   */\n      tag_178\n      tag_104\n      jump\t// in\n    tag_178:\n        /* \"#utility.yul\":2644:2761   */\n    tag_177:\n        /* \"#utility.yul\":2793:2873   */\n      tag_179\n        /* \"#utility.yul\":2865:2872   */\n      dup10\n        /* \"#utility.yul\":2856:2862   */\n      dup3\n        /* \"#utility.yul\":2845:2854   */\n      dup11\n        /* \"#utility.yul\":2841:2863   */\n      add\n        /* \"#utility.yul\":2793:2873   */\n      tag_111\n      jump\t// in\n    tag_179:\n        /* \"#utility.yul\":2775:2873   */\n      swap5\n      pop\n      swap5\n      pop\n        /* \"#utility.yul\":2570:2883   */\n      pop\n        /* \"#utility.yul\":2922:2924   */\n      0x60\n        /* \"#utility.yul\":2948:3001   */\n      tag_180\n        /* \"#utility.yul\":2993:3000   */\n      dup10\n        /* \"#utility.yul\":2984:2990   */\n      dup3\n        /* \"#utility.yul\":2973:2982   */\n      dup11\n        /* \"#utility.yul\":2969:2991   */\n      add\n        /* \"#utility.yul\":2948:3001   */\n      tag_114\n      jump\t// in\n    tag_180:\n        /* \"#utility.yul\":2938:3001   */\n      swap3\n      pop\n        /* \"#utility.yul\":2893:3011   */\n      pop\n        /* \"#utility.yul\":3050:3053   */\n      0x80\n        /* \"#utility.yul\":3077:3130   */\n      tag_181\n        /* \"#utility.yul\":3122:3129   */\n      dup10\n        /* \"#utility.yul\":3113:3119   */\n      dup3\n        /* \"#utility.yul\":3102:3111   */\n      dup11\n        /* \"#utility.yul\":3098:3120   */\n      add\n        /* \"#utility.yul\":3077:3130   */\n      tag_114\n      jump\t// in\n    tag_181:\n        /* \"#utility.yul\":3067:3130   */\n      swap2\n      pop\n        /* \"#utility.yul\":3021:3140   */\n      pop\n        /* \"#utility.yul\":2006:3147   */\n      swap3\n      swap6\n      pop\n      swap3\n      swap6\n      pop\n      swap3\n      swap6\n      jump\t// out\n        /* \"#utility.yul\":3153:3712   */\n    tag_17:\n        /* \"#utility.yul\":3239:3245   */\n      0x00\n        /* \"#utility.yul\":3247:3253   */\n      dup1\n        /* \"#utility.yul\":3296:3298   */\n      0x20\n        /* \"#utility.yul\":3284:3293   */\n      dup4\n        /* \"#utility.yul\":3275:3282   */\n      dup6\n        /* \"#utility.yul\":3271:3294   */\n      sub\n        /* \"#utility.yul\":3267:3299   */\n      slt\n        /* \"#utility.yul\":3264:3383   */\n      iszero\n      tag_183\n      jumpi\n        /* \"#utility.yul\":3302:3381   */\n      tag_184\n      tag_103\n      jump\t// in\n    tag_184:\n        /* \"#utility.yul\":3264:3383   */\n    tag_183:\n        /* \"#utility.yul\":3450:3451   */\n      0x00\n        /* \"#utility.yul\":3439:3448   */\n      dup4\n        /* \"#utility.yul\":3435:3452   */\n      add\n        /* \"#utility.yul\":3422:3453   */\n      calldataload\n        /* \"#utility.yul\":3480:3498   */\n      0xffffffffffffffff\n        /* \"#utility.yul\":3472:3478   */\n      dup2\n        /* \"#utility.yul\":3469:3499   */\n      gt\n        /* \"#utility.yul\":3466:3583   */\n      iszero\n      tag_185\n      jumpi\n        /* \"#utility.yul\":3502:3581   */\n      tag_186\n      tag_104\n      jump\t// in\n    tag_186:\n        /* \"#utility.yul\":3466:3583   */\n    tag_185:\n        /* \"#utility.yul\":3615:3695   */\n      tag_187\n        /* \"#utility.yul\":3687:3694   */\n      dup6\n        /* \"#utility.yul\":3678:3684   */\n      dup3\n        /* \"#utility.yul\":3667:3676   */\n      dup7\n        /* \"#utility.yul\":3663:3685   */\n      add\n        /* \"#utility.yul\":3615:3695   */\n      tag_111\n      jump\t// in\n    tag_187:\n        /* \"#utility.yul\":3597:3695   */\n      swap3\n      pop\n      swap3\n      pop\n        /* \"#utility.yul\":3393:3705   */\n      pop\n        /* \"#utility.yul\":3153:3712   */\n      swap3\n      pop\n      swap3\n      swap1\n      pop\n      jump\t// out\n        /* \"#utility.yul\":3718:3808   */\n    tag_115:\n        /* \"#utility.yul\":3752:3759   */\n      0x00\n        /* \"#utility.yul\":3795:3800   */\n      dup2\n        /* \"#utility.yul\":3788:3801   */\n      iszero\n        /* \"#utility.yul\":3781:3802   */\n      iszero\n        /* \"#utility.yul\":3770:3802   */\n      swap1\n      pop\n        /* \"#utility.yul\":3718:3808   */\n      swap2\n      swap1\n      pop\n      jump\t// out\n        /* \"#utility.yul\":3814:3923   */\n    tag_116:\n        /* \"#utility.yul\":3895:3916   */\n      tag_190\n        /* \"#utility.yul\":3910:3915   */\n      dup2\n        /* \"#utility.yul\":3895:3916   */\n      tag_115\n      jump\t// in\n    tag_190:\n        /* \"#utility.yul\":3890:3893   */\n      dup3\n        /* \"#utility.yul\":3883:3917   */\n      mstore\n        /* \"#utility.yul\":3814:3923   */\n      pop\n      pop\n      jump\t// out\n        /* \"#utility.yul\":3929:4139   */\n    tag_20:\n        /* \"#utility.yul\":4016:4020   */\n      0x00\n        /* \"#utility.yul\":4054:4056   */\n      0x20\n        /* \"#utility.yul\":4043:4052   */\n      dup3\n        /* \"#utility.yul\":4039:4057   */\n      add\n        /* \"#utility.yul\":4031:4057   */\n      swap1\n      pop\n        /* \"#utility.yul\":4067:4132   */\n      tag_192\n        /* \"#utility.yul\":4129:4130   */\n      0x00\n        /* \"#utility.yul\":4118:4127   */\n      dup4\n        /* \"#utility.yul\":4114:4131   */\n      add\n        /* \"#utility.yul\":4105:4111   */\n      dup5\n        /* \"#utility.yul\":4067:4132   */\n      tag_116\n      jump\t// in\n    tag_192:\n        /* \"#utility.yul\":3929:4139   */\n      swap3\n      swap2\n      pop\n      pop\n      jump\t// out\n        /* \"#utility.yul\":4145:4271   */\n    tag_117:\n        /* \"#utility.yul\":4182:4189   */\n      0x00\n        /* \"#utility.yul\":4222:4264   */\n      0xffffffffffffffffffffffffffffffffffffffff\n        /* \"#utility.yul\":4215:4220   */\n      dup3\n        /* \"#utility.yul\":4211:4265   */\n      and\n        /* \"#utility.yul\":4200:4265   */\n      swap1\n      pop\n        /* \"#utility.yul\":4145:4271   */\n      swap2\n      swap1\n      pop\n      jump\t// out\n        /* \"#utility.yul\":4277:4373   */\n    tag_118:\n        /* \"#utility.yul\":4314:4321   */\n      0x00\n        /* \"#utility.yul\":4343:4367   */\n      tag_195\n        /* \"#utility.yul\":4361:4366   */\n      dup3\n        /* \"#utility.yul\":4343:4367   */\n      tag_117\n      jump\t// in\n    tag_195:\n        /* \"#utility.yul\":4332:4367   */\n      swap1\n      pop\n        /* \"#utility.yul\":4277:4373   */\n      swap2\n      swap1\n      pop\n      jump\t// out\n        /* \"#utility.yul\":4379:4497   */\n    tag_119:\n        /* \"#utility.yul\":4466:4490   */\n      tag_197\n        /* \"#utility.yul\":4484:4489   */\n      dup2\n        /* \"#utility.yul\":4466:4490   */\n      tag_118\n      jump\t// in\n    tag_197:\n        /* \"#utility.yul\":4461:4464   */\n      dup3\n        /* \"#utility.yul\":4454:4491   */\n      mstore\n        /* \"#utility.yul\":4379:4497   */\n      pop\n      pop\n      jump\t// out\n        /* \"#utility.yul\":4503:4725   */\n    tag_26:\n        /* \"#utility.yul\":4596:4600   */\n      0x00\n        /* \"#utility.yul\":4634:4636   */\n      0x20\n        /* \"#utility.yul\":4623:4632   */\n      dup3\n        /* \"#utility.yul\":4619:4637   */\n      add\n        /* \"#utility.yul\":4611:4637   */\n      swap1\n      pop\n        /* \"#utility.yul\":4647:4718   */\n      tag_199\n        /* \"#utility.yul\":4715:4716   */\n      0x00\n        /* \"#utility.yul\":4704:4713   */\n      dup4\n        /* \"#utility.yul\":4700:4717   */\n      add\n        /* \"#utility.yul\":4691:4697   */\n      dup5\n        /* \"#utility.yul\":4647:4718   */\n      tag_119\n      jump\t// in\n    tag_199:\n        /* \"#utility.yul\":4503:4725   */\n      swap3\n      swap2\n      pop\n      pop\n      jump\t// out\n        /* \"#utility.yul\":4731:5060   */\n    tag_29:\n        /* \"#utility.yul\":4790:4796   */\n      0x00\n        /* \"#utility.yul\":4839:4841   */\n      0x20\n        /* \"#utility.yul\":4827:4836   */\n      dup3\n        /* \"#utility.yul\":4818:4825   */\n      dup5\n        /* \"#utility.yul\":4814:4837   */\n      sub\n        /* \"#utility.yul\":4810:4842   */\n      slt\n        /* \"#utility.yul\":4807:4926   */\n      iszero\n      tag_201\n      jumpi\n        /* \"#utility.yul\":4845:4924   */\n      tag_202\n      tag_103\n      jump\t// in\n    tag_202:\n        /* \"#utility.yul\":4807:4926   */\n    tag_201:\n        /* \"#utility.yul\":4965:4966   */\n      0x00\n        /* \"#utility.yul\":4990:5043   */\n      tag_203\n        /* \"#utility.yul\":5035:5042   */\n      dup5\n        /* \"#utility.yul\":5026:5032   */\n      dup3\n        /* \"#utility.yul\":5015:5024   */\n      dup6\n        /* \"#utility.yul\":5011:5033   */\n      add\n        /* \"#utility.yul\":4990:5043   */\n      tag_114\n      jump\t// in\n    tag_203:\n        /* \"#utility.yul\":4980:5043   */\n      swap2\n      pop\n        /* \"#utility.yul\":4936:5053   */\n      pop\n        /* \"#utility.yul\":4731:5060   */\n      swap3\n      swap2\n      pop\n      pop\n      jump\t// out\n        /* \"#utility.yul\":5066:5188   */\n    tag_120:\n        /* \"#utility.yul\":5139:5163   */\n      tag_205\n        /* \"#utility.yul\":5157:5162   */\n      dup2\n        /* \"#utility.yul\":5139:5163   */\n      tag_118\n      jump\t// in\n    tag_205:\n        /* \"#utility.yul\":5132:5137   */\n      dup2\n        /* \"#utility.yul\":5129:5164   */\n      eq\n        /* \"#utility.yul\":5119:5182   */\n      tag_206\n      jumpi\n        /* \"#utility.yul\":5178:5179   */\n      0x00\n        /* \"#utility.yul\":5175:5176   */\n      dup1\n        /* \"#utility.yul\":5168:5180   */\n      revert\n        /* \"#utility.yul\":5119:5182   */\n    tag_206:\n        /* \"#utility.yul\":5066:5188   */\n      pop\n      jump\t// out\n        /* \"#utility.yul\":5194:5333   */\n    tag_121:\n        /* \"#utility.yul\":5240:5245   */\n      0x00\n        /* \"#utility.yul\":5278:5284   */\n      dup2\n        /* \"#utility.yul\":5265:5285   */\n      calldataload\n        /* \"#utility.yul\":5256:5285   */\n      swap1\n      pop\n        /* \"#utility.yul\":5294:5327   */\n      tag_208\n        /* \"#utility.yul\":5321:5326   */\n      dup2\n        /* \"#utility.yul\":5294:5327   */\n      tag_120\n      jump\t// in\n    tag_208:\n        /* \"#utility.yul\":5194:5333   */\n      swap3\n      swap2\n      pop\n      pop\n      jump\t// out\n        /* \"#utility.yul\":5339:5668   */\n    tag_34:\n        /* \"#utility.yul\":5398:5404   */\n      0x00\n        /* \"#utility.yul\":5447:5449   */\n      0x20\n        /* \"#utility.yul\":5435:5444   */\n      dup3\n        /* \"#utility.yul\":5426:5433   */\n      dup5\n        /* \"#utility.yul\":5422:5445   */\n      sub\n        /* \"#utility.yul\":5418:5450   */\n      slt\n        /* \"#utility.yul\":5415:5534   */\n      iszero\n      tag_210\n      jumpi\n        /* \"#utility.yul\":5453:5532   */\n      tag_211\n      tag_103\n      jump\t// in\n    tag_211:\n        /* \"#utility.yul\":5415:5534   */\n    tag_210:\n        /* \"#utility.yul\":5573:5574   */\n      0x00\n        /* \"#utility.yul\":5598:5651   */\n      tag_212\n        /* \"#utility.yul\":5643:5650   */\n      dup5\n        /* \"#utility.yul\":5634:5640   */\n      dup3\n        /* \"#utility.yul\":5623:5632   */\n      dup6\n        /* \"#utility.yul\":5619:5641   */\n      add\n        /* \"#utility.yul\":5598:5651   */\n      tag_121\n      jump\t// in\n    tag_212:\n        /* \"#utility.yul\":5588:5651   */\n      swap2\n      pop\n        /* \"#utility.yul\":5544:5661   */\n      pop\n        /* \"#utility.yul\":5339:5668   */\n      swap3\n      swap2\n      pop\n      pop\n      jump\t// out\n        /* \"#utility.yul\":5674:5734   */\n    tag_122:\n        /* \"#utility.yul\":5702:5705   */\n      0x00\n        /* \"#utility.yul\":5723:5728   */\n      dup2\n        /* \"#utility.yul\":5716:5728   */\n      swap1\n      pop\n        /* \"#utility.yul\":5674:5734   */\n      swap2\n      swap1\n      pop\n      jump\t// out\n        /* \"#utility.yul\":5740:5882   */\n    tag_123:\n        /* \"#utility.yul\":5790:5799   */\n      0x00\n        /* \"#utility.yul\":5823:5876   */\n      tag_215\n        /* \"#utility.yul\":5841:5875   */\n      tag_216\n        /* \"#utility.yul\":5850:5874   */\n      tag_217\n        /* \"#utility.yul\":5868:5873   */\n      dup5\n        /* \"#utility.yul\":5850:5874   */\n      tag_117\n      jump\t// in\n    tag_217:\n        /* \"#utility.yul\":5841:5875   */\n      tag_122\n      jump\t// in\n    tag_216:\n        /* \"#utility.yul\":5823:5876   */\n      tag_117\n      jump\t// in\n    tag_215:\n        /* \"#utility.yul\":5810:5876   */\n      swap1\n      pop\n        /* \"#utility.yul\":5740:5882   */\n      swap2\n      swap1\n      pop\n      jump\t// out\n        /* \"#utility.yul\":5888:6014   */\n    tag_124:\n        /* \"#utility.yul\":5938:5947   */\n      0x00\n        /* \"#utility.yul\":5971:6008   */\n      tag_219\n        /* \"#utility.yul\":6002:6007   */\n      dup3\n        /* \"#utility.yul\":5971:6008   */\n      tag_123\n      jump\t// in\n    tag_219:\n        /* \"#utility.yul\":5958:6008   */\n      swap1\n      pop\n        /* \"#utility.yul\":5888:6014   */\n      swap2\n      swap1\n      pop\n      jump\t// out\n        /* \"#utility.yul\":6020:6161   */\n    tag_125:\n        /* \"#utility.yul\":6085:6094   */\n      0x00\n        /* \"#utility.yul\":6118:6155   */\n      tag_221\n        /* \"#utility.yul\":6149:6154   */\n      dup3\n        /* \"#utility.yul\":6118:6155   */\n      tag_124\n      jump\t// in\n    tag_221:\n        /* \"#utility.yul\":6105:6155   */\n      swap1\n      pop\n        /* \"#utility.yul\":6020:6161   */\n      swap2\n      swap1\n      pop\n      jump\t// out\n        /* \"#utility.yul\":6167:6328   */\n    tag_126:\n        /* \"#utility.yul\":6269:6321   */\n      tag_223\n        /* \"#utility.yul\":6315:6320   */\n      dup2\n        /* \"#utility.yul\":6269:6321   */\n      tag_125\n      jump\t// in\n    tag_223:\n        /* \"#utility.yul\":6264:6267   */\n      dup3\n        /* \"#utility.yul\":6257:6322   */\n      mstore\n        /* \"#utility.yul\":6167:6328   */\n      pop\n      pop\n      jump\t// out\n        /* \"#utility.yul\":6334:6586   */\n    tag_39:\n        /* \"#utility.yul\":6442:6446   */\n      0x00\n        /* \"#utility.yul\":6480:6482   */\n      0x20\n        /* \"#utility.yul\":6469:6478   */\n      dup3\n        /* \"#utility.yul\":6465:6483   */\n      add\n        /* \"#utility.yul\":6457:6483   */\n      swap1\n      pop\n        /* \"#utility.yul\":6493:6579   */\n      tag_225\n        /* \"#utility.yul\":6576:6577   */\n      0x00\n        /* \"#utility.yul\":6565:6574   */\n      dup4\n        /* \"#utility.yul\":6561:6578   */\n      add\n        /* \"#utility.yul\":6552:6558   */\n      dup5\n        /* \"#utility.yul\":6493:6579   */\n      tag_126\n      jump\t// in\n    tag_225:\n        /* \"#utility.yul\":6334:6586   */\n      swap3\n      swap2\n      pop\n      pop\n      jump\t// out\n        /* \"#utility.yul\":6592:6761   */\n    tag_127:\n        /* \"#utility.yul\":6676:6687   */\n      0x00\n        /* \"#utility.yul\":6710:6716   */\n      dup3\n        /* \"#utility.yul\":6705:6708   */\n      dup3\n        /* \"#utility.yul\":6698:6717   */\n      mstore\n        /* \"#utility.yul\":6750:6754   */\n      0x20\n        /* \"#utility.yul\":6745:6748   */\n      dup3\n        /* \"#utility.yul\":6741:6755   */\n      add\n        /* \"#utility.yul\":6726:6755   */\n      swap1\n      pop\n        /* \"#utility.yul\":6592:6761   */\n      swap3\n      swap2\n      pop\n      pop\n      jump\t// out\n        /* \"#utility.yul\":6767:7057   */\n    tag_128:\n        /* \"#utility.yul\":6907:6941   */\n      0x43757272656e7420626c6f636b206e756d626572206973206e6f742067726561\n        /* \"#utility.yul\":6903:6904   */\n      0x00\n        /* \"#utility.yul\":6895:6901   */\n      dup3\n        /* \"#utility.yul\":6891:6905   */\n      add\n        /* \"#utility.yul\":6884:6942   */\n      mstore\n        /* \"#utility.yul\":6976:7010   */\n      0x746572207468616e207468652070726f766964656420626c6f636b206e756d62\n        /* \"#utility.yul\":6971:6973   */\n      0x20\n        /* \"#utility.yul\":6963:6969   */\n      dup3\n        /* \"#utility.yul\":6959:6974   */\n      add\n        /* \"#utility.yul\":6952:7011   */\n      mstore\n        /* \"#utility.yul\":7045:7049   */\n      0x6572000000000000000000000000000000000000000000000000000000000000\n        /* \"#utility.yul\":7040:7042   */\n      0x40\n        /* \"#utility.yul\":7032:7038   */\n      dup3\n        /* \"#utility.yul\":7028:7043   */\n      add\n        /* \"#utility.yul\":7021:7050   */\n      mstore\n        /* \"#utility.yul\":6767:7057   */\n      pop\n      jump\t// out\n        /* \"#utility.yul\":7063:7429   */\n    tag_129:\n        /* \"#utility.yul\":7205:7208   */\n      0x00\n        /* \"#utility.yul\":7226:7293   */\n      tag_229\n        /* \"#utility.yul\":7290:7292   */\n      0x42\n        /* \"#utility.yul\":7285:7288   */\n      dup4\n        /* \"#utility.yul\":7226:7293   */\n      tag_127\n      jump\t// in\n    tag_229:\n        /* \"#utility.yul\":7219:7293   */\n      swap2\n      pop\n        /* \"#utility.yul\":7302:7395   */\n      tag_230\n        /* \"#utility.yul\":7391:7394   */\n      dup3\n        /* \"#utility.yul\":7302:7395   */\n      tag_128\n      jump\t// in\n    tag_230:\n        /* \"#utility.yul\":7420:7422   */\n      0x60\n        /* \"#utility.yul\":7415:7418   */\n      dup3\n        /* \"#utility.yul\":7411:7423   */\n      add\n        /* \"#utility.yul\":7404:7423   */\n      swap1\n      pop\n        /* \"#utility.yul\":7063:7429   */\n      swap2\n      swap1\n      pop\n      jump\t// out\n        /* \"#utility.yul\":7435:7854   */\n    tag_43:\n        /* \"#utility.yul\":7601:7605   */\n      0x00\n        /* \"#utility.yul\":7639:7641   */\n      0x20\n        /* \"#utility.yul\":7628:7637   */\n      dup3\n        /* \"#utility.yul\":7624:7642   */\n      add\n        /* \"#utility.yul\":7616:7642   */\n      swap1\n      pop\n        /* \"#utility.yul\":7688:7697   */\n      dup2\n        /* \"#utility.yul\":7682:7686   */\n      dup2\n        /* \"#utility.yul\":7678:7698   */\n      sub\n        /* \"#utility.yul\":7674:7675   */\n      0x00\n        /* \"#utility.yul\":7663:7672   */\n      dup4\n        /* \"#utility.yul\":7659:7676   */\n      add\n        /* \"#utility.yul\":7652:7699   */\n      mstore\n        /* \"#utility.yul\":7716:7847   */\n      tag_232\n        /* \"#utility.yul\":7842:7846   */\n      dup2\n        /* \"#utility.yul\":7716:7847   */\n      tag_129\n      jump\t// in\n    tag_232:\n        /* \"#utility.yul\":7708:7847   */\n      swap1\n      pop\n        /* \"#utility.yul\":7435:7854   */\n      swap2\n      swap1\n      pop\n      jump\t// out\n        /* \"#utility.yul\":7860:8030   */\n    tag_130:\n        /* \"#utility.yul\":8000:8022   */\n      0x496e76616c6964204d65726b6c652070726f6f66000000000000000000000000\n        /* \"#utility.yul\":7996:7997   */\n      0x00\n        /* \"#utility.yul\":7988:7994   */\n      dup3\n        /* \"#utility.yul\":7984:7998   */\n      add\n        /* \"#utility.yul\":7977:8023   */\n      mstore\n        /* \"#utility.yul\":7860:8030   */\n      pop\n      jump\t// out\n        /* \"#utility.yul\":8036:8402   */\n    tag_131:\n        /* \"#utility.yul\":8178:8181   */\n      0x00\n        /* \"#utility.yul\":8199:8266   */\n      tag_235\n        /* \"#utility.yul\":8263:8265   */\n      0x14\n        /* \"#utility.yul\":8258:8261   */\n      dup4\n        /* \"#utility.yul\":8199:8266   */\n      tag_127\n      jump\t// in\n    tag_235:\n        /* \"#utility.yul\":8192:8266   */\n      swap2\n      pop\n        /* \"#utility.yul\":8275:8368   */\n      tag_236\n        /* \"#utility.yul\":8364:8367   */\n      dup3\n        /* \"#utility.yul\":8275:8368   */\n      tag_130\n      jump\t// in\n    tag_236:\n        /* \"#utility.yul\":8393:8395   */\n      0x20\n        /* \"#utility.yul\":8388:8391   */\n      dup3\n        /* \"#utility.yul\":8384:8396   */\n      add\n        /* \"#utility.yul\":8377:8396   */\n      swap1\n      pop\n        /* \"#utility.yul\":8036:8402   */\n      swap2\n      swap1\n      pop\n      jump\t// out\n        /* \"#utility.yul\":8408:8827   */\n    tag_48:\n        /* \"#utility.yul\":8574:8578   */\n      0x00\n        /* \"#utility.yul\":8612:8614   */\n      0x20\n        /* \"#utility.yul\":8601:8610   */\n      dup3\n        /* \"#utility.yul\":8597:8615   */\n      add\n        /* \"#utility.yul\":8589:8615   */\n      swap1\n      pop\n        /* \"#utility.yul\":8661:8670   */\n      dup2\n        /* \"#utility.yul\":8655:8659   */\n      dup2\n        /* \"#utility.yul\":8651:8671   */\n      sub\n        /* \"#utility.yul\":8647:8648   */\n      0x00\n        /* \"#utility.yul\":8636:8645   */\n      dup4\n        /* \"#utility.yul\":8632:8649   */\n      add\n        /* \"#utility.yul\":8625:8672   */\n      mstore\n        /* \"#utility.yul\":8689:8820   */\n      tag_238\n        /* \"#utility.yul\":8815:8819   */\n      dup2\n        /* \"#utility.yul\":8689:8820   */\n      tag_131\n      jump\t// in\n    tag_238:\n        /* \"#utility.yul\":8681:8820   */\n      swap1\n      pop\n        /* \"#utility.yul\":8408:8827   */\n      swap2\n      swap1\n      pop\n      jump\t// out\n        /* \"#utility.yul\":8833:8996   */\n    tag_132:\n        /* \"#utility.yul\":8950:8961   */\n      0x00\n        /* \"#utility.yul\":8987:8990   */\n      dup2\n        /* \"#utility.yul\":8972:8990   */\n      swap1\n      pop\n        /* \"#utility.yul\":8833:8996   */\n      swap3\n      swap2\n      pop\n      pop\n      jump\t// out\n        /* \"#utility.yul\":9002:9119   */\n    tag_133:\n        /* \"#utility.yul\":9111:9112   */\n      0x00\n        /* \"#utility.yul\":9108:9109   */\n      dup1\n        /* \"#utility.yul\":9101:9113   */\n      revert\n        /* \"#utility.yul\":9125:9224   */\n    tag_134:\n        /* \"#utility.yul\":9210:9216   */\n      dup3\n        /* \"#utility.yul\":9205:9208   */\n      dup2\n        /* \"#utility.yul\":9200:9203   */\n      dup4\n        /* \"#utility.yul\":9187:9217   */\n      calldatacopy\n        /* \"#utility.yul\":9125:9224   */\n      pop\n      pop\n      pop\n      jump\t// out\n        /* \"#utility.yul\":9260:9833   */\n    tag_135:\n        /* \"#utility.yul\":9406:9409   */\n      0x00\n        /* \"#utility.yul\":9427:9531   */\n      tag_243\n        /* \"#utility.yul\":9524:9530   */\n      dup4\n        /* \"#utility.yul\":9519:9522   */\n      dup6\n        /* \"#utility.yul\":9427:9531   */\n      tag_132\n      jump\t// in\n    tag_243:\n        /* \"#utility.yul\":9420:9531   */\n      swap4\n      pop\n        /* \"#utility.yul\":9555:9621   */\n      0x07ffffffffffffffffffffffffffffffffffffffffffffffffffffffffffffff\n        /* \"#utility.yul\":9547:9553   */\n      dup4\n        /* \"#utility.yul\":9544:9622   */\n      gt\n        /* \"#utility.yul\":9541:9706   */\n      iszero\n      tag_244\n      jumpi\n        /* \"#utility.yul\":9625:9704   */\n      tag_245\n      tag_133\n      jump\t// in\n    tag_245:\n        /* \"#utility.yul\":9541:9706   */\n    tag_244:\n        /* \"#utility.yul\":9737:9741   */\n      0x20\n        /* \"#utility.yul\":9729:9735   */\n      dup4\n        /* \"#utility.yul\":9725:9742   */\n      mul\n        /* \"#utility.yul\":9715:9742   */\n      swap3\n      pop\n        /* \"#utility.yul\":9752:9795   */\n      tag_246\n        /* \"#utility.yul\":9788:9794   */\n      dup4\n        /* \"#utility.yul\":9783:9786   */\n      dup6\n        /* \"#utility.yul\":9776:9781   */\n      dup5\n        /* \"#utility.yul\":9752:9795   */\n      tag_134\n      jump\t// in\n    tag_246:\n        /* \"#utility.yul\":9820:9826   */\n      dup3\n        /* \"#utility.yul\":9815:9818   */\n      dup5\n        /* \"#utility.yul\":9811:9827   */\n      add\n        /* \"#utility.yul\":9804:9827   */\n      swap1\n      pop\n        /* \"#utility.yul\":9260:9833   */\n      swap4\n      swap3\n      pop\n      pop\n      pop\n      jump\t// out\n        /* \"#utility.yul\":9839:10194   */\n    tag_53:\n        /* \"#utility.yul\":10011:10014   */\n      0x00\n        /* \"#utility.yul\":10033:10168   */\n      tag_248\n        /* \"#utility.yul\":10164:10167   */\n      dup3\n        /* \"#utility.yul\":10155:10161   */\n      dup5\n        /* \"#utility.yul\":10147:10153   */\n      dup7\n        /* \"#utility.yul\":10033:10168   */\n      tag_135\n      jump\t// in\n    tag_248:\n        /* \"#utility.yul\":10026:10168   */\n      swap2\n      pop\n        /* \"#utility.yul\":10185:10188   */\n      dup2\n        /* \"#utility.yul\":10178:10188   */\n      swap1\n      pop\n        /* \"#utility.yul\":9839:10194   */\n      swap4\n      swap3\n      pop\n      pop\n      pop\n      jump\t// out\n        /* \"#utility.yul\":10200:10425   */\n    tag_136:\n        /* \"#utility.yul\":10340:10374   */\n      0x4f776e61626c653a206e6577206f776e657220697320746865207a65726f2061\n        /* \"#utility.yul\":10336:10337   */\n      0x00\n        /* \"#utility.yul\":10328:10334   */\n      dup3\n        /* \"#utility.yul\":10324:10338   */\n      add\n        /* \"#utility.yul\":10317:10375   */\n      mstore\n        /* \"#utility.yul\":10409:10417   */\n      0x6464726573730000000000000000000000000000000000000000000000000000\n        /* \"#utility.yul\":10404:10406   */\n      0x20\n        /* \"#utility.yul\":10396:10402   */\n      dup3\n        /* \"#utility.yul\":10392:10407   */\n      add\n        /* \"#utility.yul\":10385:10418   */\n      mstore\n        /* \"#utility.yul\":10200:10425   */\n      pop\n      jump\t// out\n        /* \"#utility.yul\":10431:10797   */\n    tag_137:\n        /* \"#utility.yul\":10573:10576   */\n      0x00\n        /* \"#utility.yul\":10594:10661   */\n      tag_251\n        /* \"#utility.yul\":10658:10660   */\n      0x26\n        /* \"#utility.yul\":10653:10656   */\n      dup4\n        /* \"#utility.yul\":10594:10661   */\n      tag_127\n      jump\t// in\n    tag_251:\n        /* \"#utility.yul\":10587:10661   */\n      swap2\n      pop\n        /* \"#utility.yul\":10670:10763   */\n      tag_252\n        /* \"#utility.yul\":10759:10762   */\n      dup3\n        /* \"#utility.yul\":10670:10763   */\n      tag_136\n      jump\t// in\n    tag_252:\n        /* \"#utility.yul\":10788:10790   */\n      0x40\n        /* \"#utility.yul\":10783:10786   */\n      dup3\n        /* \"#utility.yul\":10779:10791   */\n      add\n        /* \"#utility.yul\":10772:10791   */\n      swap1\n      pop\n        /* \"#utility.yul\":10431:10797   */\n      swap2\n      swap1\n      pop\n      jump\t// out\n        /* \"#utility.yul\":10803:11222   */\n    tag_66:\n        /* \"#utility.yul\":10969:10973   */\n      0x00\n        /* \"#utility.yul\":11007:11009   */\n      0x20\n        /* \"#utility.yul\":10996:11005   */\n      dup3\n        /* \"#utility.yul\":10992:11010   */\n      add\n        /* \"#utility.yul\":10984:11010   */\n      swap1\n      pop\n        /* \"#utility.yul\":11056:11065   */\n      dup2\n        /* \"#utility.yul\":11050:11054   */\n      dup2\n        /* \"#utility.yul\":11046:11066   */\n      sub\n        /* \"#utility.yul\":11042:11043   */\n      0x00\n        /* \"#utility.yul\":11031:11040   */\n      dup4\n        /* \"#utility.yul\":11027:11044   */\n      add\n        /* \"#utility.yul\":11020:11067   */\n      mstore\n        /* \"#utility.yul\":11084:11215   */\n      tag_254\n        /* \"#utility.yul\":11210:11214   */\n      dup2\n        /* \"#utility.yul\":11084:11215   */\n      tag_137\n      jump\t// in\n    tag_254:\n        /* \"#utility.yul\":11076:11215   */\n      swap1\n      pop\n        /* \"#utility.yul\":10803:11222   */\n      swap2\n      swap1\n      pop\n      jump\t// out\n        /* \"#utility.yul\":11228:11398   */\n    tag_138:\n        /* \"#utility.yul\":11368:11390   */\n      0x50726f6f6620616c72656164792073746f726564000000000000000000000000\n        /* \"#utility.yul\":11364:11365   */\n      0x00\n        /* \"#utility.yul\":11356:11362   */\n      dup3\n        /* \"#utility.yul\":11352:11366   */\n      add\n        /* \"#utility.yul\":11345:11391   */\n      mstore\n        /* \"#utility.yul\":11228:11398   */\n      pop\n      jump\t// out\n        /* \"#utility.yul\":11404:11770   */\n    tag_139:\n        /* \"#utility.yul\":11546:11549   */\n      0x00\n        /* \"#utility.yul\":11567:11634   */\n      tag_257\n        /* \"#utility.yul\":11631:11633   */\n      0x14\n        /* \"#utility.yul\":11626:11629   */\n      dup4\n        /* \"#utility.yul\":11567:11634   */\n      tag_127\n      jump\t// in\n    tag_257:\n        /* \"#utility.yul\":11560:11634   */\n      swap2\n      pop\n        /* \"#utility.yul\":11643:11736   */\n      tag_258\n        /* \"#utility.yul\":11732:11735   */\n      dup3\n        /* \"#utility.yul\":11643:11736   */\n      tag_138\n      jump\t// in\n    tag_258:\n        /* \"#utility.yul\":11761:11763   */\n      0x20\n        /* \"#utility.yul\":11756:11759   */\n      dup3\n        /* \"#utility.yul\":11752:11764   */\n      add\n        /* \"#utility.yul\":11745:11764   */\n      swap1\n      pop\n        /* \"#utility.yul\":11404:11770   */\n      swap2\n      swap1\n      pop\n      jump\t// out\n        /* \"#utility.yul\":11776:12195   */\n    tag_75:\n        /* \"#utility.yul\":11942:11946   */\n      0x00\n        /* \"#utility.yul\":11980:11982   */\n      0x20\n        /* \"#utility.yul\":11969:11978   */\n      dup3\n        /* \"#utility.yul\":11965:11983   */\n      add\n        /* \"#utility.yul\":11957:11983   */\n      swap1\n      pop\n        /* \"#utility.yul\":12029:12038   */\n      dup2\n        /* \"#utility.yul\":12023:12027   */\n      dup2\n        /* \"#utility.yul\":12019:12039   */\n      sub\n        /* \"#utility.yul\":12015:12016   */\n      0x00\n        /* \"#utility.yul\":12004:12013   */\n      dup4\n        /* \"#utility.yul\":12000:12017   */\n      add\n        /* \"#utility.yul\":11993:12040   */\n      mstore\n        /* \"#utility.yul\":12057:12188   */\n      tag_260\n        /* \"#utility.yul\":12183:12187   */\n      dup2\n        /* \"#utility.yul\":12057:12188   */\n      tag_139\n      jump\t// in\n    tag_260:\n        /* \"#utility.yul\":12049:12188   */\n      swap1\n      pop\n        /* \"#utility.yul\":11776:12195   */\n      swap2\n      swap1\n      pop\n      jump\t// out\n        /* \"#utility.yul\":12201:12385   */\n    tag_140:\n        /* \"#utility.yul\":12300:12311   */\n      0x00\n        /* \"#utility.yul\":12334:12340   */\n      dup3\n        /* \"#utility.yul\":12329:12332   */\n      dup3\n        /* \"#utility.yul\":12322:12341   */\n      mstore\n        /* \"#utility.yul\":12374:12378   */\n      0x20\n        /* \"#utility.yul\":12369:12372   */\n      dup3\n        /* \"#utility.yul\":12365:12379   */\n      add\n        /* \"#utility.yul\":12350:12379   */\n      swap1\n      pop\n        /* \"#utility.yul\":12201:12385   */\n      swap3\n      swap2\n      pop\n      pop\n      jump\t// out\n        /* \"#utility.yul\":12421:12958   */\n    tag_141:\n        /* \"#utility.yul\":12549:12552   */\n      0x00\n        /* \"#utility.yul\":12570:12656   */\n      tag_263\n        /* \"#utility.yul\":12649:12655   */\n      dup4\n        /* \"#utility.yul\":12644:12647   */\n      dup6\n        /* \"#utility.yul\":12570:12656   */\n      tag_140\n      jump\t// in\n    tag_263:\n        /* \"#utility.yul\":12563:12656   */\n      swap4\n      pop\n        /* \"#utility.yul\":12680:12746   */\n      0x07ffffffffffffffffffffffffffffffffffffffffffffffffffffffffffffff\n        /* \"#utility.yul\":12672:12678   */\n      dup4\n        /* \"#utility.yul\":12669:12747   */\n      gt\n        /* \"#utility.yul\":12666:12831   */\n      iszero\n      tag_264\n      jumpi\n        /* \"#utility.yul\":12750:12829   */\n      tag_265\n      tag_133\n      jump\t// in\n    tag_265:\n        /* \"#utility.yul\":12666:12831   */\n    tag_264:\n        /* \"#utility.yul\":12862:12866   */\n      0x20\n        /* \"#utility.yul\":12854:12860   */\n      dup4\n        /* \"#utility.yul\":12850:12867   */\n      mul\n        /* \"#utility.yul\":12840:12867   */\n      swap3\n      pop\n        /* \"#utility.yul\":12877:12920   */\n      tag_266\n        /* \"#utility.yul\":12913:12919   */\n      dup4\n        /* \"#utility.yul\":12908:12911   */\n      dup6\n        /* \"#utility.yul\":12901:12906   */\n      dup5\n        /* \"#utility.yul\":12877:12920   */\n      tag_134\n      jump\t// in\n    tag_266:\n        /* \"#utility.yul\":12945:12951   */\n      dup3\n        /* \"#utility.yul\":12940:12943   */\n      dup5\n        /* \"#utility.yul\":12936:12952   */\n      add\n        /* \"#utility.yul\":12929:12952   */\n      swap1\n      pop\n        /* \"#utility.yul\":12421:12958   */\n      swap4\n      swap3\n      pop\n      pop\n      pop\n      jump\t// out\n        /* \"#utility.yul\":12964:13357   */\n    tag_77:\n        /* \"#utility.yul\":13117:13121   */\n      0x00\n        /* \"#utility.yul\":13155:13157   */\n      0x20\n        /* \"#utility.yul\":13144:13153   */\n      dup3\n        /* \"#utility.yul\":13140:13158   */\n      add\n        /* \"#utility.yul\":13132:13158   */\n      swap1\n      pop\n        /* \"#utility.yul\":13204:13213   */\n      dup2\n        /* \"#utility.yul\":13198:13202   */\n      dup2\n        /* \"#utility.yul\":13194:13214   */\n      sub\n        /* \"#utility.yul\":13190:13191   */\n      0x00\n        /* \"#utility.yul\":13179:13188   */\n      dup4\n        /* \"#utility.yul\":13175:13192   */\n      add\n        /* \"#utility.yul\":13168:13215   */\n      mstore\n        /* \"#utility.yul\":13232:13350   */\n      tag_268\n        /* \"#utility.yul\":13345:13349   */\n      dup2\n        /* \"#utility.yul\":13336:13342   */\n      dup5\n        /* \"#utility.yul\":13328:13334   */\n      dup7\n        /* \"#utility.yul\":13232:13350   */\n      tag_141\n      jump\t// in\n    tag_268:\n        /* \"#utility.yul\":13224:13350   */\n      swap1\n      pop\n        /* \"#utility.yul\":12964:13357   */\n      swap4\n      swap3\n      pop\n      pop\n      pop\n      jump\t// out\n        /* \"#utility.yul\":13363:13545   */\n    tag_142:\n        /* \"#utility.yul\":13503:13537   */\n      0x4f776e61626c653a2063616c6c6572206973206e6f7420746865206f776e6572\n        /* \"#utility.yul\":13499:13500   */\n      0x00\n        /* \"#utility.yul\":13491:13497   */\n      dup3\n        /* \"#utility.yul\":13487:13501   */\n      add\n        /* \"#utility.yul\":13480:13538   */\n      mstore\n        /* \"#utility.yul\":13363:13545   */\n      pop\n      jump\t// out\n        /* \"#utility.yul\":13551:13917   */\n    tag_143:\n        /* \"#utility.yul\":13693:13696   */\n      0x00\n        /* \"#utility.yul\":13714:13781   */\n      tag_271\n        /* \"#utility.yul\":13778:13780   */\n      0x20\n        /* \"#utility.yul\":13773:13776   */\n      dup4\n        /* \"#utility.yul\":13714:13781   */\n      tag_127\n      jump\t// in\n    tag_271:\n        /* \"#utility.yul\":13707:13781   */\n      swap2\n      pop\n        /* \"#utility.yul\":13790:13883   */\n      tag_272\n        /* \"#utility.yul\":13879:13882   */\n      dup3\n        /* \"#utility.yul\":13790:13883   */\n      tag_142\n      jump\t// in\n    tag_272:\n        /* \"#utility.yul\":13908:13910   */\n      0x20\n        /* \"#utility.yul\":13903:13906   */\n      dup3\n        /* \"#utility.yul\":13899:13911   */\n      add\n        /* \"#utility.yul\":13892:13911   */\n      swap1\n      pop\n        /* \"#utility.yul\":13551:13917   */\n      swap2\n      swap1\n      pop\n      jump\t// out\n        /* \"#utility.yul\":13923:14342   */\n    tag_84:\n        /* \"#utility.yul\":14089:14093   */\n      0x00\n        /* \"#utility.yul\":14127:14129   */\n      0x20\n        /* \"#utility.yul\":14116:14125   */\n      dup3\n        /* \"#utility.yul\":14112:14130   */\n      add\n        /* \"#utility.yul\":14104:14130   */\n      swap1\n      pop\n        /* \"#utility.yul\":14176:14185   */\n      dup2\n        /* \"#utility.yul\":14170:14174   */\n      dup2\n        /* \"#utility.yul\":14166:14186   */\n      sub\n        /* \"#utility.yul\":14162:14163   */\n      0x00\n        /* \"#utility.yul\":14151:14160   */\n      dup4\n        /* \"#utility.yul\":14147:14164   */\n      add\n        /* \"#utility.yul\":14140:14187   */\n      mstore\n        /* \"#utility.yul\":14204:14335   */\n      tag_274\n        /* \"#utility.yul\":14330:14334   */\n      dup2\n        /* \"#utility.yul\":14204:14335   */\n      tag_143\n      jump\t// in\n    tag_274:\n        /* \"#utility.yul\":14196:14335   */\n      swap1\n      pop\n        /* \"#utility.yul\":13923:14342   */\n      swap2\n      swap1\n      pop\n      jump\t// out\n        /* \"#utility.yul\":14348:14528   */\n    tag_93:\n        /* \"#utility.yul\":14396:14473   */\n      0x4e487b7100000000000000000000000000000000000000000000000000000000\n        /* \"#utility.yul\":14393:14394   */\n      0x00\n        /* \"#utility.yul\":14386:14474   */\n      mstore\n        /* \"#utility.yul\":14493:14497   */\n      0x32\n        /* \"#utility.yul\":14490:14491   */\n      0x04\n        /* \"#utility.yul\":14483:14498   */\n      mstore\n        /* \"#utility.yul\":14517:14521   */\n      0x24\n        /* \"#utility.yul\":14514:14515   */\n      0x00\n        /* \"#utility.yul\":14507:14522   */\n      revert\n        /* \"#utility.yul\":14534:14613   */\n    tag_144:\n        /* \"#utility.yul\":14573:14580   */\n      0x00\n        /* \"#utility.yul\":14602:14607   */\n      dup2\n        /* \"#utility.yul\":14591:14607   */\n      swap1\n      pop\n        /* \"#utility.yul\":14534:14613   */\n      swap2\n      swap1\n      pop\n      jump\t// out\n        /* \"#utility.yul\":14619:14776   */\n    tag_145:\n        /* \"#utility.yul\":14724:14769   */\n      tag_278\n        /* \"#utility.yul\":14744:14768   */\n      tag_279\n        /* \"#utility.yul\":14762:14767   */\n      dup3\n        /* \"#utility.yul\":14744:14768   */\n      tag_112\n      jump\t// in\n    tag_279:\n        /* \"#utility.yul\":14724:14769   */\n      tag_144\n      jump\t// in\n    tag_278:\n        /* \"#utility.yul\":14719:14722   */\n      dup3\n        /* \"#utility.yul\":14712:14770   */\n      mstore\n        /* \"#utility.yul\":14619:14776   */\n      pop\n      pop\n      jump\t// out\n        /* \"#utility.yul\":14782:15179   */\n    tag_99:\n        /* \"#utility.yul\":14922:14925   */\n      0x00\n        /* \"#utility.yul\":14937:15012   */\n      tag_281\n        /* \"#utility.yul\":15008:15011   */\n      dup3\n        /* \"#utility.yul\":14999:15005   */\n      dup6\n        /* \"#utility.yul\":14937:15012   */\n      tag_145\n      jump\t// in\n    tag_281:\n        /* \"#utility.yul\":15037:15039   */\n      0x20\n        /* \"#utility.yul\":15032:15035   */\n      dup3\n        /* \"#utility.yul\":15028:15040   */\n      add\n        /* \"#utility.yul\":15021:15040   */\n      swap2\n      pop\n        /* \"#utility.yul\":15050:15125   */\n      tag_282\n        /* \"#utility.yul\":15121:15124   */\n      dup3\n        /* \"#utility.yul\":15112:15118   */\n      dup5\n        /* \"#utility.yul\":15050:15125   */\n      tag_145\n      jump\t// in\n    tag_282:\n        /* \"#utility.yul\":15150:15152   */\n      0x20\n        /* \"#utility.yul\":15145:15148   */\n      dup3\n        /* \"#utility.yul\":15141:15153   */\n      add\n        /* \"#utility.yul\":15134:15153   */\n      swap2\n      pop\n        /* \"#utility.yul\":15170:15173   */\n      dup2\n        /* \"#utility.yul\":15163:15173   */\n      swap1\n      pop\n        /* \"#utility.yul\":14782:15179   */\n      swap4\n      swap3\n      pop\n      pop\n      pop\n      jump\t// out\n\n    auxdata: 0xa26469706673582212204eebcbf9351498e0ed64377f17dea87415136b95defa0e628f32c9ca6417976d64736f6c634300081a0033\n}\n",
				"bytecode": {
					"linkReferences": {},
					"object": "608060405234801561000f575f80fd5b50604051611016380380611016833981810160405281019061003191906101b9565b61004d61004261009360201b60201c565b61009a60201b60201c565b8060015f6101000a81548173ffffffffffffffffffffffffffffffffffffffff021916908373ffffffffffffffffffffffffffffffffffffffff160217905550506101e4565b5f33905090565b5f805f9054906101000a900473ffffffffffffffffffffffffffffffffffffffff169050815f806101000a81548173ffffffffffffffffffffffffffffffffffffffff021916908373ffffffffffffffffffffffffffffffffffffffff1602179055508173ffffffffffffffffffffffffffffffffffffffff168173ffffffffffffffffffffffffffffffffffffffff167f8be0079c531659141344cd1fd0a4f28419497f9722a3daafe3b4186f6b6457e060405160405180910390a35050565b5f80fd5b5f73ffffffffffffffffffffffffffffffffffffffff82169050919050565b5f6101888261015f565b9050919050565b6101988161017e565b81146101a2575f80fd5b50565b5f815190506101b38161018f565b92915050565b5f602082840312156101ce576101cd61015b565b5b5f6101db848285016101a5565b91505092915050565b610e25806101f15f395ff3fe608060405234801561000f575f80fd5b506004361061007b575f3560e01c80638da5cb5b116100595780638da5cb5b146100d557806397a562a9146100f3578063f2fde38b14610123578063f9be04ca1461013f5761007b565b8063130b76861461007f5780632a64e51b1461009b578063715018a6146100cb575b5f80fd5b61009960048036038101906100949190610776565b61015d565b005b6100b560048036038101906100b0919061080c565b61023b565b6040516100c29190610871565b60405180910390f35b6100d361028f565b005b6100dd6102a2565b6040516100ea91906108c9565b60405180910390f35b61010d600480360381019061010891906108e2565b6102c9565b60405161011a9190610871565b60405180910390f35b61013d60048036038101906101389190610937565b6102e6565b005b610147610368565b60405161015491906109bd565b60405180910390f35b84431161019f576040517f08c379a000000000000000000000000000000000000000000000000000000000815260040161019690610a7c565b60405180910390fd5b6101ea8484808060200260200160405190810160405280939291908181526020018383602002808284375f81840152601f19601f82011690508083019250505050505050838361038d565b610229576040517f08c379a000000000000000000000000000000000000000000000000000000000815260040161022090610ae4565b60405180910390fd5b61023384846103a3565b505050505050565b5f808383604051602001610250929190610b74565b60405160208183030381529060405280519060200120905060025f8281526020019081526020015f205f9054906101000a900460ff1691505092915050565b6102976104ab565b6102a05f610529565b565b5f805f9054906101000a900473ffffffffffffffffffffffffffffffffffffffff16905090565b6002602052805f5260405f205f915054906101000a900460ff1681565b6102ee6104ab565b5f73ffffffffffffffffffffffffffffffffffffffff168173ffffffffffffffffffffffffffffffffffffffff160361035c576040517f08c379a000000000000000000000000000000000000000000000000000000000815260040161035390610bfc565b60405180910390fd5b61036581610529565b50565b60015f9054906101000a900473ffffffffffffffffffffffffffffffffffffffff1681565b5f8261039985846105ea565b1490509392505050565b5f82826040516020016103b7929190610b74565b60405160208183030381529060405280519060200120905060025f8281526020019081526020015f205f9054906101000a900460ff161561042d576040517f08c379a000000000000000000000000000000000000000000000000000000000815260040161042490610c64565b60405180910390fd5b600160025f8381526020019081526020015f205f6101000a81548160ff0219169083151502179055503373ffffffffffffffffffffffffffffffffffffffff167f89fa02a487d3fdccc0fa43f5e9fd046d94594945c194b5a85a2196116afc9c84848460405161049e929190610ced565b60405180910390a2505050565b6104b3610638565b73ffffffffffffffffffffffffffffffffffffffff166104d16102a2565b73ffffffffffffffffffffffffffffffffffffffff1614610527576040517f08c379a000000000000000000000000000000000000000000000000000000000815260040161051e90610d59565b60405180910390fd5b565b5f805f9054906101000a900473ffffffffffffffffffffffffffffffffffffffff169050815f806101000a81548173ffffffffffffffffffffffffffffffffffffffff021916908373ffffffffffffffffffffffffffffffffffffffff1602179055508173ffffffffffffffffffffffffffffffffffffffff168173ffffffffffffffffffffffffffffffffffffffff167f8be0079c531659141344cd1fd0a4f28419497f9722a3daafe3b4186f6b6457e060405160405180910390a35050565b5f808290505f5b845181101561062d5761061e8286838151811061061157610610610d77565b5b602002602001015161063f565b915080806001019150506105f1565b508091505092915050565b5f33905090565b5f81831061067557818360405160200161065a929190610dc4565b6040516020818303038152906040528051906020012061069f565b8282604051602001610688929190610dc4565b604051602081830303815290604052805190602001205b905092915050565b5f80fd5b5f80fd5b5f819050919050565b6106c1816106af565b81146106cb575f80fd5b50565b5f813590506106dc816106b8565b92915050565b5f80fd5b5f80fd5b5f80fd5b5f8083601f840112610703576107026106e2565b5b8235905067ffffffffffffffff8111156107205761071f6106e6565b5b60208301915083602082028301111561073c5761073b6106ea565b5b9250929050565b5f819050919050565b61075581610743565b811461075f575f80fd5b50565b5f813590506107708161074c565b92915050565b5f805f805f8060a087890312156107905761078f6106a7565b5b5f61079d89828a016106ce565b96505060206107ae89828a016106ce565b955050604087013567ffffffffffffffff8111156107cf576107ce6106ab565b5b6107db89828a016106ee565b945094505060606107ee89828a01610762565b92505060806107ff89828a01610762565b9150509295509295509295565b5f8060208385031215610822576108216106a7565b5b5f83013567ffffffffffffffff81111561083f5761083e6106ab565b5b61084b858286016106ee565b92509250509250929050565b5f8115159050919050565b61086b81610857565b82525050565b5f6020820190506108845f830184610862565b92915050565b5f73ffffffffffffffffffffffffffffffffffffffff82169050919050565b5f6108b38261088a565b9050919050565b6108c3816108a9565b82525050565b5f6020820190506108dc5f8301846108ba565b92915050565b5f602082840312156108f7576108f66106a7565b5b5f61090484828501610762565b91505092915050565b610916816108a9565b8114610920575f80fd5b50565b5f813590506109318161090d565b92915050565b5f6020828403121561094c5761094b6106a7565b5b5f61095984828501610923565b91505092915050565b5f819050919050565b5f61098561098061097b8461088a565b610962565b61088a565b9050919050565b5f6109968261096b565b9050919050565b5f6109a78261098c565b9050919050565b6109b78161099d565b82525050565b5f6020820190506109d05f8301846109ae565b92915050565b5f82825260208201905092915050565b7f43757272656e7420626c6f636b206e756d626572206973206e6f7420677265615f8201527f746572207468616e207468652070726f766964656420626c6f636b206e756d6260208201527f6572000000000000000000000000000000000000000000000000000000000000604082015250565b5f610a666042836109d6565b9150610a71826109e6565b606082019050919050565b5f6020820190508181035f830152610a9381610a5a565b9050919050565b7f496e76616c6964204d65726b6c652070726f6f660000000000000000000000005f82015250565b5f610ace6014836109d6565b9150610ad982610a9a565b602082019050919050565b5f6020820190508181035f830152610afb81610ac2565b9050919050565b5f81905092915050565b5f80fd5b82818337505050565b5f610b248385610b02565b93507f07ffffffffffffffffffffffffffffffffffffffffffffffffffffffffffffff831115610b5757610b56610b0c565b5b602083029250610b68838584610b10565b82840190509392505050565b5f610b80828486610b19565b91508190509392505050565b7f4f776e61626c653a206e6577206f776e657220697320746865207a65726f20615f8201527f6464726573730000000000000000000000000000000000000000000000000000602082015250565b5f610be66026836109d6565b9150610bf182610b8c565b604082019050919050565b5f6020820190508181035f830152610c1381610bda565b9050919050565b7f50726f6f6620616c72656164792073746f7265640000000000000000000000005f82015250565b5f610c4e6014836109d6565b9150610c5982610c1a565b602082019050919050565b5f6020820190508181035f830152610c7b81610c42565b9050919050565b5f82825260208201905092915050565b5f610c9d8385610c82565b93507f07ffffffffffffffffffffffffffffffffffffffffffffffffffffffffffffff831115610cd057610ccf610b0c565b5b602083029250610ce1838584610b10565b82840190509392505050565b5f6020820190508181035f830152610d06818486610c92565b90509392505050565b7f4f776e61626c653a2063616c6c6572206973206e6f7420746865206f776e65725f82015250565b5f610d436020836109d6565b9150610d4e82610d0f565b602082019050919050565b5f6020820190508181035f830152610d7081610d37565b9050919050565b7f4e487b71000000000000000000000000000000000000000000000000000000005f52603260045260245ffd5b5f819050919050565b610dbe610db982610743565b610da4565b82525050565b5f610dcf8285610dad565b602082019150610ddf8284610dad565b602082019150819050939250505056fea26469706673582212204eebcbf9351498e0ed64377f17dea87415136b95defa0e628f32c9ca6417976d64736f6c634300081a0033",
					"opcodes": "PUSH1 0x80 PUSH1 0x40 MSTORE CALLVALUE DUP1 ISZERO PUSH2 0xF JUMPI PUSH0 DUP1 REVERT JUMPDEST POP PUSH1 0x40 MLOAD PUSH2 0x1016 CODESIZE SUB DUP1 PUSH2 0x1016 DUP4 CODECOPY DUP2 DUP2 ADD PUSH1 0x40 MSTORE DUP2 ADD SWAP1 PUSH2 0x31 SWAP2 SWAP1 PUSH2 0x1B9 JUMP JUMPDEST PUSH2 0x4D PUSH2 0x42 PUSH2 0x93 PUSH1 0x20 SHL PUSH1 0x20 SHR JUMP JUMPDEST PUSH2 0x9A PUSH1 0x20 SHL PUSH1 0x20 SHR JUMP JUMPDEST DUP1 PUSH1 0x1 PUSH0 PUSH2 0x100 EXP DUP2 SLOAD DUP2 PUSH20 0xFFFFFFFFFFFFFFFFFFFFFFFFFFFFFFFFFFFFFFFF MUL NOT AND SWAP1 DUP4 PUSH20 0xFFFFFFFFFFFFFFFFFFFFFFFFFFFFFFFFFFFFFFFF AND MUL OR SWAP1 SSTORE POP POP PUSH2 0x1E4 JUMP JUMPDEST PUSH0 CALLER SWAP1 POP SWAP1 JUMP JUMPDEST PUSH0 DUP1 PUSH0 SWAP1 SLOAD SWAP1 PUSH2 0x100 EXP SWAP1 DIV PUSH20 0xFFFFFFFFFFFFFFFFFFFFFFFFFFFFFFFFFFFFFFFF AND SWAP1 POP DUP2 PUSH0 DUP1 PUSH2 0x100 EXP DUP2 SLOAD DUP2 PUSH20 0xFFFFFFFFFFFFFFFFFFFFFFFFFFFFFFFFFFFFFFFF MUL NOT AND SWAP1 DUP4 PUSH20 0xFFFFFFFFFFFFFFFFFFFFFFFFFFFFFFFFFFFFFFFF AND MUL OR SWAP1 SSTORE POP DUP2 PUSH20 0xFFFFFFFFFFFFFFFFFFFFFFFFFFFFFFFFFFFFFFFF AND DUP2 PUSH20 0xFFFFFFFFFFFFFFFFFFFFFFFFFFFFFFFFFFFFFFFF AND PUSH32 0x8BE0079C531659141344CD1FD0A4F28419497F9722A3DAAFE3B4186F6B6457E0 PUSH1 0x40 MLOAD PUSH1 0x40 MLOAD DUP1 SWAP2 SUB SWAP1 LOG3 POP POP JUMP JUMPDEST PUSH0 DUP1 REVERT JUMPDEST PUSH0 PUSH20 0xFFFFFFFFFFFFFFFFFFFFFFFFFFFFFFFFFFFFFFFF DUP3 AND SWAP1 POP SWAP2 SWAP1 POP JUMP JUMPDEST PUSH0 PUSH2 0x188 DUP3 PUSH2 0x15F JUMP JUMPDEST SWAP1 POP SWAP2 SWAP1 POP JUMP JUMPDEST PUSH2 0x198 DUP2 PUSH2 0x17E JUMP JUMPDEST DUP2 EQ PUSH2 0x1A2 JUMPI PUSH0 DUP1 REVERT JUMPDEST POP JUMP JUMPDEST PUSH0 DUP2 MLOAD SWAP1 POP PUSH2 0x1B3 DUP2 PUSH2 0x18F JUMP JUMPDEST SWAP3 SWAP2 POP POP JUMP JUMPDEST PUSH0 PUSH1 0x20 DUP3 DUP5 SUB SLT ISZERO PUSH2 0x1CE JUMPI PUSH2 0x1CD PUSH2 0x15B JUMP JUMPDEST JUMPDEST PUSH0 PUSH2 0x1DB DUP5 DUP3 DUP6 ADD PUSH2 0x1A5 JUMP JUMPDEST SWAP2 POP POP SWAP3 SWAP2 POP POP JUMP JUMPDEST PUSH2 0xE25 DUP1 PUSH2 0x1F1 PUSH0 CODECOPY PUSH0 RETURN INVALID PUSH1 0x80 PUSH1 0x40 MSTORE CALLVALUE DUP1 ISZERO PUSH2 0xF JUMPI PUSH0 DUP1 REVERT JUMPDEST POP PUSH1 0x4 CALLDATASIZE LT PUSH2 0x7B JUMPI PUSH0 CALLDATALOAD PUSH1 0xE0 SHR DUP1 PUSH4 0x8DA5CB5B GT PUSH2 0x59 JUMPI DUP1 PUSH4 0x8DA5CB5B EQ PUSH2 0xD5 JUMPI DUP1 PUSH4 0x97A562A9 EQ PUSH2 0xF3 JUMPI DUP1 PUSH4 0xF2FDE38B EQ PUSH2 0x123 JUMPI DUP1 PUSH4 0xF9BE04CA EQ PUSH2 0x13F JUMPI PUSH2 0x7B JUMP JUMPDEST DUP1 PUSH4 0x130B7686 EQ PUSH2 0x7F JUMPI DUP1 PUSH4 0x2A64E51B EQ PUSH2 0x9B JUMPI DUP1 PUSH4 0x715018A6 EQ PUSH2 0xCB JUMPI JUMPDEST PUSH0 DUP1 REVERT JUMPDEST PUSH2 0x99 PUSH1 0x4 DUP1 CALLDATASIZE SUB DUP2 ADD SWAP1 PUSH2 0x94 SWAP2 SWAP1 PUSH2 0x776 JUMP JUMPDEST PUSH2 0x15D JUMP JUMPDEST STOP JUMPDEST PUSH2 0xB5 PUSH1 0x4 DUP1 CALLDATASIZE SUB DUP2 ADD SWAP1 PUSH2 0xB0 SWAP2 SWAP1 PUSH2 0x80C JUMP JUMPDEST PUSH2 0x23B JUMP JUMPDEST PUSH1 0x40 MLOAD PUSH2 0xC2 SWAP2 SWAP1 PUSH2 0x871 JUMP JUMPDEST PUSH1 0x40 MLOAD DUP1 SWAP2 SUB SWAP1 RETURN JUMPDEST PUSH2 0xD3 PUSH2 0x28F JUMP JUMPDEST STOP JUMPDEST PUSH2 0xDD PUSH2 0x2A2 JUMP JUMPDEST PUSH1 0x40 MLOAD PUSH2 0xEA SWAP2 SWAP1 PUSH2 0x8C9 JUMP JUMPDEST PUSH1 0x40 MLOAD DUP1 SWAP2 SUB SWAP1 RETURN JUMPDEST PUSH2 0x10D PUSH1 0x4 DUP1 CALLDATASIZE SUB DUP2 ADD SWAP1 PUSH2 0x108 SWAP2 SWAP1 PUSH2 0x8E2 JUMP JUMPDEST PUSH2 0x2C9 JUMP JUMPDEST PUSH1 0x40 MLOAD PUSH2 0x11A SWAP2 SWAP1 PUSH2 0x871 JUMP JUMPDEST PUSH1 0x40 MLOAD DUP1 SWAP2 SUB SWAP1 RETURN JUMPDEST PUSH2 0x13D PUSH1 0x4 DUP1 CALLDATASIZE SUB DUP2 ADD SWAP1 PUSH2 0x138 SWAP2 SWAP1 PUSH2 0x937 JUMP JUMPDEST PUSH2 0x2E6 JUMP JUMPDEST STOP JUMPDEST PUSH2 0x147 PUSH2 0x368 JUMP JUMPDEST PUSH1 0x40 MLOAD PUSH2 0x154 SWAP2 SWAP1 PUSH2 0x9BD JUMP JUMPDEST PUSH1 0x40 MLOAD DUP1 SWAP2 SUB SWAP1 RETURN JUMPDEST DUP5 NUMBER GT PUSH2 0x19F JUMPI PUSH1 0x40 MLOAD PUSH32 0x8C379A000000000000000000000000000000000000000000000000000000000 DUP2 MSTORE PUSH1 0x4 ADD PUSH2 0x196 SWAP1 PUSH2 0xA7C JUMP JUMPDEST PUSH1 0x40 MLOAD DUP1 SWAP2 SUB SWAP1 REVERT JUMPDEST PUSH2 0x1EA DUP5 DUP5 DUP1 DUP1 PUSH1 0x20 MUL PUSH1 0x20 ADD PUSH1 0x40 MLOAD SWAP1 DUP2 ADD PUSH1 0x40 MSTORE DUP1 SWAP4 SWAP3 SWAP2 SWAP1 DUP2 DUP2 MSTORE PUSH1 0x20 ADD DUP4 DUP4 PUSH1 0x20 MUL DUP1 DUP3 DUP5 CALLDATACOPY PUSH0 DUP2 DUP5 ADD MSTORE PUSH1 0x1F NOT PUSH1 0x1F DUP3 ADD AND SWAP1 POP DUP1 DUP4 ADD SWAP3 POP POP POP POP POP POP POP DUP4 DUP4 PUSH2 0x38D JUMP JUMPDEST PUSH2 0x229 JUMPI PUSH1 0x40 MLOAD PUSH32 0x8C379A000000000000000000000000000000000000000000000000000000000 DUP2 MSTORE PUSH1 0x4 ADD PUSH2 0x220 SWAP1 PUSH2 0xAE4 JUMP JUMPDEST PUSH1 0x40 MLOAD DUP1 SWAP2 SUB SWAP1 REVERT JUMPDEST PUSH2 0x233 DUP5 DUP5 PUSH2 0x3A3 JUMP JUMPDEST POP POP POP POP POP POP JUMP JUMPDEST PUSH0 DUP1 DUP4 DUP4 PUSH1 0x40 MLOAD PUSH1 0x20 ADD PUSH2 0x250 SWAP3 SWAP2 SWAP1 PUSH2 0xB74 JUMP JUMPDEST PUSH1 0x40 MLOAD PUSH1 0x20 DUP2 DUP4 SUB SUB DUP2 MSTORE SWAP1 PUSH1 0x40 MSTORE DUP1 MLOAD SWAP1 PUSH1 0x20 ADD KECCAK256 SWAP1 POP PUSH1 0x2 PUSH0 DUP3 DUP2 MSTORE PUSH1 0x20 ADD SWAP1 DUP2 MSTORE PUSH1 0x20 ADD PUSH0 KECCAK256 PUSH0 SWAP1 SLOAD SWAP1 PUSH2 0x100 EXP SWAP1 DIV PUSH1 0xFF AND SWAP2 POP POP SWAP3 SWAP2 POP POP JUMP JUMPDEST PUSH2 0x297 PUSH2 0x4AB JUMP JUMPDEST PUSH2 0x2A0 PUSH0 PUSH2 0x529 JUMP JUMPDEST JUMP JUMPDEST PUSH0 DUP1 PUSH0 SWAP1 SLOAD SWAP1 PUSH2 0x100 EXP SWAP1 DIV PUSH20 0xFFFFFFFFFFFFFFFFFFFFFFFFFFFFFFFFFFFFFFFF AND SWAP1 POP SWAP1 JUMP JUMPDEST PUSH1 0x2 PUSH1 0x20 MSTORE DUP1 PUSH0 MSTORE PUSH1 0x40 PUSH0 KECCAK256 PUSH0 SWAP2 POP SLOAD SWAP1 PUSH2 0x100 EXP SWAP1 DIV PUSH1 0xFF AND DUP2 JUMP JUMPDEST PUSH2 0x2EE PUSH2 0x4AB JUMP JUMPDEST PUSH0 PUSH20 0xFFFFFFFFFFFFFFFFFFFFFFFFFFFFFFFFFFFFFFFF AND DUP2 PUSH20 0xFFFFFFFFFFFFFFFFFFFFFFFFFFFFFFFFFFFFFFFF AND SUB PUSH2 0x35C JUMPI PUSH1 0x40 MLOAD PUSH32 0x8C379A000000000000000000000000000000000000000000000000000000000 DUP2 MSTORE PUSH1 0x4 ADD PUSH2 0x353 SWAP1 PUSH2 0xBFC JUMP JUMPDEST PUSH1 0x40 MLOAD DUP1 SWAP2 SUB SWAP1 REVERT JUMPDEST PUSH2 0x365 DUP2 PUSH2 0x529 JUMP JUMPDEST POP JUMP JUMPDEST PUSH1 0x1 PUSH0 SWAP1 SLOAD SWAP1 PUSH2 0x100 EXP SWAP1 DIV PUSH20 0xFFFFFFFFFFFFFFFFFFFFFFFFFFFFFFFFFFFFFFFF AND DUP2 JUMP JUMPDEST PUSH0 DUP3 PUSH2 0x399 DUP6 DUP5 PUSH2 0x5EA JUMP JUMPDEST EQ SWAP1 POP SWAP4 SWAP3 POP POP POP JUMP JUMPDEST PUSH0 DUP3 DUP3 PUSH1 0x40 MLOAD PUSH1 0x20 ADD PUSH2 0x3B7 SWAP3 SWAP2 SWAP1 PUSH2 0xB74 JUMP JUMPDEST PUSH1 0x40 MLOAD PUSH1 0x20 DUP2 DUP4 SUB SUB DUP2 MSTORE SWAP1 PUSH1 0x40 MSTORE DUP1 MLOAD SWAP1 PUSH1 0x20 ADD KECCAK256 SWAP1 POP PUSH1 0x2 PUSH0 DUP3 DUP2 MSTORE PUSH1 0x20 ADD SWAP1 DUP2 MSTORE PUSH1 0x20 ADD PUSH0 KECCAK256 PUSH0 SWAP1 SLOAD SWAP1 PUSH2 0x100 EXP SWAP1 DIV PUSH1 0xFF AND ISZERO PUSH2 0x42D JUMPI PUSH1 0x40 MLOAD PUSH32 0x8C379A000000000000000000000000000000000000000000000000000000000 DUP2 MSTORE PUSH1 0x4 ADD PUSH2 0x424 SWAP1 PUSH2 0xC64 JUMP JUMPDEST PUSH1 0x40 MLOAD DUP1 SWAP2 SUB SWAP1 REVERT JUMPDEST PUSH1 0x1 PUSH1 0x2 PUSH0 DUP4 DUP2 MSTORE PUSH1 0x20 ADD SWAP1 DUP2 MSTORE PUSH1 0x20 ADD PUSH0 KECCAK256 PUSH0 PUSH2 0x100 EXP DUP2 SLOAD DUP2 PUSH1 0xFF MUL NOT AND SWAP1 DUP4 ISZERO ISZERO MUL OR SWAP1 SSTORE POP CALLER PUSH20 0xFFFFFFFFFFFFFFFFFFFFFFFFFFFFFFFFFFFFFFFF AND PUSH32 0x89FA02A487D3FDCCC0FA43F5E9FD046D94594945C194B5A85A2196116AFC9C84 DUP5 DUP5 PUSH1 0x40 MLOAD PUSH2 0x49E SWAP3 SWAP2 SWAP1 PUSH2 0xCED JUMP JUMPDEST PUSH1 0x40 MLOAD DUP1 SWAP2 SUB SWAP1 LOG2 POP POP POP JUMP JUMPDEST PUSH2 0x4B3 PUSH2 0x638 JUMP JUMPDEST PUSH20 0xFFFFFFFFFFFFFFFFFFFFFFFFFFFFFFFFFFFFFFFF AND PUSH2 0x4D1 PUSH2 0x2A2 JUMP JUMPDEST PUSH20 0xFFFFFFFFFFFFFFFFFFFFFFFFFFFFFFFFFFFFFFFF AND EQ PUSH2 0x527 JUMPI PUSH1 0x40 MLOAD PUSH32 0x8C379A000000000000000000000000000000000000000000000000000000000 DUP2 MSTORE PUSH1 0x4 ADD PUSH2 0x51E SWAP1 PUSH2 0xD59 JUMP JUMPDEST PUSH1 0x40 MLOAD DUP1 SWAP2 SUB SWAP1 REVERT JUMPDEST JUMP JUMPDEST PUSH0 DUP1 PUSH0 SWAP1 SLOAD SWAP1 PUSH2 0x100 EXP SWAP1 DIV PUSH20 0xFFFFFFFFFFFFFFFFFFFFFFFFFFFFFFFFFFFFFFFF AND SWAP1 POP DUP2 PUSH0 DUP1 PUSH2 0x100 EXP DUP2 SLOAD DUP2 PUSH20 0xFFFFFFFFFFFFFFFFFFFFFFFFFFFFFFFFFFFFFFFF MUL NOT AND SWAP1 DUP4 PUSH20 0xFFFFFFFFFFFFFFFFFFFFFFFFFFFFFFFFFFFFFFFF AND MUL OR SWAP1 SSTORE POP DUP2 PUSH20 0xFFFFFFFFFFFFFFFFFFFFFFFFFFFFFFFFFFFFFFFF AND DUP2 PUSH20 0xFFFFFFFFFFFFFFFFFFFFFFFFFFFFFFFFFFFFFFFF AND PUSH32 0x8BE0079C531659141344CD1FD0A4F28419497F9722A3DAAFE3B4186F6B6457E0 PUSH1 0x40 MLOAD PUSH1 0x40 MLOAD DUP1 SWAP2 SUB SWAP1 LOG3 POP POP JUMP JUMPDEST PUSH0 DUP1 DUP3 SWAP1 POP PUSH0 JUMPDEST DUP5 MLOAD DUP2 LT ISZERO PUSH2 0x62D JUMPI PUSH2 0x61E DUP3 DUP7 DUP4 DUP2 MLOAD DUP2 LT PUSH2 0x611 JUMPI PUSH2 0x610 PUSH2 0xD77 JUMP JUMPDEST JUMPDEST PUSH1 0x20 MUL PUSH1 0x20 ADD ADD MLOAD PUSH2 0x63F JUMP JUMPDEST SWAP2 POP DUP1 DUP1 PUSH1 0x1 ADD SWAP2 POP POP PUSH2 0x5F1 JUMP JUMPDEST POP DUP1 SWAP2 POP POP SWAP3 SWAP2 POP POP JUMP JUMPDEST PUSH0 CALLER SWAP1 POP SWAP1 JUMP JUMPDEST PUSH0 DUP2 DUP4 LT PUSH2 0x675 JUMPI DUP2 DUP4 PUSH1 0x40 MLOAD PUSH1 0x20 ADD PUSH2 0x65A SWAP3 SWAP2 SWAP1 PUSH2 0xDC4 JUMP JUMPDEST PUSH1 0x40 MLOAD PUSH1 0x20 DUP2 DUP4 SUB SUB DUP2 MSTORE SWAP1 PUSH1 0x40 MSTORE DUP1 MLOAD SWAP1 PUSH1 0x20 ADD KECCAK256 PUSH2 0x69F JUMP JUMPDEST DUP3 DUP3 PUSH1 0x40 MLOAD PUSH1 0x20 ADD PUSH2 0x688 SWAP3 SWAP2 SWAP1 PUSH2 0xDC4 JUMP JUMPDEST PUSH1 0x40 MLOAD PUSH1 0x20 DUP2 DUP4 SUB SUB DUP2 MSTORE SWAP1 PUSH1 0x40 MSTORE DUP1 MLOAD SWAP1 PUSH1 0x20 ADD KECCAK256 JUMPDEST SWAP1 POP SWAP3 SWAP2 POP POP JUMP JUMPDEST PUSH0 DUP1 REVERT JUMPDEST PUSH0 DUP1 REVERT JUMPDEST PUSH0 DUP2 SWAP1 POP SWAP2 SWAP1 POP JUMP JUMPDEST PUSH2 0x6C1 DUP2 PUSH2 0x6AF JUMP JUMPDEST DUP2 EQ PUSH2 0x6CB JUMPI PUSH0 DUP1 REVERT JUMPDEST POP JUMP JUMPDEST PUSH0 DUP2 CALLDATALOAD SWAP1 POP PUSH2 0x6DC DUP2 PUSH2 0x6B8 JUMP JUMPDEST SWAP3 SWAP2 POP POP JUMP JUMPDEST PUSH0 DUP1 REVERT JUMPDEST PUSH0 DUP1 REVERT JUMPDEST PUSH0 DUP1 REVERT JUMPDEST PUSH0 DUP1 DUP4 PUSH1 0x1F DUP5 ADD SLT PUSH2 0x703 JUMPI PUSH2 0x702 PUSH2 0x6E2 JUMP JUMPDEST JUMPDEST DUP3 CALLDATALOAD SWAP1 POP PUSH8 0xFFFFFFFFFFFFFFFF DUP2 GT ISZERO PUSH2 0x720 JUMPI PUSH2 0x71F PUSH2 0x6E6 JUMP JUMPDEST JUMPDEST PUSH1 0x20 DUP4 ADD SWAP2 POP DUP4 PUSH1 0x20 DUP3 MUL DUP4 ADD GT ISZERO PUSH2 0x73C JUMPI PUSH2 0x73B PUSH2 0x6EA JUMP JUMPDEST JUMPDEST SWAP3 POP SWAP3 SWAP1 POP JUMP JUMPDEST PUSH0 DUP2 SWAP1 POP SWAP2 SWAP1 POP JUMP JUMPDEST PUSH2 0x755 DUP2 PUSH2 0x743 JUMP JUMPDEST DUP2 EQ PUSH2 0x75F JUMPI PUSH0 DUP1 REVERT JUMPDEST POP JUMP JUMPDEST PUSH0 DUP2 CALLDATALOAD SWAP1 POP PUSH2 0x770 DUP2 PUSH2 0x74C JUMP JUMPDEST SWAP3 SWAP2 POP POP JUMP JUMPDEST PUSH0 DUP1 PUSH0 DUP1 PUSH0 DUP1 PUSH1 0xA0 DUP8 DUP10 SUB SLT ISZERO PUSH2 0x790 JUMPI PUSH2 0x78F PUSH2 0x6A7 JUMP JUMPDEST JUMPDEST PUSH0 PUSH2 0x79D DUP10 DUP3 DUP11 ADD PUSH2 0x6CE JUMP JUMPDEST SWAP7 POP POP PUSH1 0x20 PUSH2 0x7AE DUP10 DUP3 DUP11 ADD PUSH2 0x6CE JUMP JUMPDEST SWAP6 POP POP PUSH1 0x40 DUP8 ADD CALLDATALOAD PUSH8 0xFFFFFFFFFFFFFFFF DUP2 GT ISZERO PUSH2 0x7CF JUMPI PUSH2 0x7CE PUSH2 0x6AB JUMP JUMPDEST JUMPDEST PUSH2 0x7DB DUP10 DUP3 DUP11 ADD PUSH2 0x6EE JUMP JUMPDEST SWAP5 POP SWAP5 POP POP PUSH1 0x60 PUSH2 0x7EE DUP10 DUP3 DUP11 ADD PUSH2 0x762 JUMP JUMPDEST SWAP3 POP POP PUSH1 0x80 PUSH2 0x7FF DUP10 DUP3 DUP11 ADD PUSH2 0x762 JUMP JUMPDEST SWAP2 POP POP SWAP3 SWAP6 POP SWAP3 SWAP6 POP SWAP3 SWAP6 JUMP JUMPDEST PUSH0 DUP1 PUSH1 0x20 DUP4 DUP6 SUB SLT ISZERO PUSH2 0x822 JUMPI PUSH2 0x821 PUSH2 0x6A7 JUMP JUMPDEST JUMPDEST PUSH0 DUP4 ADD CALLDATALOAD PUSH8 0xFFFFFFFFFFFFFFFF DUP2 GT ISZERO PUSH2 0x83F JUMPI PUSH2 0x83E PUSH2 0x6AB JUMP JUMPDEST JUMPDEST PUSH2 0x84B DUP6 DUP3 DUP7 ADD PUSH2 0x6EE JUMP JUMPDEST SWAP3 POP SWAP3 POP POP SWAP3 POP SWAP3 SWAP1 POP JUMP JUMPDEST PUSH0 DUP2 ISZERO ISZERO SWAP1 POP SWAP2 SWAP1 POP JUMP JUMPDEST PUSH2 0x86B DUP2 PUSH2 0x857 JUMP JUMPDEST DUP3 MSTORE POP POP JUMP JUMPDEST PUSH0 PUSH1 0x20 DUP3 ADD SWAP1 POP PUSH2 0x884 PUSH0 DUP4 ADD DUP5 PUSH2 0x862 JUMP JUMPDEST SWAP3 SWAP2 POP POP JUMP JUMPDEST PUSH0 PUSH20 0xFFFFFFFFFFFFFFFFFFFFFFFFFFFFFFFFFFFFFFFF DUP3 AND SWAP1 POP SWAP2 SWAP1 POP JUMP JUMPDEST PUSH0 PUSH2 0x8B3 DUP3 PUSH2 0x88A JUMP JUMPDEST SWAP1 POP SWAP2 SWAP1 POP JUMP JUMPDEST PUSH2 0x8C3 DUP2 PUSH2 0x8A9 JUMP JUMPDEST DUP3 MSTORE POP POP JUMP JUMPDEST PUSH0 PUSH1 0x20 DUP3 ADD SWAP1 POP PUSH2 0x8DC PUSH0 DUP4 ADD DUP5 PUSH2 0x8BA JUMP JUMPDEST SWAP3 SWAP2 POP POP JUMP JUMPDEST PUSH0 PUSH1 0x20 DUP3 DUP5 SUB SLT ISZERO PUSH2 0x8F7 JUMPI PUSH2 0x8F6 PUSH2 0x6A7 JUMP JUMPDEST JUMPDEST PUSH0 PUSH2 0x904 DUP5 DUP3 DUP6 ADD PUSH2 0x762 JUMP JUMPDEST SWAP2 POP POP SWAP3 SWAP2 POP POP JUMP JUMPDEST PUSH2 0x916 DUP2 PUSH2 0x8A9 JUMP JUMPDEST DUP2 EQ PUSH2 0x920 JUMPI PUSH0 DUP1 REVERT JUMPDEST POP JUMP JUMPDEST PUSH0 DUP2 CALLDATALOAD SWAP1 POP PUSH2 0x931 DUP2 PUSH2 0x90D JUMP JUMPDEST SWAP3 SWAP2 POP POP JUMP JUMPDEST PUSH0 PUSH1 0x20 DUP3 DUP5 SUB SLT ISZERO PUSH2 0x94C JUMPI PUSH2 0x94B PUSH2 0x6A7 JUMP JUMPDEST JUMPDEST PUSH0 PUSH2 0x959 DUP5 DUP3 DUP6 ADD PUSH2 0x923 JUMP JUMPDEST SWAP2 POP POP SWAP3 SWAP2 POP POP JUMP JUMPDEST PUSH0 DUP2 SWAP1 POP SWAP2 SWAP1 POP JUMP JUMPDEST PUSH0 PUSH2 0x985 PUSH2 0x980 PUSH2 0x97B DUP5 PUSH2 0x88A JUMP JUMPDEST PUSH2 0x962 JUMP JUMPDEST PUSH2 0x88A JUMP JUMPDEST SWAP1 POP SWAP2 SWAP1 POP JUMP JUMPDEST PUSH0 PUSH2 0x996 DUP3 PUSH2 0x96B JUMP JUMPDEST SWAP1 POP SWAP2 SWAP1 POP JUMP JUMPDEST PUSH0 PUSH2 0x9A7 DUP3 PUSH2 0x98C JUMP JUMPDEST SWAP1 POP SWAP2 SWAP1 POP JUMP JUMPDEST PUSH2 0x9B7 DUP2 PUSH2 0x99D JUMP JUMPDEST DUP3 MSTORE POP POP JUMP JUMPDEST PUSH0 PUSH1 0x20 DUP3 ADD SWAP1 POP PUSH2 0x9D0 PUSH0 DUP4 ADD DUP5 PUSH2 0x9AE JUMP JUMPDEST SWAP3 SWAP2 POP POP JUMP JUMPDEST PUSH0 DUP3 DUP3 MSTORE PUSH1 0x20 DUP3 ADD SWAP1 POP SWAP3 SWAP2 POP POP JUMP JUMPDEST PUSH32 0x43757272656E7420626C6F636B206E756D626572206973206E6F742067726561 PUSH0 DUP3 ADD MSTORE PUSH32 0x746572207468616E207468652070726F766964656420626C6F636B206E756D62 PUSH1 0x20 DUP3 ADD MSTORE PUSH32 0x6572000000000000000000000000000000000000000000000000000000000000 PUSH1 0x40 DUP3 ADD MSTORE POP JUMP JUMPDEST PUSH0 PUSH2 0xA66 PUSH1 0x42 DUP4 PUSH2 0x9D6 JUMP JUMPDEST SWAP2 POP PUSH2 0xA71 DUP3 PUSH2 0x9E6 JUMP JUMPDEST PUSH1 0x60 DUP3 ADD SWAP1 POP SWAP2 SWAP1 POP JUMP JUMPDEST PUSH0 PUSH1 0x20 DUP3 ADD SWAP1 POP DUP2 DUP2 SUB PUSH0 DUP4 ADD MSTORE PUSH2 0xA93 DUP2 PUSH2 0xA5A JUMP JUMPDEST SWAP1 POP SWAP2 SWAP1 POP JUMP JUMPDEST PUSH32 0x496E76616C6964204D65726B6C652070726F6F66000000000000000000000000 PUSH0 DUP3 ADD MSTORE POP JUMP JUMPDEST PUSH0 PUSH2 0xACE PUSH1 0x14 DUP4 PUSH2 0x9D6 JUMP JUMPDEST SWAP2 POP PUSH2 0xAD9 DUP3 PUSH2 0xA9A JUMP JUMPDEST PUSH1 0x20 DUP3 ADD SWAP1 POP SWAP2 SWAP1 POP JUMP JUMPDEST PUSH0 PUSH1 0x20 DUP3 ADD SWAP1 POP DUP2 DUP2 SUB PUSH0 DUP4 ADD MSTORE PUSH2 0xAFB DUP2 PUSH2 0xAC2 JUMP JUMPDEST SWAP1 POP SWAP2 SWAP1 POP JUMP JUMPDEST PUSH0 DUP2 SWAP1 POP SWAP3 SWAP2 POP POP JUMP JUMPDEST PUSH0 DUP1 REVERT JUMPDEST DUP3 DUP2 DUP4 CALLDATACOPY POP POP POP JUMP JUMPDEST PUSH0 PUSH2 0xB24 DUP4 DUP6 PUSH2 0xB02 JUMP JUMPDEST SWAP4 POP PUSH32 0x7FFFFFFFFFFFFFFFFFFFFFFFFFFFFFFFFFFFFFFFFFFFFFFFFFFFFFFFFFFFFFF DUP4 GT ISZERO PUSH2 0xB57 JUMPI PUSH2 0xB56 PUSH2 0xB0C JUMP JUMPDEST JUMPDEST PUSH1 0x20 DUP4 MUL SWAP3 POP PUSH2 0xB68 DUP4 DUP6 DUP5 PUSH2 0xB10 JUMP JUMPDEST DUP3 DUP5 ADD SWAP1 POP SWAP4 SWAP3 POP POP POP JUMP JUMPDEST PUSH0 PUSH2 0xB80 DUP3 DUP5 DUP7 PUSH2 0xB19 JUMP JUMPDEST SWAP2 POP DUP2 SWAP1 POP SWAP4 SWAP3 POP POP POP JUMP JUMPDEST PUSH32 0x4F776E61626C653A206E6577206F776E657220697320746865207A65726F2061 PUSH0 DUP3 ADD MSTORE PUSH32 0x6464726573730000000000000000000000000000000000000000000000000000 PUSH1 0x20 DUP3 ADD MSTORE POP JUMP JUMPDEST PUSH0 PUSH2 0xBE6 PUSH1 0x26 DUP4 PUSH2 0x9D6 JUMP JUMPDEST SWAP2 POP PUSH2 0xBF1 DUP3 PUSH2 0xB8C JUMP JUMPDEST PUSH1 0x40 DUP3 ADD SWAP1 POP SWAP2 SWAP1 POP JUMP JUMPDEST PUSH0 PUSH1 0x20 DUP3 ADD SWAP1 POP DUP2 DUP2 SUB PUSH0 DUP4 ADD MSTORE PUSH2 0xC13 DUP2 PUSH2 0xBDA JUMP JUMPDEST SWAP1 POP SWAP2 SWAP1 POP JUMP JUMPDEST PUSH32 0x50726F6F6620616C72656164792073746F726564000000000000000000000000 PUSH0 DUP3 ADD MSTORE POP JUMP JUMPDEST PUSH0 PUSH2 0xC4E PUSH1 0x14 DUP4 PUSH2 0x9D6 JUMP JUMPDEST SWAP2 POP PUSH2 0xC59 DUP3 PUSH2 0xC1A JUMP JUMPDEST PUSH1 0x20 DUP3 ADD SWAP1 POP SWAP2 SWAP1 POP JUMP JUMPDEST PUSH0 PUSH1 0x20 DUP3 ADD SWAP1 POP DUP2 DUP2 SUB PUSH0 DUP4 ADD MSTORE PUSH2 0xC7B DUP2 PUSH2 0xC42 JUMP JUMPDEST SWAP1 POP SWAP2 SWAP1 POP JUMP JUMPDEST PUSH0 DUP3 DUP3 MSTORE PUSH1 0x20 DUP3 ADD SWAP1 POP SWAP3 SWAP2 POP POP JUMP JUMPDEST PUSH0 PUSH2 0xC9D DUP4 DUP6 PUSH2 0xC82 JUMP JUMPDEST SWAP4 POP PUSH32 0x7FFFFFFFFFFFFFFFFFFFFFFFFFFFFFFFFFFFFFFFFFFFFFFFFFFFFFFFFFFFFFF DUP4 GT ISZERO PUSH2 0xCD0 JUMPI PUSH2 0xCCF PUSH2 0xB0C JUMP JUMPDEST JUMPDEST PUSH1 0x20 DUP4 MUL SWAP3 POP PUSH2 0xCE1 DUP4 DUP6 DUP5 PUSH2 0xB10 JUMP JUMPDEST DUP3 DUP5 ADD SWAP1 POP SWAP4 SWAP3 POP POP POP JUMP JUMPDEST PUSH0 PUSH1 0x20 DUP3 ADD SWAP1 POP DUP2 DUP2 SUB PUSH0 DUP4 ADD MSTORE PUSH2 0xD06 DUP2 DUP5 DUP7 PUSH2 0xC92 JUMP JUMPDEST SWAP1 POP SWAP4 SWAP3 POP POP POP JUMP JUMPDEST PUSH32 0x4F776E61626C653A2063616C6C6572206973206E6F7420746865206F776E6572 PUSH0 DUP3 ADD MSTORE POP JUMP JUMPDEST PUSH0 PUSH2 0xD43 PUSH1 0x20 DUP4 PUSH2 0x9D6 JUMP JUMPDEST SWAP2 POP PUSH2 0xD4E DUP3 PUSH2 0xD0F JUMP JUMPDEST PUSH1 0x20 DUP3 ADD SWAP1 POP SWAP2 SWAP1 POP JUMP JUMPDEST PUSH0 PUSH1 0x20 DUP3 ADD SWAP1 POP DUP2 DUP2 SUB PUSH0 DUP4 ADD MSTORE PUSH2 0xD70 DUP2 PUSH2 0xD37 JUMP JUMPDEST SWAP1 POP SWAP2 SWAP1 POP JUMP JUMPDEST PUSH32 0x4E487B7100000000000000000000000000000000000000000000000000000000 PUSH0 MSTORE PUSH1 0x32 PUSH1 0x4 MSTORE PUSH1 0x24 PUSH0 REVERT JUMPDEST PUSH0 DUP2 SWAP1 POP SWAP2 SWAP1 POP JUMP JUMPDEST PUSH2 0xDBE PUSH2 0xDB9 DUP3 PUSH2 0x743 JUMP JUMPDEST PUSH2 0xDA4 JUMP JUMPDEST DUP3 MSTORE POP POP JUMP JUMPDEST PUSH0 PUSH2 0xDCF DUP3 DUP6 PUSH2 0xDAD JUMP JUMPDEST PUSH1 0x20 DUP3 ADD SWAP2 POP PUSH2 0xDDF DUP3 DUP5 PUSH2 0xDAD JUMP JUMPDEST PUSH1 0x20 DUP3 ADD SWAP2 POP DUP2 SWAP1 POP SWAP4 SWAP3 POP POP POP JUMP INVALID LOG2 PUSH5 0x6970667358 0x22 SLT KECCAK256 0x4E 0xEB 0xCB 0xF9 CALLDATALOAD EQ SWAP9 0xE0 0xED PUSH5 0x377F17DEA8 PUSH21 0x15136B95DEFA0E628F32C9CA6417976D64736F6C63 NUMBER STOP ADDMOD BYTE STOP CALLER "
				},
				"gasEstimates": {
					"creation": {
						"codeDepositCost": "724200",
						"executionCost": "infinite",
						"totalCost": "infinite"
					},
					"external": {
						"gameItemContract()": "infinite",
						"getStoredStatus(bytes32[])": "infinite",
						"owner()": "2515",
						"renounceOwnership()": "30435",
						"storedProofs(bytes32)": "2807",
						"transferOwnership(address)": "30775",
						"verifyAndStore(uint256,uint256,bytes32[],bytes32,bytes32)": "infinite"
					},
					"internal": {
						"storeProof(bytes32[] calldata)": "infinite"
					}
				},
				"methodIdentifiers": {
					"gameItemContract()": "f9be04ca",
					"getStoredStatus(bytes32[])": "2a64e51b",
					"owner()": "8da5cb5b",
					"renounceOwnership()": "715018a6",
					"storedProofs(bytes32)": "97a562a9",
					"transferOwnership(address)": "f2fde38b",
					"verifyAndStore(uint256,uint256,bytes32[],bytes32,bytes32)": "130b7686"
				}
			},
			"storageLayout": {
				"storage": [
					{
						"astId": 7,
						"contract": "trustless cross-chain/trading pair formation/SDupdatevalidation.sol:SCv",
						"label": "_owner",
						"offset": 0,
						"slot": "0",
						"type": "t_address"
					},
					{
						"astId": 360,
						"contract": "trustless cross-chain/trading pair formation/SDupdatevalidation.sol:SCv",
						"label": "gameItemContract",
						"offset": 0,
						"slot": "1",
						"type": "t_contract(IERC721)228"
					},
					{
						"astId": 364,
						"contract": "trustless cross-chain/trading pair formation/SDupdatevalidation.sol:SCv",
						"label": "storedProofs",
						"offset": 0,
						"slot": "2",
						"type": "t_mapping(t_bytes32,t_bool)"
					}
				],
				"types": {
					"t_address": {
						"encoding": "inplace",
						"label": "address",
						"numberOfBytes": "20"
					},
					"t_bool": {
						"encoding": "inplace",
						"label": "bool",
						"numberOfBytes": "1"
					},
					"t_bytes32": {
						"encoding": "inplace",
						"label": "bytes32",
						"numberOfBytes": "32"
					},
					"t_contract(IERC721)228": {
						"encoding": "inplace",
						"label": "contract IERC721",
						"numberOfBytes": "20"
					},
					"t_mapping(t_bytes32,t_bool)": {
						"encoding": "mapping",
						"key": "t_bytes32",
						"label": "mapping(bytes32 => bool)",
						"numberOfBytes": "32",
						"value": "t_bool"
					}
				}
			},
			"userdoc": {
				"kind": "user",
				"methods": {},
				"version": 1
			}
		}
	}
}