{
	"trustless cross-chain/trading pair formation/LBtMSettlement.sol": {
		"LockAndBurnToMint": {
			"abi": [
				{
					"inputs": [
						{
							"internalType": "address",
							"name": "_nfd",
							"type": "address"
						},
						{
							"internalType": "address",
							"name": "_coin",
							"type": "address"
						},
						{
							"internalType": "address",
							"name": "_settlement",
							"type": "address"
						}
					],
					"stateMutability": "nonpayable",
					"type": "constructor"
				},
				{
					"inputs": [],
					"name": "coin",
					"outputs": [
						{
							"internalType": "contract IERC20",
							"name": "",
							"type": "address"
						}
					],
					"stateMutability": "view",
					"type": "function"
				},
				{
					"inputs": [
						{
							"internalType": "uint256",
							"name": "nfdId",
							"type": "uint256"
						},
						{
							"internalType": "uint256",
							"name": "nfdPrice",
							"type": "uint256"
						},
						{
							"internalType": "address",
							"name": "userAddress",
							"type": "address"
						},
						{
							"internalType": "address",
							"name": "memberAddress",
							"type": "address"
						},
						{
							"internalType": "uint256",
							"name": "_timePointT",
							"type": "uint256"
						}
					],
					"name": "lockAndBurn",
					"outputs": [],
					"stateMutability": "nonpayable",
					"type": "function"
				},
				{
					"inputs": [],
					"name": "nfd",
					"outputs": [
						{
							"internalType": "contract ICustomERC721",
							"name": "",
							"type": "address"
						}
					],
					"stateMutability": "view",
					"type": "function"
				},
				{
					"inputs": [],
					"name": "settlement",
					"outputs": [
						{
							"internalType": "contract Settlement",
							"name": "",
							"type": "address"
						}
					],
					"stateMutability": "view",
					"type": "function"
				}
			],
			"devdoc": {
				"kind": "dev",
				"methods": {},
				"version": 1
			},
			"evm": {
				"assembly": "    /* \"trustless cross-chain/trading pair formation/LBtMSettlement.sol\":291:1077  contract LockAndBurnToMint {... */\n  mstore(0x40, 0x80)\n    /* \"trustless cross-chain/trading pair formation/LBtMSettlement.sol\":413:593  constructor(address _nfd, address _coin, address _settlement) {... */\n  callvalue\n  dup1\n  iszero\n  tag_1\n  jumpi\n  0x00\n  dup1\n  revert\ntag_1:\n  pop\n  mload(0x40)\n  sub(codesize, bytecodeSize)\n  dup1\n  bytecodeSize\n  dup4\n  codecopy\n  dup2\n  dup2\n  add\n  0x40\n  mstore\n  dup2\n  add\n  swap1\n  tag_2\n  swap2\n  swap1\n  tag_3\n  jump\t// in\ntag_2:\n    /* \"trustless cross-chain/trading pair formation/LBtMSettlement.sol\":505:509  _nfd */\n  dup3\n    /* \"trustless cross-chain/trading pair formation/LBtMSettlement.sol\":485:488  nfd */\n  0x00\n  dup1\n    /* \"trustless cross-chain/trading pair formation/LBtMSettlement.sol\":485:510  nfd = ICustomERC721(_nfd) */\n  0x0100\n  exp\n  dup2\n  sload\n  dup2\n  0xffffffffffffffffffffffffffffffffffffffff\n  mul\n  not\n  and\n  swap1\n  dup4\n  0xffffffffffffffffffffffffffffffffffffffff\n  and\n  mul\n  or\n  swap1\n  sstore\n  pop\n    /* \"trustless cross-chain/trading pair formation/LBtMSettlement.sol\":534:539  _coin */\n  dup2\n    /* \"trustless cross-chain/trading pair formation/LBtMSettlement.sol\":520:524  coin */\n  0x01\n  0x00\n    /* \"trustless cross-chain/trading pair formation/LBtMSettlement.sol\":520:540  coin = IERC20(_coin) */\n  0x0100\n  exp\n  dup2\n  sload\n  dup2\n  0xffffffffffffffffffffffffffffffffffffffff\n  mul\n  not\n  and\n  swap1\n  dup4\n  0xffffffffffffffffffffffffffffffffffffffff\n  and\n  mul\n  or\n  swap1\n  sstore\n  pop\n    /* \"trustless cross-chain/trading pair formation/LBtMSettlement.sol\":574:585  _settlement */\n  dup1\n    /* \"trustless cross-chain/trading pair formation/LBtMSettlement.sol\":550:560  settlement */\n  0x02\n  0x00\n    /* \"trustless cross-chain/trading pair formation/LBtMSettlement.sol\":550:586  settlement = Settlement(_settlement) */\n  0x0100\n  exp\n  dup2\n  sload\n  dup2\n  0xffffffffffffffffffffffffffffffffffffffff\n  mul\n  not\n  and\n  swap1\n  dup4\n  0xffffffffffffffffffffffffffffffffffffffff\n  and\n  mul\n  or\n  swap1\n  sstore\n  pop\n    /* \"trustless cross-chain/trading pair formation/LBtMSettlement.sol\":413:593  constructor(address _nfd, address _coin, address _settlement) {... */\n  pop\n  pop\n  pop\n    /* \"trustless cross-chain/trading pair formation/LBtMSettlement.sol\":291:1077  contract LockAndBurnToMint {... */\n  jump(tag_6)\n    /* \"#utility.yul\":88:205   */\ntag_8:\n    /* \"#utility.yul\":197:198   */\n  0x00\n    /* \"#utility.yul\":194:195   */\n  dup1\n    /* \"#utility.yul\":187:199   */\n  revert\n    /* \"#utility.yul\":334:460   */\ntag_10:\n    /* \"#utility.yul\":371:378   */\n  0x00\n    /* \"#utility.yul\":411:453   */\n  0xffffffffffffffffffffffffffffffffffffffff\n    /* \"#utility.yul\":404:409   */\n  dup3\n    /* \"#utility.yul\":400:454   */\n  and\n    /* \"#utility.yul\":389:454   */\n  swap1\n  pop\n    /* \"#utility.yul\":334:460   */\n  swap2\n  swap1\n  pop\n  jump\t// out\n    /* \"#utility.yul\":466:562   */\ntag_11:\n    /* \"#utility.yul\":503:510   */\n  0x00\n    /* \"#utility.yul\":532:556   */\n  tag_20\n    /* \"#utility.yul\":550:555   */\n  dup3\n    /* \"#utility.yul\":532:556   */\n  tag_10\n  jump\t// in\ntag_20:\n    /* \"#utility.yul\":521:556   */\n  swap1\n  pop\n    /* \"#utility.yul\":466:562   */\n  swap2\n  swap1\n  pop\n  jump\t// out\n    /* \"#utility.yul\":568:690   */\ntag_12:\n    /* \"#utility.yul\":641:665   */\n  tag_22\n    /* \"#utility.yul\":659:664   */\n  dup2\n    /* \"#utility.yul\":641:665   */\n  tag_11\n  jump\t// in\ntag_22:\n    /* \"#utility.yul\":634:639   */\n  dup2\n    /* \"#utility.yul\":631:666   */\n  eq\n    /* \"#utility.yul\":621:684   */\n  tag_23\n  jumpi\n    /* \"#utility.yul\":680:681   */\n  0x00\n    /* \"#utility.yul\":677:678   */\n  dup1\n    /* \"#utility.yul\":670:682   */\n  revert\n    /* \"#utility.yul\":621:684   */\ntag_23:\n    /* \"#utility.yul\":568:690   */\n  pop\n  jump\t// out\n    /* \"#utility.yul\":696:839   */\ntag_13:\n    /* \"#utility.yul\":753:758   */\n  0x00\n    /* \"#utility.yul\":784:790   */\n  dup2\n    /* \"#utility.yul\":778:791   */\n  mload\n    /* \"#utility.yul\":769:791   */\n  swap1\n  pop\n    /* \"#utility.yul\":800:833   */\n  tag_25\n    /* \"#utility.yul\":827:832   */\n  dup2\n    /* \"#utility.yul\":800:833   */\n  tag_12\n  jump\t// in\ntag_25:\n    /* \"#utility.yul\":696:839   */\n  swap3\n  swap2\n  pop\n  pop\n  jump\t// out\n    /* \"#utility.yul\":845:1508   */\ntag_3:\n    /* \"#utility.yul\":933:939   */\n  0x00\n    /* \"#utility.yul\":941:947   */\n  dup1\n    /* \"#utility.yul\":949:955   */\n  0x00\n    /* \"#utility.yul\":998:1000   */\n  0x60\n    /* \"#utility.yul\":986:995   */\n  dup5\n    /* \"#utility.yul\":977:984   */\n  dup7\n    /* \"#utility.yul\":973:996   */\n  sub\n    /* \"#utility.yul\":969:1001   */\n  slt\n    /* \"#utility.yul\":966:1085   */\n  iszero\n  tag_27\n  jumpi\n    /* \"#utility.yul\":1004:1083   */\n  tag_28\n  tag_8\n  jump\t// in\ntag_28:\n    /* \"#utility.yul\":966:1085   */\ntag_27:\n    /* \"#utility.yul\":1124:1125   */\n  0x00\n    /* \"#utility.yul\":1149:1213   */\n  tag_29\n    /* \"#utility.yul\":1205:1212   */\n  dup7\n    /* \"#utility.yul\":1196:1202   */\n  dup3\n    /* \"#utility.yul\":1185:1194   */\n  dup8\n    /* \"#utility.yul\":1181:1203   */\n  add\n    /* \"#utility.yul\":1149:1213   */\n  tag_13\n  jump\t// in\ntag_29:\n    /* \"#utility.yul\":1139:1213   */\n  swap4\n  pop\n    /* \"#utility.yul\":1095:1223   */\n  pop\n    /* \"#utility.yul\":1262:1264   */\n  0x20\n    /* \"#utility.yul\":1288:1352   */\n  tag_30\n    /* \"#utility.yul\":1344:1351   */\n  dup7\n    /* \"#utility.yul\":1335:1341   */\n  dup3\n    /* \"#utility.yul\":1324:1333   */\n  dup8\n    /* \"#utility.yul\":1320:1342   */\n  add\n    /* \"#utility.yul\":1288:1352   */\n  tag_13\n  jump\t// in\ntag_30:\n    /* \"#utility.yul\":1278:1352   */\n  swap3\n  pop\n    /* \"#utility.yul\":1233:1362   */\n  pop\n    /* \"#utility.yul\":1401:1403   */\n  0x40\n    /* \"#utility.yul\":1427:1491   */\n  tag_31\n    /* \"#utility.yul\":1483:1490   */\n  dup7\n    /* \"#utility.yul\":1474:1480   */\n  dup3\n    /* \"#utility.yul\":1463:1472   */\n  dup8\n    /* \"#utility.yul\":1459:1481   */\n  add\n    /* \"#utility.yul\":1427:1491   */\n  tag_13\n  jump\t// in\ntag_31:\n    /* \"#utility.yul\":1417:1491   */\n  swap2\n  pop\n    /* \"#utility.yul\":1372:1501   */\n  pop\n    /* \"#utility.yul\":845:1508   */\n  swap3\n  pop\n  swap3\n  pop\n  swap3\n  jump\t// out\n    /* \"trustless cross-chain/trading pair formation/LBtMSettlement.sol\":291:1077  contract LockAndBurnToMint {... */\ntag_6:\n  dataSize(sub_0)\n  dup1\n  dataOffset(sub_0)\n  0x00\n  codecopy\n  0x00\n  return\nstop\n\nsub_0: assembly {\n        /* \"trustless cross-chain/trading pair formation/LBtMSettlement.sol\":291:1077  contract LockAndBurnToMint {... */\n      mstore(0x40, 0x80)\n      callvalue\n      dup1\n      iszero\n      tag_1\n      jumpi\n      0x00\n      dup1\n      revert\n    tag_1:\n      pop\n      jumpi(tag_2, lt(calldatasize, 0x04))\n      shr(0xe0, calldataload(0x00))\n      dup1\n      0x11df9995\n      eq\n      tag_3\n      jumpi\n      dup1\n      0x3d4b9272\n      eq\n      tag_4\n      jumpi\n      dup1\n      0x46fe28a0\n      eq\n      tag_5\n      jumpi\n      dup1\n      0x51160630\n      eq\n      tag_6\n      jumpi\n    tag_2:\n      0x00\n      dup1\n      revert\n        /* \"trustless cross-chain/trading pair formation/LBtMSettlement.sol\":354:372  IERC20 public coin */\n    tag_3:\n      tag_7\n      tag_8\n      jump\t// in\n    tag_7:\n      mload(0x40)\n      tag_9\n      swap2\n      swap1\n      tag_10\n      jump\t// in\n    tag_9:\n      mload(0x40)\n      dup1\n      swap2\n      sub\n      swap1\n      return\n        /* \"trustless cross-chain/trading pair formation/LBtMSettlement.sol\":324:348  ICustomERC721 public nfd */\n    tag_4:\n      tag_11\n      tag_12\n      jump\t// in\n    tag_11:\n      mload(0x40)\n      tag_13\n      swap2\n      swap1\n      tag_14\n      jump\t// in\n    tag_13:\n      mload(0x40)\n      dup1\n      swap2\n      sub\n      swap1\n      return\n        /* \"trustless cross-chain/trading pair formation/LBtMSettlement.sol\":599:1075  function lockAndBurn(... */\n    tag_5:\n      tag_15\n      0x04\n      dup1\n      calldatasize\n      sub\n      dup2\n      add\n      swap1\n      tag_16\n      swap2\n      swap1\n      tag_17\n      jump\t// in\n    tag_16:\n      tag_18\n      jump\t// in\n    tag_15:\n      stop\n        /* \"trustless cross-chain/trading pair formation/LBtMSettlement.sol\":378:406  Settlement public settlement */\n    tag_6:\n      tag_19\n      tag_20\n      jump\t// in\n    tag_19:\n      mload(0x40)\n      tag_21\n      swap2\n      swap1\n      tag_22\n      jump\t// in\n    tag_21:\n      mload(0x40)\n      dup1\n      swap2\n      sub\n      swap1\n      return\n        /* \"trustless cross-chain/trading pair formation/LBtMSettlement.sol\":354:372  IERC20 public coin */\n    tag_8:\n      0x01\n      0x00\n      swap1\n      sload\n      swap1\n      0x0100\n      exp\n      swap1\n      div\n      0xffffffffffffffffffffffffffffffffffffffff\n      and\n      dup2\n      jump\t// out\n        /* \"trustless cross-chain/trading pair formation/LBtMSettlement.sol\":324:348  ICustomERC721 public nfd */\n    tag_12:\n      0x00\n      dup1\n      sload\n      swap1\n      0x0100\n      exp\n      swap1\n      div\n      0xffffffffffffffffffffffffffffffffffffffff\n      and\n      dup2\n      jump\t// out\n        /* \"trustless cross-chain/trading pair formation/LBtMSettlement.sol\":599:1075  function lockAndBurn(... */\n    tag_18:\n        /* \"trustless cross-chain/trading pair formation/LBtMSettlement.sol\":813:824  userAddress */\n      dup3\n        /* \"trustless cross-chain/trading pair formation/LBtMSettlement.sol\":791:824  nfd.ownerOf(nfdId) == userAddress */\n      0xffffffffffffffffffffffffffffffffffffffff\n      and\n        /* \"trustless cross-chain/trading pair formation/LBtMSettlement.sol\":791:794  nfd */\n      0x00\n      dup1\n      sload\n      swap1\n      0x0100\n      exp\n      swap1\n      div\n      0xffffffffffffffffffffffffffffffffffffffff\n      and\n        /* \"trustless cross-chain/trading pair formation/LBtMSettlement.sol\":791:802  nfd.ownerOf */\n      0xffffffffffffffffffffffffffffffffffffffff\n      and\n      0x6352211e\n        /* \"trustless cross-chain/trading pair formation/LBtMSettlement.sol\":803:808  nfdId */\n      dup8\n        /* \"trustless cross-chain/trading pair formation/LBtMSettlement.sol\":791:809  nfd.ownerOf(nfdId) */\n      mload(0x40)\n      dup3\n      0xffffffff\n      and\n      0xe0\n      shl\n      dup2\n      mstore\n      0x04\n      add\n      tag_24\n      swap2\n      swap1\n      tag_25\n      jump\t// in\n    tag_24:\n      0x20\n      mload(0x40)\n      dup1\n      dup4\n      sub\n      dup2\n      dup7\n      gas\n      staticcall\n      iszero\n      dup1\n      iszero\n      tag_27\n      jumpi\n      returndatasize\n      0x00\n      dup1\n      returndatacopy\n      revert(0x00, returndatasize)\n    tag_27:\n      pop\n      pop\n      pop\n      pop\n      mload(0x40)\n      returndatasize\n      not(0x1f)\n      0x1f\n      dup3\n      add\n      and\n      dup3\n      add\n      dup1\n      0x40\n      mstore\n      pop\n      dup2\n      add\n      swap1\n      tag_28\n      swap2\n      swap1\n      tag_29\n      jump\t// in\n    tag_28:\n        /* \"trustless cross-chain/trading pair formation/LBtMSettlement.sol\":791:824  nfd.ownerOf(nfdId) == userAddress */\n      0xffffffffffffffffffffffffffffffffffffffff\n      and\n      eq\n        /* \"trustless cross-chain/trading pair formation/LBtMSettlement.sol\":783:850  require(nfd.ownerOf(nfdId) == userAddress, \"User does not own NFD\") */\n      tag_30\n      jumpi\n      mload(0x40)\n      0x08c379a000000000000000000000000000000000000000000000000000000000\n      dup2\n      mstore\n      0x04\n      add\n      tag_31\n      swap1\n      tag_32\n      jump\t// in\n    tag_31:\n      mload(0x40)\n      dup1\n      swap2\n      sub\n      swap1\n      revert\n    tag_30:\n        /* \"trustless cross-chain/trading pair formation/LBtMSettlement.sol\":926:929  nfd */\n      0x00\n      dup1\n      sload\n      swap1\n      0x0100\n      exp\n      swap1\n      div\n      0xffffffffffffffffffffffffffffffffffffffff\n      and\n        /* \"trustless cross-chain/trading pair formation/LBtMSettlement.sol\":926:942  nfd.transferFrom */\n      0xffffffffffffffffffffffffffffffffffffffff\n      and\n      0x23b872dd\n        /* \"trustless cross-chain/trading pair formation/LBtMSettlement.sol\":943:954  userAddress */\n      dup5\n        /* \"trustless cross-chain/trading pair formation/LBtMSettlement.sol\":964:968  this */\n      address\n        /* \"trustless cross-chain/trading pair formation/LBtMSettlement.sol\":971:976  nfdId */\n      dup9\n        /* \"trustless cross-chain/trading pair formation/LBtMSettlement.sol\":926:977  nfd.transferFrom(userAddress, address(this), nfdId) */\n      mload(0x40)\n      dup5\n      0xffffffff\n      and\n      0xe0\n      shl\n      dup2\n      mstore\n      0x04\n      add\n      tag_33\n      swap4\n      swap3\n      swap2\n      swap1\n      tag_34\n      jump\t// in\n    tag_33:\n      0x00\n      mload(0x40)\n      dup1\n      dup4\n      sub\n      dup2\n      0x00\n      dup8\n      dup1\n      extcodesize\n      iszero\n      dup1\n      iszero\n      tag_35\n      jumpi\n      0x00\n      dup1\n      revert\n    tag_35:\n      pop\n      gas\n      call\n      iszero\n      dup1\n      iszero\n      tag_37\n      jumpi\n      returndatasize\n      0x00\n      dup1\n      returndatacopy\n      revert(0x00, returndatasize)\n    tag_37:\n      pop\n      pop\n      pop\n      pop\n        /* \"trustless cross-chain/trading pair formation/LBtMSettlement.sol\":599:1075  function lockAndBurn(... */\n      pop\n      pop\n      pop\n      pop\n      pop\n      jump\t// out\n        /* \"trustless cross-chain/trading pair formation/LBtMSettlement.sol\":378:406  Settlement public settlement */\n    tag_20:\n      0x02\n      0x00\n      swap1\n      sload\n      swap1\n      0x0100\n      exp\n      swap1\n      div\n      0xffffffffffffffffffffffffffffffffffffffff\n      and\n      dup2\n      jump\t// out\n        /* \"#utility.yul\":7:133   */\n    tag_38:\n        /* \"#utility.yul\":44:51   */\n      0x00\n        /* \"#utility.yul\":84:126   */\n      0xffffffffffffffffffffffffffffffffffffffff\n        /* \"#utility.yul\":77:82   */\n      dup3\n        /* \"#utility.yul\":73:127   */\n      and\n        /* \"#utility.yul\":62:127   */\n      swap1\n      pop\n        /* \"#utility.yul\":7:133   */\n      swap2\n      swap1\n      pop\n      jump\t// out\n        /* \"#utility.yul\":139:199   */\n    tag_39:\n        /* \"#utility.yul\":167:170   */\n      0x00\n        /* \"#utility.yul\":188:193   */\n      dup2\n        /* \"#utility.yul\":181:193   */\n      swap1\n      pop\n        /* \"#utility.yul\":139:199   */\n      swap2\n      swap1\n      pop\n      jump\t// out\n        /* \"#utility.yul\":205:347   */\n    tag_40:\n        /* \"#utility.yul\":255:264   */\n      0x00\n        /* \"#utility.yul\":288:341   */\n      tag_67\n        /* \"#utility.yul\":306:340   */\n      tag_68\n        /* \"#utility.yul\":315:339   */\n      tag_69\n        /* \"#utility.yul\":333:338   */\n      dup5\n        /* \"#utility.yul\":315:339   */\n      tag_38\n      jump\t// in\n    tag_69:\n        /* \"#utility.yul\":306:340   */\n      tag_39\n      jump\t// in\n    tag_68:\n        /* \"#utility.yul\":288:341   */\n      tag_38\n      jump\t// in\n    tag_67:\n        /* \"#utility.yul\":275:341   */\n      swap1\n      pop\n        /* \"#utility.yul\":205:347   */\n      swap2\n      swap1\n      pop\n      jump\t// out\n        /* \"#utility.yul\":353:479   */\n    tag_41:\n        /* \"#utility.yul\":403:412   */\n      0x00\n        /* \"#utility.yul\":436:473   */\n      tag_71\n        /* \"#utility.yul\":467:472   */\n      dup3\n        /* \"#utility.yul\":436:473   */\n      tag_40\n      jump\t// in\n    tag_71:\n        /* \"#utility.yul\":423:473   */\n      swap1\n      pop\n        /* \"#utility.yul\":353:479   */\n      swap2\n      swap1\n      pop\n      jump\t// out\n        /* \"#utility.yul\":485:624   */\n    tag_42:\n        /* \"#utility.yul\":548:557   */\n      0x00\n        /* \"#utility.yul\":581:618   */\n      tag_73\n        /* \"#utility.yul\":612:617   */\n      dup3\n        /* \"#utility.yul\":581:618   */\n      tag_41\n      jump\t// in\n    tag_73:\n        /* \"#utility.yul\":568:618   */\n      swap1\n      pop\n        /* \"#utility.yul\":485:624   */\n      swap2\n      swap1\n      pop\n      jump\t// out\n        /* \"#utility.yul\":630:787   */\n    tag_43:\n        /* \"#utility.yul\":730:780   */\n      tag_75\n        /* \"#utility.yul\":774:779   */\n      dup2\n        /* \"#utility.yul\":730:780   */\n      tag_42\n      jump\t// in\n    tag_75:\n        /* \"#utility.yul\":725:728   */\n      dup3\n        /* \"#utility.yul\":718:781   */\n      mstore\n        /* \"#utility.yul\":630:787   */\n      pop\n      pop\n      jump\t// out\n        /* \"#utility.yul\":793:1041   */\n    tag_10:\n        /* \"#utility.yul\":899:903   */\n      0x00\n        /* \"#utility.yul\":937:939   */\n      0x20\n        /* \"#utility.yul\":926:935   */\n      dup3\n        /* \"#utility.yul\":922:940   */\n      add\n        /* \"#utility.yul\":914:940   */\n      swap1\n      pop\n        /* \"#utility.yul\":950:1034   */\n      tag_77\n        /* \"#utility.yul\":1031:1032   */\n      0x00\n        /* \"#utility.yul\":1020:1029   */\n      dup4\n        /* \"#utility.yul\":1016:1033   */\n      add\n        /* \"#utility.yul\":1007:1013   */\n      dup5\n        /* \"#utility.yul\":950:1034   */\n      tag_43\n      jump\t// in\n    tag_77:\n        /* \"#utility.yul\":793:1041   */\n      swap3\n      swap2\n      pop\n      pop\n      jump\t// out\n        /* \"#utility.yul\":1047:1194   */\n    tag_44:\n        /* \"#utility.yul\":1118:1127   */\n      0x00\n        /* \"#utility.yul\":1151:1188   */\n      tag_79\n        /* \"#utility.yul\":1182:1187   */\n      dup3\n        /* \"#utility.yul\":1151:1188   */\n      tag_41\n      jump\t// in\n    tag_79:\n        /* \"#utility.yul\":1138:1188   */\n      swap1\n      pop\n        /* \"#utility.yul\":1047:1194   */\n      swap2\n      swap1\n      pop\n      jump\t// out\n        /* \"#utility.yul\":1200:1373   */\n    tag_45:\n        /* \"#utility.yul\":1308:1366   */\n      tag_81\n        /* \"#utility.yul\":1360:1365   */\n      dup2\n        /* \"#utility.yul\":1308:1366   */\n      tag_44\n      jump\t// in\n    tag_81:\n        /* \"#utility.yul\":1303:1306   */\n      dup3\n        /* \"#utility.yul\":1296:1367   */\n      mstore\n        /* \"#utility.yul\":1200:1373   */\n      pop\n      pop\n      jump\t// out\n        /* \"#utility.yul\":1379:1643   */\n    tag_14:\n        /* \"#utility.yul\":1493:1497   */\n      0x00\n        /* \"#utility.yul\":1531:1533   */\n      0x20\n        /* \"#utility.yul\":1520:1529   */\n      dup3\n        /* \"#utility.yul\":1516:1534   */\n      add\n        /* \"#utility.yul\":1508:1534   */\n      swap1\n      pop\n        /* \"#utility.yul\":1544:1636   */\n      tag_83\n        /* \"#utility.yul\":1633:1634   */\n      0x00\n        /* \"#utility.yul\":1622:1631   */\n      dup4\n        /* \"#utility.yul\":1618:1635   */\n      add\n        /* \"#utility.yul\":1609:1615   */\n      dup5\n        /* \"#utility.yul\":1544:1636   */\n      tag_45\n      jump\t// in\n    tag_83:\n        /* \"#utility.yul\":1379:1643   */\n      swap3\n      swap2\n      pop\n      pop\n      jump\t// out\n        /* \"#utility.yul\":1730:1847   */\n    tag_47:\n        /* \"#utility.yul\":1839:1840   */\n      0x00\n        /* \"#utility.yul\":1836:1837   */\n      dup1\n        /* \"#utility.yul\":1829:1841   */\n      revert\n        /* \"#utility.yul\":1976:2053   */\n    tag_49:\n        /* \"#utility.yul\":2013:2020   */\n      0x00\n        /* \"#utility.yul\":2042:2047   */\n      dup2\n        /* \"#utility.yul\":2031:2047   */\n      swap1\n      pop\n        /* \"#utility.yul\":1976:2053   */\n      swap2\n      swap1\n      pop\n      jump\t// out\n        /* \"#utility.yul\":2059:2181   */\n    tag_50:\n        /* \"#utility.yul\":2132:2156   */\n      tag_89\n        /* \"#utility.yul\":2150:2155   */\n      dup2\n        /* \"#utility.yul\":2132:2156   */\n      tag_49\n      jump\t// in\n    tag_89:\n        /* \"#utility.yul\":2125:2130   */\n      dup2\n        /* \"#utility.yul\":2122:2157   */\n      eq\n        /* \"#utility.yul\":2112:2175   */\n      tag_90\n      jumpi\n        /* \"#utility.yul\":2171:2172   */\n      0x00\n        /* \"#utility.yul\":2168:2169   */\n      dup1\n        /* \"#utility.yul\":2161:2173   */\n      revert\n        /* \"#utility.yul\":2112:2175   */\n    tag_90:\n        /* \"#utility.yul\":2059:2181   */\n      pop\n      jump\t// out\n        /* \"#utility.yul\":2187:2326   */\n    tag_51:\n        /* \"#utility.yul\":2233:2238   */\n      0x00\n        /* \"#utility.yul\":2271:2277   */\n      dup2\n        /* \"#utility.yul\":2258:2278   */\n      calldataload\n        /* \"#utility.yul\":2249:2278   */\n      swap1\n      pop\n        /* \"#utility.yul\":2287:2320   */\n      tag_92\n        /* \"#utility.yul\":2314:2319   */\n      dup2\n        /* \"#utility.yul\":2287:2320   */\n      tag_50\n      jump\t// in\n    tag_92:\n        /* \"#utility.yul\":2187:2326   */\n      swap3\n      swap2\n      pop\n      pop\n      jump\t// out\n        /* \"#utility.yul\":2332:2428   */\n    tag_52:\n        /* \"#utility.yul\":2369:2376   */\n      0x00\n        /* \"#utility.yul\":2398:2422   */\n      tag_94\n        /* \"#utility.yul\":2416:2421   */\n      dup3\n        /* \"#utility.yul\":2398:2422   */\n      tag_38\n      jump\t// in\n    tag_94:\n        /* \"#utility.yul\":2387:2422   */\n      swap1\n      pop\n        /* \"#utility.yul\":2332:2428   */\n      swap2\n      swap1\n      pop\n      jump\t// out\n        /* \"#utility.yul\":2434:2556   */\n    tag_53:\n        /* \"#utility.yul\":2507:2531   */\n      tag_96\n        /* \"#utility.yul\":2525:2530   */\n      dup2\n        /* \"#utility.yul\":2507:2531   */\n      tag_52\n      jump\t// in\n    tag_96:\n        /* \"#utility.yul\":2500:2505   */\n      dup2\n        /* \"#utility.yul\":2497:2532   */\n      eq\n        /* \"#utility.yul\":2487:2550   */\n      tag_97\n      jumpi\n        /* \"#utility.yul\":2546:2547   */\n      0x00\n        /* \"#utility.yul\":2543:2544   */\n      dup1\n        /* \"#utility.yul\":2536:2548   */\n      revert\n        /* \"#utility.yul\":2487:2550   */\n    tag_97:\n        /* \"#utility.yul\":2434:2556   */\n      pop\n      jump\t// out\n        /* \"#utility.yul\":2562:2701   */\n    tag_54:\n        /* \"#utility.yul\":2608:2613   */\n      0x00\n        /* \"#utility.yul\":2646:2652   */\n      dup2\n        /* \"#utility.yul\":2633:2653   */\n      calldataload\n        /* \"#utility.yul\":2624:2653   */\n      swap1\n      pop\n        /* \"#utility.yul\":2662:2695   */\n      tag_99\n        /* \"#utility.yul\":2689:2694   */\n      dup2\n        /* \"#utility.yul\":2662:2695   */\n      tag_53\n      jump\t// in\n    tag_99:\n        /* \"#utility.yul\":2562:2701   */\n      swap3\n      swap2\n      pop\n      pop\n      jump\t// out\n        /* \"#utility.yul\":2707:3618   */\n    tag_17:\n        /* \"#utility.yul\":2802:2808   */\n      0x00\n        /* \"#utility.yul\":2810:2816   */\n      dup1\n        /* \"#utility.yul\":2818:2824   */\n      0x00\n        /* \"#utility.yul\":2826:2832   */\n      dup1\n        /* \"#utility.yul\":2834:2840   */\n      0x00\n        /* \"#utility.yul\":2883:2886   */\n      0xa0\n        /* \"#utility.yul\":2871:2880   */\n      dup7\n        /* \"#utility.yul\":2862:2869   */\n      dup9\n        /* \"#utility.yul\":2858:2881   */\n      sub\n        /* \"#utility.yul\":2854:2887   */\n      slt\n        /* \"#utility.yul\":2851:2971   */\n      iszero\n      tag_101\n      jumpi\n        /* \"#utility.yul\":2890:2969   */\n      tag_102\n      tag_47\n      jump\t// in\n    tag_102:\n        /* \"#utility.yul\":2851:2971   */\n    tag_101:\n        /* \"#utility.yul\":3010:3011   */\n      0x00\n        /* \"#utility.yul\":3035:3088   */\n      tag_103\n        /* \"#utility.yul\":3080:3087   */\n      dup9\n        /* \"#utility.yul\":3071:3077   */\n      dup3\n        /* \"#utility.yul\":3060:3069   */\n      dup10\n        /* \"#utility.yul\":3056:3078   */\n      add\n        /* \"#utility.yul\":3035:3088   */\n      tag_51\n      jump\t// in\n    tag_103:\n        /* \"#utility.yul\":3025:3088   */\n      swap6\n      pop\n        /* \"#utility.yul\":2981:3098   */\n      pop\n        /* \"#utility.yul\":3137:3139   */\n      0x20\n        /* \"#utility.yul\":3163:3216   */\n      tag_104\n        /* \"#utility.yul\":3208:3215   */\n      dup9\n        /* \"#utility.yul\":3199:3205   */\n      dup3\n        /* \"#utility.yul\":3188:3197   */\n      dup10\n        /* \"#utility.yul\":3184:3206   */\n      add\n        /* \"#utility.yul\":3163:3216   */\n      tag_51\n      jump\t// in\n    tag_104:\n        /* \"#utility.yul\":3153:3216   */\n      swap5\n      pop\n        /* \"#utility.yul\":3108:3226   */\n      pop\n        /* \"#utility.yul\":3265:3267   */\n      0x40\n        /* \"#utility.yul\":3291:3344   */\n      tag_105\n        /* \"#utility.yul\":3336:3343   */\n      dup9\n        /* \"#utility.yul\":3327:3333   */\n      dup3\n        /* \"#utility.yul\":3316:3325   */\n      dup10\n        /* \"#utility.yul\":3312:3334   */\n      add\n        /* \"#utility.yul\":3291:3344   */\n      tag_54\n      jump\t// in\n    tag_105:\n        /* \"#utility.yul\":3281:3344   */\n      swap4\n      pop\n        /* \"#utility.yul\":3236:3354   */\n      pop\n        /* \"#utility.yul\":3393:3395   */\n      0x60\n        /* \"#utility.yul\":3419:3472   */\n      tag_106\n        /* \"#utility.yul\":3464:3471   */\n      dup9\n        /* \"#utility.yul\":3455:3461   */\n      dup3\n        /* \"#utility.yul\":3444:3453   */\n      dup10\n        /* \"#utility.yul\":3440:3462   */\n      add\n        /* \"#utility.yul\":3419:3472   */\n      tag_54\n      jump\t// in\n    tag_106:\n        /* \"#utility.yul\":3409:3472   */\n      swap3\n      pop\n        /* \"#utility.yul\":3364:3482   */\n      pop\n        /* \"#utility.yul\":3521:3524   */\n      0x80\n        /* \"#utility.yul\":3548:3601   */\n      tag_107\n        /* \"#utility.yul\":3593:3600   */\n      dup9\n        /* \"#utility.yul\":3584:3590   */\n      dup3\n        /* \"#utility.yul\":3573:3582   */\n      dup10\n        /* \"#utility.yul\":3569:3591   */\n      add\n        /* \"#utility.yul\":3548:3601   */\n      tag_51\n      jump\t// in\n    tag_107:\n        /* \"#utility.yul\":3538:3601   */\n      swap2\n      pop\n        /* \"#utility.yul\":3492:3611   */\n      pop\n        /* \"#utility.yul\":2707:3618   */\n      swap3\n      swap6\n      pop\n      swap3\n      swap6\n      swap1\n      swap4\n      pop\n      jump\t// out\n        /* \"#utility.yul\":3624:3768   */\n    tag_55:\n        /* \"#utility.yul\":3692:3701   */\n      0x00\n        /* \"#utility.yul\":3725:3762   */\n      tag_109\n        /* \"#utility.yul\":3756:3761   */\n      dup3\n        /* \"#utility.yul\":3725:3762   */\n      tag_41\n      jump\t// in\n    tag_109:\n        /* \"#utility.yul\":3712:3762   */\n      swap1\n      pop\n        /* \"#utility.yul\":3624:3768   */\n      swap2\n      swap1\n      pop\n      jump\t// out\n        /* \"#utility.yul\":3774:3941   */\n    tag_56:\n        /* \"#utility.yul\":3879:3934   */\n      tag_111\n        /* \"#utility.yul\":3928:3933   */\n      dup2\n        /* \"#utility.yul\":3879:3934   */\n      tag_55\n      jump\t// in\n    tag_111:\n        /* \"#utility.yul\":3874:3877   */\n      dup3\n        /* \"#utility.yul\":3867:3935   */\n      mstore\n        /* \"#utility.yul\":3774:3941   */\n      pop\n      pop\n      jump\t// out\n        /* \"#utility.yul\":3947:4205   */\n    tag_22:\n        /* \"#utility.yul\":4058:4062   */\n      0x00\n        /* \"#utility.yul\":4096:4098   */\n      0x20\n        /* \"#utility.yul\":4085:4094   */\n      dup3\n        /* \"#utility.yul\":4081:4099   */\n      add\n        /* \"#utility.yul\":4073:4099   */\n      swap1\n      pop\n        /* \"#utility.yul\":4109:4198   */\n      tag_113\n        /* \"#utility.yul\":4195:4196   */\n      0x00\n        /* \"#utility.yul\":4184:4193   */\n      dup4\n        /* \"#utility.yul\":4180:4197   */\n      add\n        /* \"#utility.yul\":4171:4177   */\n      dup5\n        /* \"#utility.yul\":4109:4198   */\n      tag_56\n      jump\t// in\n    tag_113:\n        /* \"#utility.yul\":3947:4205   */\n      swap3\n      swap2\n      pop\n      pop\n      jump\t// out\n        /* \"#utility.yul\":4211:4329   */\n    tag_57:\n        /* \"#utility.yul\":4298:4322   */\n      tag_115\n        /* \"#utility.yul\":4316:4321   */\n      dup2\n        /* \"#utility.yul\":4298:4322   */\n      tag_49\n      jump\t// in\n    tag_115:\n        /* \"#utility.yul\":4293:4296   */\n      dup3\n        /* \"#utility.yul\":4286:4323   */\n      mstore\n        /* \"#utility.yul\":4211:4329   */\n      pop\n      pop\n      jump\t// out\n        /* \"#utility.yul\":4335:4557   */\n    tag_25:\n        /* \"#utility.yul\":4428:4432   */\n      0x00\n        /* \"#utility.yul\":4466:4468   */\n      0x20\n        /* \"#utility.yul\":4455:4464   */\n      dup3\n        /* \"#utility.yul\":4451:4469   */\n      add\n        /* \"#utility.yul\":4443:4469   */\n      swap1\n      pop\n        /* \"#utility.yul\":4479:4550   */\n      tag_117\n        /* \"#utility.yul\":4547:4548   */\n      0x00\n        /* \"#utility.yul\":4536:4545   */\n      dup4\n        /* \"#utility.yul\":4532:4549   */\n      add\n        /* \"#utility.yul\":4523:4529   */\n      dup5\n        /* \"#utility.yul\":4479:4550   */\n      tag_57\n      jump\t// in\n    tag_117:\n        /* \"#utility.yul\":4335:4557   */\n      swap3\n      swap2\n      pop\n      pop\n      jump\t// out\n        /* \"#utility.yul\":4563:4706   */\n    tag_58:\n        /* \"#utility.yul\":4620:4625   */\n      0x00\n        /* \"#utility.yul\":4651:4657   */\n      dup2\n        /* \"#utility.yul\":4645:4658   */\n      mload\n        /* \"#utility.yul\":4636:4658   */\n      swap1\n      pop\n        /* \"#utility.yul\":4667:4700   */\n      tag_119\n        /* \"#utility.yul\":4694:4699   */\n      dup2\n        /* \"#utility.yul\":4667:4700   */\n      tag_53\n      jump\t// in\n    tag_119:\n        /* \"#utility.yul\":4563:4706   */\n      swap3\n      swap2\n      pop\n      pop\n      jump\t// out\n        /* \"#utility.yul\":4712:5063   */\n    tag_29:\n        /* \"#utility.yul\":4782:4788   */\n      0x00\n        /* \"#utility.yul\":4831:4833   */\n      0x20\n        /* \"#utility.yul\":4819:4828   */\n      dup3\n        /* \"#utility.yul\":4810:4817   */\n      dup5\n        /* \"#utility.yul\":4806:4829   */\n      sub\n        /* \"#utility.yul\":4802:4834   */\n      slt\n        /* \"#utility.yul\":4799:4918   */\n      iszero\n      tag_121\n      jumpi\n        /* \"#utility.yul\":4837:4916   */\n      tag_122\n      tag_47\n      jump\t// in\n    tag_122:\n        /* \"#utility.yul\":4799:4918   */\n    tag_121:\n        /* \"#utility.yul\":4957:4958   */\n      0x00\n        /* \"#utility.yul\":4982:5046   */\n      tag_123\n        /* \"#utility.yul\":5038:5045   */\n      dup5\n        /* \"#utility.yul\":5029:5035   */\n      dup3\n        /* \"#utility.yul\":5018:5027   */\n      dup6\n        /* \"#utility.yul\":5014:5036   */\n      add\n        /* \"#utility.yul\":4982:5046   */\n      tag_58\n      jump\t// in\n    tag_123:\n        /* \"#utility.yul\":4972:5046   */\n      swap2\n      pop\n        /* \"#utility.yul\":4928:5056   */\n      pop\n        /* \"#utility.yul\":4712:5063   */\n      swap3\n      swap2\n      pop\n      pop\n      jump\t// out\n        /* \"#utility.yul\":5069:5238   */\n    tag_59:\n        /* \"#utility.yul\":5153:5164   */\n      0x00\n        /* \"#utility.yul\":5187:5193   */\n      dup3\n        /* \"#utility.yul\":5182:5185   */\n      dup3\n        /* \"#utility.yul\":5175:5194   */\n      mstore\n        /* \"#utility.yul\":5227:5231   */\n      0x20\n        /* \"#utility.yul\":5222:5225   */\n      dup3\n        /* \"#utility.yul\":5218:5232   */\n      add\n        /* \"#utility.yul\":5203:5232   */\n      swap1\n      pop\n        /* \"#utility.yul\":5069:5238   */\n      swap3\n      swap2\n      pop\n      pop\n      jump\t// out\n        /* \"#utility.yul\":5244:5415   */\n    tag_60:\n        /* \"#utility.yul\":5384:5407   */\n      0x5573657220646f6573206e6f74206f776e204e46440000000000000000000000\n        /* \"#utility.yul\":5380:5381   */\n      0x00\n        /* \"#utility.yul\":5372:5378   */\n      dup3\n        /* \"#utility.yul\":5368:5382   */\n      add\n        /* \"#utility.yul\":5361:5408   */\n      mstore\n        /* \"#utility.yul\":5244:5415   */\n      pop\n      jump\t// out\n        /* \"#utility.yul\":5421:5787   */\n    tag_61:\n        /* \"#utility.yul\":5563:5566   */\n      0x00\n        /* \"#utility.yul\":5584:5651   */\n      tag_127\n        /* \"#utility.yul\":5648:5650   */\n      0x15\n        /* \"#utility.yul\":5643:5646   */\n      dup4\n        /* \"#utility.yul\":5584:5651   */\n      tag_59\n      jump\t// in\n    tag_127:\n        /* \"#utility.yul\":5577:5651   */\n      swap2\n      pop\n        /* \"#utility.yul\":5660:5753   */\n      tag_128\n        /* \"#utility.yul\":5749:5752   */\n      dup3\n        /* \"#utility.yul\":5660:5753   */\n      tag_60\n      jump\t// in\n    tag_128:\n        /* \"#utility.yul\":5778:5780   */\n      0x20\n        /* \"#utility.yul\":5773:5776   */\n      dup3\n        /* \"#utility.yul\":5769:5781   */\n      add\n        /* \"#utility.yul\":5762:5781   */\n      swap1\n      pop\n        /* \"#utility.yul\":5421:5787   */\n      swap2\n      swap1\n      pop\n      jump\t// out\n        /* \"#utility.yul\":5793:6212   */\n    tag_32:\n        /* \"#utility.yul\":5959:5963   */\n      0x00\n        /* \"#utility.yul\":5997:5999   */\n      0x20\n        /* \"#utility.yul\":5986:5995   */\n      dup3\n        /* \"#utility.yul\":5982:6000   */\n      add\n        /* \"#utility.yul\":5974:6000   */\n      swap1\n      pop\n        /* \"#utility.yul\":6046:6055   */\n      dup2\n        /* \"#utility.yul\":6040:6044   */\n      dup2\n        /* \"#utility.yul\":6036:6056   */\n      sub\n        /* \"#utility.yul\":6032:6033   */\n      0x00\n        /* \"#utility.yul\":6021:6030   */\n      dup4\n        /* \"#utility.yul\":6017:6034   */\n      add\n        /* \"#utility.yul\":6010:6057   */\n      mstore\n        /* \"#utility.yul\":6074:6205   */\n      tag_130\n        /* \"#utility.yul\":6200:6204   */\n      dup2\n        /* \"#utility.yul\":6074:6205   */\n      tag_61\n      jump\t// in\n    tag_130:\n        /* \"#utility.yul\":6066:6205   */\n      swap1\n      pop\n        /* \"#utility.yul\":5793:6212   */\n      swap2\n      swap1\n      pop\n      jump\t// out\n        /* \"#utility.yul\":6218:6336   */\n    tag_62:\n        /* \"#utility.yul\":6305:6329   */\n      tag_132\n        /* \"#utility.yul\":6323:6328   */\n      dup2\n        /* \"#utility.yul\":6305:6329   */\n      tag_52\n      jump\t// in\n    tag_132:\n        /* \"#utility.yul\":6300:6303   */\n      dup3\n        /* \"#utility.yul\":6293:6330   */\n      mstore\n        /* \"#utility.yul\":6218:6336   */\n      pop\n      pop\n      jump\t// out\n        /* \"#utility.yul\":6342:6784   */\n    tag_34:\n        /* \"#utility.yul\":6491:6495   */\n      0x00\n        /* \"#utility.yul\":6529:6531   */\n      0x60\n        /* \"#utility.yul\":6518:6527   */\n      dup3\n        /* \"#utility.yul\":6514:6532   */\n      add\n        /* \"#utility.yul\":6506:6532   */\n      swap1\n      pop\n        /* \"#utility.yul\":6542:6613   */\n      tag_134\n        /* \"#utility.yul\":6610:6611   */\n      0x00\n        /* \"#utility.yul\":6599:6608   */\n      dup4\n        /* \"#utility.yul\":6595:6612   */\n      add\n        /* \"#utility.yul\":6586:6592   */\n      dup7\n        /* \"#utility.yul\":6542:6613   */\n      tag_62\n      jump\t// in\n    tag_134:\n        /* \"#utility.yul\":6623:6695   */\n      tag_135\n        /* \"#utility.yul\":6691:6693   */\n      0x20\n        /* \"#utility.yul\":6680:6689   */\n      dup4\n        /* \"#utility.yul\":6676:6694   */\n      add\n        /* \"#utility.yul\":6667:6673   */\n      dup6\n        /* \"#utility.yul\":6623:6695   */\n      tag_62\n      jump\t// in\n    tag_135:\n        /* \"#utility.yul\":6705:6777   */\n      tag_136\n        /* \"#utility.yul\":6773:6775   */\n      0x40\n        /* \"#utility.yul\":6762:6771   */\n      dup4\n        /* \"#utility.yul\":6758:6776   */\n      add\n        /* \"#utility.yul\":6749:6755   */\n      dup5\n        /* \"#utility.yul\":6705:6777   */\n      tag_57\n      jump\t// in\n    tag_136:\n        /* \"#utility.yul\":6342:6784   */\n      swap5\n      swap4\n      pop\n      pop\n      pop\n      pop\n      jump\t// out\n\n    auxdata: 0xa26469706673582212204a2ed9974674910fd0ffcf1d172eaca3881f2bdd99563768f998ee5f52d2492864736f6c634300081a0033\n}\n",
				"bytecode": {
					"linkReferences": {},
					"object": "608060405234801561000f575f80fd5b506040516107bf3803806107bf83398181016040528101906100319190610156565b825f806101000a81548173ffffffffffffffffffffffffffffffffffffffff021916908373ffffffffffffffffffffffffffffffffffffffff1602179055508160015f6101000a81548173ffffffffffffffffffffffffffffffffffffffff021916908373ffffffffffffffffffffffffffffffffffffffff1602179055508060025f6101000a81548173ffffffffffffffffffffffffffffffffffffffff021916908373ffffffffffffffffffffffffffffffffffffffff1602179055505050506101a6565b5f80fd5b5f73ffffffffffffffffffffffffffffffffffffffff82169050919050565b5f610125826100fc565b9050919050565b6101358161011b565b811461013f575f80fd5b50565b5f815190506101508161012c565b92915050565b5f805f6060848603121561016d5761016c6100f8565b5b5f61017a86828701610142565b935050602061018b86828701610142565b925050604061019c86828701610142565b9150509250925092565b61060c806101b35f395ff3fe608060405234801561000f575f80fd5b506004361061004a575f3560e01c806311df99951461004e5780633d4b92721461006c57806346fe28a01461008a57806351160630146100a6575b5f80fd5b6100566100c4565b604051610063919061033f565b60405180910390f35b6100746100e9565b6040516100819190610378565b60405180910390f35b6100a4600480360381019061009f9190610403565b61010c565b005b6100ae6102a0565b6040516100bb919061049a565b60405180910390f35b60015f9054906101000a900473ffffffffffffffffffffffffffffffffffffffff1681565b5f8054906101000a900473ffffffffffffffffffffffffffffffffffffffff1681565b8273ffffffffffffffffffffffffffffffffffffffff165f8054906101000a900473ffffffffffffffffffffffffffffffffffffffff1673ffffffffffffffffffffffffffffffffffffffff16636352211e876040518263ffffffff1660e01b815260040161017b91906104c2565b602060405180830381865afa158015610196573d5f803e3d5ffd5b505050506040513d601f19601f820116820180604052508101906101ba91906104ef565b73ffffffffffffffffffffffffffffffffffffffff1614610210576040517f08c379a000000000000000000000000000000000000000000000000000000000815260040161020790610574565b60405180910390fd5b5f8054906101000a900473ffffffffffffffffffffffffffffffffffffffff1673ffffffffffffffffffffffffffffffffffffffff166323b872dd8430886040518463ffffffff1660e01b815260040161026c939291906105a1565b5f604051808303815f87803b158015610283575f80fd5b505af1158015610295573d5f803e3d5ffd5b505050505050505050565b60025f9054906101000a900473ffffffffffffffffffffffffffffffffffffffff1681565b5f73ffffffffffffffffffffffffffffffffffffffff82169050919050565b5f819050919050565b5f6103076103026102fd846102c5565b6102e4565b6102c5565b9050919050565b5f610318826102ed565b9050919050565b5f6103298261030e565b9050919050565b6103398161031f565b82525050565b5f6020820190506103525f830184610330565b92915050565b5f6103628261030e565b9050919050565b61037281610358565b82525050565b5f60208201905061038b5f830184610369565b92915050565b5f80fd5b5f819050919050565b6103a781610395565b81146103b1575f80fd5b50565b5f813590506103c28161039e565b92915050565b5f6103d2826102c5565b9050919050565b6103e2816103c8565b81146103ec575f80fd5b50565b5f813590506103fd816103d9565b92915050565b5f805f805f60a0868803121561041c5761041b610391565b5b5f610429888289016103b4565b955050602061043a888289016103b4565b945050604061044b888289016103ef565b935050606061045c888289016103ef565b925050608061046d888289016103b4565b9150509295509295909350565b5f6104848261030e565b9050919050565b6104948161047a565b82525050565b5f6020820190506104ad5f83018461048b565b92915050565b6104bc81610395565b82525050565b5f6020820190506104d55f8301846104b3565b92915050565b5f815190506104e9816103d9565b92915050565b5f6020828403121561050457610503610391565b5b5f610511848285016104db565b91505092915050565b5f82825260208201905092915050565b7f5573657220646f6573206e6f74206f776e204e464400000000000000000000005f82015250565b5f61055e60158361051a565b91506105698261052a565b602082019050919050565b5f6020820190508181035f83015261058b81610552565b9050919050565b61059b816103c8565b82525050565b5f6060820190506105b45f830186610592565b6105c16020830185610592565b6105ce60408301846104b3565b94935050505056fea26469706673582212204a2ed9974674910fd0ffcf1d172eaca3881f2bdd99563768f998ee5f52d2492864736f6c634300081a0033",
					"opcodes": "PUSH1 0x80 PUSH1 0x40 MSTORE CALLVALUE DUP1 ISZERO PUSH2 0xF JUMPI PUSH0 DUP1 REVERT JUMPDEST POP PUSH1 0x40 MLOAD PUSH2 0x7BF CODESIZE SUB DUP1 PUSH2 0x7BF DUP4 CODECOPY DUP2 DUP2 ADD PUSH1 0x40 MSTORE DUP2 ADD SWAP1 PUSH2 0x31 SWAP2 SWAP1 PUSH2 0x156 JUMP JUMPDEST DUP3 PUSH0 DUP1 PUSH2 0x100 EXP DUP2 SLOAD DUP2 PUSH20 0xFFFFFFFFFFFFFFFFFFFFFFFFFFFFFFFFFFFFFFFF MUL NOT AND SWAP1 DUP4 PUSH20 0xFFFFFFFFFFFFFFFFFFFFFFFFFFFFFFFFFFFFFFFF AND MUL OR SWAP1 SSTORE POP DUP2 PUSH1 0x1 PUSH0 PUSH2 0x100 EXP DUP2 SLOAD DUP2 PUSH20 0xFFFFFFFFFFFFFFFFFFFFFFFFFFFFFFFFFFFFFFFF MUL NOT AND SWAP1 DUP4 PUSH20 0xFFFFFFFFFFFFFFFFFFFFFFFFFFFFFFFFFFFFFFFF AND MUL OR SWAP1 SSTORE POP DUP1 PUSH1 0x2 PUSH0 PUSH2 0x100 EXP DUP2 SLOAD DUP2 PUSH20 0xFFFFFFFFFFFFFFFFFFFFFFFFFFFFFFFFFFFFFFFF MUL NOT AND SWAP1 DUP4 PUSH20 0xFFFFFFFFFFFFFFFFFFFFFFFFFFFFFFFFFFFFFFFF AND MUL OR SWAP1 SSTORE POP POP POP POP PUSH2 0x1A6 JUMP JUMPDEST PUSH0 DUP1 REVERT JUMPDEST PUSH0 PUSH20 0xFFFFFFFFFFFFFFFFFFFFFFFFFFFFFFFFFFFFFFFF DUP3 AND SWAP1 POP SWAP2 SWAP1 POP JUMP JUMPDEST PUSH0 PUSH2 0x125 DUP3 PUSH2 0xFC JUMP JUMPDEST SWAP1 POP SWAP2 SWAP1 POP JUMP JUMPDEST PUSH2 0x135 DUP2 PUSH2 0x11B JUMP JUMPDEST DUP2 EQ PUSH2 0x13F JUMPI PUSH0 DUP1 REVERT JUMPDEST POP JUMP JUMPDEST PUSH0 DUP2 MLOAD SWAP1 POP PUSH2 0x150 DUP2 PUSH2 0x12C JUMP JUMPDEST SWAP3 SWAP2 POP POP JUMP JUMPDEST PUSH0 DUP1 PUSH0 PUSH1 0x60 DUP5 DUP7 SUB SLT ISZERO PUSH2 0x16D JUMPI PUSH2 0x16C PUSH2 0xF8 JUMP JUMPDEST JUMPDEST PUSH0 PUSH2 0x17A DUP7 DUP3 DUP8 ADD PUSH2 0x142 JUMP JUMPDEST SWAP4 POP POP PUSH1 0x20 PUSH2 0x18B DUP7 DUP3 DUP8 ADD PUSH2 0x142 JUMP JUMPDEST SWAP3 POP POP PUSH1 0x40 PUSH2 0x19C DUP7 DUP3 DUP8 ADD PUSH2 0x142 JUMP JUMPDEST SWAP2 POP POP SWAP3 POP SWAP3 POP SWAP3 JUMP JUMPDEST PUSH2 0x60C DUP1 PUSH2 0x1B3 PUSH0 CODECOPY PUSH0 RETURN INVALID PUSH1 0x80 PUSH1 0x40 MSTORE CALLVALUE DUP1 ISZERO PUSH2 0xF JUMPI PUSH0 DUP1 REVERT JUMPDEST POP PUSH1 0x4 CALLDATASIZE LT PUSH2 0x4A JUMPI PUSH0 CALLDATALOAD PUSH1 0xE0 SHR DUP1 PUSH4 0x11DF9995 EQ PUSH2 0x4E JUMPI DUP1 PUSH4 0x3D4B9272 EQ PUSH2 0x6C JUMPI DUP1 PUSH4 0x46FE28A0 EQ PUSH2 0x8A JUMPI DUP1 PUSH4 0x51160630 EQ PUSH2 0xA6 JUMPI JUMPDEST PUSH0 DUP1 REVERT JUMPDEST PUSH2 0x56 PUSH2 0xC4 JUMP JUMPDEST PUSH1 0x40 MLOAD PUSH2 0x63 SWAP2 SWAP1 PUSH2 0x33F JUMP JUMPDEST PUSH1 0x40 MLOAD DUP1 SWAP2 SUB SWAP1 RETURN JUMPDEST PUSH2 0x74 PUSH2 0xE9 JUMP JUMPDEST PUSH1 0x40 MLOAD PUSH2 0x81 SWAP2 SWAP1 PUSH2 0x378 JUMP JUMPDEST PUSH1 0x40 MLOAD DUP1 SWAP2 SUB SWAP1 RETURN JUMPDEST PUSH2 0xA4 PUSH1 0x4 DUP1 CALLDATASIZE SUB DUP2 ADD SWAP1 PUSH2 0x9F SWAP2 SWAP1 PUSH2 0x403 JUMP JUMPDEST PUSH2 0x10C JUMP JUMPDEST STOP JUMPDEST PUSH2 0xAE PUSH2 0x2A0 JUMP JUMPDEST PUSH1 0x40 MLOAD PUSH2 0xBB SWAP2 SWAP1 PUSH2 0x49A JUMP JUMPDEST PUSH1 0x40 MLOAD DUP1 SWAP2 SUB SWAP1 RETURN JUMPDEST PUSH1 0x1 PUSH0 SWAP1 SLOAD SWAP1 PUSH2 0x100 EXP SWAP1 DIV PUSH20 0xFFFFFFFFFFFFFFFFFFFFFFFFFFFFFFFFFFFFFFFF AND DUP2 JUMP JUMPDEST PUSH0 DUP1 SLOAD SWAP1 PUSH2 0x100 EXP SWAP1 DIV PUSH20 0xFFFFFFFFFFFFFFFFFFFFFFFFFFFFFFFFFFFFFFFF AND DUP2 JUMP JUMPDEST DUP3 PUSH20 0xFFFFFFFFFFFFFFFFFFFFFFFFFFFFFFFFFFFFFFFF AND PUSH0 DUP1 SLOAD SWAP1 PUSH2 0x100 EXP SWAP1 DIV PUSH20 0xFFFFFFFFFFFFFFFFFFFFFFFFFFFFFFFFFFFFFFFF AND PUSH20 0xFFFFFFFFFFFFFFFFFFFFFFFFFFFFFFFFFFFFFFFF AND PUSH4 0x6352211E DUP8 PUSH1 0x40 MLOAD DUP3 PUSH4 0xFFFFFFFF AND PUSH1 0xE0 SHL DUP2 MSTORE PUSH1 0x4 ADD PUSH2 0x17B SWAP2 SWAP1 PUSH2 0x4C2 JUMP JUMPDEST PUSH1 0x20 PUSH1 0x40 MLOAD DUP1 DUP4 SUB DUP2 DUP7 GAS STATICCALL ISZERO DUP1 ISZERO PUSH2 0x196 JUMPI RETURNDATASIZE PUSH0 DUP1 RETURNDATACOPY RETURNDATASIZE PUSH0 REVERT JUMPDEST POP POP POP POP PUSH1 0x40 MLOAD RETURNDATASIZE PUSH1 0x1F NOT PUSH1 0x1F DUP3 ADD AND DUP3 ADD DUP1 PUSH1 0x40 MSTORE POP DUP2 ADD SWAP1 PUSH2 0x1BA SWAP2 SWAP1 PUSH2 0x4EF JUMP JUMPDEST PUSH20 0xFFFFFFFFFFFFFFFFFFFFFFFFFFFFFFFFFFFFFFFF AND EQ PUSH2 0x210 JUMPI PUSH1 0x40 MLOAD PUSH32 0x8C379A000000000000000000000000000000000000000000000000000000000 DUP2 MSTORE PUSH1 0x4 ADD PUSH2 0x207 SWAP1 PUSH2 0x574 JUMP JUMPDEST PUSH1 0x40 MLOAD DUP1 SWAP2 SUB SWAP1 REVERT JUMPDEST PUSH0 DUP1 SLOAD SWAP1 PUSH2 0x100 EXP SWAP1 DIV PUSH20 0xFFFFFFFFFFFFFFFFFFFFFFFFFFFFFFFFFFFFFFFF AND PUSH20 0xFFFFFFFFFFFFFFFFFFFFFFFFFFFFFFFFFFFFFFFF AND PUSH4 0x23B872DD DUP5 ADDRESS DUP9 PUSH1 0x40 MLOAD DUP5 PUSH4 0xFFFFFFFF AND PUSH1 0xE0 SHL DUP2 MSTORE PUSH1 0x4 ADD PUSH2 0x26C SWAP4 SWAP3 SWAP2 SWAP1 PUSH2 0x5A1 JUMP JUMPDEST PUSH0 PUSH1 0x40 MLOAD DUP1 DUP4 SUB DUP2 PUSH0 DUP8 DUP1 EXTCODESIZE ISZERO DUP1 ISZERO PUSH2 0x283 JUMPI PUSH0 DUP1 REVERT JUMPDEST POP GAS CALL ISZERO DUP1 ISZERO PUSH2 0x295 JUMPI RETURNDATASIZE PUSH0 DUP1 RETURNDATACOPY RETURNDATASIZE PUSH0 REVERT JUMPDEST POP POP POP POP POP POP POP POP POP JUMP JUMPDEST PUSH1 0x2 PUSH0 SWAP1 SLOAD SWAP1 PUSH2 0x100 EXP SWAP1 DIV PUSH20 0xFFFFFFFFFFFFFFFFFFFFFFFFFFFFFFFFFFFFFFFF AND DUP2 JUMP JUMPDEST PUSH0 PUSH20 0xFFFFFFFFFFFFFFFFFFFFFFFFFFFFFFFFFFFFFFFF DUP3 AND SWAP1 POP SWAP2 SWAP1 POP JUMP JUMPDEST PUSH0 DUP2 SWAP1 POP SWAP2 SWAP1 POP JUMP JUMPDEST PUSH0 PUSH2 0x307 PUSH2 0x302 PUSH2 0x2FD DUP5 PUSH2 0x2C5 JUMP JUMPDEST PUSH2 0x2E4 JUMP JUMPDEST PUSH2 0x2C5 JUMP JUMPDEST SWAP1 POP SWAP2 SWAP1 POP JUMP JUMPDEST PUSH0 PUSH2 0x318 DUP3 PUSH2 0x2ED JUMP JUMPDEST SWAP1 POP SWAP2 SWAP1 POP JUMP JUMPDEST PUSH0 PUSH2 0x329 DUP3 PUSH2 0x30E JUMP JUMPDEST SWAP1 POP SWAP2 SWAP1 POP JUMP JUMPDEST PUSH2 0x339 DUP2 PUSH2 0x31F JUMP JUMPDEST DUP3 MSTORE POP POP JUMP JUMPDEST PUSH0 PUSH1 0x20 DUP3 ADD SWAP1 POP PUSH2 0x352 PUSH0 DUP4 ADD DUP5 PUSH2 0x330 JUMP JUMPDEST SWAP3 SWAP2 POP POP JUMP JUMPDEST PUSH0 PUSH2 0x362 DUP3 PUSH2 0x30E JUMP JUMPDEST SWAP1 POP SWAP2 SWAP1 POP JUMP JUMPDEST PUSH2 0x372 DUP2 PUSH2 0x358 JUMP JUMPDEST DUP3 MSTORE POP POP JUMP JUMPDEST PUSH0 PUSH1 0x20 DUP3 ADD SWAP1 POP PUSH2 0x38B PUSH0 DUP4 ADD DUP5 PUSH2 0x369 JUMP JUMPDEST SWAP3 SWAP2 POP POP JUMP JUMPDEST PUSH0 DUP1 REVERT JUMPDEST PUSH0 DUP2 SWAP1 POP SWAP2 SWAP1 POP JUMP JUMPDEST PUSH2 0x3A7 DUP2 PUSH2 0x395 JUMP JUMPDEST DUP2 EQ PUSH2 0x3B1 JUMPI PUSH0 DUP1 REVERT JUMPDEST POP JUMP JUMPDEST PUSH0 DUP2 CALLDATALOAD SWAP1 POP PUSH2 0x3C2 DUP2 PUSH2 0x39E JUMP JUMPDEST SWAP3 SWAP2 POP POP JUMP JUMPDEST PUSH0 PUSH2 0x3D2 DUP3 PUSH2 0x2C5 JUMP JUMPDEST SWAP1 POP SWAP2 SWAP1 POP JUMP JUMPDEST PUSH2 0x3E2 DUP2 PUSH2 0x3C8 JUMP JUMPDEST DUP2 EQ PUSH2 0x3EC JUMPI PUSH0 DUP1 REVERT JUMPDEST POP JUMP JUMPDEST PUSH0 DUP2 CALLDATALOAD SWAP1 POP PUSH2 0x3FD DUP2 PUSH2 0x3D9 JUMP JUMPDEST SWAP3 SWAP2 POP POP JUMP JUMPDEST PUSH0 DUP1 PUSH0 DUP1 PUSH0 PUSH1 0xA0 DUP7 DUP9 SUB SLT ISZERO PUSH2 0x41C JUMPI PUSH2 0x41B PUSH2 0x391 JUMP JUMPDEST JUMPDEST PUSH0 PUSH2 0x429 DUP9 DUP3 DUP10 ADD PUSH2 0x3B4 JUMP JUMPDEST SWAP6 POP POP PUSH1 0x20 PUSH2 0x43A DUP9 DUP3 DUP10 ADD PUSH2 0x3B4 JUMP JUMPDEST SWAP5 POP POP PUSH1 0x40 PUSH2 0x44B DUP9 DUP3 DUP10 ADD PUSH2 0x3EF JUMP JUMPDEST SWAP4 POP POP PUSH1 0x60 PUSH2 0x45C DUP9 DUP3 DUP10 ADD PUSH2 0x3EF JUMP JUMPDEST SWAP3 POP POP PUSH1 0x80 PUSH2 0x46D DUP9 DUP3 DUP10 ADD PUSH2 0x3B4 JUMP JUMPDEST SWAP2 POP POP SWAP3 SWAP6 POP SWAP3 SWAP6 SWAP1 SWAP4 POP JUMP JUMPDEST PUSH0 PUSH2 0x484 DUP3 PUSH2 0x30E JUMP JUMPDEST SWAP1 POP SWAP2 SWAP1 POP JUMP JUMPDEST PUSH2 0x494 DUP2 PUSH2 0x47A JUMP JUMPDEST DUP3 MSTORE POP POP JUMP JUMPDEST PUSH0 PUSH1 0x20 DUP3 ADD SWAP1 POP PUSH2 0x4AD PUSH0 DUP4 ADD DUP5 PUSH2 0x48B JUMP JUMPDEST SWAP3 SWAP2 POP POP JUMP JUMPDEST PUSH2 0x4BC DUP2 PUSH2 0x395 JUMP JUMPDEST DUP3 MSTORE POP POP JUMP JUMPDEST PUSH0 PUSH1 0x20 DUP3 ADD SWAP1 POP PUSH2 0x4D5 PUSH0 DUP4 ADD DUP5 PUSH2 0x4B3 JUMP JUMPDEST SWAP3 SWAP2 POP POP JUMP JUMPDEST PUSH0 DUP2 MLOAD SWAP1 POP PUSH2 0x4E9 DUP2 PUSH2 0x3D9 JUMP JUMPDEST SWAP3 SWAP2 POP POP JUMP JUMPDEST PUSH0 PUSH1 0x20 DUP3 DUP5 SUB SLT ISZERO PUSH2 0x504 JUMPI PUSH2 0x503 PUSH2 0x391 JUMP JUMPDEST JUMPDEST PUSH0 PUSH2 0x511 DUP5 DUP3 DUP6 ADD PUSH2 0x4DB JUMP JUMPDEST SWAP2 POP POP SWAP3 SWAP2 POP POP JUMP JUMPDEST PUSH0 DUP3 DUP3 MSTORE PUSH1 0x20 DUP3 ADD SWAP1 POP SWAP3 SWAP2 POP POP JUMP JUMPDEST PUSH32 0x5573657220646F6573206E6F74206F776E204E46440000000000000000000000 PUSH0 DUP3 ADD MSTORE POP JUMP JUMPDEST PUSH0 PUSH2 0x55E PUSH1 0x15 DUP4 PUSH2 0x51A JUMP JUMPDEST SWAP2 POP PUSH2 0x569 DUP3 PUSH2 0x52A JUMP JUMPDEST PUSH1 0x20 DUP3 ADD SWAP1 POP SWAP2 SWAP1 POP JUMP JUMPDEST PUSH0 PUSH1 0x20 DUP3 ADD SWAP1 POP DUP2 DUP2 SUB PUSH0 DUP4 ADD MSTORE PUSH2 0x58B DUP2 PUSH2 0x552 JUMP JUMPDEST SWAP1 POP SWAP2 SWAP1 POP JUMP JUMPDEST PUSH2 0x59B DUP2 PUSH2 0x3C8 JUMP JUMPDEST DUP3 MSTORE POP POP JUMP JUMPDEST PUSH0 PUSH1 0x60 DUP3 ADD SWAP1 POP PUSH2 0x5B4 PUSH0 DUP4 ADD DUP7 PUSH2 0x592 JUMP JUMPDEST PUSH2 0x5C1 PUSH1 0x20 DUP4 ADD DUP6 PUSH2 0x592 JUMP JUMPDEST PUSH2 0x5CE PUSH1 0x40 DUP4 ADD DUP5 PUSH2 0x4B3 JUMP JUMPDEST SWAP5 SWAP4 POP POP POP POP JUMP INVALID LOG2 PUSH5 0x6970667358 0x22 SLT KECCAK256 BLOBBASEFEE 0x2E 0xD9 SWAP8 CHAINID PUSH21 0x910FD0FFCF1D172EACA3881F2BDD99563768F998EE PUSH0 MSTORE 0xD2 BLOBHASH 0x28 PUSH5 0x736F6C6343 STOP ADDMOD BYTE STOP CALLER "
				},
				"gasEstimates": {
					"creation": {
						"codeDepositCost": "309600",
						"executionCost": "infinite",
						"totalCost": "infinite"
					},
					"external": {
						"coin()": "infinite",
						"lockAndBurn(uint256,uint256,address,address,uint256)": "infinite",
						"nfd()": "infinite",
						"settlement()": "infinite"
					}
				},
				"methodIdentifiers": {
					"coin()": "11df9995",
					"lockAndBurn(uint256,uint256,address,address,uint256)": "46fe28a0",
					"nfd()": "3d4b9272",
					"settlement()": "51160630"
				}
			},
			"storageLayout": {
				"storage": [
					{
						"astId": 227,
						"contract": "trustless cross-chain/trading pair formation/LBtMSettlement.sol:LockAndBurnToMint",
						"label": "nfd",
						"offset": 0,
						"slot": "0",
						"type": "t_contract(ICustomERC721)224"
					},
					{
						"astId": 230,
						"contract": "trustless cross-chain/trading pair formation/LBtMSettlement.sol:LockAndBurnToMint",
						"label": "coin",
						"offset": 0,
						"slot": "1",
						"type": "t_contract(IERC20)77"
					},
					{
						"astId": 233,
						"contract": "trustless cross-chain/trading pair formation/LBtMSettlement.sol:LockAndBurnToMint",
						"label": "settlement",
						"offset": 0,
						"slot": "2",
						"type": "t_contract(Settlement)426"
					}
				],
				"types": {
					"t_contract(ICustomERC721)224": {
						"encoding": "inplace",
						"label": "contract ICustomERC721",
						"numberOfBytes": "20"
					},
					"t_contract(IERC20)77": {
						"encoding": "inplace",
						"label": "contract IERC20",
						"numberOfBytes": "20"
					},
					"t_contract(Settlement)426": {
						"encoding": "inplace",
						"label": "contract Settlement",
						"numberOfBytes": "20"
					}
				}
			},
			"userdoc": {
				"kind": "user",
				"methods": {},
				"version": 1
			}
		}
	}
}