{
	"trustless cross-chain/trading pair formation/Deposit.sol": {
		"Deposit": {
			"abi": [
				{
					"inputs": [],
					"stateMutability": "nonpayable",
					"type": "constructor"
				},
				{
					"inputs": [
						{
							"internalType": "address",
							"name": "user",
							"type": "address"
						}
					],
					"name": "confiscateAndWithdraw",
					"outputs": [],
					"stateMutability": "nonpayable",
					"type": "function"
				},
				{
					"inputs": [
						{
							"internalType": "uint256",
							"name": "k",
							"type": "uint256"
						}
					],
					"name": "deposit",
					"outputs": [],
					"stateMutability": "payable",
					"type": "function"
				},
				{
					"inputs": [
						{
							"internalType": "address",
							"name": "",
							"type": "address"
						}
					],
					"name": "deposits",
					"outputs": [
						{
							"internalType": "uint256",
							"name": "amount",
							"type": "uint256"
						},
						{
							"internalType": "uint256",
							"name": "unlockBlock",
							"type": "uint256"
						}
					],
					"stateMutability": "view",
					"type": "function"
				},
				{
					"inputs": [
						{
							"internalType": "address",
							"name": "user",
							"type": "address"
						}
					],
					"name": "getDepositInfo",
					"outputs": [
						{
							"components": [
								{
									"internalType": "uint256",
									"name": "amount",
									"type": "uint256"
								},
								{
									"internalType": "uint256",
									"name": "unlockBlock",
									"type": "uint256"
								}
							],
							"internalType": "struct Deposit.DepositInfo",
							"name": "",
							"type": "tuple"
						}
					],
					"stateMutability": "view",
					"type": "function"
				},
				{
					"inputs": [],
					"name": "owner",
					"outputs": [
						{
							"internalType": "address",
							"name": "",
							"type": "address"
						}
					],
					"stateMutability": "view",
					"type": "function"
				},
				{
					"inputs": [
						{
							"internalType": "address",
							"name": "_validationContract",
							"type": "address"
						}
					],
					"name": "setValidationContract",
					"outputs": [],
					"stateMutability": "nonpayable",
					"type": "function"
				},
				{
					"inputs": [],
					"name": "validationContract",
					"outputs": [
						{
							"internalType": "address",
							"name": "",
							"type": "address"
						}
					],
					"stateMutability": "view",
					"type": "function"
				},
				{
					"inputs": [],
					"name": "withdraw",
					"outputs": [],
					"stateMutability": "nonpayable",
					"type": "function"
				}
			],
			"devdoc": {
				"kind": "dev",
				"methods": {},
				"version": 1
			},
			"evm": {
				"assembly": "    /* \"trustless cross-chain/trading pair formation/Deposit.sol\":25:1660  contract Deposit {... */\n  mstore(0x40, 0x80)\n    /* \"trustless cross-chain/trading pair formation/Deposit.sol\":253:302  constructor() {... */\n  callvalue\n  dup1\n  iszero\n  tag_1\n  jumpi\n  0x00\n  dup1\n  revert\ntag_1:\n  pop\n    /* \"trustless cross-chain/trading pair formation/Deposit.sol\":285:295  msg.sender */\n  caller\n    /* \"trustless cross-chain/trading pair formation/Deposit.sol\":277:282  owner */\n  0x02\n  0x00\n    /* \"trustless cross-chain/trading pair formation/Deposit.sol\":277:295  owner = msg.sender */\n  0x0100\n  exp\n  dup2\n  sload\n  dup2\n  0xffffffffffffffffffffffffffffffffffffffff\n  mul\n  not\n  and\n  swap1\n  dup4\n  0xffffffffffffffffffffffffffffffffffffffff\n  and\n  mul\n  or\n  swap1\n  sstore\n  pop\n    /* \"trustless cross-chain/trading pair formation/Deposit.sol\":25:1660  contract Deposit {... */\n  dataSize(sub_0)\n  dup1\n  dataOffset(sub_0)\n  0x00\n  codecopy\n  0x00\n  return\nstop\n\nsub_0: assembly {\n        /* \"trustless cross-chain/trading pair formation/Deposit.sol\":25:1660  contract Deposit {... */\n      mstore(0x40, 0x80)\n      jumpi(tag_1, lt(calldatasize, 0x04))\n      shr(0xe0, calldataload(0x00))\n      dup1\n      0x8da5cb5b\n      gt\n      tag_10\n      jumpi\n      dup1\n      0x8da5cb5b\n      eq\n      tag_6\n      jumpi\n      dup1\n      0xb6b55f25\n      eq\n      tag_7\n      jumpi\n      dup1\n      0xd2b409a1\n      eq\n      tag_8\n      jumpi\n      dup1\n      0xfc7e286d\n      eq\n      tag_9\n      jumpi\n      jump(tag_1)\n    tag_10:\n      dup1\n      0x3ccfd60b\n      eq\n      tag_2\n      jumpi\n      dup1\n      0x5287ce12\n      eq\n      tag_3\n      jumpi\n      dup1\n      0x5349607d\n      eq\n      tag_4\n      jumpi\n      dup1\n      0x67a6d3b1\n      eq\n      tag_5\n      jumpi\n    tag_1:\n      0x00\n      dup1\n      revert\n        /* \"trustless cross-chain/trading pair formation/Deposit.sol\":903:1242  function withdraw() external {... */\n    tag_2:\n      callvalue\n      dup1\n      iszero\n      tag_11\n      jumpi\n      0x00\n      dup1\n      revert\n    tag_11:\n      pop\n      tag_12\n      tag_13\n      jump\t// in\n    tag_12:\n      stop\n        /* \"trustless cross-chain/trading pair formation/Deposit.sol\":1539:1658  function getDepositInfo(address user) external view returns (DepositInfo memory) {... */\n    tag_3:\n      callvalue\n      dup1\n      iszero\n      tag_14\n      jumpi\n      0x00\n      dup1\n      revert\n    tag_14:\n      pop\n      tag_15\n      0x04\n      dup1\n      calldatasize\n      sub\n      dup2\n      add\n      swap1\n      tag_16\n      swap2\n      swap1\n      tag_17\n      jump\t// in\n    tag_16:\n      tag_18\n      jump\t// in\n    tag_15:\n      mload(0x40)\n      tag_19\n      swap2\n      swap1\n      tag_20\n      jump\t// in\n    tag_19:\n      mload(0x40)\n      dup1\n      swap2\n      sub\n      swap1\n      return\n        /* \"trustless cross-chain/trading pair formation/Deposit.sol\":1248:1533  function confiscateAndWithdraw(address user) external {... */\n    tag_4:\n      callvalue\n      dup1\n      iszero\n      tag_21\n      jumpi\n      0x00\n      dup1\n      revert\n    tag_21:\n      pop\n      tag_22\n      0x04\n      dup1\n      calldatasize\n      sub\n      dup2\n      add\n      swap1\n      tag_23\n      swap2\n      swap1\n      tag_17\n      jump\t// in\n    tag_23:\n      tag_24\n      jump\t// in\n    tag_22:\n      stop\n        /* \"trustless cross-chain/trading pair formation/Deposit.sol\":418:554  function setValidationContract(address _validationContract) external onlyOwner {... */\n    tag_5:\n      callvalue\n      dup1\n      iszero\n      tag_25\n      jumpi\n      0x00\n      dup1\n      revert\n    tag_25:\n      pop\n      tag_26\n      0x04\n      dup1\n      calldatasize\n      sub\n      dup2\n      add\n      swap1\n      tag_27\n      swap2\n      swap1\n      tag_17\n      jump\t// in\n    tag_27:\n      tag_28\n      jump\t// in\n    tag_26:\n      stop\n        /* \"trustless cross-chain/trading pair formation/Deposit.sol\":226:246  address public owner */\n    tag_6:\n      callvalue\n      dup1\n      iszero\n      tag_29\n      jumpi\n      0x00\n      dup1\n      revert\n    tag_29:\n      pop\n      tag_30\n      tag_31\n      jump\t// in\n    tag_30:\n      mload(0x40)\n      tag_32\n      swap2\n      swap1\n      tag_33\n      jump\t// in\n    tag_32:\n      mload(0x40)\n      dup1\n      swap2\n      sub\n      swap1\n      return\n        /* \"trustless cross-chain/trading pair formation/Deposit.sol\":560:894  function deposit(uint256 k) external payable {... */\n    tag_7:\n      tag_34\n      0x04\n      dup1\n      calldatasize\n      sub\n      dup2\n      add\n      swap1\n      tag_35\n      swap2\n      swap1\n      tag_36\n      jump\t// in\n    tag_35:\n      tag_37\n      jump\t// in\n    tag_34:\n      stop\n        /* \"trustless cross-chain/trading pair formation/Deposit.sol\":186:219  address public validationContract */\n    tag_8:\n      callvalue\n      dup1\n      iszero\n      tag_38\n      jumpi\n      0x00\n      dup1\n      revert\n    tag_38:\n      pop\n      tag_39\n      tag_40\n      jump\t// in\n    tag_39:\n      mload(0x40)\n      tag_41\n      swap2\n      swap1\n      tag_33\n      jump\t// in\n    tag_41:\n      mload(0x40)\n      dup1\n      swap2\n      sub\n      swap1\n      return\n        /* \"trustless cross-chain/trading pair formation/Deposit.sol\":133:180  mapping(address => DepositInfo) public deposits */\n    tag_9:\n      callvalue\n      dup1\n      iszero\n      tag_42\n      jumpi\n      0x00\n      dup1\n      revert\n    tag_42:\n      pop\n      tag_43\n      0x04\n      dup1\n      calldatasize\n      sub\n      dup2\n      add\n      swap1\n      tag_44\n      swap2\n      swap1\n      tag_17\n      jump\t// in\n    tag_44:\n      tag_45\n      jump\t// in\n    tag_43:\n      mload(0x40)\n      tag_46\n      swap3\n      swap2\n      swap1\n      tag_47\n      jump\t// in\n    tag_46:\n      mload(0x40)\n      dup1\n      swap2\n      sub\n      swap1\n      return\n        /* \"trustless cross-chain/trading pair formation/Deposit.sol\":903:1242  function withdraw() external {... */\n    tag_13:\n        /* \"trustless cross-chain/trading pair formation/Deposit.sol\":980:981  0 */\n      0x00\n        /* \"trustless cross-chain/trading pair formation/Deposit.sol\":950:958  deposits */\n      dup1\n        /* \"trustless cross-chain/trading pair formation/Deposit.sol\":950:970  deposits[msg.sender] */\n      0x00\n        /* \"trustless cross-chain/trading pair formation/Deposit.sol\":959:969  msg.sender */\n      caller\n        /* \"trustless cross-chain/trading pair formation/Deposit.sol\":950:970  deposits[msg.sender] */\n      0xffffffffffffffffffffffffffffffffffffffff\n      and\n      0xffffffffffffffffffffffffffffffffffffffff\n      and\n      dup2\n      mstore\n      0x20\n      add\n      swap1\n      dup2\n      mstore\n      0x20\n      add\n      0x00\n      keccak256\n        /* \"trustless cross-chain/trading pair formation/Deposit.sol\":950:977  deposits[msg.sender].amount */\n      0x00\n      add\n      sload\n        /* \"trustless cross-chain/trading pair formation/Deposit.sol\":950:981  deposits[msg.sender].amount > 0 */\n      gt\n        /* \"trustless cross-chain/trading pair formation/Deposit.sol\":942:1002  require(deposits[msg.sender].amount > 0, \"No deposit found\") */\n      tag_49\n      jumpi\n      mload(0x40)\n      0x08c379a000000000000000000000000000000000000000000000000000000000\n      dup2\n      mstore\n      0x04\n      add\n      tag_50\n      swap1\n      tag_51\n      jump\t// in\n    tag_50:\n      mload(0x40)\n      dup1\n      swap2\n      sub\n      swap1\n      revert\n    tag_49:\n        /* \"trustless cross-chain/trading pair formation/Deposit.sol\":1036:1044  deposits */\n      0x00\n        /* \"trustless cross-chain/trading pair formation/Deposit.sol\":1036:1056  deposits[msg.sender] */\n      dup1\n        /* \"trustless cross-chain/trading pair formation/Deposit.sol\":1045:1055  msg.sender */\n      caller\n        /* \"trustless cross-chain/trading pair formation/Deposit.sol\":1036:1056  deposits[msg.sender] */\n      0xffffffffffffffffffffffffffffffffffffffff\n      and\n      0xffffffffffffffffffffffffffffffffffffffff\n      and\n      dup2\n      mstore\n      0x20\n      add\n      swap1\n      dup2\n      mstore\n      0x20\n      add\n      0x00\n      keccak256\n        /* \"trustless cross-chain/trading pair formation/Deposit.sol\":1036:1068  deposits[msg.sender].unlockBlock */\n      0x01\n      add\n      sload\n        /* \"trustless cross-chain/trading pair formation/Deposit.sol\":1020:1032  block.number */\n      number\n        /* \"trustless cross-chain/trading pair formation/Deposit.sol\":1020:1068  block.number >= deposits[msg.sender].unlockBlock */\n      lt\n      iszero\n        /* \"trustless cross-chain/trading pair formation/Deposit.sol\":1012:1093  require(block.number >= deposits[msg.sender].unlockBlock, \"Withdrawal is locked\") */\n      tag_52\n      jumpi\n      mload(0x40)\n      0x08c379a000000000000000000000000000000000000000000000000000000000\n      dup2\n      mstore\n      0x04\n      add\n      tag_53\n      swap1\n      tag_54\n      jump\t// in\n    tag_53:\n      mload(0x40)\n      dup1\n      swap2\n      sub\n      swap1\n      revert\n    tag_52:\n        /* \"trustless cross-chain/trading pair formation/Deposit.sol\":1104:1118  uint256 amount */\n      0x00\n        /* \"trustless cross-chain/trading pair formation/Deposit.sol\":1121:1129  deposits */\n      dup1\n        /* \"trustless cross-chain/trading pair formation/Deposit.sol\":1121:1141  deposits[msg.sender] */\n      0x00\n        /* \"trustless cross-chain/trading pair formation/Deposit.sol\":1130:1140  msg.sender */\n      caller\n        /* \"trustless cross-chain/trading pair formation/Deposit.sol\":1121:1141  deposits[msg.sender] */\n      0xffffffffffffffffffffffffffffffffffffffff\n      and\n      0xffffffffffffffffffffffffffffffffffffffff\n      and\n      dup2\n      mstore\n      0x20\n      add\n      swap1\n      dup2\n      mstore\n      0x20\n      add\n      0x00\n      keccak256\n        /* \"trustless cross-chain/trading pair formation/Deposit.sol\":1121:1148  deposits[msg.sender].amount */\n      0x00\n      add\n      sload\n        /* \"trustless cross-chain/trading pair formation/Deposit.sol\":1104:1148  uint256 amount = deposits[msg.sender].amount */\n      swap1\n      pop\n        /* \"trustless cross-chain/trading pair formation/Deposit.sol\":1188:1189  0 */\n      0x00\n        /* \"trustless cross-chain/trading pair formation/Deposit.sol\":1158:1166  deposits */\n      dup1\n        /* \"trustless cross-chain/trading pair formation/Deposit.sol\":1158:1178  deposits[msg.sender] */\n      0x00\n        /* \"trustless cross-chain/trading pair formation/Deposit.sol\":1167:1177  msg.sender */\n      caller\n        /* \"trustless cross-chain/trading pair formation/Deposit.sol\":1158:1178  deposits[msg.sender] */\n      0xffffffffffffffffffffffffffffffffffffffff\n      and\n      0xffffffffffffffffffffffffffffffffffffffff\n      and\n      dup2\n      mstore\n      0x20\n      add\n      swap1\n      dup2\n      mstore\n      0x20\n      add\n      0x00\n      keccak256\n        /* \"trustless cross-chain/trading pair formation/Deposit.sol\":1158:1185  deposits[msg.sender].amount */\n      0x00\n      add\n        /* \"trustless cross-chain/trading pair formation/Deposit.sol\":1158:1189  deposits[msg.sender].amount = 0 */\n      dup2\n      swap1\n      sstore\n      pop\n        /* \"trustless cross-chain/trading pair formation/Deposit.sol\":1207:1217  msg.sender */\n      caller\n        /* \"trustless cross-chain/trading pair formation/Deposit.sol\":1199:1227  payable(msg.sender).transfer */\n      0xffffffffffffffffffffffffffffffffffffffff\n      and\n        /* \"trustless cross-chain/trading pair formation/Deposit.sol\":1199:1235  payable(msg.sender).transfer(amount) */\n      0x08fc\n        /* \"trustless cross-chain/trading pair formation/Deposit.sol\":1228:1234  amount */\n      dup3\n        /* \"trustless cross-chain/trading pair formation/Deposit.sol\":1199:1235  payable(msg.sender).transfer(amount) */\n      swap1\n      dup2\n      iszero\n      mul\n      swap1\n      mload(0x40)\n      0x00\n      mload(0x40)\n      dup1\n      dup4\n      sub\n      dup2\n      dup6\n      dup9\n      dup9\n      call\n      swap4\n      pop\n      pop\n      pop\n      pop\n      iszero\n      dup1\n      iszero\n      tag_56\n      jumpi\n      returndatasize\n      0x00\n      dup1\n      returndatacopy\n      revert(0x00, returndatasize)\n    tag_56:\n      pop\n        /* \"trustless cross-chain/trading pair formation/Deposit.sol\":932:1242  {... */\n      pop\n        /* \"trustless cross-chain/trading pair formation/Deposit.sol\":903:1242  function withdraw() external {... */\n      jump\t// out\n        /* \"trustless cross-chain/trading pair formation/Deposit.sol\":1539:1658  function getDepositInfo(address user) external view returns (DepositInfo memory) {... */\n    tag_18:\n        /* \"trustless cross-chain/trading pair formation/Deposit.sol\":1600:1618  DepositInfo memory */\n      tag_57\n      tag_58\n      jump\t// in\n    tag_57:\n        /* \"trustless cross-chain/trading pair formation/Deposit.sol\":1637:1645  deposits */\n      0x00\n        /* \"trustless cross-chain/trading pair formation/Deposit.sol\":1637:1651  deposits[user] */\n      dup1\n        /* \"trustless cross-chain/trading pair formation/Deposit.sol\":1646:1650  user */\n      dup4\n        /* \"trustless cross-chain/trading pair formation/Deposit.sol\":1637:1651  deposits[user] */\n      0xffffffffffffffffffffffffffffffffffffffff\n      and\n      0xffffffffffffffffffffffffffffffffffffffff\n      and\n      dup2\n      mstore\n      0x20\n      add\n      swap1\n      dup2\n      mstore\n      0x20\n      add\n      0x00\n      keccak256\n        /* \"trustless cross-chain/trading pair formation/Deposit.sol\":1630:1651  return deposits[user] */\n      mload(0x40)\n      dup1\n      0x40\n      add\n      0x40\n      mstore\n      swap1\n      dup2\n      0x00\n      dup3\n      add\n      sload\n      dup2\n      mstore\n      0x20\n      add\n      0x01\n      dup3\n      add\n      sload\n      dup2\n      mstore\n      pop\n      pop\n      swap1\n      pop\n        /* \"trustless cross-chain/trading pair formation/Deposit.sol\":1539:1658  function getDepositInfo(address user) external view returns (DepositInfo memory) {... */\n      swap2\n      swap1\n      pop\n      jump\t// out\n        /* \"trustless cross-chain/trading pair formation/Deposit.sol\":1248:1533  function confiscateAndWithdraw(address user) external {... */\n    tag_24:\n        /* \"trustless cross-chain/trading pair formation/Deposit.sol\":1334:1352  validationContract */\n      0x01\n      0x00\n      swap1\n      sload\n      swap1\n      0x0100\n      exp\n      swap1\n      div\n      0xffffffffffffffffffffffffffffffffffffffff\n      and\n        /* \"trustless cross-chain/trading pair formation/Deposit.sol\":1320:1352  msg.sender == validationContract */\n      0xffffffffffffffffffffffffffffffffffffffff\n      and\n        /* \"trustless cross-chain/trading pair formation/Deposit.sol\":1320:1330  msg.sender */\n      caller\n        /* \"trustless cross-chain/trading pair formation/Deposit.sol\":1320:1352  msg.sender == validationContract */\n      0xffffffffffffffffffffffffffffffffffffffff\n      and\n      eq\n        /* \"trustless cross-chain/trading pair formation/Deposit.sol\":1312:1396  require(msg.sender == validationContract, \"Only validation contract can confiscate\") */\n      tag_61\n      jumpi\n      mload(0x40)\n      0x08c379a000000000000000000000000000000000000000000000000000000000\n      dup2\n      mstore\n      0x04\n      add\n      tag_62\n      swap1\n      tag_63\n      jump\t// in\n    tag_62:\n      mload(0x40)\n      dup1\n      swap2\n      sub\n      swap1\n      revert\n    tag_61:\n        /* \"trustless cross-chain/trading pair formation/Deposit.sol\":1407:1421  uint256 amount */\n      0x00\n        /* \"trustless cross-chain/trading pair formation/Deposit.sol\":1424:1432  deposits */\n      dup1\n        /* \"trustless cross-chain/trading pair formation/Deposit.sol\":1424:1438  deposits[user] */\n      0x00\n        /* \"trustless cross-chain/trading pair formation/Deposit.sol\":1433:1437  user */\n      dup4\n        /* \"trustless cross-chain/trading pair formation/Deposit.sol\":1424:1438  deposits[user] */\n      0xffffffffffffffffffffffffffffffffffffffff\n      and\n      0xffffffffffffffffffffffffffffffffffffffff\n      and\n      dup2\n      mstore\n      0x20\n      add\n      swap1\n      dup2\n      mstore\n      0x20\n      add\n      0x00\n      keccak256\n        /* \"trustless cross-chain/trading pair formation/Deposit.sol\":1424:1445  deposits[user].amount */\n      0x00\n      add\n      sload\n        /* \"trustless cross-chain/trading pair formation/Deposit.sol\":1407:1445  uint256 amount = deposits[user].amount */\n      swap1\n      pop\n        /* \"trustless cross-chain/trading pair formation/Deposit.sol\":1479:1480  0 */\n      0x00\n        /* \"trustless cross-chain/trading pair formation/Deposit.sol\":1455:1463  deposits */\n      dup1\n        /* \"trustless cross-chain/trading pair formation/Deposit.sol\":1455:1469  deposits[user] */\n      0x00\n        /* \"trustless cross-chain/trading pair formation/Deposit.sol\":1464:1468  user */\n      dup5\n        /* \"trustless cross-chain/trading pair formation/Deposit.sol\":1455:1469  deposits[user] */\n      0xffffffffffffffffffffffffffffffffffffffff\n      and\n      0xffffffffffffffffffffffffffffffffffffffff\n      and\n      dup2\n      mstore\n      0x20\n      add\n      swap1\n      dup2\n      mstore\n      0x20\n      add\n      0x00\n      keccak256\n        /* \"trustless cross-chain/trading pair formation/Deposit.sol\":1455:1476  deposits[user].amount */\n      0x00\n      add\n        /* \"trustless cross-chain/trading pair formation/Deposit.sol\":1455:1480  deposits[user].amount = 0 */\n      dup2\n      swap1\n      sstore\n      pop\n        /* \"trustless cross-chain/trading pair formation/Deposit.sol\":1498:1508  msg.sender */\n      caller\n        /* \"trustless cross-chain/trading pair formation/Deposit.sol\":1490:1518  payable(msg.sender).transfer */\n      0xffffffffffffffffffffffffffffffffffffffff\n      and\n        /* \"trustless cross-chain/trading pair formation/Deposit.sol\":1490:1526  payable(msg.sender).transfer(amount) */\n      0x08fc\n        /* \"trustless cross-chain/trading pair formation/Deposit.sol\":1519:1525  amount */\n      dup3\n        /* \"trustless cross-chain/trading pair formation/Deposit.sol\":1490:1526  payable(msg.sender).transfer(amount) */\n      swap1\n      dup2\n      iszero\n      mul\n      swap1\n      mload(0x40)\n      0x00\n      mload(0x40)\n      dup1\n      dup4\n      sub\n      dup2\n      dup6\n      dup9\n      dup9\n      call\n      swap4\n      pop\n      pop\n      pop\n      pop\n      iszero\n      dup1\n      iszero\n      tag_65\n      jumpi\n      returndatasize\n      0x00\n      dup1\n      returndatacopy\n      revert(0x00, returndatasize)\n    tag_65:\n      pop\n        /* \"trustless cross-chain/trading pair formation/Deposit.sol\":1302:1533  {... */\n      pop\n        /* \"trustless cross-chain/trading pair formation/Deposit.sol\":1248:1533  function confiscateAndWithdraw(address user) external {... */\n      pop\n      jump\t// out\n        /* \"trustless cross-chain/trading pair formation/Deposit.sol\":418:554  function setValidationContract(address _validationContract) external onlyOwner {... */\n    tag_28:\n        /* \"trustless cross-chain/trading pair formation/Deposit.sol\":361:366  owner */\n      0x02\n      0x00\n      swap1\n      sload\n      swap1\n      0x0100\n      exp\n      swap1\n      div\n      0xffffffffffffffffffffffffffffffffffffffff\n      and\n        /* \"trustless cross-chain/trading pair formation/Deposit.sol\":347:366  msg.sender == owner */\n      0xffffffffffffffffffffffffffffffffffffffff\n      and\n        /* \"trustless cross-chain/trading pair formation/Deposit.sol\":347:357  msg.sender */\n      caller\n        /* \"trustless cross-chain/trading pair formation/Deposit.sol\":347:366  msg.sender == owner */\n      0xffffffffffffffffffffffffffffffffffffffff\n      and\n      eq\n        /* \"trustless cross-chain/trading pair formation/Deposit.sol\":339:394  require(msg.sender == owner, \"Caller is not the owner\") */\n      tag_67\n      jumpi\n      mload(0x40)\n      0x08c379a000000000000000000000000000000000000000000000000000000000\n      dup2\n      mstore\n      0x04\n      add\n      tag_68\n      swap1\n      tag_69\n      jump\t// in\n    tag_68:\n      mload(0x40)\n      dup1\n      swap2\n      sub\n      swap1\n      revert\n    tag_67:\n        /* \"trustless cross-chain/trading pair formation/Deposit.sol\":528:547  _validationContract */\n      dup1\n        /* \"trustless cross-chain/trading pair formation/Deposit.sol\":507:525  validationContract */\n      0x01\n      0x00\n        /* \"trustless cross-chain/trading pair formation/Deposit.sol\":507:547  validationContract = _validationContract */\n      0x0100\n      exp\n      dup2\n      sload\n      dup2\n      0xffffffffffffffffffffffffffffffffffffffff\n      mul\n      not\n      and\n      swap1\n      dup4\n      0xffffffffffffffffffffffffffffffffffffffff\n      and\n      mul\n      or\n      swap1\n      sstore\n      pop\n        /* \"trustless cross-chain/trading pair formation/Deposit.sol\":418:554  function setValidationContract(address _validationContract) external onlyOwner {... */\n      pop\n      jump\t// out\n        /* \"trustless cross-chain/trading pair formation/Deposit.sol\":226:246  address public owner */\n    tag_31:\n      0x02\n      0x00\n      swap1\n      sload\n      swap1\n      0x0100\n      exp\n      swap1\n      div\n      0xffffffffffffffffffffffffffffffffffffffff\n      and\n      dup2\n      jump\t// out\n        /* \"trustless cross-chain/trading pair formation/Deposit.sol\":560:894  function deposit(uint256 k) external payable {... */\n    tag_37:\n        /* \"trustless cross-chain/trading pair formation/Deposit.sol\":790:887  DepositInfo({... */\n      mload(0x40)\n      dup1\n      0x40\n      add\n      0x40\n      mstore\n      dup1\n        /* \"trustless cross-chain/trading pair formation/Deposit.sol\":824:833  msg.value */\n      callvalue\n        /* \"trustless cross-chain/trading pair formation/Deposit.sol\":790:887  DepositInfo({... */\n      dup2\n      mstore\n      0x20\n      add\n        /* \"trustless cross-chain/trading pair formation/Deposit.sol\":875:876  k */\n      dup3\n        /* \"trustless cross-chain/trading pair formation/Deposit.sol\":860:872  block.number */\n      number\n        /* \"trustless cross-chain/trading pair formation/Deposit.sol\":860:876  block.number + k */\n      tag_72\n      swap2\n      swap1\n      tag_73\n      jump\t// in\n    tag_72:\n        /* \"trustless cross-chain/trading pair formation/Deposit.sol\":790:887  DepositInfo({... */\n      dup2\n      mstore\n      pop\n        /* \"trustless cross-chain/trading pair formation/Deposit.sol\":767:775  deposits */\n      0x00\n        /* \"trustless cross-chain/trading pair formation/Deposit.sol\":767:787  deposits[msg.sender] */\n      dup1\n        /* \"trustless cross-chain/trading pair formation/Deposit.sol\":776:786  msg.sender */\n      caller\n        /* \"trustless cross-chain/trading pair formation/Deposit.sol\":767:787  deposits[msg.sender] */\n      0xffffffffffffffffffffffffffffffffffffffff\n      and\n      0xffffffffffffffffffffffffffffffffffffffff\n      and\n      dup2\n      mstore\n      0x20\n      add\n      swap1\n      dup2\n      mstore\n      0x20\n      add\n      0x00\n      keccak256\n        /* \"trustless cross-chain/trading pair formation/Deposit.sol\":767:887  deposits[msg.sender] = DepositInfo({... */\n      0x00\n      dup3\n      add\n      mload\n      dup2\n      0x00\n      add\n      sstore\n      0x20\n      dup3\n      add\n      mload\n      dup2\n      0x01\n      add\n      sstore\n      swap1\n      pop\n      pop\n        /* \"trustless cross-chain/trading pair formation/Deposit.sol\":560:894  function deposit(uint256 k) external payable {... */\n      pop\n      jump\t// out\n        /* \"trustless cross-chain/trading pair formation/Deposit.sol\":186:219  address public validationContract */\n    tag_40:\n      0x01\n      0x00\n      swap1\n      sload\n      swap1\n      0x0100\n      exp\n      swap1\n      div\n      0xffffffffffffffffffffffffffffffffffffffff\n      and\n      dup2\n      jump\t// out\n        /* \"trustless cross-chain/trading pair formation/Deposit.sol\":133:180  mapping(address => DepositInfo) public deposits */\n    tag_45:\n      mstore(0x20, 0x00)\n      dup1\n      0x00\n      mstore\n      keccak256(0x00, 0x40)\n      0x00\n      swap2\n      pop\n      swap1\n      pop\n      dup1\n      0x00\n      add\n      sload\n      swap1\n      dup1\n      0x01\n      add\n      sload\n      swap1\n      pop\n      dup3\n      jump\t// out\n    tag_58:\n      mload(0x40)\n      dup1\n      0x40\n      add\n      0x40\n      mstore\n      dup1\n      0x00\n      dup2\n      mstore\n      0x20\n      add\n      0x00\n      dup2\n      mstore\n      pop\n      swap1\n      jump\t// out\n        /* \"#utility.yul\":88:205   */\n    tag_75:\n        /* \"#utility.yul\":197:198   */\n      0x00\n        /* \"#utility.yul\":194:195   */\n      dup1\n        /* \"#utility.yul\":187:199   */\n      revert\n        /* \"#utility.yul\":334:460   */\n    tag_77:\n        /* \"#utility.yul\":371:378   */\n      0x00\n        /* \"#utility.yul\":411:453   */\n      0xffffffffffffffffffffffffffffffffffffffff\n        /* \"#utility.yul\":404:409   */\n      dup3\n        /* \"#utility.yul\":400:454   */\n      and\n        /* \"#utility.yul\":389:454   */\n      swap1\n      pop\n        /* \"#utility.yul\":334:460   */\n      swap2\n      swap1\n      pop\n      jump\t// out\n        /* \"#utility.yul\":466:562   */\n    tag_78:\n        /* \"#utility.yul\":503:510   */\n      0x00\n        /* \"#utility.yul\":532:556   */\n      tag_104\n        /* \"#utility.yul\":550:555   */\n      dup3\n        /* \"#utility.yul\":532:556   */\n      tag_77\n      jump\t// in\n    tag_104:\n        /* \"#utility.yul\":521:556   */\n      swap1\n      pop\n        /* \"#utility.yul\":466:562   */\n      swap2\n      swap1\n      pop\n      jump\t// out\n        /* \"#utility.yul\":568:690   */\n    tag_79:\n        /* \"#utility.yul\":641:665   */\n      tag_106\n        /* \"#utility.yul\":659:664   */\n      dup2\n        /* \"#utility.yul\":641:665   */\n      tag_78\n      jump\t// in\n    tag_106:\n        /* \"#utility.yul\":634:639   */\n      dup2\n        /* \"#utility.yul\":631:666   */\n      eq\n        /* \"#utility.yul\":621:684   */\n      tag_107\n      jumpi\n        /* \"#utility.yul\":680:681   */\n      0x00\n        /* \"#utility.yul\":677:678   */\n      dup1\n        /* \"#utility.yul\":670:682   */\n      revert\n        /* \"#utility.yul\":621:684   */\n    tag_107:\n        /* \"#utility.yul\":568:690   */\n      pop\n      jump\t// out\n        /* \"#utility.yul\":696:835   */\n    tag_80:\n        /* \"#utility.yul\":742:747   */\n      0x00\n        /* \"#utility.yul\":780:786   */\n      dup2\n        /* \"#utility.yul\":767:787   */\n      calldataload\n        /* \"#utility.yul\":758:787   */\n      swap1\n      pop\n        /* \"#utility.yul\":796:829   */\n      tag_109\n        /* \"#utility.yul\":823:828   */\n      dup2\n        /* \"#utility.yul\":796:829   */\n      tag_79\n      jump\t// in\n    tag_109:\n        /* \"#utility.yul\":696:835   */\n      swap3\n      swap2\n      pop\n      pop\n      jump\t// out\n        /* \"#utility.yul\":841:1170   */\n    tag_17:\n        /* \"#utility.yul\":900:906   */\n      0x00\n        /* \"#utility.yul\":949:951   */\n      0x20\n        /* \"#utility.yul\":937:946   */\n      dup3\n        /* \"#utility.yul\":928:935   */\n      dup5\n        /* \"#utility.yul\":924:947   */\n      sub\n        /* \"#utility.yul\":920:952   */\n      slt\n        /* \"#utility.yul\":917:1036   */\n      iszero\n      tag_111\n      jumpi\n        /* \"#utility.yul\":955:1034   */\n      tag_112\n      tag_75\n      jump\t// in\n    tag_112:\n        /* \"#utility.yul\":917:1036   */\n    tag_111:\n        /* \"#utility.yul\":1075:1076   */\n      0x00\n        /* \"#utility.yul\":1100:1153   */\n      tag_113\n        /* \"#utility.yul\":1145:1152   */\n      dup5\n        /* \"#utility.yul\":1136:1142   */\n      dup3\n        /* \"#utility.yul\":1125:1134   */\n      dup6\n        /* \"#utility.yul\":1121:1143   */\n      add\n        /* \"#utility.yul\":1100:1153   */\n      tag_80\n      jump\t// in\n    tag_113:\n        /* \"#utility.yul\":1090:1153   */\n      swap2\n      pop\n        /* \"#utility.yul\":1046:1163   */\n      pop\n        /* \"#utility.yul\":841:1170   */\n      swap3\n      swap2\n      pop\n      pop\n      jump\t// out\n        /* \"#utility.yul\":1176:1253   */\n    tag_81:\n        /* \"#utility.yul\":1213:1220   */\n      0x00\n        /* \"#utility.yul\":1242:1247   */\n      dup2\n        /* \"#utility.yul\":1231:1247   */\n      swap1\n      pop\n        /* \"#utility.yul\":1176:1253   */\n      swap2\n      swap1\n      pop\n      jump\t// out\n        /* \"#utility.yul\":1259:1367   */\n    tag_82:\n        /* \"#utility.yul\":1336:1360   */\n      tag_116\n        /* \"#utility.yul\":1354:1359   */\n      dup2\n        /* \"#utility.yul\":1336:1360   */\n      tag_81\n      jump\t// in\n    tag_116:\n        /* \"#utility.yul\":1331:1334   */\n      dup3\n        /* \"#utility.yul\":1324:1361   */\n      mstore\n        /* \"#utility.yul\":1259:1367   */\n      pop\n      pop\n      jump\t// out\n        /* \"#utility.yul\":1437:1955   */\n    tag_83:\n        /* \"#utility.yul\":1586:1590   */\n      0x40\n        /* \"#utility.yul\":1581:1584   */\n      dup3\n        /* \"#utility.yul\":1577:1591   */\n      add\n        /* \"#utility.yul\":1675:1679   */\n      0x00\n        /* \"#utility.yul\":1668:1673   */\n      dup3\n        /* \"#utility.yul\":1664:1680   */\n      add\n        /* \"#utility.yul\":1658:1681   */\n      mload\n        /* \"#utility.yul\":1694:1757   */\n      tag_118\n        /* \"#utility.yul\":1751:1755   */\n      0x00\n        /* \"#utility.yul\":1746:1749   */\n      dup6\n        /* \"#utility.yul\":1742:1756   */\n      add\n        /* \"#utility.yul\":1728:1740   */\n      dup3\n        /* \"#utility.yul\":1694:1757   */\n      tag_82\n      jump\t// in\n    tag_118:\n        /* \"#utility.yul\":1601:1767   */\n      pop\n        /* \"#utility.yul\":1856:1860   */\n      0x20\n        /* \"#utility.yul\":1849:1854   */\n      dup3\n        /* \"#utility.yul\":1845:1861   */\n      add\n        /* \"#utility.yul\":1839:1862   */\n      mload\n        /* \"#utility.yul\":1875:1938   */\n      tag_119\n        /* \"#utility.yul\":1932:1936   */\n      0x20\n        /* \"#utility.yul\":1927:1930   */\n      dup6\n        /* \"#utility.yul\":1923:1937   */\n      add\n        /* \"#utility.yul\":1909:1921   */\n      dup3\n        /* \"#utility.yul\":1875:1938   */\n      tag_82\n      jump\t// in\n    tag_119:\n        /* \"#utility.yul\":1777:1948   */\n      pop\n        /* \"#utility.yul\":1555:1955   */\n      pop\n        /* \"#utility.yul\":1437:1955   */\n      pop\n      pop\n      jump\t// out\n        /* \"#utility.yul\":1961:2287   */\n    tag_20:\n        /* \"#utility.yul\":2106:2110   */\n      0x00\n        /* \"#utility.yul\":2144:2146   */\n      0x40\n        /* \"#utility.yul\":2133:2142   */\n      dup3\n        /* \"#utility.yul\":2129:2147   */\n      add\n        /* \"#utility.yul\":2121:2147   */\n      swap1\n      pop\n        /* \"#utility.yul\":2157:2280   */\n      tag_121\n        /* \"#utility.yul\":2277:2278   */\n      0x00\n        /* \"#utility.yul\":2266:2275   */\n      dup4\n        /* \"#utility.yul\":2262:2279   */\n      add\n        /* \"#utility.yul\":2253:2259   */\n      dup5\n        /* \"#utility.yul\":2157:2280   */\n      tag_83\n      jump\t// in\n    tag_121:\n        /* \"#utility.yul\":1961:2287   */\n      swap3\n      swap2\n      pop\n      pop\n      jump\t// out\n        /* \"#utility.yul\":2293:2411   */\n    tag_84:\n        /* \"#utility.yul\":2380:2404   */\n      tag_123\n        /* \"#utility.yul\":2398:2403   */\n      dup2\n        /* \"#utility.yul\":2380:2404   */\n      tag_78\n      jump\t// in\n    tag_123:\n        /* \"#utility.yul\":2375:2378   */\n      dup3\n        /* \"#utility.yul\":2368:2405   */\n      mstore\n        /* \"#utility.yul\":2293:2411   */\n      pop\n      pop\n      jump\t// out\n        /* \"#utility.yul\":2417:2639   */\n    tag_33:\n        /* \"#utility.yul\":2510:2514   */\n      0x00\n        /* \"#utility.yul\":2548:2550   */\n      0x20\n        /* \"#utility.yul\":2537:2546   */\n      dup3\n        /* \"#utility.yul\":2533:2551   */\n      add\n        /* \"#utility.yul\":2525:2551   */\n      swap1\n      pop\n        /* \"#utility.yul\":2561:2632   */\n      tag_125\n        /* \"#utility.yul\":2629:2630   */\n      0x00\n        /* \"#utility.yul\":2618:2627   */\n      dup4\n        /* \"#utility.yul\":2614:2631   */\n      add\n        /* \"#utility.yul\":2605:2611   */\n      dup5\n        /* \"#utility.yul\":2561:2632   */\n      tag_84\n      jump\t// in\n    tag_125:\n        /* \"#utility.yul\":2417:2639   */\n      swap3\n      swap2\n      pop\n      pop\n      jump\t// out\n        /* \"#utility.yul\":2645:2767   */\n    tag_85:\n        /* \"#utility.yul\":2718:2742   */\n      tag_127\n        /* \"#utility.yul\":2736:2741   */\n      dup2\n        /* \"#utility.yul\":2718:2742   */\n      tag_81\n      jump\t// in\n    tag_127:\n        /* \"#utility.yul\":2711:2716   */\n      dup2\n        /* \"#utility.yul\":2708:2743   */\n      eq\n        /* \"#utility.yul\":2698:2761   */\n      tag_128\n      jumpi\n        /* \"#utility.yul\":2757:2758   */\n      0x00\n        /* \"#utility.yul\":2754:2755   */\n      dup1\n        /* \"#utility.yul\":2747:2759   */\n      revert\n        /* \"#utility.yul\":2698:2761   */\n    tag_128:\n        /* \"#utility.yul\":2645:2767   */\n      pop\n      jump\t// out\n        /* \"#utility.yul\":2773:2912   */\n    tag_86:\n        /* \"#utility.yul\":2819:2824   */\n      0x00\n        /* \"#utility.yul\":2857:2863   */\n      dup2\n        /* \"#utility.yul\":2844:2864   */\n      calldataload\n        /* \"#utility.yul\":2835:2864   */\n      swap1\n      pop\n        /* \"#utility.yul\":2873:2906   */\n      tag_130\n        /* \"#utility.yul\":2900:2905   */\n      dup2\n        /* \"#utility.yul\":2873:2906   */\n      tag_85\n      jump\t// in\n    tag_130:\n        /* \"#utility.yul\":2773:2912   */\n      swap3\n      swap2\n      pop\n      pop\n      jump\t// out\n        /* \"#utility.yul\":2918:3247   */\n    tag_36:\n        /* \"#utility.yul\":2977:2983   */\n      0x00\n        /* \"#utility.yul\":3026:3028   */\n      0x20\n        /* \"#utility.yul\":3014:3023   */\n      dup3\n        /* \"#utility.yul\":3005:3012   */\n      dup5\n        /* \"#utility.yul\":3001:3024   */\n      sub\n        /* \"#utility.yul\":2997:3029   */\n      slt\n        /* \"#utility.yul\":2994:3113   */\n      iszero\n      tag_132\n      jumpi\n        /* \"#utility.yul\":3032:3111   */\n      tag_133\n      tag_75\n      jump\t// in\n    tag_133:\n        /* \"#utility.yul\":2994:3113   */\n    tag_132:\n        /* \"#utility.yul\":3152:3153   */\n      0x00\n        /* \"#utility.yul\":3177:3230   */\n      tag_134\n        /* \"#utility.yul\":3222:3229   */\n      dup5\n        /* \"#utility.yul\":3213:3219   */\n      dup3\n        /* \"#utility.yul\":3202:3211   */\n      dup6\n        /* \"#utility.yul\":3198:3220   */\n      add\n        /* \"#utility.yul\":3177:3230   */\n      tag_86\n      jump\t// in\n    tag_134:\n        /* \"#utility.yul\":3167:3230   */\n      swap2\n      pop\n        /* \"#utility.yul\":3123:3240   */\n      pop\n        /* \"#utility.yul\":2918:3247   */\n      swap3\n      swap2\n      pop\n      pop\n      jump\t// out\n        /* \"#utility.yul\":3253:3371   */\n    tag_87:\n        /* \"#utility.yul\":3340:3364   */\n      tag_136\n        /* \"#utility.yul\":3358:3363   */\n      dup2\n        /* \"#utility.yul\":3340:3364   */\n      tag_81\n      jump\t// in\n    tag_136:\n        /* \"#utility.yul\":3335:3338   */\n      dup3\n        /* \"#utility.yul\":3328:3365   */\n      mstore\n        /* \"#utility.yul\":3253:3371   */\n      pop\n      pop\n      jump\t// out\n        /* \"#utility.yul\":3377:3709   */\n    tag_47:\n        /* \"#utility.yul\":3498:3502   */\n      0x00\n        /* \"#utility.yul\":3536:3538   */\n      0x40\n        /* \"#utility.yul\":3525:3534   */\n      dup3\n        /* \"#utility.yul\":3521:3539   */\n      add\n        /* \"#utility.yul\":3513:3539   */\n      swap1\n      pop\n        /* \"#utility.yul\":3549:3620   */\n      tag_138\n        /* \"#utility.yul\":3617:3618   */\n      0x00\n        /* \"#utility.yul\":3606:3615   */\n      dup4\n        /* \"#utility.yul\":3602:3619   */\n      add\n        /* \"#utility.yul\":3593:3599   */\n      dup6\n        /* \"#utility.yul\":3549:3620   */\n      tag_87\n      jump\t// in\n    tag_138:\n        /* \"#utility.yul\":3630:3702   */\n      tag_139\n        /* \"#utility.yul\":3698:3700   */\n      0x20\n        /* \"#utility.yul\":3687:3696   */\n      dup4\n        /* \"#utility.yul\":3683:3701   */\n      add\n        /* \"#utility.yul\":3674:3680   */\n      dup5\n        /* \"#utility.yul\":3630:3702   */\n      tag_87\n      jump\t// in\n    tag_139:\n        /* \"#utility.yul\":3377:3709   */\n      swap4\n      swap3\n      pop\n      pop\n      pop\n      jump\t// out\n        /* \"#utility.yul\":3715:3884   */\n    tag_88:\n        /* \"#utility.yul\":3799:3810   */\n      0x00\n        /* \"#utility.yul\":3833:3839   */\n      dup3\n        /* \"#utility.yul\":3828:3831   */\n      dup3\n        /* \"#utility.yul\":3821:3840   */\n      mstore\n        /* \"#utility.yul\":3873:3877   */\n      0x20\n        /* \"#utility.yul\":3868:3871   */\n      dup3\n        /* \"#utility.yul\":3864:3878   */\n      add\n        /* \"#utility.yul\":3849:3878   */\n      swap1\n      pop\n        /* \"#utility.yul\":3715:3884   */\n      swap3\n      swap2\n      pop\n      pop\n      jump\t// out\n        /* \"#utility.yul\":3890:4056   */\n    tag_89:\n        /* \"#utility.yul\":4030:4048   */\n      0x4e6f206465706f73697420666f756e6400000000000000000000000000000000\n        /* \"#utility.yul\":4026:4027   */\n      0x00\n        /* \"#utility.yul\":4018:4024   */\n      dup3\n        /* \"#utility.yul\":4014:4028   */\n      add\n        /* \"#utility.yul\":4007:4049   */\n      mstore\n        /* \"#utility.yul\":3890:4056   */\n      pop\n      jump\t// out\n        /* \"#utility.yul\":4062:4428   */\n    tag_90:\n        /* \"#utility.yul\":4204:4207   */\n      0x00\n        /* \"#utility.yul\":4225:4292   */\n      tag_143\n        /* \"#utility.yul\":4289:4291   */\n      0x10\n        /* \"#utility.yul\":4284:4287   */\n      dup4\n        /* \"#utility.yul\":4225:4292   */\n      tag_88\n      jump\t// in\n    tag_143:\n        /* \"#utility.yul\":4218:4292   */\n      swap2\n      pop\n        /* \"#utility.yul\":4301:4394   */\n      tag_144\n        /* \"#utility.yul\":4390:4393   */\n      dup3\n        /* \"#utility.yul\":4301:4394   */\n      tag_89\n      jump\t// in\n    tag_144:\n        /* \"#utility.yul\":4419:4421   */\n      0x20\n        /* \"#utility.yul\":4414:4417   */\n      dup3\n        /* \"#utility.yul\":4410:4422   */\n      add\n        /* \"#utility.yul\":4403:4422   */\n      swap1\n      pop\n        /* \"#utility.yul\":4062:4428   */\n      swap2\n      swap1\n      pop\n      jump\t// out\n        /* \"#utility.yul\":4434:4853   */\n    tag_51:\n        /* \"#utility.yul\":4600:4604   */\n      0x00\n        /* \"#utility.yul\":4638:4640   */\n      0x20\n        /* \"#utility.yul\":4627:4636   */\n      dup3\n        /* \"#utility.yul\":4623:4641   */\n      add\n        /* \"#utility.yul\":4615:4641   */\n      swap1\n      pop\n        /* \"#utility.yul\":4687:4696   */\n      dup2\n        /* \"#utility.yul\":4681:4685   */\n      dup2\n        /* \"#utility.yul\":4677:4697   */\n      sub\n        /* \"#utility.yul\":4673:4674   */\n      0x00\n        /* \"#utility.yul\":4662:4671   */\n      dup4\n        /* \"#utility.yul\":4658:4675   */\n      add\n        /* \"#utility.yul\":4651:4698   */\n      mstore\n        /* \"#utility.yul\":4715:4846   */\n      tag_146\n        /* \"#utility.yul\":4841:4845   */\n      dup2\n        /* \"#utility.yul\":4715:4846   */\n      tag_90\n      jump\t// in\n    tag_146:\n        /* \"#utility.yul\":4707:4846   */\n      swap1\n      pop\n        /* \"#utility.yul\":4434:4853   */\n      swap2\n      swap1\n      pop\n      jump\t// out\n        /* \"#utility.yul\":4859:5029   */\n    tag_91:\n        /* \"#utility.yul\":4999:5021   */\n      0x5769746864726177616c206973206c6f636b6564000000000000000000000000\n        /* \"#utility.yul\":4995:4996   */\n      0x00\n        /* \"#utility.yul\":4987:4993   */\n      dup3\n        /* \"#utility.yul\":4983:4997   */\n      add\n        /* \"#utility.yul\":4976:5022   */\n      mstore\n        /* \"#utility.yul\":4859:5029   */\n      pop\n      jump\t// out\n        /* \"#utility.yul\":5035:5401   */\n    tag_92:\n        /* \"#utility.yul\":5177:5180   */\n      0x00\n        /* \"#utility.yul\":5198:5265   */\n      tag_149\n        /* \"#utility.yul\":5262:5264   */\n      0x14\n        /* \"#utility.yul\":5257:5260   */\n      dup4\n        /* \"#utility.yul\":5198:5265   */\n      tag_88\n      jump\t// in\n    tag_149:\n        /* \"#utility.yul\":5191:5265   */\n      swap2\n      pop\n        /* \"#utility.yul\":5274:5367   */\n      tag_150\n        /* \"#utility.yul\":5363:5366   */\n      dup3\n        /* \"#utility.yul\":5274:5367   */\n      tag_91\n      jump\t// in\n    tag_150:\n        /* \"#utility.yul\":5392:5394   */\n      0x20\n        /* \"#utility.yul\":5387:5390   */\n      dup3\n        /* \"#utility.yul\":5383:5395   */\n      add\n        /* \"#utility.yul\":5376:5395   */\n      swap1\n      pop\n        /* \"#utility.yul\":5035:5401   */\n      swap2\n      swap1\n      pop\n      jump\t// out\n        /* \"#utility.yul\":5407:5826   */\n    tag_54:\n        /* \"#utility.yul\":5573:5577   */\n      0x00\n        /* \"#utility.yul\":5611:5613   */\n      0x20\n        /* \"#utility.yul\":5600:5609   */\n      dup3\n        /* \"#utility.yul\":5596:5614   */\n      add\n        /* \"#utility.yul\":5588:5614   */\n      swap1\n      pop\n        /* \"#utility.yul\":5660:5669   */\n      dup2\n        /* \"#utility.yul\":5654:5658   */\n      dup2\n        /* \"#utility.yul\":5650:5670   */\n      sub\n        /* \"#utility.yul\":5646:5647   */\n      0x00\n        /* \"#utility.yul\":5635:5644   */\n      dup4\n        /* \"#utility.yul\":5631:5648   */\n      add\n        /* \"#utility.yul\":5624:5671   */\n      mstore\n        /* \"#utility.yul\":5688:5819   */\n      tag_152\n        /* \"#utility.yul\":5814:5818   */\n      dup2\n        /* \"#utility.yul\":5688:5819   */\n      tag_92\n      jump\t// in\n    tag_152:\n        /* \"#utility.yul\":5680:5819   */\n      swap1\n      pop\n        /* \"#utility.yul\":5407:5826   */\n      swap2\n      swap1\n      pop\n      jump\t// out\n        /* \"#utility.yul\":5832:6058   */\n    tag_93:\n        /* \"#utility.yul\":5972:6006   */\n      0x4f6e6c792076616c69646174696f6e20636f6e74726163742063616e20636f6e\n        /* \"#utility.yul\":5968:5969   */\n      0x00\n        /* \"#utility.yul\":5960:5966   */\n      dup3\n        /* \"#utility.yul\":5956:5970   */\n      add\n        /* \"#utility.yul\":5949:6007   */\n      mstore\n        /* \"#utility.yul\":6041:6050   */\n      0x6669736361746500000000000000000000000000000000000000000000000000\n        /* \"#utility.yul\":6036:6038   */\n      0x20\n        /* \"#utility.yul\":6028:6034   */\n      dup3\n        /* \"#utility.yul\":6024:6039   */\n      add\n        /* \"#utility.yul\":6017:6051   */\n      mstore\n        /* \"#utility.yul\":5832:6058   */\n      pop\n      jump\t// out\n        /* \"#utility.yul\":6064:6430   */\n    tag_94:\n        /* \"#utility.yul\":6206:6209   */\n      0x00\n        /* \"#utility.yul\":6227:6294   */\n      tag_155\n        /* \"#utility.yul\":6291:6293   */\n      0x27\n        /* \"#utility.yul\":6286:6289   */\n      dup4\n        /* \"#utility.yul\":6227:6294   */\n      tag_88\n      jump\t// in\n    tag_155:\n        /* \"#utility.yul\":6220:6294   */\n      swap2\n      pop\n        /* \"#utility.yul\":6303:6396   */\n      tag_156\n        /* \"#utility.yul\":6392:6395   */\n      dup3\n        /* \"#utility.yul\":6303:6396   */\n      tag_93\n      jump\t// in\n    tag_156:\n        /* \"#utility.yul\":6421:6423   */\n      0x40\n        /* \"#utility.yul\":6416:6419   */\n      dup3\n        /* \"#utility.yul\":6412:6424   */\n      add\n        /* \"#utility.yul\":6405:6424   */\n      swap1\n      pop\n        /* \"#utility.yul\":6064:6430   */\n      swap2\n      swap1\n      pop\n      jump\t// out\n        /* \"#utility.yul\":6436:6855   */\n    tag_63:\n        /* \"#utility.yul\":6602:6606   */\n      0x00\n        /* \"#utility.yul\":6640:6642   */\n      0x20\n        /* \"#utility.yul\":6629:6638   */\n      dup3\n        /* \"#utility.yul\":6625:6643   */\n      add\n        /* \"#utility.yul\":6617:6643   */\n      swap1\n      pop\n        /* \"#utility.yul\":6689:6698   */\n      dup2\n        /* \"#utility.yul\":6683:6687   */\n      dup2\n        /* \"#utility.yul\":6679:6699   */\n      sub\n        /* \"#utility.yul\":6675:6676   */\n      0x00\n        /* \"#utility.yul\":6664:6673   */\n      dup4\n        /* \"#utility.yul\":6660:6677   */\n      add\n        /* \"#utility.yul\":6653:6700   */\n      mstore\n        /* \"#utility.yul\":6717:6848   */\n      tag_158\n        /* \"#utility.yul\":6843:6847   */\n      dup2\n        /* \"#utility.yul\":6717:6848   */\n      tag_94\n      jump\t// in\n    tag_158:\n        /* \"#utility.yul\":6709:6848   */\n      swap1\n      pop\n        /* \"#utility.yul\":6436:6855   */\n      swap2\n      swap1\n      pop\n      jump\t// out\n        /* \"#utility.yul\":6861:7034   */\n    tag_95:\n        /* \"#utility.yul\":7001:7026   */\n      0x43616c6c6572206973206e6f7420746865206f776e6572000000000000000000\n        /* \"#utility.yul\":6997:6998   */\n      0x00\n        /* \"#utility.yul\":6989:6995   */\n      dup3\n        /* \"#utility.yul\":6985:6999   */\n      add\n        /* \"#utility.yul\":6978:7027   */\n      mstore\n        /* \"#utility.yul\":6861:7034   */\n      pop\n      jump\t// out\n        /* \"#utility.yul\":7040:7406   */\n    tag_96:\n        /* \"#utility.yul\":7182:7185   */\n      0x00\n        /* \"#utility.yul\":7203:7270   */\n      tag_161\n        /* \"#utility.yul\":7267:7269   */\n      0x17\n        /* \"#utility.yul\":7262:7265   */\n      dup4\n        /* \"#utility.yul\":7203:7270   */\n      tag_88\n      jump\t// in\n    tag_161:\n        /* \"#utility.yul\":7196:7270   */\n      swap2\n      pop\n        /* \"#utility.yul\":7279:7372   */\n      tag_162\n        /* \"#utility.yul\":7368:7371   */\n      dup3\n        /* \"#utility.yul\":7279:7372   */\n      tag_95\n      jump\t// in\n    tag_162:\n        /* \"#utility.yul\":7397:7399   */\n      0x20\n        /* \"#utility.yul\":7392:7395   */\n      dup3\n        /* \"#utility.yul\":7388:7400   */\n      add\n        /* \"#utility.yul\":7381:7400   */\n      swap1\n      pop\n        /* \"#utility.yul\":7040:7406   */\n      swap2\n      swap1\n      pop\n      jump\t// out\n        /* \"#utility.yul\":7412:7831   */\n    tag_69:\n        /* \"#utility.yul\":7578:7582   */\n      0x00\n        /* \"#utility.yul\":7616:7618   */\n      0x20\n        /* \"#utility.yul\":7605:7614   */\n      dup3\n        /* \"#utility.yul\":7601:7619   */\n      add\n        /* \"#utility.yul\":7593:7619   */\n      swap1\n      pop\n        /* \"#utility.yul\":7665:7674   */\n      dup2\n        /* \"#utility.yul\":7659:7663   */\n      dup2\n        /* \"#utility.yul\":7655:7675   */\n      sub\n        /* \"#utility.yul\":7651:7652   */\n      0x00\n        /* \"#utility.yul\":7640:7649   */\n      dup4\n        /* \"#utility.yul\":7636:7653   */\n      add\n        /* \"#utility.yul\":7629:7676   */\n      mstore\n        /* \"#utility.yul\":7693:7824   */\n      tag_164\n        /* \"#utility.yul\":7819:7823   */\n      dup2\n        /* \"#utility.yul\":7693:7824   */\n      tag_96\n      jump\t// in\n    tag_164:\n        /* \"#utility.yul\":7685:7824   */\n      swap1\n      pop\n        /* \"#utility.yul\":7412:7831   */\n      swap2\n      swap1\n      pop\n      jump\t// out\n        /* \"#utility.yul\":7837:8017   */\n    tag_97:\n        /* \"#utility.yul\":7885:7962   */\n      0x4e487b7100000000000000000000000000000000000000000000000000000000\n        /* \"#utility.yul\":7882:7883   */\n      0x00\n        /* \"#utility.yul\":7875:7963   */\n      mstore\n        /* \"#utility.yul\":7982:7986   */\n      0x11\n        /* \"#utility.yul\":7979:7980   */\n      0x04\n        /* \"#utility.yul\":7972:7987   */\n      mstore\n        /* \"#utility.yul\":8006:8010   */\n      0x24\n        /* \"#utility.yul\":8003:8004   */\n      0x00\n        /* \"#utility.yul\":7996:8011   */\n      revert\n        /* \"#utility.yul\":8023:8214   */\n    tag_73:\n        /* \"#utility.yul\":8063:8066   */\n      0x00\n        /* \"#utility.yul\":8082:8102   */\n      tag_167\n        /* \"#utility.yul\":8100:8101   */\n      dup3\n        /* \"#utility.yul\":8082:8102   */\n      tag_81\n      jump\t// in\n    tag_167:\n        /* \"#utility.yul\":8077:8102   */\n      swap2\n      pop\n        /* \"#utility.yul\":8116:8136   */\n      tag_168\n        /* \"#utility.yul\":8134:8135   */\n      dup4\n        /* \"#utility.yul\":8116:8136   */\n      tag_81\n      jump\t// in\n    tag_168:\n        /* \"#utility.yul\":8111:8136   */\n      swap3\n      pop\n        /* \"#utility.yul\":8159:8160   */\n      dup3\n        /* \"#utility.yul\":8156:8157   */\n      dup3\n        /* \"#utility.yul\":8152:8161   */\n      add\n        /* \"#utility.yul\":8145:8161   */\n      swap1\n      pop\n        /* \"#utility.yul\":8180:8183   */\n      dup1\n        /* \"#utility.yul\":8177:8178   */\n      dup3\n        /* \"#utility.yul\":8174:8184   */\n      gt\n        /* \"#utility.yul\":8171:8207   */\n      iszero\n      tag_169\n      jumpi\n        /* \"#utility.yul\":8187:8205   */\n      tag_170\n      tag_97\n      jump\t// in\n    tag_170:\n        /* \"#utility.yul\":8171:8207   */\n    tag_169:\n        /* \"#utility.yul\":8023:8214   */\n      swap3\n      swap2\n      pop\n      pop\n      jump\t// out\n\n    auxdata: 0xa2646970667358221220e94a567743db76c423702d3311bf1e93af11ace51276ab82c4f58f772ecbdccf64736f6c634300081a0033\n}\n",
				"bytecode": {
					"linkReferences": {},
					"object": "6080604052348015600e575f80fd5b503360025f6101000a81548173ffffffffffffffffffffffffffffffffffffffff021916908373ffffffffffffffffffffffffffffffffffffffff160217905550610b2d8061005c5f395ff3fe60806040526004361061007a575f3560e01c80638da5cb5b1161004d5780638da5cb5b14610120578063b6b55f251461014a578063d2b409a114610166578063fc7e286d146101905761007a565b80633ccfd60b1461007e5780635287ce12146100945780635349607d146100d057806367a6d3b1146100f8575b5f80fd5b348015610089575f80fd5b506100926101cd565b005b34801561009f575f80fd5b506100ba60048036038101906100b59190610785565b61039b565b6040516100c791906107f5565b60405180910390f35b3480156100db575f80fd5b506100f660048036038101906100f19190610785565b610404565b005b348015610103575f80fd5b5061011e60048036038101906101199190610785565b610560565b005b34801561012b575f80fd5b50610134610632565b604051610141919061081d565b60405180910390f35b610164600480360381019061015f9190610860565b610657565b005b348015610171575f80fd5b5061017a6106cb565b604051610187919061081d565b60405180910390f35b34801561019b575f80fd5b506101b660048036038101906101b19190610785565b6106f0565b6040516101c492919061089a565b60405180910390f35b5f805f3373ffffffffffffffffffffffffffffffffffffffff1673ffffffffffffffffffffffffffffffffffffffff1681526020019081526020015f205f01541161024d576040517f08c379a00000000000000000000000000000000000000000000000000000000081526004016102449061091b565b60405180910390fd5b5f803373ffffffffffffffffffffffffffffffffffffffff1673ffffffffffffffffffffffffffffffffffffffff1681526020019081526020015f20600101544310156102cf576040517f08c379a00000000000000000000000000000000000000000000000000000000081526004016102c690610983565b60405180910390fd5b5f805f3373ffffffffffffffffffffffffffffffffffffffff1673ffffffffffffffffffffffffffffffffffffffff1681526020019081526020015f205f015490505f805f3373ffffffffffffffffffffffffffffffffffffffff1673ffffffffffffffffffffffffffffffffffffffff1681526020019081526020015f205f01819055503373ffffffffffffffffffffffffffffffffffffffff166108fc8290811502906040515f60405180830381858888f19350505050158015610397573d5f803e3d5ffd5b5050565b6103a361070f565b5f808373ffffffffffffffffffffffffffffffffffffffff1673ffffffffffffffffffffffffffffffffffffffff1681526020019081526020015f206040518060400160405290815f82015481526020016001820154815250509050919050565b60015f9054906101000a900473ffffffffffffffffffffffffffffffffffffffff1673ffffffffffffffffffffffffffffffffffffffff163373ffffffffffffffffffffffffffffffffffffffff1614610493576040517f08c379a000000000000000000000000000000000000000000000000000000000815260040161048a90610a11565b60405180910390fd5b5f805f8373ffffffffffffffffffffffffffffffffffffffff1673ffffffffffffffffffffffffffffffffffffffff1681526020019081526020015f205f015490505f805f8473ffffffffffffffffffffffffffffffffffffffff1673ffffffffffffffffffffffffffffffffffffffff1681526020019081526020015f205f01819055503373ffffffffffffffffffffffffffffffffffffffff166108fc8290811502906040515f60405180830381858888f1935050505015801561055b573d5f803e3d5ffd5b505050565b60025f9054906101000a900473ffffffffffffffffffffffffffffffffffffffff1673ffffffffffffffffffffffffffffffffffffffff163373ffffffffffffffffffffffffffffffffffffffff16146105ef576040517f08c379a00000000000000000000000000000000000000000000000000000000081526004016105e690610a79565b60405180910390fd5b8060015f6101000a81548173ffffffffffffffffffffffffffffffffffffffff021916908373ffffffffffffffffffffffffffffffffffffffff16021790555050565b60025f9054906101000a900473ffffffffffffffffffffffffffffffffffffffff1681565b604051806040016040528034815260200182436106749190610ac4565b8152505f803373ffffffffffffffffffffffffffffffffffffffff1673ffffffffffffffffffffffffffffffffffffffff1681526020019081526020015f205f820151815f01556020820151816001015590505050565b60015f9054906101000a900473ffffffffffffffffffffffffffffffffffffffff1681565b5f602052805f5260405f205f91509050805f0154908060010154905082565b60405180604001604052805f81526020015f81525090565b5f80fd5b5f73ffffffffffffffffffffffffffffffffffffffff82169050919050565b5f6107548261072b565b9050919050565b6107648161074a565b811461076e575f80fd5b50565b5f8135905061077f8161075b565b92915050565b5f6020828403121561079a57610799610727565b5b5f6107a784828501610771565b91505092915050565b5f819050919050565b6107c2816107b0565b82525050565b604082015f8201516107dc5f8501826107b9565b5060208201516107ef60208501826107b9565b50505050565b5f6040820190506108085f8301846107c8565b92915050565b6108178161074a565b82525050565b5f6020820190506108305f83018461080e565b92915050565b61083f816107b0565b8114610849575f80fd5b50565b5f8135905061085a81610836565b92915050565b5f6020828403121561087557610874610727565b5b5f6108828482850161084c565b91505092915050565b610894816107b0565b82525050565b5f6040820190506108ad5f83018561088b565b6108ba602083018461088b565b9392505050565b5f82825260208201905092915050565b7f4e6f206465706f73697420666f756e64000000000000000000000000000000005f82015250565b5f6109056010836108c1565b9150610910826108d1565b602082019050919050565b5f6020820190508181035f830152610932816108f9565b9050919050565b7f5769746864726177616c206973206c6f636b65640000000000000000000000005f82015250565b5f61096d6014836108c1565b915061097882610939565b602082019050919050565b5f6020820190508181035f83015261099a81610961565b9050919050565b7f4f6e6c792076616c69646174696f6e20636f6e74726163742063616e20636f6e5f8201527f6669736361746500000000000000000000000000000000000000000000000000602082015250565b5f6109fb6027836108c1565b9150610a06826109a1565b604082019050919050565b5f6020820190508181035f830152610a28816109ef565b9050919050565b7f43616c6c6572206973206e6f7420746865206f776e65720000000000000000005f82015250565b5f610a636017836108c1565b9150610a6e82610a2f565b602082019050919050565b5f6020820190508181035f830152610a9081610a57565b9050919050565b7f4e487b71000000000000000000000000000000000000000000000000000000005f52601160045260245ffd5b5f610ace826107b0565b9150610ad9836107b0565b9250828201905080821115610af157610af0610a97565b5b9291505056fea2646970667358221220e94a567743db76c423702d3311bf1e93af11ace51276ab82c4f58f772ecbdccf64736f6c634300081a0033",
					"opcodes": "PUSH1 0x80 PUSH1 0x40 MSTORE CALLVALUE DUP1 ISZERO PUSH1 0xE JUMPI PUSH0 DUP1 REVERT JUMPDEST POP CALLER PUSH1 0x2 PUSH0 PUSH2 0x100 EXP DUP2 SLOAD DUP2 PUSH20 0xFFFFFFFFFFFFFFFFFFFFFFFFFFFFFFFFFFFFFFFF MUL NOT AND SWAP1 DUP4 PUSH20 0xFFFFFFFFFFFFFFFFFFFFFFFFFFFFFFFFFFFFFFFF AND MUL OR SWAP1 SSTORE POP PUSH2 0xB2D DUP1 PUSH2 0x5C PUSH0 CODECOPY PUSH0 RETURN INVALID PUSH1 0x80 PUSH1 0x40 MSTORE PUSH1 0x4 CALLDATASIZE LT PUSH2 0x7A JUMPI PUSH0 CALLDATALOAD PUSH1 0xE0 SHR DUP1 PUSH4 0x8DA5CB5B GT PUSH2 0x4D JUMPI DUP1 PUSH4 0x8DA5CB5B EQ PUSH2 0x120 JUMPI DUP1 PUSH4 0xB6B55F25 EQ PUSH2 0x14A JUMPI DUP1 PUSH4 0xD2B409A1 EQ PUSH2 0x166 JUMPI DUP1 PUSH4 0xFC7E286D EQ PUSH2 0x190 JUMPI PUSH2 0x7A JUMP JUMPDEST DUP1 PUSH4 0x3CCFD60B EQ PUSH2 0x7E JUMPI DUP1 PUSH4 0x5287CE12 EQ PUSH2 0x94 JUMPI DUP1 PUSH4 0x5349607D EQ PUSH2 0xD0 JUMPI DUP1 PUSH4 0x67A6D3B1 EQ PUSH2 0xF8 JUMPI JUMPDEST PUSH0 DUP1 REVERT JUMPDEST CALLVALUE DUP1 ISZERO PUSH2 0x89 JUMPI PUSH0 DUP1 REVERT JUMPDEST POP PUSH2 0x92 PUSH2 0x1CD JUMP JUMPDEST STOP JUMPDEST CALLVALUE DUP1 ISZERO PUSH2 0x9F JUMPI PUSH0 DUP1 REVERT JUMPDEST POP PUSH2 0xBA PUSH1 0x4 DUP1 CALLDATASIZE SUB DUP2 ADD SWAP1 PUSH2 0xB5 SWAP2 SWAP1 PUSH2 0x785 JUMP JUMPDEST PUSH2 0x39B JUMP JUMPDEST PUSH1 0x40 MLOAD PUSH2 0xC7 SWAP2 SWAP1 PUSH2 0x7F5 JUMP JUMPDEST PUSH1 0x40 MLOAD DUP1 SWAP2 SUB SWAP1 RETURN JUMPDEST CALLVALUE DUP1 ISZERO PUSH2 0xDB JUMPI PUSH0 DUP1 REVERT JUMPDEST POP PUSH2 0xF6 PUSH1 0x4 DUP1 CALLDATASIZE SUB DUP2 ADD SWAP1 PUSH2 0xF1 SWAP2 SWAP1 PUSH2 0x785 JUMP JUMPDEST PUSH2 0x404 JUMP JUMPDEST STOP JUMPDEST CALLVALUE DUP1 ISZERO PUSH2 0x103 JUMPI PUSH0 DUP1 REVERT JUMPDEST POP PUSH2 0x11E PUSH1 0x4 DUP1 CALLDATASIZE SUB DUP2 ADD SWAP1 PUSH2 0x119 SWAP2 SWAP1 PUSH2 0x785 JUMP JUMPDEST PUSH2 0x560 JUMP JUMPDEST STOP JUMPDEST CALLVALUE DUP1 ISZERO PUSH2 0x12B JUMPI PUSH0 DUP1 REVERT JUMPDEST POP PUSH2 0x134 PUSH2 0x632 JUMP JUMPDEST PUSH1 0x40 MLOAD PUSH2 0x141 SWAP2 SWAP1 PUSH2 0x81D JUMP JUMPDEST PUSH1 0x40 MLOAD DUP1 SWAP2 SUB SWAP1 RETURN JUMPDEST PUSH2 0x164 PUSH1 0x4 DUP1 CALLDATASIZE SUB DUP2 ADD SWAP1 PUSH2 0x15F SWAP2 SWAP1 PUSH2 0x860 JUMP JUMPDEST PUSH2 0x657 JUMP JUMPDEST STOP JUMPDEST CALLVALUE DUP1 ISZERO PUSH2 0x171 JUMPI PUSH0 DUP1 REVERT JUMPDEST POP PUSH2 0x17A PUSH2 0x6CB JUMP JUMPDEST PUSH1 0x40 MLOAD PUSH2 0x187 SWAP2 SWAP1 PUSH2 0x81D JUMP JUMPDEST PUSH1 0x40 MLOAD DUP1 SWAP2 SUB SWAP1 RETURN JUMPDEST CALLVALUE DUP1 ISZERO PUSH2 0x19B JUMPI PUSH0 DUP1 REVERT JUMPDEST POP PUSH2 0x1B6 PUSH1 0x4 DUP1 CALLDATASIZE SUB DUP2 ADD SWAP1 PUSH2 0x1B1 SWAP2 SWAP1 PUSH2 0x785 JUMP JUMPDEST PUSH2 0x6F0 JUMP JUMPDEST PUSH1 0x40 MLOAD PUSH2 0x1C4 SWAP3 SWAP2 SWAP1 PUSH2 0x89A JUMP JUMPDEST PUSH1 0x40 MLOAD DUP1 SWAP2 SUB SWAP1 RETURN JUMPDEST PUSH0 DUP1 PUSH0 CALLER PUSH20 0xFFFFFFFFFFFFFFFFFFFFFFFFFFFFFFFFFFFFFFFF AND PUSH20 0xFFFFFFFFFFFFFFFFFFFFFFFFFFFFFFFFFFFFFFFF AND DUP2 MSTORE PUSH1 0x20 ADD SWAP1 DUP2 MSTORE PUSH1 0x20 ADD PUSH0 KECCAK256 PUSH0 ADD SLOAD GT PUSH2 0x24D JUMPI PUSH1 0x40 MLOAD PUSH32 0x8C379A000000000000000000000000000000000000000000000000000000000 DUP2 MSTORE PUSH1 0x4 ADD PUSH2 0x244 SWAP1 PUSH2 0x91B JUMP JUMPDEST PUSH1 0x40 MLOAD DUP1 SWAP2 SUB SWAP1 REVERT JUMPDEST PUSH0 DUP1 CALLER PUSH20 0xFFFFFFFFFFFFFFFFFFFFFFFFFFFFFFFFFFFFFFFF AND PUSH20 0xFFFFFFFFFFFFFFFFFFFFFFFFFFFFFFFFFFFFFFFF AND DUP2 MSTORE PUSH1 0x20 ADD SWAP1 DUP2 MSTORE PUSH1 0x20 ADD PUSH0 KECCAK256 PUSH1 0x1 ADD SLOAD NUMBER LT ISZERO PUSH2 0x2CF JUMPI PUSH1 0x40 MLOAD PUSH32 0x8C379A000000000000000000000000000000000000000000000000000000000 DUP2 MSTORE PUSH1 0x4 ADD PUSH2 0x2C6 SWAP1 PUSH2 0x983 JUMP JUMPDEST PUSH1 0x40 MLOAD DUP1 SWAP2 SUB SWAP1 REVERT JUMPDEST PUSH0 DUP1 PUSH0 CALLER PUSH20 0xFFFFFFFFFFFFFFFFFFFFFFFFFFFFFFFFFFFFFFFF AND PUSH20 0xFFFFFFFFFFFFFFFFFFFFFFFFFFFFFFFFFFFFFFFF AND DUP2 MSTORE PUSH1 0x20 ADD SWAP1 DUP2 MSTORE PUSH1 0x20 ADD PUSH0 KECCAK256 PUSH0 ADD SLOAD SWAP1 POP PUSH0 DUP1 PUSH0 CALLER PUSH20 0xFFFFFFFFFFFFFFFFFFFFFFFFFFFFFFFFFFFFFFFF AND PUSH20 0xFFFFFFFFFFFFFFFFFFFFFFFFFFFFFFFFFFFFFFFF AND DUP2 MSTORE PUSH1 0x20 ADD SWAP1 DUP2 MSTORE PUSH1 0x20 ADD PUSH0 KECCAK256 PUSH0 ADD DUP2 SWAP1 SSTORE POP CALLER PUSH20 0xFFFFFFFFFFFFFFFFFFFFFFFFFFFFFFFFFFFFFFFF AND PUSH2 0x8FC DUP3 SWAP1 DUP2 ISZERO MUL SWAP1 PUSH1 0x40 MLOAD PUSH0 PUSH1 0x40 MLOAD DUP1 DUP4 SUB DUP2 DUP6 DUP9 DUP9 CALL SWAP4 POP POP POP POP ISZERO DUP1 ISZERO PUSH2 0x397 JUMPI RETURNDATASIZE PUSH0 DUP1 RETURNDATACOPY RETURNDATASIZE PUSH0 REVERT JUMPDEST POP POP JUMP JUMPDEST PUSH2 0x3A3 PUSH2 0x70F JUMP JUMPDEST PUSH0 DUP1 DUP4 PUSH20 0xFFFFFFFFFFFFFFFFFFFFFFFFFFFFFFFFFFFFFFFF AND PUSH20 0xFFFFFFFFFFFFFFFFFFFFFFFFFFFFFFFFFFFFFFFF AND DUP2 MSTORE PUSH1 0x20 ADD SWAP1 DUP2 MSTORE PUSH1 0x20 ADD PUSH0 KECCAK256 PUSH1 0x40 MLOAD DUP1 PUSH1 0x40 ADD PUSH1 0x40 MSTORE SWAP1 DUP2 PUSH0 DUP3 ADD SLOAD DUP2 MSTORE PUSH1 0x20 ADD PUSH1 0x1 DUP3 ADD SLOAD DUP2 MSTORE POP POP SWAP1 POP SWAP2 SWAP1 POP JUMP JUMPDEST PUSH1 0x1 PUSH0 SWAP1 SLOAD SWAP1 PUSH2 0x100 EXP SWAP1 DIV PUSH20 0xFFFFFFFFFFFFFFFFFFFFFFFFFFFFFFFFFFFFFFFF AND PUSH20 0xFFFFFFFFFFFFFFFFFFFFFFFFFFFFFFFFFFFFFFFF AND CALLER PUSH20 0xFFFFFFFFFFFFFFFFFFFFFFFFFFFFFFFFFFFFFFFF AND EQ PUSH2 0x493 JUMPI PUSH1 0x40 MLOAD PUSH32 0x8C379A000000000000000000000000000000000000000000000000000000000 DUP2 MSTORE PUSH1 0x4 ADD PUSH2 0x48A SWAP1 PUSH2 0xA11 JUMP JUMPDEST PUSH1 0x40 MLOAD DUP1 SWAP2 SUB SWAP1 REVERT JUMPDEST PUSH0 DUP1 PUSH0 DUP4 PUSH20 0xFFFFFFFFFFFFFFFFFFFFFFFFFFFFFFFFFFFFFFFF AND PUSH20 0xFFFFFFFFFFFFFFFFFFFFFFFFFFFFFFFFFFFFFFFF AND DUP2 MSTORE PUSH1 0x20 ADD SWAP1 DUP2 MSTORE PUSH1 0x20 ADD PUSH0 KECCAK256 PUSH0 ADD SLOAD SWAP1 POP PUSH0 DUP1 PUSH0 DUP5 PUSH20 0xFFFFFFFFFFFFFFFFFFFFFFFFFFFFFFFFFFFFFFFF AND PUSH20 0xFFFFFFFFFFFFFFFFFFFFFFFFFFFFFFFFFFFFFFFF AND DUP2 MSTORE PUSH1 0x20 ADD SWAP1 DUP2 MSTORE PUSH1 0x20 ADD PUSH0 KECCAK256 PUSH0 ADD DUP2 SWAP1 SSTORE POP CALLER PUSH20 0xFFFFFFFFFFFFFFFFFFFFFFFFFFFFFFFFFFFFFFFF AND PUSH2 0x8FC DUP3 SWAP1 DUP2 ISZERO MUL SWAP1 PUSH1 0x40 MLOAD PUSH0 PUSH1 0x40 MLOAD DUP1 DUP4 SUB DUP2 DUP6 DUP9 DUP9 CALL SWAP4 POP POP POP POP ISZERO DUP1 ISZERO PUSH2 0x55B JUMPI RETURNDATASIZE PUSH0 DUP1 RETURNDATACOPY RETURNDATASIZE PUSH0 REVERT JUMPDEST POP POP POP JUMP JUMPDEST PUSH1 0x2 PUSH0 SWAP1 SLOAD SWAP1 PUSH2 0x100 EXP SWAP1 DIV PUSH20 0xFFFFFFFFFFFFFFFFFFFFFFFFFFFFFFFFFFFFFFFF AND PUSH20 0xFFFFFFFFFFFFFFFFFFFFFFFFFFFFFFFFFFFFFFFF AND CALLER PUSH20 0xFFFFFFFFFFFFFFFFFFFFFFFFFFFFFFFFFFFFFFFF AND EQ PUSH2 0x5EF JUMPI PUSH1 0x40 MLOAD PUSH32 0x8C379A000000000000000000000000000000000000000000000000000000000 DUP2 MSTORE PUSH1 0x4 ADD PUSH2 0x5E6 SWAP1 PUSH2 0xA79 JUMP JUMPDEST PUSH1 0x40 MLOAD DUP1 SWAP2 SUB SWAP1 REVERT JUMPDEST DUP1 PUSH1 0x1 PUSH0 PUSH2 0x100 EXP DUP2 SLOAD DUP2 PUSH20 0xFFFFFFFFFFFFFFFFFFFFFFFFFFFFFFFFFFFFFFFF MUL NOT AND SWAP1 DUP4 PUSH20 0xFFFFFFFFFFFFFFFFFFFFFFFFFFFFFFFFFFFFFFFF AND MUL OR SWAP1 SSTORE POP POP JUMP JUMPDEST PUSH1 0x2 PUSH0 SWAP1 SLOAD SWAP1 PUSH2 0x100 EXP SWAP1 DIV PUSH20 0xFFFFFFFFFFFFFFFFFFFFFFFFFFFFFFFFFFFFFFFF AND DUP2 JUMP JUMPDEST PUSH1 0x40 MLOAD DUP1 PUSH1 0x40 ADD PUSH1 0x40 MSTORE DUP1 CALLVALUE DUP2 MSTORE PUSH1 0x20 ADD DUP3 NUMBER PUSH2 0x674 SWAP2 SWAP1 PUSH2 0xAC4 JUMP JUMPDEST DUP2 MSTORE POP PUSH0 DUP1 CALLER PUSH20 0xFFFFFFFFFFFFFFFFFFFFFFFFFFFFFFFFFFFFFFFF AND PUSH20 0xFFFFFFFFFFFFFFFFFFFFFFFFFFFFFFFFFFFFFFFF AND DUP2 MSTORE PUSH1 0x20 ADD SWAP1 DUP2 MSTORE PUSH1 0x20 ADD PUSH0 KECCAK256 PUSH0 DUP3 ADD MLOAD DUP2 PUSH0 ADD SSTORE PUSH1 0x20 DUP3 ADD MLOAD DUP2 PUSH1 0x1 ADD SSTORE SWAP1 POP POP POP JUMP JUMPDEST PUSH1 0x1 PUSH0 SWAP1 SLOAD SWAP1 PUSH2 0x100 EXP SWAP1 DIV PUSH20 0xFFFFFFFFFFFFFFFFFFFFFFFFFFFFFFFFFFFFFFFF AND DUP2 JUMP JUMPDEST PUSH0 PUSH1 0x20 MSTORE DUP1 PUSH0 MSTORE PUSH1 0x40 PUSH0 KECCAK256 PUSH0 SWAP2 POP SWAP1 POP DUP1 PUSH0 ADD SLOAD SWAP1 DUP1 PUSH1 0x1 ADD SLOAD SWAP1 POP DUP3 JUMP JUMPDEST PUSH1 0x40 MLOAD DUP1 PUSH1 0x40 ADD PUSH1 0x40 MSTORE DUP1 PUSH0 DUP2 MSTORE PUSH1 0x20 ADD PUSH0 DUP2 MSTORE POP SWAP1 JUMP JUMPDEST PUSH0 DUP1 REVERT JUMPDEST PUSH0 PUSH20 0xFFFFFFFFFFFFFFFFFFFFFFFFFFFFFFFFFFFFFFFF DUP3 AND SWAP1 POP SWAP2 SWAP1 POP JUMP JUMPDEST PUSH0 PUSH2 0x754 DUP3 PUSH2 0x72B JUMP JUMPDEST SWAP1 POP SWAP2 SWAP1 POP JUMP JUMPDEST PUSH2 0x764 DUP2 PUSH2 0x74A JUMP JUMPDEST DUP2 EQ PUSH2 0x76E JUMPI PUSH0 DUP1 REVERT JUMPDEST POP JUMP JUMPDEST PUSH0 DUP2 CALLDATALOAD SWAP1 POP PUSH2 0x77F DUP2 PUSH2 0x75B JUMP JUMPDEST SWAP3 SWAP2 POP POP JUMP JUMPDEST PUSH0 PUSH1 0x20 DUP3 DUP5 SUB SLT ISZERO PUSH2 0x79A JUMPI PUSH2 0x799 PUSH2 0x727 JUMP JUMPDEST JUMPDEST PUSH0 PUSH2 0x7A7 DUP5 DUP3 DUP6 ADD PUSH2 0x771 JUMP JUMPDEST SWAP2 POP POP SWAP3 SWAP2 POP POP JUMP JUMPDEST PUSH0 DUP2 SWAP1 POP SWAP2 SWAP1 POP JUMP JUMPDEST PUSH2 0x7C2 DUP2 PUSH2 0x7B0 JUMP JUMPDEST DUP3 MSTORE POP POP JUMP JUMPDEST PUSH1 0x40 DUP3 ADD PUSH0 DUP3 ADD MLOAD PUSH2 0x7DC PUSH0 DUP6 ADD DUP3 PUSH2 0x7B9 JUMP JUMPDEST POP PUSH1 0x20 DUP3 ADD MLOAD PUSH2 0x7EF PUSH1 0x20 DUP6 ADD DUP3 PUSH2 0x7B9 JUMP JUMPDEST POP POP POP POP JUMP JUMPDEST PUSH0 PUSH1 0x40 DUP3 ADD SWAP1 POP PUSH2 0x808 PUSH0 DUP4 ADD DUP5 PUSH2 0x7C8 JUMP JUMPDEST SWAP3 SWAP2 POP POP JUMP JUMPDEST PUSH2 0x817 DUP2 PUSH2 0x74A JUMP JUMPDEST DUP3 MSTORE POP POP JUMP JUMPDEST PUSH0 PUSH1 0x20 DUP3 ADD SWAP1 POP PUSH2 0x830 PUSH0 DUP4 ADD DUP5 PUSH2 0x80E JUMP JUMPDEST SWAP3 SWAP2 POP POP JUMP JUMPDEST PUSH2 0x83F DUP2 PUSH2 0x7B0 JUMP JUMPDEST DUP2 EQ PUSH2 0x849 JUMPI PUSH0 DUP1 REVERT JUMPDEST POP JUMP JUMPDEST PUSH0 DUP2 CALLDATALOAD SWAP1 POP PUSH2 0x85A DUP2 PUSH2 0x836 JUMP JUMPDEST SWAP3 SWAP2 POP POP JUMP JUMPDEST PUSH0 PUSH1 0x20 DUP3 DUP5 SUB SLT ISZERO PUSH2 0x875 JUMPI PUSH2 0x874 PUSH2 0x727 JUMP JUMPDEST JUMPDEST PUSH0 PUSH2 0x882 DUP5 DUP3 DUP6 ADD PUSH2 0x84C JUMP JUMPDEST SWAP2 POP POP SWAP3 SWAP2 POP POP JUMP JUMPDEST PUSH2 0x894 DUP2 PUSH2 0x7B0 JUMP JUMPDEST DUP3 MSTORE POP POP JUMP JUMPDEST PUSH0 PUSH1 0x40 DUP3 ADD SWAP1 POP PUSH2 0x8AD PUSH0 DUP4 ADD DUP6 PUSH2 0x88B JUMP JUMPDEST PUSH2 0x8BA PUSH1 0x20 DUP4 ADD DUP5 PUSH2 0x88B JUMP JUMPDEST SWAP4 SWAP3 POP POP POP JUMP JUMPDEST PUSH0 DUP3 DUP3 MSTORE PUSH1 0x20 DUP3 ADD SWAP1 POP SWAP3 SWAP2 POP POP JUMP JUMPDEST PUSH32 0x4E6F206465706F73697420666F756E6400000000000000000000000000000000 PUSH0 DUP3 ADD MSTORE POP JUMP JUMPDEST PUSH0 PUSH2 0x905 PUSH1 0x10 DUP4 PUSH2 0x8C1 JUMP JUMPDEST SWAP2 POP PUSH2 0x910 DUP3 PUSH2 0x8D1 JUMP JUMPDEST PUSH1 0x20 DUP3 ADD SWAP1 POP SWAP2 SWAP1 POP JUMP JUMPDEST PUSH0 PUSH1 0x20 DUP3 ADD SWAP1 POP DUP2 DUP2 SUB PUSH0 DUP4 ADD MSTORE PUSH2 0x932 DUP2 PUSH2 0x8F9 JUMP JUMPDEST SWAP1 POP SWAP2 SWAP1 POP JUMP JUMPDEST PUSH32 0x5769746864726177616C206973206C6F636B6564000000000000000000000000 PUSH0 DUP3 ADD MSTORE POP JUMP JUMPDEST PUSH0 PUSH2 0x96D PUSH1 0x14 DUP4 PUSH2 0x8C1 JUMP JUMPDEST SWAP2 POP PUSH2 0x978 DUP3 PUSH2 0x939 JUMP JUMPDEST PUSH1 0x20 DUP3 ADD SWAP1 POP SWAP2 SWAP1 POP JUMP JUMPDEST PUSH0 PUSH1 0x20 DUP3 ADD SWAP1 POP DUP2 DUP2 SUB PUSH0 DUP4 ADD MSTORE PUSH2 0x99A DUP2 PUSH2 0x961 JUMP JUMPDEST SWAP1 POP SWAP2 SWAP1 POP JUMP JUMPDEST PUSH32 0x4F6E6C792076616C69646174696F6E20636F6E74726163742063616E20636F6E PUSH0 DUP3 ADD MSTORE PUSH32 0x6669736361746500000000000000000000000000000000000000000000000000 PUSH1 0x20 DUP3 ADD MSTORE POP JUMP JUMPDEST PUSH0 PUSH2 0x9FB PUSH1 0x27 DUP4 PUSH2 0x8C1 JUMP JUMPDEST SWAP2 POP PUSH2 0xA06 DUP3 PUSH2 0x9A1 JUMP JUMPDEST PUSH1 0x40 DUP3 ADD SWAP1 POP SWAP2 SWAP1 POP JUMP JUMPDEST PUSH0 PUSH1 0x20 DUP3 ADD SWAP1 POP DUP2 DUP2 SUB PUSH0 DUP4 ADD MSTORE PUSH2 0xA28 DUP2 PUSH2 0x9EF JUMP JUMPDEST SWAP1 POP SWAP2 SWAP1 POP JUMP JUMPDEST PUSH32 0x43616C6C6572206973206E6F7420746865206F776E6572000000000000000000 PUSH0 DUP3 ADD MSTORE POP JUMP JUMPDEST PUSH0 PUSH2 0xA63 PUSH1 0x17 DUP4 PUSH2 0x8C1 JUMP JUMPDEST SWAP2 POP PUSH2 0xA6E DUP3 PUSH2 0xA2F JUMP JUMPDEST PUSH1 0x20 DUP3 ADD SWAP1 POP SWAP2 SWAP1 POP JUMP JUMPDEST PUSH0 PUSH1 0x20 DUP3 ADD SWAP1 POP DUP2 DUP2 SUB PUSH0 DUP4 ADD MSTORE PUSH2 0xA90 DUP2 PUSH2 0xA57 JUMP JUMPDEST SWAP1 POP SWAP2 SWAP1 POP JUMP JUMPDEST PUSH32 0x4E487B7100000000000000000000000000000000000000000000000000000000 PUSH0 MSTORE PUSH1 0x11 PUSH1 0x4 MSTORE PUSH1 0x24 PUSH0 REVERT JUMPDEST PUSH0 PUSH2 0xACE DUP3 PUSH2 0x7B0 JUMP JUMPDEST SWAP2 POP PUSH2 0xAD9 DUP4 PUSH2 0x7B0 JUMP JUMPDEST SWAP3 POP DUP3 DUP3 ADD SWAP1 POP DUP1 DUP3 GT ISZERO PUSH2 0xAF1 JUMPI PUSH2 0xAF0 PUSH2 0xA97 JUMP JUMPDEST JUMPDEST SWAP3 SWAP2 POP POP JUMP INVALID LOG2 PUSH5 0x6970667358 0x22 SLT KECCAK256 0xE9 BLOBBASEFEE JUMP PUSH24 0x43DB76C423702D3311BF1E93AF11ACE51276AB82C4F58F77 0x2E 0xCB 0xDC 0xCF PUSH5 0x736F6C6343 STOP ADDMOD BYTE STOP CALLER "
				},
				"gasEstimates": {
					"creation": {
						"codeDepositCost": "572200",
						"executionCost": "24869",
						"totalCost": "597069"
					},
					"external": {
						"confiscateAndWithdraw(address)": "infinite",
						"deposit(uint256)": "infinite",
						"deposits(address)": "infinite",
						"getDepositInfo(address)": "infinite",
						"owner()": "2508",
						"setValidationContract(address)": "26951",
						"validationContract()": "2552",
						"withdraw()": "infinite"
					}
				},
				"methodIdentifiers": {
					"confiscateAndWithdraw(address)": "5349607d",
					"deposit(uint256)": "b6b55f25",
					"deposits(address)": "fc7e286d",
					"getDepositInfo(address)": "5287ce12",
					"owner()": "8da5cb5b",
					"setValidationContract(address)": "67a6d3b1",
					"validationContract()": "d2b409a1",
					"withdraw()": "3ccfd60b"
				}
			},
			"storageLayout": {
				"storage": [
					{
						"astId": 11,
						"contract": "trustless cross-chain/trading pair formation/Deposit.sol:Deposit",
						"label": "deposits",
						"offset": 0,
						"slot": "0",
						"type": "t_mapping(t_address,t_struct(DepositInfo)6_storage)"
					},
					{
						"astId": 13,
						"contract": "trustless cross-chain/trading pair formation/Deposit.sol:Deposit",
						"label": "validationContract",
						"offset": 0,
						"slot": "1",
						"type": "t_address"
					},
					{
						"astId": 15,
						"contract": "trustless cross-chain/trading pair formation/Deposit.sol:Deposit",
						"label": "owner",
						"offset": 0,
						"slot": "2",
						"type": "t_address"
					}
				],
				"types": {
					"t_address": {
						"encoding": "inplace",
						"label": "address",
						"numberOfBytes": "20"
					},
					"t_mapping(t_address,t_struct(DepositInfo)6_storage)": {
						"encoding": "mapping",
						"key": "t_address",
						"label": "mapping(address => struct Deposit.DepositInfo)",
						"numberOfBytes": "32",
						"value": "t_struct(DepositInfo)6_storage"
					},
					"t_struct(DepositInfo)6_storage": {
						"encoding": "inplace",
						"label": "struct Deposit.DepositInfo",
						"members": [
							{
								"astId": 3,
								"contract": "trustless cross-chain/trading pair formation/Deposit.sol:Deposit",
								"label": "amount",
								"offset": 0,
								"slot": "0",
								"type": "t_uint256"
							},
							{
								"astId": 5,
								"contract": "trustless cross-chain/trading pair formation/Deposit.sol:Deposit",
								"label": "unlockBlock",
								"offset": 0,
								"slot": "1",
								"type": "t_uint256"
							}
						],
						"numberOfBytes": "64"
					},
					"t_uint256": {
						"encoding": "inplace",
						"label": "uint256",
						"numberOfBytes": "32"
					}
				}
			},
			"userdoc": {
				"kind": "user",
				"methods": {},
				"version": 1
			}
		}
	}
}