{
	"trustless cross-chain/trading pair formation/SimpleBalancerAMM.sol": {
		"SimpleBalancerAMM": {
			"abi": [
				{
					"inputs": [
						{
							"internalType": "address",
							"name": "_token1",
							"type": "address"
						},
						{
							"internalType": "address",
							"name": "_token2",
							"type": "address"
						},
						{
							"internalType": "address",
							"name": "_token3",
							"type": "address"
						},
						{
							"internalType": "uint256",
							"name": "_weight1",
							"type": "uint256"
						},
						{
							"internalType": "uint256",
							"name": "_weight2",
							"type": "uint256"
						},
						{
							"internalType": "uint256",
							"name": "_weight3",
							"type": "uint256"
						}
					],
					"stateMutability": "nonpayable",
					"type": "constructor"
				},
				{
					"anonymous": false,
					"inputs": [
						{
							"indexed": true,
							"internalType": "address",
							"name": "user",
							"type": "address"
						},
						{
							"indexed": false,
							"internalType": "uint256",
							"name": "amount1",
							"type": "uint256"
						},
						{
							"indexed": false,
							"internalType": "uint256",
							"name": "amount2",
							"type": "uint256"
						},
						{
							"indexed": false,
							"internalType": "uint256",
							"name": "amount3",
							"type": "uint256"
						}
					],
					"name": "LogAddLiquidity",
					"type": "event"
				},
				{
					"anonymous": false,
					"inputs": [
						{
							"indexed": true,
							"internalType": "address",
							"name": "user",
							"type": "address"
						},
						{
							"indexed": true,
							"internalType": "address",
							"name": "token",
							"type": "address"
						},
						{
							"indexed": false,
							"internalType": "uint256",
							"name": "amount",
							"type": "uint256"
						}
					],
					"name": "LogTokenTransfer",
					"type": "event"
				},
				{
					"inputs": [
						{
							"internalType": "address",
							"name": "from1",
							"type": "address"
						},
						{
							"internalType": "address",
							"name": "from2",
							"type": "address"
						},
						{
							"internalType": "address",
							"name": "from3",
							"type": "address"
						},
						{
							"internalType": "uint256",
							"name": "amount1",
							"type": "uint256"
						},
						{
							"internalType": "uint256",
							"name": "amount2",
							"type": "uint256"
						},
						{
							"internalType": "uint256",
							"name": "amount3",
							"type": "uint256"
						}
					],
					"name": "addLiquidity",
					"outputs": [],
					"stateMutability": "nonpayable",
					"type": "function"
				},
				{
					"inputs": [
						{
							"internalType": "address",
							"name": "fromToken",
							"type": "address"
						},
						{
							"internalType": "address",
							"name": "toToken",
							"type": "address"
						}
					],
					"name": "getExchangeRate",
					"outputs": [
						{
							"internalType": "uint256",
							"name": "",
							"type": "uint256"
						}
					],
					"stateMutability": "view",
					"type": "function"
				},
				{
					"inputs": [],
					"name": "poolToken1",
					"outputs": [
						{
							"internalType": "uint256",
							"name": "",
							"type": "uint256"
						}
					],
					"stateMutability": "view",
					"type": "function"
				},
				{
					"inputs": [],
					"name": "poolToken2",
					"outputs": [
						{
							"internalType": "uint256",
							"name": "",
							"type": "uint256"
						}
					],
					"stateMutability": "view",
					"type": "function"
				},
				{
					"inputs": [],
					"name": "poolToken3",
					"outputs": [
						{
							"internalType": "uint256",
							"name": "",
							"type": "uint256"
						}
					],
					"stateMutability": "view",
					"type": "function"
				},
				{
					"inputs": [],
					"name": "token1",
					"outputs": [
						{
							"internalType": "contract IERC20",
							"name": "",
							"type": "address"
						}
					],
					"stateMutability": "view",
					"type": "function"
				},
				{
					"inputs": [],
					"name": "token2",
					"outputs": [
						{
							"internalType": "contract IERC20",
							"name": "",
							"type": "address"
						}
					],
					"stateMutability": "view",
					"type": "function"
				},
				{
					"inputs": [],
					"name": "token3",
					"outputs": [
						{
							"internalType": "contract IERC20",
							"name": "",
							"type": "address"
						}
					],
					"stateMutability": "view",
					"type": "function"
				},
				{
					"inputs": [],
					"name": "weight1",
					"outputs": [
						{
							"internalType": "uint256",
							"name": "",
							"type": "uint256"
						}
					],
					"stateMutability": "view",
					"type": "function"
				},
				{
					"inputs": [],
					"name": "weight2",
					"outputs": [
						{
							"internalType": "uint256",
							"name": "",
							"type": "uint256"
						}
					],
					"stateMutability": "view",
					"type": "function"
				},
				{
					"inputs": [],
					"name": "weight3",
					"outputs": [
						{
							"internalType": "uint256",
							"name": "",
							"type": "uint256"
						}
					],
					"stateMutability": "view",
					"type": "function"
				}
			],
			"devdoc": {
				"kind": "dev",
				"methods": {},
				"version": 1
			},
			"evm": {
				"assembly": "    /* \"trustless cross-chain/trading pair formation/SimpleBalancerAMM.sol\":116:3630  contract SimpleBalancerAMM {... */\n  mstore(0x40, 0x80)\n    /* \"trustless cross-chain/trading pair formation/SimpleBalancerAMM.sol\":411:875  constructor(... */\n  callvalue\n  dup1\n  iszero\n  tag_1\n  jumpi\n  0x00\n  dup1\n  revert\ntag_1:\n  pop\n  mload(0x40)\n  sub(codesize, bytecodeSize)\n  dup1\n  bytecodeSize\n  dup4\n  codecopy\n  dup2\n  dup2\n  add\n  0x40\n  mstore\n  dup2\n  add\n  swap1\n  tag_2\n  swap2\n  swap1\n  tag_3\n  jump\t// in\ntag_2:\n    /* \"trustless cross-chain/trading pair formation/SimpleBalancerAMM.sol\":608:615  _token1 */\n  dup6\n    /* \"trustless cross-chain/trading pair formation/SimpleBalancerAMM.sol\":592:598  token1 */\n  0x00\n  dup1\n    /* \"trustless cross-chain/trading pair formation/SimpleBalancerAMM.sol\":592:616  token1 = IERC20(_token1) */\n  0x0100\n  exp\n  dup2\n  sload\n  dup2\n  0xffffffffffffffffffffffffffffffffffffffff\n  mul\n  not\n  and\n  swap1\n  dup4\n  0xffffffffffffffffffffffffffffffffffffffff\n  and\n  mul\n  or\n  swap1\n  sstore\n  pop\n    /* \"trustless cross-chain/trading pair formation/SimpleBalancerAMM.sol\":642:649  _token2 */\n  dup5\n    /* \"trustless cross-chain/trading pair formation/SimpleBalancerAMM.sol\":626:632  token2 */\n  0x01\n  0x00\n    /* \"trustless cross-chain/trading pair formation/SimpleBalancerAMM.sol\":626:650  token2 = IERC20(_token2) */\n  0x0100\n  exp\n  dup2\n  sload\n  dup2\n  0xffffffffffffffffffffffffffffffffffffffff\n  mul\n  not\n  and\n  swap1\n  dup4\n  0xffffffffffffffffffffffffffffffffffffffff\n  and\n  mul\n  or\n  swap1\n  sstore\n  pop\n    /* \"trustless cross-chain/trading pair formation/SimpleBalancerAMM.sol\":676:683  _token3 */\n  dup4\n    /* \"trustless cross-chain/trading pair formation/SimpleBalancerAMM.sol\":660:666  token3 */\n  0x02\n  0x00\n    /* \"trustless cross-chain/trading pair formation/SimpleBalancerAMM.sol\":660:684  token3 = IERC20(_token3) */\n  0x0100\n  exp\n  dup2\n  sload\n  dup2\n  0xffffffffffffffffffffffffffffffffffffffff\n  mul\n  not\n  and\n  swap1\n  dup4\n  0xffffffffffffffffffffffffffffffffffffffff\n  and\n  mul\n  or\n  swap1\n  sstore\n  pop\n    /* \"trustless cross-chain/trading pair formation/SimpleBalancerAMM.sol\":704:712  _weight1 */\n  dup3\n    /* \"trustless cross-chain/trading pair formation/SimpleBalancerAMM.sol\":694:701  weight1 */\n  0x06\n    /* \"trustless cross-chain/trading pair formation/SimpleBalancerAMM.sol\":694:712  weight1 = _weight1 */\n  dup2\n  swap1\n  sstore\n  pop\n    /* \"trustless cross-chain/trading pair formation/SimpleBalancerAMM.sol\":732:740  _weight2 */\n  dup2\n    /* \"trustless cross-chain/trading pair formation/SimpleBalancerAMM.sol\":722:729  weight2 */\n  0x07\n    /* \"trustless cross-chain/trading pair formation/SimpleBalancerAMM.sol\":722:740  weight2 = _weight2 */\n  dup2\n  swap1\n  sstore\n  pop\n    /* \"trustless cross-chain/trading pair formation/SimpleBalancerAMM.sol\":760:768  _weight3 */\n  dup1\n    /* \"trustless cross-chain/trading pair formation/SimpleBalancerAMM.sol\":750:757  weight3 */\n  0x08\n    /* \"trustless cross-chain/trading pair formation/SimpleBalancerAMM.sol\":750:768  weight3 = _weight3 */\n  dup2\n  swap1\n  sstore\n  pop\n    /* \"trustless cross-chain/trading pair formation/SimpleBalancerAMM.sol\":817:820  100 */\n  0x64\n    /* \"trustless cross-chain/trading pair formation/SimpleBalancerAMM.sol\":806:813  weight3 */\n  sload(0x08)\n    /* \"trustless cross-chain/trading pair formation/SimpleBalancerAMM.sol\":796:803  weight2 */\n  sload(0x07)\n    /* \"trustless cross-chain/trading pair formation/SimpleBalancerAMM.sol\":786:793  weight1 */\n  sload(0x06)\n    /* \"trustless cross-chain/trading pair formation/SimpleBalancerAMM.sol\":786:803  weight1 + weight2 */\n  tag_6\n  swap2\n  swap1\n  tag_7\n  jump\t// in\ntag_6:\n    /* \"trustless cross-chain/trading pair formation/SimpleBalancerAMM.sol\":786:813  weight1 + weight2 + weight3 */\n  tag_8\n  swap2\n  swap1\n  tag_7\n  jump\t// in\ntag_8:\n    /* \"trustless cross-chain/trading pair formation/SimpleBalancerAMM.sol\":786:820  weight1 + weight2 + weight3 == 100 */\n  eq\n    /* \"trustless cross-chain/trading pair formation/SimpleBalancerAMM.sol\":778:868  require(weight1 + weight2 + weight3 == 100, \"The sum of the weights must be equal to 100\") */\n  tag_9\n  jumpi\n  mload(0x40)\n  0x08c379a000000000000000000000000000000000000000000000000000000000\n  dup2\n  mstore\n  0x04\n  add\n  tag_10\n  swap1\n  tag_11\n  jump\t// in\ntag_10:\n  mload(0x40)\n  dup1\n  swap2\n  sub\n  swap1\n  revert\ntag_9:\n    /* \"trustless cross-chain/trading pair formation/SimpleBalancerAMM.sol\":411:875  constructor(... */\n  pop\n  pop\n  pop\n  pop\n  pop\n  pop\n    /* \"trustless cross-chain/trading pair formation/SimpleBalancerAMM.sol\":116:3630  contract SimpleBalancerAMM {... */\n  jump(tag_12)\n    /* \"#utility.yul\":88:205   */\ntag_14:\n    /* \"#utility.yul\":197:198   */\n  0x00\n    /* \"#utility.yul\":194:195   */\n  dup1\n    /* \"#utility.yul\":187:199   */\n  revert\n    /* \"#utility.yul\":334:460   */\ntag_16:\n    /* \"#utility.yul\":371:378   */\n  0x00\n    /* \"#utility.yul\":411:453   */\n  0xffffffffffffffffffffffffffffffffffffffff\n    /* \"#utility.yul\":404:409   */\n  dup3\n    /* \"#utility.yul\":400:454   */\n  and\n    /* \"#utility.yul\":389:454   */\n  swap1\n  pop\n    /* \"#utility.yul\":334:460   */\n  swap2\n  swap1\n  pop\n  jump\t// out\n    /* \"#utility.yul\":466:562   */\ntag_17:\n    /* \"#utility.yul\":503:510   */\n  0x00\n    /* \"#utility.yul\":532:556   */\n  tag_33\n    /* \"#utility.yul\":550:555   */\n  dup3\n    /* \"#utility.yul\":532:556   */\n  tag_16\n  jump\t// in\ntag_33:\n    /* \"#utility.yul\":521:556   */\n  swap1\n  pop\n    /* \"#utility.yul\":466:562   */\n  swap2\n  swap1\n  pop\n  jump\t// out\n    /* \"#utility.yul\":568:690   */\ntag_18:\n    /* \"#utility.yul\":641:665   */\n  tag_35\n    /* \"#utility.yul\":659:664   */\n  dup2\n    /* \"#utility.yul\":641:665   */\n  tag_17\n  jump\t// in\ntag_35:\n    /* \"#utility.yul\":634:639   */\n  dup2\n    /* \"#utility.yul\":631:666   */\n  eq\n    /* \"#utility.yul\":621:684   */\n  tag_36\n  jumpi\n    /* \"#utility.yul\":680:681   */\n  0x00\n    /* \"#utility.yul\":677:678   */\n  dup1\n    /* \"#utility.yul\":670:682   */\n  revert\n    /* \"#utility.yul\":621:684   */\ntag_36:\n    /* \"#utility.yul\":568:690   */\n  pop\n  jump\t// out\n    /* \"#utility.yul\":696:839   */\ntag_19:\n    /* \"#utility.yul\":753:758   */\n  0x00\n    /* \"#utility.yul\":784:790   */\n  dup2\n    /* \"#utility.yul\":778:791   */\n  mload\n    /* \"#utility.yul\":769:791   */\n  swap1\n  pop\n    /* \"#utility.yul\":800:833   */\n  tag_38\n    /* \"#utility.yul\":827:832   */\n  dup2\n    /* \"#utility.yul\":800:833   */\n  tag_18\n  jump\t// in\ntag_38:\n    /* \"#utility.yul\":696:839   */\n  swap3\n  swap2\n  pop\n  pop\n  jump\t// out\n    /* \"#utility.yul\":845:922   */\ntag_20:\n    /* \"#utility.yul\":882:889   */\n  0x00\n    /* \"#utility.yul\":911:916   */\n  dup2\n    /* \"#utility.yul\":900:916   */\n  swap1\n  pop\n    /* \"#utility.yul\":845:922   */\n  swap2\n  swap1\n  pop\n  jump\t// out\n    /* \"#utility.yul\":928:1050   */\ntag_21:\n    /* \"#utility.yul\":1001:1025   */\n  tag_41\n    /* \"#utility.yul\":1019:1024   */\n  dup2\n    /* \"#utility.yul\":1001:1025   */\n  tag_20\n  jump\t// in\ntag_41:\n    /* \"#utility.yul\":994:999   */\n  dup2\n    /* \"#utility.yul\":991:1026   */\n  eq\n    /* \"#utility.yul\":981:1044   */\n  tag_42\n  jumpi\n    /* \"#utility.yul\":1040:1041   */\n  0x00\n    /* \"#utility.yul\":1037:1038   */\n  dup1\n    /* \"#utility.yul\":1030:1042   */\n  revert\n    /* \"#utility.yul\":981:1044   */\ntag_42:\n    /* \"#utility.yul\":928:1050   */\n  pop\n  jump\t// out\n    /* \"#utility.yul\":1056:1199   */\ntag_22:\n    /* \"#utility.yul\":1113:1118   */\n  0x00\n    /* \"#utility.yul\":1144:1150   */\n  dup2\n    /* \"#utility.yul\":1138:1151   */\n  mload\n    /* \"#utility.yul\":1129:1151   */\n  swap1\n  pop\n    /* \"#utility.yul\":1160:1193   */\n  tag_44\n    /* \"#utility.yul\":1187:1192   */\n  dup2\n    /* \"#utility.yul\":1160:1193   */\n  tag_21\n  jump\t// in\ntag_44:\n    /* \"#utility.yul\":1056:1199   */\n  swap3\n  swap2\n  pop\n  pop\n  jump\t// out\n    /* \"#utility.yul\":1205:2339   */\ntag_3:\n    /* \"#utility.yul\":1320:1326   */\n  0x00\n    /* \"#utility.yul\":1328:1334   */\n  dup1\n    /* \"#utility.yul\":1336:1342   */\n  0x00\n    /* \"#utility.yul\":1344:1350   */\n  dup1\n    /* \"#utility.yul\":1352:1358   */\n  0x00\n    /* \"#utility.yul\":1360:1366   */\n  dup1\n    /* \"#utility.yul\":1409:1412   */\n  0xc0\n    /* \"#utility.yul\":1397:1406   */\n  dup8\n    /* \"#utility.yul\":1388:1395   */\n  dup10\n    /* \"#utility.yul\":1384:1407   */\n  sub\n    /* \"#utility.yul\":1380:1413   */\n  slt\n    /* \"#utility.yul\":1377:1497   */\n  iszero\n  tag_46\n  jumpi\n    /* \"#utility.yul\":1416:1495   */\n  tag_47\n  tag_14\n  jump\t// in\ntag_47:\n    /* \"#utility.yul\":1377:1497   */\ntag_46:\n    /* \"#utility.yul\":1536:1537   */\n  0x00\n    /* \"#utility.yul\":1561:1625   */\n  tag_48\n    /* \"#utility.yul\":1617:1624   */\n  dup10\n    /* \"#utility.yul\":1608:1614   */\n  dup3\n    /* \"#utility.yul\":1597:1606   */\n  dup11\n    /* \"#utility.yul\":1593:1615   */\n  add\n    /* \"#utility.yul\":1561:1625   */\n  tag_19\n  jump\t// in\ntag_48:\n    /* \"#utility.yul\":1551:1625   */\n  swap7\n  pop\n    /* \"#utility.yul\":1507:1635   */\n  pop\n    /* \"#utility.yul\":1674:1676   */\n  0x20\n    /* \"#utility.yul\":1700:1764   */\n  tag_49\n    /* \"#utility.yul\":1756:1763   */\n  dup10\n    /* \"#utility.yul\":1747:1753   */\n  dup3\n    /* \"#utility.yul\":1736:1745   */\n  dup11\n    /* \"#utility.yul\":1732:1754   */\n  add\n    /* \"#utility.yul\":1700:1764   */\n  tag_19\n  jump\t// in\ntag_49:\n    /* \"#utility.yul\":1690:1764   */\n  swap6\n  pop\n    /* \"#utility.yul\":1645:1774   */\n  pop\n    /* \"#utility.yul\":1813:1815   */\n  0x40\n    /* \"#utility.yul\":1839:1903   */\n  tag_50\n    /* \"#utility.yul\":1895:1902   */\n  dup10\n    /* \"#utility.yul\":1886:1892   */\n  dup3\n    /* \"#utility.yul\":1875:1884   */\n  dup11\n    /* \"#utility.yul\":1871:1893   */\n  add\n    /* \"#utility.yul\":1839:1903   */\n  tag_19\n  jump\t// in\ntag_50:\n    /* \"#utility.yul\":1829:1903   */\n  swap5\n  pop\n    /* \"#utility.yul\":1784:1913   */\n  pop\n    /* \"#utility.yul\":1952:1954   */\n  0x60\n    /* \"#utility.yul\":1978:2042   */\n  tag_51\n    /* \"#utility.yul\":2034:2041   */\n  dup10\n    /* \"#utility.yul\":2025:2031   */\n  dup3\n    /* \"#utility.yul\":2014:2023   */\n  dup11\n    /* \"#utility.yul\":2010:2032   */\n  add\n    /* \"#utility.yul\":1978:2042   */\n  tag_22\n  jump\t// in\ntag_51:\n    /* \"#utility.yul\":1968:2042   */\n  swap4\n  pop\n    /* \"#utility.yul\":1923:2052   */\n  pop\n    /* \"#utility.yul\":2091:2094   */\n  0x80\n    /* \"#utility.yul\":2118:2182   */\n  tag_52\n    /* \"#utility.yul\":2174:2181   */\n  dup10\n    /* \"#utility.yul\":2165:2171   */\n  dup3\n    /* \"#utility.yul\":2154:2163   */\n  dup11\n    /* \"#utility.yul\":2150:2172   */\n  add\n    /* \"#utility.yul\":2118:2182   */\n  tag_22\n  jump\t// in\ntag_52:\n    /* \"#utility.yul\":2108:2182   */\n  swap3\n  pop\n    /* \"#utility.yul\":2062:2192   */\n  pop\n    /* \"#utility.yul\":2231:2234   */\n  0xa0\n    /* \"#utility.yul\":2258:2322   */\n  tag_53\n    /* \"#utility.yul\":2314:2321   */\n  dup10\n    /* \"#utility.yul\":2305:2311   */\n  dup3\n    /* \"#utility.yul\":2294:2303   */\n  dup11\n    /* \"#utility.yul\":2290:2312   */\n  add\n    /* \"#utility.yul\":2258:2322   */\n  tag_22\n  jump\t// in\ntag_53:\n    /* \"#utility.yul\":2248:2322   */\n  swap2\n  pop\n    /* \"#utility.yul\":2202:2332   */\n  pop\n    /* \"#utility.yul\":1205:2339   */\n  swap3\n  swap6\n  pop\n  swap3\n  swap6\n  pop\n  swap3\n  swap6\n  jump\t// out\n    /* \"#utility.yul\":2345:2525   */\ntag_23:\n    /* \"#utility.yul\":2393:2470   */\n  0x4e487b7100000000000000000000000000000000000000000000000000000000\n    /* \"#utility.yul\":2390:2391   */\n  0x00\n    /* \"#utility.yul\":2383:2471   */\n  mstore\n    /* \"#utility.yul\":2490:2494   */\n  0x11\n    /* \"#utility.yul\":2487:2488   */\n  0x04\n    /* \"#utility.yul\":2480:2495   */\n  mstore\n    /* \"#utility.yul\":2514:2518   */\n  0x24\n    /* \"#utility.yul\":2511:2512   */\n  0x00\n    /* \"#utility.yul\":2504:2519   */\n  revert\n    /* \"#utility.yul\":2531:2722   */\ntag_7:\n    /* \"#utility.yul\":2571:2574   */\n  0x00\n    /* \"#utility.yul\":2590:2610   */\n  tag_56\n    /* \"#utility.yul\":2608:2609   */\n  dup3\n    /* \"#utility.yul\":2590:2610   */\n  tag_20\n  jump\t// in\ntag_56:\n    /* \"#utility.yul\":2585:2610   */\n  swap2\n  pop\n    /* \"#utility.yul\":2624:2644   */\n  tag_57\n    /* \"#utility.yul\":2642:2643   */\n  dup4\n    /* \"#utility.yul\":2624:2644   */\n  tag_20\n  jump\t// in\ntag_57:\n    /* \"#utility.yul\":2619:2644   */\n  swap3\n  pop\n    /* \"#utility.yul\":2667:2668   */\n  dup3\n    /* \"#utility.yul\":2664:2665   */\n  dup3\n    /* \"#utility.yul\":2660:2669   */\n  add\n    /* \"#utility.yul\":2653:2669   */\n  swap1\n  pop\n    /* \"#utility.yul\":2688:2691   */\n  dup1\n    /* \"#utility.yul\":2685:2686   */\n  dup3\n    /* \"#utility.yul\":2682:2692   */\n  gt\n    /* \"#utility.yul\":2679:2715   */\n  iszero\n  tag_58\n  jumpi\n    /* \"#utility.yul\":2695:2713   */\n  tag_59\n  tag_23\n  jump\t// in\ntag_59:\n    /* \"#utility.yul\":2679:2715   */\ntag_58:\n    /* \"#utility.yul\":2531:2722   */\n  swap3\n  swap2\n  pop\n  pop\n  jump\t// out\n    /* \"#utility.yul\":2728:2897   */\ntag_24:\n    /* \"#utility.yul\":2812:2823   */\n  0x00\n    /* \"#utility.yul\":2846:2852   */\n  dup3\n    /* \"#utility.yul\":2841:2844   */\n  dup3\n    /* \"#utility.yul\":2834:2853   */\n  mstore\n    /* \"#utility.yul\":2886:2890   */\n  0x20\n    /* \"#utility.yul\":2881:2884   */\n  dup3\n    /* \"#utility.yul\":2877:2891   */\n  add\n    /* \"#utility.yul\":2862:2891   */\n  swap1\n  pop\n    /* \"#utility.yul\":2728:2897   */\n  swap3\n  swap2\n  pop\n  pop\n  jump\t// out\n    /* \"#utility.yul\":2903:3133   */\ntag_25:\n    /* \"#utility.yul\":3043:3077   */\n  0x5468652073756d206f66207468652077656967687473206d7573742062652065\n    /* \"#utility.yul\":3039:3040   */\n  0x00\n    /* \"#utility.yul\":3031:3037   */\n  dup3\n    /* \"#utility.yul\":3027:3041   */\n  add\n    /* \"#utility.yul\":3020:3078   */\n  mstore\n    /* \"#utility.yul\":3112:3125   */\n  0x7175616c20746f20313030000000000000000000000000000000000000000000\n    /* \"#utility.yul\":3107:3109   */\n  0x20\n    /* \"#utility.yul\":3099:3105   */\n  dup3\n    /* \"#utility.yul\":3095:3110   */\n  add\n    /* \"#utility.yul\":3088:3126   */\n  mstore\n    /* \"#utility.yul\":2903:3133   */\n  pop\n  jump\t// out\n    /* \"#utility.yul\":3139:3505   */\ntag_26:\n    /* \"#utility.yul\":3281:3284   */\n  0x00\n    /* \"#utility.yul\":3302:3369   */\n  tag_63\n    /* \"#utility.yul\":3366:3368   */\n  0x2b\n    /* \"#utility.yul\":3361:3364   */\n  dup4\n    /* \"#utility.yul\":3302:3369   */\n  tag_24\n  jump\t// in\ntag_63:\n    /* \"#utility.yul\":3295:3369   */\n  swap2\n  pop\n    /* \"#utility.yul\":3378:3471   */\n  tag_64\n    /* \"#utility.yul\":3467:3470   */\n  dup3\n    /* \"#utility.yul\":3378:3471   */\n  tag_25\n  jump\t// in\ntag_64:\n    /* \"#utility.yul\":3496:3498   */\n  0x40\n    /* \"#utility.yul\":3491:3494   */\n  dup3\n    /* \"#utility.yul\":3487:3499   */\n  add\n    /* \"#utility.yul\":3480:3499   */\n  swap1\n  pop\n    /* \"#utility.yul\":3139:3505   */\n  swap2\n  swap1\n  pop\n  jump\t// out\n    /* \"#utility.yul\":3511:3930   */\ntag_11:\n    /* \"#utility.yul\":3677:3681   */\n  0x00\n    /* \"#utility.yul\":3715:3717   */\n  0x20\n    /* \"#utility.yul\":3704:3713   */\n  dup3\n    /* \"#utility.yul\":3700:3718   */\n  add\n    /* \"#utility.yul\":3692:3718   */\n  swap1\n  pop\n    /* \"#utility.yul\":3764:3773   */\n  dup2\n    /* \"#utility.yul\":3758:3762   */\n  dup2\n    /* \"#utility.yul\":3754:3774   */\n  sub\n    /* \"#utility.yul\":3750:3751   */\n  0x00\n    /* \"#utility.yul\":3739:3748   */\n  dup4\n    /* \"#utility.yul\":3735:3752   */\n  add\n    /* \"#utility.yul\":3728:3775   */\n  mstore\n    /* \"#utility.yul\":3792:3923   */\n  tag_66\n    /* \"#utility.yul\":3918:3922   */\n  dup2\n    /* \"#utility.yul\":3792:3923   */\n  tag_26\n  jump\t// in\ntag_66:\n    /* \"#utility.yul\":3784:3923   */\n  swap1\n  pop\n    /* \"#utility.yul\":3511:3930   */\n  swap2\n  swap1\n  pop\n  jump\t// out\n    /* \"trustless cross-chain/trading pair formation/SimpleBalancerAMM.sol\":116:3630  contract SimpleBalancerAMM {... */\ntag_12:\n  dataSize(sub_0)\n  dup1\n  dataOffset(sub_0)\n  0x00\n  codecopy\n  0x00\n  return\nstop\n\nsub_0: assembly {\n        /* \"trustless cross-chain/trading pair formation/SimpleBalancerAMM.sol\":116:3630  contract SimpleBalancerAMM {... */\n      mstore(0x40, 0x80)\n      callvalue\n      dup1\n      iszero\n      tag_1\n      jumpi\n      0x00\n      dup1\n      revert\n    tag_1:\n      pop\n      jumpi(tag_2, lt(calldatasize, 0x04))\n      shr(0xe0, calldataload(0x00))\n      dup1\n      0xd21220a7\n      gt\n      tag_14\n      jumpi\n      dup1\n      0xd21220a7\n      eq\n      tag_8\n      jumpi\n      dup1\n      0xd32650cf\n      eq\n      tag_9\n      jumpi\n      dup1\n      0xda2a788c\n      eq\n      tag_10\n      jumpi\n      dup1\n      0xdd531518\n      eq\n      tag_11\n      jumpi\n      dup1\n      0xeb15388e\n      eq\n      tag_12\n      jumpi\n      dup1\n      0xef14101e\n      eq\n      tag_13\n      jumpi\n      jump(tag_2)\n    tag_14:\n      dup1\n      0x25be124e\n      eq\n      tag_3\n      jumpi\n      dup1\n      0x4758af8a\n      eq\n      tag_4\n      jumpi\n      dup1\n      0x64901520\n      eq\n      tag_5\n      jumpi\n      dup1\n      0x67088d59\n      eq\n      tag_6\n      jumpi\n      dup1\n      0xbaaa61be\n      eq\n      tag_7\n      jumpi\n    tag_2:\n      0x00\n      dup1\n      revert\n        /* \"trustless cross-chain/trading pair formation/SimpleBalancerAMM.sol\":175:195  IERC20 public token2 */\n    tag_3:\n      tag_15\n      tag_16\n      jump\t// in\n    tag_15:\n      mload(0x40)\n      tag_17\n      swap2\n      swap1\n      tag_18\n      jump\t// in\n    tag_17:\n      mload(0x40)\n      dup1\n      swap2\n      sub\n      swap1\n      return\n        /* \"trustless cross-chain/trading pair formation/SimpleBalancerAMM.sol\":232:257  uint256 public poolToken1 */\n    tag_4:\n      tag_19\n      tag_20\n      jump\t// in\n    tag_19:\n      mload(0x40)\n      tag_21\n      swap2\n      swap1\n      tag_22\n      jump\t// in\n    tag_21:\n      mload(0x40)\n      dup1\n      swap2\n      sub\n      swap1\n      return\n        /* \"trustless cross-chain/trading pair formation/SimpleBalancerAMM.sol\":382:404  uint256 public weight3 */\n    tag_5:\n      tag_23\n      tag_24\n      jump\t// in\n    tag_23:\n      mload(0x40)\n      tag_25\n      swap2\n      swap1\n      tag_22\n      jump\t// in\n    tag_25:\n      mload(0x40)\n      dup1\n      swap2\n      sub\n      swap1\n      return\n        /* \"trustless cross-chain/trading pair formation/SimpleBalancerAMM.sol\":1071:2367  function addLiquidity(... */\n    tag_6:\n      tag_26\n      0x04\n      dup1\n      calldatasize\n      sub\n      dup2\n      add\n      swap1\n      tag_27\n      swap2\n      swap1\n      tag_28\n      jump\t// in\n    tag_27:\n      tag_29\n      jump\t// in\n    tag_26:\n      stop\n        /* \"trustless cross-chain/trading pair formation/SimpleBalancerAMM.sol\":2373:3628  function getExchangeRate(address fromToken, address toToken) external view returns (uint256) {... */\n    tag_7:\n      tag_30\n      0x04\n      dup1\n      calldatasize\n      sub\n      dup2\n      add\n      swap1\n      tag_31\n      swap2\n      swap1\n      tag_32\n      jump\t// in\n    tag_31:\n      tag_33\n      jump\t// in\n    tag_30:\n      mload(0x40)\n      tag_34\n      swap2\n      swap1\n      tag_22\n      jump\t// in\n    tag_34:\n      mload(0x40)\n      dup1\n      swap2\n      sub\n      swap1\n      return\n        /* \"trustless cross-chain/trading pair formation/SimpleBalancerAMM.sol\":149:169  IERC20 public token1 */\n    tag_8:\n      tag_35\n      tag_36\n      jump\t// in\n    tag_35:\n      mload(0x40)\n      tag_37\n      swap2\n      swap1\n      tag_18\n      jump\t// in\n    tag_37:\n      mload(0x40)\n      dup1\n      swap2\n      sub\n      swap1\n      return\n        /* \"trustless cross-chain/trading pair formation/SimpleBalancerAMM.sol\":354:376  uint256 public weight2 */\n    tag_9:\n      tag_38\n      tag_39\n      jump\t// in\n    tag_38:\n      mload(0x40)\n      tag_40\n      swap2\n      swap1\n      tag_22\n      jump\t// in\n    tag_40:\n      mload(0x40)\n      dup1\n      swap2\n      sub\n      swap1\n      return\n        /* \"trustless cross-chain/trading pair formation/SimpleBalancerAMM.sol\":263:288  uint256 public poolToken2 */\n    tag_10:\n      tag_41\n      tag_42\n      jump\t// in\n    tag_41:\n      mload(0x40)\n      tag_43\n      swap2\n      swap1\n      tag_22\n      jump\t// in\n    tag_43:\n      mload(0x40)\n      dup1\n      swap2\n      sub\n      swap1\n      return\n        /* \"trustless cross-chain/trading pair formation/SimpleBalancerAMM.sol\":326:348  uint256 public weight1 */\n    tag_11:\n      tag_44\n      tag_45\n      jump\t// in\n    tag_44:\n      mload(0x40)\n      tag_46\n      swap2\n      swap1\n      tag_22\n      jump\t// in\n    tag_46:\n      mload(0x40)\n      dup1\n      swap2\n      sub\n      swap1\n      return\n        /* \"trustless cross-chain/trading pair formation/SimpleBalancerAMM.sol\":294:319  uint256 public poolToken3 */\n    tag_12:\n      tag_47\n      tag_48\n      jump\t// in\n    tag_47:\n      mload(0x40)\n      tag_49\n      swap2\n      swap1\n      tag_22\n      jump\t// in\n    tag_49:\n      mload(0x40)\n      dup1\n      swap2\n      sub\n      swap1\n      return\n        /* \"trustless cross-chain/trading pair formation/SimpleBalancerAMM.sol\":201:221  IERC20 public token3 */\n    tag_13:\n      tag_50\n      tag_51\n      jump\t// in\n    tag_50:\n      mload(0x40)\n      tag_52\n      swap2\n      swap1\n      tag_18\n      jump\t// in\n    tag_52:\n      mload(0x40)\n      dup1\n      swap2\n      sub\n      swap1\n      return\n        /* \"trustless cross-chain/trading pair formation/SimpleBalancerAMM.sol\":175:195  IERC20 public token2 */\n    tag_16:\n      0x01\n      0x00\n      swap1\n      sload\n      swap1\n      0x0100\n      exp\n      swap1\n      div\n      0xffffffffffffffffffffffffffffffffffffffff\n      and\n      dup2\n      jump\t// out\n        /* \"trustless cross-chain/trading pair formation/SimpleBalancerAMM.sol\":232:257  uint256 public poolToken1 */\n    tag_20:\n      sload(0x03)\n      dup2\n      jump\t// out\n        /* \"trustless cross-chain/trading pair formation/SimpleBalancerAMM.sol\":382:404  uint256 public weight3 */\n    tag_24:\n      sload(0x08)\n      dup2\n      jump\t// out\n        /* \"trustless cross-chain/trading pair formation/SimpleBalancerAMM.sol\":1071:2367  function addLiquidity(... */\n    tag_29:\n        /* \"trustless cross-chain/trading pair formation/SimpleBalancerAMM.sol\":1280:1281  0 */\n      0x00\n        /* \"trustless cross-chain/trading pair formation/SimpleBalancerAMM.sol\":1270:1277  amount1 */\n      dup4\n        /* \"trustless cross-chain/trading pair formation/SimpleBalancerAMM.sol\":1270:1281  amount1 > 0 */\n      gt\n        /* \"trustless cross-chain/trading pair formation/SimpleBalancerAMM.sol\":1270:1296  amount1 > 0 && amount2 > 0 */\n      dup1\n      iszero\n      tag_54\n      jumpi\n      pop\n        /* \"trustless cross-chain/trading pair formation/SimpleBalancerAMM.sol\":1295:1296  0 */\n      0x00\n        /* \"trustless cross-chain/trading pair formation/SimpleBalancerAMM.sol\":1285:1292  amount2 */\n      dup3\n        /* \"trustless cross-chain/trading pair formation/SimpleBalancerAMM.sol\":1285:1296  amount2 > 0 */\n      gt\n        /* \"trustless cross-chain/trading pair formation/SimpleBalancerAMM.sol\":1270:1296  amount1 > 0 && amount2 > 0 */\n    tag_54:\n        /* \"trustless cross-chain/trading pair formation/SimpleBalancerAMM.sol\":1270:1311  amount1 > 0 && amount2 > 0 && amount3 > 0 */\n      dup1\n      iszero\n      tag_55\n      jumpi\n      pop\n        /* \"trustless cross-chain/trading pair formation/SimpleBalancerAMM.sol\":1310:1311  0 */\n      0x00\n        /* \"trustless cross-chain/trading pair formation/SimpleBalancerAMM.sol\":1300:1307  amount3 */\n      dup2\n        /* \"trustless cross-chain/trading pair formation/SimpleBalancerAMM.sol\":1300:1311  amount3 > 0 */\n      gt\n        /* \"trustless cross-chain/trading pair formation/SimpleBalancerAMM.sol\":1270:1311  amount1 > 0 && amount2 > 0 && amount3 > 0 */\n    tag_55:\n        /* \"trustless cross-chain/trading pair formation/SimpleBalancerAMM.sol\":1262:1346  require(amount1 > 0 && amount2 > 0 && amount3 > 0, \"Amounts must be greater than 0\") */\n      tag_56\n      jumpi\n      mload(0x40)\n      0x08c379a000000000000000000000000000000000000000000000000000000000\n      dup2\n      mstore\n      0x04\n      add\n      tag_57\n      swap1\n      tag_58\n      jump\t// in\n    tag_57:\n      mload(0x40)\n      dup1\n      swap2\n      sub\n      swap1\n      revert\n    tag_56:\n        /* \"trustless cross-chain/trading pair formation/SimpleBalancerAMM.sol\":1357:1375  uint256 allowance1 */\n      0x00\n        /* \"trustless cross-chain/trading pair formation/SimpleBalancerAMM.sol\":1378:1384  token1 */\n      dup1\n      0x00\n      swap1\n      sload\n      swap1\n      0x0100\n      exp\n      swap1\n      div\n      0xffffffffffffffffffffffffffffffffffffffff\n      and\n        /* \"trustless cross-chain/trading pair formation/SimpleBalancerAMM.sol\":1378:1394  token1.allowance */\n      0xffffffffffffffffffffffffffffffffffffffff\n      and\n      0xdd62ed3e\n        /* \"trustless cross-chain/trading pair formation/SimpleBalancerAMM.sol\":1395:1400  from1 */\n      dup9\n        /* \"trustless cross-chain/trading pair formation/SimpleBalancerAMM.sol\":1410:1414  this */\n      address\n        /* \"trustless cross-chain/trading pair formation/SimpleBalancerAMM.sol\":1378:1416  token1.allowance(from1, address(this)) */\n      mload(0x40)\n      dup4\n      0xffffffff\n      and\n      0xe0\n      shl\n      dup2\n      mstore\n      0x04\n      add\n      tag_59\n      swap3\n      swap2\n      swap1\n      tag_60\n      jump\t// in\n    tag_59:\n      0x20\n      mload(0x40)\n      dup1\n      dup4\n      sub\n      dup2\n      dup7\n      gas\n      staticcall\n      iszero\n      dup1\n      iszero\n      tag_62\n      jumpi\n      returndatasize\n      0x00\n      dup1\n      returndatacopy\n      revert(0x00, returndatasize)\n    tag_62:\n      pop\n      pop\n      pop\n      pop\n      mload(0x40)\n      returndatasize\n      not(0x1f)\n      0x1f\n      dup3\n      add\n      and\n      dup3\n      add\n      dup1\n      0x40\n      mstore\n      pop\n      dup2\n      add\n      swap1\n      tag_63\n      swap2\n      swap1\n      tag_64\n      jump\t// in\n    tag_63:\n        /* \"trustless cross-chain/trading pair formation/SimpleBalancerAMM.sol\":1357:1416  uint256 allowance1 = token1.allowance(from1, address(this)) */\n      swap1\n      pop\n        /* \"trustless cross-chain/trading pair formation/SimpleBalancerAMM.sol\":1426:1444  uint256 allowance2 */\n      0x00\n        /* \"trustless cross-chain/trading pair formation/SimpleBalancerAMM.sol\":1447:1453  token2 */\n      0x01\n      0x00\n      swap1\n      sload\n      swap1\n      0x0100\n      exp\n      swap1\n      div\n      0xffffffffffffffffffffffffffffffffffffffff\n      and\n        /* \"trustless cross-chain/trading pair formation/SimpleBalancerAMM.sol\":1447:1463  token2.allowance */\n      0xffffffffffffffffffffffffffffffffffffffff\n      and\n      0xdd62ed3e\n        /* \"trustless cross-chain/trading pair formation/SimpleBalancerAMM.sol\":1464:1469  from2 */\n      dup9\n        /* \"trustless cross-chain/trading pair formation/SimpleBalancerAMM.sol\":1479:1483  this */\n      address\n        /* \"trustless cross-chain/trading pair formation/SimpleBalancerAMM.sol\":1447:1485  token2.allowance(from2, address(this)) */\n      mload(0x40)\n      dup4\n      0xffffffff\n      and\n      0xe0\n      shl\n      dup2\n      mstore\n      0x04\n      add\n      tag_65\n      swap3\n      swap2\n      swap1\n      tag_60\n      jump\t// in\n    tag_65:\n      0x20\n      mload(0x40)\n      dup1\n      dup4\n      sub\n      dup2\n      dup7\n      gas\n      staticcall\n      iszero\n      dup1\n      iszero\n      tag_67\n      jumpi\n      returndatasize\n      0x00\n      dup1\n      returndatacopy\n      revert(0x00, returndatasize)\n    tag_67:\n      pop\n      pop\n      pop\n      pop\n      mload(0x40)\n      returndatasize\n      not(0x1f)\n      0x1f\n      dup3\n      add\n      and\n      dup3\n      add\n      dup1\n      0x40\n      mstore\n      pop\n      dup2\n      add\n      swap1\n      tag_68\n      swap2\n      swap1\n      tag_64\n      jump\t// in\n    tag_68:\n        /* \"trustless cross-chain/trading pair formation/SimpleBalancerAMM.sol\":1426:1485  uint256 allowance2 = token2.allowance(from2, address(this)) */\n      swap1\n      pop\n        /* \"trustless cross-chain/trading pair formation/SimpleBalancerAMM.sol\":1495:1513  uint256 allowance3 */\n      0x00\n        /* \"trustless cross-chain/trading pair formation/SimpleBalancerAMM.sol\":1516:1522  token3 */\n      0x02\n      0x00\n      swap1\n      sload\n      swap1\n      0x0100\n      exp\n      swap1\n      div\n      0xffffffffffffffffffffffffffffffffffffffff\n      and\n        /* \"trustless cross-chain/trading pair formation/SimpleBalancerAMM.sol\":1516:1532  token3.allowance */\n      0xffffffffffffffffffffffffffffffffffffffff\n      and\n      0xdd62ed3e\n        /* \"trustless cross-chain/trading pair formation/SimpleBalancerAMM.sol\":1533:1538  from3 */\n      dup9\n        /* \"trustless cross-chain/trading pair formation/SimpleBalancerAMM.sol\":1548:1552  this */\n      address\n        /* \"trustless cross-chain/trading pair formation/SimpleBalancerAMM.sol\":1516:1554  token3.allowance(from3, address(this)) */\n      mload(0x40)\n      dup4\n      0xffffffff\n      and\n      0xe0\n      shl\n      dup2\n      mstore\n      0x04\n      add\n      tag_69\n      swap3\n      swap2\n      swap1\n      tag_60\n      jump\t// in\n    tag_69:\n      0x20\n      mload(0x40)\n      dup1\n      dup4\n      sub\n      dup2\n      dup7\n      gas\n      staticcall\n      iszero\n      dup1\n      iszero\n      tag_71\n      jumpi\n      returndatasize\n      0x00\n      dup1\n      returndatacopy\n      revert(0x00, returndatasize)\n    tag_71:\n      pop\n      pop\n      pop\n      pop\n      mload(0x40)\n      returndatasize\n      not(0x1f)\n      0x1f\n      dup3\n      add\n      and\n      dup3\n      add\n      dup1\n      0x40\n      mstore\n      pop\n      dup2\n      add\n      swap1\n      tag_72\n      swap2\n      swap1\n      tag_64\n      jump\t// in\n    tag_72:\n        /* \"trustless cross-chain/trading pair formation/SimpleBalancerAMM.sol\":1495:1554  uint256 allowance3 = token3.allowance(from3, address(this)) */\n      swap1\n      pop\n        /* \"trustless cross-chain/trading pair formation/SimpleBalancerAMM.sol\":1595:1602  amount1 */\n      dup6\n        /* \"trustless cross-chain/trading pair formation/SimpleBalancerAMM.sol\":1581:1591  allowance1 */\n      dup4\n        /* \"trustless cross-chain/trading pair formation/SimpleBalancerAMM.sol\":1581:1602  allowance1 >= amount1 */\n      lt\n      iszero\n        /* \"trustless cross-chain/trading pair formation/SimpleBalancerAMM.sol\":1573:1638  require(allowance1 >= amount1, \"Token 1 allowance is not enough\") */\n      tag_73\n      jumpi\n      mload(0x40)\n      0x08c379a000000000000000000000000000000000000000000000000000000000\n      dup2\n      mstore\n      0x04\n      add\n      tag_74\n      swap1\n      tag_75\n      jump\t// in\n    tag_74:\n      mload(0x40)\n      dup1\n      swap2\n      sub\n      swap1\n      revert\n    tag_73:\n        /* \"trustless cross-chain/trading pair formation/SimpleBalancerAMM.sol\":1670:1677  amount2 */\n      dup5\n        /* \"trustless cross-chain/trading pair formation/SimpleBalancerAMM.sol\":1656:1666  allowance2 */\n      dup3\n        /* \"trustless cross-chain/trading pair formation/SimpleBalancerAMM.sol\":1656:1677  allowance2 >= amount2 */\n      lt\n      iszero\n        /* \"trustless cross-chain/trading pair formation/SimpleBalancerAMM.sol\":1648:1713  require(allowance2 >= amount2, \"Token 2 allowance is not enough\") */\n      tag_76\n      jumpi\n      mload(0x40)\n      0x08c379a000000000000000000000000000000000000000000000000000000000\n      dup2\n      mstore\n      0x04\n      add\n      tag_77\n      swap1\n      tag_78\n      jump\t// in\n    tag_77:\n      mload(0x40)\n      dup1\n      swap2\n      sub\n      swap1\n      revert\n    tag_76:\n        /* \"trustless cross-chain/trading pair formation/SimpleBalancerAMM.sol\":1745:1752  amount3 */\n      dup4\n        /* \"trustless cross-chain/trading pair formation/SimpleBalancerAMM.sol\":1731:1741  allowance3 */\n      dup2\n        /* \"trustless cross-chain/trading pair formation/SimpleBalancerAMM.sol\":1731:1752  allowance3 >= amount3 */\n      lt\n      iszero\n        /* \"trustless cross-chain/trading pair formation/SimpleBalancerAMM.sol\":1723:1788  require(allowance3 >= amount3, \"Token 3 allowance is not enough\") */\n      tag_79\n      jumpi\n      mload(0x40)\n      0x08c379a000000000000000000000000000000000000000000000000000000000\n      dup2\n      mstore\n      0x04\n      add\n      tag_80\n      swap1\n      tag_81\n      jump\t// in\n    tag_80:\n      mload(0x40)\n      dup1\n      swap2\n      sub\n      swap1\n      revert\n    tag_79:\n        /* \"trustless cross-chain/trading pair formation/SimpleBalancerAMM.sol\":1807:1820  bool success1 */\n      0x00\n        /* \"trustless cross-chain/trading pair formation/SimpleBalancerAMM.sol\":1823:1829  token1 */\n      dup1\n      0x00\n      swap1\n      sload\n      swap1\n      0x0100\n      exp\n      swap1\n      div\n      0xffffffffffffffffffffffffffffffffffffffff\n      and\n        /* \"trustless cross-chain/trading pair formation/SimpleBalancerAMM.sol\":1823:1842  token1.transferFrom */\n      0xffffffffffffffffffffffffffffffffffffffff\n      and\n      0x23b872dd\n        /* \"trustless cross-chain/trading pair formation/SimpleBalancerAMM.sol\":1843:1848  from1 */\n      dup12\n        /* \"trustless cross-chain/trading pair formation/SimpleBalancerAMM.sol\":1858:1862  this */\n      address\n        /* \"trustless cross-chain/trading pair formation/SimpleBalancerAMM.sol\":1865:1872  amount1 */\n      dup11\n        /* \"trustless cross-chain/trading pair formation/SimpleBalancerAMM.sol\":1823:1873  token1.transferFrom(from1, address(this), amount1) */\n      mload(0x40)\n      dup5\n      0xffffffff\n      and\n      0xe0\n      shl\n      dup2\n      mstore\n      0x04\n      add\n      tag_82\n      swap4\n      swap3\n      swap2\n      swap1\n      tag_83\n      jump\t// in\n    tag_82:\n      0x20\n      mload(0x40)\n      dup1\n      dup4\n      sub\n      dup2\n      0x00\n      dup8\n      gas\n      call\n      iszero\n      dup1\n      iszero\n      tag_85\n      jumpi\n      returndatasize\n      0x00\n      dup1\n      returndatacopy\n      revert(0x00, returndatasize)\n    tag_85:\n      pop\n      pop\n      pop\n      pop\n      mload(0x40)\n      returndatasize\n      not(0x1f)\n      0x1f\n      dup3\n      add\n      and\n      dup3\n      add\n      dup1\n      0x40\n      mstore\n      pop\n      dup2\n      add\n      swap1\n      tag_86\n      swap2\n      swap1\n      tag_87\n      jump\t// in\n    tag_86:\n        /* \"trustless cross-chain/trading pair formation/SimpleBalancerAMM.sol\":1807:1873  bool success1 = token1.transferFrom(from1, address(this), amount1) */\n      swap1\n      pop\n        /* \"trustless cross-chain/trading pair formation/SimpleBalancerAMM.sol\":1883:1896  bool success2 */\n      0x00\n        /* \"trustless cross-chain/trading pair formation/SimpleBalancerAMM.sol\":1899:1905  token2 */\n      0x01\n      0x00\n      swap1\n      sload\n      swap1\n      0x0100\n      exp\n      swap1\n      div\n      0xffffffffffffffffffffffffffffffffffffffff\n      and\n        /* \"trustless cross-chain/trading pair formation/SimpleBalancerAMM.sol\":1899:1918  token2.transferFrom */\n      0xffffffffffffffffffffffffffffffffffffffff\n      and\n      0x23b872dd\n        /* \"trustless cross-chain/trading pair formation/SimpleBalancerAMM.sol\":1919:1924  from2 */\n      dup12\n        /* \"trustless cross-chain/trading pair formation/SimpleBalancerAMM.sol\":1934:1938  this */\n      address\n        /* \"trustless cross-chain/trading pair formation/SimpleBalancerAMM.sol\":1941:1948  amount2 */\n      dup11\n        /* \"trustless cross-chain/trading pair formation/SimpleBalancerAMM.sol\":1899:1949  token2.transferFrom(from2, address(this), amount2) */\n      mload(0x40)\n      dup5\n      0xffffffff\n      and\n      0xe0\n      shl\n      dup2\n      mstore\n      0x04\n      add\n      tag_88\n      swap4\n      swap3\n      swap2\n      swap1\n      tag_83\n      jump\t// in\n    tag_88:\n      0x20\n      mload(0x40)\n      dup1\n      dup4\n      sub\n      dup2\n      0x00\n      dup8\n      gas\n      call\n      iszero\n      dup1\n      iszero\n      tag_90\n      jumpi\n      returndatasize\n      0x00\n      dup1\n      returndatacopy\n      revert(0x00, returndatasize)\n    tag_90:\n      pop\n      pop\n      pop\n      pop\n      mload(0x40)\n      returndatasize\n      not(0x1f)\n      0x1f\n      dup3\n      add\n      and\n      dup3\n      add\n      dup1\n      0x40\n      mstore\n      pop\n      dup2\n      add\n      swap1\n      tag_91\n      swap2\n      swap1\n      tag_87\n      jump\t// in\n    tag_91:\n        /* \"trustless cross-chain/trading pair formation/SimpleBalancerAMM.sol\":1883:1949  bool success2 = token2.transferFrom(from2, address(this), amount2) */\n      swap1\n      pop\n        /* \"trustless cross-chain/trading pair formation/SimpleBalancerAMM.sol\":1959:1972  bool success3 */\n      0x00\n        /* \"trustless cross-chain/trading pair formation/SimpleBalancerAMM.sol\":1975:1981  token3 */\n      0x02\n      0x00\n      swap1\n      sload\n      swap1\n      0x0100\n      exp\n      swap1\n      div\n      0xffffffffffffffffffffffffffffffffffffffff\n      and\n        /* \"trustless cross-chain/trading pair formation/SimpleBalancerAMM.sol\":1975:1994  token3.transferFrom */\n      0xffffffffffffffffffffffffffffffffffffffff\n      and\n      0x23b872dd\n        /* \"trustless cross-chain/trading pair formation/SimpleBalancerAMM.sol\":1995:2000  from3 */\n      dup12\n        /* \"trustless cross-chain/trading pair formation/SimpleBalancerAMM.sol\":2010:2014  this */\n      address\n        /* \"trustless cross-chain/trading pair formation/SimpleBalancerAMM.sol\":2017:2024  amount3 */\n      dup11\n        /* \"trustless cross-chain/trading pair formation/SimpleBalancerAMM.sol\":1975:2025  token3.transferFrom(from3, address(this), amount3) */\n      mload(0x40)\n      dup5\n      0xffffffff\n      and\n      0xe0\n      shl\n      dup2\n      mstore\n      0x04\n      add\n      tag_92\n      swap4\n      swap3\n      swap2\n      swap1\n      tag_83\n      jump\t// in\n    tag_92:\n      0x20\n      mload(0x40)\n      dup1\n      dup4\n      sub\n      dup2\n      0x00\n      dup8\n      gas\n      call\n      iszero\n      dup1\n      iszero\n      tag_94\n      jumpi\n      returndatasize\n      0x00\n      dup1\n      returndatacopy\n      revert(0x00, returndatasize)\n    tag_94:\n      pop\n      pop\n      pop\n      pop\n      mload(0x40)\n      returndatasize\n      not(0x1f)\n      0x1f\n      dup3\n      add\n      and\n      dup3\n      add\n      dup1\n      0x40\n      mstore\n      pop\n      dup2\n      add\n      swap1\n      tag_95\n      swap2\n      swap1\n      tag_87\n      jump\t// in\n    tag_95:\n        /* \"trustless cross-chain/trading pair formation/SimpleBalancerAMM.sol\":1959:2025  bool success3 = token3.transferFrom(from3, address(this), amount3) */\n      swap1\n      pop\n        /* \"trustless cross-chain/trading pair formation/SimpleBalancerAMM.sol\":2044:2052  success1 */\n      dup3\n        /* \"trustless cross-chain/trading pair formation/SimpleBalancerAMM.sol\":2036:2080  require(success1, \"Token 1 transfer failed\") */\n      tag_96\n      jumpi\n      mload(0x40)\n      0x08c379a000000000000000000000000000000000000000000000000000000000\n      dup2\n      mstore\n      0x04\n      add\n      tag_97\n      swap1\n      tag_98\n      jump\t// in\n    tag_97:\n      mload(0x40)\n      dup1\n      swap2\n      sub\n      swap1\n      revert\n    tag_96:\n        /* \"trustless cross-chain/trading pair formation/SimpleBalancerAMM.sol\":2098:2106  success2 */\n      dup2\n        /* \"trustless cross-chain/trading pair formation/SimpleBalancerAMM.sol\":2090:2134  require(success2, \"Token 2 transfer failed\") */\n      tag_99\n      jumpi\n      mload(0x40)\n      0x08c379a000000000000000000000000000000000000000000000000000000000\n      dup2\n      mstore\n      0x04\n      add\n      tag_100\n      swap1\n      tag_101\n      jump\t// in\n    tag_100:\n      mload(0x40)\n      dup1\n      swap2\n      sub\n      swap1\n      revert\n    tag_99:\n        /* \"trustless cross-chain/trading pair formation/SimpleBalancerAMM.sol\":2152:2160  success3 */\n      dup1\n        /* \"trustless cross-chain/trading pair formation/SimpleBalancerAMM.sol\":2144:2188  require(success3, \"Token 3 transfer failed\") */\n      tag_102\n      jumpi\n      mload(0x40)\n      0x08c379a000000000000000000000000000000000000000000000000000000000\n      dup2\n      mstore\n      0x04\n      add\n      tag_103\n      swap1\n      tag_104\n      jump\t// in\n    tag_103:\n      mload(0x40)\n      dup1\n      swap2\n      sub\n      swap1\n      revert\n    tag_102:\n        /* \"trustless cross-chain/trading pair formation/SimpleBalancerAMM.sol\":2213:2220  amount1 */\n      dup9\n        /* \"trustless cross-chain/trading pair formation/SimpleBalancerAMM.sol\":2199:2209  poolToken1 */\n      0x03\n      0x00\n        /* \"trustless cross-chain/trading pair formation/SimpleBalancerAMM.sol\":2199:2220  poolToken1 += amount1 */\n      dup3\n      dup3\n      sload\n      tag_105\n      swap2\n      swap1\n      tag_106\n      jump\t// in\n    tag_105:\n      swap3\n      pop\n      pop\n      dup2\n      swap1\n      sstore\n      pop\n        /* \"trustless cross-chain/trading pair formation/SimpleBalancerAMM.sol\":2244:2251  amount2 */\n      dup8\n        /* \"trustless cross-chain/trading pair formation/SimpleBalancerAMM.sol\":2230:2240  poolToken2 */\n      0x04\n      0x00\n        /* \"trustless cross-chain/trading pair formation/SimpleBalancerAMM.sol\":2230:2251  poolToken2 += amount2 */\n      dup3\n      dup3\n      sload\n      tag_107\n      swap2\n      swap1\n      tag_106\n      jump\t// in\n    tag_107:\n      swap3\n      pop\n      pop\n      dup2\n      swap1\n      sstore\n      pop\n        /* \"trustless cross-chain/trading pair formation/SimpleBalancerAMM.sol\":2275:2282  amount3 */\n      dup7\n        /* \"trustless cross-chain/trading pair formation/SimpleBalancerAMM.sol\":2261:2271  poolToken3 */\n      0x05\n      0x00\n        /* \"trustless cross-chain/trading pair formation/SimpleBalancerAMM.sol\":2261:2282  poolToken3 += amount3 */\n      dup3\n      dup3\n      sload\n      tag_108\n      swap2\n      swap1\n      tag_106\n      jump\t// in\n    tag_108:\n      swap3\n      pop\n      pop\n      dup2\n      swap1\n      sstore\n      pop\n        /* \"trustless cross-chain/trading pair formation/SimpleBalancerAMM.sol\":2322:2332  msg.sender */\n      caller\n        /* \"trustless cross-chain/trading pair formation/SimpleBalancerAMM.sol\":2306:2360  LogAddLiquidity(msg.sender, amount1, amount2, amount3) */\n      0xffffffffffffffffffffffffffffffffffffffff\n      and\n      0x9bac9f8afe8f196816d56702bd0230aa1fa384a1f2c7d1926281e737f93ff55a\n        /* \"trustless cross-chain/trading pair formation/SimpleBalancerAMM.sol\":2334:2341  amount1 */\n      dup11\n        /* \"trustless cross-chain/trading pair formation/SimpleBalancerAMM.sol\":2343:2350  amount2 */\n      dup11\n        /* \"trustless cross-chain/trading pair formation/SimpleBalancerAMM.sol\":2352:2359  amount3 */\n      dup11\n        /* \"trustless cross-chain/trading pair formation/SimpleBalancerAMM.sol\":2306:2360  LogAddLiquidity(msg.sender, amount1, amount2, amount3) */\n      mload(0x40)\n      tag_109\n      swap4\n      swap3\n      swap2\n      swap1\n      tag_110\n      jump\t// in\n    tag_109:\n      mload(0x40)\n      dup1\n      swap2\n      sub\n      swap1\n      log2\n        /* \"trustless cross-chain/trading pair formation/SimpleBalancerAMM.sol\":1252:2367  {... */\n      pop\n      pop\n      pop\n      pop\n      pop\n      pop\n        /* \"trustless cross-chain/trading pair formation/SimpleBalancerAMM.sol\":1071:2367  function addLiquidity(... */\n      pop\n      pop\n      pop\n      pop\n      pop\n      pop\n      jump\t// out\n        /* \"trustless cross-chain/trading pair formation/SimpleBalancerAMM.sol\":2373:3628  function getExchangeRate(address fromToken, address toToken) external view returns (uint256) {... */\n    tag_33:\n        /* \"trustless cross-chain/trading pair formation/SimpleBalancerAMM.sol\":2457:2464  uint256 */\n      0x00\n        /* \"trustless cross-chain/trading pair formation/SimpleBalancerAMM.sol\":2497:2498  0 */\n      dup1\n        /* \"trustless cross-chain/trading pair formation/SimpleBalancerAMM.sol\":2484:2494  poolToken1 */\n      sload(0x03)\n        /* \"trustless cross-chain/trading pair formation/SimpleBalancerAMM.sol\":2484:2498  poolToken1 > 0 */\n      gt\n        /* \"trustless cross-chain/trading pair formation/SimpleBalancerAMM.sol\":2484:2516  poolToken1 > 0 && poolToken2 > 0 */\n      dup1\n      iszero\n      tag_112\n      jumpi\n      pop\n        /* \"trustless cross-chain/trading pair formation/SimpleBalancerAMM.sol\":2515:2516  0 */\n      0x00\n        /* \"trustless cross-chain/trading pair formation/SimpleBalancerAMM.sol\":2502:2512  poolToken2 */\n      sload(0x04)\n        /* \"trustless cross-chain/trading pair formation/SimpleBalancerAMM.sol\":2502:2516  poolToken2 > 0 */\n      gt\n        /* \"trustless cross-chain/trading pair formation/SimpleBalancerAMM.sol\":2484:2516  poolToken1 > 0 && poolToken2 > 0 */\n    tag_112:\n        /* \"trustless cross-chain/trading pair formation/SimpleBalancerAMM.sol\":2484:2534  poolToken1 > 0 && poolToken2 > 0 && poolToken3 > 0 */\n      dup1\n      iszero\n      tag_113\n      jumpi\n      pop\n        /* \"trustless cross-chain/trading pair formation/SimpleBalancerAMM.sol\":2533:2534  0 */\n      0x00\n        /* \"trustless cross-chain/trading pair formation/SimpleBalancerAMM.sol\":2520:2530  poolToken3 */\n      sload(0x05)\n        /* \"trustless cross-chain/trading pair formation/SimpleBalancerAMM.sol\":2520:2534  poolToken3 > 0 */\n      gt\n        /* \"trustless cross-chain/trading pair formation/SimpleBalancerAMM.sol\":2484:2534  poolToken1 > 0 && poolToken2 > 0 && poolToken3 > 0 */\n    tag_113:\n        /* \"trustless cross-chain/trading pair formation/SimpleBalancerAMM.sol\":2476:2563  require(poolToken1 > 0 && poolToken2 > 0 && poolToken3 > 0, \"Pool must have liquidity\") */\n      tag_114\n      jumpi\n      mload(0x40)\n      0x08c379a000000000000000000000000000000000000000000000000000000000\n      dup2\n      mstore\n      0x04\n      add\n      tag_115\n      swap1\n      tag_116\n      jump\t// in\n    tag_115:\n      mload(0x40)\n      dup1\n      swap2\n      sub\n      swap1\n      revert\n    tag_114:\n        /* \"trustless cross-chain/trading pair formation/SimpleBalancerAMM.sol\":2574:2592  uint256 fromWeight */\n      0x00\n        /* \"trustless cross-chain/trading pair formation/SimpleBalancerAMM.sol\":2602:2621  uint256 fromBalance */\n      dup1\n        /* \"trustless cross-chain/trading pair formation/SimpleBalancerAMM.sol\":2631:2647  uint256 toWeight */\n      0x00\n        /* \"trustless cross-chain/trading pair formation/SimpleBalancerAMM.sol\":2657:2674  uint256 toBalance */\n      dup1\n        /* \"trustless cross-chain/trading pair formation/SimpleBalancerAMM.sol\":2710:2716  token1 */\n      0x00\n      dup1\n      sload\n      swap1\n      0x0100\n      exp\n      swap1\n      div\n      0xffffffffffffffffffffffffffffffffffffffff\n      and\n        /* \"trustless cross-chain/trading pair formation/SimpleBalancerAMM.sol\":2689:2717  fromToken == address(token1) */\n      0xffffffffffffffffffffffffffffffffffffffff\n      and\n        /* \"trustless cross-chain/trading pair formation/SimpleBalancerAMM.sol\":2689:2698  fromToken */\n      dup8\n        /* \"trustless cross-chain/trading pair formation/SimpleBalancerAMM.sol\":2689:2717  fromToken == address(token1) */\n      0xffffffffffffffffffffffffffffffffffffffff\n      and\n      sub\n        /* \"trustless cross-chain/trading pair formation/SimpleBalancerAMM.sol\":2685:3106  if (fromToken == address(token1)) {... */\n      tag_117\n      jumpi\n        /* \"trustless cross-chain/trading pair formation/SimpleBalancerAMM.sol\":2746:2753  weight1 */\n      sload(0x06)\n        /* \"trustless cross-chain/trading pair formation/SimpleBalancerAMM.sol\":2733:2753  fromWeight = weight1 */\n      swap4\n      pop\n        /* \"trustless cross-chain/trading pair formation/SimpleBalancerAMM.sol\":2781:2791  poolToken1 */\n      sload(0x03)\n        /* \"trustless cross-chain/trading pair formation/SimpleBalancerAMM.sol\":2767:2791  fromBalance = poolToken1 */\n      swap3\n      pop\n        /* \"trustless cross-chain/trading pair formation/SimpleBalancerAMM.sol\":2685:3106  if (fromToken == address(token1)) {... */\n      jump(tag_118)\n    tag_117:\n        /* \"trustless cross-chain/trading pair formation/SimpleBalancerAMM.sol\":2833:2839  token2 */\n      0x01\n      0x00\n      swap1\n      sload\n      swap1\n      0x0100\n      exp\n      swap1\n      div\n      0xffffffffffffffffffffffffffffffffffffffff\n      and\n        /* \"trustless cross-chain/trading pair formation/SimpleBalancerAMM.sol\":2812:2840  fromToken == address(token2) */\n      0xffffffffffffffffffffffffffffffffffffffff\n      and\n        /* \"trustless cross-chain/trading pair formation/SimpleBalancerAMM.sol\":2812:2821  fromToken */\n      dup8\n        /* \"trustless cross-chain/trading pair formation/SimpleBalancerAMM.sol\":2812:2840  fromToken == address(token2) */\n      0xffffffffffffffffffffffffffffffffffffffff\n      and\n      sub\n        /* \"trustless cross-chain/trading pair formation/SimpleBalancerAMM.sol\":2808:3106  if (fromToken == address(token2)) {... */\n      tag_119\n      jumpi\n        /* \"trustless cross-chain/trading pair formation/SimpleBalancerAMM.sol\":2869:2876  weight2 */\n      sload(0x07)\n        /* \"trustless cross-chain/trading pair formation/SimpleBalancerAMM.sol\":2856:2876  fromWeight = weight2 */\n      swap4\n      pop\n        /* \"trustless cross-chain/trading pair formation/SimpleBalancerAMM.sol\":2904:2914  poolToken2 */\n      sload(0x04)\n        /* \"trustless cross-chain/trading pair formation/SimpleBalancerAMM.sol\":2890:2914  fromBalance = poolToken2 */\n      swap3\n      pop\n        /* \"trustless cross-chain/trading pair formation/SimpleBalancerAMM.sol\":2808:3106  if (fromToken == address(token2)) {... */\n      jump(tag_120)\n    tag_119:\n        /* \"trustless cross-chain/trading pair formation/SimpleBalancerAMM.sol\":2956:2962  token3 */\n      0x02\n      0x00\n      swap1\n      sload\n      swap1\n      0x0100\n      exp\n      swap1\n      div\n      0xffffffffffffffffffffffffffffffffffffffff\n      and\n        /* \"trustless cross-chain/trading pair formation/SimpleBalancerAMM.sol\":2935:2963  fromToken == address(token3) */\n      0xffffffffffffffffffffffffffffffffffffffff\n      and\n        /* \"trustless cross-chain/trading pair formation/SimpleBalancerAMM.sol\":2935:2944  fromToken */\n      dup8\n        /* \"trustless cross-chain/trading pair formation/SimpleBalancerAMM.sol\":2935:2963  fromToken == address(token3) */\n      0xffffffffffffffffffffffffffffffffffffffff\n      and\n      sub\n        /* \"trustless cross-chain/trading pair formation/SimpleBalancerAMM.sol\":2931:3106  if (fromToken == address(token3)) {... */\n      tag_121\n      jumpi\n        /* \"trustless cross-chain/trading pair formation/SimpleBalancerAMM.sol\":2992:2999  weight3 */\n      sload(0x08)\n        /* \"trustless cross-chain/trading pair formation/SimpleBalancerAMM.sol\":2979:2999  fromWeight = weight3 */\n      swap4\n      pop\n        /* \"trustless cross-chain/trading pair formation/SimpleBalancerAMM.sol\":3027:3037  poolToken3 */\n      sload(0x05)\n        /* \"trustless cross-chain/trading pair formation/SimpleBalancerAMM.sol\":3013:3037  fromBalance = poolToken3 */\n      swap3\n      pop\n        /* \"trustless cross-chain/trading pair formation/SimpleBalancerAMM.sol\":2931:3106  if (fromToken == address(token3)) {... */\n      jump(tag_122)\n    tag_121:\n        /* \"trustless cross-chain/trading pair formation/SimpleBalancerAMM.sol\":3068:3095  revert(\"Invalid fromToken\") */\n      mload(0x40)\n      0x08c379a000000000000000000000000000000000000000000000000000000000\n      dup2\n      mstore\n      0x04\n      add\n      tag_123\n      swap1\n      tag_124\n      jump\t// in\n    tag_123:\n      mload(0x40)\n      dup1\n      swap2\n      sub\n      swap1\n      revert\n        /* \"trustless cross-chain/trading pair formation/SimpleBalancerAMM.sol\":2931:3106  if (fromToken == address(token3)) {... */\n    tag_122:\n        /* \"trustless cross-chain/trading pair formation/SimpleBalancerAMM.sol\":2808:3106  if (fromToken == address(token2)) {... */\n    tag_120:\n        /* \"trustless cross-chain/trading pair formation/SimpleBalancerAMM.sol\":2685:3106  if (fromToken == address(token1)) {... */\n    tag_118:\n        /* \"trustless cross-chain/trading pair formation/SimpleBalancerAMM.sol\":3139:3145  token1 */\n      0x00\n      dup1\n      sload\n      swap1\n      0x0100\n      exp\n      swap1\n      div\n      0xffffffffffffffffffffffffffffffffffffffff\n      and\n        /* \"trustless cross-chain/trading pair formation/SimpleBalancerAMM.sol\":3120:3146  toToken == address(token1) */\n      0xffffffffffffffffffffffffffffffffffffffff\n      and\n        /* \"trustless cross-chain/trading pair formation/SimpleBalancerAMM.sol\":3120:3127  toToken */\n      dup7\n        /* \"trustless cross-chain/trading pair formation/SimpleBalancerAMM.sol\":3120:3146  toToken == address(token1) */\n      0xffffffffffffffffffffffffffffffffffffffff\n      and\n      sub\n        /* \"trustless cross-chain/trading pair formation/SimpleBalancerAMM.sol\":3116:3517  if (toToken == address(token1)) {... */\n      tag_125\n      jumpi\n        /* \"trustless cross-chain/trading pair formation/SimpleBalancerAMM.sol\":3173:3180  weight1 */\n      sload(0x06)\n        /* \"trustless cross-chain/trading pair formation/SimpleBalancerAMM.sol\":3162:3180  toWeight = weight1 */\n      swap2\n      pop\n        /* \"trustless cross-chain/trading pair formation/SimpleBalancerAMM.sol\":3206:3216  poolToken1 */\n      sload(0x03)\n        /* \"trustless cross-chain/trading pair formation/SimpleBalancerAMM.sol\":3194:3216  toBalance = poolToken1 */\n      swap1\n      pop\n        /* \"trustless cross-chain/trading pair formation/SimpleBalancerAMM.sol\":3116:3517  if (toToken == address(token1)) {... */\n      jump(tag_126)\n    tag_125:\n        /* \"trustless cross-chain/trading pair formation/SimpleBalancerAMM.sol\":3256:3262  token2 */\n      0x01\n      0x00\n      swap1\n      sload\n      swap1\n      0x0100\n      exp\n      swap1\n      div\n      0xffffffffffffffffffffffffffffffffffffffff\n      and\n        /* \"trustless cross-chain/trading pair formation/SimpleBalancerAMM.sol\":3237:3263  toToken == address(token2) */\n      0xffffffffffffffffffffffffffffffffffffffff\n      and\n        /* \"trustless cross-chain/trading pair formation/SimpleBalancerAMM.sol\":3237:3244  toToken */\n      dup7\n        /* \"trustless cross-chain/trading pair formation/SimpleBalancerAMM.sol\":3237:3263  toToken == address(token2) */\n      0xffffffffffffffffffffffffffffffffffffffff\n      and\n      sub\n        /* \"trustless cross-chain/trading pair formation/SimpleBalancerAMM.sol\":3233:3517  if (toToken == address(token2)) {... */\n      tag_127\n      jumpi\n        /* \"trustless cross-chain/trading pair formation/SimpleBalancerAMM.sol\":3290:3297  weight2 */\n      sload(0x07)\n        /* \"trustless cross-chain/trading pair formation/SimpleBalancerAMM.sol\":3279:3297  toWeight = weight2 */\n      swap2\n      pop\n        /* \"trustless cross-chain/trading pair formation/SimpleBalancerAMM.sol\":3323:3333  poolToken2 */\n      sload(0x04)\n        /* \"trustless cross-chain/trading pair formation/SimpleBalancerAMM.sol\":3311:3333  toBalance = poolToken2 */\n      swap1\n      pop\n        /* \"trustless cross-chain/trading pair formation/SimpleBalancerAMM.sol\":3233:3517  if (toToken == address(token2)) {... */\n      jump(tag_128)\n    tag_127:\n        /* \"trustless cross-chain/trading pair formation/SimpleBalancerAMM.sol\":3373:3379  token3 */\n      0x02\n      0x00\n      swap1\n      sload\n      swap1\n      0x0100\n      exp\n      swap1\n      div\n      0xffffffffffffffffffffffffffffffffffffffff\n      and\n        /* \"trustless cross-chain/trading pair formation/SimpleBalancerAMM.sol\":3354:3380  toToken == address(token3) */\n      0xffffffffffffffffffffffffffffffffffffffff\n      and\n        /* \"trustless cross-chain/trading pair formation/SimpleBalancerAMM.sol\":3354:3361  toToken */\n      dup7\n        /* \"trustless cross-chain/trading pair formation/SimpleBalancerAMM.sol\":3354:3380  toToken == address(token3) */\n      0xffffffffffffffffffffffffffffffffffffffff\n      and\n      sub\n        /* \"trustless cross-chain/trading pair formation/SimpleBalancerAMM.sol\":3350:3517  if (toToken == address(token3)) {... */\n      tag_129\n      jumpi\n        /* \"trustless cross-chain/trading pair formation/SimpleBalancerAMM.sol\":3407:3414  weight3 */\n      sload(0x08)\n        /* \"trustless cross-chain/trading pair formation/SimpleBalancerAMM.sol\":3396:3414  toWeight = weight3 */\n      swap2\n      pop\n        /* \"trustless cross-chain/trading pair formation/SimpleBalancerAMM.sol\":3440:3450  poolToken3 */\n      sload(0x05)\n        /* \"trustless cross-chain/trading pair formation/SimpleBalancerAMM.sol\":3428:3450  toBalance = poolToken3 */\n      swap1\n      pop\n        /* \"trustless cross-chain/trading pair formation/SimpleBalancerAMM.sol\":3350:3517  if (toToken == address(token3)) {... */\n      jump(tag_130)\n    tag_129:\n        /* \"trustless cross-chain/trading pair formation/SimpleBalancerAMM.sol\":3481:3506  revert(\"Invalid toToken\") */\n      mload(0x40)\n      0x08c379a000000000000000000000000000000000000000000000000000000000\n      dup2\n      mstore\n      0x04\n      add\n      tag_131\n      swap1\n      tag_132\n      jump\t// in\n    tag_131:\n      mload(0x40)\n      dup1\n      swap2\n      sub\n      swap1\n      revert\n        /* \"trustless cross-chain/trading pair formation/SimpleBalancerAMM.sol\":3350:3517  if (toToken == address(token3)) {... */\n    tag_130:\n        /* \"trustless cross-chain/trading pair formation/SimpleBalancerAMM.sol\":3233:3517  if (toToken == address(token2)) {... */\n    tag_128:\n        /* \"trustless cross-chain/trading pair formation/SimpleBalancerAMM.sol\":3116:3517  if (toToken == address(token1)) {... */\n    tag_126:\n        /* \"trustless cross-chain/trading pair formation/SimpleBalancerAMM.sol\":3527:3539  uint256 rate */\n      0x00\n        /* \"trustless cross-chain/trading pair formation/SimpleBalancerAMM.sol\":3590:3599  toBalance */\n      dup2\n        /* \"trustless cross-chain/trading pair formation/SimpleBalancerAMM.sol\":3577:3587  fromWeight */\n      dup6\n        /* \"trustless cross-chain/trading pair formation/SimpleBalancerAMM.sol\":3577:3599  fromWeight * toBalance */\n      tag_133\n      swap2\n      swap1\n      tag_134\n      jump\t// in\n    tag_133:\n        /* \"trustless cross-chain/trading pair formation/SimpleBalancerAMM.sol\":3568:3572  1e18 */\n      0x0de0b6b3a7640000\n        /* \"trustless cross-chain/trading pair formation/SimpleBalancerAMM.sol\":3557:3565  toWeight */\n      dup5\n        /* \"trustless cross-chain/trading pair formation/SimpleBalancerAMM.sol\":3543:3554  fromBalance */\n      dup7\n        /* \"trustless cross-chain/trading pair formation/SimpleBalancerAMM.sol\":3543:3565  fromBalance * toWeight */\n      tag_135\n      swap2\n      swap1\n      tag_134\n      jump\t// in\n    tag_135:\n        /* \"trustless cross-chain/trading pair formation/SimpleBalancerAMM.sol\":3543:3572  fromBalance * toWeight * 1e18 */\n      tag_136\n      swap2\n      swap1\n      tag_134\n      jump\t// in\n    tag_136:\n        /* \"trustless cross-chain/trading pair formation/SimpleBalancerAMM.sol\":3542:3600  (fromBalance * toWeight * 1e18) / (fromWeight * toBalance) */\n      tag_137\n      swap2\n      swap1\n      tag_138\n      jump\t// in\n    tag_137:\n        /* \"trustless cross-chain/trading pair formation/SimpleBalancerAMM.sol\":3527:3600  uint256 rate = (fromBalance * toWeight * 1e18) / (fromWeight * toBalance) */\n      swap1\n      pop\n        /* \"trustless cross-chain/trading pair formation/SimpleBalancerAMM.sol\":3617:3621  rate */\n      dup1\n        /* \"trustless cross-chain/trading pair formation/SimpleBalancerAMM.sol\":3610:3621  return rate */\n      swap6\n      pop\n      pop\n      pop\n      pop\n      pop\n      pop\n        /* \"trustless cross-chain/trading pair formation/SimpleBalancerAMM.sol\":2373:3628  function getExchangeRate(address fromToken, address toToken) external view returns (uint256) {... */\n      swap3\n      swap2\n      pop\n      pop\n      jump\t// out\n        /* \"trustless cross-chain/trading pair formation/SimpleBalancerAMM.sol\":149:169  IERC20 public token1 */\n    tag_36:\n      0x00\n      dup1\n      sload\n      swap1\n      0x0100\n      exp\n      swap1\n      div\n      0xffffffffffffffffffffffffffffffffffffffff\n      and\n      dup2\n      jump\t// out\n        /* \"trustless cross-chain/trading pair formation/SimpleBalancerAMM.sol\":354:376  uint256 public weight2 */\n    tag_39:\n      sload(0x07)\n      dup2\n      jump\t// out\n        /* \"trustless cross-chain/trading pair formation/SimpleBalancerAMM.sol\":263:288  uint256 public poolToken2 */\n    tag_42:\n      sload(0x04)\n      dup2\n      jump\t// out\n        /* \"trustless cross-chain/trading pair formation/SimpleBalancerAMM.sol\":326:348  uint256 public weight1 */\n    tag_45:\n      sload(0x06)\n      dup2\n      jump\t// out\n        /* \"trustless cross-chain/trading pair formation/SimpleBalancerAMM.sol\":294:319  uint256 public poolToken3 */\n    tag_48:\n      sload(0x05)\n      dup2\n      jump\t// out\n        /* \"trustless cross-chain/trading pair formation/SimpleBalancerAMM.sol\":201:221  IERC20 public token3 */\n    tag_51:\n      0x02\n      0x00\n      swap1\n      sload\n      swap1\n      0x0100\n      exp\n      swap1\n      div\n      0xffffffffffffffffffffffffffffffffffffffff\n      and\n      dup2\n      jump\t// out\n        /* \"#utility.yul\":7:133   */\n    tag_139:\n        /* \"#utility.yul\":44:51   */\n      0x00\n        /* \"#utility.yul\":84:126   */\n      0xffffffffffffffffffffffffffffffffffffffff\n        /* \"#utility.yul\":77:82   */\n      dup3\n        /* \"#utility.yul\":73:127   */\n      and\n        /* \"#utility.yul\":62:127   */\n      swap1\n      pop\n        /* \"#utility.yul\":7:133   */\n      swap2\n      swap1\n      pop\n      jump\t// out\n        /* \"#utility.yul\":139:199   */\n    tag_140:\n        /* \"#utility.yul\":167:170   */\n      0x00\n        /* \"#utility.yul\":188:193   */\n      dup2\n        /* \"#utility.yul\":181:193   */\n      swap1\n      pop\n        /* \"#utility.yul\":139:199   */\n      swap2\n      swap1\n      pop\n      jump\t// out\n        /* \"#utility.yul\":205:347   */\n    tag_141:\n        /* \"#utility.yul\":255:264   */\n      0x00\n        /* \"#utility.yul\":288:341   */\n      tag_187\n        /* \"#utility.yul\":306:340   */\n      tag_188\n        /* \"#utility.yul\":315:339   */\n      tag_189\n        /* \"#utility.yul\":333:338   */\n      dup5\n        /* \"#utility.yul\":315:339   */\n      tag_139\n      jump\t// in\n    tag_189:\n        /* \"#utility.yul\":306:340   */\n      tag_140\n      jump\t// in\n    tag_188:\n        /* \"#utility.yul\":288:341   */\n      tag_139\n      jump\t// in\n    tag_187:\n        /* \"#utility.yul\":275:341   */\n      swap1\n      pop\n        /* \"#utility.yul\":205:347   */\n      swap2\n      swap1\n      pop\n      jump\t// out\n        /* \"#utility.yul\":353:479   */\n    tag_142:\n        /* \"#utility.yul\":403:412   */\n      0x00\n        /* \"#utility.yul\":436:473   */\n      tag_191\n        /* \"#utility.yul\":467:472   */\n      dup3\n        /* \"#utility.yul\":436:473   */\n      tag_141\n      jump\t// in\n    tag_191:\n        /* \"#utility.yul\":423:473   */\n      swap1\n      pop\n        /* \"#utility.yul\":353:479   */\n      swap2\n      swap1\n      pop\n      jump\t// out\n        /* \"#utility.yul\":485:624   */\n    tag_143:\n        /* \"#utility.yul\":548:557   */\n      0x00\n        /* \"#utility.yul\":581:618   */\n      tag_193\n        /* \"#utility.yul\":612:617   */\n      dup3\n        /* \"#utility.yul\":581:618   */\n      tag_142\n      jump\t// in\n    tag_193:\n        /* \"#utility.yul\":568:618   */\n      swap1\n      pop\n        /* \"#utility.yul\":485:624   */\n      swap2\n      swap1\n      pop\n      jump\t// out\n        /* \"#utility.yul\":630:787   */\n    tag_144:\n        /* \"#utility.yul\":730:780   */\n      tag_195\n        /* \"#utility.yul\":774:779   */\n      dup2\n        /* \"#utility.yul\":730:780   */\n      tag_143\n      jump\t// in\n    tag_195:\n        /* \"#utility.yul\":725:728   */\n      dup3\n        /* \"#utility.yul\":718:781   */\n      mstore\n        /* \"#utility.yul\":630:787   */\n      pop\n      pop\n      jump\t// out\n        /* \"#utility.yul\":793:1041   */\n    tag_18:\n        /* \"#utility.yul\":899:903   */\n      0x00\n        /* \"#utility.yul\":937:939   */\n      0x20\n        /* \"#utility.yul\":926:935   */\n      dup3\n        /* \"#utility.yul\":922:940   */\n      add\n        /* \"#utility.yul\":914:940   */\n      swap1\n      pop\n        /* \"#utility.yul\":950:1034   */\n      tag_197\n        /* \"#utility.yul\":1031:1032   */\n      0x00\n        /* \"#utility.yul\":1020:1029   */\n      dup4\n        /* \"#utility.yul\":1016:1033   */\n      add\n        /* \"#utility.yul\":1007:1013   */\n      dup5\n        /* \"#utility.yul\":950:1034   */\n      tag_144\n      jump\t// in\n    tag_197:\n        /* \"#utility.yul\":793:1041   */\n      swap3\n      swap2\n      pop\n      pop\n      jump\t// out\n        /* \"#utility.yul\":1047:1124   */\n    tag_145:\n        /* \"#utility.yul\":1084:1091   */\n      0x00\n        /* \"#utility.yul\":1113:1118   */\n      dup2\n        /* \"#utility.yul\":1102:1118   */\n      swap1\n      pop\n        /* \"#utility.yul\":1047:1124   */\n      swap2\n      swap1\n      pop\n      jump\t// out\n        /* \"#utility.yul\":1130:1248   */\n    tag_146:\n        /* \"#utility.yul\":1217:1241   */\n      tag_200\n        /* \"#utility.yul\":1235:1240   */\n      dup2\n        /* \"#utility.yul\":1217:1241   */\n      tag_145\n      jump\t// in\n    tag_200:\n        /* \"#utility.yul\":1212:1215   */\n      dup3\n        /* \"#utility.yul\":1205:1242   */\n      mstore\n        /* \"#utility.yul\":1130:1248   */\n      pop\n      pop\n      jump\t// out\n        /* \"#utility.yul\":1254:1476   */\n    tag_22:\n        /* \"#utility.yul\":1347:1351   */\n      0x00\n        /* \"#utility.yul\":1385:1387   */\n      0x20\n        /* \"#utility.yul\":1374:1383   */\n      dup3\n        /* \"#utility.yul\":1370:1388   */\n      add\n        /* \"#utility.yul\":1362:1388   */\n      swap1\n      pop\n        /* \"#utility.yul\":1398:1469   */\n      tag_202\n        /* \"#utility.yul\":1466:1467   */\n      0x00\n        /* \"#utility.yul\":1455:1464   */\n      dup4\n        /* \"#utility.yul\":1451:1468   */\n      add\n        /* \"#utility.yul\":1442:1448   */\n      dup5\n        /* \"#utility.yul\":1398:1469   */\n      tag_146\n      jump\t// in\n    tag_202:\n        /* \"#utility.yul\":1254:1476   */\n      swap3\n      swap2\n      pop\n      pop\n      jump\t// out\n        /* \"#utility.yul\":1563:1680   */\n    tag_148:\n        /* \"#utility.yul\":1672:1673   */\n      0x00\n        /* \"#utility.yul\":1669:1670   */\n      dup1\n        /* \"#utility.yul\":1662:1674   */\n      revert\n        /* \"#utility.yul\":1809:1905   */\n    tag_150:\n        /* \"#utility.yul\":1846:1853   */\n      0x00\n        /* \"#utility.yul\":1875:1899   */\n      tag_207\n        /* \"#utility.yul\":1893:1898   */\n      dup3\n        /* \"#utility.yul\":1875:1899   */\n      tag_139\n      jump\t// in\n    tag_207:\n        /* \"#utility.yul\":1864:1899   */\n      swap1\n      pop\n        /* \"#utility.yul\":1809:1905   */\n      swap2\n      swap1\n      pop\n      jump\t// out\n        /* \"#utility.yul\":1911:2033   */\n    tag_151:\n        /* \"#utility.yul\":1984:2008   */\n      tag_209\n        /* \"#utility.yul\":2002:2007   */\n      dup2\n        /* \"#utility.yul\":1984:2008   */\n      tag_150\n      jump\t// in\n    tag_209:\n        /* \"#utility.yul\":1977:1982   */\n      dup2\n        /* \"#utility.yul\":1974:2009   */\n      eq\n        /* \"#utility.yul\":1964:2027   */\n      tag_210\n      jumpi\n        /* \"#utility.yul\":2023:2024   */\n      0x00\n        /* \"#utility.yul\":2020:2021   */\n      dup1\n        /* \"#utility.yul\":2013:2025   */\n      revert\n        /* \"#utility.yul\":1964:2027   */\n    tag_210:\n        /* \"#utility.yul\":1911:2033   */\n      pop\n      jump\t// out\n        /* \"#utility.yul\":2039:2178   */\n    tag_152:\n        /* \"#utility.yul\":2085:2090   */\n      0x00\n        /* \"#utility.yul\":2123:2129   */\n      dup2\n        /* \"#utility.yul\":2110:2130   */\n      calldataload\n        /* \"#utility.yul\":2101:2130   */\n      swap1\n      pop\n        /* \"#utility.yul\":2139:2172   */\n      tag_212\n        /* \"#utility.yul\":2166:2171   */\n      dup2\n        /* \"#utility.yul\":2139:2172   */\n      tag_151\n      jump\t// in\n    tag_212:\n        /* \"#utility.yul\":2039:2178   */\n      swap3\n      swap2\n      pop\n      pop\n      jump\t// out\n        /* \"#utility.yul\":2184:2306   */\n    tag_153:\n        /* \"#utility.yul\":2257:2281   */\n      tag_214\n        /* \"#utility.yul\":2275:2280   */\n      dup2\n        /* \"#utility.yul\":2257:2281   */\n      tag_145\n      jump\t// in\n    tag_214:\n        /* \"#utility.yul\":2250:2255   */\n      dup2\n        /* \"#utility.yul\":2247:2282   */\n      eq\n        /* \"#utility.yul\":2237:2300   */\n      tag_215\n      jumpi\n        /* \"#utility.yul\":2296:2297   */\n      0x00\n        /* \"#utility.yul\":2293:2294   */\n      dup1\n        /* \"#utility.yul\":2286:2298   */\n      revert\n        /* \"#utility.yul\":2237:2300   */\n    tag_215:\n        /* \"#utility.yul\":2184:2306   */\n      pop\n      jump\t// out\n        /* \"#utility.yul\":2312:2451   */\n    tag_154:\n        /* \"#utility.yul\":2358:2363   */\n      0x00\n        /* \"#utility.yul\":2396:2402   */\n      dup2\n        /* \"#utility.yul\":2383:2403   */\n      calldataload\n        /* \"#utility.yul\":2374:2403   */\n      swap1\n      pop\n        /* \"#utility.yul\":2412:2445   */\n      tag_217\n        /* \"#utility.yul\":2439:2444   */\n      dup2\n        /* \"#utility.yul\":2412:2445   */\n      tag_153\n      jump\t// in\n    tag_217:\n        /* \"#utility.yul\":2312:2451   */\n      swap3\n      swap2\n      pop\n      pop\n      jump\t// out\n        /* \"#utility.yul\":2457:3514   */\n    tag_28:\n        /* \"#utility.yul\":2561:2567   */\n      0x00\n        /* \"#utility.yul\":2569:2575   */\n      dup1\n        /* \"#utility.yul\":2577:2583   */\n      0x00\n        /* \"#utility.yul\":2585:2591   */\n      dup1\n        /* \"#utility.yul\":2593:2599   */\n      0x00\n        /* \"#utility.yul\":2601:2607   */\n      dup1\n        /* \"#utility.yul\":2650:2653   */\n      0xc0\n        /* \"#utility.yul\":2638:2647   */\n      dup8\n        /* \"#utility.yul\":2629:2636   */\n      dup10\n        /* \"#utility.yul\":2625:2648   */\n      sub\n        /* \"#utility.yul\":2621:2654   */\n      slt\n        /* \"#utility.yul\":2618:2738   */\n      iszero\n      tag_219\n      jumpi\n        /* \"#utility.yul\":2657:2736   */\n      tag_220\n      tag_148\n      jump\t// in\n    tag_220:\n        /* \"#utility.yul\":2618:2738   */\n    tag_219:\n        /* \"#utility.yul\":2777:2778   */\n      0x00\n        /* \"#utility.yul\":2802:2855   */\n      tag_221\n        /* \"#utility.yul\":2847:2854   */\n      dup10\n        /* \"#utility.yul\":2838:2844   */\n      dup3\n        /* \"#utility.yul\":2827:2836   */\n      dup11\n        /* \"#utility.yul\":2823:2845   */\n      add\n        /* \"#utility.yul\":2802:2855   */\n      tag_152\n      jump\t// in\n    tag_221:\n        /* \"#utility.yul\":2792:2855   */\n      swap7\n      pop\n        /* \"#utility.yul\":2748:2865   */\n      pop\n        /* \"#utility.yul\":2904:2906   */\n      0x20\n        /* \"#utility.yul\":2930:2983   */\n      tag_222\n        /* \"#utility.yul\":2975:2982   */\n      dup10\n        /* \"#utility.yul\":2966:2972   */\n      dup3\n        /* \"#utility.yul\":2955:2964   */\n      dup11\n        /* \"#utility.yul\":2951:2973   */\n      add\n        /* \"#utility.yul\":2930:2983   */\n      tag_152\n      jump\t// in\n    tag_222:\n        /* \"#utility.yul\":2920:2983   */\n      swap6\n      pop\n        /* \"#utility.yul\":2875:2993   */\n      pop\n        /* \"#utility.yul\":3032:3034   */\n      0x40\n        /* \"#utility.yul\":3058:3111   */\n      tag_223\n        /* \"#utility.yul\":3103:3110   */\n      dup10\n        /* \"#utility.yul\":3094:3100   */\n      dup3\n        /* \"#utility.yul\":3083:3092   */\n      dup11\n        /* \"#utility.yul\":3079:3101   */\n      add\n        /* \"#utility.yul\":3058:3111   */\n      tag_152\n      jump\t// in\n    tag_223:\n        /* \"#utility.yul\":3048:3111   */\n      swap5\n      pop\n        /* \"#utility.yul\":3003:3121   */\n      pop\n        /* \"#utility.yul\":3160:3162   */\n      0x60\n        /* \"#utility.yul\":3186:3239   */\n      tag_224\n        /* \"#utility.yul\":3231:3238   */\n      dup10\n        /* \"#utility.yul\":3222:3228   */\n      dup3\n        /* \"#utility.yul\":3211:3220   */\n      dup11\n        /* \"#utility.yul\":3207:3229   */\n      add\n        /* \"#utility.yul\":3186:3239   */\n      tag_154\n      jump\t// in\n    tag_224:\n        /* \"#utility.yul\":3176:3239   */\n      swap4\n      pop\n        /* \"#utility.yul\":3131:3249   */\n      pop\n        /* \"#utility.yul\":3288:3291   */\n      0x80\n        /* \"#utility.yul\":3315:3368   */\n      tag_225\n        /* \"#utility.yul\":3360:3367   */\n      dup10\n        /* \"#utility.yul\":3351:3357   */\n      dup3\n        /* \"#utility.yul\":3340:3349   */\n      dup11\n        /* \"#utility.yul\":3336:3358   */\n      add\n        /* \"#utility.yul\":3315:3368   */\n      tag_154\n      jump\t// in\n    tag_225:\n        /* \"#utility.yul\":3305:3368   */\n      swap3\n      pop\n        /* \"#utility.yul\":3259:3378   */\n      pop\n        /* \"#utility.yul\":3417:3420   */\n      0xa0\n        /* \"#utility.yul\":3444:3497   */\n      tag_226\n        /* \"#utility.yul\":3489:3496   */\n      dup10\n        /* \"#utility.yul\":3480:3486   */\n      dup3\n        /* \"#utility.yul\":3469:3478   */\n      dup11\n        /* \"#utility.yul\":3465:3487   */\n      add\n        /* \"#utility.yul\":3444:3497   */\n      tag_154\n      jump\t// in\n    tag_226:\n        /* \"#utility.yul\":3434:3497   */\n      swap2\n      pop\n        /* \"#utility.yul\":3388:3507   */\n      pop\n        /* \"#utility.yul\":2457:3514   */\n      swap3\n      swap6\n      pop\n      swap3\n      swap6\n      pop\n      swap3\n      swap6\n      jump\t// out\n        /* \"#utility.yul\":3520:3994   */\n    tag_32:\n        /* \"#utility.yul\":3588:3594   */\n      0x00\n        /* \"#utility.yul\":3596:3602   */\n      dup1\n        /* \"#utility.yul\":3645:3647   */\n      0x40\n        /* \"#utility.yul\":3633:3642   */\n      dup4\n        /* \"#utility.yul\":3624:3631   */\n      dup6\n        /* \"#utility.yul\":3620:3643   */\n      sub\n        /* \"#utility.yul\":3616:3648   */\n      slt\n        /* \"#utility.yul\":3613:3732   */\n      iszero\n      tag_228\n      jumpi\n        /* \"#utility.yul\":3651:3730   */\n      tag_229\n      tag_148\n      jump\t// in\n    tag_229:\n        /* \"#utility.yul\":3613:3732   */\n    tag_228:\n        /* \"#utility.yul\":3771:3772   */\n      0x00\n        /* \"#utility.yul\":3796:3849   */\n      tag_230\n        /* \"#utility.yul\":3841:3848   */\n      dup6\n        /* \"#utility.yul\":3832:3838   */\n      dup3\n        /* \"#utility.yul\":3821:3830   */\n      dup7\n        /* \"#utility.yul\":3817:3839   */\n      add\n        /* \"#utility.yul\":3796:3849   */\n      tag_152\n      jump\t// in\n    tag_230:\n        /* \"#utility.yul\":3786:3849   */\n      swap3\n      pop\n        /* \"#utility.yul\":3742:3859   */\n      pop\n        /* \"#utility.yul\":3898:3900   */\n      0x20\n        /* \"#utility.yul\":3924:3977   */\n      tag_231\n        /* \"#utility.yul\":3969:3976   */\n      dup6\n        /* \"#utility.yul\":3960:3966   */\n      dup3\n        /* \"#utility.yul\":3949:3958   */\n      dup7\n        /* \"#utility.yul\":3945:3967   */\n      add\n        /* \"#utility.yul\":3924:3977   */\n      tag_152\n      jump\t// in\n    tag_231:\n        /* \"#utility.yul\":3914:3977   */\n      swap2\n      pop\n        /* \"#utility.yul\":3869:3987   */\n      pop\n        /* \"#utility.yul\":3520:3994   */\n      swap3\n      pop\n      swap3\n      swap1\n      pop\n      jump\t// out\n        /* \"#utility.yul\":4000:4169   */\n    tag_155:\n        /* \"#utility.yul\":4084:4095   */\n      0x00\n        /* \"#utility.yul\":4118:4124   */\n      dup3\n        /* \"#utility.yul\":4113:4116   */\n      dup3\n        /* \"#utility.yul\":4106:4125   */\n      mstore\n        /* \"#utility.yul\":4158:4162   */\n      0x20\n        /* \"#utility.yul\":4153:4156   */\n      dup3\n        /* \"#utility.yul\":4149:4163   */\n      add\n        /* \"#utility.yul\":4134:4163   */\n      swap1\n      pop\n        /* \"#utility.yul\":4000:4169   */\n      swap3\n      swap2\n      pop\n      pop\n      jump\t// out\n        /* \"#utility.yul\":4175:4355   */\n    tag_156:\n        /* \"#utility.yul\":4315:4347   */\n      0x416d6f756e7473206d7573742062652067726561746572207468616e20300000\n        /* \"#utility.yul\":4311:4312   */\n      0x00\n        /* \"#utility.yul\":4303:4309   */\n      dup3\n        /* \"#utility.yul\":4299:4313   */\n      add\n        /* \"#utility.yul\":4292:4348   */\n      mstore\n        /* \"#utility.yul\":4175:4355   */\n      pop\n      jump\t// out\n        /* \"#utility.yul\":4361:4727   */\n    tag_157:\n        /* \"#utility.yul\":4503:4506   */\n      0x00\n        /* \"#utility.yul\":4524:4591   */\n      tag_235\n        /* \"#utility.yul\":4588:4590   */\n      0x1e\n        /* \"#utility.yul\":4583:4586   */\n      dup4\n        /* \"#utility.yul\":4524:4591   */\n      tag_155\n      jump\t// in\n    tag_235:\n        /* \"#utility.yul\":4517:4591   */\n      swap2\n      pop\n        /* \"#utility.yul\":4600:4693   */\n      tag_236\n        /* \"#utility.yul\":4689:4692   */\n      dup3\n        /* \"#utility.yul\":4600:4693   */\n      tag_156\n      jump\t// in\n    tag_236:\n        /* \"#utility.yul\":4718:4720   */\n      0x20\n        /* \"#utility.yul\":4713:4716   */\n      dup3\n        /* \"#utility.yul\":4709:4721   */\n      add\n        /* \"#utility.yul\":4702:4721   */\n      swap1\n      pop\n        /* \"#utility.yul\":4361:4727   */\n      swap2\n      swap1\n      pop\n      jump\t// out\n        /* \"#utility.yul\":4733:5152   */\n    tag_58:\n        /* \"#utility.yul\":4899:4903   */\n      0x00\n        /* \"#utility.yul\":4937:4939   */\n      0x20\n        /* \"#utility.yul\":4926:4935   */\n      dup3\n        /* \"#utility.yul\":4922:4940   */\n      add\n        /* \"#utility.yul\":4914:4940   */\n      swap1\n      pop\n        /* \"#utility.yul\":4986:4995   */\n      dup2\n        /* \"#utility.yul\":4980:4984   */\n      dup2\n        /* \"#utility.yul\":4976:4996   */\n      sub\n        /* \"#utility.yul\":4972:4973   */\n      0x00\n        /* \"#utility.yul\":4961:4970   */\n      dup4\n        /* \"#utility.yul\":4957:4974   */\n      add\n        /* \"#utility.yul\":4950:4997   */\n      mstore\n        /* \"#utility.yul\":5014:5145   */\n      tag_238\n        /* \"#utility.yul\":5140:5144   */\n      dup2\n        /* \"#utility.yul\":5014:5145   */\n      tag_157\n      jump\t// in\n    tag_238:\n        /* \"#utility.yul\":5006:5145   */\n      swap1\n      pop\n        /* \"#utility.yul\":4733:5152   */\n      swap2\n      swap1\n      pop\n      jump\t// out\n        /* \"#utility.yul\":5158:5276   */\n    tag_158:\n        /* \"#utility.yul\":5245:5269   */\n      tag_240\n        /* \"#utility.yul\":5263:5268   */\n      dup2\n        /* \"#utility.yul\":5245:5269   */\n      tag_150\n      jump\t// in\n    tag_240:\n        /* \"#utility.yul\":5240:5243   */\n      dup3\n        /* \"#utility.yul\":5233:5270   */\n      mstore\n        /* \"#utility.yul\":5158:5276   */\n      pop\n      pop\n      jump\t// out\n        /* \"#utility.yul\":5282:5614   */\n    tag_60:\n        /* \"#utility.yul\":5403:5407   */\n      0x00\n        /* \"#utility.yul\":5441:5443   */\n      0x40\n        /* \"#utility.yul\":5430:5439   */\n      dup3\n        /* \"#utility.yul\":5426:5444   */\n      add\n        /* \"#utility.yul\":5418:5444   */\n      swap1\n      pop\n        /* \"#utility.yul\":5454:5525   */\n      tag_242\n        /* \"#utility.yul\":5522:5523   */\n      0x00\n        /* \"#utility.yul\":5511:5520   */\n      dup4\n        /* \"#utility.yul\":5507:5524   */\n      add\n        /* \"#utility.yul\":5498:5504   */\n      dup6\n        /* \"#utility.yul\":5454:5525   */\n      tag_158\n      jump\t// in\n    tag_242:\n        /* \"#utility.yul\":5535:5607   */\n      tag_243\n        /* \"#utility.yul\":5603:5605   */\n      0x20\n        /* \"#utility.yul\":5592:5601   */\n      dup4\n        /* \"#utility.yul\":5588:5606   */\n      add\n        /* \"#utility.yul\":5579:5585   */\n      dup5\n        /* \"#utility.yul\":5535:5607   */\n      tag_158\n      jump\t// in\n    tag_243:\n        /* \"#utility.yul\":5282:5614   */\n      swap4\n      swap3\n      pop\n      pop\n      pop\n      jump\t// out\n        /* \"#utility.yul\":5620:5763   */\n    tag_159:\n        /* \"#utility.yul\":5677:5682   */\n      0x00\n        /* \"#utility.yul\":5708:5714   */\n      dup2\n        /* \"#utility.yul\":5702:5715   */\n      mload\n        /* \"#utility.yul\":5693:5715   */\n      swap1\n      pop\n        /* \"#utility.yul\":5724:5757   */\n      tag_245\n        /* \"#utility.yul\":5751:5756   */\n      dup2\n        /* \"#utility.yul\":5724:5757   */\n      tag_153\n      jump\t// in\n    tag_245:\n        /* \"#utility.yul\":5620:5763   */\n      swap3\n      swap2\n      pop\n      pop\n      jump\t// out\n        /* \"#utility.yul\":5769:6120   */\n    tag_64:\n        /* \"#utility.yul\":5839:5845   */\n      0x00\n        /* \"#utility.yul\":5888:5890   */\n      0x20\n        /* \"#utility.yul\":5876:5885   */\n      dup3\n        /* \"#utility.yul\":5867:5874   */\n      dup5\n        /* \"#utility.yul\":5863:5886   */\n      sub\n        /* \"#utility.yul\":5859:5891   */\n      slt\n        /* \"#utility.yul\":5856:5975   */\n      iszero\n      tag_247\n      jumpi\n        /* \"#utility.yul\":5894:5973   */\n      tag_248\n      tag_148\n      jump\t// in\n    tag_248:\n        /* \"#utility.yul\":5856:5975   */\n    tag_247:\n        /* \"#utility.yul\":6014:6015   */\n      0x00\n        /* \"#utility.yul\":6039:6103   */\n      tag_249\n        /* \"#utility.yul\":6095:6102   */\n      dup5\n        /* \"#utility.yul\":6086:6092   */\n      dup3\n        /* \"#utility.yul\":6075:6084   */\n      dup6\n        /* \"#utility.yul\":6071:6093   */\n      add\n        /* \"#utility.yul\":6039:6103   */\n      tag_159\n      jump\t// in\n    tag_249:\n        /* \"#utility.yul\":6029:6103   */\n      swap2\n      pop\n        /* \"#utility.yul\":5985:6113   */\n      pop\n        /* \"#utility.yul\":5769:6120   */\n      swap3\n      swap2\n      pop\n      pop\n      jump\t// out\n        /* \"#utility.yul\":6126:6307   */\n    tag_160:\n        /* \"#utility.yul\":6266:6299   */\n      0x546f6b656e203120616c6c6f77616e6365206973206e6f7420656e6f75676800\n        /* \"#utility.yul\":6262:6263   */\n      0x00\n        /* \"#utility.yul\":6254:6260   */\n      dup3\n        /* \"#utility.yul\":6250:6264   */\n      add\n        /* \"#utility.yul\":6243:6300   */\n      mstore\n        /* \"#utility.yul\":6126:6307   */\n      pop\n      jump\t// out\n        /* \"#utility.yul\":6313:6679   */\n    tag_161:\n        /* \"#utility.yul\":6455:6458   */\n      0x00\n        /* \"#utility.yul\":6476:6543   */\n      tag_252\n        /* \"#utility.yul\":6540:6542   */\n      0x1f\n        /* \"#utility.yul\":6535:6538   */\n      dup4\n        /* \"#utility.yul\":6476:6543   */\n      tag_155\n      jump\t// in\n    tag_252:\n        /* \"#utility.yul\":6469:6543   */\n      swap2\n      pop\n        /* \"#utility.yul\":6552:6645   */\n      tag_253\n        /* \"#utility.yul\":6641:6644   */\n      dup3\n        /* \"#utility.yul\":6552:6645   */\n      tag_160\n      jump\t// in\n    tag_253:\n        /* \"#utility.yul\":6670:6672   */\n      0x20\n        /* \"#utility.yul\":6665:6668   */\n      dup3\n        /* \"#utility.yul\":6661:6673   */\n      add\n        /* \"#utility.yul\":6654:6673   */\n      swap1\n      pop\n        /* \"#utility.yul\":6313:6679   */\n      swap2\n      swap1\n      pop\n      jump\t// out\n        /* \"#utility.yul\":6685:7104   */\n    tag_75:\n        /* \"#utility.yul\":6851:6855   */\n      0x00\n        /* \"#utility.yul\":6889:6891   */\n      0x20\n        /* \"#utility.yul\":6878:6887   */\n      dup3\n        /* \"#utility.yul\":6874:6892   */\n      add\n        /* \"#utility.yul\":6866:6892   */\n      swap1\n      pop\n        /* \"#utility.yul\":6938:6947   */\n      dup2\n        /* \"#utility.yul\":6932:6936   */\n      dup2\n        /* \"#utility.yul\":6928:6948   */\n      sub\n        /* \"#utility.yul\":6924:6925   */\n      0x00\n        /* \"#utility.yul\":6913:6922   */\n      dup4\n        /* \"#utility.yul\":6909:6926   */\n      add\n        /* \"#utility.yul\":6902:6949   */\n      mstore\n        /* \"#utility.yul\":6966:7097   */\n      tag_255\n        /* \"#utility.yul\":7092:7096   */\n      dup2\n        /* \"#utility.yul\":6966:7097   */\n      tag_161\n      jump\t// in\n    tag_255:\n        /* \"#utility.yul\":6958:7097   */\n      swap1\n      pop\n        /* \"#utility.yul\":6685:7104   */\n      swap2\n      swap1\n      pop\n      jump\t// out\n        /* \"#utility.yul\":7110:7291   */\n    tag_162:\n        /* \"#utility.yul\":7250:7283   */\n      0x546f6b656e203220616c6c6f77616e6365206973206e6f7420656e6f75676800\n        /* \"#utility.yul\":7246:7247   */\n      0x00\n        /* \"#utility.yul\":7238:7244   */\n      dup3\n        /* \"#utility.yul\":7234:7248   */\n      add\n        /* \"#utility.yul\":7227:7284   */\n      mstore\n        /* \"#utility.yul\":7110:7291   */\n      pop\n      jump\t// out\n        /* \"#utility.yul\":7297:7663   */\n    tag_163:\n        /* \"#utility.yul\":7439:7442   */\n      0x00\n        /* \"#utility.yul\":7460:7527   */\n      tag_258\n        /* \"#utility.yul\":7524:7526   */\n      0x1f\n        /* \"#utility.yul\":7519:7522   */\n      dup4\n        /* \"#utility.yul\":7460:7527   */\n      tag_155\n      jump\t// in\n    tag_258:\n        /* \"#utility.yul\":7453:7527   */\n      swap2\n      pop\n        /* \"#utility.yul\":7536:7629   */\n      tag_259\n        /* \"#utility.yul\":7625:7628   */\n      dup3\n        /* \"#utility.yul\":7536:7629   */\n      tag_162\n      jump\t// in\n    tag_259:\n        /* \"#utility.yul\":7654:7656   */\n      0x20\n        /* \"#utility.yul\":7649:7652   */\n      dup3\n        /* \"#utility.yul\":7645:7657   */\n      add\n        /* \"#utility.yul\":7638:7657   */\n      swap1\n      pop\n        /* \"#utility.yul\":7297:7663   */\n      swap2\n      swap1\n      pop\n      jump\t// out\n        /* \"#utility.yul\":7669:8088   */\n    tag_78:\n        /* \"#utility.yul\":7835:7839   */\n      0x00\n        /* \"#utility.yul\":7873:7875   */\n      0x20\n        /* \"#utility.yul\":7862:7871   */\n      dup3\n        /* \"#utility.yul\":7858:7876   */\n      add\n        /* \"#utility.yul\":7850:7876   */\n      swap1\n      pop\n        /* \"#utility.yul\":7922:7931   */\n      dup2\n        /* \"#utility.yul\":7916:7920   */\n      dup2\n        /* \"#utility.yul\":7912:7932   */\n      sub\n        /* \"#utility.yul\":7908:7909   */\n      0x00\n        /* \"#utility.yul\":7897:7906   */\n      dup4\n        /* \"#utility.yul\":7893:7910   */\n      add\n        /* \"#utility.yul\":7886:7933   */\n      mstore\n        /* \"#utility.yul\":7950:8081   */\n      tag_261\n        /* \"#utility.yul\":8076:8080   */\n      dup2\n        /* \"#utility.yul\":7950:8081   */\n      tag_163\n      jump\t// in\n    tag_261:\n        /* \"#utility.yul\":7942:8081   */\n      swap1\n      pop\n        /* \"#utility.yul\":7669:8088   */\n      swap2\n      swap1\n      pop\n      jump\t// out\n        /* \"#utility.yul\":8094:8275   */\n    tag_164:\n        /* \"#utility.yul\":8234:8267   */\n      0x546f6b656e203320616c6c6f77616e6365206973206e6f7420656e6f75676800\n        /* \"#utility.yul\":8230:8231   */\n      0x00\n        /* \"#utility.yul\":8222:8228   */\n      dup3\n        /* \"#utility.yul\":8218:8232   */\n      add\n        /* \"#utility.yul\":8211:8268   */\n      mstore\n        /* \"#utility.yul\":8094:8275   */\n      pop\n      jump\t// out\n        /* \"#utility.yul\":8281:8647   */\n    tag_165:\n        /* \"#utility.yul\":8423:8426   */\n      0x00\n        /* \"#utility.yul\":8444:8511   */\n      tag_264\n        /* \"#utility.yul\":8508:8510   */\n      0x1f\n        /* \"#utility.yul\":8503:8506   */\n      dup4\n        /* \"#utility.yul\":8444:8511   */\n      tag_155\n      jump\t// in\n    tag_264:\n        /* \"#utility.yul\":8437:8511   */\n      swap2\n      pop\n        /* \"#utility.yul\":8520:8613   */\n      tag_265\n        /* \"#utility.yul\":8609:8612   */\n      dup3\n        /* \"#utility.yul\":8520:8613   */\n      tag_164\n      jump\t// in\n    tag_265:\n        /* \"#utility.yul\":8638:8640   */\n      0x20\n        /* \"#utility.yul\":8633:8636   */\n      dup3\n        /* \"#utility.yul\":8629:8641   */\n      add\n        /* \"#utility.yul\":8622:8641   */\n      swap1\n      pop\n        /* \"#utility.yul\":8281:8647   */\n      swap2\n      swap1\n      pop\n      jump\t// out\n        /* \"#utility.yul\":8653:9072   */\n    tag_81:\n        /* \"#utility.yul\":8819:8823   */\n      0x00\n        /* \"#utility.yul\":8857:8859   */\n      0x20\n        /* \"#utility.yul\":8846:8855   */\n      dup3\n        /* \"#utility.yul\":8842:8860   */\n      add\n        /* \"#utility.yul\":8834:8860   */\n      swap1\n      pop\n        /* \"#utility.yul\":8906:8915   */\n      dup2\n        /* \"#utility.yul\":8900:8904   */\n      dup2\n        /* \"#utility.yul\":8896:8916   */\n      sub\n        /* \"#utility.yul\":8892:8893   */\n      0x00\n        /* \"#utility.yul\":8881:8890   */\n      dup4\n        /* \"#utility.yul\":8877:8894   */\n      add\n        /* \"#utility.yul\":8870:8917   */\n      mstore\n        /* \"#utility.yul\":8934:9065   */\n      tag_267\n        /* \"#utility.yul\":9060:9064   */\n      dup2\n        /* \"#utility.yul\":8934:9065   */\n      tag_165\n      jump\t// in\n    tag_267:\n        /* \"#utility.yul\":8926:9065   */\n      swap1\n      pop\n        /* \"#utility.yul\":8653:9072   */\n      swap2\n      swap1\n      pop\n      jump\t// out\n        /* \"#utility.yul\":9078:9520   */\n    tag_83:\n        /* \"#utility.yul\":9227:9231   */\n      0x00\n        /* \"#utility.yul\":9265:9267   */\n      0x60\n        /* \"#utility.yul\":9254:9263   */\n      dup3\n        /* \"#utility.yul\":9250:9268   */\n      add\n        /* \"#utility.yul\":9242:9268   */\n      swap1\n      pop\n        /* \"#utility.yul\":9278:9349   */\n      tag_269\n        /* \"#utility.yul\":9346:9347   */\n      0x00\n        /* \"#utility.yul\":9335:9344   */\n      dup4\n        /* \"#utility.yul\":9331:9348   */\n      add\n        /* \"#utility.yul\":9322:9328   */\n      dup7\n        /* \"#utility.yul\":9278:9349   */\n      tag_158\n      jump\t// in\n    tag_269:\n        /* \"#utility.yul\":9359:9431   */\n      tag_270\n        /* \"#utility.yul\":9427:9429   */\n      0x20\n        /* \"#utility.yul\":9416:9425   */\n      dup4\n        /* \"#utility.yul\":9412:9430   */\n      add\n        /* \"#utility.yul\":9403:9409   */\n      dup6\n        /* \"#utility.yul\":9359:9431   */\n      tag_158\n      jump\t// in\n    tag_270:\n        /* \"#utility.yul\":9441:9513   */\n      tag_271\n        /* \"#utility.yul\":9509:9511   */\n      0x40\n        /* \"#utility.yul\":9498:9507   */\n      dup4\n        /* \"#utility.yul\":9494:9512   */\n      add\n        /* \"#utility.yul\":9485:9491   */\n      dup5\n        /* \"#utility.yul\":9441:9513   */\n      tag_146\n      jump\t// in\n    tag_271:\n        /* \"#utility.yul\":9078:9520   */\n      swap5\n      swap4\n      pop\n      pop\n      pop\n      pop\n      jump\t// out\n        /* \"#utility.yul\":9526:9616   */\n    tag_166:\n        /* \"#utility.yul\":9560:9567   */\n      0x00\n        /* \"#utility.yul\":9603:9608   */\n      dup2\n        /* \"#utility.yul\":9596:9609   */\n      iszero\n        /* \"#utility.yul\":9589:9610   */\n      iszero\n        /* \"#utility.yul\":9578:9610   */\n      swap1\n      pop\n        /* \"#utility.yul\":9526:9616   */\n      swap2\n      swap1\n      pop\n      jump\t// out\n        /* \"#utility.yul\":9622:9738   */\n    tag_167:\n        /* \"#utility.yul\":9692:9713   */\n      tag_274\n        /* \"#utility.yul\":9707:9712   */\n      dup2\n        /* \"#utility.yul\":9692:9713   */\n      tag_166\n      jump\t// in\n    tag_274:\n        /* \"#utility.yul\":9685:9690   */\n      dup2\n        /* \"#utility.yul\":9682:9714   */\n      eq\n        /* \"#utility.yul\":9672:9732   */\n      tag_275\n      jumpi\n        /* \"#utility.yul\":9728:9729   */\n      0x00\n        /* \"#utility.yul\":9725:9726   */\n      dup1\n        /* \"#utility.yul\":9718:9730   */\n      revert\n        /* \"#utility.yul\":9672:9732   */\n    tag_275:\n        /* \"#utility.yul\":9622:9738   */\n      pop\n      jump\t// out\n        /* \"#utility.yul\":9744:9881   */\n    tag_168:\n        /* \"#utility.yul\":9798:9803   */\n      0x00\n        /* \"#utility.yul\":9829:9835   */\n      dup2\n        /* \"#utility.yul\":9823:9836   */\n      mload\n        /* \"#utility.yul\":9814:9836   */\n      swap1\n      pop\n        /* \"#utility.yul\":9845:9875   */\n      tag_277\n        /* \"#utility.yul\":9869:9874   */\n      dup2\n        /* \"#utility.yul\":9845:9875   */\n      tag_167\n      jump\t// in\n    tag_277:\n        /* \"#utility.yul\":9744:9881   */\n      swap3\n      swap2\n      pop\n      pop\n      jump\t// out\n        /* \"#utility.yul\":9887:10232   */\n    tag_87:\n        /* \"#utility.yul\":9954:9960   */\n      0x00\n        /* \"#utility.yul\":10003:10005   */\n      0x20\n        /* \"#utility.yul\":9991:10000   */\n      dup3\n        /* \"#utility.yul\":9982:9989   */\n      dup5\n        /* \"#utility.yul\":9978:10001   */\n      sub\n        /* \"#utility.yul\":9974:10006   */\n      slt\n        /* \"#utility.yul\":9971:10090   */\n      iszero\n      tag_279\n      jumpi\n        /* \"#utility.yul\":10009:10088   */\n      tag_280\n      tag_148\n      jump\t// in\n    tag_280:\n        /* \"#utility.yul\":9971:10090   */\n    tag_279:\n        /* \"#utility.yul\":10129:10130   */\n      0x00\n        /* \"#utility.yul\":10154:10215   */\n      tag_281\n        /* \"#utility.yul\":10207:10214   */\n      dup5\n        /* \"#utility.yul\":10198:10204   */\n      dup3\n        /* \"#utility.yul\":10187:10196   */\n      dup6\n        /* \"#utility.yul\":10183:10205   */\n      add\n        /* \"#utility.yul\":10154:10215   */\n      tag_168\n      jump\t// in\n    tag_281:\n        /* \"#utility.yul\":10144:10215   */\n      swap2\n      pop\n        /* \"#utility.yul\":10100:10225   */\n      pop\n        /* \"#utility.yul\":9887:10232   */\n      swap3\n      swap2\n      pop\n      pop\n      jump\t// out\n        /* \"#utility.yul\":10238:10411   */\n    tag_169:\n        /* \"#utility.yul\":10378:10403   */\n      0x546f6b656e2031207472616e73666572206661696c6564000000000000000000\n        /* \"#utility.yul\":10374:10375   */\n      0x00\n        /* \"#utility.yul\":10366:10372   */\n      dup3\n        /* \"#utility.yul\":10362:10376   */\n      add\n        /* \"#utility.yul\":10355:10404   */\n      mstore\n        /* \"#utility.yul\":10238:10411   */\n      pop\n      jump\t// out\n        /* \"#utility.yul\":10417:10783   */\n    tag_170:\n        /* \"#utility.yul\":10559:10562   */\n      0x00\n        /* \"#utility.yul\":10580:10647   */\n      tag_284\n        /* \"#utility.yul\":10644:10646   */\n      0x17\n        /* \"#utility.yul\":10639:10642   */\n      dup4\n        /* \"#utility.yul\":10580:10647   */\n      tag_155\n      jump\t// in\n    tag_284:\n        /* \"#utility.yul\":10573:10647   */\n      swap2\n      pop\n        /* \"#utility.yul\":10656:10749   */\n      tag_285\n        /* \"#utility.yul\":10745:10748   */\n      dup3\n        /* \"#utility.yul\":10656:10749   */\n      tag_169\n      jump\t// in\n    tag_285:\n        /* \"#utility.yul\":10774:10776   */\n      0x20\n        /* \"#utility.yul\":10769:10772   */\n      dup3\n        /* \"#utility.yul\":10765:10777   */\n      add\n        /* \"#utility.yul\":10758:10777   */\n      swap1\n      pop\n        /* \"#utility.yul\":10417:10783   */\n      swap2\n      swap1\n      pop\n      jump\t// out\n        /* \"#utility.yul\":10789:11208   */\n    tag_98:\n        /* \"#utility.yul\":10955:10959   */\n      0x00\n        /* \"#utility.yul\":10993:10995   */\n      0x20\n        /* \"#utility.yul\":10982:10991   */\n      dup3\n        /* \"#utility.yul\":10978:10996   */\n      add\n        /* \"#utility.yul\":10970:10996   */\n      swap1\n      pop\n        /* \"#utility.yul\":11042:11051   */\n      dup2\n        /* \"#utility.yul\":11036:11040   */\n      dup2\n        /* \"#utility.yul\":11032:11052   */\n      sub\n        /* \"#utility.yul\":11028:11029   */\n      0x00\n        /* \"#utility.yul\":11017:11026   */\n      dup4\n        /* \"#utility.yul\":11013:11030   */\n      add\n        /* \"#utility.yul\":11006:11053   */\n      mstore\n        /* \"#utility.yul\":11070:11201   */\n      tag_287\n        /* \"#utility.yul\":11196:11200   */\n      dup2\n        /* \"#utility.yul\":11070:11201   */\n      tag_170\n      jump\t// in\n    tag_287:\n        /* \"#utility.yul\":11062:11201   */\n      swap1\n      pop\n        /* \"#utility.yul\":10789:11208   */\n      swap2\n      swap1\n      pop\n      jump\t// out\n        /* \"#utility.yul\":11214:11387   */\n    tag_171:\n        /* \"#utility.yul\":11354:11379   */\n      0x546f6b656e2032207472616e73666572206661696c6564000000000000000000\n        /* \"#utility.yul\":11350:11351   */\n      0x00\n        /* \"#utility.yul\":11342:11348   */\n      dup3\n        /* \"#utility.yul\":11338:11352   */\n      add\n        /* \"#utility.yul\":11331:11380   */\n      mstore\n        /* \"#utility.yul\":11214:11387   */\n      pop\n      jump\t// out\n        /* \"#utility.yul\":11393:11759   */\n    tag_172:\n        /* \"#utility.yul\":11535:11538   */\n      0x00\n        /* \"#utility.yul\":11556:11623   */\n      tag_290\n        /* \"#utility.yul\":11620:11622   */\n      0x17\n        /* \"#utility.yul\":11615:11618   */\n      dup4\n        /* \"#utility.yul\":11556:11623   */\n      tag_155\n      jump\t// in\n    tag_290:\n        /* \"#utility.yul\":11549:11623   */\n      swap2\n      pop\n        /* \"#utility.yul\":11632:11725   */\n      tag_291\n        /* \"#utility.yul\":11721:11724   */\n      dup3\n        /* \"#utility.yul\":11632:11725   */\n      tag_171\n      jump\t// in\n    tag_291:\n        /* \"#utility.yul\":11750:11752   */\n      0x20\n        /* \"#utility.yul\":11745:11748   */\n      dup3\n        /* \"#utility.yul\":11741:11753   */\n      add\n        /* \"#utility.yul\":11734:11753   */\n      swap1\n      pop\n        /* \"#utility.yul\":11393:11759   */\n      swap2\n      swap1\n      pop\n      jump\t// out\n        /* \"#utility.yul\":11765:12184   */\n    tag_101:\n        /* \"#utility.yul\":11931:11935   */\n      0x00\n        /* \"#utility.yul\":11969:11971   */\n      0x20\n        /* \"#utility.yul\":11958:11967   */\n      dup3\n        /* \"#utility.yul\":11954:11972   */\n      add\n        /* \"#utility.yul\":11946:11972   */\n      swap1\n      pop\n        /* \"#utility.yul\":12018:12027   */\n      dup2\n        /* \"#utility.yul\":12012:12016   */\n      dup2\n        /* \"#utility.yul\":12008:12028   */\n      sub\n        /* \"#utility.yul\":12004:12005   */\n      0x00\n        /* \"#utility.yul\":11993:12002   */\n      dup4\n        /* \"#utility.yul\":11989:12006   */\n      add\n        /* \"#utility.yul\":11982:12029   */\n      mstore\n        /* \"#utility.yul\":12046:12177   */\n      tag_293\n        /* \"#utility.yul\":12172:12176   */\n      dup2\n        /* \"#utility.yul\":12046:12177   */\n      tag_172\n      jump\t// in\n    tag_293:\n        /* \"#utility.yul\":12038:12177   */\n      swap1\n      pop\n        /* \"#utility.yul\":11765:12184   */\n      swap2\n      swap1\n      pop\n      jump\t// out\n        /* \"#utility.yul\":12190:12363   */\n    tag_173:\n        /* \"#utility.yul\":12330:12355   */\n      0x546f6b656e2033207472616e73666572206661696c6564000000000000000000\n        /* \"#utility.yul\":12326:12327   */\n      0x00\n        /* \"#utility.yul\":12318:12324   */\n      dup3\n        /* \"#utility.yul\":12314:12328   */\n      add\n        /* \"#utility.yul\":12307:12356   */\n      mstore\n        /* \"#utility.yul\":12190:12363   */\n      pop\n      jump\t// out\n        /* \"#utility.yul\":12369:12735   */\n    tag_174:\n        /* \"#utility.yul\":12511:12514   */\n      0x00\n        /* \"#utility.yul\":12532:12599   */\n      tag_296\n        /* \"#utility.yul\":12596:12598   */\n      0x17\n        /* \"#utility.yul\":12591:12594   */\n      dup4\n        /* \"#utility.yul\":12532:12599   */\n      tag_155\n      jump\t// in\n    tag_296:\n        /* \"#utility.yul\":12525:12599   */\n      swap2\n      pop\n        /* \"#utility.yul\":12608:12701   */\n      tag_297\n        /* \"#utility.yul\":12697:12700   */\n      dup3\n        /* \"#utility.yul\":12608:12701   */\n      tag_173\n      jump\t// in\n    tag_297:\n        /* \"#utility.yul\":12726:12728   */\n      0x20\n        /* \"#utility.yul\":12721:12724   */\n      dup3\n        /* \"#utility.yul\":12717:12729   */\n      add\n        /* \"#utility.yul\":12710:12729   */\n      swap1\n      pop\n        /* \"#utility.yul\":12369:12735   */\n      swap2\n      swap1\n      pop\n      jump\t// out\n        /* \"#utility.yul\":12741:13160   */\n    tag_104:\n        /* \"#utility.yul\":12907:12911   */\n      0x00\n        /* \"#utility.yul\":12945:12947   */\n      0x20\n        /* \"#utility.yul\":12934:12943   */\n      dup3\n        /* \"#utility.yul\":12930:12948   */\n      add\n        /* \"#utility.yul\":12922:12948   */\n      swap1\n      pop\n        /* \"#utility.yul\":12994:13003   */\n      dup2\n        /* \"#utility.yul\":12988:12992   */\n      dup2\n        /* \"#utility.yul\":12984:13004   */\n      sub\n        /* \"#utility.yul\":12980:12981   */\n      0x00\n        /* \"#utility.yul\":12969:12978   */\n      dup4\n        /* \"#utility.yul\":12965:12982   */\n      add\n        /* \"#utility.yul\":12958:13005   */\n      mstore\n        /* \"#utility.yul\":13022:13153   */\n      tag_299\n        /* \"#utility.yul\":13148:13152   */\n      dup2\n        /* \"#utility.yul\":13022:13153   */\n      tag_174\n      jump\t// in\n    tag_299:\n        /* \"#utility.yul\":13014:13153   */\n      swap1\n      pop\n        /* \"#utility.yul\":12741:13160   */\n      swap2\n      swap1\n      pop\n      jump\t// out\n        /* \"#utility.yul\":13166:13346   */\n    tag_175:\n        /* \"#utility.yul\":13214:13291   */\n      0x4e487b7100000000000000000000000000000000000000000000000000000000\n        /* \"#utility.yul\":13211:13212   */\n      0x00\n        /* \"#utility.yul\":13204:13292   */\n      mstore\n        /* \"#utility.yul\":13311:13315   */\n      0x11\n        /* \"#utility.yul\":13308:13309   */\n      0x04\n        /* \"#utility.yul\":13301:13316   */\n      mstore\n        /* \"#utility.yul\":13335:13339   */\n      0x24\n        /* \"#utility.yul\":13332:13333   */\n      0x00\n        /* \"#utility.yul\":13325:13340   */\n      revert\n        /* \"#utility.yul\":13352:13543   */\n    tag_106:\n        /* \"#utility.yul\":13392:13395   */\n      0x00\n        /* \"#utility.yul\":13411:13431   */\n      tag_302\n        /* \"#utility.yul\":13429:13430   */\n      dup3\n        /* \"#utility.yul\":13411:13431   */\n      tag_145\n      jump\t// in\n    tag_302:\n        /* \"#utility.yul\":13406:13431   */\n      swap2\n      pop\n        /* \"#utility.yul\":13445:13465   */\n      tag_303\n        /* \"#utility.yul\":13463:13464   */\n      dup4\n        /* \"#utility.yul\":13445:13465   */\n      tag_145\n      jump\t// in\n    tag_303:\n        /* \"#utility.yul\":13440:13465   */\n      swap3\n      pop\n        /* \"#utility.yul\":13488:13489   */\n      dup3\n        /* \"#utility.yul\":13485:13486   */\n      dup3\n        /* \"#utility.yul\":13481:13490   */\n      add\n        /* \"#utility.yul\":13474:13490   */\n      swap1\n      pop\n        /* \"#utility.yul\":13509:13512   */\n      dup1\n        /* \"#utility.yul\":13506:13507   */\n      dup3\n        /* \"#utility.yul\":13503:13513   */\n      gt\n        /* \"#utility.yul\":13500:13536   */\n      iszero\n      tag_304\n      jumpi\n        /* \"#utility.yul\":13516:13534   */\n      tag_305\n      tag_175\n      jump\t// in\n    tag_305:\n        /* \"#utility.yul\":13500:13536   */\n    tag_304:\n        /* \"#utility.yul\":13352:13543   */\n      swap3\n      swap2\n      pop\n      pop\n      jump\t// out\n        /* \"#utility.yul\":13549:13991   */\n    tag_110:\n        /* \"#utility.yul\":13698:13702   */\n      0x00\n        /* \"#utility.yul\":13736:13738   */\n      0x60\n        /* \"#utility.yul\":13725:13734   */\n      dup3\n        /* \"#utility.yul\":13721:13739   */\n      add\n        /* \"#utility.yul\":13713:13739   */\n      swap1\n      pop\n        /* \"#utility.yul\":13749:13820   */\n      tag_307\n        /* \"#utility.yul\":13817:13818   */\n      0x00\n        /* \"#utility.yul\":13806:13815   */\n      dup4\n        /* \"#utility.yul\":13802:13819   */\n      add\n        /* \"#utility.yul\":13793:13799   */\n      dup7\n        /* \"#utility.yul\":13749:13820   */\n      tag_146\n      jump\t// in\n    tag_307:\n        /* \"#utility.yul\":13830:13902   */\n      tag_308\n        /* \"#utility.yul\":13898:13900   */\n      0x20\n        /* \"#utility.yul\":13887:13896   */\n      dup4\n        /* \"#utility.yul\":13883:13901   */\n      add\n        /* \"#utility.yul\":13874:13880   */\n      dup6\n        /* \"#utility.yul\":13830:13902   */\n      tag_146\n      jump\t// in\n    tag_308:\n        /* \"#utility.yul\":13912:13984   */\n      tag_309\n        /* \"#utility.yul\":13980:13982   */\n      0x40\n        /* \"#utility.yul\":13969:13978   */\n      dup4\n        /* \"#utility.yul\":13965:13983   */\n      add\n        /* \"#utility.yul\":13956:13962   */\n      dup5\n        /* \"#utility.yul\":13912:13984   */\n      tag_146\n      jump\t// in\n    tag_309:\n        /* \"#utility.yul\":13549:13991   */\n      swap5\n      swap4\n      pop\n      pop\n      pop\n      pop\n      jump\t// out\n        /* \"#utility.yul\":13997:14171   */\n    tag_176:\n        /* \"#utility.yul\":14137:14163   */\n      0x506f6f6c206d7573742068617665206c69717569646974790000000000000000\n        /* \"#utility.yul\":14133:14134   */\n      0x00\n        /* \"#utility.yul\":14125:14131   */\n      dup3\n        /* \"#utility.yul\":14121:14135   */\n      add\n        /* \"#utility.yul\":14114:14164   */\n      mstore\n        /* \"#utility.yul\":13997:14171   */\n      pop\n      jump\t// out\n        /* \"#utility.yul\":14177:14543   */\n    tag_177:\n        /* \"#utility.yul\":14319:14322   */\n      0x00\n        /* \"#utility.yul\":14340:14407   */\n      tag_312\n        /* \"#utility.yul\":14404:14406   */\n      0x18\n        /* \"#utility.yul\":14399:14402   */\n      dup4\n        /* \"#utility.yul\":14340:14407   */\n      tag_155\n      jump\t// in\n    tag_312:\n        /* \"#utility.yul\":14333:14407   */\n      swap2\n      pop\n        /* \"#utility.yul\":14416:14509   */\n      tag_313\n        /* \"#utility.yul\":14505:14508   */\n      dup3\n        /* \"#utility.yul\":14416:14509   */\n      tag_176\n      jump\t// in\n    tag_313:\n        /* \"#utility.yul\":14534:14536   */\n      0x20\n        /* \"#utility.yul\":14529:14532   */\n      dup3\n        /* \"#utility.yul\":14525:14537   */\n      add\n        /* \"#utility.yul\":14518:14537   */\n      swap1\n      pop\n        /* \"#utility.yul\":14177:14543   */\n      swap2\n      swap1\n      pop\n      jump\t// out\n        /* \"#utility.yul\":14549:14968   */\n    tag_116:\n        /* \"#utility.yul\":14715:14719   */\n      0x00\n        /* \"#utility.yul\":14753:14755   */\n      0x20\n        /* \"#utility.yul\":14742:14751   */\n      dup3\n        /* \"#utility.yul\":14738:14756   */\n      add\n        /* \"#utility.yul\":14730:14756   */\n      swap1\n      pop\n        /* \"#utility.yul\":14802:14811   */\n      dup2\n        /* \"#utility.yul\":14796:14800   */\n      dup2\n        /* \"#utility.yul\":14792:14812   */\n      sub\n        /* \"#utility.yul\":14788:14789   */\n      0x00\n        /* \"#utility.yul\":14777:14786   */\n      dup4\n        /* \"#utility.yul\":14773:14790   */\n      add\n        /* \"#utility.yul\":14766:14813   */\n      mstore\n        /* \"#utility.yul\":14830:14961   */\n      tag_315\n        /* \"#utility.yul\":14956:14960   */\n      dup2\n        /* \"#utility.yul\":14830:14961   */\n      tag_177\n      jump\t// in\n    tag_315:\n        /* \"#utility.yul\":14822:14961   */\n      swap1\n      pop\n        /* \"#utility.yul\":14549:14968   */\n      swap2\n      swap1\n      pop\n      jump\t// out\n        /* \"#utility.yul\":14974:15141   */\n    tag_178:\n        /* \"#utility.yul\":15114:15133   */\n      0x496e76616c69642066726f6d546f6b656e000000000000000000000000000000\n        /* \"#utility.yul\":15110:15111   */\n      0x00\n        /* \"#utility.yul\":15102:15108   */\n      dup3\n        /* \"#utility.yul\":15098:15112   */\n      add\n        /* \"#utility.yul\":15091:15134   */\n      mstore\n        /* \"#utility.yul\":14974:15141   */\n      pop\n      jump\t// out\n        /* \"#utility.yul\":15147:15513   */\n    tag_179:\n        /* \"#utility.yul\":15289:15292   */\n      0x00\n        /* \"#utility.yul\":15310:15377   */\n      tag_318\n        /* \"#utility.yul\":15374:15376   */\n      0x11\n        /* \"#utility.yul\":15369:15372   */\n      dup4\n        /* \"#utility.yul\":15310:15377   */\n      tag_155\n      jump\t// in\n    tag_318:\n        /* \"#utility.yul\":15303:15377   */\n      swap2\n      pop\n        /* \"#utility.yul\":15386:15479   */\n      tag_319\n        /* \"#utility.yul\":15475:15478   */\n      dup3\n        /* \"#utility.yul\":15386:15479   */\n      tag_178\n      jump\t// in\n    tag_319:\n        /* \"#utility.yul\":15504:15506   */\n      0x20\n        /* \"#utility.yul\":15499:15502   */\n      dup3\n        /* \"#utility.yul\":15495:15507   */\n      add\n        /* \"#utility.yul\":15488:15507   */\n      swap1\n      pop\n        /* \"#utility.yul\":15147:15513   */\n      swap2\n      swap1\n      pop\n      jump\t// out\n        /* \"#utility.yul\":15519:15938   */\n    tag_124:\n        /* \"#utility.yul\":15685:15689   */\n      0x00\n        /* \"#utility.yul\":15723:15725   */\n      0x20\n        /* \"#utility.yul\":15712:15721   */\n      dup3\n        /* \"#utility.yul\":15708:15726   */\n      add\n        /* \"#utility.yul\":15700:15726   */\n      swap1\n      pop\n        /* \"#utility.yul\":15772:15781   */\n      dup2\n        /* \"#utility.yul\":15766:15770   */\n      dup2\n        /* \"#utility.yul\":15762:15782   */\n      sub\n        /* \"#utility.yul\":15758:15759   */\n      0x00\n        /* \"#utility.yul\":15747:15756   */\n      dup4\n        /* \"#utility.yul\":15743:15760   */\n      add\n        /* \"#utility.yul\":15736:15783   */\n      mstore\n        /* \"#utility.yul\":15800:15931   */\n      tag_321\n        /* \"#utility.yul\":15926:15930   */\n      dup2\n        /* \"#utility.yul\":15800:15931   */\n      tag_179\n      jump\t// in\n    tag_321:\n        /* \"#utility.yul\":15792:15931   */\n      swap1\n      pop\n        /* \"#utility.yul\":15519:15938   */\n      swap2\n      swap1\n      pop\n      jump\t// out\n        /* \"#utility.yul\":15944:16109   */\n    tag_180:\n        /* \"#utility.yul\":16084:16101   */\n      0x496e76616c696420746f546f6b656e0000000000000000000000000000000000\n        /* \"#utility.yul\":16080:16081   */\n      0x00\n        /* \"#utility.yul\":16072:16078   */\n      dup3\n        /* \"#utility.yul\":16068:16082   */\n      add\n        /* \"#utility.yul\":16061:16102   */\n      mstore\n        /* \"#utility.yul\":15944:16109   */\n      pop\n      jump\t// out\n        /* \"#utility.yul\":16115:16481   */\n    tag_181:\n        /* \"#utility.yul\":16257:16260   */\n      0x00\n        /* \"#utility.yul\":16278:16345   */\n      tag_324\n        /* \"#utility.yul\":16342:16344   */\n      0x0f\n        /* \"#utility.yul\":16337:16340   */\n      dup4\n        /* \"#utility.yul\":16278:16345   */\n      tag_155\n      jump\t// in\n    tag_324:\n        /* \"#utility.yul\":16271:16345   */\n      swap2\n      pop\n        /* \"#utility.yul\":16354:16447   */\n      tag_325\n        /* \"#utility.yul\":16443:16446   */\n      dup3\n        /* \"#utility.yul\":16354:16447   */\n      tag_180\n      jump\t// in\n    tag_325:\n        /* \"#utility.yul\":16472:16474   */\n      0x20\n        /* \"#utility.yul\":16467:16470   */\n      dup3\n        /* \"#utility.yul\":16463:16475   */\n      add\n        /* \"#utility.yul\":16456:16475   */\n      swap1\n      pop\n        /* \"#utility.yul\":16115:16481   */\n      swap2\n      swap1\n      pop\n      jump\t// out\n        /* \"#utility.yul\":16487:16906   */\n    tag_132:\n        /* \"#utility.yul\":16653:16657   */\n      0x00\n        /* \"#utility.yul\":16691:16693   */\n      0x20\n        /* \"#utility.yul\":16680:16689   */\n      dup3\n        /* \"#utility.yul\":16676:16694   */\n      add\n        /* \"#utility.yul\":16668:16694   */\n      swap1\n      pop\n        /* \"#utility.yul\":16740:16749   */\n      dup2\n        /* \"#utility.yul\":16734:16738   */\n      dup2\n        /* \"#utility.yul\":16730:16750   */\n      sub\n        /* \"#utility.yul\":16726:16727   */\n      0x00\n        /* \"#utility.yul\":16715:16724   */\n      dup4\n        /* \"#utility.yul\":16711:16728   */\n      add\n        /* \"#utility.yul\":16704:16751   */\n      mstore\n        /* \"#utility.yul\":16768:16899   */\n      tag_327\n        /* \"#utility.yul\":16894:16898   */\n      dup2\n        /* \"#utility.yul\":16768:16899   */\n      tag_181\n      jump\t// in\n    tag_327:\n        /* \"#utility.yul\":16760:16899   */\n      swap1\n      pop\n        /* \"#utility.yul\":16487:16906   */\n      swap2\n      swap1\n      pop\n      jump\t// out\n        /* \"#utility.yul\":16912:17322   */\n    tag_134:\n        /* \"#utility.yul\":16952:16959   */\n      0x00\n        /* \"#utility.yul\":16975:16995   */\n      tag_329\n        /* \"#utility.yul\":16993:16994   */\n      dup3\n        /* \"#utility.yul\":16975:16995   */\n      tag_145\n      jump\t// in\n    tag_329:\n        /* \"#utility.yul\":16970:16995   */\n      swap2\n      pop\n        /* \"#utility.yul\":17009:17029   */\n      tag_330\n        /* \"#utility.yul\":17027:17028   */\n      dup4\n        /* \"#utility.yul\":17009:17029   */\n      tag_145\n      jump\t// in\n    tag_330:\n        /* \"#utility.yul\":17004:17029   */\n      swap3\n      pop\n        /* \"#utility.yul\":17064:17065   */\n      dup3\n        /* \"#utility.yul\":17061:17062   */\n      dup3\n        /* \"#utility.yul\":17057:17066   */\n      mul\n        /* \"#utility.yul\":17086:17116   */\n      tag_331\n        /* \"#utility.yul\":17104:17115   */\n      dup2\n        /* \"#utility.yul\":17086:17116   */\n      tag_145\n      jump\t// in\n    tag_331:\n        /* \"#utility.yul\":17075:17116   */\n      swap2\n      pop\n        /* \"#utility.yul\":17265:17266   */\n      dup3\n        /* \"#utility.yul\":17256:17263   */\n      dup3\n        /* \"#utility.yul\":17252:17267   */\n      div\n        /* \"#utility.yul\":17249:17250   */\n      dup5\n        /* \"#utility.yul\":17246:17268   */\n      eq\n        /* \"#utility.yul\":17226:17227   */\n      dup4\n        /* \"#utility.yul\":17219:17228   */\n      iszero\n        /* \"#utility.yul\":17199:17282   */\n      or\n        /* \"#utility.yul\":17176:17315   */\n      tag_332\n      jumpi\n        /* \"#utility.yul\":17295:17313   */\n      tag_333\n      tag_175\n      jump\t// in\n    tag_333:\n        /* \"#utility.yul\":17176:17315   */\n    tag_332:\n        /* \"#utility.yul\":16960:17322   */\n      pop\n        /* \"#utility.yul\":16912:17322   */\n      swap3\n      swap2\n      pop\n      pop\n      jump\t// out\n        /* \"#utility.yul\":17328:17508   */\n    tag_182:\n        /* \"#utility.yul\":17376:17453   */\n      0x4e487b7100000000000000000000000000000000000000000000000000000000\n        /* \"#utility.yul\":17373:17374   */\n      0x00\n        /* \"#utility.yul\":17366:17454   */\n      mstore\n        /* \"#utility.yul\":17473:17477   */\n      0x12\n        /* \"#utility.yul\":17470:17471   */\n      0x04\n        /* \"#utility.yul\":17463:17478   */\n      mstore\n        /* \"#utility.yul\":17497:17501   */\n      0x24\n        /* \"#utility.yul\":17494:17495   */\n      0x00\n        /* \"#utility.yul\":17487:17502   */\n      revert\n        /* \"#utility.yul\":17514:17699   */\n    tag_138:\n        /* \"#utility.yul\":17554:17555   */\n      0x00\n        /* \"#utility.yul\":17571:17591   */\n      tag_336\n        /* \"#utility.yul\":17589:17590   */\n      dup3\n        /* \"#utility.yul\":17571:17591   */\n      tag_145\n      jump\t// in\n    tag_336:\n        /* \"#utility.yul\":17566:17591   */\n      swap2\n      pop\n        /* \"#utility.yul\":17605:17625   */\n      tag_337\n        /* \"#utility.yul\":17623:17624   */\n      dup4\n        /* \"#utility.yul\":17605:17625   */\n      tag_145\n      jump\t// in\n    tag_337:\n        /* \"#utility.yul\":17600:17625   */\n      swap3\n      pop\n        /* \"#utility.yul\":17644:17645   */\n      dup3\n        /* \"#utility.yul\":17634:17669   */\n      tag_338\n      jumpi\n        /* \"#utility.yul\":17649:17667   */\n      tag_339\n      tag_182\n      jump\t// in\n    tag_339:\n        /* \"#utility.yul\":17634:17669   */\n    tag_338:\n        /* \"#utility.yul\":17691:17692   */\n      dup3\n        /* \"#utility.yul\":17688:17689   */\n      dup3\n        /* \"#utility.yul\":17684:17693   */\n      div\n        /* \"#utility.yul\":17679:17693   */\n      swap1\n      pop\n        /* \"#utility.yul\":17514:17699   */\n      swap3\n      swap2\n      pop\n      pop\n      jump\t// out\n\n    auxdata: 0xa264697066735822122042071649da9aec224e1d59edeca8bc52144c20c11f1af9eda60070a269b6aedb64736f6c634300081a0033\n}\n",
				"bytecode": {
					"linkReferences": {},
					"object": "608060405234801561000f575f80fd5b5060405161186638038061186683398181016040528101906100319190610200565b855f806101000a81548173ffffffffffffffffffffffffffffffffffffffff021916908373ffffffffffffffffffffffffffffffffffffffff1602179055508460015f6101000a81548173ffffffffffffffffffffffffffffffffffffffff021916908373ffffffffffffffffffffffffffffffffffffffff1602179055508360025f6101000a81548173ffffffffffffffffffffffffffffffffffffffff021916908373ffffffffffffffffffffffffffffffffffffffff160217905550826006819055508160078190555080600881905550606460085460075460065461011a91906102b6565b61012491906102b6565b14610164576040517f08c379a000000000000000000000000000000000000000000000000000000000815260040161015b90610369565b60405180910390fd5b505050505050610387565b5f80fd5b5f73ffffffffffffffffffffffffffffffffffffffff82169050919050565b5f61019c82610173565b9050919050565b6101ac81610192565b81146101b6575f80fd5b50565b5f815190506101c7816101a3565b92915050565b5f819050919050565b6101df816101cd565b81146101e9575f80fd5b50565b5f815190506101fa816101d6565b92915050565b5f805f805f8060c0878903121561021a5761021961016f565b5b5f61022789828a016101b9565b965050602061023889828a016101b9565b955050604061024989828a016101b9565b945050606061025a89828a016101ec565b935050608061026b89828a016101ec565b92505060a061027c89828a016101ec565b9150509295509295509295565b7f4e487b71000000000000000000000000000000000000000000000000000000005f52601160045260245ffd5b5f6102c0826101cd565b91506102cb836101cd565b92508282019050808211156102e3576102e2610289565b5b92915050565b5f82825260208201905092915050565b7f5468652073756d206f66207468652077656967687473206d75737420626520655f8201527f7175616c20746f20313030000000000000000000000000000000000000000000602082015250565b5f610353602b836102e9565b915061035e826102f9565b604082019050919050565b5f6020820190508181035f83015261038081610347565b9050919050565b6114d2806103945f395ff3fe608060405234801561000f575f80fd5b50600436106100a7575f3560e01c8063d21220a71161006f578063d21220a714610151578063d32650cf1461016f578063da2a788c1461018d578063dd531518146101ab578063eb15388e146101c9578063ef14101e146101e7576100a7565b806325be124e146100ab5780634758af8a146100c957806364901520146100e757806367088d5914610105578063baaa61be14610121575b5f80fd5b6100b3610205565b6040516100c09190610cc5565b60405180910390f35b6100d161022a565b6040516100de9190610cf6565b60405180910390f35b6100ef610230565b6040516100fc9190610cf6565b60405180910390f35b61011f600480360381019061011a9190610d78565b610236565b005b61013b60048036038101906101369190610e01565b61087a565b6040516101489190610cf6565b60405180910390f35b610159610beb565b6040516101669190610cc5565b60405180910390f35b610177610c0e565b6040516101849190610cf6565b60405180910390f35b610195610c14565b6040516101a29190610cf6565b60405180910390f35b6101b3610c1a565b6040516101c09190610cf6565b60405180910390f35b6101d1610c20565b6040516101de9190610cf6565b60405180910390f35b6101ef610c26565b6040516101fc9190610cc5565b60405180910390f35b60015f9054906101000a900473ffffffffffffffffffffffffffffffffffffffff1681565b60035481565b60085481565b5f8311801561024457505f82115b801561024f57505f81115b61028e576040517f08c379a000000000000000000000000000000000000000000000000000000000815260040161028590610e99565b60405180910390fd5b5f805f9054906101000a900473ffffffffffffffffffffffffffffffffffffffff1673ffffffffffffffffffffffffffffffffffffffff1663dd62ed3e88306040518363ffffffff1660e01b81526004016102ea929190610ec6565b602060405180830381865afa158015610305573d5f803e3d5ffd5b505050506040513d601f19601f820116820180604052508101906103299190610f01565b90505f60015f9054906101000a900473ffffffffffffffffffffffffffffffffffffffff1673ffffffffffffffffffffffffffffffffffffffff1663dd62ed3e88306040518363ffffffff1660e01b8152600401610388929190610ec6565b602060405180830381865afa1580156103a3573d5f803e3d5ffd5b505050506040513d601f19601f820116820180604052508101906103c79190610f01565b90505f60025f9054906101000a900473ffffffffffffffffffffffffffffffffffffffff1673ffffffffffffffffffffffffffffffffffffffff1663dd62ed3e88306040518363ffffffff1660e01b8152600401610426929190610ec6565b602060405180830381865afa158015610441573d5f803e3d5ffd5b505050506040513d601f19601f820116820180604052508101906104659190610f01565b9050858310156104aa576040517f08c379a00000000000000000000000000000000000000000000000000000000081526004016104a190610f76565b60405180910390fd5b848210156104ed576040517f08c379a00000000000000000000000000000000000000000000000000000000081526004016104e490610fde565b60405180910390fd5b83811015610530576040517f08c379a000000000000000000000000000000000000000000000000000000000815260040161052790611046565b60405180910390fd5b5f805f9054906101000a900473ffffffffffffffffffffffffffffffffffffffff1673ffffffffffffffffffffffffffffffffffffffff166323b872dd8b308a6040518463ffffffff1660e01b815260040161058e93929190611064565b6020604051808303815f875af11580156105aa573d5f803e3d5ffd5b505050506040513d601f19601f820116820180604052508101906105ce91906110ce565b90505f60015f9054906101000a900473ffffffffffffffffffffffffffffffffffffffff1673ffffffffffffffffffffffffffffffffffffffff166323b872dd8b308a6040518463ffffffff1660e01b815260040161062f93929190611064565b6020604051808303815f875af115801561064b573d5f803e3d5ffd5b505050506040513d601f19601f8201168201806040525081019061066f91906110ce565b90505f60025f9054906101000a900473ffffffffffffffffffffffffffffffffffffffff1673ffffffffffffffffffffffffffffffffffffffff166323b872dd8b308a6040518463ffffffff1660e01b81526004016106d093929190611064565b6020604051808303815f875af11580156106ec573d5f803e3d5ffd5b505050506040513d601f19601f8201168201806040525081019061071091906110ce565b905082610752576040517f08c379a000000000000000000000000000000000000000000000000000000000815260040161074990611143565b60405180910390fd5b81610792576040517f08c379a0000000000000000000000000000000000000000000000000000000008152600401610789906111ab565b60405180910390fd5b806107d2576040517f08c379a00000000000000000000000000000000000000000000000000000000081526004016107c990611213565b60405180910390fd5b8860035f8282546107e3919061125e565b925050819055508760045f8282546107fb919061125e565b925050819055508660055f828254610813919061125e565b925050819055503373ffffffffffffffffffffffffffffffffffffffff167f9bac9f8afe8f196816d56702bd0230aa1fa384a1f2c7d1926281e737f93ff55a8a8a8a60405161086493929190611291565b60405180910390a2505050505050505050505050565b5f8060035411801561088d57505f600454115b801561089a57505f600554115b6108d9576040517f08c379a00000000000000000000000000000000000000000000000000000000081526004016108d090611310565b60405180910390fd5b5f805f805f8054906101000a900473ffffffffffffffffffffffffffffffffffffffff1673ffffffffffffffffffffffffffffffffffffffff168773ffffffffffffffffffffffffffffffffffffffff160361093e5760065493506003549250610a41565b60015f9054906101000a900473ffffffffffffffffffffffffffffffffffffffff1673ffffffffffffffffffffffffffffffffffffffff168773ffffffffffffffffffffffffffffffffffffffff16036109a15760075493506004549250610a40565b60025f9054906101000a900473ffffffffffffffffffffffffffffffffffffffff1673ffffffffffffffffffffffffffffffffffffffff168773ffffffffffffffffffffffffffffffffffffffff1603610a045760085493506005549250610a3f565b6040517f08c379a0000000000000000000000000000000000000000000000000000000008152600401610a3690611378565b60405180910390fd5b5b5b5f8054906101000a900473ffffffffffffffffffffffffffffffffffffffff1673ffffffffffffffffffffffffffffffffffffffff168673ffffffffffffffffffffffffffffffffffffffff1603610aa25760065491506003549050610ba5565b60015f9054906101000a900473ffffffffffffffffffffffffffffffffffffffff1673ffffffffffffffffffffffffffffffffffffffff168673ffffffffffffffffffffffffffffffffffffffff1603610b055760075491506004549050610ba4565b60025f9054906101000a900473ffffffffffffffffffffffffffffffffffffffff1673ffffffffffffffffffffffffffffffffffffffff168673ffffffffffffffffffffffffffffffffffffffff1603610b685760085491506005549050610ba3565b6040517f08c379a0000000000000000000000000000000000000000000000000000000008152600401610b9a906113e0565b60405180910390fd5b5b5b5f8185610bb291906113fe565b670de0b6b3a76400008486610bc791906113fe565b610bd191906113fe565b610bdb919061146c565b9050809550505050505092915050565b5f8054906101000a900473ffffffffffffffffffffffffffffffffffffffff1681565b60075481565b60045481565b60065481565b60055481565b60025f9054906101000a900473ffffffffffffffffffffffffffffffffffffffff1681565b5f73ffffffffffffffffffffffffffffffffffffffff82169050919050565b5f819050919050565b5f610c8d610c88610c8384610c4b565b610c6a565b610c4b565b9050919050565b5f610c9e82610c73565b9050919050565b5f610caf82610c94565b9050919050565b610cbf81610ca5565b82525050565b5f602082019050610cd85f830184610cb6565b92915050565b5f819050919050565b610cf081610cde565b82525050565b5f602082019050610d095f830184610ce7565b92915050565b5f80fd5b5f610d1d82610c4b565b9050919050565b610d2d81610d13565b8114610d37575f80fd5b50565b5f81359050610d4881610d24565b92915050565b610d5781610cde565b8114610d61575f80fd5b50565b5f81359050610d7281610d4e565b92915050565b5f805f805f8060c08789031215610d9257610d91610d0f565b5b5f610d9f89828a01610d3a565b9650506020610db089828a01610d3a565b9550506040610dc189828a01610d3a565b9450506060610dd289828a01610d64565b9350506080610de389828a01610d64565b92505060a0610df489828a01610d64565b9150509295509295509295565b5f8060408385031215610e1757610e16610d0f565b5b5f610e2485828601610d3a565b9250506020610e3585828601610d3a565b9150509250929050565b5f82825260208201905092915050565b7f416d6f756e7473206d7573742062652067726561746572207468616e203000005f82015250565b5f610e83601e83610e3f565b9150610e8e82610e4f565b602082019050919050565b5f6020820190508181035f830152610eb081610e77565b9050919050565b610ec081610d13565b82525050565b5f604082019050610ed95f830185610eb7565b610ee66020830184610eb7565b9392505050565b5f81519050610efb81610d4e565b92915050565b5f60208284031215610f1657610f15610d0f565b5b5f610f2384828501610eed565b91505092915050565b7f546f6b656e203120616c6c6f77616e6365206973206e6f7420656e6f756768005f82015250565b5f610f60601f83610e3f565b9150610f6b82610f2c565b602082019050919050565b5f6020820190508181035f830152610f8d81610f54565b9050919050565b7f546f6b656e203220616c6c6f77616e6365206973206e6f7420656e6f756768005f82015250565b5f610fc8601f83610e3f565b9150610fd382610f94565b602082019050919050565b5f6020820190508181035f830152610ff581610fbc565b9050919050565b7f546f6b656e203320616c6c6f77616e6365206973206e6f7420656e6f756768005f82015250565b5f611030601f83610e3f565b915061103b82610ffc565b602082019050919050565b5f6020820190508181035f83015261105d81611024565b9050919050565b5f6060820190506110775f830186610eb7565b6110846020830185610eb7565b6110916040830184610ce7565b949350505050565b5f8115159050919050565b6110ad81611099565b81146110b7575f80fd5b50565b5f815190506110c8816110a4565b92915050565b5f602082840312156110e3576110e2610d0f565b5b5f6110f0848285016110ba565b91505092915050565b7f546f6b656e2031207472616e73666572206661696c65640000000000000000005f82015250565b5f61112d601783610e3f565b9150611138826110f9565b602082019050919050565b5f6020820190508181035f83015261115a81611121565b9050919050565b7f546f6b656e2032207472616e73666572206661696c65640000000000000000005f82015250565b5f611195601783610e3f565b91506111a082611161565b602082019050919050565b5f6020820190508181035f8301526111c281611189565b9050919050565b7f546f6b656e2033207472616e73666572206661696c65640000000000000000005f82015250565b5f6111fd601783610e3f565b9150611208826111c9565b602082019050919050565b5f6020820190508181035f83015261122a816111f1565b9050919050565b7f4e487b71000000000000000000000000000000000000000000000000000000005f52601160045260245ffd5b5f61126882610cde565b915061127383610cde565b925082820190508082111561128b5761128a611231565b5b92915050565b5f6060820190506112a45f830186610ce7565b6112b16020830185610ce7565b6112be6040830184610ce7565b949350505050565b7f506f6f6c206d7573742068617665206c697175696469747900000000000000005f82015250565b5f6112fa601883610e3f565b9150611305826112c6565b602082019050919050565b5f6020820190508181035f830152611327816112ee565b9050919050565b7f496e76616c69642066726f6d546f6b656e0000000000000000000000000000005f82015250565b5f611362601183610e3f565b915061136d8261132e565b602082019050919050565b5f6020820190508181035f83015261138f81611356565b9050919050565b7f496e76616c696420746f546f6b656e00000000000000000000000000000000005f82015250565b5f6113ca600f83610e3f565b91506113d582611396565b602082019050919050565b5f6020820190508181035f8301526113f7816113be565b9050919050565b5f61140882610cde565b915061141383610cde565b925082820261142181610cde565b9150828204841483151761143857611437611231565b5b5092915050565b7f4e487b71000000000000000000000000000000000000000000000000000000005f52601260045260245ffd5b5f61147682610cde565b915061148183610cde565b9250826114915761149061143f565b5b82820490509291505056fea264697066735822122042071649da9aec224e1d59edeca8bc52144c20c11f1af9eda60070a269b6aedb64736f6c634300081a0033",
					"opcodes": "PUSH1 0x80 PUSH1 0x40 MSTORE CALLVALUE DUP1 ISZERO PUSH2 0xF JUMPI PUSH0 DUP1 REVERT JUMPDEST POP PUSH1 0x40 MLOAD PUSH2 0x1866 CODESIZE SUB DUP1 PUSH2 0x1866 DUP4 CODECOPY DUP2 DUP2 ADD PUSH1 0x40 MSTORE DUP2 ADD SWAP1 PUSH2 0x31 SWAP2 SWAP1 PUSH2 0x200 JUMP JUMPDEST DUP6 PUSH0 DUP1 PUSH2 0x100 EXP DUP2 SLOAD DUP2 PUSH20 0xFFFFFFFFFFFFFFFFFFFFFFFFFFFFFFFFFFFFFFFF MUL NOT AND SWAP1 DUP4 PUSH20 0xFFFFFFFFFFFFFFFFFFFFFFFFFFFFFFFFFFFFFFFF AND MUL OR SWAP1 SSTORE POP DUP5 PUSH1 0x1 PUSH0 PUSH2 0x100 EXP DUP2 SLOAD DUP2 PUSH20 0xFFFFFFFFFFFFFFFFFFFFFFFFFFFFFFFFFFFFFFFF MUL NOT AND SWAP1 DUP4 PUSH20 0xFFFFFFFFFFFFFFFFFFFFFFFFFFFFFFFFFFFFFFFF AND MUL OR SWAP1 SSTORE POP DUP4 PUSH1 0x2 PUSH0 PUSH2 0x100 EXP DUP2 SLOAD DUP2 PUSH20 0xFFFFFFFFFFFFFFFFFFFFFFFFFFFFFFFFFFFFFFFF MUL NOT AND SWAP1 DUP4 PUSH20 0xFFFFFFFFFFFFFFFFFFFFFFFFFFFFFFFFFFFFFFFF AND MUL OR SWAP1 SSTORE POP DUP3 PUSH1 0x6 DUP2 SWAP1 SSTORE POP DUP2 PUSH1 0x7 DUP2 SWAP1 SSTORE POP DUP1 PUSH1 0x8 DUP2 SWAP1 SSTORE POP PUSH1 0x64 PUSH1 0x8 SLOAD PUSH1 0x7 SLOAD PUSH1 0x6 SLOAD PUSH2 0x11A SWAP2 SWAP1 PUSH2 0x2B6 JUMP JUMPDEST PUSH2 0x124 SWAP2 SWAP1 PUSH2 0x2B6 JUMP JUMPDEST EQ PUSH2 0x164 JUMPI PUSH1 0x40 MLOAD PUSH32 0x8C379A000000000000000000000000000000000000000000000000000000000 DUP2 MSTORE PUSH1 0x4 ADD PUSH2 0x15B SWAP1 PUSH2 0x369 JUMP JUMPDEST PUSH1 0x40 MLOAD DUP1 SWAP2 SUB SWAP1 REVERT JUMPDEST POP POP POP POP POP POP PUSH2 0x387 JUMP JUMPDEST PUSH0 DUP1 REVERT JUMPDEST PUSH0 PUSH20 0xFFFFFFFFFFFFFFFFFFFFFFFFFFFFFFFFFFFFFFFF DUP3 AND SWAP1 POP SWAP2 SWAP1 POP JUMP JUMPDEST PUSH0 PUSH2 0x19C DUP3 PUSH2 0x173 JUMP JUMPDEST SWAP1 POP SWAP2 SWAP1 POP JUMP JUMPDEST PUSH2 0x1AC DUP2 PUSH2 0x192 JUMP JUMPDEST DUP2 EQ PUSH2 0x1B6 JUMPI PUSH0 DUP1 REVERT JUMPDEST POP JUMP JUMPDEST PUSH0 DUP2 MLOAD SWAP1 POP PUSH2 0x1C7 DUP2 PUSH2 0x1A3 JUMP JUMPDEST SWAP3 SWAP2 POP POP JUMP JUMPDEST PUSH0 DUP2 SWAP1 POP SWAP2 SWAP1 POP JUMP JUMPDEST PUSH2 0x1DF DUP2 PUSH2 0x1CD JUMP JUMPDEST DUP2 EQ PUSH2 0x1E9 JUMPI PUSH0 DUP1 REVERT JUMPDEST POP JUMP JUMPDEST PUSH0 DUP2 MLOAD SWAP1 POP PUSH2 0x1FA DUP2 PUSH2 0x1D6 JUMP JUMPDEST SWAP3 SWAP2 POP POP JUMP JUMPDEST PUSH0 DUP1 PUSH0 DUP1 PUSH0 DUP1 PUSH1 0xC0 DUP8 DUP10 SUB SLT ISZERO PUSH2 0x21A JUMPI PUSH2 0x219 PUSH2 0x16F JUMP JUMPDEST JUMPDEST PUSH0 PUSH2 0x227 DUP10 DUP3 DUP11 ADD PUSH2 0x1B9 JUMP JUMPDEST SWAP7 POP POP PUSH1 0x20 PUSH2 0x238 DUP10 DUP3 DUP11 ADD PUSH2 0x1B9 JUMP JUMPDEST SWAP6 POP POP PUSH1 0x40 PUSH2 0x249 DUP10 DUP3 DUP11 ADD PUSH2 0x1B9 JUMP JUMPDEST SWAP5 POP POP PUSH1 0x60 PUSH2 0x25A DUP10 DUP3 DUP11 ADD PUSH2 0x1EC JUMP JUMPDEST SWAP4 POP POP PUSH1 0x80 PUSH2 0x26B DUP10 DUP3 DUP11 ADD PUSH2 0x1EC JUMP JUMPDEST SWAP3 POP POP PUSH1 0xA0 PUSH2 0x27C DUP10 DUP3 DUP11 ADD PUSH2 0x1EC JUMP JUMPDEST SWAP2 POP POP SWAP3 SWAP6 POP SWAP3 SWAP6 POP SWAP3 SWAP6 JUMP JUMPDEST PUSH32 0x4E487B7100000000000000000000000000000000000000000000000000000000 PUSH0 MSTORE PUSH1 0x11 PUSH1 0x4 MSTORE PUSH1 0x24 PUSH0 REVERT JUMPDEST PUSH0 PUSH2 0x2C0 DUP3 PUSH2 0x1CD JUMP JUMPDEST SWAP2 POP PUSH2 0x2CB DUP4 PUSH2 0x1CD JUMP JUMPDEST SWAP3 POP DUP3 DUP3 ADD SWAP1 POP DUP1 DUP3 GT ISZERO PUSH2 0x2E3 JUMPI PUSH2 0x2E2 PUSH2 0x289 JUMP JUMPDEST JUMPDEST SWAP3 SWAP2 POP POP JUMP JUMPDEST PUSH0 DUP3 DUP3 MSTORE PUSH1 0x20 DUP3 ADD SWAP1 POP SWAP3 SWAP2 POP POP JUMP JUMPDEST PUSH32 0x5468652073756D206F66207468652077656967687473206D7573742062652065 PUSH0 DUP3 ADD MSTORE PUSH32 0x7175616C20746F20313030000000000000000000000000000000000000000000 PUSH1 0x20 DUP3 ADD MSTORE POP JUMP JUMPDEST PUSH0 PUSH2 0x353 PUSH1 0x2B DUP4 PUSH2 0x2E9 JUMP JUMPDEST SWAP2 POP PUSH2 0x35E DUP3 PUSH2 0x2F9 JUMP JUMPDEST PUSH1 0x40 DUP3 ADD SWAP1 POP SWAP2 SWAP1 POP JUMP JUMPDEST PUSH0 PUSH1 0x20 DUP3 ADD SWAP1 POP DUP2 DUP2 SUB PUSH0 DUP4 ADD MSTORE PUSH2 0x380 DUP2 PUSH2 0x347 JUMP JUMPDEST SWAP1 POP SWAP2 SWAP1 POP JUMP JUMPDEST PUSH2 0x14D2 DUP1 PUSH2 0x394 PUSH0 CODECOPY PUSH0 RETURN INVALID PUSH1 0x80 PUSH1 0x40 MSTORE CALLVALUE DUP1 ISZERO PUSH2 0xF JUMPI PUSH0 DUP1 REVERT JUMPDEST POP PUSH1 0x4 CALLDATASIZE LT PUSH2 0xA7 JUMPI PUSH0 CALLDATALOAD PUSH1 0xE0 SHR DUP1 PUSH4 0xD21220A7 GT PUSH2 0x6F JUMPI DUP1 PUSH4 0xD21220A7 EQ PUSH2 0x151 JUMPI DUP1 PUSH4 0xD32650CF EQ PUSH2 0x16F JUMPI DUP1 PUSH4 0xDA2A788C EQ PUSH2 0x18D JUMPI DUP1 PUSH4 0xDD531518 EQ PUSH2 0x1AB JUMPI DUP1 PUSH4 0xEB15388E EQ PUSH2 0x1C9 JUMPI DUP1 PUSH4 0xEF14101E EQ PUSH2 0x1E7 JUMPI PUSH2 0xA7 JUMP JUMPDEST DUP1 PUSH4 0x25BE124E EQ PUSH2 0xAB JUMPI DUP1 PUSH4 0x4758AF8A EQ PUSH2 0xC9 JUMPI DUP1 PUSH4 0x64901520 EQ PUSH2 0xE7 JUMPI DUP1 PUSH4 0x67088D59 EQ PUSH2 0x105 JUMPI DUP1 PUSH4 0xBAAA61BE EQ PUSH2 0x121 JUMPI JUMPDEST PUSH0 DUP1 REVERT JUMPDEST PUSH2 0xB3 PUSH2 0x205 JUMP JUMPDEST PUSH1 0x40 MLOAD PUSH2 0xC0 SWAP2 SWAP1 PUSH2 0xCC5 JUMP JUMPDEST PUSH1 0x40 MLOAD DUP1 SWAP2 SUB SWAP1 RETURN JUMPDEST PUSH2 0xD1 PUSH2 0x22A JUMP JUMPDEST PUSH1 0x40 MLOAD PUSH2 0xDE SWAP2 SWAP1 PUSH2 0xCF6 JUMP JUMPDEST PUSH1 0x40 MLOAD DUP1 SWAP2 SUB SWAP1 RETURN JUMPDEST PUSH2 0xEF PUSH2 0x230 JUMP JUMPDEST PUSH1 0x40 MLOAD PUSH2 0xFC SWAP2 SWAP1 PUSH2 0xCF6 JUMP JUMPDEST PUSH1 0x40 MLOAD DUP1 SWAP2 SUB SWAP1 RETURN JUMPDEST PUSH2 0x11F PUSH1 0x4 DUP1 CALLDATASIZE SUB DUP2 ADD SWAP1 PUSH2 0x11A SWAP2 SWAP1 PUSH2 0xD78 JUMP JUMPDEST PUSH2 0x236 JUMP JUMPDEST STOP JUMPDEST PUSH2 0x13B PUSH1 0x4 DUP1 CALLDATASIZE SUB DUP2 ADD SWAP1 PUSH2 0x136 SWAP2 SWAP1 PUSH2 0xE01 JUMP JUMPDEST PUSH2 0x87A JUMP JUMPDEST PUSH1 0x40 MLOAD PUSH2 0x148 SWAP2 SWAP1 PUSH2 0xCF6 JUMP JUMPDEST PUSH1 0x40 MLOAD DUP1 SWAP2 SUB SWAP1 RETURN JUMPDEST PUSH2 0x159 PUSH2 0xBEB JUMP JUMPDEST PUSH1 0x40 MLOAD PUSH2 0x166 SWAP2 SWAP1 PUSH2 0xCC5 JUMP JUMPDEST PUSH1 0x40 MLOAD DUP1 SWAP2 SUB SWAP1 RETURN JUMPDEST PUSH2 0x177 PUSH2 0xC0E JUMP JUMPDEST PUSH1 0x40 MLOAD PUSH2 0x184 SWAP2 SWAP1 PUSH2 0xCF6 JUMP JUMPDEST PUSH1 0x40 MLOAD DUP1 SWAP2 SUB SWAP1 RETURN JUMPDEST PUSH2 0x195 PUSH2 0xC14 JUMP JUMPDEST PUSH1 0x40 MLOAD PUSH2 0x1A2 SWAP2 SWAP1 PUSH2 0xCF6 JUMP JUMPDEST PUSH1 0x40 MLOAD DUP1 SWAP2 SUB SWAP1 RETURN JUMPDEST PUSH2 0x1B3 PUSH2 0xC1A JUMP JUMPDEST PUSH1 0x40 MLOAD PUSH2 0x1C0 SWAP2 SWAP1 PUSH2 0xCF6 JUMP JUMPDEST PUSH1 0x40 MLOAD DUP1 SWAP2 SUB SWAP1 RETURN JUMPDEST PUSH2 0x1D1 PUSH2 0xC20 JUMP JUMPDEST PUSH1 0x40 MLOAD PUSH2 0x1DE SWAP2 SWAP1 PUSH2 0xCF6 JUMP JUMPDEST PUSH1 0x40 MLOAD DUP1 SWAP2 SUB SWAP1 RETURN JUMPDEST PUSH2 0x1EF PUSH2 0xC26 JUMP JUMPDEST PUSH1 0x40 MLOAD PUSH2 0x1FC SWAP2 SWAP1 PUSH2 0xCC5 JUMP JUMPDEST PUSH1 0x40 MLOAD DUP1 SWAP2 SUB SWAP1 RETURN JUMPDEST PUSH1 0x1 PUSH0 SWAP1 SLOAD SWAP1 PUSH2 0x100 EXP SWAP1 DIV PUSH20 0xFFFFFFFFFFFFFFFFFFFFFFFFFFFFFFFFFFFFFFFF AND DUP2 JUMP JUMPDEST PUSH1 0x3 SLOAD DUP2 JUMP JUMPDEST PUSH1 0x8 SLOAD DUP2 JUMP JUMPDEST PUSH0 DUP4 GT DUP1 ISZERO PUSH2 0x244 JUMPI POP PUSH0 DUP3 GT JUMPDEST DUP1 ISZERO PUSH2 0x24F JUMPI POP PUSH0 DUP2 GT JUMPDEST PUSH2 0x28E JUMPI PUSH1 0x40 MLOAD PUSH32 0x8C379A000000000000000000000000000000000000000000000000000000000 DUP2 MSTORE PUSH1 0x4 ADD PUSH2 0x285 SWAP1 PUSH2 0xE99 JUMP JUMPDEST PUSH1 0x40 MLOAD DUP1 SWAP2 SUB SWAP1 REVERT JUMPDEST PUSH0 DUP1 PUSH0 SWAP1 SLOAD SWAP1 PUSH2 0x100 EXP SWAP1 DIV PUSH20 0xFFFFFFFFFFFFFFFFFFFFFFFFFFFFFFFFFFFFFFFF AND PUSH20 0xFFFFFFFFFFFFFFFFFFFFFFFFFFFFFFFFFFFFFFFF AND PUSH4 0xDD62ED3E DUP9 ADDRESS PUSH1 0x40 MLOAD DUP4 PUSH4 0xFFFFFFFF AND PUSH1 0xE0 SHL DUP2 MSTORE PUSH1 0x4 ADD PUSH2 0x2EA SWAP3 SWAP2 SWAP1 PUSH2 0xEC6 JUMP JUMPDEST PUSH1 0x20 PUSH1 0x40 MLOAD DUP1 DUP4 SUB DUP2 DUP7 GAS STATICCALL ISZERO DUP1 ISZERO PUSH2 0x305 JUMPI RETURNDATASIZE PUSH0 DUP1 RETURNDATACOPY RETURNDATASIZE PUSH0 REVERT JUMPDEST POP POP POP POP PUSH1 0x40 MLOAD RETURNDATASIZE PUSH1 0x1F NOT PUSH1 0x1F DUP3 ADD AND DUP3 ADD DUP1 PUSH1 0x40 MSTORE POP DUP2 ADD SWAP1 PUSH2 0x329 SWAP2 SWAP1 PUSH2 0xF01 JUMP JUMPDEST SWAP1 POP PUSH0 PUSH1 0x1 PUSH0 SWAP1 SLOAD SWAP1 PUSH2 0x100 EXP SWAP1 DIV PUSH20 0xFFFFFFFFFFFFFFFFFFFFFFFFFFFFFFFFFFFFFFFF AND PUSH20 0xFFFFFFFFFFFFFFFFFFFFFFFFFFFFFFFFFFFFFFFF AND PUSH4 0xDD62ED3E DUP9 ADDRESS PUSH1 0x40 MLOAD DUP4 PUSH4 0xFFFFFFFF AND PUSH1 0xE0 SHL DUP2 MSTORE PUSH1 0x4 ADD PUSH2 0x388 SWAP3 SWAP2 SWAP1 PUSH2 0xEC6 JUMP JUMPDEST PUSH1 0x20 PUSH1 0x40 MLOAD DUP1 DUP4 SUB DUP2 DUP7 GAS STATICCALL ISZERO DUP1 ISZERO PUSH2 0x3A3 JUMPI RETURNDATASIZE PUSH0 DUP1 RETURNDATACOPY RETURNDATASIZE PUSH0 REVERT JUMPDEST POP POP POP POP PUSH1 0x40 MLOAD RETURNDATASIZE PUSH1 0x1F NOT PUSH1 0x1F DUP3 ADD AND DUP3 ADD DUP1 PUSH1 0x40 MSTORE POP DUP2 ADD SWAP1 PUSH2 0x3C7 SWAP2 SWAP1 PUSH2 0xF01 JUMP JUMPDEST SWAP1 POP PUSH0 PUSH1 0x2 PUSH0 SWAP1 SLOAD SWAP1 PUSH2 0x100 EXP SWAP1 DIV PUSH20 0xFFFFFFFFFFFFFFFFFFFFFFFFFFFFFFFFFFFFFFFF AND PUSH20 0xFFFFFFFFFFFFFFFFFFFFFFFFFFFFFFFFFFFFFFFF AND PUSH4 0xDD62ED3E DUP9 ADDRESS PUSH1 0x40 MLOAD DUP4 PUSH4 0xFFFFFFFF AND PUSH1 0xE0 SHL DUP2 MSTORE PUSH1 0x4 ADD PUSH2 0x426 SWAP3 SWAP2 SWAP1 PUSH2 0xEC6 JUMP JUMPDEST PUSH1 0x20 PUSH1 0x40 MLOAD DUP1 DUP4 SUB DUP2 DUP7 GAS STATICCALL ISZERO DUP1 ISZERO PUSH2 0x441 JUMPI RETURNDATASIZE PUSH0 DUP1 RETURNDATACOPY RETURNDATASIZE PUSH0 REVERT JUMPDEST POP POP POP POP PUSH1 0x40 MLOAD RETURNDATASIZE PUSH1 0x1F NOT PUSH1 0x1F DUP3 ADD AND DUP3 ADD DUP1 PUSH1 0x40 MSTORE POP DUP2 ADD SWAP1 PUSH2 0x465 SWAP2 SWAP1 PUSH2 0xF01 JUMP JUMPDEST SWAP1 POP DUP6 DUP4 LT ISZERO PUSH2 0x4AA JUMPI PUSH1 0x40 MLOAD PUSH32 0x8C379A000000000000000000000000000000000000000000000000000000000 DUP2 MSTORE PUSH1 0x4 ADD PUSH2 0x4A1 SWAP1 PUSH2 0xF76 JUMP JUMPDEST PUSH1 0x40 MLOAD DUP1 SWAP2 SUB SWAP1 REVERT JUMPDEST DUP5 DUP3 LT ISZERO PUSH2 0x4ED JUMPI PUSH1 0x40 MLOAD PUSH32 0x8C379A000000000000000000000000000000000000000000000000000000000 DUP2 MSTORE PUSH1 0x4 ADD PUSH2 0x4E4 SWAP1 PUSH2 0xFDE JUMP JUMPDEST PUSH1 0x40 MLOAD DUP1 SWAP2 SUB SWAP1 REVERT JUMPDEST DUP4 DUP2 LT ISZERO PUSH2 0x530 JUMPI PUSH1 0x40 MLOAD PUSH32 0x8C379A000000000000000000000000000000000000000000000000000000000 DUP2 MSTORE PUSH1 0x4 ADD PUSH2 0x527 SWAP1 PUSH2 0x1046 JUMP JUMPDEST PUSH1 0x40 MLOAD DUP1 SWAP2 SUB SWAP1 REVERT JUMPDEST PUSH0 DUP1 PUSH0 SWAP1 SLOAD SWAP1 PUSH2 0x100 EXP SWAP1 DIV PUSH20 0xFFFFFFFFFFFFFFFFFFFFFFFFFFFFFFFFFFFFFFFF AND PUSH20 0xFFFFFFFFFFFFFFFFFFFFFFFFFFFFFFFFFFFFFFFF AND PUSH4 0x23B872DD DUP12 ADDRESS DUP11 PUSH1 0x40 MLOAD DUP5 PUSH4 0xFFFFFFFF AND PUSH1 0xE0 SHL DUP2 MSTORE PUSH1 0x4 ADD PUSH2 0x58E SWAP4 SWAP3 SWAP2 SWAP1 PUSH2 0x1064 JUMP JUMPDEST PUSH1 0x20 PUSH1 0x40 MLOAD DUP1 DUP4 SUB DUP2 PUSH0 DUP8 GAS CALL ISZERO DUP1 ISZERO PUSH2 0x5AA JUMPI RETURNDATASIZE PUSH0 DUP1 RETURNDATACOPY RETURNDATASIZE PUSH0 REVERT JUMPDEST POP POP POP POP PUSH1 0x40 MLOAD RETURNDATASIZE PUSH1 0x1F NOT PUSH1 0x1F DUP3 ADD AND DUP3 ADD DUP1 PUSH1 0x40 MSTORE POP DUP2 ADD SWAP1 PUSH2 0x5CE SWAP2 SWAP1 PUSH2 0x10CE JUMP JUMPDEST SWAP1 POP PUSH0 PUSH1 0x1 PUSH0 SWAP1 SLOAD SWAP1 PUSH2 0x100 EXP SWAP1 DIV PUSH20 0xFFFFFFFFFFFFFFFFFFFFFFFFFFFFFFFFFFFFFFFF AND PUSH20 0xFFFFFFFFFFFFFFFFFFFFFFFFFFFFFFFFFFFFFFFF AND PUSH4 0x23B872DD DUP12 ADDRESS DUP11 PUSH1 0x40 MLOAD DUP5 PUSH4 0xFFFFFFFF AND PUSH1 0xE0 SHL DUP2 MSTORE PUSH1 0x4 ADD PUSH2 0x62F SWAP4 SWAP3 SWAP2 SWAP1 PUSH2 0x1064 JUMP JUMPDEST PUSH1 0x20 PUSH1 0x40 MLOAD DUP1 DUP4 SUB DUP2 PUSH0 DUP8 GAS CALL ISZERO DUP1 ISZERO PUSH2 0x64B JUMPI RETURNDATASIZE PUSH0 DUP1 RETURNDATACOPY RETURNDATASIZE PUSH0 REVERT JUMPDEST POP POP POP POP PUSH1 0x40 MLOAD RETURNDATASIZE PUSH1 0x1F NOT PUSH1 0x1F DUP3 ADD AND DUP3 ADD DUP1 PUSH1 0x40 MSTORE POP DUP2 ADD SWAP1 PUSH2 0x66F SWAP2 SWAP1 PUSH2 0x10CE JUMP JUMPDEST SWAP1 POP PUSH0 PUSH1 0x2 PUSH0 SWAP1 SLOAD SWAP1 PUSH2 0x100 EXP SWAP1 DIV PUSH20 0xFFFFFFFFFFFFFFFFFFFFFFFFFFFFFFFFFFFFFFFF AND PUSH20 0xFFFFFFFFFFFFFFFFFFFFFFFFFFFFFFFFFFFFFFFF AND PUSH4 0x23B872DD DUP12 ADDRESS DUP11 PUSH1 0x40 MLOAD DUP5 PUSH4 0xFFFFFFFF AND PUSH1 0xE0 SHL DUP2 MSTORE PUSH1 0x4 ADD PUSH2 0x6D0 SWAP4 SWAP3 SWAP2 SWAP1 PUSH2 0x1064 JUMP JUMPDEST PUSH1 0x20 PUSH1 0x40 MLOAD DUP1 DUP4 SUB DUP2 PUSH0 DUP8 GAS CALL ISZERO DUP1 ISZERO PUSH2 0x6EC JUMPI RETURNDATASIZE PUSH0 DUP1 RETURNDATACOPY RETURNDATASIZE PUSH0 REVERT JUMPDEST POP POP POP POP PUSH1 0x40 MLOAD RETURNDATASIZE PUSH1 0x1F NOT PUSH1 0x1F DUP3 ADD AND DUP3 ADD DUP1 PUSH1 0x40 MSTORE POP DUP2 ADD SWAP1 PUSH2 0x710 SWAP2 SWAP1 PUSH2 0x10CE JUMP JUMPDEST SWAP1 POP DUP3 PUSH2 0x752 JUMPI PUSH1 0x40 MLOAD PUSH32 0x8C379A000000000000000000000000000000000000000000000000000000000 DUP2 MSTORE PUSH1 0x4 ADD PUSH2 0x749 SWAP1 PUSH2 0x1143 JUMP JUMPDEST PUSH1 0x40 MLOAD DUP1 SWAP2 SUB SWAP1 REVERT JUMPDEST DUP2 PUSH2 0x792 JUMPI PUSH1 0x40 MLOAD PUSH32 0x8C379A000000000000000000000000000000000000000000000000000000000 DUP2 MSTORE PUSH1 0x4 ADD PUSH2 0x789 SWAP1 PUSH2 0x11AB JUMP JUMPDEST PUSH1 0x40 MLOAD DUP1 SWAP2 SUB SWAP1 REVERT JUMPDEST DUP1 PUSH2 0x7D2 JUMPI PUSH1 0x40 MLOAD PUSH32 0x8C379A000000000000000000000000000000000000000000000000000000000 DUP2 MSTORE PUSH1 0x4 ADD PUSH2 0x7C9 SWAP1 PUSH2 0x1213 JUMP JUMPDEST PUSH1 0x40 MLOAD DUP1 SWAP2 SUB SWAP1 REVERT JUMPDEST DUP9 PUSH1 0x3 PUSH0 DUP3 DUP3 SLOAD PUSH2 0x7E3 SWAP2 SWAP1 PUSH2 0x125E JUMP JUMPDEST SWAP3 POP POP DUP2 SWAP1 SSTORE POP DUP8 PUSH1 0x4 PUSH0 DUP3 DUP3 SLOAD PUSH2 0x7FB SWAP2 SWAP1 PUSH2 0x125E JUMP JUMPDEST SWAP3 POP POP DUP2 SWAP1 SSTORE POP DUP7 PUSH1 0x5 PUSH0 DUP3 DUP3 SLOAD PUSH2 0x813 SWAP2 SWAP1 PUSH2 0x125E JUMP JUMPDEST SWAP3 POP POP DUP2 SWAP1 SSTORE POP CALLER PUSH20 0xFFFFFFFFFFFFFFFFFFFFFFFFFFFFFFFFFFFFFFFF AND PUSH32 0x9BAC9F8AFE8F196816D56702BD0230AA1FA384A1F2C7D1926281E737F93FF55A DUP11 DUP11 DUP11 PUSH1 0x40 MLOAD PUSH2 0x864 SWAP4 SWAP3 SWAP2 SWAP1 PUSH2 0x1291 JUMP JUMPDEST PUSH1 0x40 MLOAD DUP1 SWAP2 SUB SWAP1 LOG2 POP POP POP POP POP POP POP POP POP POP POP POP JUMP JUMPDEST PUSH0 DUP1 PUSH1 0x3 SLOAD GT DUP1 ISZERO PUSH2 0x88D JUMPI POP PUSH0 PUSH1 0x4 SLOAD GT JUMPDEST DUP1 ISZERO PUSH2 0x89A JUMPI POP PUSH0 PUSH1 0x5 SLOAD GT JUMPDEST PUSH2 0x8D9 JUMPI PUSH1 0x40 MLOAD PUSH32 0x8C379A000000000000000000000000000000000000000000000000000000000 DUP2 MSTORE PUSH1 0x4 ADD PUSH2 0x8D0 SWAP1 PUSH2 0x1310 JUMP JUMPDEST PUSH1 0x40 MLOAD DUP1 SWAP2 SUB SWAP1 REVERT JUMPDEST PUSH0 DUP1 PUSH0 DUP1 PUSH0 DUP1 SLOAD SWAP1 PUSH2 0x100 EXP SWAP1 DIV PUSH20 0xFFFFFFFFFFFFFFFFFFFFFFFFFFFFFFFFFFFFFFFF AND PUSH20 0xFFFFFFFFFFFFFFFFFFFFFFFFFFFFFFFFFFFFFFFF AND DUP8 PUSH20 0xFFFFFFFFFFFFFFFFFFFFFFFFFFFFFFFFFFFFFFFF AND SUB PUSH2 0x93E JUMPI PUSH1 0x6 SLOAD SWAP4 POP PUSH1 0x3 SLOAD SWAP3 POP PUSH2 0xA41 JUMP JUMPDEST PUSH1 0x1 PUSH0 SWAP1 SLOAD SWAP1 PUSH2 0x100 EXP SWAP1 DIV PUSH20 0xFFFFFFFFFFFFFFFFFFFFFFFFFFFFFFFFFFFFFFFF AND PUSH20 0xFFFFFFFFFFFFFFFFFFFFFFFFFFFFFFFFFFFFFFFF AND DUP8 PUSH20 0xFFFFFFFFFFFFFFFFFFFFFFFFFFFFFFFFFFFFFFFF AND SUB PUSH2 0x9A1 JUMPI PUSH1 0x7 SLOAD SWAP4 POP PUSH1 0x4 SLOAD SWAP3 POP PUSH2 0xA40 JUMP JUMPDEST PUSH1 0x2 PUSH0 SWAP1 SLOAD SWAP1 PUSH2 0x100 EXP SWAP1 DIV PUSH20 0xFFFFFFFFFFFFFFFFFFFFFFFFFFFFFFFFFFFFFFFF AND PUSH20 0xFFFFFFFFFFFFFFFFFFFFFFFFFFFFFFFFFFFFFFFF AND DUP8 PUSH20 0xFFFFFFFFFFFFFFFFFFFFFFFFFFFFFFFFFFFFFFFF AND SUB PUSH2 0xA04 JUMPI PUSH1 0x8 SLOAD SWAP4 POP PUSH1 0x5 SLOAD SWAP3 POP PUSH2 0xA3F JUMP JUMPDEST PUSH1 0x40 MLOAD PUSH32 0x8C379A000000000000000000000000000000000000000000000000000000000 DUP2 MSTORE PUSH1 0x4 ADD PUSH2 0xA36 SWAP1 PUSH2 0x1378 JUMP JUMPDEST PUSH1 0x40 MLOAD DUP1 SWAP2 SUB SWAP1 REVERT JUMPDEST JUMPDEST JUMPDEST PUSH0 DUP1 SLOAD SWAP1 PUSH2 0x100 EXP SWAP1 DIV PUSH20 0xFFFFFFFFFFFFFFFFFFFFFFFFFFFFFFFFFFFFFFFF AND PUSH20 0xFFFFFFFFFFFFFFFFFFFFFFFFFFFFFFFFFFFFFFFF AND DUP7 PUSH20 0xFFFFFFFFFFFFFFFFFFFFFFFFFFFFFFFFFFFFFFFF AND SUB PUSH2 0xAA2 JUMPI PUSH1 0x6 SLOAD SWAP2 POP PUSH1 0x3 SLOAD SWAP1 POP PUSH2 0xBA5 JUMP JUMPDEST PUSH1 0x1 PUSH0 SWAP1 SLOAD SWAP1 PUSH2 0x100 EXP SWAP1 DIV PUSH20 0xFFFFFFFFFFFFFFFFFFFFFFFFFFFFFFFFFFFFFFFF AND PUSH20 0xFFFFFFFFFFFFFFFFFFFFFFFFFFFFFFFFFFFFFFFF AND DUP7 PUSH20 0xFFFFFFFFFFFFFFFFFFFFFFFFFFFFFFFFFFFFFFFF AND SUB PUSH2 0xB05 JUMPI PUSH1 0x7 SLOAD SWAP2 POP PUSH1 0x4 SLOAD SWAP1 POP PUSH2 0xBA4 JUMP JUMPDEST PUSH1 0x2 PUSH0 SWAP1 SLOAD SWAP1 PUSH2 0x100 EXP SWAP1 DIV PUSH20 0xFFFFFFFFFFFFFFFFFFFFFFFFFFFFFFFFFFFFFFFF AND PUSH20 0xFFFFFFFFFFFFFFFFFFFFFFFFFFFFFFFFFFFFFFFF AND DUP7 PUSH20 0xFFFFFFFFFFFFFFFFFFFFFFFFFFFFFFFFFFFFFFFF AND SUB PUSH2 0xB68 JUMPI PUSH1 0x8 SLOAD SWAP2 POP PUSH1 0x5 SLOAD SWAP1 POP PUSH2 0xBA3 JUMP JUMPDEST PUSH1 0x40 MLOAD PUSH32 0x8C379A000000000000000000000000000000000000000000000000000000000 DUP2 MSTORE PUSH1 0x4 ADD PUSH2 0xB9A SWAP1 PUSH2 0x13E0 JUMP JUMPDEST PUSH1 0x40 MLOAD DUP1 SWAP2 SUB SWAP1 REVERT JUMPDEST JUMPDEST JUMPDEST PUSH0 DUP2 DUP6 PUSH2 0xBB2 SWAP2 SWAP1 PUSH2 0x13FE JUMP JUMPDEST PUSH8 0xDE0B6B3A7640000 DUP5 DUP7 PUSH2 0xBC7 SWAP2 SWAP1 PUSH2 0x13FE JUMP JUMPDEST PUSH2 0xBD1 SWAP2 SWAP1 PUSH2 0x13FE JUMP JUMPDEST PUSH2 0xBDB SWAP2 SWAP1 PUSH2 0x146C JUMP JUMPDEST SWAP1 POP DUP1 SWAP6 POP POP POP POP POP POP SWAP3 SWAP2 POP POP JUMP JUMPDEST PUSH0 DUP1 SLOAD SWAP1 PUSH2 0x100 EXP SWAP1 DIV PUSH20 0xFFFFFFFFFFFFFFFFFFFFFFFFFFFFFFFFFFFFFFFF AND DUP2 JUMP JUMPDEST PUSH1 0x7 SLOAD DUP2 JUMP JUMPDEST PUSH1 0x4 SLOAD DUP2 JUMP JUMPDEST PUSH1 0x6 SLOAD DUP2 JUMP JUMPDEST PUSH1 0x5 SLOAD DUP2 JUMP JUMPDEST PUSH1 0x2 PUSH0 SWAP1 SLOAD SWAP1 PUSH2 0x100 EXP SWAP1 DIV PUSH20 0xFFFFFFFFFFFFFFFFFFFFFFFFFFFFFFFFFFFFFFFF AND DUP2 JUMP JUMPDEST PUSH0 PUSH20 0xFFFFFFFFFFFFFFFFFFFFFFFFFFFFFFFFFFFFFFFF DUP3 AND SWAP1 POP SWAP2 SWAP1 POP JUMP JUMPDEST PUSH0 DUP2 SWAP1 POP SWAP2 SWAP1 POP JUMP JUMPDEST PUSH0 PUSH2 0xC8D PUSH2 0xC88 PUSH2 0xC83 DUP5 PUSH2 0xC4B JUMP JUMPDEST PUSH2 0xC6A JUMP JUMPDEST PUSH2 0xC4B JUMP JUMPDEST SWAP1 POP SWAP2 SWAP1 POP JUMP JUMPDEST PUSH0 PUSH2 0xC9E DUP3 PUSH2 0xC73 JUMP JUMPDEST SWAP1 POP SWAP2 SWAP1 POP JUMP JUMPDEST PUSH0 PUSH2 0xCAF DUP3 PUSH2 0xC94 JUMP JUMPDEST SWAP1 POP SWAP2 SWAP1 POP JUMP JUMPDEST PUSH2 0xCBF DUP2 PUSH2 0xCA5 JUMP JUMPDEST DUP3 MSTORE POP POP JUMP JUMPDEST PUSH0 PUSH1 0x20 DUP3 ADD SWAP1 POP PUSH2 0xCD8 PUSH0 DUP4 ADD DUP5 PUSH2 0xCB6 JUMP JUMPDEST SWAP3 SWAP2 POP POP JUMP JUMPDEST PUSH0 DUP2 SWAP1 POP SWAP2 SWAP1 POP JUMP JUMPDEST PUSH2 0xCF0 DUP2 PUSH2 0xCDE JUMP JUMPDEST DUP3 MSTORE POP POP JUMP JUMPDEST PUSH0 PUSH1 0x20 DUP3 ADD SWAP1 POP PUSH2 0xD09 PUSH0 DUP4 ADD DUP5 PUSH2 0xCE7 JUMP JUMPDEST SWAP3 SWAP2 POP POP JUMP JUMPDEST PUSH0 DUP1 REVERT JUMPDEST PUSH0 PUSH2 0xD1D DUP3 PUSH2 0xC4B JUMP JUMPDEST SWAP1 POP SWAP2 SWAP1 POP JUMP JUMPDEST PUSH2 0xD2D DUP2 PUSH2 0xD13 JUMP JUMPDEST DUP2 EQ PUSH2 0xD37 JUMPI PUSH0 DUP1 REVERT JUMPDEST POP JUMP JUMPDEST PUSH0 DUP2 CALLDATALOAD SWAP1 POP PUSH2 0xD48 DUP2 PUSH2 0xD24 JUMP JUMPDEST SWAP3 SWAP2 POP POP JUMP JUMPDEST PUSH2 0xD57 DUP2 PUSH2 0xCDE JUMP JUMPDEST DUP2 EQ PUSH2 0xD61 JUMPI PUSH0 DUP1 REVERT JUMPDEST POP JUMP JUMPDEST PUSH0 DUP2 CALLDATALOAD SWAP1 POP PUSH2 0xD72 DUP2 PUSH2 0xD4E JUMP JUMPDEST SWAP3 SWAP2 POP POP JUMP JUMPDEST PUSH0 DUP1 PUSH0 DUP1 PUSH0 DUP1 PUSH1 0xC0 DUP8 DUP10 SUB SLT ISZERO PUSH2 0xD92 JUMPI PUSH2 0xD91 PUSH2 0xD0F JUMP JUMPDEST JUMPDEST PUSH0 PUSH2 0xD9F DUP10 DUP3 DUP11 ADD PUSH2 0xD3A JUMP JUMPDEST SWAP7 POP POP PUSH1 0x20 PUSH2 0xDB0 DUP10 DUP3 DUP11 ADD PUSH2 0xD3A JUMP JUMPDEST SWAP6 POP POP PUSH1 0x40 PUSH2 0xDC1 DUP10 DUP3 DUP11 ADD PUSH2 0xD3A JUMP JUMPDEST SWAP5 POP POP PUSH1 0x60 PUSH2 0xDD2 DUP10 DUP3 DUP11 ADD PUSH2 0xD64 JUMP JUMPDEST SWAP4 POP POP PUSH1 0x80 PUSH2 0xDE3 DUP10 DUP3 DUP11 ADD PUSH2 0xD64 JUMP JUMPDEST SWAP3 POP POP PUSH1 0xA0 PUSH2 0xDF4 DUP10 DUP3 DUP11 ADD PUSH2 0xD64 JUMP JUMPDEST SWAP2 POP POP SWAP3 SWAP6 POP SWAP3 SWAP6 POP SWAP3 SWAP6 JUMP JUMPDEST PUSH0 DUP1 PUSH1 0x40 DUP4 DUP6 SUB SLT ISZERO PUSH2 0xE17 JUMPI PUSH2 0xE16 PUSH2 0xD0F JUMP JUMPDEST JUMPDEST PUSH0 PUSH2 0xE24 DUP6 DUP3 DUP7 ADD PUSH2 0xD3A JUMP JUMPDEST SWAP3 POP POP PUSH1 0x20 PUSH2 0xE35 DUP6 DUP3 DUP7 ADD PUSH2 0xD3A JUMP JUMPDEST SWAP2 POP POP SWAP3 POP SWAP3 SWAP1 POP JUMP JUMPDEST PUSH0 DUP3 DUP3 MSTORE PUSH1 0x20 DUP3 ADD SWAP1 POP SWAP3 SWAP2 POP POP JUMP JUMPDEST PUSH32 0x416D6F756E7473206D7573742062652067726561746572207468616E20300000 PUSH0 DUP3 ADD MSTORE POP JUMP JUMPDEST PUSH0 PUSH2 0xE83 PUSH1 0x1E DUP4 PUSH2 0xE3F JUMP JUMPDEST SWAP2 POP PUSH2 0xE8E DUP3 PUSH2 0xE4F JUMP JUMPDEST PUSH1 0x20 DUP3 ADD SWAP1 POP SWAP2 SWAP1 POP JUMP JUMPDEST PUSH0 PUSH1 0x20 DUP3 ADD SWAP1 POP DUP2 DUP2 SUB PUSH0 DUP4 ADD MSTORE PUSH2 0xEB0 DUP2 PUSH2 0xE77 JUMP JUMPDEST SWAP1 POP SWAP2 SWAP1 POP JUMP JUMPDEST PUSH2 0xEC0 DUP2 PUSH2 0xD13 JUMP JUMPDEST DUP3 MSTORE POP POP JUMP JUMPDEST PUSH0 PUSH1 0x40 DUP3 ADD SWAP1 POP PUSH2 0xED9 PUSH0 DUP4 ADD DUP6 PUSH2 0xEB7 JUMP JUMPDEST PUSH2 0xEE6 PUSH1 0x20 DUP4 ADD DUP5 PUSH2 0xEB7 JUMP JUMPDEST SWAP4 SWAP3 POP POP POP JUMP JUMPDEST PUSH0 DUP2 MLOAD SWAP1 POP PUSH2 0xEFB DUP2 PUSH2 0xD4E JUMP JUMPDEST SWAP3 SWAP2 POP POP JUMP JUMPDEST PUSH0 PUSH1 0x20 DUP3 DUP5 SUB SLT ISZERO PUSH2 0xF16 JUMPI PUSH2 0xF15 PUSH2 0xD0F JUMP JUMPDEST JUMPDEST PUSH0 PUSH2 0xF23 DUP5 DUP3 DUP6 ADD PUSH2 0xEED JUMP JUMPDEST SWAP2 POP POP SWAP3 SWAP2 POP POP JUMP JUMPDEST PUSH32 0x546F6B656E203120616C6C6F77616E6365206973206E6F7420656E6F75676800 PUSH0 DUP3 ADD MSTORE POP JUMP JUMPDEST PUSH0 PUSH2 0xF60 PUSH1 0x1F DUP4 PUSH2 0xE3F JUMP JUMPDEST SWAP2 POP PUSH2 0xF6B DUP3 PUSH2 0xF2C JUMP JUMPDEST PUSH1 0x20 DUP3 ADD SWAP1 POP SWAP2 SWAP1 POP JUMP JUMPDEST PUSH0 PUSH1 0x20 DUP3 ADD SWAP1 POP DUP2 DUP2 SUB PUSH0 DUP4 ADD MSTORE PUSH2 0xF8D DUP2 PUSH2 0xF54 JUMP JUMPDEST SWAP1 POP SWAP2 SWAP1 POP JUMP JUMPDEST PUSH32 0x546F6B656E203220616C6C6F77616E6365206973206E6F7420656E6F75676800 PUSH0 DUP3 ADD MSTORE POP JUMP JUMPDEST PUSH0 PUSH2 0xFC8 PUSH1 0x1F DUP4 PUSH2 0xE3F JUMP JUMPDEST SWAP2 POP PUSH2 0xFD3 DUP3 PUSH2 0xF94 JUMP JUMPDEST PUSH1 0x20 DUP3 ADD SWAP1 POP SWAP2 SWAP1 POP JUMP JUMPDEST PUSH0 PUSH1 0x20 DUP3 ADD SWAP1 POP DUP2 DUP2 SUB PUSH0 DUP4 ADD MSTORE PUSH2 0xFF5 DUP2 PUSH2 0xFBC JUMP JUMPDEST SWAP1 POP SWAP2 SWAP1 POP JUMP JUMPDEST PUSH32 0x546F6B656E203320616C6C6F77616E6365206973206E6F7420656E6F75676800 PUSH0 DUP3 ADD MSTORE POP JUMP JUMPDEST PUSH0 PUSH2 0x1030 PUSH1 0x1F DUP4 PUSH2 0xE3F JUMP JUMPDEST SWAP2 POP PUSH2 0x103B DUP3 PUSH2 0xFFC JUMP JUMPDEST PUSH1 0x20 DUP3 ADD SWAP1 POP SWAP2 SWAP1 POP JUMP JUMPDEST PUSH0 PUSH1 0x20 DUP3 ADD SWAP1 POP DUP2 DUP2 SUB PUSH0 DUP4 ADD MSTORE PUSH2 0x105D DUP2 PUSH2 0x1024 JUMP JUMPDEST SWAP1 POP SWAP2 SWAP1 POP JUMP JUMPDEST PUSH0 PUSH1 0x60 DUP3 ADD SWAP1 POP PUSH2 0x1077 PUSH0 DUP4 ADD DUP7 PUSH2 0xEB7 JUMP JUMPDEST PUSH2 0x1084 PUSH1 0x20 DUP4 ADD DUP6 PUSH2 0xEB7 JUMP JUMPDEST PUSH2 0x1091 PUSH1 0x40 DUP4 ADD DUP5 PUSH2 0xCE7 JUMP JUMPDEST SWAP5 SWAP4 POP POP POP POP JUMP JUMPDEST PUSH0 DUP2 ISZERO ISZERO SWAP1 POP SWAP2 SWAP1 POP JUMP JUMPDEST PUSH2 0x10AD DUP2 PUSH2 0x1099 JUMP JUMPDEST DUP2 EQ PUSH2 0x10B7 JUMPI PUSH0 DUP1 REVERT JUMPDEST POP JUMP JUMPDEST PUSH0 DUP2 MLOAD SWAP1 POP PUSH2 0x10C8 DUP2 PUSH2 0x10A4 JUMP JUMPDEST SWAP3 SWAP2 POP POP JUMP JUMPDEST PUSH0 PUSH1 0x20 DUP3 DUP5 SUB SLT ISZERO PUSH2 0x10E3 JUMPI PUSH2 0x10E2 PUSH2 0xD0F JUMP JUMPDEST JUMPDEST PUSH0 PUSH2 0x10F0 DUP5 DUP3 DUP6 ADD PUSH2 0x10BA JUMP JUMPDEST SWAP2 POP POP SWAP3 SWAP2 POP POP JUMP JUMPDEST PUSH32 0x546F6B656E2031207472616E73666572206661696C6564000000000000000000 PUSH0 DUP3 ADD MSTORE POP JUMP JUMPDEST PUSH0 PUSH2 0x112D PUSH1 0x17 DUP4 PUSH2 0xE3F JUMP JUMPDEST SWAP2 POP PUSH2 0x1138 DUP3 PUSH2 0x10F9 JUMP JUMPDEST PUSH1 0x20 DUP3 ADD SWAP1 POP SWAP2 SWAP1 POP JUMP JUMPDEST PUSH0 PUSH1 0x20 DUP3 ADD SWAP1 POP DUP2 DUP2 SUB PUSH0 DUP4 ADD MSTORE PUSH2 0x115A DUP2 PUSH2 0x1121 JUMP JUMPDEST SWAP1 POP SWAP2 SWAP1 POP JUMP JUMPDEST PUSH32 0x546F6B656E2032207472616E73666572206661696C6564000000000000000000 PUSH0 DUP3 ADD MSTORE POP JUMP JUMPDEST PUSH0 PUSH2 0x1195 PUSH1 0x17 DUP4 PUSH2 0xE3F JUMP JUMPDEST SWAP2 POP PUSH2 0x11A0 DUP3 PUSH2 0x1161 JUMP JUMPDEST PUSH1 0x20 DUP3 ADD SWAP1 POP SWAP2 SWAP1 POP JUMP JUMPDEST PUSH0 PUSH1 0x20 DUP3 ADD SWAP1 POP DUP2 DUP2 SUB PUSH0 DUP4 ADD MSTORE PUSH2 0x11C2 DUP2 PUSH2 0x1189 JUMP JUMPDEST SWAP1 POP SWAP2 SWAP1 POP JUMP JUMPDEST PUSH32 0x546F6B656E2033207472616E73666572206661696C6564000000000000000000 PUSH0 DUP3 ADD MSTORE POP JUMP JUMPDEST PUSH0 PUSH2 0x11FD PUSH1 0x17 DUP4 PUSH2 0xE3F JUMP JUMPDEST SWAP2 POP PUSH2 0x1208 DUP3 PUSH2 0x11C9 JUMP JUMPDEST PUSH1 0x20 DUP3 ADD SWAP1 POP SWAP2 SWAP1 POP JUMP JUMPDEST PUSH0 PUSH1 0x20 DUP3 ADD SWAP1 POP DUP2 DUP2 SUB PUSH0 DUP4 ADD MSTORE PUSH2 0x122A DUP2 PUSH2 0x11F1 JUMP JUMPDEST SWAP1 POP SWAP2 SWAP1 POP JUMP JUMPDEST PUSH32 0x4E487B7100000000000000000000000000000000000000000000000000000000 PUSH0 MSTORE PUSH1 0x11 PUSH1 0x4 MSTORE PUSH1 0x24 PUSH0 REVERT JUMPDEST PUSH0 PUSH2 0x1268 DUP3 PUSH2 0xCDE JUMP JUMPDEST SWAP2 POP PUSH2 0x1273 DUP4 PUSH2 0xCDE JUMP JUMPDEST SWAP3 POP DUP3 DUP3 ADD SWAP1 POP DUP1 DUP3 GT ISZERO PUSH2 0x128B JUMPI PUSH2 0x128A PUSH2 0x1231 JUMP JUMPDEST JUMPDEST SWAP3 SWAP2 POP POP JUMP JUMPDEST PUSH0 PUSH1 0x60 DUP3 ADD SWAP1 POP PUSH2 0x12A4 PUSH0 DUP4 ADD DUP7 PUSH2 0xCE7 JUMP JUMPDEST PUSH2 0x12B1 PUSH1 0x20 DUP4 ADD DUP6 PUSH2 0xCE7 JUMP JUMPDEST PUSH2 0x12BE PUSH1 0x40 DUP4 ADD DUP5 PUSH2 0xCE7 JUMP JUMPDEST SWAP5 SWAP4 POP POP POP POP JUMP JUMPDEST PUSH32 0x506F6F6C206D7573742068617665206C69717569646974790000000000000000 PUSH0 DUP3 ADD MSTORE POP JUMP JUMPDEST PUSH0 PUSH2 0x12FA PUSH1 0x18 DUP4 PUSH2 0xE3F JUMP JUMPDEST SWAP2 POP PUSH2 0x1305 DUP3 PUSH2 0x12C6 JUMP JUMPDEST PUSH1 0x20 DUP3 ADD SWAP1 POP SWAP2 SWAP1 POP JUMP JUMPDEST PUSH0 PUSH1 0x20 DUP3 ADD SWAP1 POP DUP2 DUP2 SUB PUSH0 DUP4 ADD MSTORE PUSH2 0x1327 DUP2 PUSH2 0x12EE JUMP JUMPDEST SWAP1 POP SWAP2 SWAP1 POP JUMP JUMPDEST PUSH32 0x496E76616C69642066726F6D546F6B656E000000000000000000000000000000 PUSH0 DUP3 ADD MSTORE POP JUMP JUMPDEST PUSH0 PUSH2 0x1362 PUSH1 0x11 DUP4 PUSH2 0xE3F JUMP JUMPDEST SWAP2 POP PUSH2 0x136D DUP3 PUSH2 0x132E JUMP JUMPDEST PUSH1 0x20 DUP3 ADD SWAP1 POP SWAP2 SWAP1 POP JUMP JUMPDEST PUSH0 PUSH1 0x20 DUP3 ADD SWAP1 POP DUP2 DUP2 SUB PUSH0 DUP4 ADD MSTORE PUSH2 0x138F DUP2 PUSH2 0x1356 JUMP JUMPDEST SWAP1 POP SWAP2 SWAP1 POP JUMP JUMPDEST PUSH32 0x496E76616C696420746F546F6B656E0000000000000000000000000000000000 PUSH0 DUP3 ADD MSTORE POP JUMP JUMPDEST PUSH0 PUSH2 0x13CA PUSH1 0xF DUP4 PUSH2 0xE3F JUMP JUMPDEST SWAP2 POP PUSH2 0x13D5 DUP3 PUSH2 0x1396 JUMP JUMPDEST PUSH1 0x20 DUP3 ADD SWAP1 POP SWAP2 SWAP1 POP JUMP JUMPDEST PUSH0 PUSH1 0x20 DUP3 ADD SWAP1 POP DUP2 DUP2 SUB PUSH0 DUP4 ADD MSTORE PUSH2 0x13F7 DUP2 PUSH2 0x13BE JUMP JUMPDEST SWAP1 POP SWAP2 SWAP1 POP JUMP JUMPDEST PUSH0 PUSH2 0x1408 DUP3 PUSH2 0xCDE JUMP JUMPDEST SWAP2 POP PUSH2 0x1413 DUP4 PUSH2 0xCDE JUMP JUMPDEST SWAP3 POP DUP3 DUP3 MUL PUSH2 0x1421 DUP2 PUSH2 0xCDE JUMP JUMPDEST SWAP2 POP DUP3 DUP3 DIV DUP5 EQ DUP4 ISZERO OR PUSH2 0x1438 JUMPI PUSH2 0x1437 PUSH2 0x1231 JUMP JUMPDEST JUMPDEST POP SWAP3 SWAP2 POP POP JUMP JUMPDEST PUSH32 0x4E487B7100000000000000000000000000000000000000000000000000000000 PUSH0 MSTORE PUSH1 0x12 PUSH1 0x4 MSTORE PUSH1 0x24 PUSH0 REVERT JUMPDEST PUSH0 PUSH2 0x1476 DUP3 PUSH2 0xCDE JUMP JUMPDEST SWAP2 POP PUSH2 0x1481 DUP4 PUSH2 0xCDE JUMP JUMPDEST SWAP3 POP DUP3 PUSH2 0x1491 JUMPI PUSH2 0x1490 PUSH2 0x143F JUMP JUMPDEST JUMPDEST DUP3 DUP3 DIV SWAP1 POP SWAP3 SWAP2 POP POP JUMP INVALID LOG2 PUSH5 0x6970667358 0x22 SLT KECCAK256 TIMESTAMP SMOD AND BLOBHASH 0xDA SWAP11 0xEC 0x22 0x4E SAR MSIZE 0xED 0xEC 0xA8 0xBC MSTORE EQ 0x4C KECCAK256 0xC1 0x1F BYTE 0xF9 0xED 0xA6 STOP PUSH17 0xA269B6AEDB64736F6C634300081A003300 "
				},
				"gasEstimates": {
					"creation": {
						"codeDepositCost": "1066000",
						"executionCost": "infinite",
						"totalCost": "infinite"
					},
					"external": {
						"addLiquidity(address,address,address,uint256,uint256,uint256)": "infinite",
						"getExchangeRate(address,address)": "infinite",
						"poolToken1()": "2448",
						"poolToken2()": "2469",
						"poolToken3()": "2513",
						"token1()": "infinite",
						"token2()": "infinite",
						"token3()": "infinite",
						"weight1()": "2491",
						"weight2()": "2447",
						"weight3()": "2470"
					}
				},
				"methodIdentifiers": {
					"addLiquidity(address,address,address,uint256,uint256,uint256)": "67088d59",
					"getExchangeRate(address,address)": "baaa61be",
					"poolToken1()": "4758af8a",
					"poolToken2()": "da2a788c",
					"poolToken3()": "eb15388e",
					"token1()": "d21220a7",
					"token2()": "25be124e",
					"token3()": "ef14101e",
					"weight1()": "dd531518",
					"weight2()": "d32650cf",
					"weight3()": "64901520"
				}
			},
			"storageLayout": {
				"storage": [
					{
						"astId": 83,
						"contract": "trustless cross-chain/trading pair formation/SimpleBalancerAMM.sol:SimpleBalancerAMM",
						"label": "token1",
						"offset": 0,
						"slot": "0",
						"type": "t_contract(IERC20)77"
					},
					{
						"astId": 86,
						"contract": "trustless cross-chain/trading pair formation/SimpleBalancerAMM.sol:SimpleBalancerAMM",
						"label": "token2",
						"offset": 0,
						"slot": "1",
						"type": "t_contract(IERC20)77"
					},
					{
						"astId": 89,
						"contract": "trustless cross-chain/trading pair formation/SimpleBalancerAMM.sol:SimpleBalancerAMM",
						"label": "token3",
						"offset": 0,
						"slot": "2",
						"type": "t_contract(IERC20)77"
					},
					{
						"astId": 91,
						"contract": "trustless cross-chain/trading pair formation/SimpleBalancerAMM.sol:SimpleBalancerAMM",
						"label": "poolToken1",
						"offset": 0,
						"slot": "3",
						"type": "t_uint256"
					},
					{
						"astId": 93,
						"contract": "trustless cross-chain/trading pair formation/SimpleBalancerAMM.sol:SimpleBalancerAMM",
						"label": "poolToken2",
						"offset": 0,
						"slot": "4",
						"type": "t_uint256"
					},
					{
						"astId": 95,
						"contract": "trustless cross-chain/trading pair formation/SimpleBalancerAMM.sol:SimpleBalancerAMM",
						"label": "poolToken3",
						"offset": 0,
						"slot": "5",
						"type": "t_uint256"
					},
					{
						"astId": 97,
						"contract": "trustless cross-chain/trading pair formation/SimpleBalancerAMM.sol:SimpleBalancerAMM",
						"label": "weight1",
						"offset": 0,
						"slot": "6",
						"type": "t_uint256"
					},
					{
						"astId": 99,
						"contract": "trustless cross-chain/trading pair formation/SimpleBalancerAMM.sol:SimpleBalancerAMM",
						"label": "weight2",
						"offset": 0,
						"slot": "7",
						"type": "t_uint256"
					},
					{
						"astId": 101,
						"contract": "trustless cross-chain/trading pair formation/SimpleBalancerAMM.sol:SimpleBalancerAMM",
						"label": "weight3",
						"offset": 0,
						"slot": "8",
						"type": "t_uint256"
					}
				],
				"types": {
					"t_contract(IERC20)77": {
						"encoding": "inplace",
						"label": "contract IERC20",
						"numberOfBytes": "20"
					},
					"t_uint256": {
						"encoding": "inplace",
						"label": "uint256",
						"numberOfBytes": "32"
					}
				}
			},
			"userdoc": {
				"kind": "user",
				"methods": {},
				"version": 1
			}
		}
	}
}