{
	"trustless cross-chain/trading pair formation/LBTM.sol": {
		"StakingContract": {
			"abi": [
				{
					"inputs": [
						{
							"internalType": "address",
							"name": "_gameItemContract",
							"type": "address"
						},
						{
							"internalType": "address",
							"name": "_blackholeAddress",
							"type": "address"
						},
						{
							"internalType": "uint256",
							"name": "_deltaK",
							"type": "uint256"
						},
						{
							"internalType": "uint256",
							"name": "_deltaB",
							"type": "uint256"
						},
						{
							"internalType": "uint256",
							"name": "_deltaD",
							"type": "uint256"
						}
					],
					"stateMutability": "nonpayable",
					"type": "constructor"
				},
				{
					"anonymous": false,
					"inputs": [
						{
							"indexed": false,
							"internalType": "uint256",
							"name": "oldTokenId",
							"type": "uint256"
						},
						{
							"indexed": false,
							"internalType": "uint256",
							"name": "newTokenId",
							"type": "uint256"
						}
					],
					"name": "BurnedAndMinted",
					"type": "event"
				},
				{
					"anonymous": false,
					"inputs": [
						{
							"indexed": true,
							"internalType": "address",
							"name": "previousOwner",
							"type": "address"
						},
						{
							"indexed": true,
							"internalType": "address",
							"name": "newOwner",
							"type": "address"
						}
					],
					"name": "OwnershipTransferred",
					"type": "event"
				},
				{
					"anonymous": false,
					"inputs": [
						{
							"indexed": false,
							"internalType": "bytes32",
							"name": "stakeId",
							"type": "bytes32"
						},
						{
							"indexed": false,
							"internalType": "address",
							"name": "owner",
							"type": "address"
						},
						{
							"indexed": false,
							"internalType": "uint256",
							"name": "tokenId",
							"type": "uint256"
						},
						{
							"indexed": false,
							"internalType": "uint256",
							"name": "deadline",
							"type": "uint256"
						}
					],
					"name": "StakeLocked",
					"type": "event"
				},
				{
					"inputs": [],
					"name": "blackholeAddress",
					"outputs": [
						{
							"internalType": "address",
							"name": "",
							"type": "address"
						}
					],
					"stateMutability": "view",
					"type": "function"
				},
				{
					"inputs": [
						{
							"internalType": "bytes32",
							"name": "stakeId",
							"type": "bytes32"
						},
						{
							"internalType": "uint256",
							"name": "newAttackPower",
							"type": "uint256"
						},
						{
							"internalType": "uint256",
							"name": "newExperience",
							"type": "uint256"
						}
					],
					"name": "burnToMint",
					"outputs": [],
					"stateMutability": "nonpayable",
					"type": "function"
				},
				{
					"inputs": [],
					"name": "deltaB",
					"outputs": [
						{
							"internalType": "uint256",
							"name": "",
							"type": "uint256"
						}
					],
					"stateMutability": "view",
					"type": "function"
				},
				{
					"inputs": [],
					"name": "deltaD",
					"outputs": [
						{
							"internalType": "uint256",
							"name": "",
							"type": "uint256"
						}
					],
					"stateMutability": "view",
					"type": "function"
				},
				{
					"inputs": [],
					"name": "deltaK",
					"outputs": [
						{
							"internalType": "uint256",
							"name": "",
							"type": "uint256"
						}
					],
					"stateMutability": "view",
					"type": "function"
				},
				{
					"inputs": [],
					"name": "gameItemContract",
					"outputs": [
						{
							"internalType": "contract IERC721",
							"name": "",
							"type": "address"
						}
					],
					"stateMutability": "view",
					"type": "function"
				},
				{
					"inputs": [
						{
							"internalType": "bytes32",
							"name": "stakeId",
							"type": "bytes32"
						}
					],
					"name": "getStakeInfo",
					"outputs": [
						{
							"components": [
								{
									"internalType": "address",
									"name": "owner",
									"type": "address"
								},
								{
									"internalType": "uint256",
									"name": "tokenId",
									"type": "uint256"
								},
								{
									"internalType": "uint256",
									"name": "lockTime",
									"type": "uint256"
								},
								{
									"internalType": "uint256",
									"name": "deadline",
									"type": "uint256"
								}
							],
							"internalType": "struct StakingContract.StakeInfo",
							"name": "",
							"type": "tuple"
						}
					],
					"stateMutability": "view",
					"type": "function"
				},
				{
					"inputs": [
						{
							"internalType": "uint256",
							"name": "tokenId",
							"type": "uint256"
						}
					],
					"name": "lock",
					"outputs": [],
					"stateMutability": "nonpayable",
					"type": "function"
				},
				{
					"inputs": [],
					"name": "owner",
					"outputs": [
						{
							"internalType": "address",
							"name": "",
							"type": "address"
						}
					],
					"stateMutability": "view",
					"type": "function"
				},
				{
					"inputs": [],
					"name": "renounceOwnership",
					"outputs": [],
					"stateMutability": "nonpayable",
					"type": "function"
				},
				{
					"inputs": [
						{
							"internalType": "bytes32",
							"name": "",
							"type": "bytes32"
						}
					],
					"name": "stakes",
					"outputs": [
						{
							"internalType": "address",
							"name": "owner",
							"type": "address"
						},
						{
							"internalType": "uint256",
							"name": "tokenId",
							"type": "uint256"
						},
						{
							"internalType": "uint256",
							"name": "lockTime",
							"type": "uint256"
						},
						{
							"internalType": "uint256",
							"name": "deadline",
							"type": "uint256"
						}
					],
					"stateMutability": "view",
					"type": "function"
				},
				{
					"inputs": [
						{
							"internalType": "address",
							"name": "newOwner",
							"type": "address"
						}
					],
					"name": "transferOwnership",
					"outputs": [],
					"stateMutability": "nonpayable",
					"type": "function"
				}
			],
			"devdoc": {
				"kind": "dev",
				"methods": {
					"owner()": {
						"details": "Returns the address of the current owner."
					},
					"renounceOwnership()": {
						"details": "Leaves the contract without owner. It will not be possible to call `onlyOwner` functions anymore. Can only be called by the current owner. NOTE: Renouncing ownership will leave the contract without an owner, thereby removing any functionality that is only available to the owner."
					},
					"transferOwnership(address)": {
						"details": "Transfers ownership of the contract to a new account (`newOwner`). Can only be called by the current owner."
					}
				},
				"version": 1
			},
			"evm": {
				"assembly": "    /* \"trustless cross-chain/trading pair formation/LBTM.sol\":170:2411  contract StakingContract is Ownable {... */\n  mstore(0x40, 0x80)\n    /* \"trustless cross-chain/trading pair formation/LBTM.sol\":706:1055  constructor(... */\n  callvalue\n  dup1\n  iszero\n  tag_1\n  jumpi\n  0x00\n  dup1\n  revert\ntag_1:\n  pop\n  mload(0x40)\n  sub(codesize, bytecodeSize)\n  dup1\n  bytecodeSize\n  dup4\n  codecopy\n  dup2\n  dup2\n  add\n  0x40\n  mstore\n  dup2\n  add\n  swap1\n  tag_2\n  swap2\n  swap1\n  tag_3\n  jump\t// in\ntag_2:\n    /* \"@openzeppelin/contracts/access/Ownable.sol\":936:968  _transferOwnership(_msgSender()) */\n  tag_7\n    /* \"@openzeppelin/contracts/access/Ownable.sol\":955:967  _msgSender() */\n  tag_8\n    /* \"@openzeppelin/contracts/access/Ownable.sol\":955:965  _msgSender */\n  shl(0x20, tag_9)\n    /* \"@openzeppelin/contracts/access/Ownable.sol\":955:967  _msgSender() */\n  0x20\n  shr\n  jump\t// in\ntag_8:\n    /* \"@openzeppelin/contracts/access/Ownable.sol\":936:954  _transferOwnership */\n  shl(0x20, tag_10)\n    /* \"@openzeppelin/contracts/access/Ownable.sol\":936:968  _transferOwnership(_msgSender()) */\n  0x20\n  shr\n  jump\t// in\ntag_7:\n    /* \"trustless cross-chain/trading pair formation/LBTM.sol\":906:923  _gameItemContract */\n  dup5\n    /* \"trustless cross-chain/trading pair formation/LBTM.sol\":879:895  gameItemContract */\n  0x01\n  0x00\n    /* \"trustless cross-chain/trading pair formation/LBTM.sol\":879:924  gameItemContract = IERC721(_gameItemContract) */\n  0x0100\n  exp\n  dup2\n  sload\n  dup2\n  0xffffffffffffffffffffffffffffffffffffffff\n  mul\n  not\n  and\n  swap1\n  dup4\n  0xffffffffffffffffffffffffffffffffffffffff\n  and\n  mul\n  or\n  swap1\n  sstore\n  pop\n    /* \"trustless cross-chain/trading pair formation/LBTM.sol\":953:970  _blackholeAddress */\n  dup4\n    /* \"trustless cross-chain/trading pair formation/LBTM.sol\":934:950  blackholeAddress */\n  0x02\n  0x00\n    /* \"trustless cross-chain/trading pair formation/LBTM.sol\":934:970  blackholeAddress = _blackholeAddress */\n  0x0100\n  exp\n  dup2\n  sload\n  dup2\n  0xffffffffffffffffffffffffffffffffffffffff\n  mul\n  not\n  and\n  swap1\n  dup4\n  0xffffffffffffffffffffffffffffffffffffffff\n  and\n  mul\n  or\n  swap1\n  sstore\n  pop\n    /* \"trustless cross-chain/trading pair formation/LBTM.sol\":989:996  _deltaK */\n  dup3\n    /* \"trustless cross-chain/trading pair formation/LBTM.sol\":980:986  deltaK */\n  0x03\n    /* \"trustless cross-chain/trading pair formation/LBTM.sol\":980:996  deltaK = _deltaK */\n  dup2\n  swap1\n  sstore\n  pop\n    /* \"trustless cross-chain/trading pair formation/LBTM.sol\":1015:1022  _deltaB */\n  dup2\n    /* \"trustless cross-chain/trading pair formation/LBTM.sol\":1006:1012  deltaB */\n  0x04\n    /* \"trustless cross-chain/trading pair formation/LBTM.sol\":1006:1022  deltaB = _deltaB */\n  dup2\n  swap1\n  sstore\n  pop\n    /* \"trustless cross-chain/trading pair formation/LBTM.sol\":1041:1048  _deltaD */\n  dup1\n    /* \"trustless cross-chain/trading pair formation/LBTM.sol\":1032:1038  deltaD */\n  0x05\n    /* \"trustless cross-chain/trading pair formation/LBTM.sol\":1032:1048  deltaD = _deltaD */\n  dup2\n  swap1\n  sstore\n  pop\n    /* \"trustless cross-chain/trading pair formation/LBTM.sol\":706:1055  constructor(... */\n  pop\n  pop\n  pop\n  pop\n  pop\n    /* \"trustless cross-chain/trading pair formation/LBTM.sol\":170:2411  contract StakingContract is Ownable {... */\n  jump(tag_12)\n    /* \"@openzeppelin/contracts/utils/Context.sol\":640:736  function _msgSender() internal view virtual returns (address) {... */\ntag_9:\n    /* \"@openzeppelin/contracts/utils/Context.sol\":693:700  address */\n  0x00\n    /* \"@openzeppelin/contracts/utils/Context.sol\":719:729  msg.sender */\n  caller\n    /* \"@openzeppelin/contracts/utils/Context.sol\":712:729  return msg.sender */\n  swap1\n  pop\n    /* \"@openzeppelin/contracts/utils/Context.sol\":640:736  function _msgSender() internal view virtual returns (address) {... */\n  swap1\n  jump\t// out\n    /* \"@openzeppelin/contracts/access/Ownable.sol\":2433:2620  function _transferOwnership(address newOwner) internal virtual {... */\ntag_10:\n    /* \"@openzeppelin/contracts/access/Ownable.sol\":2506:2522  address oldOwner */\n  0x00\n    /* \"@openzeppelin/contracts/access/Ownable.sol\":2525:2531  _owner */\n  dup1\n  0x00\n  swap1\n  sload\n  swap1\n  0x0100\n  exp\n  swap1\n  div\n  0xffffffffffffffffffffffffffffffffffffffff\n  and\n    /* \"@openzeppelin/contracts/access/Ownable.sol\":2506:2531  address oldOwner = _owner */\n  swap1\n  pop\n    /* \"@openzeppelin/contracts/access/Ownable.sol\":2550:2558  newOwner */\n  dup2\n    /* \"@openzeppelin/contracts/access/Ownable.sol\":2541:2547  _owner */\n  0x00\n  dup1\n    /* \"@openzeppelin/contracts/access/Ownable.sol\":2541:2558  _owner = newOwner */\n  0x0100\n  exp\n  dup2\n  sload\n  dup2\n  0xffffffffffffffffffffffffffffffffffffffff\n  mul\n  not\n  and\n  swap1\n  dup4\n  0xffffffffffffffffffffffffffffffffffffffff\n  and\n  mul\n  or\n  swap1\n  sstore\n  pop\n    /* \"@openzeppelin/contracts/access/Ownable.sol\":2604:2612  newOwner */\n  dup2\n    /* \"@openzeppelin/contracts/access/Ownable.sol\":2573:2613  OwnershipTransferred(oldOwner, newOwner) */\n  0xffffffffffffffffffffffffffffffffffffffff\n  and\n    /* \"@openzeppelin/contracts/access/Ownable.sol\":2594:2602  oldOwner */\n  dup2\n    /* \"@openzeppelin/contracts/access/Ownable.sol\":2573:2613  OwnershipTransferred(oldOwner, newOwner) */\n  0xffffffffffffffffffffffffffffffffffffffff\n  and\n  0x8be0079c531659141344cd1fd0a4f28419497f9722a3daafe3b4186f6b6457e0\n  mload(0x40)\n  mload(0x40)\n  dup1\n  swap2\n  sub\n  swap1\n  log3\n    /* \"@openzeppelin/contracts/access/Ownable.sol\":2496:2620  {... */\n  pop\n    /* \"@openzeppelin/contracts/access/Ownable.sol\":2433:2620  function _transferOwnership(address newOwner) internal virtual {... */\n  pop\n  jump\t// out\n    /* \"#utility.yul\":88:205   */\ntag_16:\n    /* \"#utility.yul\":197:198   */\n  0x00\n    /* \"#utility.yul\":194:195   */\n  dup1\n    /* \"#utility.yul\":187:199   */\n  revert\n    /* \"#utility.yul\":334:460   */\ntag_18:\n    /* \"#utility.yul\":371:378   */\n  0x00\n    /* \"#utility.yul\":411:453   */\n  0xffffffffffffffffffffffffffffffffffffffff\n    /* \"#utility.yul\":404:409   */\n  dup3\n    /* \"#utility.yul\":400:454   */\n  and\n    /* \"#utility.yul\":389:454   */\n  swap1\n  pop\n    /* \"#utility.yul\":334:460   */\n  swap2\n  swap1\n  pop\n  jump\t// out\n    /* \"#utility.yul\":466:562   */\ntag_19:\n    /* \"#utility.yul\":503:510   */\n  0x00\n    /* \"#utility.yul\":532:556   */\n  tag_31\n    /* \"#utility.yul\":550:555   */\n  dup3\n    /* \"#utility.yul\":532:556   */\n  tag_18\n  jump\t// in\ntag_31:\n    /* \"#utility.yul\":521:556   */\n  swap1\n  pop\n    /* \"#utility.yul\":466:562   */\n  swap2\n  swap1\n  pop\n  jump\t// out\n    /* \"#utility.yul\":568:690   */\ntag_20:\n    /* \"#utility.yul\":641:665   */\n  tag_33\n    /* \"#utility.yul\":659:664   */\n  dup2\n    /* \"#utility.yul\":641:665   */\n  tag_19\n  jump\t// in\ntag_33:\n    /* \"#utility.yul\":634:639   */\n  dup2\n    /* \"#utility.yul\":631:666   */\n  eq\n    /* \"#utility.yul\":621:684   */\n  tag_34\n  jumpi\n    /* \"#utility.yul\":680:681   */\n  0x00\n    /* \"#utility.yul\":677:678   */\n  dup1\n    /* \"#utility.yul\":670:682   */\n  revert\n    /* \"#utility.yul\":621:684   */\ntag_34:\n    /* \"#utility.yul\":568:690   */\n  pop\n  jump\t// out\n    /* \"#utility.yul\":696:839   */\ntag_21:\n    /* \"#utility.yul\":753:758   */\n  0x00\n    /* \"#utility.yul\":784:790   */\n  dup2\n    /* \"#utility.yul\":778:791   */\n  mload\n    /* \"#utility.yul\":769:791   */\n  swap1\n  pop\n    /* \"#utility.yul\":800:833   */\n  tag_36\n    /* \"#utility.yul\":827:832   */\n  dup2\n    /* \"#utility.yul\":800:833   */\n  tag_20\n  jump\t// in\ntag_36:\n    /* \"#utility.yul\":696:839   */\n  swap3\n  swap2\n  pop\n  pop\n  jump\t// out\n    /* \"#utility.yul\":845:922   */\ntag_22:\n    /* \"#utility.yul\":882:889   */\n  0x00\n    /* \"#utility.yul\":911:916   */\n  dup2\n    /* \"#utility.yul\":900:916   */\n  swap1\n  pop\n    /* \"#utility.yul\":845:922   */\n  swap2\n  swap1\n  pop\n  jump\t// out\n    /* \"#utility.yul\":928:1050   */\ntag_23:\n    /* \"#utility.yul\":1001:1025   */\n  tag_39\n    /* \"#utility.yul\":1019:1024   */\n  dup2\n    /* \"#utility.yul\":1001:1025   */\n  tag_22\n  jump\t// in\ntag_39:\n    /* \"#utility.yul\":994:999   */\n  dup2\n    /* \"#utility.yul\":991:1026   */\n  eq\n    /* \"#utility.yul\":981:1044   */\n  tag_40\n  jumpi\n    /* \"#utility.yul\":1040:1041   */\n  0x00\n    /* \"#utility.yul\":1037:1038   */\n  dup1\n    /* \"#utility.yul\":1030:1042   */\n  revert\n    /* \"#utility.yul\":981:1044   */\ntag_40:\n    /* \"#utility.yul\":928:1050   */\n  pop\n  jump\t// out\n    /* \"#utility.yul\":1056:1199   */\ntag_24:\n    /* \"#utility.yul\":1113:1118   */\n  0x00\n    /* \"#utility.yul\":1144:1150   */\n  dup2\n    /* \"#utility.yul\":1138:1151   */\n  mload\n    /* \"#utility.yul\":1129:1151   */\n  swap1\n  pop\n    /* \"#utility.yul\":1160:1193   */\n  tag_42\n    /* \"#utility.yul\":1187:1192   */\n  dup2\n    /* \"#utility.yul\":1160:1193   */\n  tag_23\n  jump\t// in\ntag_42:\n    /* \"#utility.yul\":1056:1199   */\n  swap3\n  swap2\n  pop\n  pop\n  jump\t// out\n    /* \"#utility.yul\":1205:2182   */\ntag_3:\n    /* \"#utility.yul\":1311:1317   */\n  0x00\n    /* \"#utility.yul\":1319:1325   */\n  dup1\n    /* \"#utility.yul\":1327:1333   */\n  0x00\n    /* \"#utility.yul\":1335:1341   */\n  dup1\n    /* \"#utility.yul\":1343:1349   */\n  0x00\n    /* \"#utility.yul\":1392:1395   */\n  0xa0\n    /* \"#utility.yul\":1380:1389   */\n  dup7\n    /* \"#utility.yul\":1371:1378   */\n  dup9\n    /* \"#utility.yul\":1367:1390   */\n  sub\n    /* \"#utility.yul\":1363:1396   */\n  slt\n    /* \"#utility.yul\":1360:1480   */\n  iszero\n  tag_44\n  jumpi\n    /* \"#utility.yul\":1399:1478   */\n  tag_45\n  tag_16\n  jump\t// in\ntag_45:\n    /* \"#utility.yul\":1360:1480   */\ntag_44:\n    /* \"#utility.yul\":1519:1520   */\n  0x00\n    /* \"#utility.yul\":1544:1608   */\n  tag_46\n    /* \"#utility.yul\":1600:1607   */\n  dup9\n    /* \"#utility.yul\":1591:1597   */\n  dup3\n    /* \"#utility.yul\":1580:1589   */\n  dup10\n    /* \"#utility.yul\":1576:1598   */\n  add\n    /* \"#utility.yul\":1544:1608   */\n  tag_21\n  jump\t// in\ntag_46:\n    /* \"#utility.yul\":1534:1608   */\n  swap6\n  pop\n    /* \"#utility.yul\":1490:1618   */\n  pop\n    /* \"#utility.yul\":1657:1659   */\n  0x20\n    /* \"#utility.yul\":1683:1747   */\n  tag_47\n    /* \"#utility.yul\":1739:1746   */\n  dup9\n    /* \"#utility.yul\":1730:1736   */\n  dup3\n    /* \"#utility.yul\":1719:1728   */\n  dup10\n    /* \"#utility.yul\":1715:1737   */\n  add\n    /* \"#utility.yul\":1683:1747   */\n  tag_21\n  jump\t// in\ntag_47:\n    /* \"#utility.yul\":1673:1747   */\n  swap5\n  pop\n    /* \"#utility.yul\":1628:1757   */\n  pop\n    /* \"#utility.yul\":1796:1798   */\n  0x40\n    /* \"#utility.yul\":1822:1886   */\n  tag_48\n    /* \"#utility.yul\":1878:1885   */\n  dup9\n    /* \"#utility.yul\":1869:1875   */\n  dup3\n    /* \"#utility.yul\":1858:1867   */\n  dup10\n    /* \"#utility.yul\":1854:1876   */\n  add\n    /* \"#utility.yul\":1822:1886   */\n  tag_24\n  jump\t// in\ntag_48:\n    /* \"#utility.yul\":1812:1886   */\n  swap4\n  pop\n    /* \"#utility.yul\":1767:1896   */\n  pop\n    /* \"#utility.yul\":1935:1937   */\n  0x60\n    /* \"#utility.yul\":1961:2025   */\n  tag_49\n    /* \"#utility.yul\":2017:2024   */\n  dup9\n    /* \"#utility.yul\":2008:2014   */\n  dup3\n    /* \"#utility.yul\":1997:2006   */\n  dup10\n    /* \"#utility.yul\":1993:2015   */\n  add\n    /* \"#utility.yul\":1961:2025   */\n  tag_24\n  jump\t// in\ntag_49:\n    /* \"#utility.yul\":1951:2025   */\n  swap3\n  pop\n    /* \"#utility.yul\":1906:2035   */\n  pop\n    /* \"#utility.yul\":2074:2077   */\n  0x80\n    /* \"#utility.yul\":2101:2165   */\n  tag_50\n    /* \"#utility.yul\":2157:2164   */\n  dup9\n    /* \"#utility.yul\":2148:2154   */\n  dup3\n    /* \"#utility.yul\":2137:2146   */\n  dup10\n    /* \"#utility.yul\":2133:2155   */\n  add\n    /* \"#utility.yul\":2101:2165   */\n  tag_24\n  jump\t// in\ntag_50:\n    /* \"#utility.yul\":2091:2165   */\n  swap2\n  pop\n    /* \"#utility.yul\":2045:2175   */\n  pop\n    /* \"#utility.yul\":1205:2182   */\n  swap3\n  swap6\n  pop\n  swap3\n  swap6\n  swap1\n  swap4\n  pop\n  jump\t// out\n    /* \"trustless cross-chain/trading pair formation/LBTM.sol\":170:2411  contract StakingContract is Ownable {... */\ntag_12:\n  dataSize(sub_0)\n  dup1\n  dataOffset(sub_0)\n  0x00\n  codecopy\n  0x00\n  return\nstop\n\nsub_0: assembly {\n        /* \"trustless cross-chain/trading pair formation/LBTM.sol\":170:2411  contract StakingContract is Ownable {... */\n      mstore(0x40, 0x80)\n      callvalue\n      dup1\n      iszero\n      tag_1\n      jumpi\n      0x00\n      dup1\n      revert\n    tag_1:\n      pop\n      jumpi(tag_2, lt(calldatasize, 0x04))\n      shr(0xe0, calldataload(0x00))\n      dup1\n      0x8da5cb5b\n      gt\n      tag_15\n      jumpi\n      dup1\n      0x8da5cb5b\n      eq\n      tag_9\n      jumpi\n      dup1\n      0x8fee6407\n      eq\n      tag_10\n      jumpi\n      dup1\n      0xdd467064\n      eq\n      tag_11\n      jumpi\n      dup1\n      0xea768123\n      eq\n      tag_12\n      jumpi\n      dup1\n      0xf2fde38b\n      eq\n      tag_13\n      jumpi\n      dup1\n      0xf9be04ca\n      eq\n      tag_14\n      jumpi\n      jump(tag_2)\n    tag_15:\n      dup1\n      0x058f5bd2\n      eq\n      tag_3\n      jumpi\n      dup1\n      0x568b962a\n      eq\n      tag_4\n      jumpi\n      dup1\n      0x715018a6\n      eq\n      tag_5\n      jumpi\n      dup1\n      0x7d515a10\n      eq\n      tag_6\n      jumpi\n      dup1\n      0x7e8d094c\n      eq\n      tag_7\n      jumpi\n      dup1\n      0x83a811bf\n      eq\n      tag_8\n      jumpi\n    tag_2:\n      0x00\n      dup1\n      revert\n        /* \"trustless cross-chain/trading pair formation/LBTM.sol\":1649:2284  function burnToMint(bytes32 stakeId, uint256 newAttackPower, uint256 newExperience) external onlyOwner {... */\n    tag_3:\n      tag_16\n      0x04\n      dup1\n      calldatasize\n      sub\n      dup2\n      add\n      swap1\n      tag_17\n      swap2\n      swap1\n      tag_18\n      jump\t// in\n    tag_17:\n      tag_19\n      jump\t// in\n    tag_16:\n      stop\n        /* \"trustless cross-chain/trading pair formation/LBTM.sol\":286:307  uint256 public deltaK */\n    tag_4:\n      tag_20\n      tag_21\n      jump\t// in\n    tag_20:\n      mload(0x40)\n      tag_22\n      swap2\n      swap1\n      tag_23\n      jump\t// in\n    tag_22:\n      mload(0x40)\n      dup1\n      swap2\n      sub\n      swap1\n      return\n        /* \"@openzeppelin/contracts/access/Ownable.sol\":1831:1932  function renounceOwnership() public virtual onlyOwner {... */\n    tag_5:\n      tag_24\n      tag_25\n      jump\t// in\n    tag_24:\n      stop\n        /* \"trustless cross-chain/trading pair formation/LBTM.sol\":249:280  address public blackholeAddress */\n    tag_6:\n      tag_26\n      tag_27\n      jump\t// in\n    tag_26:\n      mload(0x40)\n      tag_28\n      swap2\n      swap1\n      tag_29\n      jump\t// in\n    tag_28:\n      mload(0x40)\n      dup1\n      swap2\n      sub\n      swap1\n      return\n        /* \"trustless cross-chain/trading pair formation/LBTM.sol\":2290:2409  function getStakeInfo(bytes32 stakeId) external view returns (StakeInfo memory) {... */\n    tag_7:\n      tag_30\n      0x04\n      dup1\n      calldatasize\n      sub\n      dup2\n      add\n      swap1\n      tag_31\n      swap2\n      swap1\n      tag_32\n      jump\t// in\n    tag_31:\n      tag_33\n      jump\t// in\n    tag_30:\n      mload(0x40)\n      tag_34\n      swap2\n      swap1\n      tag_35\n      jump\t// in\n    tag_34:\n      mload(0x40)\n      dup1\n      swap2\n      sub\n      swap1\n      return\n        /* \"trustless cross-chain/trading pair formation/LBTM.sol\":340:361  uint256 public deltaD */\n    tag_8:\n      tag_36\n      tag_37\n      jump\t// in\n    tag_36:\n      mload(0x40)\n      tag_38\n      swap2\n      swap1\n      tag_23\n      jump\t// in\n    tag_38:\n      mload(0x40)\n      dup1\n      swap2\n      sub\n      swap1\n      return\n        /* \"@openzeppelin/contracts/access/Ownable.sol\":1201:1286  function owner() public view virtual returns (address) {... */\n    tag_9:\n      tag_39\n      tag_40\n      jump\t// in\n    tag_39:\n      mload(0x40)\n      tag_41\n      swap2\n      swap1\n      tag_29\n      jump\t// in\n    tag_41:\n      mload(0x40)\n      dup1\n      swap2\n      sub\n      swap1\n      return\n        /* \"trustless cross-chain/trading pair formation/LBTM.sol\":498:541  mapping(bytes32 => StakeInfo) public stakes */\n    tag_10:\n      tag_42\n      0x04\n      dup1\n      calldatasize\n      sub\n      dup2\n      add\n      swap1\n      tag_43\n      swap2\n      swap1\n      tag_32\n      jump\t// in\n    tag_43:\n      tag_44\n      jump\t// in\n    tag_42:\n      mload(0x40)\n      tag_45\n      swap5\n      swap4\n      swap3\n      swap2\n      swap1\n      tag_46\n      jump\t// in\n    tag_45:\n      mload(0x40)\n      dup1\n      swap2\n      sub\n      swap1\n      return\n        /* \"trustless cross-chain/trading pair formation/LBTM.sol\":1061:1643  function lock(uint256 tokenId) external {... */\n    tag_11:\n      tag_47\n      0x04\n      dup1\n      calldatasize\n      sub\n      dup2\n      add\n      swap1\n      tag_48\n      swap2\n      swap1\n      tag_49\n      jump\t// in\n    tag_48:\n      tag_50\n      jump\t// in\n    tag_47:\n      stop\n        /* \"trustless cross-chain/trading pair formation/LBTM.sol\":313:334  uint256 public deltaB */\n    tag_12:\n      tag_51\n      tag_52\n      jump\t// in\n    tag_51:\n      mload(0x40)\n      tag_53\n      swap2\n      swap1\n      tag_23\n      jump\t// in\n    tag_53:\n      mload(0x40)\n      dup1\n      swap2\n      sub\n      swap1\n      return\n        /* \"@openzeppelin/contracts/access/Ownable.sol\":2081:2279  function transferOwnership(address newOwner) public virtual onlyOwner {... */\n    tag_13:\n      tag_54\n      0x04\n      dup1\n      calldatasize\n      sub\n      dup2\n      add\n      swap1\n      tag_55\n      swap2\n      swap1\n      tag_56\n      jump\t// in\n    tag_55:\n      tag_57\n      jump\t// in\n    tag_54:\n      stop\n        /* \"trustless cross-chain/trading pair formation/LBTM.sol\":212:243  IERC721 public gameItemContract */\n    tag_14:\n      tag_58\n      tag_59\n      jump\t// in\n    tag_58:\n      mload(0x40)\n      tag_60\n      swap2\n      swap1\n      tag_61\n      jump\t// in\n    tag_60:\n      mload(0x40)\n      dup1\n      swap2\n      sub\n      swap1\n      return\n        /* \"trustless cross-chain/trading pair formation/LBTM.sol\":1649:2284  function burnToMint(bytes32 stakeId, uint256 newAttackPower, uint256 newExperience) external onlyOwner {... */\n    tag_19:\n        /* \"@openzeppelin/contracts/access/Ownable.sol\":1094:1107  _checkOwner() */\n      tag_63\n        /* \"@openzeppelin/contracts/access/Ownable.sol\":1094:1105  _checkOwner */\n      tag_64\n        /* \"@openzeppelin/contracts/access/Ownable.sol\":1094:1107  _checkOwner() */\n      jump\t// in\n    tag_63:\n        /* \"trustless cross-chain/trading pair formation/LBTM.sol\":1762:1785  StakeInfo storage stake */\n      0x00\n        /* \"trustless cross-chain/trading pair formation/LBTM.sol\":1788:1794  stakes */\n      0x06\n        /* \"trustless cross-chain/trading pair formation/LBTM.sol\":1788:1803  stakes[stakeId] */\n      0x00\n        /* \"trustless cross-chain/trading pair formation/LBTM.sol\":1795:1802  stakeId */\n      dup6\n        /* \"trustless cross-chain/trading pair formation/LBTM.sol\":1788:1803  stakes[stakeId] */\n      dup2\n      mstore\n      0x20\n      add\n      swap1\n      dup2\n      mstore\n      0x20\n      add\n      0x00\n      keccak256\n        /* \"trustless cross-chain/trading pair formation/LBTM.sol\":1762:1803  StakeInfo storage stake = stakes[stakeId] */\n      swap1\n      pop\n        /* \"trustless cross-chain/trading pair formation/LBTM.sol\":1839:1854  block.timestamp */\n      timestamp\n        /* \"trustless cross-chain/trading pair formation/LBTM.sol\":1821:1826  stake */\n      dup2\n        /* \"trustless cross-chain/trading pair formation/LBTM.sol\":1821:1835  stake.deadline */\n      0x03\n      add\n      sload\n        /* \"trustless cross-chain/trading pair formation/LBTM.sol\":1821:1854  stake.deadline <= block.timestamp */\n      gt\n      iszero\n        /* \"trustless cross-chain/trading pair formation/LBTM.sol\":1813:1879  require(stake.deadline <= block.timestamp, \"Deadline not reached\") */\n      tag_66\n      jumpi\n      mload(0x40)\n      0x08c379a000000000000000000000000000000000000000000000000000000000\n      dup2\n      mstore\n      0x04\n      add\n      tag_67\n      swap1\n      tag_68\n      jump\t// in\n    tag_67:\n      mload(0x40)\n      dup1\n      swap2\n      sub\n      swap1\n      revert\n    tag_66:\n        /* \"trustless cross-chain/trading pair formation/LBTM.sol\":1920:1921  0 */\n      0x00\n        /* \"trustless cross-chain/trading pair formation/LBTM.sol\":1897:1922  stake.owner != address(0) */\n      0xffffffffffffffffffffffffffffffffffffffff\n      and\n        /* \"trustless cross-chain/trading pair formation/LBTM.sol\":1897:1902  stake */\n      dup2\n        /* \"trustless cross-chain/trading pair formation/LBTM.sol\":1897:1908  stake.owner */\n      0x00\n      add\n      0x00\n      swap1\n      sload\n      swap1\n      0x0100\n      exp\n      swap1\n      div\n      0xffffffffffffffffffffffffffffffffffffffff\n      and\n        /* \"trustless cross-chain/trading pair formation/LBTM.sol\":1897:1922  stake.owner != address(0) */\n      0xffffffffffffffffffffffffffffffffffffffff\n      and\n      sub\n        /* \"trustless cross-chain/trading pair formation/LBTM.sol\":1889:1940  require(stake.owner != address(0), \"Invalid stake\") */\n      tag_69\n      jumpi\n      mload(0x40)\n      0x08c379a000000000000000000000000000000000000000000000000000000000\n      dup2\n      mstore\n      0x04\n      add\n      tag_70\n      swap1\n      tag_71\n      jump\t// in\n    tag_70:\n      mload(0x40)\n      dup1\n      swap2\n      sub\n      swap1\n      revert\n    tag_69:\n        /* \"trustless cross-chain/trading pair formation/LBTM.sol\":1951:1967  gameItemContract */\n      0x01\n      0x00\n      swap1\n      sload\n      swap1\n      0x0100\n      exp\n      swap1\n      div\n      0xffffffffffffffffffffffffffffffffffffffff\n      and\n        /* \"trustless cross-chain/trading pair formation/LBTM.sol\":1951:1980  gameItemContract.transferFrom */\n      0xffffffffffffffffffffffffffffffffffffffff\n      and\n      0x23b872dd\n        /* \"trustless cross-chain/trading pair formation/LBTM.sol\":1989:1993  this */\n      address\n        /* \"trustless cross-chain/trading pair formation/LBTM.sol\":1996:2012  blackholeAddress */\n      0x02\n      0x00\n      swap1\n      sload\n      swap1\n      0x0100\n      exp\n      swap1\n      div\n      0xffffffffffffffffffffffffffffffffffffffff\n      and\n        /* \"trustless cross-chain/trading pair formation/LBTM.sol\":2014:2019  stake */\n      dup5\n        /* \"trustless cross-chain/trading pair formation/LBTM.sol\":2014:2027  stake.tokenId */\n      0x01\n      add\n      sload\n        /* \"trustless cross-chain/trading pair formation/LBTM.sol\":1951:2028  gameItemContract.transferFrom(address(this), blackholeAddress, stake.tokenId) */\n      mload(0x40)\n      dup5\n      0xffffffff\n      and\n      0xe0\n      shl\n      dup2\n      mstore\n      0x04\n      add\n      tag_72\n      swap4\n      swap3\n      swap2\n      swap1\n      tag_73\n      jump\t// in\n    tag_72:\n      0x00\n      mload(0x40)\n      dup1\n      dup4\n      sub\n      dup2\n      0x00\n      dup8\n      dup1\n      extcodesize\n      iszero\n      dup1\n      iszero\n      tag_74\n      jumpi\n      0x00\n      dup1\n      revert\n    tag_74:\n      pop\n      gas\n      call\n      iszero\n      dup1\n      iszero\n      tag_76\n      jumpi\n      returndatasize\n      0x00\n      dup1\n      returndatacopy\n      revert(0x00, returndatasize)\n    tag_76:\n      pop\n      pop\n      pop\n      pop\n        /* \"trustless cross-chain/trading pair formation/LBTM.sol\":2039:2056  GameItem gameItem */\n      0x00\n        /* \"trustless cross-chain/trading pair formation/LBTM.sol\":2076:2092  gameItemContract */\n      0x01\n      0x00\n      swap1\n      sload\n      swap1\n      0x0100\n      exp\n      swap1\n      div\n      0xffffffffffffffffffffffffffffffffffffffff\n      and\n        /* \"trustless cross-chain/trading pair formation/LBTM.sol\":2039:2094  GameItem gameItem = GameItem(address(gameItemContract)) */\n      swap1\n      pop\n        /* \"trustless cross-chain/trading pair formation/LBTM.sol\":2104:2122  uint256 newTokenId */\n      0x00\n        /* \"trustless cross-chain/trading pair formation/LBTM.sol\":2125:2133  gameItem */\n      dup2\n        /* \"trustless cross-chain/trading pair formation/LBTM.sol\":2125:2138  gameItem.mint */\n      0xffffffffffffffffffffffffffffffffffffffff\n      and\n      0x4a5dc3aa\n        /* \"trustless cross-chain/trading pair formation/LBTM.sol\":2139:2144  stake */\n      dup5\n        /* \"trustless cross-chain/trading pair formation/LBTM.sol\":2139:2150  stake.owner */\n      0x00\n      add\n      0x00\n      swap1\n      sload\n      swap1\n      0x0100\n      exp\n      swap1\n      div\n      0xffffffffffffffffffffffffffffffffffffffff\n      and\n        /* \"trustless cross-chain/trading pair formation/LBTM.sol\":2156:2170  newAttackPower */\n      dup8\n        /* \"trustless cross-chain/trading pair formation/LBTM.sol\":2172:2185  newExperience */\n      dup8\n        /* \"trustless cross-chain/trading pair formation/LBTM.sol\":2125:2186  gameItem.mint(stake.owner, \"\", newAttackPower, newExperience) */\n      mload(0x40)\n      dup5\n      0xffffffff\n      and\n      0xe0\n      shl\n      dup2\n      mstore\n      0x04\n      add\n      tag_77\n      swap4\n      swap3\n      swap2\n      swap1\n      tag_78\n      jump\t// in\n    tag_77:\n      0x20\n      mload(0x40)\n      dup1\n      dup4\n      sub\n      dup2\n      0x00\n      dup8\n      gas\n      call\n      iszero\n      dup1\n      iszero\n      tag_80\n      jumpi\n      returndatasize\n      0x00\n      dup1\n      returndatacopy\n      revert(0x00, returndatasize)\n    tag_80:\n      pop\n      pop\n      pop\n      pop\n      mload(0x40)\n      returndatasize\n      not(0x1f)\n      0x1f\n      dup3\n      add\n      and\n      dup3\n      add\n      dup1\n      0x40\n      mstore\n      pop\n      dup2\n      add\n      swap1\n      tag_81\n      swap2\n      swap1\n      tag_82\n      jump\t// in\n    tag_81:\n        /* \"trustless cross-chain/trading pair formation/LBTM.sol\":2104:2186  uint256 newTokenId = gameItem.mint(stake.owner, \"\", newAttackPower, newExperience) */\n      swap1\n      pop\n        /* \"trustless cross-chain/trading pair formation/LBTM.sol\":2204:2210  stakes */\n      0x06\n        /* \"trustless cross-chain/trading pair formation/LBTM.sol\":2204:2219  stakes[stakeId] */\n      0x00\n        /* \"trustless cross-chain/trading pair formation/LBTM.sol\":2211:2218  stakeId */\n      dup8\n        /* \"trustless cross-chain/trading pair formation/LBTM.sol\":2204:2219  stakes[stakeId] */\n      dup2\n      mstore\n      0x20\n      add\n      swap1\n      dup2\n      mstore\n      0x20\n      add\n      0x00\n      keccak256\n      0x00\n        /* \"trustless cross-chain/trading pair formation/LBTM.sol\":2197:2219  delete stakes[stakeId] */\n      dup1\n      dup3\n      add\n      exp(0x0100, 0x00)\n      dup2\n      sload\n      swap1\n      0xffffffffffffffffffffffffffffffffffffffff\n      mul\n      not\n      and\n      swap1\n      sstore\n      0x01\n      dup3\n      add\n      0x00\n      swap1\n      sstore\n      0x02\n      dup3\n      add\n      0x00\n      swap1\n      sstore\n      0x03\n      dup3\n      add\n      0x00\n      swap1\n      sstore\n      pop\n      pop\n        /* \"trustless cross-chain/trading pair formation/LBTM.sol\":2235:2277  BurnedAndMinted(stake.tokenId, newTokenId) */\n      0x0953492253e6644c7b92e66165d8be578fdce14ecd4512ebe7be9a5ca998a31e\n        /* \"trustless cross-chain/trading pair formation/LBTM.sol\":2251:2256  stake */\n      dup4\n        /* \"trustless cross-chain/trading pair formation/LBTM.sol\":2251:2264  stake.tokenId */\n      0x01\n      add\n      sload\n        /* \"trustless cross-chain/trading pair formation/LBTM.sol\":2266:2276  newTokenId */\n      dup3\n        /* \"trustless cross-chain/trading pair formation/LBTM.sol\":2235:2277  BurnedAndMinted(stake.tokenId, newTokenId) */\n      mload(0x40)\n      tag_83\n      swap3\n      swap2\n      swap1\n      tag_84\n      jump\t// in\n    tag_83:\n      mload(0x40)\n      dup1\n      swap2\n      sub\n      swap1\n      log1\n        /* \"trustless cross-chain/trading pair formation/LBTM.sol\":1752:2284  {... */\n      pop\n      pop\n      pop\n        /* \"trustless cross-chain/trading pair formation/LBTM.sol\":1649:2284  function burnToMint(bytes32 stakeId, uint256 newAttackPower, uint256 newExperience) external onlyOwner {... */\n      pop\n      pop\n      pop\n      jump\t// out\n        /* \"trustless cross-chain/trading pair formation/LBTM.sol\":286:307  uint256 public deltaK */\n    tag_21:\n      sload(0x03)\n      dup2\n      jump\t// out\n        /* \"@openzeppelin/contracts/access/Ownable.sol\":1831:1932  function renounceOwnership() public virtual onlyOwner {... */\n    tag_25:\n        /* \"@openzeppelin/contracts/access/Ownable.sol\":1094:1107  _checkOwner() */\n      tag_86\n        /* \"@openzeppelin/contracts/access/Ownable.sol\":1094:1105  _checkOwner */\n      tag_64\n        /* \"@openzeppelin/contracts/access/Ownable.sol\":1094:1107  _checkOwner() */\n      jump\t// in\n    tag_86:\n        /* \"@openzeppelin/contracts/access/Ownable.sol\":1895:1925  _transferOwnership(address(0)) */\n      tag_88\n        /* \"@openzeppelin/contracts/access/Ownable.sol\":1922:1923  0 */\n      0x00\n        /* \"@openzeppelin/contracts/access/Ownable.sol\":1895:1913  _transferOwnership */\n      tag_89\n        /* \"@openzeppelin/contracts/access/Ownable.sol\":1895:1925  _transferOwnership(address(0)) */\n      jump\t// in\n    tag_88:\n        /* \"@openzeppelin/contracts/access/Ownable.sol\":1831:1932  function renounceOwnership() public virtual onlyOwner {... */\n      jump\t// out\n        /* \"trustless cross-chain/trading pair formation/LBTM.sol\":249:280  address public blackholeAddress */\n    tag_27:\n      0x02\n      0x00\n      swap1\n      sload\n      swap1\n      0x0100\n      exp\n      swap1\n      div\n      0xffffffffffffffffffffffffffffffffffffffff\n      and\n      dup2\n      jump\t// out\n        /* \"trustless cross-chain/trading pair formation/LBTM.sol\":2290:2409  function getStakeInfo(bytes32 stakeId) external view returns (StakeInfo memory) {... */\n    tag_33:\n        /* \"trustless cross-chain/trading pair formation/LBTM.sol\":2352:2368  StakeInfo memory */\n      tag_90\n      tag_91\n      jump\t// in\n    tag_90:\n        /* \"trustless cross-chain/trading pair formation/LBTM.sol\":2387:2393  stakes */\n      0x06\n        /* \"trustless cross-chain/trading pair formation/LBTM.sol\":2387:2402  stakes[stakeId] */\n      0x00\n        /* \"trustless cross-chain/trading pair formation/LBTM.sol\":2394:2401  stakeId */\n      dup4\n        /* \"trustless cross-chain/trading pair formation/LBTM.sol\":2387:2402  stakes[stakeId] */\n      dup2\n      mstore\n      0x20\n      add\n      swap1\n      dup2\n      mstore\n      0x20\n      add\n      0x00\n      keccak256\n        /* \"trustless cross-chain/trading pair formation/LBTM.sol\":2380:2402  return stakes[stakeId] */\n      mload(0x40)\n      dup1\n      0x80\n      add\n      0x40\n      mstore\n      swap1\n      dup2\n      0x00\n      dup3\n      add\n      0x00\n      swap1\n      sload\n      swap1\n      0x0100\n      exp\n      swap1\n      div\n      0xffffffffffffffffffffffffffffffffffffffff\n      and\n      0xffffffffffffffffffffffffffffffffffffffff\n      and\n      0xffffffffffffffffffffffffffffffffffffffff\n      and\n      dup2\n      mstore\n      0x20\n      add\n      0x01\n      dup3\n      add\n      sload\n      dup2\n      mstore\n      0x20\n      add\n      0x02\n      dup3\n      add\n      sload\n      dup2\n      mstore\n      0x20\n      add\n      0x03\n      dup3\n      add\n      sload\n      dup2\n      mstore\n      pop\n      pop\n      swap1\n      pop\n        /* \"trustless cross-chain/trading pair formation/LBTM.sol\":2290:2409  function getStakeInfo(bytes32 stakeId) external view returns (StakeInfo memory) {... */\n      swap2\n      swap1\n      pop\n      jump\t// out\n        /* \"trustless cross-chain/trading pair formation/LBTM.sol\":340:361  uint256 public deltaD */\n    tag_37:\n      sload(0x05)\n      dup2\n      jump\t// out\n        /* \"@openzeppelin/contracts/access/Ownable.sol\":1201:1286  function owner() public view virtual returns (address) {... */\n    tag_40:\n        /* \"@openzeppelin/contracts/access/Ownable.sol\":1247:1254  address */\n      0x00\n        /* \"@openzeppelin/contracts/access/Ownable.sol\":1273:1279  _owner */\n      dup1\n      0x00\n      swap1\n      sload\n      swap1\n      0x0100\n      exp\n      swap1\n      div\n      0xffffffffffffffffffffffffffffffffffffffff\n      and\n        /* \"@openzeppelin/contracts/access/Ownable.sol\":1266:1279  return _owner */\n      swap1\n      pop\n        /* \"@openzeppelin/contracts/access/Ownable.sol\":1201:1286  function owner() public view virtual returns (address) {... */\n      swap1\n      jump\t// out\n        /* \"trustless cross-chain/trading pair formation/LBTM.sol\":498:541  mapping(bytes32 => StakeInfo) public stakes */\n    tag_44:\n      mstore(0x20, 0x06)\n      dup1\n      0x00\n      mstore\n      keccak256(0x00, 0x40)\n      0x00\n      swap2\n      pop\n      swap1\n      pop\n      dup1\n      0x00\n      add\n      0x00\n      swap1\n      sload\n      swap1\n      0x0100\n      exp\n      swap1\n      div\n      0xffffffffffffffffffffffffffffffffffffffff\n      and\n      swap1\n      dup1\n      0x01\n      add\n      sload\n      swap1\n      dup1\n      0x02\n      add\n      sload\n      swap1\n      dup1\n      0x03\n      add\n      sload\n      swap1\n      pop\n      dup5\n      jump\t// out\n        /* \"trustless cross-chain/trading pair formation/LBTM.sol\":1061:1643  function lock(uint256 tokenId) external {... */\n    tag_50:\n        /* \"trustless cross-chain/trading pair formation/LBTM.sol\":1156:1166  msg.sender */\n      caller\n        /* \"trustless cross-chain/trading pair formation/LBTM.sol\":1119:1166  gameItemContract.ownerOf(tokenId) == msg.sender */\n      0xffffffffffffffffffffffffffffffffffffffff\n      and\n        /* \"trustless cross-chain/trading pair formation/LBTM.sol\":1119:1135  gameItemContract */\n      0x01\n      0x00\n      swap1\n      sload\n      swap1\n      0x0100\n      exp\n      swap1\n      div\n      0xffffffffffffffffffffffffffffffffffffffff\n      and\n        /* \"trustless cross-chain/trading pair formation/LBTM.sol\":1119:1143  gameItemContract.ownerOf */\n      0xffffffffffffffffffffffffffffffffffffffff\n      and\n      0x6352211e\n        /* \"trustless cross-chain/trading pair formation/LBTM.sol\":1144:1151  tokenId */\n      dup4\n        /* \"trustless cross-chain/trading pair formation/LBTM.sol\":1119:1152  gameItemContract.ownerOf(tokenId) */\n      mload(0x40)\n      dup3\n      0xffffffff\n      and\n      0xe0\n      shl\n      dup2\n      mstore\n      0x04\n      add\n      tag_95\n      swap2\n      swap1\n      tag_23\n      jump\t// in\n    tag_95:\n      0x20\n      mload(0x40)\n      dup1\n      dup4\n      sub\n      dup2\n      dup7\n      gas\n      staticcall\n      iszero\n      dup1\n      iszero\n      tag_97\n      jumpi\n      returndatasize\n      0x00\n      dup1\n      returndatacopy\n      revert(0x00, returndatasize)\n    tag_97:\n      pop\n      pop\n      pop\n      pop\n      mload(0x40)\n      returndatasize\n      not(0x1f)\n      0x1f\n      dup3\n      add\n      and\n      dup3\n      add\n      dup1\n      0x40\n      mstore\n      pop\n      dup2\n      add\n      swap1\n      tag_98\n      swap2\n      swap1\n      tag_99\n      jump\t// in\n    tag_98:\n        /* \"trustless cross-chain/trading pair formation/LBTM.sol\":1119:1166  gameItemContract.ownerOf(tokenId) == msg.sender */\n      0xffffffffffffffffffffffffffffffffffffffff\n      and\n      eq\n        /* \"trustless cross-chain/trading pair formation/LBTM.sol\":1111:1204  require(gameItemContract.ownerOf(tokenId) == msg.sender, \"You are not the owner of this NFT\") */\n      tag_100\n      jumpi\n      mload(0x40)\n      0x08c379a000000000000000000000000000000000000000000000000000000000\n      dup2\n      mstore\n      0x04\n      add\n      tag_101\n      swap1\n      tag_102\n      jump\t// in\n    tag_101:\n      mload(0x40)\n      dup1\n      swap2\n      sub\n      swap1\n      revert\n    tag_100:\n        /* \"trustless cross-chain/trading pair formation/LBTM.sol\":1223:1238  bytes32 stakeId */\n      0x00\n        /* \"trustless cross-chain/trading pair formation/LBTM.sol\":1268:1275  tokenId */\n      dup2\n        /* \"trustless cross-chain/trading pair formation/LBTM.sol\":1277:1287  msg.sender */\n      caller\n        /* \"trustless cross-chain/trading pair formation/LBTM.sol\":1289:1304  block.timestamp */\n      timestamp\n        /* \"trustless cross-chain/trading pair formation/LBTM.sol\":1251:1305  abi.encodePacked(tokenId, msg.sender, block.timestamp) */\n      add(0x20, mload(0x40))\n      tag_103\n      swap4\n      swap3\n      swap2\n      swap1\n      tag_104\n      jump\t// in\n    tag_103:\n      mload(0x40)\n      0x20\n      dup2\n      dup4\n      sub\n      sub\n      dup2\n      mstore\n      swap1\n      0x40\n      mstore\n        /* \"trustless cross-chain/trading pair formation/LBTM.sol\":1241:1306  keccak256(abi.encodePacked(tokenId, msg.sender, block.timestamp)) */\n      dup1\n      mload\n      swap1\n      0x20\n      add\n      keccak256\n        /* \"trustless cross-chain/trading pair formation/LBTM.sol\":1223:1306  bytes32 stakeId = keccak256(abi.encodePacked(tokenId, msg.sender, block.timestamp)) */\n      swap1\n      pop\n        /* \"trustless cross-chain/trading pair formation/LBTM.sol\":1316:1332  uint256 lockTime */\n      0x00\n        /* \"trustless cross-chain/trading pair formation/LBTM.sol\":1335:1350  block.timestamp */\n      timestamp\n        /* \"trustless cross-chain/trading pair formation/LBTM.sol\":1316:1350  uint256 lockTime = block.timestamp */\n      swap1\n      pop\n        /* \"trustless cross-chain/trading pair formation/LBTM.sol\":1360:1376  uint256 deadline */\n      0x00\n        /* \"trustless cross-chain/trading pair formation/LBTM.sol\":1408:1414  deltaD */\n      sload(0x05)\n        /* \"trustless cross-chain/trading pair formation/LBTM.sol\":1399:1405  deltaB */\n      sload(0x04)\n        /* \"trustless cross-chain/trading pair formation/LBTM.sol\":1390:1396  deltaK */\n      sload(0x03)\n        /* \"trustless cross-chain/trading pair formation/LBTM.sol\":1379:1387  lockTime */\n      dup5\n        /* \"trustless cross-chain/trading pair formation/LBTM.sol\":1379:1396  lockTime + deltaK */\n      tag_105\n      swap2\n      swap1\n      tag_106\n      jump\t// in\n    tag_105:\n        /* \"trustless cross-chain/trading pair formation/LBTM.sol\":1379:1405  lockTime + deltaK + deltaB */\n      tag_107\n      swap2\n      swap1\n      tag_106\n      jump\t// in\n    tag_107:\n        /* \"trustless cross-chain/trading pair formation/LBTM.sol\":1379:1414  lockTime + deltaK + deltaB + deltaD */\n      tag_108\n      swap2\n      swap1\n      tag_106\n      jump\t// in\n    tag_108:\n        /* \"trustless cross-chain/trading pair formation/LBTM.sol\":1360:1414  uint256 deadline = lockTime + deltaK + deltaB + deltaD */\n      swap1\n      pop\n        /* \"trustless cross-chain/trading pair formation/LBTM.sol\":1443:1493  StakeInfo(msg.sender, tokenId, lockTime, deadline) */\n      mload(0x40)\n      dup1\n      0x80\n      add\n      0x40\n      mstore\n      dup1\n        /* \"trustless cross-chain/trading pair formation/LBTM.sol\":1453:1463  msg.sender */\n      caller\n        /* \"trustless cross-chain/trading pair formation/LBTM.sol\":1443:1493  StakeInfo(msg.sender, tokenId, lockTime, deadline) */\n      0xffffffffffffffffffffffffffffffffffffffff\n      and\n      dup2\n      mstore\n      0x20\n      add\n        /* \"trustless cross-chain/trading pair formation/LBTM.sol\":1465:1472  tokenId */\n      dup6\n        /* \"trustless cross-chain/trading pair formation/LBTM.sol\":1443:1493  StakeInfo(msg.sender, tokenId, lockTime, deadline) */\n      dup2\n      mstore\n      0x20\n      add\n        /* \"trustless cross-chain/trading pair formation/LBTM.sol\":1474:1482  lockTime */\n      dup4\n        /* \"trustless cross-chain/trading pair formation/LBTM.sol\":1443:1493  StakeInfo(msg.sender, tokenId, lockTime, deadline) */\n      dup2\n      mstore\n      0x20\n      add\n        /* \"trustless cross-chain/trading pair formation/LBTM.sol\":1484:1492  deadline */\n      dup3\n        /* \"trustless cross-chain/trading pair formation/LBTM.sol\":1443:1493  StakeInfo(msg.sender, tokenId, lockTime, deadline) */\n      dup2\n      mstore\n      pop\n        /* \"trustless cross-chain/trading pair formation/LBTM.sol\":1425:1431  stakes */\n      0x06\n        /* \"trustless cross-chain/trading pair formation/LBTM.sol\":1425:1440  stakes[stakeId] */\n      0x00\n        /* \"trustless cross-chain/trading pair formation/LBTM.sol\":1432:1439  stakeId */\n      dup6\n        /* \"trustless cross-chain/trading pair formation/LBTM.sol\":1425:1440  stakes[stakeId] */\n      dup2\n      mstore\n      0x20\n      add\n      swap1\n      dup2\n      mstore\n      0x20\n      add\n      0x00\n      keccak256\n        /* \"trustless cross-chain/trading pair formation/LBTM.sol\":1425:1493  stakes[stakeId] = StakeInfo(msg.sender, tokenId, lockTime, deadline) */\n      0x00\n      dup3\n      add\n      mload\n      dup2\n      0x00\n      add\n      exp(0x0100, 0x00)\n      dup2\n      sload\n      dup2\n      0xffffffffffffffffffffffffffffffffffffffff\n      mul\n      not\n      and\n      swap1\n      dup4\n      0xffffffffffffffffffffffffffffffffffffffff\n      and\n      mul\n      or\n      swap1\n      sstore\n      pop\n      0x20\n      dup3\n      add\n      mload\n      dup2\n      0x01\n      add\n      sstore\n      0x40\n      dup3\n      add\n      mload\n      dup2\n      0x02\n      add\n      sstore\n      0x60\n      dup3\n      add\n      mload\n      dup2\n      0x03\n      add\n      sstore\n      swap1\n      pop\n      pop\n        /* \"trustless cross-chain/trading pair formation/LBTM.sol\":1504:1520  gameItemContract */\n      0x01\n      0x00\n      swap1\n      sload\n      swap1\n      0x0100\n      exp\n      swap1\n      div\n      0xffffffffffffffffffffffffffffffffffffffff\n      and\n        /* \"trustless cross-chain/trading pair formation/LBTM.sol\":1504:1533  gameItemContract.transferFrom */\n      0xffffffffffffffffffffffffffffffffffffffff\n      and\n      0x23b872dd\n        /* \"trustless cross-chain/trading pair formation/LBTM.sol\":1534:1544  msg.sender */\n      caller\n        /* \"trustless cross-chain/trading pair formation/LBTM.sol\":1554:1558  this */\n      address\n        /* \"trustless cross-chain/trading pair formation/LBTM.sol\":1561:1568  tokenId */\n      dup8\n        /* \"trustless cross-chain/trading pair formation/LBTM.sol\":1504:1569  gameItemContract.transferFrom(msg.sender, address(this), tokenId) */\n      mload(0x40)\n      dup5\n      0xffffffff\n      and\n      0xe0\n      shl\n      dup2\n      mstore\n      0x04\n      add\n      tag_109\n      swap4\n      swap3\n      swap2\n      swap1\n      tag_73\n      jump\t// in\n    tag_109:\n      0x00\n      mload(0x40)\n      dup1\n      dup4\n      sub\n      dup2\n      0x00\n      dup8\n      dup1\n      extcodesize\n      iszero\n      dup1\n      iszero\n      tag_110\n      jumpi\n      0x00\n      dup1\n      revert\n    tag_110:\n      pop\n      gas\n      call\n      iszero\n      dup1\n      iszero\n      tag_112\n      jumpi\n      returndatasize\n      0x00\n      dup1\n      returndatacopy\n      revert(0x00, returndatasize)\n    tag_112:\n      pop\n      pop\n      pop\n      pop\n        /* \"trustless cross-chain/trading pair formation/LBTM.sol\":1585:1636  StakeLocked(stakeId, msg.sender, tokenId, deadline) */\n      0xe42732012f91412364b2848d4c8c3d8dd5508e0a5a0f60d6e1de7843145ea5c0\n        /* \"trustless cross-chain/trading pair formation/LBTM.sol\":1597:1604  stakeId */\n      dup4\n        /* \"trustless cross-chain/trading pair formation/LBTM.sol\":1606:1616  msg.sender */\n      caller\n        /* \"trustless cross-chain/trading pair formation/LBTM.sol\":1618:1625  tokenId */\n      dup7\n        /* \"trustless cross-chain/trading pair formation/LBTM.sol\":1627:1635  deadline */\n      dup5\n        /* \"trustless cross-chain/trading pair formation/LBTM.sol\":1585:1636  StakeLocked(stakeId, msg.sender, tokenId, deadline) */\n      mload(0x40)\n      tag_113\n      swap5\n      swap4\n      swap3\n      swap2\n      swap1\n      tag_114\n      jump\t// in\n    tag_113:\n      mload(0x40)\n      dup1\n      swap2\n      sub\n      swap1\n      log1\n        /* \"trustless cross-chain/trading pair formation/LBTM.sol\":1101:1643  {... */\n      pop\n      pop\n      pop\n        /* \"trustless cross-chain/trading pair formation/LBTM.sol\":1061:1643  function lock(uint256 tokenId) external {... */\n      pop\n      jump\t// out\n        /* \"trustless cross-chain/trading pair formation/LBTM.sol\":313:334  uint256 public deltaB */\n    tag_52:\n      sload(0x04)\n      dup2\n      jump\t// out\n        /* \"@openzeppelin/contracts/access/Ownable.sol\":2081:2279  function transferOwnership(address newOwner) public virtual onlyOwner {... */\n    tag_57:\n        /* \"@openzeppelin/contracts/access/Ownable.sol\":1094:1107  _checkOwner() */\n      tag_116\n        /* \"@openzeppelin/contracts/access/Ownable.sol\":1094:1105  _checkOwner */\n      tag_64\n        /* \"@openzeppelin/contracts/access/Ownable.sol\":1094:1107  _checkOwner() */\n      jump\t// in\n    tag_116:\n        /* \"@openzeppelin/contracts/access/Ownable.sol\":2189:2190  0 */\n      0x00\n        /* \"@openzeppelin/contracts/access/Ownable.sol\":2169:2191  newOwner != address(0) */\n      0xffffffffffffffffffffffffffffffffffffffff\n      and\n        /* \"@openzeppelin/contracts/access/Ownable.sol\":2169:2177  newOwner */\n      dup2\n        /* \"@openzeppelin/contracts/access/Ownable.sol\":2169:2191  newOwner != address(0) */\n      0xffffffffffffffffffffffffffffffffffffffff\n      and\n      sub\n        /* \"@openzeppelin/contracts/access/Ownable.sol\":2161:2234  require(newOwner != address(0), \"Ownable: new owner is the zero address\") */\n      tag_118\n      jumpi\n      mload(0x40)\n      0x08c379a000000000000000000000000000000000000000000000000000000000\n      dup2\n      mstore\n      0x04\n      add\n      tag_119\n      swap1\n      tag_120\n      jump\t// in\n    tag_119:\n      mload(0x40)\n      dup1\n      swap2\n      sub\n      swap1\n      revert\n    tag_118:\n        /* \"@openzeppelin/contracts/access/Ownable.sol\":2244:2272  _transferOwnership(newOwner) */\n      tag_121\n        /* \"@openzeppelin/contracts/access/Ownable.sol\":2263:2271  newOwner */\n      dup2\n        /* \"@openzeppelin/contracts/access/Ownable.sol\":2244:2262  _transferOwnership */\n      tag_89\n        /* \"@openzeppelin/contracts/access/Ownable.sol\":2244:2272  _transferOwnership(newOwner) */\n      jump\t// in\n    tag_121:\n        /* \"@openzeppelin/contracts/access/Ownable.sol\":2081:2279  function transferOwnership(address newOwner) public virtual onlyOwner {... */\n      pop\n      jump\t// out\n        /* \"trustless cross-chain/trading pair formation/LBTM.sol\":212:243  IERC721 public gameItemContract */\n    tag_59:\n      0x01\n      0x00\n      swap1\n      sload\n      swap1\n      0x0100\n      exp\n      swap1\n      div\n      0xffffffffffffffffffffffffffffffffffffffff\n      and\n      dup2\n      jump\t// out\n        /* \"@openzeppelin/contracts/access/Ownable.sol\":1359:1489  function _checkOwner() internal view virtual {... */\n    tag_64:\n        /* \"@openzeppelin/contracts/access/Ownable.sol\":1433:1445  _msgSender() */\n      tag_123\n        /* \"@openzeppelin/contracts/access/Ownable.sol\":1433:1443  _msgSender */\n      tag_124\n        /* \"@openzeppelin/contracts/access/Ownable.sol\":1433:1445  _msgSender() */\n      jump\t// in\n    tag_123:\n        /* \"@openzeppelin/contracts/access/Ownable.sol\":1422:1445  owner() == _msgSender() */\n      0xffffffffffffffffffffffffffffffffffffffff\n      and\n        /* \"@openzeppelin/contracts/access/Ownable.sol\":1422:1429  owner() */\n      tag_125\n        /* \"@openzeppelin/contracts/access/Ownable.sol\":1422:1427  owner */\n      tag_40\n        /* \"@openzeppelin/contracts/access/Ownable.sol\":1422:1429  owner() */\n      jump\t// in\n    tag_125:\n        /* \"@openzeppelin/contracts/access/Ownable.sol\":1422:1445  owner() == _msgSender() */\n      0xffffffffffffffffffffffffffffffffffffffff\n      and\n      eq\n        /* \"@openzeppelin/contracts/access/Ownable.sol\":1414:1482  require(owner() == _msgSender(), \"Ownable: caller is not the owner\") */\n      tag_126\n      jumpi\n      mload(0x40)\n      0x08c379a000000000000000000000000000000000000000000000000000000000\n      dup2\n      mstore\n      0x04\n      add\n      tag_127\n      swap1\n      tag_128\n      jump\t// in\n    tag_127:\n      mload(0x40)\n      dup1\n      swap2\n      sub\n      swap1\n      revert\n    tag_126:\n        /* \"@openzeppelin/contracts/access/Ownable.sol\":1359:1489  function _checkOwner() internal view virtual {... */\n      jump\t// out\n        /* \"@openzeppelin/contracts/access/Ownable.sol\":2433:2620  function _transferOwnership(address newOwner) internal virtual {... */\n    tag_89:\n        /* \"@openzeppelin/contracts/access/Ownable.sol\":2506:2522  address oldOwner */\n      0x00\n        /* \"@openzeppelin/contracts/access/Ownable.sol\":2525:2531  _owner */\n      dup1\n      0x00\n      swap1\n      sload\n      swap1\n      0x0100\n      exp\n      swap1\n      div\n      0xffffffffffffffffffffffffffffffffffffffff\n      and\n        /* \"@openzeppelin/contracts/access/Ownable.sol\":2506:2531  address oldOwner = _owner */\n      swap1\n      pop\n        /* \"@openzeppelin/contracts/access/Ownable.sol\":2550:2558  newOwner */\n      dup2\n        /* \"@openzeppelin/contracts/access/Ownable.sol\":2541:2547  _owner */\n      0x00\n      dup1\n        /* \"@openzeppelin/contracts/access/Ownable.sol\":2541:2558  _owner = newOwner */\n      0x0100\n      exp\n      dup2\n      sload\n      dup2\n      0xffffffffffffffffffffffffffffffffffffffff\n      mul\n      not\n      and\n      swap1\n      dup4\n      0xffffffffffffffffffffffffffffffffffffffff\n      and\n      mul\n      or\n      swap1\n      sstore\n      pop\n        /* \"@openzeppelin/contracts/access/Ownable.sol\":2604:2612  newOwner */\n      dup2\n        /* \"@openzeppelin/contracts/access/Ownable.sol\":2573:2613  OwnershipTransferred(oldOwner, newOwner) */\n      0xffffffffffffffffffffffffffffffffffffffff\n      and\n        /* \"@openzeppelin/contracts/access/Ownable.sol\":2594:2602  oldOwner */\n      dup2\n        /* \"@openzeppelin/contracts/access/Ownable.sol\":2573:2613  OwnershipTransferred(oldOwner, newOwner) */\n      0xffffffffffffffffffffffffffffffffffffffff\n      and\n      0x8be0079c531659141344cd1fd0a4f28419497f9722a3daafe3b4186f6b6457e0\n      mload(0x40)\n      mload(0x40)\n      dup1\n      swap2\n      sub\n      swap1\n      log3\n        /* \"@openzeppelin/contracts/access/Ownable.sol\":2496:2620  {... */\n      pop\n        /* \"@openzeppelin/contracts/access/Ownable.sol\":2433:2620  function _transferOwnership(address newOwner) internal virtual {... */\n      pop\n      jump\t// out\n        /* \"@openzeppelin/contracts/utils/Context.sol\":640:736  function _msgSender() internal view virtual returns (address) {... */\n    tag_124:\n        /* \"@openzeppelin/contracts/utils/Context.sol\":693:700  address */\n      0x00\n        /* \"@openzeppelin/contracts/utils/Context.sol\":719:729  msg.sender */\n      caller\n        /* \"@openzeppelin/contracts/utils/Context.sol\":712:729  return msg.sender */\n      swap1\n      pop\n        /* \"@openzeppelin/contracts/utils/Context.sol\":640:736  function _msgSender() internal view virtual returns (address) {... */\n      swap1\n      jump\t// out\n    tag_91:\n      mload(0x40)\n      dup1\n      0x80\n      add\n      0x40\n      mstore\n      dup1\n      and(0xffffffffffffffffffffffffffffffffffffffff, 0x00)\n      dup2\n      mstore\n      0x20\n      add\n      0x00\n      dup2\n      mstore\n      0x20\n      add\n      0x00\n      dup2\n      mstore\n      0x20\n      add\n      0x00\n      dup2\n      mstore\n      pop\n      swap1\n      jump\t// out\n        /* \"#utility.yul\":88:205   */\n    tag_132:\n        /* \"#utility.yul\":197:198   */\n      0x00\n        /* \"#utility.yul\":194:195   */\n      dup1\n        /* \"#utility.yul\":187:199   */\n      revert\n        /* \"#utility.yul\":334:411   */\n    tag_134:\n        /* \"#utility.yul\":371:378   */\n      0x00\n        /* \"#utility.yul\":400:405   */\n      dup2\n        /* \"#utility.yul\":389:405   */\n      swap1\n      pop\n        /* \"#utility.yul\":334:411   */\n      swap2\n      swap1\n      pop\n      jump\t// out\n        /* \"#utility.yul\":417:539   */\n    tag_135:\n        /* \"#utility.yul\":490:514   */\n      tag_183\n        /* \"#utility.yul\":508:513   */\n      dup2\n        /* \"#utility.yul\":490:514   */\n      tag_134\n      jump\t// in\n    tag_183:\n        /* \"#utility.yul\":483:488   */\n      dup2\n        /* \"#utility.yul\":480:515   */\n      eq\n        /* \"#utility.yul\":470:533   */\n      tag_184\n      jumpi\n        /* \"#utility.yul\":529:530   */\n      0x00\n        /* \"#utility.yul\":526:527   */\n      dup1\n        /* \"#utility.yul\":519:531   */\n      revert\n        /* \"#utility.yul\":470:533   */\n    tag_184:\n        /* \"#utility.yul\":417:539   */\n      pop\n      jump\t// out\n        /* \"#utility.yul\":545:684   */\n    tag_136:\n        /* \"#utility.yul\":591:596   */\n      0x00\n        /* \"#utility.yul\":629:635   */\n      dup2\n        /* \"#utility.yul\":616:636   */\n      calldataload\n        /* \"#utility.yul\":607:636   */\n      swap1\n      pop\n        /* \"#utility.yul\":645:678   */\n      tag_186\n        /* \"#utility.yul\":672:677   */\n      dup2\n        /* \"#utility.yul\":645:678   */\n      tag_135\n      jump\t// in\n    tag_186:\n        /* \"#utility.yul\":545:684   */\n      swap3\n      swap2\n      pop\n      pop\n      jump\t// out\n        /* \"#utility.yul\":690:767   */\n    tag_137:\n        /* \"#utility.yul\":727:734   */\n      0x00\n        /* \"#utility.yul\":756:761   */\n      dup2\n        /* \"#utility.yul\":745:761   */\n      swap1\n      pop\n        /* \"#utility.yul\":690:767   */\n      swap2\n      swap1\n      pop\n      jump\t// out\n        /* \"#utility.yul\":773:895   */\n    tag_138:\n        /* \"#utility.yul\":846:870   */\n      tag_189\n        /* \"#utility.yul\":864:869   */\n      dup2\n        /* \"#utility.yul\":846:870   */\n      tag_137\n      jump\t// in\n    tag_189:\n        /* \"#utility.yul\":839:844   */\n      dup2\n        /* \"#utility.yul\":836:871   */\n      eq\n        /* \"#utility.yul\":826:889   */\n      tag_190\n      jumpi\n        /* \"#utility.yul\":885:886   */\n      0x00\n        /* \"#utility.yul\":882:883   */\n      dup1\n        /* \"#utility.yul\":875:887   */\n      revert\n        /* \"#utility.yul\":826:889   */\n    tag_190:\n        /* \"#utility.yul\":773:895   */\n      pop\n      jump\t// out\n        /* \"#utility.yul\":901:1040   */\n    tag_139:\n        /* \"#utility.yul\":947:952   */\n      0x00\n        /* \"#utility.yul\":985:991   */\n      dup2\n        /* \"#utility.yul\":972:992   */\n      calldataload\n        /* \"#utility.yul\":963:992   */\n      swap1\n      pop\n        /* \"#utility.yul\":1001:1034   */\n      tag_192\n        /* \"#utility.yul\":1028:1033   */\n      dup2\n        /* \"#utility.yul\":1001:1034   */\n      tag_138\n      jump\t// in\n    tag_192:\n        /* \"#utility.yul\":901:1040   */\n      swap3\n      swap2\n      pop\n      pop\n      jump\t// out\n        /* \"#utility.yul\":1046:1665   */\n    tag_18:\n        /* \"#utility.yul\":1123:1129   */\n      0x00\n        /* \"#utility.yul\":1131:1137   */\n      dup1\n        /* \"#utility.yul\":1139:1145   */\n      0x00\n        /* \"#utility.yul\":1188:1190   */\n      0x60\n        /* \"#utility.yul\":1176:1185   */\n      dup5\n        /* \"#utility.yul\":1167:1174   */\n      dup7\n        /* \"#utility.yul\":1163:1186   */\n      sub\n        /* \"#utility.yul\":1159:1191   */\n      slt\n        /* \"#utility.yul\":1156:1275   */\n      iszero\n      tag_194\n      jumpi\n        /* \"#utility.yul\":1194:1273   */\n      tag_195\n      tag_132\n      jump\t// in\n    tag_195:\n        /* \"#utility.yul\":1156:1275   */\n    tag_194:\n        /* \"#utility.yul\":1314:1315   */\n      0x00\n        /* \"#utility.yul\":1339:1392   */\n      tag_196\n        /* \"#utility.yul\":1384:1391   */\n      dup7\n        /* \"#utility.yul\":1375:1381   */\n      dup3\n        /* \"#utility.yul\":1364:1373   */\n      dup8\n        /* \"#utility.yul\":1360:1382   */\n      add\n        /* \"#utility.yul\":1339:1392   */\n      tag_136\n      jump\t// in\n    tag_196:\n        /* \"#utility.yul\":1329:1392   */\n      swap4\n      pop\n        /* \"#utility.yul\":1285:1402   */\n      pop\n        /* \"#utility.yul\":1441:1443   */\n      0x20\n        /* \"#utility.yul\":1467:1520   */\n      tag_197\n        /* \"#utility.yul\":1512:1519   */\n      dup7\n        /* \"#utility.yul\":1503:1509   */\n      dup3\n        /* \"#utility.yul\":1492:1501   */\n      dup8\n        /* \"#utility.yul\":1488:1510   */\n      add\n        /* \"#utility.yul\":1467:1520   */\n      tag_139\n      jump\t// in\n    tag_197:\n        /* \"#utility.yul\":1457:1520   */\n      swap3\n      pop\n        /* \"#utility.yul\":1412:1530   */\n      pop\n        /* \"#utility.yul\":1569:1571   */\n      0x40\n        /* \"#utility.yul\":1595:1648   */\n      tag_198\n        /* \"#utility.yul\":1640:1647   */\n      dup7\n        /* \"#utility.yul\":1631:1637   */\n      dup3\n        /* \"#utility.yul\":1620:1629   */\n      dup8\n        /* \"#utility.yul\":1616:1638   */\n      add\n        /* \"#utility.yul\":1595:1648   */\n      tag_139\n      jump\t// in\n    tag_198:\n        /* \"#utility.yul\":1585:1648   */\n      swap2\n      pop\n        /* \"#utility.yul\":1540:1658   */\n      pop\n        /* \"#utility.yul\":1046:1665   */\n      swap3\n      pop\n      swap3\n      pop\n      swap3\n      jump\t// out\n        /* \"#utility.yul\":1671:1789   */\n    tag_140:\n        /* \"#utility.yul\":1758:1782   */\n      tag_200\n        /* \"#utility.yul\":1776:1781   */\n      dup2\n        /* \"#utility.yul\":1758:1782   */\n      tag_137\n      jump\t// in\n    tag_200:\n        /* \"#utility.yul\":1753:1756   */\n      dup3\n        /* \"#utility.yul\":1746:1783   */\n      mstore\n        /* \"#utility.yul\":1671:1789   */\n      pop\n      pop\n      jump\t// out\n        /* \"#utility.yul\":1795:2017   */\n    tag_23:\n        /* \"#utility.yul\":1888:1892   */\n      0x00\n        /* \"#utility.yul\":1926:1928   */\n      0x20\n        /* \"#utility.yul\":1915:1924   */\n      dup3\n        /* \"#utility.yul\":1911:1929   */\n      add\n        /* \"#utility.yul\":1903:1929   */\n      swap1\n      pop\n        /* \"#utility.yul\":1939:2010   */\n      tag_202\n        /* \"#utility.yul\":2007:2008   */\n      0x00\n        /* \"#utility.yul\":1996:2005   */\n      dup4\n        /* \"#utility.yul\":1992:2009   */\n      add\n        /* \"#utility.yul\":1983:1989   */\n      dup5\n        /* \"#utility.yul\":1939:2010   */\n      tag_140\n      jump\t// in\n    tag_202:\n        /* \"#utility.yul\":1795:2017   */\n      swap3\n      swap2\n      pop\n      pop\n      jump\t// out\n        /* \"#utility.yul\":2023:2149   */\n    tag_141:\n        /* \"#utility.yul\":2060:2067   */\n      0x00\n        /* \"#utility.yul\":2100:2142   */\n      0xffffffffffffffffffffffffffffffffffffffff\n        /* \"#utility.yul\":2093:2098   */\n      dup3\n        /* \"#utility.yul\":2089:2143   */\n      and\n        /* \"#utility.yul\":2078:2143   */\n      swap1\n      pop\n        /* \"#utility.yul\":2023:2149   */\n      swap2\n      swap1\n      pop\n      jump\t// out\n        /* \"#utility.yul\":2155:2251   */\n    tag_142:\n        /* \"#utility.yul\":2192:2199   */\n      0x00\n        /* \"#utility.yul\":2221:2245   */\n      tag_205\n        /* \"#utility.yul\":2239:2244   */\n      dup3\n        /* \"#utility.yul\":2221:2245   */\n      tag_141\n      jump\t// in\n    tag_205:\n        /* \"#utility.yul\":2210:2245   */\n      swap1\n      pop\n        /* \"#utility.yul\":2155:2251   */\n      swap2\n      swap1\n      pop\n      jump\t// out\n        /* \"#utility.yul\":2257:2375   */\n    tag_143:\n        /* \"#utility.yul\":2344:2368   */\n      tag_207\n        /* \"#utility.yul\":2362:2367   */\n      dup2\n        /* \"#utility.yul\":2344:2368   */\n      tag_142\n      jump\t// in\n    tag_207:\n        /* \"#utility.yul\":2339:2342   */\n      dup3\n        /* \"#utility.yul\":2332:2369   */\n      mstore\n        /* \"#utility.yul\":2257:2375   */\n      pop\n      pop\n      jump\t// out\n        /* \"#utility.yul\":2381:2603   */\n    tag_29:\n        /* \"#utility.yul\":2474:2478   */\n      0x00\n        /* \"#utility.yul\":2512:2514   */\n      0x20\n        /* \"#utility.yul\":2501:2510   */\n      dup3\n        /* \"#utility.yul\":2497:2515   */\n      add\n        /* \"#utility.yul\":2489:2515   */\n      swap1\n      pop\n        /* \"#utility.yul\":2525:2596   */\n      tag_209\n        /* \"#utility.yul\":2593:2594   */\n      0x00\n        /* \"#utility.yul\":2582:2591   */\n      dup4\n        /* \"#utility.yul\":2578:2595   */\n      add\n        /* \"#utility.yul\":2569:2575   */\n      dup5\n        /* \"#utility.yul\":2525:2596   */\n      tag_143\n      jump\t// in\n    tag_209:\n        /* \"#utility.yul\":2381:2603   */\n      swap3\n      swap2\n      pop\n      pop\n      jump\t// out\n        /* \"#utility.yul\":2609:2938   */\n    tag_32:\n        /* \"#utility.yul\":2668:2674   */\n      0x00\n        /* \"#utility.yul\":2717:2719   */\n      0x20\n        /* \"#utility.yul\":2705:2714   */\n      dup3\n        /* \"#utility.yul\":2696:2703   */\n      dup5\n        /* \"#utility.yul\":2692:2715   */\n      sub\n        /* \"#utility.yul\":2688:2720   */\n      slt\n        /* \"#utility.yul\":2685:2804   */\n      iszero\n      tag_211\n      jumpi\n        /* \"#utility.yul\":2723:2802   */\n      tag_212\n      tag_132\n      jump\t// in\n    tag_212:\n        /* \"#utility.yul\":2685:2804   */\n    tag_211:\n        /* \"#utility.yul\":2843:2844   */\n      0x00\n        /* \"#utility.yul\":2868:2921   */\n      tag_213\n        /* \"#utility.yul\":2913:2920   */\n      dup5\n        /* \"#utility.yul\":2904:2910   */\n      dup3\n        /* \"#utility.yul\":2893:2902   */\n      dup6\n        /* \"#utility.yul\":2889:2911   */\n      add\n        /* \"#utility.yul\":2868:2921   */\n      tag_136\n      jump\t// in\n    tag_213:\n        /* \"#utility.yul\":2858:2921   */\n      swap2\n      pop\n        /* \"#utility.yul\":2814:2931   */\n      pop\n        /* \"#utility.yul\":2609:2938   */\n      swap3\n      swap2\n      pop\n      pop\n      jump\t// out\n        /* \"#utility.yul\":2944:3052   */\n    tag_144:\n        /* \"#utility.yul\":3021:3045   */\n      tag_215\n        /* \"#utility.yul\":3039:3044   */\n      dup2\n        /* \"#utility.yul\":3021:3045   */\n      tag_142\n      jump\t// in\n    tag_215:\n        /* \"#utility.yul\":3016:3019   */\n      dup3\n        /* \"#utility.yul\":3009:3046   */\n      mstore\n        /* \"#utility.yul\":2944:3052   */\n      pop\n      pop\n      jump\t// out\n        /* \"#utility.yul\":3058:3166   */\n    tag_145:\n        /* \"#utility.yul\":3135:3159   */\n      tag_217\n        /* \"#utility.yul\":3153:3158   */\n      dup2\n        /* \"#utility.yul\":3135:3159   */\n      tag_137\n      jump\t// in\n    tag_217:\n        /* \"#utility.yul\":3130:3133   */\n      dup3\n        /* \"#utility.yul\":3123:3160   */\n      mstore\n        /* \"#utility.yul\":3058:3166   */\n      pop\n      pop\n      jump\t// out\n        /* \"#utility.yul\":3248:4117   */\n    tag_146:\n        /* \"#utility.yul\":3397:3401   */\n      0x80\n        /* \"#utility.yul\":3392:3395   */\n      dup3\n        /* \"#utility.yul\":3388:3402   */\n      add\n        /* \"#utility.yul\":3485:3489   */\n      0x00\n        /* \"#utility.yul\":3478:3483   */\n      dup3\n        /* \"#utility.yul\":3474:3490   */\n      add\n        /* \"#utility.yul\":3468:3491   */\n      mload\n        /* \"#utility.yul\":3504:3567   */\n      tag_219\n        /* \"#utility.yul\":3561:3565   */\n      0x00\n        /* \"#utility.yul\":3556:3559   */\n      dup6\n        /* \"#utility.yul\":3552:3566   */\n      add\n        /* \"#utility.yul\":3538:3550   */\n      dup3\n        /* \"#utility.yul\":3504:3567   */\n      tag_144\n      jump\t// in\n    tag_219:\n        /* \"#utility.yul\":3412:3577   */\n      pop\n        /* \"#utility.yul\":3662:3666   */\n      0x20\n        /* \"#utility.yul\":3655:3660   */\n      dup3\n        /* \"#utility.yul\":3651:3667   */\n      add\n        /* \"#utility.yul\":3645:3668   */\n      mload\n        /* \"#utility.yul\":3681:3744   */\n      tag_220\n        /* \"#utility.yul\":3738:3742   */\n      0x20\n        /* \"#utility.yul\":3733:3736   */\n      dup6\n        /* \"#utility.yul\":3729:3743   */\n      add\n        /* \"#utility.yul\":3715:3727   */\n      dup3\n        /* \"#utility.yul\":3681:3744   */\n      tag_145\n      jump\t// in\n    tag_220:\n        /* \"#utility.yul\":3587:3754   */\n      pop\n        /* \"#utility.yul\":3840:3844   */\n      0x40\n        /* \"#utility.yul\":3833:3838   */\n      dup3\n        /* \"#utility.yul\":3829:3845   */\n      add\n        /* \"#utility.yul\":3823:3846   */\n      mload\n        /* \"#utility.yul\":3859:3922   */\n      tag_221\n        /* \"#utility.yul\":3916:3920   */\n      0x40\n        /* \"#utility.yul\":3911:3914   */\n      dup6\n        /* \"#utility.yul\":3907:3921   */\n      add\n        /* \"#utility.yul\":3893:3905   */\n      dup3\n        /* \"#utility.yul\":3859:3922   */\n      tag_145\n      jump\t// in\n    tag_221:\n        /* \"#utility.yul\":3764:3932   */\n      pop\n        /* \"#utility.yul\":4018:4022   */\n      0x60\n        /* \"#utility.yul\":4011:4016   */\n      dup3\n        /* \"#utility.yul\":4007:4023   */\n      add\n        /* \"#utility.yul\":4001:4024   */\n      mload\n        /* \"#utility.yul\":4037:4100   */\n      tag_222\n        /* \"#utility.yul\":4094:4098   */\n      0x60\n        /* \"#utility.yul\":4089:4092   */\n      dup6\n        /* \"#utility.yul\":4085:4099   */\n      add\n        /* \"#utility.yul\":4071:4083   */\n      dup3\n        /* \"#utility.yul\":4037:4100   */\n      tag_145\n      jump\t// in\n    tag_222:\n        /* \"#utility.yul\":3942:4110   */\n      pop\n        /* \"#utility.yul\":3366:4117   */\n      pop\n        /* \"#utility.yul\":3248:4117   */\n      pop\n      pop\n      jump\t// out\n        /* \"#utility.yul\":4123:4450   */\n    tag_35:\n        /* \"#utility.yul\":4268:4272   */\n      0x00\n        /* \"#utility.yul\":4306:4309   */\n      0x80\n        /* \"#utility.yul\":4295:4304   */\n      dup3\n        /* \"#utility.yul\":4291:4310   */\n      add\n        /* \"#utility.yul\":4283:4310   */\n      swap1\n      pop\n        /* \"#utility.yul\":4320:4443   */\n      tag_224\n        /* \"#utility.yul\":4440:4441   */\n      0x00\n        /* \"#utility.yul\":4429:4438   */\n      dup4\n        /* \"#utility.yul\":4425:4442   */\n      add\n        /* \"#utility.yul\":4416:4422   */\n      dup5\n        /* \"#utility.yul\":4320:4443   */\n      tag_146\n      jump\t// in\n    tag_224:\n        /* \"#utility.yul\":4123:4450   */\n      swap3\n      swap2\n      pop\n      pop\n      jump\t// out\n        /* \"#utility.yul\":4456:5009   */\n    tag_46:\n        /* \"#utility.yul\":4633:4637   */\n      0x00\n        /* \"#utility.yul\":4671:4674   */\n      0x80\n        /* \"#utility.yul\":4660:4669   */\n      dup3\n        /* \"#utility.yul\":4656:4675   */\n      add\n        /* \"#utility.yul\":4648:4675   */\n      swap1\n      pop\n        /* \"#utility.yul\":4685:4756   */\n      tag_226\n        /* \"#utility.yul\":4753:4754   */\n      0x00\n        /* \"#utility.yul\":4742:4751   */\n      dup4\n        /* \"#utility.yul\":4738:4755   */\n      add\n        /* \"#utility.yul\":4729:4735   */\n      dup8\n        /* \"#utility.yul\":4685:4756   */\n      tag_143\n      jump\t// in\n    tag_226:\n        /* \"#utility.yul\":4766:4838   */\n      tag_227\n        /* \"#utility.yul\":4834:4836   */\n      0x20\n        /* \"#utility.yul\":4823:4832   */\n      dup4\n        /* \"#utility.yul\":4819:4837   */\n      add\n        /* \"#utility.yul\":4810:4816   */\n      dup7\n        /* \"#utility.yul\":4766:4838   */\n      tag_140\n      jump\t// in\n    tag_227:\n        /* \"#utility.yul\":4848:4920   */\n      tag_228\n        /* \"#utility.yul\":4916:4918   */\n      0x40\n        /* \"#utility.yul\":4905:4914   */\n      dup4\n        /* \"#utility.yul\":4901:4919   */\n      add\n        /* \"#utility.yul\":4892:4898   */\n      dup6\n        /* \"#utility.yul\":4848:4920   */\n      tag_140\n      jump\t// in\n    tag_228:\n        /* \"#utility.yul\":4930:5002   */\n      tag_229\n        /* \"#utility.yul\":4998:5000   */\n      0x60\n        /* \"#utility.yul\":4987:4996   */\n      dup4\n        /* \"#utility.yul\":4983:5001   */\n      add\n        /* \"#utility.yul\":4974:4980   */\n      dup5\n        /* \"#utility.yul\":4930:5002   */\n      tag_140\n      jump\t// in\n    tag_229:\n        /* \"#utility.yul\":4456:5009   */\n      swap6\n      swap5\n      pop\n      pop\n      pop\n      pop\n      pop\n      jump\t// out\n        /* \"#utility.yul\":5015:5344   */\n    tag_49:\n        /* \"#utility.yul\":5074:5080   */\n      0x00\n        /* \"#utility.yul\":5123:5125   */\n      0x20\n        /* \"#utility.yul\":5111:5120   */\n      dup3\n        /* \"#utility.yul\":5102:5109   */\n      dup5\n        /* \"#utility.yul\":5098:5121   */\n      sub\n        /* \"#utility.yul\":5094:5126   */\n      slt\n        /* \"#utility.yul\":5091:5210   */\n      iszero\n      tag_231\n      jumpi\n        /* \"#utility.yul\":5129:5208   */\n      tag_232\n      tag_132\n      jump\t// in\n    tag_232:\n        /* \"#utility.yul\":5091:5210   */\n    tag_231:\n        /* \"#utility.yul\":5249:5250   */\n      0x00\n        /* \"#utility.yul\":5274:5327   */\n      tag_233\n        /* \"#utility.yul\":5319:5326   */\n      dup5\n        /* \"#utility.yul\":5310:5316   */\n      dup3\n        /* \"#utility.yul\":5299:5308   */\n      dup6\n        /* \"#utility.yul\":5295:5317   */\n      add\n        /* \"#utility.yul\":5274:5327   */\n      tag_139\n      jump\t// in\n    tag_233:\n        /* \"#utility.yul\":5264:5327   */\n      swap2\n      pop\n        /* \"#utility.yul\":5220:5337   */\n      pop\n        /* \"#utility.yul\":5015:5344   */\n      swap3\n      swap2\n      pop\n      pop\n      jump\t// out\n        /* \"#utility.yul\":5350:5472   */\n    tag_147:\n        /* \"#utility.yul\":5423:5447   */\n      tag_235\n        /* \"#utility.yul\":5441:5446   */\n      dup2\n        /* \"#utility.yul\":5423:5447   */\n      tag_142\n      jump\t// in\n    tag_235:\n        /* \"#utility.yul\":5416:5421   */\n      dup2\n        /* \"#utility.yul\":5413:5448   */\n      eq\n        /* \"#utility.yul\":5403:5466   */\n      tag_236\n      jumpi\n        /* \"#utility.yul\":5462:5463   */\n      0x00\n        /* \"#utility.yul\":5459:5460   */\n      dup1\n        /* \"#utility.yul\":5452:5464   */\n      revert\n        /* \"#utility.yul\":5403:5466   */\n    tag_236:\n        /* \"#utility.yul\":5350:5472   */\n      pop\n      jump\t// out\n        /* \"#utility.yul\":5478:5617   */\n    tag_148:\n        /* \"#utility.yul\":5524:5529   */\n      0x00\n        /* \"#utility.yul\":5562:5568   */\n      dup2\n        /* \"#utility.yul\":5549:5569   */\n      calldataload\n        /* \"#utility.yul\":5540:5569   */\n      swap1\n      pop\n        /* \"#utility.yul\":5578:5611   */\n      tag_238\n        /* \"#utility.yul\":5605:5610   */\n      dup2\n        /* \"#utility.yul\":5578:5611   */\n      tag_147\n      jump\t// in\n    tag_238:\n        /* \"#utility.yul\":5478:5617   */\n      swap3\n      swap2\n      pop\n      pop\n      jump\t// out\n        /* \"#utility.yul\":5623:5952   */\n    tag_56:\n        /* \"#utility.yul\":5682:5688   */\n      0x00\n        /* \"#utility.yul\":5731:5733   */\n      0x20\n        /* \"#utility.yul\":5719:5728   */\n      dup3\n        /* \"#utility.yul\":5710:5717   */\n      dup5\n        /* \"#utility.yul\":5706:5729   */\n      sub\n        /* \"#utility.yul\":5702:5734   */\n      slt\n        /* \"#utility.yul\":5699:5818   */\n      iszero\n      tag_240\n      jumpi\n        /* \"#utility.yul\":5737:5816   */\n      tag_241\n      tag_132\n      jump\t// in\n    tag_241:\n        /* \"#utility.yul\":5699:5818   */\n    tag_240:\n        /* \"#utility.yul\":5857:5858   */\n      0x00\n        /* \"#utility.yul\":5882:5935   */\n      tag_242\n        /* \"#utility.yul\":5927:5934   */\n      dup5\n        /* \"#utility.yul\":5918:5924   */\n      dup3\n        /* \"#utility.yul\":5907:5916   */\n      dup6\n        /* \"#utility.yul\":5903:5925   */\n      add\n        /* \"#utility.yul\":5882:5935   */\n      tag_148\n      jump\t// in\n    tag_242:\n        /* \"#utility.yul\":5872:5935   */\n      swap2\n      pop\n        /* \"#utility.yul\":5828:5945   */\n      pop\n        /* \"#utility.yul\":5623:5952   */\n      swap3\n      swap2\n      pop\n      pop\n      jump\t// out\n        /* \"#utility.yul\":5958:6018   */\n    tag_149:\n        /* \"#utility.yul\":5986:5989   */\n      0x00\n        /* \"#utility.yul\":6007:6012   */\n      dup2\n        /* \"#utility.yul\":6000:6012   */\n      swap1\n      pop\n        /* \"#utility.yul\":5958:6018   */\n      swap2\n      swap1\n      pop\n      jump\t// out\n        /* \"#utility.yul\":6024:6166   */\n    tag_150:\n        /* \"#utility.yul\":6074:6083   */\n      0x00\n        /* \"#utility.yul\":6107:6160   */\n      tag_245\n        /* \"#utility.yul\":6125:6159   */\n      tag_246\n        /* \"#utility.yul\":6134:6158   */\n      tag_247\n        /* \"#utility.yul\":6152:6157   */\n      dup5\n        /* \"#utility.yul\":6134:6158   */\n      tag_141\n      jump\t// in\n    tag_247:\n        /* \"#utility.yul\":6125:6159   */\n      tag_149\n      jump\t// in\n    tag_246:\n        /* \"#utility.yul\":6107:6160   */\n      tag_141\n      jump\t// in\n    tag_245:\n        /* \"#utility.yul\":6094:6160   */\n      swap1\n      pop\n        /* \"#utility.yul\":6024:6166   */\n      swap2\n      swap1\n      pop\n      jump\t// out\n        /* \"#utility.yul\":6172:6298   */\n    tag_151:\n        /* \"#utility.yul\":6222:6231   */\n      0x00\n        /* \"#utility.yul\":6255:6292   */\n      tag_249\n        /* \"#utility.yul\":6286:6291   */\n      dup3\n        /* \"#utility.yul\":6255:6292   */\n      tag_150\n      jump\t// in\n    tag_249:\n        /* \"#utility.yul\":6242:6292   */\n      swap1\n      pop\n        /* \"#utility.yul\":6172:6298   */\n      swap2\n      swap1\n      pop\n      jump\t// out\n        /* \"#utility.yul\":6304:6445   */\n    tag_152:\n        /* \"#utility.yul\":6369:6378   */\n      0x00\n        /* \"#utility.yul\":6402:6439   */\n      tag_251\n        /* \"#utility.yul\":6433:6438   */\n      dup3\n        /* \"#utility.yul\":6402:6439   */\n      tag_151\n      jump\t// in\n    tag_251:\n        /* \"#utility.yul\":6389:6439   */\n      swap1\n      pop\n        /* \"#utility.yul\":6304:6445   */\n      swap2\n      swap1\n      pop\n      jump\t// out\n        /* \"#utility.yul\":6451:6612   */\n    tag_153:\n        /* \"#utility.yul\":6553:6605   */\n      tag_253\n        /* \"#utility.yul\":6599:6604   */\n      dup2\n        /* \"#utility.yul\":6553:6605   */\n      tag_152\n      jump\t// in\n    tag_253:\n        /* \"#utility.yul\":6548:6551   */\n      dup3\n        /* \"#utility.yul\":6541:6606   */\n      mstore\n        /* \"#utility.yul\":6451:6612   */\n      pop\n      pop\n      jump\t// out\n        /* \"#utility.yul\":6618:6870   */\n    tag_61:\n        /* \"#utility.yul\":6726:6730   */\n      0x00\n        /* \"#utility.yul\":6764:6766   */\n      0x20\n        /* \"#utility.yul\":6753:6762   */\n      dup3\n        /* \"#utility.yul\":6749:6767   */\n      add\n        /* \"#utility.yul\":6741:6767   */\n      swap1\n      pop\n        /* \"#utility.yul\":6777:6863   */\n      tag_255\n        /* \"#utility.yul\":6860:6861   */\n      0x00\n        /* \"#utility.yul\":6849:6858   */\n      dup4\n        /* \"#utility.yul\":6845:6862   */\n      add\n        /* \"#utility.yul\":6836:6842   */\n      dup5\n        /* \"#utility.yul\":6777:6863   */\n      tag_153\n      jump\t// in\n    tag_255:\n        /* \"#utility.yul\":6618:6870   */\n      swap3\n      swap2\n      pop\n      pop\n      jump\t// out\n        /* \"#utility.yul\":6876:7045   */\n    tag_154:\n        /* \"#utility.yul\":6960:6971   */\n      0x00\n        /* \"#utility.yul\":6994:7000   */\n      dup3\n        /* \"#utility.yul\":6989:6992   */\n      dup3\n        /* \"#utility.yul\":6982:7001   */\n      mstore\n        /* \"#utility.yul\":7034:7038   */\n      0x20\n        /* \"#utility.yul\":7029:7032   */\n      dup3\n        /* \"#utility.yul\":7025:7039   */\n      add\n        /* \"#utility.yul\":7010:7039   */\n      swap1\n      pop\n        /* \"#utility.yul\":6876:7045   */\n      swap3\n      swap2\n      pop\n      pop\n      jump\t// out\n        /* \"#utility.yul\":7051:7221   */\n    tag_155:\n        /* \"#utility.yul\":7191:7213   */\n      0x446561646c696e65206e6f742072656163686564000000000000000000000000\n        /* \"#utility.yul\":7187:7188   */\n      0x00\n        /* \"#utility.yul\":7179:7185   */\n      dup3\n        /* \"#utility.yul\":7175:7189   */\n      add\n        /* \"#utility.yul\":7168:7214   */\n      mstore\n        /* \"#utility.yul\":7051:7221   */\n      pop\n      jump\t// out\n        /* \"#utility.yul\":7227:7593   */\n    tag_156:\n        /* \"#utility.yul\":7369:7372   */\n      0x00\n        /* \"#utility.yul\":7390:7457   */\n      tag_259\n        /* \"#utility.yul\":7454:7456   */\n      0x14\n        /* \"#utility.yul\":7449:7452   */\n      dup4\n        /* \"#utility.yul\":7390:7457   */\n      tag_154\n      jump\t// in\n    tag_259:\n        /* \"#utility.yul\":7383:7457   */\n      swap2\n      pop\n        /* \"#utility.yul\":7466:7559   */\n      tag_260\n        /* \"#utility.yul\":7555:7558   */\n      dup3\n        /* \"#utility.yul\":7466:7559   */\n      tag_155\n      jump\t// in\n    tag_260:\n        /* \"#utility.yul\":7584:7586   */\n      0x20\n        /* \"#utility.yul\":7579:7582   */\n      dup3\n        /* \"#utility.yul\":7575:7587   */\n      add\n        /* \"#utility.yul\":7568:7587   */\n      swap1\n      pop\n        /* \"#utility.yul\":7227:7593   */\n      swap2\n      swap1\n      pop\n      jump\t// out\n        /* \"#utility.yul\":7599:8018   */\n    tag_68:\n        /* \"#utility.yul\":7765:7769   */\n      0x00\n        /* \"#utility.yul\":7803:7805   */\n      0x20\n        /* \"#utility.yul\":7792:7801   */\n      dup3\n        /* \"#utility.yul\":7788:7806   */\n      add\n        /* \"#utility.yul\":7780:7806   */\n      swap1\n      pop\n        /* \"#utility.yul\":7852:7861   */\n      dup2\n        /* \"#utility.yul\":7846:7850   */\n      dup2\n        /* \"#utility.yul\":7842:7862   */\n      sub\n        /* \"#utility.yul\":7838:7839   */\n      0x00\n        /* \"#utility.yul\":7827:7836   */\n      dup4\n        /* \"#utility.yul\":7823:7840   */\n      add\n        /* \"#utility.yul\":7816:7863   */\n      mstore\n        /* \"#utility.yul\":7880:8011   */\n      tag_262\n        /* \"#utility.yul\":8006:8010   */\n      dup2\n        /* \"#utility.yul\":7880:8011   */\n      tag_156\n      jump\t// in\n    tag_262:\n        /* \"#utility.yul\":7872:8011   */\n      swap1\n      pop\n        /* \"#utility.yul\":7599:8018   */\n      swap2\n      swap1\n      pop\n      jump\t// out\n        /* \"#utility.yul\":8024:8187   */\n    tag_157:\n        /* \"#utility.yul\":8164:8179   */\n      0x496e76616c6964207374616b6500000000000000000000000000000000000000\n        /* \"#utility.yul\":8160:8161   */\n      0x00\n        /* \"#utility.yul\":8152:8158   */\n      dup3\n        /* \"#utility.yul\":8148:8162   */\n      add\n        /* \"#utility.yul\":8141:8180   */\n      mstore\n        /* \"#utility.yul\":8024:8187   */\n      pop\n      jump\t// out\n        /* \"#utility.yul\":8193:8559   */\n    tag_158:\n        /* \"#utility.yul\":8335:8338   */\n      0x00\n        /* \"#utility.yul\":8356:8423   */\n      tag_265\n        /* \"#utility.yul\":8420:8422   */\n      0x0d\n        /* \"#utility.yul\":8415:8418   */\n      dup4\n        /* \"#utility.yul\":8356:8423   */\n      tag_154\n      jump\t// in\n    tag_265:\n        /* \"#utility.yul\":8349:8423   */\n      swap2\n      pop\n        /* \"#utility.yul\":8432:8525   */\n      tag_266\n        /* \"#utility.yul\":8521:8524   */\n      dup3\n        /* \"#utility.yul\":8432:8525   */\n      tag_157\n      jump\t// in\n    tag_266:\n        /* \"#utility.yul\":8550:8552   */\n      0x20\n        /* \"#utility.yul\":8545:8548   */\n      dup3\n        /* \"#utility.yul\":8541:8553   */\n      add\n        /* \"#utility.yul\":8534:8553   */\n      swap1\n      pop\n        /* \"#utility.yul\":8193:8559   */\n      swap2\n      swap1\n      pop\n      jump\t// out\n        /* \"#utility.yul\":8565:8984   */\n    tag_71:\n        /* \"#utility.yul\":8731:8735   */\n      0x00\n        /* \"#utility.yul\":8769:8771   */\n      0x20\n        /* \"#utility.yul\":8758:8767   */\n      dup3\n        /* \"#utility.yul\":8754:8772   */\n      add\n        /* \"#utility.yul\":8746:8772   */\n      swap1\n      pop\n        /* \"#utility.yul\":8818:8827   */\n      dup2\n        /* \"#utility.yul\":8812:8816   */\n      dup2\n        /* \"#utility.yul\":8808:8828   */\n      sub\n        /* \"#utility.yul\":8804:8805   */\n      0x00\n        /* \"#utility.yul\":8793:8802   */\n      dup4\n        /* \"#utility.yul\":8789:8806   */\n      add\n        /* \"#utility.yul\":8782:8829   */\n      mstore\n        /* \"#utility.yul\":8846:8977   */\n      tag_268\n        /* \"#utility.yul\":8972:8976   */\n      dup2\n        /* \"#utility.yul\":8846:8977   */\n      tag_158\n      jump\t// in\n    tag_268:\n        /* \"#utility.yul\":8838:8977   */\n      swap1\n      pop\n        /* \"#utility.yul\":8565:8984   */\n      swap2\n      swap1\n      pop\n      jump\t// out\n        /* \"#utility.yul\":8990:9432   */\n    tag_73:\n        /* \"#utility.yul\":9139:9143   */\n      0x00\n        /* \"#utility.yul\":9177:9179   */\n      0x60\n        /* \"#utility.yul\":9166:9175   */\n      dup3\n        /* \"#utility.yul\":9162:9180   */\n      add\n        /* \"#utility.yul\":9154:9180   */\n      swap1\n      pop\n        /* \"#utility.yul\":9190:9261   */\n      tag_270\n        /* \"#utility.yul\":9258:9259   */\n      0x00\n        /* \"#utility.yul\":9247:9256   */\n      dup4\n        /* \"#utility.yul\":9243:9260   */\n      add\n        /* \"#utility.yul\":9234:9240   */\n      dup7\n        /* \"#utility.yul\":9190:9261   */\n      tag_143\n      jump\t// in\n    tag_270:\n        /* \"#utility.yul\":9271:9343   */\n      tag_271\n        /* \"#utility.yul\":9339:9341   */\n      0x20\n        /* \"#utility.yul\":9328:9337   */\n      dup4\n        /* \"#utility.yul\":9324:9342   */\n      add\n        /* \"#utility.yul\":9315:9321   */\n      dup6\n        /* \"#utility.yul\":9271:9343   */\n      tag_143\n      jump\t// in\n    tag_271:\n        /* \"#utility.yul\":9353:9425   */\n      tag_272\n        /* \"#utility.yul\":9421:9423   */\n      0x40\n        /* \"#utility.yul\":9410:9419   */\n      dup4\n        /* \"#utility.yul\":9406:9424   */\n      add\n        /* \"#utility.yul\":9397:9403   */\n      dup5\n        /* \"#utility.yul\":9353:9425   */\n      tag_140\n      jump\t// in\n    tag_272:\n        /* \"#utility.yul\":8990:9432   */\n      swap5\n      swap4\n      pop\n      pop\n      pop\n      pop\n      jump\t// out\n        /* \"#utility.yul\":9438:9552   */\n    tag_159:\n      pop\n      jump\t// out\n        /* \"#utility.yul\":9558:9922   */\n    tag_160:\n        /* \"#utility.yul\":9700:9703   */\n      0x00\n        /* \"#utility.yul\":9721:9787   */\n      tag_275\n        /* \"#utility.yul\":9785:9786   */\n      0x00\n        /* \"#utility.yul\":9780:9783   */\n      dup4\n        /* \"#utility.yul\":9721:9787   */\n      tag_154\n      jump\t// in\n    tag_275:\n        /* \"#utility.yul\":9714:9787   */\n      swap2\n      pop\n        /* \"#utility.yul\":9796:9889   */\n      tag_276\n        /* \"#utility.yul\":9885:9888   */\n      dup3\n        /* \"#utility.yul\":9796:9889   */\n      tag_159\n      jump\t// in\n    tag_276:\n        /* \"#utility.yul\":9914:9915   */\n      0x00\n        /* \"#utility.yul\":9909:9912   */\n      dup3\n        /* \"#utility.yul\":9905:9916   */\n      add\n        /* \"#utility.yul\":9898:9916   */\n      swap1\n      pop\n        /* \"#utility.yul\":9558:9922   */\n      swap2\n      swap1\n      pop\n      jump\t// out\n        /* \"#utility.yul\":9928:10678   */\n    tag_78:\n        /* \"#utility.yul\":10178:10182   */\n      0x00\n        /* \"#utility.yul\":10216:10219   */\n      0x80\n        /* \"#utility.yul\":10205:10214   */\n      dup3\n        /* \"#utility.yul\":10201:10220   */\n      add\n        /* \"#utility.yul\":10193:10220   */\n      swap1\n      pop\n        /* \"#utility.yul\":10230:10301   */\n      tag_278\n        /* \"#utility.yul\":10298:10299   */\n      0x00\n        /* \"#utility.yul\":10287:10296   */\n      dup4\n        /* \"#utility.yul\":10283:10300   */\n      add\n        /* \"#utility.yul\":10274:10280   */\n      dup7\n        /* \"#utility.yul\":10230:10301   */\n      tag_143\n      jump\t// in\n    tag_278:\n        /* \"#utility.yul\":10348:10357   */\n      dup2\n        /* \"#utility.yul\":10342:10346   */\n      dup2\n        /* \"#utility.yul\":10338:10358   */\n      sub\n        /* \"#utility.yul\":10333:10335   */\n      0x20\n        /* \"#utility.yul\":10322:10331   */\n      dup4\n        /* \"#utility.yul\":10318:10336   */\n      add\n        /* \"#utility.yul\":10311:10359   */\n      mstore\n        /* \"#utility.yul\":10376:10507   */\n      tag_279\n        /* \"#utility.yul\":10502:10506   */\n      dup2\n        /* \"#utility.yul\":10376:10507   */\n      tag_160\n      jump\t// in\n    tag_279:\n        /* \"#utility.yul\":10368:10507   */\n      swap1\n      pop\n        /* \"#utility.yul\":10517:10589   */\n      tag_280\n        /* \"#utility.yul\":10585:10587   */\n      0x40\n        /* \"#utility.yul\":10574:10583   */\n      dup4\n        /* \"#utility.yul\":10570:10588   */\n      add\n        /* \"#utility.yul\":10561:10567   */\n      dup6\n        /* \"#utility.yul\":10517:10589   */\n      tag_140\n      jump\t// in\n    tag_280:\n        /* \"#utility.yul\":10599:10671   */\n      tag_281\n        /* \"#utility.yul\":10667:10669   */\n      0x60\n        /* \"#utility.yul\":10656:10665   */\n      dup4\n        /* \"#utility.yul\":10652:10670   */\n      add\n        /* \"#utility.yul\":10643:10649   */\n      dup5\n        /* \"#utility.yul\":10599:10671   */\n      tag_140\n      jump\t// in\n    tag_281:\n        /* \"#utility.yul\":9928:10678   */\n      swap5\n      swap4\n      pop\n      pop\n      pop\n      pop\n      jump\t// out\n        /* \"#utility.yul\":10684:10827   */\n    tag_161:\n        /* \"#utility.yul\":10741:10746   */\n      0x00\n        /* \"#utility.yul\":10772:10778   */\n      dup2\n        /* \"#utility.yul\":10766:10779   */\n      mload\n        /* \"#utility.yul\":10757:10779   */\n      swap1\n      pop\n        /* \"#utility.yul\":10788:10821   */\n      tag_283\n        /* \"#utility.yul\":10815:10820   */\n      dup2\n        /* \"#utility.yul\":10788:10821   */\n      tag_138\n      jump\t// in\n    tag_283:\n        /* \"#utility.yul\":10684:10827   */\n      swap3\n      swap2\n      pop\n      pop\n      jump\t// out\n        /* \"#utility.yul\":10833:11184   */\n    tag_82:\n        /* \"#utility.yul\":10903:10909   */\n      0x00\n        /* \"#utility.yul\":10952:10954   */\n      0x20\n        /* \"#utility.yul\":10940:10949   */\n      dup3\n        /* \"#utility.yul\":10931:10938   */\n      dup5\n        /* \"#utility.yul\":10927:10950   */\n      sub\n        /* \"#utility.yul\":10923:10955   */\n      slt\n        /* \"#utility.yul\":10920:11039   */\n      iszero\n      tag_285\n      jumpi\n        /* \"#utility.yul\":10958:11037   */\n      tag_286\n      tag_132\n      jump\t// in\n    tag_286:\n        /* \"#utility.yul\":10920:11039   */\n    tag_285:\n        /* \"#utility.yul\":11078:11079   */\n      0x00\n        /* \"#utility.yul\":11103:11167   */\n      tag_287\n        /* \"#utility.yul\":11159:11166   */\n      dup5\n        /* \"#utility.yul\":11150:11156   */\n      dup3\n        /* \"#utility.yul\":11139:11148   */\n      dup6\n        /* \"#utility.yul\":11135:11157   */\n      add\n        /* \"#utility.yul\":11103:11167   */\n      tag_161\n      jump\t// in\n    tag_287:\n        /* \"#utility.yul\":11093:11167   */\n      swap2\n      pop\n        /* \"#utility.yul\":11049:11177   */\n      pop\n        /* \"#utility.yul\":10833:11184   */\n      swap3\n      swap2\n      pop\n      pop\n      jump\t// out\n        /* \"#utility.yul\":11190:11522   */\n    tag_84:\n        /* \"#utility.yul\":11311:11315   */\n      0x00\n        /* \"#utility.yul\":11349:11351   */\n      0x40\n        /* \"#utility.yul\":11338:11347   */\n      dup3\n        /* \"#utility.yul\":11334:11352   */\n      add\n        /* \"#utility.yul\":11326:11352   */\n      swap1\n      pop\n        /* \"#utility.yul\":11362:11433   */\n      tag_289\n        /* \"#utility.yul\":11430:11431   */\n      0x00\n        /* \"#utility.yul\":11419:11428   */\n      dup4\n        /* \"#utility.yul\":11415:11432   */\n      add\n        /* \"#utility.yul\":11406:11412   */\n      dup6\n        /* \"#utility.yul\":11362:11433   */\n      tag_140\n      jump\t// in\n    tag_289:\n        /* \"#utility.yul\":11443:11515   */\n      tag_290\n        /* \"#utility.yul\":11511:11513   */\n      0x20\n        /* \"#utility.yul\":11500:11509   */\n      dup4\n        /* \"#utility.yul\":11496:11514   */\n      add\n        /* \"#utility.yul\":11487:11493   */\n      dup5\n        /* \"#utility.yul\":11443:11515   */\n      tag_140\n      jump\t// in\n    tag_290:\n        /* \"#utility.yul\":11190:11522   */\n      swap4\n      swap3\n      pop\n      pop\n      pop\n      jump\t// out\n        /* \"#utility.yul\":11528:11671   */\n    tag_162:\n        /* \"#utility.yul\":11585:11590   */\n      0x00\n        /* \"#utility.yul\":11616:11622   */\n      dup2\n        /* \"#utility.yul\":11610:11623   */\n      mload\n        /* \"#utility.yul\":11601:11623   */\n      swap1\n      pop\n        /* \"#utility.yul\":11632:11665   */\n      tag_292\n        /* \"#utility.yul\":11659:11664   */\n      dup2\n        /* \"#utility.yul\":11632:11665   */\n      tag_147\n      jump\t// in\n    tag_292:\n        /* \"#utility.yul\":11528:11671   */\n      swap3\n      swap2\n      pop\n      pop\n      jump\t// out\n        /* \"#utility.yul\":11677:12028   */\n    tag_99:\n        /* \"#utility.yul\":11747:11753   */\n      0x00\n        /* \"#utility.yul\":11796:11798   */\n      0x20\n        /* \"#utility.yul\":11784:11793   */\n      dup3\n        /* \"#utility.yul\":11775:11782   */\n      dup5\n        /* \"#utility.yul\":11771:11794   */\n      sub\n        /* \"#utility.yul\":11767:11799   */\n      slt\n        /* \"#utility.yul\":11764:11883   */\n      iszero\n      tag_294\n      jumpi\n        /* \"#utility.yul\":11802:11881   */\n      tag_295\n      tag_132\n      jump\t// in\n    tag_295:\n        /* \"#utility.yul\":11764:11883   */\n    tag_294:\n        /* \"#utility.yul\":11922:11923   */\n      0x00\n        /* \"#utility.yul\":11947:12011   */\n      tag_296\n        /* \"#utility.yul\":12003:12010   */\n      dup5\n        /* \"#utility.yul\":11994:12000   */\n      dup3\n        /* \"#utility.yul\":11983:11992   */\n      dup6\n        /* \"#utility.yul\":11979:12001   */\n      add\n        /* \"#utility.yul\":11947:12011   */\n      tag_162\n      jump\t// in\n    tag_296:\n        /* \"#utility.yul\":11937:12011   */\n      swap2\n      pop\n        /* \"#utility.yul\":11893:12021   */\n      pop\n        /* \"#utility.yul\":11677:12028   */\n      swap3\n      swap2\n      pop\n      pop\n      jump\t// out\n        /* \"#utility.yul\":12034:12254   */\n    tag_163:\n        /* \"#utility.yul\":12174:12208   */\n      0x596f7520617265206e6f7420746865206f776e6572206f662074686973204e46\n        /* \"#utility.yul\":12170:12171   */\n      0x00\n        /* \"#utility.yul\":12162:12168   */\n      dup3\n        /* \"#utility.yul\":12158:12172   */\n      add\n        /* \"#utility.yul\":12151:12209   */\n      mstore\n        /* \"#utility.yul\":12243:12246   */\n      0x5400000000000000000000000000000000000000000000000000000000000000\n        /* \"#utility.yul\":12238:12240   */\n      0x20\n        /* \"#utility.yul\":12230:12236   */\n      dup3\n        /* \"#utility.yul\":12226:12241   */\n      add\n        /* \"#utility.yul\":12219:12247   */\n      mstore\n        /* \"#utility.yul\":12034:12254   */\n      pop\n      jump\t// out\n        /* \"#utility.yul\":12260:12626   */\n    tag_164:\n        /* \"#utility.yul\":12402:12405   */\n      0x00\n        /* \"#utility.yul\":12423:12490   */\n      tag_299\n        /* \"#utility.yul\":12487:12489   */\n      0x21\n        /* \"#utility.yul\":12482:12485   */\n      dup4\n        /* \"#utility.yul\":12423:12490   */\n      tag_154\n      jump\t// in\n    tag_299:\n        /* \"#utility.yul\":12416:12490   */\n      swap2\n      pop\n        /* \"#utility.yul\":12499:12592   */\n      tag_300\n        /* \"#utility.yul\":12588:12591   */\n      dup3\n        /* \"#utility.yul\":12499:12592   */\n      tag_163\n      jump\t// in\n    tag_300:\n        /* \"#utility.yul\":12617:12619   */\n      0x40\n        /* \"#utility.yul\":12612:12615   */\n      dup3\n        /* \"#utility.yul\":12608:12620   */\n      add\n        /* \"#utility.yul\":12601:12620   */\n      swap1\n      pop\n        /* \"#utility.yul\":12260:12626   */\n      swap2\n      swap1\n      pop\n      jump\t// out\n        /* \"#utility.yul\":12632:13051   */\n    tag_102:\n        /* \"#utility.yul\":12798:12802   */\n      0x00\n        /* \"#utility.yul\":12836:12838   */\n      0x20\n        /* \"#utility.yul\":12825:12834   */\n      dup3\n        /* \"#utility.yul\":12821:12839   */\n      add\n        /* \"#utility.yul\":12813:12839   */\n      swap1\n      pop\n        /* \"#utility.yul\":12885:12894   */\n      dup2\n        /* \"#utility.yul\":12879:12883   */\n      dup2\n        /* \"#utility.yul\":12875:12895   */\n      sub\n        /* \"#utility.yul\":12871:12872   */\n      0x00\n        /* \"#utility.yul\":12860:12869   */\n      dup4\n        /* \"#utility.yul\":12856:12873   */\n      add\n        /* \"#utility.yul\":12849:12896   */\n      mstore\n        /* \"#utility.yul\":12913:13044   */\n      tag_302\n        /* \"#utility.yul\":13039:13043   */\n      dup2\n        /* \"#utility.yul\":12913:13044   */\n      tag_164\n      jump\t// in\n    tag_302:\n        /* \"#utility.yul\":12905:13044   */\n      swap1\n      pop\n        /* \"#utility.yul\":12632:13051   */\n      swap2\n      swap1\n      pop\n      jump\t// out\n        /* \"#utility.yul\":13057:13136   */\n    tag_165:\n        /* \"#utility.yul\":13096:13103   */\n      0x00\n        /* \"#utility.yul\":13125:13130   */\n      dup2\n        /* \"#utility.yul\":13114:13130   */\n      swap1\n      pop\n        /* \"#utility.yul\":13057:13136   */\n      swap2\n      swap1\n      pop\n      jump\t// out\n        /* \"#utility.yul\":13142:13299   */\n    tag_166:\n        /* \"#utility.yul\":13247:13292   */\n      tag_305\n        /* \"#utility.yul\":13267:13291   */\n      tag_306\n        /* \"#utility.yul\":13285:13290   */\n      dup3\n        /* \"#utility.yul\":13267:13291   */\n      tag_137\n      jump\t// in\n    tag_306:\n        /* \"#utility.yul\":13247:13292   */\n      tag_165\n      jump\t// in\n    tag_305:\n        /* \"#utility.yul\":13242:13245   */\n      dup3\n        /* \"#utility.yul\":13235:13293   */\n      mstore\n        /* \"#utility.yul\":13142:13299   */\n      pop\n      pop\n      jump\t// out\n        /* \"#utility.yul\":13305:13399   */\n    tag_167:\n        /* \"#utility.yul\":13338:13346   */\n      0x00\n        /* \"#utility.yul\":13386:13391   */\n      dup2\n        /* \"#utility.yul\":13382:13384   */\n      0x60\n        /* \"#utility.yul\":13378:13392   */\n      shl\n        /* \"#utility.yul\":13357:13392   */\n      swap1\n      pop\n        /* \"#utility.yul\":13305:13399   */\n      swap2\n      swap1\n      pop\n      jump\t// out\n        /* \"#utility.yul\":13405:13499   */\n    tag_168:\n        /* \"#utility.yul\":13444:13451   */\n      0x00\n        /* \"#utility.yul\":13473:13493   */\n      tag_309\n        /* \"#utility.yul\":13487:13492   */\n      dup3\n        /* \"#utility.yul\":13473:13493   */\n      tag_167\n      jump\t// in\n    tag_309:\n        /* \"#utility.yul\":13462:13493   */\n      swap1\n      pop\n        /* \"#utility.yul\":13405:13499   */\n      swap2\n      swap1\n      pop\n      jump\t// out\n        /* \"#utility.yul\":13505:13605   */\n    tag_169:\n        /* \"#utility.yul\":13544:13551   */\n      0x00\n        /* \"#utility.yul\":13573:13599   */\n      tag_311\n        /* \"#utility.yul\":13593:13598   */\n      dup3\n        /* \"#utility.yul\":13573:13599   */\n      tag_168\n      jump\t// in\n    tag_311:\n        /* \"#utility.yul\":13562:13599   */\n      swap1\n      pop\n        /* \"#utility.yul\":13505:13605   */\n      swap2\n      swap1\n      pop\n      jump\t// out\n        /* \"#utility.yul\":13611:13768   */\n    tag_170:\n        /* \"#utility.yul\":13716:13761   */\n      tag_313\n        /* \"#utility.yul\":13736:13760   */\n      tag_314\n        /* \"#utility.yul\":13754:13759   */\n      dup3\n        /* \"#utility.yul\":13736:13760   */\n      tag_142\n      jump\t// in\n    tag_314:\n        /* \"#utility.yul\":13716:13761   */\n      tag_169\n      jump\t// in\n    tag_313:\n        /* \"#utility.yul\":13711:13714   */\n      dup3\n        /* \"#utility.yul\":13704:13762   */\n      mstore\n        /* \"#utility.yul\":13611:13768   */\n      pop\n      pop\n      jump\t// out\n        /* \"#utility.yul\":13774:14312   */\n    tag_104:\n        /* \"#utility.yul\":13942:13945   */\n      0x00\n        /* \"#utility.yul\":13957:14032   */\n      tag_316\n        /* \"#utility.yul\":14028:14031   */\n      dup3\n        /* \"#utility.yul\":14019:14025   */\n      dup7\n        /* \"#utility.yul\":13957:14032   */\n      tag_166\n      jump\t// in\n    tag_316:\n        /* \"#utility.yul\":14057:14059   */\n      0x20\n        /* \"#utility.yul\":14052:14055   */\n      dup3\n        /* \"#utility.yul\":14048:14060   */\n      add\n        /* \"#utility.yul\":14041:14060   */\n      swap2\n      pop\n        /* \"#utility.yul\":14070:14145   */\n      tag_317\n        /* \"#utility.yul\":14141:14144   */\n      dup3\n        /* \"#utility.yul\":14132:14138   */\n      dup6\n        /* \"#utility.yul\":14070:14145   */\n      tag_170\n      jump\t// in\n    tag_317:\n        /* \"#utility.yul\":14170:14172   */\n      0x14\n        /* \"#utility.yul\":14165:14168   */\n      dup3\n        /* \"#utility.yul\":14161:14173   */\n      add\n        /* \"#utility.yul\":14154:14173   */\n      swap2\n      pop\n        /* \"#utility.yul\":14183:14258   */\n      tag_318\n        /* \"#utility.yul\":14254:14257   */\n      dup3\n        /* \"#utility.yul\":14245:14251   */\n      dup5\n        /* \"#utility.yul\":14183:14258   */\n      tag_166\n      jump\t// in\n    tag_318:\n        /* \"#utility.yul\":14283:14285   */\n      0x20\n        /* \"#utility.yul\":14278:14281   */\n      dup3\n        /* \"#utility.yul\":14274:14286   */\n      add\n        /* \"#utility.yul\":14267:14286   */\n      swap2\n      pop\n        /* \"#utility.yul\":14303:14306   */\n      dup2\n        /* \"#utility.yul\":14296:14306   */\n      swap1\n      pop\n        /* \"#utility.yul\":13774:14312   */\n      swap5\n      swap4\n      pop\n      pop\n      pop\n      pop\n      jump\t// out\n        /* \"#utility.yul\":14318:14498   */\n    tag_171:\n        /* \"#utility.yul\":14366:14443   */\n      0x4e487b7100000000000000000000000000000000000000000000000000000000\n        /* \"#utility.yul\":14363:14364   */\n      0x00\n        /* \"#utility.yul\":14356:14444   */\n      mstore\n        /* \"#utility.yul\":14463:14467   */\n      0x11\n        /* \"#utility.yul\":14460:14461   */\n      0x04\n        /* \"#utility.yul\":14453:14468   */\n      mstore\n        /* \"#utility.yul\":14487:14491   */\n      0x24\n        /* \"#utility.yul\":14484:14485   */\n      0x00\n        /* \"#utility.yul\":14477:14492   */\n      revert\n        /* \"#utility.yul\":14504:14695   */\n    tag_106:\n        /* \"#utility.yul\":14544:14547   */\n      0x00\n        /* \"#utility.yul\":14563:14583   */\n      tag_321\n        /* \"#utility.yul\":14581:14582   */\n      dup3\n        /* \"#utility.yul\":14563:14583   */\n      tag_137\n      jump\t// in\n    tag_321:\n        /* \"#utility.yul\":14558:14583   */\n      swap2\n      pop\n        /* \"#utility.yul\":14597:14617   */\n      tag_322\n        /* \"#utility.yul\":14615:14616   */\n      dup4\n        /* \"#utility.yul\":14597:14617   */\n      tag_137\n      jump\t// in\n    tag_322:\n        /* \"#utility.yul\":14592:14617   */\n      swap3\n      pop\n        /* \"#utility.yul\":14640:14641   */\n      dup3\n        /* \"#utility.yul\":14637:14638   */\n      dup3\n        /* \"#utility.yul\":14633:14642   */\n      add\n        /* \"#utility.yul\":14626:14642   */\n      swap1\n      pop\n        /* \"#utility.yul\":14661:14664   */\n      dup1\n        /* \"#utility.yul\":14658:14659   */\n      dup3\n        /* \"#utility.yul\":14655:14665   */\n      gt\n        /* \"#utility.yul\":14652:14688   */\n      iszero\n      tag_323\n      jumpi\n        /* \"#utility.yul\":14668:14686   */\n      tag_324\n      tag_171\n      jump\t// in\n    tag_324:\n        /* \"#utility.yul\":14652:14688   */\n    tag_323:\n        /* \"#utility.yul\":14504:14695   */\n      swap3\n      swap2\n      pop\n      pop\n      jump\t// out\n        /* \"#utility.yul\":14701:14819   */\n    tag_172:\n        /* \"#utility.yul\":14788:14812   */\n      tag_326\n        /* \"#utility.yul\":14806:14811   */\n      dup2\n        /* \"#utility.yul\":14788:14812   */\n      tag_134\n      jump\t// in\n    tag_326:\n        /* \"#utility.yul\":14783:14786   */\n      dup3\n        /* \"#utility.yul\":14776:14813   */\n      mstore\n        /* \"#utility.yul\":14701:14819   */\n      pop\n      pop\n      jump\t// out\n        /* \"#utility.yul\":14825:15378   */\n    tag_114:\n        /* \"#utility.yul\":15002:15006   */\n      0x00\n        /* \"#utility.yul\":15040:15043   */\n      0x80\n        /* \"#utility.yul\":15029:15038   */\n      dup3\n        /* \"#utility.yul\":15025:15044   */\n      add\n        /* \"#utility.yul\":15017:15044   */\n      swap1\n      pop\n        /* \"#utility.yul\":15054:15125   */\n      tag_328\n        /* \"#utility.yul\":15122:15123   */\n      0x00\n        /* \"#utility.yul\":15111:15120   */\n      dup4\n        /* \"#utility.yul\":15107:15124   */\n      add\n        /* \"#utility.yul\":15098:15104   */\n      dup8\n        /* \"#utility.yul\":15054:15125   */\n      tag_172\n      jump\t// in\n    tag_328:\n        /* \"#utility.yul\":15135:15207   */\n      tag_329\n        /* \"#utility.yul\":15203:15205   */\n      0x20\n        /* \"#utility.yul\":15192:15201   */\n      dup4\n        /* \"#utility.yul\":15188:15206   */\n      add\n        /* \"#utility.yul\":15179:15185   */\n      dup7\n        /* \"#utility.yul\":15135:15207   */\n      tag_143\n      jump\t// in\n    tag_329:\n        /* \"#utility.yul\":15217:15289   */\n      tag_330\n        /* \"#utility.yul\":15285:15287   */\n      0x40\n        /* \"#utility.yul\":15274:15283   */\n      dup4\n        /* \"#utility.yul\":15270:15288   */\n      add\n        /* \"#utility.yul\":15261:15267   */\n      dup6\n        /* \"#utility.yul\":15217:15289   */\n      tag_140\n      jump\t// in\n    tag_330:\n        /* \"#utility.yul\":15299:15371   */\n      tag_331\n        /* \"#utility.yul\":15367:15369   */\n      0x60\n        /* \"#utility.yul\":15356:15365   */\n      dup4\n        /* \"#utility.yul\":15352:15370   */\n      add\n        /* \"#utility.yul\":15343:15349   */\n      dup5\n        /* \"#utility.yul\":15299:15371   */\n      tag_140\n      jump\t// in\n    tag_331:\n        /* \"#utility.yul\":14825:15378   */\n      swap6\n      swap5\n      pop\n      pop\n      pop\n      pop\n      pop\n      jump\t// out\n        /* \"#utility.yul\":15384:15609   */\n    tag_173:\n        /* \"#utility.yul\":15524:15558   */\n      0x4f776e61626c653a206e6577206f776e657220697320746865207a65726f2061\n        /* \"#utility.yul\":15520:15521   */\n      0x00\n        /* \"#utility.yul\":15512:15518   */\n      dup3\n        /* \"#utility.yul\":15508:15522   */\n      add\n        /* \"#utility.yul\":15501:15559   */\n      mstore\n        /* \"#utility.yul\":15593:15601   */\n      0x6464726573730000000000000000000000000000000000000000000000000000\n        /* \"#utility.yul\":15588:15590   */\n      0x20\n        /* \"#utility.yul\":15580:15586   */\n      dup3\n        /* \"#utility.yul\":15576:15591   */\n      add\n        /* \"#utility.yul\":15569:15602   */\n      mstore\n        /* \"#utility.yul\":15384:15609   */\n      pop\n      jump\t// out\n        /* \"#utility.yul\":15615:15981   */\n    tag_174:\n        /* \"#utility.yul\":15757:15760   */\n      0x00\n        /* \"#utility.yul\":15778:15845   */\n      tag_334\n        /* \"#utility.yul\":15842:15844   */\n      0x26\n        /* \"#utility.yul\":15837:15840   */\n      dup4\n        /* \"#utility.yul\":15778:15845   */\n      tag_154\n      jump\t// in\n    tag_334:\n        /* \"#utility.yul\":15771:15845   */\n      swap2\n      pop\n        /* \"#utility.yul\":15854:15947   */\n      tag_335\n        /* \"#utility.yul\":15943:15946   */\n      dup3\n        /* \"#utility.yul\":15854:15947   */\n      tag_173\n      jump\t// in\n    tag_335:\n        /* \"#utility.yul\":15972:15974   */\n      0x40\n        /* \"#utility.yul\":15967:15970   */\n      dup3\n        /* \"#utility.yul\":15963:15975   */\n      add\n        /* \"#utility.yul\":15956:15975   */\n      swap1\n      pop\n        /* \"#utility.yul\":15615:15981   */\n      swap2\n      swap1\n      pop\n      jump\t// out\n        /* \"#utility.yul\":15987:16406   */\n    tag_120:\n        /* \"#utility.yul\":16153:16157   */\n      0x00\n        /* \"#utility.yul\":16191:16193   */\n      0x20\n        /* \"#utility.yul\":16180:16189   */\n      dup3\n        /* \"#utility.yul\":16176:16194   */\n      add\n        /* \"#utility.yul\":16168:16194   */\n      swap1\n      pop\n        /* \"#utility.yul\":16240:16249   */\n      dup2\n        /* \"#utility.yul\":16234:16238   */\n      dup2\n        /* \"#utility.yul\":16230:16250   */\n      sub\n        /* \"#utility.yul\":16226:16227   */\n      0x00\n        /* \"#utility.yul\":16215:16224   */\n      dup4\n        /* \"#utility.yul\":16211:16228   */\n      add\n        /* \"#utility.yul\":16204:16251   */\n      mstore\n        /* \"#utility.yul\":16268:16399   */\n      tag_337\n        /* \"#utility.yul\":16394:16398   */\n      dup2\n        /* \"#utility.yul\":16268:16399   */\n      tag_174\n      jump\t// in\n    tag_337:\n        /* \"#utility.yul\":16260:16399   */\n      swap1\n      pop\n        /* \"#utility.yul\":15987:16406   */\n      swap2\n      swap1\n      pop\n      jump\t// out\n        /* \"#utility.yul\":16412:16594   */\n    tag_175:\n        /* \"#utility.yul\":16552:16586   */\n      0x4f776e61626c653a2063616c6c6572206973206e6f7420746865206f776e6572\n        /* \"#utility.yul\":16548:16549   */\n      0x00\n        /* \"#utility.yul\":16540:16546   */\n      dup3\n        /* \"#utility.yul\":16536:16550   */\n      add\n        /* \"#utility.yul\":16529:16587   */\n      mstore\n        /* \"#utility.yul\":16412:16594   */\n      pop\n      jump\t// out\n        /* \"#utility.yul\":16600:16966   */\n    tag_176:\n        /* \"#utility.yul\":16742:16745   */\n      0x00\n        /* \"#utility.yul\":16763:16830   */\n      tag_340\n        /* \"#utility.yul\":16827:16829   */\n      0x20\n        /* \"#utility.yul\":16822:16825   */\n      dup4\n        /* \"#utility.yul\":16763:16830   */\n      tag_154\n      jump\t// in\n    tag_340:\n        /* \"#utility.yul\":16756:16830   */\n      swap2\n      pop\n        /* \"#utility.yul\":16839:16932   */\n      tag_341\n        /* \"#utility.yul\":16928:16931   */\n      dup3\n        /* \"#utility.yul\":16839:16932   */\n      tag_175\n      jump\t// in\n    tag_341:\n        /* \"#utility.yul\":16957:16959   */\n      0x20\n        /* \"#utility.yul\":16952:16955   */\n      dup3\n        /* \"#utility.yul\":16948:16960   */\n      add\n        /* \"#utility.yul\":16941:16960   */\n      swap1\n      pop\n        /* \"#utility.yul\":16600:16966   */\n      swap2\n      swap1\n      pop\n      jump\t// out\n        /* \"#utility.yul\":16972:17391   */\n    tag_128:\n        /* \"#utility.yul\":17138:17142   */\n      0x00\n        /* \"#utility.yul\":17176:17178   */\n      0x20\n        /* \"#utility.yul\":17165:17174   */\n      dup3\n        /* \"#utility.yul\":17161:17179   */\n      add\n        /* \"#utility.yul\":17153:17179   */\n      swap1\n      pop\n        /* \"#utility.yul\":17225:17234   */\n      dup2\n        /* \"#utility.yul\":17219:17223   */\n      dup2\n        /* \"#utility.yul\":17215:17235   */\n      sub\n        /* \"#utility.yul\":17211:17212   */\n      0x00\n        /* \"#utility.yul\":17200:17209   */\n      dup4\n        /* \"#utility.yul\":17196:17213   */\n      add\n        /* \"#utility.yul\":17189:17236   */\n      mstore\n        /* \"#utility.yul\":17253:17384   */\n      tag_343\n        /* \"#utility.yul\":17379:17383   */\n      dup2\n        /* \"#utility.yul\":17253:17384   */\n      tag_176\n      jump\t// in\n    tag_343:\n        /* \"#utility.yul\":17245:17384   */\n      swap1\n      pop\n        /* \"#utility.yul\":16972:17391   */\n      swap2\n      swap1\n      pop\n      jump\t// out\n\n    auxdata: 0xa26469706673582212203424c4a7d7cd83563154cd9db10410d0f446cc564a54f102bbfd689cd293f21364736f6c634300081a0033\n}\n",
				"bytecode": {
					"linkReferences": {},
					"object": "608060405234801561000f575f80fd5b506040516116a73803806116a783398181016040528101906100319190610245565b61004d6100426100ec60201b60201c565b6100f360201b60201c565b8460015f6101000a81548173ffffffffffffffffffffffffffffffffffffffff021916908373ffffffffffffffffffffffffffffffffffffffff1602179055508360025f6101000a81548173ffffffffffffffffffffffffffffffffffffffff021916908373ffffffffffffffffffffffffffffffffffffffff16021790555082600381905550816004819055508060058190555050505050506102bc565b5f33905090565b5f805f9054906101000a900473ffffffffffffffffffffffffffffffffffffffff169050815f806101000a81548173ffffffffffffffffffffffffffffffffffffffff021916908373ffffffffffffffffffffffffffffffffffffffff1602179055508173ffffffffffffffffffffffffffffffffffffffff168173ffffffffffffffffffffffffffffffffffffffff167f8be0079c531659141344cd1fd0a4f28419497f9722a3daafe3b4186f6b6457e060405160405180910390a35050565b5f80fd5b5f73ffffffffffffffffffffffffffffffffffffffff82169050919050565b5f6101e1826101b8565b9050919050565b6101f1816101d7565b81146101fb575f80fd5b50565b5f8151905061020c816101e8565b92915050565b5f819050919050565b61022481610212565b811461022e575f80fd5b50565b5f8151905061023f8161021b565b92915050565b5f805f805f60a0868803121561025e5761025d6101b4565b5b5f61026b888289016101fe565b955050602061027c888289016101fe565b945050604061028d88828901610231565b935050606061029e88828901610231565b92505060806102af88828901610231565b9150509295509295909350565b6113de806102c95f395ff3fe608060405234801561000f575f80fd5b50600436106100b2575f3560e01c80638da5cb5b1161006f5780638da5cb5b146101665780638fee640714610184578063dd467064146101b7578063ea768123146101d3578063f2fde38b146101f1578063f9be04ca1461020d576100b2565b8063058f5bd2146100b6578063568b962a146100d2578063715018a6146100f05780637d515a10146100fa5780637e8d094c1461011857806383a811bf14610148575b5f80fd5b6100d060048036038101906100cb9190610bf0565b61022b565b005b6100da610528565b6040516100e79190610c4f565b60405180910390f35b6100f861052e565b005b610102610541565b60405161010f9190610ca7565b60405180910390f35b610132600480360381019061012d9190610cc0565b610566565b60405161013f9190610d5c565b60405180910390f35b610150610603565b60405161015d9190610c4f565b60405180910390f35b61016e610609565b60405161017b9190610ca7565b60405180910390f35b61019e60048036038101906101999190610cc0565b610630565b6040516101ae9493929190610d75565b60405180910390f35b6101d160048036038101906101cc9190610db8565b61067b565b005b6101db610959565b6040516101e89190610c4f565b60405180910390f35b61020b60048036038101906102069190610e0d565b61095f565b005b6102156109e1565b6040516102229190610e93565b60405180910390f35b610233610a06565b5f60065f8581526020019081526020015f209050428160030154111561028e576040517f08c379a000000000000000000000000000000000000000000000000000000000815260040161028590610f06565b60405180910390fd5b5f73ffffffffffffffffffffffffffffffffffffffff16815f015f9054906101000a900473ffffffffffffffffffffffffffffffffffffffff1673ffffffffffffffffffffffffffffffffffffffff160361031e576040517f08c379a000000000000000000000000000000000000000000000000000000000815260040161031590610f6e565b60405180910390fd5b60015f9054906101000a900473ffffffffffffffffffffffffffffffffffffffff1673ffffffffffffffffffffffffffffffffffffffff166323b872dd3060025f9054906101000a900473ffffffffffffffffffffffffffffffffffffffff1684600101546040518463ffffffff1660e01b81526004016103a193929190610f8c565b5f604051808303815f87803b1580156103b8575f80fd5b505af11580156103ca573d5f803e3d5ffd5b505050505f60015f9054906101000a900473ffffffffffffffffffffffffffffffffffffffff1690505f8173ffffffffffffffffffffffffffffffffffffffff16634a5dc3aa845f015f9054906101000a900473ffffffffffffffffffffffffffffffffffffffff1687876040518463ffffffff1660e01b815260040161045393929190610fe4565b6020604051808303815f875af115801561046f573d5f803e3d5ffd5b505050506040513d601f19601f820116820180604052508101906104939190611040565b905060065f8781526020019081526020015f205f8082015f6101000a81549073ffffffffffffffffffffffffffffffffffffffff0219169055600182015f9055600282015f9055600382015f905550507f0953492253e6644c7b92e66165d8be578fdce14ecd4512ebe7be9a5ca998a31e83600101548260405161051892919061106b565b60405180910390a1505050505050565b60035481565b610536610a06565b61053f5f610a84565b565b60025f9054906101000a900473ffffffffffffffffffffffffffffffffffffffff1681565b61056e610b4c565b60065f8381526020019081526020015f206040518060800160405290815f82015f9054906101000a900473ffffffffffffffffffffffffffffffffffffffff1673ffffffffffffffffffffffffffffffffffffffff1673ffffffffffffffffffffffffffffffffffffffff16815260200160018201548152602001600282015481526020016003820154815250509050919050565b60055481565b5f805f9054906101000a900473ffffffffffffffffffffffffffffffffffffffff16905090565b6006602052805f5260405f205f91509050805f015f9054906101000a900473ffffffffffffffffffffffffffffffffffffffff16908060010154908060020154908060030154905084565b3373ffffffffffffffffffffffffffffffffffffffff1660015f9054906101000a900473ffffffffffffffffffffffffffffffffffffffff1673ffffffffffffffffffffffffffffffffffffffff16636352211e836040518263ffffffff1660e01b81526004016106ec9190610c4f565b602060405180830381865afa158015610707573d5f803e3d5ffd5b505050506040513d601f19601f8201168201806040525081019061072b91906110a6565b73ffffffffffffffffffffffffffffffffffffffff1614610781576040517f08c379a000000000000000000000000000000000000000000000000000000000815260040161077890611141565b60405180910390fd5b5f813342604051602001610797939291906111c4565b6040516020818303038152906040528051906020012090505f4290505f600554600454600354846107c8919061122d565b6107d2919061122d565b6107dc919061122d565b905060405180608001604052803373ffffffffffffffffffffffffffffffffffffffff1681526020018581526020018381526020018281525060065f8581526020019081526020015f205f820151815f015f6101000a81548173ffffffffffffffffffffffffffffffffffffffff021916908373ffffffffffffffffffffffffffffffffffffffff16021790555060208201518160010155604082015181600201556060820151816003015590505060015f9054906101000a900473ffffffffffffffffffffffffffffffffffffffff1673ffffffffffffffffffffffffffffffffffffffff166323b872dd3330876040518463ffffffff1660e01b81526004016108e993929190610f8c565b5f604051808303815f87803b158015610900575f80fd5b505af1158015610912573d5f803e3d5ffd5b505050507fe42732012f91412364b2848d4c8c3d8dd5508e0a5a0f60d6e1de7843145ea5c08333868460405161094b949392919061126f565b60405180910390a150505050565b60045481565b610967610a06565b5f73ffffffffffffffffffffffffffffffffffffffff168173ffffffffffffffffffffffffffffffffffffffff16036109d5576040517f08c379a00000000000000000000000000000000000000000000000000000000081526004016109cc90611322565b60405180910390fd5b6109de81610a84565b50565b60015f9054906101000a900473ffffffffffffffffffffffffffffffffffffffff1681565b610a0e610b45565b73ffffffffffffffffffffffffffffffffffffffff16610a2c610609565b73ffffffffffffffffffffffffffffffffffffffff1614610a82576040517f08c379a0000000000000000000000000000000000000000000000000000000008152600401610a799061138a565b60405180910390fd5b565b5f805f9054906101000a900473ffffffffffffffffffffffffffffffffffffffff169050815f806101000a81548173ffffffffffffffffffffffffffffffffffffffff021916908373ffffffffffffffffffffffffffffffffffffffff1602179055508173ffffffffffffffffffffffffffffffffffffffff168173ffffffffffffffffffffffffffffffffffffffff167f8be0079c531659141344cd1fd0a4f28419497f9722a3daafe3b4186f6b6457e060405160405180910390a35050565b5f33905090565b60405180608001604052805f73ffffffffffffffffffffffffffffffffffffffff1681526020015f81526020015f81526020015f81525090565b5f80fd5b5f819050919050565b610b9c81610b8a565b8114610ba6575f80fd5b50565b5f81359050610bb781610b93565b92915050565b5f819050919050565b610bcf81610bbd565b8114610bd9575f80fd5b50565b5f81359050610bea81610bc6565b92915050565b5f805f60608486031215610c0757610c06610b86565b5b5f610c1486828701610ba9565b9350506020610c2586828701610bdc565b9250506040610c3686828701610bdc565b9150509250925092565b610c4981610bbd565b82525050565b5f602082019050610c625f830184610c40565b92915050565b5f73ffffffffffffffffffffffffffffffffffffffff82169050919050565b5f610c9182610c68565b9050919050565b610ca181610c87565b82525050565b5f602082019050610cba5f830184610c98565b92915050565b5f60208284031215610cd557610cd4610b86565b5b5f610ce284828501610ba9565b91505092915050565b610cf481610c87565b82525050565b610d0381610bbd565b82525050565b608082015f820151610d1d5f850182610ceb565b506020820151610d306020850182610cfa565b506040820151610d436040850182610cfa565b506060820151610d566060850182610cfa565b50505050565b5f608082019050610d6f5f830184610d09565b92915050565b5f608082019050610d885f830187610c98565b610d956020830186610c40565b610da26040830185610c40565b610daf6060830184610c40565b95945050505050565b5f60208284031215610dcd57610dcc610b86565b5b5f610dda84828501610bdc565b91505092915050565b610dec81610c87565b8114610df6575f80fd5b50565b5f81359050610e0781610de3565b92915050565b5f60208284031215610e2257610e21610b86565b5b5f610e2f84828501610df9565b91505092915050565b5f819050919050565b5f610e5b610e56610e5184610c68565b610e38565b610c68565b9050919050565b5f610e6c82610e41565b9050919050565b5f610e7d82610e62565b9050919050565b610e8d81610e73565b82525050565b5f602082019050610ea65f830184610e84565b92915050565b5f82825260208201905092915050565b7f446561646c696e65206e6f7420726561636865640000000000000000000000005f82015250565b5f610ef0601483610eac565b9150610efb82610ebc565b602082019050919050565b5f6020820190508181035f830152610f1d81610ee4565b9050919050565b7f496e76616c6964207374616b65000000000000000000000000000000000000005f82015250565b5f610f58600d83610eac565b9150610f6382610f24565b602082019050919050565b5f6020820190508181035f830152610f8581610f4c565b9050919050565b5f606082019050610f9f5f830186610c98565b610fac6020830185610c98565b610fb96040830184610c40565b949350505050565b50565b5f610fcf5f83610eac565b9150610fda82610fc1565b5f82019050919050565b5f608082019050610ff75f830186610c98565b818103602083015261100881610fc4565b90506110176040830185610c40565b6110246060830184610c40565b949350505050565b5f8151905061103a81610bc6565b92915050565b5f6020828403121561105557611054610b86565b5b5f6110628482850161102c565b91505092915050565b5f60408201905061107e5f830185610c40565b61108b6020830184610c40565b9392505050565b5f815190506110a081610de3565b92915050565b5f602082840312156110bb576110ba610b86565b5b5f6110c884828501611092565b91505092915050565b7f596f7520617265206e6f7420746865206f776e6572206f662074686973204e465f8201527f5400000000000000000000000000000000000000000000000000000000000000602082015250565b5f61112b602183610eac565b9150611136826110d1565b604082019050919050565b5f6020820190508181035f8301526111588161111f565b9050919050565b5f819050919050565b61117961117482610bbd565b61115f565b82525050565b5f8160601b9050919050565b5f6111958261117f565b9050919050565b5f6111a68261118b565b9050919050565b6111be6111b982610c87565b61119c565b82525050565b5f6111cf8286611168565b6020820191506111df82856111ad565b6014820191506111ef8284611168565b602082019150819050949350505050565b7f4e487b71000000000000000000000000000000000000000000000000000000005f52601160045260245ffd5b5f61123782610bbd565b915061124283610bbd565b925082820190508082111561125a57611259611200565b5b92915050565b61126981610b8a565b82525050565b5f6080820190506112825f830187611260565b61128f6020830186610c98565b61129c6040830185610c40565b6112a96060830184610c40565b95945050505050565b7f4f776e61626c653a206e6577206f776e657220697320746865207a65726f20615f8201527f6464726573730000000000000000000000000000000000000000000000000000602082015250565b5f61130c602683610eac565b9150611317826112b2565b604082019050919050565b5f6020820190508181035f83015261133981611300565b9050919050565b7f4f776e61626c653a2063616c6c6572206973206e6f7420746865206f776e65725f82015250565b5f611374602083610eac565b915061137f82611340565b602082019050919050565b5f6020820190508181035f8301526113a181611368565b905091905056fea26469706673582212203424c4a7d7cd83563154cd9db10410d0f446cc564a54f102bbfd689cd293f21364736f6c634300081a0033",
					"opcodes": "PUSH1 0x80 PUSH1 0x40 MSTORE CALLVALUE DUP1 ISZERO PUSH2 0xF JUMPI PUSH0 DUP1 REVERT JUMPDEST POP PUSH1 0x40 MLOAD PUSH2 0x16A7 CODESIZE SUB DUP1 PUSH2 0x16A7 DUP4 CODECOPY DUP2 DUP2 ADD PUSH1 0x40 MSTORE DUP2 ADD SWAP1 PUSH2 0x31 SWAP2 SWAP1 PUSH2 0x245 JUMP JUMPDEST PUSH2 0x4D PUSH2 0x42 PUSH2 0xEC PUSH1 0x20 SHL PUSH1 0x20 SHR JUMP JUMPDEST PUSH2 0xF3 PUSH1 0x20 SHL PUSH1 0x20 SHR JUMP JUMPDEST DUP5 PUSH1 0x1 PUSH0 PUSH2 0x100 EXP DUP2 SLOAD DUP2 PUSH20 0xFFFFFFFFFFFFFFFFFFFFFFFFFFFFFFFFFFFFFFFF MUL NOT AND SWAP1 DUP4 PUSH20 0xFFFFFFFFFFFFFFFFFFFFFFFFFFFFFFFFFFFFFFFF AND MUL OR SWAP1 SSTORE POP DUP4 PUSH1 0x2 PUSH0 PUSH2 0x100 EXP DUP2 SLOAD DUP2 PUSH20 0xFFFFFFFFFFFFFFFFFFFFFFFFFFFFFFFFFFFFFFFF MUL NOT AND SWAP1 DUP4 PUSH20 0xFFFFFFFFFFFFFFFFFFFFFFFFFFFFFFFFFFFFFFFF AND MUL OR SWAP1 SSTORE POP DUP3 PUSH1 0x3 DUP2 SWAP1 SSTORE POP DUP2 PUSH1 0x4 DUP2 SWAP1 SSTORE POP DUP1 PUSH1 0x5 DUP2 SWAP1 SSTORE POP POP POP POP POP POP PUSH2 0x2BC JUMP JUMPDEST PUSH0 CALLER SWAP1 POP SWAP1 JUMP JUMPDEST PUSH0 DUP1 PUSH0 SWAP1 SLOAD SWAP1 PUSH2 0x100 EXP SWAP1 DIV PUSH20 0xFFFFFFFFFFFFFFFFFFFFFFFFFFFFFFFFFFFFFFFF AND SWAP1 POP DUP2 PUSH0 DUP1 PUSH2 0x100 EXP DUP2 SLOAD DUP2 PUSH20 0xFFFFFFFFFFFFFFFFFFFFFFFFFFFFFFFFFFFFFFFF MUL NOT AND SWAP1 DUP4 PUSH20 0xFFFFFFFFFFFFFFFFFFFFFFFFFFFFFFFFFFFFFFFF AND MUL OR SWAP1 SSTORE POP DUP2 PUSH20 0xFFFFFFFFFFFFFFFFFFFFFFFFFFFFFFFFFFFFFFFF AND DUP2 PUSH20 0xFFFFFFFFFFFFFFFFFFFFFFFFFFFFFFFFFFFFFFFF AND PUSH32 0x8BE0079C531659141344CD1FD0A4F28419497F9722A3DAAFE3B4186F6B6457E0 PUSH1 0x40 MLOAD PUSH1 0x40 MLOAD DUP1 SWAP2 SUB SWAP1 LOG3 POP POP JUMP JUMPDEST PUSH0 DUP1 REVERT JUMPDEST PUSH0 PUSH20 0xFFFFFFFFFFFFFFFFFFFFFFFFFFFFFFFFFFFFFFFF DUP3 AND SWAP1 POP SWAP2 SWAP1 POP JUMP JUMPDEST PUSH0 PUSH2 0x1E1 DUP3 PUSH2 0x1B8 JUMP JUMPDEST SWAP1 POP SWAP2 SWAP1 POP JUMP JUMPDEST PUSH2 0x1F1 DUP2 PUSH2 0x1D7 JUMP JUMPDEST DUP2 EQ PUSH2 0x1FB JUMPI PUSH0 DUP1 REVERT JUMPDEST POP JUMP JUMPDEST PUSH0 DUP2 MLOAD SWAP1 POP PUSH2 0x20C DUP2 PUSH2 0x1E8 JUMP JUMPDEST SWAP3 SWAP2 POP POP JUMP JUMPDEST PUSH0 DUP2 SWAP1 POP SWAP2 SWAP1 POP JUMP JUMPDEST PUSH2 0x224 DUP2 PUSH2 0x212 JUMP JUMPDEST DUP2 EQ PUSH2 0x22E JUMPI PUSH0 DUP1 REVERT JUMPDEST POP JUMP JUMPDEST PUSH0 DUP2 MLOAD SWAP1 POP PUSH2 0x23F DUP2 PUSH2 0x21B JUMP JUMPDEST SWAP3 SWAP2 POP POP JUMP JUMPDEST PUSH0 DUP1 PUSH0 DUP1 PUSH0 PUSH1 0xA0 DUP7 DUP9 SUB SLT ISZERO PUSH2 0x25E JUMPI PUSH2 0x25D PUSH2 0x1B4 JUMP JUMPDEST JUMPDEST PUSH0 PUSH2 0x26B DUP9 DUP3 DUP10 ADD PUSH2 0x1FE JUMP JUMPDEST SWAP6 POP POP PUSH1 0x20 PUSH2 0x27C DUP9 DUP3 DUP10 ADD PUSH2 0x1FE JUMP JUMPDEST SWAP5 POP POP PUSH1 0x40 PUSH2 0x28D DUP9 DUP3 DUP10 ADD PUSH2 0x231 JUMP JUMPDEST SWAP4 POP POP PUSH1 0x60 PUSH2 0x29E DUP9 DUP3 DUP10 ADD PUSH2 0x231 JUMP JUMPDEST SWAP3 POP POP PUSH1 0x80 PUSH2 0x2AF DUP9 DUP3 DUP10 ADD PUSH2 0x231 JUMP JUMPDEST SWAP2 POP POP SWAP3 SWAP6 POP SWAP3 SWAP6 SWAP1 SWAP4 POP JUMP JUMPDEST PUSH2 0x13DE DUP1 PUSH2 0x2C9 PUSH0 CODECOPY PUSH0 RETURN INVALID PUSH1 0x80 PUSH1 0x40 MSTORE CALLVALUE DUP1 ISZERO PUSH2 0xF JUMPI PUSH0 DUP1 REVERT JUMPDEST POP PUSH1 0x4 CALLDATASIZE LT PUSH2 0xB2 JUMPI PUSH0 CALLDATALOAD PUSH1 0xE0 SHR DUP1 PUSH4 0x8DA5CB5B GT PUSH2 0x6F JUMPI DUP1 PUSH4 0x8DA5CB5B EQ PUSH2 0x166 JUMPI DUP1 PUSH4 0x8FEE6407 EQ PUSH2 0x184 JUMPI DUP1 PUSH4 0xDD467064 EQ PUSH2 0x1B7 JUMPI DUP1 PUSH4 0xEA768123 EQ PUSH2 0x1D3 JUMPI DUP1 PUSH4 0xF2FDE38B EQ PUSH2 0x1F1 JUMPI DUP1 PUSH4 0xF9BE04CA EQ PUSH2 0x20D JUMPI PUSH2 0xB2 JUMP JUMPDEST DUP1 PUSH4 0x58F5BD2 EQ PUSH2 0xB6 JUMPI DUP1 PUSH4 0x568B962A EQ PUSH2 0xD2 JUMPI DUP1 PUSH4 0x715018A6 EQ PUSH2 0xF0 JUMPI DUP1 PUSH4 0x7D515A10 EQ PUSH2 0xFA JUMPI DUP1 PUSH4 0x7E8D094C EQ PUSH2 0x118 JUMPI DUP1 PUSH4 0x83A811BF EQ PUSH2 0x148 JUMPI JUMPDEST PUSH0 DUP1 REVERT JUMPDEST PUSH2 0xD0 PUSH1 0x4 DUP1 CALLDATASIZE SUB DUP2 ADD SWAP1 PUSH2 0xCB SWAP2 SWAP1 PUSH2 0xBF0 JUMP JUMPDEST PUSH2 0x22B JUMP JUMPDEST STOP JUMPDEST PUSH2 0xDA PUSH2 0x528 JUMP JUMPDEST PUSH1 0x40 MLOAD PUSH2 0xE7 SWAP2 SWAP1 PUSH2 0xC4F JUMP JUMPDEST PUSH1 0x40 MLOAD DUP1 SWAP2 SUB SWAP1 RETURN JUMPDEST PUSH2 0xF8 PUSH2 0x52E JUMP JUMPDEST STOP JUMPDEST PUSH2 0x102 PUSH2 0x541 JUMP JUMPDEST PUSH1 0x40 MLOAD PUSH2 0x10F SWAP2 SWAP1 PUSH2 0xCA7 JUMP JUMPDEST PUSH1 0x40 MLOAD DUP1 SWAP2 SUB SWAP1 RETURN JUMPDEST PUSH2 0x132 PUSH1 0x4 DUP1 CALLDATASIZE SUB DUP2 ADD SWAP1 PUSH2 0x12D SWAP2 SWAP1 PUSH2 0xCC0 JUMP JUMPDEST PUSH2 0x566 JUMP JUMPDEST PUSH1 0x40 MLOAD PUSH2 0x13F SWAP2 SWAP1 PUSH2 0xD5C JUMP JUMPDEST PUSH1 0x40 MLOAD DUP1 SWAP2 SUB SWAP1 RETURN JUMPDEST PUSH2 0x150 PUSH2 0x603 JUMP JUMPDEST PUSH1 0x40 MLOAD PUSH2 0x15D SWAP2 SWAP1 PUSH2 0xC4F JUMP JUMPDEST PUSH1 0x40 MLOAD DUP1 SWAP2 SUB SWAP1 RETURN JUMPDEST PUSH2 0x16E PUSH2 0x609 JUMP JUMPDEST PUSH1 0x40 MLOAD PUSH2 0x17B SWAP2 SWAP1 PUSH2 0xCA7 JUMP JUMPDEST PUSH1 0x40 MLOAD DUP1 SWAP2 SUB SWAP1 RETURN JUMPDEST PUSH2 0x19E PUSH1 0x4 DUP1 CALLDATASIZE SUB DUP2 ADD SWAP1 PUSH2 0x199 SWAP2 SWAP1 PUSH2 0xCC0 JUMP JUMPDEST PUSH2 0x630 JUMP JUMPDEST PUSH1 0x40 MLOAD PUSH2 0x1AE SWAP5 SWAP4 SWAP3 SWAP2 SWAP1 PUSH2 0xD75 JUMP JUMPDEST PUSH1 0x40 MLOAD DUP1 SWAP2 SUB SWAP1 RETURN JUMPDEST PUSH2 0x1D1 PUSH1 0x4 DUP1 CALLDATASIZE SUB DUP2 ADD SWAP1 PUSH2 0x1CC SWAP2 SWAP1 PUSH2 0xDB8 JUMP JUMPDEST PUSH2 0x67B JUMP JUMPDEST STOP JUMPDEST PUSH2 0x1DB PUSH2 0x959 JUMP JUMPDEST PUSH1 0x40 MLOAD PUSH2 0x1E8 SWAP2 SWAP1 PUSH2 0xC4F JUMP JUMPDEST PUSH1 0x40 MLOAD DUP1 SWAP2 SUB SWAP1 RETURN JUMPDEST PUSH2 0x20B PUSH1 0x4 DUP1 CALLDATASIZE SUB DUP2 ADD SWAP1 PUSH2 0x206 SWAP2 SWAP1 PUSH2 0xE0D JUMP JUMPDEST PUSH2 0x95F JUMP JUMPDEST STOP JUMPDEST PUSH2 0x215 PUSH2 0x9E1 JUMP JUMPDEST PUSH1 0x40 MLOAD PUSH2 0x222 SWAP2 SWAP1 PUSH2 0xE93 JUMP JUMPDEST PUSH1 0x40 MLOAD DUP1 SWAP2 SUB SWAP1 RETURN JUMPDEST PUSH2 0x233 PUSH2 0xA06 JUMP JUMPDEST PUSH0 PUSH1 0x6 PUSH0 DUP6 DUP2 MSTORE PUSH1 0x20 ADD SWAP1 DUP2 MSTORE PUSH1 0x20 ADD PUSH0 KECCAK256 SWAP1 POP TIMESTAMP DUP2 PUSH1 0x3 ADD SLOAD GT ISZERO PUSH2 0x28E JUMPI PUSH1 0x40 MLOAD PUSH32 0x8C379A000000000000000000000000000000000000000000000000000000000 DUP2 MSTORE PUSH1 0x4 ADD PUSH2 0x285 SWAP1 PUSH2 0xF06 JUMP JUMPDEST PUSH1 0x40 MLOAD DUP1 SWAP2 SUB SWAP1 REVERT JUMPDEST PUSH0 PUSH20 0xFFFFFFFFFFFFFFFFFFFFFFFFFFFFFFFFFFFFFFFF AND DUP2 PUSH0 ADD PUSH0 SWAP1 SLOAD SWAP1 PUSH2 0x100 EXP SWAP1 DIV PUSH20 0xFFFFFFFFFFFFFFFFFFFFFFFFFFFFFFFFFFFFFFFF AND PUSH20 0xFFFFFFFFFFFFFFFFFFFFFFFFFFFFFFFFFFFFFFFF AND SUB PUSH2 0x31E JUMPI PUSH1 0x40 MLOAD PUSH32 0x8C379A000000000000000000000000000000000000000000000000000000000 DUP2 MSTORE PUSH1 0x4 ADD PUSH2 0x315 SWAP1 PUSH2 0xF6E JUMP JUMPDEST PUSH1 0x40 MLOAD DUP1 SWAP2 SUB SWAP1 REVERT JUMPDEST PUSH1 0x1 PUSH0 SWAP1 SLOAD SWAP1 PUSH2 0x100 EXP SWAP1 DIV PUSH20 0xFFFFFFFFFFFFFFFFFFFFFFFFFFFFFFFFFFFFFFFF AND PUSH20 0xFFFFFFFFFFFFFFFFFFFFFFFFFFFFFFFFFFFFFFFF AND PUSH4 0x23B872DD ADDRESS PUSH1 0x2 PUSH0 SWAP1 SLOAD SWAP1 PUSH2 0x100 EXP SWAP1 DIV PUSH20 0xFFFFFFFFFFFFFFFFFFFFFFFFFFFFFFFFFFFFFFFF AND DUP5 PUSH1 0x1 ADD SLOAD PUSH1 0x40 MLOAD DUP5 PUSH4 0xFFFFFFFF AND PUSH1 0xE0 SHL DUP2 MSTORE PUSH1 0x4 ADD PUSH2 0x3A1 SWAP4 SWAP3 SWAP2 SWAP1 PUSH2 0xF8C JUMP JUMPDEST PUSH0 PUSH1 0x40 MLOAD DUP1 DUP4 SUB DUP2 PUSH0 DUP8 DUP1 EXTCODESIZE ISZERO DUP1 ISZERO PUSH2 0x3B8 JUMPI PUSH0 DUP1 REVERT JUMPDEST POP GAS CALL ISZERO DUP1 ISZERO PUSH2 0x3CA JUMPI RETURNDATASIZE PUSH0 DUP1 RETURNDATACOPY RETURNDATASIZE PUSH0 REVERT JUMPDEST POP POP POP POP PUSH0 PUSH1 0x1 PUSH0 SWAP1 SLOAD SWAP1 PUSH2 0x100 EXP SWAP1 DIV PUSH20 0xFFFFFFFFFFFFFFFFFFFFFFFFFFFFFFFFFFFFFFFF AND SWAP1 POP PUSH0 DUP2 PUSH20 0xFFFFFFFFFFFFFFFFFFFFFFFFFFFFFFFFFFFFFFFF AND PUSH4 0x4A5DC3AA DUP5 PUSH0 ADD PUSH0 SWAP1 SLOAD SWAP1 PUSH2 0x100 EXP SWAP1 DIV PUSH20 0xFFFFFFFFFFFFFFFFFFFFFFFFFFFFFFFFFFFFFFFF AND DUP8 DUP8 PUSH1 0x40 MLOAD DUP5 PUSH4 0xFFFFFFFF AND PUSH1 0xE0 SHL DUP2 MSTORE PUSH1 0x4 ADD PUSH2 0x453 SWAP4 SWAP3 SWAP2 SWAP1 PUSH2 0xFE4 JUMP JUMPDEST PUSH1 0x20 PUSH1 0x40 MLOAD DUP1 DUP4 SUB DUP2 PUSH0 DUP8 GAS CALL ISZERO DUP1 ISZERO PUSH2 0x46F JUMPI RETURNDATASIZE PUSH0 DUP1 RETURNDATACOPY RETURNDATASIZE PUSH0 REVERT JUMPDEST POP POP POP POP PUSH1 0x40 MLOAD RETURNDATASIZE PUSH1 0x1F NOT PUSH1 0x1F DUP3 ADD AND DUP3 ADD DUP1 PUSH1 0x40 MSTORE POP DUP2 ADD SWAP1 PUSH2 0x493 SWAP2 SWAP1 PUSH2 0x1040 JUMP JUMPDEST SWAP1 POP PUSH1 0x6 PUSH0 DUP8 DUP2 MSTORE PUSH1 0x20 ADD SWAP1 DUP2 MSTORE PUSH1 0x20 ADD PUSH0 KECCAK256 PUSH0 DUP1 DUP3 ADD PUSH0 PUSH2 0x100 EXP DUP2 SLOAD SWAP1 PUSH20 0xFFFFFFFFFFFFFFFFFFFFFFFFFFFFFFFFFFFFFFFF MUL NOT AND SWAP1 SSTORE PUSH1 0x1 DUP3 ADD PUSH0 SWAP1 SSTORE PUSH1 0x2 DUP3 ADD PUSH0 SWAP1 SSTORE PUSH1 0x3 DUP3 ADD PUSH0 SWAP1 SSTORE POP POP PUSH32 0x953492253E6644C7B92E66165D8BE578FDCE14ECD4512EBE7BE9A5CA998A31E DUP4 PUSH1 0x1 ADD SLOAD DUP3 PUSH1 0x40 MLOAD PUSH2 0x518 SWAP3 SWAP2 SWAP1 PUSH2 0x106B JUMP JUMPDEST PUSH1 0x40 MLOAD DUP1 SWAP2 SUB SWAP1 LOG1 POP POP POP POP POP POP JUMP JUMPDEST PUSH1 0x3 SLOAD DUP2 JUMP JUMPDEST PUSH2 0x536 PUSH2 0xA06 JUMP JUMPDEST PUSH2 0x53F PUSH0 PUSH2 0xA84 JUMP JUMPDEST JUMP JUMPDEST PUSH1 0x2 PUSH0 SWAP1 SLOAD SWAP1 PUSH2 0x100 EXP SWAP1 DIV PUSH20 0xFFFFFFFFFFFFFFFFFFFFFFFFFFFFFFFFFFFFFFFF AND DUP2 JUMP JUMPDEST PUSH2 0x56E PUSH2 0xB4C JUMP JUMPDEST PUSH1 0x6 PUSH0 DUP4 DUP2 MSTORE PUSH1 0x20 ADD SWAP1 DUP2 MSTORE PUSH1 0x20 ADD PUSH0 KECCAK256 PUSH1 0x40 MLOAD DUP1 PUSH1 0x80 ADD PUSH1 0x40 MSTORE SWAP1 DUP2 PUSH0 DUP3 ADD PUSH0 SWAP1 SLOAD SWAP1 PUSH2 0x100 EXP SWAP1 DIV PUSH20 0xFFFFFFFFFFFFFFFFFFFFFFFFFFFFFFFFFFFFFFFF AND PUSH20 0xFFFFFFFFFFFFFFFFFFFFFFFFFFFFFFFFFFFFFFFF AND PUSH20 0xFFFFFFFFFFFFFFFFFFFFFFFFFFFFFFFFFFFFFFFF AND DUP2 MSTORE PUSH1 0x20 ADD PUSH1 0x1 DUP3 ADD SLOAD DUP2 MSTORE PUSH1 0x20 ADD PUSH1 0x2 DUP3 ADD SLOAD DUP2 MSTORE PUSH1 0x20 ADD PUSH1 0x3 DUP3 ADD SLOAD DUP2 MSTORE POP POP SWAP1 POP SWAP2 SWAP1 POP JUMP JUMPDEST PUSH1 0x5 SLOAD DUP2 JUMP JUMPDEST PUSH0 DUP1 PUSH0 SWAP1 SLOAD SWAP1 PUSH2 0x100 EXP SWAP1 DIV PUSH20 0xFFFFFFFFFFFFFFFFFFFFFFFFFFFFFFFFFFFFFFFF AND SWAP1 POP SWAP1 JUMP JUMPDEST PUSH1 0x6 PUSH1 0x20 MSTORE DUP1 PUSH0 MSTORE PUSH1 0x40 PUSH0 KECCAK256 PUSH0 SWAP2 POP SWAP1 POP DUP1 PUSH0 ADD PUSH0 SWAP1 SLOAD SWAP1 PUSH2 0x100 EXP SWAP1 DIV PUSH20 0xFFFFFFFFFFFFFFFFFFFFFFFFFFFFFFFFFFFFFFFF AND SWAP1 DUP1 PUSH1 0x1 ADD SLOAD SWAP1 DUP1 PUSH1 0x2 ADD SLOAD SWAP1 DUP1 PUSH1 0x3 ADD SLOAD SWAP1 POP DUP5 JUMP JUMPDEST CALLER PUSH20 0xFFFFFFFFFFFFFFFFFFFFFFFFFFFFFFFFFFFFFFFF AND PUSH1 0x1 PUSH0 SWAP1 SLOAD SWAP1 PUSH2 0x100 EXP SWAP1 DIV PUSH20 0xFFFFFFFFFFFFFFFFFFFFFFFFFFFFFFFFFFFFFFFF AND PUSH20 0xFFFFFFFFFFFFFFFFFFFFFFFFFFFFFFFFFFFFFFFF AND PUSH4 0x6352211E DUP4 PUSH1 0x40 MLOAD DUP3 PUSH4 0xFFFFFFFF AND PUSH1 0xE0 SHL DUP2 MSTORE PUSH1 0x4 ADD PUSH2 0x6EC SWAP2 SWAP1 PUSH2 0xC4F JUMP JUMPDEST PUSH1 0x20 PUSH1 0x40 MLOAD DUP1 DUP4 SUB DUP2 DUP7 GAS STATICCALL ISZERO DUP1 ISZERO PUSH2 0x707 JUMPI RETURNDATASIZE PUSH0 DUP1 RETURNDATACOPY RETURNDATASIZE PUSH0 REVERT JUMPDEST POP POP POP POP PUSH1 0x40 MLOAD RETURNDATASIZE PUSH1 0x1F NOT PUSH1 0x1F DUP3 ADD AND DUP3 ADD DUP1 PUSH1 0x40 MSTORE POP DUP2 ADD SWAP1 PUSH2 0x72B SWAP2 SWAP1 PUSH2 0x10A6 JUMP JUMPDEST PUSH20 0xFFFFFFFFFFFFFFFFFFFFFFFFFFFFFFFFFFFFFFFF AND EQ PUSH2 0x781 JUMPI PUSH1 0x40 MLOAD PUSH32 0x8C379A000000000000000000000000000000000000000000000000000000000 DUP2 MSTORE PUSH1 0x4 ADD PUSH2 0x778 SWAP1 PUSH2 0x1141 JUMP JUMPDEST PUSH1 0x40 MLOAD DUP1 SWAP2 SUB SWAP1 REVERT JUMPDEST PUSH0 DUP2 CALLER TIMESTAMP PUSH1 0x40 MLOAD PUSH1 0x20 ADD PUSH2 0x797 SWAP4 SWAP3 SWAP2 SWAP1 PUSH2 0x11C4 JUMP JUMPDEST PUSH1 0x40 MLOAD PUSH1 0x20 DUP2 DUP4 SUB SUB DUP2 MSTORE SWAP1 PUSH1 0x40 MSTORE DUP1 MLOAD SWAP1 PUSH1 0x20 ADD KECCAK256 SWAP1 POP PUSH0 TIMESTAMP SWAP1 POP PUSH0 PUSH1 0x5 SLOAD PUSH1 0x4 SLOAD PUSH1 0x3 SLOAD DUP5 PUSH2 0x7C8 SWAP2 SWAP1 PUSH2 0x122D JUMP JUMPDEST PUSH2 0x7D2 SWAP2 SWAP1 PUSH2 0x122D JUMP JUMPDEST PUSH2 0x7DC SWAP2 SWAP1 PUSH2 0x122D JUMP JUMPDEST SWAP1 POP PUSH1 0x40 MLOAD DUP1 PUSH1 0x80 ADD PUSH1 0x40 MSTORE DUP1 CALLER PUSH20 0xFFFFFFFFFFFFFFFFFFFFFFFFFFFFFFFFFFFFFFFF AND DUP2 MSTORE PUSH1 0x20 ADD DUP6 DUP2 MSTORE PUSH1 0x20 ADD DUP4 DUP2 MSTORE PUSH1 0x20 ADD DUP3 DUP2 MSTORE POP PUSH1 0x6 PUSH0 DUP6 DUP2 MSTORE PUSH1 0x20 ADD SWAP1 DUP2 MSTORE PUSH1 0x20 ADD PUSH0 KECCAK256 PUSH0 DUP3 ADD MLOAD DUP2 PUSH0 ADD PUSH0 PUSH2 0x100 EXP DUP2 SLOAD DUP2 PUSH20 0xFFFFFFFFFFFFFFFFFFFFFFFFFFFFFFFFFFFFFFFF MUL NOT AND SWAP1 DUP4 PUSH20 0xFFFFFFFFFFFFFFFFFFFFFFFFFFFFFFFFFFFFFFFF AND MUL OR SWAP1 SSTORE POP PUSH1 0x20 DUP3 ADD MLOAD DUP2 PUSH1 0x1 ADD SSTORE PUSH1 0x40 DUP3 ADD MLOAD DUP2 PUSH1 0x2 ADD SSTORE PUSH1 0x60 DUP3 ADD MLOAD DUP2 PUSH1 0x3 ADD SSTORE SWAP1 POP POP PUSH1 0x1 PUSH0 SWAP1 SLOAD SWAP1 PUSH2 0x100 EXP SWAP1 DIV PUSH20 0xFFFFFFFFFFFFFFFFFFFFFFFFFFFFFFFFFFFFFFFF AND PUSH20 0xFFFFFFFFFFFFFFFFFFFFFFFFFFFFFFFFFFFFFFFF AND PUSH4 0x23B872DD CALLER ADDRESS DUP8 PUSH1 0x40 MLOAD DUP5 PUSH4 0xFFFFFFFF AND PUSH1 0xE0 SHL DUP2 MSTORE PUSH1 0x4 ADD PUSH2 0x8E9 SWAP4 SWAP3 SWAP2 SWAP1 PUSH2 0xF8C JUMP JUMPDEST PUSH0 PUSH1 0x40 MLOAD DUP1 DUP4 SUB DUP2 PUSH0 DUP8 DUP1 EXTCODESIZE ISZERO DUP1 ISZERO PUSH2 0x900 JUMPI PUSH0 DUP1 REVERT JUMPDEST POP GAS CALL ISZERO DUP1 ISZERO PUSH2 0x912 JUMPI RETURNDATASIZE PUSH0 DUP1 RETURNDATACOPY RETURNDATASIZE PUSH0 REVERT JUMPDEST POP POP POP POP PUSH32 0xE42732012F91412364B2848D4C8C3D8DD5508E0A5A0F60D6E1DE7843145EA5C0 DUP4 CALLER DUP7 DUP5 PUSH1 0x40 MLOAD PUSH2 0x94B SWAP5 SWAP4 SWAP3 SWAP2 SWAP1 PUSH2 0x126F JUMP JUMPDEST PUSH1 0x40 MLOAD DUP1 SWAP2 SUB SWAP1 LOG1 POP POP POP POP JUMP JUMPDEST PUSH1 0x4 SLOAD DUP2 JUMP JUMPDEST PUSH2 0x967 PUSH2 0xA06 JUMP JUMPDEST PUSH0 PUSH20 0xFFFFFFFFFFFFFFFFFFFFFFFFFFFFFFFFFFFFFFFF AND DUP2 PUSH20 0xFFFFFFFFFFFFFFFFFFFFFFFFFFFFFFFFFFFFFFFF AND SUB PUSH2 0x9D5 JUMPI PUSH1 0x40 MLOAD PUSH32 0x8C379A000000000000000000000000000000000000000000000000000000000 DUP2 MSTORE PUSH1 0x4 ADD PUSH2 0x9CC SWAP1 PUSH2 0x1322 JUMP JUMPDEST PUSH1 0x40 MLOAD DUP1 SWAP2 SUB SWAP1 REVERT JUMPDEST PUSH2 0x9DE DUP2 PUSH2 0xA84 JUMP JUMPDEST POP JUMP JUMPDEST PUSH1 0x1 PUSH0 SWAP1 SLOAD SWAP1 PUSH2 0x100 EXP SWAP1 DIV PUSH20 0xFFFFFFFFFFFFFFFFFFFFFFFFFFFFFFFFFFFFFFFF AND DUP2 JUMP JUMPDEST PUSH2 0xA0E PUSH2 0xB45 JUMP JUMPDEST PUSH20 0xFFFFFFFFFFFFFFFFFFFFFFFFFFFFFFFFFFFFFFFF AND PUSH2 0xA2C PUSH2 0x609 JUMP JUMPDEST PUSH20 0xFFFFFFFFFFFFFFFFFFFFFFFFFFFFFFFFFFFFFFFF AND EQ PUSH2 0xA82 JUMPI PUSH1 0x40 MLOAD PUSH32 0x8C379A000000000000000000000000000000000000000000000000000000000 DUP2 MSTORE PUSH1 0x4 ADD PUSH2 0xA79 SWAP1 PUSH2 0x138A JUMP JUMPDEST PUSH1 0x40 MLOAD DUP1 SWAP2 SUB SWAP1 REVERT JUMPDEST JUMP JUMPDEST PUSH0 DUP1 PUSH0 SWAP1 SLOAD SWAP1 PUSH2 0x100 EXP SWAP1 DIV PUSH20 0xFFFFFFFFFFFFFFFFFFFFFFFFFFFFFFFFFFFFFFFF AND SWAP1 POP DUP2 PUSH0 DUP1 PUSH2 0x100 EXP DUP2 SLOAD DUP2 PUSH20 0xFFFFFFFFFFFFFFFFFFFFFFFFFFFFFFFFFFFFFFFF MUL NOT AND SWAP1 DUP4 PUSH20 0xFFFFFFFFFFFFFFFFFFFFFFFFFFFFFFFFFFFFFFFF AND MUL OR SWAP1 SSTORE POP DUP2 PUSH20 0xFFFFFFFFFFFFFFFFFFFFFFFFFFFFFFFFFFFFFFFF AND DUP2 PUSH20 0xFFFFFFFFFFFFFFFFFFFFFFFFFFFFFFFFFFFFFFFF AND PUSH32 0x8BE0079C531659141344CD1FD0A4F28419497F9722A3DAAFE3B4186F6B6457E0 PUSH1 0x40 MLOAD PUSH1 0x40 MLOAD DUP1 SWAP2 SUB SWAP1 LOG3 POP POP JUMP JUMPDEST PUSH0 CALLER SWAP1 POP SWAP1 JUMP JUMPDEST PUSH1 0x40 MLOAD DUP1 PUSH1 0x80 ADD PUSH1 0x40 MSTORE DUP1 PUSH0 PUSH20 0xFFFFFFFFFFFFFFFFFFFFFFFFFFFFFFFFFFFFFFFF AND DUP2 MSTORE PUSH1 0x20 ADD PUSH0 DUP2 MSTORE PUSH1 0x20 ADD PUSH0 DUP2 MSTORE PUSH1 0x20 ADD PUSH0 DUP2 MSTORE POP SWAP1 JUMP JUMPDEST PUSH0 DUP1 REVERT JUMPDEST PUSH0 DUP2 SWAP1 POP SWAP2 SWAP1 POP JUMP JUMPDEST PUSH2 0xB9C DUP2 PUSH2 0xB8A JUMP JUMPDEST DUP2 EQ PUSH2 0xBA6 JUMPI PUSH0 DUP1 REVERT JUMPDEST POP JUMP JUMPDEST PUSH0 DUP2 CALLDATALOAD SWAP1 POP PUSH2 0xBB7 DUP2 PUSH2 0xB93 JUMP JUMPDEST SWAP3 SWAP2 POP POP JUMP JUMPDEST PUSH0 DUP2 SWAP1 POP SWAP2 SWAP1 POP JUMP JUMPDEST PUSH2 0xBCF DUP2 PUSH2 0xBBD JUMP JUMPDEST DUP2 EQ PUSH2 0xBD9 JUMPI PUSH0 DUP1 REVERT JUMPDEST POP JUMP JUMPDEST PUSH0 DUP2 CALLDATALOAD SWAP1 POP PUSH2 0xBEA DUP2 PUSH2 0xBC6 JUMP JUMPDEST SWAP3 SWAP2 POP POP JUMP JUMPDEST PUSH0 DUP1 PUSH0 PUSH1 0x60 DUP5 DUP7 SUB SLT ISZERO PUSH2 0xC07 JUMPI PUSH2 0xC06 PUSH2 0xB86 JUMP JUMPDEST JUMPDEST PUSH0 PUSH2 0xC14 DUP7 DUP3 DUP8 ADD PUSH2 0xBA9 JUMP JUMPDEST SWAP4 POP POP PUSH1 0x20 PUSH2 0xC25 DUP7 DUP3 DUP8 ADD PUSH2 0xBDC JUMP JUMPDEST SWAP3 POP POP PUSH1 0x40 PUSH2 0xC36 DUP7 DUP3 DUP8 ADD PUSH2 0xBDC JUMP JUMPDEST SWAP2 POP POP SWAP3 POP SWAP3 POP SWAP3 JUMP JUMPDEST PUSH2 0xC49 DUP2 PUSH2 0xBBD JUMP JUMPDEST DUP3 MSTORE POP POP JUMP JUMPDEST PUSH0 PUSH1 0x20 DUP3 ADD SWAP1 POP PUSH2 0xC62 PUSH0 DUP4 ADD DUP5 PUSH2 0xC40 JUMP JUMPDEST SWAP3 SWAP2 POP POP JUMP JUMPDEST PUSH0 PUSH20 0xFFFFFFFFFFFFFFFFFFFFFFFFFFFFFFFFFFFFFFFF DUP3 AND SWAP1 POP SWAP2 SWAP1 POP JUMP JUMPDEST PUSH0 PUSH2 0xC91 DUP3 PUSH2 0xC68 JUMP JUMPDEST SWAP1 POP SWAP2 SWAP1 POP JUMP JUMPDEST PUSH2 0xCA1 DUP2 PUSH2 0xC87 JUMP JUMPDEST DUP3 MSTORE POP POP JUMP JUMPDEST PUSH0 PUSH1 0x20 DUP3 ADD SWAP1 POP PUSH2 0xCBA PUSH0 DUP4 ADD DUP5 PUSH2 0xC98 JUMP JUMPDEST SWAP3 SWAP2 POP POP JUMP JUMPDEST PUSH0 PUSH1 0x20 DUP3 DUP5 SUB SLT ISZERO PUSH2 0xCD5 JUMPI PUSH2 0xCD4 PUSH2 0xB86 JUMP JUMPDEST JUMPDEST PUSH0 PUSH2 0xCE2 DUP5 DUP3 DUP6 ADD PUSH2 0xBA9 JUMP JUMPDEST SWAP2 POP POP SWAP3 SWAP2 POP POP JUMP JUMPDEST PUSH2 0xCF4 DUP2 PUSH2 0xC87 JUMP JUMPDEST DUP3 MSTORE POP POP JUMP JUMPDEST PUSH2 0xD03 DUP2 PUSH2 0xBBD JUMP JUMPDEST DUP3 MSTORE POP POP JUMP JUMPDEST PUSH1 0x80 DUP3 ADD PUSH0 DUP3 ADD MLOAD PUSH2 0xD1D PUSH0 DUP6 ADD DUP3 PUSH2 0xCEB JUMP JUMPDEST POP PUSH1 0x20 DUP3 ADD MLOAD PUSH2 0xD30 PUSH1 0x20 DUP6 ADD DUP3 PUSH2 0xCFA JUMP JUMPDEST POP PUSH1 0x40 DUP3 ADD MLOAD PUSH2 0xD43 PUSH1 0x40 DUP6 ADD DUP3 PUSH2 0xCFA JUMP JUMPDEST POP PUSH1 0x60 DUP3 ADD MLOAD PUSH2 0xD56 PUSH1 0x60 DUP6 ADD DUP3 PUSH2 0xCFA JUMP JUMPDEST POP POP POP POP JUMP JUMPDEST PUSH0 PUSH1 0x80 DUP3 ADD SWAP1 POP PUSH2 0xD6F PUSH0 DUP4 ADD DUP5 PUSH2 0xD09 JUMP JUMPDEST SWAP3 SWAP2 POP POP JUMP JUMPDEST PUSH0 PUSH1 0x80 DUP3 ADD SWAP1 POP PUSH2 0xD88 PUSH0 DUP4 ADD DUP8 PUSH2 0xC98 JUMP JUMPDEST PUSH2 0xD95 PUSH1 0x20 DUP4 ADD DUP7 PUSH2 0xC40 JUMP JUMPDEST PUSH2 0xDA2 PUSH1 0x40 DUP4 ADD DUP6 PUSH2 0xC40 JUMP JUMPDEST PUSH2 0xDAF PUSH1 0x60 DUP4 ADD DUP5 PUSH2 0xC40 JUMP JUMPDEST SWAP6 SWAP5 POP POP POP POP POP JUMP JUMPDEST PUSH0 PUSH1 0x20 DUP3 DUP5 SUB SLT ISZERO PUSH2 0xDCD JUMPI PUSH2 0xDCC PUSH2 0xB86 JUMP JUMPDEST JUMPDEST PUSH0 PUSH2 0xDDA DUP5 DUP3 DUP6 ADD PUSH2 0xBDC JUMP JUMPDEST SWAP2 POP POP SWAP3 SWAP2 POP POP JUMP JUMPDEST PUSH2 0xDEC DUP2 PUSH2 0xC87 JUMP JUMPDEST DUP2 EQ PUSH2 0xDF6 JUMPI PUSH0 DUP1 REVERT JUMPDEST POP JUMP JUMPDEST PUSH0 DUP2 CALLDATALOAD SWAP1 POP PUSH2 0xE07 DUP2 PUSH2 0xDE3 JUMP JUMPDEST SWAP3 SWAP2 POP POP JUMP JUMPDEST PUSH0 PUSH1 0x20 DUP3 DUP5 SUB SLT ISZERO PUSH2 0xE22 JUMPI PUSH2 0xE21 PUSH2 0xB86 JUMP JUMPDEST JUMPDEST PUSH0 PUSH2 0xE2F DUP5 DUP3 DUP6 ADD PUSH2 0xDF9 JUMP JUMPDEST SWAP2 POP POP SWAP3 SWAP2 POP POP JUMP JUMPDEST PUSH0 DUP2 SWAP1 POP SWAP2 SWAP1 POP JUMP JUMPDEST PUSH0 PUSH2 0xE5B PUSH2 0xE56 PUSH2 0xE51 DUP5 PUSH2 0xC68 JUMP JUMPDEST PUSH2 0xE38 JUMP JUMPDEST PUSH2 0xC68 JUMP JUMPDEST SWAP1 POP SWAP2 SWAP1 POP JUMP JUMPDEST PUSH0 PUSH2 0xE6C DUP3 PUSH2 0xE41 JUMP JUMPDEST SWAP1 POP SWAP2 SWAP1 POP JUMP JUMPDEST PUSH0 PUSH2 0xE7D DUP3 PUSH2 0xE62 JUMP JUMPDEST SWAP1 POP SWAP2 SWAP1 POP JUMP JUMPDEST PUSH2 0xE8D DUP2 PUSH2 0xE73 JUMP JUMPDEST DUP3 MSTORE POP POP JUMP JUMPDEST PUSH0 PUSH1 0x20 DUP3 ADD SWAP1 POP PUSH2 0xEA6 PUSH0 DUP4 ADD DUP5 PUSH2 0xE84 JUMP JUMPDEST SWAP3 SWAP2 POP POP JUMP JUMPDEST PUSH0 DUP3 DUP3 MSTORE PUSH1 0x20 DUP3 ADD SWAP1 POP SWAP3 SWAP2 POP POP JUMP JUMPDEST PUSH32 0x446561646C696E65206E6F742072656163686564000000000000000000000000 PUSH0 DUP3 ADD MSTORE POP JUMP JUMPDEST PUSH0 PUSH2 0xEF0 PUSH1 0x14 DUP4 PUSH2 0xEAC JUMP JUMPDEST SWAP2 POP PUSH2 0xEFB DUP3 PUSH2 0xEBC JUMP JUMPDEST PUSH1 0x20 DUP3 ADD SWAP1 POP SWAP2 SWAP1 POP JUMP JUMPDEST PUSH0 PUSH1 0x20 DUP3 ADD SWAP1 POP DUP2 DUP2 SUB PUSH0 DUP4 ADD MSTORE PUSH2 0xF1D DUP2 PUSH2 0xEE4 JUMP JUMPDEST SWAP1 POP SWAP2 SWAP1 POP JUMP JUMPDEST PUSH32 0x496E76616C6964207374616B6500000000000000000000000000000000000000 PUSH0 DUP3 ADD MSTORE POP JUMP JUMPDEST PUSH0 PUSH2 0xF58 PUSH1 0xD DUP4 PUSH2 0xEAC JUMP JUMPDEST SWAP2 POP PUSH2 0xF63 DUP3 PUSH2 0xF24 JUMP JUMPDEST PUSH1 0x20 DUP3 ADD SWAP1 POP SWAP2 SWAP1 POP JUMP JUMPDEST PUSH0 PUSH1 0x20 DUP3 ADD SWAP1 POP DUP2 DUP2 SUB PUSH0 DUP4 ADD MSTORE PUSH2 0xF85 DUP2 PUSH2 0xF4C JUMP JUMPDEST SWAP1 POP SWAP2 SWAP1 POP JUMP JUMPDEST PUSH0 PUSH1 0x60 DUP3 ADD SWAP1 POP PUSH2 0xF9F PUSH0 DUP4 ADD DUP7 PUSH2 0xC98 JUMP JUMPDEST PUSH2 0xFAC PUSH1 0x20 DUP4 ADD DUP6 PUSH2 0xC98 JUMP JUMPDEST PUSH2 0xFB9 PUSH1 0x40 DUP4 ADD DUP5 PUSH2 0xC40 JUMP JUMPDEST SWAP5 SWAP4 POP POP POP POP JUMP JUMPDEST POP JUMP JUMPDEST PUSH0 PUSH2 0xFCF PUSH0 DUP4 PUSH2 0xEAC JUMP JUMPDEST SWAP2 POP PUSH2 0xFDA DUP3 PUSH2 0xFC1 JUMP JUMPDEST PUSH0 DUP3 ADD SWAP1 POP SWAP2 SWAP1 POP JUMP JUMPDEST PUSH0 PUSH1 0x80 DUP3 ADD SWAP1 POP PUSH2 0xFF7 PUSH0 DUP4 ADD DUP7 PUSH2 0xC98 JUMP JUMPDEST DUP2 DUP2 SUB PUSH1 0x20 DUP4 ADD MSTORE PUSH2 0x1008 DUP2 PUSH2 0xFC4 JUMP JUMPDEST SWAP1 POP PUSH2 0x1017 PUSH1 0x40 DUP4 ADD DUP6 PUSH2 0xC40 JUMP JUMPDEST PUSH2 0x1024 PUSH1 0x60 DUP4 ADD DUP5 PUSH2 0xC40 JUMP JUMPDEST SWAP5 SWAP4 POP POP POP POP JUMP JUMPDEST PUSH0 DUP2 MLOAD SWAP1 POP PUSH2 0x103A DUP2 PUSH2 0xBC6 JUMP JUMPDEST SWAP3 SWAP2 POP POP JUMP JUMPDEST PUSH0 PUSH1 0x20 DUP3 DUP5 SUB SLT ISZERO PUSH2 0x1055 JUMPI PUSH2 0x1054 PUSH2 0xB86 JUMP JUMPDEST JUMPDEST PUSH0 PUSH2 0x1062 DUP5 DUP3 DUP6 ADD PUSH2 0x102C JUMP JUMPDEST SWAP2 POP POP SWAP3 SWAP2 POP POP JUMP JUMPDEST PUSH0 PUSH1 0x40 DUP3 ADD SWAP1 POP PUSH2 0x107E PUSH0 DUP4 ADD DUP6 PUSH2 0xC40 JUMP JUMPDEST PUSH2 0x108B PUSH1 0x20 DUP4 ADD DUP5 PUSH2 0xC40 JUMP JUMPDEST SWAP4 SWAP3 POP POP POP JUMP JUMPDEST PUSH0 DUP2 MLOAD SWAP1 POP PUSH2 0x10A0 DUP2 PUSH2 0xDE3 JUMP JUMPDEST SWAP3 SWAP2 POP POP JUMP JUMPDEST PUSH0 PUSH1 0x20 DUP3 DUP5 SUB SLT ISZERO PUSH2 0x10BB JUMPI PUSH2 0x10BA PUSH2 0xB86 JUMP JUMPDEST JUMPDEST PUSH0 PUSH2 0x10C8 DUP5 DUP3 DUP6 ADD PUSH2 0x1092 JUMP JUMPDEST SWAP2 POP POP SWAP3 SWAP2 POP POP JUMP JUMPDEST PUSH32 0x596F7520617265206E6F7420746865206F776E6572206F662074686973204E46 PUSH0 DUP3 ADD MSTORE PUSH32 0x5400000000000000000000000000000000000000000000000000000000000000 PUSH1 0x20 DUP3 ADD MSTORE POP JUMP JUMPDEST PUSH0 PUSH2 0x112B PUSH1 0x21 DUP4 PUSH2 0xEAC JUMP JUMPDEST SWAP2 POP PUSH2 0x1136 DUP3 PUSH2 0x10D1 JUMP JUMPDEST PUSH1 0x40 DUP3 ADD SWAP1 POP SWAP2 SWAP1 POP JUMP JUMPDEST PUSH0 PUSH1 0x20 DUP3 ADD SWAP1 POP DUP2 DUP2 SUB PUSH0 DUP4 ADD MSTORE PUSH2 0x1158 DUP2 PUSH2 0x111F JUMP JUMPDEST SWAP1 POP SWAP2 SWAP1 POP JUMP JUMPDEST PUSH0 DUP2 SWAP1 POP SWAP2 SWAP1 POP JUMP JUMPDEST PUSH2 0x1179 PUSH2 0x1174 DUP3 PUSH2 0xBBD JUMP JUMPDEST PUSH2 0x115F JUMP JUMPDEST DUP3 MSTORE POP POP JUMP JUMPDEST PUSH0 DUP2 PUSH1 0x60 SHL SWAP1 POP SWAP2 SWAP1 POP JUMP JUMPDEST PUSH0 PUSH2 0x1195 DUP3 PUSH2 0x117F JUMP JUMPDEST SWAP1 POP SWAP2 SWAP1 POP JUMP JUMPDEST PUSH0 PUSH2 0x11A6 DUP3 PUSH2 0x118B JUMP JUMPDEST SWAP1 POP SWAP2 SWAP1 POP JUMP JUMPDEST PUSH2 0x11BE PUSH2 0x11B9 DUP3 PUSH2 0xC87 JUMP JUMPDEST PUSH2 0x119C JUMP JUMPDEST DUP3 MSTORE POP POP JUMP JUMPDEST PUSH0 PUSH2 0x11CF DUP3 DUP7 PUSH2 0x1168 JUMP JUMPDEST PUSH1 0x20 DUP3 ADD SWAP2 POP PUSH2 0x11DF DUP3 DUP6 PUSH2 0x11AD JUMP JUMPDEST PUSH1 0x14 DUP3 ADD SWAP2 POP PUSH2 0x11EF DUP3 DUP5 PUSH2 0x1168 JUMP JUMPDEST PUSH1 0x20 DUP3 ADD SWAP2 POP DUP2 SWAP1 POP SWAP5 SWAP4 POP POP POP POP JUMP JUMPDEST PUSH32 0x4E487B7100000000000000000000000000000000000000000000000000000000 PUSH0 MSTORE PUSH1 0x11 PUSH1 0x4 MSTORE PUSH1 0x24 PUSH0 REVERT JUMPDEST PUSH0 PUSH2 0x1237 DUP3 PUSH2 0xBBD JUMP JUMPDEST SWAP2 POP PUSH2 0x1242 DUP4 PUSH2 0xBBD JUMP JUMPDEST SWAP3 POP DUP3 DUP3 ADD SWAP1 POP DUP1 DUP3 GT ISZERO PUSH2 0x125A JUMPI PUSH2 0x1259 PUSH2 0x1200 JUMP JUMPDEST JUMPDEST SWAP3 SWAP2 POP POP JUMP JUMPDEST PUSH2 0x1269 DUP2 PUSH2 0xB8A JUMP JUMPDEST DUP3 MSTORE POP POP JUMP JUMPDEST PUSH0 PUSH1 0x80 DUP3 ADD SWAP1 POP PUSH2 0x1282 PUSH0 DUP4 ADD DUP8 PUSH2 0x1260 JUMP JUMPDEST PUSH2 0x128F PUSH1 0x20 DUP4 ADD DUP7 PUSH2 0xC98 JUMP JUMPDEST PUSH2 0x129C PUSH1 0x40 DUP4 ADD DUP6 PUSH2 0xC40 JUMP JUMPDEST PUSH2 0x12A9 PUSH1 0x60 DUP4 ADD DUP5 PUSH2 0xC40 JUMP JUMPDEST SWAP6 SWAP5 POP POP POP POP POP JUMP JUMPDEST PUSH32 0x4F776E61626C653A206E6577206F776E657220697320746865207A65726F2061 PUSH0 DUP3 ADD MSTORE PUSH32 0x6464726573730000000000000000000000000000000000000000000000000000 PUSH1 0x20 DUP3 ADD MSTORE POP JUMP JUMPDEST PUSH0 PUSH2 0x130C PUSH1 0x26 DUP4 PUSH2 0xEAC JUMP JUMPDEST SWAP2 POP PUSH2 0x1317 DUP3 PUSH2 0x12B2 JUMP JUMPDEST PUSH1 0x40 DUP3 ADD SWAP1 POP SWAP2 SWAP1 POP JUMP JUMPDEST PUSH0 PUSH1 0x20 DUP3 ADD SWAP1 POP DUP2 DUP2 SUB PUSH0 DUP4 ADD MSTORE PUSH2 0x1339 DUP2 PUSH2 0x1300 JUMP JUMPDEST SWAP1 POP SWAP2 SWAP1 POP JUMP JUMPDEST PUSH32 0x4F776E61626C653A2063616C6C6572206973206E6F7420746865206F776E6572 PUSH0 DUP3 ADD MSTORE POP JUMP JUMPDEST PUSH0 PUSH2 0x1374 PUSH1 0x20 DUP4 PUSH2 0xEAC JUMP JUMPDEST SWAP2 POP PUSH2 0x137F DUP3 PUSH2 0x1340 JUMP JUMPDEST PUSH1 0x20 DUP3 ADD SWAP1 POP SWAP2 SWAP1 POP JUMP JUMPDEST PUSH0 PUSH1 0x20 DUP3 ADD SWAP1 POP DUP2 DUP2 SUB PUSH0 DUP4 ADD MSTORE PUSH2 0x13A1 DUP2 PUSH2 0x1368 JUMP JUMPDEST SWAP1 POP SWAP2 SWAP1 POP JUMP INVALID LOG2 PUSH5 0x6970667358 0x22 SLT KECCAK256 CALLVALUE 0x24 0xC4 0xA7 0xD7 0xCD DUP4 JUMP BALANCE SLOAD 0xCD SWAP14 0xB1 DIV LT 0xD0 DELEGATECALL CHAINID 0xCC JUMP BLOBBASEFEE SLOAD CALL MUL 0xBB REVERT PUSH9 0x9CD293F21364736F6C PUSH4 0x4300081A STOP CALLER "
				},
				"gasEstimates": {
					"creation": {
						"codeDepositCost": "1017200",
						"executionCost": "infinite",
						"totalCost": "infinite"
					},
					"external": {
						"blackholeAddress()": "2575",
						"burnToMint(bytes32,uint256,uint256)": "infinite",
						"deltaB()": "2491",
						"deltaD()": "2536",
						"deltaK()": "2448",
						"gameItemContract()": "infinite",
						"getStakeInfo(bytes32)": "infinite",
						"lock(uint256)": "infinite",
						"owner()": "2515",
						"renounceOwnership()": "30435",
						"stakes(bytes32)": "infinite",
						"transferOwnership(address)": "30819"
					}
				},
				"methodIdentifiers": {
					"blackholeAddress()": "7d515a10",
					"burnToMint(bytes32,uint256,uint256)": "058f5bd2",
					"deltaB()": "ea768123",
					"deltaD()": "83a811bf",
					"deltaK()": "568b962a",
					"gameItemContract()": "f9be04ca",
					"getStakeInfo(bytes32)": "7e8d094c",
					"lock(uint256)": "dd467064",
					"owner()": "8da5cb5b",
					"renounceOwnership()": "715018a6",
					"stakes(bytes32)": "8fee6407",
					"transferOwnership(address)": "f2fde38b"
				}
			},
			"storageLayout": {
				"storage": [
					{
						"astId": 7,
						"contract": "trustless cross-chain/trading pair formation/LBTM.sol:StakingContract",
						"label": "_owner",
						"offset": 0,
						"slot": "0",
						"type": "t_address"
					},
					{
						"astId": 271,
						"contract": "trustless cross-chain/trading pair formation/LBTM.sol:StakingContract",
						"label": "gameItemContract",
						"offset": 0,
						"slot": "1",
						"type": "t_contract(IERC721)228"
					},
					{
						"astId": 273,
						"contract": "trustless cross-chain/trading pair formation/LBTM.sol:StakingContract",
						"label": "blackholeAddress",
						"offset": 0,
						"slot": "2",
						"type": "t_address"
					},
					{
						"astId": 275,
						"contract": "trustless cross-chain/trading pair formation/LBTM.sol:StakingContract",
						"label": "deltaK",
						"offset": 0,
						"slot": "3",
						"type": "t_uint256"
					},
					{
						"astId": 277,
						"contract": "trustless cross-chain/trading pair formation/LBTM.sol:StakingContract",
						"label": "deltaB",
						"offset": 0,
						"slot": "4",
						"type": "t_uint256"
					},
					{
						"astId": 279,
						"contract": "trustless cross-chain/trading pair formation/LBTM.sol:StakingContract",
						"label": "deltaD",
						"offset": 0,
						"slot": "5",
						"type": "t_uint256"
					},
					{
						"astId": 293,
						"contract": "trustless cross-chain/trading pair formation/LBTM.sol:StakingContract",
						"label": "stakes",
						"offset": 0,
						"slot": "6",
						"type": "t_mapping(t_bytes32,t_struct(StakeInfo)288_storage)"
					}
				],
				"types": {
					"t_address": {
						"encoding": "inplace",
						"label": "address",
						"numberOfBytes": "20"
					},
					"t_bytes32": {
						"encoding": "inplace",
						"label": "bytes32",
						"numberOfBytes": "32"
					},
					"t_contract(IERC721)228": {
						"encoding": "inplace",
						"label": "contract IERC721",
						"numberOfBytes": "20"
					},
					"t_mapping(t_bytes32,t_struct(StakeInfo)288_storage)": {
						"encoding": "mapping",
						"key": "t_bytes32",
						"label": "mapping(bytes32 => struct StakingContract.StakeInfo)",
						"numberOfBytes": "32",
						"value": "t_struct(StakeInfo)288_storage"
					},
					"t_struct(StakeInfo)288_storage": {
						"encoding": "inplace",
						"label": "struct StakingContract.StakeInfo",
						"members": [
							{
								"astId": 281,
								"contract": "trustless cross-chain/trading pair formation/LBTM.sol:StakingContract",
								"label": "owner",
								"offset": 0,
								"slot": "0",
								"type": "t_address"
							},
							{
								"astId": 283,
								"contract": "trustless cross-chain/trading pair formation/LBTM.sol:StakingContract",
								"label": "tokenId",
								"offset": 0,
								"slot": "1",
								"type": "t_uint256"
							},
							{
								"astId": 285,
								"contract": "trustless cross-chain/trading pair formation/LBTM.sol:StakingContract",
								"label": "lockTime",
								"offset": 0,
								"slot": "2",
								"type": "t_uint256"
							},
							{
								"astId": 287,
								"contract": "trustless cross-chain/trading pair formation/LBTM.sol:StakingContract",
								"label": "deadline",
								"offset": 0,
								"slot": "3",
								"type": "t_uint256"
							}
						],
						"numberOfBytes": "128"
					},
					"t_uint256": {
						"encoding": "inplace",
						"label": "uint256",
						"numberOfBytes": "32"
					}
				}
			},
			"userdoc": {
				"kind": "user",
				"methods": {},
				"version": 1
			}
		}
	}
}