{
	"trustless cross-chain/trading pair formation/NFTburn.sol": {
		"StakingContract": {
			"abi": [
				{
					"inputs": [
						{
							"internalType": "address",
							"name": "_gameItemContract",
							"type": "address"
						},
						{
							"internalType": "address",
							"name": "_blackholeAddress",
							"type": "address"
						},
						{
							"internalType": "uint256",
							"name": "_deltaK",
							"type": "uint256"
						},
						{
							"internalType": "uint256",
							"name": "_deltaB",
							"type": "uint256"
						},
						{
							"internalType": "uint256",
							"name": "_deltaD",
							"type": "uint256"
						}
					],
					"stateMutability": "nonpayable",
					"type": "constructor"
				},
				{
					"anonymous": false,
					"inputs": [
						{
							"indexed": false,
							"internalType": "uint256",
							"name": "oldTokenId",
							"type": "uint256"
						}
					],
					"name": "Burned",
					"type": "event"
				},
				{
					"anonymous": false,
					"inputs": [
						{
							"indexed": true,
							"internalType": "address",
							"name": "previousOwner",
							"type": "address"
						},
						{
							"indexed": true,
							"internalType": "address",
							"name": "newOwner",
							"type": "address"
						}
					],
					"name": "OwnershipTransferred",
					"type": "event"
				},
				{
					"anonymous": false,
					"inputs": [
						{
							"indexed": false,
							"internalType": "bytes32",
							"name": "stakeId",
							"type": "bytes32"
						},
						{
							"indexed": false,
							"internalType": "address",
							"name": "owner",
							"type": "address"
						},
						{
							"indexed": false,
							"internalType": "uint256",
							"name": "tokenId",
							"type": "uint256"
						},
						{
							"indexed": false,
							"internalType": "uint256",
							"name": "deadline",
							"type": "uint256"
						}
					],
					"name": "StakeLocked",
					"type": "event"
				},
				{
					"inputs": [],
					"name": "blackholeAddress",
					"outputs": [
						{
							"internalType": "address",
							"name": "",
							"type": "address"
						}
					],
					"stateMutability": "view",
					"type": "function"
				},
				{
					"inputs": [
						{
							"internalType": "bytes32",
							"name": "stakeId",
							"type": "bytes32"
						}
					],
					"name": "burn",
					"outputs": [],
					"stateMutability": "nonpayable",
					"type": "function"
				},
				{
					"inputs": [],
					"name": "deltaB",
					"outputs": [
						{
							"internalType": "uint256",
							"name": "",
							"type": "uint256"
						}
					],
					"stateMutability": "view",
					"type": "function"
				},
				{
					"inputs": [],
					"name": "deltaD",
					"outputs": [
						{
							"internalType": "uint256",
							"name": "",
							"type": "uint256"
						}
					],
					"stateMutability": "view",
					"type": "function"
				},
				{
					"inputs": [],
					"name": "deltaK",
					"outputs": [
						{
							"internalType": "uint256",
							"name": "",
							"type": "uint256"
						}
					],
					"stateMutability": "view",
					"type": "function"
				},
				{
					"inputs": [],
					"name": "gameItemContract",
					"outputs": [
						{
							"internalType": "contract IERC721",
							"name": "",
							"type": "address"
						}
					],
					"stateMutability": "view",
					"type": "function"
				},
				{
					"inputs": [
						{
							"internalType": "bytes32",
							"name": "stakeId",
							"type": "bytes32"
						}
					],
					"name": "getStakeInfo",
					"outputs": [
						{
							"components": [
								{
									"internalType": "address",
									"name": "owner",
									"type": "address"
								},
								{
									"internalType": "uint256",
									"name": "tokenId",
									"type": "uint256"
								},
								{
									"internalType": "uint256",
									"name": "lockTime",
									"type": "uint256"
								},
								{
									"internalType": "uint256",
									"name": "deadline",
									"type": "uint256"
								}
							],
							"internalType": "struct StakingContract.StakeInfo",
							"name": "",
							"type": "tuple"
						}
					],
					"stateMutability": "view",
					"type": "function"
				},
				{
					"inputs": [
						{
							"internalType": "uint256",
							"name": "tokenId",
							"type": "uint256"
						}
					],
					"name": "lock",
					"outputs": [],
					"stateMutability": "nonpayable",
					"type": "function"
				},
				{
					"inputs": [],
					"name": "owner",
					"outputs": [
						{
							"internalType": "address",
							"name": "",
							"type": "address"
						}
					],
					"stateMutability": "view",
					"type": "function"
				},
				{
					"inputs": [],
					"name": "renounceOwnership",
					"outputs": [],
					"stateMutability": "nonpayable",
					"type": "function"
				},
				{
					"inputs": [
						{
							"internalType": "bytes32",
							"name": "",
							"type": "bytes32"
						}
					],
					"name": "stakes",
					"outputs": [
						{
							"internalType": "address",
							"name": "owner",
							"type": "address"
						},
						{
							"internalType": "uint256",
							"name": "tokenId",
							"type": "uint256"
						},
						{
							"internalType": "uint256",
							"name": "lockTime",
							"type": "uint256"
						},
						{
							"internalType": "uint256",
							"name": "deadline",
							"type": "uint256"
						}
					],
					"stateMutability": "view",
					"type": "function"
				},
				{
					"inputs": [
						{
							"internalType": "address",
							"name": "newOwner",
							"type": "address"
						}
					],
					"name": "transferOwnership",
					"outputs": [],
					"stateMutability": "nonpayable",
					"type": "function"
				}
			],
			"devdoc": {
				"kind": "dev",
				"methods": {
					"owner()": {
						"details": "Returns the address of the current owner."
					},
					"renounceOwnership()": {
						"details": "Leaves the contract without owner. It will not be possible to call `onlyOwner` functions anymore. Can only be called by the current owner. NOTE: Renouncing ownership will leave the contract without an owner, thereby removing any functionality that is only available to the owner."
					},
					"transferOwnership(address)": {
						"details": "Transfers ownership of the contract to a new account (`newOwner`). Can only be called by the current owner."
					}
				},
				"version": 1
			},
			"evm": {
				"assembly": "    /* \"trustless cross-chain/trading pair formation/NFTburn.sol\":170:2142  contract StakingContract is Ownable {... */\n  mstore(0x40, 0x80)\n    /* \"trustless cross-chain/trading pair formation/NFTburn.sol\":677:1026  constructor(... */\n  callvalue\n  dup1\n  iszero\n  tag_1\n  jumpi\n  0x00\n  dup1\n  revert\ntag_1:\n  pop\n  mload(0x40)\n  sub(codesize, bytecodeSize)\n  dup1\n  bytecodeSize\n  dup4\n  codecopy\n  dup2\n  dup2\n  add\n  0x40\n  mstore\n  dup2\n  add\n  swap1\n  tag_2\n  swap2\n  swap1\n  tag_3\n  jump\t// in\ntag_2:\n    /* \"@openzeppelin/contracts/access/Ownable.sol\":936:968  _transferOwnership(_msgSender()) */\n  tag_7\n    /* \"@openzeppelin/contracts/access/Ownable.sol\":955:967  _msgSender() */\n  tag_8\n    /* \"@openzeppelin/contracts/access/Ownable.sol\":955:965  _msgSender */\n  shl(0x20, tag_9)\n    /* \"@openzeppelin/contracts/access/Ownable.sol\":955:967  _msgSender() */\n  0x20\n  shr\n  jump\t// in\ntag_8:\n    /* \"@openzeppelin/contracts/access/Ownable.sol\":936:954  _transferOwnership */\n  shl(0x20, tag_10)\n    /* \"@openzeppelin/contracts/access/Ownable.sol\":936:968  _transferOwnership(_msgSender()) */\n  0x20\n  shr\n  jump\t// in\ntag_7:\n    /* \"trustless cross-chain/trading pair formation/NFTburn.sol\":877:894  _gameItemContract */\n  dup5\n    /* \"trustless cross-chain/trading pair formation/NFTburn.sol\":850:866  gameItemContract */\n  0x01\n  0x00\n    /* \"trustless cross-chain/trading pair formation/NFTburn.sol\":850:895  gameItemContract = IERC721(_gameItemContract) */\n  0x0100\n  exp\n  dup2\n  sload\n  dup2\n  0xffffffffffffffffffffffffffffffffffffffff\n  mul\n  not\n  and\n  swap1\n  dup4\n  0xffffffffffffffffffffffffffffffffffffffff\n  and\n  mul\n  or\n  swap1\n  sstore\n  pop\n    /* \"trustless cross-chain/trading pair formation/NFTburn.sol\":924:941  _blackholeAddress */\n  dup4\n    /* \"trustless cross-chain/trading pair formation/NFTburn.sol\":905:921  blackholeAddress */\n  0x02\n  0x00\n    /* \"trustless cross-chain/trading pair formation/NFTburn.sol\":905:941  blackholeAddress = _blackholeAddress */\n  0x0100\n  exp\n  dup2\n  sload\n  dup2\n  0xffffffffffffffffffffffffffffffffffffffff\n  mul\n  not\n  and\n  swap1\n  dup4\n  0xffffffffffffffffffffffffffffffffffffffff\n  and\n  mul\n  or\n  swap1\n  sstore\n  pop\n    /* \"trustless cross-chain/trading pair formation/NFTburn.sol\":960:967  _deltaK */\n  dup3\n    /* \"trustless cross-chain/trading pair formation/NFTburn.sol\":951:957  deltaK */\n  0x03\n    /* \"trustless cross-chain/trading pair formation/NFTburn.sol\":951:967  deltaK = _deltaK */\n  dup2\n  swap1\n  sstore\n  pop\n    /* \"trustless cross-chain/trading pair formation/NFTburn.sol\":986:993  _deltaB */\n  dup2\n    /* \"trustless cross-chain/trading pair formation/NFTburn.sol\":977:983  deltaB */\n  0x04\n    /* \"trustless cross-chain/trading pair formation/NFTburn.sol\":977:993  deltaB = _deltaB */\n  dup2\n  swap1\n  sstore\n  pop\n    /* \"trustless cross-chain/trading pair formation/NFTburn.sol\":1012:1019  _deltaD */\n  dup1\n    /* \"trustless cross-chain/trading pair formation/NFTburn.sol\":1003:1009  deltaD */\n  0x05\n    /* \"trustless cross-chain/trading pair formation/NFTburn.sol\":1003:1019  deltaD = _deltaD */\n  dup2\n  swap1\n  sstore\n  pop\n    /* \"trustless cross-chain/trading pair formation/NFTburn.sol\":677:1026  constructor(... */\n  pop\n  pop\n  pop\n  pop\n  pop\n    /* \"trustless cross-chain/trading pair formation/NFTburn.sol\":170:2142  contract StakingContract is Ownable {... */\n  jump(tag_12)\n    /* \"@openzeppelin/contracts/utils/Context.sol\":640:736  function _msgSender() internal view virtual returns (address) {... */\ntag_9:\n    /* \"@openzeppelin/contracts/utils/Context.sol\":693:700  address */\n  0x00\n    /* \"@openzeppelin/contracts/utils/Context.sol\":719:729  msg.sender */\n  caller\n    /* \"@openzeppelin/contracts/utils/Context.sol\":712:729  return msg.sender */\n  swap1\n  pop\n    /* \"@openzeppelin/contracts/utils/Context.sol\":640:736  function _msgSender() internal view virtual returns (address) {... */\n  swap1\n  jump\t// out\n    /* \"@openzeppelin/contracts/access/Ownable.sol\":2433:2620  function _transferOwnership(address newOwner) internal virtual {... */\ntag_10:\n    /* \"@openzeppelin/contracts/access/Ownable.sol\":2506:2522  address oldOwner */\n  0x00\n    /* \"@openzeppelin/contracts/access/Ownable.sol\":2525:2531  _owner */\n  dup1\n  0x00\n  swap1\n  sload\n  swap1\n  0x0100\n  exp\n  swap1\n  div\n  0xffffffffffffffffffffffffffffffffffffffff\n  and\n    /* \"@openzeppelin/contracts/access/Ownable.sol\":2506:2531  address oldOwner = _owner */\n  swap1\n  pop\n    /* \"@openzeppelin/contracts/access/Ownable.sol\":2550:2558  newOwner */\n  dup2\n    /* \"@openzeppelin/contracts/access/Ownable.sol\":2541:2547  _owner */\n  0x00\n  dup1\n    /* \"@openzeppelin/contracts/access/Ownable.sol\":2541:2558  _owner = newOwner */\n  0x0100\n  exp\n  dup2\n  sload\n  dup2\n  0xffffffffffffffffffffffffffffffffffffffff\n  mul\n  not\n  and\n  swap1\n  dup4\n  0xffffffffffffffffffffffffffffffffffffffff\n  and\n  mul\n  or\n  swap1\n  sstore\n  pop\n    /* \"@openzeppelin/contracts/access/Ownable.sol\":2604:2612  newOwner */\n  dup2\n    /* \"@openzeppelin/contracts/access/Ownable.sol\":2573:2613  OwnershipTransferred(oldOwner, newOwner) */\n  0xffffffffffffffffffffffffffffffffffffffff\n  and\n    /* \"@openzeppelin/contracts/access/Ownable.sol\":2594:2602  oldOwner */\n  dup2\n    /* \"@openzeppelin/contracts/access/Ownable.sol\":2573:2613  OwnershipTransferred(oldOwner, newOwner) */\n  0xffffffffffffffffffffffffffffffffffffffff\n  and\n  0x8be0079c531659141344cd1fd0a4f28419497f9722a3daafe3b4186f6b6457e0\n  mload(0x40)\n  mload(0x40)\n  dup1\n  swap2\n  sub\n  swap1\n  log3\n    /* \"@openzeppelin/contracts/access/Ownable.sol\":2496:2620  {... */\n  pop\n    /* \"@openzeppelin/contracts/access/Ownable.sol\":2433:2620  function _transferOwnership(address newOwner) internal virtual {... */\n  pop\n  jump\t// out\n    /* \"#utility.yul\":88:205   */\ntag_16:\n    /* \"#utility.yul\":197:198   */\n  0x00\n    /* \"#utility.yul\":194:195   */\n  dup1\n    /* \"#utility.yul\":187:199   */\n  revert\n    /* \"#utility.yul\":334:460   */\ntag_18:\n    /* \"#utility.yul\":371:378   */\n  0x00\n    /* \"#utility.yul\":411:453   */\n  0xffffffffffffffffffffffffffffffffffffffff\n    /* \"#utility.yul\":404:409   */\n  dup3\n    /* \"#utility.yul\":400:454   */\n  and\n    /* \"#utility.yul\":389:454   */\n  swap1\n  pop\n    /* \"#utility.yul\":334:460   */\n  swap2\n  swap1\n  pop\n  jump\t// out\n    /* \"#utility.yul\":466:562   */\ntag_19:\n    /* \"#utility.yul\":503:510   */\n  0x00\n    /* \"#utility.yul\":532:556   */\n  tag_31\n    /* \"#utility.yul\":550:555   */\n  dup3\n    /* \"#utility.yul\":532:556   */\n  tag_18\n  jump\t// in\ntag_31:\n    /* \"#utility.yul\":521:556   */\n  swap1\n  pop\n    /* \"#utility.yul\":466:562   */\n  swap2\n  swap1\n  pop\n  jump\t// out\n    /* \"#utility.yul\":568:690   */\ntag_20:\n    /* \"#utility.yul\":641:665   */\n  tag_33\n    /* \"#utility.yul\":659:664   */\n  dup2\n    /* \"#utility.yul\":641:665   */\n  tag_19\n  jump\t// in\ntag_33:\n    /* \"#utility.yul\":634:639   */\n  dup2\n    /* \"#utility.yul\":631:666   */\n  eq\n    /* \"#utility.yul\":621:684   */\n  tag_34\n  jumpi\n    /* \"#utility.yul\":680:681   */\n  0x00\n    /* \"#utility.yul\":677:678   */\n  dup1\n    /* \"#utility.yul\":670:682   */\n  revert\n    /* \"#utility.yul\":621:684   */\ntag_34:\n    /* \"#utility.yul\":568:690   */\n  pop\n  jump\t// out\n    /* \"#utility.yul\":696:839   */\ntag_21:\n    /* \"#utility.yul\":753:758   */\n  0x00\n    /* \"#utility.yul\":784:790   */\n  dup2\n    /* \"#utility.yul\":778:791   */\n  mload\n    /* \"#utility.yul\":769:791   */\n  swap1\n  pop\n    /* \"#utility.yul\":800:833   */\n  tag_36\n    /* \"#utility.yul\":827:832   */\n  dup2\n    /* \"#utility.yul\":800:833   */\n  tag_20\n  jump\t// in\ntag_36:\n    /* \"#utility.yul\":696:839   */\n  swap3\n  swap2\n  pop\n  pop\n  jump\t// out\n    /* \"#utility.yul\":845:922   */\ntag_22:\n    /* \"#utility.yul\":882:889   */\n  0x00\n    /* \"#utility.yul\":911:916   */\n  dup2\n    /* \"#utility.yul\":900:916   */\n  swap1\n  pop\n    /* \"#utility.yul\":845:922   */\n  swap2\n  swap1\n  pop\n  jump\t// out\n    /* \"#utility.yul\":928:1050   */\ntag_23:\n    /* \"#utility.yul\":1001:1025   */\n  tag_39\n    /* \"#utility.yul\":1019:1024   */\n  dup2\n    /* \"#utility.yul\":1001:1025   */\n  tag_22\n  jump\t// in\ntag_39:\n    /* \"#utility.yul\":994:999   */\n  dup2\n    /* \"#utility.yul\":991:1026   */\n  eq\n    /* \"#utility.yul\":981:1044   */\n  tag_40\n  jumpi\n    /* \"#utility.yul\":1040:1041   */\n  0x00\n    /* \"#utility.yul\":1037:1038   */\n  dup1\n    /* \"#utility.yul\":1030:1042   */\n  revert\n    /* \"#utility.yul\":981:1044   */\ntag_40:\n    /* \"#utility.yul\":928:1050   */\n  pop\n  jump\t// out\n    /* \"#utility.yul\":1056:1199   */\ntag_24:\n    /* \"#utility.yul\":1113:1118   */\n  0x00\n    /* \"#utility.yul\":1144:1150   */\n  dup2\n    /* \"#utility.yul\":1138:1151   */\n  mload\n    /* \"#utility.yul\":1129:1151   */\n  swap1\n  pop\n    /* \"#utility.yul\":1160:1193   */\n  tag_42\n    /* \"#utility.yul\":1187:1192   */\n  dup2\n    /* \"#utility.yul\":1160:1193   */\n  tag_23\n  jump\t// in\ntag_42:\n    /* \"#utility.yul\":1056:1199   */\n  swap3\n  swap2\n  pop\n  pop\n  jump\t// out\n    /* \"#utility.yul\":1205:2182   */\ntag_3:\n    /* \"#utility.yul\":1311:1317   */\n  0x00\n    /* \"#utility.yul\":1319:1325   */\n  dup1\n    /* \"#utility.yul\":1327:1333   */\n  0x00\n    /* \"#utility.yul\":1335:1341   */\n  dup1\n    /* \"#utility.yul\":1343:1349   */\n  0x00\n    /* \"#utility.yul\":1392:1395   */\n  0xa0\n    /* \"#utility.yul\":1380:1389   */\n  dup7\n    /* \"#utility.yul\":1371:1378   */\n  dup9\n    /* \"#utility.yul\":1367:1390   */\n  sub\n    /* \"#utility.yul\":1363:1396   */\n  slt\n    /* \"#utility.yul\":1360:1480   */\n  iszero\n  tag_44\n  jumpi\n    /* \"#utility.yul\":1399:1478   */\n  tag_45\n  tag_16\n  jump\t// in\ntag_45:\n    /* \"#utility.yul\":1360:1480   */\ntag_44:\n    /* \"#utility.yul\":1519:1520   */\n  0x00\n    /* \"#utility.yul\":1544:1608   */\n  tag_46\n    /* \"#utility.yul\":1600:1607   */\n  dup9\n    /* \"#utility.yul\":1591:1597   */\n  dup3\n    /* \"#utility.yul\":1580:1589   */\n  dup10\n    /* \"#utility.yul\":1576:1598   */\n  add\n    /* \"#utility.yul\":1544:1608   */\n  tag_21\n  jump\t// in\ntag_46:\n    /* \"#utility.yul\":1534:1608   */\n  swap6\n  pop\n    /* \"#utility.yul\":1490:1618   */\n  pop\n    /* \"#utility.yul\":1657:1659   */\n  0x20\n    /* \"#utility.yul\":1683:1747   */\n  tag_47\n    /* \"#utility.yul\":1739:1746   */\n  dup9\n    /* \"#utility.yul\":1730:1736   */\n  dup3\n    /* \"#utility.yul\":1719:1728   */\n  dup10\n    /* \"#utility.yul\":1715:1737   */\n  add\n    /* \"#utility.yul\":1683:1747   */\n  tag_21\n  jump\t// in\ntag_47:\n    /* \"#utility.yul\":1673:1747   */\n  swap5\n  pop\n    /* \"#utility.yul\":1628:1757   */\n  pop\n    /* \"#utility.yul\":1796:1798   */\n  0x40\n    /* \"#utility.yul\":1822:1886   */\n  tag_48\n    /* \"#utility.yul\":1878:1885   */\n  dup9\n    /* \"#utility.yul\":1869:1875   */\n  dup3\n    /* \"#utility.yul\":1858:1867   */\n  dup10\n    /* \"#utility.yul\":1854:1876   */\n  add\n    /* \"#utility.yul\":1822:1886   */\n  tag_24\n  jump\t// in\ntag_48:\n    /* \"#utility.yul\":1812:1886   */\n  swap4\n  pop\n    /* \"#utility.yul\":1767:1896   */\n  pop\n    /* \"#utility.yul\":1935:1937   */\n  0x60\n    /* \"#utility.yul\":1961:2025   */\n  tag_49\n    /* \"#utility.yul\":2017:2024   */\n  dup9\n    /* \"#utility.yul\":2008:2014   */\n  dup3\n    /* \"#utility.yul\":1997:2006   */\n  dup10\n    /* \"#utility.yul\":1993:2015   */\n  add\n    /* \"#utility.yul\":1961:2025   */\n  tag_24\n  jump\t// in\ntag_49:\n    /* \"#utility.yul\":1951:2025   */\n  swap3\n  pop\n    /* \"#utility.yul\":1906:2035   */\n  pop\n    /* \"#utility.yul\":2074:2077   */\n  0x80\n    /* \"#utility.yul\":2101:2165   */\n  tag_50\n    /* \"#utility.yul\":2157:2164   */\n  dup9\n    /* \"#utility.yul\":2148:2154   */\n  dup3\n    /* \"#utility.yul\":2137:2146   */\n  dup10\n    /* \"#utility.yul\":2133:2155   */\n  add\n    /* \"#utility.yul\":2101:2165   */\n  tag_24\n  jump\t// in\ntag_50:\n    /* \"#utility.yul\":2091:2165   */\n  swap2\n  pop\n    /* \"#utility.yul\":2045:2175   */\n  pop\n    /* \"#utility.yul\":1205:2182   */\n  swap3\n  swap6\n  pop\n  swap3\n  swap6\n  swap1\n  swap4\n  pop\n  jump\t// out\n    /* \"trustless cross-chain/trading pair formation/NFTburn.sol\":170:2142  contract StakingContract is Ownable {... */\ntag_12:\n  dataSize(sub_0)\n  dup1\n  dataOffset(sub_0)\n  0x00\n  codecopy\n  0x00\n  return\nstop\n\nsub_0: assembly {\n        /* \"trustless cross-chain/trading pair formation/NFTburn.sol\":170:2142  contract StakingContract is Ownable {... */\n      mstore(0x40, 0x80)\n      callvalue\n      dup1\n      iszero\n      tag_1\n      jumpi\n      0x00\n      dup1\n      revert\n    tag_1:\n      pop\n      jumpi(tag_2, lt(calldatasize, 0x04))\n      shr(0xe0, calldataload(0x00))\n      dup1\n      0x8da5cb5b\n      gt\n      tag_15\n      jumpi\n      dup1\n      0x8da5cb5b\n      eq\n      tag_9\n      jumpi\n      dup1\n      0x8fee6407\n      eq\n      tag_10\n      jumpi\n      dup1\n      0xdd467064\n      eq\n      tag_11\n      jumpi\n      dup1\n      0xea768123\n      eq\n      tag_12\n      jumpi\n      dup1\n      0xf2fde38b\n      eq\n      tag_13\n      jumpi\n      dup1\n      0xf9be04ca\n      eq\n      tag_14\n      jumpi\n      jump(tag_2)\n    tag_15:\n      dup1\n      0x08a1eee1\n      eq\n      tag_3\n      jumpi\n      dup1\n      0x568b962a\n      eq\n      tag_4\n      jumpi\n      dup1\n      0x715018a6\n      eq\n      tag_5\n      jumpi\n      dup1\n      0x7d515a10\n      eq\n      tag_6\n      jumpi\n      dup1\n      0x7e8d094c\n      eq\n      tag_7\n      jumpi\n      dup1\n      0x83a811bf\n      eq\n      tag_8\n      jumpi\n    tag_2:\n      0x00\n      dup1\n      revert\n        /* \"trustless cross-chain/trading pair formation/NFTburn.sol\":1612:2015  function burn(bytes32 stakeId) external onlyOwner {... */\n    tag_3:\n      tag_16\n      0x04\n      dup1\n      calldatasize\n      sub\n      dup2\n      add\n      swap1\n      tag_17\n      swap2\n      swap1\n      tag_18\n      jump\t// in\n    tag_17:\n      tag_19\n      jump\t// in\n    tag_16:\n      stop\n        /* \"trustless cross-chain/trading pair formation/NFTburn.sol\":286:307  uint256 public deltaK */\n    tag_4:\n      tag_20\n      tag_21\n      jump\t// in\n    tag_20:\n      mload(0x40)\n      tag_22\n      swap2\n      swap1\n      tag_23\n      jump\t// in\n    tag_22:\n      mload(0x40)\n      dup1\n      swap2\n      sub\n      swap1\n      return\n        /* \"@openzeppelin/contracts/access/Ownable.sol\":1831:1932  function renounceOwnership() public virtual onlyOwner {... */\n    tag_5:\n      tag_24\n      tag_25\n      jump\t// in\n    tag_24:\n      stop\n        /* \"trustless cross-chain/trading pair formation/NFTburn.sol\":249:280  address public blackholeAddress */\n    tag_6:\n      tag_26\n      tag_27\n      jump\t// in\n    tag_26:\n      mload(0x40)\n      tag_28\n      swap2\n      swap1\n      tag_29\n      jump\t// in\n    tag_28:\n      mload(0x40)\n      dup1\n      swap2\n      sub\n      swap1\n      return\n        /* \"trustless cross-chain/trading pair formation/NFTburn.sol\":2021:2140  function getStakeInfo(bytes32 stakeId) external view returns (StakeInfo memory) {... */\n    tag_7:\n      tag_30\n      0x04\n      dup1\n      calldatasize\n      sub\n      dup2\n      add\n      swap1\n      tag_31\n      swap2\n      swap1\n      tag_18\n      jump\t// in\n    tag_31:\n      tag_32\n      jump\t// in\n    tag_30:\n      mload(0x40)\n      tag_33\n      swap2\n      swap1\n      tag_34\n      jump\t// in\n    tag_33:\n      mload(0x40)\n      dup1\n      swap2\n      sub\n      swap1\n      return\n        /* \"trustless cross-chain/trading pair formation/NFTburn.sol\":340:361  uint256 public deltaD */\n    tag_8:\n      tag_35\n      tag_36\n      jump\t// in\n    tag_35:\n      mload(0x40)\n      tag_37\n      swap2\n      swap1\n      tag_23\n      jump\t// in\n    tag_37:\n      mload(0x40)\n      dup1\n      swap2\n      sub\n      swap1\n      return\n        /* \"@openzeppelin/contracts/access/Ownable.sol\":1201:1286  function owner() public view virtual returns (address) {... */\n    tag_9:\n      tag_38\n      tag_39\n      jump\t// in\n    tag_38:\n      mload(0x40)\n      tag_40\n      swap2\n      swap1\n      tag_29\n      jump\t// in\n    tag_40:\n      mload(0x40)\n      dup1\n      swap2\n      sub\n      swap1\n      return\n        /* \"trustless cross-chain/trading pair formation/NFTburn.sol\":498:541  mapping(bytes32 => StakeInfo) public stakes */\n    tag_10:\n      tag_41\n      0x04\n      dup1\n      calldatasize\n      sub\n      dup2\n      add\n      swap1\n      tag_42\n      swap2\n      swap1\n      tag_18\n      jump\t// in\n    tag_42:\n      tag_43\n      jump\t// in\n    tag_41:\n      mload(0x40)\n      tag_44\n      swap5\n      swap4\n      swap3\n      swap2\n      swap1\n      tag_45\n      jump\t// in\n    tag_44:\n      mload(0x40)\n      dup1\n      swap2\n      sub\n      swap1\n      return\n        /* \"trustless cross-chain/trading pair formation/NFTburn.sol\":1032:1606  function lock(uint256 tokenId) external {... */\n    tag_11:\n      tag_46\n      0x04\n      dup1\n      calldatasize\n      sub\n      dup2\n      add\n      swap1\n      tag_47\n      swap2\n      swap1\n      tag_48\n      jump\t// in\n    tag_47:\n      tag_49\n      jump\t// in\n    tag_46:\n      stop\n        /* \"trustless cross-chain/trading pair formation/NFTburn.sol\":313:334  uint256 public deltaB */\n    tag_12:\n      tag_50\n      tag_51\n      jump\t// in\n    tag_50:\n      mload(0x40)\n      tag_52\n      swap2\n      swap1\n      tag_23\n      jump\t// in\n    tag_52:\n      mload(0x40)\n      dup1\n      swap2\n      sub\n      swap1\n      return\n        /* \"@openzeppelin/contracts/access/Ownable.sol\":2081:2279  function transferOwnership(address newOwner) public virtual onlyOwner {... */\n    tag_13:\n      tag_53\n      0x04\n      dup1\n      calldatasize\n      sub\n      dup2\n      add\n      swap1\n      tag_54\n      swap2\n      swap1\n      tag_55\n      jump\t// in\n    tag_54:\n      tag_56\n      jump\t// in\n    tag_53:\n      stop\n        /* \"trustless cross-chain/trading pair formation/NFTburn.sol\":212:243  IERC721 public gameItemContract */\n    tag_14:\n      tag_57\n      tag_58\n      jump\t// in\n    tag_57:\n      mload(0x40)\n      tag_59\n      swap2\n      swap1\n      tag_60\n      jump\t// in\n    tag_59:\n      mload(0x40)\n      dup1\n      swap2\n      sub\n      swap1\n      return\n        /* \"trustless cross-chain/trading pair formation/NFTburn.sol\":1612:2015  function burn(bytes32 stakeId) external onlyOwner {... */\n    tag_19:\n        /* \"@openzeppelin/contracts/access/Ownable.sol\":1094:1107  _checkOwner() */\n      tag_62\n        /* \"@openzeppelin/contracts/access/Ownable.sol\":1094:1105  _checkOwner */\n      tag_63\n        /* \"@openzeppelin/contracts/access/Ownable.sol\":1094:1107  _checkOwner() */\n      jump\t// in\n    tag_62:\n        /* \"trustless cross-chain/trading pair formation/NFTburn.sol\":1672:1695  StakeInfo storage stake */\n      0x00\n        /* \"trustless cross-chain/trading pair formation/NFTburn.sol\":1698:1704  stakes */\n      0x06\n        /* \"trustless cross-chain/trading pair formation/NFTburn.sol\":1698:1713  stakes[stakeId] */\n      0x00\n        /* \"trustless cross-chain/trading pair formation/NFTburn.sol\":1705:1712  stakeId */\n      dup4\n        /* \"trustless cross-chain/trading pair formation/NFTburn.sol\":1698:1713  stakes[stakeId] */\n      dup2\n      mstore\n      0x20\n      add\n      swap1\n      dup2\n      mstore\n      0x20\n      add\n      0x00\n      keccak256\n        /* \"trustless cross-chain/trading pair formation/NFTburn.sol\":1672:1713  StakeInfo storage stake = stakes[stakeId] */\n      swap1\n      pop\n        /* \"trustless cross-chain/trading pair formation/NFTburn.sol\":1749:1764  block.timestamp */\n      timestamp\n        /* \"trustless cross-chain/trading pair formation/NFTburn.sol\":1731:1736  stake */\n      dup2\n        /* \"trustless cross-chain/trading pair formation/NFTburn.sol\":1731:1745  stake.deadline */\n      0x03\n      add\n      sload\n        /* \"trustless cross-chain/trading pair formation/NFTburn.sol\":1731:1764  stake.deadline <= block.timestamp */\n      gt\n      iszero\n        /* \"trustless cross-chain/trading pair formation/NFTburn.sol\":1723:1789  require(stake.deadline <= block.timestamp, \"Deadline not reached\") */\n      tag_65\n      jumpi\n      mload(0x40)\n      0x08c379a000000000000000000000000000000000000000000000000000000000\n      dup2\n      mstore\n      0x04\n      add\n      tag_66\n      swap1\n      tag_67\n      jump\t// in\n    tag_66:\n      mload(0x40)\n      dup1\n      swap2\n      sub\n      swap1\n      revert\n    tag_65:\n        /* \"trustless cross-chain/trading pair formation/NFTburn.sol\":1830:1831  0 */\n      0x00\n        /* \"trustless cross-chain/trading pair formation/NFTburn.sol\":1807:1832  stake.owner != address(0) */\n      0xffffffffffffffffffffffffffffffffffffffff\n      and\n        /* \"trustless cross-chain/trading pair formation/NFTburn.sol\":1807:1812  stake */\n      dup2\n        /* \"trustless cross-chain/trading pair formation/NFTburn.sol\":1807:1818  stake.owner */\n      0x00\n      add\n      0x00\n      swap1\n      sload\n      swap1\n      0x0100\n      exp\n      swap1\n      div\n      0xffffffffffffffffffffffffffffffffffffffff\n      and\n        /* \"trustless cross-chain/trading pair formation/NFTburn.sol\":1807:1832  stake.owner != address(0) */\n      0xffffffffffffffffffffffffffffffffffffffff\n      and\n      sub\n        /* \"trustless cross-chain/trading pair formation/NFTburn.sol\":1799:1850  require(stake.owner != address(0), \"Invalid stake\") */\n      tag_68\n      jumpi\n      mload(0x40)\n      0x08c379a000000000000000000000000000000000000000000000000000000000\n      dup2\n      mstore\n      0x04\n      add\n      tag_69\n      swap1\n      tag_70\n      jump\t// in\n    tag_69:\n      mload(0x40)\n      dup1\n      swap2\n      sub\n      swap1\n      revert\n    tag_68:\n        /* \"trustless cross-chain/trading pair formation/NFTburn.sol\":1861:1877  gameItemContract */\n      0x01\n      0x00\n      swap1\n      sload\n      swap1\n      0x0100\n      exp\n      swap1\n      div\n      0xffffffffffffffffffffffffffffffffffffffff\n      and\n        /* \"trustless cross-chain/trading pair formation/NFTburn.sol\":1861:1890  gameItemContract.transferFrom */\n      0xffffffffffffffffffffffffffffffffffffffff\n      and\n      0x23b872dd\n        /* \"trustless cross-chain/trading pair formation/NFTburn.sol\":1899:1903  this */\n      address\n        /* \"trustless cross-chain/trading pair formation/NFTburn.sol\":1906:1922  blackholeAddress */\n      0x02\n      0x00\n      swap1\n      sload\n      swap1\n      0x0100\n      exp\n      swap1\n      div\n      0xffffffffffffffffffffffffffffffffffffffff\n      and\n        /* \"trustless cross-chain/trading pair formation/NFTburn.sol\":1924:1929  stake */\n      dup5\n        /* \"trustless cross-chain/trading pair formation/NFTburn.sol\":1924:1937  stake.tokenId */\n      0x01\n      add\n      sload\n        /* \"trustless cross-chain/trading pair formation/NFTburn.sol\":1861:1938  gameItemContract.transferFrom(address(this), blackholeAddress, stake.tokenId) */\n      mload(0x40)\n      dup5\n      0xffffffff\n      and\n      0xe0\n      shl\n      dup2\n      mstore\n      0x04\n      add\n      tag_71\n      swap4\n      swap3\n      swap2\n      swap1\n      tag_72\n      jump\t// in\n    tag_71:\n      0x00\n      mload(0x40)\n      dup1\n      dup4\n      sub\n      dup2\n      0x00\n      dup8\n      dup1\n      extcodesize\n      iszero\n      dup1\n      iszero\n      tag_73\n      jumpi\n      0x00\n      dup1\n      revert\n    tag_73:\n      pop\n      gas\n      call\n      iszero\n      dup1\n      iszero\n      tag_75\n      jumpi\n      returndatasize\n      0x00\n      dup1\n      returndatacopy\n      revert(0x00, returndatasize)\n    tag_75:\n      pop\n      pop\n      pop\n      pop\n        /* \"trustless cross-chain/trading pair formation/NFTburn.sol\":1956:1962  stakes */\n      0x06\n        /* \"trustless cross-chain/trading pair formation/NFTburn.sol\":1956:1971  stakes[stakeId] */\n      0x00\n        /* \"trustless cross-chain/trading pair formation/NFTburn.sol\":1963:1970  stakeId */\n      dup4\n        /* \"trustless cross-chain/trading pair formation/NFTburn.sol\":1956:1971  stakes[stakeId] */\n      dup2\n      mstore\n      0x20\n      add\n      swap1\n      dup2\n      mstore\n      0x20\n      add\n      0x00\n      keccak256\n      0x00\n        /* \"trustless cross-chain/trading pair formation/NFTburn.sol\":1949:1971  delete stakes[stakeId] */\n      dup1\n      dup3\n      add\n      exp(0x0100, 0x00)\n      dup2\n      sload\n      swap1\n      0xffffffffffffffffffffffffffffffffffffffff\n      mul\n      not\n      and\n      swap1\n      sstore\n      0x01\n      dup3\n      add\n      0x00\n      swap1\n      sstore\n      0x02\n      dup3\n      add\n      0x00\n      swap1\n      sstore\n      0x03\n      dup3\n      add\n      0x00\n      swap1\n      sstore\n      pop\n      pop\n        /* \"trustless cross-chain/trading pair formation/NFTburn.sol\":1987:2008  Burned(stake.tokenId) */\n      0xd83c63197e8e676d80ab0122beba9a9d20f3828839e9a1d6fe81d242e9cd7e6e\n        /* \"trustless cross-chain/trading pair formation/NFTburn.sol\":1994:1999  stake */\n      dup2\n        /* \"trustless cross-chain/trading pair formation/NFTburn.sol\":1994:2007  stake.tokenId */\n      0x01\n      add\n      sload\n        /* \"trustless cross-chain/trading pair formation/NFTburn.sol\":1987:2008  Burned(stake.tokenId) */\n      mload(0x40)\n      tag_76\n      swap2\n      swap1\n      tag_23\n      jump\t// in\n    tag_76:\n      mload(0x40)\n      dup1\n      swap2\n      sub\n      swap1\n      log1\n        /* \"trustless cross-chain/trading pair formation/NFTburn.sol\":1662:2015  {... */\n      pop\n        /* \"trustless cross-chain/trading pair formation/NFTburn.sol\":1612:2015  function burn(bytes32 stakeId) external onlyOwner {... */\n      pop\n      jump\t// out\n        /* \"trustless cross-chain/trading pair formation/NFTburn.sol\":286:307  uint256 public deltaK */\n    tag_21:\n      sload(0x03)\n      dup2\n      jump\t// out\n        /* \"@openzeppelin/contracts/access/Ownable.sol\":1831:1932  function renounceOwnership() public virtual onlyOwner {... */\n    tag_25:\n        /* \"@openzeppelin/contracts/access/Ownable.sol\":1094:1107  _checkOwner() */\n      tag_78\n        /* \"@openzeppelin/contracts/access/Ownable.sol\":1094:1105  _checkOwner */\n      tag_63\n        /* \"@openzeppelin/contracts/access/Ownable.sol\":1094:1107  _checkOwner() */\n      jump\t// in\n    tag_78:\n        /* \"@openzeppelin/contracts/access/Ownable.sol\":1895:1925  _transferOwnership(address(0)) */\n      tag_80\n        /* \"@openzeppelin/contracts/access/Ownable.sol\":1922:1923  0 */\n      0x00\n        /* \"@openzeppelin/contracts/access/Ownable.sol\":1895:1913  _transferOwnership */\n      tag_81\n        /* \"@openzeppelin/contracts/access/Ownable.sol\":1895:1925  _transferOwnership(address(0)) */\n      jump\t// in\n    tag_80:\n        /* \"@openzeppelin/contracts/access/Ownable.sol\":1831:1932  function renounceOwnership() public virtual onlyOwner {... */\n      jump\t// out\n        /* \"trustless cross-chain/trading pair formation/NFTburn.sol\":249:280  address public blackholeAddress */\n    tag_27:\n      0x02\n      0x00\n      swap1\n      sload\n      swap1\n      0x0100\n      exp\n      swap1\n      div\n      0xffffffffffffffffffffffffffffffffffffffff\n      and\n      dup2\n      jump\t// out\n        /* \"trustless cross-chain/trading pair formation/NFTburn.sol\":2021:2140  function getStakeInfo(bytes32 stakeId) external view returns (StakeInfo memory) {... */\n    tag_32:\n        /* \"trustless cross-chain/trading pair formation/NFTburn.sol\":2083:2099  StakeInfo memory */\n      tag_82\n      tag_83\n      jump\t// in\n    tag_82:\n        /* \"trustless cross-chain/trading pair formation/NFTburn.sol\":2118:2124  stakes */\n      0x06\n        /* \"trustless cross-chain/trading pair formation/NFTburn.sol\":2118:2133  stakes[stakeId] */\n      0x00\n        /* \"trustless cross-chain/trading pair formation/NFTburn.sol\":2125:2132  stakeId */\n      dup4\n        /* \"trustless cross-chain/trading pair formation/NFTburn.sol\":2118:2133  stakes[stakeId] */\n      dup2\n      mstore\n      0x20\n      add\n      swap1\n      dup2\n      mstore\n      0x20\n      add\n      0x00\n      keccak256\n        /* \"trustless cross-chain/trading pair formation/NFTburn.sol\":2111:2133  return stakes[stakeId] */\n      mload(0x40)\n      dup1\n      0x80\n      add\n      0x40\n      mstore\n      swap1\n      dup2\n      0x00\n      dup3\n      add\n      0x00\n      swap1\n      sload\n      swap1\n      0x0100\n      exp\n      swap1\n      div\n      0xffffffffffffffffffffffffffffffffffffffff\n      and\n      0xffffffffffffffffffffffffffffffffffffffff\n      and\n      0xffffffffffffffffffffffffffffffffffffffff\n      and\n      dup2\n      mstore\n      0x20\n      add\n      0x01\n      dup3\n      add\n      sload\n      dup2\n      mstore\n      0x20\n      add\n      0x02\n      dup3\n      add\n      sload\n      dup2\n      mstore\n      0x20\n      add\n      0x03\n      dup3\n      add\n      sload\n      dup2\n      mstore\n      pop\n      pop\n      swap1\n      pop\n        /* \"trustless cross-chain/trading pair formation/NFTburn.sol\":2021:2140  function getStakeInfo(bytes32 stakeId) external view returns (StakeInfo memory) {... */\n      swap2\n      swap1\n      pop\n      jump\t// out\n        /* \"trustless cross-chain/trading pair formation/NFTburn.sol\":340:361  uint256 public deltaD */\n    tag_36:\n      sload(0x05)\n      dup2\n      jump\t// out\n        /* \"@openzeppelin/contracts/access/Ownable.sol\":1201:1286  function owner() public view virtual returns (address) {... */\n    tag_39:\n        /* \"@openzeppelin/contracts/access/Ownable.sol\":1247:1254  address */\n      0x00\n        /* \"@openzeppelin/contracts/access/Ownable.sol\":1273:1279  _owner */\n      dup1\n      0x00\n      swap1\n      sload\n      swap1\n      0x0100\n      exp\n      swap1\n      div\n      0xffffffffffffffffffffffffffffffffffffffff\n      and\n        /* \"@openzeppelin/contracts/access/Ownable.sol\":1266:1279  return _owner */\n      swap1\n      pop\n        /* \"@openzeppelin/contracts/access/Ownable.sol\":1201:1286  function owner() public view virtual returns (address) {... */\n      swap1\n      jump\t// out\n        /* \"trustless cross-chain/trading pair formation/NFTburn.sol\":498:541  mapping(bytes32 => StakeInfo) public stakes */\n    tag_43:\n      mstore(0x20, 0x06)\n      dup1\n      0x00\n      mstore\n      keccak256(0x00, 0x40)\n      0x00\n      swap2\n      pop\n      swap1\n      pop\n      dup1\n      0x00\n      add\n      0x00\n      swap1\n      sload\n      swap1\n      0x0100\n      exp\n      swap1\n      div\n      0xffffffffffffffffffffffffffffffffffffffff\n      and\n      swap1\n      dup1\n      0x01\n      add\n      sload\n      swap1\n      dup1\n      0x02\n      add\n      sload\n      swap1\n      dup1\n      0x03\n      add\n      sload\n      swap1\n      pop\n      dup5\n      jump\t// out\n        /* \"trustless cross-chain/trading pair formation/NFTburn.sol\":1032:1606  function lock(uint256 tokenId) external {... */\n    tag_49:\n        /* \"trustless cross-chain/trading pair formation/NFTburn.sol\":1127:1137  msg.sender */\n      caller\n        /* \"trustless cross-chain/trading pair formation/NFTburn.sol\":1090:1137  gameItemContract.ownerOf(tokenId) == msg.sender */\n      0xffffffffffffffffffffffffffffffffffffffff\n      and\n        /* \"trustless cross-chain/trading pair formation/NFTburn.sol\":1090:1106  gameItemContract */\n      0x01\n      0x00\n      swap1\n      sload\n      swap1\n      0x0100\n      exp\n      swap1\n      div\n      0xffffffffffffffffffffffffffffffffffffffff\n      and\n        /* \"trustless cross-chain/trading pair formation/NFTburn.sol\":1090:1114  gameItemContract.ownerOf */\n      0xffffffffffffffffffffffffffffffffffffffff\n      and\n      0x6352211e\n        /* \"trustless cross-chain/trading pair formation/NFTburn.sol\":1115:1122  tokenId */\n      dup4\n        /* \"trustless cross-chain/trading pair formation/NFTburn.sol\":1090:1123  gameItemContract.ownerOf(tokenId) */\n      mload(0x40)\n      dup3\n      0xffffffff\n      and\n      0xe0\n      shl\n      dup2\n      mstore\n      0x04\n      add\n      tag_87\n      swap2\n      swap1\n      tag_23\n      jump\t// in\n    tag_87:\n      0x20\n      mload(0x40)\n      dup1\n      dup4\n      sub\n      dup2\n      dup7\n      gas\n      staticcall\n      iszero\n      dup1\n      iszero\n      tag_89\n      jumpi\n      returndatasize\n      0x00\n      dup1\n      returndatacopy\n      revert(0x00, returndatasize)\n    tag_89:\n      pop\n      pop\n      pop\n      pop\n      mload(0x40)\n      returndatasize\n      not(0x1f)\n      0x1f\n      dup3\n      add\n      and\n      dup3\n      add\n      dup1\n      0x40\n      mstore\n      pop\n      dup2\n      add\n      swap1\n      tag_90\n      swap2\n      swap1\n      tag_91\n      jump\t// in\n    tag_90:\n        /* \"trustless cross-chain/trading pair formation/NFTburn.sol\":1090:1137  gameItemContract.ownerOf(tokenId) == msg.sender */\n      0xffffffffffffffffffffffffffffffffffffffff\n      and\n      eq\n        /* \"trustless cross-chain/trading pair formation/NFTburn.sol\":1082:1175  require(gameItemContract.ownerOf(tokenId) == msg.sender, \"You are not the owner of this NFT\") */\n      tag_92\n      jumpi\n      mload(0x40)\n      0x08c379a000000000000000000000000000000000000000000000000000000000\n      dup2\n      mstore\n      0x04\n      add\n      tag_93\n      swap1\n      tag_94\n      jump\t// in\n    tag_93:\n      mload(0x40)\n      dup1\n      swap2\n      sub\n      swap1\n      revert\n    tag_92:\n        /* \"trustless cross-chain/trading pair formation/NFTburn.sol\":1186:1201  bytes32 stakeId */\n      0x00\n        /* \"trustless cross-chain/trading pair formation/NFTburn.sol\":1231:1238  tokenId */\n      dup2\n        /* \"trustless cross-chain/trading pair formation/NFTburn.sol\":1240:1250  msg.sender */\n      caller\n        /* \"trustless cross-chain/trading pair formation/NFTburn.sol\":1252:1267  block.timestamp */\n      timestamp\n        /* \"trustless cross-chain/trading pair formation/NFTburn.sol\":1214:1268  abi.encodePacked(tokenId, msg.sender, block.timestamp) */\n      add(0x20, mload(0x40))\n      tag_95\n      swap4\n      swap3\n      swap2\n      swap1\n      tag_96\n      jump\t// in\n    tag_95:\n      mload(0x40)\n      0x20\n      dup2\n      dup4\n      sub\n      sub\n      dup2\n      mstore\n      swap1\n      0x40\n      mstore\n        /* \"trustless cross-chain/trading pair formation/NFTburn.sol\":1204:1269  keccak256(abi.encodePacked(tokenId, msg.sender, block.timestamp)) */\n      dup1\n      mload\n      swap1\n      0x20\n      add\n      keccak256\n        /* \"trustless cross-chain/trading pair formation/NFTburn.sol\":1186:1269  bytes32 stakeId = keccak256(abi.encodePacked(tokenId, msg.sender, block.timestamp)) */\n      swap1\n      pop\n        /* \"trustless cross-chain/trading pair formation/NFTburn.sol\":1279:1295  uint256 lockTime */\n      0x00\n        /* \"trustless cross-chain/trading pair formation/NFTburn.sol\":1298:1313  block.timestamp */\n      timestamp\n        /* \"trustless cross-chain/trading pair formation/NFTburn.sol\":1279:1313  uint256 lockTime = block.timestamp */\n      swap1\n      pop\n        /* \"trustless cross-chain/trading pair formation/NFTburn.sol\":1323:1339  uint256 deadline */\n      0x00\n        /* \"trustless cross-chain/trading pair formation/NFTburn.sol\":1371:1377  deltaD */\n      sload(0x05)\n        /* \"trustless cross-chain/trading pair formation/NFTburn.sol\":1362:1368  deltaB */\n      sload(0x04)\n        /* \"trustless cross-chain/trading pair formation/NFTburn.sol\":1353:1359  deltaK */\n      sload(0x03)\n        /* \"trustless cross-chain/trading pair formation/NFTburn.sol\":1342:1350  lockTime */\n      dup5\n        /* \"trustless cross-chain/trading pair formation/NFTburn.sol\":1342:1359  lockTime + deltaK */\n      tag_97\n      swap2\n      swap1\n      tag_98\n      jump\t// in\n    tag_97:\n        /* \"trustless cross-chain/trading pair formation/NFTburn.sol\":1342:1368  lockTime + deltaK + deltaB */\n      tag_99\n      swap2\n      swap1\n      tag_98\n      jump\t// in\n    tag_99:\n        /* \"trustless cross-chain/trading pair formation/NFTburn.sol\":1342:1377  lockTime + deltaK + deltaB + deltaD */\n      tag_100\n      swap2\n      swap1\n      tag_98\n      jump\t// in\n    tag_100:\n        /* \"trustless cross-chain/trading pair formation/NFTburn.sol\":1323:1377  uint256 deadline = lockTime + deltaK + deltaB + deltaD */\n      swap1\n      pop\n        /* \"trustless cross-chain/trading pair formation/NFTburn.sol\":1406:1456  StakeInfo(msg.sender, tokenId, lockTime, deadline) */\n      mload(0x40)\n      dup1\n      0x80\n      add\n      0x40\n      mstore\n      dup1\n        /* \"trustless cross-chain/trading pair formation/NFTburn.sol\":1416:1426  msg.sender */\n      caller\n        /* \"trustless cross-chain/trading pair formation/NFTburn.sol\":1406:1456  StakeInfo(msg.sender, tokenId, lockTime, deadline) */\n      0xffffffffffffffffffffffffffffffffffffffff\n      and\n      dup2\n      mstore\n      0x20\n      add\n        /* \"trustless cross-chain/trading pair formation/NFTburn.sol\":1428:1435  tokenId */\n      dup6\n        /* \"trustless cross-chain/trading pair formation/NFTburn.sol\":1406:1456  StakeInfo(msg.sender, tokenId, lockTime, deadline) */\n      dup2\n      mstore\n      0x20\n      add\n        /* \"trustless cross-chain/trading pair formation/NFTburn.sol\":1437:1445  lockTime */\n      dup4\n        /* \"trustless cross-chain/trading pair formation/NFTburn.sol\":1406:1456  StakeInfo(msg.sender, tokenId, lockTime, deadline) */\n      dup2\n      mstore\n      0x20\n      add\n        /* \"trustless cross-chain/trading pair formation/NFTburn.sol\":1447:1455  deadline */\n      dup3\n        /* \"trustless cross-chain/trading pair formation/NFTburn.sol\":1406:1456  StakeInfo(msg.sender, tokenId, lockTime, deadline) */\n      dup2\n      mstore\n      pop\n        /* \"trustless cross-chain/trading pair formation/NFTburn.sol\":1388:1394  stakes */\n      0x06\n        /* \"trustless cross-chain/trading pair formation/NFTburn.sol\":1388:1403  stakes[stakeId] */\n      0x00\n        /* \"trustless cross-chain/trading pair formation/NFTburn.sol\":1395:1402  stakeId */\n      dup6\n        /* \"trustless cross-chain/trading pair formation/NFTburn.sol\":1388:1403  stakes[stakeId] */\n      dup2\n      mstore\n      0x20\n      add\n      swap1\n      dup2\n      mstore\n      0x20\n      add\n      0x00\n      keccak256\n        /* \"trustless cross-chain/trading pair formation/NFTburn.sol\":1388:1456  stakes[stakeId] = StakeInfo(msg.sender, tokenId, lockTime, deadline) */\n      0x00\n      dup3\n      add\n      mload\n      dup2\n      0x00\n      add\n      exp(0x0100, 0x00)\n      dup2\n      sload\n      dup2\n      0xffffffffffffffffffffffffffffffffffffffff\n      mul\n      not\n      and\n      swap1\n      dup4\n      0xffffffffffffffffffffffffffffffffffffffff\n      and\n      mul\n      or\n      swap1\n      sstore\n      pop\n      0x20\n      dup3\n      add\n      mload\n      dup2\n      0x01\n      add\n      sstore\n      0x40\n      dup3\n      add\n      mload\n      dup2\n      0x02\n      add\n      sstore\n      0x60\n      dup3\n      add\n      mload\n      dup2\n      0x03\n      add\n      sstore\n      swap1\n      pop\n      pop\n        /* \"trustless cross-chain/trading pair formation/NFTburn.sol\":1467:1483  gameItemContract */\n      0x01\n      0x00\n      swap1\n      sload\n      swap1\n      0x0100\n      exp\n      swap1\n      div\n      0xffffffffffffffffffffffffffffffffffffffff\n      and\n        /* \"trustless cross-chain/trading pair formation/NFTburn.sol\":1467:1496  gameItemContract.transferFrom */\n      0xffffffffffffffffffffffffffffffffffffffff\n      and\n      0x23b872dd\n        /* \"trustless cross-chain/trading pair formation/NFTburn.sol\":1497:1507  msg.sender */\n      caller\n        /* \"trustless cross-chain/trading pair formation/NFTburn.sol\":1517:1521  this */\n      address\n        /* \"trustless cross-chain/trading pair formation/NFTburn.sol\":1524:1531  tokenId */\n      dup8\n        /* \"trustless cross-chain/trading pair formation/NFTburn.sol\":1467:1532  gameItemContract.transferFrom(msg.sender, address(this), tokenId) */\n      mload(0x40)\n      dup5\n      0xffffffff\n      and\n      0xe0\n      shl\n      dup2\n      mstore\n      0x04\n      add\n      tag_101\n      swap4\n      swap3\n      swap2\n      swap1\n      tag_72\n      jump\t// in\n    tag_101:\n      0x00\n      mload(0x40)\n      dup1\n      dup4\n      sub\n      dup2\n      0x00\n      dup8\n      dup1\n      extcodesize\n      iszero\n      dup1\n      iszero\n      tag_102\n      jumpi\n      0x00\n      dup1\n      revert\n    tag_102:\n      pop\n      gas\n      call\n      iszero\n      dup1\n      iszero\n      tag_104\n      jumpi\n      returndatasize\n      0x00\n      dup1\n      returndatacopy\n      revert(0x00, returndatasize)\n    tag_104:\n      pop\n      pop\n      pop\n      pop\n        /* \"trustless cross-chain/trading pair formation/NFTburn.sol\":1548:1599  StakeLocked(stakeId, msg.sender, tokenId, deadline) */\n      0xe42732012f91412364b2848d4c8c3d8dd5508e0a5a0f60d6e1de7843145ea5c0\n        /* \"trustless cross-chain/trading pair formation/NFTburn.sol\":1560:1567  stakeId */\n      dup4\n        /* \"trustless cross-chain/trading pair formation/NFTburn.sol\":1569:1579  msg.sender */\n      caller\n        /* \"trustless cross-chain/trading pair formation/NFTburn.sol\":1581:1588  tokenId */\n      dup7\n        /* \"trustless cross-chain/trading pair formation/NFTburn.sol\":1590:1598  deadline */\n      dup5\n        /* \"trustless cross-chain/trading pair formation/NFTburn.sol\":1548:1599  StakeLocked(stakeId, msg.sender, tokenId, deadline) */\n      mload(0x40)\n      tag_105\n      swap5\n      swap4\n      swap3\n      swap2\n      swap1\n      tag_106\n      jump\t// in\n    tag_105:\n      mload(0x40)\n      dup1\n      swap2\n      sub\n      swap1\n      log1\n        /* \"trustless cross-chain/trading pair formation/NFTburn.sol\":1072:1606  {... */\n      pop\n      pop\n      pop\n        /* \"trustless cross-chain/trading pair formation/NFTburn.sol\":1032:1606  function lock(uint256 tokenId) external {... */\n      pop\n      jump\t// out\n        /* \"trustless cross-chain/trading pair formation/NFTburn.sol\":313:334  uint256 public deltaB */\n    tag_51:\n      sload(0x04)\n      dup2\n      jump\t// out\n        /* \"@openzeppelin/contracts/access/Ownable.sol\":2081:2279  function transferOwnership(address newOwner) public virtual onlyOwner {... */\n    tag_56:\n        /* \"@openzeppelin/contracts/access/Ownable.sol\":1094:1107  _checkOwner() */\n      tag_108\n        /* \"@openzeppelin/contracts/access/Ownable.sol\":1094:1105  _checkOwner */\n      tag_63\n        /* \"@openzeppelin/contracts/access/Ownable.sol\":1094:1107  _checkOwner() */\n      jump\t// in\n    tag_108:\n        /* \"@openzeppelin/contracts/access/Ownable.sol\":2189:2190  0 */\n      0x00\n        /* \"@openzeppelin/contracts/access/Ownable.sol\":2169:2191  newOwner != address(0) */\n      0xffffffffffffffffffffffffffffffffffffffff\n      and\n        /* \"@openzeppelin/contracts/access/Ownable.sol\":2169:2177  newOwner */\n      dup2\n        /* \"@openzeppelin/contracts/access/Ownable.sol\":2169:2191  newOwner != address(0) */\n      0xffffffffffffffffffffffffffffffffffffffff\n      and\n      sub\n        /* \"@openzeppelin/contracts/access/Ownable.sol\":2161:2234  require(newOwner != address(0), \"Ownable: new owner is the zero address\") */\n      tag_110\n      jumpi\n      mload(0x40)\n      0x08c379a000000000000000000000000000000000000000000000000000000000\n      dup2\n      mstore\n      0x04\n      add\n      tag_111\n      swap1\n      tag_112\n      jump\t// in\n    tag_111:\n      mload(0x40)\n      dup1\n      swap2\n      sub\n      swap1\n      revert\n    tag_110:\n        /* \"@openzeppelin/contracts/access/Ownable.sol\":2244:2272  _transferOwnership(newOwner) */\n      tag_113\n        /* \"@openzeppelin/contracts/access/Ownable.sol\":2263:2271  newOwner */\n      dup2\n        /* \"@openzeppelin/contracts/access/Ownable.sol\":2244:2262  _transferOwnership */\n      tag_81\n        /* \"@openzeppelin/contracts/access/Ownable.sol\":2244:2272  _transferOwnership(newOwner) */\n      jump\t// in\n    tag_113:\n        /* \"@openzeppelin/contracts/access/Ownable.sol\":2081:2279  function transferOwnership(address newOwner) public virtual onlyOwner {... */\n      pop\n      jump\t// out\n        /* \"trustless cross-chain/trading pair formation/NFTburn.sol\":212:243  IERC721 public gameItemContract */\n    tag_58:\n      0x01\n      0x00\n      swap1\n      sload\n      swap1\n      0x0100\n      exp\n      swap1\n      div\n      0xffffffffffffffffffffffffffffffffffffffff\n      and\n      dup2\n      jump\t// out\n        /* \"@openzeppelin/contracts/access/Ownable.sol\":1359:1489  function _checkOwner() internal view virtual {... */\n    tag_63:\n        /* \"@openzeppelin/contracts/access/Ownable.sol\":1433:1445  _msgSender() */\n      tag_115\n        /* \"@openzeppelin/contracts/access/Ownable.sol\":1433:1443  _msgSender */\n      tag_116\n        /* \"@openzeppelin/contracts/access/Ownable.sol\":1433:1445  _msgSender() */\n      jump\t// in\n    tag_115:\n        /* \"@openzeppelin/contracts/access/Ownable.sol\":1422:1445  owner() == _msgSender() */\n      0xffffffffffffffffffffffffffffffffffffffff\n      and\n        /* \"@openzeppelin/contracts/access/Ownable.sol\":1422:1429  owner() */\n      tag_117\n        /* \"@openzeppelin/contracts/access/Ownable.sol\":1422:1427  owner */\n      tag_39\n        /* \"@openzeppelin/contracts/access/Ownable.sol\":1422:1429  owner() */\n      jump\t// in\n    tag_117:\n        /* \"@openzeppelin/contracts/access/Ownable.sol\":1422:1445  owner() == _msgSender() */\n      0xffffffffffffffffffffffffffffffffffffffff\n      and\n      eq\n        /* \"@openzeppelin/contracts/access/Ownable.sol\":1414:1482  require(owner() == _msgSender(), \"Ownable: caller is not the owner\") */\n      tag_118\n      jumpi\n      mload(0x40)\n      0x08c379a000000000000000000000000000000000000000000000000000000000\n      dup2\n      mstore\n      0x04\n      add\n      tag_119\n      swap1\n      tag_120\n      jump\t// in\n    tag_119:\n      mload(0x40)\n      dup1\n      swap2\n      sub\n      swap1\n      revert\n    tag_118:\n        /* \"@openzeppelin/contracts/access/Ownable.sol\":1359:1489  function _checkOwner() internal view virtual {... */\n      jump\t// out\n        /* \"@openzeppelin/contracts/access/Ownable.sol\":2433:2620  function _transferOwnership(address newOwner) internal virtual {... */\n    tag_81:\n        /* \"@openzeppelin/contracts/access/Ownable.sol\":2506:2522  address oldOwner */\n      0x00\n        /* \"@openzeppelin/contracts/access/Ownable.sol\":2525:2531  _owner */\n      dup1\n      0x00\n      swap1\n      sload\n      swap1\n      0x0100\n      exp\n      swap1\n      div\n      0xffffffffffffffffffffffffffffffffffffffff\n      and\n        /* \"@openzeppelin/contracts/access/Ownable.sol\":2506:2531  address oldOwner = _owner */\n      swap1\n      pop\n        /* \"@openzeppelin/contracts/access/Ownable.sol\":2550:2558  newOwner */\n      dup2\n        /* \"@openzeppelin/contracts/access/Ownable.sol\":2541:2547  _owner */\n      0x00\n      dup1\n        /* \"@openzeppelin/contracts/access/Ownable.sol\":2541:2558  _owner = newOwner */\n      0x0100\n      exp\n      dup2\n      sload\n      dup2\n      0xffffffffffffffffffffffffffffffffffffffff\n      mul\n      not\n      and\n      swap1\n      dup4\n      0xffffffffffffffffffffffffffffffffffffffff\n      and\n      mul\n      or\n      swap1\n      sstore\n      pop\n        /* \"@openzeppelin/contracts/access/Ownable.sol\":2604:2612  newOwner */\n      dup2\n        /* \"@openzeppelin/contracts/access/Ownable.sol\":2573:2613  OwnershipTransferred(oldOwner, newOwner) */\n      0xffffffffffffffffffffffffffffffffffffffff\n      and\n        /* \"@openzeppelin/contracts/access/Ownable.sol\":2594:2602  oldOwner */\n      dup2\n        /* \"@openzeppelin/contracts/access/Ownable.sol\":2573:2613  OwnershipTransferred(oldOwner, newOwner) */\n      0xffffffffffffffffffffffffffffffffffffffff\n      and\n      0x8be0079c531659141344cd1fd0a4f28419497f9722a3daafe3b4186f6b6457e0\n      mload(0x40)\n      mload(0x40)\n      dup1\n      swap2\n      sub\n      swap1\n      log3\n        /* \"@openzeppelin/contracts/access/Ownable.sol\":2496:2620  {... */\n      pop\n        /* \"@openzeppelin/contracts/access/Ownable.sol\":2433:2620  function _transferOwnership(address newOwner) internal virtual {... */\n      pop\n      jump\t// out\n        /* \"@openzeppelin/contracts/utils/Context.sol\":640:736  function _msgSender() internal view virtual returns (address) {... */\n    tag_116:\n        /* \"@openzeppelin/contracts/utils/Context.sol\":693:700  address */\n      0x00\n        /* \"@openzeppelin/contracts/utils/Context.sol\":719:729  msg.sender */\n      caller\n        /* \"@openzeppelin/contracts/utils/Context.sol\":712:729  return msg.sender */\n      swap1\n      pop\n        /* \"@openzeppelin/contracts/utils/Context.sol\":640:736  function _msgSender() internal view virtual returns (address) {... */\n      swap1\n      jump\t// out\n    tag_83:\n      mload(0x40)\n      dup1\n      0x80\n      add\n      0x40\n      mstore\n      dup1\n      and(0xffffffffffffffffffffffffffffffffffffffff, 0x00)\n      dup2\n      mstore\n      0x20\n      add\n      0x00\n      dup2\n      mstore\n      0x20\n      add\n      0x00\n      dup2\n      mstore\n      0x20\n      add\n      0x00\n      dup2\n      mstore\n      pop\n      swap1\n      jump\t// out\n        /* \"#utility.yul\":88:205   */\n    tag_124:\n        /* \"#utility.yul\":197:198   */\n      0x00\n        /* \"#utility.yul\":194:195   */\n      dup1\n        /* \"#utility.yul\":187:199   */\n      revert\n        /* \"#utility.yul\":334:411   */\n    tag_126:\n        /* \"#utility.yul\":371:378   */\n      0x00\n        /* \"#utility.yul\":400:405   */\n      dup2\n        /* \"#utility.yul\":389:405   */\n      swap1\n      pop\n        /* \"#utility.yul\":334:411   */\n      swap2\n      swap1\n      pop\n      jump\t// out\n        /* \"#utility.yul\":417:539   */\n    tag_127:\n        /* \"#utility.yul\":490:514   */\n      tag_172\n        /* \"#utility.yul\":508:513   */\n      dup2\n        /* \"#utility.yul\":490:514   */\n      tag_126\n      jump\t// in\n    tag_172:\n        /* \"#utility.yul\":483:488   */\n      dup2\n        /* \"#utility.yul\":480:515   */\n      eq\n        /* \"#utility.yul\":470:533   */\n      tag_173\n      jumpi\n        /* \"#utility.yul\":529:530   */\n      0x00\n        /* \"#utility.yul\":526:527   */\n      dup1\n        /* \"#utility.yul\":519:531   */\n      revert\n        /* \"#utility.yul\":470:533   */\n    tag_173:\n        /* \"#utility.yul\":417:539   */\n      pop\n      jump\t// out\n        /* \"#utility.yul\":545:684   */\n    tag_128:\n        /* \"#utility.yul\":591:596   */\n      0x00\n        /* \"#utility.yul\":629:635   */\n      dup2\n        /* \"#utility.yul\":616:636   */\n      calldataload\n        /* \"#utility.yul\":607:636   */\n      swap1\n      pop\n        /* \"#utility.yul\":645:678   */\n      tag_175\n        /* \"#utility.yul\":672:677   */\n      dup2\n        /* \"#utility.yul\":645:678   */\n      tag_127\n      jump\t// in\n    tag_175:\n        /* \"#utility.yul\":545:684   */\n      swap3\n      swap2\n      pop\n      pop\n      jump\t// out\n        /* \"#utility.yul\":690:1019   */\n    tag_18:\n        /* \"#utility.yul\":749:755   */\n      0x00\n        /* \"#utility.yul\":798:800   */\n      0x20\n        /* \"#utility.yul\":786:795   */\n      dup3\n        /* \"#utility.yul\":777:784   */\n      dup5\n        /* \"#utility.yul\":773:796   */\n      sub\n        /* \"#utility.yul\":769:801   */\n      slt\n        /* \"#utility.yul\":766:885   */\n      iszero\n      tag_177\n      jumpi\n        /* \"#utility.yul\":804:883   */\n      tag_178\n      tag_124\n      jump\t// in\n    tag_178:\n        /* \"#utility.yul\":766:885   */\n    tag_177:\n        /* \"#utility.yul\":924:925   */\n      0x00\n        /* \"#utility.yul\":949:1002   */\n      tag_179\n        /* \"#utility.yul\":994:1001   */\n      dup5\n        /* \"#utility.yul\":985:991   */\n      dup3\n        /* \"#utility.yul\":974:983   */\n      dup6\n        /* \"#utility.yul\":970:992   */\n      add\n        /* \"#utility.yul\":949:1002   */\n      tag_128\n      jump\t// in\n    tag_179:\n        /* \"#utility.yul\":939:1002   */\n      swap2\n      pop\n        /* \"#utility.yul\":895:1012   */\n      pop\n        /* \"#utility.yul\":690:1019   */\n      swap3\n      swap2\n      pop\n      pop\n      jump\t// out\n        /* \"#utility.yul\":1025:1102   */\n    tag_129:\n        /* \"#utility.yul\":1062:1069   */\n      0x00\n        /* \"#utility.yul\":1091:1096   */\n      dup2\n        /* \"#utility.yul\":1080:1096   */\n      swap1\n      pop\n        /* \"#utility.yul\":1025:1102   */\n      swap2\n      swap1\n      pop\n      jump\t// out\n        /* \"#utility.yul\":1108:1226   */\n    tag_130:\n        /* \"#utility.yul\":1195:1219   */\n      tag_182\n        /* \"#utility.yul\":1213:1218   */\n      dup2\n        /* \"#utility.yul\":1195:1219   */\n      tag_129\n      jump\t// in\n    tag_182:\n        /* \"#utility.yul\":1190:1193   */\n      dup3\n        /* \"#utility.yul\":1183:1220   */\n      mstore\n        /* \"#utility.yul\":1108:1226   */\n      pop\n      pop\n      jump\t// out\n        /* \"#utility.yul\":1232:1454   */\n    tag_23:\n        /* \"#utility.yul\":1325:1329   */\n      0x00\n        /* \"#utility.yul\":1363:1365   */\n      0x20\n        /* \"#utility.yul\":1352:1361   */\n      dup3\n        /* \"#utility.yul\":1348:1366   */\n      add\n        /* \"#utility.yul\":1340:1366   */\n      swap1\n      pop\n        /* \"#utility.yul\":1376:1447   */\n      tag_184\n        /* \"#utility.yul\":1444:1445   */\n      0x00\n        /* \"#utility.yul\":1433:1442   */\n      dup4\n        /* \"#utility.yul\":1429:1446   */\n      add\n        /* \"#utility.yul\":1420:1426   */\n      dup5\n        /* \"#utility.yul\":1376:1447   */\n      tag_130\n      jump\t// in\n    tag_184:\n        /* \"#utility.yul\":1232:1454   */\n      swap3\n      swap2\n      pop\n      pop\n      jump\t// out\n        /* \"#utility.yul\":1460:1586   */\n    tag_131:\n        /* \"#utility.yul\":1497:1504   */\n      0x00\n        /* \"#utility.yul\":1537:1579   */\n      0xffffffffffffffffffffffffffffffffffffffff\n        /* \"#utility.yul\":1530:1535   */\n      dup3\n        /* \"#utility.yul\":1526:1580   */\n      and\n        /* \"#utility.yul\":1515:1580   */\n      swap1\n      pop\n        /* \"#utility.yul\":1460:1586   */\n      swap2\n      swap1\n      pop\n      jump\t// out\n        /* \"#utility.yul\":1592:1688   */\n    tag_132:\n        /* \"#utility.yul\":1629:1636   */\n      0x00\n        /* \"#utility.yul\":1658:1682   */\n      tag_187\n        /* \"#utility.yul\":1676:1681   */\n      dup3\n        /* \"#utility.yul\":1658:1682   */\n      tag_131\n      jump\t// in\n    tag_187:\n        /* \"#utility.yul\":1647:1682   */\n      swap1\n      pop\n        /* \"#utility.yul\":1592:1688   */\n      swap2\n      swap1\n      pop\n      jump\t// out\n        /* \"#utility.yul\":1694:1812   */\n    tag_133:\n        /* \"#utility.yul\":1781:1805   */\n      tag_189\n        /* \"#utility.yul\":1799:1804   */\n      dup2\n        /* \"#utility.yul\":1781:1805   */\n      tag_132\n      jump\t// in\n    tag_189:\n        /* \"#utility.yul\":1776:1779   */\n      dup3\n        /* \"#utility.yul\":1769:1806   */\n      mstore\n        /* \"#utility.yul\":1694:1812   */\n      pop\n      pop\n      jump\t// out\n        /* \"#utility.yul\":1818:2040   */\n    tag_29:\n        /* \"#utility.yul\":1911:1915   */\n      0x00\n        /* \"#utility.yul\":1949:1951   */\n      0x20\n        /* \"#utility.yul\":1938:1947   */\n      dup3\n        /* \"#utility.yul\":1934:1952   */\n      add\n        /* \"#utility.yul\":1926:1952   */\n      swap1\n      pop\n        /* \"#utility.yul\":1962:2033   */\n      tag_191\n        /* \"#utility.yul\":2030:2031   */\n      0x00\n        /* \"#utility.yul\":2019:2028   */\n      dup4\n        /* \"#utility.yul\":2015:2032   */\n      add\n        /* \"#utility.yul\":2006:2012   */\n      dup5\n        /* \"#utility.yul\":1962:2033   */\n      tag_133\n      jump\t// in\n    tag_191:\n        /* \"#utility.yul\":1818:2040   */\n      swap3\n      swap2\n      pop\n      pop\n      jump\t// out\n        /* \"#utility.yul\":2046:2154   */\n    tag_134:\n        /* \"#utility.yul\":2123:2147   */\n      tag_193\n        /* \"#utility.yul\":2141:2146   */\n      dup2\n        /* \"#utility.yul\":2123:2147   */\n      tag_132\n      jump\t// in\n    tag_193:\n        /* \"#utility.yul\":2118:2121   */\n      dup3\n        /* \"#utility.yul\":2111:2148   */\n      mstore\n        /* \"#utility.yul\":2046:2154   */\n      pop\n      pop\n      jump\t// out\n        /* \"#utility.yul\":2160:2268   */\n    tag_135:\n        /* \"#utility.yul\":2237:2261   */\n      tag_195\n        /* \"#utility.yul\":2255:2260   */\n      dup2\n        /* \"#utility.yul\":2237:2261   */\n      tag_129\n      jump\t// in\n    tag_195:\n        /* \"#utility.yul\":2232:2235   */\n      dup3\n        /* \"#utility.yul\":2225:2262   */\n      mstore\n        /* \"#utility.yul\":2160:2268   */\n      pop\n      pop\n      jump\t// out\n        /* \"#utility.yul\":2350:3219   */\n    tag_136:\n        /* \"#utility.yul\":2499:2503   */\n      0x80\n        /* \"#utility.yul\":2494:2497   */\n      dup3\n        /* \"#utility.yul\":2490:2504   */\n      add\n        /* \"#utility.yul\":2587:2591   */\n      0x00\n        /* \"#utility.yul\":2580:2585   */\n      dup3\n        /* \"#utility.yul\":2576:2592   */\n      add\n        /* \"#utility.yul\":2570:2593   */\n      mload\n        /* \"#utility.yul\":2606:2669   */\n      tag_197\n        /* \"#utility.yul\":2663:2667   */\n      0x00\n        /* \"#utility.yul\":2658:2661   */\n      dup6\n        /* \"#utility.yul\":2654:2668   */\n      add\n        /* \"#utility.yul\":2640:2652   */\n      dup3\n        /* \"#utility.yul\":2606:2669   */\n      tag_134\n      jump\t// in\n    tag_197:\n        /* \"#utility.yul\":2514:2679   */\n      pop\n        /* \"#utility.yul\":2764:2768   */\n      0x20\n        /* \"#utility.yul\":2757:2762   */\n      dup3\n        /* \"#utility.yul\":2753:2769   */\n      add\n        /* \"#utility.yul\":2747:2770   */\n      mload\n        /* \"#utility.yul\":2783:2846   */\n      tag_198\n        /* \"#utility.yul\":2840:2844   */\n      0x20\n        /* \"#utility.yul\":2835:2838   */\n      dup6\n        /* \"#utility.yul\":2831:2845   */\n      add\n        /* \"#utility.yul\":2817:2829   */\n      dup3\n        /* \"#utility.yul\":2783:2846   */\n      tag_135\n      jump\t// in\n    tag_198:\n        /* \"#utility.yul\":2689:2856   */\n      pop\n        /* \"#utility.yul\":2942:2946   */\n      0x40\n        /* \"#utility.yul\":2935:2940   */\n      dup3\n        /* \"#utility.yul\":2931:2947   */\n      add\n        /* \"#utility.yul\":2925:2948   */\n      mload\n        /* \"#utility.yul\":2961:3024   */\n      tag_199\n        /* \"#utility.yul\":3018:3022   */\n      0x40\n        /* \"#utility.yul\":3013:3016   */\n      dup6\n        /* \"#utility.yul\":3009:3023   */\n      add\n        /* \"#utility.yul\":2995:3007   */\n      dup3\n        /* \"#utility.yul\":2961:3024   */\n      tag_135\n      jump\t// in\n    tag_199:\n        /* \"#utility.yul\":2866:3034   */\n      pop\n        /* \"#utility.yul\":3120:3124   */\n      0x60\n        /* \"#utility.yul\":3113:3118   */\n      dup3\n        /* \"#utility.yul\":3109:3125   */\n      add\n        /* \"#utility.yul\":3103:3126   */\n      mload\n        /* \"#utility.yul\":3139:3202   */\n      tag_200\n        /* \"#utility.yul\":3196:3200   */\n      0x60\n        /* \"#utility.yul\":3191:3194   */\n      dup6\n        /* \"#utility.yul\":3187:3201   */\n      add\n        /* \"#utility.yul\":3173:3185   */\n      dup3\n        /* \"#utility.yul\":3139:3202   */\n      tag_135\n      jump\t// in\n    tag_200:\n        /* \"#utility.yul\":3044:3212   */\n      pop\n        /* \"#utility.yul\":2468:3219   */\n      pop\n        /* \"#utility.yul\":2350:3219   */\n      pop\n      pop\n      jump\t// out\n        /* \"#utility.yul\":3225:3552   */\n    tag_34:\n        /* \"#utility.yul\":3370:3374   */\n      0x00\n        /* \"#utility.yul\":3408:3411   */\n      0x80\n        /* \"#utility.yul\":3397:3406   */\n      dup3\n        /* \"#utility.yul\":3393:3412   */\n      add\n        /* \"#utility.yul\":3385:3412   */\n      swap1\n      pop\n        /* \"#utility.yul\":3422:3545   */\n      tag_202\n        /* \"#utility.yul\":3542:3543   */\n      0x00\n        /* \"#utility.yul\":3531:3540   */\n      dup4\n        /* \"#utility.yul\":3527:3544   */\n      add\n        /* \"#utility.yul\":3518:3524   */\n      dup5\n        /* \"#utility.yul\":3422:3545   */\n      tag_136\n      jump\t// in\n    tag_202:\n        /* \"#utility.yul\":3225:3552   */\n      swap3\n      swap2\n      pop\n      pop\n      jump\t// out\n        /* \"#utility.yul\":3558:4111   */\n    tag_45:\n        /* \"#utility.yul\":3735:3739   */\n      0x00\n        /* \"#utility.yul\":3773:3776   */\n      0x80\n        /* \"#utility.yul\":3762:3771   */\n      dup3\n        /* \"#utility.yul\":3758:3777   */\n      add\n        /* \"#utility.yul\":3750:3777   */\n      swap1\n      pop\n        /* \"#utility.yul\":3787:3858   */\n      tag_204\n        /* \"#utility.yul\":3855:3856   */\n      0x00\n        /* \"#utility.yul\":3844:3853   */\n      dup4\n        /* \"#utility.yul\":3840:3857   */\n      add\n        /* \"#utility.yul\":3831:3837   */\n      dup8\n        /* \"#utility.yul\":3787:3858   */\n      tag_133\n      jump\t// in\n    tag_204:\n        /* \"#utility.yul\":3868:3940   */\n      tag_205\n        /* \"#utility.yul\":3936:3938   */\n      0x20\n        /* \"#utility.yul\":3925:3934   */\n      dup4\n        /* \"#utility.yul\":3921:3939   */\n      add\n        /* \"#utility.yul\":3912:3918   */\n      dup7\n        /* \"#utility.yul\":3868:3940   */\n      tag_130\n      jump\t// in\n    tag_205:\n        /* \"#utility.yul\":3950:4022   */\n      tag_206\n        /* \"#utility.yul\":4018:4020   */\n      0x40\n        /* \"#utility.yul\":4007:4016   */\n      dup4\n        /* \"#utility.yul\":4003:4021   */\n      add\n        /* \"#utility.yul\":3994:4000   */\n      dup6\n        /* \"#utility.yul\":3950:4022   */\n      tag_130\n      jump\t// in\n    tag_206:\n        /* \"#utility.yul\":4032:4104   */\n      tag_207\n        /* \"#utility.yul\":4100:4102   */\n      0x60\n        /* \"#utility.yul\":4089:4098   */\n      dup4\n        /* \"#utility.yul\":4085:4103   */\n      add\n        /* \"#utility.yul\":4076:4082   */\n      dup5\n        /* \"#utility.yul\":4032:4104   */\n      tag_130\n      jump\t// in\n    tag_207:\n        /* \"#utility.yul\":3558:4111   */\n      swap6\n      swap5\n      pop\n      pop\n      pop\n      pop\n      pop\n      jump\t// out\n        /* \"#utility.yul\":4117:4239   */\n    tag_137:\n        /* \"#utility.yul\":4190:4214   */\n      tag_209\n        /* \"#utility.yul\":4208:4213   */\n      dup2\n        /* \"#utility.yul\":4190:4214   */\n      tag_129\n      jump\t// in\n    tag_209:\n        /* \"#utility.yul\":4183:4188   */\n      dup2\n        /* \"#utility.yul\":4180:4215   */\n      eq\n        /* \"#utility.yul\":4170:4233   */\n      tag_210\n      jumpi\n        /* \"#utility.yul\":4229:4230   */\n      0x00\n        /* \"#utility.yul\":4226:4227   */\n      dup1\n        /* \"#utility.yul\":4219:4231   */\n      revert\n        /* \"#utility.yul\":4170:4233   */\n    tag_210:\n        /* \"#utility.yul\":4117:4239   */\n      pop\n      jump\t// out\n        /* \"#utility.yul\":4245:4384   */\n    tag_138:\n        /* \"#utility.yul\":4291:4296   */\n      0x00\n        /* \"#utility.yul\":4329:4335   */\n      dup2\n        /* \"#utility.yul\":4316:4336   */\n      calldataload\n        /* \"#utility.yul\":4307:4336   */\n      swap1\n      pop\n        /* \"#utility.yul\":4345:4378   */\n      tag_212\n        /* \"#utility.yul\":4372:4377   */\n      dup2\n        /* \"#utility.yul\":4345:4378   */\n      tag_137\n      jump\t// in\n    tag_212:\n        /* \"#utility.yul\":4245:4384   */\n      swap3\n      swap2\n      pop\n      pop\n      jump\t// out\n        /* \"#utility.yul\":4390:4719   */\n    tag_48:\n        /* \"#utility.yul\":4449:4455   */\n      0x00\n        /* \"#utility.yul\":4498:4500   */\n      0x20\n        /* \"#utility.yul\":4486:4495   */\n      dup3\n        /* \"#utility.yul\":4477:4484   */\n      dup5\n        /* \"#utility.yul\":4473:4496   */\n      sub\n        /* \"#utility.yul\":4469:4501   */\n      slt\n        /* \"#utility.yul\":4466:4585   */\n      iszero\n      tag_214\n      jumpi\n        /* \"#utility.yul\":4504:4583   */\n      tag_215\n      tag_124\n      jump\t// in\n    tag_215:\n        /* \"#utility.yul\":4466:4585   */\n    tag_214:\n        /* \"#utility.yul\":4624:4625   */\n      0x00\n        /* \"#utility.yul\":4649:4702   */\n      tag_216\n        /* \"#utility.yul\":4694:4701   */\n      dup5\n        /* \"#utility.yul\":4685:4691   */\n      dup3\n        /* \"#utility.yul\":4674:4683   */\n      dup6\n        /* \"#utility.yul\":4670:4692   */\n      add\n        /* \"#utility.yul\":4649:4702   */\n      tag_138\n      jump\t// in\n    tag_216:\n        /* \"#utility.yul\":4639:4702   */\n      swap2\n      pop\n        /* \"#utility.yul\":4595:4712   */\n      pop\n        /* \"#utility.yul\":4390:4719   */\n      swap3\n      swap2\n      pop\n      pop\n      jump\t// out\n        /* \"#utility.yul\":4725:4847   */\n    tag_139:\n        /* \"#utility.yul\":4798:4822   */\n      tag_218\n        /* \"#utility.yul\":4816:4821   */\n      dup2\n        /* \"#utility.yul\":4798:4822   */\n      tag_132\n      jump\t// in\n    tag_218:\n        /* \"#utility.yul\":4791:4796   */\n      dup2\n        /* \"#utility.yul\":4788:4823   */\n      eq\n        /* \"#utility.yul\":4778:4841   */\n      tag_219\n      jumpi\n        /* \"#utility.yul\":4837:4838   */\n      0x00\n        /* \"#utility.yul\":4834:4835   */\n      dup1\n        /* \"#utility.yul\":4827:4839   */\n      revert\n        /* \"#utility.yul\":4778:4841   */\n    tag_219:\n        /* \"#utility.yul\":4725:4847   */\n      pop\n      jump\t// out\n        /* \"#utility.yul\":4853:4992   */\n    tag_140:\n        /* \"#utility.yul\":4899:4904   */\n      0x00\n        /* \"#utility.yul\":4937:4943   */\n      dup2\n        /* \"#utility.yul\":4924:4944   */\n      calldataload\n        /* \"#utility.yul\":4915:4944   */\n      swap1\n      pop\n        /* \"#utility.yul\":4953:4986   */\n      tag_221\n        /* \"#utility.yul\":4980:4985   */\n      dup2\n        /* \"#utility.yul\":4953:4986   */\n      tag_139\n      jump\t// in\n    tag_221:\n        /* \"#utility.yul\":4853:4992   */\n      swap3\n      swap2\n      pop\n      pop\n      jump\t// out\n        /* \"#utility.yul\":4998:5327   */\n    tag_55:\n        /* \"#utility.yul\":5057:5063   */\n      0x00\n        /* \"#utility.yul\":5106:5108   */\n      0x20\n        /* \"#utility.yul\":5094:5103   */\n      dup3\n        /* \"#utility.yul\":5085:5092   */\n      dup5\n        /* \"#utility.yul\":5081:5104   */\n      sub\n        /* \"#utility.yul\":5077:5109   */\n      slt\n        /* \"#utility.yul\":5074:5193   */\n      iszero\n      tag_223\n      jumpi\n        /* \"#utility.yul\":5112:5191   */\n      tag_224\n      tag_124\n      jump\t// in\n    tag_224:\n        /* \"#utility.yul\":5074:5193   */\n    tag_223:\n        /* \"#utility.yul\":5232:5233   */\n      0x00\n        /* \"#utility.yul\":5257:5310   */\n      tag_225\n        /* \"#utility.yul\":5302:5309   */\n      dup5\n        /* \"#utility.yul\":5293:5299   */\n      dup3\n        /* \"#utility.yul\":5282:5291   */\n      dup6\n        /* \"#utility.yul\":5278:5300   */\n      add\n        /* \"#utility.yul\":5257:5310   */\n      tag_140\n      jump\t// in\n    tag_225:\n        /* \"#utility.yul\":5247:5310   */\n      swap2\n      pop\n        /* \"#utility.yul\":5203:5320   */\n      pop\n        /* \"#utility.yul\":4998:5327   */\n      swap3\n      swap2\n      pop\n      pop\n      jump\t// out\n        /* \"#utility.yul\":5333:5393   */\n    tag_141:\n        /* \"#utility.yul\":5361:5364   */\n      0x00\n        /* \"#utility.yul\":5382:5387   */\n      dup2\n        /* \"#utility.yul\":5375:5387   */\n      swap1\n      pop\n        /* \"#utility.yul\":5333:5393   */\n      swap2\n      swap1\n      pop\n      jump\t// out\n        /* \"#utility.yul\":5399:5541   */\n    tag_142:\n        /* \"#utility.yul\":5449:5458   */\n      0x00\n        /* \"#utility.yul\":5482:5535   */\n      tag_228\n        /* \"#utility.yul\":5500:5534   */\n      tag_229\n        /* \"#utility.yul\":5509:5533   */\n      tag_230\n        /* \"#utility.yul\":5527:5532   */\n      dup5\n        /* \"#utility.yul\":5509:5533   */\n      tag_131\n      jump\t// in\n    tag_230:\n        /* \"#utility.yul\":5500:5534   */\n      tag_141\n      jump\t// in\n    tag_229:\n        /* \"#utility.yul\":5482:5535   */\n      tag_131\n      jump\t// in\n    tag_228:\n        /* \"#utility.yul\":5469:5535   */\n      swap1\n      pop\n        /* \"#utility.yul\":5399:5541   */\n      swap2\n      swap1\n      pop\n      jump\t// out\n        /* \"#utility.yul\":5547:5673   */\n    tag_143:\n        /* \"#utility.yul\":5597:5606   */\n      0x00\n        /* \"#utility.yul\":5630:5667   */\n      tag_232\n        /* \"#utility.yul\":5661:5666   */\n      dup3\n        /* \"#utility.yul\":5630:5667   */\n      tag_142\n      jump\t// in\n    tag_232:\n        /* \"#utility.yul\":5617:5667   */\n      swap1\n      pop\n        /* \"#utility.yul\":5547:5673   */\n      swap2\n      swap1\n      pop\n      jump\t// out\n        /* \"#utility.yul\":5679:5820   */\n    tag_144:\n        /* \"#utility.yul\":5744:5753   */\n      0x00\n        /* \"#utility.yul\":5777:5814   */\n      tag_234\n        /* \"#utility.yul\":5808:5813   */\n      dup3\n        /* \"#utility.yul\":5777:5814   */\n      tag_143\n      jump\t// in\n    tag_234:\n        /* \"#utility.yul\":5764:5814   */\n      swap1\n      pop\n        /* \"#utility.yul\":5679:5820   */\n      swap2\n      swap1\n      pop\n      jump\t// out\n        /* \"#utility.yul\":5826:5987   */\n    tag_145:\n        /* \"#utility.yul\":5928:5980   */\n      tag_236\n        /* \"#utility.yul\":5974:5979   */\n      dup2\n        /* \"#utility.yul\":5928:5980   */\n      tag_144\n      jump\t// in\n    tag_236:\n        /* \"#utility.yul\":5923:5926   */\n      dup3\n        /* \"#utility.yul\":5916:5981   */\n      mstore\n        /* \"#utility.yul\":5826:5987   */\n      pop\n      pop\n      jump\t// out\n        /* \"#utility.yul\":5993:6245   */\n    tag_60:\n        /* \"#utility.yul\":6101:6105   */\n      0x00\n        /* \"#utility.yul\":6139:6141   */\n      0x20\n        /* \"#utility.yul\":6128:6137   */\n      dup3\n        /* \"#utility.yul\":6124:6142   */\n      add\n        /* \"#utility.yul\":6116:6142   */\n      swap1\n      pop\n        /* \"#utility.yul\":6152:6238   */\n      tag_238\n        /* \"#utility.yul\":6235:6236   */\n      0x00\n        /* \"#utility.yul\":6224:6233   */\n      dup4\n        /* \"#utility.yul\":6220:6237   */\n      add\n        /* \"#utility.yul\":6211:6217   */\n      dup5\n        /* \"#utility.yul\":6152:6238   */\n      tag_145\n      jump\t// in\n    tag_238:\n        /* \"#utility.yul\":5993:6245   */\n      swap3\n      swap2\n      pop\n      pop\n      jump\t// out\n        /* \"#utility.yul\":6251:6420   */\n    tag_146:\n        /* \"#utility.yul\":6335:6346   */\n      0x00\n        /* \"#utility.yul\":6369:6375   */\n      dup3\n        /* \"#utility.yul\":6364:6367   */\n      dup3\n        /* \"#utility.yul\":6357:6376   */\n      mstore\n        /* \"#utility.yul\":6409:6413   */\n      0x20\n        /* \"#utility.yul\":6404:6407   */\n      dup3\n        /* \"#utility.yul\":6400:6414   */\n      add\n        /* \"#utility.yul\":6385:6414   */\n      swap1\n      pop\n        /* \"#utility.yul\":6251:6420   */\n      swap3\n      swap2\n      pop\n      pop\n      jump\t// out\n        /* \"#utility.yul\":6426:6596   */\n    tag_147:\n        /* \"#utility.yul\":6566:6588   */\n      0x446561646c696e65206e6f742072656163686564000000000000000000000000\n        /* \"#utility.yul\":6562:6563   */\n      0x00\n        /* \"#utility.yul\":6554:6560   */\n      dup3\n        /* \"#utility.yul\":6550:6564   */\n      add\n        /* \"#utility.yul\":6543:6589   */\n      mstore\n        /* \"#utility.yul\":6426:6596   */\n      pop\n      jump\t// out\n        /* \"#utility.yul\":6602:6968   */\n    tag_148:\n        /* \"#utility.yul\":6744:6747   */\n      0x00\n        /* \"#utility.yul\":6765:6832   */\n      tag_242\n        /* \"#utility.yul\":6829:6831   */\n      0x14\n        /* \"#utility.yul\":6824:6827   */\n      dup4\n        /* \"#utility.yul\":6765:6832   */\n      tag_146\n      jump\t// in\n    tag_242:\n        /* \"#utility.yul\":6758:6832   */\n      swap2\n      pop\n        /* \"#utility.yul\":6841:6934   */\n      tag_243\n        /* \"#utility.yul\":6930:6933   */\n      dup3\n        /* \"#utility.yul\":6841:6934   */\n      tag_147\n      jump\t// in\n    tag_243:\n        /* \"#utility.yul\":6959:6961   */\n      0x20\n        /* \"#utility.yul\":6954:6957   */\n      dup3\n        /* \"#utility.yul\":6950:6962   */\n      add\n        /* \"#utility.yul\":6943:6962   */\n      swap1\n      pop\n        /* \"#utility.yul\":6602:6968   */\n      swap2\n      swap1\n      pop\n      jump\t// out\n        /* \"#utility.yul\":6974:7393   */\n    tag_67:\n        /* \"#utility.yul\":7140:7144   */\n      0x00\n        /* \"#utility.yul\":7178:7180   */\n      0x20\n        /* \"#utility.yul\":7167:7176   */\n      dup3\n        /* \"#utility.yul\":7163:7181   */\n      add\n        /* \"#utility.yul\":7155:7181   */\n      swap1\n      pop\n        /* \"#utility.yul\":7227:7236   */\n      dup2\n        /* \"#utility.yul\":7221:7225   */\n      dup2\n        /* \"#utility.yul\":7217:7237   */\n      sub\n        /* \"#utility.yul\":7213:7214   */\n      0x00\n        /* \"#utility.yul\":7202:7211   */\n      dup4\n        /* \"#utility.yul\":7198:7215   */\n      add\n        /* \"#utility.yul\":7191:7238   */\n      mstore\n        /* \"#utility.yul\":7255:7386   */\n      tag_245\n        /* \"#utility.yul\":7381:7385   */\n      dup2\n        /* \"#utility.yul\":7255:7386   */\n      tag_148\n      jump\t// in\n    tag_245:\n        /* \"#utility.yul\":7247:7386   */\n      swap1\n      pop\n        /* \"#utility.yul\":6974:7393   */\n      swap2\n      swap1\n      pop\n      jump\t// out\n        /* \"#utility.yul\":7399:7562   */\n    tag_149:\n        /* \"#utility.yul\":7539:7554   */\n      0x496e76616c6964207374616b6500000000000000000000000000000000000000\n        /* \"#utility.yul\":7535:7536   */\n      0x00\n        /* \"#utility.yul\":7527:7533   */\n      dup3\n        /* \"#utility.yul\":7523:7537   */\n      add\n        /* \"#utility.yul\":7516:7555   */\n      mstore\n        /* \"#utility.yul\":7399:7562   */\n      pop\n      jump\t// out\n        /* \"#utility.yul\":7568:7934   */\n    tag_150:\n        /* \"#utility.yul\":7710:7713   */\n      0x00\n        /* \"#utility.yul\":7731:7798   */\n      tag_248\n        /* \"#utility.yul\":7795:7797   */\n      0x0d\n        /* \"#utility.yul\":7790:7793   */\n      dup4\n        /* \"#utility.yul\":7731:7798   */\n      tag_146\n      jump\t// in\n    tag_248:\n        /* \"#utility.yul\":7724:7798   */\n      swap2\n      pop\n        /* \"#utility.yul\":7807:7900   */\n      tag_249\n        /* \"#utility.yul\":7896:7899   */\n      dup3\n        /* \"#utility.yul\":7807:7900   */\n      tag_149\n      jump\t// in\n    tag_249:\n        /* \"#utility.yul\":7925:7927   */\n      0x20\n        /* \"#utility.yul\":7920:7923   */\n      dup3\n        /* \"#utility.yul\":7916:7928   */\n      add\n        /* \"#utility.yul\":7909:7928   */\n      swap1\n      pop\n        /* \"#utility.yul\":7568:7934   */\n      swap2\n      swap1\n      pop\n      jump\t// out\n        /* \"#utility.yul\":7940:8359   */\n    tag_70:\n        /* \"#utility.yul\":8106:8110   */\n      0x00\n        /* \"#utility.yul\":8144:8146   */\n      0x20\n        /* \"#utility.yul\":8133:8142   */\n      dup3\n        /* \"#utility.yul\":8129:8147   */\n      add\n        /* \"#utility.yul\":8121:8147   */\n      swap1\n      pop\n        /* \"#utility.yul\":8193:8202   */\n      dup2\n        /* \"#utility.yul\":8187:8191   */\n      dup2\n        /* \"#utility.yul\":8183:8203   */\n      sub\n        /* \"#utility.yul\":8179:8180   */\n      0x00\n        /* \"#utility.yul\":8168:8177   */\n      dup4\n        /* \"#utility.yul\":8164:8181   */\n      add\n        /* \"#utility.yul\":8157:8204   */\n      mstore\n        /* \"#utility.yul\":8221:8352   */\n      tag_251\n        /* \"#utility.yul\":8347:8351   */\n      dup2\n        /* \"#utility.yul\":8221:8352   */\n      tag_150\n      jump\t// in\n    tag_251:\n        /* \"#utility.yul\":8213:8352   */\n      swap1\n      pop\n        /* \"#utility.yul\":7940:8359   */\n      swap2\n      swap1\n      pop\n      jump\t// out\n        /* \"#utility.yul\":8365:8807   */\n    tag_72:\n        /* \"#utility.yul\":8514:8518   */\n      0x00\n        /* \"#utility.yul\":8552:8554   */\n      0x60\n        /* \"#utility.yul\":8541:8550   */\n      dup3\n        /* \"#utility.yul\":8537:8555   */\n      add\n        /* \"#utility.yul\":8529:8555   */\n      swap1\n      pop\n        /* \"#utility.yul\":8565:8636   */\n      tag_253\n        /* \"#utility.yul\":8633:8634   */\n      0x00\n        /* \"#utility.yul\":8622:8631   */\n      dup4\n        /* \"#utility.yul\":8618:8635   */\n      add\n        /* \"#utility.yul\":8609:8615   */\n      dup7\n        /* \"#utility.yul\":8565:8636   */\n      tag_133\n      jump\t// in\n    tag_253:\n        /* \"#utility.yul\":8646:8718   */\n      tag_254\n        /* \"#utility.yul\":8714:8716   */\n      0x20\n        /* \"#utility.yul\":8703:8712   */\n      dup4\n        /* \"#utility.yul\":8699:8717   */\n      add\n        /* \"#utility.yul\":8690:8696   */\n      dup6\n        /* \"#utility.yul\":8646:8718   */\n      tag_133\n      jump\t// in\n    tag_254:\n        /* \"#utility.yul\":8728:8800   */\n      tag_255\n        /* \"#utility.yul\":8796:8798   */\n      0x40\n        /* \"#utility.yul\":8785:8794   */\n      dup4\n        /* \"#utility.yul\":8781:8799   */\n      add\n        /* \"#utility.yul\":8772:8778   */\n      dup5\n        /* \"#utility.yul\":8728:8800   */\n      tag_130\n      jump\t// in\n    tag_255:\n        /* \"#utility.yul\":8365:8807   */\n      swap5\n      swap4\n      pop\n      pop\n      pop\n      pop\n      jump\t// out\n        /* \"#utility.yul\":8813:8956   */\n    tag_151:\n        /* \"#utility.yul\":8870:8875   */\n      0x00\n        /* \"#utility.yul\":8901:8907   */\n      dup2\n        /* \"#utility.yul\":8895:8908   */\n      mload\n        /* \"#utility.yul\":8886:8908   */\n      swap1\n      pop\n        /* \"#utility.yul\":8917:8950   */\n      tag_257\n        /* \"#utility.yul\":8944:8949   */\n      dup2\n        /* \"#utility.yul\":8917:8950   */\n      tag_139\n      jump\t// in\n    tag_257:\n        /* \"#utility.yul\":8813:8956   */\n      swap3\n      swap2\n      pop\n      pop\n      jump\t// out\n        /* \"#utility.yul\":8962:9313   */\n    tag_91:\n        /* \"#utility.yul\":9032:9038   */\n      0x00\n        /* \"#utility.yul\":9081:9083   */\n      0x20\n        /* \"#utility.yul\":9069:9078   */\n      dup3\n        /* \"#utility.yul\":9060:9067   */\n      dup5\n        /* \"#utility.yul\":9056:9079   */\n      sub\n        /* \"#utility.yul\":9052:9084   */\n      slt\n        /* \"#utility.yul\":9049:9168   */\n      iszero\n      tag_259\n      jumpi\n        /* \"#utility.yul\":9087:9166   */\n      tag_260\n      tag_124\n      jump\t// in\n    tag_260:\n        /* \"#utility.yul\":9049:9168   */\n    tag_259:\n        /* \"#utility.yul\":9207:9208   */\n      0x00\n        /* \"#utility.yul\":9232:9296   */\n      tag_261\n        /* \"#utility.yul\":9288:9295   */\n      dup5\n        /* \"#utility.yul\":9279:9285   */\n      dup3\n        /* \"#utility.yul\":9268:9277   */\n      dup6\n        /* \"#utility.yul\":9264:9286   */\n      add\n        /* \"#utility.yul\":9232:9296   */\n      tag_151\n      jump\t// in\n    tag_261:\n        /* \"#utility.yul\":9222:9296   */\n      swap2\n      pop\n        /* \"#utility.yul\":9178:9306   */\n      pop\n        /* \"#utility.yul\":8962:9313   */\n      swap3\n      swap2\n      pop\n      pop\n      jump\t// out\n        /* \"#utility.yul\":9319:9539   */\n    tag_152:\n        /* \"#utility.yul\":9459:9493   */\n      0x596f7520617265206e6f7420746865206f776e6572206f662074686973204e46\n        /* \"#utility.yul\":9455:9456   */\n      0x00\n        /* \"#utility.yul\":9447:9453   */\n      dup3\n        /* \"#utility.yul\":9443:9457   */\n      add\n        /* \"#utility.yul\":9436:9494   */\n      mstore\n        /* \"#utility.yul\":9528:9531   */\n      0x5400000000000000000000000000000000000000000000000000000000000000\n        /* \"#utility.yul\":9523:9525   */\n      0x20\n        /* \"#utility.yul\":9515:9521   */\n      dup3\n        /* \"#utility.yul\":9511:9526   */\n      add\n        /* \"#utility.yul\":9504:9532   */\n      mstore\n        /* \"#utility.yul\":9319:9539   */\n      pop\n      jump\t// out\n        /* \"#utility.yul\":9545:9911   */\n    tag_153:\n        /* \"#utility.yul\":9687:9690   */\n      0x00\n        /* \"#utility.yul\":9708:9775   */\n      tag_264\n        /* \"#utility.yul\":9772:9774   */\n      0x21\n        /* \"#utility.yul\":9767:9770   */\n      dup4\n        /* \"#utility.yul\":9708:9775   */\n      tag_146\n      jump\t// in\n    tag_264:\n        /* \"#utility.yul\":9701:9775   */\n      swap2\n      pop\n        /* \"#utility.yul\":9784:9877   */\n      tag_265\n        /* \"#utility.yul\":9873:9876   */\n      dup3\n        /* \"#utility.yul\":9784:9877   */\n      tag_152\n      jump\t// in\n    tag_265:\n        /* \"#utility.yul\":9902:9904   */\n      0x40\n        /* \"#utility.yul\":9897:9900   */\n      dup3\n        /* \"#utility.yul\":9893:9905   */\n      add\n        /* \"#utility.yul\":9886:9905   */\n      swap1\n      pop\n        /* \"#utility.yul\":9545:9911   */\n      swap2\n      swap1\n      pop\n      jump\t// out\n        /* \"#utility.yul\":9917:10336   */\n    tag_94:\n        /* \"#utility.yul\":10083:10087   */\n      0x00\n        /* \"#utility.yul\":10121:10123   */\n      0x20\n        /* \"#utility.yul\":10110:10119   */\n      dup3\n        /* \"#utility.yul\":10106:10124   */\n      add\n        /* \"#utility.yul\":10098:10124   */\n      swap1\n      pop\n        /* \"#utility.yul\":10170:10179   */\n      dup2\n        /* \"#utility.yul\":10164:10168   */\n      dup2\n        /* \"#utility.yul\":10160:10180   */\n      sub\n        /* \"#utility.yul\":10156:10157   */\n      0x00\n        /* \"#utility.yul\":10145:10154   */\n      dup4\n        /* \"#utility.yul\":10141:10158   */\n      add\n        /* \"#utility.yul\":10134:10181   */\n      mstore\n        /* \"#utility.yul\":10198:10329   */\n      tag_267\n        /* \"#utility.yul\":10324:10328   */\n      dup2\n        /* \"#utility.yul\":10198:10329   */\n      tag_153\n      jump\t// in\n    tag_267:\n        /* \"#utility.yul\":10190:10329   */\n      swap1\n      pop\n        /* \"#utility.yul\":9917:10336   */\n      swap2\n      swap1\n      pop\n      jump\t// out\n        /* \"#utility.yul\":10342:10421   */\n    tag_154:\n        /* \"#utility.yul\":10381:10388   */\n      0x00\n        /* \"#utility.yul\":10410:10415   */\n      dup2\n        /* \"#utility.yul\":10399:10415   */\n      swap1\n      pop\n        /* \"#utility.yul\":10342:10421   */\n      swap2\n      swap1\n      pop\n      jump\t// out\n        /* \"#utility.yul\":10427:10584   */\n    tag_155:\n        /* \"#utility.yul\":10532:10577   */\n      tag_270\n        /* \"#utility.yul\":10552:10576   */\n      tag_271\n        /* \"#utility.yul\":10570:10575   */\n      dup3\n        /* \"#utility.yul\":10552:10576   */\n      tag_129\n      jump\t// in\n    tag_271:\n        /* \"#utility.yul\":10532:10577   */\n      tag_154\n      jump\t// in\n    tag_270:\n        /* \"#utility.yul\":10527:10530   */\n      dup3\n        /* \"#utility.yul\":10520:10578   */\n      mstore\n        /* \"#utility.yul\":10427:10584   */\n      pop\n      pop\n      jump\t// out\n        /* \"#utility.yul\":10590:10684   */\n    tag_156:\n        /* \"#utility.yul\":10623:10631   */\n      0x00\n        /* \"#utility.yul\":10671:10676   */\n      dup2\n        /* \"#utility.yul\":10667:10669   */\n      0x60\n        /* \"#utility.yul\":10663:10677   */\n      shl\n        /* \"#utility.yul\":10642:10677   */\n      swap1\n      pop\n        /* \"#utility.yul\":10590:10684   */\n      swap2\n      swap1\n      pop\n      jump\t// out\n        /* \"#utility.yul\":10690:10784   */\n    tag_157:\n        /* \"#utility.yul\":10729:10736   */\n      0x00\n        /* \"#utility.yul\":10758:10778   */\n      tag_274\n        /* \"#utility.yul\":10772:10777   */\n      dup3\n        /* \"#utility.yul\":10758:10778   */\n      tag_156\n      jump\t// in\n    tag_274:\n        /* \"#utility.yul\":10747:10778   */\n      swap1\n      pop\n        /* \"#utility.yul\":10690:10784   */\n      swap2\n      swap1\n      pop\n      jump\t// out\n        /* \"#utility.yul\":10790:10890   */\n    tag_158:\n        /* \"#utility.yul\":10829:10836   */\n      0x00\n        /* \"#utility.yul\":10858:10884   */\n      tag_276\n        /* \"#utility.yul\":10878:10883   */\n      dup3\n        /* \"#utility.yul\":10858:10884   */\n      tag_157\n      jump\t// in\n    tag_276:\n        /* \"#utility.yul\":10847:10884   */\n      swap1\n      pop\n        /* \"#utility.yul\":10790:10890   */\n      swap2\n      swap1\n      pop\n      jump\t// out\n        /* \"#utility.yul\":10896:11053   */\n    tag_159:\n        /* \"#utility.yul\":11001:11046   */\n      tag_278\n        /* \"#utility.yul\":11021:11045   */\n      tag_279\n        /* \"#utility.yul\":11039:11044   */\n      dup3\n        /* \"#utility.yul\":11021:11045   */\n      tag_132\n      jump\t// in\n    tag_279:\n        /* \"#utility.yul\":11001:11046   */\n      tag_158\n      jump\t// in\n    tag_278:\n        /* \"#utility.yul\":10996:10999   */\n      dup3\n        /* \"#utility.yul\":10989:11047   */\n      mstore\n        /* \"#utility.yul\":10896:11053   */\n      pop\n      pop\n      jump\t// out\n        /* \"#utility.yul\":11059:11597   */\n    tag_96:\n        /* \"#utility.yul\":11227:11230   */\n      0x00\n        /* \"#utility.yul\":11242:11317   */\n      tag_281\n        /* \"#utility.yul\":11313:11316   */\n      dup3\n        /* \"#utility.yul\":11304:11310   */\n      dup7\n        /* \"#utility.yul\":11242:11317   */\n      tag_155\n      jump\t// in\n    tag_281:\n        /* \"#utility.yul\":11342:11344   */\n      0x20\n        /* \"#utility.yul\":11337:11340   */\n      dup3\n        /* \"#utility.yul\":11333:11345   */\n      add\n        /* \"#utility.yul\":11326:11345   */\n      swap2\n      pop\n        /* \"#utility.yul\":11355:11430   */\n      tag_282\n        /* \"#utility.yul\":11426:11429   */\n      dup3\n        /* \"#utility.yul\":11417:11423   */\n      dup6\n        /* \"#utility.yul\":11355:11430   */\n      tag_159\n      jump\t// in\n    tag_282:\n        /* \"#utility.yul\":11455:11457   */\n      0x14\n        /* \"#utility.yul\":11450:11453   */\n      dup3\n        /* \"#utility.yul\":11446:11458   */\n      add\n        /* \"#utility.yul\":11439:11458   */\n      swap2\n      pop\n        /* \"#utility.yul\":11468:11543   */\n      tag_283\n        /* \"#utility.yul\":11539:11542   */\n      dup3\n        /* \"#utility.yul\":11530:11536   */\n      dup5\n        /* \"#utility.yul\":11468:11543   */\n      tag_155\n      jump\t// in\n    tag_283:\n        /* \"#utility.yul\":11568:11570   */\n      0x20\n        /* \"#utility.yul\":11563:11566   */\n      dup3\n        /* \"#utility.yul\":11559:11571   */\n      add\n        /* \"#utility.yul\":11552:11571   */\n      swap2\n      pop\n        /* \"#utility.yul\":11588:11591   */\n      dup2\n        /* \"#utility.yul\":11581:11591   */\n      swap1\n      pop\n        /* \"#utility.yul\":11059:11597   */\n      swap5\n      swap4\n      pop\n      pop\n      pop\n      pop\n      jump\t// out\n        /* \"#utility.yul\":11603:11783   */\n    tag_160:\n        /* \"#utility.yul\":11651:11728   */\n      0x4e487b7100000000000000000000000000000000000000000000000000000000\n        /* \"#utility.yul\":11648:11649   */\n      0x00\n        /* \"#utility.yul\":11641:11729   */\n      mstore\n        /* \"#utility.yul\":11748:11752   */\n      0x11\n        /* \"#utility.yul\":11745:11746   */\n      0x04\n        /* \"#utility.yul\":11738:11753   */\n      mstore\n        /* \"#utility.yul\":11772:11776   */\n      0x24\n        /* \"#utility.yul\":11769:11770   */\n      0x00\n        /* \"#utility.yul\":11762:11777   */\n      revert\n        /* \"#utility.yul\":11789:11980   */\n    tag_98:\n        /* \"#utility.yul\":11829:11832   */\n      0x00\n        /* \"#utility.yul\":11848:11868   */\n      tag_286\n        /* \"#utility.yul\":11866:11867   */\n      dup3\n        /* \"#utility.yul\":11848:11868   */\n      tag_129\n      jump\t// in\n    tag_286:\n        /* \"#utility.yul\":11843:11868   */\n      swap2\n      pop\n        /* \"#utility.yul\":11882:11902   */\n      tag_287\n        /* \"#utility.yul\":11900:11901   */\n      dup4\n        /* \"#utility.yul\":11882:11902   */\n      tag_129\n      jump\t// in\n    tag_287:\n        /* \"#utility.yul\":11877:11902   */\n      swap3\n      pop\n        /* \"#utility.yul\":11925:11926   */\n      dup3\n        /* \"#utility.yul\":11922:11923   */\n      dup3\n        /* \"#utility.yul\":11918:11927   */\n      add\n        /* \"#utility.yul\":11911:11927   */\n      swap1\n      pop\n        /* \"#utility.yul\":11946:11949   */\n      dup1\n        /* \"#utility.yul\":11943:11944   */\n      dup3\n        /* \"#utility.yul\":11940:11950   */\n      gt\n        /* \"#utility.yul\":11937:11973   */\n      iszero\n      tag_288\n      jumpi\n        /* \"#utility.yul\":11953:11971   */\n      tag_289\n      tag_160\n      jump\t// in\n    tag_289:\n        /* \"#utility.yul\":11937:11973   */\n    tag_288:\n        /* \"#utility.yul\":11789:11980   */\n      swap3\n      swap2\n      pop\n      pop\n      jump\t// out\n        /* \"#utility.yul\":11986:12104   */\n    tag_161:\n        /* \"#utility.yul\":12073:12097   */\n      tag_291\n        /* \"#utility.yul\":12091:12096   */\n      dup2\n        /* \"#utility.yul\":12073:12097   */\n      tag_126\n      jump\t// in\n    tag_291:\n        /* \"#utility.yul\":12068:12071   */\n      dup3\n        /* \"#utility.yul\":12061:12098   */\n      mstore\n        /* \"#utility.yul\":11986:12104   */\n      pop\n      pop\n      jump\t// out\n        /* \"#utility.yul\":12110:12663   */\n    tag_106:\n        /* \"#utility.yul\":12287:12291   */\n      0x00\n        /* \"#utility.yul\":12325:12328   */\n      0x80\n        /* \"#utility.yul\":12314:12323   */\n      dup3\n        /* \"#utility.yul\":12310:12329   */\n      add\n        /* \"#utility.yul\":12302:12329   */\n      swap1\n      pop\n        /* \"#utility.yul\":12339:12410   */\n      tag_293\n        /* \"#utility.yul\":12407:12408   */\n      0x00\n        /* \"#utility.yul\":12396:12405   */\n      dup4\n        /* \"#utility.yul\":12392:12409   */\n      add\n        /* \"#utility.yul\":12383:12389   */\n      dup8\n        /* \"#utility.yul\":12339:12410   */\n      tag_161\n      jump\t// in\n    tag_293:\n        /* \"#utility.yul\":12420:12492   */\n      tag_294\n        /* \"#utility.yul\":12488:12490   */\n      0x20\n        /* \"#utility.yul\":12477:12486   */\n      dup4\n        /* \"#utility.yul\":12473:12491   */\n      add\n        /* \"#utility.yul\":12464:12470   */\n      dup7\n        /* \"#utility.yul\":12420:12492   */\n      tag_133\n      jump\t// in\n    tag_294:\n        /* \"#utility.yul\":12502:12574   */\n      tag_295\n        /* \"#utility.yul\":12570:12572   */\n      0x40\n        /* \"#utility.yul\":12559:12568   */\n      dup4\n        /* \"#utility.yul\":12555:12573   */\n      add\n        /* \"#utility.yul\":12546:12552   */\n      dup6\n        /* \"#utility.yul\":12502:12574   */\n      tag_130\n      jump\t// in\n    tag_295:\n        /* \"#utility.yul\":12584:12656   */\n      tag_296\n        /* \"#utility.yul\":12652:12654   */\n      0x60\n        /* \"#utility.yul\":12641:12650   */\n      dup4\n        /* \"#utility.yul\":12637:12655   */\n      add\n        /* \"#utility.yul\":12628:12634   */\n      dup5\n        /* \"#utility.yul\":12584:12656   */\n      tag_130\n      jump\t// in\n    tag_296:\n        /* \"#utility.yul\":12110:12663   */\n      swap6\n      swap5\n      pop\n      pop\n      pop\n      pop\n      pop\n      jump\t// out\n        /* \"#utility.yul\":12669:12894   */\n    tag_162:\n        /* \"#utility.yul\":12809:12843   */\n      0x4f776e61626c653a206e6577206f776e657220697320746865207a65726f2061\n        /* \"#utility.yul\":12805:12806   */\n      0x00\n        /* \"#utility.yul\":12797:12803   */\n      dup3\n        /* \"#utility.yul\":12793:12807   */\n      add\n        /* \"#utility.yul\":12786:12844   */\n      mstore\n        /* \"#utility.yul\":12878:12886   */\n      0x6464726573730000000000000000000000000000000000000000000000000000\n        /* \"#utility.yul\":12873:12875   */\n      0x20\n        /* \"#utility.yul\":12865:12871   */\n      dup3\n        /* \"#utility.yul\":12861:12876   */\n      add\n        /* \"#utility.yul\":12854:12887   */\n      mstore\n        /* \"#utility.yul\":12669:12894   */\n      pop\n      jump\t// out\n        /* \"#utility.yul\":12900:13266   */\n    tag_163:\n        /* \"#utility.yul\":13042:13045   */\n      0x00\n        /* \"#utility.yul\":13063:13130   */\n      tag_299\n        /* \"#utility.yul\":13127:13129   */\n      0x26\n        /* \"#utility.yul\":13122:13125   */\n      dup4\n        /* \"#utility.yul\":13063:13130   */\n      tag_146\n      jump\t// in\n    tag_299:\n        /* \"#utility.yul\":13056:13130   */\n      swap2\n      pop\n        /* \"#utility.yul\":13139:13232   */\n      tag_300\n        /* \"#utility.yul\":13228:13231   */\n      dup3\n        /* \"#utility.yul\":13139:13232   */\n      tag_162\n      jump\t// in\n    tag_300:\n        /* \"#utility.yul\":13257:13259   */\n      0x40\n        /* \"#utility.yul\":13252:13255   */\n      dup3\n        /* \"#utility.yul\":13248:13260   */\n      add\n        /* \"#utility.yul\":13241:13260   */\n      swap1\n      pop\n        /* \"#utility.yul\":12900:13266   */\n      swap2\n      swap1\n      pop\n      jump\t// out\n        /* \"#utility.yul\":13272:13691   */\n    tag_112:\n        /* \"#utility.yul\":13438:13442   */\n      0x00\n        /* \"#utility.yul\":13476:13478   */\n      0x20\n        /* \"#utility.yul\":13465:13474   */\n      dup3\n        /* \"#utility.yul\":13461:13479   */\n      add\n        /* \"#utility.yul\":13453:13479   */\n      swap1\n      pop\n        /* \"#utility.yul\":13525:13534   */\n      dup2\n        /* \"#utility.yul\":13519:13523   */\n      dup2\n        /* \"#utility.yul\":13515:13535   */\n      sub\n        /* \"#utility.yul\":13511:13512   */\n      0x00\n        /* \"#utility.yul\":13500:13509   */\n      dup4\n        /* \"#utility.yul\":13496:13513   */\n      add\n        /* \"#utility.yul\":13489:13536   */\n      mstore\n        /* \"#utility.yul\":13553:13684   */\n      tag_302\n        /* \"#utility.yul\":13679:13683   */\n      dup2\n        /* \"#utility.yul\":13553:13684   */\n      tag_163\n      jump\t// in\n    tag_302:\n        /* \"#utility.yul\":13545:13684   */\n      swap1\n      pop\n        /* \"#utility.yul\":13272:13691   */\n      swap2\n      swap1\n      pop\n      jump\t// out\n        /* \"#utility.yul\":13697:13879   */\n    tag_164:\n        /* \"#utility.yul\":13837:13871   */\n      0x4f776e61626c653a2063616c6c6572206973206e6f7420746865206f776e6572\n        /* \"#utility.yul\":13833:13834   */\n      0x00\n        /* \"#utility.yul\":13825:13831   */\n      dup3\n        /* \"#utility.yul\":13821:13835   */\n      add\n        /* \"#utility.yul\":13814:13872   */\n      mstore\n        /* \"#utility.yul\":13697:13879   */\n      pop\n      jump\t// out\n        /* \"#utility.yul\":13885:14251   */\n    tag_165:\n        /* \"#utility.yul\":14027:14030   */\n      0x00\n        /* \"#utility.yul\":14048:14115   */\n      tag_305\n        /* \"#utility.yul\":14112:14114   */\n      0x20\n        /* \"#utility.yul\":14107:14110   */\n      dup4\n        /* \"#utility.yul\":14048:14115   */\n      tag_146\n      jump\t// in\n    tag_305:\n        /* \"#utility.yul\":14041:14115   */\n      swap2\n      pop\n        /* \"#utility.yul\":14124:14217   */\n      tag_306\n        /* \"#utility.yul\":14213:14216   */\n      dup3\n        /* \"#utility.yul\":14124:14217   */\n      tag_164\n      jump\t// in\n    tag_306:\n        /* \"#utility.yul\":14242:14244   */\n      0x20\n        /* \"#utility.yul\":14237:14240   */\n      dup3\n        /* \"#utility.yul\":14233:14245   */\n      add\n        /* \"#utility.yul\":14226:14245   */\n      swap1\n      pop\n        /* \"#utility.yul\":13885:14251   */\n      swap2\n      swap1\n      pop\n      jump\t// out\n        /* \"#utility.yul\":14257:14676   */\n    tag_120:\n        /* \"#utility.yul\":14423:14427   */\n      0x00\n        /* \"#utility.yul\":14461:14463   */\n      0x20\n        /* \"#utility.yul\":14450:14459   */\n      dup3\n        /* \"#utility.yul\":14446:14464   */\n      add\n        /* \"#utility.yul\":14438:14464   */\n      swap1\n      pop\n        /* \"#utility.yul\":14510:14519   */\n      dup2\n        /* \"#utility.yul\":14504:14508   */\n      dup2\n        /* \"#utility.yul\":14500:14520   */\n      sub\n        /* \"#utility.yul\":14496:14497   */\n      0x00\n        /* \"#utility.yul\":14485:14494   */\n      dup4\n        /* \"#utility.yul\":14481:14498   */\n      add\n        /* \"#utility.yul\":14474:14521   */\n      mstore\n        /* \"#utility.yul\":14538:14669   */\n      tag_308\n        /* \"#utility.yul\":14664:14668   */\n      dup2\n        /* \"#utility.yul\":14538:14669   */\n      tag_165\n      jump\t// in\n    tag_308:\n        /* \"#utility.yul\":14530:14669   */\n      swap1\n      pop\n        /* \"#utility.yul\":14257:14676   */\n      swap2\n      swap1\n      pop\n      jump\t// out\n\n    auxdata: 0xa2646970667358221220ac5d46b1aad220b38f1f11e6c10abf2c26213ad0375e46ce96740952435a0b9864736f6c634300081a0033\n}\n",
				"bytecode": {
					"linkReferences": {},
					"object": "608060405234801561000f575f80fd5b506040516114b93803806114b983398181016040528101906100319190610245565b61004d6100426100ec60201b60201c565b6100f360201b60201c565b8460015f6101000a81548173ffffffffffffffffffffffffffffffffffffffff021916908373ffffffffffffffffffffffffffffffffffffffff1602179055508360025f6101000a81548173ffffffffffffffffffffffffffffffffffffffff021916908373ffffffffffffffffffffffffffffffffffffffff16021790555082600381905550816004819055508060058190555050505050506102bc565b5f33905090565b5f805f9054906101000a900473ffffffffffffffffffffffffffffffffffffffff169050815f806101000a81548173ffffffffffffffffffffffffffffffffffffffff021916908373ffffffffffffffffffffffffffffffffffffffff1602179055508173ffffffffffffffffffffffffffffffffffffffff168173ffffffffffffffffffffffffffffffffffffffff167f8be0079c531659141344cd1fd0a4f28419497f9722a3daafe3b4186f6b6457e060405160405180910390a35050565b5f80fd5b5f73ffffffffffffffffffffffffffffffffffffffff82169050919050565b5f6101e1826101b8565b9050919050565b6101f1816101d7565b81146101fb575f80fd5b50565b5f8151905061020c816101e8565b92915050565b5f819050919050565b61022481610212565b811461022e575f80fd5b50565b5f8151905061023f8161021b565b92915050565b5f805f805f60a0868803121561025e5761025d6101b4565b5b5f61026b888289016101fe565b955050602061027c888289016101fe565b945050604061028d88828901610231565b935050606061029e88828901610231565b92505060806102af88828901610231565b9150509295509295909350565b6111f0806102c95f395ff3fe608060405234801561000f575f80fd5b50600436106100b2575f3560e01c80638da5cb5b1161006f5780638da5cb5b146101665780638fee640714610184578063dd467064146101b7578063ea768123146101d3578063f2fde38b146101f1578063f9be04ca1461020d576100b2565b806308a1eee1146100b6578063568b962a146100d2578063715018a6146100f05780637d515a10146100fa5780637e8d094c1461011857806383a811bf14610148575b5f80fd5b6100d060048036038101906100cb9190610af0565b61022b565b005b6100da61045b565b6040516100e79190610b33565b60405180910390f35b6100f8610461565b005b610102610474565b60405161010f9190610b8b565b60405180910390f35b610132600480360381019061012d9190610af0565b610499565b60405161013f9190610c15565b60405180910390f35b610150610536565b60405161015d9190610b33565b60405180910390f35b61016e61053c565b60405161017b9190610b8b565b60405180910390f35b61019e60048036038101906101999190610af0565b610563565b6040516101ae9493929190610c2e565b60405180910390f35b6101d160048036038101906101cc9190610c9b565b6105ae565b005b6101db61088c565b6040516101e89190610b33565b60405180910390f35b61020b60048036038101906102069190610cf0565b610892565b005b610215610914565b6040516102229190610d76565b60405180910390f35b610233610939565b5f60065f8381526020019081526020015f209050428160030154111561028e576040517f08c379a000000000000000000000000000000000000000000000000000000000815260040161028590610de9565b60405180910390fd5b5f73ffffffffffffffffffffffffffffffffffffffff16815f015f9054906101000a900473ffffffffffffffffffffffffffffffffffffffff1673ffffffffffffffffffffffffffffffffffffffff160361031e576040517f08c379a000000000000000000000000000000000000000000000000000000000815260040161031590610e51565b60405180910390fd5b60015f9054906101000a900473ffffffffffffffffffffffffffffffffffffffff1673ffffffffffffffffffffffffffffffffffffffff166323b872dd3060025f9054906101000a900473ffffffffffffffffffffffffffffffffffffffff1684600101546040518463ffffffff1660e01b81526004016103a193929190610e6f565b5f604051808303815f87803b1580156103b8575f80fd5b505af11580156103ca573d5f803e3d5ffd5b5050505060065f8381526020019081526020015f205f8082015f6101000a81549073ffffffffffffffffffffffffffffffffffffffff0219169055600182015f9055600282015f9055600382015f905550507fd83c63197e8e676d80ab0122beba9a9d20f3828839e9a1d6fe81d242e9cd7e6e816001015460405161044f9190610b33565b60405180910390a15050565b60035481565b610469610939565b6104725f6109b7565b565b60025f9054906101000a900473ffffffffffffffffffffffffffffffffffffffff1681565b6104a1610a7f565b60065f8381526020019081526020015f206040518060800160405290815f82015f9054906101000a900473ffffffffffffffffffffffffffffffffffffffff1673ffffffffffffffffffffffffffffffffffffffff1673ffffffffffffffffffffffffffffffffffffffff16815260200160018201548152602001600282015481526020016003820154815250509050919050565b60055481565b5f805f9054906101000a900473ffffffffffffffffffffffffffffffffffffffff16905090565b6006602052805f5260405f205f91509050805f015f9054906101000a900473ffffffffffffffffffffffffffffffffffffffff16908060010154908060020154908060030154905084565b3373ffffffffffffffffffffffffffffffffffffffff1660015f9054906101000a900473ffffffffffffffffffffffffffffffffffffffff1673ffffffffffffffffffffffffffffffffffffffff16636352211e836040518263ffffffff1660e01b815260040161061f9190610b33565b602060405180830381865afa15801561063a573d5f803e3d5ffd5b505050506040513d601f19601f8201168201806040525081019061065e9190610eb8565b73ffffffffffffffffffffffffffffffffffffffff16146106b4576040517f08c379a00000000000000000000000000000000000000000000000000000000081526004016106ab90610f53565b60405180910390fd5b5f8133426040516020016106ca93929190610fd6565b6040516020818303038152906040528051906020012090505f4290505f600554600454600354846106fb919061103f565b610705919061103f565b61070f919061103f565b905060405180608001604052803373ffffffffffffffffffffffffffffffffffffffff1681526020018581526020018381526020018281525060065f8581526020019081526020015f205f820151815f015f6101000a81548173ffffffffffffffffffffffffffffffffffffffff021916908373ffffffffffffffffffffffffffffffffffffffff16021790555060208201518160010155604082015181600201556060820151816003015590505060015f9054906101000a900473ffffffffffffffffffffffffffffffffffffffff1673ffffffffffffffffffffffffffffffffffffffff166323b872dd3330876040518463ffffffff1660e01b815260040161081c93929190610e6f565b5f604051808303815f87803b158015610833575f80fd5b505af1158015610845573d5f803e3d5ffd5b505050507fe42732012f91412364b2848d4c8c3d8dd5508e0a5a0f60d6e1de7843145ea5c08333868460405161087e9493929190611081565b60405180910390a150505050565b60045481565b61089a610939565b5f73ffffffffffffffffffffffffffffffffffffffff168173ffffffffffffffffffffffffffffffffffffffff1603610908576040517f08c379a00000000000000000000000000000000000000000000000000000000081526004016108ff90611134565b60405180910390fd5b610911816109b7565b50565b60015f9054906101000a900473ffffffffffffffffffffffffffffffffffffffff1681565b610941610a78565b73ffffffffffffffffffffffffffffffffffffffff1661095f61053c565b73ffffffffffffffffffffffffffffffffffffffff16146109b5576040517f08c379a00000000000000000000000000000000000000000000000000000000081526004016109ac9061119c565b60405180910390fd5b565b5f805f9054906101000a900473ffffffffffffffffffffffffffffffffffffffff169050815f806101000a81548173ffffffffffffffffffffffffffffffffffffffff021916908373ffffffffffffffffffffffffffffffffffffffff1602179055508173ffffffffffffffffffffffffffffffffffffffff168173ffffffffffffffffffffffffffffffffffffffff167f8be0079c531659141344cd1fd0a4f28419497f9722a3daafe3b4186f6b6457e060405160405180910390a35050565b5f33905090565b60405180608001604052805f73ffffffffffffffffffffffffffffffffffffffff1681526020015f81526020015f81526020015f81525090565b5f80fd5b5f819050919050565b610acf81610abd565b8114610ad9575f80fd5b50565b5f81359050610aea81610ac6565b92915050565b5f60208284031215610b0557610b04610ab9565b5b5f610b1284828501610adc565b91505092915050565b5f819050919050565b610b2d81610b1b565b82525050565b5f602082019050610b465f830184610b24565b92915050565b5f73ffffffffffffffffffffffffffffffffffffffff82169050919050565b5f610b7582610b4c565b9050919050565b610b8581610b6b565b82525050565b5f602082019050610b9e5f830184610b7c565b92915050565b610bad81610b6b565b82525050565b610bbc81610b1b565b82525050565b608082015f820151610bd65f850182610ba4565b506020820151610be96020850182610bb3565b506040820151610bfc6040850182610bb3565b506060820151610c0f6060850182610bb3565b50505050565b5f608082019050610c285f830184610bc2565b92915050565b5f608082019050610c415f830187610b7c565b610c4e6020830186610b24565b610c5b6040830185610b24565b610c686060830184610b24565b95945050505050565b610c7a81610b1b565b8114610c84575f80fd5b50565b5f81359050610c9581610c71565b92915050565b5f60208284031215610cb057610caf610ab9565b5b5f610cbd84828501610c87565b91505092915050565b610ccf81610b6b565b8114610cd9575f80fd5b50565b5f81359050610cea81610cc6565b92915050565b5f60208284031215610d0557610d04610ab9565b5b5f610d1284828501610cdc565b91505092915050565b5f819050919050565b5f610d3e610d39610d3484610b4c565b610d1b565b610b4c565b9050919050565b5f610d4f82610d24565b9050919050565b5f610d6082610d45565b9050919050565b610d7081610d56565b82525050565b5f602082019050610d895f830184610d67565b92915050565b5f82825260208201905092915050565b7f446561646c696e65206e6f7420726561636865640000000000000000000000005f82015250565b5f610dd3601483610d8f565b9150610dde82610d9f565b602082019050919050565b5f6020820190508181035f830152610e0081610dc7565b9050919050565b7f496e76616c6964207374616b65000000000000000000000000000000000000005f82015250565b5f610e3b600d83610d8f565b9150610e4682610e07565b602082019050919050565b5f6020820190508181035f830152610e6881610e2f565b9050919050565b5f606082019050610e825f830186610b7c565b610e8f6020830185610b7c565b610e9c6040830184610b24565b949350505050565b5f81519050610eb281610cc6565b92915050565b5f60208284031215610ecd57610ecc610ab9565b5b5f610eda84828501610ea4565b91505092915050565b7f596f7520617265206e6f7420746865206f776e6572206f662074686973204e465f8201527f5400000000000000000000000000000000000000000000000000000000000000602082015250565b5f610f3d602183610d8f565b9150610f4882610ee3565b604082019050919050565b5f6020820190508181035f830152610f6a81610f31565b9050919050565b5f819050919050565b610f8b610f8682610b1b565b610f71565b82525050565b5f8160601b9050919050565b5f610fa782610f91565b9050919050565b5f610fb882610f9d565b9050919050565b610fd0610fcb82610b6b565b610fae565b82525050565b5f610fe18286610f7a565b602082019150610ff18285610fbf565b6014820191506110018284610f7a565b602082019150819050949350505050565b7f4e487b71000000000000000000000000000000000000000000000000000000005f52601160045260245ffd5b5f61104982610b1b565b915061105483610b1b565b925082820190508082111561106c5761106b611012565b5b92915050565b61107b81610abd565b82525050565b5f6080820190506110945f830187611072565b6110a16020830186610b7c565b6110ae6040830185610b24565b6110bb6060830184610b24565b95945050505050565b7f4f776e61626c653a206e6577206f776e657220697320746865207a65726f20615f8201527f6464726573730000000000000000000000000000000000000000000000000000602082015250565b5f61111e602683610d8f565b9150611129826110c4565b604082019050919050565b5f6020820190508181035f83015261114b81611112565b9050919050565b7f4f776e61626c653a2063616c6c6572206973206e6f7420746865206f776e65725f82015250565b5f611186602083610d8f565b915061119182611152565b602082019050919050565b5f6020820190508181035f8301526111b38161117a565b905091905056fea2646970667358221220ac5d46b1aad220b38f1f11e6c10abf2c26213ad0375e46ce96740952435a0b9864736f6c634300081a0033",
					"opcodes": "PUSH1 0x80 PUSH1 0x40 MSTORE CALLVALUE DUP1 ISZERO PUSH2 0xF JUMPI PUSH0 DUP1 REVERT JUMPDEST POP PUSH1 0x40 MLOAD PUSH2 0x14B9 CODESIZE SUB DUP1 PUSH2 0x14B9 DUP4 CODECOPY DUP2 DUP2 ADD PUSH1 0x40 MSTORE DUP2 ADD SWAP1 PUSH2 0x31 SWAP2 SWAP1 PUSH2 0x245 JUMP JUMPDEST PUSH2 0x4D PUSH2 0x42 PUSH2 0xEC PUSH1 0x20 SHL PUSH1 0x20 SHR JUMP JUMPDEST PUSH2 0xF3 PUSH1 0x20 SHL PUSH1 0x20 SHR JUMP JUMPDEST DUP5 PUSH1 0x1 PUSH0 PUSH2 0x100 EXP DUP2 SLOAD DUP2 PUSH20 0xFFFFFFFFFFFFFFFFFFFFFFFFFFFFFFFFFFFFFFFF MUL NOT AND SWAP1 DUP4 PUSH20 0xFFFFFFFFFFFFFFFFFFFFFFFFFFFFFFFFFFFFFFFF AND MUL OR SWAP1 SSTORE POP DUP4 PUSH1 0x2 PUSH0 PUSH2 0x100 EXP DUP2 SLOAD DUP2 PUSH20 0xFFFFFFFFFFFFFFFFFFFFFFFFFFFFFFFFFFFFFFFF MUL NOT AND SWAP1 DUP4 PUSH20 0xFFFFFFFFFFFFFFFFFFFFFFFFFFFFFFFFFFFFFFFF AND MUL OR SWAP1 SSTORE POP DUP3 PUSH1 0x3 DUP2 SWAP1 SSTORE POP DUP2 PUSH1 0x4 DUP2 SWAP1 SSTORE POP DUP1 PUSH1 0x5 DUP2 SWAP1 SSTORE POP POP POP POP POP POP PUSH2 0x2BC JUMP JUMPDEST PUSH0 CALLER SWAP1 POP SWAP1 JUMP JUMPDEST PUSH0 DUP1 PUSH0 SWAP1 SLOAD SWAP1 PUSH2 0x100 EXP SWAP1 DIV PUSH20 0xFFFFFFFFFFFFFFFFFFFFFFFFFFFFFFFFFFFFFFFF AND SWAP1 POP DUP2 PUSH0 DUP1 PUSH2 0x100 EXP DUP2 SLOAD DUP2 PUSH20 0xFFFFFFFFFFFFFFFFFFFFFFFFFFFFFFFFFFFFFFFF MUL NOT AND SWAP1 DUP4 PUSH20 0xFFFFFFFFFFFFFFFFFFFFFFFFFFFFFFFFFFFFFFFF AND MUL OR SWAP1 SSTORE POP DUP2 PUSH20 0xFFFFFFFFFFFFFFFFFFFFFFFFFFFFFFFFFFFFFFFF AND DUP2 PUSH20 0xFFFFFFFFFFFFFFFFFFFFFFFFFFFFFFFFFFFFFFFF AND PUSH32 0x8BE0079C531659141344CD1FD0A4F28419497F9722A3DAAFE3B4186F6B6457E0 PUSH1 0x40 MLOAD PUSH1 0x40 MLOAD DUP1 SWAP2 SUB SWAP1 LOG3 POP POP JUMP JUMPDEST PUSH0 DUP1 REVERT JUMPDEST PUSH0 PUSH20 0xFFFFFFFFFFFFFFFFFFFFFFFFFFFFFFFFFFFFFFFF DUP3 AND SWAP1 POP SWAP2 SWAP1 POP JUMP JUMPDEST PUSH0 PUSH2 0x1E1 DUP3 PUSH2 0x1B8 JUMP JUMPDEST SWAP1 POP SWAP2 SWAP1 POP JUMP JUMPDEST PUSH2 0x1F1 DUP2 PUSH2 0x1D7 JUMP JUMPDEST DUP2 EQ PUSH2 0x1FB JUMPI PUSH0 DUP1 REVERT JUMPDEST POP JUMP JUMPDEST PUSH0 DUP2 MLOAD SWAP1 POP PUSH2 0x20C DUP2 PUSH2 0x1E8 JUMP JUMPDEST SWAP3 SWAP2 POP POP JUMP JUMPDEST PUSH0 DUP2 SWAP1 POP SWAP2 SWAP1 POP JUMP JUMPDEST PUSH2 0x224 DUP2 PUSH2 0x212 JUMP JUMPDEST DUP2 EQ PUSH2 0x22E JUMPI PUSH0 DUP1 REVERT JUMPDEST POP JUMP JUMPDEST PUSH0 DUP2 MLOAD SWAP1 POP PUSH2 0x23F DUP2 PUSH2 0x21B JUMP JUMPDEST SWAP3 SWAP2 POP POP JUMP JUMPDEST PUSH0 DUP1 PUSH0 DUP1 PUSH0 PUSH1 0xA0 DUP7 DUP9 SUB SLT ISZERO PUSH2 0x25E JUMPI PUSH2 0x25D PUSH2 0x1B4 JUMP JUMPDEST JUMPDEST PUSH0 PUSH2 0x26B DUP9 DUP3 DUP10 ADD PUSH2 0x1FE JUMP JUMPDEST SWAP6 POP POP PUSH1 0x20 PUSH2 0x27C DUP9 DUP3 DUP10 ADD PUSH2 0x1FE JUMP JUMPDEST SWAP5 POP POP PUSH1 0x40 PUSH2 0x28D DUP9 DUP3 DUP10 ADD PUSH2 0x231 JUMP JUMPDEST SWAP4 POP POP PUSH1 0x60 PUSH2 0x29E DUP9 DUP3 DUP10 ADD PUSH2 0x231 JUMP JUMPDEST SWAP3 POP POP PUSH1 0x80 PUSH2 0x2AF DUP9 DUP3 DUP10 ADD PUSH2 0x231 JUMP JUMPDEST SWAP2 POP POP SWAP3 SWAP6 POP SWAP3 SWAP6 SWAP1 SWAP4 POP JUMP JUMPDEST PUSH2 0x11F0 DUP1 PUSH2 0x2C9 PUSH0 CODECOPY PUSH0 RETURN INVALID PUSH1 0x80 PUSH1 0x40 MSTORE CALLVALUE DUP1 ISZERO PUSH2 0xF JUMPI PUSH0 DUP1 REVERT JUMPDEST POP PUSH1 0x4 CALLDATASIZE LT PUSH2 0xB2 JUMPI PUSH0 CALLDATALOAD PUSH1 0xE0 SHR DUP1 PUSH4 0x8DA5CB5B GT PUSH2 0x6F JUMPI DUP1 PUSH4 0x8DA5CB5B EQ PUSH2 0x166 JUMPI DUP1 PUSH4 0x8FEE6407 EQ PUSH2 0x184 JUMPI DUP1 PUSH4 0xDD467064 EQ PUSH2 0x1B7 JUMPI DUP1 PUSH4 0xEA768123 EQ PUSH2 0x1D3 JUMPI DUP1 PUSH4 0xF2FDE38B EQ PUSH2 0x1F1 JUMPI DUP1 PUSH4 0xF9BE04CA EQ PUSH2 0x20D JUMPI PUSH2 0xB2 JUMP JUMPDEST DUP1 PUSH4 0x8A1EEE1 EQ PUSH2 0xB6 JUMPI DUP1 PUSH4 0x568B962A EQ PUSH2 0xD2 JUMPI DUP1 PUSH4 0x715018A6 EQ PUSH2 0xF0 JUMPI DUP1 PUSH4 0x7D515A10 EQ PUSH2 0xFA JUMPI DUP1 PUSH4 0x7E8D094C EQ PUSH2 0x118 JUMPI DUP1 PUSH4 0x83A811BF EQ PUSH2 0x148 JUMPI JUMPDEST PUSH0 DUP1 REVERT JUMPDEST PUSH2 0xD0 PUSH1 0x4 DUP1 CALLDATASIZE SUB DUP2 ADD SWAP1 PUSH2 0xCB SWAP2 SWAP1 PUSH2 0xAF0 JUMP JUMPDEST PUSH2 0x22B JUMP JUMPDEST STOP JUMPDEST PUSH2 0xDA PUSH2 0x45B JUMP JUMPDEST PUSH1 0x40 MLOAD PUSH2 0xE7 SWAP2 SWAP1 PUSH2 0xB33 JUMP JUMPDEST PUSH1 0x40 MLOAD DUP1 SWAP2 SUB SWAP1 RETURN JUMPDEST PUSH2 0xF8 PUSH2 0x461 JUMP JUMPDEST STOP JUMPDEST PUSH2 0x102 PUSH2 0x474 JUMP JUMPDEST PUSH1 0x40 MLOAD PUSH2 0x10F SWAP2 SWAP1 PUSH2 0xB8B JUMP JUMPDEST PUSH1 0x40 MLOAD DUP1 SWAP2 SUB SWAP1 RETURN JUMPDEST PUSH2 0x132 PUSH1 0x4 DUP1 CALLDATASIZE SUB DUP2 ADD SWAP1 PUSH2 0x12D SWAP2 SWAP1 PUSH2 0xAF0 JUMP JUMPDEST PUSH2 0x499 JUMP JUMPDEST PUSH1 0x40 MLOAD PUSH2 0x13F SWAP2 SWAP1 PUSH2 0xC15 JUMP JUMPDEST PUSH1 0x40 MLOAD DUP1 SWAP2 SUB SWAP1 RETURN JUMPDEST PUSH2 0x150 PUSH2 0x536 JUMP JUMPDEST PUSH1 0x40 MLOAD PUSH2 0x15D SWAP2 SWAP1 PUSH2 0xB33 JUMP JUMPDEST PUSH1 0x40 MLOAD DUP1 SWAP2 SUB SWAP1 RETURN JUMPDEST PUSH2 0x16E PUSH2 0x53C JUMP JUMPDEST PUSH1 0x40 MLOAD PUSH2 0x17B SWAP2 SWAP1 PUSH2 0xB8B JUMP JUMPDEST PUSH1 0x40 MLOAD DUP1 SWAP2 SUB SWAP1 RETURN JUMPDEST PUSH2 0x19E PUSH1 0x4 DUP1 CALLDATASIZE SUB DUP2 ADD SWAP1 PUSH2 0x199 SWAP2 SWAP1 PUSH2 0xAF0 JUMP JUMPDEST PUSH2 0x563 JUMP JUMPDEST PUSH1 0x40 MLOAD PUSH2 0x1AE SWAP5 SWAP4 SWAP3 SWAP2 SWAP1 PUSH2 0xC2E JUMP JUMPDEST PUSH1 0x40 MLOAD DUP1 SWAP2 SUB SWAP1 RETURN JUMPDEST PUSH2 0x1D1 PUSH1 0x4 DUP1 CALLDATASIZE SUB DUP2 ADD SWAP1 PUSH2 0x1CC SWAP2 SWAP1 PUSH2 0xC9B JUMP JUMPDEST PUSH2 0x5AE JUMP JUMPDEST STOP JUMPDEST PUSH2 0x1DB PUSH2 0x88C JUMP JUMPDEST PUSH1 0x40 MLOAD PUSH2 0x1E8 SWAP2 SWAP1 PUSH2 0xB33 JUMP JUMPDEST PUSH1 0x40 MLOAD DUP1 SWAP2 SUB SWAP1 RETURN JUMPDEST PUSH2 0x20B PUSH1 0x4 DUP1 CALLDATASIZE SUB DUP2 ADD SWAP1 PUSH2 0x206 SWAP2 SWAP1 PUSH2 0xCF0 JUMP JUMPDEST PUSH2 0x892 JUMP JUMPDEST STOP JUMPDEST PUSH2 0x215 PUSH2 0x914 JUMP JUMPDEST PUSH1 0x40 MLOAD PUSH2 0x222 SWAP2 SWAP1 PUSH2 0xD76 JUMP JUMPDEST PUSH1 0x40 MLOAD DUP1 SWAP2 SUB SWAP1 RETURN JUMPDEST PUSH2 0x233 PUSH2 0x939 JUMP JUMPDEST PUSH0 PUSH1 0x6 PUSH0 DUP4 DUP2 MSTORE PUSH1 0x20 ADD SWAP1 DUP2 MSTORE PUSH1 0x20 ADD PUSH0 KECCAK256 SWAP1 POP TIMESTAMP DUP2 PUSH1 0x3 ADD SLOAD GT ISZERO PUSH2 0x28E JUMPI PUSH1 0x40 MLOAD PUSH32 0x8C379A000000000000000000000000000000000000000000000000000000000 DUP2 MSTORE PUSH1 0x4 ADD PUSH2 0x285 SWAP1 PUSH2 0xDE9 JUMP JUMPDEST PUSH1 0x40 MLOAD DUP1 SWAP2 SUB SWAP1 REVERT JUMPDEST PUSH0 PUSH20 0xFFFFFFFFFFFFFFFFFFFFFFFFFFFFFFFFFFFFFFFF AND DUP2 PUSH0 ADD PUSH0 SWAP1 SLOAD SWAP1 PUSH2 0x100 EXP SWAP1 DIV PUSH20 0xFFFFFFFFFFFFFFFFFFFFFFFFFFFFFFFFFFFFFFFF AND PUSH20 0xFFFFFFFFFFFFFFFFFFFFFFFFFFFFFFFFFFFFFFFF AND SUB PUSH2 0x31E JUMPI PUSH1 0x40 MLOAD PUSH32 0x8C379A000000000000000000000000000000000000000000000000000000000 DUP2 MSTORE PUSH1 0x4 ADD PUSH2 0x315 SWAP1 PUSH2 0xE51 JUMP JUMPDEST PUSH1 0x40 MLOAD DUP1 SWAP2 SUB SWAP1 REVERT JUMPDEST PUSH1 0x1 PUSH0 SWAP1 SLOAD SWAP1 PUSH2 0x100 EXP SWAP1 DIV PUSH20 0xFFFFFFFFFFFFFFFFFFFFFFFFFFFFFFFFFFFFFFFF AND PUSH20 0xFFFFFFFFFFFFFFFFFFFFFFFFFFFFFFFFFFFFFFFF AND PUSH4 0x23B872DD ADDRESS PUSH1 0x2 PUSH0 SWAP1 SLOAD SWAP1 PUSH2 0x100 EXP SWAP1 DIV PUSH20 0xFFFFFFFFFFFFFFFFFFFFFFFFFFFFFFFFFFFFFFFF AND DUP5 PUSH1 0x1 ADD SLOAD PUSH1 0x40 MLOAD DUP5 PUSH4 0xFFFFFFFF AND PUSH1 0xE0 SHL DUP2 MSTORE PUSH1 0x4 ADD PUSH2 0x3A1 SWAP4 SWAP3 SWAP2 SWAP1 PUSH2 0xE6F JUMP JUMPDEST PUSH0 PUSH1 0x40 MLOAD DUP1 DUP4 SUB DUP2 PUSH0 DUP8 DUP1 EXTCODESIZE ISZERO DUP1 ISZERO PUSH2 0x3B8 JUMPI PUSH0 DUP1 REVERT JUMPDEST POP GAS CALL ISZERO DUP1 ISZERO PUSH2 0x3CA JUMPI RETURNDATASIZE PUSH0 DUP1 RETURNDATACOPY RETURNDATASIZE PUSH0 REVERT JUMPDEST POP POP POP POP PUSH1 0x6 PUSH0 DUP4 DUP2 MSTORE PUSH1 0x20 ADD SWAP1 DUP2 MSTORE PUSH1 0x20 ADD PUSH0 KECCAK256 PUSH0 DUP1 DUP3 ADD PUSH0 PUSH2 0x100 EXP DUP2 SLOAD SWAP1 PUSH20 0xFFFFFFFFFFFFFFFFFFFFFFFFFFFFFFFFFFFFFFFF MUL NOT AND SWAP1 SSTORE PUSH1 0x1 DUP3 ADD PUSH0 SWAP1 SSTORE PUSH1 0x2 DUP3 ADD PUSH0 SWAP1 SSTORE PUSH1 0x3 DUP3 ADD PUSH0 SWAP1 SSTORE POP POP PUSH32 0xD83C63197E8E676D80AB0122BEBA9A9D20F3828839E9A1D6FE81D242E9CD7E6E DUP2 PUSH1 0x1 ADD SLOAD PUSH1 0x40 MLOAD PUSH2 0x44F SWAP2 SWAP1 PUSH2 0xB33 JUMP JUMPDEST PUSH1 0x40 MLOAD DUP1 SWAP2 SUB SWAP1 LOG1 POP POP JUMP JUMPDEST PUSH1 0x3 SLOAD DUP2 JUMP JUMPDEST PUSH2 0x469 PUSH2 0x939 JUMP JUMPDEST PUSH2 0x472 PUSH0 PUSH2 0x9B7 JUMP JUMPDEST JUMP JUMPDEST PUSH1 0x2 PUSH0 SWAP1 SLOAD SWAP1 PUSH2 0x100 EXP SWAP1 DIV PUSH20 0xFFFFFFFFFFFFFFFFFFFFFFFFFFFFFFFFFFFFFFFF AND DUP2 JUMP JUMPDEST PUSH2 0x4A1 PUSH2 0xA7F JUMP JUMPDEST PUSH1 0x6 PUSH0 DUP4 DUP2 MSTORE PUSH1 0x20 ADD SWAP1 DUP2 MSTORE PUSH1 0x20 ADD PUSH0 KECCAK256 PUSH1 0x40 MLOAD DUP1 PUSH1 0x80 ADD PUSH1 0x40 MSTORE SWAP1 DUP2 PUSH0 DUP3 ADD PUSH0 SWAP1 SLOAD SWAP1 PUSH2 0x100 EXP SWAP1 DIV PUSH20 0xFFFFFFFFFFFFFFFFFFFFFFFFFFFFFFFFFFFFFFFF AND PUSH20 0xFFFFFFFFFFFFFFFFFFFFFFFFFFFFFFFFFFFFFFFF AND PUSH20 0xFFFFFFFFFFFFFFFFFFFFFFFFFFFFFFFFFFFFFFFF AND DUP2 MSTORE PUSH1 0x20 ADD PUSH1 0x1 DUP3 ADD SLOAD DUP2 MSTORE PUSH1 0x20 ADD PUSH1 0x2 DUP3 ADD SLOAD DUP2 MSTORE PUSH1 0x20 ADD PUSH1 0x3 DUP3 ADD SLOAD DUP2 MSTORE POP POP SWAP1 POP SWAP2 SWAP1 POP JUMP JUMPDEST PUSH1 0x5 SLOAD DUP2 JUMP JUMPDEST PUSH0 DUP1 PUSH0 SWAP1 SLOAD SWAP1 PUSH2 0x100 EXP SWAP1 DIV PUSH20 0xFFFFFFFFFFFFFFFFFFFFFFFFFFFFFFFFFFFFFFFF AND SWAP1 POP SWAP1 JUMP JUMPDEST PUSH1 0x6 PUSH1 0x20 MSTORE DUP1 PUSH0 MSTORE PUSH1 0x40 PUSH0 KECCAK256 PUSH0 SWAP2 POP SWAP1 POP DUP1 PUSH0 ADD PUSH0 SWAP1 SLOAD SWAP1 PUSH2 0x100 EXP SWAP1 DIV PUSH20 0xFFFFFFFFFFFFFFFFFFFFFFFFFFFFFFFFFFFFFFFF AND SWAP1 DUP1 PUSH1 0x1 ADD SLOAD SWAP1 DUP1 PUSH1 0x2 ADD SLOAD SWAP1 DUP1 PUSH1 0x3 ADD SLOAD SWAP1 POP DUP5 JUMP JUMPDEST CALLER PUSH20 0xFFFFFFFFFFFFFFFFFFFFFFFFFFFFFFFFFFFFFFFF AND PUSH1 0x1 PUSH0 SWAP1 SLOAD SWAP1 PUSH2 0x100 EXP SWAP1 DIV PUSH20 0xFFFFFFFFFFFFFFFFFFFFFFFFFFFFFFFFFFFFFFFF AND PUSH20 0xFFFFFFFFFFFFFFFFFFFFFFFFFFFFFFFFFFFFFFFF AND PUSH4 0x6352211E DUP4 PUSH1 0x40 MLOAD DUP3 PUSH4 0xFFFFFFFF AND PUSH1 0xE0 SHL DUP2 MSTORE PUSH1 0x4 ADD PUSH2 0x61F SWAP2 SWAP1 PUSH2 0xB33 JUMP JUMPDEST PUSH1 0x20 PUSH1 0x40 MLOAD DUP1 DUP4 SUB DUP2 DUP7 GAS STATICCALL ISZERO DUP1 ISZERO PUSH2 0x63A JUMPI RETURNDATASIZE PUSH0 DUP1 RETURNDATACOPY RETURNDATASIZE PUSH0 REVERT JUMPDEST POP POP POP POP PUSH1 0x40 MLOAD RETURNDATASIZE PUSH1 0x1F NOT PUSH1 0x1F DUP3 ADD AND DUP3 ADD DUP1 PUSH1 0x40 MSTORE POP DUP2 ADD SWAP1 PUSH2 0x65E SWAP2 SWAP1 PUSH2 0xEB8 JUMP JUMPDEST PUSH20 0xFFFFFFFFFFFFFFFFFFFFFFFFFFFFFFFFFFFFFFFF AND EQ PUSH2 0x6B4 JUMPI PUSH1 0x40 MLOAD PUSH32 0x8C379A000000000000000000000000000000000000000000000000000000000 DUP2 MSTORE PUSH1 0x4 ADD PUSH2 0x6AB SWAP1 PUSH2 0xF53 JUMP JUMPDEST PUSH1 0x40 MLOAD DUP1 SWAP2 SUB SWAP1 REVERT JUMPDEST PUSH0 DUP2 CALLER TIMESTAMP PUSH1 0x40 MLOAD PUSH1 0x20 ADD PUSH2 0x6CA SWAP4 SWAP3 SWAP2 SWAP1 PUSH2 0xFD6 JUMP JUMPDEST PUSH1 0x40 MLOAD PUSH1 0x20 DUP2 DUP4 SUB SUB DUP2 MSTORE SWAP1 PUSH1 0x40 MSTORE DUP1 MLOAD SWAP1 PUSH1 0x20 ADD KECCAK256 SWAP1 POP PUSH0 TIMESTAMP SWAP1 POP PUSH0 PUSH1 0x5 SLOAD PUSH1 0x4 SLOAD PUSH1 0x3 SLOAD DUP5 PUSH2 0x6FB SWAP2 SWAP1 PUSH2 0x103F JUMP JUMPDEST PUSH2 0x705 SWAP2 SWAP1 PUSH2 0x103F JUMP JUMPDEST PUSH2 0x70F SWAP2 SWAP1 PUSH2 0x103F JUMP JUMPDEST SWAP1 POP PUSH1 0x40 MLOAD DUP1 PUSH1 0x80 ADD PUSH1 0x40 MSTORE DUP1 CALLER PUSH20 0xFFFFFFFFFFFFFFFFFFFFFFFFFFFFFFFFFFFFFFFF AND DUP2 MSTORE PUSH1 0x20 ADD DUP6 DUP2 MSTORE PUSH1 0x20 ADD DUP4 DUP2 MSTORE PUSH1 0x20 ADD DUP3 DUP2 MSTORE POP PUSH1 0x6 PUSH0 DUP6 DUP2 MSTORE PUSH1 0x20 ADD SWAP1 DUP2 MSTORE PUSH1 0x20 ADD PUSH0 KECCAK256 PUSH0 DUP3 ADD MLOAD DUP2 PUSH0 ADD PUSH0 PUSH2 0x100 EXP DUP2 SLOAD DUP2 PUSH20 0xFFFFFFFFFFFFFFFFFFFFFFFFFFFFFFFFFFFFFFFF MUL NOT AND SWAP1 DUP4 PUSH20 0xFFFFFFFFFFFFFFFFFFFFFFFFFFFFFFFFFFFFFFFF AND MUL OR SWAP1 SSTORE POP PUSH1 0x20 DUP3 ADD MLOAD DUP2 PUSH1 0x1 ADD SSTORE PUSH1 0x40 DUP3 ADD MLOAD DUP2 PUSH1 0x2 ADD SSTORE PUSH1 0x60 DUP3 ADD MLOAD DUP2 PUSH1 0x3 ADD SSTORE SWAP1 POP POP PUSH1 0x1 PUSH0 SWAP1 SLOAD SWAP1 PUSH2 0x100 EXP SWAP1 DIV PUSH20 0xFFFFFFFFFFFFFFFFFFFFFFFFFFFFFFFFFFFFFFFF AND PUSH20 0xFFFFFFFFFFFFFFFFFFFFFFFFFFFFFFFFFFFFFFFF AND PUSH4 0x23B872DD CALLER ADDRESS DUP8 PUSH1 0x40 MLOAD DUP5 PUSH4 0xFFFFFFFF AND PUSH1 0xE0 SHL DUP2 MSTORE PUSH1 0x4 ADD PUSH2 0x81C SWAP4 SWAP3 SWAP2 SWAP1 PUSH2 0xE6F JUMP JUMPDEST PUSH0 PUSH1 0x40 MLOAD DUP1 DUP4 SUB DUP2 PUSH0 DUP8 DUP1 EXTCODESIZE ISZERO DUP1 ISZERO PUSH2 0x833 JUMPI PUSH0 DUP1 REVERT JUMPDEST POP GAS CALL ISZERO DUP1 ISZERO PUSH2 0x845 JUMPI RETURNDATASIZE PUSH0 DUP1 RETURNDATACOPY RETURNDATASIZE PUSH0 REVERT JUMPDEST POP POP POP POP PUSH32 0xE42732012F91412364B2848D4C8C3D8DD5508E0A5A0F60D6E1DE7843145EA5C0 DUP4 CALLER DUP7 DUP5 PUSH1 0x40 MLOAD PUSH2 0x87E SWAP5 SWAP4 SWAP3 SWAP2 SWAP1 PUSH2 0x1081 JUMP JUMPDEST PUSH1 0x40 MLOAD DUP1 SWAP2 SUB SWAP1 LOG1 POP POP POP POP JUMP JUMPDEST PUSH1 0x4 SLOAD DUP2 JUMP JUMPDEST PUSH2 0x89A PUSH2 0x939 JUMP JUMPDEST PUSH0 PUSH20 0xFFFFFFFFFFFFFFFFFFFFFFFFFFFFFFFFFFFFFFFF AND DUP2 PUSH20 0xFFFFFFFFFFFFFFFFFFFFFFFFFFFFFFFFFFFFFFFF AND SUB PUSH2 0x908 JUMPI PUSH1 0x40 MLOAD PUSH32 0x8C379A000000000000000000000000000000000000000000000000000000000 DUP2 MSTORE PUSH1 0x4 ADD PUSH2 0x8FF SWAP1 PUSH2 0x1134 JUMP JUMPDEST PUSH1 0x40 MLOAD DUP1 SWAP2 SUB SWAP1 REVERT JUMPDEST PUSH2 0x911 DUP2 PUSH2 0x9B7 JUMP JUMPDEST POP JUMP JUMPDEST PUSH1 0x1 PUSH0 SWAP1 SLOAD SWAP1 PUSH2 0x100 EXP SWAP1 DIV PUSH20 0xFFFFFFFFFFFFFFFFFFFFFFFFFFFFFFFFFFFFFFFF AND DUP2 JUMP JUMPDEST PUSH2 0x941 PUSH2 0xA78 JUMP JUMPDEST PUSH20 0xFFFFFFFFFFFFFFFFFFFFFFFFFFFFFFFFFFFFFFFF AND PUSH2 0x95F PUSH2 0x53C JUMP JUMPDEST PUSH20 0xFFFFFFFFFFFFFFFFFFFFFFFFFFFFFFFFFFFFFFFF AND EQ PUSH2 0x9B5 JUMPI PUSH1 0x40 MLOAD PUSH32 0x8C379A000000000000000000000000000000000000000000000000000000000 DUP2 MSTORE PUSH1 0x4 ADD PUSH2 0x9AC SWAP1 PUSH2 0x119C JUMP JUMPDEST PUSH1 0x40 MLOAD DUP1 SWAP2 SUB SWAP1 REVERT JUMPDEST JUMP JUMPDEST PUSH0 DUP1 PUSH0 SWAP1 SLOAD SWAP1 PUSH2 0x100 EXP SWAP1 DIV PUSH20 0xFFFFFFFFFFFFFFFFFFFFFFFFFFFFFFFFFFFFFFFF AND SWAP1 POP DUP2 PUSH0 DUP1 PUSH2 0x100 EXP DUP2 SLOAD DUP2 PUSH20 0xFFFFFFFFFFFFFFFFFFFFFFFFFFFFFFFFFFFFFFFF MUL NOT AND SWAP1 DUP4 PUSH20 0xFFFFFFFFFFFFFFFFFFFFFFFFFFFFFFFFFFFFFFFF AND MUL OR SWAP1 SSTORE POP DUP2 PUSH20 0xFFFFFFFFFFFFFFFFFFFFFFFFFFFFFFFFFFFFFFFF AND DUP2 PUSH20 0xFFFFFFFFFFFFFFFFFFFFFFFFFFFFFFFFFFFFFFFF AND PUSH32 0x8BE0079C531659141344CD1FD0A4F28419497F9722A3DAAFE3B4186F6B6457E0 PUSH1 0x40 MLOAD PUSH1 0x40 MLOAD DUP1 SWAP2 SUB SWAP1 LOG3 POP POP JUMP JUMPDEST PUSH0 CALLER SWAP1 POP SWAP1 JUMP JUMPDEST PUSH1 0x40 MLOAD DUP1 PUSH1 0x80 ADD PUSH1 0x40 MSTORE DUP1 PUSH0 PUSH20 0xFFFFFFFFFFFFFFFFFFFFFFFFFFFFFFFFFFFFFFFF AND DUP2 MSTORE PUSH1 0x20 ADD PUSH0 DUP2 MSTORE PUSH1 0x20 ADD PUSH0 DUP2 MSTORE PUSH1 0x20 ADD PUSH0 DUP2 MSTORE POP SWAP1 JUMP JUMPDEST PUSH0 DUP1 REVERT JUMPDEST PUSH0 DUP2 SWAP1 POP SWAP2 SWAP1 POP JUMP JUMPDEST PUSH2 0xACF DUP2 PUSH2 0xABD JUMP JUMPDEST DUP2 EQ PUSH2 0xAD9 JUMPI PUSH0 DUP1 REVERT JUMPDEST POP JUMP JUMPDEST PUSH0 DUP2 CALLDATALOAD SWAP1 POP PUSH2 0xAEA DUP2 PUSH2 0xAC6 JUMP JUMPDEST SWAP3 SWAP2 POP POP JUMP JUMPDEST PUSH0 PUSH1 0x20 DUP3 DUP5 SUB SLT ISZERO PUSH2 0xB05 JUMPI PUSH2 0xB04 PUSH2 0xAB9 JUMP JUMPDEST JUMPDEST PUSH0 PUSH2 0xB12 DUP5 DUP3 DUP6 ADD PUSH2 0xADC JUMP JUMPDEST SWAP2 POP POP SWAP3 SWAP2 POP POP JUMP JUMPDEST PUSH0 DUP2 SWAP1 POP SWAP2 SWAP1 POP JUMP JUMPDEST PUSH2 0xB2D DUP2 PUSH2 0xB1B JUMP JUMPDEST DUP3 MSTORE POP POP JUMP JUMPDEST PUSH0 PUSH1 0x20 DUP3 ADD SWAP1 POP PUSH2 0xB46 PUSH0 DUP4 ADD DUP5 PUSH2 0xB24 JUMP JUMPDEST SWAP3 SWAP2 POP POP JUMP JUMPDEST PUSH0 PUSH20 0xFFFFFFFFFFFFFFFFFFFFFFFFFFFFFFFFFFFFFFFF DUP3 AND SWAP1 POP SWAP2 SWAP1 POP JUMP JUMPDEST PUSH0 PUSH2 0xB75 DUP3 PUSH2 0xB4C JUMP JUMPDEST SWAP1 POP SWAP2 SWAP1 POP JUMP JUMPDEST PUSH2 0xB85 DUP2 PUSH2 0xB6B JUMP JUMPDEST DUP3 MSTORE POP POP JUMP JUMPDEST PUSH0 PUSH1 0x20 DUP3 ADD SWAP1 POP PUSH2 0xB9E PUSH0 DUP4 ADD DUP5 PUSH2 0xB7C JUMP JUMPDEST SWAP3 SWAP2 POP POP JUMP JUMPDEST PUSH2 0xBAD DUP2 PUSH2 0xB6B JUMP JUMPDEST DUP3 MSTORE POP POP JUMP JUMPDEST PUSH2 0xBBC DUP2 PUSH2 0xB1B JUMP JUMPDEST DUP3 MSTORE POP POP JUMP JUMPDEST PUSH1 0x80 DUP3 ADD PUSH0 DUP3 ADD MLOAD PUSH2 0xBD6 PUSH0 DUP6 ADD DUP3 PUSH2 0xBA4 JUMP JUMPDEST POP PUSH1 0x20 DUP3 ADD MLOAD PUSH2 0xBE9 PUSH1 0x20 DUP6 ADD DUP3 PUSH2 0xBB3 JUMP JUMPDEST POP PUSH1 0x40 DUP3 ADD MLOAD PUSH2 0xBFC PUSH1 0x40 DUP6 ADD DUP3 PUSH2 0xBB3 JUMP JUMPDEST POP PUSH1 0x60 DUP3 ADD MLOAD PUSH2 0xC0F PUSH1 0x60 DUP6 ADD DUP3 PUSH2 0xBB3 JUMP JUMPDEST POP POP POP POP JUMP JUMPDEST PUSH0 PUSH1 0x80 DUP3 ADD SWAP1 POP PUSH2 0xC28 PUSH0 DUP4 ADD DUP5 PUSH2 0xBC2 JUMP JUMPDEST SWAP3 SWAP2 POP POP JUMP JUMPDEST PUSH0 PUSH1 0x80 DUP3 ADD SWAP1 POP PUSH2 0xC41 PUSH0 DUP4 ADD DUP8 PUSH2 0xB7C JUMP JUMPDEST PUSH2 0xC4E PUSH1 0x20 DUP4 ADD DUP7 PUSH2 0xB24 JUMP JUMPDEST PUSH2 0xC5B PUSH1 0x40 DUP4 ADD DUP6 PUSH2 0xB24 JUMP JUMPDEST PUSH2 0xC68 PUSH1 0x60 DUP4 ADD DUP5 PUSH2 0xB24 JUMP JUMPDEST SWAP6 SWAP5 POP POP POP POP POP JUMP JUMPDEST PUSH2 0xC7A DUP2 PUSH2 0xB1B JUMP JUMPDEST DUP2 EQ PUSH2 0xC84 JUMPI PUSH0 DUP1 REVERT JUMPDEST POP JUMP JUMPDEST PUSH0 DUP2 CALLDATALOAD SWAP1 POP PUSH2 0xC95 DUP2 PUSH2 0xC71 JUMP JUMPDEST SWAP3 SWAP2 POP POP JUMP JUMPDEST PUSH0 PUSH1 0x20 DUP3 DUP5 SUB SLT ISZERO PUSH2 0xCB0 JUMPI PUSH2 0xCAF PUSH2 0xAB9 JUMP JUMPDEST JUMPDEST PUSH0 PUSH2 0xCBD DUP5 DUP3 DUP6 ADD PUSH2 0xC87 JUMP JUMPDEST SWAP2 POP POP SWAP3 SWAP2 POP POP JUMP JUMPDEST PUSH2 0xCCF DUP2 PUSH2 0xB6B JUMP JUMPDEST DUP2 EQ PUSH2 0xCD9 JUMPI PUSH0 DUP1 REVERT JUMPDEST POP JUMP JUMPDEST PUSH0 DUP2 CALLDATALOAD SWAP1 POP PUSH2 0xCEA DUP2 PUSH2 0xCC6 JUMP JUMPDEST SWAP3 SWAP2 POP POP JUMP JUMPDEST PUSH0 PUSH1 0x20 DUP3 DUP5 SUB SLT ISZERO PUSH2 0xD05 JUMPI PUSH2 0xD04 PUSH2 0xAB9 JUMP JUMPDEST JUMPDEST PUSH0 PUSH2 0xD12 DUP5 DUP3 DUP6 ADD PUSH2 0xCDC JUMP JUMPDEST SWAP2 POP POP SWAP3 SWAP2 POP POP JUMP JUMPDEST PUSH0 DUP2 SWAP1 POP SWAP2 SWAP1 POP JUMP JUMPDEST PUSH0 PUSH2 0xD3E PUSH2 0xD39 PUSH2 0xD34 DUP5 PUSH2 0xB4C JUMP JUMPDEST PUSH2 0xD1B JUMP JUMPDEST PUSH2 0xB4C JUMP JUMPDEST SWAP1 POP SWAP2 SWAP1 POP JUMP JUMPDEST PUSH0 PUSH2 0xD4F DUP3 PUSH2 0xD24 JUMP JUMPDEST SWAP1 POP SWAP2 SWAP1 POP JUMP JUMPDEST PUSH0 PUSH2 0xD60 DUP3 PUSH2 0xD45 JUMP JUMPDEST SWAP1 POP SWAP2 SWAP1 POP JUMP JUMPDEST PUSH2 0xD70 DUP2 PUSH2 0xD56 JUMP JUMPDEST DUP3 MSTORE POP POP JUMP JUMPDEST PUSH0 PUSH1 0x20 DUP3 ADD SWAP1 POP PUSH2 0xD89 PUSH0 DUP4 ADD DUP5 PUSH2 0xD67 JUMP JUMPDEST SWAP3 SWAP2 POP POP JUMP JUMPDEST PUSH0 DUP3 DUP3 MSTORE PUSH1 0x20 DUP3 ADD SWAP1 POP SWAP3 SWAP2 POP POP JUMP JUMPDEST PUSH32 0x446561646C696E65206E6F742072656163686564000000000000000000000000 PUSH0 DUP3 ADD MSTORE POP JUMP JUMPDEST PUSH0 PUSH2 0xDD3 PUSH1 0x14 DUP4 PUSH2 0xD8F JUMP JUMPDEST SWAP2 POP PUSH2 0xDDE DUP3 PUSH2 0xD9F JUMP JUMPDEST PUSH1 0x20 DUP3 ADD SWAP1 POP SWAP2 SWAP1 POP JUMP JUMPDEST PUSH0 PUSH1 0x20 DUP3 ADD SWAP1 POP DUP2 DUP2 SUB PUSH0 DUP4 ADD MSTORE PUSH2 0xE00 DUP2 PUSH2 0xDC7 JUMP JUMPDEST SWAP1 POP SWAP2 SWAP1 POP JUMP JUMPDEST PUSH32 0x496E76616C6964207374616B6500000000000000000000000000000000000000 PUSH0 DUP3 ADD MSTORE POP JUMP JUMPDEST PUSH0 PUSH2 0xE3B PUSH1 0xD DUP4 PUSH2 0xD8F JUMP JUMPDEST SWAP2 POP PUSH2 0xE46 DUP3 PUSH2 0xE07 JUMP JUMPDEST PUSH1 0x20 DUP3 ADD SWAP1 POP SWAP2 SWAP1 POP JUMP JUMPDEST PUSH0 PUSH1 0x20 DUP3 ADD SWAP1 POP DUP2 DUP2 SUB PUSH0 DUP4 ADD MSTORE PUSH2 0xE68 DUP2 PUSH2 0xE2F JUMP JUMPDEST SWAP1 POP SWAP2 SWAP1 POP JUMP JUMPDEST PUSH0 PUSH1 0x60 DUP3 ADD SWAP1 POP PUSH2 0xE82 PUSH0 DUP4 ADD DUP7 PUSH2 0xB7C JUMP JUMPDEST PUSH2 0xE8F PUSH1 0x20 DUP4 ADD DUP6 PUSH2 0xB7C JUMP JUMPDEST PUSH2 0xE9C PUSH1 0x40 DUP4 ADD DUP5 PUSH2 0xB24 JUMP JUMPDEST SWAP5 SWAP4 POP POP POP POP JUMP JUMPDEST PUSH0 DUP2 MLOAD SWAP1 POP PUSH2 0xEB2 DUP2 PUSH2 0xCC6 JUMP JUMPDEST SWAP3 SWAP2 POP POP JUMP JUMPDEST PUSH0 PUSH1 0x20 DUP3 DUP5 SUB SLT ISZERO PUSH2 0xECD JUMPI PUSH2 0xECC PUSH2 0xAB9 JUMP JUMPDEST JUMPDEST PUSH0 PUSH2 0xEDA DUP5 DUP3 DUP6 ADD PUSH2 0xEA4 JUMP JUMPDEST SWAP2 POP POP SWAP3 SWAP2 POP POP JUMP JUMPDEST PUSH32 0x596F7520617265206E6F7420746865206F776E6572206F662074686973204E46 PUSH0 DUP3 ADD MSTORE PUSH32 0x5400000000000000000000000000000000000000000000000000000000000000 PUSH1 0x20 DUP3 ADD MSTORE POP JUMP JUMPDEST PUSH0 PUSH2 0xF3D PUSH1 0x21 DUP4 PUSH2 0xD8F JUMP JUMPDEST SWAP2 POP PUSH2 0xF48 DUP3 PUSH2 0xEE3 JUMP JUMPDEST PUSH1 0x40 DUP3 ADD SWAP1 POP SWAP2 SWAP1 POP JUMP JUMPDEST PUSH0 PUSH1 0x20 DUP3 ADD SWAP1 POP DUP2 DUP2 SUB PUSH0 DUP4 ADD MSTORE PUSH2 0xF6A DUP2 PUSH2 0xF31 JUMP JUMPDEST SWAP1 POP SWAP2 SWAP1 POP JUMP JUMPDEST PUSH0 DUP2 SWAP1 POP SWAP2 SWAP1 POP JUMP JUMPDEST PUSH2 0xF8B PUSH2 0xF86 DUP3 PUSH2 0xB1B JUMP JUMPDEST PUSH2 0xF71 JUMP JUMPDEST DUP3 MSTORE POP POP JUMP JUMPDEST PUSH0 DUP2 PUSH1 0x60 SHL SWAP1 POP SWAP2 SWAP1 POP JUMP JUMPDEST PUSH0 PUSH2 0xFA7 DUP3 PUSH2 0xF91 JUMP JUMPDEST SWAP1 POP SWAP2 SWAP1 POP JUMP JUMPDEST PUSH0 PUSH2 0xFB8 DUP3 PUSH2 0xF9D JUMP JUMPDEST SWAP1 POP SWAP2 SWAP1 POP JUMP JUMPDEST PUSH2 0xFD0 PUSH2 0xFCB DUP3 PUSH2 0xB6B JUMP JUMPDEST PUSH2 0xFAE JUMP JUMPDEST DUP3 MSTORE POP POP JUMP JUMPDEST PUSH0 PUSH2 0xFE1 DUP3 DUP7 PUSH2 0xF7A JUMP JUMPDEST PUSH1 0x20 DUP3 ADD SWAP2 POP PUSH2 0xFF1 DUP3 DUP6 PUSH2 0xFBF JUMP JUMPDEST PUSH1 0x14 DUP3 ADD SWAP2 POP PUSH2 0x1001 DUP3 DUP5 PUSH2 0xF7A JUMP JUMPDEST PUSH1 0x20 DUP3 ADD SWAP2 POP DUP2 SWAP1 POP SWAP5 SWAP4 POP POP POP POP JUMP JUMPDEST PUSH32 0x4E487B7100000000000000000000000000000000000000000000000000000000 PUSH0 MSTORE PUSH1 0x11 PUSH1 0x4 MSTORE PUSH1 0x24 PUSH0 REVERT JUMPDEST PUSH0 PUSH2 0x1049 DUP3 PUSH2 0xB1B JUMP JUMPDEST SWAP2 POP PUSH2 0x1054 DUP4 PUSH2 0xB1B JUMP JUMPDEST SWAP3 POP DUP3 DUP3 ADD SWAP1 POP DUP1 DUP3 GT ISZERO PUSH2 0x106C JUMPI PUSH2 0x106B PUSH2 0x1012 JUMP JUMPDEST JUMPDEST SWAP3 SWAP2 POP POP JUMP JUMPDEST PUSH2 0x107B DUP2 PUSH2 0xABD JUMP JUMPDEST DUP3 MSTORE POP POP JUMP JUMPDEST PUSH0 PUSH1 0x80 DUP3 ADD SWAP1 POP PUSH2 0x1094 PUSH0 DUP4 ADD DUP8 PUSH2 0x1072 JUMP JUMPDEST PUSH2 0x10A1 PUSH1 0x20 DUP4 ADD DUP7 PUSH2 0xB7C JUMP JUMPDEST PUSH2 0x10AE PUSH1 0x40 DUP4 ADD DUP6 PUSH2 0xB24 JUMP JUMPDEST PUSH2 0x10BB PUSH1 0x60 DUP4 ADD DUP5 PUSH2 0xB24 JUMP JUMPDEST SWAP6 SWAP5 POP POP POP POP POP JUMP JUMPDEST PUSH32 0x4F776E61626C653A206E6577206F776E657220697320746865207A65726F2061 PUSH0 DUP3 ADD MSTORE PUSH32 0x6464726573730000000000000000000000000000000000000000000000000000 PUSH1 0x20 DUP3 ADD MSTORE POP JUMP JUMPDEST PUSH0 PUSH2 0x111E PUSH1 0x26 DUP4 PUSH2 0xD8F JUMP JUMPDEST SWAP2 POP PUSH2 0x1129 DUP3 PUSH2 0x10C4 JUMP JUMPDEST PUSH1 0x40 DUP3 ADD SWAP1 POP SWAP2 SWAP1 POP JUMP JUMPDEST PUSH0 PUSH1 0x20 DUP3 ADD SWAP1 POP DUP2 DUP2 SUB PUSH0 DUP4 ADD MSTORE PUSH2 0x114B DUP2 PUSH2 0x1112 JUMP JUMPDEST SWAP1 POP SWAP2 SWAP1 POP JUMP JUMPDEST PUSH32 0x4F776E61626C653A2063616C6C6572206973206E6F7420746865206F776E6572 PUSH0 DUP3 ADD MSTORE POP JUMP JUMPDEST PUSH0 PUSH2 0x1186 PUSH1 0x20 DUP4 PUSH2 0xD8F JUMP JUMPDEST SWAP2 POP PUSH2 0x1191 DUP3 PUSH2 0x1152 JUMP JUMPDEST PUSH1 0x20 DUP3 ADD SWAP1 POP SWAP2 SWAP1 POP JUMP JUMPDEST PUSH0 PUSH1 0x20 DUP3 ADD SWAP1 POP DUP2 DUP2 SUB PUSH0 DUP4 ADD MSTORE PUSH2 0x11B3 DUP2 PUSH2 0x117A JUMP JUMPDEST SWAP1 POP SWAP2 SWAP1 POP JUMP INVALID LOG2 PUSH5 0x6970667358 0x22 SLT KECCAK256 0xAC TSTORE CHAINID 0xB1 0xAA 0xD2 KECCAK256 0xB3 DUP16 0x1F GT 0xE6 0xC1 EXP 0xBF 0x2C 0x26 0x21 GASPRICE 0xD0 CALLDATACOPY MCOPY CHAINID 0xCE SWAP7 PUSH21 0x952435A0B9864736F6C634300081A003300000000 "
				},
				"gasEstimates": {
					"creation": {
						"codeDepositCost": "918400",
						"executionCost": "infinite",
						"totalCost": "infinite"
					},
					"external": {
						"blackholeAddress()": "2575",
						"burn(bytes32)": "infinite",
						"deltaB()": "2491",
						"deltaD()": "2536",
						"deltaK()": "2448",
						"gameItemContract()": "infinite",
						"getStakeInfo(bytes32)": "infinite",
						"lock(uint256)": "infinite",
						"owner()": "2515",
						"renounceOwnership()": "30435",
						"stakes(bytes32)": "infinite",
						"transferOwnership(address)": "30819"
					}
				},
				"methodIdentifiers": {
					"blackholeAddress()": "7d515a10",
					"burn(bytes32)": "08a1eee1",
					"deltaB()": "ea768123",
					"deltaD()": "83a811bf",
					"deltaK()": "568b962a",
					"gameItemContract()": "f9be04ca",
					"getStakeInfo(bytes32)": "7e8d094c",
					"lock(uint256)": "dd467064",
					"owner()": "8da5cb5b",
					"renounceOwnership()": "715018a6",
					"stakes(bytes32)": "8fee6407",
					"transferOwnership(address)": "f2fde38b"
				}
			},
			"storageLayout": {
				"storage": [
					{
						"astId": 7,
						"contract": "trustless cross-chain/trading pair formation/NFTburn.sol:StakingContract",
						"label": "_owner",
						"offset": 0,
						"slot": "0",
						"type": "t_address"
					},
					{
						"astId": 271,
						"contract": "trustless cross-chain/trading pair formation/NFTburn.sol:StakingContract",
						"label": "gameItemContract",
						"offset": 0,
						"slot": "1",
						"type": "t_contract(IERC721)228"
					},
					{
						"astId": 273,
						"contract": "trustless cross-chain/trading pair formation/NFTburn.sol:StakingContract",
						"label": "blackholeAddress",
						"offset": 0,
						"slot": "2",
						"type": "t_address"
					},
					{
						"astId": 275,
						"contract": "trustless cross-chain/trading pair formation/NFTburn.sol:StakingContract",
						"label": "deltaK",
						"offset": 0,
						"slot": "3",
						"type": "t_uint256"
					},
					{
						"astId": 277,
						"contract": "trustless cross-chain/trading pair formation/NFTburn.sol:StakingContract",
						"label": "deltaB",
						"offset": 0,
						"slot": "4",
						"type": "t_uint256"
					},
					{
						"astId": 279,
						"contract": "trustless cross-chain/trading pair formation/NFTburn.sol:StakingContract",
						"label": "deltaD",
						"offset": 0,
						"slot": "5",
						"type": "t_uint256"
					},
					{
						"astId": 293,
						"contract": "trustless cross-chain/trading pair formation/NFTburn.sol:StakingContract",
						"label": "stakes",
						"offset": 0,
						"slot": "6",
						"type": "t_mapping(t_bytes32,t_struct(StakeInfo)288_storage)"
					}
				],
				"types": {
					"t_address": {
						"encoding": "inplace",
						"label": "address",
						"numberOfBytes": "20"
					},
					"t_bytes32": {
						"encoding": "inplace",
						"label": "bytes32",
						"numberOfBytes": "32"
					},
					"t_contract(IERC721)228": {
						"encoding": "inplace",
						"label": "contract IERC721",
						"numberOfBytes": "20"
					},
					"t_mapping(t_bytes32,t_struct(StakeInfo)288_storage)": {
						"encoding": "mapping",
						"key": "t_bytes32",
						"label": "mapping(bytes32 => struct StakingContract.StakeInfo)",
						"numberOfBytes": "32",
						"value": "t_struct(StakeInfo)288_storage"
					},
					"t_struct(StakeInfo)288_storage": {
						"encoding": "inplace",
						"label": "struct StakingContract.StakeInfo",
						"members": [
							{
								"astId": 281,
								"contract": "trustless cross-chain/trading pair formation/NFTburn.sol:StakingContract",
								"label": "owner",
								"offset": 0,
								"slot": "0",
								"type": "t_address"
							},
							{
								"astId": 283,
								"contract": "trustless cross-chain/trading pair formation/NFTburn.sol:StakingContract",
								"label": "tokenId",
								"offset": 0,
								"slot": "1",
								"type": "t_uint256"
							},
							{
								"astId": 285,
								"contract": "trustless cross-chain/trading pair formation/NFTburn.sol:StakingContract",
								"label": "lockTime",
								"offset": 0,
								"slot": "2",
								"type": "t_uint256"
							},
							{
								"astId": 287,
								"contract": "trustless cross-chain/trading pair formation/NFTburn.sol:StakingContract",
								"label": "deadline",
								"offset": 0,
								"slot": "3",
								"type": "t_uint256"
							}
						],
						"numberOfBytes": "128"
					},
					"t_uint256": {
						"encoding": "inplace",
						"label": "uint256",
						"numberOfBytes": "32"
					}
				}
			},
			"userdoc": {
				"kind": "user",
				"methods": {},
				"version": 1
			}
		}
	}
}