{
	"trustless cross-chain/trading pair formation/Deposit_com.sol": {
		"TokenDeposit": {
			"abi": [
				{
					"inputs": [
						{
							"internalType": "address",
							"name": "_validationContract",
							"type": "address"
						}
					],
					"stateMutability": "nonpayable",
					"type": "constructor"
				},
				{
					"anonymous": false,
					"inputs": [
						{
							"indexed": false,
							"internalType": "bytes32",
							"name": "depositId",
							"type": "bytes32"
						},
						{
							"indexed": true,
							"internalType": "address",
							"name": "depositor",
							"type": "address"
						},
						{
							"indexed": false,
							"internalType": "string",
							"name": "symbol",
							"type": "string"
						},
						{
							"indexed": false,
							"internalType": "uint256",
							"name": "amount",
							"type": "uint256"
						},
						{
							"indexed": false,
							"internalType": "uint256",
							"name": "blockNumber",
							"type": "uint256"
						}
					],
					"name": "DepositLocked",
					"type": "event"
				},
				{
					"anonymous": false,
					"inputs": [
						{
							"indexed": false,
							"internalType": "bytes32",
							"name": "depositId",
							"type": "bytes32"
						}
					],
					"name": "EventOccurred",
					"type": "event"
				},
				{
					"anonymous": false,
					"inputs": [
						{
							"indexed": false,
							"internalType": "bytes32",
							"name": "depositId",
							"type": "bytes32"
						}
					],
					"name": "Withdrawn",
					"type": "event"
				},
				{
					"inputs": [
						{
							"internalType": "bytes32",
							"name": "depositId",
							"type": "bytes32"
						},
						{
							"internalType": "address",
							"name": "token",
							"type": "address"
						},
						{
							"internalType": "address",
							"name": "to",
							"type": "address"
						}
					],
					"name": "confiscateAndWithdraw",
					"outputs": [],
					"stateMutability": "nonpayable",
					"type": "function"
				},
				{
					"inputs": [
						{
							"internalType": "address",
							"name": "token",
							"type": "address"
						},
						{
							"internalType": "string",
							"name": "symbol",
							"type": "string"
						},
						{
							"internalType": "uint256",
							"name": "amount",
							"type": "uint256"
						},
						{
							"internalType": "uint256",
							"name": "blockNumber",
							"type": "uint256"
						},
						{
							"internalType": "bool",
							"name": "triggerEvent",
							"type": "bool"
						}
					],
					"name": "deposit",
					"outputs": [],
					"stateMutability": "nonpayable",
					"type": "function"
				},
				{
					"inputs": [
						{
							"internalType": "bytes32",
							"name": "",
							"type": "bytes32"
						}
					],
					"name": "deposits",
					"outputs": [
						{
							"internalType": "address",
							"name": "depositor",
							"type": "address"
						},
						{
							"internalType": "string",
							"name": "symbol",
							"type": "string"
						},
						{
							"internalType": "uint256",
							"name": "amount",
							"type": "uint256"
						},
						{
							"internalType": "uint256",
							"name": "blockNumber",
							"type": "uint256"
						},
						{
							"internalType": "bool",
							"name": "withdrawn",
							"type": "bool"
						},
						{
							"internalType": "bool",
							"name": "eventOccurred",
							"type": "bool"
						}
					],
					"stateMutability": "view",
					"type": "function"
				},
				{
					"inputs": [
						{
							"internalType": "bytes32",
							"name": "depositId",
							"type": "bytes32"
						}
					],
					"name": "triggerEvent",
					"outputs": [],
					"stateMutability": "nonpayable",
					"type": "function"
				},
				{
					"inputs": [],
					"name": "validationContract",
					"outputs": [
						{
							"internalType": "address",
							"name": "",
							"type": "address"
						}
					],
					"stateMutability": "view",
					"type": "function"
				},
				{
					"inputs": [
						{
							"internalType": "bytes32",
							"name": "depositId",
							"type": "bytes32"
						},
						{
							"internalType": "address",
							"name": "token",
							"type": "address"
						}
					],
					"name": "withdraw",
					"outputs": [],
					"stateMutability": "nonpayable",
					"type": "function"
				}
			],
			"devdoc": {
				"kind": "dev",
				"methods": {},
				"version": 1
			},
			"evm": {
				"assembly": "    /* \"trustless cross-chain/trading pair formation/Deposit_com.sol\":149:2952  contract TokenDeposit {... */\n  mstore(0x40, 0x80)\n    /* \"trustless cross-chain/trading pair formation/Deposit_com.sol\":691:789  constructor(address _validationContract) {... */\n  callvalue\n  dup1\n  iszero\n  tag_1\n  jumpi\n  0x00\n  dup1\n  revert\ntag_1:\n  pop\n  mload(0x40)\n  sub(codesize, bytecodeSize)\n  dup1\n  bytecodeSize\n  dup4\n  codecopy\n  dup2\n  dup2\n  add\n  0x40\n  mstore\n  dup2\n  add\n  swap1\n  tag_2\n  swap2\n  swap1\n  tag_3\n  jump\t// in\ntag_2:\n    /* \"trustless cross-chain/trading pair formation/Deposit_com.sol\":763:782  _validationContract */\n  dup1\n    /* \"trustless cross-chain/trading pair formation/Deposit_com.sol\":742:760  validationContract */\n  0x00\n  dup1\n    /* \"trustless cross-chain/trading pair formation/Deposit_com.sol\":742:782  validationContract = _validationContract */\n  0x0100\n  exp\n  dup2\n  sload\n  dup2\n  0xffffffffffffffffffffffffffffffffffffffff\n  mul\n  not\n  and\n  swap1\n  dup4\n  0xffffffffffffffffffffffffffffffffffffffff\n  and\n  mul\n  or\n  swap1\n  sstore\n  pop\n    /* \"trustless cross-chain/trading pair formation/Deposit_com.sol\":691:789  constructor(address _validationContract) {... */\n  pop\n    /* \"trustless cross-chain/trading pair formation/Deposit_com.sol\":149:2952  contract TokenDeposit {... */\n  jump(tag_6)\n    /* \"#utility.yul\":88:205   */\ntag_8:\n    /* \"#utility.yul\":197:198   */\n  0x00\n    /* \"#utility.yul\":194:195   */\n  dup1\n    /* \"#utility.yul\":187:199   */\n  revert\n    /* \"#utility.yul\":334:460   */\ntag_10:\n    /* \"#utility.yul\":371:378   */\n  0x00\n    /* \"#utility.yul\":411:453   */\n  0xffffffffffffffffffffffffffffffffffffffff\n    /* \"#utility.yul\":404:409   */\n  dup3\n    /* \"#utility.yul\":400:454   */\n  and\n    /* \"#utility.yul\":389:454   */\n  swap1\n  pop\n    /* \"#utility.yul\":334:460   */\n  swap2\n  swap1\n  pop\n  jump\t// out\n    /* \"#utility.yul\":466:562   */\ntag_11:\n    /* \"#utility.yul\":503:510   */\n  0x00\n    /* \"#utility.yul\":532:556   */\n  tag_20\n    /* \"#utility.yul\":550:555   */\n  dup3\n    /* \"#utility.yul\":532:556   */\n  tag_10\n  jump\t// in\ntag_20:\n    /* \"#utility.yul\":521:556   */\n  swap1\n  pop\n    /* \"#utility.yul\":466:562   */\n  swap2\n  swap1\n  pop\n  jump\t// out\n    /* \"#utility.yul\":568:690   */\ntag_12:\n    /* \"#utility.yul\":641:665   */\n  tag_22\n    /* \"#utility.yul\":659:664   */\n  dup2\n    /* \"#utility.yul\":641:665   */\n  tag_11\n  jump\t// in\ntag_22:\n    /* \"#utility.yul\":634:639   */\n  dup2\n    /* \"#utility.yul\":631:666   */\n  eq\n    /* \"#utility.yul\":621:684   */\n  tag_23\n  jumpi\n    /* \"#utility.yul\":680:681   */\n  0x00\n    /* \"#utility.yul\":677:678   */\n  dup1\n    /* \"#utility.yul\":670:682   */\n  revert\n    /* \"#utility.yul\":621:684   */\ntag_23:\n    /* \"#utility.yul\":568:690   */\n  pop\n  jump\t// out\n    /* \"#utility.yul\":696:839   */\ntag_13:\n    /* \"#utility.yul\":753:758   */\n  0x00\n    /* \"#utility.yul\":784:790   */\n  dup2\n    /* \"#utility.yul\":778:791   */\n  mload\n    /* \"#utility.yul\":769:791   */\n  swap1\n  pop\n    /* \"#utility.yul\":800:833   */\n  tag_25\n    /* \"#utility.yul\":827:832   */\n  dup2\n    /* \"#utility.yul\":800:833   */\n  tag_12\n  jump\t// in\ntag_25:\n    /* \"#utility.yul\":696:839   */\n  swap3\n  swap2\n  pop\n  pop\n  jump\t// out\n    /* \"#utility.yul\":845:1196   */\ntag_3:\n    /* \"#utility.yul\":915:921   */\n  0x00\n    /* \"#utility.yul\":964:966   */\n  0x20\n    /* \"#utility.yul\":952:961   */\n  dup3\n    /* \"#utility.yul\":943:950   */\n  dup5\n    /* \"#utility.yul\":939:962   */\n  sub\n    /* \"#utility.yul\":935:967   */\n  slt\n    /* \"#utility.yul\":932:1051   */\n  iszero\n  tag_27\n  jumpi\n    /* \"#utility.yul\":970:1049   */\n  tag_28\n  tag_8\n  jump\t// in\ntag_28:\n    /* \"#utility.yul\":932:1051   */\ntag_27:\n    /* \"#utility.yul\":1090:1091   */\n  0x00\n    /* \"#utility.yul\":1115:1179   */\n  tag_29\n    /* \"#utility.yul\":1171:1178   */\n  dup5\n    /* \"#utility.yul\":1162:1168   */\n  dup3\n    /* \"#utility.yul\":1151:1160   */\n  dup6\n    /* \"#utility.yul\":1147:1169   */\n  add\n    /* \"#utility.yul\":1115:1179   */\n  tag_13\n  jump\t// in\ntag_29:\n    /* \"#utility.yul\":1105:1179   */\n  swap2\n  pop\n    /* \"#utility.yul\":1061:1189   */\n  pop\n    /* \"#utility.yul\":845:1196   */\n  swap3\n  swap2\n  pop\n  pop\n  jump\t// out\n    /* \"trustless cross-chain/trading pair formation/Deposit_com.sol\":149:2952  contract TokenDeposit {... */\ntag_6:\n  dataSize(sub_0)\n  dup1\n  dataOffset(sub_0)\n  0x00\n  codecopy\n  0x00\n  return\nstop\n\nsub_0: assembly {\n        /* \"trustless cross-chain/trading pair formation/Deposit_com.sol\":149:2952  contract TokenDeposit {... */\n      mstore(0x40, 0x80)\n      callvalue\n      dup1\n      iszero\n      tag_1\n      jumpi\n      0x00\n      dup1\n      revert\n    tag_1:\n      pop\n      jumpi(tag_2, lt(calldatasize, 0x04))\n      shr(0xe0, calldataload(0x00))\n      dup1\n      0x1b258d50\n      eq\n      tag_3\n      jumpi\n      dup1\n      0x3d4dff7b\n      eq\n      tag_4\n      jumpi\n      dup1\n      0xab6d1c09\n      eq\n      tag_5\n      jumpi\n      dup1\n      0xb2b3dbce\n      eq\n      tag_6\n      jumpi\n      dup1\n      0xd2b409a1\n      eq\n      tag_7\n      jumpi\n      dup1\n      0xef90dbb6\n      eq\n      tag_8\n      jumpi\n    tag_2:\n      0x00\n      dup1\n      revert\n        /* \"trustless cross-chain/trading pair formation/Deposit_com.sol\":1424:1963  function withdraw(bytes32 depositId, address token) public {... */\n    tag_3:\n      tag_9\n      0x04\n      dup1\n      calldatasize\n      sub\n      dup2\n      add\n      swap1\n      tag_10\n      swap2\n      swap1\n      tag_11\n      jump\t// in\n    tag_10:\n      tag_12\n      jump\t// in\n    tag_9:\n      stop\n        /* \"trustless cross-chain/trading pair formation/Deposit_com.sol\":433:476  mapping(bytes32 => Deposit) public deposits */\n    tag_4:\n      tag_13\n      0x04\n      dup1\n      calldatasize\n      sub\n      dup2\n      add\n      swap1\n      tag_14\n      swap2\n      swap1\n      tag_15\n      jump\t// in\n    tag_14:\n      tag_16\n      jump\t// in\n    tag_13:\n      mload(0x40)\n      tag_17\n      swap7\n      swap6\n      swap5\n      swap4\n      swap3\n      swap2\n      swap1\n      tag_18\n      jump\t// in\n    tag_17:\n      mload(0x40)\n      dup1\n      swap2\n      sub\n      swap1\n      return\n        /* \"trustless cross-chain/trading pair formation/Deposit_com.sol\":1969:2065  function triggerEvent(bytes32 depositId) public {... */\n    tag_5:\n      tag_19\n      0x04\n      dup1\n      calldatasize\n      sub\n      dup2\n      add\n      swap1\n      tag_20\n      swap2\n      swap1\n      tag_15\n      jump\t// in\n    tag_20:\n      tag_21\n      jump\t// in\n    tag_19:\n      stop\n        /* \"trustless cross-chain/trading pair formation/Deposit_com.sol\":2525:2950  function confiscateAndWithdraw(bytes32 depositId, address token, address to) external {... */\n    tag_6:\n      tag_22\n      0x04\n      dup1\n      calldatasize\n      sub\n      dup2\n      add\n      swap1\n      tag_23\n      swap2\n      swap1\n      tag_24\n      jump\t// in\n    tag_23:\n      tag_25\n      jump\t// in\n    tag_22:\n      stop\n        /* \"trustless cross-chain/trading pair formation/Deposit_com.sol\":210:243  address public validationContract */\n    tag_7:\n      tag_26\n      tag_27\n      jump\t// in\n    tag_26:\n      mload(0x40)\n      tag_28\n      swap2\n      swap1\n      tag_29\n      jump\t// in\n    tag_28:\n      mload(0x40)\n      dup1\n      swap2\n      sub\n      swap1\n      return\n        /* \"trustless cross-chain/trading pair formation/Deposit_com.sol\":795:1418  function deposit(address token, string memory symbol, uint256 amount, uint256 blockNumber, bool triggerEvent) public {... */\n    tag_8:\n      tag_30\n      0x04\n      dup1\n      calldatasize\n      sub\n      dup2\n      add\n      swap1\n      tag_31\n      swap2\n      swap1\n      tag_32\n      jump\t// in\n    tag_31:\n      tag_33\n      jump\t// in\n    tag_30:\n      stop\n        /* \"trustless cross-chain/trading pair formation/Deposit_com.sol\":1424:1963  function withdraw(bytes32 depositId, address token) public {... */\n    tag_12:\n        /* \"trustless cross-chain/trading pair formation/Deposit_com.sol\":1493:1516  Deposit storage deposit */\n      0x00\n        /* \"trustless cross-chain/trading pair formation/Deposit_com.sol\":1519:1527  deposits */\n      0x01\n        /* \"trustless cross-chain/trading pair formation/Deposit_com.sol\":1519:1538  deposits[depositId] */\n      0x00\n        /* \"trustless cross-chain/trading pair formation/Deposit_com.sol\":1528:1537  depositId */\n      dup5\n        /* \"trustless cross-chain/trading pair formation/Deposit_com.sol\":1519:1538  deposits[depositId] */\n      dup2\n      mstore\n      0x20\n      add\n      swap1\n      dup2\n      mstore\n      0x20\n      add\n      0x00\n      keccak256\n        /* \"trustless cross-chain/trading pair formation/Deposit_com.sol\":1493:1538  Deposit storage deposit = deposits[depositId] */\n      swap1\n      pop\n        /* \"trustless cross-chain/trading pair formation/Deposit_com.sol\":1558:1565  deposit */\n      dup1\n        /* \"trustless cross-chain/trading pair formation/Deposit_com.sol\":1558:1575  deposit.withdrawn */\n      0x04\n      add\n      0x00\n      swap1\n      sload\n      swap1\n      0x0100\n      exp\n      swap1\n      div\n      0xff\n      and\n        /* \"trustless cross-chain/trading pair formation/Deposit_com.sol\":1557:1575  !deposit.withdrawn */\n      iszero\n        /* \"trustless cross-chain/trading pair formation/Deposit_com.sol\":1549:1606  require(!deposit.withdrawn, \"Deposit already withdrawn.\") */\n      tag_35\n      jumpi\n      mload(0x40)\n      0x08c379a000000000000000000000000000000000000000000000000000000000\n      dup2\n      mstore\n      0x04\n      add\n      tag_36\n      swap1\n      tag_37\n      jump\t// in\n    tag_36:\n      mload(0x40)\n      dup1\n      swap2\n      sub\n      swap1\n      revert\n    tag_35:\n        /* \"trustless cross-chain/trading pair formation/Deposit_com.sol\":1645:1655  msg.sender */\n      caller\n        /* \"trustless cross-chain/trading pair formation/Deposit_com.sol\":1624:1655  deposit.depositor == msg.sender */\n      0xffffffffffffffffffffffffffffffffffffffff\n      and\n        /* \"trustless cross-chain/trading pair formation/Deposit_com.sol\":1624:1631  deposit */\n      dup2\n        /* \"trustless cross-chain/trading pair formation/Deposit_com.sol\":1624:1641  deposit.depositor */\n      0x00\n      add\n      0x00\n      swap1\n      sload\n      swap1\n      0x0100\n      exp\n      swap1\n      div\n      0xffffffffffffffffffffffffffffffffffffffff\n      and\n        /* \"trustless cross-chain/trading pair formation/Deposit_com.sol\":1624:1655  deposit.depositor == msg.sender */\n      0xffffffffffffffffffffffffffffffffffffffff\n      and\n      eq\n        /* \"trustless cross-chain/trading pair formation/Deposit_com.sol\":1616:1704  require(deposit.depositor == msg.sender, \"Only the depositor can withdraw the deposit.\") */\n      tag_38\n      jumpi\n      mload(0x40)\n      0x08c379a000000000000000000000000000000000000000000000000000000000\n      dup2\n      mstore\n      0x04\n      add\n      tag_39\n      swap1\n      tag_40\n      jump\t// in\n    tag_39:\n      mload(0x40)\n      dup1\n      swap2\n      sub\n      swap1\n      revert\n    tag_38:\n        /* \"trustless cross-chain/trading pair formation/Deposit_com.sol\":1722:1729  deposit */\n      dup1\n        /* \"trustless cross-chain/trading pair formation/Deposit_com.sol\":1722:1743  deposit.eventOccurred */\n      0x04\n      add\n      0x01\n      swap1\n      sload\n      swap1\n      0x0100\n      exp\n      swap1\n      div\n      0xff\n      and\n        /* \"trustless cross-chain/trading pair formation/Deposit_com.sol\":1722:1782  deposit.eventOccurred || block.number >= deposit.blockNumber */\n      dup1\n      tag_41\n      jumpi\n      pop\n        /* \"trustless cross-chain/trading pair formation/Deposit_com.sol\":1763:1770  deposit */\n      dup1\n        /* \"trustless cross-chain/trading pair formation/Deposit_com.sol\":1763:1782  deposit.blockNumber */\n      0x03\n      add\n      sload\n        /* \"trustless cross-chain/trading pair formation/Deposit_com.sol\":1747:1759  block.number */\n      number\n        /* \"trustless cross-chain/trading pair formation/Deposit_com.sol\":1747:1782  block.number >= deposit.blockNumber */\n      lt\n      iszero\n        /* \"trustless cross-chain/trading pair formation/Deposit_com.sol\":1722:1782  deposit.eventOccurred || block.number >= deposit.blockNumber */\n    tag_41:\n        /* \"trustless cross-chain/trading pair formation/Deposit_com.sol\":1714:1821  require(deposit.eventOccurred || block.number >= deposit.blockNumber, \"Conditions for withdrawal not met.\") */\n      tag_42\n      jumpi\n      mload(0x40)\n      0x08c379a000000000000000000000000000000000000000000000000000000000\n      dup2\n      mstore\n      0x04\n      add\n      tag_43\n      swap1\n      tag_44\n      jump\t// in\n    tag_43:\n      mload(0x40)\n      dup1\n      swap2\n      sub\n      swap1\n      revert\n    tag_42:\n        /* \"trustless cross-chain/trading pair formation/Deposit_com.sol\":1852:1856  true */\n      0x01\n        /* \"trustless cross-chain/trading pair formation/Deposit_com.sol\":1832:1839  deposit */\n      dup2\n        /* \"trustless cross-chain/trading pair formation/Deposit_com.sol\":1832:1849  deposit.withdrawn */\n      0x04\n      add\n      0x00\n        /* \"trustless cross-chain/trading pair formation/Deposit_com.sol\":1832:1856  deposit.withdrawn = true */\n      0x0100\n      exp\n      dup2\n      sload\n      dup2\n      0xff\n      mul\n      not\n      and\n      swap1\n      dup4\n      iszero\n      iszero\n      mul\n      or\n      swap1\n      sstore\n      pop\n        /* \"trustless cross-chain/trading pair formation/Deposit_com.sol\":1866:1920  IERC20(token).safeTransfer(msg.sender, deposit.amount) */\n      tag_45\n        /* \"trustless cross-chain/trading pair formation/Deposit_com.sol\":1893:1903  msg.sender */\n      caller\n        /* \"trustless cross-chain/trading pair formation/Deposit_com.sol\":1905:1912  deposit */\n      dup3\n        /* \"trustless cross-chain/trading pair formation/Deposit_com.sol\":1905:1919  deposit.amount */\n      0x02\n      add\n      sload\n        /* \"trustless cross-chain/trading pair formation/Deposit_com.sol\":1873:1878  token */\n      dup5\n        /* \"trustless cross-chain/trading pair formation/Deposit_com.sol\":1866:1892  IERC20(token).safeTransfer */\n      0xffffffffffffffffffffffffffffffffffffffff\n      and\n      tag_46\n      swap1\n        /* \"trustless cross-chain/trading pair formation/Deposit_com.sol\":1866:1920  IERC20(token).safeTransfer(msg.sender, deposit.amount) */\n      swap3\n      swap2\n      swap1\n      0xffffffff\n      and\n      jump\t// in\n    tag_45:\n        /* \"trustless cross-chain/trading pair formation/Deposit_com.sol\":1936:1956  Withdrawn(depositId) */\n      0x44654674e66e9e53d34afdf3e9513fb94b4c8b946e980d6958ef4e6a37a153e3\n        /* \"trustless cross-chain/trading pair formation/Deposit_com.sol\":1946:1955  depositId */\n      dup4\n        /* \"trustless cross-chain/trading pair formation/Deposit_com.sol\":1936:1956  Withdrawn(depositId) */\n      mload(0x40)\n      tag_47\n      swap2\n      swap1\n      tag_48\n      jump\t// in\n    tag_47:\n      mload(0x40)\n      dup1\n      swap2\n      sub\n      swap1\n      log1\n        /* \"trustless cross-chain/trading pair formation/Deposit_com.sol\":1483:1963  {... */\n      pop\n        /* \"trustless cross-chain/trading pair formation/Deposit_com.sol\":1424:1963  function withdraw(bytes32 depositId, address token) public {... */\n      pop\n      pop\n      jump\t// out\n        /* \"trustless cross-chain/trading pair formation/Deposit_com.sol\":433:476  mapping(bytes32 => Deposit) public deposits */\n    tag_16:\n      mstore(0x20, 0x01)\n      dup1\n      0x00\n      mstore\n      keccak256(0x00, 0x40)\n      0x00\n      swap2\n      pop\n      swap1\n      pop\n      dup1\n      0x00\n      add\n      0x00\n      swap1\n      sload\n      swap1\n      0x0100\n      exp\n      swap1\n      div\n      0xffffffffffffffffffffffffffffffffffffffff\n      and\n      swap1\n      dup1\n      0x01\n      add\n      dup1\n      sload\n      tag_49\n      swap1\n      tag_50\n      jump\t// in\n    tag_49:\n      dup1\n      0x1f\n      add\n      0x20\n      dup1\n      swap2\n      div\n      mul\n      0x20\n      add\n      mload(0x40)\n      swap1\n      dup2\n      add\n      0x40\n      mstore\n      dup1\n      swap3\n      swap2\n      swap1\n      dup2\n      dup2\n      mstore\n      0x20\n      add\n      dup3\n      dup1\n      sload\n      tag_51\n      swap1\n      tag_50\n      jump\t// in\n    tag_51:\n      dup1\n      iszero\n      tag_52\n      jumpi\n      dup1\n      0x1f\n      lt\n      tag_53\n      jumpi\n      0x0100\n      dup1\n      dup4\n      sload\n      div\n      mul\n      dup4\n      mstore\n      swap2\n      0x20\n      add\n      swap2\n      jump(tag_52)\n    tag_53:\n      dup3\n      add\n      swap2\n      swap1\n      0x00\n      mstore\n      keccak256(0x00, 0x20)\n      swap1\n    tag_54:\n      dup2\n      sload\n      dup2\n      mstore\n      swap1\n      0x01\n      add\n      swap1\n      0x20\n      add\n      dup1\n      dup4\n      gt\n      tag_54\n      jumpi\n      dup3\n      swap1\n      sub\n      0x1f\n      and\n      dup3\n      add\n      swap2\n    tag_52:\n      pop\n      pop\n      pop\n      pop\n      pop\n      swap1\n      dup1\n      0x02\n      add\n      sload\n      swap1\n      dup1\n      0x03\n      add\n      sload\n      swap1\n      dup1\n      0x04\n      add\n      0x00\n      swap1\n      sload\n      swap1\n      0x0100\n      exp\n      swap1\n      div\n      0xff\n      and\n      swap1\n      dup1\n      0x04\n      add\n      0x01\n      swap1\n      sload\n      swap1\n      0x0100\n      exp\n      swap1\n      div\n      0xff\n      and\n      swap1\n      pop\n      dup7\n      jump\t// out\n        /* \"trustless cross-chain/trading pair formation/Deposit_com.sol\":1969:2065  function triggerEvent(bytes32 depositId) public {... */\n    tag_21:\n        /* \"trustless cross-chain/trading pair formation/Deposit_com.sol\":2027:2058  triggerEventInternal(depositId) */\n      tag_56\n        /* \"trustless cross-chain/trading pair formation/Deposit_com.sol\":2048:2057  depositId */\n      dup2\n        /* \"trustless cross-chain/trading pair formation/Deposit_com.sol\":2027:2047  triggerEventInternal */\n      tag_57\n        /* \"trustless cross-chain/trading pair formation/Deposit_com.sol\":2027:2058  triggerEventInternal(depositId) */\n      jump\t// in\n    tag_56:\n        /* \"trustless cross-chain/trading pair formation/Deposit_com.sol\":1969:2065  function triggerEvent(bytes32 depositId) public {... */\n      pop\n      jump\t// out\n        /* \"trustless cross-chain/trading pair formation/Deposit_com.sol\":2525:2950  function confiscateAndWithdraw(bytes32 depositId, address token, address to) external {... */\n    tag_25:\n        /* \"trustless cross-chain/trading pair formation/Deposit_com.sol\":2643:2661  validationContract */\n      0x00\n      dup1\n      sload\n      swap1\n      0x0100\n      exp\n      swap1\n      div\n      0xffffffffffffffffffffffffffffffffffffffff\n      and\n        /* \"trustless cross-chain/trading pair formation/Deposit_com.sol\":2629:2661  msg.sender == validationContract */\n      0xffffffffffffffffffffffffffffffffffffffff\n      and\n        /* \"trustless cross-chain/trading pair formation/Deposit_com.sol\":2629:2639  msg.sender */\n      caller\n        /* \"trustless cross-chain/trading pair formation/Deposit_com.sol\":2629:2661  msg.sender == validationContract */\n      0xffffffffffffffffffffffffffffffffffffffff\n      and\n      eq\n        /* \"trustless cross-chain/trading pair formation/Deposit_com.sol\":2621:2705  require(msg.sender == validationContract, \"Only validation contract can confiscate\") */\n      tag_59\n      jumpi\n      mload(0x40)\n      0x08c379a000000000000000000000000000000000000000000000000000000000\n      dup2\n      mstore\n      0x04\n      add\n      tag_60\n      swap1\n      tag_61\n      jump\t// in\n    tag_60:\n      mload(0x40)\n      dup1\n      swap2\n      sub\n      swap1\n      revert\n    tag_59:\n        /* \"trustless cross-chain/trading pair formation/Deposit_com.sol\":2716:2739  Deposit storage deposit */\n      0x00\n        /* \"trustless cross-chain/trading pair formation/Deposit_com.sol\":2742:2750  deposits */\n      0x01\n        /* \"trustless cross-chain/trading pair formation/Deposit_com.sol\":2742:2761  deposits[depositId] */\n      0x00\n        /* \"trustless cross-chain/trading pair formation/Deposit_com.sol\":2751:2760  depositId */\n      dup6\n        /* \"trustless cross-chain/trading pair formation/Deposit_com.sol\":2742:2761  deposits[depositId] */\n      dup2\n      mstore\n      0x20\n      add\n      swap1\n      dup2\n      mstore\n      0x20\n      add\n      0x00\n      keccak256\n        /* \"trustless cross-chain/trading pair formation/Deposit_com.sol\":2716:2761  Deposit storage deposit = deposits[depositId] */\n      swap1\n      pop\n        /* \"trustless cross-chain/trading pair formation/Deposit_com.sol\":2771:2785  uint256 amount */\n      0x00\n        /* \"trustless cross-chain/trading pair formation/Deposit_com.sol\":2788:2795  deposit */\n      dup2\n        /* \"trustless cross-chain/trading pair formation/Deposit_com.sol\":2788:2802  deposit.amount */\n      0x02\n      add\n      sload\n        /* \"trustless cross-chain/trading pair formation/Deposit_com.sol\":2771:2802  uint256 amount = deposit.amount */\n      swap1\n      pop\n        /* \"trustless cross-chain/trading pair formation/Deposit_com.sol\":2830:2831  0 */\n      0x00\n        /* \"trustless cross-chain/trading pair formation/Deposit_com.sol\":2821:2827  amount */\n      dup2\n        /* \"trustless cross-chain/trading pair formation/Deposit_com.sol\":2821:2831  amount > 0 */\n      gt\n        /* \"trustless cross-chain/trading pair formation/Deposit_com.sol\":2813:2858  require(amount > 0, \"No funds to confiscate\") */\n      tag_62\n      jumpi\n      mload(0x40)\n      0x08c379a000000000000000000000000000000000000000000000000000000000\n      dup2\n      mstore\n      0x04\n      add\n      tag_63\n      swap1\n      tag_64\n      jump\t// in\n    tag_63:\n      mload(0x40)\n      dup1\n      swap2\n      sub\n      swap1\n      revert\n    tag_62:\n        /* \"trustless cross-chain/trading pair formation/Deposit_com.sol\":2894:2895  0 */\n      0x00\n        /* \"trustless cross-chain/trading pair formation/Deposit_com.sol\":2877:2884  deposit */\n      dup3\n        /* \"trustless cross-chain/trading pair formation/Deposit_com.sol\":2877:2891  deposit.amount */\n      0x02\n      add\n        /* \"trustless cross-chain/trading pair formation/Deposit_com.sol\":2877:2895  deposit.amount = 0 */\n      dup2\n      swap1\n      sstore\n      pop\n        /* \"trustless cross-chain/trading pair formation/Deposit_com.sol\":2905:2943  IERC20(token).safeTransfer(to, amount) */\n      tag_65\n        /* \"trustless cross-chain/trading pair formation/Deposit_com.sol\":2932:2934  to */\n      dup4\n        /* \"trustless cross-chain/trading pair formation/Deposit_com.sol\":2936:2942  amount */\n      dup3\n        /* \"trustless cross-chain/trading pair formation/Deposit_com.sol\":2912:2917  token */\n      dup7\n        /* \"trustless cross-chain/trading pair formation/Deposit_com.sol\":2905:2931  IERC20(token).safeTransfer */\n      0xffffffffffffffffffffffffffffffffffffffff\n      and\n      tag_46\n      swap1\n        /* \"trustless cross-chain/trading pair formation/Deposit_com.sol\":2905:2943  IERC20(token).safeTransfer(to, amount) */\n      swap3\n      swap2\n      swap1\n      0xffffffff\n      and\n      jump\t// in\n    tag_65:\n        /* \"trustless cross-chain/trading pair formation/Deposit_com.sol\":2611:2950  {... */\n      pop\n      pop\n        /* \"trustless cross-chain/trading pair formation/Deposit_com.sol\":2525:2950  function confiscateAndWithdraw(bytes32 depositId, address token, address to) external {... */\n      pop\n      pop\n      pop\n      jump\t// out\n        /* \"trustless cross-chain/trading pair formation/Deposit_com.sol\":210:243  address public validationContract */\n    tag_27:\n      0x00\n      dup1\n      sload\n      swap1\n      0x0100\n      exp\n      swap1\n      div\n      0xffffffffffffffffffffffffffffffffffffffff\n      and\n      dup2\n      jump\t// out\n        /* \"trustless cross-chain/trading pair formation/Deposit_com.sol\":795:1418  function deposit(address token, string memory symbol, uint256 amount, uint256 blockNumber, bool triggerEvent) public {... */\n    tag_33:\n        /* \"trustless cross-chain/trading pair formation/Deposit_com.sol\":939:940  0 */\n      0x00\n        /* \"trustless cross-chain/trading pair formation/Deposit_com.sol\":930:936  amount */\n      dup4\n        /* \"trustless cross-chain/trading pair formation/Deposit_com.sol\":930:940  amount > 0 */\n      gt\n        /* \"trustless cross-chain/trading pair formation/Deposit_com.sol\":922:978  require(amount > 0, \"Amount must be greater than zero.\") */\n      tag_67\n      jumpi\n      mload(0x40)\n      0x08c379a000000000000000000000000000000000000000000000000000000000\n      dup2\n      mstore\n      0x04\n      add\n      tag_68\n      swap1\n      tag_69\n      jump\t// in\n    tag_68:\n      mload(0x40)\n      dup1\n      swap2\n      sub\n      swap1\n      revert\n    tag_67:\n        /* \"trustless cross-chain/trading pair formation/Deposit_com.sol\":988:1053  IERC20(token).safeTransferFrom(msg.sender, address(this), amount) */\n      tag_70\n        /* \"trustless cross-chain/trading pair formation/Deposit_com.sol\":1019:1029  msg.sender */\n      caller\n        /* \"trustless cross-chain/trading pair formation/Deposit_com.sol\":1039:1043  this */\n      address\n        /* \"trustless cross-chain/trading pair formation/Deposit_com.sol\":1046:1052  amount */\n      dup6\n        /* \"trustless cross-chain/trading pair formation/Deposit_com.sol\":995:1000  token */\n      dup9\n        /* \"trustless cross-chain/trading pair formation/Deposit_com.sol\":988:1018  IERC20(token).safeTransferFrom */\n      0xffffffffffffffffffffffffffffffffffffffff\n      and\n      tag_71\n      swap1\n        /* \"trustless cross-chain/trading pair formation/Deposit_com.sol\":988:1053  IERC20(token).safeTransferFrom(msg.sender, address(this), amount) */\n      swap4\n      swap3\n      swap2\n      swap1\n      0xffffffff\n      and\n      jump\t// in\n    tag_70:\n        /* \"trustless cross-chain/trading pair formation/Deposit_com.sol\":1064:1081  bytes32 depositId */\n      0x00\n        /* \"trustless cross-chain/trading pair formation/Deposit_com.sol\":1111:1121  msg.sender */\n      caller\n        /* \"trustless cross-chain/trading pair formation/Deposit_com.sol\":1123:1129  symbol */\n      dup6\n        /* \"trustless cross-chain/trading pair formation/Deposit_com.sol\":1131:1137  amount */\n      dup6\n        /* \"trustless cross-chain/trading pair formation/Deposit_com.sol\":1139:1150  blockNumber */\n      dup6\n        /* \"trustless cross-chain/trading pair formation/Deposit_com.sol\":1094:1151  abi.encodePacked(msg.sender, symbol, amount, blockNumber) */\n      add(0x20, mload(0x40))\n      tag_72\n      swap5\n      swap4\n      swap3\n      swap2\n      swap1\n      tag_73\n      jump\t// in\n    tag_72:\n      mload(0x40)\n      0x20\n      dup2\n      dup4\n      sub\n      sub\n      dup2\n      mstore\n      swap1\n      0x40\n      mstore\n        /* \"trustless cross-chain/trading pair formation/Deposit_com.sol\":1084:1152  keccak256(abi.encodePacked(msg.sender, symbol, amount, blockNumber)) */\n      dup1\n      mload\n      swap1\n      0x20\n      add\n      keccak256\n        /* \"trustless cross-chain/trading pair formation/Deposit_com.sol\":1064:1152  bytes32 depositId = keccak256(abi.encodePacked(msg.sender, symbol, amount, blockNumber)) */\n      swap1\n      pop\n        /* \"trustless cross-chain/trading pair formation/Deposit_com.sol\":1184:1246  Deposit(msg.sender, symbol, amount, blockNumber, false, false) */\n      mload(0x40)\n      dup1\n      0xc0\n      add\n      0x40\n      mstore\n      dup1\n        /* \"trustless cross-chain/trading pair formation/Deposit_com.sol\":1192:1202  msg.sender */\n      caller\n        /* \"trustless cross-chain/trading pair formation/Deposit_com.sol\":1184:1246  Deposit(msg.sender, symbol, amount, blockNumber, false, false) */\n      0xffffffffffffffffffffffffffffffffffffffff\n      and\n      dup2\n      mstore\n      0x20\n      add\n        /* \"trustless cross-chain/trading pair formation/Deposit_com.sol\":1204:1210  symbol */\n      dup7\n        /* \"trustless cross-chain/trading pair formation/Deposit_com.sol\":1184:1246  Deposit(msg.sender, symbol, amount, blockNumber, false, false) */\n      dup2\n      mstore\n      0x20\n      add\n        /* \"trustless cross-chain/trading pair formation/Deposit_com.sol\":1212:1218  amount */\n      dup6\n        /* \"trustless cross-chain/trading pair formation/Deposit_com.sol\":1184:1246  Deposit(msg.sender, symbol, amount, blockNumber, false, false) */\n      dup2\n      mstore\n      0x20\n      add\n        /* \"trustless cross-chain/trading pair formation/Deposit_com.sol\":1220:1231  blockNumber */\n      dup5\n        /* \"trustless cross-chain/trading pair formation/Deposit_com.sol\":1184:1246  Deposit(msg.sender, symbol, amount, blockNumber, false, false) */\n      dup2\n      mstore\n      0x20\n      add\n        /* \"trustless cross-chain/trading pair formation/Deposit_com.sol\":1233:1238  false */\n      0x00\n        /* \"trustless cross-chain/trading pair formation/Deposit_com.sol\":1184:1246  Deposit(msg.sender, symbol, amount, blockNumber, false, false) */\n      iszero\n      iszero\n      dup2\n      mstore\n      0x20\n      add\n        /* \"trustless cross-chain/trading pair formation/Deposit_com.sol\":1240:1245  false */\n      0x00\n        /* \"trustless cross-chain/trading pair formation/Deposit_com.sol\":1184:1246  Deposit(msg.sender, symbol, amount, blockNumber, false, false) */\n      iszero\n      iszero\n      dup2\n      mstore\n      pop\n        /* \"trustless cross-chain/trading pair formation/Deposit_com.sol\":1162:1170  deposits */\n      0x01\n        /* \"trustless cross-chain/trading pair formation/Deposit_com.sol\":1162:1181  deposits[depositId] */\n      0x00\n        /* \"trustless cross-chain/trading pair formation/Deposit_com.sol\":1171:1180  depositId */\n      dup4\n        /* \"trustless cross-chain/trading pair formation/Deposit_com.sol\":1162:1181  deposits[depositId] */\n      dup2\n      mstore\n      0x20\n      add\n      swap1\n      dup2\n      mstore\n      0x20\n      add\n      0x00\n      keccak256\n        /* \"trustless cross-chain/trading pair formation/Deposit_com.sol\":1162:1246  deposits[depositId] = Deposit(msg.sender, symbol, amount, blockNumber, false, false) */\n      0x00\n      dup3\n      add\n      mload\n      dup2\n      0x00\n      add\n      exp(0x0100, 0x00)\n      dup2\n      sload\n      dup2\n      0xffffffffffffffffffffffffffffffffffffffff\n      mul\n      not\n      and\n      swap1\n      dup4\n      0xffffffffffffffffffffffffffffffffffffffff\n      and\n      mul\n      or\n      swap1\n      sstore\n      pop\n      0x20\n      dup3\n      add\n      mload\n      dup2\n      0x01\n      add\n      swap1\n      dup2\n      tag_74\n      swap2\n      swap1\n      tag_75\n      jump\t// in\n    tag_74:\n      pop\n      0x40\n      dup3\n      add\n      mload\n      dup2\n      0x02\n      add\n      sstore\n      0x60\n      dup3\n      add\n      mload\n      dup2\n      0x03\n      add\n      sstore\n      0x80\n      dup3\n      add\n      mload\n      dup2\n      0x04\n      add\n      exp(0x0100, 0x00)\n      dup2\n      sload\n      dup2\n      0xff\n      mul\n      not\n      and\n      swap1\n      dup4\n      iszero\n      iszero\n      mul\n      or\n      swap1\n      sstore\n      pop\n      0xa0\n      dup3\n      add\n      mload\n      dup2\n      0x04\n      add\n      exp(0x0100, 0x01)\n      dup2\n      sload\n      dup2\n      0xff\n      mul\n      not\n      and\n      swap1\n      dup4\n      iszero\n      iszero\n      mul\n      or\n      swap1\n      sstore\n      pop\n      swap1\n      pop\n      pop\n        /* \"trustless cross-chain/trading pair formation/Deposit_com.sol\":1287:1297  msg.sender */\n      caller\n        /* \"trustless cross-chain/trading pair formation/Deposit_com.sol\":1262:1327  DepositLocked(depositId, msg.sender, symbol, amount, blockNumber) */\n      0xffffffffffffffffffffffffffffffffffffffff\n      and\n      0xa1cff1b2f4bcfbf6eeee2c1d4fd6de1249eeaa035f878bd93899dc7a8348b6\n        /* \"trustless cross-chain/trading pair formation/Deposit_com.sol\":1276:1285  depositId */\n      dup3\n        /* \"trustless cross-chain/trading pair formation/Deposit_com.sol\":1299:1305  symbol */\n      dup8\n        /* \"trustless cross-chain/trading pair formation/Deposit_com.sol\":1307:1313  amount */\n      dup8\n        /* \"trustless cross-chain/trading pair formation/Deposit_com.sol\":1315:1326  blockNumber */\n      dup8\n        /* \"trustless cross-chain/trading pair formation/Deposit_com.sol\":1262:1327  DepositLocked(depositId, msg.sender, symbol, amount, blockNumber) */\n      mload(0x40)\n      tag_76\n      swap5\n      swap4\n      swap3\n      swap2\n      swap1\n      tag_77\n      jump\t// in\n    tag_76:\n      mload(0x40)\n      dup1\n      swap2\n      sub\n      swap1\n      log2\n        /* \"trustless cross-chain/trading pair formation/Deposit_com.sol\":1342:1354  triggerEvent */\n      dup2\n        /* \"trustless cross-chain/trading pair formation/Deposit_com.sol\":1338:1412  if (triggerEvent) {... */\n      iszero\n      tag_78\n      jumpi\n        /* \"trustless cross-chain/trading pair formation/Deposit_com.sol\":1370:1401  triggerEventInternal(depositId) */\n      tag_79\n        /* \"trustless cross-chain/trading pair formation/Deposit_com.sol\":1391:1400  depositId */\n      dup2\n        /* \"trustless cross-chain/trading pair formation/Deposit_com.sol\":1370:1390  triggerEventInternal */\n      tag_57\n        /* \"trustless cross-chain/trading pair formation/Deposit_com.sol\":1370:1401  triggerEventInternal(depositId) */\n      jump\t// in\n    tag_79:\n        /* \"trustless cross-chain/trading pair formation/Deposit_com.sol\":1338:1412  if (triggerEvent) {... */\n    tag_78:\n        /* \"trustless cross-chain/trading pair formation/Deposit_com.sol\":912:1418  {... */\n      pop\n        /* \"trustless cross-chain/trading pair formation/Deposit_com.sol\":795:1418  function deposit(address token, string memory symbol, uint256 amount, uint256 blockNumber, bool triggerEvent) public {... */\n      pop\n      pop\n      pop\n      pop\n      pop\n      jump\t// out\n        /* \"@openzeppelin/contracts/token/ERC20/utils/SafeERC20.sol\":763:968  function safeTransfer(... */\n    tag_46:\n        /* \"@openzeppelin/contracts/token/ERC20/utils/SafeERC20.sol\":875:961  _callOptionalReturn(token, abi.encodeWithSelector(token.transfer.selector, to, value)) */\n      tag_81\n        /* \"@openzeppelin/contracts/token/ERC20/utils/SafeERC20.sol\":895:900  token */\n      dup4\n        /* \"@openzeppelin/contracts/token/ERC20/utils/SafeERC20.sol\":925:948  token.transfer.selector */\n      shl(0xe0, 0xa9059cbb)\n        /* \"@openzeppelin/contracts/token/ERC20/utils/SafeERC20.sol\":950:952  to */\n      dup5\n        /* \"@openzeppelin/contracts/token/ERC20/utils/SafeERC20.sol\":954:959  value */\n      dup5\n        /* \"@openzeppelin/contracts/token/ERC20/utils/SafeERC20.sol\":902:960  abi.encodeWithSelector(token.transfer.selector, to, value) */\n      add(0x24, mload(0x40))\n      tag_82\n      swap3\n      swap2\n      swap1\n      tag_83\n      jump\t// in\n    tag_82:\n      mload(0x40)\n      0x20\n      dup2\n      dup4\n      sub\n      sub\n      dup2\n      mstore\n      swap1\n      0x40\n      mstore\n      swap1\n      not(0xffffffffffffffffffffffffffffffffffffffffffffffffffffffff)\n      and\n      0x20\n      dup3\n      add\n      dup1\n      mload\n      0xffffffffffffffffffffffffffffffffffffffffffffffffffffffff\n      dup4\n      dup2\n      dup4\n      and\n      or\n      dup4\n      mstore\n      pop\n      pop\n      pop\n      pop\n        /* \"@openzeppelin/contracts/token/ERC20/utils/SafeERC20.sol\":875:894  _callOptionalReturn */\n      tag_84\n        /* \"@openzeppelin/contracts/token/ERC20/utils/SafeERC20.sol\":875:961  _callOptionalReturn(token, abi.encodeWithSelector(token.transfer.selector, to, value)) */\n      jump\t// in\n    tag_81:\n        /* \"@openzeppelin/contracts/token/ERC20/utils/SafeERC20.sol\":763:968  function safeTransfer(... */\n      pop\n      pop\n      pop\n      jump\t// out\n        /* \"trustless cross-chain/trading pair formation/Deposit_com.sol\":2071:2519  function triggerEventInternal(bytes32 depositId) internal {... */\n    tag_57:\n        /* \"trustless cross-chain/trading pair formation/Deposit_com.sol\":2239:2251  bool isValid */\n      0x00\n        /* \"trustless cross-chain/trading pair formation/Deposit_com.sol\":2275:2282  isValid */\n      dup1\n        /* \"trustless cross-chain/trading pair formation/Deposit_com.sol\":2270:2513  if (!isValid) {... */\n      tag_86\n      jumpi\n        /* \"trustless cross-chain/trading pair formation/Deposit_com.sol\":2298:2321  Deposit storage deposit */\n      0x00\n        /* \"trustless cross-chain/trading pair formation/Deposit_com.sol\":2324:2332  deposits */\n      0x01\n        /* \"trustless cross-chain/trading pair formation/Deposit_com.sol\":2324:2343  deposits[depositId] */\n      0x00\n        /* \"trustless cross-chain/trading pair formation/Deposit_com.sol\":2333:2342  depositId */\n      dup5\n        /* \"trustless cross-chain/trading pair formation/Deposit_com.sol\":2324:2343  deposits[depositId] */\n      dup2\n      mstore\n      0x20\n      add\n      swap1\n      dup2\n      mstore\n      0x20\n      add\n      0x00\n      keccak256\n        /* \"trustless cross-chain/trading pair formation/Deposit_com.sol\":2298:2343  Deposit storage deposit = deposits[depositId] */\n      swap1\n      pop\n        /* \"trustless cross-chain/trading pair formation/Deposit_com.sol\":2366:2373  deposit */\n      dup1\n        /* \"trustless cross-chain/trading pair formation/Deposit_com.sol\":2366:2387  deposit.eventOccurred */\n      0x04\n      add\n      0x01\n      swap1\n      sload\n      swap1\n      0x0100\n      exp\n      swap1\n      div\n      0xff\n      and\n        /* \"trustless cross-chain/trading pair formation/Deposit_com.sol\":2365:2387  !deposit.eventOccurred */\n      iszero\n        /* \"trustless cross-chain/trading pair formation/Deposit_com.sol\":2357:2415  require(!deposit.eventOccurred, \"Event already occurred.\") */\n      tag_87\n      jumpi\n      mload(0x40)\n      0x08c379a000000000000000000000000000000000000000000000000000000000\n      dup2\n      mstore\n      0x04\n      add\n      tag_88\n      swap1\n      tag_89\n      jump\t// in\n    tag_88:\n      mload(0x40)\n      dup1\n      swap2\n      sub\n      swap1\n      revert\n    tag_87:\n        /* \"trustless cross-chain/trading pair formation/Deposit_com.sol\":2454:2458  true */\n      0x01\n        /* \"trustless cross-chain/trading pair formation/Deposit_com.sol\":2430:2437  deposit */\n      dup2\n        /* \"trustless cross-chain/trading pair formation/Deposit_com.sol\":2430:2451  deposit.eventOccurred */\n      0x04\n      add\n      0x01\n        /* \"trustless cross-chain/trading pair formation/Deposit_com.sol\":2430:2458  deposit.eventOccurred = true */\n      0x0100\n      exp\n      dup2\n      sload\n      dup2\n      0xff\n      mul\n      not\n      and\n      swap1\n      dup4\n      iszero\n      iszero\n      mul\n      or\n      swap1\n      sstore\n      pop\n        /* \"trustless cross-chain/trading pair formation/Deposit_com.sol\":2478:2502  EventOccurred(depositId) */\n      0x3374383624a6239154f46d2d6fc35a0e58e2f53b0d5ea77c85d26e3fddebdee0\n        /* \"trustless cross-chain/trading pair formation/Deposit_com.sol\":2492:2501  depositId */\n      dup4\n        /* \"trustless cross-chain/trading pair formation/Deposit_com.sol\":2478:2502  EventOccurred(depositId) */\n      mload(0x40)\n      tag_90\n      swap2\n      swap1\n      tag_48\n      jump\t// in\n    tag_90:\n      mload(0x40)\n      dup1\n      swap2\n      sub\n      swap1\n      log1\n        /* \"trustless cross-chain/trading pair formation/Deposit_com.sol\":2284:2513  {... */\n      pop\n        /* \"trustless cross-chain/trading pair formation/Deposit_com.sol\":2270:2513  if (!isValid) {... */\n    tag_86:\n        /* \"trustless cross-chain/trading pair formation/Deposit_com.sol\":2129:2519  {... */\n      pop\n        /* \"trustless cross-chain/trading pair formation/Deposit_com.sol\":2071:2519  function triggerEventInternal(bytes32 depositId) internal {... */\n      pop\n      jump\t// out\n        /* \"@openzeppelin/contracts/token/ERC20/utils/SafeERC20.sol\":974:1215  function safeTransferFrom(... */\n    tag_71:\n        /* \"@openzeppelin/contracts/token/ERC20/utils/SafeERC20.sol\":1112:1208  _callOptionalReturn(token, abi.encodeWithSelector(token.transferFrom.selector, from, to, value)) */\n      tag_92\n        /* \"@openzeppelin/contracts/token/ERC20/utils/SafeERC20.sol\":1132:1137  token */\n      dup5\n        /* \"@openzeppelin/contracts/token/ERC20/utils/SafeERC20.sol\":1162:1189  token.transferFrom.selector */\n      shl(0xe0, 0x23b872dd)\n        /* \"@openzeppelin/contracts/token/ERC20/utils/SafeERC20.sol\":1191:1195  from */\n      dup6\n        /* \"@openzeppelin/contracts/token/ERC20/utils/SafeERC20.sol\":1197:1199  to */\n      dup6\n        /* \"@openzeppelin/contracts/token/ERC20/utils/SafeERC20.sol\":1201:1206  value */\n      dup6\n        /* \"@openzeppelin/contracts/token/ERC20/utils/SafeERC20.sol\":1139:1207  abi.encodeWithSelector(token.transferFrom.selector, from, to, value) */\n      add(0x24, mload(0x40))\n      tag_93\n      swap4\n      swap3\n      swap2\n      swap1\n      tag_94\n      jump\t// in\n    tag_93:\n      mload(0x40)\n      0x20\n      dup2\n      dup4\n      sub\n      sub\n      dup2\n      mstore\n      swap1\n      0x40\n      mstore\n      swap1\n      not(0xffffffffffffffffffffffffffffffffffffffffffffffffffffffff)\n      and\n      0x20\n      dup3\n      add\n      dup1\n      mload\n      0xffffffffffffffffffffffffffffffffffffffffffffffffffffffff\n      dup4\n      dup2\n      dup4\n      and\n      or\n      dup4\n      mstore\n      pop\n      pop\n      pop\n      pop\n        /* \"@openzeppelin/contracts/token/ERC20/utils/SafeERC20.sol\":1112:1131  _callOptionalReturn */\n      tag_84\n        /* \"@openzeppelin/contracts/token/ERC20/utils/SafeERC20.sol\":1112:1208  _callOptionalReturn(token, abi.encodeWithSelector(token.transferFrom.selector, from, to, value)) */\n      jump\t// in\n    tag_92:\n        /* \"@openzeppelin/contracts/token/ERC20/utils/SafeERC20.sol\":974:1215  function safeTransferFrom(... */\n      pop\n      pop\n      pop\n      pop\n      jump\t// out\n        /* \"@openzeppelin/contracts/token/ERC20/utils/SafeERC20.sol\":3747:4453  function _callOptionalReturn(IERC20 token, bytes memory data) private {... */\n    tag_84:\n        /* \"@openzeppelin/contracts/token/ERC20/utils/SafeERC20.sol\":4166:4189  bytes memory returndata */\n      0x00\n        /* \"@openzeppelin/contracts/token/ERC20/utils/SafeERC20.sol\":4192:4261  address(token).functionCall(data, \"SafeERC20: low-level call failed\") */\n      tag_96\n        /* \"@openzeppelin/contracts/token/ERC20/utils/SafeERC20.sol\":4220:4224  data */\n      dup3\n        /* \"@openzeppelin/contracts/token/ERC20/utils/SafeERC20.sol\":4192:4261  address(token).functionCall(data, \"SafeERC20: low-level call failed\") */\n      mload(0x40)\n      dup1\n      0x40\n      add\n      0x40\n      mstore\n      dup1\n      0x20\n      dup2\n      mstore\n      0x20\n      add\n      0x5361666545524332303a206c6f772d6c6576656c2063616c6c206661696c6564\n      dup2\n      mstore\n      pop\n        /* \"@openzeppelin/contracts/token/ERC20/utils/SafeERC20.sol\":4200:4205  token */\n      dup6\n        /* \"@openzeppelin/contracts/token/ERC20/utils/SafeERC20.sol\":4192:4219  address(token).functionCall */\n      0xffffffffffffffffffffffffffffffffffffffff\n      and\n      tag_97\n      swap1\n        /* \"@openzeppelin/contracts/token/ERC20/utils/SafeERC20.sol\":4192:4261  address(token).functionCall(data, \"SafeERC20: low-level call failed\") */\n      swap3\n      swap2\n      swap1\n      0xffffffff\n      and\n      jump\t// in\n    tag_96:\n        /* \"@openzeppelin/contracts/token/ERC20/utils/SafeERC20.sol\":4166:4261  bytes memory returndata = address(token).functionCall(data, \"SafeERC20: low-level call failed\") */\n      swap1\n      pop\n        /* \"@openzeppelin/contracts/token/ERC20/utils/SafeERC20.sol\":4295:4296  0 */\n      0x00\n        /* \"@openzeppelin/contracts/token/ERC20/utils/SafeERC20.sol\":4275:4285  returndata */\n      dup2\n        /* \"@openzeppelin/contracts/token/ERC20/utils/SafeERC20.sol\":4275:4292  returndata.length */\n      mload\n        /* \"@openzeppelin/contracts/token/ERC20/utils/SafeERC20.sol\":4275:4296  returndata.length > 0 */\n      gt\n        /* \"@openzeppelin/contracts/token/ERC20/utils/SafeERC20.sol\":4271:4447  if (returndata.length > 0) {... */\n      iszero\n      tag_98\n      jumpi\n        /* \"@openzeppelin/contracts/token/ERC20/utils/SafeERC20.sol\":4370:4380  returndata */\n      dup1\n        /* \"@openzeppelin/contracts/token/ERC20/utils/SafeERC20.sol\":4359:4389  abi.decode(returndata, (bool)) */\n      dup1\n      0x20\n      add\n      swap1\n      mload\n      dup2\n      add\n      swap1\n      tag_99\n      swap2\n      swap1\n      tag_100\n      jump\t// in\n    tag_99:\n        /* \"@openzeppelin/contracts/token/ERC20/utils/SafeERC20.sol\":4351:4436  require(abi.decode(returndata, (bool)), \"SafeERC20: ERC20 operation did not succeed\") */\n      tag_101\n      jumpi\n      mload(0x40)\n      0x08c379a000000000000000000000000000000000000000000000000000000000\n      dup2\n      mstore\n      0x04\n      add\n      tag_102\n      swap1\n      tag_103\n      jump\t// in\n    tag_102:\n      mload(0x40)\n      dup1\n      swap2\n      sub\n      swap1\n      revert\n    tag_101:\n        /* \"@openzeppelin/contracts/token/ERC20/utils/SafeERC20.sol\":4271:4447  if (returndata.length > 0) {... */\n    tag_98:\n        /* \"@openzeppelin/contracts/token/ERC20/utils/SafeERC20.sol\":3817:4453  {... */\n      pop\n        /* \"@openzeppelin/contracts/token/ERC20/utils/SafeERC20.sol\":3747:4453  function _callOptionalReturn(IERC20 token, bytes memory data) private {... */\n      pop\n      pop\n      jump\t// out\n        /* \"@openzeppelin/contracts/utils/Address.sol\":3873:4096  function functionCall(... */\n    tag_97:\n        /* \"@openzeppelin/contracts/utils/Address.sol\":4006:4018  bytes memory */\n      0x60\n        /* \"@openzeppelin/contracts/utils/Address.sol\":4037:4089  functionCallWithValue(target, data, 0, errorMessage) */\n      tag_105\n        /* \"@openzeppelin/contracts/utils/Address.sol\":4059:4065  target */\n      dup5\n        /* \"@openzeppelin/contracts/utils/Address.sol\":4067:4071  data */\n      dup5\n        /* \"@openzeppelin/contracts/utils/Address.sol\":4073:4074  0 */\n      0x00\n        /* \"@openzeppelin/contracts/utils/Address.sol\":4076:4088  errorMessage */\n      dup6\n        /* \"@openzeppelin/contracts/utils/Address.sol\":4037:4058  functionCallWithValue */\n      tag_106\n        /* \"@openzeppelin/contracts/utils/Address.sol\":4037:4089  functionCallWithValue(target, data, 0, errorMessage) */\n      jump\t// in\n    tag_105:\n        /* \"@openzeppelin/contracts/utils/Address.sol\":4030:4089  return functionCallWithValue(target, data, 0, errorMessage) */\n      swap1\n      pop\n        /* \"@openzeppelin/contracts/utils/Address.sol\":3873:4096  function functionCall(... */\n      swap4\n      swap3\n      pop\n      pop\n      pop\n      jump\t// out\n        /* \"@openzeppelin/contracts/utils/Address.sol\":4960:5406  function functionCallWithValue(... */\n    tag_106:\n        /* \"@openzeppelin/contracts/utils/Address.sol\":5125:5137  bytes memory */\n      0x60\n        /* \"@openzeppelin/contracts/utils/Address.sol\":5182:5187  value */\n      dup3\n        /* \"@openzeppelin/contracts/utils/Address.sol\":5157:5178  address(this).balance */\n      selfbalance\n        /* \"@openzeppelin/contracts/utils/Address.sol\":5157:5187  address(this).balance >= value */\n      lt\n      iszero\n        /* \"@openzeppelin/contracts/utils/Address.sol\":5149:5230  require(address(this).balance >= value, \"Address: insufficient balance for call\") */\n      tag_108\n      jumpi\n      mload(0x40)\n      0x08c379a000000000000000000000000000000000000000000000000000000000\n      dup2\n      mstore\n      0x04\n      add\n      tag_109\n      swap1\n      tag_110\n      jump\t// in\n    tag_109:\n      mload(0x40)\n      dup1\n      swap2\n      sub\n      swap1\n      revert\n    tag_108:\n        /* \"@openzeppelin/contracts/utils/Address.sol\":5241:5253  bool success */\n      0x00\n        /* \"@openzeppelin/contracts/utils/Address.sol\":5255:5278  bytes memory returndata */\n      dup1\n        /* \"@openzeppelin/contracts/utils/Address.sol\":5282:5288  target */\n      dup7\n        /* \"@openzeppelin/contracts/utils/Address.sol\":5282:5293  target.call */\n      0xffffffffffffffffffffffffffffffffffffffff\n      and\n        /* \"@openzeppelin/contracts/utils/Address.sol\":5301:5306  value */\n      dup6\n        /* \"@openzeppelin/contracts/utils/Address.sol\":5308:5312  data */\n      dup8\n        /* \"@openzeppelin/contracts/utils/Address.sol\":5282:5313  target.call{value: value}(data) */\n      mload(0x40)\n      tag_111\n      swap2\n      swap1\n      tag_112\n      jump\t// in\n    tag_111:\n      0x00\n      mload(0x40)\n      dup1\n      dup4\n      sub\n      dup2\n      dup6\n      dup8\n      gas\n      call\n      swap3\n      pop\n      pop\n      pop\n      returndatasize\n      dup1\n      0x00\n      dup2\n      eq\n      tag_115\n      jumpi\n      mload(0x40)\n      swap2\n      pop\n      and(add(returndatasize, 0x3f), not(0x1f))\n      dup3\n      add\n      0x40\n      mstore\n      returndatasize\n      dup3\n      mstore\n      returndatasize\n      0x00\n      0x20\n      dup5\n      add\n      returndatacopy\n      jump(tag_114)\n    tag_115:\n      0x60\n      swap2\n      pop\n    tag_114:\n      pop\n        /* \"@openzeppelin/contracts/utils/Address.sol\":5240:5313  (bool success, bytes memory returndata) = target.call{value: value}(data) */\n      swap2\n      pop\n      swap2\n      pop\n        /* \"@openzeppelin/contracts/utils/Address.sol\":5330:5399  verifyCallResultFromTarget(target, success, returndata, errorMessage) */\n      tag_116\n        /* \"@openzeppelin/contracts/utils/Address.sol\":5357:5363  target */\n      dup8\n        /* \"@openzeppelin/contracts/utils/Address.sol\":5365:5372  success */\n      dup4\n        /* \"@openzeppelin/contracts/utils/Address.sol\":5374:5384  returndata */\n      dup4\n        /* \"@openzeppelin/contracts/utils/Address.sol\":5386:5398  errorMessage */\n      dup8\n        /* \"@openzeppelin/contracts/utils/Address.sol\":5330:5356  verifyCallResultFromTarget */\n      tag_117\n        /* \"@openzeppelin/contracts/utils/Address.sol\":5330:5399  verifyCallResultFromTarget(target, success, returndata, errorMessage) */\n      jump\t// in\n    tag_116:\n        /* \"@openzeppelin/contracts/utils/Address.sol\":5323:5399  return verifyCallResultFromTarget(target, success, returndata, errorMessage) */\n      swap3\n      pop\n      pop\n      pop\n        /* \"@openzeppelin/contracts/utils/Address.sol\":4960:5406  function functionCallWithValue(... */\n      swap5\n      swap4\n      pop\n      pop\n      pop\n      pop\n      jump\t// out\n        /* \"@openzeppelin/contracts/utils/Address.sol\":7466:8094  function verifyCallResultFromTarget(... */\n    tag_117:\n        /* \"@openzeppelin/contracts/utils/Address.sol\":7646:7658  bytes memory */\n      0x60\n        /* \"@openzeppelin/contracts/utils/Address.sol\":7674:7681  success */\n      dup4\n        /* \"@openzeppelin/contracts/utils/Address.sol\":7670:8088  if (success) {... */\n      iszero\n      tag_119\n      jumpi\n        /* \"@openzeppelin/contracts/utils/Address.sol\":7722:7723  0 */\n      0x00\n        /* \"@openzeppelin/contracts/utils/Address.sol\":7701:7711  returndata */\n      dup4\n        /* \"@openzeppelin/contracts/utils/Address.sol\":7701:7718  returndata.length */\n      mload\n        /* \"@openzeppelin/contracts/utils/Address.sol\":7701:7723  returndata.length == 0 */\n      sub\n        /* \"@openzeppelin/contracts/utils/Address.sol\":7697:7983  if (returndata.length == 0) {... */\n      tag_120\n      jumpi\n        /* \"@openzeppelin/contracts/utils/Address.sol\":7916:7934  isContract(target) */\n      tag_121\n        /* \"@openzeppelin/contracts/utils/Address.sol\":7927:7933  target */\n      dup6\n        /* \"@openzeppelin/contracts/utils/Address.sol\":7916:7926  isContract */\n      tag_122\n        /* \"@openzeppelin/contracts/utils/Address.sol\":7916:7934  isContract(target) */\n      jump\t// in\n    tag_121:\n        /* \"@openzeppelin/contracts/utils/Address.sol\":7908:7968  require(isContract(target), \"Address: call to non-contract\") */\n      tag_123\n      jumpi\n      mload(0x40)\n      0x08c379a000000000000000000000000000000000000000000000000000000000\n      dup2\n      mstore\n      0x04\n      add\n      tag_124\n      swap1\n      tag_125\n      jump\t// in\n    tag_124:\n      mload(0x40)\n      dup1\n      swap2\n      sub\n      swap1\n      revert\n    tag_123:\n        /* \"@openzeppelin/contracts/utils/Address.sol\":7697:7983  if (returndata.length == 0) {... */\n    tag_120:\n        /* \"@openzeppelin/contracts/utils/Address.sol\":8003:8013  returndata */\n      dup3\n        /* \"@openzeppelin/contracts/utils/Address.sol\":7996:8013  return returndata */\n      swap1\n      pop\n      jump(tag_118)\n        /* \"@openzeppelin/contracts/utils/Address.sol\":7670:8088  if (success) {... */\n    tag_119:\n        /* \"@openzeppelin/contracts/utils/Address.sol\":8044:8077  _revert(returndata, errorMessage) */\n      tag_127\n        /* \"@openzeppelin/contracts/utils/Address.sol\":8052:8062  returndata */\n      dup4\n        /* \"@openzeppelin/contracts/utils/Address.sol\":8064:8076  errorMessage */\n      dup4\n        /* \"@openzeppelin/contracts/utils/Address.sol\":8044:8051  _revert */\n      tag_128\n        /* \"@openzeppelin/contracts/utils/Address.sol\":8044:8077  _revert(returndata, errorMessage) */\n      jump\t// in\n    tag_127:\n        /* \"@openzeppelin/contracts/utils/Address.sol\":7466:8094  function verifyCallResultFromTarget(... */\n    tag_118:\n      swap5\n      swap4\n      pop\n      pop\n      pop\n      pop\n      jump\t// out\n        /* \"@openzeppelin/contracts/utils/Address.sol\":1175:1495  function isContract(address account) internal view returns (bool) {... */\n    tag_122:\n        /* \"@openzeppelin/contracts/utils/Address.sol\":1235:1239  bool */\n      0x00\n        /* \"@openzeppelin/contracts/utils/Address.sol\":1487:1488  0 */\n      dup1\n        /* \"@openzeppelin/contracts/utils/Address.sol\":1465:1472  account */\n      dup3\n        /* \"@openzeppelin/contracts/utils/Address.sol\":1465:1484  account.code.length */\n      0xffffffffffffffffffffffffffffffffffffffff\n      and\n      extcodesize\n        /* \"@openzeppelin/contracts/utils/Address.sol\":1465:1488  account.code.length > 0 */\n      gt\n        /* \"@openzeppelin/contracts/utils/Address.sol\":1458:1488  return account.code.length > 0 */\n      swap1\n      pop\n        /* \"@openzeppelin/contracts/utils/Address.sol\":1175:1495  function isContract(address account) internal view returns (bool) {... */\n      swap2\n      swap1\n      pop\n      jump\t// out\n        /* \"@openzeppelin/contracts/utils/Address.sol\":8616:9156  function _revert(bytes memory returndata, string memory errorMessage) private pure {... */\n    tag_128:\n        /* \"@openzeppelin/contracts/utils/Address.sol\":8795:8796  0 */\n      0x00\n        /* \"@openzeppelin/contracts/utils/Address.sol\":8775:8785  returndata */\n      dup3\n        /* \"@openzeppelin/contracts/utils/Address.sol\":8775:8792  returndata.length */\n      mload\n        /* \"@openzeppelin/contracts/utils/Address.sol\":8775:8796  returndata.length > 0 */\n      gt\n        /* \"@openzeppelin/contracts/utils/Address.sol\":8771:9150  if (returndata.length > 0) {... */\n      iszero\n      tag_131\n      jumpi\n        /* \"@openzeppelin/contracts/utils/Address.sol\":9003:9013  returndata */\n      dup2\n        /* \"@openzeppelin/contracts/utils/Address.sol\":8997:9014  mload(returndata) */\n      mload\n        /* \"@openzeppelin/contracts/utils/Address.sol\":9059:9074  returndata_size */\n      dup1\n        /* \"@openzeppelin/contracts/utils/Address.sol\":9046:9056  returndata */\n      dup4\n        /* \"@openzeppelin/contracts/utils/Address.sol\":9042:9044  32 */\n      0x20\n        /* \"@openzeppelin/contracts/utils/Address.sol\":9038:9057  add(32, returndata) */\n      add\n        /* \"@openzeppelin/contracts/utils/Address.sol\":9031:9075  revert(add(32, returndata), returndata_size) */\n      revert\n        /* \"@openzeppelin/contracts/utils/Address.sol\":8771:9150  if (returndata.length > 0) {... */\n    tag_131:\n        /* \"@openzeppelin/contracts/utils/Address.sol\":9126:9138  errorMessage */\n      dup1\n        /* \"@openzeppelin/contracts/utils/Address.sol\":9119:9139  revert(errorMessage) */\n      mload(0x40)\n      0x08c379a000000000000000000000000000000000000000000000000000000000\n      dup2\n      mstore\n      0x04\n      add\n      tag_133\n      swap2\n      swap1\n      tag_134\n      jump\t// in\n    tag_133:\n      mload(0x40)\n      dup1\n      swap2\n      sub\n      swap1\n      revert\n        /* \"#utility.yul\":7:82   */\n    tag_135:\n        /* \"#utility.yul\":40:46   */\n      0x00\n        /* \"#utility.yul\":73:75   */\n      0x40\n        /* \"#utility.yul\":67:76   */\n      mload\n        /* \"#utility.yul\":57:76   */\n      swap1\n      pop\n        /* \"#utility.yul\":7:82   */\n      swap1\n      jump\t// out\n        /* \"#utility.yul\":88:205   */\n    tag_136:\n        /* \"#utility.yul\":197:198   */\n      0x00\n        /* \"#utility.yul\":194:195   */\n      dup1\n        /* \"#utility.yul\":187:199   */\n      revert\n        /* \"#utility.yul\":211:328   */\n    tag_137:\n        /* \"#utility.yul\":320:321   */\n      0x00\n        /* \"#utility.yul\":317:318   */\n      dup1\n        /* \"#utility.yul\":310:322   */\n      revert\n        /* \"#utility.yul\":334:411   */\n    tag_138:\n        /* \"#utility.yul\":371:378   */\n      0x00\n        /* \"#utility.yul\":400:405   */\n      dup2\n        /* \"#utility.yul\":389:405   */\n      swap1\n      pop\n        /* \"#utility.yul\":334:411   */\n      swap2\n      swap1\n      pop\n      jump\t// out\n        /* \"#utility.yul\":417:539   */\n    tag_139:\n        /* \"#utility.yul\":490:514   */\n      tag_223\n        /* \"#utility.yul\":508:513   */\n      dup2\n        /* \"#utility.yul\":490:514   */\n      tag_138\n      jump\t// in\n    tag_223:\n        /* \"#utility.yul\":483:488   */\n      dup2\n        /* \"#utility.yul\":480:515   */\n      eq\n        /* \"#utility.yul\":470:533   */\n      tag_224\n      jumpi\n        /* \"#utility.yul\":529:530   */\n      0x00\n        /* \"#utility.yul\":526:527   */\n      dup1\n        /* \"#utility.yul\":519:531   */\n      revert\n        /* \"#utility.yul\":470:533   */\n    tag_224:\n        /* \"#utility.yul\":417:539   */\n      pop\n      jump\t// out\n        /* \"#utility.yul\":545:684   */\n    tag_140:\n        /* \"#utility.yul\":591:596   */\n      0x00\n        /* \"#utility.yul\":629:635   */\n      dup2\n        /* \"#utility.yul\":616:636   */\n      calldataload\n        /* \"#utility.yul\":607:636   */\n      swap1\n      pop\n        /* \"#utility.yul\":645:678   */\n      tag_226\n        /* \"#utility.yul\":672:677   */\n      dup2\n        /* \"#utility.yul\":645:678   */\n      tag_139\n      jump\t// in\n    tag_226:\n        /* \"#utility.yul\":545:684   */\n      swap3\n      swap2\n      pop\n      pop\n      jump\t// out\n        /* \"#utility.yul\":690:816   */\n    tag_141:\n        /* \"#utility.yul\":727:734   */\n      0x00\n        /* \"#utility.yul\":767:809   */\n      0xffffffffffffffffffffffffffffffffffffffff\n        /* \"#utility.yul\":760:765   */\n      dup3\n        /* \"#utility.yul\":756:810   */\n      and\n        /* \"#utility.yul\":745:810   */\n      swap1\n      pop\n        /* \"#utility.yul\":690:816   */\n      swap2\n      swap1\n      pop\n      jump\t// out\n        /* \"#utility.yul\":822:918   */\n    tag_142:\n        /* \"#utility.yul\":859:866   */\n      0x00\n        /* \"#utility.yul\":888:912   */\n      tag_229\n        /* \"#utility.yul\":906:911   */\n      dup3\n        /* \"#utility.yul\":888:912   */\n      tag_141\n      jump\t// in\n    tag_229:\n        /* \"#utility.yul\":877:912   */\n      swap1\n      pop\n        /* \"#utility.yul\":822:918   */\n      swap2\n      swap1\n      pop\n      jump\t// out\n        /* \"#utility.yul\":924:1046   */\n    tag_143:\n        /* \"#utility.yul\":997:1021   */\n      tag_231\n        /* \"#utility.yul\":1015:1020   */\n      dup2\n        /* \"#utility.yul\":997:1021   */\n      tag_142\n      jump\t// in\n    tag_231:\n        /* \"#utility.yul\":990:995   */\n      dup2\n        /* \"#utility.yul\":987:1022   */\n      eq\n        /* \"#utility.yul\":977:1040   */\n      tag_232\n      jumpi\n        /* \"#utility.yul\":1036:1037   */\n      0x00\n        /* \"#utility.yul\":1033:1034   */\n      dup1\n        /* \"#utility.yul\":1026:1038   */\n      revert\n        /* \"#utility.yul\":977:1040   */\n    tag_232:\n        /* \"#utility.yul\":924:1046   */\n      pop\n      jump\t// out\n        /* \"#utility.yul\":1052:1191   */\n    tag_144:\n        /* \"#utility.yul\":1098:1103   */\n      0x00\n        /* \"#utility.yul\":1136:1142   */\n      dup2\n        /* \"#utility.yul\":1123:1143   */\n      calldataload\n        /* \"#utility.yul\":1114:1143   */\n      swap1\n      pop\n        /* \"#utility.yul\":1152:1185   */\n      tag_234\n        /* \"#utility.yul\":1179:1184   */\n      dup2\n        /* \"#utility.yul\":1152:1185   */\n      tag_143\n      jump\t// in\n    tag_234:\n        /* \"#utility.yul\":1052:1191   */\n      swap3\n      swap2\n      pop\n      pop\n      jump\t// out\n        /* \"#utility.yul\":1197:1671   */\n    tag_11:\n        /* \"#utility.yul\":1265:1271   */\n      0x00\n        /* \"#utility.yul\":1273:1279   */\n      dup1\n        /* \"#utility.yul\":1322:1324   */\n      0x40\n        /* \"#utility.yul\":1310:1319   */\n      dup4\n        /* \"#utility.yul\":1301:1308   */\n      dup6\n        /* \"#utility.yul\":1297:1320   */\n      sub\n        /* \"#utility.yul\":1293:1325   */\n      slt\n        /* \"#utility.yul\":1290:1409   */\n      iszero\n      tag_236\n      jumpi\n        /* \"#utility.yul\":1328:1407   */\n      tag_237\n      tag_136\n      jump\t// in\n    tag_237:\n        /* \"#utility.yul\":1290:1409   */\n    tag_236:\n        /* \"#utility.yul\":1448:1449   */\n      0x00\n        /* \"#utility.yul\":1473:1526   */\n      tag_238\n        /* \"#utility.yul\":1518:1525   */\n      dup6\n        /* \"#utility.yul\":1509:1515   */\n      dup3\n        /* \"#utility.yul\":1498:1507   */\n      dup7\n        /* \"#utility.yul\":1494:1516   */\n      add\n        /* \"#utility.yul\":1473:1526   */\n      tag_140\n      jump\t// in\n    tag_238:\n        /* \"#utility.yul\":1463:1526   */\n      swap3\n      pop\n        /* \"#utility.yul\":1419:1536   */\n      pop\n        /* \"#utility.yul\":1575:1577   */\n      0x20\n        /* \"#utility.yul\":1601:1654   */\n      tag_239\n        /* \"#utility.yul\":1646:1653   */\n      dup6\n        /* \"#utility.yul\":1637:1643   */\n      dup3\n        /* \"#utility.yul\":1626:1635   */\n      dup7\n        /* \"#utility.yul\":1622:1644   */\n      add\n        /* \"#utility.yul\":1601:1654   */\n      tag_144\n      jump\t// in\n    tag_239:\n        /* \"#utility.yul\":1591:1654   */\n      swap2\n      pop\n        /* \"#utility.yul\":1546:1664   */\n      pop\n        /* \"#utility.yul\":1197:1671   */\n      swap3\n      pop\n      swap3\n      swap1\n      pop\n      jump\t// out\n        /* \"#utility.yul\":1677:2006   */\n    tag_15:\n        /* \"#utility.yul\":1736:1742   */\n      0x00\n        /* \"#utility.yul\":1785:1787   */\n      0x20\n        /* \"#utility.yul\":1773:1782   */\n      dup3\n        /* \"#utility.yul\":1764:1771   */\n      dup5\n        /* \"#utility.yul\":1760:1783   */\n      sub\n        /* \"#utility.yul\":1756:1788   */\n      slt\n        /* \"#utility.yul\":1753:1872   */\n      iszero\n      tag_241\n      jumpi\n        /* \"#utility.yul\":1791:1870   */\n      tag_242\n      tag_136\n      jump\t// in\n    tag_242:\n        /* \"#utility.yul\":1753:1872   */\n    tag_241:\n        /* \"#utility.yul\":1911:1912   */\n      0x00\n        /* \"#utility.yul\":1936:1989   */\n      tag_243\n        /* \"#utility.yul\":1981:1988   */\n      dup5\n        /* \"#utility.yul\":1972:1978   */\n      dup3\n        /* \"#utility.yul\":1961:1970   */\n      dup6\n        /* \"#utility.yul\":1957:1979   */\n      add\n        /* \"#utility.yul\":1936:1989   */\n      tag_140\n      jump\t// in\n    tag_243:\n        /* \"#utility.yul\":1926:1989   */\n      swap2\n      pop\n        /* \"#utility.yul\":1882:1999   */\n      pop\n        /* \"#utility.yul\":1677:2006   */\n      swap3\n      swap2\n      pop\n      pop\n      jump\t// out\n        /* \"#utility.yul\":2012:2130   */\n    tag_145:\n        /* \"#utility.yul\":2099:2123   */\n      tag_245\n        /* \"#utility.yul\":2117:2122   */\n      dup2\n        /* \"#utility.yul\":2099:2123   */\n      tag_142\n      jump\t// in\n    tag_245:\n        /* \"#utility.yul\":2094:2097   */\n      dup3\n        /* \"#utility.yul\":2087:2124   */\n      mstore\n        /* \"#utility.yul\":2012:2130   */\n      pop\n      pop\n      jump\t// out\n        /* \"#utility.yul\":2136:2235   */\n    tag_146:\n        /* \"#utility.yul\":2188:2194   */\n      0x00\n        /* \"#utility.yul\":2222:2227   */\n      dup2\n        /* \"#utility.yul\":2216:2228   */\n      mload\n        /* \"#utility.yul\":2206:2228   */\n      swap1\n      pop\n        /* \"#utility.yul\":2136:2235   */\n      swap2\n      swap1\n      pop\n      jump\t// out\n        /* \"#utility.yul\":2241:2410   */\n    tag_147:\n        /* \"#utility.yul\":2325:2336   */\n      0x00\n        /* \"#utility.yul\":2359:2365   */\n      dup3\n        /* \"#utility.yul\":2354:2357   */\n      dup3\n        /* \"#utility.yul\":2347:2366   */\n      mstore\n        /* \"#utility.yul\":2399:2403   */\n      0x20\n        /* \"#utility.yul\":2394:2397   */\n      dup3\n        /* \"#utility.yul\":2390:2404   */\n      add\n        /* \"#utility.yul\":2375:2404   */\n      swap1\n      pop\n        /* \"#utility.yul\":2241:2410   */\n      swap3\n      swap2\n      pop\n      pop\n      jump\t// out\n        /* \"#utility.yul\":2416:2555   */\n    tag_148:\n        /* \"#utility.yul\":2505:2511   */\n      dup3\n        /* \"#utility.yul\":2500:2503   */\n      dup2\n        /* \"#utility.yul\":2495:2498   */\n      dup4\n        /* \"#utility.yul\":2489:2512   */\n      mcopy\n        /* \"#utility.yul\":2546:2547   */\n      0x00\n        /* \"#utility.yul\":2537:2543   */\n      dup4\n        /* \"#utility.yul\":2532:2535   */\n      dup4\n        /* \"#utility.yul\":2528:2544   */\n      add\n        /* \"#utility.yul\":2521:2548   */\n      mstore\n        /* \"#utility.yul\":2416:2555   */\n      pop\n      pop\n      pop\n      jump\t// out\n        /* \"#utility.yul\":2561:2663   */\n    tag_149:\n        /* \"#utility.yul\":2602:2608   */\n      0x00\n        /* \"#utility.yul\":2653:2655   */\n      0x1f\n        /* \"#utility.yul\":2649:2656   */\n      not\n        /* \"#utility.yul\":2644:2646   */\n      0x1f\n        /* \"#utility.yul\":2637:2642   */\n      dup4\n        /* \"#utility.yul\":2633:2647   */\n      add\n        /* \"#utility.yul\":2629:2657   */\n      and\n        /* \"#utility.yul\":2619:2657   */\n      swap1\n      pop\n        /* \"#utility.yul\":2561:2663   */\n      swap2\n      swap1\n      pop\n      jump\t// out\n        /* \"#utility.yul\":2669:3046   */\n    tag_150:\n        /* \"#utility.yul\":2757:2760   */\n      0x00\n        /* \"#utility.yul\":2785:2824   */\n      tag_251\n        /* \"#utility.yul\":2818:2823   */\n      dup3\n        /* \"#utility.yul\":2785:2824   */\n      tag_146\n      jump\t// in\n    tag_251:\n        /* \"#utility.yul\":2840:2911   */\n      tag_252\n        /* \"#utility.yul\":2904:2910   */\n      dup2\n        /* \"#utility.yul\":2899:2902   */\n      dup6\n        /* \"#utility.yul\":2840:2911   */\n      tag_147\n      jump\t// in\n    tag_252:\n        /* \"#utility.yul\":2833:2911   */\n      swap4\n      pop\n        /* \"#utility.yul\":2920:2985   */\n      tag_253\n        /* \"#utility.yul\":2978:2984   */\n      dup2\n        /* \"#utility.yul\":2973:2976   */\n      dup6\n        /* \"#utility.yul\":2966:2970   */\n      0x20\n        /* \"#utility.yul\":2959:2964   */\n      dup7\n        /* \"#utility.yul\":2955:2971   */\n      add\n        /* \"#utility.yul\":2920:2985   */\n      tag_148\n      jump\t// in\n    tag_253:\n        /* \"#utility.yul\":3010:3039   */\n      tag_254\n        /* \"#utility.yul\":3032:3038   */\n      dup2\n        /* \"#utility.yul\":3010:3039   */\n      tag_149\n      jump\t// in\n    tag_254:\n        /* \"#utility.yul\":3005:3008   */\n      dup5\n        /* \"#utility.yul\":3001:3040   */\n      add\n        /* \"#utility.yul\":2994:3040   */\n      swap2\n      pop\n        /* \"#utility.yul\":2761:3046   */\n      pop\n        /* \"#utility.yul\":2669:3046   */\n      swap3\n      swap2\n      pop\n      pop\n      jump\t// out\n        /* \"#utility.yul\":3052:3129   */\n    tag_151:\n        /* \"#utility.yul\":3089:3096   */\n      0x00\n        /* \"#utility.yul\":3118:3123   */\n      dup2\n        /* \"#utility.yul\":3107:3123   */\n      swap1\n      pop\n        /* \"#utility.yul\":3052:3129   */\n      swap2\n      swap1\n      pop\n      jump\t// out\n        /* \"#utility.yul\":3135:3253   */\n    tag_152:\n        /* \"#utility.yul\":3222:3246   */\n      tag_257\n        /* \"#utility.yul\":3240:3245   */\n      dup2\n        /* \"#utility.yul\":3222:3246   */\n      tag_151\n      jump\t// in\n    tag_257:\n        /* \"#utility.yul\":3217:3220   */\n      dup3\n        /* \"#utility.yul\":3210:3247   */\n      mstore\n        /* \"#utility.yul\":3135:3253   */\n      pop\n      pop\n      jump\t// out\n        /* \"#utility.yul\":3259:3349   */\n    tag_153:\n        /* \"#utility.yul\":3293:3300   */\n      0x00\n        /* \"#utility.yul\":3336:3341   */\n      dup2\n        /* \"#utility.yul\":3329:3342   */\n      iszero\n        /* \"#utility.yul\":3322:3343   */\n      iszero\n        /* \"#utility.yul\":3311:3343   */\n      swap1\n      pop\n        /* \"#utility.yul\":3259:3349   */\n      swap2\n      swap1\n      pop\n      jump\t// out\n        /* \"#utility.yul\":3355:3464   */\n    tag_154:\n        /* \"#utility.yul\":3436:3457   */\n      tag_260\n        /* \"#utility.yul\":3451:3456   */\n      dup2\n        /* \"#utility.yul\":3436:3457   */\n      tag_153\n      jump\t// in\n    tag_260:\n        /* \"#utility.yul\":3431:3434   */\n      dup3\n        /* \"#utility.yul\":3424:3458   */\n      mstore\n        /* \"#utility.yul\":3355:3464   */\n      pop\n      pop\n      jump\t// out\n        /* \"#utility.yul\":3470:4312   */\n    tag_18:\n        /* \"#utility.yul\":3711:3715   */\n      0x00\n        /* \"#utility.yul\":3749:3752   */\n      0xc0\n        /* \"#utility.yul\":3738:3747   */\n      dup3\n        /* \"#utility.yul\":3734:3753   */\n      add\n        /* \"#utility.yul\":3726:3753   */\n      swap1\n      pop\n        /* \"#utility.yul\":3763:3834   */\n      tag_262\n        /* \"#utility.yul\":3831:3832   */\n      0x00\n        /* \"#utility.yul\":3820:3829   */\n      dup4\n        /* \"#utility.yul\":3816:3833   */\n      add\n        /* \"#utility.yul\":3807:3813   */\n      dup10\n        /* \"#utility.yul\":3763:3834   */\n      tag_145\n      jump\t// in\n    tag_262:\n        /* \"#utility.yul\":3881:3890   */\n      dup2\n        /* \"#utility.yul\":3875:3879   */\n      dup2\n        /* \"#utility.yul\":3871:3891   */\n      sub\n        /* \"#utility.yul\":3866:3868   */\n      0x20\n        /* \"#utility.yul\":3855:3864   */\n      dup4\n        /* \"#utility.yul\":3851:3869   */\n      add\n        /* \"#utility.yul\":3844:3892   */\n      mstore\n        /* \"#utility.yul\":3909:3987   */\n      tag_263\n        /* \"#utility.yul\":3982:3986   */\n      dup2\n        /* \"#utility.yul\":3973:3979   */\n      dup9\n        /* \"#utility.yul\":3909:3987   */\n      tag_150\n      jump\t// in\n    tag_263:\n        /* \"#utility.yul\":3901:3987   */\n      swap1\n      pop\n        /* \"#utility.yul\":3997:4069   */\n      tag_264\n        /* \"#utility.yul\":4065:4067   */\n      0x40\n        /* \"#utility.yul\":4054:4063   */\n      dup4\n        /* \"#utility.yul\":4050:4068   */\n      add\n        /* \"#utility.yul\":4041:4047   */\n      dup8\n        /* \"#utility.yul\":3997:4069   */\n      tag_152\n      jump\t// in\n    tag_264:\n        /* \"#utility.yul\":4079:4151   */\n      tag_265\n        /* \"#utility.yul\":4147:4149   */\n      0x60\n        /* \"#utility.yul\":4136:4145   */\n      dup4\n        /* \"#utility.yul\":4132:4150   */\n      add\n        /* \"#utility.yul\":4123:4129   */\n      dup7\n        /* \"#utility.yul\":4079:4151   */\n      tag_152\n      jump\t// in\n    tag_265:\n        /* \"#utility.yul\":4161:4228   */\n      tag_266\n        /* \"#utility.yul\":4223:4226   */\n      0x80\n        /* \"#utility.yul\":4212:4221   */\n      dup4\n        /* \"#utility.yul\":4208:4227   */\n      add\n        /* \"#utility.yul\":4199:4205   */\n      dup6\n        /* \"#utility.yul\":4161:4228   */\n      tag_154\n      jump\t// in\n    tag_266:\n        /* \"#utility.yul\":4238:4305   */\n      tag_267\n        /* \"#utility.yul\":4300:4303   */\n      0xa0\n        /* \"#utility.yul\":4289:4298   */\n      dup4\n        /* \"#utility.yul\":4285:4304   */\n      add\n        /* \"#utility.yul\":4276:4282   */\n      dup5\n        /* \"#utility.yul\":4238:4305   */\n      tag_154\n      jump\t// in\n    tag_267:\n        /* \"#utility.yul\":3470:4312   */\n      swap8\n      swap7\n      pop\n      pop\n      pop\n      pop\n      pop\n      pop\n      pop\n      jump\t// out\n        /* \"#utility.yul\":4318:4937   */\n    tag_24:\n        /* \"#utility.yul\":4395:4401   */\n      0x00\n        /* \"#utility.yul\":4403:4409   */\n      dup1\n        /* \"#utility.yul\":4411:4417   */\n      0x00\n        /* \"#utility.yul\":4460:4462   */\n      0x60\n        /* \"#utility.yul\":4448:4457   */\n      dup5\n        /* \"#utility.yul\":4439:4446   */\n      dup7\n        /* \"#utility.yul\":4435:4458   */\n      sub\n        /* \"#utility.yul\":4431:4463   */\n      slt\n        /* \"#utility.yul\":4428:4547   */\n      iszero\n      tag_269\n      jumpi\n        /* \"#utility.yul\":4466:4545   */\n      tag_270\n      tag_136\n      jump\t// in\n    tag_270:\n        /* \"#utility.yul\":4428:4547   */\n    tag_269:\n        /* \"#utility.yul\":4586:4587   */\n      0x00\n        /* \"#utility.yul\":4611:4664   */\n      tag_271\n        /* \"#utility.yul\":4656:4663   */\n      dup7\n        /* \"#utility.yul\":4647:4653   */\n      dup3\n        /* \"#utility.yul\":4636:4645   */\n      dup8\n        /* \"#utility.yul\":4632:4654   */\n      add\n        /* \"#utility.yul\":4611:4664   */\n      tag_140\n      jump\t// in\n    tag_271:\n        /* \"#utility.yul\":4601:4664   */\n      swap4\n      pop\n        /* \"#utility.yul\":4557:4674   */\n      pop\n        /* \"#utility.yul\":4713:4715   */\n      0x20\n        /* \"#utility.yul\":4739:4792   */\n      tag_272\n        /* \"#utility.yul\":4784:4791   */\n      dup7\n        /* \"#utility.yul\":4775:4781   */\n      dup3\n        /* \"#utility.yul\":4764:4773   */\n      dup8\n        /* \"#utility.yul\":4760:4782   */\n      add\n        /* \"#utility.yul\":4739:4792   */\n      tag_144\n      jump\t// in\n    tag_272:\n        /* \"#utility.yul\":4729:4792   */\n      swap3\n      pop\n        /* \"#utility.yul\":4684:4802   */\n      pop\n        /* \"#utility.yul\":4841:4843   */\n      0x40\n        /* \"#utility.yul\":4867:4920   */\n      tag_273\n        /* \"#utility.yul\":4912:4919   */\n      dup7\n        /* \"#utility.yul\":4903:4909   */\n      dup3\n        /* \"#utility.yul\":4892:4901   */\n      dup8\n        /* \"#utility.yul\":4888:4910   */\n      add\n        /* \"#utility.yul\":4867:4920   */\n      tag_144\n      jump\t// in\n    tag_273:\n        /* \"#utility.yul\":4857:4920   */\n      swap2\n      pop\n        /* \"#utility.yul\":4812:4930   */\n      pop\n        /* \"#utility.yul\":4318:4937   */\n      swap3\n      pop\n      swap3\n      pop\n      swap3\n      jump\t// out\n        /* \"#utility.yul\":4943:5165   */\n    tag_29:\n        /* \"#utility.yul\":5036:5040   */\n      0x00\n        /* \"#utility.yul\":5074:5076   */\n      0x20\n        /* \"#utility.yul\":5063:5072   */\n      dup3\n        /* \"#utility.yul\":5059:5077   */\n      add\n        /* \"#utility.yul\":5051:5077   */\n      swap1\n      pop\n        /* \"#utility.yul\":5087:5158   */\n      tag_275\n        /* \"#utility.yul\":5155:5156   */\n      0x00\n        /* \"#utility.yul\":5144:5153   */\n      dup4\n        /* \"#utility.yul\":5140:5157   */\n      add\n        /* \"#utility.yul\":5131:5137   */\n      dup5\n        /* \"#utility.yul\":5087:5158   */\n      tag_145\n      jump\t// in\n    tag_275:\n        /* \"#utility.yul\":4943:5165   */\n      swap3\n      swap2\n      pop\n      pop\n      jump\t// out\n        /* \"#utility.yul\":5171:5288   */\n    tag_155:\n        /* \"#utility.yul\":5280:5281   */\n      0x00\n        /* \"#utility.yul\":5277:5278   */\n      dup1\n        /* \"#utility.yul\":5270:5282   */\n      revert\n        /* \"#utility.yul\":5294:5411   */\n    tag_156:\n        /* \"#utility.yul\":5403:5404   */\n      0x00\n        /* \"#utility.yul\":5400:5401   */\n      dup1\n        /* \"#utility.yul\":5393:5405   */\n      revert\n        /* \"#utility.yul\":5417:5597   */\n    tag_157:\n        /* \"#utility.yul\":5465:5542   */\n      0x4e487b7100000000000000000000000000000000000000000000000000000000\n        /* \"#utility.yul\":5462:5463   */\n      0x00\n        /* \"#utility.yul\":5455:5543   */\n      mstore\n        /* \"#utility.yul\":5562:5566   */\n      0x41\n        /* \"#utility.yul\":5559:5560   */\n      0x04\n        /* \"#utility.yul\":5552:5567   */\n      mstore\n        /* \"#utility.yul\":5586:5590   */\n      0x24\n        /* \"#utility.yul\":5583:5584   */\n      0x00\n        /* \"#utility.yul\":5576:5591   */\n      revert\n        /* \"#utility.yul\":5603:5884   */\n    tag_158:\n        /* \"#utility.yul\":5686:5713   */\n      tag_280\n        /* \"#utility.yul\":5708:5712   */\n      dup3\n        /* \"#utility.yul\":5686:5713   */\n      tag_149\n      jump\t// in\n    tag_280:\n        /* \"#utility.yul\":5678:5684   */\n      dup2\n        /* \"#utility.yul\":5674:5714   */\n      add\n        /* \"#utility.yul\":5816:5822   */\n      dup2\n        /* \"#utility.yul\":5804:5814   */\n      dup2\n        /* \"#utility.yul\":5801:5823   */\n      lt\n        /* \"#utility.yul\":5780:5798   */\n      0xffffffffffffffff\n        /* \"#utility.yul\":5768:5778   */\n      dup3\n        /* \"#utility.yul\":5765:5799   */\n      gt\n        /* \"#utility.yul\":5762:5824   */\n      or\n        /* \"#utility.yul\":5759:5847   */\n      iszero\n      tag_281\n      jumpi\n        /* \"#utility.yul\":5827:5845   */\n      tag_282\n      tag_157\n      jump\t// in\n    tag_282:\n        /* \"#utility.yul\":5759:5847   */\n    tag_281:\n        /* \"#utility.yul\":5867:5877   */\n      dup1\n        /* \"#utility.yul\":5863:5865   */\n      0x40\n        /* \"#utility.yul\":5856:5878   */\n      mstore\n        /* \"#utility.yul\":5646:5884   */\n      pop\n        /* \"#utility.yul\":5603:5884   */\n      pop\n      pop\n      jump\t// out\n        /* \"#utility.yul\":5890:6019   */\n    tag_159:\n        /* \"#utility.yul\":5924:5930   */\n      0x00\n        /* \"#utility.yul\":5951:5971   */\n      tag_284\n      tag_135\n      jump\t// in\n    tag_284:\n        /* \"#utility.yul\":5941:5971   */\n      swap1\n      pop\n        /* \"#utility.yul\":5980:6013   */\n      tag_285\n        /* \"#utility.yul\":6008:6012   */\n      dup3\n        /* \"#utility.yul\":6000:6006   */\n      dup3\n        /* \"#utility.yul\":5980:6013   */\n      tag_158\n      jump\t// in\n    tag_285:\n        /* \"#utility.yul\":5890:6019   */\n      swap2\n      swap1\n      pop\n      jump\t// out\n        /* \"#utility.yul\":6025:6333   */\n    tag_160:\n        /* \"#utility.yul\":6087:6091   */\n      0x00\n        /* \"#utility.yul\":6177:6195   */\n      0xffffffffffffffff\n        /* \"#utility.yul\":6169:6175   */\n      dup3\n        /* \"#utility.yul\":6166:6196   */\n      gt\n        /* \"#utility.yul\":6163:6219   */\n      iszero\n      tag_287\n      jumpi\n        /* \"#utility.yul\":6199:6217   */\n      tag_288\n      tag_157\n      jump\t// in\n    tag_288:\n        /* \"#utility.yul\":6163:6219   */\n    tag_287:\n        /* \"#utility.yul\":6237:6266   */\n      tag_289\n        /* \"#utility.yul\":6259:6265   */\n      dup3\n        /* \"#utility.yul\":6237:6266   */\n      tag_149\n      jump\t// in\n    tag_289:\n        /* \"#utility.yul\":6229:6266   */\n      swap1\n      pop\n        /* \"#utility.yul\":6321:6325   */\n      0x20\n        /* \"#utility.yul\":6315:6319   */\n      dup2\n        /* \"#utility.yul\":6311:6326   */\n      add\n        /* \"#utility.yul\":6303:6326   */\n      swap1\n      pop\n        /* \"#utility.yul\":6025:6333   */\n      swap2\n      swap1\n      pop\n      jump\t// out\n        /* \"#utility.yul\":6339:6487   */\n    tag_161:\n        /* \"#utility.yul\":6437:6443   */\n      dup3\n        /* \"#utility.yul\":6432:6435   */\n      dup2\n        /* \"#utility.yul\":6427:6430   */\n      dup4\n        /* \"#utility.yul\":6414:6444   */\n      calldatacopy\n        /* \"#utility.yul\":6478:6479   */\n      0x00\n        /* \"#utility.yul\":6469:6475   */\n      dup4\n        /* \"#utility.yul\":6464:6467   */\n      dup4\n        /* \"#utility.yul\":6460:6476   */\n      add\n        /* \"#utility.yul\":6453:6480   */\n      mstore\n        /* \"#utility.yul\":6339:6487   */\n      pop\n      pop\n      pop\n      jump\t// out\n        /* \"#utility.yul\":6493:6918   */\n    tag_162:\n        /* \"#utility.yul\":6571:6576   */\n      0x00\n        /* \"#utility.yul\":6596:6662   */\n      tag_292\n        /* \"#utility.yul\":6612:6661   */\n      tag_293\n        /* \"#utility.yul\":6654:6660   */\n      dup5\n        /* \"#utility.yul\":6612:6661   */\n      tag_160\n      jump\t// in\n    tag_293:\n        /* \"#utility.yul\":6596:6662   */\n      tag_159\n      jump\t// in\n    tag_292:\n        /* \"#utility.yul\":6587:6662   */\n      swap1\n      pop\n        /* \"#utility.yul\":6685:6691   */\n      dup3\n        /* \"#utility.yul\":6678:6683   */\n      dup2\n        /* \"#utility.yul\":6671:6692   */\n      mstore\n        /* \"#utility.yul\":6723:6727   */\n      0x20\n        /* \"#utility.yul\":6716:6721   */\n      dup2\n        /* \"#utility.yul\":6712:6728   */\n      add\n        /* \"#utility.yul\":6761:6764   */\n      dup5\n        /* \"#utility.yul\":6752:6758   */\n      dup5\n        /* \"#utility.yul\":6747:6750   */\n      dup5\n        /* \"#utility.yul\":6743:6759   */\n      add\n        /* \"#utility.yul\":6740:6765   */\n      gt\n        /* \"#utility.yul\":6737:6849   */\n      iszero\n      tag_294\n      jumpi\n        /* \"#utility.yul\":6768:6847   */\n      tag_295\n      tag_156\n      jump\t// in\n    tag_295:\n        /* \"#utility.yul\":6737:6849   */\n    tag_294:\n        /* \"#utility.yul\":6858:6912   */\n      tag_296\n        /* \"#utility.yul\":6905:6911   */\n      dup5\n        /* \"#utility.yul\":6900:6903   */\n      dup3\n        /* \"#utility.yul\":6895:6898   */\n      dup6\n        /* \"#utility.yul\":6858:6912   */\n      tag_161\n      jump\t// in\n    tag_296:\n        /* \"#utility.yul\":6577:6918   */\n      pop\n        /* \"#utility.yul\":6493:6918   */\n      swap4\n      swap3\n      pop\n      pop\n      pop\n      jump\t// out\n        /* \"#utility.yul\":6938:7278   */\n    tag_163:\n        /* \"#utility.yul\":6994:6999   */\n      0x00\n        /* \"#utility.yul\":7043:7046   */\n      dup3\n        /* \"#utility.yul\":7036:7040   */\n      0x1f\n        /* \"#utility.yul\":7028:7034   */\n      dup4\n        /* \"#utility.yul\":7024:7041   */\n      add\n        /* \"#utility.yul\":7020:7047   */\n      slt\n        /* \"#utility.yul\":7010:7132   */\n      tag_298\n      jumpi\n        /* \"#utility.yul\":7051:7130   */\n      tag_299\n      tag_155\n      jump\t// in\n    tag_299:\n        /* \"#utility.yul\":7010:7132   */\n    tag_298:\n        /* \"#utility.yul\":7168:7174   */\n      dup2\n        /* \"#utility.yul\":7155:7175   */\n      calldataload\n        /* \"#utility.yul\":7193:7272   */\n      tag_300\n        /* \"#utility.yul\":7268:7271   */\n      dup5\n        /* \"#utility.yul\":7260:7266   */\n      dup3\n        /* \"#utility.yul\":7253:7257   */\n      0x20\n        /* \"#utility.yul\":7245:7251   */\n      dup7\n        /* \"#utility.yul\":7241:7258   */\n      add\n        /* \"#utility.yul\":7193:7272   */\n      tag_162\n      jump\t// in\n    tag_300:\n        /* \"#utility.yul\":7184:7272   */\n      swap2\n      pop\n        /* \"#utility.yul\":7000:7278   */\n      pop\n        /* \"#utility.yul\":6938:7278   */\n      swap3\n      swap2\n      pop\n      pop\n      jump\t// out\n        /* \"#utility.yul\":7284:7406   */\n    tag_164:\n        /* \"#utility.yul\":7357:7381   */\n      tag_302\n        /* \"#utility.yul\":7375:7380   */\n      dup2\n        /* \"#utility.yul\":7357:7381   */\n      tag_151\n      jump\t// in\n    tag_302:\n        /* \"#utility.yul\":7350:7355   */\n      dup2\n        /* \"#utility.yul\":7347:7382   */\n      eq\n        /* \"#utility.yul\":7337:7400   */\n      tag_303\n      jumpi\n        /* \"#utility.yul\":7396:7397   */\n      0x00\n        /* \"#utility.yul\":7393:7394   */\n      dup1\n        /* \"#utility.yul\":7386:7398   */\n      revert\n        /* \"#utility.yul\":7337:7400   */\n    tag_303:\n        /* \"#utility.yul\":7284:7406   */\n      pop\n      jump\t// out\n        /* \"#utility.yul\":7412:7551   */\n    tag_165:\n        /* \"#utility.yul\":7458:7463   */\n      0x00\n        /* \"#utility.yul\":7496:7502   */\n      dup2\n        /* \"#utility.yul\":7483:7503   */\n      calldataload\n        /* \"#utility.yul\":7474:7503   */\n      swap1\n      pop\n        /* \"#utility.yul\":7512:7545   */\n      tag_305\n        /* \"#utility.yul\":7539:7544   */\n      dup2\n        /* \"#utility.yul\":7512:7545   */\n      tag_164\n      jump\t// in\n    tag_305:\n        /* \"#utility.yul\":7412:7551   */\n      swap3\n      swap2\n      pop\n      pop\n      jump\t// out\n        /* \"#utility.yul\":7557:7673   */\n    tag_166:\n        /* \"#utility.yul\":7627:7648   */\n      tag_307\n        /* \"#utility.yul\":7642:7647   */\n      dup2\n        /* \"#utility.yul\":7627:7648   */\n      tag_153\n      jump\t// in\n    tag_307:\n        /* \"#utility.yul\":7620:7625   */\n      dup2\n        /* \"#utility.yul\":7617:7649   */\n      eq\n        /* \"#utility.yul\":7607:7667   */\n      tag_308\n      jumpi\n        /* \"#utility.yul\":7663:7664   */\n      0x00\n        /* \"#utility.yul\":7660:7661   */\n      dup1\n        /* \"#utility.yul\":7653:7665   */\n      revert\n        /* \"#utility.yul\":7607:7667   */\n    tag_308:\n        /* \"#utility.yul\":7557:7673   */\n      pop\n      jump\t// out\n        /* \"#utility.yul\":7679:7812   */\n    tag_167:\n        /* \"#utility.yul\":7722:7727   */\n      0x00\n        /* \"#utility.yul\":7760:7766   */\n      dup2\n        /* \"#utility.yul\":7747:7767   */\n      calldataload\n        /* \"#utility.yul\":7738:7767   */\n      swap1\n      pop\n        /* \"#utility.yul\":7776:7806   */\n      tag_310\n        /* \"#utility.yul\":7800:7805   */\n      dup2\n        /* \"#utility.yul\":7776:7806   */\n      tag_166\n      jump\t// in\n    tag_310:\n        /* \"#utility.yul\":7679:7812   */\n      swap3\n      swap2\n      pop\n      pop\n      jump\t// out\n        /* \"#utility.yul\":7818:8903   */\n    tag_32:\n        /* \"#utility.yul\":7920:7926   */\n      0x00\n        /* \"#utility.yul\":7928:7934   */\n      dup1\n        /* \"#utility.yul\":7936:7942   */\n      0x00\n        /* \"#utility.yul\":7944:7950   */\n      dup1\n        /* \"#utility.yul\":7952:7958   */\n      0x00\n        /* \"#utility.yul\":8001:8004   */\n      0xa0\n        /* \"#utility.yul\":7989:7998   */\n      dup7\n        /* \"#utility.yul\":7980:7987   */\n      dup9\n        /* \"#utility.yul\":7976:7999   */\n      sub\n        /* \"#utility.yul\":7972:8005   */\n      slt\n        /* \"#utility.yul\":7969:8089   */\n      iszero\n      tag_312\n      jumpi\n        /* \"#utility.yul\":8008:8087   */\n      tag_313\n      tag_136\n      jump\t// in\n    tag_313:\n        /* \"#utility.yul\":7969:8089   */\n    tag_312:\n        /* \"#utility.yul\":8128:8129   */\n      0x00\n        /* \"#utility.yul\":8153:8206   */\n      tag_314\n        /* \"#utility.yul\":8198:8205   */\n      dup9\n        /* \"#utility.yul\":8189:8195   */\n      dup3\n        /* \"#utility.yul\":8178:8187   */\n      dup10\n        /* \"#utility.yul\":8174:8196   */\n      add\n        /* \"#utility.yul\":8153:8206   */\n      tag_144\n      jump\t// in\n    tag_314:\n        /* \"#utility.yul\":8143:8206   */\n      swap6\n      pop\n        /* \"#utility.yul\":8099:8216   */\n      pop\n        /* \"#utility.yul\":8283:8285   */\n      0x20\n        /* \"#utility.yul\":8272:8281   */\n      dup7\n        /* \"#utility.yul\":8268:8286   */\n      add\n        /* \"#utility.yul\":8255:8287   */\n      calldataload\n        /* \"#utility.yul\":8314:8332   */\n      0xffffffffffffffff\n        /* \"#utility.yul\":8306:8312   */\n      dup2\n        /* \"#utility.yul\":8303:8333   */\n      gt\n        /* \"#utility.yul\":8300:8417   */\n      iszero\n      tag_315\n      jumpi\n        /* \"#utility.yul\":8336:8415   */\n      tag_316\n      tag_137\n      jump\t// in\n    tag_316:\n        /* \"#utility.yul\":8300:8417   */\n    tag_315:\n        /* \"#utility.yul\":8441:8504   */\n      tag_317\n        /* \"#utility.yul\":8496:8503   */\n      dup9\n        /* \"#utility.yul\":8487:8493   */\n      dup3\n        /* \"#utility.yul\":8476:8485   */\n      dup10\n        /* \"#utility.yul\":8472:8494   */\n      add\n        /* \"#utility.yul\":8441:8504   */\n      tag_163\n      jump\t// in\n    tag_317:\n        /* \"#utility.yul\":8431:8504   */\n      swap5\n      pop\n        /* \"#utility.yul\":8226:8514   */\n      pop\n        /* \"#utility.yul\":8553:8555   */\n      0x40\n        /* \"#utility.yul\":8579:8632   */\n      tag_318\n        /* \"#utility.yul\":8624:8631   */\n      dup9\n        /* \"#utility.yul\":8615:8621   */\n      dup3\n        /* \"#utility.yul\":8604:8613   */\n      dup10\n        /* \"#utility.yul\":8600:8622   */\n      add\n        /* \"#utility.yul\":8579:8632   */\n      tag_165\n      jump\t// in\n    tag_318:\n        /* \"#utility.yul\":8569:8632   */\n      swap4\n      pop\n        /* \"#utility.yul\":8524:8642   */\n      pop\n        /* \"#utility.yul\":8681:8683   */\n      0x60\n        /* \"#utility.yul\":8707:8760   */\n      tag_319\n        /* \"#utility.yul\":8752:8759   */\n      dup9\n        /* \"#utility.yul\":8743:8749   */\n      dup3\n        /* \"#utility.yul\":8732:8741   */\n      dup10\n        /* \"#utility.yul\":8728:8750   */\n      add\n        /* \"#utility.yul\":8707:8760   */\n      tag_165\n      jump\t// in\n    tag_319:\n        /* \"#utility.yul\":8697:8760   */\n      swap3\n      pop\n        /* \"#utility.yul\":8652:8770   */\n      pop\n        /* \"#utility.yul\":8809:8812   */\n      0x80\n        /* \"#utility.yul\":8836:8886   */\n      tag_320\n        /* \"#utility.yul\":8878:8885   */\n      dup9\n        /* \"#utility.yul\":8869:8875   */\n      dup3\n        /* \"#utility.yul\":8858:8867   */\n      dup10\n        /* \"#utility.yul\":8854:8876   */\n      add\n        /* \"#utility.yul\":8836:8886   */\n      tag_167\n      jump\t// in\n    tag_320:\n        /* \"#utility.yul\":8826:8886   */\n      swap2\n      pop\n        /* \"#utility.yul\":8780:8896   */\n      pop\n        /* \"#utility.yul\":7818:8903   */\n      swap3\n      swap6\n      pop\n      swap3\n      swap6\n      swap1\n      swap4\n      pop\n      jump\t// out\n        /* \"#utility.yul\":8909:9085   */\n    tag_168:\n        /* \"#utility.yul\":9049:9077   */\n      0x4465706f73697420616c72656164792077697468647261776e2e000000000000\n        /* \"#utility.yul\":9045:9046   */\n      0x00\n        /* \"#utility.yul\":9037:9043   */\n      dup3\n        /* \"#utility.yul\":9033:9047   */\n      add\n        /* \"#utility.yul\":9026:9078   */\n      mstore\n        /* \"#utility.yul\":8909:9085   */\n      pop\n      jump\t// out\n        /* \"#utility.yul\":9091:9457   */\n    tag_169:\n        /* \"#utility.yul\":9233:9236   */\n      0x00\n        /* \"#utility.yul\":9254:9321   */\n      tag_323\n        /* \"#utility.yul\":9318:9320   */\n      0x1a\n        /* \"#utility.yul\":9313:9316   */\n      dup4\n        /* \"#utility.yul\":9254:9321   */\n      tag_147\n      jump\t// in\n    tag_323:\n        /* \"#utility.yul\":9247:9321   */\n      swap2\n      pop\n        /* \"#utility.yul\":9330:9423   */\n      tag_324\n        /* \"#utility.yul\":9419:9422   */\n      dup3\n        /* \"#utility.yul\":9330:9423   */\n      tag_168\n      jump\t// in\n    tag_324:\n        /* \"#utility.yul\":9448:9450   */\n      0x20\n        /* \"#utility.yul\":9443:9446   */\n      dup3\n        /* \"#utility.yul\":9439:9451   */\n      add\n        /* \"#utility.yul\":9432:9451   */\n      swap1\n      pop\n        /* \"#utility.yul\":9091:9457   */\n      swap2\n      swap1\n      pop\n      jump\t// out\n        /* \"#utility.yul\":9463:9882   */\n    tag_37:\n        /* \"#utility.yul\":9629:9633   */\n      0x00\n        /* \"#utility.yul\":9667:9669   */\n      0x20\n        /* \"#utility.yul\":9656:9665   */\n      dup3\n        /* \"#utility.yul\":9652:9670   */\n      add\n        /* \"#utility.yul\":9644:9670   */\n      swap1\n      pop\n        /* \"#utility.yul\":9716:9725   */\n      dup2\n        /* \"#utility.yul\":9710:9714   */\n      dup2\n        /* \"#utility.yul\":9706:9726   */\n      sub\n        /* \"#utility.yul\":9702:9703   */\n      0x00\n        /* \"#utility.yul\":9691:9700   */\n      dup4\n        /* \"#utility.yul\":9687:9704   */\n      add\n        /* \"#utility.yul\":9680:9727   */\n      mstore\n        /* \"#utility.yul\":9744:9875   */\n      tag_326\n        /* \"#utility.yul\":9870:9874   */\n      dup2\n        /* \"#utility.yul\":9744:9875   */\n      tag_169\n      jump\t// in\n    tag_326:\n        /* \"#utility.yul\":9736:9875   */\n      swap1\n      pop\n        /* \"#utility.yul\":9463:9882   */\n      swap2\n      swap1\n      pop\n      jump\t// out\n        /* \"#utility.yul\":9888:10119   */\n    tag_170:\n        /* \"#utility.yul\":10028:10062   */\n      0x4f6e6c7920746865206465706f7369746f722063616e20776974686472617720\n        /* \"#utility.yul\":10024:10025   */\n      0x00\n        /* \"#utility.yul\":10016:10022   */\n      dup3\n        /* \"#utility.yul\":10012:10026   */\n      add\n        /* \"#utility.yul\":10005:10063   */\n      mstore\n        /* \"#utility.yul\":10097:10111   */\n      0x746865206465706f7369742e0000000000000000000000000000000000000000\n        /* \"#utility.yul\":10092:10094   */\n      0x20\n        /* \"#utility.yul\":10084:10090   */\n      dup3\n        /* \"#utility.yul\":10080:10095   */\n      add\n        /* \"#utility.yul\":10073:10112   */\n      mstore\n        /* \"#utility.yul\":9888:10119   */\n      pop\n      jump\t// out\n        /* \"#utility.yul\":10125:10491   */\n    tag_171:\n        /* \"#utility.yul\":10267:10270   */\n      0x00\n        /* \"#utility.yul\":10288:10355   */\n      tag_329\n        /* \"#utility.yul\":10352:10354   */\n      0x2c\n        /* \"#utility.yul\":10347:10350   */\n      dup4\n        /* \"#utility.yul\":10288:10355   */\n      tag_147\n      jump\t// in\n    tag_329:\n        /* \"#utility.yul\":10281:10355   */\n      swap2\n      pop\n        /* \"#utility.yul\":10364:10457   */\n      tag_330\n        /* \"#utility.yul\":10453:10456   */\n      dup3\n        /* \"#utility.yul\":10364:10457   */\n      tag_170\n      jump\t// in\n    tag_330:\n        /* \"#utility.yul\":10482:10484   */\n      0x40\n        /* \"#utility.yul\":10477:10480   */\n      dup3\n        /* \"#utility.yul\":10473:10485   */\n      add\n        /* \"#utility.yul\":10466:10485   */\n      swap1\n      pop\n        /* \"#utility.yul\":10125:10491   */\n      swap2\n      swap1\n      pop\n      jump\t// out\n        /* \"#utility.yul\":10497:10916   */\n    tag_40:\n        /* \"#utility.yul\":10663:10667   */\n      0x00\n        /* \"#utility.yul\":10701:10703   */\n      0x20\n        /* \"#utility.yul\":10690:10699   */\n      dup3\n        /* \"#utility.yul\":10686:10704   */\n      add\n        /* \"#utility.yul\":10678:10704   */\n      swap1\n      pop\n        /* \"#utility.yul\":10750:10759   */\n      dup2\n        /* \"#utility.yul\":10744:10748   */\n      dup2\n        /* \"#utility.yul\":10740:10760   */\n      sub\n        /* \"#utility.yul\":10736:10737   */\n      0x00\n        /* \"#utility.yul\":10725:10734   */\n      dup4\n        /* \"#utility.yul\":10721:10738   */\n      add\n        /* \"#utility.yul\":10714:10761   */\n      mstore\n        /* \"#utility.yul\":10778:10909   */\n      tag_332\n        /* \"#utility.yul\":10904:10908   */\n      dup2\n        /* \"#utility.yul\":10778:10909   */\n      tag_171\n      jump\t// in\n    tag_332:\n        /* \"#utility.yul\":10770:10909   */\n      swap1\n      pop\n        /* \"#utility.yul\":10497:10916   */\n      swap2\n      swap1\n      pop\n      jump\t// out\n        /* \"#utility.yul\":10922:11143   */\n    tag_172:\n        /* \"#utility.yul\":11062:11096   */\n      0x436f6e646974696f6e7320666f72207769746864726177616c206e6f74206d65\n        /* \"#utility.yul\":11058:11059   */\n      0x00\n        /* \"#utility.yul\":11050:11056   */\n      dup3\n        /* \"#utility.yul\":11046:11060   */\n      add\n        /* \"#utility.yul\":11039:11097   */\n      mstore\n        /* \"#utility.yul\":11131:11135   */\n      0x742e000000000000000000000000000000000000000000000000000000000000\n        /* \"#utility.yul\":11126:11128   */\n      0x20\n        /* \"#utility.yul\":11118:11124   */\n      dup3\n        /* \"#utility.yul\":11114:11129   */\n      add\n        /* \"#utility.yul\":11107:11136   */\n      mstore\n        /* \"#utility.yul\":10922:11143   */\n      pop\n      jump\t// out\n        /* \"#utility.yul\":11149:11515   */\n    tag_173:\n        /* \"#utility.yul\":11291:11294   */\n      0x00\n        /* \"#utility.yul\":11312:11379   */\n      tag_335\n        /* \"#utility.yul\":11376:11378   */\n      0x22\n        /* \"#utility.yul\":11371:11374   */\n      dup4\n        /* \"#utility.yul\":11312:11379   */\n      tag_147\n      jump\t// in\n    tag_335:\n        /* \"#utility.yul\":11305:11379   */\n      swap2\n      pop\n        /* \"#utility.yul\":11388:11481   */\n      tag_336\n        /* \"#utility.yul\":11477:11480   */\n      dup3\n        /* \"#utility.yul\":11388:11481   */\n      tag_172\n      jump\t// in\n    tag_336:\n        /* \"#utility.yul\":11506:11508   */\n      0x40\n        /* \"#utility.yul\":11501:11504   */\n      dup3\n        /* \"#utility.yul\":11497:11509   */\n      add\n        /* \"#utility.yul\":11490:11509   */\n      swap1\n      pop\n        /* \"#utility.yul\":11149:11515   */\n      swap2\n      swap1\n      pop\n      jump\t// out\n        /* \"#utility.yul\":11521:11940   */\n    tag_44:\n        /* \"#utility.yul\":11687:11691   */\n      0x00\n        /* \"#utility.yul\":11725:11727   */\n      0x20\n        /* \"#utility.yul\":11714:11723   */\n      dup3\n        /* \"#utility.yul\":11710:11728   */\n      add\n        /* \"#utility.yul\":11702:11728   */\n      swap1\n      pop\n        /* \"#utility.yul\":11774:11783   */\n      dup2\n        /* \"#utility.yul\":11768:11772   */\n      dup2\n        /* \"#utility.yul\":11764:11784   */\n      sub\n        /* \"#utility.yul\":11760:11761   */\n      0x00\n        /* \"#utility.yul\":11749:11758   */\n      dup4\n        /* \"#utility.yul\":11745:11762   */\n      add\n        /* \"#utility.yul\":11738:11785   */\n      mstore\n        /* \"#utility.yul\":11802:11933   */\n      tag_338\n        /* \"#utility.yul\":11928:11932   */\n      dup2\n        /* \"#utility.yul\":11802:11933   */\n      tag_173\n      jump\t// in\n    tag_338:\n        /* \"#utility.yul\":11794:11933   */\n      swap1\n      pop\n        /* \"#utility.yul\":11521:11940   */\n      swap2\n      swap1\n      pop\n      jump\t// out\n        /* \"#utility.yul\":11946:12064   */\n    tag_174:\n        /* \"#utility.yul\":12033:12057   */\n      tag_340\n        /* \"#utility.yul\":12051:12056   */\n      dup2\n        /* \"#utility.yul\":12033:12057   */\n      tag_138\n      jump\t// in\n    tag_340:\n        /* \"#utility.yul\":12028:12031   */\n      dup3\n        /* \"#utility.yul\":12021:12058   */\n      mstore\n        /* \"#utility.yul\":11946:12064   */\n      pop\n      pop\n      jump\t// out\n        /* \"#utility.yul\":12070:12292   */\n    tag_48:\n        /* \"#utility.yul\":12163:12167   */\n      0x00\n        /* \"#utility.yul\":12201:12203   */\n      0x20\n        /* \"#utility.yul\":12190:12199   */\n      dup3\n        /* \"#utility.yul\":12186:12204   */\n      add\n        /* \"#utility.yul\":12178:12204   */\n      swap1\n      pop\n        /* \"#utility.yul\":12214:12285   */\n      tag_342\n        /* \"#utility.yul\":12282:12283   */\n      0x00\n        /* \"#utility.yul\":12271:12280   */\n      dup4\n        /* \"#utility.yul\":12267:12284   */\n      add\n        /* \"#utility.yul\":12258:12264   */\n      dup5\n        /* \"#utility.yul\":12214:12285   */\n      tag_174\n      jump\t// in\n    tag_342:\n        /* \"#utility.yul\":12070:12292   */\n      swap3\n      swap2\n      pop\n      pop\n      jump\t// out\n        /* \"#utility.yul\":12298:12478   */\n    tag_175:\n        /* \"#utility.yul\":12346:12423   */\n      0x4e487b7100000000000000000000000000000000000000000000000000000000\n        /* \"#utility.yul\":12343:12344   */\n      0x00\n        /* \"#utility.yul\":12336:12424   */\n      mstore\n        /* \"#utility.yul\":12443:12447   */\n      0x22\n        /* \"#utility.yul\":12440:12441   */\n      0x04\n        /* \"#utility.yul\":12433:12448   */\n      mstore\n        /* \"#utility.yul\":12467:12471   */\n      0x24\n        /* \"#utility.yul\":12464:12465   */\n      0x00\n        /* \"#utility.yul\":12457:12472   */\n      revert\n        /* \"#utility.yul\":12484:12804   */\n    tag_50:\n        /* \"#utility.yul\":12528:12534   */\n      0x00\n        /* \"#utility.yul\":12565:12566   */\n      0x02\n        /* \"#utility.yul\":12559:12563   */\n      dup3\n        /* \"#utility.yul\":12555:12567   */\n      div\n        /* \"#utility.yul\":12545:12567   */\n      swap1\n      pop\n        /* \"#utility.yul\":12612:12613   */\n      0x01\n        /* \"#utility.yul\":12606:12610   */\n      dup3\n        /* \"#utility.yul\":12602:12614   */\n      and\n        /* \"#utility.yul\":12633:12651   */\n      dup1\n        /* \"#utility.yul\":12623:12704   */\n      tag_345\n      jumpi\n        /* \"#utility.yul\":12689:12693   */\n      0x7f\n        /* \"#utility.yul\":12681:12687   */\n      dup3\n        /* \"#utility.yul\":12677:12694   */\n      and\n        /* \"#utility.yul\":12667:12694   */\n      swap2\n      pop\n        /* \"#utility.yul\":12623:12704   */\n    tag_345:\n        /* \"#utility.yul\":12751:12753   */\n      0x20\n        /* \"#utility.yul\":12743:12749   */\n      dup3\n        /* \"#utility.yul\":12740:12754   */\n      lt\n        /* \"#utility.yul\":12720:12738   */\n      dup2\n        /* \"#utility.yul\":12717:12755   */\n      sub\n        /* \"#utility.yul\":12714:12798   */\n      tag_346\n      jumpi\n        /* \"#utility.yul\":12770:12788   */\n      tag_347\n      tag_175\n      jump\t// in\n    tag_347:\n        /* \"#utility.yul\":12714:12798   */\n    tag_346:\n        /* \"#utility.yul\":12535:12804   */\n      pop\n        /* \"#utility.yul\":12484:12804   */\n      swap2\n      swap1\n      pop\n      jump\t// out\n        /* \"#utility.yul\":12810:13036   */\n    tag_176:\n        /* \"#utility.yul\":12950:12984   */\n      0x4f6e6c792076616c69646174696f6e20636f6e74726163742063616e20636f6e\n        /* \"#utility.yul\":12946:12947   */\n      0x00\n        /* \"#utility.yul\":12938:12944   */\n      dup3\n        /* \"#utility.yul\":12934:12948   */\n      add\n        /* \"#utility.yul\":12927:12985   */\n      mstore\n        /* \"#utility.yul\":13019:13028   */\n      0x6669736361746500000000000000000000000000000000000000000000000000\n        /* \"#utility.yul\":13014:13016   */\n      0x20\n        /* \"#utility.yul\":13006:13012   */\n      dup3\n        /* \"#utility.yul\":13002:13017   */\n      add\n        /* \"#utility.yul\":12995:13029   */\n      mstore\n        /* \"#utility.yul\":12810:13036   */\n      pop\n      jump\t// out\n        /* \"#utility.yul\":13042:13408   */\n    tag_177:\n        /* \"#utility.yul\":13184:13187   */\n      0x00\n        /* \"#utility.yul\":13205:13272   */\n      tag_350\n        /* \"#utility.yul\":13269:13271   */\n      0x27\n        /* \"#utility.yul\":13264:13267   */\n      dup4\n        /* \"#utility.yul\":13205:13272   */\n      tag_147\n      jump\t// in\n    tag_350:\n        /* \"#utility.yul\":13198:13272   */\n      swap2\n      pop\n        /* \"#utility.yul\":13281:13374   */\n      tag_351\n        /* \"#utility.yul\":13370:13373   */\n      dup3\n        /* \"#utility.yul\":13281:13374   */\n      tag_176\n      jump\t// in\n    tag_351:\n        /* \"#utility.yul\":13399:13401   */\n      0x40\n        /* \"#utility.yul\":13394:13397   */\n      dup3\n        /* \"#utility.yul\":13390:13402   */\n      add\n        /* \"#utility.yul\":13383:13402   */\n      swap1\n      pop\n        /* \"#utility.yul\":13042:13408   */\n      swap2\n      swap1\n      pop\n      jump\t// out\n        /* \"#utility.yul\":13414:13833   */\n    tag_61:\n        /* \"#utility.yul\":13580:13584   */\n      0x00\n        /* \"#utility.yul\":13618:13620   */\n      0x20\n        /* \"#utility.yul\":13607:13616   */\n      dup3\n        /* \"#utility.yul\":13603:13621   */\n      add\n        /* \"#utility.yul\":13595:13621   */\n      swap1\n      pop\n        /* \"#utility.yul\":13667:13676   */\n      dup2\n        /* \"#utility.yul\":13661:13665   */\n      dup2\n        /* \"#utility.yul\":13657:13677   */\n      sub\n        /* \"#utility.yul\":13653:13654   */\n      0x00\n        /* \"#utility.yul\":13642:13651   */\n      dup4\n        /* \"#utility.yul\":13638:13655   */\n      add\n        /* \"#utility.yul\":13631:13678   */\n      mstore\n        /* \"#utility.yul\":13695:13826   */\n      tag_353\n        /* \"#utility.yul\":13821:13825   */\n      dup2\n        /* \"#utility.yul\":13695:13826   */\n      tag_177\n      jump\t// in\n    tag_353:\n        /* \"#utility.yul\":13687:13826   */\n      swap1\n      pop\n        /* \"#utility.yul\":13414:13833   */\n      swap2\n      swap1\n      pop\n      jump\t// out\n        /* \"#utility.yul\":13839:14011   */\n    tag_178:\n        /* \"#utility.yul\":13979:14003   */\n      0x4e6f2066756e647320746f20636f6e6669736361746500000000000000000000\n        /* \"#utility.yul\":13975:13976   */\n      0x00\n        /* \"#utility.yul\":13967:13973   */\n      dup3\n        /* \"#utility.yul\":13963:13977   */\n      add\n        /* \"#utility.yul\":13956:14004   */\n      mstore\n        /* \"#utility.yul\":13839:14011   */\n      pop\n      jump\t// out\n        /* \"#utility.yul\":14017:14383   */\n    tag_179:\n        /* \"#utility.yul\":14159:14162   */\n      0x00\n        /* \"#utility.yul\":14180:14247   */\n      tag_356\n        /* \"#utility.yul\":14244:14246   */\n      0x16\n        /* \"#utility.yul\":14239:14242   */\n      dup4\n        /* \"#utility.yul\":14180:14247   */\n      tag_147\n      jump\t// in\n    tag_356:\n        /* \"#utility.yul\":14173:14247   */\n      swap2\n      pop\n        /* \"#utility.yul\":14256:14349   */\n      tag_357\n        /* \"#utility.yul\":14345:14348   */\n      dup3\n        /* \"#utility.yul\":14256:14349   */\n      tag_178\n      jump\t// in\n    tag_357:\n        /* \"#utility.yul\":14374:14376   */\n      0x20\n        /* \"#utility.yul\":14369:14372   */\n      dup3\n        /* \"#utility.yul\":14365:14377   */\n      add\n        /* \"#utility.yul\":14358:14377   */\n      swap1\n      pop\n        /* \"#utility.yul\":14017:14383   */\n      swap2\n      swap1\n      pop\n      jump\t// out\n        /* \"#utility.yul\":14389:14808   */\n    tag_64:\n        /* \"#utility.yul\":14555:14559   */\n      0x00\n        /* \"#utility.yul\":14593:14595   */\n      0x20\n        /* \"#utility.yul\":14582:14591   */\n      dup3\n        /* \"#utility.yul\":14578:14596   */\n      add\n        /* \"#utility.yul\":14570:14596   */\n      swap1\n      pop\n        /* \"#utility.yul\":14642:14651   */\n      dup2\n        /* \"#utility.yul\":14636:14640   */\n      dup2\n        /* \"#utility.yul\":14632:14652   */\n      sub\n        /* \"#utility.yul\":14628:14629   */\n      0x00\n        /* \"#utility.yul\":14617:14626   */\n      dup4\n        /* \"#utility.yul\":14613:14630   */\n      add\n        /* \"#utility.yul\":14606:14653   */\n      mstore\n        /* \"#utility.yul\":14670:14801   */\n      tag_359\n        /* \"#utility.yul\":14796:14800   */\n      dup2\n        /* \"#utility.yul\":14670:14801   */\n      tag_179\n      jump\t// in\n    tag_359:\n        /* \"#utility.yul\":14662:14801   */\n      swap1\n      pop\n        /* \"#utility.yul\":14389:14808   */\n      swap2\n      swap1\n      pop\n      jump\t// out\n        /* \"#utility.yul\":14814:15034   */\n    tag_180:\n        /* \"#utility.yul\":14954:14988   */\n      0x416d6f756e74206d7573742062652067726561746572207468616e207a65726f\n        /* \"#utility.yul\":14950:14951   */\n      0x00\n        /* \"#utility.yul\":14942:14948   */\n      dup3\n        /* \"#utility.yul\":14938:14952   */\n      add\n        /* \"#utility.yul\":14931:14989   */\n      mstore\n        /* \"#utility.yul\":15023:15026   */\n      0x2e00000000000000000000000000000000000000000000000000000000000000\n        /* \"#utility.yul\":15018:15020   */\n      0x20\n        /* \"#utility.yul\":15010:15016   */\n      dup3\n        /* \"#utility.yul\":15006:15021   */\n      add\n        /* \"#utility.yul\":14999:15027   */\n      mstore\n        /* \"#utility.yul\":14814:15034   */\n      pop\n      jump\t// out\n        /* \"#utility.yul\":15040:15406   */\n    tag_181:\n        /* \"#utility.yul\":15182:15185   */\n      0x00\n        /* \"#utility.yul\":15203:15270   */\n      tag_362\n        /* \"#utility.yul\":15267:15269   */\n      0x21\n        /* \"#utility.yul\":15262:15265   */\n      dup4\n        /* \"#utility.yul\":15203:15270   */\n      tag_147\n      jump\t// in\n    tag_362:\n        /* \"#utility.yul\":15196:15270   */\n      swap2\n      pop\n        /* \"#utility.yul\":15279:15372   */\n      tag_363\n        /* \"#utility.yul\":15368:15371   */\n      dup3\n        /* \"#utility.yul\":15279:15372   */\n      tag_180\n      jump\t// in\n    tag_363:\n        /* \"#utility.yul\":15397:15399   */\n      0x40\n        /* \"#utility.yul\":15392:15395   */\n      dup3\n        /* \"#utility.yul\":15388:15400   */\n      add\n        /* \"#utility.yul\":15381:15400   */\n      swap1\n      pop\n        /* \"#utility.yul\":15040:15406   */\n      swap2\n      swap1\n      pop\n      jump\t// out\n        /* \"#utility.yul\":15412:15831   */\n    tag_69:\n        /* \"#utility.yul\":15578:15582   */\n      0x00\n        /* \"#utility.yul\":15616:15618   */\n      0x20\n        /* \"#utility.yul\":15605:15614   */\n      dup3\n        /* \"#utility.yul\":15601:15619   */\n      add\n        /* \"#utility.yul\":15593:15619   */\n      swap1\n      pop\n        /* \"#utility.yul\":15665:15674   */\n      dup2\n        /* \"#utility.yul\":15659:15663   */\n      dup2\n        /* \"#utility.yul\":15655:15675   */\n      sub\n        /* \"#utility.yul\":15651:15652   */\n      0x00\n        /* \"#utility.yul\":15640:15649   */\n      dup4\n        /* \"#utility.yul\":15636:15653   */\n      add\n        /* \"#utility.yul\":15629:15676   */\n      mstore\n        /* \"#utility.yul\":15693:15824   */\n      tag_365\n        /* \"#utility.yul\":15819:15823   */\n      dup2\n        /* \"#utility.yul\":15693:15824   */\n      tag_181\n      jump\t// in\n    tag_365:\n        /* \"#utility.yul\":15685:15824   */\n      swap1\n      pop\n        /* \"#utility.yul\":15412:15831   */\n      swap2\n      swap1\n      pop\n      jump\t// out\n        /* \"#utility.yul\":15837:15931   */\n    tag_182:\n        /* \"#utility.yul\":15870:15878   */\n      0x00\n        /* \"#utility.yul\":15918:15923   */\n      dup2\n        /* \"#utility.yul\":15914:15916   */\n      0x60\n        /* \"#utility.yul\":15910:15924   */\n      shl\n        /* \"#utility.yul\":15889:15924   */\n      swap1\n      pop\n        /* \"#utility.yul\":15837:15931   */\n      swap2\n      swap1\n      pop\n      jump\t// out\n        /* \"#utility.yul\":15937:16031   */\n    tag_183:\n        /* \"#utility.yul\":15976:15983   */\n      0x00\n        /* \"#utility.yul\":16005:16025   */\n      tag_368\n        /* \"#utility.yul\":16019:16024   */\n      dup3\n        /* \"#utility.yul\":16005:16025   */\n      tag_182\n      jump\t// in\n    tag_368:\n        /* \"#utility.yul\":15994:16025   */\n      swap1\n      pop\n        /* \"#utility.yul\":15937:16031   */\n      swap2\n      swap1\n      pop\n      jump\t// out\n        /* \"#utility.yul\":16037:16137   */\n    tag_184:\n        /* \"#utility.yul\":16076:16083   */\n      0x00\n        /* \"#utility.yul\":16105:16131   */\n      tag_370\n        /* \"#utility.yul\":16125:16130   */\n      dup3\n        /* \"#utility.yul\":16105:16131   */\n      tag_183\n      jump\t// in\n    tag_370:\n        /* \"#utility.yul\":16094:16131   */\n      swap1\n      pop\n        /* \"#utility.yul\":16037:16137   */\n      swap2\n      swap1\n      pop\n      jump\t// out\n        /* \"#utility.yul\":16143:16300   */\n    tag_185:\n        /* \"#utility.yul\":16248:16293   */\n      tag_372\n        /* \"#utility.yul\":16268:16292   */\n      tag_373\n        /* \"#utility.yul\":16286:16291   */\n      dup3\n        /* \"#utility.yul\":16268:16292   */\n      tag_142\n      jump\t// in\n    tag_373:\n        /* \"#utility.yul\":16248:16293   */\n      tag_184\n      jump\t// in\n    tag_372:\n        /* \"#utility.yul\":16243:16246   */\n      dup3\n        /* \"#utility.yul\":16236:16294   */\n      mstore\n        /* \"#utility.yul\":16143:16300   */\n      pop\n      pop\n      jump\t// out\n        /* \"#utility.yul\":16306:16454   */\n    tag_186:\n        /* \"#utility.yul\":16408:16419   */\n      0x00\n        /* \"#utility.yul\":16445:16448   */\n      dup2\n        /* \"#utility.yul\":16430:16448   */\n      swap1\n      pop\n        /* \"#utility.yul\":16306:16454   */\n      swap3\n      swap2\n      pop\n      pop\n      jump\t// out\n        /* \"#utility.yul\":16460:16850   */\n    tag_187:\n        /* \"#utility.yul\":16566:16569   */\n      0x00\n        /* \"#utility.yul\":16594:16633   */\n      tag_376\n        /* \"#utility.yul\":16627:16632   */\n      dup3\n        /* \"#utility.yul\":16594:16633   */\n      tag_146\n      jump\t// in\n    tag_376:\n        /* \"#utility.yul\":16649:16738   */\n      tag_377\n        /* \"#utility.yul\":16731:16737   */\n      dup2\n        /* \"#utility.yul\":16726:16729   */\n      dup6\n        /* \"#utility.yul\":16649:16738   */\n      tag_186\n      jump\t// in\n    tag_377:\n        /* \"#utility.yul\":16642:16738   */\n      swap4\n      pop\n        /* \"#utility.yul\":16747:16812   */\n      tag_378\n        /* \"#utility.yul\":16805:16811   */\n      dup2\n        /* \"#utility.yul\":16800:16803   */\n      dup6\n        /* \"#utility.yul\":16793:16797   */\n      0x20\n        /* \"#utility.yul\":16786:16791   */\n      dup7\n        /* \"#utility.yul\":16782:16798   */\n      add\n        /* \"#utility.yul\":16747:16812   */\n      tag_148\n      jump\t// in\n    tag_378:\n        /* \"#utility.yul\":16837:16843   */\n      dup1\n        /* \"#utility.yul\":16832:16835   */\n      dup5\n        /* \"#utility.yul\":16828:16844   */\n      add\n        /* \"#utility.yul\":16821:16844   */\n      swap2\n      pop\n        /* \"#utility.yul\":16570:16850   */\n      pop\n        /* \"#utility.yul\":16460:16850   */\n      swap3\n      swap2\n      pop\n      pop\n      jump\t// out\n        /* \"#utility.yul\":16856:16935   */\n    tag_188:\n        /* \"#utility.yul\":16895:16902   */\n      0x00\n        /* \"#utility.yul\":16924:16929   */\n      dup2\n        /* \"#utility.yul\":16913:16929   */\n      swap1\n      pop\n        /* \"#utility.yul\":16856:16935   */\n      swap2\n      swap1\n      pop\n      jump\t// out\n        /* \"#utility.yul\":16941:17098   */\n    tag_189:\n        /* \"#utility.yul\":17046:17091   */\n      tag_381\n        /* \"#utility.yul\":17066:17090   */\n      tag_382\n        /* \"#utility.yul\":17084:17089   */\n      dup3\n        /* \"#utility.yul\":17066:17090   */\n      tag_151\n      jump\t// in\n    tag_382:\n        /* \"#utility.yul\":17046:17091   */\n      tag_188\n      jump\t// in\n    tag_381:\n        /* \"#utility.yul\":17041:17044   */\n      dup3\n        /* \"#utility.yul\":17034:17092   */\n      mstore\n        /* \"#utility.yul\":16941:17098   */\n      pop\n      pop\n      jump\t// out\n        /* \"#utility.yul\":17104:17802   */\n    tag_73:\n        /* \"#utility.yul\":17320:17323   */\n      0x00\n        /* \"#utility.yul\":17335:17410   */\n      tag_384\n        /* \"#utility.yul\":17406:17409   */\n      dup3\n        /* \"#utility.yul\":17397:17403   */\n      dup8\n        /* \"#utility.yul\":17335:17410   */\n      tag_185\n      jump\t// in\n    tag_384:\n        /* \"#utility.yul\":17435:17437   */\n      0x14\n        /* \"#utility.yul\":17430:17433   */\n      dup3\n        /* \"#utility.yul\":17426:17438   */\n      add\n        /* \"#utility.yul\":17419:17438   */\n      swap2\n      pop\n        /* \"#utility.yul\":17455:17550   */\n      tag_385\n        /* \"#utility.yul\":17546:17549   */\n      dup3\n        /* \"#utility.yul\":17537:17543   */\n      dup7\n        /* \"#utility.yul\":17455:17550   */\n      tag_187\n      jump\t// in\n    tag_385:\n        /* \"#utility.yul\":17448:17550   */\n      swap2\n      pop\n        /* \"#utility.yul\":17560:17635   */\n      tag_386\n        /* \"#utility.yul\":17631:17634   */\n      dup3\n        /* \"#utility.yul\":17622:17628   */\n      dup6\n        /* \"#utility.yul\":17560:17635   */\n      tag_189\n      jump\t// in\n    tag_386:\n        /* \"#utility.yul\":17660:17662   */\n      0x20\n        /* \"#utility.yul\":17655:17658   */\n      dup3\n        /* \"#utility.yul\":17651:17663   */\n      add\n        /* \"#utility.yul\":17644:17663   */\n      swap2\n      pop\n        /* \"#utility.yul\":17673:17748   */\n      tag_387\n        /* \"#utility.yul\":17744:17747   */\n      dup3\n        /* \"#utility.yul\":17735:17741   */\n      dup5\n        /* \"#utility.yul\":17673:17748   */\n      tag_189\n      jump\t// in\n    tag_387:\n        /* \"#utility.yul\":17773:17775   */\n      0x20\n        /* \"#utility.yul\":17768:17771   */\n      dup3\n        /* \"#utility.yul\":17764:17776   */\n      add\n        /* \"#utility.yul\":17757:17776   */\n      swap2\n      pop\n        /* \"#utility.yul\":17793:17796   */\n      dup2\n        /* \"#utility.yul\":17786:17796   */\n      swap1\n      pop\n        /* \"#utility.yul\":17104:17802   */\n      swap6\n      swap5\n      pop\n      pop\n      pop\n      pop\n      pop\n      jump\t// out\n        /* \"#utility.yul\":17808:17949   */\n    tag_190:\n        /* \"#utility.yul\":17857:17861   */\n      0x00\n        /* \"#utility.yul\":17880:17883   */\n      dup2\n        /* \"#utility.yul\":17872:17883   */\n      swap1\n      pop\n        /* \"#utility.yul\":17903:17906   */\n      dup2\n        /* \"#utility.yul\":17900:17901   */\n      0x00\n        /* \"#utility.yul\":17893:17907   */\n      mstore\n        /* \"#utility.yul\":17937:17941   */\n      0x20\n        /* \"#utility.yul\":17934:17935   */\n      0x00\n        /* \"#utility.yul\":17924:17942   */\n      keccak256\n        /* \"#utility.yul\":17916:17942   */\n      swap1\n      pop\n        /* \"#utility.yul\":17808:17949   */\n      swap2\n      swap1\n      pop\n      jump\t// out\n        /* \"#utility.yul\":17955:18048   */\n    tag_191:\n        /* \"#utility.yul\":17992:17998   */\n      0x00\n        /* \"#utility.yul\":18039:18041   */\n      0x20\n        /* \"#utility.yul\":18034:18036   */\n      0x1f\n        /* \"#utility.yul\":18027:18032   */\n      dup4\n        /* \"#utility.yul\":18023:18037   */\n      add\n        /* \"#utility.yul\":18019:18042   */\n      div\n        /* \"#utility.yul\":18009:18042   */\n      swap1\n      pop\n        /* \"#utility.yul\":17955:18048   */\n      swap2\n      swap1\n      pop\n      jump\t// out\n        /* \"#utility.yul\":18054:18161   */\n    tag_192:\n        /* \"#utility.yul\":18098:18106   */\n      0x00\n        /* \"#utility.yul\":18148:18153   */\n      dup3\n        /* \"#utility.yul\":18142:18146   */\n      dup3\n        /* \"#utility.yul\":18138:18154   */\n      shl\n        /* \"#utility.yul\":18117:18154   */\n      swap1\n      pop\n        /* \"#utility.yul\":18054:18161   */\n      swap3\n      swap2\n      pop\n      pop\n      jump\t// out\n        /* \"#utility.yul\":18167:18560   */\n    tag_193:\n        /* \"#utility.yul\":18236:18242   */\n      0x00\n        /* \"#utility.yul\":18286:18287   */\n      0x08\n        /* \"#utility.yul\":18274:18284   */\n      dup4\n        /* \"#utility.yul\":18270:18288   */\n      mul\n        /* \"#utility.yul\":18309:18406   */\n      tag_392\n        /* \"#utility.yul\":18339:18405   */\n      0xffffffffffffffffffffffffffffffffffffffffffffffffffffffffffffffff\n        /* \"#utility.yul\":18328:18337   */\n      dup3\n        /* \"#utility.yul\":18309:18406   */\n      tag_192\n      jump\t// in\n    tag_392:\n        /* \"#utility.yul\":18427:18466   */\n      tag_393\n        /* \"#utility.yul\":18457:18465   */\n      dup7\n        /* \"#utility.yul\":18446:18455   */\n      dup4\n        /* \"#utility.yul\":18427:18466   */\n      tag_192\n      jump\t// in\n    tag_393:\n        /* \"#utility.yul\":18415:18466   */\n      swap6\n      pop\n        /* \"#utility.yul\":18499:18503   */\n      dup1\n        /* \"#utility.yul\":18495:18504   */\n      not\n        /* \"#utility.yul\":18488:18493   */\n      dup5\n        /* \"#utility.yul\":18484:18505   */\n      and\n        /* \"#utility.yul\":18475:18505   */\n      swap4\n      pop\n        /* \"#utility.yul\":18548:18552   */\n      dup1\n        /* \"#utility.yul\":18538:18546   */\n      dup7\n        /* \"#utility.yul\":18534:18553   */\n      and\n        /* \"#utility.yul\":18527:18532   */\n      dup5\n        /* \"#utility.yul\":18524:18554   */\n      or\n        /* \"#utility.yul\":18514:18554   */\n      swap3\n      pop\n        /* \"#utility.yul\":18243:18560   */\n      pop\n      pop\n        /* \"#utility.yul\":18167:18560   */\n      swap4\n      swap3\n      pop\n      pop\n      pop\n      jump\t// out\n        /* \"#utility.yul\":18566:18626   */\n    tag_194:\n        /* \"#utility.yul\":18594:18597   */\n      0x00\n        /* \"#utility.yul\":18615:18620   */\n      dup2\n        /* \"#utility.yul\":18608:18620   */\n      swap1\n      pop\n        /* \"#utility.yul\":18566:18626   */\n      swap2\n      swap1\n      pop\n      jump\t// out\n        /* \"#utility.yul\":18632:18774   */\n    tag_195:\n        /* \"#utility.yul\":18682:18691   */\n      0x00\n        /* \"#utility.yul\":18715:18768   */\n      tag_396\n        /* \"#utility.yul\":18733:18767   */\n      tag_397\n        /* \"#utility.yul\":18742:18766   */\n      tag_398\n        /* \"#utility.yul\":18760:18765   */\n      dup5\n        /* \"#utility.yul\":18742:18766   */\n      tag_151\n      jump\t// in\n    tag_398:\n        /* \"#utility.yul\":18733:18767   */\n      tag_194\n      jump\t// in\n    tag_397:\n        /* \"#utility.yul\":18715:18768   */\n      tag_151\n      jump\t// in\n    tag_396:\n        /* \"#utility.yul\":18702:18768   */\n      swap1\n      pop\n        /* \"#utility.yul\":18632:18774   */\n      swap2\n      swap1\n      pop\n      jump\t// out\n        /* \"#utility.yul\":18780:18855   */\n    tag_196:\n        /* \"#utility.yul\":18823:18826   */\n      0x00\n        /* \"#utility.yul\":18844:18849   */\n      dup2\n        /* \"#utility.yul\":18837:18849   */\n      swap1\n      pop\n        /* \"#utility.yul\":18780:18855   */\n      swap2\n      swap1\n      pop\n      jump\t// out\n        /* \"#utility.yul\":18861:19130   */\n    tag_197:\n        /* \"#utility.yul\":18971:19010   */\n      tag_401\n        /* \"#utility.yul\":19002:19009   */\n      dup4\n        /* \"#utility.yul\":18971:19010   */\n      tag_195\n      jump\t// in\n    tag_401:\n        /* \"#utility.yul\":19032:19123   */\n      tag_402\n        /* \"#utility.yul\":19081:19122   */\n      tag_403\n        /* \"#utility.yul\":19105:19121   */\n      dup3\n        /* \"#utility.yul\":19081:19122   */\n      tag_196\n      jump\t// in\n    tag_403:\n        /* \"#utility.yul\":19073:19079   */\n      dup5\n        /* \"#utility.yul\":19066:19070   */\n      dup5\n        /* \"#utility.yul\":19060:19071   */\n      sload\n        /* \"#utility.yul\":19032:19123   */\n      tag_193\n      jump\t// in\n    tag_402:\n        /* \"#utility.yul\":19026:19030   */\n      dup3\n        /* \"#utility.yul\":19019:19124   */\n      sstore\n        /* \"#utility.yul\":18937:19130   */\n      pop\n        /* \"#utility.yul\":18861:19130   */\n      pop\n      pop\n      pop\n      jump\t// out\n        /* \"#utility.yul\":19136:19209   */\n    tag_198:\n        /* \"#utility.yul\":19181:19184   */\n      0x00\n        /* \"#utility.yul\":19136:19209   */\n      swap1\n      jump\t// out\n        /* \"#utility.yul\":19215:19404   */\n    tag_199:\n        /* \"#utility.yul\":19292:19324   */\n      tag_406\n      tag_198\n      jump\t// in\n    tag_406:\n        /* \"#utility.yul\":19333:19398   */\n      tag_407\n        /* \"#utility.yul\":19391:19397   */\n      dup2\n        /* \"#utility.yul\":19383:19389   */\n      dup5\n        /* \"#utility.yul\":19377:19381   */\n      dup5\n        /* \"#utility.yul\":19333:19398   */\n      tag_197\n      jump\t// in\n    tag_407:\n        /* \"#utility.yul\":19268:19404   */\n      pop\n        /* \"#utility.yul\":19215:19404   */\n      pop\n      pop\n      jump\t// out\n        /* \"#utility.yul\":19410:19596   */\n    tag_200:\n        /* \"#utility.yul\":19470:19590   */\n    tag_409:\n        /* \"#utility.yul\":19487:19490   */\n      dup2\n        /* \"#utility.yul\":19480:19485   */\n      dup2\n        /* \"#utility.yul\":19477:19491   */\n      lt\n        /* \"#utility.yul\":19470:19590   */\n      iszero\n      tag_411\n      jumpi\n        /* \"#utility.yul\":19541:19580   */\n      tag_412\n        /* \"#utility.yul\":19578:19579   */\n      0x00\n        /* \"#utility.yul\":19571:19576   */\n      dup3\n        /* \"#utility.yul\":19541:19580   */\n      tag_199\n      jump\t// in\n    tag_412:\n        /* \"#utility.yul\":19514:19515   */\n      0x01\n        /* \"#utility.yul\":19507:19512   */\n      dup2\n        /* \"#utility.yul\":19503:19516   */\n      add\n        /* \"#utility.yul\":19494:19516   */\n      swap1\n      pop\n        /* \"#utility.yul\":19470:19590   */\n      jump(tag_409)\n    tag_411:\n        /* \"#utility.yul\":19410:19596   */\n      pop\n      pop\n      jump\t// out\n        /* \"#utility.yul\":19602:20145   */\n    tag_201:\n        /* \"#utility.yul\":19703:19705   */\n      0x1f\n        /* \"#utility.yul\":19698:19701   */\n      dup3\n        /* \"#utility.yul\":19695:19706   */\n      gt\n        /* \"#utility.yul\":19692:20138   */\n      iszero\n      tag_414\n      jumpi\n        /* \"#utility.yul\":19737:19775   */\n      tag_415\n        /* \"#utility.yul\":19769:19774   */\n      dup2\n        /* \"#utility.yul\":19737:19775   */\n      tag_190\n      jump\t// in\n    tag_415:\n        /* \"#utility.yul\":19821:19850   */\n      tag_416\n        /* \"#utility.yul\":19839:19849   */\n      dup5\n        /* \"#utility.yul\":19821:19850   */\n      tag_191\n      jump\t// in\n    tag_416:\n        /* \"#utility.yul\":19811:19819   */\n      dup2\n        /* \"#utility.yul\":19807:19851   */\n      add\n        /* \"#utility.yul\":20004:20006   */\n      0x20\n        /* \"#utility.yul\":19992:20002   */\n      dup6\n        /* \"#utility.yul\":19989:20007   */\n      lt\n        /* \"#utility.yul\":19986:20035   */\n      iszero\n      tag_417\n      jumpi\n        /* \"#utility.yul\":20025:20033   */\n      dup2\n        /* \"#utility.yul\":20010:20033   */\n      swap1\n      pop\n        /* \"#utility.yul\":19986:20035   */\n    tag_417:\n        /* \"#utility.yul\":20048:20128   */\n      tag_418\n        /* \"#utility.yul\":20104:20126   */\n      tag_419\n        /* \"#utility.yul\":20122:20125   */\n      dup6\n        /* \"#utility.yul\":20104:20126   */\n      tag_191\n      jump\t// in\n    tag_419:\n        /* \"#utility.yul\":20094:20102   */\n      dup4\n        /* \"#utility.yul\":20090:20127   */\n      add\n        /* \"#utility.yul\":20077:20088   */\n      dup3\n        /* \"#utility.yul\":20048:20128   */\n      tag_200\n      jump\t// in\n    tag_418:\n        /* \"#utility.yul\":19707:20138   */\n      pop\n      pop\n        /* \"#utility.yul\":19692:20138   */\n    tag_414:\n        /* \"#utility.yul\":19602:20145   */\n      pop\n      pop\n      pop\n      jump\t// out\n        /* \"#utility.yul\":20151:20268   */\n    tag_202:\n        /* \"#utility.yul\":20205:20213   */\n      0x00\n        /* \"#utility.yul\":20255:20260   */\n      dup3\n        /* \"#utility.yul\":20249:20253   */\n      dup3\n        /* \"#utility.yul\":20245:20261   */\n      shr\n        /* \"#utility.yul\":20224:20261   */\n      swap1\n      pop\n        /* \"#utility.yul\":20151:20268   */\n      swap3\n      swap2\n      pop\n      pop\n      jump\t// out\n        /* \"#utility.yul\":20274:20443   */\n    tag_203:\n        /* \"#utility.yul\":20318:20324   */\n      0x00\n        /* \"#utility.yul\":20351:20402   */\n      tag_422\n        /* \"#utility.yul\":20399:20400   */\n      0x00\n        /* \"#utility.yul\":20395:20401   */\n      not\n        /* \"#utility.yul\":20387:20392   */\n      dup5\n        /* \"#utility.yul\":20384:20385   */\n      0x08\n        /* \"#utility.yul\":20380:20393   */\n      mul\n        /* \"#utility.yul\":20351:20402   */\n      tag_202\n      jump\t// in\n    tag_422:\n        /* \"#utility.yul\":20347:20403   */\n      not\n        /* \"#utility.yul\":20432:20436   */\n      dup1\n        /* \"#utility.yul\":20426:20430   */\n      dup4\n        /* \"#utility.yul\":20422:20437   */\n      and\n        /* \"#utility.yul\":20412:20437   */\n      swap2\n      pop\n        /* \"#utility.yul\":20325:20443   */\n      pop\n        /* \"#utility.yul\":20274:20443   */\n      swap3\n      swap2\n      pop\n      pop\n      jump\t// out\n        /* \"#utility.yul\":20448:20743   */\n    tag_204:\n        /* \"#utility.yul\":20524:20528   */\n      0x00\n        /* \"#utility.yul\":20670:20699   */\n      tag_424\n        /* \"#utility.yul\":20695:20698   */\n      dup4\n        /* \"#utility.yul\":20689:20693   */\n      dup4\n        /* \"#utility.yul\":20670:20699   */\n      tag_203\n      jump\t// in\n    tag_424:\n        /* \"#utility.yul\":20662:20699   */\n      swap2\n      pop\n        /* \"#utility.yul\":20732:20735   */\n      dup3\n        /* \"#utility.yul\":20729:20730   */\n      0x02\n        /* \"#utility.yul\":20725:20736   */\n      mul\n        /* \"#utility.yul\":20719:20723   */\n      dup3\n        /* \"#utility.yul\":20716:20737   */\n      or\n        /* \"#utility.yul\":20708:20737   */\n      swap1\n      pop\n        /* \"#utility.yul\":20448:20743   */\n      swap3\n      swap2\n      pop\n      pop\n      jump\t// out\n        /* \"#utility.yul\":20748:22143   */\n    tag_75:\n        /* \"#utility.yul\":20865:20902   */\n      tag_426\n        /* \"#utility.yul\":20898:20901   */\n      dup3\n        /* \"#utility.yul\":20865:20902   */\n      tag_146\n      jump\t// in\n    tag_426:\n        /* \"#utility.yul\":20967:20985   */\n      0xffffffffffffffff\n        /* \"#utility.yul\":20959:20965   */\n      dup2\n        /* \"#utility.yul\":20956:20986   */\n      gt\n        /* \"#utility.yul\":20953:21009   */\n      iszero\n      tag_427\n      jumpi\n        /* \"#utility.yul\":20989:21007   */\n      tag_428\n      tag_157\n      jump\t// in\n    tag_428:\n        /* \"#utility.yul\":20953:21009   */\n    tag_427:\n        /* \"#utility.yul\":21033:21071   */\n      tag_429\n        /* \"#utility.yul\":21065:21069   */\n      dup3\n        /* \"#utility.yul\":21059:21070   */\n      sload\n        /* \"#utility.yul\":21033:21071   */\n      tag_50\n      jump\t// in\n    tag_429:\n        /* \"#utility.yul\":21118:21185   */\n      tag_430\n        /* \"#utility.yul\":21178:21184   */\n      dup3\n        /* \"#utility.yul\":21170:21176   */\n      dup3\n        /* \"#utility.yul\":21164:21168   */\n      dup6\n        /* \"#utility.yul\":21118:21185   */\n      tag_201\n      jump\t// in\n    tag_430:\n        /* \"#utility.yul\":21212:21213   */\n      0x00\n        /* \"#utility.yul\":21236:21240   */\n      0x20\n        /* \"#utility.yul\":21223:21240   */\n      swap1\n      pop\n        /* \"#utility.yul\":21268:21270   */\n      0x1f\n        /* \"#utility.yul\":21260:21266   */\n      dup4\n        /* \"#utility.yul\":21257:21271   */\n      gt\n        /* \"#utility.yul\":21285:21286   */\n      0x01\n        /* \"#utility.yul\":21280:21898   */\n      dup2\n      eq\n      tag_432\n      jumpi\n        /* \"#utility.yul\":21942:21943   */\n      0x00\n        /* \"#utility.yul\":21959:21965   */\n      dup5\n        /* \"#utility.yul\":21956:22033   */\n      iszero\n      tag_433\n      jumpi\n        /* \"#utility.yul\":22008:22017   */\n      dup3\n        /* \"#utility.yul\":22003:22006   */\n      dup8\n        /* \"#utility.yul\":21999:22018   */\n      add\n        /* \"#utility.yul\":21993:22019   */\n      mload\n        /* \"#utility.yul\":21984:22019   */\n      swap1\n      pop\n        /* \"#utility.yul\":21956:22033   */\n    tag_433:\n        /* \"#utility.yul\":22059:22126   */\n      tag_434\n        /* \"#utility.yul\":22119:22125   */\n      dup6\n        /* \"#utility.yul\":22112:22117   */\n      dup3\n        /* \"#utility.yul\":22059:22126   */\n      tag_204\n      jump\t// in\n    tag_434:\n        /* \"#utility.yul\":22053:22057   */\n      dup7\n        /* \"#utility.yul\":22046:22127   */\n      sstore\n        /* \"#utility.yul\":21915:22137   */\n      pop\n        /* \"#utility.yul\":21250:22137   */\n      jump(tag_431)\n        /* \"#utility.yul\":21280:21898   */\n    tag_432:\n        /* \"#utility.yul\":21332:21336   */\n      0x1f\n        /* \"#utility.yul\":21328:21337   */\n      not\n        /* \"#utility.yul\":21320:21326   */\n      dup5\n        /* \"#utility.yul\":21316:21338   */\n      and\n        /* \"#utility.yul\":21366:21403   */\n      tag_435\n        /* \"#utility.yul\":21398:21402   */\n      dup7\n        /* \"#utility.yul\":21366:21403   */\n      tag_190\n      jump\t// in\n    tag_435:\n        /* \"#utility.yul\":21425:21426   */\n      0x00\n        /* \"#utility.yul\":21439:21647   */\n    tag_436:\n        /* \"#utility.yul\":21453:21460   */\n      dup3\n        /* \"#utility.yul\":21450:21451   */\n      dup2\n        /* \"#utility.yul\":21447:21461   */\n      lt\n        /* \"#utility.yul\":21439:21647   */\n      iszero\n      tag_438\n      jumpi\n        /* \"#utility.yul\":21532:21541   */\n      dup5\n        /* \"#utility.yul\":21527:21530   */\n      dup10\n        /* \"#utility.yul\":21523:21542   */\n      add\n        /* \"#utility.yul\":21517:21543   */\n      mload\n        /* \"#utility.yul\":21509:21515   */\n      dup3\n        /* \"#utility.yul\":21502:21544   */\n      sstore\n        /* \"#utility.yul\":21583:21584   */\n      0x01\n        /* \"#utility.yul\":21575:21581   */\n      dup3\n        /* \"#utility.yul\":21571:21585   */\n      add\n        /* \"#utility.yul\":21561:21585   */\n      swap2\n      pop\n        /* \"#utility.yul\":21630:21632   */\n      0x20\n        /* \"#utility.yul\":21619:21628   */\n      dup6\n        /* \"#utility.yul\":21615:21633   */\n      add\n        /* \"#utility.yul\":21602:21633   */\n      swap5\n      pop\n        /* \"#utility.yul\":21476:21480   */\n      0x20\n        /* \"#utility.yul\":21473:21474   */\n      dup2\n        /* \"#utility.yul\":21469:21481   */\n      add\n        /* \"#utility.yul\":21464:21481   */\n      swap1\n      pop\n        /* \"#utility.yul\":21439:21647   */\n      jump(tag_436)\n    tag_438:\n        /* \"#utility.yul\":21675:21681   */\n      dup7\n        /* \"#utility.yul\":21666:21673   */\n      dup4\n        /* \"#utility.yul\":21663:21682   */\n      lt\n        /* \"#utility.yul\":21660:21839   */\n      iszero\n      tag_439\n      jumpi\n        /* \"#utility.yul\":21733:21742   */\n      dup5\n        /* \"#utility.yul\":21728:21731   */\n      dup10\n        /* \"#utility.yul\":21724:21743   */\n      add\n        /* \"#utility.yul\":21718:21744   */\n      mload\n        /* \"#utility.yul\":21776:21824   */\n      tag_440\n        /* \"#utility.yul\":21818:21822   */\n      0x1f\n        /* \"#utility.yul\":21810:21816   */\n      dup10\n        /* \"#utility.yul\":21806:21823   */\n      and\n        /* \"#utility.yul\":21795:21804   */\n      dup3\n        /* \"#utility.yul\":21776:21824   */\n      tag_203\n      jump\t// in\n    tag_440:\n        /* \"#utility.yul\":21768:21774   */\n      dup4\n        /* \"#utility.yul\":21761:21825   */\n      sstore\n        /* \"#utility.yul\":21683:21839   */\n      pop\n        /* \"#utility.yul\":21660:21839   */\n    tag_439:\n        /* \"#utility.yul\":21885:21886   */\n      0x01\n        /* \"#utility.yul\":21881:21882   */\n      0x02\n        /* \"#utility.yul\":21873:21879   */\n      dup9\n        /* \"#utility.yul\":21869:21883   */\n      mul\n        /* \"#utility.yul\":21865:21887   */\n      add\n        /* \"#utility.yul\":21859:21863   */\n      dup9\n        /* \"#utility.yul\":21852:21888   */\n      sstore\n        /* \"#utility.yul\":21287:21898   */\n      pop\n      pop\n      pop\n        /* \"#utility.yul\":21250:22137   */\n    tag_431:\n      pop\n        /* \"#utility.yul\":20840:22143   */\n      pop\n      pop\n      pop\n        /* \"#utility.yul\":20748:22143   */\n      pop\n      pop\n      jump\t// out\n        /* \"#utility.yul\":22149:22793   */\n    tag_77:\n        /* \"#utility.yul\":22346:22350   */\n      0x00\n        /* \"#utility.yul\":22384:22387   */\n      0x80\n        /* \"#utility.yul\":22373:22382   */\n      dup3\n        /* \"#utility.yul\":22369:22388   */\n      add\n        /* \"#utility.yul\":22361:22388   */\n      swap1\n      pop\n        /* \"#utility.yul\":22398:22469   */\n      tag_442\n        /* \"#utility.yul\":22466:22467   */\n      0x00\n        /* \"#utility.yul\":22455:22464   */\n      dup4\n        /* \"#utility.yul\":22451:22468   */\n      add\n        /* \"#utility.yul\":22442:22448   */\n      dup8\n        /* \"#utility.yul\":22398:22469   */\n      tag_174\n      jump\t// in\n    tag_442:\n        /* \"#utility.yul\":22516:22525   */\n      dup2\n        /* \"#utility.yul\":22510:22514   */\n      dup2\n        /* \"#utility.yul\":22506:22526   */\n      sub\n        /* \"#utility.yul\":22501:22503   */\n      0x20\n        /* \"#utility.yul\":22490:22499   */\n      dup4\n        /* \"#utility.yul\":22486:22504   */\n      add\n        /* \"#utility.yul\":22479:22527   */\n      mstore\n        /* \"#utility.yul\":22544:22622   */\n      tag_443\n        /* \"#utility.yul\":22617:22621   */\n      dup2\n        /* \"#utility.yul\":22608:22614   */\n      dup7\n        /* \"#utility.yul\":22544:22622   */\n      tag_150\n      jump\t// in\n    tag_443:\n        /* \"#utility.yul\":22536:22622   */\n      swap1\n      pop\n        /* \"#utility.yul\":22632:22704   */\n      tag_444\n        /* \"#utility.yul\":22700:22702   */\n      0x40\n        /* \"#utility.yul\":22689:22698   */\n      dup4\n        /* \"#utility.yul\":22685:22703   */\n      add\n        /* \"#utility.yul\":22676:22682   */\n      dup6\n        /* \"#utility.yul\":22632:22704   */\n      tag_152\n      jump\t// in\n    tag_444:\n        /* \"#utility.yul\":22714:22786   */\n      tag_445\n        /* \"#utility.yul\":22782:22784   */\n      0x60\n        /* \"#utility.yul\":22771:22780   */\n      dup4\n        /* \"#utility.yul\":22767:22785   */\n      add\n        /* \"#utility.yul\":22758:22764   */\n      dup5\n        /* \"#utility.yul\":22714:22786   */\n      tag_152\n      jump\t// in\n    tag_445:\n        /* \"#utility.yul\":22149:22793   */\n      swap6\n      swap5\n      pop\n      pop\n      pop\n      pop\n      pop\n      jump\t// out\n        /* \"#utility.yul\":22799:23131   */\n    tag_83:\n        /* \"#utility.yul\":22920:22924   */\n      0x00\n        /* \"#utility.yul\":22958:22960   */\n      0x40\n        /* \"#utility.yul\":22947:22956   */\n      dup3\n        /* \"#utility.yul\":22943:22961   */\n      add\n        /* \"#utility.yul\":22935:22961   */\n      swap1\n      pop\n        /* \"#utility.yul\":22971:23042   */\n      tag_447\n        /* \"#utility.yul\":23039:23040   */\n      0x00\n        /* \"#utility.yul\":23028:23037   */\n      dup4\n        /* \"#utility.yul\":23024:23041   */\n      add\n        /* \"#utility.yul\":23015:23021   */\n      dup6\n        /* \"#utility.yul\":22971:23042   */\n      tag_145\n      jump\t// in\n    tag_447:\n        /* \"#utility.yul\":23052:23124   */\n      tag_448\n        /* \"#utility.yul\":23120:23122   */\n      0x20\n        /* \"#utility.yul\":23109:23118   */\n      dup4\n        /* \"#utility.yul\":23105:23123   */\n      add\n        /* \"#utility.yul\":23096:23102   */\n      dup5\n        /* \"#utility.yul\":23052:23124   */\n      tag_152\n      jump\t// in\n    tag_448:\n        /* \"#utility.yul\":22799:23131   */\n      swap4\n      swap3\n      pop\n      pop\n      pop\n      jump\t// out\n        /* \"#utility.yul\":23137:23310   */\n    tag_205:\n        /* \"#utility.yul\":23277:23302   */\n      0x4576656e7420616c7265616479206f636375727265642e000000000000000000\n        /* \"#utility.yul\":23273:23274   */\n      0x00\n        /* \"#utility.yul\":23265:23271   */\n      dup3\n        /* \"#utility.yul\":23261:23275   */\n      add\n        /* \"#utility.yul\":23254:23303   */\n      mstore\n        /* \"#utility.yul\":23137:23310   */\n      pop\n      jump\t// out\n        /* \"#utility.yul\":23316:23682   */\n    tag_206:\n        /* \"#utility.yul\":23458:23461   */\n      0x00\n        /* \"#utility.yul\":23479:23546   */\n      tag_451\n        /* \"#utility.yul\":23543:23545   */\n      0x17\n        /* \"#utility.yul\":23538:23541   */\n      dup4\n        /* \"#utility.yul\":23479:23546   */\n      tag_147\n      jump\t// in\n    tag_451:\n        /* \"#utility.yul\":23472:23546   */\n      swap2\n      pop\n        /* \"#utility.yul\":23555:23648   */\n      tag_452\n        /* \"#utility.yul\":23644:23647   */\n      dup3\n        /* \"#utility.yul\":23555:23648   */\n      tag_205\n      jump\t// in\n    tag_452:\n        /* \"#utility.yul\":23673:23675   */\n      0x20\n        /* \"#utility.yul\":23668:23671   */\n      dup3\n        /* \"#utility.yul\":23664:23676   */\n      add\n        /* \"#utility.yul\":23657:23676   */\n      swap1\n      pop\n        /* \"#utility.yul\":23316:23682   */\n      swap2\n      swap1\n      pop\n      jump\t// out\n        /* \"#utility.yul\":23688:24107   */\n    tag_89:\n        /* \"#utility.yul\":23854:23858   */\n      0x00\n        /* \"#utility.yul\":23892:23894   */\n      0x20\n        /* \"#utility.yul\":23881:23890   */\n      dup3\n        /* \"#utility.yul\":23877:23895   */\n      add\n        /* \"#utility.yul\":23869:23895   */\n      swap1\n      pop\n        /* \"#utility.yul\":23941:23950   */\n      dup2\n        /* \"#utility.yul\":23935:23939   */\n      dup2\n        /* \"#utility.yul\":23931:23951   */\n      sub\n        /* \"#utility.yul\":23927:23928   */\n      0x00\n        /* \"#utility.yul\":23916:23925   */\n      dup4\n        /* \"#utility.yul\":23912:23929   */\n      add\n        /* \"#utility.yul\":23905:23952   */\n      mstore\n        /* \"#utility.yul\":23969:24100   */\n      tag_454\n        /* \"#utility.yul\":24095:24099   */\n      dup2\n        /* \"#utility.yul\":23969:24100   */\n      tag_206\n      jump\t// in\n    tag_454:\n        /* \"#utility.yul\":23961:24100   */\n      swap1\n      pop\n        /* \"#utility.yul\":23688:24107   */\n      swap2\n      swap1\n      pop\n      jump\t// out\n        /* \"#utility.yul\":24113:24555   */\n    tag_94:\n        /* \"#utility.yul\":24262:24266   */\n      0x00\n        /* \"#utility.yul\":24300:24302   */\n      0x60\n        /* \"#utility.yul\":24289:24298   */\n      dup3\n        /* \"#utility.yul\":24285:24303   */\n      add\n        /* \"#utility.yul\":24277:24303   */\n      swap1\n      pop\n        /* \"#utility.yul\":24313:24384   */\n      tag_456\n        /* \"#utility.yul\":24381:24382   */\n      0x00\n        /* \"#utility.yul\":24370:24379   */\n      dup4\n        /* \"#utility.yul\":24366:24383   */\n      add\n        /* \"#utility.yul\":24357:24363   */\n      dup7\n        /* \"#utility.yul\":24313:24384   */\n      tag_145\n      jump\t// in\n    tag_456:\n        /* \"#utility.yul\":24394:24466   */\n      tag_457\n        /* \"#utility.yul\":24462:24464   */\n      0x20\n        /* \"#utility.yul\":24451:24460   */\n      dup4\n        /* \"#utility.yul\":24447:24465   */\n      add\n        /* \"#utility.yul\":24438:24444   */\n      dup6\n        /* \"#utility.yul\":24394:24466   */\n      tag_145\n      jump\t// in\n    tag_457:\n        /* \"#utility.yul\":24476:24548   */\n      tag_458\n        /* \"#utility.yul\":24544:24546   */\n      0x40\n        /* \"#utility.yul\":24533:24542   */\n      dup4\n        /* \"#utility.yul\":24529:24547   */\n      add\n        /* \"#utility.yul\":24520:24526   */\n      dup5\n        /* \"#utility.yul\":24476:24548   */\n      tag_152\n      jump\t// in\n    tag_458:\n        /* \"#utility.yul\":24113:24555   */\n      swap5\n      swap4\n      pop\n      pop\n      pop\n      pop\n      jump\t// out\n        /* \"#utility.yul\":24561:24698   */\n    tag_207:\n        /* \"#utility.yul\":24615:24620   */\n      0x00\n        /* \"#utility.yul\":24646:24652   */\n      dup2\n        /* \"#utility.yul\":24640:24653   */\n      mload\n        /* \"#utility.yul\":24631:24653   */\n      swap1\n      pop\n        /* \"#utility.yul\":24662:24692   */\n      tag_460\n        /* \"#utility.yul\":24686:24691   */\n      dup2\n        /* \"#utility.yul\":24662:24692   */\n      tag_166\n      jump\t// in\n    tag_460:\n        /* \"#utility.yul\":24561:24698   */\n      swap3\n      swap2\n      pop\n      pop\n      jump\t// out\n        /* \"#utility.yul\":24704:25049   */\n    tag_100:\n        /* \"#utility.yul\":24771:24777   */\n      0x00\n        /* \"#utility.yul\":24820:24822   */\n      0x20\n        /* \"#utility.yul\":24808:24817   */\n      dup3\n        /* \"#utility.yul\":24799:24806   */\n      dup5\n        /* \"#utility.yul\":24795:24818   */\n      sub\n        /* \"#utility.yul\":24791:24823   */\n      slt\n        /* \"#utility.yul\":24788:24907   */\n      iszero\n      tag_462\n      jumpi\n        /* \"#utility.yul\":24826:24905   */\n      tag_463\n      tag_136\n      jump\t// in\n    tag_463:\n        /* \"#utility.yul\":24788:24907   */\n    tag_462:\n        /* \"#utility.yul\":24946:24947   */\n      0x00\n        /* \"#utility.yul\":24971:25032   */\n      tag_464\n        /* \"#utility.yul\":25024:25031   */\n      dup5\n        /* \"#utility.yul\":25015:25021   */\n      dup3\n        /* \"#utility.yul\":25004:25013   */\n      dup6\n        /* \"#utility.yul\":25000:25022   */\n      add\n        /* \"#utility.yul\":24971:25032   */\n      tag_207\n      jump\t// in\n    tag_464:\n        /* \"#utility.yul\":24961:25032   */\n      swap2\n      pop\n        /* \"#utility.yul\":24917:25042   */\n      pop\n        /* \"#utility.yul\":24704:25049   */\n      swap3\n      swap2\n      pop\n      pop\n      jump\t// out\n        /* \"#utility.yul\":25055:25284   */\n    tag_208:\n        /* \"#utility.yul\":25195:25229   */\n      0x5361666545524332303a204552433230206f7065726174696f6e20646964206e\n        /* \"#utility.yul\":25191:25192   */\n      0x00\n        /* \"#utility.yul\":25183:25189   */\n      dup3\n        /* \"#utility.yul\":25179:25193   */\n      add\n        /* \"#utility.yul\":25172:25230   */\n      mstore\n        /* \"#utility.yul\":25264:25276   */\n      0x6f74207375636365656400000000000000000000000000000000000000000000\n        /* \"#utility.yul\":25259:25261   */\n      0x20\n        /* \"#utility.yul\":25251:25257   */\n      dup3\n        /* \"#utility.yul\":25247:25262   */\n      add\n        /* \"#utility.yul\":25240:25277   */\n      mstore\n        /* \"#utility.yul\":25055:25284   */\n      pop\n      jump\t// out\n        /* \"#utility.yul\":25290:25656   */\n    tag_209:\n        /* \"#utility.yul\":25432:25435   */\n      0x00\n        /* \"#utility.yul\":25453:25520   */\n      tag_467\n        /* \"#utility.yul\":25517:25519   */\n      0x2a\n        /* \"#utility.yul\":25512:25515   */\n      dup4\n        /* \"#utility.yul\":25453:25520   */\n      tag_147\n      jump\t// in\n    tag_467:\n        /* \"#utility.yul\":25446:25520   */\n      swap2\n      pop\n        /* \"#utility.yul\":25529:25622   */\n      tag_468\n        /* \"#utility.yul\":25618:25621   */\n      dup3\n        /* \"#utility.yul\":25529:25622   */\n      tag_208\n      jump\t// in\n    tag_468:\n        /* \"#utility.yul\":25647:25649   */\n      0x40\n        /* \"#utility.yul\":25642:25645   */\n      dup3\n        /* \"#utility.yul\":25638:25650   */\n      add\n        /* \"#utility.yul\":25631:25650   */\n      swap1\n      pop\n        /* \"#utility.yul\":25290:25656   */\n      swap2\n      swap1\n      pop\n      jump\t// out\n        /* \"#utility.yul\":25662:26081   */\n    tag_103:\n        /* \"#utility.yul\":25828:25832   */\n      0x00\n        /* \"#utility.yul\":25866:25868   */\n      0x20\n        /* \"#utility.yul\":25855:25864   */\n      dup3\n        /* \"#utility.yul\":25851:25869   */\n      add\n        /* \"#utility.yul\":25843:25869   */\n      swap1\n      pop\n        /* \"#utility.yul\":25915:25924   */\n      dup2\n        /* \"#utility.yul\":25909:25913   */\n      dup2\n        /* \"#utility.yul\":25905:25925   */\n      sub\n        /* \"#utility.yul\":25901:25902   */\n      0x00\n        /* \"#utility.yul\":25890:25899   */\n      dup4\n        /* \"#utility.yul\":25886:25903   */\n      add\n        /* \"#utility.yul\":25879:25926   */\n      mstore\n        /* \"#utility.yul\":25943:26074   */\n      tag_470\n        /* \"#utility.yul\":26069:26073   */\n      dup2\n        /* \"#utility.yul\":25943:26074   */\n      tag_209\n      jump\t// in\n    tag_470:\n        /* \"#utility.yul\":25935:26074   */\n      swap1\n      pop\n        /* \"#utility.yul\":25662:26081   */\n      swap2\n      swap1\n      pop\n      jump\t// out\n        /* \"#utility.yul\":26087:26312   */\n    tag_210:\n        /* \"#utility.yul\":26227:26261   */\n      0x416464726573733a20696e73756666696369656e742062616c616e636520666f\n        /* \"#utility.yul\":26223:26224   */\n      0x00\n        /* \"#utility.yul\":26215:26221   */\n      dup3\n        /* \"#utility.yul\":26211:26225   */\n      add\n        /* \"#utility.yul\":26204:26262   */\n      mstore\n        /* \"#utility.yul\":26296:26304   */\n      0x722063616c6c0000000000000000000000000000000000000000000000000000\n        /* \"#utility.yul\":26291:26293   */\n      0x20\n        /* \"#utility.yul\":26283:26289   */\n      dup3\n        /* \"#utility.yul\":26279:26294   */\n      add\n        /* \"#utility.yul\":26272:26305   */\n      mstore\n        /* \"#utility.yul\":26087:26312   */\n      pop\n      jump\t// out\n        /* \"#utility.yul\":26318:26684   */\n    tag_211:\n        /* \"#utility.yul\":26460:26463   */\n      0x00\n        /* \"#utility.yul\":26481:26548   */\n      tag_473\n        /* \"#utility.yul\":26545:26547   */\n      0x26\n        /* \"#utility.yul\":26540:26543   */\n      dup4\n        /* \"#utility.yul\":26481:26548   */\n      tag_147\n      jump\t// in\n    tag_473:\n        /* \"#utility.yul\":26474:26548   */\n      swap2\n      pop\n        /* \"#utility.yul\":26557:26650   */\n      tag_474\n        /* \"#utility.yul\":26646:26649   */\n      dup3\n        /* \"#utility.yul\":26557:26650   */\n      tag_210\n      jump\t// in\n    tag_474:\n        /* \"#utility.yul\":26675:26677   */\n      0x40\n        /* \"#utility.yul\":26670:26673   */\n      dup3\n        /* \"#utility.yul\":26666:26678   */\n      add\n        /* \"#utility.yul\":26659:26678   */\n      swap1\n      pop\n        /* \"#utility.yul\":26318:26684   */\n      swap2\n      swap1\n      pop\n      jump\t// out\n        /* \"#utility.yul\":26690:27109   */\n    tag_110:\n        /* \"#utility.yul\":26856:26860   */\n      0x00\n        /* \"#utility.yul\":26894:26896   */\n      0x20\n        /* \"#utility.yul\":26883:26892   */\n      dup3\n        /* \"#utility.yul\":26879:26897   */\n      add\n        /* \"#utility.yul\":26871:26897   */\n      swap1\n      pop\n        /* \"#utility.yul\":26943:26952   */\n      dup2\n        /* \"#utility.yul\":26937:26941   */\n      dup2\n        /* \"#utility.yul\":26933:26953   */\n      sub\n        /* \"#utility.yul\":26929:26930   */\n      0x00\n        /* \"#utility.yul\":26918:26927   */\n      dup4\n        /* \"#utility.yul\":26914:26931   */\n      add\n        /* \"#utility.yul\":26907:26954   */\n      mstore\n        /* \"#utility.yul\":26971:27102   */\n      tag_476\n        /* \"#utility.yul\":27097:27101   */\n      dup2\n        /* \"#utility.yul\":26971:27102   */\n      tag_211\n      jump\t// in\n    tag_476:\n        /* \"#utility.yul\":26963:27102   */\n      swap1\n      pop\n        /* \"#utility.yul\":26690:27109   */\n      swap2\n      swap1\n      pop\n      jump\t// out\n        /* \"#utility.yul\":27115:27213   */\n    tag_212:\n        /* \"#utility.yul\":27166:27172   */\n      0x00\n        /* \"#utility.yul\":27200:27205   */\n      dup2\n        /* \"#utility.yul\":27194:27206   */\n      mload\n        /* \"#utility.yul\":27184:27206   */\n      swap1\n      pop\n        /* \"#utility.yul\":27115:27213   */\n      swap2\n      swap1\n      pop\n      jump\t// out\n        /* \"#utility.yul\":27219:27366   */\n    tag_213:\n        /* \"#utility.yul\":27320:27331   */\n      0x00\n        /* \"#utility.yul\":27357:27360   */\n      dup2\n        /* \"#utility.yul\":27342:27360   */\n      swap1\n      pop\n        /* \"#utility.yul\":27219:27366   */\n      swap3\n      swap2\n      pop\n      pop\n      jump\t// out\n        /* \"#utility.yul\":27372:27758   */\n    tag_214:\n        /* \"#utility.yul\":27476:27479   */\n      0x00\n        /* \"#utility.yul\":27504:27542   */\n      tag_480\n        /* \"#utility.yul\":27536:27541   */\n      dup3\n        /* \"#utility.yul\":27504:27542   */\n      tag_212\n      jump\t// in\n    tag_480:\n        /* \"#utility.yul\":27558:27646   */\n      tag_481\n        /* \"#utility.yul\":27639:27645   */\n      dup2\n        /* \"#utility.yul\":27634:27637   */\n      dup6\n        /* \"#utility.yul\":27558:27646   */\n      tag_213\n      jump\t// in\n    tag_481:\n        /* \"#utility.yul\":27551:27646   */\n      swap4\n      pop\n        /* \"#utility.yul\":27655:27720   */\n      tag_482\n        /* \"#utility.yul\":27713:27719   */\n      dup2\n        /* \"#utility.yul\":27708:27711   */\n      dup6\n        /* \"#utility.yul\":27701:27705   */\n      0x20\n        /* \"#utility.yul\":27694:27699   */\n      dup7\n        /* \"#utility.yul\":27690:27706   */\n      add\n        /* \"#utility.yul\":27655:27720   */\n      tag_148\n      jump\t// in\n    tag_482:\n        /* \"#utility.yul\":27745:27751   */\n      dup1\n        /* \"#utility.yul\":27740:27743   */\n      dup5\n        /* \"#utility.yul\":27736:27752   */\n      add\n        /* \"#utility.yul\":27729:27752   */\n      swap2\n      pop\n        /* \"#utility.yul\":27480:27758   */\n      pop\n        /* \"#utility.yul\":27372:27758   */\n      swap3\n      swap2\n      pop\n      pop\n      jump\t// out\n        /* \"#utility.yul\":27764:28035   */\n    tag_112:\n        /* \"#utility.yul\":27894:27897   */\n      0x00\n        /* \"#utility.yul\":27916:28009   */\n      tag_484\n        /* \"#utility.yul\":28005:28008   */\n      dup3\n        /* \"#utility.yul\":27996:28002   */\n      dup5\n        /* \"#utility.yul\":27916:28009   */\n      tag_214\n      jump\t// in\n    tag_484:\n        /* \"#utility.yul\":27909:28009   */\n      swap2\n      pop\n        /* \"#utility.yul\":28026:28029   */\n      dup2\n        /* \"#utility.yul\":28019:28029   */\n      swap1\n      pop\n        /* \"#utility.yul\":27764:28035   */\n      swap3\n      swap2\n      pop\n      pop\n      jump\t// out\n        /* \"#utility.yul\":28041:28220   */\n    tag_215:\n        /* \"#utility.yul\":28181:28212   */\n      0x416464726573733a2063616c6c20746f206e6f6e2d636f6e7472616374000000\n        /* \"#utility.yul\":28177:28178   */\n      0x00\n        /* \"#utility.yul\":28169:28175   */\n      dup3\n        /* \"#utility.yul\":28165:28179   */\n      add\n        /* \"#utility.yul\":28158:28213   */\n      mstore\n        /* \"#utility.yul\":28041:28220   */\n      pop\n      jump\t// out\n        /* \"#utility.yul\":28226:28592   */\n    tag_216:\n        /* \"#utility.yul\":28368:28371   */\n      0x00\n        /* \"#utility.yul\":28389:28456   */\n      tag_487\n        /* \"#utility.yul\":28453:28455   */\n      0x1d\n        /* \"#utility.yul\":28448:28451   */\n      dup4\n        /* \"#utility.yul\":28389:28456   */\n      tag_147\n      jump\t// in\n    tag_487:\n        /* \"#utility.yul\":28382:28456   */\n      swap2\n      pop\n        /* \"#utility.yul\":28465:28558   */\n      tag_488\n        /* \"#utility.yul\":28554:28557   */\n      dup3\n        /* \"#utility.yul\":28465:28558   */\n      tag_215\n      jump\t// in\n    tag_488:\n        /* \"#utility.yul\":28583:28585   */\n      0x20\n        /* \"#utility.yul\":28578:28581   */\n      dup3\n        /* \"#utility.yul\":28574:28586   */\n      add\n        /* \"#utility.yul\":28567:28586   */\n      swap1\n      pop\n        /* \"#utility.yul\":28226:28592   */\n      swap2\n      swap1\n      pop\n      jump\t// out\n        /* \"#utility.yul\":28598:29017   */\n    tag_125:\n        /* \"#utility.yul\":28764:28768   */\n      0x00\n        /* \"#utility.yul\":28802:28804   */\n      0x20\n        /* \"#utility.yul\":28791:28800   */\n      dup3\n        /* \"#utility.yul\":28787:28805   */\n      add\n        /* \"#utility.yul\":28779:28805   */\n      swap1\n      pop\n        /* \"#utility.yul\":28851:28860   */\n      dup2\n        /* \"#utility.yul\":28845:28849   */\n      dup2\n        /* \"#utility.yul\":28841:28861   */\n      sub\n        /* \"#utility.yul\":28837:28838   */\n      0x00\n        /* \"#utility.yul\":28826:28835   */\n      dup4\n        /* \"#utility.yul\":28822:28839   */\n      add\n        /* \"#utility.yul\":28815:28862   */\n      mstore\n        /* \"#utility.yul\":28879:29010   */\n      tag_490\n        /* \"#utility.yul\":29005:29009   */\n      dup2\n        /* \"#utility.yul\":28879:29010   */\n      tag_216\n      jump\t// in\n    tag_490:\n        /* \"#utility.yul\":28871:29010   */\n      swap1\n      pop\n        /* \"#utility.yul\":28598:29017   */\n      swap2\n      swap1\n      pop\n      jump\t// out\n        /* \"#utility.yul\":29023:29336   */\n    tag_134:\n        /* \"#utility.yul\":29136:29140   */\n      0x00\n        /* \"#utility.yul\":29174:29176   */\n      0x20\n        /* \"#utility.yul\":29163:29172   */\n      dup3\n        /* \"#utility.yul\":29159:29177   */\n      add\n        /* \"#utility.yul\":29151:29177   */\n      swap1\n      pop\n        /* \"#utility.yul\":29223:29232   */\n      dup2\n        /* \"#utility.yul\":29217:29221   */\n      dup2\n        /* \"#utility.yul\":29213:29233   */\n      sub\n        /* \"#utility.yul\":29209:29210   */\n      0x00\n        /* \"#utility.yul\":29198:29207   */\n      dup4\n        /* \"#utility.yul\":29194:29211   */\n      add\n        /* \"#utility.yul\":29187:29234   */\n      mstore\n        /* \"#utility.yul\":29251:29329   */\n      tag_492\n        /* \"#utility.yul\":29324:29328   */\n      dup2\n        /* \"#utility.yul\":29315:29321   */\n      dup5\n        /* \"#utility.yul\":29251:29329   */\n      tag_150\n      jump\t// in\n    tag_492:\n        /* \"#utility.yul\":29243:29329   */\n      swap1\n      pop\n        /* \"#utility.yul\":29023:29336   */\n      swap3\n      swap2\n      pop\n      pop\n      jump\t// out\n\n    auxdata: 0xa264697066735822122024caadf6c506ca1bb32558c5b92ed39edf96b94e1bf4dbb8cb4c7c02df53669b64736f6c634300081a0033\n}\n",
				"bytecode": {
					"linkReferences": {},
					"object": "608060405234801561000f575f80fd5b50604051611bc7380380611bc7833981810160405281019061003191906100d4565b805f806101000a81548173ffffffffffffffffffffffffffffffffffffffff021916908373ffffffffffffffffffffffffffffffffffffffff160217905550506100ff565b5f80fd5b5f73ffffffffffffffffffffffffffffffffffffffff82169050919050565b5f6100a38261007a565b9050919050565b6100b381610099565b81146100bd575f80fd5b50565b5f815190506100ce816100aa565b92915050565b5f602082840312156100e9576100e8610076565b5b5f6100f6848285016100c0565b91505092915050565b611abb8061010c5f395ff3fe608060405234801561000f575f80fd5b5060043610610060575f3560e01c80631b258d50146100645780633d4dff7b14610080578063ab6d1c09146100b5578063b2b3dbce146100d1578063d2b409a1146100ed578063ef90dbb61461010b575b5f80fd5b61007e60048036038101906100799190610c5d565b610127565b005b61009a60048036038101906100959190610c9b565b610303565b6040516100ac96959493929190610d77565b60405180910390f35b6100cf60048036038101906100ca9190610c9b565b6103f9565b005b6100eb60048036038101906100e69190610ddd565b610405565b005b6100f561052b565b6040516101029190610e2d565b60405180910390f35b61012560048036038101906101209190610fc6565b61054e565b005b5f60015f8481526020019081526020015f209050806004015f9054906101000a900460ff161561018c576040517f08c379a0000000000000000000000000000000000000000000000000000000008152600401610183906110a3565b60405180910390fd5b3373ffffffffffffffffffffffffffffffffffffffff16815f015f9054906101000a900473ffffffffffffffffffffffffffffffffffffffff1673ffffffffffffffffffffffffffffffffffffffff161461021c576040517f08c379a000000000000000000000000000000000000000000000000000000000815260040161021390611131565b60405180910390fd5b8060040160019054906101000a900460ff168061023d575080600301544310155b61027c576040517f08c379a0000000000000000000000000000000000000000000000000000000008152600401610273906111bf565b60405180910390fd5b6001816004015f6101000a81548160ff0219169083151502179055506102c73382600201548473ffffffffffffffffffffffffffffffffffffffff166107609092919063ffffffff16565b7f44654674e66e9e53d34afdf3e9513fb94b4c8b946e980d6958ef4e6a37a153e3836040516102f691906111ec565b60405180910390a1505050565b6001602052805f5260405f205f91509050805f015f9054906101000a900473ffffffffffffffffffffffffffffffffffffffff169080600101805461034790611232565b80601f016020809104026020016040519081016040528092919081815260200182805461037390611232565b80156103be5780601f10610395576101008083540402835291602001916103be565b820191905f5260205f20905b8154815290600101906020018083116103a157829003601f168201915b505050505090806002015490806003015490806004015f9054906101000a900460ff16908060040160019054906101000a900460ff16905086565b610402816107e6565b50565b5f8054906101000a900473ffffffffffffffffffffffffffffffffffffffff1673ffffffffffffffffffffffffffffffffffffffff163373ffffffffffffffffffffffffffffffffffffffff1614610492576040517f08c379a0000000000000000000000000000000000000000000000000000000008152600401610489906112d2565b60405180910390fd5b5f60015f8581526020019081526020015f2090505f816002015490505f81116104f0576040517f08c379a00000000000000000000000000000000000000000000000000000000081526004016104e79061133a565b60405180910390fd5b5f826002018190555061052483828673ffffffffffffffffffffffffffffffffffffffff166107609092919063ffffffff16565b5050505050565b5f8054906101000a900473ffffffffffffffffffffffffffffffffffffffff1681565b5f8311610590576040517f08c379a0000000000000000000000000000000000000000000000000000000008152600401610587906113c8565b60405180910390fd5b6105bd3330858873ffffffffffffffffffffffffffffffffffffffff166108ac909392919063ffffffff16565b5f338585856040516020016105d59493929190611485565b6040516020818303038152906040528051906020012090506040518060c001604052803373ffffffffffffffffffffffffffffffffffffffff1681526020018681526020018581526020018481526020015f151581526020015f151581525060015f8381526020019081526020015f205f820151815f015f6101000a81548173ffffffffffffffffffffffffffffffffffffffff021916908373ffffffffffffffffffffffffffffffffffffffff160217905550602082015181600101908161069e919061166b565b5060408201518160020155606082015181600301556080820151816004015f6101000a81548160ff02191690831515021790555060a08201518160040160016101000a81548160ff0219169083151502179055509050503373ffffffffffffffffffffffffffffffffffffffff167ea1cff1b2f4bcfbf6eeee2c1d4fd6de1249eeaa035f878bd93899dc7a8348b682878787604051610740949392919061173a565b60405180910390a2811561075857610757816107e6565b5b505050505050565b6107e18363a9059cbb60e01b848460405160240161077f929190611784565b604051602081830303815290604052907bffffffffffffffffffffffffffffffffffffffffffffffffffffffff19166020820180517bffffffffffffffffffffffffffffffffffffffffffffffffffffffff8381831617835250505050610935565b505050565b5f806108a8575f60015f8481526020019081526020015f2090508060040160019054906101000a900460ff1615610852576040517f08c379a0000000000000000000000000000000000000000000000000000000008152600401610849906117f5565b60405180910390fd5b60018160040160016101000a81548160ff0219169083151502179055507f3374383624a6239154f46d2d6fc35a0e58e2f53b0d5ea77c85d26e3fddebdee08360405161089e91906111ec565b60405180910390a1505b5050565b61092f846323b872dd60e01b8585856040516024016108cd93929190611813565b604051602081830303815290604052907bffffffffffffffffffffffffffffffffffffffffffffffffffffffff19166020820180517bffffffffffffffffffffffffffffffffffffffffffffffffffffffff8381831617835250505050610935565b50505050565b5f610996826040518060400160405280602081526020017f5361666545524332303a206c6f772d6c6576656c2063616c6c206661696c65648152508573ffffffffffffffffffffffffffffffffffffffff166109fa9092919063ffffffff16565b90505f815111156109f557808060200190518101906109b5919061185c565b6109f4576040517f08c379a00000000000000000000000000000000000000000000000000000000081526004016109eb906118f7565b60405180910390fd5b5b505050565b6060610a0884845f85610a11565b90509392505050565b606082471015610a56576040517f08c379a0000000000000000000000000000000000000000000000000000000008152600401610a4d90611985565b60405180910390fd5b5f808673ffffffffffffffffffffffffffffffffffffffff168587604051610a7e91906119e7565b5f6040518083038185875af1925050503d805f8114610ab8576040519150601f19603f3d011682016040523d82523d5f602084013e610abd565b606091505b5091509150610ace87838387610ada565b92505050949350505050565b60608315610b3b575f835103610b3357610af385610b4e565b610b32576040517f08c379a0000000000000000000000000000000000000000000000000000000008152600401610b2990611a47565b60405180910390fd5b5b829050610b46565b610b458383610b70565b5b949350505050565b5f808273ffffffffffffffffffffffffffffffffffffffff163b119050919050565b5f82511115610b825781518083602001fd5b806040517f08c379a0000000000000000000000000000000000000000000000000000000008152600401610bb69190611a65565b60405180910390fd5b5f604051905090565b5f80fd5b5f80fd5b5f819050919050565b610be281610bd0565b8114610bec575f80fd5b50565b5f81359050610bfd81610bd9565b92915050565b5f73ffffffffffffffffffffffffffffffffffffffff82169050919050565b5f610c2c82610c03565b9050919050565b610c3c81610c22565b8114610c46575f80fd5b50565b5f81359050610c5781610c33565b92915050565b5f8060408385031215610c7357610c72610bc8565b5b5f610c8085828601610bef565b9250506020610c9185828601610c49565b9150509250929050565b5f60208284031215610cb057610caf610bc8565b5b5f610cbd84828501610bef565b91505092915050565b610ccf81610c22565b82525050565b5f81519050919050565b5f82825260208201905092915050565b8281835e5f83830152505050565b5f601f19601f8301169050919050565b5f610d1782610cd5565b610d218185610cdf565b9350610d31818560208601610cef565b610d3a81610cfd565b840191505092915050565b5f819050919050565b610d5781610d45565b82525050565b5f8115159050919050565b610d7181610d5d565b82525050565b5f60c082019050610d8a5f830189610cc6565b8181036020830152610d9c8188610d0d565b9050610dab6040830187610d4e565b610db86060830186610d4e565b610dc56080830185610d68565b610dd260a0830184610d68565b979650505050505050565b5f805f60608486031215610df457610df3610bc8565b5b5f610e0186828701610bef565b9350506020610e1286828701610c49565b9250506040610e2386828701610c49565b9150509250925092565b5f602082019050610e405f830184610cc6565b92915050565b5f80fd5b5f80fd5b7f4e487b71000000000000000000000000000000000000000000000000000000005f52604160045260245ffd5b610e8482610cfd565b810181811067ffffffffffffffff82111715610ea357610ea2610e4e565b5b80604052505050565b5f610eb5610bbf565b9050610ec18282610e7b565b919050565b5f67ffffffffffffffff821115610ee057610edf610e4e565b5b610ee982610cfd565b9050602081019050919050565b828183375f83830152505050565b5f610f16610f1184610ec6565b610eac565b905082815260208101848484011115610f3257610f31610e4a565b5b610f3d848285610ef6565b509392505050565b5f82601f830112610f5957610f58610e46565b5b8135610f69848260208601610f04565b91505092915050565b610f7b81610d45565b8114610f85575f80fd5b50565b5f81359050610f9681610f72565b92915050565b610fa581610d5d565b8114610faf575f80fd5b50565b5f81359050610fc081610f9c565b92915050565b5f805f805f60a08688031215610fdf57610fde610bc8565b5b5f610fec88828901610c49565b955050602086013567ffffffffffffffff81111561100d5761100c610bcc565b5b61101988828901610f45565b945050604061102a88828901610f88565b935050606061103b88828901610f88565b925050608061104c88828901610fb2565b9150509295509295909350565b7f4465706f73697420616c72656164792077697468647261776e2e0000000000005f82015250565b5f61108d601a83610cdf565b915061109882611059565b602082019050919050565b5f6020820190508181035f8301526110ba81611081565b9050919050565b7f4f6e6c7920746865206465706f7369746f722063616e207769746864726177205f8201527f746865206465706f7369742e0000000000000000000000000000000000000000602082015250565b5f61111b602c83610cdf565b9150611126826110c1565b604082019050919050565b5f6020820190508181035f8301526111488161110f565b9050919050565b7f436f6e646974696f6e7320666f72207769746864726177616c206e6f74206d655f8201527f742e000000000000000000000000000000000000000000000000000000000000602082015250565b5f6111a9602283610cdf565b91506111b48261114f565b604082019050919050565b5f6020820190508181035f8301526111d68161119d565b9050919050565b6111e681610bd0565b82525050565b5f6020820190506111ff5f8301846111dd565b92915050565b7f4e487b71000000000000000000000000000000000000000000000000000000005f52602260045260245ffd5b5f600282049050600182168061124957607f821691505b60208210810361125c5761125b611205565b5b50919050565b7f4f6e6c792076616c69646174696f6e20636f6e74726163742063616e20636f6e5f8201527f6669736361746500000000000000000000000000000000000000000000000000602082015250565b5f6112bc602783610cdf565b91506112c782611262565b604082019050919050565b5f6020820190508181035f8301526112e9816112b0565b9050919050565b7f4e6f2066756e647320746f20636f6e66697363617465000000000000000000005f82015250565b5f611324601683610cdf565b915061132f826112f0565b602082019050919050565b5f6020820190508181035f83015261135181611318565b9050919050565b7f416d6f756e74206d7573742062652067726561746572207468616e207a65726f5f8201527f2e00000000000000000000000000000000000000000000000000000000000000602082015250565b5f6113b2602183610cdf565b91506113bd82611358565b604082019050919050565b5f6020820190508181035f8301526113df816113a6565b9050919050565b5f8160601b9050919050565b5f6113fc826113e6565b9050919050565b5f61140d826113f2565b9050919050565b61142561142082610c22565b611403565b82525050565b5f81905092915050565b5f61143f82610cd5565b611449818561142b565b9350611459818560208601610cef565b80840191505092915050565b5f819050919050565b61147f61147a82610d45565b611465565b82525050565b5f6114908287611414565b6014820191506114a08286611435565b91506114ac828561146e565b6020820191506114bc828461146e565b60208201915081905095945050505050565b5f819050815f5260205f209050919050565b5f6020601f8301049050919050565b5f82821b905092915050565b5f6008830261152a7fffffffffffffffffffffffffffffffffffffffffffffffffffffffffffffffff826114ef565b61153486836114ef565b95508019841693508086168417925050509392505050565b5f819050919050565b5f61156f61156a61156584610d45565b61154c565b610d45565b9050919050565b5f819050919050565b61158883611555565b61159c61159482611576565b8484546114fb565b825550505050565b5f90565b6115b06115a4565b6115bb81848461157f565b505050565b5b818110156115de576115d35f826115a8565b6001810190506115c1565b5050565b601f821115611623576115f4816114ce565b6115fd846114e0565b8101602085101561160c578190505b611620611618856114e0565b8301826115c0565b50505b505050565b5f82821c905092915050565b5f6116435f1984600802611628565b1980831691505092915050565b5f61165b8383611634565b9150826002028217905092915050565b61167482610cd5565b67ffffffffffffffff81111561168d5761168c610e4e565b5b6116978254611232565b6116a28282856115e2565b5f60209050601f8311600181146116d3575f84156116c1578287015190505b6116cb8582611650565b865550611732565b601f1984166116e1866114ce565b5f5b82811015611708578489015182556001820191506020850194506020810190506116e3565b868310156117255784890151611721601f891682611634565b8355505b6001600288020188555050505b505050505050565b5f60808201905061174d5f8301876111dd565b818103602083015261175f8186610d0d565b905061176e6040830185610d4e565b61177b6060830184610d4e565b95945050505050565b5f6040820190506117975f830185610cc6565b6117a46020830184610d4e565b9392505050565b7f4576656e7420616c7265616479206f636375727265642e0000000000000000005f82015250565b5f6117df601783610cdf565b91506117ea826117ab565b602082019050919050565b5f6020820190508181035f83015261180c816117d3565b9050919050565b5f6060820190506118265f830186610cc6565b6118336020830185610cc6565b6118406040830184610d4e565b949350505050565b5f8151905061185681610f9c565b92915050565b5f6020828403121561187157611870610bc8565b5b5f61187e84828501611848565b91505092915050565b7f5361666545524332303a204552433230206f7065726174696f6e20646964206e5f8201527f6f74207375636365656400000000000000000000000000000000000000000000602082015250565b5f6118e1602a83610cdf565b91506118ec82611887565b604082019050919050565b5f6020820190508181035f83015261190e816118d5565b9050919050565b7f416464726573733a20696e73756666696369656e742062616c616e636520666f5f8201527f722063616c6c0000000000000000000000000000000000000000000000000000602082015250565b5f61196f602683610cdf565b915061197a82611915565b604082019050919050565b5f6020820190508181035f83015261199c81611963565b9050919050565b5f81519050919050565b5f81905092915050565b5f6119c1826119a3565b6119cb81856119ad565b93506119db818560208601610cef565b80840191505092915050565b5f6119f282846119b7565b915081905092915050565b7f416464726573733a2063616c6c20746f206e6f6e2d636f6e74726163740000005f82015250565b5f611a31601d83610cdf565b9150611a3c826119fd565b602082019050919050565b5f6020820190508181035f830152611a5e81611a25565b9050919050565b5f6020820190508181035f830152611a7d8184610d0d565b90509291505056fea264697066735822122024caadf6c506ca1bb32558c5b92ed39edf96b94e1bf4dbb8cb4c7c02df53669b64736f6c634300081a0033",
					"opcodes": "PUSH1 0x80 PUSH1 0x40 MSTORE CALLVALUE DUP1 ISZERO PUSH2 0xF JUMPI PUSH0 DUP1 REVERT JUMPDEST POP PUSH1 0x40 MLOAD PUSH2 0x1BC7 CODESIZE SUB DUP1 PUSH2 0x1BC7 DUP4 CODECOPY DUP2 DUP2 ADD PUSH1 0x40 MSTORE DUP2 ADD SWAP1 PUSH2 0x31 SWAP2 SWAP1 PUSH2 0xD4 JUMP JUMPDEST DUP1 PUSH0 DUP1 PUSH2 0x100 EXP DUP2 SLOAD DUP2 PUSH20 0xFFFFFFFFFFFFFFFFFFFFFFFFFFFFFFFFFFFFFFFF MUL NOT AND SWAP1 DUP4 PUSH20 0xFFFFFFFFFFFFFFFFFFFFFFFFFFFFFFFFFFFFFFFF AND MUL OR SWAP1 SSTORE POP POP PUSH2 0xFF JUMP JUMPDEST PUSH0 DUP1 REVERT JUMPDEST PUSH0 PUSH20 0xFFFFFFFFFFFFFFFFFFFFFFFFFFFFFFFFFFFFFFFF DUP3 AND SWAP1 POP SWAP2 SWAP1 POP JUMP JUMPDEST PUSH0 PUSH2 0xA3 DUP3 PUSH2 0x7A JUMP JUMPDEST SWAP1 POP SWAP2 SWAP1 POP JUMP JUMPDEST PUSH2 0xB3 DUP2 PUSH2 0x99 JUMP JUMPDEST DUP2 EQ PUSH2 0xBD JUMPI PUSH0 DUP1 REVERT JUMPDEST POP JUMP JUMPDEST PUSH0 DUP2 MLOAD SWAP1 POP PUSH2 0xCE DUP2 PUSH2 0xAA JUMP JUMPDEST SWAP3 SWAP2 POP POP JUMP JUMPDEST PUSH0 PUSH1 0x20 DUP3 DUP5 SUB SLT ISZERO PUSH2 0xE9 JUMPI PUSH2 0xE8 PUSH2 0x76 JUMP JUMPDEST JUMPDEST PUSH0 PUSH2 0xF6 DUP5 DUP3 DUP6 ADD PUSH2 0xC0 JUMP JUMPDEST SWAP2 POP POP SWAP3 SWAP2 POP POP JUMP JUMPDEST PUSH2 0x1ABB DUP1 PUSH2 0x10C PUSH0 CODECOPY PUSH0 RETURN INVALID PUSH1 0x80 PUSH1 0x40 MSTORE CALLVALUE DUP1 ISZERO PUSH2 0xF JUMPI PUSH0 DUP1 REVERT JUMPDEST POP PUSH1 0x4 CALLDATASIZE LT PUSH2 0x60 JUMPI PUSH0 CALLDATALOAD PUSH1 0xE0 SHR DUP1 PUSH4 0x1B258D50 EQ PUSH2 0x64 JUMPI DUP1 PUSH4 0x3D4DFF7B EQ PUSH2 0x80 JUMPI DUP1 PUSH4 0xAB6D1C09 EQ PUSH2 0xB5 JUMPI DUP1 PUSH4 0xB2B3DBCE EQ PUSH2 0xD1 JUMPI DUP1 PUSH4 0xD2B409A1 EQ PUSH2 0xED JUMPI DUP1 PUSH4 0xEF90DBB6 EQ PUSH2 0x10B JUMPI JUMPDEST PUSH0 DUP1 REVERT JUMPDEST PUSH2 0x7E PUSH1 0x4 DUP1 CALLDATASIZE SUB DUP2 ADD SWAP1 PUSH2 0x79 SWAP2 SWAP1 PUSH2 0xC5D JUMP JUMPDEST PUSH2 0x127 JUMP JUMPDEST STOP JUMPDEST PUSH2 0x9A PUSH1 0x4 DUP1 CALLDATASIZE SUB DUP2 ADD SWAP1 PUSH2 0x95 SWAP2 SWAP1 PUSH2 0xC9B JUMP JUMPDEST PUSH2 0x303 JUMP JUMPDEST PUSH1 0x40 MLOAD PUSH2 0xAC SWAP7 SWAP6 SWAP5 SWAP4 SWAP3 SWAP2 SWAP1 PUSH2 0xD77 JUMP JUMPDEST PUSH1 0x40 MLOAD DUP1 SWAP2 SUB SWAP1 RETURN JUMPDEST PUSH2 0xCF PUSH1 0x4 DUP1 CALLDATASIZE SUB DUP2 ADD SWAP1 PUSH2 0xCA SWAP2 SWAP1 PUSH2 0xC9B JUMP JUMPDEST PUSH2 0x3F9 JUMP JUMPDEST STOP JUMPDEST PUSH2 0xEB PUSH1 0x4 DUP1 CALLDATASIZE SUB DUP2 ADD SWAP1 PUSH2 0xE6 SWAP2 SWAP1 PUSH2 0xDDD JUMP JUMPDEST PUSH2 0x405 JUMP JUMPDEST STOP JUMPDEST PUSH2 0xF5 PUSH2 0x52B JUMP JUMPDEST PUSH1 0x40 MLOAD PUSH2 0x102 SWAP2 SWAP1 PUSH2 0xE2D JUMP JUMPDEST PUSH1 0x40 MLOAD DUP1 SWAP2 SUB SWAP1 RETURN JUMPDEST PUSH2 0x125 PUSH1 0x4 DUP1 CALLDATASIZE SUB DUP2 ADD SWAP1 PUSH2 0x120 SWAP2 SWAP1 PUSH2 0xFC6 JUMP JUMPDEST PUSH2 0x54E JUMP JUMPDEST STOP JUMPDEST PUSH0 PUSH1 0x1 PUSH0 DUP5 DUP2 MSTORE PUSH1 0x20 ADD SWAP1 DUP2 MSTORE PUSH1 0x20 ADD PUSH0 KECCAK256 SWAP1 POP DUP1 PUSH1 0x4 ADD PUSH0 SWAP1 SLOAD SWAP1 PUSH2 0x100 EXP SWAP1 DIV PUSH1 0xFF AND ISZERO PUSH2 0x18C JUMPI PUSH1 0x40 MLOAD PUSH32 0x8C379A000000000000000000000000000000000000000000000000000000000 DUP2 MSTORE PUSH1 0x4 ADD PUSH2 0x183 SWAP1 PUSH2 0x10A3 JUMP JUMPDEST PUSH1 0x40 MLOAD DUP1 SWAP2 SUB SWAP1 REVERT JUMPDEST CALLER PUSH20 0xFFFFFFFFFFFFFFFFFFFFFFFFFFFFFFFFFFFFFFFF AND DUP2 PUSH0 ADD PUSH0 SWAP1 SLOAD SWAP1 PUSH2 0x100 EXP SWAP1 DIV PUSH20 0xFFFFFFFFFFFFFFFFFFFFFFFFFFFFFFFFFFFFFFFF AND PUSH20 0xFFFFFFFFFFFFFFFFFFFFFFFFFFFFFFFFFFFFFFFF AND EQ PUSH2 0x21C JUMPI PUSH1 0x40 MLOAD PUSH32 0x8C379A000000000000000000000000000000000000000000000000000000000 DUP2 MSTORE PUSH1 0x4 ADD PUSH2 0x213 SWAP1 PUSH2 0x1131 JUMP JUMPDEST PUSH1 0x40 MLOAD DUP1 SWAP2 SUB SWAP1 REVERT JUMPDEST DUP1 PUSH1 0x4 ADD PUSH1 0x1 SWAP1 SLOAD SWAP1 PUSH2 0x100 EXP SWAP1 DIV PUSH1 0xFF AND DUP1 PUSH2 0x23D JUMPI POP DUP1 PUSH1 0x3 ADD SLOAD NUMBER LT ISZERO JUMPDEST PUSH2 0x27C JUMPI PUSH1 0x40 MLOAD PUSH32 0x8C379A000000000000000000000000000000000000000000000000000000000 DUP2 MSTORE PUSH1 0x4 ADD PUSH2 0x273 SWAP1 PUSH2 0x11BF JUMP JUMPDEST PUSH1 0x40 MLOAD DUP1 SWAP2 SUB SWAP1 REVERT JUMPDEST PUSH1 0x1 DUP2 PUSH1 0x4 ADD PUSH0 PUSH2 0x100 EXP DUP2 SLOAD DUP2 PUSH1 0xFF MUL NOT AND SWAP1 DUP4 ISZERO ISZERO MUL OR SWAP1 SSTORE POP PUSH2 0x2C7 CALLER DUP3 PUSH1 0x2 ADD SLOAD DUP5 PUSH20 0xFFFFFFFFFFFFFFFFFFFFFFFFFFFFFFFFFFFFFFFF AND PUSH2 0x760 SWAP1 SWAP3 SWAP2 SWAP1 PUSH4 0xFFFFFFFF AND JUMP JUMPDEST PUSH32 0x44654674E66E9E53D34AFDF3E9513FB94B4C8B946E980D6958EF4E6A37A153E3 DUP4 PUSH1 0x40 MLOAD PUSH2 0x2F6 SWAP2 SWAP1 PUSH2 0x11EC JUMP JUMPDEST PUSH1 0x40 MLOAD DUP1 SWAP2 SUB SWAP1 LOG1 POP POP POP JUMP JUMPDEST PUSH1 0x1 PUSH1 0x20 MSTORE DUP1 PUSH0 MSTORE PUSH1 0x40 PUSH0 KECCAK256 PUSH0 SWAP2 POP SWAP1 POP DUP1 PUSH0 ADD PUSH0 SWAP1 SLOAD SWAP1 PUSH2 0x100 EXP SWAP1 DIV PUSH20 0xFFFFFFFFFFFFFFFFFFFFFFFFFFFFFFFFFFFFFFFF AND SWAP1 DUP1 PUSH1 0x1 ADD DUP1 SLOAD PUSH2 0x347 SWAP1 PUSH2 0x1232 JUMP JUMPDEST DUP1 PUSH1 0x1F ADD PUSH1 0x20 DUP1 SWAP2 DIV MUL PUSH1 0x20 ADD PUSH1 0x40 MLOAD SWAP1 DUP2 ADD PUSH1 0x40 MSTORE DUP1 SWAP3 SWAP2 SWAP1 DUP2 DUP2 MSTORE PUSH1 0x20 ADD DUP3 DUP1 SLOAD PUSH2 0x373 SWAP1 PUSH2 0x1232 JUMP JUMPDEST DUP1 ISZERO PUSH2 0x3BE JUMPI DUP1 PUSH1 0x1F LT PUSH2 0x395 JUMPI PUSH2 0x100 DUP1 DUP4 SLOAD DIV MUL DUP4 MSTORE SWAP2 PUSH1 0x20 ADD SWAP2 PUSH2 0x3BE JUMP JUMPDEST DUP3 ADD SWAP2 SWAP1 PUSH0 MSTORE PUSH1 0x20 PUSH0 KECCAK256 SWAP1 JUMPDEST DUP2 SLOAD DUP2 MSTORE SWAP1 PUSH1 0x1 ADD SWAP1 PUSH1 0x20 ADD DUP1 DUP4 GT PUSH2 0x3A1 JUMPI DUP3 SWAP1 SUB PUSH1 0x1F AND DUP3 ADD SWAP2 JUMPDEST POP POP POP POP POP SWAP1 DUP1 PUSH1 0x2 ADD SLOAD SWAP1 DUP1 PUSH1 0x3 ADD SLOAD SWAP1 DUP1 PUSH1 0x4 ADD PUSH0 SWAP1 SLOAD SWAP1 PUSH2 0x100 EXP SWAP1 DIV PUSH1 0xFF AND SWAP1 DUP1 PUSH1 0x4 ADD PUSH1 0x1 SWAP1 SLOAD SWAP1 PUSH2 0x100 EXP SWAP1 DIV PUSH1 0xFF AND SWAP1 POP DUP7 JUMP JUMPDEST PUSH2 0x402 DUP2 PUSH2 0x7E6 JUMP JUMPDEST POP JUMP JUMPDEST PUSH0 DUP1 SLOAD SWAP1 PUSH2 0x100 EXP SWAP1 DIV PUSH20 0xFFFFFFFFFFFFFFFFFFFFFFFFFFFFFFFFFFFFFFFF AND PUSH20 0xFFFFFFFFFFFFFFFFFFFFFFFFFFFFFFFFFFFFFFFF AND CALLER PUSH20 0xFFFFFFFFFFFFFFFFFFFFFFFFFFFFFFFFFFFFFFFF AND EQ PUSH2 0x492 JUMPI PUSH1 0x40 MLOAD PUSH32 0x8C379A000000000000000000000000000000000000000000000000000000000 DUP2 MSTORE PUSH1 0x4 ADD PUSH2 0x489 SWAP1 PUSH2 0x12D2 JUMP JUMPDEST PUSH1 0x40 MLOAD DUP1 SWAP2 SUB SWAP1 REVERT JUMPDEST PUSH0 PUSH1 0x1 PUSH0 DUP6 DUP2 MSTORE PUSH1 0x20 ADD SWAP1 DUP2 MSTORE PUSH1 0x20 ADD PUSH0 KECCAK256 SWAP1 POP PUSH0 DUP2 PUSH1 0x2 ADD SLOAD SWAP1 POP PUSH0 DUP2 GT PUSH2 0x4F0 JUMPI PUSH1 0x40 MLOAD PUSH32 0x8C379A000000000000000000000000000000000000000000000000000000000 DUP2 MSTORE PUSH1 0x4 ADD PUSH2 0x4E7 SWAP1 PUSH2 0x133A JUMP JUMPDEST PUSH1 0x40 MLOAD DUP1 SWAP2 SUB SWAP1 REVERT JUMPDEST PUSH0 DUP3 PUSH1 0x2 ADD DUP2 SWAP1 SSTORE POP PUSH2 0x524 DUP4 DUP3 DUP7 PUSH20 0xFFFFFFFFFFFFFFFFFFFFFFFFFFFFFFFFFFFFFFFF AND PUSH2 0x760 SWAP1 SWAP3 SWAP2 SWAP1 PUSH4 0xFFFFFFFF AND JUMP JUMPDEST POP POP POP POP POP JUMP JUMPDEST PUSH0 DUP1 SLOAD SWAP1 PUSH2 0x100 EXP SWAP1 DIV PUSH20 0xFFFFFFFFFFFFFFFFFFFFFFFFFFFFFFFFFFFFFFFF AND DUP2 JUMP JUMPDEST PUSH0 DUP4 GT PUSH2 0x590 JUMPI PUSH1 0x40 MLOAD PUSH32 0x8C379A000000000000000000000000000000000000000000000000000000000 DUP2 MSTORE PUSH1 0x4 ADD PUSH2 0x587 SWAP1 PUSH2 0x13C8 JUMP JUMPDEST PUSH1 0x40 MLOAD DUP1 SWAP2 SUB SWAP1 REVERT JUMPDEST PUSH2 0x5BD CALLER ADDRESS DUP6 DUP9 PUSH20 0xFFFFFFFFFFFFFFFFFFFFFFFFFFFFFFFFFFFFFFFF AND PUSH2 0x8AC SWAP1 SWAP4 SWAP3 SWAP2 SWAP1 PUSH4 0xFFFFFFFF AND JUMP JUMPDEST PUSH0 CALLER DUP6 DUP6 DUP6 PUSH1 0x40 MLOAD PUSH1 0x20 ADD PUSH2 0x5D5 SWAP5 SWAP4 SWAP3 SWAP2 SWAP1 PUSH2 0x1485 JUMP JUMPDEST PUSH1 0x40 MLOAD PUSH1 0x20 DUP2 DUP4 SUB SUB DUP2 MSTORE SWAP1 PUSH1 0x40 MSTORE DUP1 MLOAD SWAP1 PUSH1 0x20 ADD KECCAK256 SWAP1 POP PUSH1 0x40 MLOAD DUP1 PUSH1 0xC0 ADD PUSH1 0x40 MSTORE DUP1 CALLER PUSH20 0xFFFFFFFFFFFFFFFFFFFFFFFFFFFFFFFFFFFFFFFF AND DUP2 MSTORE PUSH1 0x20 ADD DUP7 DUP2 MSTORE PUSH1 0x20 ADD DUP6 DUP2 MSTORE PUSH1 0x20 ADD DUP5 DUP2 MSTORE PUSH1 0x20 ADD PUSH0 ISZERO ISZERO DUP2 MSTORE PUSH1 0x20 ADD PUSH0 ISZERO ISZERO DUP2 MSTORE POP PUSH1 0x1 PUSH0 DUP4 DUP2 MSTORE PUSH1 0x20 ADD SWAP1 DUP2 MSTORE PUSH1 0x20 ADD PUSH0 KECCAK256 PUSH0 DUP3 ADD MLOAD DUP2 PUSH0 ADD PUSH0 PUSH2 0x100 EXP DUP2 SLOAD DUP2 PUSH20 0xFFFFFFFFFFFFFFFFFFFFFFFFFFFFFFFFFFFFFFFF MUL NOT AND SWAP1 DUP4 PUSH20 0xFFFFFFFFFFFFFFFFFFFFFFFFFFFFFFFFFFFFFFFF AND MUL OR SWAP1 SSTORE POP PUSH1 0x20 DUP3 ADD MLOAD DUP2 PUSH1 0x1 ADD SWAP1 DUP2 PUSH2 0x69E SWAP2 SWAP1 PUSH2 0x166B JUMP JUMPDEST POP PUSH1 0x40 DUP3 ADD MLOAD DUP2 PUSH1 0x2 ADD SSTORE PUSH1 0x60 DUP3 ADD MLOAD DUP2 PUSH1 0x3 ADD SSTORE PUSH1 0x80 DUP3 ADD MLOAD DUP2 PUSH1 0x4 ADD PUSH0 PUSH2 0x100 EXP DUP2 SLOAD DUP2 PUSH1 0xFF MUL NOT AND SWAP1 DUP4 ISZERO ISZERO MUL OR SWAP1 SSTORE POP PUSH1 0xA0 DUP3 ADD MLOAD DUP2 PUSH1 0x4 ADD PUSH1 0x1 PUSH2 0x100 EXP DUP2 SLOAD DUP2 PUSH1 0xFF MUL NOT AND SWAP1 DUP4 ISZERO ISZERO MUL OR SWAP1 SSTORE POP SWAP1 POP POP CALLER PUSH20 0xFFFFFFFFFFFFFFFFFFFFFFFFFFFFFFFFFFFFFFFF AND PUSH31 0xA1CFF1B2F4BCFBF6EEEE2C1D4FD6DE1249EEAA035F878BD93899DC7A8348B6 DUP3 DUP8 DUP8 DUP8 PUSH1 0x40 MLOAD PUSH2 0x740 SWAP5 SWAP4 SWAP3 SWAP2 SWAP1 PUSH2 0x173A JUMP JUMPDEST PUSH1 0x40 MLOAD DUP1 SWAP2 SUB SWAP1 LOG2 DUP2 ISZERO PUSH2 0x758 JUMPI PUSH2 0x757 DUP2 PUSH2 0x7E6 JUMP JUMPDEST JUMPDEST POP POP POP POP POP POP JUMP JUMPDEST PUSH2 0x7E1 DUP4 PUSH4 0xA9059CBB PUSH1 0xE0 SHL DUP5 DUP5 PUSH1 0x40 MLOAD PUSH1 0x24 ADD PUSH2 0x77F SWAP3 SWAP2 SWAP1 PUSH2 0x1784 JUMP JUMPDEST PUSH1 0x40 MLOAD PUSH1 0x20 DUP2 DUP4 SUB SUB DUP2 MSTORE SWAP1 PUSH1 0x40 MSTORE SWAP1 PUSH28 0xFFFFFFFFFFFFFFFFFFFFFFFFFFFFFFFFFFFFFFFFFFFFFFFFFFFFFFFF NOT AND PUSH1 0x20 DUP3 ADD DUP1 MLOAD PUSH28 0xFFFFFFFFFFFFFFFFFFFFFFFFFFFFFFFFFFFFFFFFFFFFFFFFFFFFFFFF DUP4 DUP2 DUP4 AND OR DUP4 MSTORE POP POP POP POP PUSH2 0x935 JUMP JUMPDEST POP POP POP JUMP JUMPDEST PUSH0 DUP1 PUSH2 0x8A8 JUMPI PUSH0 PUSH1 0x1 PUSH0 DUP5 DUP2 MSTORE PUSH1 0x20 ADD SWAP1 DUP2 MSTORE PUSH1 0x20 ADD PUSH0 KECCAK256 SWAP1 POP DUP1 PUSH1 0x4 ADD PUSH1 0x1 SWAP1 SLOAD SWAP1 PUSH2 0x100 EXP SWAP1 DIV PUSH1 0xFF AND ISZERO PUSH2 0x852 JUMPI PUSH1 0x40 MLOAD PUSH32 0x8C379A000000000000000000000000000000000000000000000000000000000 DUP2 MSTORE PUSH1 0x4 ADD PUSH2 0x849 SWAP1 PUSH2 0x17F5 JUMP JUMPDEST PUSH1 0x40 MLOAD DUP1 SWAP2 SUB SWAP1 REVERT JUMPDEST PUSH1 0x1 DUP2 PUSH1 0x4 ADD PUSH1 0x1 PUSH2 0x100 EXP DUP2 SLOAD DUP2 PUSH1 0xFF MUL NOT AND SWAP1 DUP4 ISZERO ISZERO MUL OR SWAP1 SSTORE POP PUSH32 0x3374383624A6239154F46D2D6FC35A0E58E2F53B0D5EA77C85D26E3FDDEBDEE0 DUP4 PUSH1 0x40 MLOAD PUSH2 0x89E SWAP2 SWAP1 PUSH2 0x11EC JUMP JUMPDEST PUSH1 0x40 MLOAD DUP1 SWAP2 SUB SWAP1 LOG1 POP JUMPDEST POP POP JUMP JUMPDEST PUSH2 0x92F DUP5 PUSH4 0x23B872DD PUSH1 0xE0 SHL DUP6 DUP6 DUP6 PUSH1 0x40 MLOAD PUSH1 0x24 ADD PUSH2 0x8CD SWAP4 SWAP3 SWAP2 SWAP1 PUSH2 0x1813 JUMP JUMPDEST PUSH1 0x40 MLOAD PUSH1 0x20 DUP2 DUP4 SUB SUB DUP2 MSTORE SWAP1 PUSH1 0x40 MSTORE SWAP1 PUSH28 0xFFFFFFFFFFFFFFFFFFFFFFFFFFFFFFFFFFFFFFFFFFFFFFFFFFFFFFFF NOT AND PUSH1 0x20 DUP3 ADD DUP1 MLOAD PUSH28 0xFFFFFFFFFFFFFFFFFFFFFFFFFFFFFFFFFFFFFFFFFFFFFFFFFFFFFFFF DUP4 DUP2 DUP4 AND OR DUP4 MSTORE POP POP POP POP PUSH2 0x935 JUMP JUMPDEST POP POP POP POP JUMP JUMPDEST PUSH0 PUSH2 0x996 DUP3 PUSH1 0x40 MLOAD DUP1 PUSH1 0x40 ADD PUSH1 0x40 MSTORE DUP1 PUSH1 0x20 DUP2 MSTORE PUSH1 0x20 ADD PUSH32 0x5361666545524332303A206C6F772D6C6576656C2063616C6C206661696C6564 DUP2 MSTORE POP DUP6 PUSH20 0xFFFFFFFFFFFFFFFFFFFFFFFFFFFFFFFFFFFFFFFF AND PUSH2 0x9FA SWAP1 SWAP3 SWAP2 SWAP1 PUSH4 0xFFFFFFFF AND JUMP JUMPDEST SWAP1 POP PUSH0 DUP2 MLOAD GT ISZERO PUSH2 0x9F5 JUMPI DUP1 DUP1 PUSH1 0x20 ADD SWAP1 MLOAD DUP2 ADD SWAP1 PUSH2 0x9B5 SWAP2 SWAP1 PUSH2 0x185C JUMP JUMPDEST PUSH2 0x9F4 JUMPI PUSH1 0x40 MLOAD PUSH32 0x8C379A000000000000000000000000000000000000000000000000000000000 DUP2 MSTORE PUSH1 0x4 ADD PUSH2 0x9EB SWAP1 PUSH2 0x18F7 JUMP JUMPDEST PUSH1 0x40 MLOAD DUP1 SWAP2 SUB SWAP1 REVERT JUMPDEST JUMPDEST POP POP POP JUMP JUMPDEST PUSH1 0x60 PUSH2 0xA08 DUP5 DUP5 PUSH0 DUP6 PUSH2 0xA11 JUMP JUMPDEST SWAP1 POP SWAP4 SWAP3 POP POP POP JUMP JUMPDEST PUSH1 0x60 DUP3 SELFBALANCE LT ISZERO PUSH2 0xA56 JUMPI PUSH1 0x40 MLOAD PUSH32 0x8C379A000000000000000000000000000000000000000000000000000000000 DUP2 MSTORE PUSH1 0x4 ADD PUSH2 0xA4D SWAP1 PUSH2 0x1985 JUMP JUMPDEST PUSH1 0x40 MLOAD DUP1 SWAP2 SUB SWAP1 REVERT JUMPDEST PUSH0 DUP1 DUP7 PUSH20 0xFFFFFFFFFFFFFFFFFFFFFFFFFFFFFFFFFFFFFFFF AND DUP6 DUP8 PUSH1 0x40 MLOAD PUSH2 0xA7E SWAP2 SWAP1 PUSH2 0x19E7 JUMP JUMPDEST PUSH0 PUSH1 0x40 MLOAD DUP1 DUP4 SUB DUP2 DUP6 DUP8 GAS CALL SWAP3 POP POP POP RETURNDATASIZE DUP1 PUSH0 DUP2 EQ PUSH2 0xAB8 JUMPI PUSH1 0x40 MLOAD SWAP2 POP PUSH1 0x1F NOT PUSH1 0x3F RETURNDATASIZE ADD AND DUP3 ADD PUSH1 0x40 MSTORE RETURNDATASIZE DUP3 MSTORE RETURNDATASIZE PUSH0 PUSH1 0x20 DUP5 ADD RETURNDATACOPY PUSH2 0xABD JUMP JUMPDEST PUSH1 0x60 SWAP2 POP JUMPDEST POP SWAP2 POP SWAP2 POP PUSH2 0xACE DUP8 DUP4 DUP4 DUP8 PUSH2 0xADA JUMP JUMPDEST SWAP3 POP POP POP SWAP5 SWAP4 POP POP POP POP JUMP JUMPDEST PUSH1 0x60 DUP4 ISZERO PUSH2 0xB3B JUMPI PUSH0 DUP4 MLOAD SUB PUSH2 0xB33 JUMPI PUSH2 0xAF3 DUP6 PUSH2 0xB4E JUMP JUMPDEST PUSH2 0xB32 JUMPI PUSH1 0x40 MLOAD PUSH32 0x8C379A000000000000000000000000000000000000000000000000000000000 DUP2 MSTORE PUSH1 0x4 ADD PUSH2 0xB29 SWAP1 PUSH2 0x1A47 JUMP JUMPDEST PUSH1 0x40 MLOAD DUP1 SWAP2 SUB SWAP1 REVERT JUMPDEST JUMPDEST DUP3 SWAP1 POP PUSH2 0xB46 JUMP JUMPDEST PUSH2 0xB45 DUP4 DUP4 PUSH2 0xB70 JUMP JUMPDEST JUMPDEST SWAP5 SWAP4 POP POP POP POP JUMP JUMPDEST PUSH0 DUP1 DUP3 PUSH20 0xFFFFFFFFFFFFFFFFFFFFFFFFFFFFFFFFFFFFFFFF AND EXTCODESIZE GT SWAP1 POP SWAP2 SWAP1 POP JUMP JUMPDEST PUSH0 DUP3 MLOAD GT ISZERO PUSH2 0xB82 JUMPI DUP2 MLOAD DUP1 DUP4 PUSH1 0x20 ADD REVERT JUMPDEST DUP1 PUSH1 0x40 MLOAD PUSH32 0x8C379A000000000000000000000000000000000000000000000000000000000 DUP2 MSTORE PUSH1 0x4 ADD PUSH2 0xBB6 SWAP2 SWAP1 PUSH2 0x1A65 JUMP JUMPDEST PUSH1 0x40 MLOAD DUP1 SWAP2 SUB SWAP1 REVERT JUMPDEST PUSH0 PUSH1 0x40 MLOAD SWAP1 POP SWAP1 JUMP JUMPDEST PUSH0 DUP1 REVERT JUMPDEST PUSH0 DUP1 REVERT JUMPDEST PUSH0 DUP2 SWAP1 POP SWAP2 SWAP1 POP JUMP JUMPDEST PUSH2 0xBE2 DUP2 PUSH2 0xBD0 JUMP JUMPDEST DUP2 EQ PUSH2 0xBEC JUMPI PUSH0 DUP1 REVERT JUMPDEST POP JUMP JUMPDEST PUSH0 DUP2 CALLDATALOAD SWAP1 POP PUSH2 0xBFD DUP2 PUSH2 0xBD9 JUMP JUMPDEST SWAP3 SWAP2 POP POP JUMP JUMPDEST PUSH0 PUSH20 0xFFFFFFFFFFFFFFFFFFFFFFFFFFFFFFFFFFFFFFFF DUP3 AND SWAP1 POP SWAP2 SWAP1 POP JUMP JUMPDEST PUSH0 PUSH2 0xC2C DUP3 PUSH2 0xC03 JUMP JUMPDEST SWAP1 POP SWAP2 SWAP1 POP JUMP JUMPDEST PUSH2 0xC3C DUP2 PUSH2 0xC22 JUMP JUMPDEST DUP2 EQ PUSH2 0xC46 JUMPI PUSH0 DUP1 REVERT JUMPDEST POP JUMP JUMPDEST PUSH0 DUP2 CALLDATALOAD SWAP1 POP PUSH2 0xC57 DUP2 PUSH2 0xC33 JUMP JUMPDEST SWAP3 SWAP2 POP POP JUMP JUMPDEST PUSH0 DUP1 PUSH1 0x40 DUP4 DUP6 SUB SLT ISZERO PUSH2 0xC73 JUMPI PUSH2 0xC72 PUSH2 0xBC8 JUMP JUMPDEST JUMPDEST PUSH0 PUSH2 0xC80 DUP6 DUP3 DUP7 ADD PUSH2 0xBEF JUMP JUMPDEST SWAP3 POP POP PUSH1 0x20 PUSH2 0xC91 DUP6 DUP3 DUP7 ADD PUSH2 0xC49 JUMP JUMPDEST SWAP2 POP POP SWAP3 POP SWAP3 SWAP1 POP JUMP JUMPDEST PUSH0 PUSH1 0x20 DUP3 DUP5 SUB SLT ISZERO PUSH2 0xCB0 JUMPI PUSH2 0xCAF PUSH2 0xBC8 JUMP JUMPDEST JUMPDEST PUSH0 PUSH2 0xCBD DUP5 DUP3 DUP6 ADD PUSH2 0xBEF JUMP JUMPDEST SWAP2 POP POP SWAP3 SWAP2 POP POP JUMP JUMPDEST PUSH2 0xCCF DUP2 PUSH2 0xC22 JUMP JUMPDEST DUP3 MSTORE POP POP JUMP JUMPDEST PUSH0 DUP2 MLOAD SWAP1 POP SWAP2 SWAP1 POP JUMP JUMPDEST PUSH0 DUP3 DUP3 MSTORE PUSH1 0x20 DUP3 ADD SWAP1 POP SWAP3 SWAP2 POP POP JUMP JUMPDEST DUP3 DUP2 DUP4 MCOPY PUSH0 DUP4 DUP4 ADD MSTORE POP POP POP JUMP JUMPDEST PUSH0 PUSH1 0x1F NOT PUSH1 0x1F DUP4 ADD AND SWAP1 POP SWAP2 SWAP1 POP JUMP JUMPDEST PUSH0 PUSH2 0xD17 DUP3 PUSH2 0xCD5 JUMP JUMPDEST PUSH2 0xD21 DUP2 DUP6 PUSH2 0xCDF JUMP JUMPDEST SWAP4 POP PUSH2 0xD31 DUP2 DUP6 PUSH1 0x20 DUP7 ADD PUSH2 0xCEF JUMP JUMPDEST PUSH2 0xD3A DUP2 PUSH2 0xCFD JUMP JUMPDEST DUP5 ADD SWAP2 POP POP SWAP3 SWAP2 POP POP JUMP JUMPDEST PUSH0 DUP2 SWAP1 POP SWAP2 SWAP1 POP JUMP JUMPDEST PUSH2 0xD57 DUP2 PUSH2 0xD45 JUMP JUMPDEST DUP3 MSTORE POP POP JUMP JUMPDEST PUSH0 DUP2 ISZERO ISZERO SWAP1 POP SWAP2 SWAP1 POP JUMP JUMPDEST PUSH2 0xD71 DUP2 PUSH2 0xD5D JUMP JUMPDEST DUP3 MSTORE POP POP JUMP JUMPDEST PUSH0 PUSH1 0xC0 DUP3 ADD SWAP1 POP PUSH2 0xD8A PUSH0 DUP4 ADD DUP10 PUSH2 0xCC6 JUMP JUMPDEST DUP2 DUP2 SUB PUSH1 0x20 DUP4 ADD MSTORE PUSH2 0xD9C DUP2 DUP9 PUSH2 0xD0D JUMP JUMPDEST SWAP1 POP PUSH2 0xDAB PUSH1 0x40 DUP4 ADD DUP8 PUSH2 0xD4E JUMP JUMPDEST PUSH2 0xDB8 PUSH1 0x60 DUP4 ADD DUP7 PUSH2 0xD4E JUMP JUMPDEST PUSH2 0xDC5 PUSH1 0x80 DUP4 ADD DUP6 PUSH2 0xD68 JUMP JUMPDEST PUSH2 0xDD2 PUSH1 0xA0 DUP4 ADD DUP5 PUSH2 0xD68 JUMP JUMPDEST SWAP8 SWAP7 POP POP POP POP POP POP POP JUMP JUMPDEST PUSH0 DUP1 PUSH0 PUSH1 0x60 DUP5 DUP7 SUB SLT ISZERO PUSH2 0xDF4 JUMPI PUSH2 0xDF3 PUSH2 0xBC8 JUMP JUMPDEST JUMPDEST PUSH0 PUSH2 0xE01 DUP7 DUP3 DUP8 ADD PUSH2 0xBEF JUMP JUMPDEST SWAP4 POP POP PUSH1 0x20 PUSH2 0xE12 DUP7 DUP3 DUP8 ADD PUSH2 0xC49 JUMP JUMPDEST SWAP3 POP POP PUSH1 0x40 PUSH2 0xE23 DUP7 DUP3 DUP8 ADD PUSH2 0xC49 JUMP JUMPDEST SWAP2 POP POP SWAP3 POP SWAP3 POP SWAP3 JUMP JUMPDEST PUSH0 PUSH1 0x20 DUP3 ADD SWAP1 POP PUSH2 0xE40 PUSH0 DUP4 ADD DUP5 PUSH2 0xCC6 JUMP JUMPDEST SWAP3 SWAP2 POP POP JUMP JUMPDEST PUSH0 DUP1 REVERT JUMPDEST PUSH0 DUP1 REVERT JUMPDEST PUSH32 0x4E487B7100000000000000000000000000000000000000000000000000000000 PUSH0 MSTORE PUSH1 0x41 PUSH1 0x4 MSTORE PUSH1 0x24 PUSH0 REVERT JUMPDEST PUSH2 0xE84 DUP3 PUSH2 0xCFD JUMP JUMPDEST DUP2 ADD DUP2 DUP2 LT PUSH8 0xFFFFFFFFFFFFFFFF DUP3 GT OR ISZERO PUSH2 0xEA3 JUMPI PUSH2 0xEA2 PUSH2 0xE4E JUMP JUMPDEST JUMPDEST DUP1 PUSH1 0x40 MSTORE POP POP POP JUMP JUMPDEST PUSH0 PUSH2 0xEB5 PUSH2 0xBBF JUMP JUMPDEST SWAP1 POP PUSH2 0xEC1 DUP3 DUP3 PUSH2 0xE7B JUMP JUMPDEST SWAP2 SWAP1 POP JUMP JUMPDEST PUSH0 PUSH8 0xFFFFFFFFFFFFFFFF DUP3 GT ISZERO PUSH2 0xEE0 JUMPI PUSH2 0xEDF PUSH2 0xE4E JUMP JUMPDEST JUMPDEST PUSH2 0xEE9 DUP3 PUSH2 0xCFD JUMP JUMPDEST SWAP1 POP PUSH1 0x20 DUP2 ADD SWAP1 POP SWAP2 SWAP1 POP JUMP JUMPDEST DUP3 DUP2 DUP4 CALLDATACOPY PUSH0 DUP4 DUP4 ADD MSTORE POP POP POP JUMP JUMPDEST PUSH0 PUSH2 0xF16 PUSH2 0xF11 DUP5 PUSH2 0xEC6 JUMP JUMPDEST PUSH2 0xEAC JUMP JUMPDEST SWAP1 POP DUP3 DUP2 MSTORE PUSH1 0x20 DUP2 ADD DUP5 DUP5 DUP5 ADD GT ISZERO PUSH2 0xF32 JUMPI PUSH2 0xF31 PUSH2 0xE4A JUMP JUMPDEST JUMPDEST PUSH2 0xF3D DUP5 DUP3 DUP6 PUSH2 0xEF6 JUMP JUMPDEST POP SWAP4 SWAP3 POP POP POP JUMP JUMPDEST PUSH0 DUP3 PUSH1 0x1F DUP4 ADD SLT PUSH2 0xF59 JUMPI PUSH2 0xF58 PUSH2 0xE46 JUMP JUMPDEST JUMPDEST DUP2 CALLDATALOAD PUSH2 0xF69 DUP5 DUP3 PUSH1 0x20 DUP7 ADD PUSH2 0xF04 JUMP JUMPDEST SWAP2 POP POP SWAP3 SWAP2 POP POP JUMP JUMPDEST PUSH2 0xF7B DUP2 PUSH2 0xD45 JUMP JUMPDEST DUP2 EQ PUSH2 0xF85 JUMPI PUSH0 DUP1 REVERT JUMPDEST POP JUMP JUMPDEST PUSH0 DUP2 CALLDATALOAD SWAP1 POP PUSH2 0xF96 DUP2 PUSH2 0xF72 JUMP JUMPDEST SWAP3 SWAP2 POP POP JUMP JUMPDEST PUSH2 0xFA5 DUP2 PUSH2 0xD5D JUMP JUMPDEST DUP2 EQ PUSH2 0xFAF JUMPI PUSH0 DUP1 REVERT JUMPDEST POP JUMP JUMPDEST PUSH0 DUP2 CALLDATALOAD SWAP1 POP PUSH2 0xFC0 DUP2 PUSH2 0xF9C JUMP JUMPDEST SWAP3 SWAP2 POP POP JUMP JUMPDEST PUSH0 DUP1 PUSH0 DUP1 PUSH0 PUSH1 0xA0 DUP7 DUP9 SUB SLT ISZERO PUSH2 0xFDF JUMPI PUSH2 0xFDE PUSH2 0xBC8 JUMP JUMPDEST JUMPDEST PUSH0 PUSH2 0xFEC DUP9 DUP3 DUP10 ADD PUSH2 0xC49 JUMP JUMPDEST SWAP6 POP POP PUSH1 0x20 DUP7 ADD CALLDATALOAD PUSH8 0xFFFFFFFFFFFFFFFF DUP2 GT ISZERO PUSH2 0x100D JUMPI PUSH2 0x100C PUSH2 0xBCC JUMP JUMPDEST JUMPDEST PUSH2 0x1019 DUP9 DUP3 DUP10 ADD PUSH2 0xF45 JUMP JUMPDEST SWAP5 POP POP PUSH1 0x40 PUSH2 0x102A DUP9 DUP3 DUP10 ADD PUSH2 0xF88 JUMP JUMPDEST SWAP4 POP POP PUSH1 0x60 PUSH2 0x103B DUP9 DUP3 DUP10 ADD PUSH2 0xF88 JUMP JUMPDEST SWAP3 POP POP PUSH1 0x80 PUSH2 0x104C DUP9 DUP3 DUP10 ADD PUSH2 0xFB2 JUMP JUMPDEST SWAP2 POP POP SWAP3 SWAP6 POP SWAP3 SWAP6 SWAP1 SWAP4 POP JUMP JUMPDEST PUSH32 0x4465706F73697420616C72656164792077697468647261776E2E000000000000 PUSH0 DUP3 ADD MSTORE POP JUMP JUMPDEST PUSH0 PUSH2 0x108D PUSH1 0x1A DUP4 PUSH2 0xCDF JUMP JUMPDEST SWAP2 POP PUSH2 0x1098 DUP3 PUSH2 0x1059 JUMP JUMPDEST PUSH1 0x20 DUP3 ADD SWAP1 POP SWAP2 SWAP1 POP JUMP JUMPDEST PUSH0 PUSH1 0x20 DUP3 ADD SWAP1 POP DUP2 DUP2 SUB PUSH0 DUP4 ADD MSTORE PUSH2 0x10BA DUP2 PUSH2 0x1081 JUMP JUMPDEST SWAP1 POP SWAP2 SWAP1 POP JUMP JUMPDEST PUSH32 0x4F6E6C7920746865206465706F7369746F722063616E20776974686472617720 PUSH0 DUP3 ADD MSTORE PUSH32 0x746865206465706F7369742E0000000000000000000000000000000000000000 PUSH1 0x20 DUP3 ADD MSTORE POP JUMP JUMPDEST PUSH0 PUSH2 0x111B PUSH1 0x2C DUP4 PUSH2 0xCDF JUMP JUMPDEST SWAP2 POP PUSH2 0x1126 DUP3 PUSH2 0x10C1 JUMP JUMPDEST PUSH1 0x40 DUP3 ADD SWAP1 POP SWAP2 SWAP1 POP JUMP JUMPDEST PUSH0 PUSH1 0x20 DUP3 ADD SWAP1 POP DUP2 DUP2 SUB PUSH0 DUP4 ADD MSTORE PUSH2 0x1148 DUP2 PUSH2 0x110F JUMP JUMPDEST SWAP1 POP SWAP2 SWAP1 POP JUMP JUMPDEST PUSH32 0x436F6E646974696F6E7320666F72207769746864726177616C206E6F74206D65 PUSH0 DUP3 ADD MSTORE PUSH32 0x742E000000000000000000000000000000000000000000000000000000000000 PUSH1 0x20 DUP3 ADD MSTORE POP JUMP JUMPDEST PUSH0 PUSH2 0x11A9 PUSH1 0x22 DUP4 PUSH2 0xCDF JUMP JUMPDEST SWAP2 POP PUSH2 0x11B4 DUP3 PUSH2 0x114F JUMP JUMPDEST PUSH1 0x40 DUP3 ADD SWAP1 POP SWAP2 SWAP1 POP JUMP JUMPDEST PUSH0 PUSH1 0x20 DUP3 ADD SWAP1 POP DUP2 DUP2 SUB PUSH0 DUP4 ADD MSTORE PUSH2 0x11D6 DUP2 PUSH2 0x119D JUMP JUMPDEST SWAP1 POP SWAP2 SWAP1 POP JUMP JUMPDEST PUSH2 0x11E6 DUP2 PUSH2 0xBD0 JUMP JUMPDEST DUP3 MSTORE POP POP JUMP JUMPDEST PUSH0 PUSH1 0x20 DUP3 ADD SWAP1 POP PUSH2 0x11FF PUSH0 DUP4 ADD DUP5 PUSH2 0x11DD JUMP JUMPDEST SWAP3 SWAP2 POP POP JUMP JUMPDEST PUSH32 0x4E487B7100000000000000000000000000000000000000000000000000000000 PUSH0 MSTORE PUSH1 0x22 PUSH1 0x4 MSTORE PUSH1 0x24 PUSH0 REVERT JUMPDEST PUSH0 PUSH1 0x2 DUP3 DIV SWAP1 POP PUSH1 0x1 DUP3 AND DUP1 PUSH2 0x1249 JUMPI PUSH1 0x7F DUP3 AND SWAP2 POP JUMPDEST PUSH1 0x20 DUP3 LT DUP2 SUB PUSH2 0x125C JUMPI PUSH2 0x125B PUSH2 0x1205 JUMP JUMPDEST JUMPDEST POP SWAP2 SWAP1 POP JUMP JUMPDEST PUSH32 0x4F6E6C792076616C69646174696F6E20636F6E74726163742063616E20636F6E PUSH0 DUP3 ADD MSTORE PUSH32 0x6669736361746500000000000000000000000000000000000000000000000000 PUSH1 0x20 DUP3 ADD MSTORE POP JUMP JUMPDEST PUSH0 PUSH2 0x12BC PUSH1 0x27 DUP4 PUSH2 0xCDF JUMP JUMPDEST SWAP2 POP PUSH2 0x12C7 DUP3 PUSH2 0x1262 JUMP JUMPDEST PUSH1 0x40 DUP3 ADD SWAP1 POP SWAP2 SWAP1 POP JUMP JUMPDEST PUSH0 PUSH1 0x20 DUP3 ADD SWAP1 POP DUP2 DUP2 SUB PUSH0 DUP4 ADD MSTORE PUSH2 0x12E9 DUP2 PUSH2 0x12B0 JUMP JUMPDEST SWAP1 POP SWAP2 SWAP1 POP JUMP JUMPDEST PUSH32 0x4E6F2066756E647320746F20636F6E6669736361746500000000000000000000 PUSH0 DUP3 ADD MSTORE POP JUMP JUMPDEST PUSH0 PUSH2 0x1324 PUSH1 0x16 DUP4 PUSH2 0xCDF JUMP JUMPDEST SWAP2 POP PUSH2 0x132F DUP3 PUSH2 0x12F0 JUMP JUMPDEST PUSH1 0x20 DUP3 ADD SWAP1 POP SWAP2 SWAP1 POP JUMP JUMPDEST PUSH0 PUSH1 0x20 DUP3 ADD SWAP1 POP DUP2 DUP2 SUB PUSH0 DUP4 ADD MSTORE PUSH2 0x1351 DUP2 PUSH2 0x1318 JUMP JUMPDEST SWAP1 POP SWAP2 SWAP1 POP JUMP JUMPDEST PUSH32 0x416D6F756E74206D7573742062652067726561746572207468616E207A65726F PUSH0 DUP3 ADD MSTORE PUSH32 0x2E00000000000000000000000000000000000000000000000000000000000000 PUSH1 0x20 DUP3 ADD MSTORE POP JUMP JUMPDEST PUSH0 PUSH2 0x13B2 PUSH1 0x21 DUP4 PUSH2 0xCDF JUMP JUMPDEST SWAP2 POP PUSH2 0x13BD DUP3 PUSH2 0x1358 JUMP JUMPDEST PUSH1 0x40 DUP3 ADD SWAP1 POP SWAP2 SWAP1 POP JUMP JUMPDEST PUSH0 PUSH1 0x20 DUP3 ADD SWAP1 POP DUP2 DUP2 SUB PUSH0 DUP4 ADD MSTORE PUSH2 0x13DF DUP2 PUSH2 0x13A6 JUMP JUMPDEST SWAP1 POP SWAP2 SWAP1 POP JUMP JUMPDEST PUSH0 DUP2 PUSH1 0x60 SHL SWAP1 POP SWAP2 SWAP1 POP JUMP JUMPDEST PUSH0 PUSH2 0x13FC DUP3 PUSH2 0x13E6 JUMP JUMPDEST SWAP1 POP SWAP2 SWAP1 POP JUMP JUMPDEST PUSH0 PUSH2 0x140D DUP3 PUSH2 0x13F2 JUMP JUMPDEST SWAP1 POP SWAP2 SWAP1 POP JUMP JUMPDEST PUSH2 0x1425 PUSH2 0x1420 DUP3 PUSH2 0xC22 JUMP JUMPDEST PUSH2 0x1403 JUMP JUMPDEST DUP3 MSTORE POP POP JUMP JUMPDEST PUSH0 DUP2 SWAP1 POP SWAP3 SWAP2 POP POP JUMP JUMPDEST PUSH0 PUSH2 0x143F DUP3 PUSH2 0xCD5 JUMP JUMPDEST PUSH2 0x1449 DUP2 DUP6 PUSH2 0x142B JUMP JUMPDEST SWAP4 POP PUSH2 0x1459 DUP2 DUP6 PUSH1 0x20 DUP7 ADD PUSH2 0xCEF JUMP JUMPDEST DUP1 DUP5 ADD SWAP2 POP POP SWAP3 SWAP2 POP POP JUMP JUMPDEST PUSH0 DUP2 SWAP1 POP SWAP2 SWAP1 POP JUMP JUMPDEST PUSH2 0x147F PUSH2 0x147A DUP3 PUSH2 0xD45 JUMP JUMPDEST PUSH2 0x1465 JUMP JUMPDEST DUP3 MSTORE POP POP JUMP JUMPDEST PUSH0 PUSH2 0x1490 DUP3 DUP8 PUSH2 0x1414 JUMP JUMPDEST PUSH1 0x14 DUP3 ADD SWAP2 POP PUSH2 0x14A0 DUP3 DUP7 PUSH2 0x1435 JUMP JUMPDEST SWAP2 POP PUSH2 0x14AC DUP3 DUP6 PUSH2 0x146E JUMP JUMPDEST PUSH1 0x20 DUP3 ADD SWAP2 POP PUSH2 0x14BC DUP3 DUP5 PUSH2 0x146E JUMP JUMPDEST PUSH1 0x20 DUP3 ADD SWAP2 POP DUP2 SWAP1 POP SWAP6 SWAP5 POP POP POP POP POP JUMP JUMPDEST PUSH0 DUP2 SWAP1 POP DUP2 PUSH0 MSTORE PUSH1 0x20 PUSH0 KECCAK256 SWAP1 POP SWAP2 SWAP1 POP JUMP JUMPDEST PUSH0 PUSH1 0x20 PUSH1 0x1F DUP4 ADD DIV SWAP1 POP SWAP2 SWAP1 POP JUMP JUMPDEST PUSH0 DUP3 DUP3 SHL SWAP1 POP SWAP3 SWAP2 POP POP JUMP JUMPDEST PUSH0 PUSH1 0x8 DUP4 MUL PUSH2 0x152A PUSH32 0xFFFFFFFFFFFFFFFFFFFFFFFFFFFFFFFFFFFFFFFFFFFFFFFFFFFFFFFFFFFFFFFF DUP3 PUSH2 0x14EF JUMP JUMPDEST PUSH2 0x1534 DUP7 DUP4 PUSH2 0x14EF JUMP JUMPDEST SWAP6 POP DUP1 NOT DUP5 AND SWAP4 POP DUP1 DUP7 AND DUP5 OR SWAP3 POP POP POP SWAP4 SWAP3 POP POP POP JUMP JUMPDEST PUSH0 DUP2 SWAP1 POP SWAP2 SWAP1 POP JUMP JUMPDEST PUSH0 PUSH2 0x156F PUSH2 0x156A PUSH2 0x1565 DUP5 PUSH2 0xD45 JUMP JUMPDEST PUSH2 0x154C JUMP JUMPDEST PUSH2 0xD45 JUMP JUMPDEST SWAP1 POP SWAP2 SWAP1 POP JUMP JUMPDEST PUSH0 DUP2 SWAP1 POP SWAP2 SWAP1 POP JUMP JUMPDEST PUSH2 0x1588 DUP4 PUSH2 0x1555 JUMP JUMPDEST PUSH2 0x159C PUSH2 0x1594 DUP3 PUSH2 0x1576 JUMP JUMPDEST DUP5 DUP5 SLOAD PUSH2 0x14FB JUMP JUMPDEST DUP3 SSTORE POP POP POP POP JUMP JUMPDEST PUSH0 SWAP1 JUMP JUMPDEST PUSH2 0x15B0 PUSH2 0x15A4 JUMP JUMPDEST PUSH2 0x15BB DUP2 DUP5 DUP5 PUSH2 0x157F JUMP JUMPDEST POP POP POP JUMP JUMPDEST JUMPDEST DUP2 DUP2 LT ISZERO PUSH2 0x15DE JUMPI PUSH2 0x15D3 PUSH0 DUP3 PUSH2 0x15A8 JUMP JUMPDEST PUSH1 0x1 DUP2 ADD SWAP1 POP PUSH2 0x15C1 JUMP JUMPDEST POP POP JUMP JUMPDEST PUSH1 0x1F DUP3 GT ISZERO PUSH2 0x1623 JUMPI PUSH2 0x15F4 DUP2 PUSH2 0x14CE JUMP JUMPDEST PUSH2 0x15FD DUP5 PUSH2 0x14E0 JUMP JUMPDEST DUP2 ADD PUSH1 0x20 DUP6 LT ISZERO PUSH2 0x160C JUMPI DUP2 SWAP1 POP JUMPDEST PUSH2 0x1620 PUSH2 0x1618 DUP6 PUSH2 0x14E0 JUMP JUMPDEST DUP4 ADD DUP3 PUSH2 0x15C0 JUMP JUMPDEST POP POP JUMPDEST POP POP POP JUMP JUMPDEST PUSH0 DUP3 DUP3 SHR SWAP1 POP SWAP3 SWAP2 POP POP JUMP JUMPDEST PUSH0 PUSH2 0x1643 PUSH0 NOT DUP5 PUSH1 0x8 MUL PUSH2 0x1628 JUMP JUMPDEST NOT DUP1 DUP4 AND SWAP2 POP POP SWAP3 SWAP2 POP POP JUMP JUMPDEST PUSH0 PUSH2 0x165B DUP4 DUP4 PUSH2 0x1634 JUMP JUMPDEST SWAP2 POP DUP3 PUSH1 0x2 MUL DUP3 OR SWAP1 POP SWAP3 SWAP2 POP POP JUMP JUMPDEST PUSH2 0x1674 DUP3 PUSH2 0xCD5 JUMP JUMPDEST PUSH8 0xFFFFFFFFFFFFFFFF DUP2 GT ISZERO PUSH2 0x168D JUMPI PUSH2 0x168C PUSH2 0xE4E JUMP JUMPDEST JUMPDEST PUSH2 0x1697 DUP3 SLOAD PUSH2 0x1232 JUMP JUMPDEST PUSH2 0x16A2 DUP3 DUP3 DUP6 PUSH2 0x15E2 JUMP JUMPDEST PUSH0 PUSH1 0x20 SWAP1 POP PUSH1 0x1F DUP4 GT PUSH1 0x1 DUP2 EQ PUSH2 0x16D3 JUMPI PUSH0 DUP5 ISZERO PUSH2 0x16C1 JUMPI DUP3 DUP8 ADD MLOAD SWAP1 POP JUMPDEST PUSH2 0x16CB DUP6 DUP3 PUSH2 0x1650 JUMP JUMPDEST DUP7 SSTORE POP PUSH2 0x1732 JUMP JUMPDEST PUSH1 0x1F NOT DUP5 AND PUSH2 0x16E1 DUP7 PUSH2 0x14CE JUMP JUMPDEST PUSH0 JUMPDEST DUP3 DUP2 LT ISZERO PUSH2 0x1708 JUMPI DUP5 DUP10 ADD MLOAD DUP3 SSTORE PUSH1 0x1 DUP3 ADD SWAP2 POP PUSH1 0x20 DUP6 ADD SWAP5 POP PUSH1 0x20 DUP2 ADD SWAP1 POP PUSH2 0x16E3 JUMP JUMPDEST DUP7 DUP4 LT ISZERO PUSH2 0x1725 JUMPI DUP5 DUP10 ADD MLOAD PUSH2 0x1721 PUSH1 0x1F DUP10 AND DUP3 PUSH2 0x1634 JUMP JUMPDEST DUP4 SSTORE POP JUMPDEST PUSH1 0x1 PUSH1 0x2 DUP9 MUL ADD DUP9 SSTORE POP POP POP JUMPDEST POP POP POP POP POP POP JUMP JUMPDEST PUSH0 PUSH1 0x80 DUP3 ADD SWAP1 POP PUSH2 0x174D PUSH0 DUP4 ADD DUP8 PUSH2 0x11DD JUMP JUMPDEST DUP2 DUP2 SUB PUSH1 0x20 DUP4 ADD MSTORE PUSH2 0x175F DUP2 DUP7 PUSH2 0xD0D JUMP JUMPDEST SWAP1 POP PUSH2 0x176E PUSH1 0x40 DUP4 ADD DUP6 PUSH2 0xD4E JUMP JUMPDEST PUSH2 0x177B PUSH1 0x60 DUP4 ADD DUP5 PUSH2 0xD4E JUMP JUMPDEST SWAP6 SWAP5 POP POP POP POP POP JUMP JUMPDEST PUSH0 PUSH1 0x40 DUP3 ADD SWAP1 POP PUSH2 0x1797 PUSH0 DUP4 ADD DUP6 PUSH2 0xCC6 JUMP JUMPDEST PUSH2 0x17A4 PUSH1 0x20 DUP4 ADD DUP5 PUSH2 0xD4E JUMP JUMPDEST SWAP4 SWAP3 POP POP POP JUMP JUMPDEST PUSH32 0x4576656E7420616C7265616479206F636375727265642E000000000000000000 PUSH0 DUP3 ADD MSTORE POP JUMP JUMPDEST PUSH0 PUSH2 0x17DF PUSH1 0x17 DUP4 PUSH2 0xCDF JUMP JUMPDEST SWAP2 POP PUSH2 0x17EA DUP3 PUSH2 0x17AB JUMP JUMPDEST PUSH1 0x20 DUP3 ADD SWAP1 POP SWAP2 SWAP1 POP JUMP JUMPDEST PUSH0 PUSH1 0x20 DUP3 ADD SWAP1 POP DUP2 DUP2 SUB PUSH0 DUP4 ADD MSTORE PUSH2 0x180C DUP2 PUSH2 0x17D3 JUMP JUMPDEST SWAP1 POP SWAP2 SWAP1 POP JUMP JUMPDEST PUSH0 PUSH1 0x60 DUP3 ADD SWAP1 POP PUSH2 0x1826 PUSH0 DUP4 ADD DUP7 PUSH2 0xCC6 JUMP JUMPDEST PUSH2 0x1833 PUSH1 0x20 DUP4 ADD DUP6 PUSH2 0xCC6 JUMP JUMPDEST PUSH2 0x1840 PUSH1 0x40 DUP4 ADD DUP5 PUSH2 0xD4E JUMP JUMPDEST SWAP5 SWAP4 POP POP POP POP JUMP JUMPDEST PUSH0 DUP2 MLOAD SWAP1 POP PUSH2 0x1856 DUP2 PUSH2 0xF9C JUMP JUMPDEST SWAP3 SWAP2 POP POP JUMP JUMPDEST PUSH0 PUSH1 0x20 DUP3 DUP5 SUB SLT ISZERO PUSH2 0x1871 JUMPI PUSH2 0x1870 PUSH2 0xBC8 JUMP JUMPDEST JUMPDEST PUSH0 PUSH2 0x187E DUP5 DUP3 DUP6 ADD PUSH2 0x1848 JUMP JUMPDEST SWAP2 POP POP SWAP3 SWAP2 POP POP JUMP JUMPDEST PUSH32 0x5361666545524332303A204552433230206F7065726174696F6E20646964206E PUSH0 DUP3 ADD MSTORE PUSH32 0x6F74207375636365656400000000000000000000000000000000000000000000 PUSH1 0x20 DUP3 ADD MSTORE POP JUMP JUMPDEST PUSH0 PUSH2 0x18E1 PUSH1 0x2A DUP4 PUSH2 0xCDF JUMP JUMPDEST SWAP2 POP PUSH2 0x18EC DUP3 PUSH2 0x1887 JUMP JUMPDEST PUSH1 0x40 DUP3 ADD SWAP1 POP SWAP2 SWAP1 POP JUMP JUMPDEST PUSH0 PUSH1 0x20 DUP3 ADD SWAP1 POP DUP2 DUP2 SUB PUSH0 DUP4 ADD MSTORE PUSH2 0x190E DUP2 PUSH2 0x18D5 JUMP JUMPDEST SWAP1 POP SWAP2 SWAP1 POP JUMP JUMPDEST PUSH32 0x416464726573733A20696E73756666696369656E742062616C616E636520666F PUSH0 DUP3 ADD MSTORE PUSH32 0x722063616C6C0000000000000000000000000000000000000000000000000000 PUSH1 0x20 DUP3 ADD MSTORE POP JUMP JUMPDEST PUSH0 PUSH2 0x196F PUSH1 0x26 DUP4 PUSH2 0xCDF JUMP JUMPDEST SWAP2 POP PUSH2 0x197A DUP3 PUSH2 0x1915 JUMP JUMPDEST PUSH1 0x40 DUP3 ADD SWAP1 POP SWAP2 SWAP1 POP JUMP JUMPDEST PUSH0 PUSH1 0x20 DUP3 ADD SWAP1 POP DUP2 DUP2 SUB PUSH0 DUP4 ADD MSTORE PUSH2 0x199C DUP2 PUSH2 0x1963 JUMP JUMPDEST SWAP1 POP SWAP2 SWAP1 POP JUMP JUMPDEST PUSH0 DUP2 MLOAD SWAP1 POP SWAP2 SWAP1 POP JUMP JUMPDEST PUSH0 DUP2 SWAP1 POP SWAP3 SWAP2 POP POP JUMP JUMPDEST PUSH0 PUSH2 0x19C1 DUP3 PUSH2 0x19A3 JUMP JUMPDEST PUSH2 0x19CB DUP2 DUP6 PUSH2 0x19AD JUMP JUMPDEST SWAP4 POP PUSH2 0x19DB DUP2 DUP6 PUSH1 0x20 DUP7 ADD PUSH2 0xCEF JUMP JUMPDEST DUP1 DUP5 ADD SWAP2 POP POP SWAP3 SWAP2 POP POP JUMP JUMPDEST PUSH0 PUSH2 0x19F2 DUP3 DUP5 PUSH2 0x19B7 JUMP JUMPDEST SWAP2 POP DUP2 SWAP1 POP SWAP3 SWAP2 POP POP JUMP JUMPDEST PUSH32 0x416464726573733A2063616C6C20746F206E6F6E2D636F6E7472616374000000 PUSH0 DUP3 ADD MSTORE POP JUMP JUMPDEST PUSH0 PUSH2 0x1A31 PUSH1 0x1D DUP4 PUSH2 0xCDF JUMP JUMPDEST SWAP2 POP PUSH2 0x1A3C DUP3 PUSH2 0x19FD JUMP JUMPDEST PUSH1 0x20 DUP3 ADD SWAP1 POP SWAP2 SWAP1 POP JUMP JUMPDEST PUSH0 PUSH1 0x20 DUP3 ADD SWAP1 POP DUP2 DUP2 SUB PUSH0 DUP4 ADD MSTORE PUSH2 0x1A5E DUP2 PUSH2 0x1A25 JUMP JUMPDEST SWAP1 POP SWAP2 SWAP1 POP JUMP JUMPDEST PUSH0 PUSH1 0x20 DUP3 ADD SWAP1 POP DUP2 DUP2 SUB PUSH0 DUP4 ADD MSTORE PUSH2 0x1A7D DUP2 DUP5 PUSH2 0xD0D JUMP JUMPDEST SWAP1 POP SWAP3 SWAP2 POP POP JUMP INVALID LOG2 PUSH5 0x6970667358 0x22 SLT KECCAK256 0x24 0xCA 0xAD 0xF6 0xC5 MOD 0xCA SHL 0xB3 0x25 PC 0xC5 0xB9 0x2E 0xD3 SWAP15 0xDF SWAP7 0xB9 0x4E SHL DELEGATECALL 0xDB 0xB8 0xCB 0x4C PUSH29 0x2DF53669B64736F6C634300081A003300000000000000000000000000 "
				},
				"gasEstimates": {
					"creation": {
						"codeDepositCost": "1368600",
						"executionCost": "infinite",
						"totalCost": "infinite"
					},
					"external": {
						"confiscateAndWithdraw(bytes32,address,address)": "infinite",
						"deposit(address,string,uint256,uint256,bool)": "infinite",
						"deposits(bytes32)": "infinite",
						"triggerEvent(bytes32)": "infinite",
						"validationContract()": "2571",
						"withdraw(bytes32,address)": "infinite"
					},
					"internal": {
						"triggerEventInternal(bytes32)": "infinite"
					}
				},
				"methodIdentifiers": {
					"confiscateAndWithdraw(bytes32,address,address)": "b2b3dbce",
					"deposit(address,string,uint256,uint256,bool)": "ef90dbb6",
					"deposits(bytes32)": "3d4dff7b",
					"triggerEvent(bytes32)": "ab6d1c09",
					"validationContract()": "d2b409a1",
					"withdraw(bytes32,address)": "1b258d50"
				}
			},
			"storageLayout": {
				"storage": [
					{
						"astId": 734,
						"contract": "trustless cross-chain/trading pair formation/Deposit_com.sol:TokenDeposit",
						"label": "validationContract",
						"offset": 0,
						"slot": "0",
						"type": "t_address"
					},
					{
						"astId": 752,
						"contract": "trustless cross-chain/trading pair formation/Deposit_com.sol:TokenDeposit",
						"label": "deposits",
						"offset": 0,
						"slot": "1",
						"type": "t_mapping(t_bytes32,t_struct(Deposit)747_storage)"
					}
				],
				"types": {
					"t_address": {
						"encoding": "inplace",
						"label": "address",
						"numberOfBytes": "20"
					},
					"t_bool": {
						"encoding": "inplace",
						"label": "bool",
						"numberOfBytes": "1"
					},
					"t_bytes32": {
						"encoding": "inplace",
						"label": "bytes32",
						"numberOfBytes": "32"
					},
					"t_mapping(t_bytes32,t_struct(Deposit)747_storage)": {
						"encoding": "mapping",
						"key": "t_bytes32",
						"label": "mapping(bytes32 => struct TokenDeposit.Deposit)",
						"numberOfBytes": "32",
						"value": "t_struct(Deposit)747_storage"
					},
					"t_string_storage": {
						"encoding": "bytes",
						"label": "string",
						"numberOfBytes": "32"
					},
					"t_struct(Deposit)747_storage": {
						"encoding": "inplace",
						"label": "struct TokenDeposit.Deposit",
						"members": [
							{
								"astId": 736,
								"contract": "trustless cross-chain/trading pair formation/Deposit_com.sol:TokenDeposit",
								"label": "depositor",
								"offset": 0,
								"slot": "0",
								"type": "t_address"
							},
							{
								"astId": 738,
								"contract": "trustless cross-chain/trading pair formation/Deposit_com.sol:TokenDeposit",
								"label": "symbol",
								"offset": 0,
								"slot": "1",
								"type": "t_string_storage"
							},
							{
								"astId": 740,
								"contract": "trustless cross-chain/trading pair formation/Deposit_com.sol:TokenDeposit",
								"label": "amount",
								"offset": 0,
								"slot": "2",
								"type": "t_uint256"
							},
							{
								"astId": 742,
								"contract": "trustless cross-chain/trading pair formation/Deposit_com.sol:TokenDeposit",
								"label": "blockNumber",
								"offset": 0,
								"slot": "3",
								"type": "t_uint256"
							},
							{
								"astId": 744,
								"contract": "trustless cross-chain/trading pair formation/Deposit_com.sol:TokenDeposit",
								"label": "withdrawn",
								"offset": 0,
								"slot": "4",
								"type": "t_bool"
							},
							{
								"astId": 746,
								"contract": "trustless cross-chain/trading pair formation/Deposit_com.sol:TokenDeposit",
								"label": "eventOccurred",
								"offset": 1,
								"slot": "4",
								"type": "t_bool"
							}
						],
						"numberOfBytes": "160"
					},
					"t_uint256": {
						"encoding": "inplace",
						"label": "uint256",
						"numberOfBytes": "32"
					}
				}
			},
			"userdoc": {
				"kind": "user",
				"methods": {},
				"version": 1
			}
		}
	}
}