{
	"trustless cross-chain/trading pair formation/TokenDeposit.sol": {
		"TokenDeposit": {
			"abi": [
				{
					"inputs": [
						{
							"internalType": "address",
							"name": "_validationContract",
							"type": "address"
						}
					],
					"stateMutability": "nonpayable",
					"type": "constructor"
				},
				{
					"anonymous": false,
					"inputs": [
						{
							"indexed": false,
							"internalType": "bytes32",
							"name": "depositId",
							"type": "bytes32"
						},
						{
							"indexed": true,
							"internalType": "address",
							"name": "depositor",
							"type": "address"
						},
						{
							"indexed": false,
							"internalType": "string",
							"name": "symbol",
							"type": "string"
						},
						{
							"indexed": false,
							"internalType": "uint256",
							"name": "amount",
							"type": "uint256"
						},
						{
							"indexed": false,
							"internalType": "uint256",
							"name": "blockNumber",
							"type": "uint256"
						}
					],
					"name": "DepositLocked",
					"type": "event"
				},
				{
					"anonymous": false,
					"inputs": [
						{
							"indexed": false,
							"internalType": "bytes32",
							"name": "depositId",
							"type": "bytes32"
						}
					],
					"name": "Withdrawn",
					"type": "event"
				},
				{
					"inputs": [
						{
							"internalType": "bytes32",
							"name": "depositId",
							"type": "bytes32"
						},
						{
							"internalType": "address",
							"name": "token",
							"type": "address"
						},
						{
							"internalType": "address",
							"name": "to",
							"type": "address"
						}
					],
					"name": "confiscateAndWithdraw",
					"outputs": [],
					"stateMutability": "nonpayable",
					"type": "function"
				},
				{
					"inputs": [
						{
							"internalType": "address",
							"name": "token",
							"type": "address"
						},
						{
							"internalType": "string",
							"name": "symbol",
							"type": "string"
						},
						{
							"internalType": "uint256",
							"name": "amount",
							"type": "uint256"
						},
						{
							"internalType": "uint256",
							"name": "blockNumber",
							"type": "uint256"
						},
						{
							"internalType": "bool",
							"name": "triggerEvent",
							"type": "bool"
						}
					],
					"name": "deposit",
					"outputs": [],
					"stateMutability": "nonpayable",
					"type": "function"
				},
				{
					"inputs": [
						{
							"internalType": "bytes32",
							"name": "",
							"type": "bytes32"
						}
					],
					"name": "deposits",
					"outputs": [
						{
							"internalType": "address",
							"name": "depositor",
							"type": "address"
						},
						{
							"internalType": "string",
							"name": "symbol",
							"type": "string"
						},
						{
							"internalType": "uint256",
							"name": "amount",
							"type": "uint256"
						},
						{
							"internalType": "uint256",
							"name": "blockNumber",
							"type": "uint256"
						},
						{
							"internalType": "bool",
							"name": "withdrawn",
							"type": "bool"
						}
					],
					"stateMutability": "view",
					"type": "function"
				},
				{
					"inputs": [
						{
							"internalType": "address",
							"name": "",
							"type": "address"
						},
						{
							"internalType": "uint256",
							"name": "",
							"type": "uint256"
						}
					],
					"name": "depositsByAddress",
					"outputs": [
						{
							"internalType": "bytes32",
							"name": "",
							"type": "bytes32"
						}
					],
					"stateMutability": "view",
					"type": "function"
				},
				{
					"inputs": [
						{
							"internalType": "address",
							"name": "depositor",
							"type": "address"
						}
					],
					"name": "getDepositInfo",
					"outputs": [
						{
							"components": [
								{
									"internalType": "address",
									"name": "depositor",
									"type": "address"
								},
								{
									"internalType": "string",
									"name": "symbol",
									"type": "string"
								},
								{
									"internalType": "uint256",
									"name": "amount",
									"type": "uint256"
								},
								{
									"internalType": "uint256",
									"name": "blockNumber",
									"type": "uint256"
								},
								{
									"internalType": "bool",
									"name": "withdrawn",
									"type": "bool"
								}
							],
							"internalType": "struct TokenDeposit.Deposit[]",
							"name": "",
							"type": "tuple[]"
						}
					],
					"stateMutability": "view",
					"type": "function"
				},
				{
					"inputs": [],
					"name": "validationContract",
					"outputs": [
						{
							"internalType": "address",
							"name": "",
							"type": "address"
						}
					],
					"stateMutability": "view",
					"type": "function"
				},
				{
					"inputs": [
						{
							"internalType": "bytes32",
							"name": "depositId",
							"type": "bytes32"
						},
						{
							"internalType": "address",
							"name": "token",
							"type": "address"
						}
					],
					"name": "withdraw",
					"outputs": [],
					"stateMutability": "nonpayable",
					"type": "function"
				}
			],
			"devdoc": {
				"kind": "dev",
				"methods": {},
				"version": 1
			},
			"evm": {
				"assembly": "    /* \"trustless cross-chain/trading pair formation/TokenDeposit.sol\":149:3204  contract TokenDeposit {... */\n  mstore(0x40, 0x80)\n    /* \"trustless cross-chain/trading pair formation/TokenDeposit.sol\":679:777  constructor(address _validationContract) {... */\n  callvalue\n  dup1\n  iszero\n  tag_1\n  jumpi\n  0x00\n  dup1\n  revert\ntag_1:\n  pop\n  mload(0x40)\n  sub(codesize, bytecodeSize)\n  dup1\n  bytecodeSize\n  dup4\n  codecopy\n  dup2\n  dup2\n  add\n  0x40\n  mstore\n  dup2\n  add\n  swap1\n  tag_2\n  swap2\n  swap1\n  tag_3\n  jump\t// in\ntag_2:\n    /* \"trustless cross-chain/trading pair formation/TokenDeposit.sol\":751:770  _validationContract */\n  dup1\n    /* \"trustless cross-chain/trading pair formation/TokenDeposit.sol\":730:748  validationContract */\n  0x00\n  dup1\n    /* \"trustless cross-chain/trading pair formation/TokenDeposit.sol\":730:770  validationContract = _validationContract */\n  0x0100\n  exp\n  dup2\n  sload\n  dup2\n  0xffffffffffffffffffffffffffffffffffffffff\n  mul\n  not\n  and\n  swap1\n  dup4\n  0xffffffffffffffffffffffffffffffffffffffff\n  and\n  mul\n  or\n  swap1\n  sstore\n  pop\n    /* \"trustless cross-chain/trading pair formation/TokenDeposit.sol\":679:777  constructor(address _validationContract) {... */\n  pop\n    /* \"trustless cross-chain/trading pair formation/TokenDeposit.sol\":149:3204  contract TokenDeposit {... */\n  jump(tag_6)\n    /* \"#utility.yul\":88:205   */\ntag_8:\n    /* \"#utility.yul\":197:198   */\n  0x00\n    /* \"#utility.yul\":194:195   */\n  dup1\n    /* \"#utility.yul\":187:199   */\n  revert\n    /* \"#utility.yul\":334:460   */\ntag_10:\n    /* \"#utility.yul\":371:378   */\n  0x00\n    /* \"#utility.yul\":411:453   */\n  0xffffffffffffffffffffffffffffffffffffffff\n    /* \"#utility.yul\":404:409   */\n  dup3\n    /* \"#utility.yul\":400:454   */\n  and\n    /* \"#utility.yul\":389:454   */\n  swap1\n  pop\n    /* \"#utility.yul\":334:460   */\n  swap2\n  swap1\n  pop\n  jump\t// out\n    /* \"#utility.yul\":466:562   */\ntag_11:\n    /* \"#utility.yul\":503:510   */\n  0x00\n    /* \"#utility.yul\":532:556   */\n  tag_20\n    /* \"#utility.yul\":550:555   */\n  dup3\n    /* \"#utility.yul\":532:556   */\n  tag_10\n  jump\t// in\ntag_20:\n    /* \"#utility.yul\":521:556   */\n  swap1\n  pop\n    /* \"#utility.yul\":466:562   */\n  swap2\n  swap1\n  pop\n  jump\t// out\n    /* \"#utility.yul\":568:690   */\ntag_12:\n    /* \"#utility.yul\":641:665   */\n  tag_22\n    /* \"#utility.yul\":659:664   */\n  dup2\n    /* \"#utility.yul\":641:665   */\n  tag_11\n  jump\t// in\ntag_22:\n    /* \"#utility.yul\":634:639   */\n  dup2\n    /* \"#utility.yul\":631:666   */\n  eq\n    /* \"#utility.yul\":621:684   */\n  tag_23\n  jumpi\n    /* \"#utility.yul\":680:681   */\n  0x00\n    /* \"#utility.yul\":677:678   */\n  dup1\n    /* \"#utility.yul\":670:682   */\n  revert\n    /* \"#utility.yul\":621:684   */\ntag_23:\n    /* \"#utility.yul\":568:690   */\n  pop\n  jump\t// out\n    /* \"#utility.yul\":696:839   */\ntag_13:\n    /* \"#utility.yul\":753:758   */\n  0x00\n    /* \"#utility.yul\":784:790   */\n  dup2\n    /* \"#utility.yul\":778:791   */\n  mload\n    /* \"#utility.yul\":769:791   */\n  swap1\n  pop\n    /* \"#utility.yul\":800:833   */\n  tag_25\n    /* \"#utility.yul\":827:832   */\n  dup2\n    /* \"#utility.yul\":800:833   */\n  tag_12\n  jump\t// in\ntag_25:\n    /* \"#utility.yul\":696:839   */\n  swap3\n  swap2\n  pop\n  pop\n  jump\t// out\n    /* \"#utility.yul\":845:1196   */\ntag_3:\n    /* \"#utility.yul\":915:921   */\n  0x00\n    /* \"#utility.yul\":964:966   */\n  0x20\n    /* \"#utility.yul\":952:961   */\n  dup3\n    /* \"#utility.yul\":943:950   */\n  dup5\n    /* \"#utility.yul\":939:962   */\n  sub\n    /* \"#utility.yul\":935:967   */\n  slt\n    /* \"#utility.yul\":932:1051   */\n  iszero\n  tag_27\n  jumpi\n    /* \"#utility.yul\":970:1049   */\n  tag_28\n  tag_8\n  jump\t// in\ntag_28:\n    /* \"#utility.yul\":932:1051   */\ntag_27:\n    /* \"#utility.yul\":1090:1091   */\n  0x00\n    /* \"#utility.yul\":1115:1179   */\n  tag_29\n    /* \"#utility.yul\":1171:1178   */\n  dup5\n    /* \"#utility.yul\":1162:1168   */\n  dup3\n    /* \"#utility.yul\":1151:1160   */\n  dup6\n    /* \"#utility.yul\":1147:1169   */\n  add\n    /* \"#utility.yul\":1115:1179   */\n  tag_13\n  jump\t// in\ntag_29:\n    /* \"#utility.yul\":1105:1179   */\n  swap2\n  pop\n    /* \"#utility.yul\":1061:1189   */\n  pop\n    /* \"#utility.yul\":845:1196   */\n  swap3\n  swap2\n  pop\n  pop\n  jump\t// out\n    /* \"trustless cross-chain/trading pair formation/TokenDeposit.sol\":149:3204  contract TokenDeposit {... */\ntag_6:\n  dataSize(sub_0)\n  dup1\n  dataOffset(sub_0)\n  0x00\n  codecopy\n  0x00\n  return\nstop\n\nsub_0: assembly {\n        /* \"trustless cross-chain/trading pair formation/TokenDeposit.sol\":149:3204  contract TokenDeposit {... */\n      mstore(0x40, 0x80)\n      callvalue\n      dup1\n      iszero\n      tag_1\n      jumpi\n      0x00\n      dup1\n      revert\n    tag_1:\n      pop\n      jumpi(tag_2, lt(calldatasize, 0x04))\n      shr(0xe0, calldataload(0x00))\n      dup1\n      0x7f258bfb\n      gt\n      tag_10\n      jumpi\n      dup1\n      0x7f258bfb\n      eq\n      tag_6\n      jumpi\n      dup1\n      0xb2b3dbce\n      eq\n      tag_7\n      jumpi\n      dup1\n      0xd2b409a1\n      eq\n      tag_8\n      jumpi\n      dup1\n      0xef90dbb6\n      eq\n      tag_9\n      jumpi\n      jump(tag_2)\n    tag_10:\n      dup1\n      0x1b258d50\n      eq\n      tag_3\n      jumpi\n      dup1\n      0x3d4dff7b\n      eq\n      tag_4\n      jumpi\n      dup1\n      0x5287ce12\n      eq\n      tag_5\n      jumpi\n    tag_2:\n      0x00\n      dup1\n      revert\n        /* \"trustless cross-chain/trading pair formation/TokenDeposit.sol\":1804:2318  function withdraw(bytes32 depositId, address token) public {... */\n    tag_3:\n      tag_11\n      0x04\n      dup1\n      calldatasize\n      sub\n      dup2\n      add\n      swap1\n      tag_12\n      swap2\n      swap1\n      tag_13\n      jump\t// in\n    tag_12:\n      tag_14\n      jump\t// in\n    tag_11:\n      stop\n        /* \"trustless cross-chain/trading pair formation/TokenDeposit.sol\":405:448  mapping(bytes32 => Deposit) public deposits */\n    tag_4:\n      tag_15\n      0x04\n      dup1\n      calldatasize\n      sub\n      dup2\n      add\n      swap1\n      tag_16\n      swap2\n      swap1\n      tag_17\n      jump\t// in\n    tag_16:\n      tag_18\n      jump\t// in\n    tag_15:\n      mload(0x40)\n      tag_19\n      swap6\n      swap5\n      swap4\n      swap3\n      swap2\n      swap1\n      tag_20\n      jump\t// in\n    tag_19:\n      mload(0x40)\n      dup1\n      swap2\n      sub\n      swap1\n      return\n        /* \"trustless cross-chain/trading pair formation/TokenDeposit.sol\":2802:3202  function getDepositInfo(address depositor) public view returns (Deposit[] memory) {... */\n    tag_5:\n      tag_21\n      0x04\n      dup1\n      calldatasize\n      sub\n      dup2\n      add\n      swap1\n      tag_22\n      swap2\n      swap1\n      tag_23\n      jump\t// in\n    tag_22:\n      tag_24\n      jump\t// in\n    tag_21:\n      mload(0x40)\n      tag_25\n      swap2\n      swap1\n      tag_26\n      jump\t// in\n    tag_25:\n      mload(0x40)\n      dup1\n      swap2\n      sub\n      swap1\n      return\n        /* \"trustless cross-chain/trading pair formation/TokenDeposit.sol\":454:508  mapping(address => bytes32[]) public depositsByAddress */\n    tag_6:\n      tag_27\n      0x04\n      dup1\n      calldatasize\n      sub\n      dup2\n      add\n      swap1\n      tag_28\n      swap2\n      swap1\n      tag_29\n      jump\t// in\n    tag_28:\n      tag_30\n      jump\t// in\n    tag_27:\n      mload(0x40)\n      tag_31\n      swap2\n      swap1\n      tag_32\n      jump\t// in\n    tag_31:\n      mload(0x40)\n      dup1\n      swap2\n      sub\n      swap1\n      return\n        /* \"trustless cross-chain/trading pair formation/TokenDeposit.sol\":2324:2749  function confiscateAndWithdraw(bytes32 depositId, address token, address to) external {... */\n    tag_7:\n      tag_33\n      0x04\n      dup1\n      calldatasize\n      sub\n      dup2\n      add\n      swap1\n      tag_34\n      swap2\n      swap1\n      tag_35\n      jump\t// in\n    tag_34:\n      tag_36\n      jump\t// in\n    tag_33:\n      stop\n        /* \"trustless cross-chain/trading pair formation/TokenDeposit.sol\":210:243  address public validationContract */\n    tag_8:\n      tag_37\n      tag_38\n      jump\t// in\n    tag_37:\n      mload(0x40)\n      tag_39\n      swap2\n      swap1\n      tag_40\n      jump\t// in\n    tag_39:\n      mload(0x40)\n      dup1\n      swap2\n      sub\n      swap1\n      return\n        /* \"trustless cross-chain/trading pair formation/TokenDeposit.sol\":783:1798  function deposit(address token, string memory symbol, uint256 amount, uint256 blockNumber, bool triggerEvent) public {... */\n    tag_9:\n      tag_41\n      0x04\n      dup1\n      calldatasize\n      sub\n      dup2\n      add\n      swap1\n      tag_42\n      swap2\n      swap1\n      tag_43\n      jump\t// in\n    tag_42:\n      tag_44\n      jump\t// in\n    tag_41:\n      stop\n        /* \"trustless cross-chain/trading pair formation/TokenDeposit.sol\":1804:2318  function withdraw(bytes32 depositId, address token) public {... */\n    tag_14:\n        /* \"trustless cross-chain/trading pair formation/TokenDeposit.sol\":1873:1896  Deposit storage deposit */\n      0x00\n        /* \"trustless cross-chain/trading pair formation/TokenDeposit.sol\":1899:1907  deposits */\n      0x01\n        /* \"trustless cross-chain/trading pair formation/TokenDeposit.sol\":1899:1918  deposits[depositId] */\n      0x00\n        /* \"trustless cross-chain/trading pair formation/TokenDeposit.sol\":1908:1917  depositId */\n      dup5\n        /* \"trustless cross-chain/trading pair formation/TokenDeposit.sol\":1899:1918  deposits[depositId] */\n      dup2\n      mstore\n      0x20\n      add\n      swap1\n      dup2\n      mstore\n      0x20\n      add\n      0x00\n      keccak256\n        /* \"trustless cross-chain/trading pair formation/TokenDeposit.sol\":1873:1918  Deposit storage deposit = deposits[depositId] */\n      swap1\n      pop\n        /* \"trustless cross-chain/trading pair formation/TokenDeposit.sol\":1938:1945  deposit */\n      dup1\n        /* \"trustless cross-chain/trading pair formation/TokenDeposit.sol\":1938:1955  deposit.withdrawn */\n      0x04\n      add\n      0x00\n      swap1\n      sload\n      swap1\n      0x0100\n      exp\n      swap1\n      div\n      0xff\n      and\n        /* \"trustless cross-chain/trading pair formation/TokenDeposit.sol\":1937:1955  !deposit.withdrawn */\n      iszero\n        /* \"trustless cross-chain/trading pair formation/TokenDeposit.sol\":1929:1986  require(!deposit.withdrawn, \"Deposit already withdrawn.\") */\n      tag_46\n      jumpi\n      mload(0x40)\n      0x08c379a000000000000000000000000000000000000000000000000000000000\n      dup2\n      mstore\n      0x04\n      add\n      tag_47\n      swap1\n      tag_48\n      jump\t// in\n    tag_47:\n      mload(0x40)\n      dup1\n      swap2\n      sub\n      swap1\n      revert\n    tag_46:\n        /* \"trustless cross-chain/trading pair formation/TokenDeposit.sol\":2025:2035  msg.sender */\n      caller\n        /* \"trustless cross-chain/trading pair formation/TokenDeposit.sol\":2004:2035  deposit.depositor == msg.sender */\n      0xffffffffffffffffffffffffffffffffffffffff\n      and\n        /* \"trustless cross-chain/trading pair formation/TokenDeposit.sol\":2004:2011  deposit */\n      dup2\n        /* \"trustless cross-chain/trading pair formation/TokenDeposit.sol\":2004:2021  deposit.depositor */\n      0x00\n      add\n      0x00\n      swap1\n      sload\n      swap1\n      0x0100\n      exp\n      swap1\n      div\n      0xffffffffffffffffffffffffffffffffffffffff\n      and\n        /* \"trustless cross-chain/trading pair formation/TokenDeposit.sol\":2004:2035  deposit.depositor == msg.sender */\n      0xffffffffffffffffffffffffffffffffffffffff\n      and\n      eq\n        /* \"trustless cross-chain/trading pair formation/TokenDeposit.sol\":1996:2084  require(deposit.depositor == msg.sender, \"Only the depositor can withdraw the deposit.\") */\n      tag_49\n      jumpi\n      mload(0x40)\n      0x08c379a000000000000000000000000000000000000000000000000000000000\n      dup2\n      mstore\n      0x04\n      add\n      tag_50\n      swap1\n      tag_51\n      jump\t// in\n    tag_50:\n      mload(0x40)\n      dup1\n      swap2\n      sub\n      swap1\n      revert\n    tag_49:\n        /* \"trustless cross-chain/trading pair formation/TokenDeposit.sol\":2118:2125  deposit */\n      dup1\n        /* \"trustless cross-chain/trading pair formation/TokenDeposit.sol\":2118:2137  deposit.blockNumber */\n      0x03\n      add\n      sload\n        /* \"trustless cross-chain/trading pair formation/TokenDeposit.sol\":2102:2114  block.number */\n      number\n        /* \"trustless cross-chain/trading pair formation/TokenDeposit.sol\":2102:2137  block.number >= deposit.blockNumber */\n      lt\n      iszero\n        /* \"trustless cross-chain/trading pair formation/TokenDeposit.sol\":2094:2176  require(block.number >= deposit.blockNumber, \"Conditions for withdrawal not met.\") */\n      tag_52\n      jumpi\n      mload(0x40)\n      0x08c379a000000000000000000000000000000000000000000000000000000000\n      dup2\n      mstore\n      0x04\n      add\n      tag_53\n      swap1\n      tag_54\n      jump\t// in\n    tag_53:\n      mload(0x40)\n      dup1\n      swap2\n      sub\n      swap1\n      revert\n    tag_52:\n        /* \"trustless cross-chain/trading pair formation/TokenDeposit.sol\":2207:2211  true */\n      0x01\n        /* \"trustless cross-chain/trading pair formation/TokenDeposit.sol\":2187:2194  deposit */\n      dup2\n        /* \"trustless cross-chain/trading pair formation/TokenDeposit.sol\":2187:2204  deposit.withdrawn */\n      0x04\n      add\n      0x00\n        /* \"trustless cross-chain/trading pair formation/TokenDeposit.sol\":2187:2211  deposit.withdrawn = true */\n      0x0100\n      exp\n      dup2\n      sload\n      dup2\n      0xff\n      mul\n      not\n      and\n      swap1\n      dup4\n      iszero\n      iszero\n      mul\n      or\n      swap1\n      sstore\n      pop\n        /* \"trustless cross-chain/trading pair formation/TokenDeposit.sol\":2221:2275  IERC20(token).safeTransfer(msg.sender, deposit.amount) */\n      tag_55\n        /* \"trustless cross-chain/trading pair formation/TokenDeposit.sol\":2248:2258  msg.sender */\n      caller\n        /* \"trustless cross-chain/trading pair formation/TokenDeposit.sol\":2260:2267  deposit */\n      dup3\n        /* \"trustless cross-chain/trading pair formation/TokenDeposit.sol\":2260:2274  deposit.amount */\n      0x02\n      add\n      sload\n        /* \"trustless cross-chain/trading pair formation/TokenDeposit.sol\":2228:2233  token */\n      dup5\n        /* \"trustless cross-chain/trading pair formation/TokenDeposit.sol\":2221:2247  IERC20(token).safeTransfer */\n      0xffffffffffffffffffffffffffffffffffffffff\n      and\n      tag_56\n      swap1\n        /* \"trustless cross-chain/trading pair formation/TokenDeposit.sol\":2221:2275  IERC20(token).safeTransfer(msg.sender, deposit.amount) */\n      swap3\n      swap2\n      swap1\n      0xffffffff\n      and\n      jump\t// in\n    tag_55:\n        /* \"trustless cross-chain/trading pair formation/TokenDeposit.sol\":2291:2311  Withdrawn(depositId) */\n      0x44654674e66e9e53d34afdf3e9513fb94b4c8b946e980d6958ef4e6a37a153e3\n        /* \"trustless cross-chain/trading pair formation/TokenDeposit.sol\":2301:2310  depositId */\n      dup4\n        /* \"trustless cross-chain/trading pair formation/TokenDeposit.sol\":2291:2311  Withdrawn(depositId) */\n      mload(0x40)\n      tag_57\n      swap2\n      swap1\n      tag_32\n      jump\t// in\n    tag_57:\n      mload(0x40)\n      dup1\n      swap2\n      sub\n      swap1\n      log1\n        /* \"trustless cross-chain/trading pair formation/TokenDeposit.sol\":1863:2318  {... */\n      pop\n        /* \"trustless cross-chain/trading pair formation/TokenDeposit.sol\":1804:2318  function withdraw(bytes32 depositId, address token) public {... */\n      pop\n      pop\n      jump\t// out\n        /* \"trustless cross-chain/trading pair formation/TokenDeposit.sol\":405:448  mapping(bytes32 => Deposit) public deposits */\n    tag_18:\n      mstore(0x20, 0x01)\n      dup1\n      0x00\n      mstore\n      keccak256(0x00, 0x40)\n      0x00\n      swap2\n      pop\n      swap1\n      pop\n      dup1\n      0x00\n      add\n      0x00\n      swap1\n      sload\n      swap1\n      0x0100\n      exp\n      swap1\n      div\n      0xffffffffffffffffffffffffffffffffffffffff\n      and\n      swap1\n      dup1\n      0x01\n      add\n      dup1\n      sload\n      tag_58\n      swap1\n      tag_59\n      jump\t// in\n    tag_58:\n      dup1\n      0x1f\n      add\n      0x20\n      dup1\n      swap2\n      div\n      mul\n      0x20\n      add\n      mload(0x40)\n      swap1\n      dup2\n      add\n      0x40\n      mstore\n      dup1\n      swap3\n      swap2\n      swap1\n      dup2\n      dup2\n      mstore\n      0x20\n      add\n      dup3\n      dup1\n      sload\n      tag_60\n      swap1\n      tag_59\n      jump\t// in\n    tag_60:\n      dup1\n      iszero\n      tag_61\n      jumpi\n      dup1\n      0x1f\n      lt\n      tag_62\n      jumpi\n      0x0100\n      dup1\n      dup4\n      sload\n      div\n      mul\n      dup4\n      mstore\n      swap2\n      0x20\n      add\n      swap2\n      jump(tag_61)\n    tag_62:\n      dup3\n      add\n      swap2\n      swap1\n      0x00\n      mstore\n      keccak256(0x00, 0x20)\n      swap1\n    tag_63:\n      dup2\n      sload\n      dup2\n      mstore\n      swap1\n      0x01\n      add\n      swap1\n      0x20\n      add\n      dup1\n      dup4\n      gt\n      tag_63\n      jumpi\n      dup3\n      swap1\n      sub\n      0x1f\n      and\n      dup3\n      add\n      swap2\n    tag_61:\n      pop\n      pop\n      pop\n      pop\n      pop\n      swap1\n      dup1\n      0x02\n      add\n      sload\n      swap1\n      dup1\n      0x03\n      add\n      sload\n      swap1\n      dup1\n      0x04\n      add\n      0x00\n      swap1\n      sload\n      swap1\n      0x0100\n      exp\n      swap1\n      div\n      0xff\n      and\n      swap1\n      pop\n      dup6\n      jump\t// out\n        /* \"trustless cross-chain/trading pair formation/TokenDeposit.sol\":2802:3202  function getDepositInfo(address depositor) public view returns (Deposit[] memory) {... */\n    tag_24:\n        /* \"trustless cross-chain/trading pair formation/TokenDeposit.sol\":2866:2882  Deposit[] memory */\n      0x60\n        /* \"trustless cross-chain/trading pair formation/TokenDeposit.sol\":2894:2921  bytes32[] memory depositIds */\n      0x00\n        /* \"trustless cross-chain/trading pair formation/TokenDeposit.sol\":2924:2941  depositsByAddress */\n      0x02\n        /* \"trustless cross-chain/trading pair formation/TokenDeposit.sol\":2924:2952  depositsByAddress[depositor] */\n      0x00\n        /* \"trustless cross-chain/trading pair formation/TokenDeposit.sol\":2942:2951  depositor */\n      dup5\n        /* \"trustless cross-chain/trading pair formation/TokenDeposit.sol\":2924:2952  depositsByAddress[depositor] */\n      0xffffffffffffffffffffffffffffffffffffffff\n      and\n      0xffffffffffffffffffffffffffffffffffffffff\n      and\n      dup2\n      mstore\n      0x20\n      add\n      swap1\n      dup2\n      mstore\n      0x20\n      add\n      0x00\n      keccak256\n        /* \"trustless cross-chain/trading pair formation/TokenDeposit.sol\":2894:2952  bytes32[] memory depositIds = depositsByAddress[depositor] */\n      dup1\n      sload\n      dup1\n      0x20\n      mul\n      0x20\n      add\n      mload(0x40)\n      swap1\n      dup2\n      add\n      0x40\n      mstore\n      dup1\n      swap3\n      swap2\n      swap1\n      dup2\n      dup2\n      mstore\n      0x20\n      add\n      dup3\n      dup1\n      sload\n      dup1\n      iszero\n      tag_65\n      jumpi\n      0x20\n      mul\n      dup3\n      add\n      swap2\n      swap1\n      0x00\n      mstore\n      keccak256(0x00, 0x20)\n      swap1\n    tag_66:\n      dup2\n      sload\n      dup2\n      mstore\n      0x20\n      add\n      swap1\n      0x01\n      add\n      swap1\n      dup1\n      dup4\n      gt\n      tag_66\n      jumpi\n    tag_65:\n      pop\n      pop\n      pop\n      pop\n      pop\n      swap1\n      pop\n        /* \"trustless cross-chain/trading pair formation/TokenDeposit.sol\":2962:2996  Deposit[] memory depositorDeposits */\n      0x00\n        /* \"trustless cross-chain/trading pair formation/TokenDeposit.sol\":3013:3023  depositIds */\n      dup2\n        /* \"trustless cross-chain/trading pair formation/TokenDeposit.sol\":3013:3030  depositIds.length */\n      mload\n        /* \"trustless cross-chain/trading pair formation/TokenDeposit.sol\":2999:3031  new Deposit[](depositIds.length) */\n      0xffffffffffffffff\n      dup2\n      gt\n      iszero\n      tag_67\n      jumpi\n      tag_68\n      tag_69\n      jump\t// in\n    tag_68:\n    tag_67:\n      mload(0x40)\n      swap1\n      dup1\n      dup3\n      mstore\n      dup1\n      0x20\n      mul\n      0x20\n      add\n      dup3\n      add\n      0x40\n      mstore\n      dup1\n      iszero\n      tag_70\n      jumpi\n      dup2\n      0x20\n      add\n    tag_71:\n      tag_72\n      tag_73\n      jump\t// in\n    tag_72:\n      dup2\n      mstore\n      0x20\n      add\n      swap1\n      0x01\n      swap1\n      sub\n      swap1\n      dup2\n      tag_71\n      jumpi\n      swap1\n      pop\n    tag_70:\n      pop\n        /* \"trustless cross-chain/trading pair formation/TokenDeposit.sol\":2962:3031  Deposit[] memory depositorDeposits = new Deposit[](depositIds.length) */\n      swap1\n      pop\n        /* \"trustless cross-chain/trading pair formation/TokenDeposit.sol\":3047:3056  uint256 i */\n      0x00\n        /* \"trustless cross-chain/trading pair formation/TokenDeposit.sol\":3042:3161  for (uint256 i = 0; i < depositIds.length; i++) {... */\n    tag_74:\n        /* \"trustless cross-chain/trading pair formation/TokenDeposit.sol\":3066:3076  depositIds */\n      dup3\n        /* \"trustless cross-chain/trading pair formation/TokenDeposit.sol\":3066:3083  depositIds.length */\n      mload\n        /* \"trustless cross-chain/trading pair formation/TokenDeposit.sol\":3062:3063  i */\n      dup2\n        /* \"trustless cross-chain/trading pair formation/TokenDeposit.sol\":3062:3083  i < depositIds.length */\n      lt\n        /* \"trustless cross-chain/trading pair formation/TokenDeposit.sol\":3042:3161  for (uint256 i = 0; i < depositIds.length; i++) {... */\n      iszero\n      tag_75\n      jumpi\n        /* \"trustless cross-chain/trading pair formation/TokenDeposit.sol\":3127:3135  deposits */\n      0x01\n        /* \"trustless cross-chain/trading pair formation/TokenDeposit.sol\":3127:3150  deposits[depositIds[i]] */\n      0x00\n        /* \"trustless cross-chain/trading pair formation/TokenDeposit.sol\":3136:3146  depositIds */\n      dup5\n        /* \"trustless cross-chain/trading pair formation/TokenDeposit.sol\":3147:3148  i */\n      dup4\n        /* \"trustless cross-chain/trading pair formation/TokenDeposit.sol\":3136:3149  depositIds[i] */\n      dup2\n      mload\n      dup2\n      lt\n      tag_77\n      jumpi\n      tag_78\n      tag_79\n      jump\t// in\n    tag_78:\n    tag_77:\n      0x20\n      mul\n      0x20\n      add\n      add\n      mload\n        /* \"trustless cross-chain/trading pair formation/TokenDeposit.sol\":3127:3150  deposits[depositIds[i]] */\n      dup2\n      mstore\n      0x20\n      add\n      swap1\n      dup2\n      mstore\n      0x20\n      add\n      0x00\n      keccak256\n        /* \"trustless cross-chain/trading pair formation/TokenDeposit.sol\":3104:3150  depositorDeposits[i] = deposits[depositIds[i]] */\n      mload(0x40)\n      dup1\n      0xa0\n      add\n      0x40\n      mstore\n      swap1\n      dup2\n      0x00\n      dup3\n      add\n      0x00\n      swap1\n      sload\n      swap1\n      0x0100\n      exp\n      swap1\n      div\n      0xffffffffffffffffffffffffffffffffffffffff\n      and\n      0xffffffffffffffffffffffffffffffffffffffff\n      and\n      0xffffffffffffffffffffffffffffffffffffffff\n      and\n      dup2\n      mstore\n      0x20\n      add\n      0x01\n      dup3\n      add\n      dup1\n      sload\n      tag_80\n      swap1\n      tag_59\n      jump\t// in\n    tag_80:\n      dup1\n      0x1f\n      add\n      0x20\n      dup1\n      swap2\n      div\n      mul\n      0x20\n      add\n      mload(0x40)\n      swap1\n      dup2\n      add\n      0x40\n      mstore\n      dup1\n      swap3\n      swap2\n      swap1\n      dup2\n      dup2\n      mstore\n      0x20\n      add\n      dup3\n      dup1\n      sload\n      tag_81\n      swap1\n      tag_59\n      jump\t// in\n    tag_81:\n      dup1\n      iszero\n      tag_82\n      jumpi\n      dup1\n      0x1f\n      lt\n      tag_83\n      jumpi\n      0x0100\n      dup1\n      dup4\n      sload\n      div\n      mul\n      dup4\n      mstore\n      swap2\n      0x20\n      add\n      swap2\n      jump(tag_82)\n    tag_83:\n      dup3\n      add\n      swap2\n      swap1\n      0x00\n      mstore\n      keccak256(0x00, 0x20)\n      swap1\n    tag_84:\n      dup2\n      sload\n      dup2\n      mstore\n      swap1\n      0x01\n      add\n      swap1\n      0x20\n      add\n      dup1\n      dup4\n      gt\n      tag_84\n      jumpi\n      dup3\n      swap1\n      sub\n      0x1f\n      and\n      dup3\n      add\n      swap2\n    tag_82:\n      pop\n      pop\n      pop\n      pop\n      pop\n      dup2\n      mstore\n      0x20\n      add\n      0x02\n      dup3\n      add\n      sload\n      dup2\n      mstore\n      0x20\n      add\n      0x03\n      dup3\n      add\n      sload\n      dup2\n      mstore\n      0x20\n      add\n      0x04\n      dup3\n      add\n      0x00\n      swap1\n      sload\n      swap1\n      0x0100\n      exp\n      swap1\n      div\n      0xff\n      and\n      iszero\n      iszero\n      iszero\n      iszero\n      dup2\n      mstore\n      pop\n      pop\n        /* \"trustless cross-chain/trading pair formation/TokenDeposit.sol\":3104:3121  depositorDeposits */\n      dup3\n        /* \"trustless cross-chain/trading pair formation/TokenDeposit.sol\":3122:3123  i */\n      dup3\n        /* \"trustless cross-chain/trading pair formation/TokenDeposit.sol\":3104:3124  depositorDeposits[i] */\n      dup2\n      mload\n      dup2\n      lt\n      tag_85\n      jumpi\n      tag_86\n      tag_79\n      jump\t// in\n    tag_86:\n    tag_85:\n      0x20\n      mul\n      0x20\n      add\n      add\n        /* \"trustless cross-chain/trading pair formation/TokenDeposit.sol\":3104:3150  depositorDeposits[i] = deposits[depositIds[i]] */\n      dup2\n      swap1\n      mstore\n      pop\n        /* \"trustless cross-chain/trading pair formation/TokenDeposit.sol\":3085:3088  i++ */\n      dup1\n      dup1\n      0x01\n      add\n      swap2\n      pop\n      pop\n        /* \"trustless cross-chain/trading pair formation/TokenDeposit.sol\":3042:3161  for (uint256 i = 0; i < depositIds.length; i++) {... */\n      jump(tag_74)\n    tag_75:\n      pop\n        /* \"trustless cross-chain/trading pair formation/TokenDeposit.sol\":3178:3195  depositorDeposits */\n      dup1\n        /* \"trustless cross-chain/trading pair formation/TokenDeposit.sol\":3171:3195  return depositorDeposits */\n      swap3\n      pop\n      pop\n      pop\n        /* \"trustless cross-chain/trading pair formation/TokenDeposit.sol\":2802:3202  function getDepositInfo(address depositor) public view returns (Deposit[] memory) {... */\n      swap2\n      swap1\n      pop\n      jump\t// out\n        /* \"trustless cross-chain/trading pair formation/TokenDeposit.sol\":454:508  mapping(address => bytes32[]) public depositsByAddress */\n    tag_30:\n      mstore(0x20, 0x02)\n      dup2\n      0x00\n      mstore\n      keccak256(0x00, 0x40)\n      dup2\n      dup2\n      sload\n      dup2\n      lt\n      tag_87\n      jumpi\n      0x00\n      dup1\n      revert\n    tag_87:\n      swap1\n      0x00\n      mstore\n      keccak256(0x00, 0x20)\n      add\n      0x00\n      swap2\n      pop\n      swap2\n      pop\n      pop\n      sload\n      dup2\n      jump\t// out\n        /* \"trustless cross-chain/trading pair formation/TokenDeposit.sol\":2324:2749  function confiscateAndWithdraw(bytes32 depositId, address token, address to) external {... */\n    tag_36:\n        /* \"trustless cross-chain/trading pair formation/TokenDeposit.sol\":2442:2460  validationContract */\n      0x00\n      dup1\n      sload\n      swap1\n      0x0100\n      exp\n      swap1\n      div\n      0xffffffffffffffffffffffffffffffffffffffff\n      and\n        /* \"trustless cross-chain/trading pair formation/TokenDeposit.sol\":2428:2460  msg.sender == validationContract */\n      0xffffffffffffffffffffffffffffffffffffffff\n      and\n        /* \"trustless cross-chain/trading pair formation/TokenDeposit.sol\":2428:2438  msg.sender */\n      caller\n        /* \"trustless cross-chain/trading pair formation/TokenDeposit.sol\":2428:2460  msg.sender == validationContract */\n      0xffffffffffffffffffffffffffffffffffffffff\n      and\n      eq\n        /* \"trustless cross-chain/trading pair formation/TokenDeposit.sol\":2420:2504  require(msg.sender == validationContract, \"Only validation contract can confiscate\") */\n      tag_90\n      jumpi\n      mload(0x40)\n      0x08c379a000000000000000000000000000000000000000000000000000000000\n      dup2\n      mstore\n      0x04\n      add\n      tag_91\n      swap1\n      tag_92\n      jump\t// in\n    tag_91:\n      mload(0x40)\n      dup1\n      swap2\n      sub\n      swap1\n      revert\n    tag_90:\n        /* \"trustless cross-chain/trading pair formation/TokenDeposit.sol\":2515:2538  Deposit storage deposit */\n      0x00\n        /* \"trustless cross-chain/trading pair formation/TokenDeposit.sol\":2541:2549  deposits */\n      0x01\n        /* \"trustless cross-chain/trading pair formation/TokenDeposit.sol\":2541:2560  deposits[depositId] */\n      0x00\n        /* \"trustless cross-chain/trading pair formation/TokenDeposit.sol\":2550:2559  depositId */\n      dup6\n        /* \"trustless cross-chain/trading pair formation/TokenDeposit.sol\":2541:2560  deposits[depositId] */\n      dup2\n      mstore\n      0x20\n      add\n      swap1\n      dup2\n      mstore\n      0x20\n      add\n      0x00\n      keccak256\n        /* \"trustless cross-chain/trading pair formation/TokenDeposit.sol\":2515:2560  Deposit storage deposit = deposits[depositId] */\n      swap1\n      pop\n        /* \"trustless cross-chain/trading pair formation/TokenDeposit.sol\":2570:2584  uint256 amount */\n      0x00\n        /* \"trustless cross-chain/trading pair formation/TokenDeposit.sol\":2587:2594  deposit */\n      dup2\n        /* \"trustless cross-chain/trading pair formation/TokenDeposit.sol\":2587:2601  deposit.amount */\n      0x02\n      add\n      sload\n        /* \"trustless cross-chain/trading pair formation/TokenDeposit.sol\":2570:2601  uint256 amount = deposit.amount */\n      swap1\n      pop\n        /* \"trustless cross-chain/trading pair formation/TokenDeposit.sol\":2629:2630  0 */\n      0x00\n        /* \"trustless cross-chain/trading pair formation/TokenDeposit.sol\":2620:2626  amount */\n      dup2\n        /* \"trustless cross-chain/trading pair formation/TokenDeposit.sol\":2620:2630  amount > 0 */\n      gt\n        /* \"trustless cross-chain/trading pair formation/TokenDeposit.sol\":2612:2657  require(amount > 0, \"No funds to confiscate\") */\n      tag_93\n      jumpi\n      mload(0x40)\n      0x08c379a000000000000000000000000000000000000000000000000000000000\n      dup2\n      mstore\n      0x04\n      add\n      tag_94\n      swap1\n      tag_95\n      jump\t// in\n    tag_94:\n      mload(0x40)\n      dup1\n      swap2\n      sub\n      swap1\n      revert\n    tag_93:\n        /* \"trustless cross-chain/trading pair formation/TokenDeposit.sol\":2693:2694  0 */\n      0x00\n        /* \"trustless cross-chain/trading pair formation/TokenDeposit.sol\":2676:2683  deposit */\n      dup3\n        /* \"trustless cross-chain/trading pair formation/TokenDeposit.sol\":2676:2690  deposit.amount */\n      0x02\n      add\n        /* \"trustless cross-chain/trading pair formation/TokenDeposit.sol\":2676:2694  deposit.amount = 0 */\n      dup2\n      swap1\n      sstore\n      pop\n        /* \"trustless cross-chain/trading pair formation/TokenDeposit.sol\":2704:2742  IERC20(token).safeTransfer(to, amount) */\n      tag_96\n        /* \"trustless cross-chain/trading pair formation/TokenDeposit.sol\":2731:2733  to */\n      dup4\n        /* \"trustless cross-chain/trading pair formation/TokenDeposit.sol\":2735:2741  amount */\n      dup3\n        /* \"trustless cross-chain/trading pair formation/TokenDeposit.sol\":2711:2716  token */\n      dup7\n        /* \"trustless cross-chain/trading pair formation/TokenDeposit.sol\":2704:2730  IERC20(token).safeTransfer */\n      0xffffffffffffffffffffffffffffffffffffffff\n      and\n      tag_56\n      swap1\n        /* \"trustless cross-chain/trading pair formation/TokenDeposit.sol\":2704:2742  IERC20(token).safeTransfer(to, amount) */\n      swap3\n      swap2\n      swap1\n      0xffffffff\n      and\n      jump\t// in\n    tag_96:\n        /* \"trustless cross-chain/trading pair formation/TokenDeposit.sol\":2410:2749  {... */\n      pop\n      pop\n        /* \"trustless cross-chain/trading pair formation/TokenDeposit.sol\":2324:2749  function confiscateAndWithdraw(bytes32 depositId, address token, address to) external {... */\n      pop\n      pop\n      pop\n      jump\t// out\n        /* \"trustless cross-chain/trading pair formation/TokenDeposit.sol\":210:243  address public validationContract */\n    tag_38:\n      0x00\n      dup1\n      sload\n      swap1\n      0x0100\n      exp\n      swap1\n      div\n      0xffffffffffffffffffffffffffffffffffffffff\n      and\n      dup2\n      jump\t// out\n        /* \"trustless cross-chain/trading pair formation/TokenDeposit.sol\":783:1798  function deposit(address token, string memory symbol, uint256 amount, uint256 blockNumber, bool triggerEvent) public {... */\n    tag_44:\n        /* \"trustless cross-chain/trading pair formation/TokenDeposit.sol\":927:928  0 */\n      0x00\n        /* \"trustless cross-chain/trading pair formation/TokenDeposit.sol\":918:924  amount */\n      dup4\n        /* \"trustless cross-chain/trading pair formation/TokenDeposit.sol\":918:928  amount > 0 */\n      gt\n        /* \"trustless cross-chain/trading pair formation/TokenDeposit.sol\":910:966  require(amount > 0, \"Amount must be greater than zero.\") */\n      tag_98\n      jumpi\n      mload(0x40)\n      0x08c379a000000000000000000000000000000000000000000000000000000000\n      dup2\n      mstore\n      0x04\n      add\n      tag_99\n      swap1\n      tag_100\n      jump\t// in\n    tag_99:\n      mload(0x40)\n      dup1\n      swap2\n      sub\n      swap1\n      revert\n    tag_98:\n        /* \"trustless cross-chain/trading pair formation/TokenDeposit.sol\":1075:1081  amount */\n      dup3\n        /* \"trustless cross-chain/trading pair formation/TokenDeposit.sol\":1043:1048  token */\n      dup6\n        /* \"trustless cross-chain/trading pair formation/TokenDeposit.sol\":1036:1059  IERC20(token).balanceOf */\n      0xffffffffffffffffffffffffffffffffffffffff\n      and\n      0x70a08231\n        /* \"trustless cross-chain/trading pair formation/TokenDeposit.sol\":1060:1070  msg.sender */\n      caller\n        /* \"trustless cross-chain/trading pair formation/TokenDeposit.sol\":1036:1071  IERC20(token).balanceOf(msg.sender) */\n      mload(0x40)\n      dup3\n      0xffffffff\n      and\n      0xe0\n      shl\n      dup2\n      mstore\n      0x04\n      add\n      tag_101\n      swap2\n      swap1\n      tag_40\n      jump\t// in\n    tag_101:\n      0x20\n      mload(0x40)\n      dup1\n      dup4\n      sub\n      dup2\n      dup7\n      gas\n      staticcall\n      iszero\n      dup1\n      iszero\n      tag_103\n      jumpi\n      returndatasize\n      0x00\n      dup1\n      returndatacopy\n      revert(0x00, returndatasize)\n    tag_103:\n      pop\n      pop\n      pop\n      pop\n      mload(0x40)\n      returndatasize\n      not(0x1f)\n      0x1f\n      dup3\n      add\n      and\n      dup3\n      add\n      dup1\n      0x40\n      mstore\n      pop\n      dup2\n      add\n      swap1\n      tag_104\n      swap2\n      swap1\n      tag_105\n      jump\t// in\n    tag_104:\n        /* \"trustless cross-chain/trading pair formation/TokenDeposit.sol\":1036:1081  IERC20(token).balanceOf(msg.sender) >= amount */\n      lt\n      iszero\n        /* \"trustless cross-chain/trading pair formation/TokenDeposit.sol\":1028:1112  require(IERC20(token).balanceOf(msg.sender) >= amount, \"Insufficient token balance\") */\n      tag_106\n      jumpi\n      mload(0x40)\n      0x08c379a000000000000000000000000000000000000000000000000000000000\n      dup2\n      mstore\n      0x04\n      add\n      tag_107\n      swap1\n      tag_108\n      jump\t// in\n    tag_107:\n      mload(0x40)\n      dup1\n      swap2\n      sub\n      swap1\n      revert\n    tag_106:\n        /* \"trustless cross-chain/trading pair formation/TokenDeposit.sol\":1260:1266  amount */\n      dup3\n        /* \"trustless cross-chain/trading pair formation/TokenDeposit.sol\":1213:1218  token */\n      dup6\n        /* \"trustless cross-chain/trading pair formation/TokenDeposit.sol\":1206:1229  IERC20(token).allowance */\n      0xffffffffffffffffffffffffffffffffffffffff\n      and\n      0xdd62ed3e\n        /* \"trustless cross-chain/trading pair formation/TokenDeposit.sol\":1230:1240  msg.sender */\n      caller\n        /* \"trustless cross-chain/trading pair formation/TokenDeposit.sol\":1250:1254  this */\n      address\n        /* \"trustless cross-chain/trading pair formation/TokenDeposit.sol\":1206:1256  IERC20(token).allowance(msg.sender, address(this)) */\n      mload(0x40)\n      dup4\n      0xffffffff\n      and\n      0xe0\n      shl\n      dup2\n      mstore\n      0x04\n      add\n      tag_109\n      swap3\n      swap2\n      swap1\n      tag_110\n      jump\t// in\n    tag_109:\n      0x20\n      mload(0x40)\n      dup1\n      dup4\n      sub\n      dup2\n      dup7\n      gas\n      staticcall\n      iszero\n      dup1\n      iszero\n      tag_112\n      jumpi\n      returndatasize\n      0x00\n      dup1\n      returndatacopy\n      revert(0x00, returndatasize)\n    tag_112:\n      pop\n      pop\n      pop\n      pop\n      mload(0x40)\n      returndatasize\n      not(0x1f)\n      0x1f\n      dup3\n      add\n      and\n      dup3\n      add\n      dup1\n      0x40\n      mstore\n      pop\n      dup2\n      add\n      swap1\n      tag_113\n      swap2\n      swap1\n      tag_105\n      jump\t// in\n    tag_113:\n        /* \"trustless cross-chain/trading pair formation/TokenDeposit.sol\":1206:1266  IERC20(token).allowance(msg.sender, address(this)) >= amount */\n      lt\n      iszero\n        /* \"trustless cross-chain/trading pair formation/TokenDeposit.sol\":1198:1294  require(IERC20(token).allowance(msg.sender, address(this)) >= amount, \"Allowance is not enough\") */\n      tag_114\n      jumpi\n      mload(0x40)\n      0x08c379a000000000000000000000000000000000000000000000000000000000\n      dup2\n      mstore\n      0x04\n      add\n      tag_115\n      swap1\n      tag_116\n      jump\t// in\n    tag_115:\n      mload(0x40)\n      dup1\n      swap2\n      sub\n      swap1\n      revert\n    tag_114:\n        /* \"trustless cross-chain/trading pair formation/TokenDeposit.sol\":1364:1429  IERC20(token).safeTransferFrom(msg.sender, address(this), amount) */\n      tag_117\n        /* \"trustless cross-chain/trading pair formation/TokenDeposit.sol\":1395:1405  msg.sender */\n      caller\n        /* \"trustless cross-chain/trading pair formation/TokenDeposit.sol\":1415:1419  this */\n      address\n        /* \"trustless cross-chain/trading pair formation/TokenDeposit.sol\":1422:1428  amount */\n      dup6\n        /* \"trustless cross-chain/trading pair formation/TokenDeposit.sol\":1371:1376  token */\n      dup9\n        /* \"trustless cross-chain/trading pair formation/TokenDeposit.sol\":1364:1394  IERC20(token).safeTransferFrom */\n      0xffffffffffffffffffffffffffffffffffffffff\n      and\n      tag_118\n      swap1\n        /* \"trustless cross-chain/trading pair formation/TokenDeposit.sol\":1364:1429  IERC20(token).safeTransferFrom(msg.sender, address(this), amount) */\n      swap4\n      swap3\n      swap2\n      swap1\n      0xffffffff\n      and\n      jump\t// in\n    tag_117:\n        /* \"trustless cross-chain/trading pair formation/TokenDeposit.sol\":1480:1497  bytes32 depositId */\n      0x00\n        /* \"trustless cross-chain/trading pair formation/TokenDeposit.sol\":1527:1537  msg.sender */\n      caller\n        /* \"trustless cross-chain/trading pair formation/TokenDeposit.sol\":1539:1545  symbol */\n      dup6\n        /* \"trustless cross-chain/trading pair formation/TokenDeposit.sol\":1547:1553  amount */\n      dup6\n        /* \"trustless cross-chain/trading pair formation/TokenDeposit.sol\":1555:1566  blockNumber */\n      dup6\n        /* \"trustless cross-chain/trading pair formation/TokenDeposit.sol\":1510:1567  abi.encodePacked(msg.sender, symbol, amount, blockNumber) */\n      add(0x20, mload(0x40))\n      tag_119\n      swap5\n      swap4\n      swap3\n      swap2\n      swap1\n      tag_120\n      jump\t// in\n    tag_119:\n      mload(0x40)\n      0x20\n      dup2\n      dup4\n      sub\n      sub\n      dup2\n      mstore\n      swap1\n      0x40\n      mstore\n        /* \"trustless cross-chain/trading pair formation/TokenDeposit.sol\":1500:1568  keccak256(abi.encodePacked(msg.sender, symbol, amount, blockNumber)) */\n      dup1\n      mload\n      swap1\n      0x20\n      add\n      keccak256\n        /* \"trustless cross-chain/trading pair formation/TokenDeposit.sol\":1480:1568  bytes32 depositId = keccak256(abi.encodePacked(msg.sender, symbol, amount, blockNumber)) */\n      swap1\n      pop\n        /* \"trustless cross-chain/trading pair formation/TokenDeposit.sol\":1600:1655  Deposit(msg.sender, symbol, amount, blockNumber, false) */\n      mload(0x40)\n      dup1\n      0xa0\n      add\n      0x40\n      mstore\n      dup1\n        /* \"trustless cross-chain/trading pair formation/TokenDeposit.sol\":1608:1618  msg.sender */\n      caller\n        /* \"trustless cross-chain/trading pair formation/TokenDeposit.sol\":1600:1655  Deposit(msg.sender, symbol, amount, blockNumber, false) */\n      0xffffffffffffffffffffffffffffffffffffffff\n      and\n      dup2\n      mstore\n      0x20\n      add\n        /* \"trustless cross-chain/trading pair formation/TokenDeposit.sol\":1620:1626  symbol */\n      dup7\n        /* \"trustless cross-chain/trading pair formation/TokenDeposit.sol\":1600:1655  Deposit(msg.sender, symbol, amount, blockNumber, false) */\n      dup2\n      mstore\n      0x20\n      add\n        /* \"trustless cross-chain/trading pair formation/TokenDeposit.sol\":1628:1634  amount */\n      dup6\n        /* \"trustless cross-chain/trading pair formation/TokenDeposit.sol\":1600:1655  Deposit(msg.sender, symbol, amount, blockNumber, false) */\n      dup2\n      mstore\n      0x20\n      add\n        /* \"trustless cross-chain/trading pair formation/TokenDeposit.sol\":1636:1647  blockNumber */\n      dup5\n        /* \"trustless cross-chain/trading pair formation/TokenDeposit.sol\":1600:1655  Deposit(msg.sender, symbol, amount, blockNumber, false) */\n      dup2\n      mstore\n      0x20\n      add\n        /* \"trustless cross-chain/trading pair formation/TokenDeposit.sol\":1649:1654  false */\n      0x00\n        /* \"trustless cross-chain/trading pair formation/TokenDeposit.sol\":1600:1655  Deposit(msg.sender, symbol, amount, blockNumber, false) */\n      iszero\n      iszero\n      dup2\n      mstore\n      pop\n        /* \"trustless cross-chain/trading pair formation/TokenDeposit.sol\":1578:1586  deposits */\n      0x01\n        /* \"trustless cross-chain/trading pair formation/TokenDeposit.sol\":1578:1597  deposits[depositId] */\n      0x00\n        /* \"trustless cross-chain/trading pair formation/TokenDeposit.sol\":1587:1596  depositId */\n      dup4\n        /* \"trustless cross-chain/trading pair formation/TokenDeposit.sol\":1578:1597  deposits[depositId] */\n      dup2\n      mstore\n      0x20\n      add\n      swap1\n      dup2\n      mstore\n      0x20\n      add\n      0x00\n      keccak256\n        /* \"trustless cross-chain/trading pair formation/TokenDeposit.sol\":1578:1655  deposits[depositId] = Deposit(msg.sender, symbol, amount, blockNumber, false) */\n      0x00\n      dup3\n      add\n      mload\n      dup2\n      0x00\n      add\n      exp(0x0100, 0x00)\n      dup2\n      sload\n      dup2\n      0xffffffffffffffffffffffffffffffffffffffff\n      mul\n      not\n      and\n      swap1\n      dup4\n      0xffffffffffffffffffffffffffffffffffffffff\n      and\n      mul\n      or\n      swap1\n      sstore\n      pop\n      0x20\n      dup3\n      add\n      mload\n      dup2\n      0x01\n      add\n      swap1\n      dup2\n      tag_121\n      swap2\n      swap1\n      tag_122\n      jump\t// in\n    tag_121:\n      pop\n      0x40\n      dup3\n      add\n      mload\n      dup2\n      0x02\n      add\n      sstore\n      0x60\n      dup3\n      add\n      mload\n      dup2\n      0x03\n      add\n      sstore\n      0x80\n      dup3\n      add\n      mload\n      dup2\n      0x04\n      add\n      exp(0x0100, 0x00)\n      dup2\n      sload\n      dup2\n      0xff\n      mul\n      not\n      and\n      swap1\n      dup4\n      iszero\n      iszero\n      mul\n      or\n      swap1\n      sstore\n      pop\n      swap1\n      pop\n      pop\n        /* \"trustless cross-chain/trading pair formation/TokenDeposit.sol\":1665:1682  depositsByAddress */\n      0x02\n        /* \"trustless cross-chain/trading pair formation/TokenDeposit.sol\":1665:1694  depositsByAddress[msg.sender] */\n      0x00\n        /* \"trustless cross-chain/trading pair formation/TokenDeposit.sol\":1683:1693  msg.sender */\n      caller\n        /* \"trustless cross-chain/trading pair formation/TokenDeposit.sol\":1665:1694  depositsByAddress[msg.sender] */\n      0xffffffffffffffffffffffffffffffffffffffff\n      and\n      0xffffffffffffffffffffffffffffffffffffffff\n      and\n      dup2\n      mstore\n      0x20\n      add\n      swap1\n      dup2\n      mstore\n      0x20\n      add\n      0x00\n      keccak256\n        /* \"trustless cross-chain/trading pair formation/TokenDeposit.sol\":1700:1709  depositId */\n      dup2\n        /* \"trustless cross-chain/trading pair formation/TokenDeposit.sol\":1665:1710  depositsByAddress[msg.sender].push(depositId) */\n      swap1\n      dup1\n      0x01\n      dup2\n      sload\n      add\n      dup1\n      dup3\n      sstore\n      dup1\n      swap2\n      pop\n      pop\n      0x01\n      swap1\n      sub\n      swap1\n      0x00\n      mstore\n      keccak256(0x00, 0x20)\n      add\n      0x00\n      swap1\n      swap2\n      swap1\n      swap2\n      swap1\n      swap2\n      pop\n      sstore\n        /* \"trustless cross-chain/trading pair formation/TokenDeposit.sol\":1751:1761  msg.sender */\n      caller\n        /* \"trustless cross-chain/trading pair formation/TokenDeposit.sol\":1726:1791  DepositLocked(depositId, msg.sender, symbol, amount, blockNumber) */\n      0xffffffffffffffffffffffffffffffffffffffff\n      and\n      0xa1cff1b2f4bcfbf6eeee2c1d4fd6de1249eeaa035f878bd93899dc7a8348b6\n        /* \"trustless cross-chain/trading pair formation/TokenDeposit.sol\":1740:1749  depositId */\n      dup3\n        /* \"trustless cross-chain/trading pair formation/TokenDeposit.sol\":1763:1769  symbol */\n      dup8\n        /* \"trustless cross-chain/trading pair formation/TokenDeposit.sol\":1771:1777  amount */\n      dup8\n        /* \"trustless cross-chain/trading pair formation/TokenDeposit.sol\":1779:1790  blockNumber */\n      dup8\n        /* \"trustless cross-chain/trading pair formation/TokenDeposit.sol\":1726:1791  DepositLocked(depositId, msg.sender, symbol, amount, blockNumber) */\n      mload(0x40)\n      tag_124\n      swap5\n      swap4\n      swap3\n      swap2\n      swap1\n      tag_125\n      jump\t// in\n    tag_124:\n      mload(0x40)\n      dup1\n      swap2\n      sub\n      swap1\n      log2\n        /* \"trustless cross-chain/trading pair formation/TokenDeposit.sol\":900:1798  {... */\n      pop\n        /* \"trustless cross-chain/trading pair formation/TokenDeposit.sol\":783:1798  function deposit(address token, string memory symbol, uint256 amount, uint256 blockNumber, bool triggerEvent) public {... */\n      pop\n      pop\n      pop\n      pop\n      pop\n      jump\t// out\n        /* \"@openzeppelin/contracts/token/ERC20/utils/SafeERC20.sol\":763:968  function safeTransfer(... */\n    tag_56:\n        /* \"@openzeppelin/contracts/token/ERC20/utils/SafeERC20.sol\":875:961  _callOptionalReturn(token, abi.encodeWithSelector(token.transfer.selector, to, value)) */\n      tag_127\n        /* \"@openzeppelin/contracts/token/ERC20/utils/SafeERC20.sol\":895:900  token */\n      dup4\n        /* \"@openzeppelin/contracts/token/ERC20/utils/SafeERC20.sol\":925:948  token.transfer.selector */\n      shl(0xe0, 0xa9059cbb)\n        /* \"@openzeppelin/contracts/token/ERC20/utils/SafeERC20.sol\":950:952  to */\n      dup5\n        /* \"@openzeppelin/contracts/token/ERC20/utils/SafeERC20.sol\":954:959  value */\n      dup5\n        /* \"@openzeppelin/contracts/token/ERC20/utils/SafeERC20.sol\":902:960  abi.encodeWithSelector(token.transfer.selector, to, value) */\n      add(0x24, mload(0x40))\n      tag_128\n      swap3\n      swap2\n      swap1\n      tag_129\n      jump\t// in\n    tag_128:\n      mload(0x40)\n      0x20\n      dup2\n      dup4\n      sub\n      sub\n      dup2\n      mstore\n      swap1\n      0x40\n      mstore\n      swap1\n      not(0xffffffffffffffffffffffffffffffffffffffffffffffffffffffff)\n      and\n      0x20\n      dup3\n      add\n      dup1\n      mload\n      0xffffffffffffffffffffffffffffffffffffffffffffffffffffffff\n      dup4\n      dup2\n      dup4\n      and\n      or\n      dup4\n      mstore\n      pop\n      pop\n      pop\n      pop\n        /* \"@openzeppelin/contracts/token/ERC20/utils/SafeERC20.sol\":875:894  _callOptionalReturn */\n      tag_130\n        /* \"@openzeppelin/contracts/token/ERC20/utils/SafeERC20.sol\":875:961  _callOptionalReturn(token, abi.encodeWithSelector(token.transfer.selector, to, value)) */\n      jump\t// in\n    tag_127:\n        /* \"@openzeppelin/contracts/token/ERC20/utils/SafeERC20.sol\":763:968  function safeTransfer(... */\n      pop\n      pop\n      pop\n      jump\t// out\n        /* \"@openzeppelin/contracts/token/ERC20/utils/SafeERC20.sol\":974:1215  function safeTransferFrom(... */\n    tag_118:\n        /* \"@openzeppelin/contracts/token/ERC20/utils/SafeERC20.sol\":1112:1208  _callOptionalReturn(token, abi.encodeWithSelector(token.transferFrom.selector, from, to, value)) */\n      tag_132\n        /* \"@openzeppelin/contracts/token/ERC20/utils/SafeERC20.sol\":1132:1137  token */\n      dup5\n        /* \"@openzeppelin/contracts/token/ERC20/utils/SafeERC20.sol\":1162:1189  token.transferFrom.selector */\n      shl(0xe0, 0x23b872dd)\n        /* \"@openzeppelin/contracts/token/ERC20/utils/SafeERC20.sol\":1191:1195  from */\n      dup6\n        /* \"@openzeppelin/contracts/token/ERC20/utils/SafeERC20.sol\":1197:1199  to */\n      dup6\n        /* \"@openzeppelin/contracts/token/ERC20/utils/SafeERC20.sol\":1201:1206  value */\n      dup6\n        /* \"@openzeppelin/contracts/token/ERC20/utils/SafeERC20.sol\":1139:1207  abi.encodeWithSelector(token.transferFrom.selector, from, to, value) */\n      add(0x24, mload(0x40))\n      tag_133\n      swap4\n      swap3\n      swap2\n      swap1\n      tag_134\n      jump\t// in\n    tag_133:\n      mload(0x40)\n      0x20\n      dup2\n      dup4\n      sub\n      sub\n      dup2\n      mstore\n      swap1\n      0x40\n      mstore\n      swap1\n      not(0xffffffffffffffffffffffffffffffffffffffffffffffffffffffff)\n      and\n      0x20\n      dup3\n      add\n      dup1\n      mload\n      0xffffffffffffffffffffffffffffffffffffffffffffffffffffffff\n      dup4\n      dup2\n      dup4\n      and\n      or\n      dup4\n      mstore\n      pop\n      pop\n      pop\n      pop\n        /* \"@openzeppelin/contracts/token/ERC20/utils/SafeERC20.sol\":1112:1131  _callOptionalReturn */\n      tag_130\n        /* \"@openzeppelin/contracts/token/ERC20/utils/SafeERC20.sol\":1112:1208  _callOptionalReturn(token, abi.encodeWithSelector(token.transferFrom.selector, from, to, value)) */\n      jump\t// in\n    tag_132:\n        /* \"@openzeppelin/contracts/token/ERC20/utils/SafeERC20.sol\":974:1215  function safeTransferFrom(... */\n      pop\n      pop\n      pop\n      pop\n      jump\t// out\n        /* \"@openzeppelin/contracts/token/ERC20/utils/SafeERC20.sol\":3747:4453  function _callOptionalReturn(IERC20 token, bytes memory data) private {... */\n    tag_130:\n        /* \"@openzeppelin/contracts/token/ERC20/utils/SafeERC20.sol\":4166:4189  bytes memory returndata */\n      0x00\n        /* \"@openzeppelin/contracts/token/ERC20/utils/SafeERC20.sol\":4192:4261  address(token).functionCall(data, \"SafeERC20: low-level call failed\") */\n      tag_136\n        /* \"@openzeppelin/contracts/token/ERC20/utils/SafeERC20.sol\":4220:4224  data */\n      dup3\n        /* \"@openzeppelin/contracts/token/ERC20/utils/SafeERC20.sol\":4192:4261  address(token).functionCall(data, \"SafeERC20: low-level call failed\") */\n      mload(0x40)\n      dup1\n      0x40\n      add\n      0x40\n      mstore\n      dup1\n      0x20\n      dup2\n      mstore\n      0x20\n      add\n      0x5361666545524332303a206c6f772d6c6576656c2063616c6c206661696c6564\n      dup2\n      mstore\n      pop\n        /* \"@openzeppelin/contracts/token/ERC20/utils/SafeERC20.sol\":4200:4205  token */\n      dup6\n        /* \"@openzeppelin/contracts/token/ERC20/utils/SafeERC20.sol\":4192:4219  address(token).functionCall */\n      0xffffffffffffffffffffffffffffffffffffffff\n      and\n      tag_137\n      swap1\n        /* \"@openzeppelin/contracts/token/ERC20/utils/SafeERC20.sol\":4192:4261  address(token).functionCall(data, \"SafeERC20: low-level call failed\") */\n      swap3\n      swap2\n      swap1\n      0xffffffff\n      and\n      jump\t// in\n    tag_136:\n        /* \"@openzeppelin/contracts/token/ERC20/utils/SafeERC20.sol\":4166:4261  bytes memory returndata = address(token).functionCall(data, \"SafeERC20: low-level call failed\") */\n      swap1\n      pop\n        /* \"@openzeppelin/contracts/token/ERC20/utils/SafeERC20.sol\":4295:4296  0 */\n      0x00\n        /* \"@openzeppelin/contracts/token/ERC20/utils/SafeERC20.sol\":4275:4285  returndata */\n      dup2\n        /* \"@openzeppelin/contracts/token/ERC20/utils/SafeERC20.sol\":4275:4292  returndata.length */\n      mload\n        /* \"@openzeppelin/contracts/token/ERC20/utils/SafeERC20.sol\":4275:4296  returndata.length > 0 */\n      gt\n        /* \"@openzeppelin/contracts/token/ERC20/utils/SafeERC20.sol\":4271:4447  if (returndata.length > 0) {... */\n      iszero\n      tag_138\n      jumpi\n        /* \"@openzeppelin/contracts/token/ERC20/utils/SafeERC20.sol\":4370:4380  returndata */\n      dup1\n        /* \"@openzeppelin/contracts/token/ERC20/utils/SafeERC20.sol\":4359:4389  abi.decode(returndata, (bool)) */\n      dup1\n      0x20\n      add\n      swap1\n      mload\n      dup2\n      add\n      swap1\n      tag_139\n      swap2\n      swap1\n      tag_140\n      jump\t// in\n    tag_139:\n        /* \"@openzeppelin/contracts/token/ERC20/utils/SafeERC20.sol\":4351:4436  require(abi.decode(returndata, (bool)), \"SafeERC20: ERC20 operation did not succeed\") */\n      tag_141\n      jumpi\n      mload(0x40)\n      0x08c379a000000000000000000000000000000000000000000000000000000000\n      dup2\n      mstore\n      0x04\n      add\n      tag_142\n      swap1\n      tag_143\n      jump\t// in\n    tag_142:\n      mload(0x40)\n      dup1\n      swap2\n      sub\n      swap1\n      revert\n    tag_141:\n        /* \"@openzeppelin/contracts/token/ERC20/utils/SafeERC20.sol\":4271:4447  if (returndata.length > 0) {... */\n    tag_138:\n        /* \"@openzeppelin/contracts/token/ERC20/utils/SafeERC20.sol\":3817:4453  {... */\n      pop\n        /* \"@openzeppelin/contracts/token/ERC20/utils/SafeERC20.sol\":3747:4453  function _callOptionalReturn(IERC20 token, bytes memory data) private {... */\n      pop\n      pop\n      jump\t// out\n        /* \"@openzeppelin/contracts/utils/Address.sol\":3873:4096  function functionCall(... */\n    tag_137:\n        /* \"@openzeppelin/contracts/utils/Address.sol\":4006:4018  bytes memory */\n      0x60\n        /* \"@openzeppelin/contracts/utils/Address.sol\":4037:4089  functionCallWithValue(target, data, 0, errorMessage) */\n      tag_145\n        /* \"@openzeppelin/contracts/utils/Address.sol\":4059:4065  target */\n      dup5\n        /* \"@openzeppelin/contracts/utils/Address.sol\":4067:4071  data */\n      dup5\n        /* \"@openzeppelin/contracts/utils/Address.sol\":4073:4074  0 */\n      0x00\n        /* \"@openzeppelin/contracts/utils/Address.sol\":4076:4088  errorMessage */\n      dup6\n        /* \"@openzeppelin/contracts/utils/Address.sol\":4037:4058  functionCallWithValue */\n      tag_146\n        /* \"@openzeppelin/contracts/utils/Address.sol\":4037:4089  functionCallWithValue(target, data, 0, errorMessage) */\n      jump\t// in\n    tag_145:\n        /* \"@openzeppelin/contracts/utils/Address.sol\":4030:4089  return functionCallWithValue(target, data, 0, errorMessage) */\n      swap1\n      pop\n        /* \"@openzeppelin/contracts/utils/Address.sol\":3873:4096  function functionCall(... */\n      swap4\n      swap3\n      pop\n      pop\n      pop\n      jump\t// out\n        /* \"@openzeppelin/contracts/utils/Address.sol\":4960:5406  function functionCallWithValue(... */\n    tag_146:\n        /* \"@openzeppelin/contracts/utils/Address.sol\":5125:5137  bytes memory */\n      0x60\n        /* \"@openzeppelin/contracts/utils/Address.sol\":5182:5187  value */\n      dup3\n        /* \"@openzeppelin/contracts/utils/Address.sol\":5157:5178  address(this).balance */\n      selfbalance\n        /* \"@openzeppelin/contracts/utils/Address.sol\":5157:5187  address(this).balance >= value */\n      lt\n      iszero\n        /* \"@openzeppelin/contracts/utils/Address.sol\":5149:5230  require(address(this).balance >= value, \"Address: insufficient balance for call\") */\n      tag_148\n      jumpi\n      mload(0x40)\n      0x08c379a000000000000000000000000000000000000000000000000000000000\n      dup2\n      mstore\n      0x04\n      add\n      tag_149\n      swap1\n      tag_150\n      jump\t// in\n    tag_149:\n      mload(0x40)\n      dup1\n      swap2\n      sub\n      swap1\n      revert\n    tag_148:\n        /* \"@openzeppelin/contracts/utils/Address.sol\":5241:5253  bool success */\n      0x00\n        /* \"@openzeppelin/contracts/utils/Address.sol\":5255:5278  bytes memory returndata */\n      dup1\n        /* \"@openzeppelin/contracts/utils/Address.sol\":5282:5288  target */\n      dup7\n        /* \"@openzeppelin/contracts/utils/Address.sol\":5282:5293  target.call */\n      0xffffffffffffffffffffffffffffffffffffffff\n      and\n        /* \"@openzeppelin/contracts/utils/Address.sol\":5301:5306  value */\n      dup6\n        /* \"@openzeppelin/contracts/utils/Address.sol\":5308:5312  data */\n      dup8\n        /* \"@openzeppelin/contracts/utils/Address.sol\":5282:5313  target.call{value: value}(data) */\n      mload(0x40)\n      tag_151\n      swap2\n      swap1\n      tag_152\n      jump\t// in\n    tag_151:\n      0x00\n      mload(0x40)\n      dup1\n      dup4\n      sub\n      dup2\n      dup6\n      dup8\n      gas\n      call\n      swap3\n      pop\n      pop\n      pop\n      returndatasize\n      dup1\n      0x00\n      dup2\n      eq\n      tag_155\n      jumpi\n      mload(0x40)\n      swap2\n      pop\n      and(add(returndatasize, 0x3f), not(0x1f))\n      dup3\n      add\n      0x40\n      mstore\n      returndatasize\n      dup3\n      mstore\n      returndatasize\n      0x00\n      0x20\n      dup5\n      add\n      returndatacopy\n      jump(tag_154)\n    tag_155:\n      0x60\n      swap2\n      pop\n    tag_154:\n      pop\n        /* \"@openzeppelin/contracts/utils/Address.sol\":5240:5313  (bool success, bytes memory returndata) = target.call{value: value}(data) */\n      swap2\n      pop\n      swap2\n      pop\n        /* \"@openzeppelin/contracts/utils/Address.sol\":5330:5399  verifyCallResultFromTarget(target, success, returndata, errorMessage) */\n      tag_156\n        /* \"@openzeppelin/contracts/utils/Address.sol\":5357:5363  target */\n      dup8\n        /* \"@openzeppelin/contracts/utils/Address.sol\":5365:5372  success */\n      dup4\n        /* \"@openzeppelin/contracts/utils/Address.sol\":5374:5384  returndata */\n      dup4\n        /* \"@openzeppelin/contracts/utils/Address.sol\":5386:5398  errorMessage */\n      dup8\n        /* \"@openzeppelin/contracts/utils/Address.sol\":5330:5356  verifyCallResultFromTarget */\n      tag_157\n        /* \"@openzeppelin/contracts/utils/Address.sol\":5330:5399  verifyCallResultFromTarget(target, success, returndata, errorMessage) */\n      jump\t// in\n    tag_156:\n        /* \"@openzeppelin/contracts/utils/Address.sol\":5323:5399  return verifyCallResultFromTarget(target, success, returndata, errorMessage) */\n      swap3\n      pop\n      pop\n      pop\n        /* \"@openzeppelin/contracts/utils/Address.sol\":4960:5406  function functionCallWithValue(... */\n      swap5\n      swap4\n      pop\n      pop\n      pop\n      pop\n      jump\t// out\n        /* \"@openzeppelin/contracts/utils/Address.sol\":7466:8094  function verifyCallResultFromTarget(... */\n    tag_157:\n        /* \"@openzeppelin/contracts/utils/Address.sol\":7646:7658  bytes memory */\n      0x60\n        /* \"@openzeppelin/contracts/utils/Address.sol\":7674:7681  success */\n      dup4\n        /* \"@openzeppelin/contracts/utils/Address.sol\":7670:8088  if (success) {... */\n      iszero\n      tag_159\n      jumpi\n        /* \"@openzeppelin/contracts/utils/Address.sol\":7722:7723  0 */\n      0x00\n        /* \"@openzeppelin/contracts/utils/Address.sol\":7701:7711  returndata */\n      dup4\n        /* \"@openzeppelin/contracts/utils/Address.sol\":7701:7718  returndata.length */\n      mload\n        /* \"@openzeppelin/contracts/utils/Address.sol\":7701:7723  returndata.length == 0 */\n      sub\n        /* \"@openzeppelin/contracts/utils/Address.sol\":7697:7983  if (returndata.length == 0) {... */\n      tag_160\n      jumpi\n        /* \"@openzeppelin/contracts/utils/Address.sol\":7916:7934  isContract(target) */\n      tag_161\n        /* \"@openzeppelin/contracts/utils/Address.sol\":7927:7933  target */\n      dup6\n        /* \"@openzeppelin/contracts/utils/Address.sol\":7916:7926  isContract */\n      tag_162\n        /* \"@openzeppelin/contracts/utils/Address.sol\":7916:7934  isContract(target) */\n      jump\t// in\n    tag_161:\n        /* \"@openzeppelin/contracts/utils/Address.sol\":7908:7968  require(isContract(target), \"Address: call to non-contract\") */\n      tag_163\n      jumpi\n      mload(0x40)\n      0x08c379a000000000000000000000000000000000000000000000000000000000\n      dup2\n      mstore\n      0x04\n      add\n      tag_164\n      swap1\n      tag_165\n      jump\t// in\n    tag_164:\n      mload(0x40)\n      dup1\n      swap2\n      sub\n      swap1\n      revert\n    tag_163:\n        /* \"@openzeppelin/contracts/utils/Address.sol\":7697:7983  if (returndata.length == 0) {... */\n    tag_160:\n        /* \"@openzeppelin/contracts/utils/Address.sol\":8003:8013  returndata */\n      dup3\n        /* \"@openzeppelin/contracts/utils/Address.sol\":7996:8013  return returndata */\n      swap1\n      pop\n      jump(tag_158)\n        /* \"@openzeppelin/contracts/utils/Address.sol\":7670:8088  if (success) {... */\n    tag_159:\n        /* \"@openzeppelin/contracts/utils/Address.sol\":8044:8077  _revert(returndata, errorMessage) */\n      tag_167\n        /* \"@openzeppelin/contracts/utils/Address.sol\":8052:8062  returndata */\n      dup4\n        /* \"@openzeppelin/contracts/utils/Address.sol\":8064:8076  errorMessage */\n      dup4\n        /* \"@openzeppelin/contracts/utils/Address.sol\":8044:8051  _revert */\n      tag_168\n        /* \"@openzeppelin/contracts/utils/Address.sol\":8044:8077  _revert(returndata, errorMessage) */\n      jump\t// in\n    tag_167:\n        /* \"@openzeppelin/contracts/utils/Address.sol\":7466:8094  function verifyCallResultFromTarget(... */\n    tag_158:\n      swap5\n      swap4\n      pop\n      pop\n      pop\n      pop\n      jump\t// out\n        /* \"@openzeppelin/contracts/utils/Address.sol\":1175:1495  function isContract(address account) internal view returns (bool) {... */\n    tag_162:\n        /* \"@openzeppelin/contracts/utils/Address.sol\":1235:1239  bool */\n      0x00\n        /* \"@openzeppelin/contracts/utils/Address.sol\":1487:1488  0 */\n      dup1\n        /* \"@openzeppelin/contracts/utils/Address.sol\":1465:1472  account */\n      dup3\n        /* \"@openzeppelin/contracts/utils/Address.sol\":1465:1484  account.code.length */\n      0xffffffffffffffffffffffffffffffffffffffff\n      and\n      extcodesize\n        /* \"@openzeppelin/contracts/utils/Address.sol\":1465:1488  account.code.length > 0 */\n      gt\n        /* \"@openzeppelin/contracts/utils/Address.sol\":1458:1488  return account.code.length > 0 */\n      swap1\n      pop\n        /* \"@openzeppelin/contracts/utils/Address.sol\":1175:1495  function isContract(address account) internal view returns (bool) {... */\n      swap2\n      swap1\n      pop\n      jump\t// out\n        /* \"@openzeppelin/contracts/utils/Address.sol\":8616:9156  function _revert(bytes memory returndata, string memory errorMessage) private pure {... */\n    tag_168:\n        /* \"@openzeppelin/contracts/utils/Address.sol\":8795:8796  0 */\n      0x00\n        /* \"@openzeppelin/contracts/utils/Address.sol\":8775:8785  returndata */\n      dup3\n        /* \"@openzeppelin/contracts/utils/Address.sol\":8775:8792  returndata.length */\n      mload\n        /* \"@openzeppelin/contracts/utils/Address.sol\":8775:8796  returndata.length > 0 */\n      gt\n        /* \"@openzeppelin/contracts/utils/Address.sol\":8771:9150  if (returndata.length > 0) {... */\n      iszero\n      tag_171\n      jumpi\n        /* \"@openzeppelin/contracts/utils/Address.sol\":9003:9013  returndata */\n      dup2\n        /* \"@openzeppelin/contracts/utils/Address.sol\":8997:9014  mload(returndata) */\n      mload\n        /* \"@openzeppelin/contracts/utils/Address.sol\":9059:9074  returndata_size */\n      dup1\n        /* \"@openzeppelin/contracts/utils/Address.sol\":9046:9056  returndata */\n      dup4\n        /* \"@openzeppelin/contracts/utils/Address.sol\":9042:9044  32 */\n      0x20\n        /* \"@openzeppelin/contracts/utils/Address.sol\":9038:9057  add(32, returndata) */\n      add\n        /* \"@openzeppelin/contracts/utils/Address.sol\":9031:9075  revert(add(32, returndata), returndata_size) */\n      revert\n        /* \"@openzeppelin/contracts/utils/Address.sol\":8771:9150  if (returndata.length > 0) {... */\n    tag_171:\n        /* \"@openzeppelin/contracts/utils/Address.sol\":9126:9138  errorMessage */\n      dup1\n        /* \"@openzeppelin/contracts/utils/Address.sol\":9119:9139  revert(errorMessage) */\n      mload(0x40)\n      0x08c379a000000000000000000000000000000000000000000000000000000000\n      dup2\n      mstore\n      0x04\n      add\n      tag_173\n      swap2\n      swap1\n      tag_174\n      jump\t// in\n    tag_173:\n      mload(0x40)\n      dup1\n      swap2\n      sub\n      swap1\n      revert\n    tag_73:\n      mload(0x40)\n      dup1\n      0xa0\n      add\n      0x40\n      mstore\n      dup1\n      and(0xffffffffffffffffffffffffffffffffffffffff, 0x00)\n      dup2\n      mstore\n      0x20\n      add\n      0x60\n      dup2\n      mstore\n      0x20\n      add\n      0x00\n      dup2\n      mstore\n      0x20\n      add\n      0x00\n      dup2\n      mstore\n      0x20\n      add\n      iszero(iszero(0x00))\n      dup2\n      mstore\n      pop\n      swap1\n      jump\t// out\n        /* \"#utility.yul\":7:82   */\n    tag_175:\n        /* \"#utility.yul\":40:46   */\n      0x00\n        /* \"#utility.yul\":73:75   */\n      0x40\n        /* \"#utility.yul\":67:76   */\n      mload\n        /* \"#utility.yul\":57:76   */\n      swap1\n      pop\n        /* \"#utility.yul\":7:82   */\n      swap1\n      jump\t// out\n        /* \"#utility.yul\":88:205   */\n    tag_176:\n        /* \"#utility.yul\":197:198   */\n      0x00\n        /* \"#utility.yul\":194:195   */\n      dup1\n        /* \"#utility.yul\":187:199   */\n      revert\n        /* \"#utility.yul\":211:328   */\n    tag_177:\n        /* \"#utility.yul\":320:321   */\n      0x00\n        /* \"#utility.yul\":317:318   */\n      dup1\n        /* \"#utility.yul\":310:322   */\n      revert\n        /* \"#utility.yul\":334:411   */\n    tag_178:\n        /* \"#utility.yul\":371:378   */\n      0x00\n        /* \"#utility.yul\":400:405   */\n      dup2\n        /* \"#utility.yul\":389:405   */\n      swap1\n      pop\n        /* \"#utility.yul\":334:411   */\n      swap2\n      swap1\n      pop\n      jump\t// out\n        /* \"#utility.yul\":417:539   */\n    tag_179:\n        /* \"#utility.yul\":490:514   */\n      tag_277\n        /* \"#utility.yul\":508:513   */\n      dup2\n        /* \"#utility.yul\":490:514   */\n      tag_178\n      jump\t// in\n    tag_277:\n        /* \"#utility.yul\":483:488   */\n      dup2\n        /* \"#utility.yul\":480:515   */\n      eq\n        /* \"#utility.yul\":470:533   */\n      tag_278\n      jumpi\n        /* \"#utility.yul\":529:530   */\n      0x00\n        /* \"#utility.yul\":526:527   */\n      dup1\n        /* \"#utility.yul\":519:531   */\n      revert\n        /* \"#utility.yul\":470:533   */\n    tag_278:\n        /* \"#utility.yul\":417:539   */\n      pop\n      jump\t// out\n        /* \"#utility.yul\":545:684   */\n    tag_180:\n        /* \"#utility.yul\":591:596   */\n      0x00\n        /* \"#utility.yul\":629:635   */\n      dup2\n        /* \"#utility.yul\":616:636   */\n      calldataload\n        /* \"#utility.yul\":607:636   */\n      swap1\n      pop\n        /* \"#utility.yul\":645:678   */\n      tag_280\n        /* \"#utility.yul\":672:677   */\n      dup2\n        /* \"#utility.yul\":645:678   */\n      tag_179\n      jump\t// in\n    tag_280:\n        /* \"#utility.yul\":545:684   */\n      swap3\n      swap2\n      pop\n      pop\n      jump\t// out\n        /* \"#utility.yul\":690:816   */\n    tag_181:\n        /* \"#utility.yul\":727:734   */\n      0x00\n        /* \"#utility.yul\":767:809   */\n      0xffffffffffffffffffffffffffffffffffffffff\n        /* \"#utility.yul\":760:765   */\n      dup3\n        /* \"#utility.yul\":756:810   */\n      and\n        /* \"#utility.yul\":745:810   */\n      swap1\n      pop\n        /* \"#utility.yul\":690:816   */\n      swap2\n      swap1\n      pop\n      jump\t// out\n        /* \"#utility.yul\":822:918   */\n    tag_182:\n        /* \"#utility.yul\":859:866   */\n      0x00\n        /* \"#utility.yul\":888:912   */\n      tag_283\n        /* \"#utility.yul\":906:911   */\n      dup3\n        /* \"#utility.yul\":888:912   */\n      tag_181\n      jump\t// in\n    tag_283:\n        /* \"#utility.yul\":877:912   */\n      swap1\n      pop\n        /* \"#utility.yul\":822:918   */\n      swap2\n      swap1\n      pop\n      jump\t// out\n        /* \"#utility.yul\":924:1046   */\n    tag_183:\n        /* \"#utility.yul\":997:1021   */\n      tag_285\n        /* \"#utility.yul\":1015:1020   */\n      dup2\n        /* \"#utility.yul\":997:1021   */\n      tag_182\n      jump\t// in\n    tag_285:\n        /* \"#utility.yul\":990:995   */\n      dup2\n        /* \"#utility.yul\":987:1022   */\n      eq\n        /* \"#utility.yul\":977:1040   */\n      tag_286\n      jumpi\n        /* \"#utility.yul\":1036:1037   */\n      0x00\n        /* \"#utility.yul\":1033:1034   */\n      dup1\n        /* \"#utility.yul\":1026:1038   */\n      revert\n        /* \"#utility.yul\":977:1040   */\n    tag_286:\n        /* \"#utility.yul\":924:1046   */\n      pop\n      jump\t// out\n        /* \"#utility.yul\":1052:1191   */\n    tag_184:\n        /* \"#utility.yul\":1098:1103   */\n      0x00\n        /* \"#utility.yul\":1136:1142   */\n      dup2\n        /* \"#utility.yul\":1123:1143   */\n      calldataload\n        /* \"#utility.yul\":1114:1143   */\n      swap1\n      pop\n        /* \"#utility.yul\":1152:1185   */\n      tag_288\n        /* \"#utility.yul\":1179:1184   */\n      dup2\n        /* \"#utility.yul\":1152:1185   */\n      tag_183\n      jump\t// in\n    tag_288:\n        /* \"#utility.yul\":1052:1191   */\n      swap3\n      swap2\n      pop\n      pop\n      jump\t// out\n        /* \"#utility.yul\":1197:1671   */\n    tag_13:\n        /* \"#utility.yul\":1265:1271   */\n      0x00\n        /* \"#utility.yul\":1273:1279   */\n      dup1\n        /* \"#utility.yul\":1322:1324   */\n      0x40\n        /* \"#utility.yul\":1310:1319   */\n      dup4\n        /* \"#utility.yul\":1301:1308   */\n      dup6\n        /* \"#utility.yul\":1297:1320   */\n      sub\n        /* \"#utility.yul\":1293:1325   */\n      slt\n        /* \"#utility.yul\":1290:1409   */\n      iszero\n      tag_290\n      jumpi\n        /* \"#utility.yul\":1328:1407   */\n      tag_291\n      tag_176\n      jump\t// in\n    tag_291:\n        /* \"#utility.yul\":1290:1409   */\n    tag_290:\n        /* \"#utility.yul\":1448:1449   */\n      0x00\n        /* \"#utility.yul\":1473:1526   */\n      tag_292\n        /* \"#utility.yul\":1518:1525   */\n      dup6\n        /* \"#utility.yul\":1509:1515   */\n      dup3\n        /* \"#utility.yul\":1498:1507   */\n      dup7\n        /* \"#utility.yul\":1494:1516   */\n      add\n        /* \"#utility.yul\":1473:1526   */\n      tag_180\n      jump\t// in\n    tag_292:\n        /* \"#utility.yul\":1463:1526   */\n      swap3\n      pop\n        /* \"#utility.yul\":1419:1536   */\n      pop\n        /* \"#utility.yul\":1575:1577   */\n      0x20\n        /* \"#utility.yul\":1601:1654   */\n      tag_293\n        /* \"#utility.yul\":1646:1653   */\n      dup6\n        /* \"#utility.yul\":1637:1643   */\n      dup3\n        /* \"#utility.yul\":1626:1635   */\n      dup7\n        /* \"#utility.yul\":1622:1644   */\n      add\n        /* \"#utility.yul\":1601:1654   */\n      tag_184\n      jump\t// in\n    tag_293:\n        /* \"#utility.yul\":1591:1654   */\n      swap2\n      pop\n        /* \"#utility.yul\":1546:1664   */\n      pop\n        /* \"#utility.yul\":1197:1671   */\n      swap3\n      pop\n      swap3\n      swap1\n      pop\n      jump\t// out\n        /* \"#utility.yul\":1677:2006   */\n    tag_17:\n        /* \"#utility.yul\":1736:1742   */\n      0x00\n        /* \"#utility.yul\":1785:1787   */\n      0x20\n        /* \"#utility.yul\":1773:1782   */\n      dup3\n        /* \"#utility.yul\":1764:1771   */\n      dup5\n        /* \"#utility.yul\":1760:1783   */\n      sub\n        /* \"#utility.yul\":1756:1788   */\n      slt\n        /* \"#utility.yul\":1753:1872   */\n      iszero\n      tag_295\n      jumpi\n        /* \"#utility.yul\":1791:1870   */\n      tag_296\n      tag_176\n      jump\t// in\n    tag_296:\n        /* \"#utility.yul\":1753:1872   */\n    tag_295:\n        /* \"#utility.yul\":1911:1912   */\n      0x00\n        /* \"#utility.yul\":1936:1989   */\n      tag_297\n        /* \"#utility.yul\":1981:1988   */\n      dup5\n        /* \"#utility.yul\":1972:1978   */\n      dup3\n        /* \"#utility.yul\":1961:1970   */\n      dup6\n        /* \"#utility.yul\":1957:1979   */\n      add\n        /* \"#utility.yul\":1936:1989   */\n      tag_180\n      jump\t// in\n    tag_297:\n        /* \"#utility.yul\":1926:1989   */\n      swap2\n      pop\n        /* \"#utility.yul\":1882:1999   */\n      pop\n        /* \"#utility.yul\":1677:2006   */\n      swap3\n      swap2\n      pop\n      pop\n      jump\t// out\n        /* \"#utility.yul\":2012:2130   */\n    tag_185:\n        /* \"#utility.yul\":2099:2123   */\n      tag_299\n        /* \"#utility.yul\":2117:2122   */\n      dup2\n        /* \"#utility.yul\":2099:2123   */\n      tag_182\n      jump\t// in\n    tag_299:\n        /* \"#utility.yul\":2094:2097   */\n      dup3\n        /* \"#utility.yul\":2087:2124   */\n      mstore\n        /* \"#utility.yul\":2012:2130   */\n      pop\n      pop\n      jump\t// out\n        /* \"#utility.yul\":2136:2235   */\n    tag_186:\n        /* \"#utility.yul\":2188:2194   */\n      0x00\n        /* \"#utility.yul\":2222:2227   */\n      dup2\n        /* \"#utility.yul\":2216:2228   */\n      mload\n        /* \"#utility.yul\":2206:2228   */\n      swap1\n      pop\n        /* \"#utility.yul\":2136:2235   */\n      swap2\n      swap1\n      pop\n      jump\t// out\n        /* \"#utility.yul\":2241:2410   */\n    tag_187:\n        /* \"#utility.yul\":2325:2336   */\n      0x00\n        /* \"#utility.yul\":2359:2365   */\n      dup3\n        /* \"#utility.yul\":2354:2357   */\n      dup3\n        /* \"#utility.yul\":2347:2366   */\n      mstore\n        /* \"#utility.yul\":2399:2403   */\n      0x20\n        /* \"#utility.yul\":2394:2397   */\n      dup3\n        /* \"#utility.yul\":2390:2404   */\n      add\n        /* \"#utility.yul\":2375:2404   */\n      swap1\n      pop\n        /* \"#utility.yul\":2241:2410   */\n      swap3\n      swap2\n      pop\n      pop\n      jump\t// out\n        /* \"#utility.yul\":2416:2555   */\n    tag_188:\n        /* \"#utility.yul\":2505:2511   */\n      dup3\n        /* \"#utility.yul\":2500:2503   */\n      dup2\n        /* \"#utility.yul\":2495:2498   */\n      dup4\n        /* \"#utility.yul\":2489:2512   */\n      mcopy\n        /* \"#utility.yul\":2546:2547   */\n      0x00\n        /* \"#utility.yul\":2537:2543   */\n      dup4\n        /* \"#utility.yul\":2532:2535   */\n      dup4\n        /* \"#utility.yul\":2528:2544   */\n      add\n        /* \"#utility.yul\":2521:2548   */\n      mstore\n        /* \"#utility.yul\":2416:2555   */\n      pop\n      pop\n      pop\n      jump\t// out\n        /* \"#utility.yul\":2561:2663   */\n    tag_189:\n        /* \"#utility.yul\":2602:2608   */\n      0x00\n        /* \"#utility.yul\":2653:2655   */\n      0x1f\n        /* \"#utility.yul\":2649:2656   */\n      not\n        /* \"#utility.yul\":2644:2646   */\n      0x1f\n        /* \"#utility.yul\":2637:2642   */\n      dup4\n        /* \"#utility.yul\":2633:2647   */\n      add\n        /* \"#utility.yul\":2629:2657   */\n      and\n        /* \"#utility.yul\":2619:2657   */\n      swap1\n      pop\n        /* \"#utility.yul\":2561:2663   */\n      swap2\n      swap1\n      pop\n      jump\t// out\n        /* \"#utility.yul\":2669:3046   */\n    tag_190:\n        /* \"#utility.yul\":2757:2760   */\n      0x00\n        /* \"#utility.yul\":2785:2824   */\n      tag_305\n        /* \"#utility.yul\":2818:2823   */\n      dup3\n        /* \"#utility.yul\":2785:2824   */\n      tag_186\n      jump\t// in\n    tag_305:\n        /* \"#utility.yul\":2840:2911   */\n      tag_306\n        /* \"#utility.yul\":2904:2910   */\n      dup2\n        /* \"#utility.yul\":2899:2902   */\n      dup6\n        /* \"#utility.yul\":2840:2911   */\n      tag_187\n      jump\t// in\n    tag_306:\n        /* \"#utility.yul\":2833:2911   */\n      swap4\n      pop\n        /* \"#utility.yul\":2920:2985   */\n      tag_307\n        /* \"#utility.yul\":2978:2984   */\n      dup2\n        /* \"#utility.yul\":2973:2976   */\n      dup6\n        /* \"#utility.yul\":2966:2970   */\n      0x20\n        /* \"#utility.yul\":2959:2964   */\n      dup7\n        /* \"#utility.yul\":2955:2971   */\n      add\n        /* \"#utility.yul\":2920:2985   */\n      tag_188\n      jump\t// in\n    tag_307:\n        /* \"#utility.yul\":3010:3039   */\n      tag_308\n        /* \"#utility.yul\":3032:3038   */\n      dup2\n        /* \"#utility.yul\":3010:3039   */\n      tag_189\n      jump\t// in\n    tag_308:\n        /* \"#utility.yul\":3005:3008   */\n      dup5\n        /* \"#utility.yul\":3001:3040   */\n      add\n        /* \"#utility.yul\":2994:3040   */\n      swap2\n      pop\n        /* \"#utility.yul\":2761:3046   */\n      pop\n        /* \"#utility.yul\":2669:3046   */\n      swap3\n      swap2\n      pop\n      pop\n      jump\t// out\n        /* \"#utility.yul\":3052:3129   */\n    tag_191:\n        /* \"#utility.yul\":3089:3096   */\n      0x00\n        /* \"#utility.yul\":3118:3123   */\n      dup2\n        /* \"#utility.yul\":3107:3123   */\n      swap1\n      pop\n        /* \"#utility.yul\":3052:3129   */\n      swap2\n      swap1\n      pop\n      jump\t// out\n        /* \"#utility.yul\":3135:3253   */\n    tag_192:\n        /* \"#utility.yul\":3222:3246   */\n      tag_311\n        /* \"#utility.yul\":3240:3245   */\n      dup2\n        /* \"#utility.yul\":3222:3246   */\n      tag_191\n      jump\t// in\n    tag_311:\n        /* \"#utility.yul\":3217:3220   */\n      dup3\n        /* \"#utility.yul\":3210:3247   */\n      mstore\n        /* \"#utility.yul\":3135:3253   */\n      pop\n      pop\n      jump\t// out\n        /* \"#utility.yul\":3259:3349   */\n    tag_193:\n        /* \"#utility.yul\":3293:3300   */\n      0x00\n        /* \"#utility.yul\":3336:3341   */\n      dup2\n        /* \"#utility.yul\":3329:3342   */\n      iszero\n        /* \"#utility.yul\":3322:3343   */\n      iszero\n        /* \"#utility.yul\":3311:3343   */\n      swap1\n      pop\n        /* \"#utility.yul\":3259:3349   */\n      swap2\n      swap1\n      pop\n      jump\t// out\n        /* \"#utility.yul\":3355:3464   */\n    tag_194:\n        /* \"#utility.yul\":3436:3457   */\n      tag_314\n        /* \"#utility.yul\":3451:3456   */\n      dup2\n        /* \"#utility.yul\":3436:3457   */\n      tag_193\n      jump\t// in\n    tag_314:\n        /* \"#utility.yul\":3431:3434   */\n      dup3\n        /* \"#utility.yul\":3424:3458   */\n      mstore\n        /* \"#utility.yul\":3355:3464   */\n      pop\n      pop\n      jump\t// out\n        /* \"#utility.yul\":3470:4213   */\n    tag_20:\n        /* \"#utility.yul\":3689:3693   */\n      0x00\n        /* \"#utility.yul\":3727:3730   */\n      0xa0\n        /* \"#utility.yul\":3716:3725   */\n      dup3\n        /* \"#utility.yul\":3712:3731   */\n      add\n        /* \"#utility.yul\":3704:3731   */\n      swap1\n      pop\n        /* \"#utility.yul\":3741:3812   */\n      tag_316\n        /* \"#utility.yul\":3809:3810   */\n      0x00\n        /* \"#utility.yul\":3798:3807   */\n      dup4\n        /* \"#utility.yul\":3794:3811   */\n      add\n        /* \"#utility.yul\":3785:3791   */\n      dup9\n        /* \"#utility.yul\":3741:3812   */\n      tag_185\n      jump\t// in\n    tag_316:\n        /* \"#utility.yul\":3859:3868   */\n      dup2\n        /* \"#utility.yul\":3853:3857   */\n      dup2\n        /* \"#utility.yul\":3849:3869   */\n      sub\n        /* \"#utility.yul\":3844:3846   */\n      0x20\n        /* \"#utility.yul\":3833:3842   */\n      dup4\n        /* \"#utility.yul\":3829:3847   */\n      add\n        /* \"#utility.yul\":3822:3870   */\n      mstore\n        /* \"#utility.yul\":3887:3965   */\n      tag_317\n        /* \"#utility.yul\":3960:3964   */\n      dup2\n        /* \"#utility.yul\":3951:3957   */\n      dup8\n        /* \"#utility.yul\":3887:3965   */\n      tag_190\n      jump\t// in\n    tag_317:\n        /* \"#utility.yul\":3879:3965   */\n      swap1\n      pop\n        /* \"#utility.yul\":3975:4047   */\n      tag_318\n        /* \"#utility.yul\":4043:4045   */\n      0x40\n        /* \"#utility.yul\":4032:4041   */\n      dup4\n        /* \"#utility.yul\":4028:4046   */\n      add\n        /* \"#utility.yul\":4019:4025   */\n      dup7\n        /* \"#utility.yul\":3975:4047   */\n      tag_192\n      jump\t// in\n    tag_318:\n        /* \"#utility.yul\":4057:4129   */\n      tag_319\n        /* \"#utility.yul\":4125:4127   */\n      0x60\n        /* \"#utility.yul\":4114:4123   */\n      dup4\n        /* \"#utility.yul\":4110:4128   */\n      add\n        /* \"#utility.yul\":4101:4107   */\n      dup6\n        /* \"#utility.yul\":4057:4129   */\n      tag_192\n      jump\t// in\n    tag_319:\n        /* \"#utility.yul\":4139:4206   */\n      tag_320\n        /* \"#utility.yul\":4201:4204   */\n      0x80\n        /* \"#utility.yul\":4190:4199   */\n      dup4\n        /* \"#utility.yul\":4186:4205   */\n      add\n        /* \"#utility.yul\":4177:4183   */\n      dup5\n        /* \"#utility.yul\":4139:4206   */\n      tag_194\n      jump\t// in\n    tag_320:\n        /* \"#utility.yul\":3470:4213   */\n      swap7\n      swap6\n      pop\n      pop\n      pop\n      pop\n      pop\n      pop\n      jump\t// out\n        /* \"#utility.yul\":4219:4548   */\n    tag_23:\n        /* \"#utility.yul\":4278:4284   */\n      0x00\n        /* \"#utility.yul\":4327:4329   */\n      0x20\n        /* \"#utility.yul\":4315:4324   */\n      dup3\n        /* \"#utility.yul\":4306:4313   */\n      dup5\n        /* \"#utility.yul\":4302:4325   */\n      sub\n        /* \"#utility.yul\":4298:4330   */\n      slt\n        /* \"#utility.yul\":4295:4414   */\n      iszero\n      tag_322\n      jumpi\n        /* \"#utility.yul\":4333:4412   */\n      tag_323\n      tag_176\n      jump\t// in\n    tag_323:\n        /* \"#utility.yul\":4295:4414   */\n    tag_322:\n        /* \"#utility.yul\":4453:4454   */\n      0x00\n        /* \"#utility.yul\":4478:4531   */\n      tag_324\n        /* \"#utility.yul\":4523:4530   */\n      dup5\n        /* \"#utility.yul\":4514:4520   */\n      dup3\n        /* \"#utility.yul\":4503:4512   */\n      dup6\n        /* \"#utility.yul\":4499:4521   */\n      add\n        /* \"#utility.yul\":4478:4531   */\n      tag_184\n      jump\t// in\n    tag_324:\n        /* \"#utility.yul\":4468:4531   */\n      swap2\n      pop\n        /* \"#utility.yul\":4424:4541   */\n      pop\n        /* \"#utility.yul\":4219:4548   */\n      swap3\n      swap2\n      pop\n      pop\n      jump\t// out\n        /* \"#utility.yul\":4554:4692   */\n    tag_195:\n        /* \"#utility.yul\":4645:4651   */\n      0x00\n        /* \"#utility.yul\":4679:4684   */\n      dup2\n        /* \"#utility.yul\":4673:4685   */\n      mload\n        /* \"#utility.yul\":4663:4685   */\n      swap1\n      pop\n        /* \"#utility.yul\":4554:4692   */\n      swap2\n      swap1\n      pop\n      jump\t// out\n        /* \"#utility.yul\":4698:4906   */\n    tag_196:\n        /* \"#utility.yul\":4821:4832   */\n      0x00\n        /* \"#utility.yul\":4855:4861   */\n      dup3\n        /* \"#utility.yul\":4850:4853   */\n      dup3\n        /* \"#utility.yul\":4843:4862   */\n      mstore\n        /* \"#utility.yul\":4895:4899   */\n      0x20\n        /* \"#utility.yul\":4890:4893   */\n      dup3\n        /* \"#utility.yul\":4886:4900   */\n      add\n        /* \"#utility.yul\":4871:4900   */\n      swap1\n      pop\n        /* \"#utility.yul\":4698:4906   */\n      swap3\n      swap2\n      pop\n      pop\n      jump\t// out\n        /* \"#utility.yul\":4912:5068   */\n    tag_197:\n        /* \"#utility.yul\":5003:5007   */\n      0x00\n        /* \"#utility.yul\":5026:5029   */\n      dup2\n        /* \"#utility.yul\":5018:5029   */\n      swap1\n      pop\n        /* \"#utility.yul\":5056:5060   */\n      0x20\n        /* \"#utility.yul\":5051:5054   */\n      dup3\n        /* \"#utility.yul\":5047:5061   */\n      add\n        /* \"#utility.yul\":5039:5061   */\n      swap1\n      pop\n        /* \"#utility.yul\":4912:5068   */\n      swap2\n      swap1\n      pop\n      jump\t// out\n        /* \"#utility.yul\":5074:5182   */\n    tag_198:\n        /* \"#utility.yul\":5151:5175   */\n      tag_329\n        /* \"#utility.yul\":5169:5174   */\n      dup2\n        /* \"#utility.yul\":5151:5175   */\n      tag_182\n      jump\t// in\n    tag_329:\n        /* \"#utility.yul\":5146:5149   */\n      dup3\n        /* \"#utility.yul\":5139:5176   */\n      mstore\n        /* \"#utility.yul\":5074:5182   */\n      pop\n      pop\n      jump\t// out\n        /* \"#utility.yul\":5188:5347   */\n    tag_199:\n        /* \"#utility.yul\":5262:5273   */\n      0x00\n        /* \"#utility.yul\":5296:5302   */\n      dup3\n        /* \"#utility.yul\":5291:5294   */\n      dup3\n        /* \"#utility.yul\":5284:5303   */\n      mstore\n        /* \"#utility.yul\":5336:5340   */\n      0x20\n        /* \"#utility.yul\":5331:5334   */\n      dup3\n        /* \"#utility.yul\":5327:5341   */\n      add\n        /* \"#utility.yul\":5312:5341   */\n      swap1\n      pop\n        /* \"#utility.yul\":5188:5347   */\n      swap3\n      swap2\n      pop\n      pop\n      jump\t// out\n        /* \"#utility.yul\":5353:5710   */\n    tag_200:\n        /* \"#utility.yul\":5431:5434   */\n      0x00\n        /* \"#utility.yul\":5459:5498   */\n      tag_332\n        /* \"#utility.yul\":5492:5497   */\n      dup3\n        /* \"#utility.yul\":5459:5498   */\n      tag_186\n      jump\t// in\n    tag_332:\n        /* \"#utility.yul\":5514:5575   */\n      tag_333\n        /* \"#utility.yul\":5568:5574   */\n      dup2\n        /* \"#utility.yul\":5563:5566   */\n      dup6\n        /* \"#utility.yul\":5514:5575   */\n      tag_199\n      jump\t// in\n    tag_333:\n        /* \"#utility.yul\":5507:5575   */\n      swap4\n      pop\n        /* \"#utility.yul\":5584:5649   */\n      tag_334\n        /* \"#utility.yul\":5642:5648   */\n      dup2\n        /* \"#utility.yul\":5637:5640   */\n      dup6\n        /* \"#utility.yul\":5630:5634   */\n      0x20\n        /* \"#utility.yul\":5623:5628   */\n      dup7\n        /* \"#utility.yul\":5619:5635   */\n      add\n        /* \"#utility.yul\":5584:5649   */\n      tag_188\n      jump\t// in\n    tag_334:\n        /* \"#utility.yul\":5674:5703   */\n      tag_335\n        /* \"#utility.yul\":5696:5702   */\n      dup2\n        /* \"#utility.yul\":5674:5703   */\n      tag_189\n      jump\t// in\n    tag_335:\n        /* \"#utility.yul\":5669:5672   */\n      dup5\n        /* \"#utility.yul\":5665:5704   */\n      add\n        /* \"#utility.yul\":5658:5704   */\n      swap2\n      pop\n        /* \"#utility.yul\":5435:5710   */\n      pop\n        /* \"#utility.yul\":5353:5710   */\n      swap3\n      swap2\n      pop\n      pop\n      jump\t// out\n        /* \"#utility.yul\":5716:5824   */\n    tag_201:\n        /* \"#utility.yul\":5793:5817   */\n      tag_337\n        /* \"#utility.yul\":5811:5816   */\n      dup2\n        /* \"#utility.yul\":5793:5817   */\n      tag_191\n      jump\t// in\n    tag_337:\n        /* \"#utility.yul\":5788:5791   */\n      dup3\n        /* \"#utility.yul\":5781:5818   */\n      mstore\n        /* \"#utility.yul\":5716:5824   */\n      pop\n      pop\n      jump\t// out\n        /* \"#utility.yul\":5830:5929   */\n    tag_202:\n        /* \"#utility.yul\":5901:5922   */\n      tag_339\n        /* \"#utility.yul\":5916:5921   */\n      dup2\n        /* \"#utility.yul\":5901:5922   */\n      tag_193\n      jump\t// in\n    tag_339:\n        /* \"#utility.yul\":5896:5899   */\n      dup3\n        /* \"#utility.yul\":5889:5923   */\n      mstore\n        /* \"#utility.yul\":5830:5929   */\n      pop\n      pop\n      jump\t// out\n        /* \"#utility.yul\":6001:7132   */\n    tag_203:\n        /* \"#utility.yul\":6108:6111   */\n      0x00\n        /* \"#utility.yul\":6144:6148   */\n      0xa0\n        /* \"#utility.yul\":6139:6142   */\n      dup4\n        /* \"#utility.yul\":6135:6149   */\n      add\n        /* \"#utility.yul\":6236:6240   */\n      0x00\n        /* \"#utility.yul\":6229:6234   */\n      dup4\n        /* \"#utility.yul\":6225:6241   */\n      add\n        /* \"#utility.yul\":6219:6242   */\n      mload\n        /* \"#utility.yul\":6255:6318   */\n      tag_341\n        /* \"#utility.yul\":6312:6316   */\n      0x00\n        /* \"#utility.yul\":6307:6310   */\n      dup7\n        /* \"#utility.yul\":6303:6317   */\n      add\n        /* \"#utility.yul\":6289:6301   */\n      dup3\n        /* \"#utility.yul\":6255:6318   */\n      tag_198\n      jump\t// in\n    tag_341:\n        /* \"#utility.yul\":6159:6328   */\n      pop\n        /* \"#utility.yul\":6412:6416   */\n      0x20\n        /* \"#utility.yul\":6405:6410   */\n      dup4\n        /* \"#utility.yul\":6401:6417   */\n      add\n        /* \"#utility.yul\":6395:6418   */\n      mload\n        /* \"#utility.yul\":6465:6468   */\n      dup5\n        /* \"#utility.yul\":6459:6463   */\n      dup3\n        /* \"#utility.yul\":6455:6469   */\n      sub\n        /* \"#utility.yul\":6448:6452   */\n      0x20\n        /* \"#utility.yul\":6443:6446   */\n      dup7\n        /* \"#utility.yul\":6439:6453   */\n      add\n        /* \"#utility.yul\":6432:6470   */\n      mstore\n        /* \"#utility.yul\":6491:6564   */\n      tag_342\n        /* \"#utility.yul\":6559:6563   */\n      dup3\n        /* \"#utility.yul\":6545:6557   */\n      dup3\n        /* \"#utility.yul\":6491:6564   */\n      tag_200\n      jump\t// in\n    tag_342:\n        /* \"#utility.yul\":6483:6564   */\n      swap2\n      pop\n        /* \"#utility.yul\":6338:6575   */\n      pop\n        /* \"#utility.yul\":6659:6663   */\n      0x40\n        /* \"#utility.yul\":6652:6657   */\n      dup4\n        /* \"#utility.yul\":6648:6664   */\n      add\n        /* \"#utility.yul\":6642:6665   */\n      mload\n        /* \"#utility.yul\":6678:6741   */\n      tag_343\n        /* \"#utility.yul\":6735:6739   */\n      0x40\n        /* \"#utility.yul\":6730:6733   */\n      dup7\n        /* \"#utility.yul\":6726:6740   */\n      add\n        /* \"#utility.yul\":6712:6724   */\n      dup3\n        /* \"#utility.yul\":6678:6741   */\n      tag_201\n      jump\t// in\n    tag_343:\n        /* \"#utility.yul\":6585:6751   */\n      pop\n        /* \"#utility.yul\":6840:6844   */\n      0x60\n        /* \"#utility.yul\":6833:6838   */\n      dup4\n        /* \"#utility.yul\":6829:6845   */\n      add\n        /* \"#utility.yul\":6823:6846   */\n      mload\n        /* \"#utility.yul\":6859:6922   */\n      tag_344\n        /* \"#utility.yul\":6916:6920   */\n      0x60\n        /* \"#utility.yul\":6911:6914   */\n      dup7\n        /* \"#utility.yul\":6907:6921   */\n      add\n        /* \"#utility.yul\":6893:6905   */\n      dup3\n        /* \"#utility.yul\":6859:6922   */\n      tag_201\n      jump\t// in\n    tag_344:\n        /* \"#utility.yul\":6761:6932   */\n      pop\n        /* \"#utility.yul\":7019:7023   */\n      0x80\n        /* \"#utility.yul\":7012:7017   */\n      dup4\n        /* \"#utility.yul\":7008:7024   */\n      add\n        /* \"#utility.yul\":7002:7025   */\n      mload\n        /* \"#utility.yul\":7038:7095   */\n      tag_345\n        /* \"#utility.yul\":7089:7093   */\n      0x80\n        /* \"#utility.yul\":7084:7087   */\n      dup7\n        /* \"#utility.yul\":7080:7094   */\n      add\n        /* \"#utility.yul\":7066:7078   */\n      dup3\n        /* \"#utility.yul\":7038:7095   */\n      tag_202\n      jump\t// in\n    tag_345:\n        /* \"#utility.yul\":6942:7105   */\n      pop\n        /* \"#utility.yul\":7122:7126   */\n      dup1\n        /* \"#utility.yul\":7115:7126   */\n      swap2\n      pop\n        /* \"#utility.yul\":6113:7132   */\n      pop\n        /* \"#utility.yul\":6001:7132   */\n      swap3\n      swap2\n      pop\n      pop\n      jump\t// out\n        /* \"#utility.yul\":7138:7390   */\n    tag_204:\n        /* \"#utility.yul\":7255:7265   */\n      0x00\n        /* \"#utility.yul\":7290:7384   */\n      tag_347\n        /* \"#utility.yul\":7380:7383   */\n      dup4\n        /* \"#utility.yul\":7372:7378   */\n      dup4\n        /* \"#utility.yul\":7290:7384   */\n      tag_203\n      jump\t// in\n    tag_347:\n        /* \"#utility.yul\":7276:7384   */\n      swap1\n      pop\n        /* \"#utility.yul\":7138:7390   */\n      swap3\n      swap2\n      pop\n      pop\n      jump\t// out\n        /* \"#utility.yul\":7396:7533   */\n    tag_205:\n        /* \"#utility.yul\":7490:7494   */\n      0x00\n        /* \"#utility.yul\":7522:7526   */\n      0x20\n        /* \"#utility.yul\":7517:7520   */\n      dup3\n        /* \"#utility.yul\":7513:7527   */\n      add\n        /* \"#utility.yul\":7505:7527   */\n      swap1\n      pop\n        /* \"#utility.yul\":7396:7533   */\n      swap2\n      swap1\n      pop\n      jump\t// out\n        /* \"#utility.yul\":7609:8712   */\n    tag_206:\n        /* \"#utility.yul\":7776:7779   */\n      0x00\n        /* \"#utility.yul\":7805:7883   */\n      tag_350\n        /* \"#utility.yul\":7877:7882   */\n      dup3\n        /* \"#utility.yul\":7805:7883   */\n      tag_195\n      jump\t// in\n    tag_350:\n        /* \"#utility.yul\":7899:8009   */\n      tag_351\n        /* \"#utility.yul\":8002:8008   */\n      dup2\n        /* \"#utility.yul\":7997:8000   */\n      dup6\n        /* \"#utility.yul\":7899:8009   */\n      tag_196\n      jump\t// in\n    tag_351:\n        /* \"#utility.yul\":7892:8009   */\n      swap4\n      pop\n        /* \"#utility.yul\":8035:8038   */\n      dup4\n        /* \"#utility.yul\":8080:8084   */\n      0x20\n        /* \"#utility.yul\":8072:8078   */\n      dup3\n        /* \"#utility.yul\":8068:8085   */\n      mul\n        /* \"#utility.yul\":8063:8066   */\n      dup6\n        /* \"#utility.yul\":8059:8086   */\n      add\n        /* \"#utility.yul\":8110:8190   */\n      tag_352\n        /* \"#utility.yul\":8184:8189   */\n      dup6\n        /* \"#utility.yul\":8110:8190   */\n      tag_197\n      jump\t// in\n    tag_352:\n        /* \"#utility.yul\":8213:8220   */\n      dup1\n        /* \"#utility.yul\":8244:8245   */\n      0x00\n        /* \"#utility.yul\":8229:8667   */\n    tag_353:\n        /* \"#utility.yul\":8254:8260   */\n      dup6\n        /* \"#utility.yul\":8251:8252   */\n      dup2\n        /* \"#utility.yul\":8248:8261   */\n      lt\n        /* \"#utility.yul\":8229:8667   */\n      iszero\n      tag_355\n      jumpi\n        /* \"#utility.yul\":8325:8334   */\n      dup5\n        /* \"#utility.yul\":8319:8323   */\n      dup5\n        /* \"#utility.yul\":8315:8335   */\n      sub\n        /* \"#utility.yul\":8310:8313   */\n      dup10\n        /* \"#utility.yul\":8303:8336   */\n      mstore\n        /* \"#utility.yul\":8376:8382   */\n      dup2\n        /* \"#utility.yul\":8370:8383   */\n      mload\n        /* \"#utility.yul\":8404:8516   */\n      tag_356\n        /* \"#utility.yul\":8511:8515   */\n      dup6\n        /* \"#utility.yul\":8496:8509   */\n      dup3\n        /* \"#utility.yul\":8404:8516   */\n      tag_204\n      jump\t// in\n    tag_356:\n        /* \"#utility.yul\":8396:8516   */\n      swap5\n      pop\n        /* \"#utility.yul\":8539:8623   */\n      tag_357\n        /* \"#utility.yul\":8616:8622   */\n      dup4\n        /* \"#utility.yul\":8539:8623   */\n      tag_205\n      jump\t// in\n    tag_357:\n        /* \"#utility.yul\":8529:8623   */\n      swap3\n      pop\n        /* \"#utility.yul\":8652:8656   */\n      0x20\n        /* \"#utility.yul\":8647:8650   */\n      dup11\n        /* \"#utility.yul\":8643:8657   */\n      add\n        /* \"#utility.yul\":8636:8657   */\n      swap10\n      pop\n        /* \"#utility.yul\":8289:8667   */\n      pop\n        /* \"#utility.yul\":8276:8277   */\n      0x01\n        /* \"#utility.yul\":8273:8274   */\n      dup2\n        /* \"#utility.yul\":8269:8278   */\n      add\n        /* \"#utility.yul\":8264:8278   */\n      swap1\n      pop\n        /* \"#utility.yul\":8229:8667   */\n      jump(tag_353)\n    tag_355:\n        /* \"#utility.yul\":8233:8247   */\n      pop\n        /* \"#utility.yul\":8683:8687   */\n      dup3\n        /* \"#utility.yul\":8676:8687   */\n      swap8\n      pop\n        /* \"#utility.yul\":8703:8706   */\n      dup8\n        /* \"#utility.yul\":8696:8706   */\n      swap6\n      pop\n        /* \"#utility.yul\":7781:8712   */\n      pop\n      pop\n      pop\n      pop\n      pop\n        /* \"#utility.yul\":7609:8712   */\n      swap3\n      swap2\n      pop\n      pop\n      jump\t// out\n        /* \"#utility.yul\":8718:9187   */\n    tag_26:\n        /* \"#utility.yul\":8909:8913   */\n      0x00\n        /* \"#utility.yul\":8947:8949   */\n      0x20\n        /* \"#utility.yul\":8936:8945   */\n      dup3\n        /* \"#utility.yul\":8932:8950   */\n      add\n        /* \"#utility.yul\":8924:8950   */\n      swap1\n      pop\n        /* \"#utility.yul\":8996:9005   */\n      dup2\n        /* \"#utility.yul\":8990:8994   */\n      dup2\n        /* \"#utility.yul\":8986:9006   */\n      sub\n        /* \"#utility.yul\":8982:8983   */\n      0x00\n        /* \"#utility.yul\":8971:8980   */\n      dup4\n        /* \"#utility.yul\":8967:8984   */\n      add\n        /* \"#utility.yul\":8960:9007   */\n      mstore\n        /* \"#utility.yul\":9024:9180   */\n      tag_359\n        /* \"#utility.yul\":9175:9179   */\n      dup2\n        /* \"#utility.yul\":9166:9172   */\n      dup5\n        /* \"#utility.yul\":9024:9180   */\n      tag_206\n      jump\t// in\n    tag_359:\n        /* \"#utility.yul\":9016:9180   */\n      swap1\n      pop\n        /* \"#utility.yul\":8718:9187   */\n      swap3\n      swap2\n      pop\n      pop\n      jump\t// out\n        /* \"#utility.yul\":9193:9315   */\n    tag_207:\n        /* \"#utility.yul\":9266:9290   */\n      tag_361\n        /* \"#utility.yul\":9284:9289   */\n      dup2\n        /* \"#utility.yul\":9266:9290   */\n      tag_191\n      jump\t// in\n    tag_361:\n        /* \"#utility.yul\":9259:9264   */\n      dup2\n        /* \"#utility.yul\":9256:9291   */\n      eq\n        /* \"#utility.yul\":9246:9309   */\n      tag_362\n      jumpi\n        /* \"#utility.yul\":9305:9306   */\n      0x00\n        /* \"#utility.yul\":9302:9303   */\n      dup1\n        /* \"#utility.yul\":9295:9307   */\n      revert\n        /* \"#utility.yul\":9246:9309   */\n    tag_362:\n        /* \"#utility.yul\":9193:9315   */\n      pop\n      jump\t// out\n        /* \"#utility.yul\":9321:9460   */\n    tag_208:\n        /* \"#utility.yul\":9367:9372   */\n      0x00\n        /* \"#utility.yul\":9405:9411   */\n      dup2\n        /* \"#utility.yul\":9392:9412   */\n      calldataload\n        /* \"#utility.yul\":9383:9412   */\n      swap1\n      pop\n        /* \"#utility.yul\":9421:9454   */\n      tag_364\n        /* \"#utility.yul\":9448:9453   */\n      dup2\n        /* \"#utility.yul\":9421:9454   */\n      tag_207\n      jump\t// in\n    tag_364:\n        /* \"#utility.yul\":9321:9460   */\n      swap3\n      swap2\n      pop\n      pop\n      jump\t// out\n        /* \"#utility.yul\":9466:9940   */\n    tag_29:\n        /* \"#utility.yul\":9534:9540   */\n      0x00\n        /* \"#utility.yul\":9542:9548   */\n      dup1\n        /* \"#utility.yul\":9591:9593   */\n      0x40\n        /* \"#utility.yul\":9579:9588   */\n      dup4\n        /* \"#utility.yul\":9570:9577   */\n      dup6\n        /* \"#utility.yul\":9566:9589   */\n      sub\n        /* \"#utility.yul\":9562:9594   */\n      slt\n        /* \"#utility.yul\":9559:9678   */\n      iszero\n      tag_366\n      jumpi\n        /* \"#utility.yul\":9597:9676   */\n      tag_367\n      tag_176\n      jump\t// in\n    tag_367:\n        /* \"#utility.yul\":9559:9678   */\n    tag_366:\n        /* \"#utility.yul\":9717:9718   */\n      0x00\n        /* \"#utility.yul\":9742:9795   */\n      tag_368\n        /* \"#utility.yul\":9787:9794   */\n      dup6\n        /* \"#utility.yul\":9778:9784   */\n      dup3\n        /* \"#utility.yul\":9767:9776   */\n      dup7\n        /* \"#utility.yul\":9763:9785   */\n      add\n        /* \"#utility.yul\":9742:9795   */\n      tag_184\n      jump\t// in\n    tag_368:\n        /* \"#utility.yul\":9732:9795   */\n      swap3\n      pop\n        /* \"#utility.yul\":9688:9805   */\n      pop\n        /* \"#utility.yul\":9844:9846   */\n      0x20\n        /* \"#utility.yul\":9870:9923   */\n      tag_369\n        /* \"#utility.yul\":9915:9922   */\n      dup6\n        /* \"#utility.yul\":9906:9912   */\n      dup3\n        /* \"#utility.yul\":9895:9904   */\n      dup7\n        /* \"#utility.yul\":9891:9913   */\n      add\n        /* \"#utility.yul\":9870:9923   */\n      tag_208\n      jump\t// in\n    tag_369:\n        /* \"#utility.yul\":9860:9923   */\n      swap2\n      pop\n        /* \"#utility.yul\":9815:9933   */\n      pop\n        /* \"#utility.yul\":9466:9940   */\n      swap3\n      pop\n      swap3\n      swap1\n      pop\n      jump\t// out\n        /* \"#utility.yul\":9946:10064   */\n    tag_209:\n        /* \"#utility.yul\":10033:10057   */\n      tag_371\n        /* \"#utility.yul\":10051:10056   */\n      dup2\n        /* \"#utility.yul\":10033:10057   */\n      tag_178\n      jump\t// in\n    tag_371:\n        /* \"#utility.yul\":10028:10031   */\n      dup3\n        /* \"#utility.yul\":10021:10058   */\n      mstore\n        /* \"#utility.yul\":9946:10064   */\n      pop\n      pop\n      jump\t// out\n        /* \"#utility.yul\":10070:10292   */\n    tag_32:\n        /* \"#utility.yul\":10163:10167   */\n      0x00\n        /* \"#utility.yul\":10201:10203   */\n      0x20\n        /* \"#utility.yul\":10190:10199   */\n      dup3\n        /* \"#utility.yul\":10186:10204   */\n      add\n        /* \"#utility.yul\":10178:10204   */\n      swap1\n      pop\n        /* \"#utility.yul\":10214:10285   */\n      tag_373\n        /* \"#utility.yul\":10282:10283   */\n      0x00\n        /* \"#utility.yul\":10271:10280   */\n      dup4\n        /* \"#utility.yul\":10267:10284   */\n      add\n        /* \"#utility.yul\":10258:10264   */\n      dup5\n        /* \"#utility.yul\":10214:10285   */\n      tag_209\n      jump\t// in\n    tag_373:\n        /* \"#utility.yul\":10070:10292   */\n      swap3\n      swap2\n      pop\n      pop\n      jump\t// out\n        /* \"#utility.yul\":10298:10917   */\n    tag_35:\n        /* \"#utility.yul\":10375:10381   */\n      0x00\n        /* \"#utility.yul\":10383:10389   */\n      dup1\n        /* \"#utility.yul\":10391:10397   */\n      0x00\n        /* \"#utility.yul\":10440:10442   */\n      0x60\n        /* \"#utility.yul\":10428:10437   */\n      dup5\n        /* \"#utility.yul\":10419:10426   */\n      dup7\n        /* \"#utility.yul\":10415:10438   */\n      sub\n        /* \"#utility.yul\":10411:10443   */\n      slt\n        /* \"#utility.yul\":10408:10527   */\n      iszero\n      tag_375\n      jumpi\n        /* \"#utility.yul\":10446:10525   */\n      tag_376\n      tag_176\n      jump\t// in\n    tag_376:\n        /* \"#utility.yul\":10408:10527   */\n    tag_375:\n        /* \"#utility.yul\":10566:10567   */\n      0x00\n        /* \"#utility.yul\":10591:10644   */\n      tag_377\n        /* \"#utility.yul\":10636:10643   */\n      dup7\n        /* \"#utility.yul\":10627:10633   */\n      dup3\n        /* \"#utility.yul\":10616:10625   */\n      dup8\n        /* \"#utility.yul\":10612:10634   */\n      add\n        /* \"#utility.yul\":10591:10644   */\n      tag_180\n      jump\t// in\n    tag_377:\n        /* \"#utility.yul\":10581:10644   */\n      swap4\n      pop\n        /* \"#utility.yul\":10537:10654   */\n      pop\n        /* \"#utility.yul\":10693:10695   */\n      0x20\n        /* \"#utility.yul\":10719:10772   */\n      tag_378\n        /* \"#utility.yul\":10764:10771   */\n      dup7\n        /* \"#utility.yul\":10755:10761   */\n      dup3\n        /* \"#utility.yul\":10744:10753   */\n      dup8\n        /* \"#utility.yul\":10740:10762   */\n      add\n        /* \"#utility.yul\":10719:10772   */\n      tag_184\n      jump\t// in\n    tag_378:\n        /* \"#utility.yul\":10709:10772   */\n      swap3\n      pop\n        /* \"#utility.yul\":10664:10782   */\n      pop\n        /* \"#utility.yul\":10821:10823   */\n      0x40\n        /* \"#utility.yul\":10847:10900   */\n      tag_379\n        /* \"#utility.yul\":10892:10899   */\n      dup7\n        /* \"#utility.yul\":10883:10889   */\n      dup3\n        /* \"#utility.yul\":10872:10881   */\n      dup8\n        /* \"#utility.yul\":10868:10890   */\n      add\n        /* \"#utility.yul\":10847:10900   */\n      tag_184\n      jump\t// in\n    tag_379:\n        /* \"#utility.yul\":10837:10900   */\n      swap2\n      pop\n        /* \"#utility.yul\":10792:10910   */\n      pop\n        /* \"#utility.yul\":10298:10917   */\n      swap3\n      pop\n      swap3\n      pop\n      swap3\n      jump\t// out\n        /* \"#utility.yul\":10923:11145   */\n    tag_40:\n        /* \"#utility.yul\":11016:11020   */\n      0x00\n        /* \"#utility.yul\":11054:11056   */\n      0x20\n        /* \"#utility.yul\":11043:11052   */\n      dup3\n        /* \"#utility.yul\":11039:11057   */\n      add\n        /* \"#utility.yul\":11031:11057   */\n      swap1\n      pop\n        /* \"#utility.yul\":11067:11138   */\n      tag_381\n        /* \"#utility.yul\":11135:11136   */\n      0x00\n        /* \"#utility.yul\":11124:11133   */\n      dup4\n        /* \"#utility.yul\":11120:11137   */\n      add\n        /* \"#utility.yul\":11111:11117   */\n      dup5\n        /* \"#utility.yul\":11067:11138   */\n      tag_185\n      jump\t// in\n    tag_381:\n        /* \"#utility.yul\":10923:11145   */\n      swap3\n      swap2\n      pop\n      pop\n      jump\t// out\n        /* \"#utility.yul\":11151:11268   */\n    tag_210:\n        /* \"#utility.yul\":11260:11261   */\n      0x00\n        /* \"#utility.yul\":11257:11258   */\n      dup1\n        /* \"#utility.yul\":11250:11262   */\n      revert\n        /* \"#utility.yul\":11274:11391   */\n    tag_211:\n        /* \"#utility.yul\":11383:11384   */\n      0x00\n        /* \"#utility.yul\":11380:11381   */\n      dup1\n        /* \"#utility.yul\":11373:11385   */\n      revert\n        /* \"#utility.yul\":11397:11577   */\n    tag_69:\n        /* \"#utility.yul\":11445:11522   */\n      0x4e487b7100000000000000000000000000000000000000000000000000000000\n        /* \"#utility.yul\":11442:11443   */\n      0x00\n        /* \"#utility.yul\":11435:11523   */\n      mstore\n        /* \"#utility.yul\":11542:11546   */\n      0x41\n        /* \"#utility.yul\":11539:11540   */\n      0x04\n        /* \"#utility.yul\":11532:11547   */\n      mstore\n        /* \"#utility.yul\":11566:11570   */\n      0x24\n        /* \"#utility.yul\":11563:11564   */\n      0x00\n        /* \"#utility.yul\":11556:11571   */\n      revert\n        /* \"#utility.yul\":11583:11864   */\n    tag_212:\n        /* \"#utility.yul\":11666:11693   */\n      tag_386\n        /* \"#utility.yul\":11688:11692   */\n      dup3\n        /* \"#utility.yul\":11666:11693   */\n      tag_189\n      jump\t// in\n    tag_386:\n        /* \"#utility.yul\":11658:11664   */\n      dup2\n        /* \"#utility.yul\":11654:11694   */\n      add\n        /* \"#utility.yul\":11796:11802   */\n      dup2\n        /* \"#utility.yul\":11784:11794   */\n      dup2\n        /* \"#utility.yul\":11781:11803   */\n      lt\n        /* \"#utility.yul\":11760:11778   */\n      0xffffffffffffffff\n        /* \"#utility.yul\":11748:11758   */\n      dup3\n        /* \"#utility.yul\":11745:11779   */\n      gt\n        /* \"#utility.yul\":11742:11804   */\n      or\n        /* \"#utility.yul\":11739:11827   */\n      iszero\n      tag_387\n      jumpi\n        /* \"#utility.yul\":11807:11825   */\n      tag_388\n      tag_69\n      jump\t// in\n    tag_388:\n        /* \"#utility.yul\":11739:11827   */\n    tag_387:\n        /* \"#utility.yul\":11847:11857   */\n      dup1\n        /* \"#utility.yul\":11843:11845   */\n      0x40\n        /* \"#utility.yul\":11836:11858   */\n      mstore\n        /* \"#utility.yul\":11626:11864   */\n      pop\n        /* \"#utility.yul\":11583:11864   */\n      pop\n      pop\n      jump\t// out\n        /* \"#utility.yul\":11870:11999   */\n    tag_213:\n        /* \"#utility.yul\":11904:11910   */\n      0x00\n        /* \"#utility.yul\":11931:11951   */\n      tag_390\n      tag_175\n      jump\t// in\n    tag_390:\n        /* \"#utility.yul\":11921:11951   */\n      swap1\n      pop\n        /* \"#utility.yul\":11960:11993   */\n      tag_391\n        /* \"#utility.yul\":11988:11992   */\n      dup3\n        /* \"#utility.yul\":11980:11986   */\n      dup3\n        /* \"#utility.yul\":11960:11993   */\n      tag_212\n      jump\t// in\n    tag_391:\n        /* \"#utility.yul\":11870:11999   */\n      swap2\n      swap1\n      pop\n      jump\t// out\n        /* \"#utility.yul\":12005:12313   */\n    tag_214:\n        /* \"#utility.yul\":12067:12071   */\n      0x00\n        /* \"#utility.yul\":12157:12175   */\n      0xffffffffffffffff\n        /* \"#utility.yul\":12149:12155   */\n      dup3\n        /* \"#utility.yul\":12146:12176   */\n      gt\n        /* \"#utility.yul\":12143:12199   */\n      iszero\n      tag_393\n      jumpi\n        /* \"#utility.yul\":12179:12197   */\n      tag_394\n      tag_69\n      jump\t// in\n    tag_394:\n        /* \"#utility.yul\":12143:12199   */\n    tag_393:\n        /* \"#utility.yul\":12217:12246   */\n      tag_395\n        /* \"#utility.yul\":12239:12245   */\n      dup3\n        /* \"#utility.yul\":12217:12246   */\n      tag_189\n      jump\t// in\n    tag_395:\n        /* \"#utility.yul\":12209:12246   */\n      swap1\n      pop\n        /* \"#utility.yul\":12301:12305   */\n      0x20\n        /* \"#utility.yul\":12295:12299   */\n      dup2\n        /* \"#utility.yul\":12291:12306   */\n      add\n        /* \"#utility.yul\":12283:12306   */\n      swap1\n      pop\n        /* \"#utility.yul\":12005:12313   */\n      swap2\n      swap1\n      pop\n      jump\t// out\n        /* \"#utility.yul\":12319:12467   */\n    tag_215:\n        /* \"#utility.yul\":12417:12423   */\n      dup3\n        /* \"#utility.yul\":12412:12415   */\n      dup2\n        /* \"#utility.yul\":12407:12410   */\n      dup4\n        /* \"#utility.yul\":12394:12424   */\n      calldatacopy\n        /* \"#utility.yul\":12458:12459   */\n      0x00\n        /* \"#utility.yul\":12449:12455   */\n      dup4\n        /* \"#utility.yul\":12444:12447   */\n      dup4\n        /* \"#utility.yul\":12440:12456   */\n      add\n        /* \"#utility.yul\":12433:12460   */\n      mstore\n        /* \"#utility.yul\":12319:12467   */\n      pop\n      pop\n      pop\n      jump\t// out\n        /* \"#utility.yul\":12473:12898   */\n    tag_216:\n        /* \"#utility.yul\":12551:12556   */\n      0x00\n        /* \"#utility.yul\":12576:12642   */\n      tag_398\n        /* \"#utility.yul\":12592:12641   */\n      tag_399\n        /* \"#utility.yul\":12634:12640   */\n      dup5\n        /* \"#utility.yul\":12592:12641   */\n      tag_214\n      jump\t// in\n    tag_399:\n        /* \"#utility.yul\":12576:12642   */\n      tag_213\n      jump\t// in\n    tag_398:\n        /* \"#utility.yul\":12567:12642   */\n      swap1\n      pop\n        /* \"#utility.yul\":12665:12671   */\n      dup3\n        /* \"#utility.yul\":12658:12663   */\n      dup2\n        /* \"#utility.yul\":12651:12672   */\n      mstore\n        /* \"#utility.yul\":12703:12707   */\n      0x20\n        /* \"#utility.yul\":12696:12701   */\n      dup2\n        /* \"#utility.yul\":12692:12708   */\n      add\n        /* \"#utility.yul\":12741:12744   */\n      dup5\n        /* \"#utility.yul\":12732:12738   */\n      dup5\n        /* \"#utility.yul\":12727:12730   */\n      dup5\n        /* \"#utility.yul\":12723:12739   */\n      add\n        /* \"#utility.yul\":12720:12745   */\n      gt\n        /* \"#utility.yul\":12717:12829   */\n      iszero\n      tag_400\n      jumpi\n        /* \"#utility.yul\":12748:12827   */\n      tag_401\n      tag_211\n      jump\t// in\n    tag_401:\n        /* \"#utility.yul\":12717:12829   */\n    tag_400:\n        /* \"#utility.yul\":12838:12892   */\n      tag_402\n        /* \"#utility.yul\":12885:12891   */\n      dup5\n        /* \"#utility.yul\":12880:12883   */\n      dup3\n        /* \"#utility.yul\":12875:12878   */\n      dup6\n        /* \"#utility.yul\":12838:12892   */\n      tag_215\n      jump\t// in\n    tag_402:\n        /* \"#utility.yul\":12557:12898   */\n      pop\n        /* \"#utility.yul\":12473:12898   */\n      swap4\n      swap3\n      pop\n      pop\n      pop\n      jump\t// out\n        /* \"#utility.yul\":12918:13258   */\n    tag_217:\n        /* \"#utility.yul\":12974:12979   */\n      0x00\n        /* \"#utility.yul\":13023:13026   */\n      dup3\n        /* \"#utility.yul\":13016:13020   */\n      0x1f\n        /* \"#utility.yul\":13008:13014   */\n      dup4\n        /* \"#utility.yul\":13004:13021   */\n      add\n        /* \"#utility.yul\":13000:13027   */\n      slt\n        /* \"#utility.yul\":12990:13112   */\n      tag_404\n      jumpi\n        /* \"#utility.yul\":13031:13110   */\n      tag_405\n      tag_210\n      jump\t// in\n    tag_405:\n        /* \"#utility.yul\":12990:13112   */\n    tag_404:\n        /* \"#utility.yul\":13148:13154   */\n      dup2\n        /* \"#utility.yul\":13135:13155   */\n      calldataload\n        /* \"#utility.yul\":13173:13252   */\n      tag_406\n        /* \"#utility.yul\":13248:13251   */\n      dup5\n        /* \"#utility.yul\":13240:13246   */\n      dup3\n        /* \"#utility.yul\":13233:13237   */\n      0x20\n        /* \"#utility.yul\":13225:13231   */\n      dup7\n        /* \"#utility.yul\":13221:13238   */\n      add\n        /* \"#utility.yul\":13173:13252   */\n      tag_216\n      jump\t// in\n    tag_406:\n        /* \"#utility.yul\":13164:13252   */\n      swap2\n      pop\n        /* \"#utility.yul\":12980:13258   */\n      pop\n        /* \"#utility.yul\":12918:13258   */\n      swap3\n      swap2\n      pop\n      pop\n      jump\t// out\n        /* \"#utility.yul\":13264:13380   */\n    tag_218:\n        /* \"#utility.yul\":13334:13355   */\n      tag_408\n        /* \"#utility.yul\":13349:13354   */\n      dup2\n        /* \"#utility.yul\":13334:13355   */\n      tag_193\n      jump\t// in\n    tag_408:\n        /* \"#utility.yul\":13327:13332   */\n      dup2\n        /* \"#utility.yul\":13324:13356   */\n      eq\n        /* \"#utility.yul\":13314:13374   */\n      tag_409\n      jumpi\n        /* \"#utility.yul\":13370:13371   */\n      0x00\n        /* \"#utility.yul\":13367:13368   */\n      dup1\n        /* \"#utility.yul\":13360:13372   */\n      revert\n        /* \"#utility.yul\":13314:13374   */\n    tag_409:\n        /* \"#utility.yul\":13264:13380   */\n      pop\n      jump\t// out\n        /* \"#utility.yul\":13386:13519   */\n    tag_219:\n        /* \"#utility.yul\":13429:13434   */\n      0x00\n        /* \"#utility.yul\":13467:13473   */\n      dup2\n        /* \"#utility.yul\":13454:13474   */\n      calldataload\n        /* \"#utility.yul\":13445:13474   */\n      swap1\n      pop\n        /* \"#utility.yul\":13483:13513   */\n      tag_411\n        /* \"#utility.yul\":13507:13512   */\n      dup2\n        /* \"#utility.yul\":13483:13513   */\n      tag_218\n      jump\t// in\n    tag_411:\n        /* \"#utility.yul\":13386:13519   */\n      swap3\n      swap2\n      pop\n      pop\n      jump\t// out\n        /* \"#utility.yul\":13525:14610   */\n    tag_43:\n        /* \"#utility.yul\":13627:13633   */\n      0x00\n        /* \"#utility.yul\":13635:13641   */\n      dup1\n        /* \"#utility.yul\":13643:13649   */\n      0x00\n        /* \"#utility.yul\":13651:13657   */\n      dup1\n        /* \"#utility.yul\":13659:13665   */\n      0x00\n        /* \"#utility.yul\":13708:13711   */\n      0xa0\n        /* \"#utility.yul\":13696:13705   */\n      dup7\n        /* \"#utility.yul\":13687:13694   */\n      dup9\n        /* \"#utility.yul\":13683:13706   */\n      sub\n        /* \"#utility.yul\":13679:13712   */\n      slt\n        /* \"#utility.yul\":13676:13796   */\n      iszero\n      tag_413\n      jumpi\n        /* \"#utility.yul\":13715:13794   */\n      tag_414\n      tag_176\n      jump\t// in\n    tag_414:\n        /* \"#utility.yul\":13676:13796   */\n    tag_413:\n        /* \"#utility.yul\":13835:13836   */\n      0x00\n        /* \"#utility.yul\":13860:13913   */\n      tag_415\n        /* \"#utility.yul\":13905:13912   */\n      dup9\n        /* \"#utility.yul\":13896:13902   */\n      dup3\n        /* \"#utility.yul\":13885:13894   */\n      dup10\n        /* \"#utility.yul\":13881:13903   */\n      add\n        /* \"#utility.yul\":13860:13913   */\n      tag_184\n      jump\t// in\n    tag_415:\n        /* \"#utility.yul\":13850:13913   */\n      swap6\n      pop\n        /* \"#utility.yul\":13806:13923   */\n      pop\n        /* \"#utility.yul\":13990:13992   */\n      0x20\n        /* \"#utility.yul\":13979:13988   */\n      dup7\n        /* \"#utility.yul\":13975:13993   */\n      add\n        /* \"#utility.yul\":13962:13994   */\n      calldataload\n        /* \"#utility.yul\":14021:14039   */\n      0xffffffffffffffff\n        /* \"#utility.yul\":14013:14019   */\n      dup2\n        /* \"#utility.yul\":14010:14040   */\n      gt\n        /* \"#utility.yul\":14007:14124   */\n      iszero\n      tag_416\n      jumpi\n        /* \"#utility.yul\":14043:14122   */\n      tag_417\n      tag_177\n      jump\t// in\n    tag_417:\n        /* \"#utility.yul\":14007:14124   */\n    tag_416:\n        /* \"#utility.yul\":14148:14211   */\n      tag_418\n        /* \"#utility.yul\":14203:14210   */\n      dup9\n        /* \"#utility.yul\":14194:14200   */\n      dup3\n        /* \"#utility.yul\":14183:14192   */\n      dup10\n        /* \"#utility.yul\":14179:14201   */\n      add\n        /* \"#utility.yul\":14148:14211   */\n      tag_217\n      jump\t// in\n    tag_418:\n        /* \"#utility.yul\":14138:14211   */\n      swap5\n      pop\n        /* \"#utility.yul\":13933:14221   */\n      pop\n        /* \"#utility.yul\":14260:14262   */\n      0x40\n        /* \"#utility.yul\":14286:14339   */\n      tag_419\n        /* \"#utility.yul\":14331:14338   */\n      dup9\n        /* \"#utility.yul\":14322:14328   */\n      dup3\n        /* \"#utility.yul\":14311:14320   */\n      dup10\n        /* \"#utility.yul\":14307:14329   */\n      add\n        /* \"#utility.yul\":14286:14339   */\n      tag_208\n      jump\t// in\n    tag_419:\n        /* \"#utility.yul\":14276:14339   */\n      swap4\n      pop\n        /* \"#utility.yul\":14231:14349   */\n      pop\n        /* \"#utility.yul\":14388:14390   */\n      0x60\n        /* \"#utility.yul\":14414:14467   */\n      tag_420\n        /* \"#utility.yul\":14459:14466   */\n      dup9\n        /* \"#utility.yul\":14450:14456   */\n      dup3\n        /* \"#utility.yul\":14439:14448   */\n      dup10\n        /* \"#utility.yul\":14435:14457   */\n      add\n        /* \"#utility.yul\":14414:14467   */\n      tag_208\n      jump\t// in\n    tag_420:\n        /* \"#utility.yul\":14404:14467   */\n      swap3\n      pop\n        /* \"#utility.yul\":14359:14477   */\n      pop\n        /* \"#utility.yul\":14516:14519   */\n      0x80\n        /* \"#utility.yul\":14543:14593   */\n      tag_421\n        /* \"#utility.yul\":14585:14592   */\n      dup9\n        /* \"#utility.yul\":14576:14582   */\n      dup3\n        /* \"#utility.yul\":14565:14574   */\n      dup10\n        /* \"#utility.yul\":14561:14583   */\n      add\n        /* \"#utility.yul\":14543:14593   */\n      tag_219\n      jump\t// in\n    tag_421:\n        /* \"#utility.yul\":14533:14593   */\n      swap2\n      pop\n        /* \"#utility.yul\":14487:14603   */\n      pop\n        /* \"#utility.yul\":13525:14610   */\n      swap3\n      swap6\n      pop\n      swap3\n      swap6\n      swap1\n      swap4\n      pop\n      jump\t// out\n        /* \"#utility.yul\":14616:14792   */\n    tag_220:\n        /* \"#utility.yul\":14756:14784   */\n      0x4465706f73697420616c72656164792077697468647261776e2e000000000000\n        /* \"#utility.yul\":14752:14753   */\n      0x00\n        /* \"#utility.yul\":14744:14750   */\n      dup3\n        /* \"#utility.yul\":14740:14754   */\n      add\n        /* \"#utility.yul\":14733:14785   */\n      mstore\n        /* \"#utility.yul\":14616:14792   */\n      pop\n      jump\t// out\n        /* \"#utility.yul\":14798:15164   */\n    tag_221:\n        /* \"#utility.yul\":14940:14943   */\n      0x00\n        /* \"#utility.yul\":14961:15028   */\n      tag_424\n        /* \"#utility.yul\":15025:15027   */\n      0x1a\n        /* \"#utility.yul\":15020:15023   */\n      dup4\n        /* \"#utility.yul\":14961:15028   */\n      tag_187\n      jump\t// in\n    tag_424:\n        /* \"#utility.yul\":14954:15028   */\n      swap2\n      pop\n        /* \"#utility.yul\":15037:15130   */\n      tag_425\n        /* \"#utility.yul\":15126:15129   */\n      dup3\n        /* \"#utility.yul\":15037:15130   */\n      tag_220\n      jump\t// in\n    tag_425:\n        /* \"#utility.yul\":15155:15157   */\n      0x20\n        /* \"#utility.yul\":15150:15153   */\n      dup3\n        /* \"#utility.yul\":15146:15158   */\n      add\n        /* \"#utility.yul\":15139:15158   */\n      swap1\n      pop\n        /* \"#utility.yul\":14798:15164   */\n      swap2\n      swap1\n      pop\n      jump\t// out\n        /* \"#utility.yul\":15170:15589   */\n    tag_48:\n        /* \"#utility.yul\":15336:15340   */\n      0x00\n        /* \"#utility.yul\":15374:15376   */\n      0x20\n        /* \"#utility.yul\":15363:15372   */\n      dup3\n        /* \"#utility.yul\":15359:15377   */\n      add\n        /* \"#utility.yul\":15351:15377   */\n      swap1\n      pop\n        /* \"#utility.yul\":15423:15432   */\n      dup2\n        /* \"#utility.yul\":15417:15421   */\n      dup2\n        /* \"#utility.yul\":15413:15433   */\n      sub\n        /* \"#utility.yul\":15409:15410   */\n      0x00\n        /* \"#utility.yul\":15398:15407   */\n      dup4\n        /* \"#utility.yul\":15394:15411   */\n      add\n        /* \"#utility.yul\":15387:15434   */\n      mstore\n        /* \"#utility.yul\":15451:15582   */\n      tag_427\n        /* \"#utility.yul\":15577:15581   */\n      dup2\n        /* \"#utility.yul\":15451:15582   */\n      tag_221\n      jump\t// in\n    tag_427:\n        /* \"#utility.yul\":15443:15582   */\n      swap1\n      pop\n        /* \"#utility.yul\":15170:15589   */\n      swap2\n      swap1\n      pop\n      jump\t// out\n        /* \"#utility.yul\":15595:15826   */\n    tag_222:\n        /* \"#utility.yul\":15735:15769   */\n      0x4f6e6c7920746865206465706f7369746f722063616e20776974686472617720\n        /* \"#utility.yul\":15731:15732   */\n      0x00\n        /* \"#utility.yul\":15723:15729   */\n      dup3\n        /* \"#utility.yul\":15719:15733   */\n      add\n        /* \"#utility.yul\":15712:15770   */\n      mstore\n        /* \"#utility.yul\":15804:15818   */\n      0x746865206465706f7369742e0000000000000000000000000000000000000000\n        /* \"#utility.yul\":15799:15801   */\n      0x20\n        /* \"#utility.yul\":15791:15797   */\n      dup3\n        /* \"#utility.yul\":15787:15802   */\n      add\n        /* \"#utility.yul\":15780:15819   */\n      mstore\n        /* \"#utility.yul\":15595:15826   */\n      pop\n      jump\t// out\n        /* \"#utility.yul\":15832:16198   */\n    tag_223:\n        /* \"#utility.yul\":15974:15977   */\n      0x00\n        /* \"#utility.yul\":15995:16062   */\n      tag_430\n        /* \"#utility.yul\":16059:16061   */\n      0x2c\n        /* \"#utility.yul\":16054:16057   */\n      dup4\n        /* \"#utility.yul\":15995:16062   */\n      tag_187\n      jump\t// in\n    tag_430:\n        /* \"#utility.yul\":15988:16062   */\n      swap2\n      pop\n        /* \"#utility.yul\":16071:16164   */\n      tag_431\n        /* \"#utility.yul\":16160:16163   */\n      dup3\n        /* \"#utility.yul\":16071:16164   */\n      tag_222\n      jump\t// in\n    tag_431:\n        /* \"#utility.yul\":16189:16191   */\n      0x40\n        /* \"#utility.yul\":16184:16187   */\n      dup3\n        /* \"#utility.yul\":16180:16192   */\n      add\n        /* \"#utility.yul\":16173:16192   */\n      swap1\n      pop\n        /* \"#utility.yul\":15832:16198   */\n      swap2\n      swap1\n      pop\n      jump\t// out\n        /* \"#utility.yul\":16204:16623   */\n    tag_51:\n        /* \"#utility.yul\":16370:16374   */\n      0x00\n        /* \"#utility.yul\":16408:16410   */\n      0x20\n        /* \"#utility.yul\":16397:16406   */\n      dup3\n        /* \"#utility.yul\":16393:16411   */\n      add\n        /* \"#utility.yul\":16385:16411   */\n      swap1\n      pop\n        /* \"#utility.yul\":16457:16466   */\n      dup2\n        /* \"#utility.yul\":16451:16455   */\n      dup2\n        /* \"#utility.yul\":16447:16467   */\n      sub\n        /* \"#utility.yul\":16443:16444   */\n      0x00\n        /* \"#utility.yul\":16432:16441   */\n      dup4\n        /* \"#utility.yul\":16428:16445   */\n      add\n        /* \"#utility.yul\":16421:16468   */\n      mstore\n        /* \"#utility.yul\":16485:16616   */\n      tag_433\n        /* \"#utility.yul\":16611:16615   */\n      dup2\n        /* \"#utility.yul\":16485:16616   */\n      tag_223\n      jump\t// in\n    tag_433:\n        /* \"#utility.yul\":16477:16616   */\n      swap1\n      pop\n        /* \"#utility.yul\":16204:16623   */\n      swap2\n      swap1\n      pop\n      jump\t// out\n        /* \"#utility.yul\":16629:16850   */\n    tag_224:\n        /* \"#utility.yul\":16769:16803   */\n      0x436f6e646974696f6e7320666f72207769746864726177616c206e6f74206d65\n        /* \"#utility.yul\":16765:16766   */\n      0x00\n        /* \"#utility.yul\":16757:16763   */\n      dup3\n        /* \"#utility.yul\":16753:16767   */\n      add\n        /* \"#utility.yul\":16746:16804   */\n      mstore\n        /* \"#utility.yul\":16838:16842   */\n      0x742e000000000000000000000000000000000000000000000000000000000000\n        /* \"#utility.yul\":16833:16835   */\n      0x20\n        /* \"#utility.yul\":16825:16831   */\n      dup3\n        /* \"#utility.yul\":16821:16836   */\n      add\n        /* \"#utility.yul\":16814:16843   */\n      mstore\n        /* \"#utility.yul\":16629:16850   */\n      pop\n      jump\t// out\n        /* \"#utility.yul\":16856:17222   */\n    tag_225:\n        /* \"#utility.yul\":16998:17001   */\n      0x00\n        /* \"#utility.yul\":17019:17086   */\n      tag_436\n        /* \"#utility.yul\":17083:17085   */\n      0x22\n        /* \"#utility.yul\":17078:17081   */\n      dup4\n        /* \"#utility.yul\":17019:17086   */\n      tag_187\n      jump\t// in\n    tag_436:\n        /* \"#utility.yul\":17012:17086   */\n      swap2\n      pop\n        /* \"#utility.yul\":17095:17188   */\n      tag_437\n        /* \"#utility.yul\":17184:17187   */\n      dup3\n        /* \"#utility.yul\":17095:17188   */\n      tag_224\n      jump\t// in\n    tag_437:\n        /* \"#utility.yul\":17213:17215   */\n      0x40\n        /* \"#utility.yul\":17208:17211   */\n      dup3\n        /* \"#utility.yul\":17204:17216   */\n      add\n        /* \"#utility.yul\":17197:17216   */\n      swap1\n      pop\n        /* \"#utility.yul\":16856:17222   */\n      swap2\n      swap1\n      pop\n      jump\t// out\n        /* \"#utility.yul\":17228:17647   */\n    tag_54:\n        /* \"#utility.yul\":17394:17398   */\n      0x00\n        /* \"#utility.yul\":17432:17434   */\n      0x20\n        /* \"#utility.yul\":17421:17430   */\n      dup3\n        /* \"#utility.yul\":17417:17435   */\n      add\n        /* \"#utility.yul\":17409:17435   */\n      swap1\n      pop\n        /* \"#utility.yul\":17481:17490   */\n      dup2\n        /* \"#utility.yul\":17475:17479   */\n      dup2\n        /* \"#utility.yul\":17471:17491   */\n      sub\n        /* \"#utility.yul\":17467:17468   */\n      0x00\n        /* \"#utility.yul\":17456:17465   */\n      dup4\n        /* \"#utility.yul\":17452:17469   */\n      add\n        /* \"#utility.yul\":17445:17492   */\n      mstore\n        /* \"#utility.yul\":17509:17640   */\n      tag_439\n        /* \"#utility.yul\":17635:17639   */\n      dup2\n        /* \"#utility.yul\":17509:17640   */\n      tag_225\n      jump\t// in\n    tag_439:\n        /* \"#utility.yul\":17501:17640   */\n      swap1\n      pop\n        /* \"#utility.yul\":17228:17647   */\n      swap2\n      swap1\n      pop\n      jump\t// out\n        /* \"#utility.yul\":17653:17833   */\n    tag_226:\n        /* \"#utility.yul\":17701:17778   */\n      0x4e487b7100000000000000000000000000000000000000000000000000000000\n        /* \"#utility.yul\":17698:17699   */\n      0x00\n        /* \"#utility.yul\":17691:17779   */\n      mstore\n        /* \"#utility.yul\":17798:17802   */\n      0x22\n        /* \"#utility.yul\":17795:17796   */\n      0x04\n        /* \"#utility.yul\":17788:17803   */\n      mstore\n        /* \"#utility.yul\":17822:17826   */\n      0x24\n        /* \"#utility.yul\":17819:17820   */\n      0x00\n        /* \"#utility.yul\":17812:17827   */\n      revert\n        /* \"#utility.yul\":17839:18159   */\n    tag_59:\n        /* \"#utility.yul\":17883:17889   */\n      0x00\n        /* \"#utility.yul\":17920:17921   */\n      0x02\n        /* \"#utility.yul\":17914:17918   */\n      dup3\n        /* \"#utility.yul\":17910:17922   */\n      div\n        /* \"#utility.yul\":17900:17922   */\n      swap1\n      pop\n        /* \"#utility.yul\":17967:17968   */\n      0x01\n        /* \"#utility.yul\":17961:17965   */\n      dup3\n        /* \"#utility.yul\":17957:17969   */\n      and\n        /* \"#utility.yul\":17988:18006   */\n      dup1\n        /* \"#utility.yul\":17978:18059   */\n      tag_442\n      jumpi\n        /* \"#utility.yul\":18044:18048   */\n      0x7f\n        /* \"#utility.yul\":18036:18042   */\n      dup3\n        /* \"#utility.yul\":18032:18049   */\n      and\n        /* \"#utility.yul\":18022:18049   */\n      swap2\n      pop\n        /* \"#utility.yul\":17978:18059   */\n    tag_442:\n        /* \"#utility.yul\":18106:18108   */\n      0x20\n        /* \"#utility.yul\":18098:18104   */\n      dup3\n        /* \"#utility.yul\":18095:18109   */\n      lt\n        /* \"#utility.yul\":18075:18093   */\n      dup2\n        /* \"#utility.yul\":18072:18110   */\n      sub\n        /* \"#utility.yul\":18069:18153   */\n      tag_443\n      jumpi\n        /* \"#utility.yul\":18125:18143   */\n      tag_444\n      tag_226\n      jump\t// in\n    tag_444:\n        /* \"#utility.yul\":18069:18153   */\n    tag_443:\n        /* \"#utility.yul\":17890:18159   */\n      pop\n        /* \"#utility.yul\":17839:18159   */\n      swap2\n      swap1\n      pop\n      jump\t// out\n        /* \"#utility.yul\":18165:18345   */\n    tag_79:\n        /* \"#utility.yul\":18213:18290   */\n      0x4e487b7100000000000000000000000000000000000000000000000000000000\n        /* \"#utility.yul\":18210:18211   */\n      0x00\n        /* \"#utility.yul\":18203:18291   */\n      mstore\n        /* \"#utility.yul\":18310:18314   */\n      0x32\n        /* \"#utility.yul\":18307:18308   */\n      0x04\n        /* \"#utility.yul\":18300:18315   */\n      mstore\n        /* \"#utility.yul\":18334:18338   */\n      0x24\n        /* \"#utility.yul\":18331:18332   */\n      0x00\n        /* \"#utility.yul\":18324:18339   */\n      revert\n        /* \"#utility.yul\":18351:18577   */\n    tag_227:\n        /* \"#utility.yul\":18491:18525   */\n      0x4f6e6c792076616c69646174696f6e20636f6e74726163742063616e20636f6e\n        /* \"#utility.yul\":18487:18488   */\n      0x00\n        /* \"#utility.yul\":18479:18485   */\n      dup3\n        /* \"#utility.yul\":18475:18489   */\n      add\n        /* \"#utility.yul\":18468:18526   */\n      mstore\n        /* \"#utility.yul\":18560:18569   */\n      0x6669736361746500000000000000000000000000000000000000000000000000\n        /* \"#utility.yul\":18555:18557   */\n      0x20\n        /* \"#utility.yul\":18547:18553   */\n      dup3\n        /* \"#utility.yul\":18543:18558   */\n      add\n        /* \"#utility.yul\":18536:18570   */\n      mstore\n        /* \"#utility.yul\":18351:18577   */\n      pop\n      jump\t// out\n        /* \"#utility.yul\":18583:18949   */\n    tag_228:\n        /* \"#utility.yul\":18725:18728   */\n      0x00\n        /* \"#utility.yul\":18746:18813   */\n      tag_448\n        /* \"#utility.yul\":18810:18812   */\n      0x27\n        /* \"#utility.yul\":18805:18808   */\n      dup4\n        /* \"#utility.yul\":18746:18813   */\n      tag_187\n      jump\t// in\n    tag_448:\n        /* \"#utility.yul\":18739:18813   */\n      swap2\n      pop\n        /* \"#utility.yul\":18822:18915   */\n      tag_449\n        /* \"#utility.yul\":18911:18914   */\n      dup3\n        /* \"#utility.yul\":18822:18915   */\n      tag_227\n      jump\t// in\n    tag_449:\n        /* \"#utility.yul\":18940:18942   */\n      0x40\n        /* \"#utility.yul\":18935:18938   */\n      dup3\n        /* \"#utility.yul\":18931:18943   */\n      add\n        /* \"#utility.yul\":18924:18943   */\n      swap1\n      pop\n        /* \"#utility.yul\":18583:18949   */\n      swap2\n      swap1\n      pop\n      jump\t// out\n        /* \"#utility.yul\":18955:19374   */\n    tag_92:\n        /* \"#utility.yul\":19121:19125   */\n      0x00\n        /* \"#utility.yul\":19159:19161   */\n      0x20\n        /* \"#utility.yul\":19148:19157   */\n      dup3\n        /* \"#utility.yul\":19144:19162   */\n      add\n        /* \"#utility.yul\":19136:19162   */\n      swap1\n      pop\n        /* \"#utility.yul\":19208:19217   */\n      dup2\n        /* \"#utility.yul\":19202:19206   */\n      dup2\n        /* \"#utility.yul\":19198:19218   */\n      sub\n        /* \"#utility.yul\":19194:19195   */\n      0x00\n        /* \"#utility.yul\":19183:19192   */\n      dup4\n        /* \"#utility.yul\":19179:19196   */\n      add\n        /* \"#utility.yul\":19172:19219   */\n      mstore\n        /* \"#utility.yul\":19236:19367   */\n      tag_451\n        /* \"#utility.yul\":19362:19366   */\n      dup2\n        /* \"#utility.yul\":19236:19367   */\n      tag_228\n      jump\t// in\n    tag_451:\n        /* \"#utility.yul\":19228:19367   */\n      swap1\n      pop\n        /* \"#utility.yul\":18955:19374   */\n      swap2\n      swap1\n      pop\n      jump\t// out\n        /* \"#utility.yul\":19380:19552   */\n    tag_229:\n        /* \"#utility.yul\":19520:19544   */\n      0x4e6f2066756e647320746f20636f6e6669736361746500000000000000000000\n        /* \"#utility.yul\":19516:19517   */\n      0x00\n        /* \"#utility.yul\":19508:19514   */\n      dup3\n        /* \"#utility.yul\":19504:19518   */\n      add\n        /* \"#utility.yul\":19497:19545   */\n      mstore\n        /* \"#utility.yul\":19380:19552   */\n      pop\n      jump\t// out\n        /* \"#utility.yul\":19558:19924   */\n    tag_230:\n        /* \"#utility.yul\":19700:19703   */\n      0x00\n        /* \"#utility.yul\":19721:19788   */\n      tag_454\n        /* \"#utility.yul\":19785:19787   */\n      0x16\n        /* \"#utility.yul\":19780:19783   */\n      dup4\n        /* \"#utility.yul\":19721:19788   */\n      tag_187\n      jump\t// in\n    tag_454:\n        /* \"#utility.yul\":19714:19788   */\n      swap2\n      pop\n        /* \"#utility.yul\":19797:19890   */\n      tag_455\n        /* \"#utility.yul\":19886:19889   */\n      dup3\n        /* \"#utility.yul\":19797:19890   */\n      tag_229\n      jump\t// in\n    tag_455:\n        /* \"#utility.yul\":19915:19917   */\n      0x20\n        /* \"#utility.yul\":19910:19913   */\n      dup3\n        /* \"#utility.yul\":19906:19918   */\n      add\n        /* \"#utility.yul\":19899:19918   */\n      swap1\n      pop\n        /* \"#utility.yul\":19558:19924   */\n      swap2\n      swap1\n      pop\n      jump\t// out\n        /* \"#utility.yul\":19930:20349   */\n    tag_95:\n        /* \"#utility.yul\":20096:20100   */\n      0x00\n        /* \"#utility.yul\":20134:20136   */\n      0x20\n        /* \"#utility.yul\":20123:20132   */\n      dup3\n        /* \"#utility.yul\":20119:20137   */\n      add\n        /* \"#utility.yul\":20111:20137   */\n      swap1\n      pop\n        /* \"#utility.yul\":20183:20192   */\n      dup2\n        /* \"#utility.yul\":20177:20181   */\n      dup2\n        /* \"#utility.yul\":20173:20193   */\n      sub\n        /* \"#utility.yul\":20169:20170   */\n      0x00\n        /* \"#utility.yul\":20158:20167   */\n      dup4\n        /* \"#utility.yul\":20154:20171   */\n      add\n        /* \"#utility.yul\":20147:20194   */\n      mstore\n        /* \"#utility.yul\":20211:20342   */\n      tag_457\n        /* \"#utility.yul\":20337:20341   */\n      dup2\n        /* \"#utility.yul\":20211:20342   */\n      tag_230\n      jump\t// in\n    tag_457:\n        /* \"#utility.yul\":20203:20342   */\n      swap1\n      pop\n        /* \"#utility.yul\":19930:20349   */\n      swap2\n      swap1\n      pop\n      jump\t// out\n        /* \"#utility.yul\":20355:20575   */\n    tag_231:\n        /* \"#utility.yul\":20495:20529   */\n      0x416d6f756e74206d7573742062652067726561746572207468616e207a65726f\n        /* \"#utility.yul\":20491:20492   */\n      0x00\n        /* \"#utility.yul\":20483:20489   */\n      dup3\n        /* \"#utility.yul\":20479:20493   */\n      add\n        /* \"#utility.yul\":20472:20530   */\n      mstore\n        /* \"#utility.yul\":20564:20567   */\n      0x2e00000000000000000000000000000000000000000000000000000000000000\n        /* \"#utility.yul\":20559:20561   */\n      0x20\n        /* \"#utility.yul\":20551:20557   */\n      dup3\n        /* \"#utility.yul\":20547:20562   */\n      add\n        /* \"#utility.yul\":20540:20568   */\n      mstore\n        /* \"#utility.yul\":20355:20575   */\n      pop\n      jump\t// out\n        /* \"#utility.yul\":20581:20947   */\n    tag_232:\n        /* \"#utility.yul\":20723:20726   */\n      0x00\n        /* \"#utility.yul\":20744:20811   */\n      tag_460\n        /* \"#utility.yul\":20808:20810   */\n      0x21\n        /* \"#utility.yul\":20803:20806   */\n      dup4\n        /* \"#utility.yul\":20744:20811   */\n      tag_187\n      jump\t// in\n    tag_460:\n        /* \"#utility.yul\":20737:20811   */\n      swap2\n      pop\n        /* \"#utility.yul\":20820:20913   */\n      tag_461\n        /* \"#utility.yul\":20909:20912   */\n      dup3\n        /* \"#utility.yul\":20820:20913   */\n      tag_231\n      jump\t// in\n    tag_461:\n        /* \"#utility.yul\":20938:20940   */\n      0x40\n        /* \"#utility.yul\":20933:20936   */\n      dup3\n        /* \"#utility.yul\":20929:20941   */\n      add\n        /* \"#utility.yul\":20922:20941   */\n      swap1\n      pop\n        /* \"#utility.yul\":20581:20947   */\n      swap2\n      swap1\n      pop\n      jump\t// out\n        /* \"#utility.yul\":20953:21372   */\n    tag_100:\n        /* \"#utility.yul\":21119:21123   */\n      0x00\n        /* \"#utility.yul\":21157:21159   */\n      0x20\n        /* \"#utility.yul\":21146:21155   */\n      dup3\n        /* \"#utility.yul\":21142:21160   */\n      add\n        /* \"#utility.yul\":21134:21160   */\n      swap1\n      pop\n        /* \"#utility.yul\":21206:21215   */\n      dup2\n        /* \"#utility.yul\":21200:21204   */\n      dup2\n        /* \"#utility.yul\":21196:21216   */\n      sub\n        /* \"#utility.yul\":21192:21193   */\n      0x00\n        /* \"#utility.yul\":21181:21190   */\n      dup4\n        /* \"#utility.yul\":21177:21194   */\n      add\n        /* \"#utility.yul\":21170:21217   */\n      mstore\n        /* \"#utility.yul\":21234:21365   */\n      tag_463\n        /* \"#utility.yul\":21360:21364   */\n      dup2\n        /* \"#utility.yul\":21234:21365   */\n      tag_232\n      jump\t// in\n    tag_463:\n        /* \"#utility.yul\":21226:21365   */\n      swap1\n      pop\n        /* \"#utility.yul\":20953:21372   */\n      swap2\n      swap1\n      pop\n      jump\t// out\n        /* \"#utility.yul\":21378:21521   */\n    tag_233:\n        /* \"#utility.yul\":21435:21440   */\n      0x00\n        /* \"#utility.yul\":21466:21472   */\n      dup2\n        /* \"#utility.yul\":21460:21473   */\n      mload\n        /* \"#utility.yul\":21451:21473   */\n      swap1\n      pop\n        /* \"#utility.yul\":21482:21515   */\n      tag_465\n        /* \"#utility.yul\":21509:21514   */\n      dup2\n        /* \"#utility.yul\":21482:21515   */\n      tag_207\n      jump\t// in\n    tag_465:\n        /* \"#utility.yul\":21378:21521   */\n      swap3\n      swap2\n      pop\n      pop\n      jump\t// out\n        /* \"#utility.yul\":21527:21878   */\n    tag_105:\n        /* \"#utility.yul\":21597:21603   */\n      0x00\n        /* \"#utility.yul\":21646:21648   */\n      0x20\n        /* \"#utility.yul\":21634:21643   */\n      dup3\n        /* \"#utility.yul\":21625:21632   */\n      dup5\n        /* \"#utility.yul\":21621:21644   */\n      sub\n        /* \"#utility.yul\":21617:21649   */\n      slt\n        /* \"#utility.yul\":21614:21733   */\n      iszero\n      tag_467\n      jumpi\n        /* \"#utility.yul\":21652:21731   */\n      tag_468\n      tag_176\n      jump\t// in\n    tag_468:\n        /* \"#utility.yul\":21614:21733   */\n    tag_467:\n        /* \"#utility.yul\":21772:21773   */\n      0x00\n        /* \"#utility.yul\":21797:21861   */\n      tag_469\n        /* \"#utility.yul\":21853:21860   */\n      dup5\n        /* \"#utility.yul\":21844:21850   */\n      dup3\n        /* \"#utility.yul\":21833:21842   */\n      dup6\n        /* \"#utility.yul\":21829:21851   */\n      add\n        /* \"#utility.yul\":21797:21861   */\n      tag_233\n      jump\t// in\n    tag_469:\n        /* \"#utility.yul\":21787:21861   */\n      swap2\n      pop\n        /* \"#utility.yul\":21743:21871   */\n      pop\n        /* \"#utility.yul\":21527:21878   */\n      swap3\n      swap2\n      pop\n      pop\n      jump\t// out\n        /* \"#utility.yul\":21884:22060   */\n    tag_234:\n        /* \"#utility.yul\":22024:22052   */\n      0x496e73756666696369656e7420746f6b656e2062616c616e6365000000000000\n        /* \"#utility.yul\":22020:22021   */\n      0x00\n        /* \"#utility.yul\":22012:22018   */\n      dup3\n        /* \"#utility.yul\":22008:22022   */\n      add\n        /* \"#utility.yul\":22001:22053   */\n      mstore\n        /* \"#utility.yul\":21884:22060   */\n      pop\n      jump\t// out\n        /* \"#utility.yul\":22066:22432   */\n    tag_235:\n        /* \"#utility.yul\":22208:22211   */\n      0x00\n        /* \"#utility.yul\":22229:22296   */\n      tag_472\n        /* \"#utility.yul\":22293:22295   */\n      0x1a\n        /* \"#utility.yul\":22288:22291   */\n      dup4\n        /* \"#utility.yul\":22229:22296   */\n      tag_187\n      jump\t// in\n    tag_472:\n        /* \"#utility.yul\":22222:22296   */\n      swap2\n      pop\n        /* \"#utility.yul\":22305:22398   */\n      tag_473\n        /* \"#utility.yul\":22394:22397   */\n      dup3\n        /* \"#utility.yul\":22305:22398   */\n      tag_234\n      jump\t// in\n    tag_473:\n        /* \"#utility.yul\":22423:22425   */\n      0x20\n        /* \"#utility.yul\":22418:22421   */\n      dup3\n        /* \"#utility.yul\":22414:22426   */\n      add\n        /* \"#utility.yul\":22407:22426   */\n      swap1\n      pop\n        /* \"#utility.yul\":22066:22432   */\n      swap2\n      swap1\n      pop\n      jump\t// out\n        /* \"#utility.yul\":22438:22857   */\n    tag_108:\n        /* \"#utility.yul\":22604:22608   */\n      0x00\n        /* \"#utility.yul\":22642:22644   */\n      0x20\n        /* \"#utility.yul\":22631:22640   */\n      dup3\n        /* \"#utility.yul\":22627:22645   */\n      add\n        /* \"#utility.yul\":22619:22645   */\n      swap1\n      pop\n        /* \"#utility.yul\":22691:22700   */\n      dup2\n        /* \"#utility.yul\":22685:22689   */\n      dup2\n        /* \"#utility.yul\":22681:22701   */\n      sub\n        /* \"#utility.yul\":22677:22678   */\n      0x00\n        /* \"#utility.yul\":22666:22675   */\n      dup4\n        /* \"#utility.yul\":22662:22679   */\n      add\n        /* \"#utility.yul\":22655:22702   */\n      mstore\n        /* \"#utility.yul\":22719:22850   */\n      tag_475\n        /* \"#utility.yul\":22845:22849   */\n      dup2\n        /* \"#utility.yul\":22719:22850   */\n      tag_235\n      jump\t// in\n    tag_475:\n        /* \"#utility.yul\":22711:22850   */\n      swap1\n      pop\n        /* \"#utility.yul\":22438:22857   */\n      swap2\n      swap1\n      pop\n      jump\t// out\n        /* \"#utility.yul\":22863:23195   */\n    tag_110:\n        /* \"#utility.yul\":22984:22988   */\n      0x00\n        /* \"#utility.yul\":23022:23024   */\n      0x40\n        /* \"#utility.yul\":23011:23020   */\n      dup3\n        /* \"#utility.yul\":23007:23025   */\n      add\n        /* \"#utility.yul\":22999:23025   */\n      swap1\n      pop\n        /* \"#utility.yul\":23035:23106   */\n      tag_477\n        /* \"#utility.yul\":23103:23104   */\n      0x00\n        /* \"#utility.yul\":23092:23101   */\n      dup4\n        /* \"#utility.yul\":23088:23105   */\n      add\n        /* \"#utility.yul\":23079:23085   */\n      dup6\n        /* \"#utility.yul\":23035:23106   */\n      tag_185\n      jump\t// in\n    tag_477:\n        /* \"#utility.yul\":23116:23188   */\n      tag_478\n        /* \"#utility.yul\":23184:23186   */\n      0x20\n        /* \"#utility.yul\":23173:23182   */\n      dup4\n        /* \"#utility.yul\":23169:23187   */\n      add\n        /* \"#utility.yul\":23160:23166   */\n      dup5\n        /* \"#utility.yul\":23116:23188   */\n      tag_185\n      jump\t// in\n    tag_478:\n        /* \"#utility.yul\":22863:23195   */\n      swap4\n      swap3\n      pop\n      pop\n      pop\n      jump\t// out\n        /* \"#utility.yul\":23201:23374   */\n    tag_236:\n        /* \"#utility.yul\":23341:23366   */\n      0x416c6c6f77616e6365206973206e6f7420656e6f756768000000000000000000\n        /* \"#utility.yul\":23337:23338   */\n      0x00\n        /* \"#utility.yul\":23329:23335   */\n      dup3\n        /* \"#utility.yul\":23325:23339   */\n      add\n        /* \"#utility.yul\":23318:23367   */\n      mstore\n        /* \"#utility.yul\":23201:23374   */\n      pop\n      jump\t// out\n        /* \"#utility.yul\":23380:23746   */\n    tag_237:\n        /* \"#utility.yul\":23522:23525   */\n      0x00\n        /* \"#utility.yul\":23543:23610   */\n      tag_481\n        /* \"#utility.yul\":23607:23609   */\n      0x17\n        /* \"#utility.yul\":23602:23605   */\n      dup4\n        /* \"#utility.yul\":23543:23610   */\n      tag_187\n      jump\t// in\n    tag_481:\n        /* \"#utility.yul\":23536:23610   */\n      swap2\n      pop\n        /* \"#utility.yul\":23619:23712   */\n      tag_482\n        /* \"#utility.yul\":23708:23711   */\n      dup3\n        /* \"#utility.yul\":23619:23712   */\n      tag_236\n      jump\t// in\n    tag_482:\n        /* \"#utility.yul\":23737:23739   */\n      0x20\n        /* \"#utility.yul\":23732:23735   */\n      dup3\n        /* \"#utility.yul\":23728:23740   */\n      add\n        /* \"#utility.yul\":23721:23740   */\n      swap1\n      pop\n        /* \"#utility.yul\":23380:23746   */\n      swap2\n      swap1\n      pop\n      jump\t// out\n        /* \"#utility.yul\":23752:24171   */\n    tag_116:\n        /* \"#utility.yul\":23918:23922   */\n      0x00\n        /* \"#utility.yul\":23956:23958   */\n      0x20\n        /* \"#utility.yul\":23945:23954   */\n      dup3\n        /* \"#utility.yul\":23941:23959   */\n      add\n        /* \"#utility.yul\":23933:23959   */\n      swap1\n      pop\n        /* \"#utility.yul\":24005:24014   */\n      dup2\n        /* \"#utility.yul\":23999:24003   */\n      dup2\n        /* \"#utility.yul\":23995:24015   */\n      sub\n        /* \"#utility.yul\":23991:23992   */\n      0x00\n        /* \"#utility.yul\":23980:23989   */\n      dup4\n        /* \"#utility.yul\":23976:23993   */\n      add\n        /* \"#utility.yul\":23969:24016   */\n      mstore\n        /* \"#utility.yul\":24033:24164   */\n      tag_484\n        /* \"#utility.yul\":24159:24163   */\n      dup2\n        /* \"#utility.yul\":24033:24164   */\n      tag_237\n      jump\t// in\n    tag_484:\n        /* \"#utility.yul\":24025:24164   */\n      swap1\n      pop\n        /* \"#utility.yul\":23752:24171   */\n      swap2\n      swap1\n      pop\n      jump\t// out\n        /* \"#utility.yul\":24177:24271   */\n    tag_238:\n        /* \"#utility.yul\":24210:24218   */\n      0x00\n        /* \"#utility.yul\":24258:24263   */\n      dup2\n        /* \"#utility.yul\":24254:24256   */\n      0x60\n        /* \"#utility.yul\":24250:24264   */\n      shl\n        /* \"#utility.yul\":24229:24264   */\n      swap1\n      pop\n        /* \"#utility.yul\":24177:24271   */\n      swap2\n      swap1\n      pop\n      jump\t// out\n        /* \"#utility.yul\":24277:24371   */\n    tag_239:\n        /* \"#utility.yul\":24316:24323   */\n      0x00\n        /* \"#utility.yul\":24345:24365   */\n      tag_487\n        /* \"#utility.yul\":24359:24364   */\n      dup3\n        /* \"#utility.yul\":24345:24365   */\n      tag_238\n      jump\t// in\n    tag_487:\n        /* \"#utility.yul\":24334:24365   */\n      swap1\n      pop\n        /* \"#utility.yul\":24277:24371   */\n      swap2\n      swap1\n      pop\n      jump\t// out\n        /* \"#utility.yul\":24377:24477   */\n    tag_240:\n        /* \"#utility.yul\":24416:24423   */\n      0x00\n        /* \"#utility.yul\":24445:24471   */\n      tag_489\n        /* \"#utility.yul\":24465:24470   */\n      dup3\n        /* \"#utility.yul\":24445:24471   */\n      tag_239\n      jump\t// in\n    tag_489:\n        /* \"#utility.yul\":24434:24471   */\n      swap1\n      pop\n        /* \"#utility.yul\":24377:24477   */\n      swap2\n      swap1\n      pop\n      jump\t// out\n        /* \"#utility.yul\":24483:24640   */\n    tag_241:\n        /* \"#utility.yul\":24588:24633   */\n      tag_491\n        /* \"#utility.yul\":24608:24632   */\n      tag_492\n        /* \"#utility.yul\":24626:24631   */\n      dup3\n        /* \"#utility.yul\":24608:24632   */\n      tag_182\n      jump\t// in\n    tag_492:\n        /* \"#utility.yul\":24588:24633   */\n      tag_240\n      jump\t// in\n    tag_491:\n        /* \"#utility.yul\":24583:24586   */\n      dup3\n        /* \"#utility.yul\":24576:24634   */\n      mstore\n        /* \"#utility.yul\":24483:24640   */\n      pop\n      pop\n      jump\t// out\n        /* \"#utility.yul\":24646:24794   */\n    tag_242:\n        /* \"#utility.yul\":24748:24759   */\n      0x00\n        /* \"#utility.yul\":24785:24788   */\n      dup2\n        /* \"#utility.yul\":24770:24788   */\n      swap1\n      pop\n        /* \"#utility.yul\":24646:24794   */\n      swap3\n      swap2\n      pop\n      pop\n      jump\t// out\n        /* \"#utility.yul\":24800:25190   */\n    tag_243:\n        /* \"#utility.yul\":24906:24909   */\n      0x00\n        /* \"#utility.yul\":24934:24973   */\n      tag_495\n        /* \"#utility.yul\":24967:24972   */\n      dup3\n        /* \"#utility.yul\":24934:24973   */\n      tag_186\n      jump\t// in\n    tag_495:\n        /* \"#utility.yul\":24989:25078   */\n      tag_496\n        /* \"#utility.yul\":25071:25077   */\n      dup2\n        /* \"#utility.yul\":25066:25069   */\n      dup6\n        /* \"#utility.yul\":24989:25078   */\n      tag_242\n      jump\t// in\n    tag_496:\n        /* \"#utility.yul\":24982:25078   */\n      swap4\n      pop\n        /* \"#utility.yul\":25087:25152   */\n      tag_497\n        /* \"#utility.yul\":25145:25151   */\n      dup2\n        /* \"#utility.yul\":25140:25143   */\n      dup6\n        /* \"#utility.yul\":25133:25137   */\n      0x20\n        /* \"#utility.yul\":25126:25131   */\n      dup7\n        /* \"#utility.yul\":25122:25138   */\n      add\n        /* \"#utility.yul\":25087:25152   */\n      tag_188\n      jump\t// in\n    tag_497:\n        /* \"#utility.yul\":25177:25183   */\n      dup1\n        /* \"#utility.yul\":25172:25175   */\n      dup5\n        /* \"#utility.yul\":25168:25184   */\n      add\n        /* \"#utility.yul\":25161:25184   */\n      swap2\n      pop\n        /* \"#utility.yul\":24910:25190   */\n      pop\n        /* \"#utility.yul\":24800:25190   */\n      swap3\n      swap2\n      pop\n      pop\n      jump\t// out\n        /* \"#utility.yul\":25196:25275   */\n    tag_244:\n        /* \"#utility.yul\":25235:25242   */\n      0x00\n        /* \"#utility.yul\":25264:25269   */\n      dup2\n        /* \"#utility.yul\":25253:25269   */\n      swap1\n      pop\n        /* \"#utility.yul\":25196:25275   */\n      swap2\n      swap1\n      pop\n      jump\t// out\n        /* \"#utility.yul\":25281:25438   */\n    tag_245:\n        /* \"#utility.yul\":25386:25431   */\n      tag_500\n        /* \"#utility.yul\":25406:25430   */\n      tag_501\n        /* \"#utility.yul\":25424:25429   */\n      dup3\n        /* \"#utility.yul\":25406:25430   */\n      tag_191\n      jump\t// in\n    tag_501:\n        /* \"#utility.yul\":25386:25431   */\n      tag_244\n      jump\t// in\n    tag_500:\n        /* \"#utility.yul\":25381:25384   */\n      dup3\n        /* \"#utility.yul\":25374:25432   */\n      mstore\n        /* \"#utility.yul\":25281:25438   */\n      pop\n      pop\n      jump\t// out\n        /* \"#utility.yul\":25444:26142   */\n    tag_120:\n        /* \"#utility.yul\":25660:25663   */\n      0x00\n        /* \"#utility.yul\":25675:25750   */\n      tag_503\n        /* \"#utility.yul\":25746:25749   */\n      dup3\n        /* \"#utility.yul\":25737:25743   */\n      dup8\n        /* \"#utility.yul\":25675:25750   */\n      tag_241\n      jump\t// in\n    tag_503:\n        /* \"#utility.yul\":25775:25777   */\n      0x14\n        /* \"#utility.yul\":25770:25773   */\n      dup3\n        /* \"#utility.yul\":25766:25778   */\n      add\n        /* \"#utility.yul\":25759:25778   */\n      swap2\n      pop\n        /* \"#utility.yul\":25795:25890   */\n      tag_504\n        /* \"#utility.yul\":25886:25889   */\n      dup3\n        /* \"#utility.yul\":25877:25883   */\n      dup7\n        /* \"#utility.yul\":25795:25890   */\n      tag_243\n      jump\t// in\n    tag_504:\n        /* \"#utility.yul\":25788:25890   */\n      swap2\n      pop\n        /* \"#utility.yul\":25900:25975   */\n      tag_505\n        /* \"#utility.yul\":25971:25974   */\n      dup3\n        /* \"#utility.yul\":25962:25968   */\n      dup6\n        /* \"#utility.yul\":25900:25975   */\n      tag_245\n      jump\t// in\n    tag_505:\n        /* \"#utility.yul\":26000:26002   */\n      0x20\n        /* \"#utility.yul\":25995:25998   */\n      dup3\n        /* \"#utility.yul\":25991:26003   */\n      add\n        /* \"#utility.yul\":25984:26003   */\n      swap2\n      pop\n        /* \"#utility.yul\":26013:26088   */\n      tag_506\n        /* \"#utility.yul\":26084:26087   */\n      dup3\n        /* \"#utility.yul\":26075:26081   */\n      dup5\n        /* \"#utility.yul\":26013:26088   */\n      tag_245\n      jump\t// in\n    tag_506:\n        /* \"#utility.yul\":26113:26115   */\n      0x20\n        /* \"#utility.yul\":26108:26111   */\n      dup3\n        /* \"#utility.yul\":26104:26116   */\n      add\n        /* \"#utility.yul\":26097:26116   */\n      swap2\n      pop\n        /* \"#utility.yul\":26133:26136   */\n      dup2\n        /* \"#utility.yul\":26126:26136   */\n      swap1\n      pop\n        /* \"#utility.yul\":25444:26142   */\n      swap6\n      swap5\n      pop\n      pop\n      pop\n      pop\n      pop\n      jump\t// out\n        /* \"#utility.yul\":26148:26289   */\n    tag_246:\n        /* \"#utility.yul\":26197:26201   */\n      0x00\n        /* \"#utility.yul\":26220:26223   */\n      dup2\n        /* \"#utility.yul\":26212:26223   */\n      swap1\n      pop\n        /* \"#utility.yul\":26243:26246   */\n      dup2\n        /* \"#utility.yul\":26240:26241   */\n      0x00\n        /* \"#utility.yul\":26233:26247   */\n      mstore\n        /* \"#utility.yul\":26277:26281   */\n      0x20\n        /* \"#utility.yul\":26274:26275   */\n      0x00\n        /* \"#utility.yul\":26264:26282   */\n      keccak256\n        /* \"#utility.yul\":26256:26282   */\n      swap1\n      pop\n        /* \"#utility.yul\":26148:26289   */\n      swap2\n      swap1\n      pop\n      jump\t// out\n        /* \"#utility.yul\":26295:26388   */\n    tag_247:\n        /* \"#utility.yul\":26332:26338   */\n      0x00\n        /* \"#utility.yul\":26379:26381   */\n      0x20\n        /* \"#utility.yul\":26374:26376   */\n      0x1f\n        /* \"#utility.yul\":26367:26372   */\n      dup4\n        /* \"#utility.yul\":26363:26377   */\n      add\n        /* \"#utility.yul\":26359:26382   */\n      div\n        /* \"#utility.yul\":26349:26382   */\n      swap1\n      pop\n        /* \"#utility.yul\":26295:26388   */\n      swap2\n      swap1\n      pop\n      jump\t// out\n        /* \"#utility.yul\":26394:26501   */\n    tag_248:\n        /* \"#utility.yul\":26438:26446   */\n      0x00\n        /* \"#utility.yul\":26488:26493   */\n      dup3\n        /* \"#utility.yul\":26482:26486   */\n      dup3\n        /* \"#utility.yul\":26478:26494   */\n      shl\n        /* \"#utility.yul\":26457:26494   */\n      swap1\n      pop\n        /* \"#utility.yul\":26394:26501   */\n      swap3\n      swap2\n      pop\n      pop\n      jump\t// out\n        /* \"#utility.yul\":26507:26900   */\n    tag_249:\n        /* \"#utility.yul\":26576:26582   */\n      0x00\n        /* \"#utility.yul\":26626:26627   */\n      0x08\n        /* \"#utility.yul\":26614:26624   */\n      dup4\n        /* \"#utility.yul\":26610:26628   */\n      mul\n        /* \"#utility.yul\":26649:26746   */\n      tag_511\n        /* \"#utility.yul\":26679:26745   */\n      0xffffffffffffffffffffffffffffffffffffffffffffffffffffffffffffffff\n        /* \"#utility.yul\":26668:26677   */\n      dup3\n        /* \"#utility.yul\":26649:26746   */\n      tag_248\n      jump\t// in\n    tag_511:\n        /* \"#utility.yul\":26767:26806   */\n      tag_512\n        /* \"#utility.yul\":26797:26805   */\n      dup7\n        /* \"#utility.yul\":26786:26795   */\n      dup4\n        /* \"#utility.yul\":26767:26806   */\n      tag_248\n      jump\t// in\n    tag_512:\n        /* \"#utility.yul\":26755:26806   */\n      swap6\n      pop\n        /* \"#utility.yul\":26839:26843   */\n      dup1\n        /* \"#utility.yul\":26835:26844   */\n      not\n        /* \"#utility.yul\":26828:26833   */\n      dup5\n        /* \"#utility.yul\":26824:26845   */\n      and\n        /* \"#utility.yul\":26815:26845   */\n      swap4\n      pop\n        /* \"#utility.yul\":26888:26892   */\n      dup1\n        /* \"#utility.yul\":26878:26886   */\n      dup7\n        /* \"#utility.yul\":26874:26893   */\n      and\n        /* \"#utility.yul\":26867:26872   */\n      dup5\n        /* \"#utility.yul\":26864:26894   */\n      or\n        /* \"#utility.yul\":26854:26894   */\n      swap3\n      pop\n        /* \"#utility.yul\":26583:26900   */\n      pop\n      pop\n        /* \"#utility.yul\":26507:26900   */\n      swap4\n      swap3\n      pop\n      pop\n      pop\n      jump\t// out\n        /* \"#utility.yul\":26906:26966   */\n    tag_250:\n        /* \"#utility.yul\":26934:26937   */\n      0x00\n        /* \"#utility.yul\":26955:26960   */\n      dup2\n        /* \"#utility.yul\":26948:26960   */\n      swap1\n      pop\n        /* \"#utility.yul\":26906:26966   */\n      swap2\n      swap1\n      pop\n      jump\t// out\n        /* \"#utility.yul\":26972:27114   */\n    tag_251:\n        /* \"#utility.yul\":27022:27031   */\n      0x00\n        /* \"#utility.yul\":27055:27108   */\n      tag_515\n        /* \"#utility.yul\":27073:27107   */\n      tag_516\n        /* \"#utility.yul\":27082:27106   */\n      tag_517\n        /* \"#utility.yul\":27100:27105   */\n      dup5\n        /* \"#utility.yul\":27082:27106   */\n      tag_191\n      jump\t// in\n    tag_517:\n        /* \"#utility.yul\":27073:27107   */\n      tag_250\n      jump\t// in\n    tag_516:\n        /* \"#utility.yul\":27055:27108   */\n      tag_191\n      jump\t// in\n    tag_515:\n        /* \"#utility.yul\":27042:27108   */\n      swap1\n      pop\n        /* \"#utility.yul\":26972:27114   */\n      swap2\n      swap1\n      pop\n      jump\t// out\n        /* \"#utility.yul\":27120:27195   */\n    tag_252:\n        /* \"#utility.yul\":27163:27166   */\n      0x00\n        /* \"#utility.yul\":27184:27189   */\n      dup2\n        /* \"#utility.yul\":27177:27189   */\n      swap1\n      pop\n        /* \"#utility.yul\":27120:27195   */\n      swap2\n      swap1\n      pop\n      jump\t// out\n        /* \"#utility.yul\":27201:27470   */\n    tag_253:\n        /* \"#utility.yul\":27311:27350   */\n      tag_520\n        /* \"#utility.yul\":27342:27349   */\n      dup4\n        /* \"#utility.yul\":27311:27350   */\n      tag_251\n      jump\t// in\n    tag_520:\n        /* \"#utility.yul\":27372:27463   */\n      tag_521\n        /* \"#utility.yul\":27421:27462   */\n      tag_522\n        /* \"#utility.yul\":27445:27461   */\n      dup3\n        /* \"#utility.yul\":27421:27462   */\n      tag_252\n      jump\t// in\n    tag_522:\n        /* \"#utility.yul\":27413:27419   */\n      dup5\n        /* \"#utility.yul\":27406:27410   */\n      dup5\n        /* \"#utility.yul\":27400:27411   */\n      sload\n        /* \"#utility.yul\":27372:27463   */\n      tag_249\n      jump\t// in\n    tag_521:\n        /* \"#utility.yul\":27366:27370   */\n      dup3\n        /* \"#utility.yul\":27359:27464   */\n      sstore\n        /* \"#utility.yul\":27277:27470   */\n      pop\n        /* \"#utility.yul\":27201:27470   */\n      pop\n      pop\n      pop\n      jump\t// out\n        /* \"#utility.yul\":27476:27549   */\n    tag_254:\n        /* \"#utility.yul\":27521:27524   */\n      0x00\n        /* \"#utility.yul\":27476:27549   */\n      swap1\n      jump\t// out\n        /* \"#utility.yul\":27555:27744   */\n    tag_255:\n        /* \"#utility.yul\":27632:27664   */\n      tag_525\n      tag_254\n      jump\t// in\n    tag_525:\n        /* \"#utility.yul\":27673:27738   */\n      tag_526\n        /* \"#utility.yul\":27731:27737   */\n      dup2\n        /* \"#utility.yul\":27723:27729   */\n      dup5\n        /* \"#utility.yul\":27717:27721   */\n      dup5\n        /* \"#utility.yul\":27673:27738   */\n      tag_253\n      jump\t// in\n    tag_526:\n        /* \"#utility.yul\":27608:27744   */\n      pop\n        /* \"#utility.yul\":27555:27744   */\n      pop\n      pop\n      jump\t// out\n        /* \"#utility.yul\":27750:27936   */\n    tag_256:\n        /* \"#utility.yul\":27810:27930   */\n    tag_528:\n        /* \"#utility.yul\":27827:27830   */\n      dup2\n        /* \"#utility.yul\":27820:27825   */\n      dup2\n        /* \"#utility.yul\":27817:27831   */\n      lt\n        /* \"#utility.yul\":27810:27930   */\n      iszero\n      tag_530\n      jumpi\n        /* \"#utility.yul\":27881:27920   */\n      tag_531\n        /* \"#utility.yul\":27918:27919   */\n      0x00\n        /* \"#utility.yul\":27911:27916   */\n      dup3\n        /* \"#utility.yul\":27881:27920   */\n      tag_255\n      jump\t// in\n    tag_531:\n        /* \"#utility.yul\":27854:27855   */\n      0x01\n        /* \"#utility.yul\":27847:27852   */\n      dup2\n        /* \"#utility.yul\":27843:27856   */\n      add\n        /* \"#utility.yul\":27834:27856   */\n      swap1\n      pop\n        /* \"#utility.yul\":27810:27930   */\n      jump(tag_528)\n    tag_530:\n        /* \"#utility.yul\":27750:27936   */\n      pop\n      pop\n      jump\t// out\n        /* \"#utility.yul\":27942:28485   */\n    tag_257:\n        /* \"#utility.yul\":28043:28045   */\n      0x1f\n        /* \"#utility.yul\":28038:28041   */\n      dup3\n        /* \"#utility.yul\":28035:28046   */\n      gt\n        /* \"#utility.yul\":28032:28478   */\n      iszero\n      tag_533\n      jumpi\n        /* \"#utility.yul\":28077:28115   */\n      tag_534\n        /* \"#utility.yul\":28109:28114   */\n      dup2\n        /* \"#utility.yul\":28077:28115   */\n      tag_246\n      jump\t// in\n    tag_534:\n        /* \"#utility.yul\":28161:28190   */\n      tag_535\n        /* \"#utility.yul\":28179:28189   */\n      dup5\n        /* \"#utility.yul\":28161:28190   */\n      tag_247\n      jump\t// in\n    tag_535:\n        /* \"#utility.yul\":28151:28159   */\n      dup2\n        /* \"#utility.yul\":28147:28191   */\n      add\n        /* \"#utility.yul\":28344:28346   */\n      0x20\n        /* \"#utility.yul\":28332:28342   */\n      dup6\n        /* \"#utility.yul\":28329:28347   */\n      lt\n        /* \"#utility.yul\":28326:28375   */\n      iszero\n      tag_536\n      jumpi\n        /* \"#utility.yul\":28365:28373   */\n      dup2\n        /* \"#utility.yul\":28350:28373   */\n      swap1\n      pop\n        /* \"#utility.yul\":28326:28375   */\n    tag_536:\n        /* \"#utility.yul\":28388:28468   */\n      tag_537\n        /* \"#utility.yul\":28444:28466   */\n      tag_538\n        /* \"#utility.yul\":28462:28465   */\n      dup6\n        /* \"#utility.yul\":28444:28466   */\n      tag_247\n      jump\t// in\n    tag_538:\n        /* \"#utility.yul\":28434:28442   */\n      dup4\n        /* \"#utility.yul\":28430:28467   */\n      add\n        /* \"#utility.yul\":28417:28428   */\n      dup3\n        /* \"#utility.yul\":28388:28468   */\n      tag_256\n      jump\t// in\n    tag_537:\n        /* \"#utility.yul\":28047:28478   */\n      pop\n      pop\n        /* \"#utility.yul\":28032:28478   */\n    tag_533:\n        /* \"#utility.yul\":27942:28485   */\n      pop\n      pop\n      pop\n      jump\t// out\n        /* \"#utility.yul\":28491:28608   */\n    tag_258:\n        /* \"#utility.yul\":28545:28553   */\n      0x00\n        /* \"#utility.yul\":28595:28600   */\n      dup3\n        /* \"#utility.yul\":28589:28593   */\n      dup3\n        /* \"#utility.yul\":28585:28601   */\n      shr\n        /* \"#utility.yul\":28564:28601   */\n      swap1\n      pop\n        /* \"#utility.yul\":28491:28608   */\n      swap3\n      swap2\n      pop\n      pop\n      jump\t// out\n        /* \"#utility.yul\":28614:28783   */\n    tag_259:\n        /* \"#utility.yul\":28658:28664   */\n      0x00\n        /* \"#utility.yul\":28691:28742   */\n      tag_541\n        /* \"#utility.yul\":28739:28740   */\n      0x00\n        /* \"#utility.yul\":28735:28741   */\n      not\n        /* \"#utility.yul\":28727:28732   */\n      dup5\n        /* \"#utility.yul\":28724:28725   */\n      0x08\n        /* \"#utility.yul\":28720:28733   */\n      mul\n        /* \"#utility.yul\":28691:28742   */\n      tag_258\n      jump\t// in\n    tag_541:\n        /* \"#utility.yul\":28687:28743   */\n      not\n        /* \"#utility.yul\":28772:28776   */\n      dup1\n        /* \"#utility.yul\":28766:28770   */\n      dup4\n        /* \"#utility.yul\":28762:28777   */\n      and\n        /* \"#utility.yul\":28752:28777   */\n      swap2\n      pop\n        /* \"#utility.yul\":28665:28783   */\n      pop\n        /* \"#utility.yul\":28614:28783   */\n      swap3\n      swap2\n      pop\n      pop\n      jump\t// out\n        /* \"#utility.yul\":28788:29083   */\n    tag_260:\n        /* \"#utility.yul\":28864:28868   */\n      0x00\n        /* \"#utility.yul\":29010:29039   */\n      tag_543\n        /* \"#utility.yul\":29035:29038   */\n      dup4\n        /* \"#utility.yul\":29029:29033   */\n      dup4\n        /* \"#utility.yul\":29010:29039   */\n      tag_259\n      jump\t// in\n    tag_543:\n        /* \"#utility.yul\":29002:29039   */\n      swap2\n      pop\n        /* \"#utility.yul\":29072:29075   */\n      dup3\n        /* \"#utility.yul\":29069:29070   */\n      0x02\n        /* \"#utility.yul\":29065:29076   */\n      mul\n        /* \"#utility.yul\":29059:29063   */\n      dup3\n        /* \"#utility.yul\":29056:29077   */\n      or\n        /* \"#utility.yul\":29048:29077   */\n      swap1\n      pop\n        /* \"#utility.yul\":28788:29083   */\n      swap3\n      swap2\n      pop\n      pop\n      jump\t// out\n        /* \"#utility.yul\":29088:30483   */\n    tag_122:\n        /* \"#utility.yul\":29205:29242   */\n      tag_545\n        /* \"#utility.yul\":29238:29241   */\n      dup3\n        /* \"#utility.yul\":29205:29242   */\n      tag_186\n      jump\t// in\n    tag_545:\n        /* \"#utility.yul\":29307:29325   */\n      0xffffffffffffffff\n        /* \"#utility.yul\":29299:29305   */\n      dup2\n        /* \"#utility.yul\":29296:29326   */\n      gt\n        /* \"#utility.yul\":29293:29349   */\n      iszero\n      tag_546\n      jumpi\n        /* \"#utility.yul\":29329:29347   */\n      tag_547\n      tag_69\n      jump\t// in\n    tag_547:\n        /* \"#utility.yul\":29293:29349   */\n    tag_546:\n        /* \"#utility.yul\":29373:29411   */\n      tag_548\n        /* \"#utility.yul\":29405:29409   */\n      dup3\n        /* \"#utility.yul\":29399:29410   */\n      sload\n        /* \"#utility.yul\":29373:29411   */\n      tag_59\n      jump\t// in\n    tag_548:\n        /* \"#utility.yul\":29458:29525   */\n      tag_549\n        /* \"#utility.yul\":29518:29524   */\n      dup3\n        /* \"#utility.yul\":29510:29516   */\n      dup3\n        /* \"#utility.yul\":29504:29508   */\n      dup6\n        /* \"#utility.yul\":29458:29525   */\n      tag_257\n      jump\t// in\n    tag_549:\n        /* \"#utility.yul\":29552:29553   */\n      0x00\n        /* \"#utility.yul\":29576:29580   */\n      0x20\n        /* \"#utility.yul\":29563:29580   */\n      swap1\n      pop\n        /* \"#utility.yul\":29608:29610   */\n      0x1f\n        /* \"#utility.yul\":29600:29606   */\n      dup4\n        /* \"#utility.yul\":29597:29611   */\n      gt\n        /* \"#utility.yul\":29625:29626   */\n      0x01\n        /* \"#utility.yul\":29620:30238   */\n      dup2\n      eq\n      tag_551\n      jumpi\n        /* \"#utility.yul\":30282:30283   */\n      0x00\n        /* \"#utility.yul\":30299:30305   */\n      dup5\n        /* \"#utility.yul\":30296:30373   */\n      iszero\n      tag_552\n      jumpi\n        /* \"#utility.yul\":30348:30357   */\n      dup3\n        /* \"#utility.yul\":30343:30346   */\n      dup8\n        /* \"#utility.yul\":30339:30358   */\n      add\n        /* \"#utility.yul\":30333:30359   */\n      mload\n        /* \"#utility.yul\":30324:30359   */\n      swap1\n      pop\n        /* \"#utility.yul\":30296:30373   */\n    tag_552:\n        /* \"#utility.yul\":30399:30466   */\n      tag_553\n        /* \"#utility.yul\":30459:30465   */\n      dup6\n        /* \"#utility.yul\":30452:30457   */\n      dup3\n        /* \"#utility.yul\":30399:30466   */\n      tag_260\n      jump\t// in\n    tag_553:\n        /* \"#utility.yul\":30393:30397   */\n      dup7\n        /* \"#utility.yul\":30386:30467   */\n      sstore\n        /* \"#utility.yul\":30255:30477   */\n      pop\n        /* \"#utility.yul\":29590:30477   */\n      jump(tag_550)\n        /* \"#utility.yul\":29620:30238   */\n    tag_551:\n        /* \"#utility.yul\":29672:29676   */\n      0x1f\n        /* \"#utility.yul\":29668:29677   */\n      not\n        /* \"#utility.yul\":29660:29666   */\n      dup5\n        /* \"#utility.yul\":29656:29678   */\n      and\n        /* \"#utility.yul\":29706:29743   */\n      tag_554\n        /* \"#utility.yul\":29738:29742   */\n      dup7\n        /* \"#utility.yul\":29706:29743   */\n      tag_246\n      jump\t// in\n    tag_554:\n        /* \"#utility.yul\":29765:29766   */\n      0x00\n        /* \"#utility.yul\":29779:29987   */\n    tag_555:\n        /* \"#utility.yul\":29793:29800   */\n      dup3\n        /* \"#utility.yul\":29790:29791   */\n      dup2\n        /* \"#utility.yul\":29787:29801   */\n      lt\n        /* \"#utility.yul\":29779:29987   */\n      iszero\n      tag_557\n      jumpi\n        /* \"#utility.yul\":29872:29881   */\n      dup5\n        /* \"#utility.yul\":29867:29870   */\n      dup10\n        /* \"#utility.yul\":29863:29882   */\n      add\n        /* \"#utility.yul\":29857:29883   */\n      mload\n        /* \"#utility.yul\":29849:29855   */\n      dup3\n        /* \"#utility.yul\":29842:29884   */\n      sstore\n        /* \"#utility.yul\":29923:29924   */\n      0x01\n        /* \"#utility.yul\":29915:29921   */\n      dup3\n        /* \"#utility.yul\":29911:29925   */\n      add\n        /* \"#utility.yul\":29901:29925   */\n      swap2\n      pop\n        /* \"#utility.yul\":29970:29972   */\n      0x20\n        /* \"#utility.yul\":29959:29968   */\n      dup6\n        /* \"#utility.yul\":29955:29973   */\n      add\n        /* \"#utility.yul\":29942:29973   */\n      swap5\n      pop\n        /* \"#utility.yul\":29816:29820   */\n      0x20\n        /* \"#utility.yul\":29813:29814   */\n      dup2\n        /* \"#utility.yul\":29809:29821   */\n      add\n        /* \"#utility.yul\":29804:29821   */\n      swap1\n      pop\n        /* \"#utility.yul\":29779:29987   */\n      jump(tag_555)\n    tag_557:\n        /* \"#utility.yul\":30015:30021   */\n      dup7\n        /* \"#utility.yul\":30006:30013   */\n      dup4\n        /* \"#utility.yul\":30003:30022   */\n      lt\n        /* \"#utility.yul\":30000:30179   */\n      iszero\n      tag_558\n      jumpi\n        /* \"#utility.yul\":30073:30082   */\n      dup5\n        /* \"#utility.yul\":30068:30071   */\n      dup10\n        /* \"#utility.yul\":30064:30083   */\n      add\n        /* \"#utility.yul\":30058:30084   */\n      mload\n        /* \"#utility.yul\":30116:30164   */\n      tag_559\n        /* \"#utility.yul\":30158:30162   */\n      0x1f\n        /* \"#utility.yul\":30150:30156   */\n      dup10\n        /* \"#utility.yul\":30146:30163   */\n      and\n        /* \"#utility.yul\":30135:30144   */\n      dup3\n        /* \"#utility.yul\":30116:30164   */\n      tag_259\n      jump\t// in\n    tag_559:\n        /* \"#utility.yul\":30108:30114   */\n      dup4\n        /* \"#utility.yul\":30101:30165   */\n      sstore\n        /* \"#utility.yul\":30023:30179   */\n      pop\n        /* \"#utility.yul\":30000:30179   */\n    tag_558:\n        /* \"#utility.yul\":30225:30226   */\n      0x01\n        /* \"#utility.yul\":30221:30222   */\n      0x02\n        /* \"#utility.yul\":30213:30219   */\n      dup9\n        /* \"#utility.yul\":30209:30223   */\n      mul\n        /* \"#utility.yul\":30205:30227   */\n      add\n        /* \"#utility.yul\":30199:30203   */\n      dup9\n        /* \"#utility.yul\":30192:30228   */\n      sstore\n        /* \"#utility.yul\":29627:30238   */\n      pop\n      pop\n      pop\n        /* \"#utility.yul\":29590:30477   */\n    tag_550:\n      pop\n        /* \"#utility.yul\":29180:30483   */\n      pop\n      pop\n      pop\n        /* \"#utility.yul\":29088:30483   */\n      pop\n      pop\n      jump\t// out\n        /* \"#utility.yul\":30489:31133   */\n    tag_125:\n        /* \"#utility.yul\":30686:30690   */\n      0x00\n        /* \"#utility.yul\":30724:30727   */\n      0x80\n        /* \"#utility.yul\":30713:30722   */\n      dup3\n        /* \"#utility.yul\":30709:30728   */\n      add\n        /* \"#utility.yul\":30701:30728   */\n      swap1\n      pop\n        /* \"#utility.yul\":30738:30809   */\n      tag_561\n        /* \"#utility.yul\":30806:30807   */\n      0x00\n        /* \"#utility.yul\":30795:30804   */\n      dup4\n        /* \"#utility.yul\":30791:30808   */\n      add\n        /* \"#utility.yul\":30782:30788   */\n      dup8\n        /* \"#utility.yul\":30738:30809   */\n      tag_209\n      jump\t// in\n    tag_561:\n        /* \"#utility.yul\":30856:30865   */\n      dup2\n        /* \"#utility.yul\":30850:30854   */\n      dup2\n        /* \"#utility.yul\":30846:30866   */\n      sub\n        /* \"#utility.yul\":30841:30843   */\n      0x20\n        /* \"#utility.yul\":30830:30839   */\n      dup4\n        /* \"#utility.yul\":30826:30844   */\n      add\n        /* \"#utility.yul\":30819:30867   */\n      mstore\n        /* \"#utility.yul\":30884:30962   */\n      tag_562\n        /* \"#utility.yul\":30957:30961   */\n      dup2\n        /* \"#utility.yul\":30948:30954   */\n      dup7\n        /* \"#utility.yul\":30884:30962   */\n      tag_190\n      jump\t// in\n    tag_562:\n        /* \"#utility.yul\":30876:30962   */\n      swap1\n      pop\n        /* \"#utility.yul\":30972:31044   */\n      tag_563\n        /* \"#utility.yul\":31040:31042   */\n      0x40\n        /* \"#utility.yul\":31029:31038   */\n      dup4\n        /* \"#utility.yul\":31025:31043   */\n      add\n        /* \"#utility.yul\":31016:31022   */\n      dup6\n        /* \"#utility.yul\":30972:31044   */\n      tag_192\n      jump\t// in\n    tag_563:\n        /* \"#utility.yul\":31054:31126   */\n      tag_564\n        /* \"#utility.yul\":31122:31124   */\n      0x60\n        /* \"#utility.yul\":31111:31120   */\n      dup4\n        /* \"#utility.yul\":31107:31125   */\n      add\n        /* \"#utility.yul\":31098:31104   */\n      dup5\n        /* \"#utility.yul\":31054:31126   */\n      tag_192\n      jump\t// in\n    tag_564:\n        /* \"#utility.yul\":30489:31133   */\n      swap6\n      swap5\n      pop\n      pop\n      pop\n      pop\n      pop\n      jump\t// out\n        /* \"#utility.yul\":31139:31471   */\n    tag_129:\n        /* \"#utility.yul\":31260:31264   */\n      0x00\n        /* \"#utility.yul\":31298:31300   */\n      0x40\n        /* \"#utility.yul\":31287:31296   */\n      dup3\n        /* \"#utility.yul\":31283:31301   */\n      add\n        /* \"#utility.yul\":31275:31301   */\n      swap1\n      pop\n        /* \"#utility.yul\":31311:31382   */\n      tag_566\n        /* \"#utility.yul\":31379:31380   */\n      0x00\n        /* \"#utility.yul\":31368:31377   */\n      dup4\n        /* \"#utility.yul\":31364:31381   */\n      add\n        /* \"#utility.yul\":31355:31361   */\n      dup6\n        /* \"#utility.yul\":31311:31382   */\n      tag_185\n      jump\t// in\n    tag_566:\n        /* \"#utility.yul\":31392:31464   */\n      tag_567\n        /* \"#utility.yul\":31460:31462   */\n      0x20\n        /* \"#utility.yul\":31449:31458   */\n      dup4\n        /* \"#utility.yul\":31445:31463   */\n      add\n        /* \"#utility.yul\":31436:31442   */\n      dup5\n        /* \"#utility.yul\":31392:31464   */\n      tag_192\n      jump\t// in\n    tag_567:\n        /* \"#utility.yul\":31139:31471   */\n      swap4\n      swap3\n      pop\n      pop\n      pop\n      jump\t// out\n        /* \"#utility.yul\":31477:31919   */\n    tag_134:\n        /* \"#utility.yul\":31626:31630   */\n      0x00\n        /* \"#utility.yul\":31664:31666   */\n      0x60\n        /* \"#utility.yul\":31653:31662   */\n      dup3\n        /* \"#utility.yul\":31649:31667   */\n      add\n        /* \"#utility.yul\":31641:31667   */\n      swap1\n      pop\n        /* \"#utility.yul\":31677:31748   */\n      tag_569\n        /* \"#utility.yul\":31745:31746   */\n      0x00\n        /* \"#utility.yul\":31734:31743   */\n      dup4\n        /* \"#utility.yul\":31730:31747   */\n      add\n        /* \"#utility.yul\":31721:31727   */\n      dup7\n        /* \"#utility.yul\":31677:31748   */\n      tag_185\n      jump\t// in\n    tag_569:\n        /* \"#utility.yul\":31758:31830   */\n      tag_570\n        /* \"#utility.yul\":31826:31828   */\n      0x20\n        /* \"#utility.yul\":31815:31824   */\n      dup4\n        /* \"#utility.yul\":31811:31829   */\n      add\n        /* \"#utility.yul\":31802:31808   */\n      dup6\n        /* \"#utility.yul\":31758:31830   */\n      tag_185\n      jump\t// in\n    tag_570:\n        /* \"#utility.yul\":31840:31912   */\n      tag_571\n        /* \"#utility.yul\":31908:31910   */\n      0x40\n        /* \"#utility.yul\":31897:31906   */\n      dup4\n        /* \"#utility.yul\":31893:31911   */\n      add\n        /* \"#utility.yul\":31884:31890   */\n      dup5\n        /* \"#utility.yul\":31840:31912   */\n      tag_192\n      jump\t// in\n    tag_571:\n        /* \"#utility.yul\":31477:31919   */\n      swap5\n      swap4\n      pop\n      pop\n      pop\n      pop\n      jump\t// out\n        /* \"#utility.yul\":31925:32062   */\n    tag_261:\n        /* \"#utility.yul\":31979:31984   */\n      0x00\n        /* \"#utility.yul\":32010:32016   */\n      dup2\n        /* \"#utility.yul\":32004:32017   */\n      mload\n        /* \"#utility.yul\":31995:32017   */\n      swap1\n      pop\n        /* \"#utility.yul\":32026:32056   */\n      tag_573\n        /* \"#utility.yul\":32050:32055   */\n      dup2\n        /* \"#utility.yul\":32026:32056   */\n      tag_218\n      jump\t// in\n    tag_573:\n        /* \"#utility.yul\":31925:32062   */\n      swap3\n      swap2\n      pop\n      pop\n      jump\t// out\n        /* \"#utility.yul\":32068:32413   */\n    tag_140:\n        /* \"#utility.yul\":32135:32141   */\n      0x00\n        /* \"#utility.yul\":32184:32186   */\n      0x20\n        /* \"#utility.yul\":32172:32181   */\n      dup3\n        /* \"#utility.yul\":32163:32170   */\n      dup5\n        /* \"#utility.yul\":32159:32182   */\n      sub\n        /* \"#utility.yul\":32155:32187   */\n      slt\n        /* \"#utility.yul\":32152:32271   */\n      iszero\n      tag_575\n      jumpi\n        /* \"#utility.yul\":32190:32269   */\n      tag_576\n      tag_176\n      jump\t// in\n    tag_576:\n        /* \"#utility.yul\":32152:32271   */\n    tag_575:\n        /* \"#utility.yul\":32310:32311   */\n      0x00\n        /* \"#utility.yul\":32335:32396   */\n      tag_577\n        /* \"#utility.yul\":32388:32395   */\n      dup5\n        /* \"#utility.yul\":32379:32385   */\n      dup3\n        /* \"#utility.yul\":32368:32377   */\n      dup6\n        /* \"#utility.yul\":32364:32386   */\n      add\n        /* \"#utility.yul\":32335:32396   */\n      tag_261\n      jump\t// in\n    tag_577:\n        /* \"#utility.yul\":32325:32396   */\n      swap2\n      pop\n        /* \"#utility.yul\":32281:32406   */\n      pop\n        /* \"#utility.yul\":32068:32413   */\n      swap3\n      swap2\n      pop\n      pop\n      jump\t// out\n        /* \"#utility.yul\":32419:32648   */\n    tag_262:\n        /* \"#utility.yul\":32559:32593   */\n      0x5361666545524332303a204552433230206f7065726174696f6e20646964206e\n        /* \"#utility.yul\":32555:32556   */\n      0x00\n        /* \"#utility.yul\":32547:32553   */\n      dup3\n        /* \"#utility.yul\":32543:32557   */\n      add\n        /* \"#utility.yul\":32536:32594   */\n      mstore\n        /* \"#utility.yul\":32628:32640   */\n      0x6f74207375636365656400000000000000000000000000000000000000000000\n        /* \"#utility.yul\":32623:32625   */\n      0x20\n        /* \"#utility.yul\":32615:32621   */\n      dup3\n        /* \"#utility.yul\":32611:32626   */\n      add\n        /* \"#utility.yul\":32604:32641   */\n      mstore\n        /* \"#utility.yul\":32419:32648   */\n      pop\n      jump\t// out\n        /* \"#utility.yul\":32654:33020   */\n    tag_263:\n        /* \"#utility.yul\":32796:32799   */\n      0x00\n        /* \"#utility.yul\":32817:32884   */\n      tag_580\n        /* \"#utility.yul\":32881:32883   */\n      0x2a\n        /* \"#utility.yul\":32876:32879   */\n      dup4\n        /* \"#utility.yul\":32817:32884   */\n      tag_187\n      jump\t// in\n    tag_580:\n        /* \"#utility.yul\":32810:32884   */\n      swap2\n      pop\n        /* \"#utility.yul\":32893:32986   */\n      tag_581\n        /* \"#utility.yul\":32982:32985   */\n      dup3\n        /* \"#utility.yul\":32893:32986   */\n      tag_262\n      jump\t// in\n    tag_581:\n        /* \"#utility.yul\":33011:33013   */\n      0x40\n        /* \"#utility.yul\":33006:33009   */\n      dup3\n        /* \"#utility.yul\":33002:33014   */\n      add\n        /* \"#utility.yul\":32995:33014   */\n      swap1\n      pop\n        /* \"#utility.yul\":32654:33020   */\n      swap2\n      swap1\n      pop\n      jump\t// out\n        /* \"#utility.yul\":33026:33445   */\n    tag_143:\n        /* \"#utility.yul\":33192:33196   */\n      0x00\n        /* \"#utility.yul\":33230:33232   */\n      0x20\n        /* \"#utility.yul\":33219:33228   */\n      dup3\n        /* \"#utility.yul\":33215:33233   */\n      add\n        /* \"#utility.yul\":33207:33233   */\n      swap1\n      pop\n        /* \"#utility.yul\":33279:33288   */\n      dup2\n        /* \"#utility.yul\":33273:33277   */\n      dup2\n        /* \"#utility.yul\":33269:33289   */\n      sub\n        /* \"#utility.yul\":33265:33266   */\n      0x00\n        /* \"#utility.yul\":33254:33263   */\n      dup4\n        /* \"#utility.yul\":33250:33267   */\n      add\n        /* \"#utility.yul\":33243:33290   */\n      mstore\n        /* \"#utility.yul\":33307:33438   */\n      tag_583\n        /* \"#utility.yul\":33433:33437   */\n      dup2\n        /* \"#utility.yul\":33307:33438   */\n      tag_263\n      jump\t// in\n    tag_583:\n        /* \"#utility.yul\":33299:33438   */\n      swap1\n      pop\n        /* \"#utility.yul\":33026:33445   */\n      swap2\n      swap1\n      pop\n      jump\t// out\n        /* \"#utility.yul\":33451:33676   */\n    tag_264:\n        /* \"#utility.yul\":33591:33625   */\n      0x416464726573733a20696e73756666696369656e742062616c616e636520666f\n        /* \"#utility.yul\":33587:33588   */\n      0x00\n        /* \"#utility.yul\":33579:33585   */\n      dup3\n        /* \"#utility.yul\":33575:33589   */\n      add\n        /* \"#utility.yul\":33568:33626   */\n      mstore\n        /* \"#utility.yul\":33660:33668   */\n      0x722063616c6c0000000000000000000000000000000000000000000000000000\n        /* \"#utility.yul\":33655:33657   */\n      0x20\n        /* \"#utility.yul\":33647:33653   */\n      dup3\n        /* \"#utility.yul\":33643:33658   */\n      add\n        /* \"#utility.yul\":33636:33669   */\n      mstore\n        /* \"#utility.yul\":33451:33676   */\n      pop\n      jump\t// out\n        /* \"#utility.yul\":33682:34048   */\n    tag_265:\n        /* \"#utility.yul\":33824:33827   */\n      0x00\n        /* \"#utility.yul\":33845:33912   */\n      tag_586\n        /* \"#utility.yul\":33909:33911   */\n      0x26\n        /* \"#utility.yul\":33904:33907   */\n      dup4\n        /* \"#utility.yul\":33845:33912   */\n      tag_187\n      jump\t// in\n    tag_586:\n        /* \"#utility.yul\":33838:33912   */\n      swap2\n      pop\n        /* \"#utility.yul\":33921:34014   */\n      tag_587\n        /* \"#utility.yul\":34010:34013   */\n      dup3\n        /* \"#utility.yul\":33921:34014   */\n      tag_264\n      jump\t// in\n    tag_587:\n        /* \"#utility.yul\":34039:34041   */\n      0x40\n        /* \"#utility.yul\":34034:34037   */\n      dup3\n        /* \"#utility.yul\":34030:34042   */\n      add\n        /* \"#utility.yul\":34023:34042   */\n      swap1\n      pop\n        /* \"#utility.yul\":33682:34048   */\n      swap2\n      swap1\n      pop\n      jump\t// out\n        /* \"#utility.yul\":34054:34473   */\n    tag_150:\n        /* \"#utility.yul\":34220:34224   */\n      0x00\n        /* \"#utility.yul\":34258:34260   */\n      0x20\n        /* \"#utility.yul\":34247:34256   */\n      dup3\n        /* \"#utility.yul\":34243:34261   */\n      add\n        /* \"#utility.yul\":34235:34261   */\n      swap1\n      pop\n        /* \"#utility.yul\":34307:34316   */\n      dup2\n        /* \"#utility.yul\":34301:34305   */\n      dup2\n        /* \"#utility.yul\":34297:34317   */\n      sub\n        /* \"#utility.yul\":34293:34294   */\n      0x00\n        /* \"#utility.yul\":34282:34291   */\n      dup4\n        /* \"#utility.yul\":34278:34295   */\n      add\n        /* \"#utility.yul\":34271:34318   */\n      mstore\n        /* \"#utility.yul\":34335:34466   */\n      tag_589\n        /* \"#utility.yul\":34461:34465   */\n      dup2\n        /* \"#utility.yul\":34335:34466   */\n      tag_265\n      jump\t// in\n    tag_589:\n        /* \"#utility.yul\":34327:34466   */\n      swap1\n      pop\n        /* \"#utility.yul\":34054:34473   */\n      swap2\n      swap1\n      pop\n      jump\t// out\n        /* \"#utility.yul\":34479:34577   */\n    tag_266:\n        /* \"#utility.yul\":34530:34536   */\n      0x00\n        /* \"#utility.yul\":34564:34569   */\n      dup2\n        /* \"#utility.yul\":34558:34570   */\n      mload\n        /* \"#utility.yul\":34548:34570   */\n      swap1\n      pop\n        /* \"#utility.yul\":34479:34577   */\n      swap2\n      swap1\n      pop\n      jump\t// out\n        /* \"#utility.yul\":34583:34730   */\n    tag_267:\n        /* \"#utility.yul\":34684:34695   */\n      0x00\n        /* \"#utility.yul\":34721:34724   */\n      dup2\n        /* \"#utility.yul\":34706:34724   */\n      swap1\n      pop\n        /* \"#utility.yul\":34583:34730   */\n      swap3\n      swap2\n      pop\n      pop\n      jump\t// out\n        /* \"#utility.yul\":34736:35122   */\n    tag_268:\n        /* \"#utility.yul\":34840:34843   */\n      0x00\n        /* \"#utility.yul\":34868:34906   */\n      tag_593\n        /* \"#utility.yul\":34900:34905   */\n      dup3\n        /* \"#utility.yul\":34868:34906   */\n      tag_266\n      jump\t// in\n    tag_593:\n        /* \"#utility.yul\":34922:35010   */\n      tag_594\n        /* \"#utility.yul\":35003:35009   */\n      dup2\n        /* \"#utility.yul\":34998:35001   */\n      dup6\n        /* \"#utility.yul\":34922:35010   */\n      tag_267\n      jump\t// in\n    tag_594:\n        /* \"#utility.yul\":34915:35010   */\n      swap4\n      pop\n        /* \"#utility.yul\":35019:35084   */\n      tag_595\n        /* \"#utility.yul\":35077:35083   */\n      dup2\n        /* \"#utility.yul\":35072:35075   */\n      dup6\n        /* \"#utility.yul\":35065:35069   */\n      0x20\n        /* \"#utility.yul\":35058:35063   */\n      dup7\n        /* \"#utility.yul\":35054:35070   */\n      add\n        /* \"#utility.yul\":35019:35084   */\n      tag_188\n      jump\t// in\n    tag_595:\n        /* \"#utility.yul\":35109:35115   */\n      dup1\n        /* \"#utility.yul\":35104:35107   */\n      dup5\n        /* \"#utility.yul\":35100:35116   */\n      add\n        /* \"#utility.yul\":35093:35116   */\n      swap2\n      pop\n        /* \"#utility.yul\":34844:35122   */\n      pop\n        /* \"#utility.yul\":34736:35122   */\n      swap3\n      swap2\n      pop\n      pop\n      jump\t// out\n        /* \"#utility.yul\":35128:35399   */\n    tag_152:\n        /* \"#utility.yul\":35258:35261   */\n      0x00\n        /* \"#utility.yul\":35280:35373   */\n      tag_597\n        /* \"#utility.yul\":35369:35372   */\n      dup3\n        /* \"#utility.yul\":35360:35366   */\n      dup5\n        /* \"#utility.yul\":35280:35373   */\n      tag_268\n      jump\t// in\n    tag_597:\n        /* \"#utility.yul\":35273:35373   */\n      swap2\n      pop\n        /* \"#utility.yul\":35390:35393   */\n      dup2\n        /* \"#utility.yul\":35383:35393   */\n      swap1\n      pop\n        /* \"#utility.yul\":35128:35399   */\n      swap3\n      swap2\n      pop\n      pop\n      jump\t// out\n        /* \"#utility.yul\":35405:35584   */\n    tag_269:\n        /* \"#utility.yul\":35545:35576   */\n      0x416464726573733a2063616c6c20746f206e6f6e2d636f6e7472616374000000\n        /* \"#utility.yul\":35541:35542   */\n      0x00\n        /* \"#utility.yul\":35533:35539   */\n      dup3\n        /* \"#utility.yul\":35529:35543   */\n      add\n        /* \"#utility.yul\":35522:35577   */\n      mstore\n        /* \"#utility.yul\":35405:35584   */\n      pop\n      jump\t// out\n        /* \"#utility.yul\":35590:35956   */\n    tag_270:\n        /* \"#utility.yul\":35732:35735   */\n      0x00\n        /* \"#utility.yul\":35753:35820   */\n      tag_600\n        /* \"#utility.yul\":35817:35819   */\n      0x1d\n        /* \"#utility.yul\":35812:35815   */\n      dup4\n        /* \"#utility.yul\":35753:35820   */\n      tag_187\n      jump\t// in\n    tag_600:\n        /* \"#utility.yul\":35746:35820   */\n      swap2\n      pop\n        /* \"#utility.yul\":35829:35922   */\n      tag_601\n        /* \"#utility.yul\":35918:35921   */\n      dup3\n        /* \"#utility.yul\":35829:35922   */\n      tag_269\n      jump\t// in\n    tag_601:\n        /* \"#utility.yul\":35947:35949   */\n      0x20\n        /* \"#utility.yul\":35942:35945   */\n      dup3\n        /* \"#utility.yul\":35938:35950   */\n      add\n        /* \"#utility.yul\":35931:35950   */\n      swap1\n      pop\n        /* \"#utility.yul\":35590:35956   */\n      swap2\n      swap1\n      pop\n      jump\t// out\n        /* \"#utility.yul\":35962:36381   */\n    tag_165:\n        /* \"#utility.yul\":36128:36132   */\n      0x00\n        /* \"#utility.yul\":36166:36168   */\n      0x20\n        /* \"#utility.yul\":36155:36164   */\n      dup3\n        /* \"#utility.yul\":36151:36169   */\n      add\n        /* \"#utility.yul\":36143:36169   */\n      swap1\n      pop\n        /* \"#utility.yul\":36215:36224   */\n      dup2\n        /* \"#utility.yul\":36209:36213   */\n      dup2\n        /* \"#utility.yul\":36205:36225   */\n      sub\n        /* \"#utility.yul\":36201:36202   */\n      0x00\n        /* \"#utility.yul\":36190:36199   */\n      dup4\n        /* \"#utility.yul\":36186:36203   */\n      add\n        /* \"#utility.yul\":36179:36226   */\n      mstore\n        /* \"#utility.yul\":36243:36374   */\n      tag_603\n        /* \"#utility.yul\":36369:36373   */\n      dup2\n        /* \"#utility.yul\":36243:36374   */\n      tag_270\n      jump\t// in\n    tag_603:\n        /* \"#utility.yul\":36235:36374   */\n      swap1\n      pop\n        /* \"#utility.yul\":35962:36381   */\n      swap2\n      swap1\n      pop\n      jump\t// out\n        /* \"#utility.yul\":36387:36700   */\n    tag_174:\n        /* \"#utility.yul\":36500:36504   */\n      0x00\n        /* \"#utility.yul\":36538:36540   */\n      0x20\n        /* \"#utility.yul\":36527:36536   */\n      dup3\n        /* \"#utility.yul\":36523:36541   */\n      add\n        /* \"#utility.yul\":36515:36541   */\n      swap1\n      pop\n        /* \"#utility.yul\":36587:36596   */\n      dup2\n        /* \"#utility.yul\":36581:36585   */\n      dup2\n        /* \"#utility.yul\":36577:36597   */\n      sub\n        /* \"#utility.yul\":36573:36574   */\n      0x00\n        /* \"#utility.yul\":36562:36571   */\n      dup4\n        /* \"#utility.yul\":36558:36575   */\n      add\n        /* \"#utility.yul\":36551:36598   */\n      mstore\n        /* \"#utility.yul\":36615:36693   */\n      tag_605\n        /* \"#utility.yul\":36688:36692   */\n      dup2\n        /* \"#utility.yul\":36679:36685   */\n      dup5\n        /* \"#utility.yul\":36615:36693   */\n      tag_190\n      jump\t// in\n    tag_605:\n        /* \"#utility.yul\":36607:36693   */\n      swap1\n      pop\n        /* \"#utility.yul\":36387:36700   */\n      swap3\n      swap2\n      pop\n      pop\n      jump\t// out\n\n    auxdata: 0xa2646970667358221220d3bc0e2ea02f57cfa9f8670a5f1c29d6dfd8959a8c307e1e76eb4cfd742ed37364736f6c634300081a0033\n}\n",
				"bytecode": {
					"linkReferences": {},
					"object": "608060405234801561000f575f80fd5b506040516122bd3803806122bd833981810160405281019061003191906100d4565b805f806101000a81548173ffffffffffffffffffffffffffffffffffffffff021916908373ffffffffffffffffffffffffffffffffffffffff160217905550506100ff565b5f80fd5b5f73ffffffffffffffffffffffffffffffffffffffff82169050919050565b5f6100a38261007a565b9050919050565b6100b381610099565b81146100bd575f80fd5b50565b5f815190506100ce816100aa565b92915050565b5f602082840312156100e9576100e8610076565b5b5f6100f6848285016100c0565b91505092915050565b6121b18061010c5f395ff3fe608060405234801561000f575f80fd5b506004361061007b575f3560e01c80637f258bfb116100595780637f258bfb146100ff578063b2b3dbce1461012f578063d2b409a11461014b578063ef90dbb6146101695761007b565b80631b258d501461007f5780633d4dff7b1461009b5780635287ce12146100cf575b5f80fd5b6100996004803603810190610094919061103a565b610185565b005b6100b560048036038101906100b09190611078565b610348565b6040516100c6959493929190611154565b60405180910390f35b6100e960048036038101906100e491906111ac565b61042b565b6040516100f6919061137a565b60405180910390f35b610119600480360381019061011491906113c4565b61069b565b6040516101269190611411565b60405180910390f35b6101496004803603810190610144919061142a565b6106c6565b005b6101536107ec565b604051610160919061147a565b60405180910390f35b610183600480360381019061017e91906115e9565b61080f565b005b5f60015f8481526020019081526020015f209050806004015f9054906101000a900460ff16156101ea576040517f08c379a00000000000000000000000000000000000000000000000000000000081526004016101e1906116c6565b60405180910390fd5b3373ffffffffffffffffffffffffffffffffffffffff16815f015f9054906101000a900473ffffffffffffffffffffffffffffffffffffffff1673ffffffffffffffffffffffffffffffffffffffff161461027a576040517f08c379a000000000000000000000000000000000000000000000000000000000815260040161027190611754565b60405180910390fd5b80600301544310156102c1576040517f08c379a00000000000000000000000000000000000000000000000000000000081526004016102b8906117e2565b60405180910390fd5b6001816004015f6101000a81548160ff02191690831515021790555061030c3382600201548473ffffffffffffffffffffffffffffffffffffffff16610bc09092919063ffffffff16565b7f44654674e66e9e53d34afdf3e9513fb94b4c8b946e980d6958ef4e6a37a153e38360405161033b9190611411565b60405180910390a1505050565b6001602052805f5260405f205f91509050805f015f9054906101000a900473ffffffffffffffffffffffffffffffffffffffff169080600101805461038c9061182d565b80601f01602080910402602001604051908101604052809291908181526020018280546103b89061182d565b80156104035780601f106103da57610100808354040283529160200191610403565b820191905f5260205f20905b8154815290600101906020018083116103e657829003601f168201915b505050505090806002015490806003015490806004015f9054906101000a900460ff16905085565b60605f60025f8473ffffffffffffffffffffffffffffffffffffffff1673ffffffffffffffffffffffffffffffffffffffff1681526020019081526020015f208054806020026020016040519081016040528092919081815260200182805480156104b357602002820191905f5260205f20905b81548152602001906001019080831161049f575b505050505090505f815167ffffffffffffffff8111156104d6576104d561149b565b5b60405190808252806020026020018201604052801561050f57816020015b6104fc610f59565b8152602001906001900390816104f45790505b5090505f5b82518110156106905760015f8483815181106105335761053261185d565b5b602002602001015181526020019081526020015f206040518060a00160405290815f82015f9054906101000a900473ffffffffffffffffffffffffffffffffffffffff1673ffffffffffffffffffffffffffffffffffffffff1673ffffffffffffffffffffffffffffffffffffffff1681526020016001820180546105b79061182d565b80601f01602080910402602001604051908101604052809291908181526020018280546105e39061182d565b801561062e5780601f106106055761010080835404028352916020019161062e565b820191905f5260205f20905b81548152906001019060200180831161061157829003601f168201915b505050505081526020016002820154815260200160038201548152602001600482015f9054906101000a900460ff1615151515815250508282815181106106785761067761185d565b5b60200260200101819052508080600101915050610514565b508092505050919050565b6002602052815f5260405f2081815481106106b4575f80fd5b905f5260205f20015f91509150505481565b5f8054906101000a900473ffffffffffffffffffffffffffffffffffffffff1673ffffffffffffffffffffffffffffffffffffffff163373ffffffffffffffffffffffffffffffffffffffff1614610753576040517f08c379a000000000000000000000000000000000000000000000000000000000815260040161074a906118fa565b60405180910390fd5b5f60015f8581526020019081526020015f2090505f816002015490505f81116107b1576040517f08c379a00000000000000000000000000000000000000000000000000000000081526004016107a890611962565b60405180910390fd5b5f82600201819055506107e583828673ffffffffffffffffffffffffffffffffffffffff16610bc09092919063ffffffff16565b5050505050565b5f8054906101000a900473ffffffffffffffffffffffffffffffffffffffff1681565b5f8311610851576040517f08c379a0000000000000000000000000000000000000000000000000000000008152600401610848906119f0565b60405180910390fd5b828573ffffffffffffffffffffffffffffffffffffffff166370a08231336040518263ffffffff1660e01b815260040161088b919061147a565b602060405180830381865afa1580156108a6573d5f803e3d5ffd5b505050506040513d601f19601f820116820180604052508101906108ca9190611a22565b101561090b576040517f08c379a000000000000000000000000000000000000000000000000000000000815260040161090290611a97565b60405180910390fd5b828573ffffffffffffffffffffffffffffffffffffffff1663dd62ed3e33306040518363ffffffff1660e01b8152600401610947929190611ab5565b602060405180830381865afa158015610962573d5f803e3d5ffd5b505050506040513d601f19601f820116820180604052508101906109869190611a22565b10156109c7576040517f08c379a00000000000000000000000000000000000000000000000000000000081526004016109be90611b26565b60405180910390fd5b6109f43330858873ffffffffffffffffffffffffffffffffffffffff16610c46909392919063ffffffff16565b5f33858585604051602001610a0c9493929190611be3565b6040516020818303038152906040528051906020012090506040518060a001604052803373ffffffffffffffffffffffffffffffffffffffff1681526020018681526020018581526020018481526020015f151581525060015f8381526020019081526020015f205f820151815f015f6101000a81548173ffffffffffffffffffffffffffffffffffffffff021916908373ffffffffffffffffffffffffffffffffffffffff1602179055506020820151816001019081610acd9190611dc9565b5060408201518160020155606082015181600301556080820151816004015f6101000a81548160ff02191690831515021790555090505060025f3373ffffffffffffffffffffffffffffffffffffffff1673ffffffffffffffffffffffffffffffffffffffff1681526020019081526020015f2081908060018154018082558091505060019003905f5260205f20015f90919091909150553373ffffffffffffffffffffffffffffffffffffffff167ea1cff1b2f4bcfbf6eeee2c1d4fd6de1249eeaa035f878bd93899dc7a8348b682878787604051610bb09493929190611e98565b60405180910390a2505050505050565b610c418363a9059cbb60e01b8484604051602401610bdf929190611ee2565b604051602081830303815290604052907bffffffffffffffffffffffffffffffffffffffffffffffffffffffff19166020820180517bffffffffffffffffffffffffffffffffffffffffffffffffffffffff8381831617835250505050610ccf565b505050565b610cc9846323b872dd60e01b858585604051602401610c6793929190611f09565b604051602081830303815290604052907bffffffffffffffffffffffffffffffffffffffffffffffffffffffff19166020820180517bffffffffffffffffffffffffffffffffffffffffffffffffffffffff8381831617835250505050610ccf565b50505050565b5f610d30826040518060400160405280602081526020017f5361666545524332303a206c6f772d6c6576656c2063616c6c206661696c65648152508573ffffffffffffffffffffffffffffffffffffffff16610d949092919063ffffffff16565b90505f81511115610d8f5780806020019051810190610d4f9190611f52565b610d8e576040517f08c379a0000000000000000000000000000000000000000000000000000000008152600401610d8590611fed565b60405180910390fd5b5b505050565b6060610da284845f85610dab565b90509392505050565b606082471015610df0576040517f08c379a0000000000000000000000000000000000000000000000000000000008152600401610de79061207b565b60405180910390fd5b5f808673ffffffffffffffffffffffffffffffffffffffff168587604051610e1891906120dd565b5f6040518083038185875af1925050503d805f8114610e52576040519150601f19603f3d011682016040523d82523d5f602084013e610e57565b606091505b5091509150610e6887838387610e74565b92505050949350505050565b60608315610ed5575f835103610ecd57610e8d85610ee8565b610ecc576040517f08c379a0000000000000000000000000000000000000000000000000000000008152600401610ec39061213d565b60405180910390fd5b5b829050610ee0565b610edf8383610f0a565b5b949350505050565b5f808273ffffffffffffffffffffffffffffffffffffffff163b119050919050565b5f82511115610f1c5781518083602001fd5b806040517f08c379a0000000000000000000000000000000000000000000000000000000008152600401610f50919061215b565b60405180910390fd5b6040518060a001604052805f73ffffffffffffffffffffffffffffffffffffffff168152602001606081526020015f81526020015f81526020015f151581525090565b5f604051905090565b5f80fd5b5f80fd5b5f819050919050565b610fbf81610fad565b8114610fc9575f80fd5b50565b5f81359050610fda81610fb6565b92915050565b5f73ffffffffffffffffffffffffffffffffffffffff82169050919050565b5f61100982610fe0565b9050919050565b61101981610fff565b8114611023575f80fd5b50565b5f8135905061103481611010565b92915050565b5f80604083850312156110505761104f610fa5565b5b5f61105d85828601610fcc565b925050602061106e85828601611026565b9150509250929050565b5f6020828403121561108d5761108c610fa5565b5b5f61109a84828501610fcc565b91505092915050565b6110ac81610fff565b82525050565b5f81519050919050565b5f82825260208201905092915050565b8281835e5f83830152505050565b5f601f19601f8301169050919050565b5f6110f4826110b2565b6110fe81856110bc565b935061110e8185602086016110cc565b611117816110da565b840191505092915050565b5f819050919050565b61113481611122565b82525050565b5f8115159050919050565b61114e8161113a565b82525050565b5f60a0820190506111675f8301886110a3565b818103602083015261117981876110ea565b9050611188604083018661112b565b611195606083018561112b565b6111a26080830184611145565b9695505050505050565b5f602082840312156111c1576111c0610fa5565b5b5f6111ce84828501611026565b91505092915050565b5f81519050919050565b5f82825260208201905092915050565b5f819050602082019050919050565b61120981610fff565b82525050565b5f82825260208201905092915050565b5f611229826110b2565b611233818561120f565b93506112438185602086016110cc565b61124c816110da565b840191505092915050565b61126081611122565b82525050565b61126f8161113a565b82525050565b5f60a083015f83015161128a5f860182611200565b50602083015184820360208601526112a2828261121f565b91505060408301516112b76040860182611257565b5060608301516112ca6060860182611257565b5060808301516112dd6080860182611266565b508091505092915050565b5f6112f38383611275565b905092915050565b5f602082019050919050565b5f611311826111d7565b61131b81856111e1565b93508360208202850161132d856111f1565b805f5b85811015611368578484038952815161134985826112e8565b9450611354836112fb565b925060208a01995050600181019050611330565b50829750879550505050505092915050565b5f6020820190508181035f8301526113928184611307565b905092915050565b6113a381611122565b81146113ad575f80fd5b50565b5f813590506113be8161139a565b92915050565b5f80604083850312156113da576113d9610fa5565b5b5f6113e785828601611026565b92505060206113f8858286016113b0565b9150509250929050565b61140b81610fad565b82525050565b5f6020820190506114245f830184611402565b92915050565b5f805f6060848603121561144157611440610fa5565b5b5f61144e86828701610fcc565b935050602061145f86828701611026565b925050604061147086828701611026565b9150509250925092565b5f60208201905061148d5f8301846110a3565b92915050565b5f80fd5b5f80fd5b7f4e487b71000000000000000000000000000000000000000000000000000000005f52604160045260245ffd5b6114d1826110da565b810181811067ffffffffffffffff821117156114f0576114ef61149b565b5b80604052505050565b5f611502610f9c565b905061150e82826114c8565b919050565b5f67ffffffffffffffff82111561152d5761152c61149b565b5b611536826110da565b9050602081019050919050565b828183375f83830152505050565b5f61156361155e84611513565b6114f9565b90508281526020810184848401111561157f5761157e611497565b5b61158a848285611543565b509392505050565b5f82601f8301126115a6576115a5611493565b5b81356115b6848260208601611551565b91505092915050565b6115c88161113a565b81146115d2575f80fd5b50565b5f813590506115e3816115bf565b92915050565b5f805f805f60a0868803121561160257611601610fa5565b5b5f61160f88828901611026565b955050602086013567ffffffffffffffff8111156116305761162f610fa9565b5b61163c88828901611592565b945050604061164d888289016113b0565b935050606061165e888289016113b0565b925050608061166f888289016115d5565b9150509295509295909350565b7f4465706f73697420616c72656164792077697468647261776e2e0000000000005f82015250565b5f6116b0601a836110bc565b91506116bb8261167c565b602082019050919050565b5f6020820190508181035f8301526116dd816116a4565b9050919050565b7f4f6e6c7920746865206465706f7369746f722063616e207769746864726177205f8201527f746865206465706f7369742e0000000000000000000000000000000000000000602082015250565b5f61173e602c836110bc565b9150611749826116e4565b604082019050919050565b5f6020820190508181035f83015261176b81611732565b9050919050565b7f436f6e646974696f6e7320666f72207769746864726177616c206e6f74206d655f8201527f742e000000000000000000000000000000000000000000000000000000000000602082015250565b5f6117cc6022836110bc565b91506117d782611772565b604082019050919050565b5f6020820190508181035f8301526117f9816117c0565b9050919050565b7f4e487b71000000000000000000000000000000000000000000000000000000005f52602260045260245ffd5b5f600282049050600182168061184457607f821691505b60208210810361185757611856611800565b5b50919050565b7f4e487b71000000000000000000000000000000000000000000000000000000005f52603260045260245ffd5b7f4f6e6c792076616c69646174696f6e20636f6e74726163742063616e20636f6e5f8201527f6669736361746500000000000000000000000000000000000000000000000000602082015250565b5f6118e46027836110bc565b91506118ef8261188a565b604082019050919050565b5f6020820190508181035f830152611911816118d8565b9050919050565b7f4e6f2066756e647320746f20636f6e66697363617465000000000000000000005f82015250565b5f61194c6016836110bc565b915061195782611918565b602082019050919050565b5f6020820190508181035f83015261197981611940565b9050919050565b7f416d6f756e74206d7573742062652067726561746572207468616e207a65726f5f8201527f2e00000000000000000000000000000000000000000000000000000000000000602082015250565b5f6119da6021836110bc565b91506119e582611980565b604082019050919050565b5f6020820190508181035f830152611a07816119ce565b9050919050565b5f81519050611a1c8161139a565b92915050565b5f60208284031215611a3757611a36610fa5565b5b5f611a4484828501611a0e565b91505092915050565b7f496e73756666696369656e7420746f6b656e2062616c616e63650000000000005f82015250565b5f611a81601a836110bc565b9150611a8c82611a4d565b602082019050919050565b5f6020820190508181035f830152611aae81611a75565b9050919050565b5f604082019050611ac85f8301856110a3565b611ad560208301846110a3565b9392505050565b7f416c6c6f77616e6365206973206e6f7420656e6f7567680000000000000000005f82015250565b5f611b106017836110bc565b9150611b1b82611adc565b602082019050919050565b5f6020820190508181035f830152611b3d81611b04565b9050919050565b5f8160601b9050919050565b5f611b5a82611b44565b9050919050565b5f611b6b82611b50565b9050919050565b611b83611b7e82610fff565b611b61565b82525050565b5f81905092915050565b5f611b9d826110b2565b611ba78185611b89565b9350611bb78185602086016110cc565b80840191505092915050565b5f819050919050565b611bdd611bd882611122565b611bc3565b82525050565b5f611bee8287611b72565b601482019150611bfe8286611b93565b9150611c0a8285611bcc565b602082019150611c1a8284611bcc565b60208201915081905095945050505050565b5f819050815f5260205f209050919050565b5f6020601f8301049050919050565b5f82821b905092915050565b5f60088302611c887fffffffffffffffffffffffffffffffffffffffffffffffffffffffffffffffff82611c4d565b611c928683611c4d565b95508019841693508086168417925050509392505050565b5f819050919050565b5f611ccd611cc8611cc384611122565b611caa565b611122565b9050919050565b5f819050919050565b611ce683611cb3565b611cfa611cf282611cd4565b848454611c59565b825550505050565b5f90565b611d0e611d02565b611d19818484611cdd565b505050565b5b81811015611d3c57611d315f82611d06565b600181019050611d1f565b5050565b601f821115611d8157611d5281611c2c565b611d5b84611c3e565b81016020851015611d6a578190505b611d7e611d7685611c3e565b830182611d1e565b50505b505050565b5f82821c905092915050565b5f611da15f1984600802611d86565b1980831691505092915050565b5f611db98383611d92565b9150826002028217905092915050565b611dd2826110b2565b67ffffffffffffffff811115611deb57611dea61149b565b5b611df5825461182d565b611e00828285611d40565b5f60209050601f831160018114611e31575f8415611e1f578287015190505b611e298582611dae565b865550611e90565b601f198416611e3f86611c2c565b5f5b82811015611e6657848901518255600182019150602085019450602081019050611e41565b86831015611e835784890151611e7f601f891682611d92565b8355505b6001600288020188555050505b505050505050565b5f608082019050611eab5f830187611402565b8181036020830152611ebd81866110ea565b9050611ecc604083018561112b565b611ed9606083018461112b565b95945050505050565b5f604082019050611ef55f8301856110a3565b611f02602083018461112b565b9392505050565b5f606082019050611f1c5f8301866110a3565b611f2960208301856110a3565b611f36604083018461112b565b949350505050565b5f81519050611f4c816115bf565b92915050565b5f60208284031215611f6757611f66610fa5565b5b5f611f7484828501611f3e565b91505092915050565b7f5361666545524332303a204552433230206f7065726174696f6e20646964206e5f8201527f6f74207375636365656400000000000000000000000000000000000000000000602082015250565b5f611fd7602a836110bc565b9150611fe282611f7d565b604082019050919050565b5f6020820190508181035f83015261200481611fcb565b9050919050565b7f416464726573733a20696e73756666696369656e742062616c616e636520666f5f8201527f722063616c6c0000000000000000000000000000000000000000000000000000602082015250565b5f6120656026836110bc565b91506120708261200b565b604082019050919050565b5f6020820190508181035f83015261209281612059565b9050919050565b5f81519050919050565b5f81905092915050565b5f6120b782612099565b6120c181856120a3565b93506120d18185602086016110cc565b80840191505092915050565b5f6120e882846120ad565b915081905092915050565b7f416464726573733a2063616c6c20746f206e6f6e2d636f6e74726163740000005f82015250565b5f612127601d836110bc565b9150612132826120f3565b602082019050919050565b5f6020820190508181035f8301526121548161211b565b9050919050565b5f6020820190508181035f83015261217381846110ea565b90509291505056fea2646970667358221220d3bc0e2ea02f57cfa9f8670a5f1c29d6dfd8959a8c307e1e76eb4cfd742ed37364736f6c634300081a0033",
					"opcodes": "PUSH1 0x80 PUSH1 0x40 MSTORE CALLVALUE DUP1 ISZERO PUSH2 0xF JUMPI PUSH0 DUP1 REVERT JUMPDEST POP PUSH1 0x40 MLOAD PUSH2 0x22BD CODESIZE SUB DUP1 PUSH2 0x22BD DUP4 CODECOPY DUP2 DUP2 ADD PUSH1 0x40 MSTORE DUP2 ADD SWAP1 PUSH2 0x31 SWAP2 SWAP1 PUSH2 0xD4 JUMP JUMPDEST DUP1 PUSH0 DUP1 PUSH2 0x100 EXP DUP2 SLOAD DUP2 PUSH20 0xFFFFFFFFFFFFFFFFFFFFFFFFFFFFFFFFFFFFFFFF MUL NOT AND SWAP1 DUP4 PUSH20 0xFFFFFFFFFFFFFFFFFFFFFFFFFFFFFFFFFFFFFFFF AND MUL OR SWAP1 SSTORE POP POP PUSH2 0xFF JUMP JUMPDEST PUSH0 DUP1 REVERT JUMPDEST PUSH0 PUSH20 0xFFFFFFFFFFFFFFFFFFFFFFFFFFFFFFFFFFFFFFFF DUP3 AND SWAP1 POP SWAP2 SWAP1 POP JUMP JUMPDEST PUSH0 PUSH2 0xA3 DUP3 PUSH2 0x7A JUMP JUMPDEST SWAP1 POP SWAP2 SWAP1 POP JUMP JUMPDEST PUSH2 0xB3 DUP2 PUSH2 0x99 JUMP JUMPDEST DUP2 EQ PUSH2 0xBD JUMPI PUSH0 DUP1 REVERT JUMPDEST POP JUMP JUMPDEST PUSH0 DUP2 MLOAD SWAP1 POP PUSH2 0xCE DUP2 PUSH2 0xAA JUMP JUMPDEST SWAP3 SWAP2 POP POP JUMP JUMPDEST PUSH0 PUSH1 0x20 DUP3 DUP5 SUB SLT ISZERO PUSH2 0xE9 JUMPI PUSH2 0xE8 PUSH2 0x76 JUMP JUMPDEST JUMPDEST PUSH0 PUSH2 0xF6 DUP5 DUP3 DUP6 ADD PUSH2 0xC0 JUMP JUMPDEST SWAP2 POP POP SWAP3 SWAP2 POP POP JUMP JUMPDEST PUSH2 0x21B1 DUP1 PUSH2 0x10C PUSH0 CODECOPY PUSH0 RETURN INVALID PUSH1 0x80 PUSH1 0x40 MSTORE CALLVALUE DUP1 ISZERO PUSH2 0xF JUMPI PUSH0 DUP1 REVERT JUMPDEST POP PUSH1 0x4 CALLDATASIZE LT PUSH2 0x7B JUMPI PUSH0 CALLDATALOAD PUSH1 0xE0 SHR DUP1 PUSH4 0x7F258BFB GT PUSH2 0x59 JUMPI DUP1 PUSH4 0x7F258BFB EQ PUSH2 0xFF JUMPI DUP1 PUSH4 0xB2B3DBCE EQ PUSH2 0x12F JUMPI DUP1 PUSH4 0xD2B409A1 EQ PUSH2 0x14B JUMPI DUP1 PUSH4 0xEF90DBB6 EQ PUSH2 0x169 JUMPI PUSH2 0x7B JUMP JUMPDEST DUP1 PUSH4 0x1B258D50 EQ PUSH2 0x7F JUMPI DUP1 PUSH4 0x3D4DFF7B EQ PUSH2 0x9B JUMPI DUP1 PUSH4 0x5287CE12 EQ PUSH2 0xCF JUMPI JUMPDEST PUSH0 DUP1 REVERT JUMPDEST PUSH2 0x99 PUSH1 0x4 DUP1 CALLDATASIZE SUB DUP2 ADD SWAP1 PUSH2 0x94 SWAP2 SWAP1 PUSH2 0x103A JUMP JUMPDEST PUSH2 0x185 JUMP JUMPDEST STOP JUMPDEST PUSH2 0xB5 PUSH1 0x4 DUP1 CALLDATASIZE SUB DUP2 ADD SWAP1 PUSH2 0xB0 SWAP2 SWAP1 PUSH2 0x1078 JUMP JUMPDEST PUSH2 0x348 JUMP JUMPDEST PUSH1 0x40 MLOAD PUSH2 0xC6 SWAP6 SWAP5 SWAP4 SWAP3 SWAP2 SWAP1 PUSH2 0x1154 JUMP JUMPDEST PUSH1 0x40 MLOAD DUP1 SWAP2 SUB SWAP1 RETURN JUMPDEST PUSH2 0xE9 PUSH1 0x4 DUP1 CALLDATASIZE SUB DUP2 ADD SWAP1 PUSH2 0xE4 SWAP2 SWAP1 PUSH2 0x11AC JUMP JUMPDEST PUSH2 0x42B JUMP JUMPDEST PUSH1 0x40 MLOAD PUSH2 0xF6 SWAP2 SWAP1 PUSH2 0x137A JUMP JUMPDEST PUSH1 0x40 MLOAD DUP1 SWAP2 SUB SWAP1 RETURN JUMPDEST PUSH2 0x119 PUSH1 0x4 DUP1 CALLDATASIZE SUB DUP2 ADD SWAP1 PUSH2 0x114 SWAP2 SWAP1 PUSH2 0x13C4 JUMP JUMPDEST PUSH2 0x69B JUMP JUMPDEST PUSH1 0x40 MLOAD PUSH2 0x126 SWAP2 SWAP1 PUSH2 0x1411 JUMP JUMPDEST PUSH1 0x40 MLOAD DUP1 SWAP2 SUB SWAP1 RETURN JUMPDEST PUSH2 0x149 PUSH1 0x4 DUP1 CALLDATASIZE SUB DUP2 ADD SWAP1 PUSH2 0x144 SWAP2 SWAP1 PUSH2 0x142A JUMP JUMPDEST PUSH2 0x6C6 JUMP JUMPDEST STOP JUMPDEST PUSH2 0x153 PUSH2 0x7EC JUMP JUMPDEST PUSH1 0x40 MLOAD PUSH2 0x160 SWAP2 SWAP1 PUSH2 0x147A JUMP JUMPDEST PUSH1 0x40 MLOAD DUP1 SWAP2 SUB SWAP1 RETURN JUMPDEST PUSH2 0x183 PUSH1 0x4 DUP1 CALLDATASIZE SUB DUP2 ADD SWAP1 PUSH2 0x17E SWAP2 SWAP1 PUSH2 0x15E9 JUMP JUMPDEST PUSH2 0x80F JUMP JUMPDEST STOP JUMPDEST PUSH0 PUSH1 0x1 PUSH0 DUP5 DUP2 MSTORE PUSH1 0x20 ADD SWAP1 DUP2 MSTORE PUSH1 0x20 ADD PUSH0 KECCAK256 SWAP1 POP DUP1 PUSH1 0x4 ADD PUSH0 SWAP1 SLOAD SWAP1 PUSH2 0x100 EXP SWAP1 DIV PUSH1 0xFF AND ISZERO PUSH2 0x1EA JUMPI PUSH1 0x40 MLOAD PUSH32 0x8C379A000000000000000000000000000000000000000000000000000000000 DUP2 MSTORE PUSH1 0x4 ADD PUSH2 0x1E1 SWAP1 PUSH2 0x16C6 JUMP JUMPDEST PUSH1 0x40 MLOAD DUP1 SWAP2 SUB SWAP1 REVERT JUMPDEST CALLER PUSH20 0xFFFFFFFFFFFFFFFFFFFFFFFFFFFFFFFFFFFFFFFF AND DUP2 PUSH0 ADD PUSH0 SWAP1 SLOAD SWAP1 PUSH2 0x100 EXP SWAP1 DIV PUSH20 0xFFFFFFFFFFFFFFFFFFFFFFFFFFFFFFFFFFFFFFFF AND PUSH20 0xFFFFFFFFFFFFFFFFFFFFFFFFFFFFFFFFFFFFFFFF AND EQ PUSH2 0x27A JUMPI PUSH1 0x40 MLOAD PUSH32 0x8C379A000000000000000000000000000000000000000000000000000000000 DUP2 MSTORE PUSH1 0x4 ADD PUSH2 0x271 SWAP1 PUSH2 0x1754 JUMP JUMPDEST PUSH1 0x40 MLOAD DUP1 SWAP2 SUB SWAP1 REVERT JUMPDEST DUP1 PUSH1 0x3 ADD SLOAD NUMBER LT ISZERO PUSH2 0x2C1 JUMPI PUSH1 0x40 MLOAD PUSH32 0x8C379A000000000000000000000000000000000000000000000000000000000 DUP2 MSTORE PUSH1 0x4 ADD PUSH2 0x2B8 SWAP1 PUSH2 0x17E2 JUMP JUMPDEST PUSH1 0x40 MLOAD DUP1 SWAP2 SUB SWAP1 REVERT JUMPDEST PUSH1 0x1 DUP2 PUSH1 0x4 ADD PUSH0 PUSH2 0x100 EXP DUP2 SLOAD DUP2 PUSH1 0xFF MUL NOT AND SWAP1 DUP4 ISZERO ISZERO MUL OR SWAP1 SSTORE POP PUSH2 0x30C CALLER DUP3 PUSH1 0x2 ADD SLOAD DUP5 PUSH20 0xFFFFFFFFFFFFFFFFFFFFFFFFFFFFFFFFFFFFFFFF AND PUSH2 0xBC0 SWAP1 SWAP3 SWAP2 SWAP1 PUSH4 0xFFFFFFFF AND JUMP JUMPDEST PUSH32 0x44654674E66E9E53D34AFDF3E9513FB94B4C8B946E980D6958EF4E6A37A153E3 DUP4 PUSH1 0x40 MLOAD PUSH2 0x33B SWAP2 SWAP1 PUSH2 0x1411 JUMP JUMPDEST PUSH1 0x40 MLOAD DUP1 SWAP2 SUB SWAP1 LOG1 POP POP POP JUMP JUMPDEST PUSH1 0x1 PUSH1 0x20 MSTORE DUP1 PUSH0 MSTORE PUSH1 0x40 PUSH0 KECCAK256 PUSH0 SWAP2 POP SWAP1 POP DUP1 PUSH0 ADD PUSH0 SWAP1 SLOAD SWAP1 PUSH2 0x100 EXP SWAP1 DIV PUSH20 0xFFFFFFFFFFFFFFFFFFFFFFFFFFFFFFFFFFFFFFFF AND SWAP1 DUP1 PUSH1 0x1 ADD DUP1 SLOAD PUSH2 0x38C SWAP1 PUSH2 0x182D JUMP JUMPDEST DUP1 PUSH1 0x1F ADD PUSH1 0x20 DUP1 SWAP2 DIV MUL PUSH1 0x20 ADD PUSH1 0x40 MLOAD SWAP1 DUP2 ADD PUSH1 0x40 MSTORE DUP1 SWAP3 SWAP2 SWAP1 DUP2 DUP2 MSTORE PUSH1 0x20 ADD DUP3 DUP1 SLOAD PUSH2 0x3B8 SWAP1 PUSH2 0x182D JUMP JUMPDEST DUP1 ISZERO PUSH2 0x403 JUMPI DUP1 PUSH1 0x1F LT PUSH2 0x3DA JUMPI PUSH2 0x100 DUP1 DUP4 SLOAD DIV MUL DUP4 MSTORE SWAP2 PUSH1 0x20 ADD SWAP2 PUSH2 0x403 JUMP JUMPDEST DUP3 ADD SWAP2 SWAP1 PUSH0 MSTORE PUSH1 0x20 PUSH0 KECCAK256 SWAP1 JUMPDEST DUP2 SLOAD DUP2 MSTORE SWAP1 PUSH1 0x1 ADD SWAP1 PUSH1 0x20 ADD DUP1 DUP4 GT PUSH2 0x3E6 JUMPI DUP3 SWAP1 SUB PUSH1 0x1F AND DUP3 ADD SWAP2 JUMPDEST POP POP POP POP POP SWAP1 DUP1 PUSH1 0x2 ADD SLOAD SWAP1 DUP1 PUSH1 0x3 ADD SLOAD SWAP1 DUP1 PUSH1 0x4 ADD PUSH0 SWAP1 SLOAD SWAP1 PUSH2 0x100 EXP SWAP1 DIV PUSH1 0xFF AND SWAP1 POP DUP6 JUMP JUMPDEST PUSH1 0x60 PUSH0 PUSH1 0x2 PUSH0 DUP5 PUSH20 0xFFFFFFFFFFFFFFFFFFFFFFFFFFFFFFFFFFFFFFFF AND PUSH20 0xFFFFFFFFFFFFFFFFFFFFFFFFFFFFFFFFFFFFFFFF AND DUP2 MSTORE PUSH1 0x20 ADD SWAP1 DUP2 MSTORE PUSH1 0x20 ADD PUSH0 KECCAK256 DUP1 SLOAD DUP1 PUSH1 0x20 MUL PUSH1 0x20 ADD PUSH1 0x40 MLOAD SWAP1 DUP2 ADD PUSH1 0x40 MSTORE DUP1 SWAP3 SWAP2 SWAP1 DUP2 DUP2 MSTORE PUSH1 0x20 ADD DUP3 DUP1 SLOAD DUP1 ISZERO PUSH2 0x4B3 JUMPI PUSH1 0x20 MUL DUP3 ADD SWAP2 SWAP1 PUSH0 MSTORE PUSH1 0x20 PUSH0 KECCAK256 SWAP1 JUMPDEST DUP2 SLOAD DUP2 MSTORE PUSH1 0x20 ADD SWAP1 PUSH1 0x1 ADD SWAP1 DUP1 DUP4 GT PUSH2 0x49F JUMPI JUMPDEST POP POP POP POP POP SWAP1 POP PUSH0 DUP2 MLOAD PUSH8 0xFFFFFFFFFFFFFFFF DUP2 GT ISZERO PUSH2 0x4D6 JUMPI PUSH2 0x4D5 PUSH2 0x149B JUMP JUMPDEST JUMPDEST PUSH1 0x40 MLOAD SWAP1 DUP1 DUP3 MSTORE DUP1 PUSH1 0x20 MUL PUSH1 0x20 ADD DUP3 ADD PUSH1 0x40 MSTORE DUP1 ISZERO PUSH2 0x50F JUMPI DUP2 PUSH1 0x20 ADD JUMPDEST PUSH2 0x4FC PUSH2 0xF59 JUMP JUMPDEST DUP2 MSTORE PUSH1 0x20 ADD SWAP1 PUSH1 0x1 SWAP1 SUB SWAP1 DUP2 PUSH2 0x4F4 JUMPI SWAP1 POP JUMPDEST POP SWAP1 POP PUSH0 JUMPDEST DUP3 MLOAD DUP2 LT ISZERO PUSH2 0x690 JUMPI PUSH1 0x1 PUSH0 DUP5 DUP4 DUP2 MLOAD DUP2 LT PUSH2 0x533 JUMPI PUSH2 0x532 PUSH2 0x185D JUMP JUMPDEST JUMPDEST PUSH1 0x20 MUL PUSH1 0x20 ADD ADD MLOAD DUP2 MSTORE PUSH1 0x20 ADD SWAP1 DUP2 MSTORE PUSH1 0x20 ADD PUSH0 KECCAK256 PUSH1 0x40 MLOAD DUP1 PUSH1 0xA0 ADD PUSH1 0x40 MSTORE SWAP1 DUP2 PUSH0 DUP3 ADD PUSH0 SWAP1 SLOAD SWAP1 PUSH2 0x100 EXP SWAP1 DIV PUSH20 0xFFFFFFFFFFFFFFFFFFFFFFFFFFFFFFFFFFFFFFFF AND PUSH20 0xFFFFFFFFFFFFFFFFFFFFFFFFFFFFFFFFFFFFFFFF AND PUSH20 0xFFFFFFFFFFFFFFFFFFFFFFFFFFFFFFFFFFFFFFFF AND DUP2 MSTORE PUSH1 0x20 ADD PUSH1 0x1 DUP3 ADD DUP1 SLOAD PUSH2 0x5B7 SWAP1 PUSH2 0x182D JUMP JUMPDEST DUP1 PUSH1 0x1F ADD PUSH1 0x20 DUP1 SWAP2 DIV MUL PUSH1 0x20 ADD PUSH1 0x40 MLOAD SWAP1 DUP2 ADD PUSH1 0x40 MSTORE DUP1 SWAP3 SWAP2 SWAP1 DUP2 DUP2 MSTORE PUSH1 0x20 ADD DUP3 DUP1 SLOAD PUSH2 0x5E3 SWAP1 PUSH2 0x182D JUMP JUMPDEST DUP1 ISZERO PUSH2 0x62E JUMPI DUP1 PUSH1 0x1F LT PUSH2 0x605 JUMPI PUSH2 0x100 DUP1 DUP4 SLOAD DIV MUL DUP4 MSTORE SWAP2 PUSH1 0x20 ADD SWAP2 PUSH2 0x62E JUMP JUMPDEST DUP3 ADD SWAP2 SWAP1 PUSH0 MSTORE PUSH1 0x20 PUSH0 KECCAK256 SWAP1 JUMPDEST DUP2 SLOAD DUP2 MSTORE SWAP1 PUSH1 0x1 ADD SWAP1 PUSH1 0x20 ADD DUP1 DUP4 GT PUSH2 0x611 JUMPI DUP3 SWAP1 SUB PUSH1 0x1F AND DUP3 ADD SWAP2 JUMPDEST POP POP POP POP POP DUP2 MSTORE PUSH1 0x20 ADD PUSH1 0x2 DUP3 ADD SLOAD DUP2 MSTORE PUSH1 0x20 ADD PUSH1 0x3 DUP3 ADD SLOAD DUP2 MSTORE PUSH1 0x20 ADD PUSH1 0x4 DUP3 ADD PUSH0 SWAP1 SLOAD SWAP1 PUSH2 0x100 EXP SWAP1 DIV PUSH1 0xFF AND ISZERO ISZERO ISZERO ISZERO DUP2 MSTORE POP POP DUP3 DUP3 DUP2 MLOAD DUP2 LT PUSH2 0x678 JUMPI PUSH2 0x677 PUSH2 0x185D JUMP JUMPDEST JUMPDEST PUSH1 0x20 MUL PUSH1 0x20 ADD ADD DUP2 SWAP1 MSTORE POP DUP1 DUP1 PUSH1 0x1 ADD SWAP2 POP POP PUSH2 0x514 JUMP JUMPDEST POP DUP1 SWAP3 POP POP POP SWAP2 SWAP1 POP JUMP JUMPDEST PUSH1 0x2 PUSH1 0x20 MSTORE DUP2 PUSH0 MSTORE PUSH1 0x40 PUSH0 KECCAK256 DUP2 DUP2 SLOAD DUP2 LT PUSH2 0x6B4 JUMPI PUSH0 DUP1 REVERT JUMPDEST SWAP1 PUSH0 MSTORE PUSH1 0x20 PUSH0 KECCAK256 ADD PUSH0 SWAP2 POP SWAP2 POP POP SLOAD DUP2 JUMP JUMPDEST PUSH0 DUP1 SLOAD SWAP1 PUSH2 0x100 EXP SWAP1 DIV PUSH20 0xFFFFFFFFFFFFFFFFFFFFFFFFFFFFFFFFFFFFFFFF AND PUSH20 0xFFFFFFFFFFFFFFFFFFFFFFFFFFFFFFFFFFFFFFFF AND CALLER PUSH20 0xFFFFFFFFFFFFFFFFFFFFFFFFFFFFFFFFFFFFFFFF AND EQ PUSH2 0x753 JUMPI PUSH1 0x40 MLOAD PUSH32 0x8C379A000000000000000000000000000000000000000000000000000000000 DUP2 MSTORE PUSH1 0x4 ADD PUSH2 0x74A SWAP1 PUSH2 0x18FA JUMP JUMPDEST PUSH1 0x40 MLOAD DUP1 SWAP2 SUB SWAP1 REVERT JUMPDEST PUSH0 PUSH1 0x1 PUSH0 DUP6 DUP2 MSTORE PUSH1 0x20 ADD SWAP1 DUP2 MSTORE PUSH1 0x20 ADD PUSH0 KECCAK256 SWAP1 POP PUSH0 DUP2 PUSH1 0x2 ADD SLOAD SWAP1 POP PUSH0 DUP2 GT PUSH2 0x7B1 JUMPI PUSH1 0x40 MLOAD PUSH32 0x8C379A000000000000000000000000000000000000000000000000000000000 DUP2 MSTORE PUSH1 0x4 ADD PUSH2 0x7A8 SWAP1 PUSH2 0x1962 JUMP JUMPDEST PUSH1 0x40 MLOAD DUP1 SWAP2 SUB SWAP1 REVERT JUMPDEST PUSH0 DUP3 PUSH1 0x2 ADD DUP2 SWAP1 SSTORE POP PUSH2 0x7E5 DUP4 DUP3 DUP7 PUSH20 0xFFFFFFFFFFFFFFFFFFFFFFFFFFFFFFFFFFFFFFFF AND PUSH2 0xBC0 SWAP1 SWAP3 SWAP2 SWAP1 PUSH4 0xFFFFFFFF AND JUMP JUMPDEST POP POP POP POP POP JUMP JUMPDEST PUSH0 DUP1 SLOAD SWAP1 PUSH2 0x100 EXP SWAP1 DIV PUSH20 0xFFFFFFFFFFFFFFFFFFFFFFFFFFFFFFFFFFFFFFFF AND DUP2 JUMP JUMPDEST PUSH0 DUP4 GT PUSH2 0x851 JUMPI PUSH1 0x40 MLOAD PUSH32 0x8C379A000000000000000000000000000000000000000000000000000000000 DUP2 MSTORE PUSH1 0x4 ADD PUSH2 0x848 SWAP1 PUSH2 0x19F0 JUMP JUMPDEST PUSH1 0x40 MLOAD DUP1 SWAP2 SUB SWAP1 REVERT JUMPDEST DUP3 DUP6 PUSH20 0xFFFFFFFFFFFFFFFFFFFFFFFFFFFFFFFFFFFFFFFF AND PUSH4 0x70A08231 CALLER PUSH1 0x40 MLOAD DUP3 PUSH4 0xFFFFFFFF AND PUSH1 0xE0 SHL DUP2 MSTORE PUSH1 0x4 ADD PUSH2 0x88B SWAP2 SWAP1 PUSH2 0x147A JUMP JUMPDEST PUSH1 0x20 PUSH1 0x40 MLOAD DUP1 DUP4 SUB DUP2 DUP7 GAS STATICCALL ISZERO DUP1 ISZERO PUSH2 0x8A6 JUMPI RETURNDATASIZE PUSH0 DUP1 RETURNDATACOPY RETURNDATASIZE PUSH0 REVERT JUMPDEST POP POP POP POP PUSH1 0x40 MLOAD RETURNDATASIZE PUSH1 0x1F NOT PUSH1 0x1F DUP3 ADD AND DUP3 ADD DUP1 PUSH1 0x40 MSTORE POP DUP2 ADD SWAP1 PUSH2 0x8CA SWAP2 SWAP1 PUSH2 0x1A22 JUMP JUMPDEST LT ISZERO PUSH2 0x90B JUMPI PUSH1 0x40 MLOAD PUSH32 0x8C379A000000000000000000000000000000000000000000000000000000000 DUP2 MSTORE PUSH1 0x4 ADD PUSH2 0x902 SWAP1 PUSH2 0x1A97 JUMP JUMPDEST PUSH1 0x40 MLOAD DUP1 SWAP2 SUB SWAP1 REVERT JUMPDEST DUP3 DUP6 PUSH20 0xFFFFFFFFFFFFFFFFFFFFFFFFFFFFFFFFFFFFFFFF AND PUSH4 0xDD62ED3E CALLER ADDRESS PUSH1 0x40 MLOAD DUP4 PUSH4 0xFFFFFFFF AND PUSH1 0xE0 SHL DUP2 MSTORE PUSH1 0x4 ADD PUSH2 0x947 SWAP3 SWAP2 SWAP1 PUSH2 0x1AB5 JUMP JUMPDEST PUSH1 0x20 PUSH1 0x40 MLOAD DUP1 DUP4 SUB DUP2 DUP7 GAS STATICCALL ISZERO DUP1 ISZERO PUSH2 0x962 JUMPI RETURNDATASIZE PUSH0 DUP1 RETURNDATACOPY RETURNDATASIZE PUSH0 REVERT JUMPDEST POP POP POP POP PUSH1 0x40 MLOAD RETURNDATASIZE PUSH1 0x1F NOT PUSH1 0x1F DUP3 ADD AND DUP3 ADD DUP1 PUSH1 0x40 MSTORE POP DUP2 ADD SWAP1 PUSH2 0x986 SWAP2 SWAP1 PUSH2 0x1A22 JUMP JUMPDEST LT ISZERO PUSH2 0x9C7 JUMPI PUSH1 0x40 MLOAD PUSH32 0x8C379A000000000000000000000000000000000000000000000000000000000 DUP2 MSTORE PUSH1 0x4 ADD PUSH2 0x9BE SWAP1 PUSH2 0x1B26 JUMP JUMPDEST PUSH1 0x40 MLOAD DUP1 SWAP2 SUB SWAP1 REVERT JUMPDEST PUSH2 0x9F4 CALLER ADDRESS DUP6 DUP9 PUSH20 0xFFFFFFFFFFFFFFFFFFFFFFFFFFFFFFFFFFFFFFFF AND PUSH2 0xC46 SWAP1 SWAP4 SWAP3 SWAP2 SWAP1 PUSH4 0xFFFFFFFF AND JUMP JUMPDEST PUSH0 CALLER DUP6 DUP6 DUP6 PUSH1 0x40 MLOAD PUSH1 0x20 ADD PUSH2 0xA0C SWAP5 SWAP4 SWAP3 SWAP2 SWAP1 PUSH2 0x1BE3 JUMP JUMPDEST PUSH1 0x40 MLOAD PUSH1 0x20 DUP2 DUP4 SUB SUB DUP2 MSTORE SWAP1 PUSH1 0x40 MSTORE DUP1 MLOAD SWAP1 PUSH1 0x20 ADD KECCAK256 SWAP1 POP PUSH1 0x40 MLOAD DUP1 PUSH1 0xA0 ADD PUSH1 0x40 MSTORE DUP1 CALLER PUSH20 0xFFFFFFFFFFFFFFFFFFFFFFFFFFFFFFFFFFFFFFFF AND DUP2 MSTORE PUSH1 0x20 ADD DUP7 DUP2 MSTORE PUSH1 0x20 ADD DUP6 DUP2 MSTORE PUSH1 0x20 ADD DUP5 DUP2 MSTORE PUSH1 0x20 ADD PUSH0 ISZERO ISZERO DUP2 MSTORE POP PUSH1 0x1 PUSH0 DUP4 DUP2 MSTORE PUSH1 0x20 ADD SWAP1 DUP2 MSTORE PUSH1 0x20 ADD PUSH0 KECCAK256 PUSH0 DUP3 ADD MLOAD DUP2 PUSH0 ADD PUSH0 PUSH2 0x100 EXP DUP2 SLOAD DUP2 PUSH20 0xFFFFFFFFFFFFFFFFFFFFFFFFFFFFFFFFFFFFFFFF MUL NOT AND SWAP1 DUP4 PUSH20 0xFFFFFFFFFFFFFFFFFFFFFFFFFFFFFFFFFFFFFFFF AND MUL OR SWAP1 SSTORE POP PUSH1 0x20 DUP3 ADD MLOAD DUP2 PUSH1 0x1 ADD SWAP1 DUP2 PUSH2 0xACD SWAP2 SWAP1 PUSH2 0x1DC9 JUMP JUMPDEST POP PUSH1 0x40 DUP3 ADD MLOAD DUP2 PUSH1 0x2 ADD SSTORE PUSH1 0x60 DUP3 ADD MLOAD DUP2 PUSH1 0x3 ADD SSTORE PUSH1 0x80 DUP3 ADD MLOAD DUP2 PUSH1 0x4 ADD PUSH0 PUSH2 0x100 EXP DUP2 SLOAD DUP2 PUSH1 0xFF MUL NOT AND SWAP1 DUP4 ISZERO ISZERO MUL OR SWAP1 SSTORE POP SWAP1 POP POP PUSH1 0x2 PUSH0 CALLER PUSH20 0xFFFFFFFFFFFFFFFFFFFFFFFFFFFFFFFFFFFFFFFF AND PUSH20 0xFFFFFFFFFFFFFFFFFFFFFFFFFFFFFFFFFFFFFFFF AND DUP2 MSTORE PUSH1 0x20 ADD SWAP1 DUP2 MSTORE PUSH1 0x20 ADD PUSH0 KECCAK256 DUP2 SWAP1 DUP1 PUSH1 0x1 DUP2 SLOAD ADD DUP1 DUP3 SSTORE DUP1 SWAP2 POP POP PUSH1 0x1 SWAP1 SUB SWAP1 PUSH0 MSTORE PUSH1 0x20 PUSH0 KECCAK256 ADD PUSH0 SWAP1 SWAP2 SWAP1 SWAP2 SWAP1 SWAP2 POP SSTORE CALLER PUSH20 0xFFFFFFFFFFFFFFFFFFFFFFFFFFFFFFFFFFFFFFFF AND PUSH31 0xA1CFF1B2F4BCFBF6EEEE2C1D4FD6DE1249EEAA035F878BD93899DC7A8348B6 DUP3 DUP8 DUP8 DUP8 PUSH1 0x40 MLOAD PUSH2 0xBB0 SWAP5 SWAP4 SWAP3 SWAP2 SWAP1 PUSH2 0x1E98 JUMP JUMPDEST PUSH1 0x40 MLOAD DUP1 SWAP2 SUB SWAP1 LOG2 POP POP POP POP POP POP JUMP JUMPDEST PUSH2 0xC41 DUP4 PUSH4 0xA9059CBB PUSH1 0xE0 SHL DUP5 DUP5 PUSH1 0x40 MLOAD PUSH1 0x24 ADD PUSH2 0xBDF SWAP3 SWAP2 SWAP1 PUSH2 0x1EE2 JUMP JUMPDEST PUSH1 0x40 MLOAD PUSH1 0x20 DUP2 DUP4 SUB SUB DUP2 MSTORE SWAP1 PUSH1 0x40 MSTORE SWAP1 PUSH28 0xFFFFFFFFFFFFFFFFFFFFFFFFFFFFFFFFFFFFFFFFFFFFFFFFFFFFFFFF NOT AND PUSH1 0x20 DUP3 ADD DUP1 MLOAD PUSH28 0xFFFFFFFFFFFFFFFFFFFFFFFFFFFFFFFFFFFFFFFFFFFFFFFFFFFFFFFF DUP4 DUP2 DUP4 AND OR DUP4 MSTORE POP POP POP POP PUSH2 0xCCF JUMP JUMPDEST POP POP POP JUMP JUMPDEST PUSH2 0xCC9 DUP5 PUSH4 0x23B872DD PUSH1 0xE0 SHL DUP6 DUP6 DUP6 PUSH1 0x40 MLOAD PUSH1 0x24 ADD PUSH2 0xC67 SWAP4 SWAP3 SWAP2 SWAP1 PUSH2 0x1F09 JUMP JUMPDEST PUSH1 0x40 MLOAD PUSH1 0x20 DUP2 DUP4 SUB SUB DUP2 MSTORE SWAP1 PUSH1 0x40 MSTORE SWAP1 PUSH28 0xFFFFFFFFFFFFFFFFFFFFFFFFFFFFFFFFFFFFFFFFFFFFFFFFFFFFFFFF NOT AND PUSH1 0x20 DUP3 ADD DUP1 MLOAD PUSH28 0xFFFFFFFFFFFFFFFFFFFFFFFFFFFFFFFFFFFFFFFFFFFFFFFFFFFFFFFF DUP4 DUP2 DUP4 AND OR DUP4 MSTORE POP POP POP POP PUSH2 0xCCF JUMP JUMPDEST POP POP POP POP JUMP JUMPDEST PUSH0 PUSH2 0xD30 DUP3 PUSH1 0x40 MLOAD DUP1 PUSH1 0x40 ADD PUSH1 0x40 MSTORE DUP1 PUSH1 0x20 DUP2 MSTORE PUSH1 0x20 ADD PUSH32 0x5361666545524332303A206C6F772D6C6576656C2063616C6C206661696C6564 DUP2 MSTORE POP DUP6 PUSH20 0xFFFFFFFFFFFFFFFFFFFFFFFFFFFFFFFFFFFFFFFF AND PUSH2 0xD94 SWAP1 SWAP3 SWAP2 SWAP1 PUSH4 0xFFFFFFFF AND JUMP JUMPDEST SWAP1 POP PUSH0 DUP2 MLOAD GT ISZERO PUSH2 0xD8F JUMPI DUP1 DUP1 PUSH1 0x20 ADD SWAP1 MLOAD DUP2 ADD SWAP1 PUSH2 0xD4F SWAP2 SWAP1 PUSH2 0x1F52 JUMP JUMPDEST PUSH2 0xD8E JUMPI PUSH1 0x40 MLOAD PUSH32 0x8C379A000000000000000000000000000000000000000000000000000000000 DUP2 MSTORE PUSH1 0x4 ADD PUSH2 0xD85 SWAP1 PUSH2 0x1FED JUMP JUMPDEST PUSH1 0x40 MLOAD DUP1 SWAP2 SUB SWAP1 REVERT JUMPDEST JUMPDEST POP POP POP JUMP JUMPDEST PUSH1 0x60 PUSH2 0xDA2 DUP5 DUP5 PUSH0 DUP6 PUSH2 0xDAB JUMP JUMPDEST SWAP1 POP SWAP4 SWAP3 POP POP POP JUMP JUMPDEST PUSH1 0x60 DUP3 SELFBALANCE LT ISZERO PUSH2 0xDF0 JUMPI PUSH1 0x40 MLOAD PUSH32 0x8C379A000000000000000000000000000000000000000000000000000000000 DUP2 MSTORE PUSH1 0x4 ADD PUSH2 0xDE7 SWAP1 PUSH2 0x207B JUMP JUMPDEST PUSH1 0x40 MLOAD DUP1 SWAP2 SUB SWAP1 REVERT JUMPDEST PUSH0 DUP1 DUP7 PUSH20 0xFFFFFFFFFFFFFFFFFFFFFFFFFFFFFFFFFFFFFFFF AND DUP6 DUP8 PUSH1 0x40 MLOAD PUSH2 0xE18 SWAP2 SWAP1 PUSH2 0x20DD JUMP JUMPDEST PUSH0 PUSH1 0x40 MLOAD DUP1 DUP4 SUB DUP2 DUP6 DUP8 GAS CALL SWAP3 POP POP POP RETURNDATASIZE DUP1 PUSH0 DUP2 EQ PUSH2 0xE52 JUMPI PUSH1 0x40 MLOAD SWAP2 POP PUSH1 0x1F NOT PUSH1 0x3F RETURNDATASIZE ADD AND DUP3 ADD PUSH1 0x40 MSTORE RETURNDATASIZE DUP3 MSTORE RETURNDATASIZE PUSH0 PUSH1 0x20 DUP5 ADD RETURNDATACOPY PUSH2 0xE57 JUMP JUMPDEST PUSH1 0x60 SWAP2 POP JUMPDEST POP SWAP2 POP SWAP2 POP PUSH2 0xE68 DUP8 DUP4 DUP4 DUP8 PUSH2 0xE74 JUMP JUMPDEST SWAP3 POP POP POP SWAP5 SWAP4 POP POP POP POP JUMP JUMPDEST PUSH1 0x60 DUP4 ISZERO PUSH2 0xED5 JUMPI PUSH0 DUP4 MLOAD SUB PUSH2 0xECD JUMPI PUSH2 0xE8D DUP6 PUSH2 0xEE8 JUMP JUMPDEST PUSH2 0xECC JUMPI PUSH1 0x40 MLOAD PUSH32 0x8C379A000000000000000000000000000000000000000000000000000000000 DUP2 MSTORE PUSH1 0x4 ADD PUSH2 0xEC3 SWAP1 PUSH2 0x213D JUMP JUMPDEST PUSH1 0x40 MLOAD DUP1 SWAP2 SUB SWAP1 REVERT JUMPDEST JUMPDEST DUP3 SWAP1 POP PUSH2 0xEE0 JUMP JUMPDEST PUSH2 0xEDF DUP4 DUP4 PUSH2 0xF0A JUMP JUMPDEST JUMPDEST SWAP5 SWAP4 POP POP POP POP JUMP JUMPDEST PUSH0 DUP1 DUP3 PUSH20 0xFFFFFFFFFFFFFFFFFFFFFFFFFFFFFFFFFFFFFFFF AND EXTCODESIZE GT SWAP1 POP SWAP2 SWAP1 POP JUMP JUMPDEST PUSH0 DUP3 MLOAD GT ISZERO PUSH2 0xF1C JUMPI DUP2 MLOAD DUP1 DUP4 PUSH1 0x20 ADD REVERT JUMPDEST DUP1 PUSH1 0x40 MLOAD PUSH32 0x8C379A000000000000000000000000000000000000000000000000000000000 DUP2 MSTORE PUSH1 0x4 ADD PUSH2 0xF50 SWAP2 SWAP1 PUSH2 0x215B JUMP JUMPDEST PUSH1 0x40 MLOAD DUP1 SWAP2 SUB SWAP1 REVERT JUMPDEST PUSH1 0x40 MLOAD DUP1 PUSH1 0xA0 ADD PUSH1 0x40 MSTORE DUP1 PUSH0 PUSH20 0xFFFFFFFFFFFFFFFFFFFFFFFFFFFFFFFFFFFFFFFF AND DUP2 MSTORE PUSH1 0x20 ADD PUSH1 0x60 DUP2 MSTORE PUSH1 0x20 ADD PUSH0 DUP2 MSTORE PUSH1 0x20 ADD PUSH0 DUP2 MSTORE PUSH1 0x20 ADD PUSH0 ISZERO ISZERO DUP2 MSTORE POP SWAP1 JUMP JUMPDEST PUSH0 PUSH1 0x40 MLOAD SWAP1 POP SWAP1 JUMP JUMPDEST PUSH0 DUP1 REVERT JUMPDEST PUSH0 DUP1 REVERT JUMPDEST PUSH0 DUP2 SWAP1 POP SWAP2 SWAP1 POP JUMP JUMPDEST PUSH2 0xFBF DUP2 PUSH2 0xFAD JUMP JUMPDEST DUP2 EQ PUSH2 0xFC9 JUMPI PUSH0 DUP1 REVERT JUMPDEST POP JUMP JUMPDEST PUSH0 DUP2 CALLDATALOAD SWAP1 POP PUSH2 0xFDA DUP2 PUSH2 0xFB6 JUMP JUMPDEST SWAP3 SWAP2 POP POP JUMP JUMPDEST PUSH0 PUSH20 0xFFFFFFFFFFFFFFFFFFFFFFFFFFFFFFFFFFFFFFFF DUP3 AND SWAP1 POP SWAP2 SWAP1 POP JUMP JUMPDEST PUSH0 PUSH2 0x1009 DUP3 PUSH2 0xFE0 JUMP JUMPDEST SWAP1 POP SWAP2 SWAP1 POP JUMP JUMPDEST PUSH2 0x1019 DUP2 PUSH2 0xFFF JUMP JUMPDEST DUP2 EQ PUSH2 0x1023 JUMPI PUSH0 DUP1 REVERT JUMPDEST POP JUMP JUMPDEST PUSH0 DUP2 CALLDATALOAD SWAP1 POP PUSH2 0x1034 DUP2 PUSH2 0x1010 JUMP JUMPDEST SWAP3 SWAP2 POP POP JUMP JUMPDEST PUSH0 DUP1 PUSH1 0x40 DUP4 DUP6 SUB SLT ISZERO PUSH2 0x1050 JUMPI PUSH2 0x104F PUSH2 0xFA5 JUMP JUMPDEST JUMPDEST PUSH0 PUSH2 0x105D DUP6 DUP3 DUP7 ADD PUSH2 0xFCC JUMP JUMPDEST SWAP3 POP POP PUSH1 0x20 PUSH2 0x106E DUP6 DUP3 DUP7 ADD PUSH2 0x1026 JUMP JUMPDEST SWAP2 POP POP SWAP3 POP SWAP3 SWAP1 POP JUMP JUMPDEST PUSH0 PUSH1 0x20 DUP3 DUP5 SUB SLT ISZERO PUSH2 0x108D JUMPI PUSH2 0x108C PUSH2 0xFA5 JUMP JUMPDEST JUMPDEST PUSH0 PUSH2 0x109A DUP5 DUP3 DUP6 ADD PUSH2 0xFCC JUMP JUMPDEST SWAP2 POP POP SWAP3 SWAP2 POP POP JUMP JUMPDEST PUSH2 0x10AC DUP2 PUSH2 0xFFF JUMP JUMPDEST DUP3 MSTORE POP POP JUMP JUMPDEST PUSH0 DUP2 MLOAD SWAP1 POP SWAP2 SWAP1 POP JUMP JUMPDEST PUSH0 DUP3 DUP3 MSTORE PUSH1 0x20 DUP3 ADD SWAP1 POP SWAP3 SWAP2 POP POP JUMP JUMPDEST DUP3 DUP2 DUP4 MCOPY PUSH0 DUP4 DUP4 ADD MSTORE POP POP POP JUMP JUMPDEST PUSH0 PUSH1 0x1F NOT PUSH1 0x1F DUP4 ADD AND SWAP1 POP SWAP2 SWAP1 POP JUMP JUMPDEST PUSH0 PUSH2 0x10F4 DUP3 PUSH2 0x10B2 JUMP JUMPDEST PUSH2 0x10FE DUP2 DUP6 PUSH2 0x10BC JUMP JUMPDEST SWAP4 POP PUSH2 0x110E DUP2 DUP6 PUSH1 0x20 DUP7 ADD PUSH2 0x10CC JUMP JUMPDEST PUSH2 0x1117 DUP2 PUSH2 0x10DA JUMP JUMPDEST DUP5 ADD SWAP2 POP POP SWAP3 SWAP2 POP POP JUMP JUMPDEST PUSH0 DUP2 SWAP1 POP SWAP2 SWAP1 POP JUMP JUMPDEST PUSH2 0x1134 DUP2 PUSH2 0x1122 JUMP JUMPDEST DUP3 MSTORE POP POP JUMP JUMPDEST PUSH0 DUP2 ISZERO ISZERO SWAP1 POP SWAP2 SWAP1 POP JUMP JUMPDEST PUSH2 0x114E DUP2 PUSH2 0x113A JUMP JUMPDEST DUP3 MSTORE POP POP JUMP JUMPDEST PUSH0 PUSH1 0xA0 DUP3 ADD SWAP1 POP PUSH2 0x1167 PUSH0 DUP4 ADD DUP9 PUSH2 0x10A3 JUMP JUMPDEST DUP2 DUP2 SUB PUSH1 0x20 DUP4 ADD MSTORE PUSH2 0x1179 DUP2 DUP8 PUSH2 0x10EA JUMP JUMPDEST SWAP1 POP PUSH2 0x1188 PUSH1 0x40 DUP4 ADD DUP7 PUSH2 0x112B JUMP JUMPDEST PUSH2 0x1195 PUSH1 0x60 DUP4 ADD DUP6 PUSH2 0x112B JUMP JUMPDEST PUSH2 0x11A2 PUSH1 0x80 DUP4 ADD DUP5 PUSH2 0x1145 JUMP JUMPDEST SWAP7 SWAP6 POP POP POP POP POP POP JUMP JUMPDEST PUSH0 PUSH1 0x20 DUP3 DUP5 SUB SLT ISZERO PUSH2 0x11C1 JUMPI PUSH2 0x11C0 PUSH2 0xFA5 JUMP JUMPDEST JUMPDEST PUSH0 PUSH2 0x11CE DUP5 DUP3 DUP6 ADD PUSH2 0x1026 JUMP JUMPDEST SWAP2 POP POP SWAP3 SWAP2 POP POP JUMP JUMPDEST PUSH0 DUP2 MLOAD SWAP1 POP SWAP2 SWAP1 POP JUMP JUMPDEST PUSH0 DUP3 DUP3 MSTORE PUSH1 0x20 DUP3 ADD SWAP1 POP SWAP3 SWAP2 POP POP JUMP JUMPDEST PUSH0 DUP2 SWAP1 POP PUSH1 0x20 DUP3 ADD SWAP1 POP SWAP2 SWAP1 POP JUMP JUMPDEST PUSH2 0x1209 DUP2 PUSH2 0xFFF JUMP JUMPDEST DUP3 MSTORE POP POP JUMP JUMPDEST PUSH0 DUP3 DUP3 MSTORE PUSH1 0x20 DUP3 ADD SWAP1 POP SWAP3 SWAP2 POP POP JUMP JUMPDEST PUSH0 PUSH2 0x1229 DUP3 PUSH2 0x10B2 JUMP JUMPDEST PUSH2 0x1233 DUP2 DUP6 PUSH2 0x120F JUMP JUMPDEST SWAP4 POP PUSH2 0x1243 DUP2 DUP6 PUSH1 0x20 DUP7 ADD PUSH2 0x10CC JUMP JUMPDEST PUSH2 0x124C DUP2 PUSH2 0x10DA JUMP JUMPDEST DUP5 ADD SWAP2 POP POP SWAP3 SWAP2 POP POP JUMP JUMPDEST PUSH2 0x1260 DUP2 PUSH2 0x1122 JUMP JUMPDEST DUP3 MSTORE POP POP JUMP JUMPDEST PUSH2 0x126F DUP2 PUSH2 0x113A JUMP JUMPDEST DUP3 MSTORE POP POP JUMP JUMPDEST PUSH0 PUSH1 0xA0 DUP4 ADD PUSH0 DUP4 ADD MLOAD PUSH2 0x128A PUSH0 DUP7 ADD DUP3 PUSH2 0x1200 JUMP JUMPDEST POP PUSH1 0x20 DUP4 ADD MLOAD DUP5 DUP3 SUB PUSH1 0x20 DUP7 ADD MSTORE PUSH2 0x12A2 DUP3 DUP3 PUSH2 0x121F JUMP JUMPDEST SWAP2 POP POP PUSH1 0x40 DUP4 ADD MLOAD PUSH2 0x12B7 PUSH1 0x40 DUP7 ADD DUP3 PUSH2 0x1257 JUMP JUMPDEST POP PUSH1 0x60 DUP4 ADD MLOAD PUSH2 0x12CA PUSH1 0x60 DUP7 ADD DUP3 PUSH2 0x1257 JUMP JUMPDEST POP PUSH1 0x80 DUP4 ADD MLOAD PUSH2 0x12DD PUSH1 0x80 DUP7 ADD DUP3 PUSH2 0x1266 JUMP JUMPDEST POP DUP1 SWAP2 POP POP SWAP3 SWAP2 POP POP JUMP JUMPDEST PUSH0 PUSH2 0x12F3 DUP4 DUP4 PUSH2 0x1275 JUMP JUMPDEST SWAP1 POP SWAP3 SWAP2 POP POP JUMP JUMPDEST PUSH0 PUSH1 0x20 DUP3 ADD SWAP1 POP SWAP2 SWAP1 POP JUMP JUMPDEST PUSH0 PUSH2 0x1311 DUP3 PUSH2 0x11D7 JUMP JUMPDEST PUSH2 0x131B DUP2 DUP6 PUSH2 0x11E1 JUMP JUMPDEST SWAP4 POP DUP4 PUSH1 0x20 DUP3 MUL DUP6 ADD PUSH2 0x132D DUP6 PUSH2 0x11F1 JUMP JUMPDEST DUP1 PUSH0 JUMPDEST DUP6 DUP2 LT ISZERO PUSH2 0x1368 JUMPI DUP5 DUP5 SUB DUP10 MSTORE DUP2 MLOAD PUSH2 0x1349 DUP6 DUP3 PUSH2 0x12E8 JUMP JUMPDEST SWAP5 POP PUSH2 0x1354 DUP4 PUSH2 0x12FB JUMP JUMPDEST SWAP3 POP PUSH1 0x20 DUP11 ADD SWAP10 POP POP PUSH1 0x1 DUP2 ADD SWAP1 POP PUSH2 0x1330 JUMP JUMPDEST POP DUP3 SWAP8 POP DUP8 SWAP6 POP POP POP POP POP POP SWAP3 SWAP2 POP POP JUMP JUMPDEST PUSH0 PUSH1 0x20 DUP3 ADD SWAP1 POP DUP2 DUP2 SUB PUSH0 DUP4 ADD MSTORE PUSH2 0x1392 DUP2 DUP5 PUSH2 0x1307 JUMP JUMPDEST SWAP1 POP SWAP3 SWAP2 POP POP JUMP JUMPDEST PUSH2 0x13A3 DUP2 PUSH2 0x1122 JUMP JUMPDEST DUP2 EQ PUSH2 0x13AD JUMPI PUSH0 DUP1 REVERT JUMPDEST POP JUMP JUMPDEST PUSH0 DUP2 CALLDATALOAD SWAP1 POP PUSH2 0x13BE DUP2 PUSH2 0x139A JUMP JUMPDEST SWAP3 SWAP2 POP POP JUMP JUMPDEST PUSH0 DUP1 PUSH1 0x40 DUP4 DUP6 SUB SLT ISZERO PUSH2 0x13DA JUMPI PUSH2 0x13D9 PUSH2 0xFA5 JUMP JUMPDEST JUMPDEST PUSH0 PUSH2 0x13E7 DUP6 DUP3 DUP7 ADD PUSH2 0x1026 JUMP JUMPDEST SWAP3 POP POP PUSH1 0x20 PUSH2 0x13F8 DUP6 DUP3 DUP7 ADD PUSH2 0x13B0 JUMP JUMPDEST SWAP2 POP POP SWAP3 POP SWAP3 SWAP1 POP JUMP JUMPDEST PUSH2 0x140B DUP2 PUSH2 0xFAD JUMP JUMPDEST DUP3 MSTORE POP POP JUMP JUMPDEST PUSH0 PUSH1 0x20 DUP3 ADD SWAP1 POP PUSH2 0x1424 PUSH0 DUP4 ADD DUP5 PUSH2 0x1402 JUMP JUMPDEST SWAP3 SWAP2 POP POP JUMP JUMPDEST PUSH0 DUP1 PUSH0 PUSH1 0x60 DUP5 DUP7 SUB SLT ISZERO PUSH2 0x1441 JUMPI PUSH2 0x1440 PUSH2 0xFA5 JUMP JUMPDEST JUMPDEST PUSH0 PUSH2 0x144E DUP7 DUP3 DUP8 ADD PUSH2 0xFCC JUMP JUMPDEST SWAP4 POP POP PUSH1 0x20 PUSH2 0x145F DUP7 DUP3 DUP8 ADD PUSH2 0x1026 JUMP JUMPDEST SWAP3 POP POP PUSH1 0x40 PUSH2 0x1470 DUP7 DUP3 DUP8 ADD PUSH2 0x1026 JUMP JUMPDEST SWAP2 POP POP SWAP3 POP SWAP3 POP SWAP3 JUMP JUMPDEST PUSH0 PUSH1 0x20 DUP3 ADD SWAP1 POP PUSH2 0x148D PUSH0 DUP4 ADD DUP5 PUSH2 0x10A3 JUMP JUMPDEST SWAP3 SWAP2 POP POP JUMP JUMPDEST PUSH0 DUP1 REVERT JUMPDEST PUSH0 DUP1 REVERT JUMPDEST PUSH32 0x4E487B7100000000000000000000000000000000000000000000000000000000 PUSH0 MSTORE PUSH1 0x41 PUSH1 0x4 MSTORE PUSH1 0x24 PUSH0 REVERT JUMPDEST PUSH2 0x14D1 DUP3 PUSH2 0x10DA JUMP JUMPDEST DUP2 ADD DUP2 DUP2 LT PUSH8 0xFFFFFFFFFFFFFFFF DUP3 GT OR ISZERO PUSH2 0x14F0 JUMPI PUSH2 0x14EF PUSH2 0x149B JUMP JUMPDEST JUMPDEST DUP1 PUSH1 0x40 MSTORE POP POP POP JUMP JUMPDEST PUSH0 PUSH2 0x1502 PUSH2 0xF9C JUMP JUMPDEST SWAP1 POP PUSH2 0x150E DUP3 DUP3 PUSH2 0x14C8 JUMP JUMPDEST SWAP2 SWAP1 POP JUMP JUMPDEST PUSH0 PUSH8 0xFFFFFFFFFFFFFFFF DUP3 GT ISZERO PUSH2 0x152D JUMPI PUSH2 0x152C PUSH2 0x149B JUMP JUMPDEST JUMPDEST PUSH2 0x1536 DUP3 PUSH2 0x10DA JUMP JUMPDEST SWAP1 POP PUSH1 0x20 DUP2 ADD SWAP1 POP SWAP2 SWAP1 POP JUMP JUMPDEST DUP3 DUP2 DUP4 CALLDATACOPY PUSH0 DUP4 DUP4 ADD MSTORE POP POP POP JUMP JUMPDEST PUSH0 PUSH2 0x1563 PUSH2 0x155E DUP5 PUSH2 0x1513 JUMP JUMPDEST PUSH2 0x14F9 JUMP JUMPDEST SWAP1 POP DUP3 DUP2 MSTORE PUSH1 0x20 DUP2 ADD DUP5 DUP5 DUP5 ADD GT ISZERO PUSH2 0x157F JUMPI PUSH2 0x157E PUSH2 0x1497 JUMP JUMPDEST JUMPDEST PUSH2 0x158A DUP5 DUP3 DUP6 PUSH2 0x1543 JUMP JUMPDEST POP SWAP4 SWAP3 POP POP POP JUMP JUMPDEST PUSH0 DUP3 PUSH1 0x1F DUP4 ADD SLT PUSH2 0x15A6 JUMPI PUSH2 0x15A5 PUSH2 0x1493 JUMP JUMPDEST JUMPDEST DUP2 CALLDATALOAD PUSH2 0x15B6 DUP5 DUP3 PUSH1 0x20 DUP7 ADD PUSH2 0x1551 JUMP JUMPDEST SWAP2 POP POP SWAP3 SWAP2 POP POP JUMP JUMPDEST PUSH2 0x15C8 DUP2 PUSH2 0x113A JUMP JUMPDEST DUP2 EQ PUSH2 0x15D2 JUMPI PUSH0 DUP1 REVERT JUMPDEST POP JUMP JUMPDEST PUSH0 DUP2 CALLDATALOAD SWAP1 POP PUSH2 0x15E3 DUP2 PUSH2 0x15BF JUMP JUMPDEST SWAP3 SWAP2 POP POP JUMP JUMPDEST PUSH0 DUP1 PUSH0 DUP1 PUSH0 PUSH1 0xA0 DUP7 DUP9 SUB SLT ISZERO PUSH2 0x1602 JUMPI PUSH2 0x1601 PUSH2 0xFA5 JUMP JUMPDEST JUMPDEST PUSH0 PUSH2 0x160F DUP9 DUP3 DUP10 ADD PUSH2 0x1026 JUMP JUMPDEST SWAP6 POP POP PUSH1 0x20 DUP7 ADD CALLDATALOAD PUSH8 0xFFFFFFFFFFFFFFFF DUP2 GT ISZERO PUSH2 0x1630 JUMPI PUSH2 0x162F PUSH2 0xFA9 JUMP JUMPDEST JUMPDEST PUSH2 0x163C DUP9 DUP3 DUP10 ADD PUSH2 0x1592 JUMP JUMPDEST SWAP5 POP POP PUSH1 0x40 PUSH2 0x164D DUP9 DUP3 DUP10 ADD PUSH2 0x13B0 JUMP JUMPDEST SWAP4 POP POP PUSH1 0x60 PUSH2 0x165E DUP9 DUP3 DUP10 ADD PUSH2 0x13B0 JUMP JUMPDEST SWAP3 POP POP PUSH1 0x80 PUSH2 0x166F DUP9 DUP3 DUP10 ADD PUSH2 0x15D5 JUMP JUMPDEST SWAP2 POP POP SWAP3 SWAP6 POP SWAP3 SWAP6 SWAP1 SWAP4 POP JUMP JUMPDEST PUSH32 0x4465706F73697420616C72656164792077697468647261776E2E000000000000 PUSH0 DUP3 ADD MSTORE POP JUMP JUMPDEST PUSH0 PUSH2 0x16B0 PUSH1 0x1A DUP4 PUSH2 0x10BC JUMP JUMPDEST SWAP2 POP PUSH2 0x16BB DUP3 PUSH2 0x167C JUMP JUMPDEST PUSH1 0x20 DUP3 ADD SWAP1 POP SWAP2 SWAP1 POP JUMP JUMPDEST PUSH0 PUSH1 0x20 DUP3 ADD SWAP1 POP DUP2 DUP2 SUB PUSH0 DUP4 ADD MSTORE PUSH2 0x16DD DUP2 PUSH2 0x16A4 JUMP JUMPDEST SWAP1 POP SWAP2 SWAP1 POP JUMP JUMPDEST PUSH32 0x4F6E6C7920746865206465706F7369746F722063616E20776974686472617720 PUSH0 DUP3 ADD MSTORE PUSH32 0x746865206465706F7369742E0000000000000000000000000000000000000000 PUSH1 0x20 DUP3 ADD MSTORE POP JUMP JUMPDEST PUSH0 PUSH2 0x173E PUSH1 0x2C DUP4 PUSH2 0x10BC JUMP JUMPDEST SWAP2 POP PUSH2 0x1749 DUP3 PUSH2 0x16E4 JUMP JUMPDEST PUSH1 0x40 DUP3 ADD SWAP1 POP SWAP2 SWAP1 POP JUMP JUMPDEST PUSH0 PUSH1 0x20 DUP3 ADD SWAP1 POP DUP2 DUP2 SUB PUSH0 DUP4 ADD MSTORE PUSH2 0x176B DUP2 PUSH2 0x1732 JUMP JUMPDEST SWAP1 POP SWAP2 SWAP1 POP JUMP JUMPDEST PUSH32 0x436F6E646974696F6E7320666F72207769746864726177616C206E6F74206D65 PUSH0 DUP3 ADD MSTORE PUSH32 0x742E000000000000000000000000000000000000000000000000000000000000 PUSH1 0x20 DUP3 ADD MSTORE POP JUMP JUMPDEST PUSH0 PUSH2 0x17CC PUSH1 0x22 DUP4 PUSH2 0x10BC JUMP JUMPDEST SWAP2 POP PUSH2 0x17D7 DUP3 PUSH2 0x1772 JUMP JUMPDEST PUSH1 0x40 DUP3 ADD SWAP1 POP SWAP2 SWAP1 POP JUMP JUMPDEST PUSH0 PUSH1 0x20 DUP3 ADD SWAP1 POP DUP2 DUP2 SUB PUSH0 DUP4 ADD MSTORE PUSH2 0x17F9 DUP2 PUSH2 0x17C0 JUMP JUMPDEST SWAP1 POP SWAP2 SWAP1 POP JUMP JUMPDEST PUSH32 0x4E487B7100000000000000000000000000000000000000000000000000000000 PUSH0 MSTORE PUSH1 0x22 PUSH1 0x4 MSTORE PUSH1 0x24 PUSH0 REVERT JUMPDEST PUSH0 PUSH1 0x2 DUP3 DIV SWAP1 POP PUSH1 0x1 DUP3 AND DUP1 PUSH2 0x1844 JUMPI PUSH1 0x7F DUP3 AND SWAP2 POP JUMPDEST PUSH1 0x20 DUP3 LT DUP2 SUB PUSH2 0x1857 JUMPI PUSH2 0x1856 PUSH2 0x1800 JUMP JUMPDEST JUMPDEST POP SWAP2 SWAP1 POP JUMP JUMPDEST PUSH32 0x4E487B7100000000000000000000000000000000000000000000000000000000 PUSH0 MSTORE PUSH1 0x32 PUSH1 0x4 MSTORE PUSH1 0x24 PUSH0 REVERT JUMPDEST PUSH32 0x4F6E6C792076616C69646174696F6E20636F6E74726163742063616E20636F6E PUSH0 DUP3 ADD MSTORE PUSH32 0x6669736361746500000000000000000000000000000000000000000000000000 PUSH1 0x20 DUP3 ADD MSTORE POP JUMP JUMPDEST PUSH0 PUSH2 0x18E4 PUSH1 0x27 DUP4 PUSH2 0x10BC JUMP JUMPDEST SWAP2 POP PUSH2 0x18EF DUP3 PUSH2 0x188A JUMP JUMPDEST PUSH1 0x40 DUP3 ADD SWAP1 POP SWAP2 SWAP1 POP JUMP JUMPDEST PUSH0 PUSH1 0x20 DUP3 ADD SWAP1 POP DUP2 DUP2 SUB PUSH0 DUP4 ADD MSTORE PUSH2 0x1911 DUP2 PUSH2 0x18D8 JUMP JUMPDEST SWAP1 POP SWAP2 SWAP1 POP JUMP JUMPDEST PUSH32 0x4E6F2066756E647320746F20636F6E6669736361746500000000000000000000 PUSH0 DUP3 ADD MSTORE POP JUMP JUMPDEST PUSH0 PUSH2 0x194C PUSH1 0x16 DUP4 PUSH2 0x10BC JUMP JUMPDEST SWAP2 POP PUSH2 0x1957 DUP3 PUSH2 0x1918 JUMP JUMPDEST PUSH1 0x20 DUP3 ADD SWAP1 POP SWAP2 SWAP1 POP JUMP JUMPDEST PUSH0 PUSH1 0x20 DUP3 ADD SWAP1 POP DUP2 DUP2 SUB PUSH0 DUP4 ADD MSTORE PUSH2 0x1979 DUP2 PUSH2 0x1940 JUMP JUMPDEST SWAP1 POP SWAP2 SWAP1 POP JUMP JUMPDEST PUSH32 0x416D6F756E74206D7573742062652067726561746572207468616E207A65726F PUSH0 DUP3 ADD MSTORE PUSH32 0x2E00000000000000000000000000000000000000000000000000000000000000 PUSH1 0x20 DUP3 ADD MSTORE POP JUMP JUMPDEST PUSH0 PUSH2 0x19DA PUSH1 0x21 DUP4 PUSH2 0x10BC JUMP JUMPDEST SWAP2 POP PUSH2 0x19E5 DUP3 PUSH2 0x1980 JUMP JUMPDEST PUSH1 0x40 DUP3 ADD SWAP1 POP SWAP2 SWAP1 POP JUMP JUMPDEST PUSH0 PUSH1 0x20 DUP3 ADD SWAP1 POP DUP2 DUP2 SUB PUSH0 DUP4 ADD MSTORE PUSH2 0x1A07 DUP2 PUSH2 0x19CE JUMP JUMPDEST SWAP1 POP SWAP2 SWAP1 POP JUMP JUMPDEST PUSH0 DUP2 MLOAD SWAP1 POP PUSH2 0x1A1C DUP2 PUSH2 0x139A JUMP JUMPDEST SWAP3 SWAP2 POP POP JUMP JUMPDEST PUSH0 PUSH1 0x20 DUP3 DUP5 SUB SLT ISZERO PUSH2 0x1A37 JUMPI PUSH2 0x1A36 PUSH2 0xFA5 JUMP JUMPDEST JUMPDEST PUSH0 PUSH2 0x1A44 DUP5 DUP3 DUP6 ADD PUSH2 0x1A0E JUMP JUMPDEST SWAP2 POP POP SWAP3 SWAP2 POP POP JUMP JUMPDEST PUSH32 0x496E73756666696369656E7420746F6B656E2062616C616E6365000000000000 PUSH0 DUP3 ADD MSTORE POP JUMP JUMPDEST PUSH0 PUSH2 0x1A81 PUSH1 0x1A DUP4 PUSH2 0x10BC JUMP JUMPDEST SWAP2 POP PUSH2 0x1A8C DUP3 PUSH2 0x1A4D JUMP JUMPDEST PUSH1 0x20 DUP3 ADD SWAP1 POP SWAP2 SWAP1 POP JUMP JUMPDEST PUSH0 PUSH1 0x20 DUP3 ADD SWAP1 POP DUP2 DUP2 SUB PUSH0 DUP4 ADD MSTORE PUSH2 0x1AAE DUP2 PUSH2 0x1A75 JUMP JUMPDEST SWAP1 POP SWAP2 SWAP1 POP JUMP JUMPDEST PUSH0 PUSH1 0x40 DUP3 ADD SWAP1 POP PUSH2 0x1AC8 PUSH0 DUP4 ADD DUP6 PUSH2 0x10A3 JUMP JUMPDEST PUSH2 0x1AD5 PUSH1 0x20 DUP4 ADD DUP5 PUSH2 0x10A3 JUMP JUMPDEST SWAP4 SWAP3 POP POP POP JUMP JUMPDEST PUSH32 0x416C6C6F77616E6365206973206E6F7420656E6F756768000000000000000000 PUSH0 DUP3 ADD MSTORE POP JUMP JUMPDEST PUSH0 PUSH2 0x1B10 PUSH1 0x17 DUP4 PUSH2 0x10BC JUMP JUMPDEST SWAP2 POP PUSH2 0x1B1B DUP3 PUSH2 0x1ADC JUMP JUMPDEST PUSH1 0x20 DUP3 ADD SWAP1 POP SWAP2 SWAP1 POP JUMP JUMPDEST PUSH0 PUSH1 0x20 DUP3 ADD SWAP1 POP DUP2 DUP2 SUB PUSH0 DUP4 ADD MSTORE PUSH2 0x1B3D DUP2 PUSH2 0x1B04 JUMP JUMPDEST SWAP1 POP SWAP2 SWAP1 POP JUMP JUMPDEST PUSH0 DUP2 PUSH1 0x60 SHL SWAP1 POP SWAP2 SWAP1 POP JUMP JUMPDEST PUSH0 PUSH2 0x1B5A DUP3 PUSH2 0x1B44 JUMP JUMPDEST SWAP1 POP SWAP2 SWAP1 POP JUMP JUMPDEST PUSH0 PUSH2 0x1B6B DUP3 PUSH2 0x1B50 JUMP JUMPDEST SWAP1 POP SWAP2 SWAP1 POP JUMP JUMPDEST PUSH2 0x1B83 PUSH2 0x1B7E DUP3 PUSH2 0xFFF JUMP JUMPDEST PUSH2 0x1B61 JUMP JUMPDEST DUP3 MSTORE POP POP JUMP JUMPDEST PUSH0 DUP2 SWAP1 POP SWAP3 SWAP2 POP POP JUMP JUMPDEST PUSH0 PUSH2 0x1B9D DUP3 PUSH2 0x10B2 JUMP JUMPDEST PUSH2 0x1BA7 DUP2 DUP6 PUSH2 0x1B89 JUMP JUMPDEST SWAP4 POP PUSH2 0x1BB7 DUP2 DUP6 PUSH1 0x20 DUP7 ADD PUSH2 0x10CC JUMP JUMPDEST DUP1 DUP5 ADD SWAP2 POP POP SWAP3 SWAP2 POP POP JUMP JUMPDEST PUSH0 DUP2 SWAP1 POP SWAP2 SWAP1 POP JUMP JUMPDEST PUSH2 0x1BDD PUSH2 0x1BD8 DUP3 PUSH2 0x1122 JUMP JUMPDEST PUSH2 0x1BC3 JUMP JUMPDEST DUP3 MSTORE POP POP JUMP JUMPDEST PUSH0 PUSH2 0x1BEE DUP3 DUP8 PUSH2 0x1B72 JUMP JUMPDEST PUSH1 0x14 DUP3 ADD SWAP2 POP PUSH2 0x1BFE DUP3 DUP7 PUSH2 0x1B93 JUMP JUMPDEST SWAP2 POP PUSH2 0x1C0A DUP3 DUP6 PUSH2 0x1BCC JUMP JUMPDEST PUSH1 0x20 DUP3 ADD SWAP2 POP PUSH2 0x1C1A DUP3 DUP5 PUSH2 0x1BCC JUMP JUMPDEST PUSH1 0x20 DUP3 ADD SWAP2 POP DUP2 SWAP1 POP SWAP6 SWAP5 POP POP POP POP POP JUMP JUMPDEST PUSH0 DUP2 SWAP1 POP DUP2 PUSH0 MSTORE PUSH1 0x20 PUSH0 KECCAK256 SWAP1 POP SWAP2 SWAP1 POP JUMP JUMPDEST PUSH0 PUSH1 0x20 PUSH1 0x1F DUP4 ADD DIV SWAP1 POP SWAP2 SWAP1 POP JUMP JUMPDEST PUSH0 DUP3 DUP3 SHL SWAP1 POP SWAP3 SWAP2 POP POP JUMP JUMPDEST PUSH0 PUSH1 0x8 DUP4 MUL PUSH2 0x1C88 PUSH32 0xFFFFFFFFFFFFFFFFFFFFFFFFFFFFFFFFFFFFFFFFFFFFFFFFFFFFFFFFFFFFFFFF DUP3 PUSH2 0x1C4D JUMP JUMPDEST PUSH2 0x1C92 DUP7 DUP4 PUSH2 0x1C4D JUMP JUMPDEST SWAP6 POP DUP1 NOT DUP5 AND SWAP4 POP DUP1 DUP7 AND DUP5 OR SWAP3 POP POP POP SWAP4 SWAP3 POP POP POP JUMP JUMPDEST PUSH0 DUP2 SWAP1 POP SWAP2 SWAP1 POP JUMP JUMPDEST PUSH0 PUSH2 0x1CCD PUSH2 0x1CC8 PUSH2 0x1CC3 DUP5 PUSH2 0x1122 JUMP JUMPDEST PUSH2 0x1CAA JUMP JUMPDEST PUSH2 0x1122 JUMP JUMPDEST SWAP1 POP SWAP2 SWAP1 POP JUMP JUMPDEST PUSH0 DUP2 SWAP1 POP SWAP2 SWAP1 POP JUMP JUMPDEST PUSH2 0x1CE6 DUP4 PUSH2 0x1CB3 JUMP JUMPDEST PUSH2 0x1CFA PUSH2 0x1CF2 DUP3 PUSH2 0x1CD4 JUMP JUMPDEST DUP5 DUP5 SLOAD PUSH2 0x1C59 JUMP JUMPDEST DUP3 SSTORE POP POP POP POP JUMP JUMPDEST PUSH0 SWAP1 JUMP JUMPDEST PUSH2 0x1D0E PUSH2 0x1D02 JUMP JUMPDEST PUSH2 0x1D19 DUP2 DUP5 DUP5 PUSH2 0x1CDD JUMP JUMPDEST POP POP POP JUMP JUMPDEST JUMPDEST DUP2 DUP2 LT ISZERO PUSH2 0x1D3C JUMPI PUSH2 0x1D31 PUSH0 DUP3 PUSH2 0x1D06 JUMP JUMPDEST PUSH1 0x1 DUP2 ADD SWAP1 POP PUSH2 0x1D1F JUMP JUMPDEST POP POP JUMP JUMPDEST PUSH1 0x1F DUP3 GT ISZERO PUSH2 0x1D81 JUMPI PUSH2 0x1D52 DUP2 PUSH2 0x1C2C JUMP JUMPDEST PUSH2 0x1D5B DUP5 PUSH2 0x1C3E JUMP JUMPDEST DUP2 ADD PUSH1 0x20 DUP6 LT ISZERO PUSH2 0x1D6A JUMPI DUP2 SWAP1 POP JUMPDEST PUSH2 0x1D7E PUSH2 0x1D76 DUP6 PUSH2 0x1C3E JUMP JUMPDEST DUP4 ADD DUP3 PUSH2 0x1D1E JUMP JUMPDEST POP POP JUMPDEST POP POP POP JUMP JUMPDEST PUSH0 DUP3 DUP3 SHR SWAP1 POP SWAP3 SWAP2 POP POP JUMP JUMPDEST PUSH0 PUSH2 0x1DA1 PUSH0 NOT DUP5 PUSH1 0x8 MUL PUSH2 0x1D86 JUMP JUMPDEST NOT DUP1 DUP4 AND SWAP2 POP POP SWAP3 SWAP2 POP POP JUMP JUMPDEST PUSH0 PUSH2 0x1DB9 DUP4 DUP4 PUSH2 0x1D92 JUMP JUMPDEST SWAP2 POP DUP3 PUSH1 0x2 MUL DUP3 OR SWAP1 POP SWAP3 SWAP2 POP POP JUMP JUMPDEST PUSH2 0x1DD2 DUP3 PUSH2 0x10B2 JUMP JUMPDEST PUSH8 0xFFFFFFFFFFFFFFFF DUP2 GT ISZERO PUSH2 0x1DEB JUMPI PUSH2 0x1DEA PUSH2 0x149B JUMP JUMPDEST JUMPDEST PUSH2 0x1DF5 DUP3 SLOAD PUSH2 0x182D JUMP JUMPDEST PUSH2 0x1E00 DUP3 DUP3 DUP6 PUSH2 0x1D40 JUMP JUMPDEST PUSH0 PUSH1 0x20 SWAP1 POP PUSH1 0x1F DUP4 GT PUSH1 0x1 DUP2 EQ PUSH2 0x1E31 JUMPI PUSH0 DUP5 ISZERO PUSH2 0x1E1F JUMPI DUP3 DUP8 ADD MLOAD SWAP1 POP JUMPDEST PUSH2 0x1E29 DUP6 DUP3 PUSH2 0x1DAE JUMP JUMPDEST DUP7 SSTORE POP PUSH2 0x1E90 JUMP JUMPDEST PUSH1 0x1F NOT DUP5 AND PUSH2 0x1E3F DUP7 PUSH2 0x1C2C JUMP JUMPDEST PUSH0 JUMPDEST DUP3 DUP2 LT ISZERO PUSH2 0x1E66 JUMPI DUP5 DUP10 ADD MLOAD DUP3 SSTORE PUSH1 0x1 DUP3 ADD SWAP2 POP PUSH1 0x20 DUP6 ADD SWAP5 POP PUSH1 0x20 DUP2 ADD SWAP1 POP PUSH2 0x1E41 JUMP JUMPDEST DUP7 DUP4 LT ISZERO PUSH2 0x1E83 JUMPI DUP5 DUP10 ADD MLOAD PUSH2 0x1E7F PUSH1 0x1F DUP10 AND DUP3 PUSH2 0x1D92 JUMP JUMPDEST DUP4 SSTORE POP JUMPDEST PUSH1 0x1 PUSH1 0x2 DUP9 MUL ADD DUP9 SSTORE POP POP POP JUMPDEST POP POP POP POP POP POP JUMP JUMPDEST PUSH0 PUSH1 0x80 DUP3 ADD SWAP1 POP PUSH2 0x1EAB PUSH0 DUP4 ADD DUP8 PUSH2 0x1402 JUMP JUMPDEST DUP2 DUP2 SUB PUSH1 0x20 DUP4 ADD MSTORE PUSH2 0x1EBD DUP2 DUP7 PUSH2 0x10EA JUMP JUMPDEST SWAP1 POP PUSH2 0x1ECC PUSH1 0x40 DUP4 ADD DUP6 PUSH2 0x112B JUMP JUMPDEST PUSH2 0x1ED9 PUSH1 0x60 DUP4 ADD DUP5 PUSH2 0x112B JUMP JUMPDEST SWAP6 SWAP5 POP POP POP POP POP JUMP JUMPDEST PUSH0 PUSH1 0x40 DUP3 ADD SWAP1 POP PUSH2 0x1EF5 PUSH0 DUP4 ADD DUP6 PUSH2 0x10A3 JUMP JUMPDEST PUSH2 0x1F02 PUSH1 0x20 DUP4 ADD DUP5 PUSH2 0x112B JUMP JUMPDEST SWAP4 SWAP3 POP POP POP JUMP JUMPDEST PUSH0 PUSH1 0x60 DUP3 ADD SWAP1 POP PUSH2 0x1F1C PUSH0 DUP4 ADD DUP7 PUSH2 0x10A3 JUMP JUMPDEST PUSH2 0x1F29 PUSH1 0x20 DUP4 ADD DUP6 PUSH2 0x10A3 JUMP JUMPDEST PUSH2 0x1F36 PUSH1 0x40 DUP4 ADD DUP5 PUSH2 0x112B JUMP JUMPDEST SWAP5 SWAP4 POP POP POP POP JUMP JUMPDEST PUSH0 DUP2 MLOAD SWAP1 POP PUSH2 0x1F4C DUP2 PUSH2 0x15BF JUMP JUMPDEST SWAP3 SWAP2 POP POP JUMP JUMPDEST PUSH0 PUSH1 0x20 DUP3 DUP5 SUB SLT ISZERO PUSH2 0x1F67 JUMPI PUSH2 0x1F66 PUSH2 0xFA5 JUMP JUMPDEST JUMPDEST PUSH0 PUSH2 0x1F74 DUP5 DUP3 DUP6 ADD PUSH2 0x1F3E JUMP JUMPDEST SWAP2 POP POP SWAP3 SWAP2 POP POP JUMP JUMPDEST PUSH32 0x5361666545524332303A204552433230206F7065726174696F6E20646964206E PUSH0 DUP3 ADD MSTORE PUSH32 0x6F74207375636365656400000000000000000000000000000000000000000000 PUSH1 0x20 DUP3 ADD MSTORE POP JUMP JUMPDEST PUSH0 PUSH2 0x1FD7 PUSH1 0x2A DUP4 PUSH2 0x10BC JUMP JUMPDEST SWAP2 POP PUSH2 0x1FE2 DUP3 PUSH2 0x1F7D JUMP JUMPDEST PUSH1 0x40 DUP3 ADD SWAP1 POP SWAP2 SWAP1 POP JUMP JUMPDEST PUSH0 PUSH1 0x20 DUP3 ADD SWAP1 POP DUP2 DUP2 SUB PUSH0 DUP4 ADD MSTORE PUSH2 0x2004 DUP2 PUSH2 0x1FCB JUMP JUMPDEST SWAP1 POP SWAP2 SWAP1 POP JUMP JUMPDEST PUSH32 0x416464726573733A20696E73756666696369656E742062616C616E636520666F PUSH0 DUP3 ADD MSTORE PUSH32 0x722063616C6C0000000000000000000000000000000000000000000000000000 PUSH1 0x20 DUP3 ADD MSTORE POP JUMP JUMPDEST PUSH0 PUSH2 0x2065 PUSH1 0x26 DUP4 PUSH2 0x10BC JUMP JUMPDEST SWAP2 POP PUSH2 0x2070 DUP3 PUSH2 0x200B JUMP JUMPDEST PUSH1 0x40 DUP3 ADD SWAP1 POP SWAP2 SWAP1 POP JUMP JUMPDEST PUSH0 PUSH1 0x20 DUP3 ADD SWAP1 POP DUP2 DUP2 SUB PUSH0 DUP4 ADD MSTORE PUSH2 0x2092 DUP2 PUSH2 0x2059 JUMP JUMPDEST SWAP1 POP SWAP2 SWAP1 POP JUMP JUMPDEST PUSH0 DUP2 MLOAD SWAP1 POP SWAP2 SWAP1 POP JUMP JUMPDEST PUSH0 DUP2 SWAP1 POP SWAP3 SWAP2 POP POP JUMP JUMPDEST PUSH0 PUSH2 0x20B7 DUP3 PUSH2 0x2099 JUMP JUMPDEST PUSH2 0x20C1 DUP2 DUP6 PUSH2 0x20A3 JUMP JUMPDEST SWAP4 POP PUSH2 0x20D1 DUP2 DUP6 PUSH1 0x20 DUP7 ADD PUSH2 0x10CC JUMP JUMPDEST DUP1 DUP5 ADD SWAP2 POP POP SWAP3 SWAP2 POP POP JUMP JUMPDEST PUSH0 PUSH2 0x20E8 DUP3 DUP5 PUSH2 0x20AD JUMP JUMPDEST SWAP2 POP DUP2 SWAP1 POP SWAP3 SWAP2 POP POP JUMP JUMPDEST PUSH32 0x416464726573733A2063616C6C20746F206E6F6E2D636F6E7472616374000000 PUSH0 DUP3 ADD MSTORE POP JUMP JUMPDEST PUSH0 PUSH2 0x2127 PUSH1 0x1D DUP4 PUSH2 0x10BC JUMP JUMPDEST SWAP2 POP PUSH2 0x2132 DUP3 PUSH2 0x20F3 JUMP JUMPDEST PUSH1 0x20 DUP3 ADD SWAP1 POP SWAP2 SWAP1 POP JUMP JUMPDEST PUSH0 PUSH1 0x20 DUP3 ADD SWAP1 POP DUP2 DUP2 SUB PUSH0 DUP4 ADD MSTORE PUSH2 0x2154 DUP2 PUSH2 0x211B JUMP JUMPDEST SWAP1 POP SWAP2 SWAP1 POP JUMP JUMPDEST PUSH0 PUSH1 0x20 DUP3 ADD SWAP1 POP DUP2 DUP2 SUB PUSH0 DUP4 ADD MSTORE PUSH2 0x2173 DUP2 DUP5 PUSH2 0x10EA JUMP JUMPDEST SWAP1 POP SWAP3 SWAP2 POP POP JUMP INVALID LOG2 PUSH5 0x6970667358 0x22 SLT KECCAK256 0xD3 0xBC 0xE 0x2E LOG0 0x2F JUMPI 0xCF 0xA9 0xF8 PUSH8 0xA5F1C29D6DFD895 SWAP11 DUP13 ADDRESS PUSH31 0x1E76EB4CFD742ED37364736F6C634300081A00330000000000000000000000 "
				},
				"gasEstimates": {
					"creation": {
						"codeDepositCost": "1725000",
						"executionCost": "infinite",
						"totalCost": "infinite"
					},
					"external": {
						"confiscateAndWithdraw(bytes32,address,address)": "infinite",
						"deposit(address,string,uint256,uint256,bool)": "infinite",
						"deposits(bytes32)": "infinite",
						"depositsByAddress(address,uint256)": "5151",
						"getDepositInfo(address)": "infinite",
						"validationContract()": "2549",
						"withdraw(bytes32,address)": "infinite"
					}
				},
				"methodIdentifiers": {
					"confiscateAndWithdraw(bytes32,address,address)": "b2b3dbce",
					"deposit(address,string,uint256,uint256,bool)": "ef90dbb6",
					"deposits(bytes32)": "3d4dff7b",
					"depositsByAddress(address,uint256)": "7f258bfb",
					"getDepositInfo(address)": "5287ce12",
					"validationContract()": "d2b409a1",
					"withdraw(bytes32,address)": "1b258d50"
				}
			},
			"storageLayout": {
				"storage": [
					{
						"astId": 734,
						"contract": "trustless cross-chain/trading pair formation/TokenDeposit.sol:TokenDeposit",
						"label": "validationContract",
						"offset": 0,
						"slot": "0",
						"type": "t_address"
					},
					{
						"astId": 750,
						"contract": "trustless cross-chain/trading pair formation/TokenDeposit.sol:TokenDeposit",
						"label": "deposits",
						"offset": 0,
						"slot": "1",
						"type": "t_mapping(t_bytes32,t_struct(Deposit)745_storage)"
					},
					{
						"astId": 755,
						"contract": "trustless cross-chain/trading pair formation/TokenDeposit.sol:TokenDeposit",
						"label": "depositsByAddress",
						"offset": 0,
						"slot": "2",
						"type": "t_mapping(t_address,t_array(t_bytes32)dyn_storage)"
					}
				],
				"types": {
					"t_address": {
						"encoding": "inplace",
						"label": "address",
						"numberOfBytes": "20"
					},
					"t_array(t_bytes32)dyn_storage": {
						"base": "t_bytes32",
						"encoding": "dynamic_array",
						"label": "bytes32[]",
						"numberOfBytes": "32"
					},
					"t_bool": {
						"encoding": "inplace",
						"label": "bool",
						"numberOfBytes": "1"
					},
					"t_bytes32": {
						"encoding": "inplace",
						"label": "bytes32",
						"numberOfBytes": "32"
					},
					"t_mapping(t_address,t_array(t_bytes32)dyn_storage)": {
						"encoding": "mapping",
						"key": "t_address",
						"label": "mapping(address => bytes32[])",
						"numberOfBytes": "32",
						"value": "t_array(t_bytes32)dyn_storage"
					},
					"t_mapping(t_bytes32,t_struct(Deposit)745_storage)": {
						"encoding": "mapping",
						"key": "t_bytes32",
						"label": "mapping(bytes32 => struct TokenDeposit.Deposit)",
						"numberOfBytes": "32",
						"value": "t_struct(Deposit)745_storage"
					},
					"t_string_storage": {
						"encoding": "bytes",
						"label": "string",
						"numberOfBytes": "32"
					},
					"t_struct(Deposit)745_storage": {
						"encoding": "inplace",
						"label": "struct TokenDeposit.Deposit",
						"members": [
							{
								"astId": 736,
								"contract": "trustless cross-chain/trading pair formation/TokenDeposit.sol:TokenDeposit",
								"label": "depositor",
								"offset": 0,
								"slot": "0",
								"type": "t_address"
							},
							{
								"astId": 738,
								"contract": "trustless cross-chain/trading pair formation/TokenDeposit.sol:TokenDeposit",
								"label": "symbol",
								"offset": 0,
								"slot": "1",
								"type": "t_string_storage"
							},
							{
								"astId": 740,
								"contract": "trustless cross-chain/trading pair formation/TokenDeposit.sol:TokenDeposit",
								"label": "amount",
								"offset": 0,
								"slot": "2",
								"type": "t_uint256"
							},
							{
								"astId": 742,
								"contract": "trustless cross-chain/trading pair formation/TokenDeposit.sol:TokenDeposit",
								"label": "blockNumber",
								"offset": 0,
								"slot": "3",
								"type": "t_uint256"
							},
							{
								"astId": 744,
								"contract": "trustless cross-chain/trading pair formation/TokenDeposit.sol:TokenDeposit",
								"label": "withdrawn",
								"offset": 0,
								"slot": "4",
								"type": "t_bool"
							}
						],
						"numberOfBytes": "160"
					},
					"t_uint256": {
						"encoding": "inplace",
						"label": "uint256",
						"numberOfBytes": "32"
					}
				}
			},
			"userdoc": {
				"kind": "user",
				"methods": {},
				"version": 1
			}
		}
	}
}