{
	"trustless cross-chain/trading pair formation/DpositforNFD.sol": {
		"Deposit": {
			"abi": [
				{
					"anonymous": false,
					"inputs": [
						{
							"indexed": true,
							"internalType": "address",
							"name": "previousOwner",
							"type": "address"
						},
						{
							"indexed": true,
							"internalType": "address",
							"name": "newOwner",
							"type": "address"
						}
					],
					"name": "OwnershipTransferred",
					"type": "event"
				},
				{
					"inputs": [
						{
							"internalType": "address",
							"name": "tokenAddress",
							"type": "address"
						},
						{
							"internalType": "uint256",
							"name": "amount",
							"type": "uint256"
						},
						{
							"internalType": "uint256",
							"name": "lockDuration",
							"type": "uint256"
						}
					],
					"name": "deposit",
					"outputs": [],
					"stateMutability": "nonpayable",
					"type": "function"
				},
				{
					"inputs": [
						{
							"internalType": "address",
							"name": "",
							"type": "address"
						},
						{
							"internalType": "address",
							"name": "",
							"type": "address"
						}
					],
					"name": "deposits",
					"outputs": [
						{
							"internalType": "uint256",
							"name": "amount",
							"type": "uint256"
						},
						{
							"internalType": "uint256",
							"name": "withdrawalUnlockTime",
							"type": "uint256"
						}
					],
					"stateMutability": "view",
					"type": "function"
				},
				{
					"inputs": [
						{
							"internalType": "address",
							"name": "user",
							"type": "address"
						},
						{
							"internalType": "address",
							"name": "tokenAddress",
							"type": "address"
						}
					],
					"name": "getDepositedCoinBalance",
					"outputs": [
						{
							"internalType": "uint256",
							"name": "",
							"type": "uint256"
						}
					],
					"stateMutability": "view",
					"type": "function"
				},
				{
					"inputs": [
						{
							"internalType": "address",
							"name": "user",
							"type": "address"
						},
						{
							"internalType": "address",
							"name": "tokenAddress",
							"type": "address"
						}
					],
					"name": "getWithdrawalUnlockTime",
					"outputs": [
						{
							"internalType": "uint256",
							"name": "",
							"type": "uint256"
						}
					],
					"stateMutability": "view",
					"type": "function"
				},
				{
					"inputs": [],
					"name": "owner",
					"outputs": [
						{
							"internalType": "address",
							"name": "",
							"type": "address"
						}
					],
					"stateMutability": "view",
					"type": "function"
				},
				{
					"inputs": [],
					"name": "renounceOwnership",
					"outputs": [],
					"stateMutability": "nonpayable",
					"type": "function"
				},
				{
					"inputs": [
						{
							"internalType": "address",
							"name": "newOwner",
							"type": "address"
						}
					],
					"name": "transferOwnership",
					"outputs": [],
					"stateMutability": "nonpayable",
					"type": "function"
				},
				{
					"inputs": [
						{
							"internalType": "address",
							"name": "tokenAddress",
							"type": "address"
						}
					],
					"name": "withdraw",
					"outputs": [],
					"stateMutability": "nonpayable",
					"type": "function"
				}
			],
			"devdoc": {
				"kind": "dev",
				"methods": {
					"owner()": {
						"details": "Returns the address of the current owner."
					},
					"renounceOwnership()": {
						"details": "Leaves the contract without owner. It will not be possible to call `onlyOwner` functions anymore. Can only be called by the current owner. NOTE: Renouncing ownership will leave the contract without an owner, thereby removing any functionality that is only available to the owner."
					},
					"transferOwnership(address)": {
						"details": "Transfers ownership of the contract to a new account (`newOwner`). Can only be called by the current owner."
					}
				},
				"version": 1
			},
			"evm": {
				"assembly": "    /* \"trustless cross-chain/trading pair formation/DpositforNFD.sol\":136:1688  contract Deposit is Ownable {... */\n  mstore(0x40, 0x80)\n  callvalue\n  dup1\n  iszero\n  tag_1\n  jumpi\n  0x00\n  dup1\n  revert\ntag_1:\n  pop\n    /* \"@openzeppelin/contracts/access/Ownable.sol\":936:968  _transferOwnership(_msgSender()) */\n  tag_4\n    /* \"@openzeppelin/contracts/access/Ownable.sol\":955:967  _msgSender() */\n  tag_5\n    /* \"@openzeppelin/contracts/access/Ownable.sol\":955:965  _msgSender */\n  shl(0x20, tag_6)\n    /* \"@openzeppelin/contracts/access/Ownable.sol\":955:967  _msgSender() */\n  0x20\n  shr\n  jump\t// in\ntag_5:\n    /* \"@openzeppelin/contracts/access/Ownable.sol\":936:954  _transferOwnership */\n  shl(0x20, tag_7)\n    /* \"@openzeppelin/contracts/access/Ownable.sol\":936:968  _transferOwnership(_msgSender()) */\n  0x20\n  shr\n  jump\t// in\ntag_4:\n    /* \"trustless cross-chain/trading pair formation/DpositforNFD.sol\":136:1688  contract Deposit is Ownable {... */\n  jump(tag_8)\n    /* \"@openzeppelin/contracts/utils/Context.sol\":640:736  function _msgSender() internal view virtual returns (address) {... */\ntag_6:\n    /* \"@openzeppelin/contracts/utils/Context.sol\":693:700  address */\n  0x00\n    /* \"@openzeppelin/contracts/utils/Context.sol\":719:729  msg.sender */\n  caller\n    /* \"@openzeppelin/contracts/utils/Context.sol\":712:729  return msg.sender */\n  swap1\n  pop\n    /* \"@openzeppelin/contracts/utils/Context.sol\":640:736  function _msgSender() internal view virtual returns (address) {... */\n  swap1\n  jump\t// out\n    /* \"@openzeppelin/contracts/access/Ownable.sol\":2433:2620  function _transferOwnership(address newOwner) internal virtual {... */\ntag_7:\n    /* \"@openzeppelin/contracts/access/Ownable.sol\":2506:2522  address oldOwner */\n  0x00\n    /* \"@openzeppelin/contracts/access/Ownable.sol\":2525:2531  _owner */\n  dup1\n  0x00\n  swap1\n  sload\n  swap1\n  0x0100\n  exp\n  swap1\n  div\n  0xffffffffffffffffffffffffffffffffffffffff\n  and\n    /* \"@openzeppelin/contracts/access/Ownable.sol\":2506:2531  address oldOwner = _owner */\n  swap1\n  pop\n    /* \"@openzeppelin/contracts/access/Ownable.sol\":2550:2558  newOwner */\n  dup2\n    /* \"@openzeppelin/contracts/access/Ownable.sol\":2541:2547  _owner */\n  0x00\n  dup1\n    /* \"@openzeppelin/contracts/access/Ownable.sol\":2541:2558  _owner = newOwner */\n  0x0100\n  exp\n  dup2\n  sload\n  dup2\n  0xffffffffffffffffffffffffffffffffffffffff\n  mul\n  not\n  and\n  swap1\n  dup4\n  0xffffffffffffffffffffffffffffffffffffffff\n  and\n  mul\n  or\n  swap1\n  sstore\n  pop\n    /* \"@openzeppelin/contracts/access/Ownable.sol\":2604:2612  newOwner */\n  dup2\n    /* \"@openzeppelin/contracts/access/Ownable.sol\":2573:2613  OwnershipTransferred(oldOwner, newOwner) */\n  0xffffffffffffffffffffffffffffffffffffffff\n  and\n    /* \"@openzeppelin/contracts/access/Ownable.sol\":2594:2602  oldOwner */\n  dup2\n    /* \"@openzeppelin/contracts/access/Ownable.sol\":2573:2613  OwnershipTransferred(oldOwner, newOwner) */\n  0xffffffffffffffffffffffffffffffffffffffff\n  and\n  0x8be0079c531659141344cd1fd0a4f28419497f9722a3daafe3b4186f6b6457e0\n  mload(0x40)\n  mload(0x40)\n  dup1\n  swap2\n  sub\n  swap1\n  log3\n    /* \"@openzeppelin/contracts/access/Ownable.sol\":2496:2620  {... */\n  pop\n    /* \"@openzeppelin/contracts/access/Ownable.sol\":2433:2620  function _transferOwnership(address newOwner) internal virtual {... */\n  pop\n  jump\t// out\n    /* \"trustless cross-chain/trading pair formation/DpositforNFD.sol\":136:1688  contract Deposit is Ownable {... */\ntag_8:\n  dataSize(sub_0)\n  dup1\n  dataOffset(sub_0)\n  0x00\n  codecopy\n  0x00\n  return\nstop\n\nsub_0: assembly {\n        /* \"trustless cross-chain/trading pair formation/DpositforNFD.sol\":136:1688  contract Deposit is Ownable {... */\n      mstore(0x40, 0x80)\n      callvalue\n      dup1\n      iszero\n      tag_1\n      jumpi\n      0x00\n      dup1\n      revert\n    tag_1:\n      pop\n      jumpi(tag_2, lt(calldatasize, 0x04))\n      shr(0xe0, calldataload(0x00))\n      dup1\n      0x8f601f66\n      gt\n      tag_11\n      jumpi\n      dup1\n      0x8f601f66\n      eq\n      tag_7\n      jumpi\n      dup1\n      0xab1a4796\n      eq\n      tag_8\n      jumpi\n      dup1\n      0xbee21d2a\n      eq\n      tag_9\n      jumpi\n      dup1\n      0xf2fde38b\n      eq\n      tag_10\n      jumpi\n      jump(tag_2)\n    tag_11:\n      dup1\n      0x0efe6a8b\n      eq\n      tag_3\n      jumpi\n      dup1\n      0x51cff8d9\n      eq\n      tag_4\n      jumpi\n      dup1\n      0x715018a6\n      eq\n      tag_5\n      jumpi\n      dup1\n      0x8da5cb5b\n      eq\n      tag_6\n      jumpi\n    tag_2:\n      0x00\n      dup1\n      revert\n        /* \"trustless cross-chain/trading pair formation/DpositforNFD.sol\":338:762  function deposit(address tokenAddress, uint256 amount, uint256 lockDuration) external {... */\n    tag_3:\n      tag_12\n      0x04\n      dup1\n      calldatasize\n      sub\n      dup2\n      add\n      swap1\n      tag_13\n      swap2\n      swap1\n      tag_14\n      jump\t// in\n    tag_13:\n      tag_15\n      jump\t// in\n    tag_12:\n      stop\n        /* \"trustless cross-chain/trading pair formation/DpositforNFD.sol\":768:1340  function withdraw(address tokenAddress) external {... */\n    tag_4:\n      tag_16\n      0x04\n      dup1\n      calldatasize\n      sub\n      dup2\n      add\n      swap1\n      tag_17\n      swap2\n      swap1\n      tag_18\n      jump\t// in\n    tag_17:\n      tag_19\n      jump\t// in\n    tag_16:\n      stop\n        /* \"@openzeppelin/contracts/access/Ownable.sol\":1831:1932  function renounceOwnership() public virtual onlyOwner {... */\n    tag_5:\n      tag_20\n      tag_21\n      jump\t// in\n    tag_20:\n      stop\n        /* \"@openzeppelin/contracts/access/Ownable.sol\":1201:1286  function owner() public view virtual returns (address) {... */\n    tag_6:\n      tag_22\n      tag_23\n      jump\t// in\n    tag_22:\n      mload(0x40)\n      tag_24\n      swap2\n      swap1\n      tag_25\n      jump\t// in\n    tag_24:\n      mload(0x40)\n      dup1\n      swap2\n      sub\n      swap1\n      return\n        /* \"trustless cross-chain/trading pair formation/DpositforNFD.sol\":264:331  mapping(address => mapping(address => DepositInfo)) public deposits */\n    tag_7:\n      tag_26\n      0x04\n      dup1\n      calldatasize\n      sub\n      dup2\n      add\n      swap1\n      tag_27\n      swap2\n      swap1\n      tag_28\n      jump\t// in\n    tag_27:\n      tag_29\n      jump\t// in\n    tag_26:\n      mload(0x40)\n      tag_30\n      swap3\n      swap2\n      swap1\n      tag_31\n      jump\t// in\n    tag_30:\n      mload(0x40)\n      dup1\n      swap2\n      sub\n      swap1\n      return\n        /* \"trustless cross-chain/trading pair formation/DpositforNFD.sol\":1512:1686  function getWithdrawalUnlockTime(address user, address tokenAddress) external view returns (uint256) {... */\n    tag_8:\n      tag_32\n      0x04\n      dup1\n      calldatasize\n      sub\n      dup2\n      add\n      swap1\n      tag_33\n      swap2\n      swap1\n      tag_28\n      jump\t// in\n    tag_33:\n      tag_34\n      jump\t// in\n    tag_32:\n      mload(0x40)\n      tag_35\n      swap2\n      swap1\n      tag_36\n      jump\t// in\n    tag_35:\n      mload(0x40)\n      dup1\n      swap2\n      sub\n      swap1\n      return\n        /* \"trustless cross-chain/trading pair formation/DpositforNFD.sol\":1346:1506  function getDepositedCoinBalance(address user, address tokenAddress) external view returns (uint256) {... */\n    tag_9:\n      tag_37\n      0x04\n      dup1\n      calldatasize\n      sub\n      dup2\n      add\n      swap1\n      tag_38\n      swap2\n      swap1\n      tag_28\n      jump\t// in\n    tag_38:\n      tag_39\n      jump\t// in\n    tag_37:\n      mload(0x40)\n      tag_40\n      swap2\n      swap1\n      tag_36\n      jump\t// in\n    tag_40:\n      mload(0x40)\n      dup1\n      swap2\n      sub\n      swap1\n      return\n        /* \"@openzeppelin/contracts/access/Ownable.sol\":2081:2279  function transferOwnership(address newOwner) public virtual onlyOwner {... */\n    tag_10:\n      tag_41\n      0x04\n      dup1\n      calldatasize\n      sub\n      dup2\n      add\n      swap1\n      tag_42\n      swap2\n      swap1\n      tag_18\n      jump\t// in\n    tag_42:\n      tag_43\n      jump\t// in\n    tag_41:\n      stop\n        /* \"trustless cross-chain/trading pair formation/DpositforNFD.sol\":338:762  function deposit(address tokenAddress, uint256 amount, uint256 lockDuration) external {... */\n    tag_15:\n        /* \"trustless cross-chain/trading pair formation/DpositforNFD.sol\":434:446  IERC20 token */\n      0x00\n        /* \"trustless cross-chain/trading pair formation/DpositforNFD.sol\":456:468  tokenAddress */\n      dup4\n        /* \"trustless cross-chain/trading pair formation/DpositforNFD.sol\":434:469  IERC20 token = IERC20(tokenAddress) */\n      swap1\n      pop\n        /* \"trustless cross-chain/trading pair formation/DpositforNFD.sol\":487:492  token */\n      dup1\n        /* \"trustless cross-chain/trading pair formation/DpositforNFD.sol\":487:505  token.transferFrom */\n      0xffffffffffffffffffffffffffffffffffffffff\n      and\n      0x23b872dd\n        /* \"trustless cross-chain/trading pair formation/DpositforNFD.sol\":506:516  msg.sender */\n      caller\n        /* \"trustless cross-chain/trading pair formation/DpositforNFD.sol\":526:530  this */\n      address\n        /* \"trustless cross-chain/trading pair formation/DpositforNFD.sol\":533:539  amount */\n      dup7\n        /* \"trustless cross-chain/trading pair formation/DpositforNFD.sol\":487:540  token.transferFrom(msg.sender, address(this), amount) */\n      mload(0x40)\n      dup5\n      0xffffffff\n      and\n      0xe0\n      shl\n      dup2\n      mstore\n      0x04\n      add\n      tag_45\n      swap4\n      swap3\n      swap2\n      swap1\n      tag_46\n      jump\t// in\n    tag_45:\n      0x20\n      mload(0x40)\n      dup1\n      dup4\n      sub\n      dup2\n      0x00\n      dup8\n      gas\n      call\n      iszero\n      dup1\n      iszero\n      tag_48\n      jumpi\n      returndatasize\n      0x00\n      dup1\n      returndatacopy\n      revert(0x00, returndatasize)\n    tag_48:\n      pop\n      pop\n      pop\n      pop\n      mload(0x40)\n      returndatasize\n      not(0x1f)\n      0x1f\n      dup3\n      add\n      and\n      dup3\n      add\n      dup1\n      0x40\n      mstore\n      pop\n      dup2\n      add\n      swap1\n      tag_49\n      swap2\n      swap1\n      tag_50\n      jump\t// in\n    tag_49:\n        /* \"trustless cross-chain/trading pair formation/DpositforNFD.sol\":479:566  require(token.transferFrom(msg.sender, address(this), amount), \"Token transfer failed\") */\n      tag_51\n      jumpi\n      mload(0x40)\n      0x08c379a000000000000000000000000000000000000000000000000000000000\n      dup2\n      mstore\n      0x04\n      add\n      tag_52\n      swap1\n      tag_53\n      jump\t// in\n    tag_52:\n      mload(0x40)\n      dup1\n      swap2\n      sub\n      swap1\n      revert\n    tag_51:\n        /* \"trustless cross-chain/trading pair formation/DpositforNFD.sol\":577:608  DepositInfo storage userDeposit */\n      0x00\n        /* \"trustless cross-chain/trading pair formation/DpositforNFD.sol\":611:619  deposits */\n      0x01\n        /* \"trustless cross-chain/trading pair formation/DpositforNFD.sol\":611:631  deposits[msg.sender] */\n      0x00\n        /* \"trustless cross-chain/trading pair formation/DpositforNFD.sol\":620:630  msg.sender */\n      caller\n        /* \"trustless cross-chain/trading pair formation/DpositforNFD.sol\":611:631  deposits[msg.sender] */\n      0xffffffffffffffffffffffffffffffffffffffff\n      and\n      0xffffffffffffffffffffffffffffffffffffffff\n      and\n      dup2\n      mstore\n      0x20\n      add\n      swap1\n      dup2\n      mstore\n      0x20\n      add\n      0x00\n      keccak256\n        /* \"trustless cross-chain/trading pair formation/DpositforNFD.sol\":611:645  deposits[msg.sender][tokenAddress] */\n      0x00\n        /* \"trustless cross-chain/trading pair formation/DpositforNFD.sol\":632:644  tokenAddress */\n      dup7\n        /* \"trustless cross-chain/trading pair formation/DpositforNFD.sol\":611:645  deposits[msg.sender][tokenAddress] */\n      0xffffffffffffffffffffffffffffffffffffffff\n      and\n      0xffffffffffffffffffffffffffffffffffffffff\n      and\n      dup2\n      mstore\n      0x20\n      add\n      swap1\n      dup2\n      mstore\n      0x20\n      add\n      0x00\n      keccak256\n        /* \"trustless cross-chain/trading pair formation/DpositforNFD.sol\":577:645  DepositInfo storage userDeposit = deposits[msg.sender][tokenAddress] */\n      swap1\n      pop\n        /* \"trustless cross-chain/trading pair formation/DpositforNFD.sol\":677:683  amount */\n      dup4\n        /* \"trustless cross-chain/trading pair formation/DpositforNFD.sol\":655:666  userDeposit */\n      dup2\n        /* \"trustless cross-chain/trading pair formation/DpositforNFD.sol\":655:673  userDeposit.amount */\n      0x00\n      add\n      0x00\n        /* \"trustless cross-chain/trading pair formation/DpositforNFD.sol\":655:683  userDeposit.amount += amount */\n      dup3\n      dup3\n      sload\n      tag_54\n      swap2\n      swap1\n      tag_55\n      jump\t// in\n    tag_54:\n      swap3\n      pop\n      pop\n      dup2\n      swap1\n      sstore\n      pop\n        /* \"trustless cross-chain/trading pair formation/DpositforNFD.sol\":743:755  lockDuration */\n      dup3\n        /* \"trustless cross-chain/trading pair formation/DpositforNFD.sol\":728:740  block.number */\n      number\n        /* \"trustless cross-chain/trading pair formation/DpositforNFD.sol\":728:755  block.number + lockDuration */\n      tag_56\n      swap2\n      swap1\n      tag_55\n      jump\t// in\n    tag_56:\n        /* \"trustless cross-chain/trading pair formation/DpositforNFD.sol\":693:704  userDeposit */\n      dup2\n        /* \"trustless cross-chain/trading pair formation/DpositforNFD.sol\":693:725  userDeposit.withdrawalUnlockTime */\n      0x01\n      add\n        /* \"trustless cross-chain/trading pair formation/DpositforNFD.sol\":693:755  userDeposit.withdrawalUnlockTime = block.number + lockDuration */\n      dup2\n      swap1\n      sstore\n      pop\n        /* \"trustless cross-chain/trading pair formation/DpositforNFD.sol\":424:762  {... */\n      pop\n      pop\n        /* \"trustless cross-chain/trading pair formation/DpositforNFD.sol\":338:762  function deposit(address tokenAddress, uint256 amount, uint256 lockDuration) external {... */\n      pop\n      pop\n      pop\n      jump\t// out\n        /* \"trustless cross-chain/trading pair formation/DpositforNFD.sol\":768:1340  function withdraw(address tokenAddress) external {... */\n    tag_19:\n        /* \"trustless cross-chain/trading pair formation/DpositforNFD.sol\":827:858  DepositInfo storage userDeposit */\n      0x00\n        /* \"trustless cross-chain/trading pair formation/DpositforNFD.sol\":861:869  deposits */\n      0x01\n        /* \"trustless cross-chain/trading pair formation/DpositforNFD.sol\":861:881  deposits[msg.sender] */\n      0x00\n        /* \"trustless cross-chain/trading pair formation/DpositforNFD.sol\":870:880  msg.sender */\n      caller\n        /* \"trustless cross-chain/trading pair formation/DpositforNFD.sol\":861:881  deposits[msg.sender] */\n      0xffffffffffffffffffffffffffffffffffffffff\n      and\n      0xffffffffffffffffffffffffffffffffffffffff\n      and\n      dup2\n      mstore\n      0x20\n      add\n      swap1\n      dup2\n      mstore\n      0x20\n      add\n      0x00\n      keccak256\n        /* \"trustless cross-chain/trading pair formation/DpositforNFD.sol\":861:895  deposits[msg.sender][tokenAddress] */\n      0x00\n        /* \"trustless cross-chain/trading pair formation/DpositforNFD.sol\":882:894  tokenAddress */\n      dup4\n        /* \"trustless cross-chain/trading pair formation/DpositforNFD.sol\":861:895  deposits[msg.sender][tokenAddress] */\n      0xffffffffffffffffffffffffffffffffffffffff\n      and\n      0xffffffffffffffffffffffffffffffffffffffff\n      and\n      dup2\n      mstore\n      0x20\n      add\n      swap1\n      dup2\n      mstore\n      0x20\n      add\n      0x00\n      keccak256\n        /* \"trustless cross-chain/trading pair formation/DpositforNFD.sol\":827:895  DepositInfo storage userDeposit = deposits[msg.sender][tokenAddress] */\n      swap1\n      pop\n        /* \"trustless cross-chain/trading pair formation/DpositforNFD.sol\":905:919  uint256 amount */\n      0x00\n        /* \"trustless cross-chain/trading pair formation/DpositforNFD.sol\":922:933  userDeposit */\n      dup2\n        /* \"trustless cross-chain/trading pair formation/DpositforNFD.sol\":922:940  userDeposit.amount */\n      0x00\n      add\n      sload\n        /* \"trustless cross-chain/trading pair formation/DpositforNFD.sol\":905:940  uint256 amount = userDeposit.amount */\n      swap1\n      pop\n        /* \"trustless cross-chain/trading pair formation/DpositforNFD.sol\":950:978  uint256 withdrawalUnlockTime */\n      0x00\n        /* \"trustless cross-chain/trading pair formation/DpositforNFD.sol\":981:992  userDeposit */\n      dup3\n        /* \"trustless cross-chain/trading pair formation/DpositforNFD.sol\":981:1013  userDeposit.withdrawalUnlockTime */\n      0x01\n      add\n      sload\n        /* \"trustless cross-chain/trading pair formation/DpositforNFD.sol\":950:1013  uint256 withdrawalUnlockTime = userDeposit.withdrawalUnlockTime */\n      swap1\n      pop\n        /* \"trustless cross-chain/trading pair formation/DpositforNFD.sol\":1048:1068  withdrawalUnlockTime */\n      dup1\n        /* \"trustless cross-chain/trading pair formation/DpositforNFD.sol\":1032:1044  block.number */\n      number\n        /* \"trustless cross-chain/trading pair formation/DpositforNFD.sol\":1032:1068  block.number >= withdrawalUnlockTime */\n      lt\n      iszero\n        /* \"trustless cross-chain/trading pair formation/DpositforNFD.sol\":1024:1102  require(block.number >= withdrawalUnlockTime, \"Withdrawal is not allowed yet\") */\n      tag_58\n      jumpi\n      mload(0x40)\n      0x08c379a000000000000000000000000000000000000000000000000000000000\n      dup2\n      mstore\n      0x04\n      add\n      tag_59\n      swap1\n      tag_60\n      jump\t// in\n    tag_59:\n      mload(0x40)\n      dup1\n      swap2\n      sub\n      swap1\n      revert\n    tag_58:\n        /* \"trustless cross-chain/trading pair formation/DpositforNFD.sol\":1129:1130  0 */\n      0x00\n        /* \"trustless cross-chain/trading pair formation/DpositforNFD.sol\":1120:1126  amount */\n      dup3\n        /* \"trustless cross-chain/trading pair formation/DpositforNFD.sol\":1120:1130  amount > 0 */\n      gt\n        /* \"trustless cross-chain/trading pair formation/DpositforNFD.sol\":1112:1164  require(amount > 0, \"No deposited amount available\") */\n      tag_61\n      jumpi\n      mload(0x40)\n      0x08c379a000000000000000000000000000000000000000000000000000000000\n      dup2\n      mstore\n      0x04\n      add\n      tag_62\n      swap1\n      tag_63\n      jump\t// in\n    tag_62:\n      mload(0x40)\n      dup1\n      swap2\n      sub\n      swap1\n      revert\n    tag_61:\n        /* \"trustless cross-chain/trading pair formation/DpositforNFD.sol\":1196:1197  0 */\n      0x00\n        /* \"trustless cross-chain/trading pair formation/DpositforNFD.sol\":1175:1186  userDeposit */\n      dup4\n        /* \"trustless cross-chain/trading pair formation/DpositforNFD.sol\":1175:1193  userDeposit.amount */\n      0x00\n      add\n        /* \"trustless cross-chain/trading pair formation/DpositforNFD.sol\":1175:1197  userDeposit.amount = 0 */\n      dup2\n      swap1\n      sstore\n      pop\n        /* \"trustless cross-chain/trading pair formation/DpositforNFD.sol\":1242:1243  0 */\n      0x00\n        /* \"trustless cross-chain/trading pair formation/DpositforNFD.sol\":1207:1218  userDeposit */\n      dup4\n        /* \"trustless cross-chain/trading pair formation/DpositforNFD.sol\":1207:1239  userDeposit.withdrawalUnlockTime */\n      0x01\n      add\n        /* \"trustless cross-chain/trading pair formation/DpositforNFD.sol\":1207:1243  userDeposit.withdrawalUnlockTime = 0 */\n      dup2\n      swap1\n      sstore\n      pop\n        /* \"trustless cross-chain/trading pair formation/DpositforNFD.sol\":1254:1266  IERC20 token */\n      0x00\n        /* \"trustless cross-chain/trading pair formation/DpositforNFD.sol\":1276:1288  tokenAddress */\n      dup5\n        /* \"trustless cross-chain/trading pair formation/DpositforNFD.sol\":1254:1289  IERC20 token = IERC20(tokenAddress) */\n      swap1\n      pop\n        /* \"trustless cross-chain/trading pair formation/DpositforNFD.sol\":1299:1304  token */\n      dup1\n        /* \"trustless cross-chain/trading pair formation/DpositforNFD.sol\":1299:1313  token.transfer */\n      0xffffffffffffffffffffffffffffffffffffffff\n      and\n      0xa9059cbb\n        /* \"trustless cross-chain/trading pair formation/DpositforNFD.sol\":1314:1324  msg.sender */\n      caller\n        /* \"trustless cross-chain/trading pair formation/DpositforNFD.sol\":1326:1332  amount */\n      dup6\n        /* \"trustless cross-chain/trading pair formation/DpositforNFD.sol\":1299:1333  token.transfer(msg.sender, amount) */\n      mload(0x40)\n      dup4\n      0xffffffff\n      and\n      0xe0\n      shl\n      dup2\n      mstore\n      0x04\n      add\n      tag_64\n      swap3\n      swap2\n      swap1\n      tag_65\n      jump\t// in\n    tag_64:\n      0x20\n      mload(0x40)\n      dup1\n      dup4\n      sub\n      dup2\n      0x00\n      dup8\n      gas\n      call\n      iszero\n      dup1\n      iszero\n      tag_67\n      jumpi\n      returndatasize\n      0x00\n      dup1\n      returndatacopy\n      revert(0x00, returndatasize)\n    tag_67:\n      pop\n      pop\n      pop\n      pop\n      mload(0x40)\n      returndatasize\n      not(0x1f)\n      0x1f\n      dup3\n      add\n      and\n      dup3\n      add\n      dup1\n      0x40\n      mstore\n      pop\n      dup2\n      add\n      swap1\n      tag_68\n      swap2\n      swap1\n      tag_50\n      jump\t// in\n    tag_68:\n      pop\n        /* \"trustless cross-chain/trading pair formation/DpositforNFD.sol\":817:1340  {... */\n      pop\n      pop\n      pop\n      pop\n        /* \"trustless cross-chain/trading pair formation/DpositforNFD.sol\":768:1340  function withdraw(address tokenAddress) external {... */\n      pop\n      jump\t// out\n        /* \"@openzeppelin/contracts/access/Ownable.sol\":1831:1932  function renounceOwnership() public virtual onlyOwner {... */\n    tag_21:\n        /* \"@openzeppelin/contracts/access/Ownable.sol\":1094:1107  _checkOwner() */\n      tag_70\n        /* \"@openzeppelin/contracts/access/Ownable.sol\":1094:1105  _checkOwner */\n      tag_71\n        /* \"@openzeppelin/contracts/access/Ownable.sol\":1094:1107  _checkOwner() */\n      jump\t// in\n    tag_70:\n        /* \"@openzeppelin/contracts/access/Ownable.sol\":1895:1925  _transferOwnership(address(0)) */\n      tag_73\n        /* \"@openzeppelin/contracts/access/Ownable.sol\":1922:1923  0 */\n      0x00\n        /* \"@openzeppelin/contracts/access/Ownable.sol\":1895:1913  _transferOwnership */\n      tag_74\n        /* \"@openzeppelin/contracts/access/Ownable.sol\":1895:1925  _transferOwnership(address(0)) */\n      jump\t// in\n    tag_73:\n        /* \"@openzeppelin/contracts/access/Ownable.sol\":1831:1932  function renounceOwnership() public virtual onlyOwner {... */\n      jump\t// out\n        /* \"@openzeppelin/contracts/access/Ownable.sol\":1201:1286  function owner() public view virtual returns (address) {... */\n    tag_23:\n        /* \"@openzeppelin/contracts/access/Ownable.sol\":1247:1254  address */\n      0x00\n        /* \"@openzeppelin/contracts/access/Ownable.sol\":1273:1279  _owner */\n      dup1\n      0x00\n      swap1\n      sload\n      swap1\n      0x0100\n      exp\n      swap1\n      div\n      0xffffffffffffffffffffffffffffffffffffffff\n      and\n        /* \"@openzeppelin/contracts/access/Ownable.sol\":1266:1279  return _owner */\n      swap1\n      pop\n        /* \"@openzeppelin/contracts/access/Ownable.sol\":1201:1286  function owner() public view virtual returns (address) {... */\n      swap1\n      jump\t// out\n        /* \"trustless cross-chain/trading pair formation/DpositforNFD.sol\":264:331  mapping(address => mapping(address => DepositInfo)) public deposits */\n    tag_29:\n      mstore(0x20, 0x01)\n      dup2\n      0x00\n      mstore\n      mstore(0x20, keccak256(0x00, 0x40))\n      dup1\n      0x00\n      mstore\n      keccak256(0x00, 0x40)\n      0x00\n      swap2\n      pop\n      swap2\n      pop\n      pop\n      dup1\n      0x00\n      add\n      sload\n      swap1\n      dup1\n      0x01\n      add\n      sload\n      swap1\n      pop\n      dup3\n      jump\t// out\n        /* \"trustless cross-chain/trading pair formation/DpositforNFD.sol\":1512:1686  function getWithdrawalUnlockTime(address user, address tokenAddress) external view returns (uint256) {... */\n    tag_34:\n        /* \"trustless cross-chain/trading pair formation/DpositforNFD.sol\":1604:1611  uint256 */\n      0x00\n        /* \"trustless cross-chain/trading pair formation/DpositforNFD.sol\":1630:1638  deposits */\n      0x01\n        /* \"trustless cross-chain/trading pair formation/DpositforNFD.sol\":1630:1644  deposits[user] */\n      0x00\n        /* \"trustless cross-chain/trading pair formation/DpositforNFD.sol\":1639:1643  user */\n      dup5\n        /* \"trustless cross-chain/trading pair formation/DpositforNFD.sol\":1630:1644  deposits[user] */\n      0xffffffffffffffffffffffffffffffffffffffff\n      and\n      0xffffffffffffffffffffffffffffffffffffffff\n      and\n      dup2\n      mstore\n      0x20\n      add\n      swap1\n      dup2\n      mstore\n      0x20\n      add\n      0x00\n      keccak256\n        /* \"trustless cross-chain/trading pair formation/DpositforNFD.sol\":1630:1658  deposits[user][tokenAddress] */\n      0x00\n        /* \"trustless cross-chain/trading pair formation/DpositforNFD.sol\":1645:1657  tokenAddress */\n      dup4\n        /* \"trustless cross-chain/trading pair formation/DpositforNFD.sol\":1630:1658  deposits[user][tokenAddress] */\n      0xffffffffffffffffffffffffffffffffffffffff\n      and\n      0xffffffffffffffffffffffffffffffffffffffff\n      and\n      dup2\n      mstore\n      0x20\n      add\n      swap1\n      dup2\n      mstore\n      0x20\n      add\n      0x00\n      keccak256\n        /* \"trustless cross-chain/trading pair formation/DpositforNFD.sol\":1630:1679  deposits[user][tokenAddress].withdrawalUnlockTime */\n      0x01\n      add\n      sload\n        /* \"trustless cross-chain/trading pair formation/DpositforNFD.sol\":1623:1679  return deposits[user][tokenAddress].withdrawalUnlockTime */\n      swap1\n      pop\n        /* \"trustless cross-chain/trading pair formation/DpositforNFD.sol\":1512:1686  function getWithdrawalUnlockTime(address user, address tokenAddress) external view returns (uint256) {... */\n      swap3\n      swap2\n      pop\n      pop\n      jump\t// out\n        /* \"trustless cross-chain/trading pair formation/DpositforNFD.sol\":1346:1506  function getDepositedCoinBalance(address user, address tokenAddress) external view returns (uint256) {... */\n    tag_39:\n        /* \"trustless cross-chain/trading pair formation/DpositforNFD.sol\":1438:1445  uint256 */\n      0x00\n        /* \"trustless cross-chain/trading pair formation/DpositforNFD.sol\":1464:1472  deposits */\n      0x01\n        /* \"trustless cross-chain/trading pair formation/DpositforNFD.sol\":1464:1478  deposits[user] */\n      0x00\n        /* \"trustless cross-chain/trading pair formation/DpositforNFD.sol\":1473:1477  user */\n      dup5\n        /* \"trustless cross-chain/trading pair formation/DpositforNFD.sol\":1464:1478  deposits[user] */\n      0xffffffffffffffffffffffffffffffffffffffff\n      and\n      0xffffffffffffffffffffffffffffffffffffffff\n      and\n      dup2\n      mstore\n      0x20\n      add\n      swap1\n      dup2\n      mstore\n      0x20\n      add\n      0x00\n      keccak256\n        /* \"trustless cross-chain/trading pair formation/DpositforNFD.sol\":1464:1492  deposits[user][tokenAddress] */\n      0x00\n        /* \"trustless cross-chain/trading pair formation/DpositforNFD.sol\":1479:1491  tokenAddress */\n      dup4\n        /* \"trustless cross-chain/trading pair formation/DpositforNFD.sol\":1464:1492  deposits[user][tokenAddress] */\n      0xffffffffffffffffffffffffffffffffffffffff\n      and\n      0xffffffffffffffffffffffffffffffffffffffff\n      and\n      dup2\n      mstore\n      0x20\n      add\n      swap1\n      dup2\n      mstore\n      0x20\n      add\n      0x00\n      keccak256\n        /* \"trustless cross-chain/trading pair formation/DpositforNFD.sol\":1464:1499  deposits[user][tokenAddress].amount */\n      0x00\n      add\n      sload\n        /* \"trustless cross-chain/trading pair formation/DpositforNFD.sol\":1457:1499  return deposits[user][tokenAddress].amount */\n      swap1\n      pop\n        /* \"trustless cross-chain/trading pair formation/DpositforNFD.sol\":1346:1506  function getDepositedCoinBalance(address user, address tokenAddress) external view returns (uint256) {... */\n      swap3\n      swap2\n      pop\n      pop\n      jump\t// out\n        /* \"@openzeppelin/contracts/access/Ownable.sol\":2081:2279  function transferOwnership(address newOwner) public virtual onlyOwner {... */\n    tag_43:\n        /* \"@openzeppelin/contracts/access/Ownable.sol\":1094:1107  _checkOwner() */\n      tag_79\n        /* \"@openzeppelin/contracts/access/Ownable.sol\":1094:1105  _checkOwner */\n      tag_71\n        /* \"@openzeppelin/contracts/access/Ownable.sol\":1094:1107  _checkOwner() */\n      jump\t// in\n    tag_79:\n        /* \"@openzeppelin/contracts/access/Ownable.sol\":2189:2190  0 */\n      0x00\n        /* \"@openzeppelin/contracts/access/Ownable.sol\":2169:2191  newOwner != address(0) */\n      0xffffffffffffffffffffffffffffffffffffffff\n      and\n        /* \"@openzeppelin/contracts/access/Ownable.sol\":2169:2177  newOwner */\n      dup2\n        /* \"@openzeppelin/contracts/access/Ownable.sol\":2169:2191  newOwner != address(0) */\n      0xffffffffffffffffffffffffffffffffffffffff\n      and\n      sub\n        /* \"@openzeppelin/contracts/access/Ownable.sol\":2161:2234  require(newOwner != address(0), \"Ownable: new owner is the zero address\") */\n      tag_81\n      jumpi\n      mload(0x40)\n      0x08c379a000000000000000000000000000000000000000000000000000000000\n      dup2\n      mstore\n      0x04\n      add\n      tag_82\n      swap1\n      tag_83\n      jump\t// in\n    tag_82:\n      mload(0x40)\n      dup1\n      swap2\n      sub\n      swap1\n      revert\n    tag_81:\n        /* \"@openzeppelin/contracts/access/Ownable.sol\":2244:2272  _transferOwnership(newOwner) */\n      tag_84\n        /* \"@openzeppelin/contracts/access/Ownable.sol\":2263:2271  newOwner */\n      dup2\n        /* \"@openzeppelin/contracts/access/Ownable.sol\":2244:2262  _transferOwnership */\n      tag_74\n        /* \"@openzeppelin/contracts/access/Ownable.sol\":2244:2272  _transferOwnership(newOwner) */\n      jump\t// in\n    tag_84:\n        /* \"@openzeppelin/contracts/access/Ownable.sol\":2081:2279  function transferOwnership(address newOwner) public virtual onlyOwner {... */\n      pop\n      jump\t// out\n        /* \"@openzeppelin/contracts/access/Ownable.sol\":1359:1489  function _checkOwner() internal view virtual {... */\n    tag_71:\n        /* \"@openzeppelin/contracts/access/Ownable.sol\":1433:1445  _msgSender() */\n      tag_86\n        /* \"@openzeppelin/contracts/access/Ownable.sol\":1433:1443  _msgSender */\n      tag_87\n        /* \"@openzeppelin/contracts/access/Ownable.sol\":1433:1445  _msgSender() */\n      jump\t// in\n    tag_86:\n        /* \"@openzeppelin/contracts/access/Ownable.sol\":1422:1445  owner() == _msgSender() */\n      0xffffffffffffffffffffffffffffffffffffffff\n      and\n        /* \"@openzeppelin/contracts/access/Ownable.sol\":1422:1429  owner() */\n      tag_88\n        /* \"@openzeppelin/contracts/access/Ownable.sol\":1422:1427  owner */\n      tag_23\n        /* \"@openzeppelin/contracts/access/Ownable.sol\":1422:1429  owner() */\n      jump\t// in\n    tag_88:\n        /* \"@openzeppelin/contracts/access/Ownable.sol\":1422:1445  owner() == _msgSender() */\n      0xffffffffffffffffffffffffffffffffffffffff\n      and\n      eq\n        /* \"@openzeppelin/contracts/access/Ownable.sol\":1414:1482  require(owner() == _msgSender(), \"Ownable: caller is not the owner\") */\n      tag_89\n      jumpi\n      mload(0x40)\n      0x08c379a000000000000000000000000000000000000000000000000000000000\n      dup2\n      mstore\n      0x04\n      add\n      tag_90\n      swap1\n      tag_91\n      jump\t// in\n    tag_90:\n      mload(0x40)\n      dup1\n      swap2\n      sub\n      swap1\n      revert\n    tag_89:\n        /* \"@openzeppelin/contracts/access/Ownable.sol\":1359:1489  function _checkOwner() internal view virtual {... */\n      jump\t// out\n        /* \"@openzeppelin/contracts/access/Ownable.sol\":2433:2620  function _transferOwnership(address newOwner) internal virtual {... */\n    tag_74:\n        /* \"@openzeppelin/contracts/access/Ownable.sol\":2506:2522  address oldOwner */\n      0x00\n        /* \"@openzeppelin/contracts/access/Ownable.sol\":2525:2531  _owner */\n      dup1\n      0x00\n      swap1\n      sload\n      swap1\n      0x0100\n      exp\n      swap1\n      div\n      0xffffffffffffffffffffffffffffffffffffffff\n      and\n        /* \"@openzeppelin/contracts/access/Ownable.sol\":2506:2531  address oldOwner = _owner */\n      swap1\n      pop\n        /* \"@openzeppelin/contracts/access/Ownable.sol\":2550:2558  newOwner */\n      dup2\n        /* \"@openzeppelin/contracts/access/Ownable.sol\":2541:2547  _owner */\n      0x00\n      dup1\n        /* \"@openzeppelin/contracts/access/Ownable.sol\":2541:2558  _owner = newOwner */\n      0x0100\n      exp\n      dup2\n      sload\n      dup2\n      0xffffffffffffffffffffffffffffffffffffffff\n      mul\n      not\n      and\n      swap1\n      dup4\n      0xffffffffffffffffffffffffffffffffffffffff\n      and\n      mul\n      or\n      swap1\n      sstore\n      pop\n        /* \"@openzeppelin/contracts/access/Ownable.sol\":2604:2612  newOwner */\n      dup2\n        /* \"@openzeppelin/contracts/access/Ownable.sol\":2573:2613  OwnershipTransferred(oldOwner, newOwner) */\n      0xffffffffffffffffffffffffffffffffffffffff\n      and\n        /* \"@openzeppelin/contracts/access/Ownable.sol\":2594:2602  oldOwner */\n      dup2\n        /* \"@openzeppelin/contracts/access/Ownable.sol\":2573:2613  OwnershipTransferred(oldOwner, newOwner) */\n      0xffffffffffffffffffffffffffffffffffffffff\n      and\n      0x8be0079c531659141344cd1fd0a4f28419497f9722a3daafe3b4186f6b6457e0\n      mload(0x40)\n      mload(0x40)\n      dup1\n      swap2\n      sub\n      swap1\n      log3\n        /* \"@openzeppelin/contracts/access/Ownable.sol\":2496:2620  {... */\n      pop\n        /* \"@openzeppelin/contracts/access/Ownable.sol\":2433:2620  function _transferOwnership(address newOwner) internal virtual {... */\n      pop\n      jump\t// out\n        /* \"@openzeppelin/contracts/utils/Context.sol\":640:736  function _msgSender() internal view virtual returns (address) {... */\n    tag_87:\n        /* \"@openzeppelin/contracts/utils/Context.sol\":693:700  address */\n      0x00\n        /* \"@openzeppelin/contracts/utils/Context.sol\":719:729  msg.sender */\n      caller\n        /* \"@openzeppelin/contracts/utils/Context.sol\":712:729  return msg.sender */\n      swap1\n      pop\n        /* \"@openzeppelin/contracts/utils/Context.sol\":640:736  function _msgSender() internal view virtual returns (address) {... */\n      swap1\n      jump\t// out\n        /* \"#utility.yul\":88:205   */\n    tag_95:\n        /* \"#utility.yul\":197:198   */\n      0x00\n        /* \"#utility.yul\":194:195   */\n      dup1\n        /* \"#utility.yul\":187:199   */\n      revert\n        /* \"#utility.yul\":334:460   */\n    tag_97:\n        /* \"#utility.yul\":371:378   */\n      0x00\n        /* \"#utility.yul\":411:453   */\n      0xffffffffffffffffffffffffffffffffffffffff\n        /* \"#utility.yul\":404:409   */\n      dup3\n        /* \"#utility.yul\":400:454   */\n      and\n        /* \"#utility.yul\":389:454   */\n      swap1\n      pop\n        /* \"#utility.yul\":334:460   */\n      swap2\n      swap1\n      pop\n      jump\t// out\n        /* \"#utility.yul\":466:562   */\n    tag_98:\n        /* \"#utility.yul\":503:510   */\n      0x00\n        /* \"#utility.yul\":532:556   */\n      tag_127\n        /* \"#utility.yul\":550:555   */\n      dup3\n        /* \"#utility.yul\":532:556   */\n      tag_97\n      jump\t// in\n    tag_127:\n        /* \"#utility.yul\":521:556   */\n      swap1\n      pop\n        /* \"#utility.yul\":466:562   */\n      swap2\n      swap1\n      pop\n      jump\t// out\n        /* \"#utility.yul\":568:690   */\n    tag_99:\n        /* \"#utility.yul\":641:665   */\n      tag_129\n        /* \"#utility.yul\":659:664   */\n      dup2\n        /* \"#utility.yul\":641:665   */\n      tag_98\n      jump\t// in\n    tag_129:\n        /* \"#utility.yul\":634:639   */\n      dup2\n        /* \"#utility.yul\":631:666   */\n      eq\n        /* \"#utility.yul\":621:684   */\n      tag_130\n      jumpi\n        /* \"#utility.yul\":680:681   */\n      0x00\n        /* \"#utility.yul\":677:678   */\n      dup1\n        /* \"#utility.yul\":670:682   */\n      revert\n        /* \"#utility.yul\":621:684   */\n    tag_130:\n        /* \"#utility.yul\":568:690   */\n      pop\n      jump\t// out\n        /* \"#utility.yul\":696:835   */\n    tag_100:\n        /* \"#utility.yul\":742:747   */\n      0x00\n        /* \"#utility.yul\":780:786   */\n      dup2\n        /* \"#utility.yul\":767:787   */\n      calldataload\n        /* \"#utility.yul\":758:787   */\n      swap1\n      pop\n        /* \"#utility.yul\":796:829   */\n      tag_132\n        /* \"#utility.yul\":823:828   */\n      dup2\n        /* \"#utility.yul\":796:829   */\n      tag_99\n      jump\t// in\n    tag_132:\n        /* \"#utility.yul\":696:835   */\n      swap3\n      swap2\n      pop\n      pop\n      jump\t// out\n        /* \"#utility.yul\":841:918   */\n    tag_101:\n        /* \"#utility.yul\":878:885   */\n      0x00\n        /* \"#utility.yul\":907:912   */\n      dup2\n        /* \"#utility.yul\":896:912   */\n      swap1\n      pop\n        /* \"#utility.yul\":841:918   */\n      swap2\n      swap1\n      pop\n      jump\t// out\n        /* \"#utility.yul\":924:1046   */\n    tag_102:\n        /* \"#utility.yul\":997:1021   */\n      tag_135\n        /* \"#utility.yul\":1015:1020   */\n      dup2\n        /* \"#utility.yul\":997:1021   */\n      tag_101\n      jump\t// in\n    tag_135:\n        /* \"#utility.yul\":990:995   */\n      dup2\n        /* \"#utility.yul\":987:1022   */\n      eq\n        /* \"#utility.yul\":977:1040   */\n      tag_136\n      jumpi\n        /* \"#utility.yul\":1036:1037   */\n      0x00\n        /* \"#utility.yul\":1033:1034   */\n      dup1\n        /* \"#utility.yul\":1026:1038   */\n      revert\n        /* \"#utility.yul\":977:1040   */\n    tag_136:\n        /* \"#utility.yul\":924:1046   */\n      pop\n      jump\t// out\n        /* \"#utility.yul\":1052:1191   */\n    tag_103:\n        /* \"#utility.yul\":1098:1103   */\n      0x00\n        /* \"#utility.yul\":1136:1142   */\n      dup2\n        /* \"#utility.yul\":1123:1143   */\n      calldataload\n        /* \"#utility.yul\":1114:1143   */\n      swap1\n      pop\n        /* \"#utility.yul\":1152:1185   */\n      tag_138\n        /* \"#utility.yul\":1179:1184   */\n      dup2\n        /* \"#utility.yul\":1152:1185   */\n      tag_102\n      jump\t// in\n    tag_138:\n        /* \"#utility.yul\":1052:1191   */\n      swap3\n      swap2\n      pop\n      pop\n      jump\t// out\n        /* \"#utility.yul\":1197:1816   */\n    tag_14:\n        /* \"#utility.yul\":1274:1280   */\n      0x00\n        /* \"#utility.yul\":1282:1288   */\n      dup1\n        /* \"#utility.yul\":1290:1296   */\n      0x00\n        /* \"#utility.yul\":1339:1341   */\n      0x60\n        /* \"#utility.yul\":1327:1336   */\n      dup5\n        /* \"#utility.yul\":1318:1325   */\n      dup7\n        /* \"#utility.yul\":1314:1337   */\n      sub\n        /* \"#utility.yul\":1310:1342   */\n      slt\n        /* \"#utility.yul\":1307:1426   */\n      iszero\n      tag_140\n      jumpi\n        /* \"#utility.yul\":1345:1424   */\n      tag_141\n      tag_95\n      jump\t// in\n    tag_141:\n        /* \"#utility.yul\":1307:1426   */\n    tag_140:\n        /* \"#utility.yul\":1465:1466   */\n      0x00\n        /* \"#utility.yul\":1490:1543   */\n      tag_142\n        /* \"#utility.yul\":1535:1542   */\n      dup7\n        /* \"#utility.yul\":1526:1532   */\n      dup3\n        /* \"#utility.yul\":1515:1524   */\n      dup8\n        /* \"#utility.yul\":1511:1533   */\n      add\n        /* \"#utility.yul\":1490:1543   */\n      tag_100\n      jump\t// in\n    tag_142:\n        /* \"#utility.yul\":1480:1543   */\n      swap4\n      pop\n        /* \"#utility.yul\":1436:1553   */\n      pop\n        /* \"#utility.yul\":1592:1594   */\n      0x20\n        /* \"#utility.yul\":1618:1671   */\n      tag_143\n        /* \"#utility.yul\":1663:1670   */\n      dup7\n        /* \"#utility.yul\":1654:1660   */\n      dup3\n        /* \"#utility.yul\":1643:1652   */\n      dup8\n        /* \"#utility.yul\":1639:1661   */\n      add\n        /* \"#utility.yul\":1618:1671   */\n      tag_103\n      jump\t// in\n    tag_143:\n        /* \"#utility.yul\":1608:1671   */\n      swap3\n      pop\n        /* \"#utility.yul\":1563:1681   */\n      pop\n        /* \"#utility.yul\":1720:1722   */\n      0x40\n        /* \"#utility.yul\":1746:1799   */\n      tag_144\n        /* \"#utility.yul\":1791:1798   */\n      dup7\n        /* \"#utility.yul\":1782:1788   */\n      dup3\n        /* \"#utility.yul\":1771:1780   */\n      dup8\n        /* \"#utility.yul\":1767:1789   */\n      add\n        /* \"#utility.yul\":1746:1799   */\n      tag_103\n      jump\t// in\n    tag_144:\n        /* \"#utility.yul\":1736:1799   */\n      swap2\n      pop\n        /* \"#utility.yul\":1691:1809   */\n      pop\n        /* \"#utility.yul\":1197:1816   */\n      swap3\n      pop\n      swap3\n      pop\n      swap3\n      jump\t// out\n        /* \"#utility.yul\":1822:2151   */\n    tag_18:\n        /* \"#utility.yul\":1881:1887   */\n      0x00\n        /* \"#utility.yul\":1930:1932   */\n      0x20\n        /* \"#utility.yul\":1918:1927   */\n      dup3\n        /* \"#utility.yul\":1909:1916   */\n      dup5\n        /* \"#utility.yul\":1905:1928   */\n      sub\n        /* \"#utility.yul\":1901:1933   */\n      slt\n        /* \"#utility.yul\":1898:2017   */\n      iszero\n      tag_146\n      jumpi\n        /* \"#utility.yul\":1936:2015   */\n      tag_147\n      tag_95\n      jump\t// in\n    tag_147:\n        /* \"#utility.yul\":1898:2017   */\n    tag_146:\n        /* \"#utility.yul\":2056:2057   */\n      0x00\n        /* \"#utility.yul\":2081:2134   */\n      tag_148\n        /* \"#utility.yul\":2126:2133   */\n      dup5\n        /* \"#utility.yul\":2117:2123   */\n      dup3\n        /* \"#utility.yul\":2106:2115   */\n      dup6\n        /* \"#utility.yul\":2102:2124   */\n      add\n        /* \"#utility.yul\":2081:2134   */\n      tag_100\n      jump\t// in\n    tag_148:\n        /* \"#utility.yul\":2071:2134   */\n      swap2\n      pop\n        /* \"#utility.yul\":2027:2144   */\n      pop\n        /* \"#utility.yul\":1822:2151   */\n      swap3\n      swap2\n      pop\n      pop\n      jump\t// out\n        /* \"#utility.yul\":2157:2275   */\n    tag_104:\n        /* \"#utility.yul\":2244:2268   */\n      tag_150\n        /* \"#utility.yul\":2262:2267   */\n      dup2\n        /* \"#utility.yul\":2244:2268   */\n      tag_98\n      jump\t// in\n    tag_150:\n        /* \"#utility.yul\":2239:2242   */\n      dup3\n        /* \"#utility.yul\":2232:2269   */\n      mstore\n        /* \"#utility.yul\":2157:2275   */\n      pop\n      pop\n      jump\t// out\n        /* \"#utility.yul\":2281:2503   */\n    tag_25:\n        /* \"#utility.yul\":2374:2378   */\n      0x00\n        /* \"#utility.yul\":2412:2414   */\n      0x20\n        /* \"#utility.yul\":2401:2410   */\n      dup3\n        /* \"#utility.yul\":2397:2415   */\n      add\n        /* \"#utility.yul\":2389:2415   */\n      swap1\n      pop\n        /* \"#utility.yul\":2425:2496   */\n      tag_152\n        /* \"#utility.yul\":2493:2494   */\n      0x00\n        /* \"#utility.yul\":2482:2491   */\n      dup4\n        /* \"#utility.yul\":2478:2495   */\n      add\n        /* \"#utility.yul\":2469:2475   */\n      dup5\n        /* \"#utility.yul\":2425:2496   */\n      tag_104\n      jump\t// in\n    tag_152:\n        /* \"#utility.yul\":2281:2503   */\n      swap3\n      swap2\n      pop\n      pop\n      jump\t// out\n        /* \"#utility.yul\":2509:2983   */\n    tag_28:\n        /* \"#utility.yul\":2577:2583   */\n      0x00\n        /* \"#utility.yul\":2585:2591   */\n      dup1\n        /* \"#utility.yul\":2634:2636   */\n      0x40\n        /* \"#utility.yul\":2622:2631   */\n      dup4\n        /* \"#utility.yul\":2613:2620   */\n      dup6\n        /* \"#utility.yul\":2609:2632   */\n      sub\n        /* \"#utility.yul\":2605:2637   */\n      slt\n        /* \"#utility.yul\":2602:2721   */\n      iszero\n      tag_154\n      jumpi\n        /* \"#utility.yul\":2640:2719   */\n      tag_155\n      tag_95\n      jump\t// in\n    tag_155:\n        /* \"#utility.yul\":2602:2721   */\n    tag_154:\n        /* \"#utility.yul\":2760:2761   */\n      0x00\n        /* \"#utility.yul\":2785:2838   */\n      tag_156\n        /* \"#utility.yul\":2830:2837   */\n      dup6\n        /* \"#utility.yul\":2821:2827   */\n      dup3\n        /* \"#utility.yul\":2810:2819   */\n      dup7\n        /* \"#utility.yul\":2806:2828   */\n      add\n        /* \"#utility.yul\":2785:2838   */\n      tag_100\n      jump\t// in\n    tag_156:\n        /* \"#utility.yul\":2775:2838   */\n      swap3\n      pop\n        /* \"#utility.yul\":2731:2848   */\n      pop\n        /* \"#utility.yul\":2887:2889   */\n      0x20\n        /* \"#utility.yul\":2913:2966   */\n      tag_157\n        /* \"#utility.yul\":2958:2965   */\n      dup6\n        /* \"#utility.yul\":2949:2955   */\n      dup3\n        /* \"#utility.yul\":2938:2947   */\n      dup7\n        /* \"#utility.yul\":2934:2956   */\n      add\n        /* \"#utility.yul\":2913:2966   */\n      tag_100\n      jump\t// in\n    tag_157:\n        /* \"#utility.yul\":2903:2966   */\n      swap2\n      pop\n        /* \"#utility.yul\":2858:2976   */\n      pop\n        /* \"#utility.yul\":2509:2983   */\n      swap3\n      pop\n      swap3\n      swap1\n      pop\n      jump\t// out\n        /* \"#utility.yul\":2989:3107   */\n    tag_105:\n        /* \"#utility.yul\":3076:3100   */\n      tag_159\n        /* \"#utility.yul\":3094:3099   */\n      dup2\n        /* \"#utility.yul\":3076:3100   */\n      tag_101\n      jump\t// in\n    tag_159:\n        /* \"#utility.yul\":3071:3074   */\n      dup3\n        /* \"#utility.yul\":3064:3101   */\n      mstore\n        /* \"#utility.yul\":2989:3107   */\n      pop\n      pop\n      jump\t// out\n        /* \"#utility.yul\":3113:3445   */\n    tag_31:\n        /* \"#utility.yul\":3234:3238   */\n      0x00\n        /* \"#utility.yul\":3272:3274   */\n      0x40\n        /* \"#utility.yul\":3261:3270   */\n      dup3\n        /* \"#utility.yul\":3257:3275   */\n      add\n        /* \"#utility.yul\":3249:3275   */\n      swap1\n      pop\n        /* \"#utility.yul\":3285:3356   */\n      tag_161\n        /* \"#utility.yul\":3353:3354   */\n      0x00\n        /* \"#utility.yul\":3342:3351   */\n      dup4\n        /* \"#utility.yul\":3338:3355   */\n      add\n        /* \"#utility.yul\":3329:3335   */\n      dup6\n        /* \"#utility.yul\":3285:3356   */\n      tag_105\n      jump\t// in\n    tag_161:\n        /* \"#utility.yul\":3366:3438   */\n      tag_162\n        /* \"#utility.yul\":3434:3436   */\n      0x20\n        /* \"#utility.yul\":3423:3432   */\n      dup4\n        /* \"#utility.yul\":3419:3437   */\n      add\n        /* \"#utility.yul\":3410:3416   */\n      dup5\n        /* \"#utility.yul\":3366:3438   */\n      tag_105\n      jump\t// in\n    tag_162:\n        /* \"#utility.yul\":3113:3445   */\n      swap4\n      swap3\n      pop\n      pop\n      pop\n      jump\t// out\n        /* \"#utility.yul\":3451:3673   */\n    tag_36:\n        /* \"#utility.yul\":3544:3548   */\n      0x00\n        /* \"#utility.yul\":3582:3584   */\n      0x20\n        /* \"#utility.yul\":3571:3580   */\n      dup3\n        /* \"#utility.yul\":3567:3585   */\n      add\n        /* \"#utility.yul\":3559:3585   */\n      swap1\n      pop\n        /* \"#utility.yul\":3595:3666   */\n      tag_164\n        /* \"#utility.yul\":3663:3664   */\n      0x00\n        /* \"#utility.yul\":3652:3661   */\n      dup4\n        /* \"#utility.yul\":3648:3665   */\n      add\n        /* \"#utility.yul\":3639:3645   */\n      dup5\n        /* \"#utility.yul\":3595:3666   */\n      tag_105\n      jump\t// in\n    tag_164:\n        /* \"#utility.yul\":3451:3673   */\n      swap3\n      swap2\n      pop\n      pop\n      jump\t// out\n        /* \"#utility.yul\":3679:4121   */\n    tag_46:\n        /* \"#utility.yul\":3828:3832   */\n      0x00\n        /* \"#utility.yul\":3866:3868   */\n      0x60\n        /* \"#utility.yul\":3855:3864   */\n      dup3\n        /* \"#utility.yul\":3851:3869   */\n      add\n        /* \"#utility.yul\":3843:3869   */\n      swap1\n      pop\n        /* \"#utility.yul\":3879:3950   */\n      tag_166\n        /* \"#utility.yul\":3947:3948   */\n      0x00\n        /* \"#utility.yul\":3936:3945   */\n      dup4\n        /* \"#utility.yul\":3932:3949   */\n      add\n        /* \"#utility.yul\":3923:3929   */\n      dup7\n        /* \"#utility.yul\":3879:3950   */\n      tag_104\n      jump\t// in\n    tag_166:\n        /* \"#utility.yul\":3960:4032   */\n      tag_167\n        /* \"#utility.yul\":4028:4030   */\n      0x20\n        /* \"#utility.yul\":4017:4026   */\n      dup4\n        /* \"#utility.yul\":4013:4031   */\n      add\n        /* \"#utility.yul\":4004:4010   */\n      dup6\n        /* \"#utility.yul\":3960:4032   */\n      tag_104\n      jump\t// in\n    tag_167:\n        /* \"#utility.yul\":4042:4114   */\n      tag_168\n        /* \"#utility.yul\":4110:4112   */\n      0x40\n        /* \"#utility.yul\":4099:4108   */\n      dup4\n        /* \"#utility.yul\":4095:4113   */\n      add\n        /* \"#utility.yul\":4086:4092   */\n      dup5\n        /* \"#utility.yul\":4042:4114   */\n      tag_105\n      jump\t// in\n    tag_168:\n        /* \"#utility.yul\":3679:4121   */\n      swap5\n      swap4\n      pop\n      pop\n      pop\n      pop\n      jump\t// out\n        /* \"#utility.yul\":4127:4217   */\n    tag_106:\n        /* \"#utility.yul\":4161:4168   */\n      0x00\n        /* \"#utility.yul\":4204:4209   */\n      dup2\n        /* \"#utility.yul\":4197:4210   */\n      iszero\n        /* \"#utility.yul\":4190:4211   */\n      iszero\n        /* \"#utility.yul\":4179:4211   */\n      swap1\n      pop\n        /* \"#utility.yul\":4127:4217   */\n      swap2\n      swap1\n      pop\n      jump\t// out\n        /* \"#utility.yul\":4223:4339   */\n    tag_107:\n        /* \"#utility.yul\":4293:4314   */\n      tag_171\n        /* \"#utility.yul\":4308:4313   */\n      dup2\n        /* \"#utility.yul\":4293:4314   */\n      tag_106\n      jump\t// in\n    tag_171:\n        /* \"#utility.yul\":4286:4291   */\n      dup2\n        /* \"#utility.yul\":4283:4315   */\n      eq\n        /* \"#utility.yul\":4273:4333   */\n      tag_172\n      jumpi\n        /* \"#utility.yul\":4329:4330   */\n      0x00\n        /* \"#utility.yul\":4326:4327   */\n      dup1\n        /* \"#utility.yul\":4319:4331   */\n      revert\n        /* \"#utility.yul\":4273:4333   */\n    tag_172:\n        /* \"#utility.yul\":4223:4339   */\n      pop\n      jump\t// out\n        /* \"#utility.yul\":4345:4482   */\n    tag_108:\n        /* \"#utility.yul\":4399:4404   */\n      0x00\n        /* \"#utility.yul\":4430:4436   */\n      dup2\n        /* \"#utility.yul\":4424:4437   */\n      mload\n        /* \"#utility.yul\":4415:4437   */\n      swap1\n      pop\n        /* \"#utility.yul\":4446:4476   */\n      tag_174\n        /* \"#utility.yul\":4470:4475   */\n      dup2\n        /* \"#utility.yul\":4446:4476   */\n      tag_107\n      jump\t// in\n    tag_174:\n        /* \"#utility.yul\":4345:4482   */\n      swap3\n      swap2\n      pop\n      pop\n      jump\t// out\n        /* \"#utility.yul\":4488:4833   */\n    tag_50:\n        /* \"#utility.yul\":4555:4561   */\n      0x00\n        /* \"#utility.yul\":4604:4606   */\n      0x20\n        /* \"#utility.yul\":4592:4601   */\n      dup3\n        /* \"#utility.yul\":4583:4590   */\n      dup5\n        /* \"#utility.yul\":4579:4602   */\n      sub\n        /* \"#utility.yul\":4575:4607   */\n      slt\n        /* \"#utility.yul\":4572:4691   */\n      iszero\n      tag_176\n      jumpi\n        /* \"#utility.yul\":4610:4689   */\n      tag_177\n      tag_95\n      jump\t// in\n    tag_177:\n        /* \"#utility.yul\":4572:4691   */\n    tag_176:\n        /* \"#utility.yul\":4730:4731   */\n      0x00\n        /* \"#utility.yul\":4755:4816   */\n      tag_178\n        /* \"#utility.yul\":4808:4815   */\n      dup5\n        /* \"#utility.yul\":4799:4805   */\n      dup3\n        /* \"#utility.yul\":4788:4797   */\n      dup6\n        /* \"#utility.yul\":4784:4806   */\n      add\n        /* \"#utility.yul\":4755:4816   */\n      tag_108\n      jump\t// in\n    tag_178:\n        /* \"#utility.yul\":4745:4816   */\n      swap2\n      pop\n        /* \"#utility.yul\":4701:4826   */\n      pop\n        /* \"#utility.yul\":4488:4833   */\n      swap3\n      swap2\n      pop\n      pop\n      jump\t// out\n        /* \"#utility.yul\":4839:5008   */\n    tag_109:\n        /* \"#utility.yul\":4923:4934   */\n      0x00\n        /* \"#utility.yul\":4957:4963   */\n      dup3\n        /* \"#utility.yul\":4952:4955   */\n      dup3\n        /* \"#utility.yul\":4945:4964   */\n      mstore\n        /* \"#utility.yul\":4997:5001   */\n      0x20\n        /* \"#utility.yul\":4992:4995   */\n      dup3\n        /* \"#utility.yul\":4988:5002   */\n      add\n        /* \"#utility.yul\":4973:5002   */\n      swap1\n      pop\n        /* \"#utility.yul\":4839:5008   */\n      swap3\n      swap2\n      pop\n      pop\n      jump\t// out\n        /* \"#utility.yul\":5014:5185   */\n    tag_110:\n        /* \"#utility.yul\":5154:5177   */\n      0x546f6b656e207472616e73666572206661696c65640000000000000000000000\n        /* \"#utility.yul\":5150:5151   */\n      0x00\n        /* \"#utility.yul\":5142:5148   */\n      dup3\n        /* \"#utility.yul\":5138:5152   */\n      add\n        /* \"#utility.yul\":5131:5178   */\n      mstore\n        /* \"#utility.yul\":5014:5185   */\n      pop\n      jump\t// out\n        /* \"#utility.yul\":5191:5557   */\n    tag_111:\n        /* \"#utility.yul\":5333:5336   */\n      0x00\n        /* \"#utility.yul\":5354:5421   */\n      tag_182\n        /* \"#utility.yul\":5418:5420   */\n      0x15\n        /* \"#utility.yul\":5413:5416   */\n      dup4\n        /* \"#utility.yul\":5354:5421   */\n      tag_109\n      jump\t// in\n    tag_182:\n        /* \"#utility.yul\":5347:5421   */\n      swap2\n      pop\n        /* \"#utility.yul\":5430:5523   */\n      tag_183\n        /* \"#utility.yul\":5519:5522   */\n      dup3\n        /* \"#utility.yul\":5430:5523   */\n      tag_110\n      jump\t// in\n    tag_183:\n        /* \"#utility.yul\":5548:5550   */\n      0x20\n        /* \"#utility.yul\":5543:5546   */\n      dup3\n        /* \"#utility.yul\":5539:5551   */\n      add\n        /* \"#utility.yul\":5532:5551   */\n      swap1\n      pop\n        /* \"#utility.yul\":5191:5557   */\n      swap2\n      swap1\n      pop\n      jump\t// out\n        /* \"#utility.yul\":5563:5982   */\n    tag_53:\n        /* \"#utility.yul\":5729:5733   */\n      0x00\n        /* \"#utility.yul\":5767:5769   */\n      0x20\n        /* \"#utility.yul\":5756:5765   */\n      dup3\n        /* \"#utility.yul\":5752:5770   */\n      add\n        /* \"#utility.yul\":5744:5770   */\n      swap1\n      pop\n        /* \"#utility.yul\":5816:5825   */\n      dup2\n        /* \"#utility.yul\":5810:5814   */\n      dup2\n        /* \"#utility.yul\":5806:5826   */\n      sub\n        /* \"#utility.yul\":5802:5803   */\n      0x00\n        /* \"#utility.yul\":5791:5800   */\n      dup4\n        /* \"#utility.yul\":5787:5804   */\n      add\n        /* \"#utility.yul\":5780:5827   */\n      mstore\n        /* \"#utility.yul\":5844:5975   */\n      tag_185\n        /* \"#utility.yul\":5970:5974   */\n      dup2\n        /* \"#utility.yul\":5844:5975   */\n      tag_111\n      jump\t// in\n    tag_185:\n        /* \"#utility.yul\":5836:5975   */\n      swap1\n      pop\n        /* \"#utility.yul\":5563:5982   */\n      swap2\n      swap1\n      pop\n      jump\t// out\n        /* \"#utility.yul\":5988:6168   */\n    tag_112:\n        /* \"#utility.yul\":6036:6113   */\n      0x4e487b7100000000000000000000000000000000000000000000000000000000\n        /* \"#utility.yul\":6033:6034   */\n      0x00\n        /* \"#utility.yul\":6026:6114   */\n      mstore\n        /* \"#utility.yul\":6133:6137   */\n      0x11\n        /* \"#utility.yul\":6130:6131   */\n      0x04\n        /* \"#utility.yul\":6123:6138   */\n      mstore\n        /* \"#utility.yul\":6157:6161   */\n      0x24\n        /* \"#utility.yul\":6154:6155   */\n      0x00\n        /* \"#utility.yul\":6147:6162   */\n      revert\n        /* \"#utility.yul\":6174:6365   */\n    tag_55:\n        /* \"#utility.yul\":6214:6217   */\n      0x00\n        /* \"#utility.yul\":6233:6253   */\n      tag_188\n        /* \"#utility.yul\":6251:6252   */\n      dup3\n        /* \"#utility.yul\":6233:6253   */\n      tag_101\n      jump\t// in\n    tag_188:\n        /* \"#utility.yul\":6228:6253   */\n      swap2\n      pop\n        /* \"#utility.yul\":6267:6287   */\n      tag_189\n        /* \"#utility.yul\":6285:6286   */\n      dup4\n        /* \"#utility.yul\":6267:6287   */\n      tag_101\n      jump\t// in\n    tag_189:\n        /* \"#utility.yul\":6262:6287   */\n      swap3\n      pop\n        /* \"#utility.yul\":6310:6311   */\n      dup3\n        /* \"#utility.yul\":6307:6308   */\n      dup3\n        /* \"#utility.yul\":6303:6312   */\n      add\n        /* \"#utility.yul\":6296:6312   */\n      swap1\n      pop\n        /* \"#utility.yul\":6331:6334   */\n      dup1\n        /* \"#utility.yul\":6328:6329   */\n      dup3\n        /* \"#utility.yul\":6325:6335   */\n      gt\n        /* \"#utility.yul\":6322:6358   */\n      iszero\n      tag_190\n      jumpi\n        /* \"#utility.yul\":6338:6356   */\n      tag_191\n      tag_112\n      jump\t// in\n    tag_191:\n        /* \"#utility.yul\":6322:6358   */\n    tag_190:\n        /* \"#utility.yul\":6174:6365   */\n      swap3\n      swap2\n      pop\n      pop\n      jump\t// out\n        /* \"#utility.yul\":6371:6550   */\n    tag_113:\n        /* \"#utility.yul\":6511:6542   */\n      0x5769746864726177616c206973206e6f7420616c6c6f77656420796574000000\n        /* \"#utility.yul\":6507:6508   */\n      0x00\n        /* \"#utility.yul\":6499:6505   */\n      dup3\n        /* \"#utility.yul\":6495:6509   */\n      add\n        /* \"#utility.yul\":6488:6543   */\n      mstore\n        /* \"#utility.yul\":6371:6550   */\n      pop\n      jump\t// out\n        /* \"#utility.yul\":6556:6922   */\n    tag_114:\n        /* \"#utility.yul\":6698:6701   */\n      0x00\n        /* \"#utility.yul\":6719:6786   */\n      tag_194\n        /* \"#utility.yul\":6783:6785   */\n      0x1d\n        /* \"#utility.yul\":6778:6781   */\n      dup4\n        /* \"#utility.yul\":6719:6786   */\n      tag_109\n      jump\t// in\n    tag_194:\n        /* \"#utility.yul\":6712:6786   */\n      swap2\n      pop\n        /* \"#utility.yul\":6795:6888   */\n      tag_195\n        /* \"#utility.yul\":6884:6887   */\n      dup3\n        /* \"#utility.yul\":6795:6888   */\n      tag_113\n      jump\t// in\n    tag_195:\n        /* \"#utility.yul\":6913:6915   */\n      0x20\n        /* \"#utility.yul\":6908:6911   */\n      dup3\n        /* \"#utility.yul\":6904:6916   */\n      add\n        /* \"#utility.yul\":6897:6916   */\n      swap1\n      pop\n        /* \"#utility.yul\":6556:6922   */\n      swap2\n      swap1\n      pop\n      jump\t// out\n        /* \"#utility.yul\":6928:7347   */\n    tag_60:\n        /* \"#utility.yul\":7094:7098   */\n      0x00\n        /* \"#utility.yul\":7132:7134   */\n      0x20\n        /* \"#utility.yul\":7121:7130   */\n      dup3\n        /* \"#utility.yul\":7117:7135   */\n      add\n        /* \"#utility.yul\":7109:7135   */\n      swap1\n      pop\n        /* \"#utility.yul\":7181:7190   */\n      dup2\n        /* \"#utility.yul\":7175:7179   */\n      dup2\n        /* \"#utility.yul\":7171:7191   */\n      sub\n        /* \"#utility.yul\":7167:7168   */\n      0x00\n        /* \"#utility.yul\":7156:7165   */\n      dup4\n        /* \"#utility.yul\":7152:7169   */\n      add\n        /* \"#utility.yul\":7145:7192   */\n      mstore\n        /* \"#utility.yul\":7209:7340   */\n      tag_197\n        /* \"#utility.yul\":7335:7339   */\n      dup2\n        /* \"#utility.yul\":7209:7340   */\n      tag_114\n      jump\t// in\n    tag_197:\n        /* \"#utility.yul\":7201:7340   */\n      swap1\n      pop\n        /* \"#utility.yul\":6928:7347   */\n      swap2\n      swap1\n      pop\n      jump\t// out\n        /* \"#utility.yul\":7353:7532   */\n    tag_115:\n        /* \"#utility.yul\":7493:7524   */\n      0x4e6f206465706f736974656420616d6f756e7420617661696c61626c65000000\n        /* \"#utility.yul\":7489:7490   */\n      0x00\n        /* \"#utility.yul\":7481:7487   */\n      dup3\n        /* \"#utility.yul\":7477:7491   */\n      add\n        /* \"#utility.yul\":7470:7525   */\n      mstore\n        /* \"#utility.yul\":7353:7532   */\n      pop\n      jump\t// out\n        /* \"#utility.yul\":7538:7904   */\n    tag_116:\n        /* \"#utility.yul\":7680:7683   */\n      0x00\n        /* \"#utility.yul\":7701:7768   */\n      tag_200\n        /* \"#utility.yul\":7765:7767   */\n      0x1d\n        /* \"#utility.yul\":7760:7763   */\n      dup4\n        /* \"#utility.yul\":7701:7768   */\n      tag_109\n      jump\t// in\n    tag_200:\n        /* \"#utility.yul\":7694:7768   */\n      swap2\n      pop\n        /* \"#utility.yul\":7777:7870   */\n      tag_201\n        /* \"#utility.yul\":7866:7869   */\n      dup3\n        /* \"#utility.yul\":7777:7870   */\n      tag_115\n      jump\t// in\n    tag_201:\n        /* \"#utility.yul\":7895:7897   */\n      0x20\n        /* \"#utility.yul\":7890:7893   */\n      dup3\n        /* \"#utility.yul\":7886:7898   */\n      add\n        /* \"#utility.yul\":7879:7898   */\n      swap1\n      pop\n        /* \"#utility.yul\":7538:7904   */\n      swap2\n      swap1\n      pop\n      jump\t// out\n        /* \"#utility.yul\":7910:8329   */\n    tag_63:\n        /* \"#utility.yul\":8076:8080   */\n      0x00\n        /* \"#utility.yul\":8114:8116   */\n      0x20\n        /* \"#utility.yul\":8103:8112   */\n      dup3\n        /* \"#utility.yul\":8099:8117   */\n      add\n        /* \"#utility.yul\":8091:8117   */\n      swap1\n      pop\n        /* \"#utility.yul\":8163:8172   */\n      dup2\n        /* \"#utility.yul\":8157:8161   */\n      dup2\n        /* \"#utility.yul\":8153:8173   */\n      sub\n        /* \"#utility.yul\":8149:8150   */\n      0x00\n        /* \"#utility.yul\":8138:8147   */\n      dup4\n        /* \"#utility.yul\":8134:8151   */\n      add\n        /* \"#utility.yul\":8127:8174   */\n      mstore\n        /* \"#utility.yul\":8191:8322   */\n      tag_203\n        /* \"#utility.yul\":8317:8321   */\n      dup2\n        /* \"#utility.yul\":8191:8322   */\n      tag_116\n      jump\t// in\n    tag_203:\n        /* \"#utility.yul\":8183:8322   */\n      swap1\n      pop\n        /* \"#utility.yul\":7910:8329   */\n      swap2\n      swap1\n      pop\n      jump\t// out\n        /* \"#utility.yul\":8335:8667   */\n    tag_65:\n        /* \"#utility.yul\":8456:8460   */\n      0x00\n        /* \"#utility.yul\":8494:8496   */\n      0x40\n        /* \"#utility.yul\":8483:8492   */\n      dup3\n        /* \"#utility.yul\":8479:8497   */\n      add\n        /* \"#utility.yul\":8471:8497   */\n      swap1\n      pop\n        /* \"#utility.yul\":8507:8578   */\n      tag_205\n        /* \"#utility.yul\":8575:8576   */\n      0x00\n        /* \"#utility.yul\":8564:8573   */\n      dup4\n        /* \"#utility.yul\":8560:8577   */\n      add\n        /* \"#utility.yul\":8551:8557   */\n      dup6\n        /* \"#utility.yul\":8507:8578   */\n      tag_104\n      jump\t// in\n    tag_205:\n        /* \"#utility.yul\":8588:8660   */\n      tag_206\n        /* \"#utility.yul\":8656:8658   */\n      0x20\n        /* \"#utility.yul\":8645:8654   */\n      dup4\n        /* \"#utility.yul\":8641:8659   */\n      add\n        /* \"#utility.yul\":8632:8638   */\n      dup5\n        /* \"#utility.yul\":8588:8660   */\n      tag_105\n      jump\t// in\n    tag_206:\n        /* \"#utility.yul\":8335:8667   */\n      swap4\n      swap3\n      pop\n      pop\n      pop\n      jump\t// out\n        /* \"#utility.yul\":8673:8898   */\n    tag_117:\n        /* \"#utility.yul\":8813:8847   */\n      0x4f776e61626c653a206e6577206f776e657220697320746865207a65726f2061\n        /* \"#utility.yul\":8809:8810   */\n      0x00\n        /* \"#utility.yul\":8801:8807   */\n      dup3\n        /* \"#utility.yul\":8797:8811   */\n      add\n        /* \"#utility.yul\":8790:8848   */\n      mstore\n        /* \"#utility.yul\":8882:8890   */\n      0x6464726573730000000000000000000000000000000000000000000000000000\n        /* \"#utility.yul\":8877:8879   */\n      0x20\n        /* \"#utility.yul\":8869:8875   */\n      dup3\n        /* \"#utility.yul\":8865:8880   */\n      add\n        /* \"#utility.yul\":8858:8891   */\n      mstore\n        /* \"#utility.yul\":8673:8898   */\n      pop\n      jump\t// out\n        /* \"#utility.yul\":8904:9270   */\n    tag_118:\n        /* \"#utility.yul\":9046:9049   */\n      0x00\n        /* \"#utility.yul\":9067:9134   */\n      tag_209\n        /* \"#utility.yul\":9131:9133   */\n      0x26\n        /* \"#utility.yul\":9126:9129   */\n      dup4\n        /* \"#utility.yul\":9067:9134   */\n      tag_109\n      jump\t// in\n    tag_209:\n        /* \"#utility.yul\":9060:9134   */\n      swap2\n      pop\n        /* \"#utility.yul\":9143:9236   */\n      tag_210\n        /* \"#utility.yul\":9232:9235   */\n      dup3\n        /* \"#utility.yul\":9143:9236   */\n      tag_117\n      jump\t// in\n    tag_210:\n        /* \"#utility.yul\":9261:9263   */\n      0x40\n        /* \"#utility.yul\":9256:9259   */\n      dup3\n        /* \"#utility.yul\":9252:9264   */\n      add\n        /* \"#utility.yul\":9245:9264   */\n      swap1\n      pop\n        /* \"#utility.yul\":8904:9270   */\n      swap2\n      swap1\n      pop\n      jump\t// out\n        /* \"#utility.yul\":9276:9695   */\n    tag_83:\n        /* \"#utility.yul\":9442:9446   */\n      0x00\n        /* \"#utility.yul\":9480:9482   */\n      0x20\n        /* \"#utility.yul\":9469:9478   */\n      dup3\n        /* \"#utility.yul\":9465:9483   */\n      add\n        /* \"#utility.yul\":9457:9483   */\n      swap1\n      pop\n        /* \"#utility.yul\":9529:9538   */\n      dup2\n        /* \"#utility.yul\":9523:9527   */\n      dup2\n        /* \"#utility.yul\":9519:9539   */\n      sub\n        /* \"#utility.yul\":9515:9516   */\n      0x00\n        /* \"#utility.yul\":9504:9513   */\n      dup4\n        /* \"#utility.yul\":9500:9517   */\n      add\n        /* \"#utility.yul\":9493:9540   */\n      mstore\n        /* \"#utility.yul\":9557:9688   */\n      tag_212\n        /* \"#utility.yul\":9683:9687   */\n      dup2\n        /* \"#utility.yul\":9557:9688   */\n      tag_118\n      jump\t// in\n    tag_212:\n        /* \"#utility.yul\":9549:9688   */\n      swap1\n      pop\n        /* \"#utility.yul\":9276:9695   */\n      swap2\n      swap1\n      pop\n      jump\t// out\n        /* \"#utility.yul\":9701:9883   */\n    tag_119:\n        /* \"#utility.yul\":9841:9875   */\n      0x4f776e61626c653a2063616c6c6572206973206e6f7420746865206f776e6572\n        /* \"#utility.yul\":9837:9838   */\n      0x00\n        /* \"#utility.yul\":9829:9835   */\n      dup3\n        /* \"#utility.yul\":9825:9839   */\n      add\n        /* \"#utility.yul\":9818:9876   */\n      mstore\n        /* \"#utility.yul\":9701:9883   */\n      pop\n      jump\t// out\n        /* \"#utility.yul\":9889:10255   */\n    tag_120:\n        /* \"#utility.yul\":10031:10034   */\n      0x00\n        /* \"#utility.yul\":10052:10119   */\n      tag_215\n        /* \"#utility.yul\":10116:10118   */\n      0x20\n        /* \"#utility.yul\":10111:10114   */\n      dup4\n        /* \"#utility.yul\":10052:10119   */\n      tag_109\n      jump\t// in\n    tag_215:\n        /* \"#utility.yul\":10045:10119   */\n      swap2\n      pop\n        /* \"#utility.yul\":10128:10221   */\n      tag_216\n        /* \"#utility.yul\":10217:10220   */\n      dup3\n        /* \"#utility.yul\":10128:10221   */\n      tag_119\n      jump\t// in\n    tag_216:\n        /* \"#utility.yul\":10246:10248   */\n      0x20\n        /* \"#utility.yul\":10241:10244   */\n      dup3\n        /* \"#utility.yul\":10237:10249   */\n      add\n        /* \"#utility.yul\":10230:10249   */\n      swap1\n      pop\n        /* \"#utility.yul\":9889:10255   */\n      swap2\n      swap1\n      pop\n      jump\t// out\n        /* \"#utility.yul\":10261:10680   */\n    tag_91:\n        /* \"#utility.yul\":10427:10431   */\n      0x00\n        /* \"#utility.yul\":10465:10467   */\n      0x20\n        /* \"#utility.yul\":10454:10463   */\n      dup3\n        /* \"#utility.yul\":10450:10468   */\n      add\n        /* \"#utility.yul\":10442:10468   */\n      swap1\n      pop\n        /* \"#utility.yul\":10514:10523   */\n      dup2\n        /* \"#utility.yul\":10508:10512   */\n      dup2\n        /* \"#utility.yul\":10504:10524   */\n      sub\n        /* \"#utility.yul\":10500:10501   */\n      0x00\n        /* \"#utility.yul\":10489:10498   */\n      dup4\n        /* \"#utility.yul\":10485:10502   */\n      add\n        /* \"#utility.yul\":10478:10525   */\n      mstore\n        /* \"#utility.yul\":10542:10673   */\n      tag_218\n        /* \"#utility.yul\":10668:10672   */\n      dup2\n        /* \"#utility.yul\":10542:10673   */\n      tag_120\n      jump\t// in\n    tag_218:\n        /* \"#utility.yul\":10534:10673   */\n      swap1\n      pop\n        /* \"#utility.yul\":10261:10680   */\n      swap2\n      swap1\n      pop\n      jump\t// out\n\n    auxdata: 0xa26469706673582212202eba826831d6756ecde8d9a1841c61f26d3b347ce84471c061c6afd53e3fd1d664736f6c634300081a0033\n}\n",
				"bytecode": {
					"linkReferences": {},
					"object": "608060405234801561000f575f80fd5b5061002c61002161003160201b60201c565b61003860201b60201c565b6100f9565b5f33905090565b5f805f9054906101000a900473ffffffffffffffffffffffffffffffffffffffff169050815f806101000a81548173ffffffffffffffffffffffffffffffffffffffff021916908373ffffffffffffffffffffffffffffffffffffffff1602179055508173ffffffffffffffffffffffffffffffffffffffff168173ffffffffffffffffffffffffffffffffffffffff167f8be0079c531659141344cd1fd0a4f28419497f9722a3daafe3b4186f6b6457e060405160405180910390a35050565b610d34806101065f395ff3fe608060405234801561000f575f80fd5b5060043610610086575f3560e01c80638f601f66116100595780638f601f66146100ea578063ab1a47961461011b578063bee21d2a1461014b578063f2fde38b1461017b57610086565b80630efe6a8b1461008a57806351cff8d9146100a6578063715018a6146100c25780638da5cb5b146100cc575b5f80fd5b6100a4600480360381019061009f9190610874565b610197565b005b6100c060048036038101906100bb91906108c4565b610306565b005b6100ca6104ad565b005b6100d46104c0565b6040516100e191906108fe565b60405180910390f35b61010460048036038101906100ff9190610917565b6104e7565b604051610112929190610964565b60405180910390f35b61013560048036038101906101309190610917565b610512565b604051610142919061098b565b60405180910390f35b61016560048036038101906101609190610917565b610597565b604051610172919061098b565b60405180910390f35b610195600480360381019061019091906108c4565b61061b565b005b5f8390508073ffffffffffffffffffffffffffffffffffffffff166323b872dd3330866040518463ffffffff1660e01b81526004016101d8939291906109a4565b6020604051808303815f875af11580156101f4573d5f803e3d5ffd5b505050506040513d601f19601f820116820180604052508101906102189190610a0e565b610257576040517f08c379a000000000000000000000000000000000000000000000000000000000815260040161024e90610a93565b60405180910390fd5b5f60015f3373ffffffffffffffffffffffffffffffffffffffff1673ffffffffffffffffffffffffffffffffffffffff1681526020019081526020015f205f8673ffffffffffffffffffffffffffffffffffffffff1673ffffffffffffffffffffffffffffffffffffffff1681526020019081526020015f20905083815f015f8282546102e49190610ade565b9250508190555082436102f79190610ade565b81600101819055505050505050565b5f60015f3373ffffffffffffffffffffffffffffffffffffffff1673ffffffffffffffffffffffffffffffffffffffff1681526020019081526020015f205f8373ffffffffffffffffffffffffffffffffffffffff1673ffffffffffffffffffffffffffffffffffffffff1681526020019081526020015f2090505f815f015490505f82600101549050804310156103d3576040517f08c379a00000000000000000000000000000000000000000000000000000000081526004016103ca90610b5b565b60405180910390fd5b5f8211610415576040517f08c379a000000000000000000000000000000000000000000000000000000000815260040161040c90610bc3565b60405180910390fd5b5f835f01819055505f83600101819055505f8490508073ffffffffffffffffffffffffffffffffffffffff1663a9059cbb33856040518363ffffffff1660e01b8152600401610465929190610be1565b6020604051808303815f875af1158015610481573d5f803e3d5ffd5b505050506040513d601f19601f820116820180604052508101906104a59190610a0e565b505050505050565b6104b561069d565b6104be5f61071b565b565b5f805f9054906101000a900473ffffffffffffffffffffffffffffffffffffffff16905090565b6001602052815f5260405f20602052805f5260405f205f9150915050805f0154908060010154905082565b5f60015f8473ffffffffffffffffffffffffffffffffffffffff1673ffffffffffffffffffffffffffffffffffffffff1681526020019081526020015f205f8373ffffffffffffffffffffffffffffffffffffffff1673ffffffffffffffffffffffffffffffffffffffff1681526020019081526020015f2060010154905092915050565b5f60015f8473ffffffffffffffffffffffffffffffffffffffff1673ffffffffffffffffffffffffffffffffffffffff1681526020019081526020015f205f8373ffffffffffffffffffffffffffffffffffffffff1673ffffffffffffffffffffffffffffffffffffffff1681526020019081526020015f205f0154905092915050565b61062361069d565b5f73ffffffffffffffffffffffffffffffffffffffff168173ffffffffffffffffffffffffffffffffffffffff1603610691576040517f08c379a000000000000000000000000000000000000000000000000000000000815260040161068890610c78565b60405180910390fd5b61069a8161071b565b50565b6106a56107dc565b73ffffffffffffffffffffffffffffffffffffffff166106c36104c0565b73ffffffffffffffffffffffffffffffffffffffff1614610719576040517f08c379a000000000000000000000000000000000000000000000000000000000815260040161071090610ce0565b60405180910390fd5b565b5f805f9054906101000a900473ffffffffffffffffffffffffffffffffffffffff169050815f806101000a81548173ffffffffffffffffffffffffffffffffffffffff021916908373ffffffffffffffffffffffffffffffffffffffff1602179055508173ffffffffffffffffffffffffffffffffffffffff168173ffffffffffffffffffffffffffffffffffffffff167f8be0079c531659141344cd1fd0a4f28419497f9722a3daafe3b4186f6b6457e060405160405180910390a35050565b5f33905090565b5f80fd5b5f73ffffffffffffffffffffffffffffffffffffffff82169050919050565b5f610810826107e7565b9050919050565b61082081610806565b811461082a575f80fd5b50565b5f8135905061083b81610817565b92915050565b5f819050919050565b61085381610841565b811461085d575f80fd5b50565b5f8135905061086e8161084a565b92915050565b5f805f6060848603121561088b5761088a6107e3565b5b5f6108988682870161082d565b93505060206108a986828701610860565b92505060406108ba86828701610860565b9150509250925092565b5f602082840312156108d9576108d86107e3565b5b5f6108e68482850161082d565b91505092915050565b6108f881610806565b82525050565b5f6020820190506109115f8301846108ef565b92915050565b5f806040838503121561092d5761092c6107e3565b5b5f61093a8582860161082d565b925050602061094b8582860161082d565b9150509250929050565b61095e81610841565b82525050565b5f6040820190506109775f830185610955565b6109846020830184610955565b9392505050565b5f60208201905061099e5f830184610955565b92915050565b5f6060820190506109b75f8301866108ef565b6109c460208301856108ef565b6109d16040830184610955565b949350505050565b5f8115159050919050565b6109ed816109d9565b81146109f7575f80fd5b50565b5f81519050610a08816109e4565b92915050565b5f60208284031215610a2357610a226107e3565b5b5f610a30848285016109fa565b91505092915050565b5f82825260208201905092915050565b7f546f6b656e207472616e73666572206661696c656400000000000000000000005f82015250565b5f610a7d601583610a39565b9150610a8882610a49565b602082019050919050565b5f6020820190508181035f830152610aaa81610a71565b9050919050565b7f4e487b71000000000000000000000000000000000000000000000000000000005f52601160045260245ffd5b5f610ae882610841565b9150610af383610841565b9250828201905080821115610b0b57610b0a610ab1565b5b92915050565b7f5769746864726177616c206973206e6f7420616c6c6f776564207965740000005f82015250565b5f610b45601d83610a39565b9150610b5082610b11565b602082019050919050565b5f6020820190508181035f830152610b7281610b39565b9050919050565b7f4e6f206465706f736974656420616d6f756e7420617661696c61626c650000005f82015250565b5f610bad601d83610a39565b9150610bb882610b79565b602082019050919050565b5f6020820190508181035f830152610bda81610ba1565b9050919050565b5f604082019050610bf45f8301856108ef565b610c016020830184610955565b9392505050565b7f4f776e61626c653a206e6577206f776e657220697320746865207a65726f20615f8201527f6464726573730000000000000000000000000000000000000000000000000000602082015250565b5f610c62602683610a39565b9150610c6d82610c08565b604082019050919050565b5f6020820190508181035f830152610c8f81610c56565b9050919050565b7f4f776e61626c653a2063616c6c6572206973206e6f7420746865206f776e65725f82015250565b5f610cca602083610a39565b9150610cd582610c96565b602082019050919050565b5f6020820190508181035f830152610cf781610cbe565b905091905056fea26469706673582212202eba826831d6756ecde8d9a1841c61f26d3b347ce84471c061c6afd53e3fd1d664736f6c634300081a0033",
					"opcodes": "PUSH1 0x80 PUSH1 0x40 MSTORE CALLVALUE DUP1 ISZERO PUSH2 0xF JUMPI PUSH0 DUP1 REVERT JUMPDEST POP PUSH2 0x2C PUSH2 0x21 PUSH2 0x31 PUSH1 0x20 SHL PUSH1 0x20 SHR JUMP JUMPDEST PUSH2 0x38 PUSH1 0x20 SHL PUSH1 0x20 SHR JUMP JUMPDEST PUSH2 0xF9 JUMP JUMPDEST PUSH0 CALLER SWAP1 POP SWAP1 JUMP JUMPDEST PUSH0 DUP1 PUSH0 SWAP1 SLOAD SWAP1 PUSH2 0x100 EXP SWAP1 DIV PUSH20 0xFFFFFFFFFFFFFFFFFFFFFFFFFFFFFFFFFFFFFFFF AND SWAP1 POP DUP2 PUSH0 DUP1 PUSH2 0x100 EXP DUP2 SLOAD DUP2 PUSH20 0xFFFFFFFFFFFFFFFFFFFFFFFFFFFFFFFFFFFFFFFF MUL NOT AND SWAP1 DUP4 PUSH20 0xFFFFFFFFFFFFFFFFFFFFFFFFFFFFFFFFFFFFFFFF AND MUL OR SWAP1 SSTORE POP DUP2 PUSH20 0xFFFFFFFFFFFFFFFFFFFFFFFFFFFFFFFFFFFFFFFF AND DUP2 PUSH20 0xFFFFFFFFFFFFFFFFFFFFFFFFFFFFFFFFFFFFFFFF AND PUSH32 0x8BE0079C531659141344CD1FD0A4F28419497F9722A3DAAFE3B4186F6B6457E0 PUSH1 0x40 MLOAD PUSH1 0x40 MLOAD DUP1 SWAP2 SUB SWAP1 LOG3 POP POP JUMP JUMPDEST PUSH2 0xD34 DUP1 PUSH2 0x106 PUSH0 CODECOPY PUSH0 RETURN INVALID PUSH1 0x80 PUSH1 0x40 MSTORE CALLVALUE DUP1 ISZERO PUSH2 0xF JUMPI PUSH0 DUP1 REVERT JUMPDEST POP PUSH1 0x4 CALLDATASIZE LT PUSH2 0x86 JUMPI PUSH0 CALLDATALOAD PUSH1 0xE0 SHR DUP1 PUSH4 0x8F601F66 GT PUSH2 0x59 JUMPI DUP1 PUSH4 0x8F601F66 EQ PUSH2 0xEA JUMPI DUP1 PUSH4 0xAB1A4796 EQ PUSH2 0x11B JUMPI DUP1 PUSH4 0xBEE21D2A EQ PUSH2 0x14B JUMPI DUP1 PUSH4 0xF2FDE38B EQ PUSH2 0x17B JUMPI PUSH2 0x86 JUMP JUMPDEST DUP1 PUSH4 0xEFE6A8B EQ PUSH2 0x8A JUMPI DUP1 PUSH4 0x51CFF8D9 EQ PUSH2 0xA6 JUMPI DUP1 PUSH4 0x715018A6 EQ PUSH2 0xC2 JUMPI DUP1 PUSH4 0x8DA5CB5B EQ PUSH2 0xCC JUMPI JUMPDEST PUSH0 DUP1 REVERT JUMPDEST PUSH2 0xA4 PUSH1 0x4 DUP1 CALLDATASIZE SUB DUP2 ADD SWAP1 PUSH2 0x9F SWAP2 SWAP1 PUSH2 0x874 JUMP JUMPDEST PUSH2 0x197 JUMP JUMPDEST STOP JUMPDEST PUSH2 0xC0 PUSH1 0x4 DUP1 CALLDATASIZE SUB DUP2 ADD SWAP1 PUSH2 0xBB SWAP2 SWAP1 PUSH2 0x8C4 JUMP JUMPDEST PUSH2 0x306 JUMP JUMPDEST STOP JUMPDEST PUSH2 0xCA PUSH2 0x4AD JUMP JUMPDEST STOP JUMPDEST PUSH2 0xD4 PUSH2 0x4C0 JUMP JUMPDEST PUSH1 0x40 MLOAD PUSH2 0xE1 SWAP2 SWAP1 PUSH2 0x8FE JUMP JUMPDEST PUSH1 0x40 MLOAD DUP1 SWAP2 SUB SWAP1 RETURN JUMPDEST PUSH2 0x104 PUSH1 0x4 DUP1 CALLDATASIZE SUB DUP2 ADD SWAP1 PUSH2 0xFF SWAP2 SWAP1 PUSH2 0x917 JUMP JUMPDEST PUSH2 0x4E7 JUMP JUMPDEST PUSH1 0x40 MLOAD PUSH2 0x112 SWAP3 SWAP2 SWAP1 PUSH2 0x964 JUMP JUMPDEST PUSH1 0x40 MLOAD DUP1 SWAP2 SUB SWAP1 RETURN JUMPDEST PUSH2 0x135 PUSH1 0x4 DUP1 CALLDATASIZE SUB DUP2 ADD SWAP1 PUSH2 0x130 SWAP2 SWAP1 PUSH2 0x917 JUMP JUMPDEST PUSH2 0x512 JUMP JUMPDEST PUSH1 0x40 MLOAD PUSH2 0x142 SWAP2 SWAP1 PUSH2 0x98B JUMP JUMPDEST PUSH1 0x40 MLOAD DUP1 SWAP2 SUB SWAP1 RETURN JUMPDEST PUSH2 0x165 PUSH1 0x4 DUP1 CALLDATASIZE SUB DUP2 ADD SWAP1 PUSH2 0x160 SWAP2 SWAP1 PUSH2 0x917 JUMP JUMPDEST PUSH2 0x597 JUMP JUMPDEST PUSH1 0x40 MLOAD PUSH2 0x172 SWAP2 SWAP1 PUSH2 0x98B JUMP JUMPDEST PUSH1 0x40 MLOAD DUP1 SWAP2 SUB SWAP1 RETURN JUMPDEST PUSH2 0x195 PUSH1 0x4 DUP1 CALLDATASIZE SUB DUP2 ADD SWAP1 PUSH2 0x190 SWAP2 SWAP1 PUSH2 0x8C4 JUMP JUMPDEST PUSH2 0x61B JUMP JUMPDEST STOP JUMPDEST PUSH0 DUP4 SWAP1 POP DUP1 PUSH20 0xFFFFFFFFFFFFFFFFFFFFFFFFFFFFFFFFFFFFFFFF AND PUSH4 0x23B872DD CALLER ADDRESS DUP7 PUSH1 0x40 MLOAD DUP5 PUSH4 0xFFFFFFFF AND PUSH1 0xE0 SHL DUP2 MSTORE PUSH1 0x4 ADD PUSH2 0x1D8 SWAP4 SWAP3 SWAP2 SWAP1 PUSH2 0x9A4 JUMP JUMPDEST PUSH1 0x20 PUSH1 0x40 MLOAD DUP1 DUP4 SUB DUP2 PUSH0 DUP8 GAS CALL ISZERO DUP1 ISZERO PUSH2 0x1F4 JUMPI RETURNDATASIZE PUSH0 DUP1 RETURNDATACOPY RETURNDATASIZE PUSH0 REVERT JUMPDEST POP POP POP POP PUSH1 0x40 MLOAD RETURNDATASIZE PUSH1 0x1F NOT PUSH1 0x1F DUP3 ADD AND DUP3 ADD DUP1 PUSH1 0x40 MSTORE POP DUP2 ADD SWAP1 PUSH2 0x218 SWAP2 SWAP1 PUSH2 0xA0E JUMP JUMPDEST PUSH2 0x257 JUMPI PUSH1 0x40 MLOAD PUSH32 0x8C379A000000000000000000000000000000000000000000000000000000000 DUP2 MSTORE PUSH1 0x4 ADD PUSH2 0x24E SWAP1 PUSH2 0xA93 JUMP JUMPDEST PUSH1 0x40 MLOAD DUP1 SWAP2 SUB SWAP1 REVERT JUMPDEST PUSH0 PUSH1 0x1 PUSH0 CALLER PUSH20 0xFFFFFFFFFFFFFFFFFFFFFFFFFFFFFFFFFFFFFFFF AND PUSH20 0xFFFFFFFFFFFFFFFFFFFFFFFFFFFFFFFFFFFFFFFF AND DUP2 MSTORE PUSH1 0x20 ADD SWAP1 DUP2 MSTORE PUSH1 0x20 ADD PUSH0 KECCAK256 PUSH0 DUP7 PUSH20 0xFFFFFFFFFFFFFFFFFFFFFFFFFFFFFFFFFFFFFFFF AND PUSH20 0xFFFFFFFFFFFFFFFFFFFFFFFFFFFFFFFFFFFFFFFF AND DUP2 MSTORE PUSH1 0x20 ADD SWAP1 DUP2 MSTORE PUSH1 0x20 ADD PUSH0 KECCAK256 SWAP1 POP DUP4 DUP2 PUSH0 ADD PUSH0 DUP3 DUP3 SLOAD PUSH2 0x2E4 SWAP2 SWAP1 PUSH2 0xADE JUMP JUMPDEST SWAP3 POP POP DUP2 SWAP1 SSTORE POP DUP3 NUMBER PUSH2 0x2F7 SWAP2 SWAP1 PUSH2 0xADE JUMP JUMPDEST DUP2 PUSH1 0x1 ADD DUP2 SWAP1 SSTORE POP POP POP POP POP POP JUMP JUMPDEST PUSH0 PUSH1 0x1 PUSH0 CALLER PUSH20 0xFFFFFFFFFFFFFFFFFFFFFFFFFFFFFFFFFFFFFFFF AND PUSH20 0xFFFFFFFFFFFFFFFFFFFFFFFFFFFFFFFFFFFFFFFF AND DUP2 MSTORE PUSH1 0x20 ADD SWAP1 DUP2 MSTORE PUSH1 0x20 ADD PUSH0 KECCAK256 PUSH0 DUP4 PUSH20 0xFFFFFFFFFFFFFFFFFFFFFFFFFFFFFFFFFFFFFFFF AND PUSH20 0xFFFFFFFFFFFFFFFFFFFFFFFFFFFFFFFFFFFFFFFF AND DUP2 MSTORE PUSH1 0x20 ADD SWAP1 DUP2 MSTORE PUSH1 0x20 ADD PUSH0 KECCAK256 SWAP1 POP PUSH0 DUP2 PUSH0 ADD SLOAD SWAP1 POP PUSH0 DUP3 PUSH1 0x1 ADD SLOAD SWAP1 POP DUP1 NUMBER LT ISZERO PUSH2 0x3D3 JUMPI PUSH1 0x40 MLOAD PUSH32 0x8C379A000000000000000000000000000000000000000000000000000000000 DUP2 MSTORE PUSH1 0x4 ADD PUSH2 0x3CA SWAP1 PUSH2 0xB5B JUMP JUMPDEST PUSH1 0x40 MLOAD DUP1 SWAP2 SUB SWAP1 REVERT JUMPDEST PUSH0 DUP3 GT PUSH2 0x415 JUMPI PUSH1 0x40 MLOAD PUSH32 0x8C379A000000000000000000000000000000000000000000000000000000000 DUP2 MSTORE PUSH1 0x4 ADD PUSH2 0x40C SWAP1 PUSH2 0xBC3 JUMP JUMPDEST PUSH1 0x40 MLOAD DUP1 SWAP2 SUB SWAP1 REVERT JUMPDEST PUSH0 DUP4 PUSH0 ADD DUP2 SWAP1 SSTORE POP PUSH0 DUP4 PUSH1 0x1 ADD DUP2 SWAP1 SSTORE POP PUSH0 DUP5 SWAP1 POP DUP1 PUSH20 0xFFFFFFFFFFFFFFFFFFFFFFFFFFFFFFFFFFFFFFFF AND PUSH4 0xA9059CBB CALLER DUP6 PUSH1 0x40 MLOAD DUP4 PUSH4 0xFFFFFFFF AND PUSH1 0xE0 SHL DUP2 MSTORE PUSH1 0x4 ADD PUSH2 0x465 SWAP3 SWAP2 SWAP1 PUSH2 0xBE1 JUMP JUMPDEST PUSH1 0x20 PUSH1 0x40 MLOAD DUP1 DUP4 SUB DUP2 PUSH0 DUP8 GAS CALL ISZERO DUP1 ISZERO PUSH2 0x481 JUMPI RETURNDATASIZE PUSH0 DUP1 RETURNDATACOPY RETURNDATASIZE PUSH0 REVERT JUMPDEST POP POP POP POP PUSH1 0x40 MLOAD RETURNDATASIZE PUSH1 0x1F NOT PUSH1 0x1F DUP3 ADD AND DUP3 ADD DUP1 PUSH1 0x40 MSTORE POP DUP2 ADD SWAP1 PUSH2 0x4A5 SWAP2 SWAP1 PUSH2 0xA0E JUMP JUMPDEST POP POP POP POP POP POP JUMP JUMPDEST PUSH2 0x4B5 PUSH2 0x69D JUMP JUMPDEST PUSH2 0x4BE PUSH0 PUSH2 0x71B JUMP JUMPDEST JUMP JUMPDEST PUSH0 DUP1 PUSH0 SWAP1 SLOAD SWAP1 PUSH2 0x100 EXP SWAP1 DIV PUSH20 0xFFFFFFFFFFFFFFFFFFFFFFFFFFFFFFFFFFFFFFFF AND SWAP1 POP SWAP1 JUMP JUMPDEST PUSH1 0x1 PUSH1 0x20 MSTORE DUP2 PUSH0 MSTORE PUSH1 0x40 PUSH0 KECCAK256 PUSH1 0x20 MSTORE DUP1 PUSH0 MSTORE PUSH1 0x40 PUSH0 KECCAK256 PUSH0 SWAP2 POP SWAP2 POP POP DUP1 PUSH0 ADD SLOAD SWAP1 DUP1 PUSH1 0x1 ADD SLOAD SWAP1 POP DUP3 JUMP JUMPDEST PUSH0 PUSH1 0x1 PUSH0 DUP5 PUSH20 0xFFFFFFFFFFFFFFFFFFFFFFFFFFFFFFFFFFFFFFFF AND PUSH20 0xFFFFFFFFFFFFFFFFFFFFFFFFFFFFFFFFFFFFFFFF AND DUP2 MSTORE PUSH1 0x20 ADD SWAP1 DUP2 MSTORE PUSH1 0x20 ADD PUSH0 KECCAK256 PUSH0 DUP4 PUSH20 0xFFFFFFFFFFFFFFFFFFFFFFFFFFFFFFFFFFFFFFFF AND PUSH20 0xFFFFFFFFFFFFFFFFFFFFFFFFFFFFFFFFFFFFFFFF AND DUP2 MSTORE PUSH1 0x20 ADD SWAP1 DUP2 MSTORE PUSH1 0x20 ADD PUSH0 KECCAK256 PUSH1 0x1 ADD SLOAD SWAP1 POP SWAP3 SWAP2 POP POP JUMP JUMPDEST PUSH0 PUSH1 0x1 PUSH0 DUP5 PUSH20 0xFFFFFFFFFFFFFFFFFFFFFFFFFFFFFFFFFFFFFFFF AND PUSH20 0xFFFFFFFFFFFFFFFFFFFFFFFFFFFFFFFFFFFFFFFF AND DUP2 MSTORE PUSH1 0x20 ADD SWAP1 DUP2 MSTORE PUSH1 0x20 ADD PUSH0 KECCAK256 PUSH0 DUP4 PUSH20 0xFFFFFFFFFFFFFFFFFFFFFFFFFFFFFFFFFFFFFFFF AND PUSH20 0xFFFFFFFFFFFFFFFFFFFFFFFFFFFFFFFFFFFFFFFF AND DUP2 MSTORE PUSH1 0x20 ADD SWAP1 DUP2 MSTORE PUSH1 0x20 ADD PUSH0 KECCAK256 PUSH0 ADD SLOAD SWAP1 POP SWAP3 SWAP2 POP POP JUMP JUMPDEST PUSH2 0x623 PUSH2 0x69D JUMP JUMPDEST PUSH0 PUSH20 0xFFFFFFFFFFFFFFFFFFFFFFFFFFFFFFFFFFFFFFFF AND DUP2 PUSH20 0xFFFFFFFFFFFFFFFFFFFFFFFFFFFFFFFFFFFFFFFF AND SUB PUSH2 0x691 JUMPI PUSH1 0x40 MLOAD PUSH32 0x8C379A000000000000000000000000000000000000000000000000000000000 DUP2 MSTORE PUSH1 0x4 ADD PUSH2 0x688 SWAP1 PUSH2 0xC78 JUMP JUMPDEST PUSH1 0x40 MLOAD DUP1 SWAP2 SUB SWAP1 REVERT JUMPDEST PUSH2 0x69A DUP2 PUSH2 0x71B JUMP JUMPDEST POP JUMP JUMPDEST PUSH2 0x6A5 PUSH2 0x7DC JUMP JUMPDEST PUSH20 0xFFFFFFFFFFFFFFFFFFFFFFFFFFFFFFFFFFFFFFFF AND PUSH2 0x6C3 PUSH2 0x4C0 JUMP JUMPDEST PUSH20 0xFFFFFFFFFFFFFFFFFFFFFFFFFFFFFFFFFFFFFFFF AND EQ PUSH2 0x719 JUMPI PUSH1 0x40 MLOAD PUSH32 0x8C379A000000000000000000000000000000000000000000000000000000000 DUP2 MSTORE PUSH1 0x4 ADD PUSH2 0x710 SWAP1 PUSH2 0xCE0 JUMP JUMPDEST PUSH1 0x40 MLOAD DUP1 SWAP2 SUB SWAP1 REVERT JUMPDEST JUMP JUMPDEST PUSH0 DUP1 PUSH0 SWAP1 SLOAD SWAP1 PUSH2 0x100 EXP SWAP1 DIV PUSH20 0xFFFFFFFFFFFFFFFFFFFFFFFFFFFFFFFFFFFFFFFF AND SWAP1 POP DUP2 PUSH0 DUP1 PUSH2 0x100 EXP DUP2 SLOAD DUP2 PUSH20 0xFFFFFFFFFFFFFFFFFFFFFFFFFFFFFFFFFFFFFFFF MUL NOT AND SWAP1 DUP4 PUSH20 0xFFFFFFFFFFFFFFFFFFFFFFFFFFFFFFFFFFFFFFFF AND MUL OR SWAP1 SSTORE POP DUP2 PUSH20 0xFFFFFFFFFFFFFFFFFFFFFFFFFFFFFFFFFFFFFFFF AND DUP2 PUSH20 0xFFFFFFFFFFFFFFFFFFFFFFFFFFFFFFFFFFFFFFFF AND PUSH32 0x8BE0079C531659141344CD1FD0A4F28419497F9722A3DAAFE3B4186F6B6457E0 PUSH1 0x40 MLOAD PUSH1 0x40 MLOAD DUP1 SWAP2 SUB SWAP1 LOG3 POP POP JUMP JUMPDEST PUSH0 CALLER SWAP1 POP SWAP1 JUMP JUMPDEST PUSH0 DUP1 REVERT JUMPDEST PUSH0 PUSH20 0xFFFFFFFFFFFFFFFFFFFFFFFFFFFFFFFFFFFFFFFF DUP3 AND SWAP1 POP SWAP2 SWAP1 POP JUMP JUMPDEST PUSH0 PUSH2 0x810 DUP3 PUSH2 0x7E7 JUMP JUMPDEST SWAP1 POP SWAP2 SWAP1 POP JUMP JUMPDEST PUSH2 0x820 DUP2 PUSH2 0x806 JUMP JUMPDEST DUP2 EQ PUSH2 0x82A JUMPI PUSH0 DUP1 REVERT JUMPDEST POP JUMP JUMPDEST PUSH0 DUP2 CALLDATALOAD SWAP1 POP PUSH2 0x83B DUP2 PUSH2 0x817 JUMP JUMPDEST SWAP3 SWAP2 POP POP JUMP JUMPDEST PUSH0 DUP2 SWAP1 POP SWAP2 SWAP1 POP JUMP JUMPDEST PUSH2 0x853 DUP2 PUSH2 0x841 JUMP JUMPDEST DUP2 EQ PUSH2 0x85D JUMPI PUSH0 DUP1 REVERT JUMPDEST POP JUMP JUMPDEST PUSH0 DUP2 CALLDATALOAD SWAP1 POP PUSH2 0x86E DUP2 PUSH2 0x84A JUMP JUMPDEST SWAP3 SWAP2 POP POP JUMP JUMPDEST PUSH0 DUP1 PUSH0 PUSH1 0x60 DUP5 DUP7 SUB SLT ISZERO PUSH2 0x88B JUMPI PUSH2 0x88A PUSH2 0x7E3 JUMP JUMPDEST JUMPDEST PUSH0 PUSH2 0x898 DUP7 DUP3 DUP8 ADD PUSH2 0x82D JUMP JUMPDEST SWAP4 POP POP PUSH1 0x20 PUSH2 0x8A9 DUP7 DUP3 DUP8 ADD PUSH2 0x860 JUMP JUMPDEST SWAP3 POP POP PUSH1 0x40 PUSH2 0x8BA DUP7 DUP3 DUP8 ADD PUSH2 0x860 JUMP JUMPDEST SWAP2 POP POP SWAP3 POP SWAP3 POP SWAP3 JUMP JUMPDEST PUSH0 PUSH1 0x20 DUP3 DUP5 SUB SLT ISZERO PUSH2 0x8D9 JUMPI PUSH2 0x8D8 PUSH2 0x7E3 JUMP JUMPDEST JUMPDEST PUSH0 PUSH2 0x8E6 DUP5 DUP3 DUP6 ADD PUSH2 0x82D JUMP JUMPDEST SWAP2 POP POP SWAP3 SWAP2 POP POP JUMP JUMPDEST PUSH2 0x8F8 DUP2 PUSH2 0x806 JUMP JUMPDEST DUP3 MSTORE POP POP JUMP JUMPDEST PUSH0 PUSH1 0x20 DUP3 ADD SWAP1 POP PUSH2 0x911 PUSH0 DUP4 ADD DUP5 PUSH2 0x8EF JUMP JUMPDEST SWAP3 SWAP2 POP POP JUMP JUMPDEST PUSH0 DUP1 PUSH1 0x40 DUP4 DUP6 SUB SLT ISZERO PUSH2 0x92D JUMPI PUSH2 0x92C PUSH2 0x7E3 JUMP JUMPDEST JUMPDEST PUSH0 PUSH2 0x93A DUP6 DUP3 DUP7 ADD PUSH2 0x82D JUMP JUMPDEST SWAP3 POP POP PUSH1 0x20 PUSH2 0x94B DUP6 DUP3 DUP7 ADD PUSH2 0x82D JUMP JUMPDEST SWAP2 POP POP SWAP3 POP SWAP3 SWAP1 POP JUMP JUMPDEST PUSH2 0x95E DUP2 PUSH2 0x841 JUMP JUMPDEST DUP3 MSTORE POP POP JUMP JUMPDEST PUSH0 PUSH1 0x40 DUP3 ADD SWAP1 POP PUSH2 0x977 PUSH0 DUP4 ADD DUP6 PUSH2 0x955 JUMP JUMPDEST PUSH2 0x984 PUSH1 0x20 DUP4 ADD DUP5 PUSH2 0x955 JUMP JUMPDEST SWAP4 SWAP3 POP POP POP JUMP JUMPDEST PUSH0 PUSH1 0x20 DUP3 ADD SWAP1 POP PUSH2 0x99E PUSH0 DUP4 ADD DUP5 PUSH2 0x955 JUMP JUMPDEST SWAP3 SWAP2 POP POP JUMP JUMPDEST PUSH0 PUSH1 0x60 DUP3 ADD SWAP1 POP PUSH2 0x9B7 PUSH0 DUP4 ADD DUP7 PUSH2 0x8EF JUMP JUMPDEST PUSH2 0x9C4 PUSH1 0x20 DUP4 ADD DUP6 PUSH2 0x8EF JUMP JUMPDEST PUSH2 0x9D1 PUSH1 0x40 DUP4 ADD DUP5 PUSH2 0x955 JUMP JUMPDEST SWAP5 SWAP4 POP POP POP POP JUMP JUMPDEST PUSH0 DUP2 ISZERO ISZERO SWAP1 POP SWAP2 SWAP1 POP JUMP JUMPDEST PUSH2 0x9ED DUP2 PUSH2 0x9D9 JUMP JUMPDEST DUP2 EQ PUSH2 0x9F7 JUMPI PUSH0 DUP1 REVERT JUMPDEST POP JUMP JUMPDEST PUSH0 DUP2 MLOAD SWAP1 POP PUSH2 0xA08 DUP2 PUSH2 0x9E4 JUMP JUMPDEST SWAP3 SWAP2 POP POP JUMP JUMPDEST PUSH0 PUSH1 0x20 DUP3 DUP5 SUB SLT ISZERO PUSH2 0xA23 JUMPI PUSH2 0xA22 PUSH2 0x7E3 JUMP JUMPDEST JUMPDEST PUSH0 PUSH2 0xA30 DUP5 DUP3 DUP6 ADD PUSH2 0x9FA JUMP JUMPDEST SWAP2 POP POP SWAP3 SWAP2 POP POP JUMP JUMPDEST PUSH0 DUP3 DUP3 MSTORE PUSH1 0x20 DUP3 ADD SWAP1 POP SWAP3 SWAP2 POP POP JUMP JUMPDEST PUSH32 0x546F6B656E207472616E73666572206661696C65640000000000000000000000 PUSH0 DUP3 ADD MSTORE POP JUMP JUMPDEST PUSH0 PUSH2 0xA7D PUSH1 0x15 DUP4 PUSH2 0xA39 JUMP JUMPDEST SWAP2 POP PUSH2 0xA88 DUP3 PUSH2 0xA49 JUMP JUMPDEST PUSH1 0x20 DUP3 ADD SWAP1 POP SWAP2 SWAP1 POP JUMP JUMPDEST PUSH0 PUSH1 0x20 DUP3 ADD SWAP1 POP DUP2 DUP2 SUB PUSH0 DUP4 ADD MSTORE PUSH2 0xAAA DUP2 PUSH2 0xA71 JUMP JUMPDEST SWAP1 POP SWAP2 SWAP1 POP JUMP JUMPDEST PUSH32 0x4E487B7100000000000000000000000000000000000000000000000000000000 PUSH0 MSTORE PUSH1 0x11 PUSH1 0x4 MSTORE PUSH1 0x24 PUSH0 REVERT JUMPDEST PUSH0 PUSH2 0xAE8 DUP3 PUSH2 0x841 JUMP JUMPDEST SWAP2 POP PUSH2 0xAF3 DUP4 PUSH2 0x841 JUMP JUMPDEST SWAP3 POP DUP3 DUP3 ADD SWAP1 POP DUP1 DUP3 GT ISZERO PUSH2 0xB0B JUMPI PUSH2 0xB0A PUSH2 0xAB1 JUMP JUMPDEST JUMPDEST SWAP3 SWAP2 POP POP JUMP JUMPDEST PUSH32 0x5769746864726177616C206973206E6F7420616C6C6F77656420796574000000 PUSH0 DUP3 ADD MSTORE POP JUMP JUMPDEST PUSH0 PUSH2 0xB45 PUSH1 0x1D DUP4 PUSH2 0xA39 JUMP JUMPDEST SWAP2 POP PUSH2 0xB50 DUP3 PUSH2 0xB11 JUMP JUMPDEST PUSH1 0x20 DUP3 ADD SWAP1 POP SWAP2 SWAP1 POP JUMP JUMPDEST PUSH0 PUSH1 0x20 DUP3 ADD SWAP1 POP DUP2 DUP2 SUB PUSH0 DUP4 ADD MSTORE PUSH2 0xB72 DUP2 PUSH2 0xB39 JUMP JUMPDEST SWAP1 POP SWAP2 SWAP1 POP JUMP JUMPDEST PUSH32 0x4E6F206465706F736974656420616D6F756E7420617661696C61626C65000000 PUSH0 DUP3 ADD MSTORE POP JUMP JUMPDEST PUSH0 PUSH2 0xBAD PUSH1 0x1D DUP4 PUSH2 0xA39 JUMP JUMPDEST SWAP2 POP PUSH2 0xBB8 DUP3 PUSH2 0xB79 JUMP JUMPDEST PUSH1 0x20 DUP3 ADD SWAP1 POP SWAP2 SWAP1 POP JUMP JUMPDEST PUSH0 PUSH1 0x20 DUP3 ADD SWAP1 POP DUP2 DUP2 SUB PUSH0 DUP4 ADD MSTORE PUSH2 0xBDA DUP2 PUSH2 0xBA1 JUMP JUMPDEST SWAP1 POP SWAP2 SWAP1 POP JUMP JUMPDEST PUSH0 PUSH1 0x40 DUP3 ADD SWAP1 POP PUSH2 0xBF4 PUSH0 DUP4 ADD DUP6 PUSH2 0x8EF JUMP JUMPDEST PUSH2 0xC01 PUSH1 0x20 DUP4 ADD DUP5 PUSH2 0x955 JUMP JUMPDEST SWAP4 SWAP3 POP POP POP JUMP JUMPDEST PUSH32 0x4F776E61626C653A206E6577206F776E657220697320746865207A65726F2061 PUSH0 DUP3 ADD MSTORE PUSH32 0x6464726573730000000000000000000000000000000000000000000000000000 PUSH1 0x20 DUP3 ADD MSTORE POP JUMP JUMPDEST PUSH0 PUSH2 0xC62 PUSH1 0x26 DUP4 PUSH2 0xA39 JUMP JUMPDEST SWAP2 POP PUSH2 0xC6D DUP3 PUSH2 0xC08 JUMP JUMPDEST PUSH1 0x40 DUP3 ADD SWAP1 POP SWAP2 SWAP1 POP JUMP JUMPDEST PUSH0 PUSH1 0x20 DUP3 ADD SWAP1 POP DUP2 DUP2 SUB PUSH0 DUP4 ADD MSTORE PUSH2 0xC8F DUP2 PUSH2 0xC56 JUMP JUMPDEST SWAP1 POP SWAP2 SWAP1 POP JUMP JUMPDEST PUSH32 0x4F776E61626C653A2063616C6C6572206973206E6F7420746865206F776E6572 PUSH0 DUP3 ADD MSTORE POP JUMP JUMPDEST PUSH0 PUSH2 0xCCA PUSH1 0x20 DUP4 PUSH2 0xA39 JUMP JUMPDEST SWAP2 POP PUSH2 0xCD5 DUP3 PUSH2 0xC96 JUMP JUMPDEST PUSH1 0x20 DUP3 ADD SWAP1 POP SWAP2 SWAP1 POP JUMP JUMPDEST PUSH0 PUSH1 0x20 DUP3 ADD SWAP1 POP DUP2 DUP2 SUB PUSH0 DUP4 ADD MSTORE PUSH2 0xCF7 DUP2 PUSH2 0xCBE JUMP JUMPDEST SWAP1 POP SWAP2 SWAP1 POP JUMP INVALID LOG2 PUSH5 0x6970667358 0x22 SLT KECCAK256 0x2E 0xBA DUP3 PUSH9 0x31D6756ECDE8D9A184 SHR PUSH2 0xF26D EXTCODESIZE CALLVALUE PUSH29 0xE84471C061C6AFD53E3FD1D664736F6C634300081A0033000000000000 "
				},
				"gasEstimates": {
					"creation": {
						"codeDepositCost": "676000",
						"executionCost": "infinite",
						"totalCost": "infinite"
					},
					"external": {
						"deposit(address,uint256,uint256)": "infinite",
						"deposits(address,address)": "infinite",
						"getDepositedCoinBalance(address,address)": "infinite",
						"getWithdrawalUnlockTime(address,address)": "infinite",
						"owner()": "2582",
						"renounceOwnership()": "30435",
						"transferOwnership(address)": "30797",
						"withdraw(address)": "infinite"
					}
				},
				"methodIdentifiers": {
					"deposit(address,uint256,uint256)": "0efe6a8b",
					"deposits(address,address)": "8f601f66",
					"getDepositedCoinBalance(address,address)": "bee21d2a",
					"getWithdrawalUnlockTime(address,address)": "ab1a4796",
					"owner()": "8da5cb5b",
					"renounceOwnership()": "715018a6",
					"transferOwnership(address)": "f2fde38b",
					"withdraw(address)": "51cff8d9"
				}
			},
			"storageLayout": {
				"storage": [
					{
						"astId": 7,
						"contract": "trustless cross-chain/trading pair formation/DpositforNFD.sol:Deposit",
						"label": "_owner",
						"offset": 0,
						"slot": "0",
						"type": "t_address"
					},
					{
						"astId": 230,
						"contract": "trustless cross-chain/trading pair formation/DpositforNFD.sol:Deposit",
						"label": "deposits",
						"offset": 0,
						"slot": "1",
						"type": "t_mapping(t_address,t_mapping(t_address,t_struct(DepositInfo)223_storage))"
					}
				],
				"types": {
					"t_address": {
						"encoding": "inplace",
						"label": "address",
						"numberOfBytes": "20"
					},
					"t_mapping(t_address,t_mapping(t_address,t_struct(DepositInfo)223_storage))": {
						"encoding": "mapping",
						"key": "t_address",
						"label": "mapping(address => mapping(address => struct Deposit.DepositInfo))",
						"numberOfBytes": "32",
						"value": "t_mapping(t_address,t_struct(DepositInfo)223_storage)"
					},
					"t_mapping(t_address,t_struct(DepositInfo)223_storage)": {
						"encoding": "mapping",
						"key": "t_address",
						"label": "mapping(address => struct Deposit.DepositInfo)",
						"numberOfBytes": "32",
						"value": "t_struct(DepositInfo)223_storage"
					},
					"t_struct(DepositInfo)223_storage": {
						"encoding": "inplace",
						"label": "struct Deposit.DepositInfo",
						"members": [
							{
								"astId": 220,
								"contract": "trustless cross-chain/trading pair formation/DpositforNFD.sol:Deposit",
								"label": "amount",
								"offset": 0,
								"slot": "0",
								"type": "t_uint256"
							},
							{
								"astId": 222,
								"contract": "trustless cross-chain/trading pair formation/DpositforNFD.sol:Deposit",
								"label": "withdrawalUnlockTime",
								"offset": 0,
								"slot": "1",
								"type": "t_uint256"
							}
						],
						"numberOfBytes": "64"
					},
					"t_uint256": {
						"encoding": "inplace",
						"label": "uint256",
						"numberOfBytes": "32"
					}
				}
			},
			"userdoc": {
				"kind": "user",
				"methods": {},
				"version": 1
			}
		}
	}
}