{
	"trustless cross-chain/trading pair formation/cross-chain-validation.sol": {
		"SCc": {
			"abi": [
				{
					"inputs": [
						{
							"internalType": "address",
							"name": "_gameItemContract",
							"type": "address"
						}
					],
					"stateMutability": "nonpayable",
					"type": "constructor"
				},
				{
					"anonymous": false,
					"inputs": [
						{
							"indexed": true,
							"internalType": "address",
							"name": "owner",
							"type": "address"
						},
						{
							"indexed": true,
							"internalType": "uint256",
							"name": "tokenId",
							"type": "uint256"
						}
					],
					"name": "NFTStored",
					"type": "event"
				},
				{
					"anonymous": false,
					"inputs": [
						{
							"indexed": true,
							"internalType": "address",
							"name": "previousOwner",
							"type": "address"
						},
						{
							"indexed": true,
							"internalType": "address",
							"name": "newOwner",
							"type": "address"
						}
					],
					"name": "OwnershipTransferred",
					"type": "event"
				},
				{
					"inputs": [],
					"name": "gameItemContract",
					"outputs": [
						{
							"internalType": "contract IERC721",
							"name": "",
							"type": "address"
						}
					],
					"stateMutability": "view",
					"type": "function"
				},
				{
					"inputs": [
						{
							"internalType": "uint256",
							"name": "tokenId",
							"type": "uint256"
						}
					],
					"name": "getStoredStatus",
					"outputs": [
						{
							"internalType": "bool",
							"name": "",
							"type": "bool"
						}
					],
					"stateMutability": "view",
					"type": "function"
				},
				{
					"inputs": [],
					"name": "owner",
					"outputs": [
						{
							"internalType": "address",
							"name": "",
							"type": "address"
						}
					],
					"stateMutability": "view",
					"type": "function"
				},
				{
					"inputs": [],
					"name": "renounceOwnership",
					"outputs": [],
					"stateMutability": "nonpayable",
					"type": "function"
				},
				{
					"inputs": [
						{
							"internalType": "bytes32",
							"name": "",
							"type": "bytes32"
						}
					],
					"name": "storedNFTs",
					"outputs": [
						{
							"internalType": "bool",
							"name": "",
							"type": "bool"
						}
					],
					"stateMutability": "view",
					"type": "function"
				},
				{
					"inputs": [
						{
							"internalType": "address",
							"name": "newOwner",
							"type": "address"
						}
					],
					"name": "transferOwnership",
					"outputs": [],
					"stateMutability": "nonpayable",
					"type": "function"
				},
				{
					"inputs": [
						{
							"internalType": "uint256",
							"name": "tokenId",
							"type": "uint256"
						},
						{
							"internalType": "uint256",
							"name": "blockNumber",
							"type": "uint256"
						},
						{
							"internalType": "bytes32[]",
							"name": "proof",
							"type": "bytes32[]"
						},
						{
							"internalType": "bytes32",
							"name": "root",
							"type": "bytes32"
						},
						{
							"internalType": "bytes32",
							"name": "leaf",
							"type": "bytes32"
						}
					],
					"name": "verifyAndStore",
					"outputs": [],
					"stateMutability": "nonpayable",
					"type": "function"
				}
			],
			"devdoc": {
				"kind": "dev",
				"methods": {
					"owner()": {
						"details": "Returns the address of the current owner."
					},
					"renounceOwnership()": {
						"details": "Leaves the contract without owner. It will not be possible to call `onlyOwner` functions anymore. Can only be called by the current owner. NOTE: Renouncing ownership will leave the contract without an owner, thereby removing any functionality that is only available to the owner."
					},
					"transferOwnership(address)": {
						"details": "Transfers ownership of the contract to a new account (`newOwner`). Can only be called by the current owner."
					}
				},
				"version": 1
			},
			"evm": {
				"assembly": "    /* \"trustless cross-chain/trading pair formation/cross-chain-validation.sol\":859:2216  contract SCc is Ownable {... */\n  mstore(0x40, 0x80)\n    /* \"trustless cross-chain/trading pair formation/cross-chain-validation.sol\":1045:1146  constructor(address _gameItemContract) {... */\n  callvalue\n  dup1\n  iszero\n  tag_1\n  jumpi\n  0x00\n  dup1\n  revert\ntag_1:\n  pop\n  mload(0x40)\n  sub(codesize, bytecodeSize)\n  dup1\n  bytecodeSize\n  dup4\n  codecopy\n  dup2\n  dup2\n  add\n  0x40\n  mstore\n  dup2\n  add\n  swap1\n  tag_2\n  swap2\n  swap1\n  tag_3\n  jump\t// in\ntag_2:\n    /* \"@openzeppelin/contracts/access/Ownable.sol\":936:968  _transferOwnership(_msgSender()) */\n  tag_7\n    /* \"@openzeppelin/contracts/access/Ownable.sol\":955:967  _msgSender() */\n  tag_8\n    /* \"@openzeppelin/contracts/access/Ownable.sol\":955:965  _msgSender */\n  shl(0x20, tag_9)\n    /* \"@openzeppelin/contracts/access/Ownable.sol\":955:967  _msgSender() */\n  0x20\n  shr\n  jump\t// in\ntag_8:\n    /* \"@openzeppelin/contracts/access/Ownable.sol\":936:954  _transferOwnership */\n  shl(0x20, tag_10)\n    /* \"@openzeppelin/contracts/access/Ownable.sol\":936:968  _transferOwnership(_msgSender()) */\n  0x20\n  shr\n  jump\t// in\ntag_7:\n    /* \"trustless cross-chain/trading pair formation/cross-chain-validation.sol\":1121:1138  _gameItemContract */\n  dup1\n    /* \"trustless cross-chain/trading pair formation/cross-chain-validation.sol\":1094:1110  gameItemContract */\n  0x01\n  0x00\n    /* \"trustless cross-chain/trading pair formation/cross-chain-validation.sol\":1094:1139  gameItemContract = IERC721(_gameItemContract) */\n  0x0100\n  exp\n  dup2\n  sload\n  dup2\n  0xffffffffffffffffffffffffffffffffffffffff\n  mul\n  not\n  and\n  swap1\n  dup4\n  0xffffffffffffffffffffffffffffffffffffffff\n  and\n  mul\n  or\n  swap1\n  sstore\n  pop\n    /* \"trustless cross-chain/trading pair formation/cross-chain-validation.sol\":1045:1146  constructor(address _gameItemContract) {... */\n  pop\n    /* \"trustless cross-chain/trading pair formation/cross-chain-validation.sol\":859:2216  contract SCc is Ownable {... */\n  jump(tag_12)\n    /* \"@openzeppelin/contracts/utils/Context.sol\":640:736  function _msgSender() internal view virtual returns (address) {... */\ntag_9:\n    /* \"@openzeppelin/contracts/utils/Context.sol\":693:700  address */\n  0x00\n    /* \"@openzeppelin/contracts/utils/Context.sol\":719:729  msg.sender */\n  caller\n    /* \"@openzeppelin/contracts/utils/Context.sol\":712:729  return msg.sender */\n  swap1\n  pop\n    /* \"@openzeppelin/contracts/utils/Context.sol\":640:736  function _msgSender() internal view virtual returns (address) {... */\n  swap1\n  jump\t// out\n    /* \"@openzeppelin/contracts/access/Ownable.sol\":2433:2620  function _transferOwnership(address newOwner) internal virtual {... */\ntag_10:\n    /* \"@openzeppelin/contracts/access/Ownable.sol\":2506:2522  address oldOwner */\n  0x00\n    /* \"@openzeppelin/contracts/access/Ownable.sol\":2525:2531  _owner */\n  dup1\n  0x00\n  swap1\n  sload\n  swap1\n  0x0100\n  exp\n  swap1\n  div\n  0xffffffffffffffffffffffffffffffffffffffff\n  and\n    /* \"@openzeppelin/contracts/access/Ownable.sol\":2506:2531  address oldOwner = _owner */\n  swap1\n  pop\n    /* \"@openzeppelin/contracts/access/Ownable.sol\":2550:2558  newOwner */\n  dup2\n    /* \"@openzeppelin/contracts/access/Ownable.sol\":2541:2547  _owner */\n  0x00\n  dup1\n    /* \"@openzeppelin/contracts/access/Ownable.sol\":2541:2558  _owner = newOwner */\n  0x0100\n  exp\n  dup2\n  sload\n  dup2\n  0xffffffffffffffffffffffffffffffffffffffff\n  mul\n  not\n  and\n  swap1\n  dup4\n  0xffffffffffffffffffffffffffffffffffffffff\n  and\n  mul\n  or\n  swap1\n  sstore\n  pop\n    /* \"@openzeppelin/contracts/access/Ownable.sol\":2604:2612  newOwner */\n  dup2\n    /* \"@openzeppelin/contracts/access/Ownable.sol\":2573:2613  OwnershipTransferred(oldOwner, newOwner) */\n  0xffffffffffffffffffffffffffffffffffffffff\n  and\n    /* \"@openzeppelin/contracts/access/Ownable.sol\":2594:2602  oldOwner */\n  dup2\n    /* \"@openzeppelin/contracts/access/Ownable.sol\":2573:2613  OwnershipTransferred(oldOwner, newOwner) */\n  0xffffffffffffffffffffffffffffffffffffffff\n  and\n  0x8be0079c531659141344cd1fd0a4f28419497f9722a3daafe3b4186f6b6457e0\n  mload(0x40)\n  mload(0x40)\n  dup1\n  swap2\n  sub\n  swap1\n  log3\n    /* \"@openzeppelin/contracts/access/Ownable.sol\":2496:2620  {... */\n  pop\n    /* \"@openzeppelin/contracts/access/Ownable.sol\":2433:2620  function _transferOwnership(address newOwner) internal virtual {... */\n  pop\n  jump\t// out\n    /* \"#utility.yul\":88:205   */\ntag_16:\n    /* \"#utility.yul\":197:198   */\n  0x00\n    /* \"#utility.yul\":194:195   */\n  dup1\n    /* \"#utility.yul\":187:199   */\n  revert\n    /* \"#utility.yul\":334:460   */\ntag_18:\n    /* \"#utility.yul\":371:378   */\n  0x00\n    /* \"#utility.yul\":411:453   */\n  0xffffffffffffffffffffffffffffffffffffffff\n    /* \"#utility.yul\":404:409   */\n  dup3\n    /* \"#utility.yul\":400:454   */\n  and\n    /* \"#utility.yul\":389:454   */\n  swap1\n  pop\n    /* \"#utility.yul\":334:460   */\n  swap2\n  swap1\n  pop\n  jump\t// out\n    /* \"#utility.yul\":466:562   */\ntag_19:\n    /* \"#utility.yul\":503:510   */\n  0x00\n    /* \"#utility.yul\":532:556   */\n  tag_28\n    /* \"#utility.yul\":550:555   */\n  dup3\n    /* \"#utility.yul\":532:556   */\n  tag_18\n  jump\t// in\ntag_28:\n    /* \"#utility.yul\":521:556   */\n  swap1\n  pop\n    /* \"#utility.yul\":466:562   */\n  swap2\n  swap1\n  pop\n  jump\t// out\n    /* \"#utility.yul\":568:690   */\ntag_20:\n    /* \"#utility.yul\":641:665   */\n  tag_30\n    /* \"#utility.yul\":659:664   */\n  dup2\n    /* \"#utility.yul\":641:665   */\n  tag_19\n  jump\t// in\ntag_30:\n    /* \"#utility.yul\":634:639   */\n  dup2\n    /* \"#utility.yul\":631:666   */\n  eq\n    /* \"#utility.yul\":621:684   */\n  tag_31\n  jumpi\n    /* \"#utility.yul\":680:681   */\n  0x00\n    /* \"#utility.yul\":677:678   */\n  dup1\n    /* \"#utility.yul\":670:682   */\n  revert\n    /* \"#utility.yul\":621:684   */\ntag_31:\n    /* \"#utility.yul\":568:690   */\n  pop\n  jump\t// out\n    /* \"#utility.yul\":696:839   */\ntag_21:\n    /* \"#utility.yul\":753:758   */\n  0x00\n    /* \"#utility.yul\":784:790   */\n  dup2\n    /* \"#utility.yul\":778:791   */\n  mload\n    /* \"#utility.yul\":769:791   */\n  swap1\n  pop\n    /* \"#utility.yul\":800:833   */\n  tag_33\n    /* \"#utility.yul\":827:832   */\n  dup2\n    /* \"#utility.yul\":800:833   */\n  tag_20\n  jump\t// in\ntag_33:\n    /* \"#utility.yul\":696:839   */\n  swap3\n  swap2\n  pop\n  pop\n  jump\t// out\n    /* \"#utility.yul\":845:1196   */\ntag_3:\n    /* \"#utility.yul\":915:921   */\n  0x00\n    /* \"#utility.yul\":964:966   */\n  0x20\n    /* \"#utility.yul\":952:961   */\n  dup3\n    /* \"#utility.yul\":943:950   */\n  dup5\n    /* \"#utility.yul\":939:962   */\n  sub\n    /* \"#utility.yul\":935:967   */\n  slt\n    /* \"#utility.yul\":932:1051   */\n  iszero\n  tag_35\n  jumpi\n    /* \"#utility.yul\":970:1049   */\n  tag_36\n  tag_16\n  jump\t// in\ntag_36:\n    /* \"#utility.yul\":932:1051   */\ntag_35:\n    /* \"#utility.yul\":1090:1091   */\n  0x00\n    /* \"#utility.yul\":1115:1179   */\n  tag_37\n    /* \"#utility.yul\":1171:1178   */\n  dup5\n    /* \"#utility.yul\":1162:1168   */\n  dup3\n    /* \"#utility.yul\":1151:1160   */\n  dup6\n    /* \"#utility.yul\":1147:1169   */\n  add\n    /* \"#utility.yul\":1115:1179   */\n  tag_21\n  jump\t// in\ntag_37:\n    /* \"#utility.yul\":1105:1179   */\n  swap2\n  pop\n    /* \"#utility.yul\":1061:1189   */\n  pop\n    /* \"#utility.yul\":845:1196   */\n  swap3\n  swap2\n  pop\n  pop\n  jump\t// out\n    /* \"trustless cross-chain/trading pair formation/cross-chain-validation.sol\":859:2216  contract SCc is Ownable {... */\ntag_12:\n  dataSize(sub_0)\n  dup1\n  dataOffset(sub_0)\n  0x00\n  codecopy\n  0x00\n  return\nstop\n\nsub_0: assembly {\n        /* \"trustless cross-chain/trading pair formation/cross-chain-validation.sol\":859:2216  contract SCc is Ownable {... */\n      mstore(0x40, 0x80)\n      callvalue\n      dup1\n      iszero\n      tag_1\n      jumpi\n      0x00\n      dup1\n      revert\n    tag_1:\n      pop\n      jumpi(tag_2, lt(calldatasize, 0x04))\n      shr(0xe0, calldataload(0x00))\n      dup1\n      0x8da5cb5b\n      gt\n      tag_10\n      jumpi\n      dup1\n      0x8da5cb5b\n      eq\n      tag_6\n      jumpi\n      dup1\n      0xc9ff64ec\n      eq\n      tag_7\n      jumpi\n      dup1\n      0xf2fde38b\n      eq\n      tag_8\n      jumpi\n      dup1\n      0xf9be04ca\n      eq\n      tag_9\n      jumpi\n      jump(tag_2)\n    tag_10:\n      dup1\n      0x130b7686\n      eq\n      tag_3\n      jumpi\n      dup1\n      0x22341741\n      eq\n      tag_4\n      jumpi\n      dup1\n      0x715018a6\n      eq\n      tag_5\n      jumpi\n    tag_2:\n      0x00\n      dup1\n      revert\n        /* \"trustless cross-chain/trading pair formation/cross-chain-validation.sol\":1152:1553  function verifyAndStore(... */\n    tag_3:\n      tag_11\n      0x04\n      dup1\n      calldatasize\n      sub\n      dup2\n      add\n      swap1\n      tag_12\n      swap2\n      swap1\n      tag_13\n      jump\t// in\n    tag_12:\n      tag_14\n      jump\t// in\n    tag_11:\n      stop\n        /* \"trustless cross-chain/trading pair formation/cross-chain-validation.sol\":926:968  mapping(bytes32 => bool) public storedNFTs */\n    tag_4:\n      tag_15\n      0x04\n      dup1\n      calldatasize\n      sub\n      dup2\n      add\n      swap1\n      tag_16\n      swap2\n      swap1\n      tag_17\n      jump\t// in\n    tag_16:\n      tag_18\n      jump\t// in\n    tag_15:\n      mload(0x40)\n      tag_19\n      swap2\n      swap1\n      tag_20\n      jump\t// in\n    tag_19:\n      mload(0x40)\n      dup1\n      swap2\n      sub\n      swap1\n      return\n        /* \"@openzeppelin/contracts/access/Ownable.sol\":1831:1932  function renounceOwnership() public virtual onlyOwner {... */\n    tag_5:\n      tag_21\n      tag_22\n      jump\t// in\n    tag_21:\n      stop\n        /* \"@openzeppelin/contracts/access/Ownable.sol\":1201:1286  function owner() public view virtual returns (address) {... */\n    tag_6:\n      tag_23\n      tag_24\n      jump\t// in\n    tag_23:\n      mload(0x40)\n      tag_25\n      swap2\n      swap1\n      tag_26\n      jump\t// in\n    tag_25:\n      mload(0x40)\n      dup1\n      swap2\n      sub\n      swap1\n      return\n        /* \"trustless cross-chain/trading pair formation/cross-chain-validation.sol\":2020:2214  function getStoredStatus(uint256 tokenId) external view returns (bool) {... */\n    tag_7:\n      tag_27\n      0x04\n      dup1\n      calldatasize\n      sub\n      dup2\n      add\n      swap1\n      tag_28\n      swap2\n      swap1\n      tag_29\n      jump\t// in\n    tag_28:\n      tag_30\n      jump\t// in\n    tag_27:\n      mload(0x40)\n      tag_31\n      swap2\n      swap1\n      tag_20\n      jump\t// in\n    tag_31:\n      mload(0x40)\n      dup1\n      swap2\n      sub\n      swap1\n      return\n        /* \"@openzeppelin/contracts/access/Ownable.sol\":2081:2279  function transferOwnership(address newOwner) public virtual onlyOwner {... */\n    tag_8:\n      tag_32\n      0x04\n      dup1\n      calldatasize\n      sub\n      dup2\n      add\n      swap1\n      tag_33\n      swap2\n      swap1\n      tag_34\n      jump\t// in\n    tag_33:\n      tag_35\n      jump\t// in\n    tag_32:\n      stop\n        /* \"trustless cross-chain/trading pair formation/cross-chain-validation.sol\":889:920  IERC721 public gameItemContract */\n    tag_9:\n      tag_36\n      tag_37\n      jump\t// in\n    tag_36:\n      mload(0x40)\n      tag_38\n      swap2\n      swap1\n      tag_39\n      jump\t// in\n    tag_38:\n      mload(0x40)\n      dup1\n      swap2\n      sub\n      swap1\n      return\n        /* \"trustless cross-chain/trading pair formation/cross-chain-validation.sol\":1152:1553  function verifyAndStore(... */\n    tag_14:\n        /* \"trustless cross-chain/trading pair formation/cross-chain-validation.sol\":1356:1367  blockNumber */\n      dup5\n        /* \"trustless cross-chain/trading pair formation/cross-chain-validation.sol\":1341:1353  block.number */\n      number\n        /* \"trustless cross-chain/trading pair formation/cross-chain-validation.sol\":1341:1367  block.number > blockNumber */\n      gt\n        /* \"trustless cross-chain/trading pair formation/cross-chain-validation.sol\":1333:1438  require(block.number > blockNumber, \"Current block number is not greater than the provided block number\") */\n      tag_41\n      jumpi\n      mload(0x40)\n      0x08c379a000000000000000000000000000000000000000000000000000000000\n      dup2\n      mstore\n      0x04\n      add\n      tag_42\n      swap1\n      tag_43\n      jump\t// in\n    tag_42:\n      mload(0x40)\n      dup1\n      swap2\n      sub\n      swap1\n      revert\n    tag_41:\n        /* \"trustless cross-chain/trading pair formation/cross-chain-validation.sol\":1456:1493  MerkleProof.verify(proof, root, leaf) */\n      tag_44\n        /* \"trustless cross-chain/trading pair formation/cross-chain-validation.sol\":1475:1480  proof */\n      dup5\n      dup5\n        /* \"trustless cross-chain/trading pair formation/cross-chain-validation.sol\":1456:1493  MerkleProof.verify(proof, root, leaf) */\n      dup1\n      dup1\n      0x20\n      mul\n      0x20\n      add\n      mload(0x40)\n      swap1\n      dup2\n      add\n      0x40\n      mstore\n      dup1\n      swap4\n      swap3\n      swap2\n      swap1\n      dup2\n      dup2\n      mstore\n      0x20\n      add\n      dup4\n      dup4\n      0x20\n      mul\n      dup1\n      dup3\n      dup5\n      calldatacopy\n      0x00\n      dup2\n      dup5\n      add\n      mstore\n      not(0x1f)\n      0x1f\n      dup3\n      add\n      and\n      swap1\n      pop\n      dup1\n      dup4\n      add\n      swap3\n      pop\n      pop\n      pop\n      pop\n      pop\n      pop\n      pop\n        /* \"trustless cross-chain/trading pair formation/cross-chain-validation.sol\":1482:1486  root */\n      dup4\n        /* \"trustless cross-chain/trading pair formation/cross-chain-validation.sol\":1488:1492  leaf */\n      dup4\n        /* \"trustless cross-chain/trading pair formation/cross-chain-validation.sol\":1456:1474  MerkleProof.verify */\n      tag_45\n        /* \"trustless cross-chain/trading pair formation/cross-chain-validation.sol\":1456:1493  MerkleProof.verify(proof, root, leaf) */\n      jump\t// in\n    tag_44:\n        /* \"trustless cross-chain/trading pair formation/cross-chain-validation.sol\":1448:1518  require(MerkleProof.verify(proof, root, leaf), \"Invalid Merkle proof\") */\n      tag_46\n      jumpi\n      mload(0x40)\n      0x08c379a000000000000000000000000000000000000000000000000000000000\n      dup2\n      mstore\n      0x04\n      add\n      tag_47\n      swap1\n      tag_48\n      jump\t// in\n    tag_47:\n      mload(0x40)\n      dup1\n      swap2\n      sub\n      swap1\n      revert\n    tag_46:\n        /* \"trustless cross-chain/trading pair formation/cross-chain-validation.sol\":1529:1546  storeNFT(tokenId) */\n      tag_49\n        /* \"trustless cross-chain/trading pair formation/cross-chain-validation.sol\":1538:1545  tokenId */\n      dup7\n        /* \"trustless cross-chain/trading pair formation/cross-chain-validation.sol\":1529:1537  storeNFT */\n      tag_50\n        /* \"trustless cross-chain/trading pair formation/cross-chain-validation.sol\":1529:1546  storeNFT(tokenId) */\n      jump\t// in\n    tag_49:\n        /* \"trustless cross-chain/trading pair formation/cross-chain-validation.sol\":1152:1553  function verifyAndStore(... */\n      pop\n      pop\n      pop\n      pop\n      pop\n      pop\n      jump\t// out\n        /* \"trustless cross-chain/trading pair formation/cross-chain-validation.sol\":926:968  mapping(bytes32 => bool) public storedNFTs */\n    tag_18:\n      mstore(0x20, 0x02)\n      dup1\n      0x00\n      mstore\n      keccak256(0x00, 0x40)\n      0x00\n      swap2\n      pop\n      sload\n      swap1\n      0x0100\n      exp\n      swap1\n      div\n      0xff\n      and\n      dup2\n      jump\t// out\n        /* \"@openzeppelin/contracts/access/Ownable.sol\":1831:1932  function renounceOwnership() public virtual onlyOwner {... */\n    tag_22:\n        /* \"@openzeppelin/contracts/access/Ownable.sol\":1094:1107  _checkOwner() */\n      tag_52\n        /* \"@openzeppelin/contracts/access/Ownable.sol\":1094:1105  _checkOwner */\n      tag_53\n        /* \"@openzeppelin/contracts/access/Ownable.sol\":1094:1107  _checkOwner() */\n      jump\t// in\n    tag_52:\n        /* \"@openzeppelin/contracts/access/Ownable.sol\":1895:1925  _transferOwnership(address(0)) */\n      tag_55\n        /* \"@openzeppelin/contracts/access/Ownable.sol\":1922:1923  0 */\n      0x00\n        /* \"@openzeppelin/contracts/access/Ownable.sol\":1895:1913  _transferOwnership */\n      tag_56\n        /* \"@openzeppelin/contracts/access/Ownable.sol\":1895:1925  _transferOwnership(address(0)) */\n      jump\t// in\n    tag_55:\n        /* \"@openzeppelin/contracts/access/Ownable.sol\":1831:1932  function renounceOwnership() public virtual onlyOwner {... */\n      jump\t// out\n        /* \"@openzeppelin/contracts/access/Ownable.sol\":1201:1286  function owner() public view virtual returns (address) {... */\n    tag_24:\n        /* \"@openzeppelin/contracts/access/Ownable.sol\":1247:1254  address */\n      0x00\n        /* \"@openzeppelin/contracts/access/Ownable.sol\":1273:1279  _owner */\n      dup1\n      0x00\n      swap1\n      sload\n      swap1\n      0x0100\n      exp\n      swap1\n      div\n      0xffffffffffffffffffffffffffffffffffffffff\n      and\n        /* \"@openzeppelin/contracts/access/Ownable.sol\":1266:1279  return _owner */\n      swap1\n      pop\n        /* \"@openzeppelin/contracts/access/Ownable.sol\":1201:1286  function owner() public view virtual returns (address) {... */\n      swap1\n      jump\t// out\n        /* \"trustless cross-chain/trading pair formation/cross-chain-validation.sol\":2020:2214  function getStoredStatus(uint256 tokenId) external view returns (bool) {... */\n    tag_30:\n        /* \"trustless cross-chain/trading pair formation/cross-chain-validation.sol\":2085:2089  bool */\n      0x00\n        /* \"trustless cross-chain/trading pair formation/cross-chain-validation.sol\":2101:2118  bytes32 storageId */\n      dup1\n        /* \"trustless cross-chain/trading pair formation/cross-chain-validation.sol\":2148:2158  msg.sender */\n      caller\n        /* \"trustless cross-chain/trading pair formation/cross-chain-validation.sol\":2160:2167  tokenId */\n      dup4\n        /* \"trustless cross-chain/trading pair formation/cross-chain-validation.sol\":2131:2168  abi.encodePacked(msg.sender, tokenId) */\n      add(0x20, mload(0x40))\n      tag_59\n      swap3\n      swap2\n      swap1\n      tag_60\n      jump\t// in\n    tag_59:\n      mload(0x40)\n      0x20\n      dup2\n      dup4\n      sub\n      sub\n      dup2\n      mstore\n      swap1\n      0x40\n      mstore\n        /* \"trustless cross-chain/trading pair formation/cross-chain-validation.sol\":2121:2169  keccak256(abi.encodePacked(msg.sender, tokenId)) */\n      dup1\n      mload\n      swap1\n      0x20\n      add\n      keccak256\n        /* \"trustless cross-chain/trading pair formation/cross-chain-validation.sol\":2101:2169  bytes32 storageId = keccak256(abi.encodePacked(msg.sender, tokenId)) */\n      swap1\n      pop\n        /* \"trustless cross-chain/trading pair formation/cross-chain-validation.sol\":2186:2196  storedNFTs */\n      0x02\n        /* \"trustless cross-chain/trading pair formation/cross-chain-validation.sol\":2186:2207  storedNFTs[storageId] */\n      0x00\n        /* \"trustless cross-chain/trading pair formation/cross-chain-validation.sol\":2197:2206  storageId */\n      dup3\n        /* \"trustless cross-chain/trading pair formation/cross-chain-validation.sol\":2186:2207  storedNFTs[storageId] */\n      dup2\n      mstore\n      0x20\n      add\n      swap1\n      dup2\n      mstore\n      0x20\n      add\n      0x00\n      keccak256\n      0x00\n      swap1\n      sload\n      swap1\n      0x0100\n      exp\n      swap1\n      div\n      0xff\n      and\n        /* \"trustless cross-chain/trading pair formation/cross-chain-validation.sol\":2179:2207  return storedNFTs[storageId] */\n      swap2\n      pop\n      pop\n        /* \"trustless cross-chain/trading pair formation/cross-chain-validation.sol\":2020:2214  function getStoredStatus(uint256 tokenId) external view returns (bool) {... */\n      swap2\n      swap1\n      pop\n      jump\t// out\n        /* \"@openzeppelin/contracts/access/Ownable.sol\":2081:2279  function transferOwnership(address newOwner) public virtual onlyOwner {... */\n    tag_35:\n        /* \"@openzeppelin/contracts/access/Ownable.sol\":1094:1107  _checkOwner() */\n      tag_62\n        /* \"@openzeppelin/contracts/access/Ownable.sol\":1094:1105  _checkOwner */\n      tag_53\n        /* \"@openzeppelin/contracts/access/Ownable.sol\":1094:1107  _checkOwner() */\n      jump\t// in\n    tag_62:\n        /* \"@openzeppelin/contracts/access/Ownable.sol\":2189:2190  0 */\n      0x00\n        /* \"@openzeppelin/contracts/access/Ownable.sol\":2169:2191  newOwner != address(0) */\n      0xffffffffffffffffffffffffffffffffffffffff\n      and\n        /* \"@openzeppelin/contracts/access/Ownable.sol\":2169:2177  newOwner */\n      dup2\n        /* \"@openzeppelin/contracts/access/Ownable.sol\":2169:2191  newOwner != address(0) */\n      0xffffffffffffffffffffffffffffffffffffffff\n      and\n      sub\n        /* \"@openzeppelin/contracts/access/Ownable.sol\":2161:2234  require(newOwner != address(0), \"Ownable: new owner is the zero address\") */\n      tag_64\n      jumpi\n      mload(0x40)\n      0x08c379a000000000000000000000000000000000000000000000000000000000\n      dup2\n      mstore\n      0x04\n      add\n      tag_65\n      swap1\n      tag_66\n      jump\t// in\n    tag_65:\n      mload(0x40)\n      dup1\n      swap2\n      sub\n      swap1\n      revert\n    tag_64:\n        /* \"@openzeppelin/contracts/access/Ownable.sol\":2244:2272  _transferOwnership(newOwner) */\n      tag_67\n        /* \"@openzeppelin/contracts/access/Ownable.sol\":2263:2271  newOwner */\n      dup2\n        /* \"@openzeppelin/contracts/access/Ownable.sol\":2244:2262  _transferOwnership */\n      tag_56\n        /* \"@openzeppelin/contracts/access/Ownable.sol\":2244:2272  _transferOwnership(newOwner) */\n      jump\t// in\n    tag_67:\n        /* \"@openzeppelin/contracts/access/Ownable.sol\":2081:2279  function transferOwnership(address newOwner) public virtual onlyOwner {... */\n      pop\n      jump\t// out\n        /* \"trustless cross-chain/trading pair formation/cross-chain-validation.sol\":889:920  IERC721 public gameItemContract */\n    tag_37:\n      0x01\n      0x00\n      swap1\n      sload\n      swap1\n      0x0100\n      exp\n      swap1\n      div\n      0xffffffffffffffffffffffffffffffffffffffff\n      and\n      dup2\n      jump\t// out\n        /* \"trustless cross-chain/trading pair formation/cross-chain-validation.sol\":196:380  function verify(... */\n    tag_45:\n        /* \"trustless cross-chain/trading pair formation/cross-chain-validation.sol\":317:321  bool */\n      0x00\n        /* \"trustless cross-chain/trading pair formation/cross-chain-validation.sol\":369:373  root */\n      dup3\n        /* \"trustless cross-chain/trading pair formation/cross-chain-validation.sol\":340:365  processProof(proof, leaf) */\n      tag_69\n        /* \"trustless cross-chain/trading pair formation/cross-chain-validation.sol\":353:358  proof */\n      dup6\n        /* \"trustless cross-chain/trading pair formation/cross-chain-validation.sol\":360:364  leaf */\n      dup5\n        /* \"trustless cross-chain/trading pair formation/cross-chain-validation.sol\":340:352  processProof */\n      tag_70\n        /* \"trustless cross-chain/trading pair formation/cross-chain-validation.sol\":340:365  processProof(proof, leaf) */\n      jump\t// in\n    tag_69:\n        /* \"trustless cross-chain/trading pair formation/cross-chain-validation.sol\":340:373  processProof(proof, leaf) == root */\n      eq\n        /* \"trustless cross-chain/trading pair formation/cross-chain-validation.sol\":333:373  return processProof(proof, leaf) == root */\n      swap1\n      pop\n        /* \"trustless cross-chain/trading pair formation/cross-chain-validation.sol\":196:380  function verify(... */\n      swap4\n      swap3\n      pop\n      pop\n      pop\n      jump\t// out\n        /* \"trustless cross-chain/trading pair formation/cross-chain-validation.sol\":1559:2014  function storeNFT(uint256 tokenId) internal {... */\n    tag_50:\n        /* \"trustless cross-chain/trading pair formation/cross-chain-validation.sol\":1658:1668  msg.sender */\n      caller\n        /* \"trustless cross-chain/trading pair formation/cross-chain-validation.sol\":1621:1668  gameItemContract.ownerOf(tokenId) == msg.sender */\n      0xffffffffffffffffffffffffffffffffffffffff\n      and\n        /* \"trustless cross-chain/trading pair formation/cross-chain-validation.sol\":1621:1637  gameItemContract */\n      0x01\n      0x00\n      swap1\n      sload\n      swap1\n      0x0100\n      exp\n      swap1\n      div\n      0xffffffffffffffffffffffffffffffffffffffff\n      and\n        /* \"trustless cross-chain/trading pair formation/cross-chain-validation.sol\":1621:1645  gameItemContract.ownerOf */\n      0xffffffffffffffffffffffffffffffffffffffff\n      and\n      0x6352211e\n        /* \"trustless cross-chain/trading pair formation/cross-chain-validation.sol\":1646:1653  tokenId */\n      dup4\n        /* \"trustless cross-chain/trading pair formation/cross-chain-validation.sol\":1621:1654  gameItemContract.ownerOf(tokenId) */\n      mload(0x40)\n      dup3\n      0xffffffff\n      and\n      0xe0\n      shl\n      dup2\n      mstore\n      0x04\n      add\n      tag_72\n      swap2\n      swap1\n      tag_73\n      jump\t// in\n    tag_72:\n      0x20\n      mload(0x40)\n      dup1\n      dup4\n      sub\n      dup2\n      dup7\n      gas\n      staticcall\n      iszero\n      dup1\n      iszero\n      tag_75\n      jumpi\n      returndatasize\n      0x00\n      dup1\n      returndatacopy\n      revert(0x00, returndatasize)\n    tag_75:\n      pop\n      pop\n      pop\n      pop\n      mload(0x40)\n      returndatasize\n      not(0x1f)\n      0x1f\n      dup3\n      add\n      and\n      dup3\n      add\n      dup1\n      0x40\n      mstore\n      pop\n      dup2\n      add\n      swap1\n      tag_76\n      swap2\n      swap1\n      tag_77\n      jump\t// in\n    tag_76:\n        /* \"trustless cross-chain/trading pair formation/cross-chain-validation.sol\":1621:1668  gameItemContract.ownerOf(tokenId) == msg.sender */\n      0xffffffffffffffffffffffffffffffffffffffff\n      and\n      eq\n        /* \"trustless cross-chain/trading pair formation/cross-chain-validation.sol\":1613:1706  require(gameItemContract.ownerOf(tokenId) == msg.sender, \"You are not the owner of this NFT\") */\n      tag_78\n      jumpi\n      mload(0x40)\n      0x08c379a000000000000000000000000000000000000000000000000000000000\n      dup2\n      mstore\n      0x04\n      add\n      tag_79\n      swap1\n      tag_80\n      jump\t// in\n    tag_79:\n      mload(0x40)\n      dup1\n      swap2\n      sub\n      swap1\n      revert\n    tag_78:\n        /* \"trustless cross-chain/trading pair formation/cross-chain-validation.sol\":1716:1733  bytes32 storageId */\n      0x00\n        /* \"trustless cross-chain/trading pair formation/cross-chain-validation.sol\":1763:1773  msg.sender */\n      caller\n        /* \"trustless cross-chain/trading pair formation/cross-chain-validation.sol\":1775:1782  tokenId */\n      dup3\n        /* \"trustless cross-chain/trading pair formation/cross-chain-validation.sol\":1746:1783  abi.encodePacked(msg.sender, tokenId) */\n      add(0x20, mload(0x40))\n      tag_81\n      swap3\n      swap2\n      swap1\n      tag_60\n      jump\t// in\n    tag_81:\n      mload(0x40)\n      0x20\n      dup2\n      dup4\n      sub\n      sub\n      dup2\n      mstore\n      swap1\n      0x40\n      mstore\n        /* \"trustless cross-chain/trading pair formation/cross-chain-validation.sol\":1736:1784  keccak256(abi.encodePacked(msg.sender, tokenId)) */\n      dup1\n      mload\n      swap1\n      0x20\n      add\n      keccak256\n        /* \"trustless cross-chain/trading pair formation/cross-chain-validation.sol\":1716:1784  bytes32 storageId = keccak256(abi.encodePacked(msg.sender, tokenId)) */\n      swap1\n      pop\n        /* \"trustless cross-chain/trading pair formation/cross-chain-validation.sol\":1803:1813  storedNFTs */\n      0x02\n        /* \"trustless cross-chain/trading pair formation/cross-chain-validation.sol\":1803:1824  storedNFTs[storageId] */\n      0x00\n        /* \"trustless cross-chain/trading pair formation/cross-chain-validation.sol\":1814:1823  storageId */\n      dup3\n        /* \"trustless cross-chain/trading pair formation/cross-chain-validation.sol\":1803:1824  storedNFTs[storageId] */\n      dup2\n      mstore\n      0x20\n      add\n      swap1\n      dup2\n      mstore\n      0x20\n      add\n      0x00\n      keccak256\n      0x00\n      swap1\n      sload\n      swap1\n      0x0100\n      exp\n      swap1\n      div\n      0xff\n      and\n        /* \"trustless cross-chain/trading pair formation/cross-chain-validation.sol\":1802:1824  !storedNFTs[storageId] */\n      iszero\n        /* \"trustless cross-chain/trading pair formation/cross-chain-validation.sol\":1794:1847  require(!storedNFTs[storageId], \"NFT already stored\") */\n      tag_82\n      jumpi\n      mload(0x40)\n      0x08c379a000000000000000000000000000000000000000000000000000000000\n      dup2\n      mstore\n      0x04\n      add\n      tag_83\n      swap1\n      tag_84\n      jump\t// in\n    tag_83:\n      mload(0x40)\n      dup1\n      swap2\n      sub\n      swap1\n      revert\n    tag_82:\n        /* \"trustless cross-chain/trading pair formation/cross-chain-validation.sol\":1882:1886  true */\n      0x01\n        /* \"trustless cross-chain/trading pair formation/cross-chain-validation.sol\":1858:1868  storedNFTs */\n      0x02\n        /* \"trustless cross-chain/trading pair formation/cross-chain-validation.sol\":1858:1879  storedNFTs[storageId] */\n      0x00\n        /* \"trustless cross-chain/trading pair formation/cross-chain-validation.sol\":1869:1878  storageId */\n      dup4\n        /* \"trustless cross-chain/trading pair formation/cross-chain-validation.sol\":1858:1879  storedNFTs[storageId] */\n      dup2\n      mstore\n      0x20\n      add\n      swap1\n      dup2\n      mstore\n      0x20\n      add\n      0x00\n      keccak256\n      0x00\n        /* \"trustless cross-chain/trading pair formation/cross-chain-validation.sol\":1858:1886  storedNFTs[storageId] = true */\n      0x0100\n      exp\n      dup2\n      sload\n      dup2\n      0xff\n      mul\n      not\n      and\n      swap1\n      dup4\n      iszero\n      iszero\n      mul\n      or\n      swap1\n      sstore\n      pop\n        /* \"trustless cross-chain/trading pair formation/cross-chain-validation.sol\":1896:1912  gameItemContract */\n      0x01\n      0x00\n      swap1\n      sload\n      swap1\n      0x0100\n      exp\n      swap1\n      div\n      0xffffffffffffffffffffffffffffffffffffffff\n      and\n        /* \"trustless cross-chain/trading pair formation/cross-chain-validation.sol\":1896:1925  gameItemContract.transferFrom */\n      0xffffffffffffffffffffffffffffffffffffffff\n      and\n      0x23b872dd\n        /* \"trustless cross-chain/trading pair formation/cross-chain-validation.sol\":1926:1936  msg.sender */\n      caller\n        /* \"trustless cross-chain/trading pair formation/cross-chain-validation.sol\":1946:1950  this */\n      address\n        /* \"trustless cross-chain/trading pair formation/cross-chain-validation.sol\":1953:1960  tokenId */\n      dup6\n        /* \"trustless cross-chain/trading pair formation/cross-chain-validation.sol\":1896:1961  gameItemContract.transferFrom(msg.sender, address(this), tokenId) */\n      mload(0x40)\n      dup5\n      0xffffffff\n      and\n      0xe0\n      shl\n      dup2\n      mstore\n      0x04\n      add\n      tag_85\n      swap4\n      swap3\n      swap2\n      swap1\n      tag_86\n      jump\t// in\n    tag_85:\n      0x00\n      mload(0x40)\n      dup1\n      dup4\n      sub\n      dup2\n      0x00\n      dup8\n      dup1\n      extcodesize\n      iszero\n      dup1\n      iszero\n      tag_87\n      jumpi\n      0x00\n      dup1\n      revert\n    tag_87:\n      pop\n      gas\n      call\n      iszero\n      dup1\n      iszero\n      tag_89\n      jumpi\n      returndatasize\n      0x00\n      dup1\n      returndatacopy\n      revert(0x00, returndatasize)\n    tag_89:\n      pop\n      pop\n      pop\n      pop\n        /* \"trustless cross-chain/trading pair formation/cross-chain-validation.sol\":1999:2006  tokenId */\n      dup2\n        /* \"trustless cross-chain/trading pair formation/cross-chain-validation.sol\":1987:1997  msg.sender */\n      caller\n        /* \"trustless cross-chain/trading pair formation/cross-chain-validation.sol\":1977:2007  NFTStored(msg.sender, tokenId) */\n      0xffffffffffffffffffffffffffffffffffffffff\n      and\n      0xcd7d8045490761f6468db55184c41c74ab6696514d5c6b630287bbd2f4e485c1\n      mload(0x40)\n      mload(0x40)\n      dup1\n      swap2\n      sub\n      swap1\n      log3\n        /* \"trustless cross-chain/trading pair formation/cross-chain-validation.sol\":1603:2014  {... */\n      pop\n        /* \"trustless cross-chain/trading pair formation/cross-chain-validation.sol\":1559:2014  function storeNFT(uint256 tokenId) internal {... */\n      pop\n      jump\t// out\n        /* \"@openzeppelin/contracts/access/Ownable.sol\":1359:1489  function _checkOwner() internal view virtual {... */\n    tag_53:\n        /* \"@openzeppelin/contracts/access/Ownable.sol\":1433:1445  _msgSender() */\n      tag_91\n        /* \"@openzeppelin/contracts/access/Ownable.sol\":1433:1443  _msgSender */\n      tag_92\n        /* \"@openzeppelin/contracts/access/Ownable.sol\":1433:1445  _msgSender() */\n      jump\t// in\n    tag_91:\n        /* \"@openzeppelin/contracts/access/Ownable.sol\":1422:1445  owner() == _msgSender() */\n      0xffffffffffffffffffffffffffffffffffffffff\n      and\n        /* \"@openzeppelin/contracts/access/Ownable.sol\":1422:1429  owner() */\n      tag_93\n        /* \"@openzeppelin/contracts/access/Ownable.sol\":1422:1427  owner */\n      tag_24\n        /* \"@openzeppelin/contracts/access/Ownable.sol\":1422:1429  owner() */\n      jump\t// in\n    tag_93:\n        /* \"@openzeppelin/contracts/access/Ownable.sol\":1422:1445  owner() == _msgSender() */\n      0xffffffffffffffffffffffffffffffffffffffff\n      and\n      eq\n        /* \"@openzeppelin/contracts/access/Ownable.sol\":1414:1482  require(owner() == _msgSender(), \"Ownable: caller is not the owner\") */\n      tag_94\n      jumpi\n      mload(0x40)\n      0x08c379a000000000000000000000000000000000000000000000000000000000\n      dup2\n      mstore\n      0x04\n      add\n      tag_95\n      swap1\n      tag_96\n      jump\t// in\n    tag_95:\n      mload(0x40)\n      dup1\n      swap2\n      sub\n      swap1\n      revert\n    tag_94:\n        /* \"@openzeppelin/contracts/access/Ownable.sol\":1359:1489  function _checkOwner() internal view virtual {... */\n      jump\t// out\n        /* \"@openzeppelin/contracts/access/Ownable.sol\":2433:2620  function _transferOwnership(address newOwner) internal virtual {... */\n    tag_56:\n        /* \"@openzeppelin/contracts/access/Ownable.sol\":2506:2522  address oldOwner */\n      0x00\n        /* \"@openzeppelin/contracts/access/Ownable.sol\":2525:2531  _owner */\n      dup1\n      0x00\n      swap1\n      sload\n      swap1\n      0x0100\n      exp\n      swap1\n      div\n      0xffffffffffffffffffffffffffffffffffffffff\n      and\n        /* \"@openzeppelin/contracts/access/Ownable.sol\":2506:2531  address oldOwner = _owner */\n      swap1\n      pop\n        /* \"@openzeppelin/contracts/access/Ownable.sol\":2550:2558  newOwner */\n      dup2\n        /* \"@openzeppelin/contracts/access/Ownable.sol\":2541:2547  _owner */\n      0x00\n      dup1\n        /* \"@openzeppelin/contracts/access/Ownable.sol\":2541:2558  _owner = newOwner */\n      0x0100\n      exp\n      dup2\n      sload\n      dup2\n      0xffffffffffffffffffffffffffffffffffffffff\n      mul\n      not\n      and\n      swap1\n      dup4\n      0xffffffffffffffffffffffffffffffffffffffff\n      and\n      mul\n      or\n      swap1\n      sstore\n      pop\n        /* \"@openzeppelin/contracts/access/Ownable.sol\":2604:2612  newOwner */\n      dup2\n        /* \"@openzeppelin/contracts/access/Ownable.sol\":2573:2613  OwnershipTransferred(oldOwner, newOwner) */\n      0xffffffffffffffffffffffffffffffffffffffff\n      and\n        /* \"@openzeppelin/contracts/access/Ownable.sol\":2594:2602  oldOwner */\n      dup2\n        /* \"@openzeppelin/contracts/access/Ownable.sol\":2573:2613  OwnershipTransferred(oldOwner, newOwner) */\n      0xffffffffffffffffffffffffffffffffffffffff\n      and\n      0x8be0079c531659141344cd1fd0a4f28419497f9722a3daafe3b4186f6b6457e0\n      mload(0x40)\n      mload(0x40)\n      dup1\n      swap2\n      sub\n      swap1\n      log3\n        /* \"@openzeppelin/contracts/access/Ownable.sol\":2496:2620  {... */\n      pop\n        /* \"@openzeppelin/contracts/access/Ownable.sol\":2433:2620  function _transferOwnership(address newOwner) internal virtual {... */\n      pop\n      jump\t// out\n        /* \"trustless cross-chain/trading pair formation/cross-chain-validation.sol\":386:676  function processProof(bytes32[] memory proof, bytes32 leaf) internal pure returns (bytes32) {... */\n    tag_70:\n        /* \"trustless cross-chain/trading pair formation/cross-chain-validation.sol\":469:476  bytes32 */\n      0x00\n        /* \"trustless cross-chain/trading pair formation/cross-chain-validation.sol\":488:508  bytes32 computedHash */\n      dup1\n        /* \"trustless cross-chain/trading pair formation/cross-chain-validation.sol\":511:515  leaf */\n      dup3\n        /* \"trustless cross-chain/trading pair formation/cross-chain-validation.sol\":488:515  bytes32 computedHash = leaf */\n      swap1\n      pop\n        /* \"trustless cross-chain/trading pair formation/cross-chain-validation.sol\":530:539  uint256 i */\n      0x00\n        /* \"trustless cross-chain/trading pair formation/cross-chain-validation.sol\":525:641  for (uint256 i = 0; i < proof.length; i++) {... */\n    tag_99:\n        /* \"trustless cross-chain/trading pair formation/cross-chain-validation.sol\":549:554  proof */\n      dup5\n        /* \"trustless cross-chain/trading pair formation/cross-chain-validation.sol\":549:561  proof.length */\n      mload\n        /* \"trustless cross-chain/trading pair formation/cross-chain-validation.sol\":545:546  i */\n      dup2\n        /* \"trustless cross-chain/trading pair formation/cross-chain-validation.sol\":545:561  i < proof.length */\n      lt\n        /* \"trustless cross-chain/trading pair formation/cross-chain-validation.sol\":525:641  for (uint256 i = 0; i < proof.length; i++) {... */\n      iszero\n      tag_100\n      jumpi\n        /* \"trustless cross-chain/trading pair formation/cross-chain-validation.sol\":597:630  _hashPair(computedHash, proof[i]) */\n      tag_102\n        /* \"trustless cross-chain/trading pair formation/cross-chain-validation.sol\":607:619  computedHash */\n      dup3\n        /* \"trustless cross-chain/trading pair formation/cross-chain-validation.sol\":621:626  proof */\n      dup7\n        /* \"trustless cross-chain/trading pair formation/cross-chain-validation.sol\":627:628  i */\n      dup4\n        /* \"trustless cross-chain/trading pair formation/cross-chain-validation.sol\":621:629  proof[i] */\n      dup2\n      mload\n      dup2\n      lt\n      tag_103\n      jumpi\n      tag_104\n      tag_105\n      jump\t// in\n    tag_104:\n    tag_103:\n      0x20\n      mul\n      0x20\n      add\n      add\n      mload\n        /* \"trustless cross-chain/trading pair formation/cross-chain-validation.sol\":597:606  _hashPair */\n      tag_106\n        /* \"trustless cross-chain/trading pair formation/cross-chain-validation.sol\":597:630  _hashPair(computedHash, proof[i]) */\n      jump\t// in\n    tag_102:\n        /* \"trustless cross-chain/trading pair formation/cross-chain-validation.sol\":582:630  computedHash = _hashPair(computedHash, proof[i]) */\n      swap2\n      pop\n        /* \"trustless cross-chain/trading pair formation/cross-chain-validation.sol\":563:566  i++ */\n      dup1\n      dup1\n      0x01\n      add\n      swap2\n      pop\n      pop\n        /* \"trustless cross-chain/trading pair formation/cross-chain-validation.sol\":525:641  for (uint256 i = 0; i < proof.length; i++) {... */\n      jump(tag_99)\n    tag_100:\n      pop\n        /* \"trustless cross-chain/trading pair formation/cross-chain-validation.sol\":657:669  computedHash */\n      dup1\n        /* \"trustless cross-chain/trading pair formation/cross-chain-validation.sol\":650:669  return computedHash */\n      swap2\n      pop\n      pop\n        /* \"trustless cross-chain/trading pair formation/cross-chain-validation.sol\":386:676  function processProof(bytes32[] memory proof, bytes32 leaf) internal pure returns (bytes32) {... */\n      swap3\n      swap2\n      pop\n      pop\n      jump\t// out\n        /* \"@openzeppelin/contracts/utils/Context.sol\":640:736  function _msgSender() internal view virtual returns (address) {... */\n    tag_92:\n        /* \"@openzeppelin/contracts/utils/Context.sol\":693:700  address */\n      0x00\n        /* \"@openzeppelin/contracts/utils/Context.sol\":719:729  msg.sender */\n      caller\n        /* \"@openzeppelin/contracts/utils/Context.sol\":712:729  return msg.sender */\n      swap1\n      pop\n        /* \"@openzeppelin/contracts/utils/Context.sol\":640:736  function _msgSender() internal view virtual returns (address) {... */\n      swap1\n      jump\t// out\n        /* \"trustless cross-chain/trading pair formation/cross-chain-validation.sol\":682:855  function _hashPair(bytes32 a, bytes32 b) private pure returns (bytes32) {... */\n    tag_106:\n        /* \"trustless cross-chain/trading pair formation/cross-chain-validation.sol\":745:752  bytes32 */\n      0x00\n        /* \"trustless cross-chain/trading pair formation/cross-chain-validation.sol\":775:776  b */\n      dup2\n        /* \"trustless cross-chain/trading pair formation/cross-chain-validation.sol\":771:772  a */\n      dup4\n        /* \"trustless cross-chain/trading pair formation/cross-chain-validation.sol\":771:776  a < b */\n      lt\n        /* \"trustless cross-chain/trading pair formation/cross-chain-validation.sol\":771:848  a < b ? keccak256(abi.encodePacked(a, b)) : keccak256(abi.encodePacked(b, a)) */\n      tag_109\n      jumpi\n        /* \"trustless cross-chain/trading pair formation/cross-chain-validation.sol\":842:843  b */\n      dup2\n        /* \"trustless cross-chain/trading pair formation/cross-chain-validation.sol\":845:846  a */\n      dup4\n        /* \"trustless cross-chain/trading pair formation/cross-chain-validation.sol\":825:847  abi.encodePacked(b, a) */\n      add(0x20, mload(0x40))\n      tag_110\n      swap3\n      swap2\n      swap1\n      tag_111\n      jump\t// in\n    tag_110:\n      mload(0x40)\n      0x20\n      dup2\n      dup4\n      sub\n      sub\n      dup2\n      mstore\n      swap1\n      0x40\n      mstore\n        /* \"trustless cross-chain/trading pair formation/cross-chain-validation.sol\":815:848  keccak256(abi.encodePacked(b, a)) */\n      dup1\n      mload\n      swap1\n      0x20\n      add\n      keccak256\n        /* \"trustless cross-chain/trading pair formation/cross-chain-validation.sol\":771:848  a < b ? keccak256(abi.encodePacked(a, b)) : keccak256(abi.encodePacked(b, a)) */\n      jump(tag_112)\n    tag_109:\n        /* \"trustless cross-chain/trading pair formation/cross-chain-validation.sol\":806:807  a */\n      dup3\n        /* \"trustless cross-chain/trading pair formation/cross-chain-validation.sol\":809:810  b */\n      dup3\n        /* \"trustless cross-chain/trading pair formation/cross-chain-validation.sol\":789:811  abi.encodePacked(a, b) */\n      add(0x20, mload(0x40))\n      tag_113\n      swap3\n      swap2\n      swap1\n      tag_111\n      jump\t// in\n    tag_113:\n      mload(0x40)\n      0x20\n      dup2\n      dup4\n      sub\n      sub\n      dup2\n      mstore\n      swap1\n      0x40\n      mstore\n        /* \"trustless cross-chain/trading pair formation/cross-chain-validation.sol\":779:812  keccak256(abi.encodePacked(a, b)) */\n      dup1\n      mload\n      swap1\n      0x20\n      add\n      keccak256\n        /* \"trustless cross-chain/trading pair formation/cross-chain-validation.sol\":771:848  a < b ? keccak256(abi.encodePacked(a, b)) : keccak256(abi.encodePacked(b, a)) */\n    tag_112:\n        /* \"trustless cross-chain/trading pair formation/cross-chain-validation.sol\":764:848  return a < b ? keccak256(abi.encodePacked(a, b)) : keccak256(abi.encodePacked(b, a)) */\n      swap1\n      pop\n        /* \"trustless cross-chain/trading pair formation/cross-chain-validation.sol\":682:855  function _hashPair(bytes32 a, bytes32 b) private pure returns (bytes32) {... */\n      swap3\n      swap2\n      pop\n      pop\n      jump\t// out\n        /* \"#utility.yul\":88:205   */\n    tag_115:\n        /* \"#utility.yul\":197:198   */\n      0x00\n        /* \"#utility.yul\":194:195   */\n      dup1\n        /* \"#utility.yul\":187:199   */\n      revert\n        /* \"#utility.yul\":211:328   */\n    tag_116:\n        /* \"#utility.yul\":320:321   */\n      0x00\n        /* \"#utility.yul\":317:318   */\n      dup1\n        /* \"#utility.yul\":310:322   */\n      revert\n        /* \"#utility.yul\":334:411   */\n    tag_117:\n        /* \"#utility.yul\":371:378   */\n      0x00\n        /* \"#utility.yul\":400:405   */\n      dup2\n        /* \"#utility.yul\":389:405   */\n      swap1\n      pop\n        /* \"#utility.yul\":334:411   */\n      swap2\n      swap1\n      pop\n      jump\t// out\n        /* \"#utility.yul\":417:539   */\n    tag_118:\n        /* \"#utility.yul\":490:514   */\n      tag_168\n        /* \"#utility.yul\":508:513   */\n      dup2\n        /* \"#utility.yul\":490:514   */\n      tag_117\n      jump\t// in\n    tag_168:\n        /* \"#utility.yul\":483:488   */\n      dup2\n        /* \"#utility.yul\":480:515   */\n      eq\n        /* \"#utility.yul\":470:533   */\n      tag_169\n      jumpi\n        /* \"#utility.yul\":529:530   */\n      0x00\n        /* \"#utility.yul\":526:527   */\n      dup1\n        /* \"#utility.yul\":519:531   */\n      revert\n        /* \"#utility.yul\":470:533   */\n    tag_169:\n        /* \"#utility.yul\":417:539   */\n      pop\n      jump\t// out\n        /* \"#utility.yul\":545:684   */\n    tag_119:\n        /* \"#utility.yul\":591:596   */\n      0x00\n        /* \"#utility.yul\":629:635   */\n      dup2\n        /* \"#utility.yul\":616:636   */\n      calldataload\n        /* \"#utility.yul\":607:636   */\n      swap1\n      pop\n        /* \"#utility.yul\":645:678   */\n      tag_171\n        /* \"#utility.yul\":672:677   */\n      dup2\n        /* \"#utility.yul\":645:678   */\n      tag_118\n      jump\t// in\n    tag_171:\n        /* \"#utility.yul\":545:684   */\n      swap3\n      swap2\n      pop\n      pop\n      jump\t// out\n        /* \"#utility.yul\":690:807   */\n    tag_120:\n        /* \"#utility.yul\":799:800   */\n      0x00\n        /* \"#utility.yul\":796:797   */\n      dup1\n        /* \"#utility.yul\":789:801   */\n      revert\n        /* \"#utility.yul\":813:930   */\n    tag_121:\n        /* \"#utility.yul\":922:923   */\n      0x00\n        /* \"#utility.yul\":919:920   */\n      dup1\n        /* \"#utility.yul\":912:924   */\n      revert\n        /* \"#utility.yul\":936:1053   */\n    tag_122:\n        /* \"#utility.yul\":1045:1046   */\n      0x00\n        /* \"#utility.yul\":1042:1043   */\n      dup1\n        /* \"#utility.yul\":1035:1047   */\n      revert\n        /* \"#utility.yul\":1076:1644   */\n    tag_123:\n        /* \"#utility.yul\":1149:1157   */\n      0x00\n        /* \"#utility.yul\":1159:1165   */\n      dup1\n        /* \"#utility.yul\":1209:1212   */\n      dup4\n        /* \"#utility.yul\":1202:1206   */\n      0x1f\n        /* \"#utility.yul\":1194:1200   */\n      dup5\n        /* \"#utility.yul\":1190:1207   */\n      add\n        /* \"#utility.yul\":1186:1213   */\n      slt\n        /* \"#utility.yul\":1176:1298   */\n      tag_176\n      jumpi\n        /* \"#utility.yul\":1217:1296   */\n      tag_177\n      tag_120\n      jump\t// in\n    tag_177:\n        /* \"#utility.yul\":1176:1298   */\n    tag_176:\n        /* \"#utility.yul\":1330:1336   */\n      dup3\n        /* \"#utility.yul\":1317:1337   */\n      calldataload\n        /* \"#utility.yul\":1307:1337   */\n      swap1\n      pop\n        /* \"#utility.yul\":1360:1378   */\n      0xffffffffffffffff\n        /* \"#utility.yul\":1352:1358   */\n      dup2\n        /* \"#utility.yul\":1349:1379   */\n      gt\n        /* \"#utility.yul\":1346:1463   */\n      iszero\n      tag_178\n      jumpi\n        /* \"#utility.yul\":1382:1461   */\n      tag_179\n      tag_121\n      jump\t// in\n    tag_179:\n        /* \"#utility.yul\":1346:1463   */\n    tag_178:\n        /* \"#utility.yul\":1496:1500   */\n      0x20\n        /* \"#utility.yul\":1488:1494   */\n      dup4\n        /* \"#utility.yul\":1484:1501   */\n      add\n        /* \"#utility.yul\":1472:1501   */\n      swap2\n      pop\n        /* \"#utility.yul\":1550:1553   */\n      dup4\n        /* \"#utility.yul\":1542:1546   */\n      0x20\n        /* \"#utility.yul\":1534:1540   */\n      dup3\n        /* \"#utility.yul\":1530:1547   */\n      mul\n        /* \"#utility.yul\":1520:1528   */\n      dup4\n        /* \"#utility.yul\":1516:1548   */\n      add\n        /* \"#utility.yul\":1513:1554   */\n      gt\n        /* \"#utility.yul\":1510:1638   */\n      iszero\n      tag_180\n      jumpi\n        /* \"#utility.yul\":1557:1636   */\n      tag_181\n      tag_122\n      jump\t// in\n    tag_181:\n        /* \"#utility.yul\":1510:1638   */\n    tag_180:\n        /* \"#utility.yul\":1076:1644   */\n      swap3\n      pop\n      swap3\n      swap1\n      pop\n      jump\t// out\n        /* \"#utility.yul\":1650:1727   */\n    tag_124:\n        /* \"#utility.yul\":1687:1694   */\n      0x00\n        /* \"#utility.yul\":1716:1721   */\n      dup2\n        /* \"#utility.yul\":1705:1721   */\n      swap1\n      pop\n        /* \"#utility.yul\":1650:1727   */\n      swap2\n      swap1\n      pop\n      jump\t// out\n        /* \"#utility.yul\":1733:1855   */\n    tag_125:\n        /* \"#utility.yul\":1806:1830   */\n      tag_184\n        /* \"#utility.yul\":1824:1829   */\n      dup2\n        /* \"#utility.yul\":1806:1830   */\n      tag_124\n      jump\t// in\n    tag_184:\n        /* \"#utility.yul\":1799:1804   */\n      dup2\n        /* \"#utility.yul\":1796:1831   */\n      eq\n        /* \"#utility.yul\":1786:1849   */\n      tag_185\n      jumpi\n        /* \"#utility.yul\":1845:1846   */\n      0x00\n        /* \"#utility.yul\":1842:1843   */\n      dup1\n        /* \"#utility.yul\":1835:1847   */\n      revert\n        /* \"#utility.yul\":1786:1849   */\n    tag_185:\n        /* \"#utility.yul\":1733:1855   */\n      pop\n      jump\t// out\n        /* \"#utility.yul\":1861:2000   */\n    tag_126:\n        /* \"#utility.yul\":1907:1912   */\n      0x00\n        /* \"#utility.yul\":1945:1951   */\n      dup2\n        /* \"#utility.yul\":1932:1952   */\n      calldataload\n        /* \"#utility.yul\":1923:1952   */\n      swap1\n      pop\n        /* \"#utility.yul\":1961:1994   */\n      tag_187\n        /* \"#utility.yul\":1988:1993   */\n      dup2\n        /* \"#utility.yul\":1961:1994   */\n      tag_125\n      jump\t// in\n    tag_187:\n        /* \"#utility.yul\":1861:2000   */\n      swap3\n      swap2\n      pop\n      pop\n      jump\t// out\n        /* \"#utility.yul\":2006:3147   */\n    tag_13:\n        /* \"#utility.yul\":2128:2134   */\n      0x00\n        /* \"#utility.yul\":2136:2142   */\n      dup1\n        /* \"#utility.yul\":2144:2150   */\n      0x00\n        /* \"#utility.yul\":2152:2158   */\n      dup1\n        /* \"#utility.yul\":2160:2166   */\n      0x00\n        /* \"#utility.yul\":2168:2174   */\n      dup1\n        /* \"#utility.yul\":2217:2220   */\n      0xa0\n        /* \"#utility.yul\":2205:2214   */\n      dup8\n        /* \"#utility.yul\":2196:2203   */\n      dup10\n        /* \"#utility.yul\":2192:2215   */\n      sub\n        /* \"#utility.yul\":2188:2221   */\n      slt\n        /* \"#utility.yul\":2185:2305   */\n      iszero\n      tag_189\n      jumpi\n        /* \"#utility.yul\":2224:2303   */\n      tag_190\n      tag_115\n      jump\t// in\n    tag_190:\n        /* \"#utility.yul\":2185:2305   */\n    tag_189:\n        /* \"#utility.yul\":2344:2345   */\n      0x00\n        /* \"#utility.yul\":2369:2422   */\n      tag_191\n        /* \"#utility.yul\":2414:2421   */\n      dup10\n        /* \"#utility.yul\":2405:2411   */\n      dup3\n        /* \"#utility.yul\":2394:2403   */\n      dup11\n        /* \"#utility.yul\":2390:2412   */\n      add\n        /* \"#utility.yul\":2369:2422   */\n      tag_119\n      jump\t// in\n    tag_191:\n        /* \"#utility.yul\":2359:2422   */\n      swap7\n      pop\n        /* \"#utility.yul\":2315:2432   */\n      pop\n        /* \"#utility.yul\":2471:2473   */\n      0x20\n        /* \"#utility.yul\":2497:2550   */\n      tag_192\n        /* \"#utility.yul\":2542:2549   */\n      dup10\n        /* \"#utility.yul\":2533:2539   */\n      dup3\n        /* \"#utility.yul\":2522:2531   */\n      dup11\n        /* \"#utility.yul\":2518:2540   */\n      add\n        /* \"#utility.yul\":2497:2550   */\n      tag_119\n      jump\t// in\n    tag_192:\n        /* \"#utility.yul\":2487:2550   */\n      swap6\n      pop\n        /* \"#utility.yul\":2442:2560   */\n      pop\n        /* \"#utility.yul\":2627:2629   */\n      0x40\n        /* \"#utility.yul\":2616:2625   */\n      dup8\n        /* \"#utility.yul\":2612:2630   */\n      add\n        /* \"#utility.yul\":2599:2631   */\n      calldataload\n        /* \"#utility.yul\":2658:2676   */\n      0xffffffffffffffff\n        /* \"#utility.yul\":2650:2656   */\n      dup2\n        /* \"#utility.yul\":2647:2677   */\n      gt\n        /* \"#utility.yul\":2644:2761   */\n      iszero\n      tag_193\n      jumpi\n        /* \"#utility.yul\":2680:2759   */\n      tag_194\n      tag_116\n      jump\t// in\n    tag_194:\n        /* \"#utility.yul\":2644:2761   */\n    tag_193:\n        /* \"#utility.yul\":2793:2873   */\n      tag_195\n        /* \"#utility.yul\":2865:2872   */\n      dup10\n        /* \"#utility.yul\":2856:2862   */\n      dup3\n        /* \"#utility.yul\":2845:2854   */\n      dup11\n        /* \"#utility.yul\":2841:2863   */\n      add\n        /* \"#utility.yul\":2793:2873   */\n      tag_123\n      jump\t// in\n    tag_195:\n        /* \"#utility.yul\":2775:2873   */\n      swap5\n      pop\n      swap5\n      pop\n        /* \"#utility.yul\":2570:2883   */\n      pop\n        /* \"#utility.yul\":2922:2924   */\n      0x60\n        /* \"#utility.yul\":2948:3001   */\n      tag_196\n        /* \"#utility.yul\":2993:3000   */\n      dup10\n        /* \"#utility.yul\":2984:2990   */\n      dup3\n        /* \"#utility.yul\":2973:2982   */\n      dup11\n        /* \"#utility.yul\":2969:2991   */\n      add\n        /* \"#utility.yul\":2948:3001   */\n      tag_126\n      jump\t// in\n    tag_196:\n        /* \"#utility.yul\":2938:3001   */\n      swap3\n      pop\n        /* \"#utility.yul\":2893:3011   */\n      pop\n        /* \"#utility.yul\":3050:3053   */\n      0x80\n        /* \"#utility.yul\":3077:3130   */\n      tag_197\n        /* \"#utility.yul\":3122:3129   */\n      dup10\n        /* \"#utility.yul\":3113:3119   */\n      dup3\n        /* \"#utility.yul\":3102:3111   */\n      dup11\n        /* \"#utility.yul\":3098:3120   */\n      add\n        /* \"#utility.yul\":3077:3130   */\n      tag_126\n      jump\t// in\n    tag_197:\n        /* \"#utility.yul\":3067:3130   */\n      swap2\n      pop\n        /* \"#utility.yul\":3021:3140   */\n      pop\n        /* \"#utility.yul\":2006:3147   */\n      swap3\n      swap6\n      pop\n      swap3\n      swap6\n      pop\n      swap3\n      swap6\n      jump\t// out\n        /* \"#utility.yul\":3153:3482   */\n    tag_17:\n        /* \"#utility.yul\":3212:3218   */\n      0x00\n        /* \"#utility.yul\":3261:3263   */\n      0x20\n        /* \"#utility.yul\":3249:3258   */\n      dup3\n        /* \"#utility.yul\":3240:3247   */\n      dup5\n        /* \"#utility.yul\":3236:3259   */\n      sub\n        /* \"#utility.yul\":3232:3264   */\n      slt\n        /* \"#utility.yul\":3229:3348   */\n      iszero\n      tag_199\n      jumpi\n        /* \"#utility.yul\":3267:3346   */\n      tag_200\n      tag_115\n      jump\t// in\n    tag_200:\n        /* \"#utility.yul\":3229:3348   */\n    tag_199:\n        /* \"#utility.yul\":3387:3388   */\n      0x00\n        /* \"#utility.yul\":3412:3465   */\n      tag_201\n        /* \"#utility.yul\":3457:3464   */\n      dup5\n        /* \"#utility.yul\":3448:3454   */\n      dup3\n        /* \"#utility.yul\":3437:3446   */\n      dup6\n        /* \"#utility.yul\":3433:3455   */\n      add\n        /* \"#utility.yul\":3412:3465   */\n      tag_126\n      jump\t// in\n    tag_201:\n        /* \"#utility.yul\":3402:3465   */\n      swap2\n      pop\n        /* \"#utility.yul\":3358:3475   */\n      pop\n        /* \"#utility.yul\":3153:3482   */\n      swap3\n      swap2\n      pop\n      pop\n      jump\t// out\n        /* \"#utility.yul\":3488:3578   */\n    tag_127:\n        /* \"#utility.yul\":3522:3529   */\n      0x00\n        /* \"#utility.yul\":3565:3570   */\n      dup2\n        /* \"#utility.yul\":3558:3571   */\n      iszero\n        /* \"#utility.yul\":3551:3572   */\n      iszero\n        /* \"#utility.yul\":3540:3572   */\n      swap1\n      pop\n        /* \"#utility.yul\":3488:3578   */\n      swap2\n      swap1\n      pop\n      jump\t// out\n        /* \"#utility.yul\":3584:3693   */\n    tag_128:\n        /* \"#utility.yul\":3665:3686   */\n      tag_204\n        /* \"#utility.yul\":3680:3685   */\n      dup2\n        /* \"#utility.yul\":3665:3686   */\n      tag_127\n      jump\t// in\n    tag_204:\n        /* \"#utility.yul\":3660:3663   */\n      dup3\n        /* \"#utility.yul\":3653:3687   */\n      mstore\n        /* \"#utility.yul\":3584:3693   */\n      pop\n      pop\n      jump\t// out\n        /* \"#utility.yul\":3699:3909   */\n    tag_20:\n        /* \"#utility.yul\":3786:3790   */\n      0x00\n        /* \"#utility.yul\":3824:3826   */\n      0x20\n        /* \"#utility.yul\":3813:3822   */\n      dup3\n        /* \"#utility.yul\":3809:3827   */\n      add\n        /* \"#utility.yul\":3801:3827   */\n      swap1\n      pop\n        /* \"#utility.yul\":3837:3902   */\n      tag_206\n        /* \"#utility.yul\":3899:3900   */\n      0x00\n        /* \"#utility.yul\":3888:3897   */\n      dup4\n        /* \"#utility.yul\":3884:3901   */\n      add\n        /* \"#utility.yul\":3875:3881   */\n      dup5\n        /* \"#utility.yul\":3837:3902   */\n      tag_128\n      jump\t// in\n    tag_206:\n        /* \"#utility.yul\":3699:3909   */\n      swap3\n      swap2\n      pop\n      pop\n      jump\t// out\n        /* \"#utility.yul\":3915:4041   */\n    tag_129:\n        /* \"#utility.yul\":3952:3959   */\n      0x00\n        /* \"#utility.yul\":3992:4034   */\n      0xffffffffffffffffffffffffffffffffffffffff\n        /* \"#utility.yul\":3985:3990   */\n      dup3\n        /* \"#utility.yul\":3981:4035   */\n      and\n        /* \"#utility.yul\":3970:4035   */\n      swap1\n      pop\n        /* \"#utility.yul\":3915:4041   */\n      swap2\n      swap1\n      pop\n      jump\t// out\n        /* \"#utility.yul\":4047:4143   */\n    tag_130:\n        /* \"#utility.yul\":4084:4091   */\n      0x00\n        /* \"#utility.yul\":4113:4137   */\n      tag_209\n        /* \"#utility.yul\":4131:4136   */\n      dup3\n        /* \"#utility.yul\":4113:4137   */\n      tag_129\n      jump\t// in\n    tag_209:\n        /* \"#utility.yul\":4102:4137   */\n      swap1\n      pop\n        /* \"#utility.yul\":4047:4143   */\n      swap2\n      swap1\n      pop\n      jump\t// out\n        /* \"#utility.yul\":4149:4267   */\n    tag_131:\n        /* \"#utility.yul\":4236:4260   */\n      tag_211\n        /* \"#utility.yul\":4254:4259   */\n      dup2\n        /* \"#utility.yul\":4236:4260   */\n      tag_130\n      jump\t// in\n    tag_211:\n        /* \"#utility.yul\":4231:4234   */\n      dup3\n        /* \"#utility.yul\":4224:4261   */\n      mstore\n        /* \"#utility.yul\":4149:4267   */\n      pop\n      pop\n      jump\t// out\n        /* \"#utility.yul\":4273:4495   */\n    tag_26:\n        /* \"#utility.yul\":4366:4370   */\n      0x00\n        /* \"#utility.yul\":4404:4406   */\n      0x20\n        /* \"#utility.yul\":4393:4402   */\n      dup3\n        /* \"#utility.yul\":4389:4407   */\n      add\n        /* \"#utility.yul\":4381:4407   */\n      swap1\n      pop\n        /* \"#utility.yul\":4417:4488   */\n      tag_213\n        /* \"#utility.yul\":4485:4486   */\n      0x00\n        /* \"#utility.yul\":4474:4483   */\n      dup4\n        /* \"#utility.yul\":4470:4487   */\n      add\n        /* \"#utility.yul\":4461:4467   */\n      dup5\n        /* \"#utility.yul\":4417:4488   */\n      tag_131\n      jump\t// in\n    tag_213:\n        /* \"#utility.yul\":4273:4495   */\n      swap3\n      swap2\n      pop\n      pop\n      jump\t// out\n        /* \"#utility.yul\":4501:4830   */\n    tag_29:\n        /* \"#utility.yul\":4560:4566   */\n      0x00\n        /* \"#utility.yul\":4609:4611   */\n      0x20\n        /* \"#utility.yul\":4597:4606   */\n      dup3\n        /* \"#utility.yul\":4588:4595   */\n      dup5\n        /* \"#utility.yul\":4584:4607   */\n      sub\n        /* \"#utility.yul\":4580:4612   */\n      slt\n        /* \"#utility.yul\":4577:4696   */\n      iszero\n      tag_215\n      jumpi\n        /* \"#utility.yul\":4615:4694   */\n      tag_216\n      tag_115\n      jump\t// in\n    tag_216:\n        /* \"#utility.yul\":4577:4696   */\n    tag_215:\n        /* \"#utility.yul\":4735:4736   */\n      0x00\n        /* \"#utility.yul\":4760:4813   */\n      tag_217\n        /* \"#utility.yul\":4805:4812   */\n      dup5\n        /* \"#utility.yul\":4796:4802   */\n      dup3\n        /* \"#utility.yul\":4785:4794   */\n      dup6\n        /* \"#utility.yul\":4781:4803   */\n      add\n        /* \"#utility.yul\":4760:4813   */\n      tag_119\n      jump\t// in\n    tag_217:\n        /* \"#utility.yul\":4750:4813   */\n      swap2\n      pop\n        /* \"#utility.yul\":4706:4823   */\n      pop\n        /* \"#utility.yul\":4501:4830   */\n      swap3\n      swap2\n      pop\n      pop\n      jump\t// out\n        /* \"#utility.yul\":4836:4958   */\n    tag_132:\n        /* \"#utility.yul\":4909:4933   */\n      tag_219\n        /* \"#utility.yul\":4927:4932   */\n      dup2\n        /* \"#utility.yul\":4909:4933   */\n      tag_130\n      jump\t// in\n    tag_219:\n        /* \"#utility.yul\":4902:4907   */\n      dup2\n        /* \"#utility.yul\":4899:4934   */\n      eq\n        /* \"#utility.yul\":4889:4952   */\n      tag_220\n      jumpi\n        /* \"#utility.yul\":4948:4949   */\n      0x00\n        /* \"#utility.yul\":4945:4946   */\n      dup1\n        /* \"#utility.yul\":4938:4950   */\n      revert\n        /* \"#utility.yul\":4889:4952   */\n    tag_220:\n        /* \"#utility.yul\":4836:4958   */\n      pop\n      jump\t// out\n        /* \"#utility.yul\":4964:5103   */\n    tag_133:\n        /* \"#utility.yul\":5010:5015   */\n      0x00\n        /* \"#utility.yul\":5048:5054   */\n      dup2\n        /* \"#utility.yul\":5035:5055   */\n      calldataload\n        /* \"#utility.yul\":5026:5055   */\n      swap1\n      pop\n        /* \"#utility.yul\":5064:5097   */\n      tag_222\n        /* \"#utility.yul\":5091:5096   */\n      dup2\n        /* \"#utility.yul\":5064:5097   */\n      tag_132\n      jump\t// in\n    tag_222:\n        /* \"#utility.yul\":4964:5103   */\n      swap3\n      swap2\n      pop\n      pop\n      jump\t// out\n        /* \"#utility.yul\":5109:5438   */\n    tag_34:\n        /* \"#utility.yul\":5168:5174   */\n      0x00\n        /* \"#utility.yul\":5217:5219   */\n      0x20\n        /* \"#utility.yul\":5205:5214   */\n      dup3\n        /* \"#utility.yul\":5196:5203   */\n      dup5\n        /* \"#utility.yul\":5192:5215   */\n      sub\n        /* \"#utility.yul\":5188:5220   */\n      slt\n        /* \"#utility.yul\":5185:5304   */\n      iszero\n      tag_224\n      jumpi\n        /* \"#utility.yul\":5223:5302   */\n      tag_225\n      tag_115\n      jump\t// in\n    tag_225:\n        /* \"#utility.yul\":5185:5304   */\n    tag_224:\n        /* \"#utility.yul\":5343:5344   */\n      0x00\n        /* \"#utility.yul\":5368:5421   */\n      tag_226\n        /* \"#utility.yul\":5413:5420   */\n      dup5\n        /* \"#utility.yul\":5404:5410   */\n      dup3\n        /* \"#utility.yul\":5393:5402   */\n      dup6\n        /* \"#utility.yul\":5389:5411   */\n      add\n        /* \"#utility.yul\":5368:5421   */\n      tag_133\n      jump\t// in\n    tag_226:\n        /* \"#utility.yul\":5358:5421   */\n      swap2\n      pop\n        /* \"#utility.yul\":5314:5431   */\n      pop\n        /* \"#utility.yul\":5109:5438   */\n      swap3\n      swap2\n      pop\n      pop\n      jump\t// out\n        /* \"#utility.yul\":5444:5504   */\n    tag_134:\n        /* \"#utility.yul\":5472:5475   */\n      0x00\n        /* \"#utility.yul\":5493:5498   */\n      dup2\n        /* \"#utility.yul\":5486:5498   */\n      swap1\n      pop\n        /* \"#utility.yul\":5444:5504   */\n      swap2\n      swap1\n      pop\n      jump\t// out\n        /* \"#utility.yul\":5510:5652   */\n    tag_135:\n        /* \"#utility.yul\":5560:5569   */\n      0x00\n        /* \"#utility.yul\":5593:5646   */\n      tag_229\n        /* \"#utility.yul\":5611:5645   */\n      tag_230\n        /* \"#utility.yul\":5620:5644   */\n      tag_231\n        /* \"#utility.yul\":5638:5643   */\n      dup5\n        /* \"#utility.yul\":5620:5644   */\n      tag_129\n      jump\t// in\n    tag_231:\n        /* \"#utility.yul\":5611:5645   */\n      tag_134\n      jump\t// in\n    tag_230:\n        /* \"#utility.yul\":5593:5646   */\n      tag_129\n      jump\t// in\n    tag_229:\n        /* \"#utility.yul\":5580:5646   */\n      swap1\n      pop\n        /* \"#utility.yul\":5510:5652   */\n      swap2\n      swap1\n      pop\n      jump\t// out\n        /* \"#utility.yul\":5658:5784   */\n    tag_136:\n        /* \"#utility.yul\":5708:5717   */\n      0x00\n        /* \"#utility.yul\":5741:5778   */\n      tag_233\n        /* \"#utility.yul\":5772:5777   */\n      dup3\n        /* \"#utility.yul\":5741:5778   */\n      tag_135\n      jump\t// in\n    tag_233:\n        /* \"#utility.yul\":5728:5778   */\n      swap1\n      pop\n        /* \"#utility.yul\":5658:5784   */\n      swap2\n      swap1\n      pop\n      jump\t// out\n        /* \"#utility.yul\":5790:5931   */\n    tag_137:\n        /* \"#utility.yul\":5855:5864   */\n      0x00\n        /* \"#utility.yul\":5888:5925   */\n      tag_235\n        /* \"#utility.yul\":5919:5924   */\n      dup3\n        /* \"#utility.yul\":5888:5925   */\n      tag_136\n      jump\t// in\n    tag_235:\n        /* \"#utility.yul\":5875:5925   */\n      swap1\n      pop\n        /* \"#utility.yul\":5790:5931   */\n      swap2\n      swap1\n      pop\n      jump\t// out\n        /* \"#utility.yul\":5937:6098   */\n    tag_138:\n        /* \"#utility.yul\":6039:6091   */\n      tag_237\n        /* \"#utility.yul\":6085:6090   */\n      dup2\n        /* \"#utility.yul\":6039:6091   */\n      tag_137\n      jump\t// in\n    tag_237:\n        /* \"#utility.yul\":6034:6037   */\n      dup3\n        /* \"#utility.yul\":6027:6092   */\n      mstore\n        /* \"#utility.yul\":5937:6098   */\n      pop\n      pop\n      jump\t// out\n        /* \"#utility.yul\":6104:6356   */\n    tag_39:\n        /* \"#utility.yul\":6212:6216   */\n      0x00\n        /* \"#utility.yul\":6250:6252   */\n      0x20\n        /* \"#utility.yul\":6239:6248   */\n      dup3\n        /* \"#utility.yul\":6235:6253   */\n      add\n        /* \"#utility.yul\":6227:6253   */\n      swap1\n      pop\n        /* \"#utility.yul\":6263:6349   */\n      tag_239\n        /* \"#utility.yul\":6346:6347   */\n      0x00\n        /* \"#utility.yul\":6335:6344   */\n      dup4\n        /* \"#utility.yul\":6331:6348   */\n      add\n        /* \"#utility.yul\":6322:6328   */\n      dup5\n        /* \"#utility.yul\":6263:6349   */\n      tag_138\n      jump\t// in\n    tag_239:\n        /* \"#utility.yul\":6104:6356   */\n      swap3\n      swap2\n      pop\n      pop\n      jump\t// out\n        /* \"#utility.yul\":6362:6531   */\n    tag_139:\n        /* \"#utility.yul\":6446:6457   */\n      0x00\n        /* \"#utility.yul\":6480:6486   */\n      dup3\n        /* \"#utility.yul\":6475:6478   */\n      dup3\n        /* \"#utility.yul\":6468:6487   */\n      mstore\n        /* \"#utility.yul\":6520:6524   */\n      0x20\n        /* \"#utility.yul\":6515:6518   */\n      dup3\n        /* \"#utility.yul\":6511:6525   */\n      add\n        /* \"#utility.yul\":6496:6525   */\n      swap1\n      pop\n        /* \"#utility.yul\":6362:6531   */\n      swap3\n      swap2\n      pop\n      pop\n      jump\t// out\n        /* \"#utility.yul\":6537:6827   */\n    tag_140:\n        /* \"#utility.yul\":6677:6711   */\n      0x43757272656e7420626c6f636b206e756d626572206973206e6f742067726561\n        /* \"#utility.yul\":6673:6674   */\n      0x00\n        /* \"#utility.yul\":6665:6671   */\n      dup3\n        /* \"#utility.yul\":6661:6675   */\n      add\n        /* \"#utility.yul\":6654:6712   */\n      mstore\n        /* \"#utility.yul\":6746:6780   */\n      0x746572207468616e207468652070726f766964656420626c6f636b206e756d62\n        /* \"#utility.yul\":6741:6743   */\n      0x20\n        /* \"#utility.yul\":6733:6739   */\n      dup3\n        /* \"#utility.yul\":6729:6744   */\n      add\n        /* \"#utility.yul\":6722:6781   */\n      mstore\n        /* \"#utility.yul\":6815:6819   */\n      0x6572000000000000000000000000000000000000000000000000000000000000\n        /* \"#utility.yul\":6810:6812   */\n      0x40\n        /* \"#utility.yul\":6802:6808   */\n      dup3\n        /* \"#utility.yul\":6798:6813   */\n      add\n        /* \"#utility.yul\":6791:6820   */\n      mstore\n        /* \"#utility.yul\":6537:6827   */\n      pop\n      jump\t// out\n        /* \"#utility.yul\":6833:7199   */\n    tag_141:\n        /* \"#utility.yul\":6975:6978   */\n      0x00\n        /* \"#utility.yul\":6996:7063   */\n      tag_243\n        /* \"#utility.yul\":7060:7062   */\n      0x42\n        /* \"#utility.yul\":7055:7058   */\n      dup4\n        /* \"#utility.yul\":6996:7063   */\n      tag_139\n      jump\t// in\n    tag_243:\n        /* \"#utility.yul\":6989:7063   */\n      swap2\n      pop\n        /* \"#utility.yul\":7072:7165   */\n      tag_244\n        /* \"#utility.yul\":7161:7164   */\n      dup3\n        /* \"#utility.yul\":7072:7165   */\n      tag_140\n      jump\t// in\n    tag_244:\n        /* \"#utility.yul\":7190:7192   */\n      0x60\n        /* \"#utility.yul\":7185:7188   */\n      dup3\n        /* \"#utility.yul\":7181:7193   */\n      add\n        /* \"#utility.yul\":7174:7193   */\n      swap1\n      pop\n        /* \"#utility.yul\":6833:7199   */\n      swap2\n      swap1\n      pop\n      jump\t// out\n        /* \"#utility.yul\":7205:7624   */\n    tag_43:\n        /* \"#utility.yul\":7371:7375   */\n      0x00\n        /* \"#utility.yul\":7409:7411   */\n      0x20\n        /* \"#utility.yul\":7398:7407   */\n      dup3\n        /* \"#utility.yul\":7394:7412   */\n      add\n        /* \"#utility.yul\":7386:7412   */\n      swap1\n      pop\n        /* \"#utility.yul\":7458:7467   */\n      dup2\n        /* \"#utility.yul\":7452:7456   */\n      dup2\n        /* \"#utility.yul\":7448:7468   */\n      sub\n        /* \"#utility.yul\":7444:7445   */\n      0x00\n        /* \"#utility.yul\":7433:7442   */\n      dup4\n        /* \"#utility.yul\":7429:7446   */\n      add\n        /* \"#utility.yul\":7422:7469   */\n      mstore\n        /* \"#utility.yul\":7486:7617   */\n      tag_246\n        /* \"#utility.yul\":7612:7616   */\n      dup2\n        /* \"#utility.yul\":7486:7617   */\n      tag_141\n      jump\t// in\n    tag_246:\n        /* \"#utility.yul\":7478:7617   */\n      swap1\n      pop\n        /* \"#utility.yul\":7205:7624   */\n      swap2\n      swap1\n      pop\n      jump\t// out\n        /* \"#utility.yul\":7630:7800   */\n    tag_142:\n        /* \"#utility.yul\":7770:7792   */\n      0x496e76616c6964204d65726b6c652070726f6f66000000000000000000000000\n        /* \"#utility.yul\":7766:7767   */\n      0x00\n        /* \"#utility.yul\":7758:7764   */\n      dup3\n        /* \"#utility.yul\":7754:7768   */\n      add\n        /* \"#utility.yul\":7747:7793   */\n      mstore\n        /* \"#utility.yul\":7630:7800   */\n      pop\n      jump\t// out\n        /* \"#utility.yul\":7806:8172   */\n    tag_143:\n        /* \"#utility.yul\":7948:7951   */\n      0x00\n        /* \"#utility.yul\":7969:8036   */\n      tag_249\n        /* \"#utility.yul\":8033:8035   */\n      0x14\n        /* \"#utility.yul\":8028:8031   */\n      dup4\n        /* \"#utility.yul\":7969:8036   */\n      tag_139\n      jump\t// in\n    tag_249:\n        /* \"#utility.yul\":7962:8036   */\n      swap2\n      pop\n        /* \"#utility.yul\":8045:8138   */\n      tag_250\n        /* \"#utility.yul\":8134:8137   */\n      dup3\n        /* \"#utility.yul\":8045:8138   */\n      tag_142\n      jump\t// in\n    tag_250:\n        /* \"#utility.yul\":8163:8165   */\n      0x20\n        /* \"#utility.yul\":8158:8161   */\n      dup3\n        /* \"#utility.yul\":8154:8166   */\n      add\n        /* \"#utility.yul\":8147:8166   */\n      swap1\n      pop\n        /* \"#utility.yul\":7806:8172   */\n      swap2\n      swap1\n      pop\n      jump\t// out\n        /* \"#utility.yul\":8178:8597   */\n    tag_48:\n        /* \"#utility.yul\":8344:8348   */\n      0x00\n        /* \"#utility.yul\":8382:8384   */\n      0x20\n        /* \"#utility.yul\":8371:8380   */\n      dup3\n        /* \"#utility.yul\":8367:8385   */\n      add\n        /* \"#utility.yul\":8359:8385   */\n      swap1\n      pop\n        /* \"#utility.yul\":8431:8440   */\n      dup2\n        /* \"#utility.yul\":8425:8429   */\n      dup2\n        /* \"#utility.yul\":8421:8441   */\n      sub\n        /* \"#utility.yul\":8417:8418   */\n      0x00\n        /* \"#utility.yul\":8406:8415   */\n      dup4\n        /* \"#utility.yul\":8402:8419   */\n      add\n        /* \"#utility.yul\":8395:8442   */\n      mstore\n        /* \"#utility.yul\":8459:8590   */\n      tag_252\n        /* \"#utility.yul\":8585:8589   */\n      dup2\n        /* \"#utility.yul\":8459:8590   */\n      tag_143\n      jump\t// in\n    tag_252:\n        /* \"#utility.yul\":8451:8590   */\n      swap1\n      pop\n        /* \"#utility.yul\":8178:8597   */\n      swap2\n      swap1\n      pop\n      jump\t// out\n        /* \"#utility.yul\":8603:8697   */\n    tag_144:\n        /* \"#utility.yul\":8636:8644   */\n      0x00\n        /* \"#utility.yul\":8684:8689   */\n      dup2\n        /* \"#utility.yul\":8680:8682   */\n      0x60\n        /* \"#utility.yul\":8676:8690   */\n      shl\n        /* \"#utility.yul\":8655:8690   */\n      swap1\n      pop\n        /* \"#utility.yul\":8603:8697   */\n      swap2\n      swap1\n      pop\n      jump\t// out\n        /* \"#utility.yul\":8703:8797   */\n    tag_145:\n        /* \"#utility.yul\":8742:8749   */\n      0x00\n        /* \"#utility.yul\":8771:8791   */\n      tag_255\n        /* \"#utility.yul\":8785:8790   */\n      dup3\n        /* \"#utility.yul\":8771:8791   */\n      tag_144\n      jump\t// in\n    tag_255:\n        /* \"#utility.yul\":8760:8791   */\n      swap1\n      pop\n        /* \"#utility.yul\":8703:8797   */\n      swap2\n      swap1\n      pop\n      jump\t// out\n        /* \"#utility.yul\":8803:8903   */\n    tag_146:\n        /* \"#utility.yul\":8842:8849   */\n      0x00\n        /* \"#utility.yul\":8871:8897   */\n      tag_257\n        /* \"#utility.yul\":8891:8896   */\n      dup3\n        /* \"#utility.yul\":8871:8897   */\n      tag_145\n      jump\t// in\n    tag_257:\n        /* \"#utility.yul\":8860:8897   */\n      swap1\n      pop\n        /* \"#utility.yul\":8803:8903   */\n      swap2\n      swap1\n      pop\n      jump\t// out\n        /* \"#utility.yul\":8909:9066   */\n    tag_147:\n        /* \"#utility.yul\":9014:9059   */\n      tag_259\n        /* \"#utility.yul\":9034:9058   */\n      tag_260\n        /* \"#utility.yul\":9052:9057   */\n      dup3\n        /* \"#utility.yul\":9034:9058   */\n      tag_130\n      jump\t// in\n    tag_260:\n        /* \"#utility.yul\":9014:9059   */\n      tag_146\n      jump\t// in\n    tag_259:\n        /* \"#utility.yul\":9009:9012   */\n      dup3\n        /* \"#utility.yul\":9002:9060   */\n      mstore\n        /* \"#utility.yul\":8909:9066   */\n      pop\n      pop\n      jump\t// out\n        /* \"#utility.yul\":9072:9151   */\n    tag_148:\n        /* \"#utility.yul\":9111:9118   */\n      0x00\n        /* \"#utility.yul\":9140:9145   */\n      dup2\n        /* \"#utility.yul\":9129:9145   */\n      swap1\n      pop\n        /* \"#utility.yul\":9072:9151   */\n      swap2\n      swap1\n      pop\n      jump\t// out\n        /* \"#utility.yul\":9157:9314   */\n    tag_149:\n        /* \"#utility.yul\":9262:9307   */\n      tag_263\n        /* \"#utility.yul\":9282:9306   */\n      tag_264\n        /* \"#utility.yul\":9300:9305   */\n      dup3\n        /* \"#utility.yul\":9282:9306   */\n      tag_117\n      jump\t// in\n    tag_264:\n        /* \"#utility.yul\":9262:9307   */\n      tag_148\n      jump\t// in\n    tag_263:\n        /* \"#utility.yul\":9257:9260   */\n      dup3\n        /* \"#utility.yul\":9250:9308   */\n      mstore\n        /* \"#utility.yul\":9157:9314   */\n      pop\n      pop\n      jump\t// out\n        /* \"#utility.yul\":9320:9717   */\n    tag_60:\n        /* \"#utility.yul\":9460:9463   */\n      0x00\n        /* \"#utility.yul\":9475:9550   */\n      tag_266\n        /* \"#utility.yul\":9546:9549   */\n      dup3\n        /* \"#utility.yul\":9537:9543   */\n      dup6\n        /* \"#utility.yul\":9475:9550   */\n      tag_147\n      jump\t// in\n    tag_266:\n        /* \"#utility.yul\":9575:9577   */\n      0x14\n        /* \"#utility.yul\":9570:9573   */\n      dup3\n        /* \"#utility.yul\":9566:9578   */\n      add\n        /* \"#utility.yul\":9559:9578   */\n      swap2\n      pop\n        /* \"#utility.yul\":9588:9663   */\n      tag_267\n        /* \"#utility.yul\":9659:9662   */\n      dup3\n        /* \"#utility.yul\":9650:9656   */\n      dup5\n        /* \"#utility.yul\":9588:9663   */\n      tag_149\n      jump\t// in\n    tag_267:\n        /* \"#utility.yul\":9688:9690   */\n      0x20\n        /* \"#utility.yul\":9683:9686   */\n      dup3\n        /* \"#utility.yul\":9679:9691   */\n      add\n        /* \"#utility.yul\":9672:9691   */\n      swap2\n      pop\n        /* \"#utility.yul\":9708:9711   */\n      dup2\n        /* \"#utility.yul\":9701:9711   */\n      swap1\n      pop\n        /* \"#utility.yul\":9320:9717   */\n      swap4\n      swap3\n      pop\n      pop\n      pop\n      jump\t// out\n        /* \"#utility.yul\":9723:9948   */\n    tag_150:\n        /* \"#utility.yul\":9863:9897   */\n      0x4f776e61626c653a206e6577206f776e657220697320746865207a65726f2061\n        /* \"#utility.yul\":9859:9860   */\n      0x00\n        /* \"#utility.yul\":9851:9857   */\n      dup3\n        /* \"#utility.yul\":9847:9861   */\n      add\n        /* \"#utility.yul\":9840:9898   */\n      mstore\n        /* \"#utility.yul\":9932:9940   */\n      0x6464726573730000000000000000000000000000000000000000000000000000\n        /* \"#utility.yul\":9927:9929   */\n      0x20\n        /* \"#utility.yul\":9919:9925   */\n      dup3\n        /* \"#utility.yul\":9915:9930   */\n      add\n        /* \"#utility.yul\":9908:9941   */\n      mstore\n        /* \"#utility.yul\":9723:9948   */\n      pop\n      jump\t// out\n        /* \"#utility.yul\":9954:10320   */\n    tag_151:\n        /* \"#utility.yul\":10096:10099   */\n      0x00\n        /* \"#utility.yul\":10117:10184   */\n      tag_270\n        /* \"#utility.yul\":10181:10183   */\n      0x26\n        /* \"#utility.yul\":10176:10179   */\n      dup4\n        /* \"#utility.yul\":10117:10184   */\n      tag_139\n      jump\t// in\n    tag_270:\n        /* \"#utility.yul\":10110:10184   */\n      swap2\n      pop\n        /* \"#utility.yul\":10193:10286   */\n      tag_271\n        /* \"#utility.yul\":10282:10285   */\n      dup3\n        /* \"#utility.yul\":10193:10286   */\n      tag_150\n      jump\t// in\n    tag_271:\n        /* \"#utility.yul\":10311:10313   */\n      0x40\n        /* \"#utility.yul\":10306:10309   */\n      dup3\n        /* \"#utility.yul\":10302:10314   */\n      add\n        /* \"#utility.yul\":10295:10314   */\n      swap1\n      pop\n        /* \"#utility.yul\":9954:10320   */\n      swap2\n      swap1\n      pop\n      jump\t// out\n        /* \"#utility.yul\":10326:10745   */\n    tag_66:\n        /* \"#utility.yul\":10492:10496   */\n      0x00\n        /* \"#utility.yul\":10530:10532   */\n      0x20\n        /* \"#utility.yul\":10519:10528   */\n      dup3\n        /* \"#utility.yul\":10515:10533   */\n      add\n        /* \"#utility.yul\":10507:10533   */\n      swap1\n      pop\n        /* \"#utility.yul\":10579:10588   */\n      dup2\n        /* \"#utility.yul\":10573:10577   */\n      dup2\n        /* \"#utility.yul\":10569:10589   */\n      sub\n        /* \"#utility.yul\":10565:10566   */\n      0x00\n        /* \"#utility.yul\":10554:10563   */\n      dup4\n        /* \"#utility.yul\":10550:10567   */\n      add\n        /* \"#utility.yul\":10543:10590   */\n      mstore\n        /* \"#utility.yul\":10607:10738   */\n      tag_273\n        /* \"#utility.yul\":10733:10737   */\n      dup2\n        /* \"#utility.yul\":10607:10738   */\n      tag_151\n      jump\t// in\n    tag_273:\n        /* \"#utility.yul\":10599:10738   */\n      swap1\n      pop\n        /* \"#utility.yul\":10326:10745   */\n      swap2\n      swap1\n      pop\n      jump\t// out\n        /* \"#utility.yul\":10751:10869   */\n    tag_152:\n        /* \"#utility.yul\":10838:10862   */\n      tag_275\n        /* \"#utility.yul\":10856:10861   */\n      dup2\n        /* \"#utility.yul\":10838:10862   */\n      tag_117\n      jump\t// in\n    tag_275:\n        /* \"#utility.yul\":10833:10836   */\n      dup3\n        /* \"#utility.yul\":10826:10863   */\n      mstore\n        /* \"#utility.yul\":10751:10869   */\n      pop\n      pop\n      jump\t// out\n        /* \"#utility.yul\":10875:11097   */\n    tag_73:\n        /* \"#utility.yul\":10968:10972   */\n      0x00\n        /* \"#utility.yul\":11006:11008   */\n      0x20\n        /* \"#utility.yul\":10995:11004   */\n      dup3\n        /* \"#utility.yul\":10991:11009   */\n      add\n        /* \"#utility.yul\":10983:11009   */\n      swap1\n      pop\n        /* \"#utility.yul\":11019:11090   */\n      tag_277\n        /* \"#utility.yul\":11087:11088   */\n      0x00\n        /* \"#utility.yul\":11076:11085   */\n      dup4\n        /* \"#utility.yul\":11072:11089   */\n      add\n        /* \"#utility.yul\":11063:11069   */\n      dup5\n        /* \"#utility.yul\":11019:11090   */\n      tag_152\n      jump\t// in\n    tag_277:\n        /* \"#utility.yul\":10875:11097   */\n      swap3\n      swap2\n      pop\n      pop\n      jump\t// out\n        /* \"#utility.yul\":11103:11246   */\n    tag_153:\n        /* \"#utility.yul\":11160:11165   */\n      0x00\n        /* \"#utility.yul\":11191:11197   */\n      dup2\n        /* \"#utility.yul\":11185:11198   */\n      mload\n        /* \"#utility.yul\":11176:11198   */\n      swap1\n      pop\n        /* \"#utility.yul\":11207:11240   */\n      tag_279\n        /* \"#utility.yul\":11234:11239   */\n      dup2\n        /* \"#utility.yul\":11207:11240   */\n      tag_132\n      jump\t// in\n    tag_279:\n        /* \"#utility.yul\":11103:11246   */\n      swap3\n      swap2\n      pop\n      pop\n      jump\t// out\n        /* \"#utility.yul\":11252:11603   */\n    tag_77:\n        /* \"#utility.yul\":11322:11328   */\n      0x00\n        /* \"#utility.yul\":11371:11373   */\n      0x20\n        /* \"#utility.yul\":11359:11368   */\n      dup3\n        /* \"#utility.yul\":11350:11357   */\n      dup5\n        /* \"#utility.yul\":11346:11369   */\n      sub\n        /* \"#utility.yul\":11342:11374   */\n      slt\n        /* \"#utility.yul\":11339:11458   */\n      iszero\n      tag_281\n      jumpi\n        /* \"#utility.yul\":11377:11456   */\n      tag_282\n      tag_115\n      jump\t// in\n    tag_282:\n        /* \"#utility.yul\":11339:11458   */\n    tag_281:\n        /* \"#utility.yul\":11497:11498   */\n      0x00\n        /* \"#utility.yul\":11522:11586   */\n      tag_283\n        /* \"#utility.yul\":11578:11585   */\n      dup5\n        /* \"#utility.yul\":11569:11575   */\n      dup3\n        /* \"#utility.yul\":11558:11567   */\n      dup6\n        /* \"#utility.yul\":11554:11576   */\n      add\n        /* \"#utility.yul\":11522:11586   */\n      tag_153\n      jump\t// in\n    tag_283:\n        /* \"#utility.yul\":11512:11586   */\n      swap2\n      pop\n        /* \"#utility.yul\":11468:11596   */\n      pop\n        /* \"#utility.yul\":11252:11603   */\n      swap3\n      swap2\n      pop\n      pop\n      jump\t// out\n        /* \"#utility.yul\":11609:11829   */\n    tag_154:\n        /* \"#utility.yul\":11749:11783   */\n      0x596f7520617265206e6f7420746865206f776e6572206f662074686973204e46\n        /* \"#utility.yul\":11745:11746   */\n      0x00\n        /* \"#utility.yul\":11737:11743   */\n      dup3\n        /* \"#utility.yul\":11733:11747   */\n      add\n        /* \"#utility.yul\":11726:11784   */\n      mstore\n        /* \"#utility.yul\":11818:11821   */\n      0x5400000000000000000000000000000000000000000000000000000000000000\n        /* \"#utility.yul\":11813:11815   */\n      0x20\n        /* \"#utility.yul\":11805:11811   */\n      dup3\n        /* \"#utility.yul\":11801:11816   */\n      add\n        /* \"#utility.yul\":11794:11822   */\n      mstore\n        /* \"#utility.yul\":11609:11829   */\n      pop\n      jump\t// out\n        /* \"#utility.yul\":11835:12201   */\n    tag_155:\n        /* \"#utility.yul\":11977:11980   */\n      0x00\n        /* \"#utility.yul\":11998:12065   */\n      tag_286\n        /* \"#utility.yul\":12062:12064   */\n      0x21\n        /* \"#utility.yul\":12057:12060   */\n      dup4\n        /* \"#utility.yul\":11998:12065   */\n      tag_139\n      jump\t// in\n    tag_286:\n        /* \"#utility.yul\":11991:12065   */\n      swap2\n      pop\n        /* \"#utility.yul\":12074:12167   */\n      tag_287\n        /* \"#utility.yul\":12163:12166   */\n      dup3\n        /* \"#utility.yul\":12074:12167   */\n      tag_154\n      jump\t// in\n    tag_287:\n        /* \"#utility.yul\":12192:12194   */\n      0x40\n        /* \"#utility.yul\":12187:12190   */\n      dup3\n        /* \"#utility.yul\":12183:12195   */\n      add\n        /* \"#utility.yul\":12176:12195   */\n      swap1\n      pop\n        /* \"#utility.yul\":11835:12201   */\n      swap2\n      swap1\n      pop\n      jump\t// out\n        /* \"#utility.yul\":12207:12626   */\n    tag_80:\n        /* \"#utility.yul\":12373:12377   */\n      0x00\n        /* \"#utility.yul\":12411:12413   */\n      0x20\n        /* \"#utility.yul\":12400:12409   */\n      dup3\n        /* \"#utility.yul\":12396:12414   */\n      add\n        /* \"#utility.yul\":12388:12414   */\n      swap1\n      pop\n        /* \"#utility.yul\":12460:12469   */\n      dup2\n        /* \"#utility.yul\":12454:12458   */\n      dup2\n        /* \"#utility.yul\":12450:12470   */\n      sub\n        /* \"#utility.yul\":12446:12447   */\n      0x00\n        /* \"#utility.yul\":12435:12444   */\n      dup4\n        /* \"#utility.yul\":12431:12448   */\n      add\n        /* \"#utility.yul\":12424:12471   */\n      mstore\n        /* \"#utility.yul\":12488:12619   */\n      tag_289\n        /* \"#utility.yul\":12614:12618   */\n      dup2\n        /* \"#utility.yul\":12488:12619   */\n      tag_155\n      jump\t// in\n    tag_289:\n        /* \"#utility.yul\":12480:12619   */\n      swap1\n      pop\n        /* \"#utility.yul\":12207:12626   */\n      swap2\n      swap1\n      pop\n      jump\t// out\n        /* \"#utility.yul\":12632:12800   */\n    tag_156:\n        /* \"#utility.yul\":12772:12792   */\n      0x4e465420616c72656164792073746f7265640000000000000000000000000000\n        /* \"#utility.yul\":12768:12769   */\n      0x00\n        /* \"#utility.yul\":12760:12766   */\n      dup3\n        /* \"#utility.yul\":12756:12770   */\n      add\n        /* \"#utility.yul\":12749:12793   */\n      mstore\n        /* \"#utility.yul\":12632:12800   */\n      pop\n      jump\t// out\n        /* \"#utility.yul\":12806:13172   */\n    tag_157:\n        /* \"#utility.yul\":12948:12951   */\n      0x00\n        /* \"#utility.yul\":12969:13036   */\n      tag_292\n        /* \"#utility.yul\":13033:13035   */\n      0x12\n        /* \"#utility.yul\":13028:13031   */\n      dup4\n        /* \"#utility.yul\":12969:13036   */\n      tag_139\n      jump\t// in\n    tag_292:\n        /* \"#utility.yul\":12962:13036   */\n      swap2\n      pop\n        /* \"#utility.yul\":13045:13138   */\n      tag_293\n        /* \"#utility.yul\":13134:13137   */\n      dup3\n        /* \"#utility.yul\":13045:13138   */\n      tag_156\n      jump\t// in\n    tag_293:\n        /* \"#utility.yul\":13163:13165   */\n      0x20\n        /* \"#utility.yul\":13158:13161   */\n      dup3\n        /* \"#utility.yul\":13154:13166   */\n      add\n        /* \"#utility.yul\":13147:13166   */\n      swap1\n      pop\n        /* \"#utility.yul\":12806:13172   */\n      swap2\n      swap1\n      pop\n      jump\t// out\n        /* \"#utility.yul\":13178:13597   */\n    tag_84:\n        /* \"#utility.yul\":13344:13348   */\n      0x00\n        /* \"#utility.yul\":13382:13384   */\n      0x20\n        /* \"#utility.yul\":13371:13380   */\n      dup3\n        /* \"#utility.yul\":13367:13385   */\n      add\n        /* \"#utility.yul\":13359:13385   */\n      swap1\n      pop\n        /* \"#utility.yul\":13431:13440   */\n      dup2\n        /* \"#utility.yul\":13425:13429   */\n      dup2\n        /* \"#utility.yul\":13421:13441   */\n      sub\n        /* \"#utility.yul\":13417:13418   */\n      0x00\n        /* \"#utility.yul\":13406:13415   */\n      dup4\n        /* \"#utility.yul\":13402:13419   */\n      add\n        /* \"#utility.yul\":13395:13442   */\n      mstore\n        /* \"#utility.yul\":13459:13590   */\n      tag_295\n        /* \"#utility.yul\":13585:13589   */\n      dup2\n        /* \"#utility.yul\":13459:13590   */\n      tag_157\n      jump\t// in\n    tag_295:\n        /* \"#utility.yul\":13451:13590   */\n      swap1\n      pop\n        /* \"#utility.yul\":13178:13597   */\n      swap2\n      swap1\n      pop\n      jump\t// out\n        /* \"#utility.yul\":13603:14045   */\n    tag_86:\n        /* \"#utility.yul\":13752:13756   */\n      0x00\n        /* \"#utility.yul\":13790:13792   */\n      0x60\n        /* \"#utility.yul\":13779:13788   */\n      dup3\n        /* \"#utility.yul\":13775:13793   */\n      add\n        /* \"#utility.yul\":13767:13793   */\n      swap1\n      pop\n        /* \"#utility.yul\":13803:13874   */\n      tag_297\n        /* \"#utility.yul\":13871:13872   */\n      0x00\n        /* \"#utility.yul\":13860:13869   */\n      dup4\n        /* \"#utility.yul\":13856:13873   */\n      add\n        /* \"#utility.yul\":13847:13853   */\n      dup7\n        /* \"#utility.yul\":13803:13874   */\n      tag_131\n      jump\t// in\n    tag_297:\n        /* \"#utility.yul\":13884:13956   */\n      tag_298\n        /* \"#utility.yul\":13952:13954   */\n      0x20\n        /* \"#utility.yul\":13941:13950   */\n      dup4\n        /* \"#utility.yul\":13937:13955   */\n      add\n        /* \"#utility.yul\":13928:13934   */\n      dup6\n        /* \"#utility.yul\":13884:13956   */\n      tag_131\n      jump\t// in\n    tag_298:\n        /* \"#utility.yul\":13966:14038   */\n      tag_299\n        /* \"#utility.yul\":14034:14036   */\n      0x40\n        /* \"#utility.yul\":14023:14032   */\n      dup4\n        /* \"#utility.yul\":14019:14037   */\n      add\n        /* \"#utility.yul\":14010:14016   */\n      dup5\n        /* \"#utility.yul\":13966:14038   */\n      tag_152\n      jump\t// in\n    tag_299:\n        /* \"#utility.yul\":13603:14045   */\n      swap5\n      swap4\n      pop\n      pop\n      pop\n      pop\n      jump\t// out\n        /* \"#utility.yul\":14051:14233   */\n    tag_158:\n        /* \"#utility.yul\":14191:14225   */\n      0x4f776e61626c653a2063616c6c6572206973206e6f7420746865206f776e6572\n        /* \"#utility.yul\":14187:14188   */\n      0x00\n        /* \"#utility.yul\":14179:14185   */\n      dup3\n        /* \"#utility.yul\":14175:14189   */\n      add\n        /* \"#utility.yul\":14168:14226   */\n      mstore\n        /* \"#utility.yul\":14051:14233   */\n      pop\n      jump\t// out\n        /* \"#utility.yul\":14239:14605   */\n    tag_159:\n        /* \"#utility.yul\":14381:14384   */\n      0x00\n        /* \"#utility.yul\":14402:14469   */\n      tag_302\n        /* \"#utility.yul\":14466:14468   */\n      0x20\n        /* \"#utility.yul\":14461:14464   */\n      dup4\n        /* \"#utility.yul\":14402:14469   */\n      tag_139\n      jump\t// in\n    tag_302:\n        /* \"#utility.yul\":14395:14469   */\n      swap2\n      pop\n        /* \"#utility.yul\":14478:14571   */\n      tag_303\n        /* \"#utility.yul\":14567:14570   */\n      dup3\n        /* \"#utility.yul\":14478:14571   */\n      tag_158\n      jump\t// in\n    tag_303:\n        /* \"#utility.yul\":14596:14598   */\n      0x20\n        /* \"#utility.yul\":14591:14594   */\n      dup3\n        /* \"#utility.yul\":14587:14599   */\n      add\n        /* \"#utility.yul\":14580:14599   */\n      swap1\n      pop\n        /* \"#utility.yul\":14239:14605   */\n      swap2\n      swap1\n      pop\n      jump\t// out\n        /* \"#utility.yul\":14611:15030   */\n    tag_96:\n        /* \"#utility.yul\":14777:14781   */\n      0x00\n        /* \"#utility.yul\":14815:14817   */\n      0x20\n        /* \"#utility.yul\":14804:14813   */\n      dup3\n        /* \"#utility.yul\":14800:14818   */\n      add\n        /* \"#utility.yul\":14792:14818   */\n      swap1\n      pop\n        /* \"#utility.yul\":14864:14873   */\n      dup2\n        /* \"#utility.yul\":14858:14862   */\n      dup2\n        /* \"#utility.yul\":14854:14874   */\n      sub\n        /* \"#utility.yul\":14850:14851   */\n      0x00\n        /* \"#utility.yul\":14839:14848   */\n      dup4\n        /* \"#utility.yul\":14835:14852   */\n      add\n        /* \"#utility.yul\":14828:14875   */\n      mstore\n        /* \"#utility.yul\":14892:15023   */\n      tag_305\n        /* \"#utility.yul\":15018:15022   */\n      dup2\n        /* \"#utility.yul\":14892:15023   */\n      tag_159\n      jump\t// in\n    tag_305:\n        /* \"#utility.yul\":14884:15023   */\n      swap1\n      pop\n        /* \"#utility.yul\":14611:15030   */\n      swap2\n      swap1\n      pop\n      jump\t// out\n        /* \"#utility.yul\":15036:15216   */\n    tag_105:\n        /* \"#utility.yul\":15084:15161   */\n      0x4e487b7100000000000000000000000000000000000000000000000000000000\n        /* \"#utility.yul\":15081:15082   */\n      0x00\n        /* \"#utility.yul\":15074:15162   */\n      mstore\n        /* \"#utility.yul\":15181:15185   */\n      0x32\n        /* \"#utility.yul\":15178:15179   */\n      0x04\n        /* \"#utility.yul\":15171:15186   */\n      mstore\n        /* \"#utility.yul\":15205:15209   */\n      0x24\n        /* \"#utility.yul\":15202:15203   */\n      0x00\n        /* \"#utility.yul\":15195:15210   */\n      revert\n        /* \"#utility.yul\":15222:15301   */\n    tag_160:\n        /* \"#utility.yul\":15261:15268   */\n      0x00\n        /* \"#utility.yul\":15290:15295   */\n      dup2\n        /* \"#utility.yul\":15279:15295   */\n      swap1\n      pop\n        /* \"#utility.yul\":15222:15301   */\n      swap2\n      swap1\n      pop\n      jump\t// out\n        /* \"#utility.yul\":15307:15464   */\n    tag_161:\n        /* \"#utility.yul\":15412:15457   */\n      tag_309\n        /* \"#utility.yul\":15432:15456   */\n      tag_310\n        /* \"#utility.yul\":15450:15455   */\n      dup3\n        /* \"#utility.yul\":15432:15456   */\n      tag_124\n      jump\t// in\n    tag_310:\n        /* \"#utility.yul\":15412:15457   */\n      tag_160\n      jump\t// in\n    tag_309:\n        /* \"#utility.yul\":15407:15410   */\n      dup3\n        /* \"#utility.yul\":15400:15458   */\n      mstore\n        /* \"#utility.yul\":15307:15464   */\n      pop\n      pop\n      jump\t// out\n        /* \"#utility.yul\":15470:15867   */\n    tag_111:\n        /* \"#utility.yul\":15610:15613   */\n      0x00\n        /* \"#utility.yul\":15625:15700   */\n      tag_312\n        /* \"#utility.yul\":15696:15699   */\n      dup3\n        /* \"#utility.yul\":15687:15693   */\n      dup6\n        /* \"#utility.yul\":15625:15700   */\n      tag_161\n      jump\t// in\n    tag_312:\n        /* \"#utility.yul\":15725:15727   */\n      0x20\n        /* \"#utility.yul\":15720:15723   */\n      dup3\n        /* \"#utility.yul\":15716:15728   */\n      add\n        /* \"#utility.yul\":15709:15728   */\n      swap2\n      pop\n        /* \"#utility.yul\":15738:15813   */\n      tag_313\n        /* \"#utility.yul\":15809:15812   */\n      dup3\n        /* \"#utility.yul\":15800:15806   */\n      dup5\n        /* \"#utility.yul\":15738:15813   */\n      tag_161\n      jump\t// in\n    tag_313:\n        /* \"#utility.yul\":15838:15840   */\n      0x20\n        /* \"#utility.yul\":15833:15836   */\n      dup3\n        /* \"#utility.yul\":15829:15841   */\n      add\n        /* \"#utility.yul\":15822:15841   */\n      swap2\n      pop\n        /* \"#utility.yul\":15858:15861   */\n      dup2\n        /* \"#utility.yul\":15851:15861   */\n      swap1\n      pop\n        /* \"#utility.yul\":15470:15867   */\n      swap4\n      swap3\n      pop\n      pop\n      pop\n      jump\t// out\n\n    auxdata: 0xa2646970667358221220a6a72e54112f37f268c101677f1a1c70f57ad2c50050be319c9730b6e48bb16564736f6c634300081a0033\n}\n",
				"bytecode": {
					"linkReferences": {},
					"object": "608060405234801561000f575f80fd5b5060405161121b38038061121b833981810160405281019061003191906101b9565b61004d61004261009360201b60201c565b61009a60201b60201c565b8060015f6101000a81548173ffffffffffffffffffffffffffffffffffffffff021916908373ffffffffffffffffffffffffffffffffffffffff160217905550506101e4565b5f33905090565b5f805f9054906101000a900473ffffffffffffffffffffffffffffffffffffffff169050815f806101000a81548173ffffffffffffffffffffffffffffffffffffffff021916908373ffffffffffffffffffffffffffffffffffffffff1602179055508173ffffffffffffffffffffffffffffffffffffffff168173ffffffffffffffffffffffffffffffffffffffff167f8be0079c531659141344cd1fd0a4f28419497f9722a3daafe3b4186f6b6457e060405160405180910390a35050565b5f80fd5b5f73ffffffffffffffffffffffffffffffffffffffff82169050919050565b5f6101888261015f565b9050919050565b6101988161017e565b81146101a2575f80fd5b50565b5f815190506101b38161018f565b92915050565b5f602082840312156101ce576101cd61015b565b5b5f6101db848285016101a5565b91505092915050565b61102a806101f15f395ff3fe608060405234801561000f575f80fd5b506004361061007b575f3560e01c80638da5cb5b116100595780638da5cb5b146100d5578063c9ff64ec146100f3578063f2fde38b14610123578063f9be04ca1461013f5761007b565b8063130b76861461007f578063223417411461009b578063715018a6146100cb575b5f80fd5b610099600480360381019061009491906108f8565b61015d565b005b6100b560048036038101906100b0919061098e565b61023a565b6040516100c291906109d3565b60405180910390f35b6100d3610257565b005b6100dd61026a565b6040516100ea9190610a2b565b60405180910390f35b61010d60048036038101906101089190610a44565b610291565b60405161011a91906109d3565b60405180910390f35b61013d60048036038101906101389190610a99565b6102e4565b005b610147610366565b6040516101549190610b1f565b60405180910390f35b84431161019f576040517f08c379a000000000000000000000000000000000000000000000000000000000815260040161019690610bde565b60405180910390fd5b6101ea8484808060200260200160405190810160405280939291908181526020018383602002808284375f81840152601f19601f82011690508083019250505050505050838361038b565b610229576040517f08c379a000000000000000000000000000000000000000000000000000000000815260040161022090610c46565b60405180910390fd5b610232866103a1565b505050505050565b6002602052805f5260405f205f915054906101000a900460ff1681565b61025f61062d565b6102685f6106ab565b565b5f805f9054906101000a900473ffffffffffffffffffffffffffffffffffffffff16905090565b5f8033836040516020016102a6929190610cc9565b60405160208183030381529060405280519060200120905060025f8281526020019081526020015f205f9054906101000a900460ff16915050919050565b6102ec61062d565b5f73ffffffffffffffffffffffffffffffffffffffff168173ffffffffffffffffffffffffffffffffffffffff160361035a576040517f08c379a000000000000000000000000000000000000000000000000000000000815260040161035190610d64565b60405180910390fd5b610363816106ab565b50565b60015f9054906101000a900473ffffffffffffffffffffffffffffffffffffffff1681565b5f82610397858461076c565b1490509392505050565b3373ffffffffffffffffffffffffffffffffffffffff1660015f9054906101000a900473ffffffffffffffffffffffffffffffffffffffff1673ffffffffffffffffffffffffffffffffffffffff16636352211e836040518263ffffffff1660e01b81526004016104129190610d91565b602060405180830381865afa15801561042d573d5f803e3d5ffd5b505050506040513d601f19601f820116820180604052508101906104519190610dbe565b73ffffffffffffffffffffffffffffffffffffffff16146104a7576040517f08c379a000000000000000000000000000000000000000000000000000000000815260040161049e90610e59565b60405180910390fd5b5f33826040516020016104bb929190610cc9565b60405160208183030381529060405280519060200120905060025f8281526020019081526020015f205f9054906101000a900460ff1615610531576040517f08c379a000000000000000000000000000000000000000000000000000000000815260040161052890610ec1565b60405180910390fd5b600160025f8381526020019081526020015f205f6101000a81548160ff02191690831515021790555060015f9054906101000a900473ffffffffffffffffffffffffffffffffffffffff1673ffffffffffffffffffffffffffffffffffffffff166323b872dd3330856040518463ffffffff1660e01b81526004016105b893929190610edf565b5f604051808303815f87803b1580156105cf575f80fd5b505af11580156105e1573d5f803e3d5ffd5b50505050813373ffffffffffffffffffffffffffffffffffffffff167fcd7d8045490761f6468db55184c41c74ab6696514d5c6b630287bbd2f4e485c160405160405180910390a35050565b6106356107ba565b73ffffffffffffffffffffffffffffffffffffffff1661065361026a565b73ffffffffffffffffffffffffffffffffffffffff16146106a9576040517f08c379a00000000000000000000000000000000000000000000000000000000081526004016106a090610f5e565b60405180910390fd5b565b5f805f9054906101000a900473ffffffffffffffffffffffffffffffffffffffff169050815f806101000a81548173ffffffffffffffffffffffffffffffffffffffff021916908373ffffffffffffffffffffffffffffffffffffffff1602179055508173ffffffffffffffffffffffffffffffffffffffff168173ffffffffffffffffffffffffffffffffffffffff167f8be0079c531659141344cd1fd0a4f28419497f9722a3daafe3b4186f6b6457e060405160405180910390a35050565b5f808290505f5b84518110156107af576107a08286838151811061079357610792610f7c565b5b60200260200101516107c1565b91508080600101915050610773565b508091505092915050565b5f33905090565b5f8183106107f75781836040516020016107dc929190610fc9565b60405160208183030381529060405280519060200120610821565b828260405160200161080a929190610fc9565b604051602081830303815290604052805190602001205b905092915050565b5f80fd5b5f80fd5b5f819050919050565b61084381610831565b811461084d575f80fd5b50565b5f8135905061085e8161083a565b92915050565b5f80fd5b5f80fd5b5f80fd5b5f8083601f84011261088557610884610864565b5b8235905067ffffffffffffffff8111156108a2576108a1610868565b5b6020830191508360208202830111156108be576108bd61086c565b5b9250929050565b5f819050919050565b6108d7816108c5565b81146108e1575f80fd5b50565b5f813590506108f2816108ce565b92915050565b5f805f805f8060a0878903121561091257610911610829565b5b5f61091f89828a01610850565b965050602061093089828a01610850565b955050604087013567ffffffffffffffff8111156109515761095061082d565b5b61095d89828a01610870565b9450945050606061097089828a016108e4565b925050608061098189828a016108e4565b9150509295509295509295565b5f602082840312156109a3576109a2610829565b5b5f6109b0848285016108e4565b91505092915050565b5f8115159050919050565b6109cd816109b9565b82525050565b5f6020820190506109e65f8301846109c4565b92915050565b5f73ffffffffffffffffffffffffffffffffffffffff82169050919050565b5f610a15826109ec565b9050919050565b610a2581610a0b565b82525050565b5f602082019050610a3e5f830184610a1c565b92915050565b5f60208284031215610a5957610a58610829565b5b5f610a6684828501610850565b91505092915050565b610a7881610a0b565b8114610a82575f80fd5b50565b5f81359050610a9381610a6f565b92915050565b5f60208284031215610aae57610aad610829565b5b5f610abb84828501610a85565b91505092915050565b5f819050919050565b5f610ae7610ae2610add846109ec565b610ac4565b6109ec565b9050919050565b5f610af882610acd565b9050919050565b5f610b0982610aee565b9050919050565b610b1981610aff565b82525050565b5f602082019050610b325f830184610b10565b92915050565b5f82825260208201905092915050565b7f43757272656e7420626c6f636b206e756d626572206973206e6f7420677265615f8201527f746572207468616e207468652070726f766964656420626c6f636b206e756d6260208201527f6572000000000000000000000000000000000000000000000000000000000000604082015250565b5f610bc8604283610b38565b9150610bd382610b48565b606082019050919050565b5f6020820190508181035f830152610bf581610bbc565b9050919050565b7f496e76616c6964204d65726b6c652070726f6f660000000000000000000000005f82015250565b5f610c30601483610b38565b9150610c3b82610bfc565b602082019050919050565b5f6020820190508181035f830152610c5d81610c24565b9050919050565b5f8160601b9050919050565b5f610c7a82610c64565b9050919050565b5f610c8b82610c70565b9050919050565b610ca3610c9e82610a0b565b610c81565b82525050565b5f819050919050565b610cc3610cbe82610831565b610ca9565b82525050565b5f610cd48285610c92565b601482019150610ce48284610cb2565b6020820191508190509392505050565b7f4f776e61626c653a206e6577206f776e657220697320746865207a65726f20615f8201527f6464726573730000000000000000000000000000000000000000000000000000602082015250565b5f610d4e602683610b38565b9150610d5982610cf4565b604082019050919050565b5f6020820190508181035f830152610d7b81610d42565b9050919050565b610d8b81610831565b82525050565b5f602082019050610da45f830184610d82565b92915050565b5f81519050610db881610a6f565b92915050565b5f60208284031215610dd357610dd2610829565b5b5f610de084828501610daa565b91505092915050565b7f596f7520617265206e6f7420746865206f776e6572206f662074686973204e465f8201527f5400000000000000000000000000000000000000000000000000000000000000602082015250565b5f610e43602183610b38565b9150610e4e82610de9565b604082019050919050565b5f6020820190508181035f830152610e7081610e37565b9050919050565b7f4e465420616c72656164792073746f72656400000000000000000000000000005f82015250565b5f610eab601283610b38565b9150610eb682610e77565b602082019050919050565b5f6020820190508181035f830152610ed881610e9f565b9050919050565b5f606082019050610ef25f830186610a1c565b610eff6020830185610a1c565b610f0c6040830184610d82565b949350505050565b7f4f776e61626c653a2063616c6c6572206973206e6f7420746865206f776e65725f82015250565b5f610f48602083610b38565b9150610f5382610f14565b602082019050919050565b5f6020820190508181035f830152610f7581610f3c565b9050919050565b7f4e487b71000000000000000000000000000000000000000000000000000000005f52603260045260245ffd5b5f819050919050565b610fc3610fbe826108c5565b610fa9565b82525050565b5f610fd48285610fb2565b602082019150610fe48284610fb2565b602082019150819050939250505056fea2646970667358221220a6a72e54112f37f268c101677f1a1c70f57ad2c50050be319c9730b6e48bb16564736f6c634300081a0033",
					"opcodes": "PUSH1 0x80 PUSH1 0x40 MSTORE CALLVALUE DUP1 ISZERO PUSH2 0xF JUMPI PUSH0 DUP1 REVERT JUMPDEST POP PUSH1 0x40 MLOAD PUSH2 0x121B CODESIZE SUB DUP1 PUSH2 0x121B DUP4 CODECOPY DUP2 DUP2 ADD PUSH1 0x40 MSTORE DUP2 ADD SWAP1 PUSH2 0x31 SWAP2 SWAP1 PUSH2 0x1B9 JUMP JUMPDEST PUSH2 0x4D PUSH2 0x42 PUSH2 0x93 PUSH1 0x20 SHL PUSH1 0x20 SHR JUMP JUMPDEST PUSH2 0x9A PUSH1 0x20 SHL PUSH1 0x20 SHR JUMP JUMPDEST DUP1 PUSH1 0x1 PUSH0 PUSH2 0x100 EXP DUP2 SLOAD DUP2 PUSH20 0xFFFFFFFFFFFFFFFFFFFFFFFFFFFFFFFFFFFFFFFF MUL NOT AND SWAP1 DUP4 PUSH20 0xFFFFFFFFFFFFFFFFFFFFFFFFFFFFFFFFFFFFFFFF AND MUL OR SWAP1 SSTORE POP POP PUSH2 0x1E4 JUMP JUMPDEST PUSH0 CALLER SWAP1 POP SWAP1 JUMP JUMPDEST PUSH0 DUP1 PUSH0 SWAP1 SLOAD SWAP1 PUSH2 0x100 EXP SWAP1 DIV PUSH20 0xFFFFFFFFFFFFFFFFFFFFFFFFFFFFFFFFFFFFFFFF AND SWAP1 POP DUP2 PUSH0 DUP1 PUSH2 0x100 EXP DUP2 SLOAD DUP2 PUSH20 0xFFFFFFFFFFFFFFFFFFFFFFFFFFFFFFFFFFFFFFFF MUL NOT AND SWAP1 DUP4 PUSH20 0xFFFFFFFFFFFFFFFFFFFFFFFFFFFFFFFFFFFFFFFF AND MUL OR SWAP1 SSTORE POP DUP2 PUSH20 0xFFFFFFFFFFFFFFFFFFFFFFFFFFFFFFFFFFFFFFFF AND DUP2 PUSH20 0xFFFFFFFFFFFFFFFFFFFFFFFFFFFFFFFFFFFFFFFF AND PUSH32 0x8BE0079C531659141344CD1FD0A4F28419497F9722A3DAAFE3B4186F6B6457E0 PUSH1 0x40 MLOAD PUSH1 0x40 MLOAD DUP1 SWAP2 SUB SWAP1 LOG3 POP POP JUMP JUMPDEST PUSH0 DUP1 REVERT JUMPDEST PUSH0 PUSH20 0xFFFFFFFFFFFFFFFFFFFFFFFFFFFFFFFFFFFFFFFF DUP3 AND SWAP1 POP SWAP2 SWAP1 POP JUMP JUMPDEST PUSH0 PUSH2 0x188 DUP3 PUSH2 0x15F JUMP JUMPDEST SWAP1 POP SWAP2 SWAP1 POP JUMP JUMPDEST PUSH2 0x198 DUP2 PUSH2 0x17E JUMP JUMPDEST DUP2 EQ PUSH2 0x1A2 JUMPI PUSH0 DUP1 REVERT JUMPDEST POP JUMP JUMPDEST PUSH0 DUP2 MLOAD SWAP1 POP PUSH2 0x1B3 DUP2 PUSH2 0x18F JUMP JUMPDEST SWAP3 SWAP2 POP POP JUMP JUMPDEST PUSH0 PUSH1 0x20 DUP3 DUP5 SUB SLT ISZERO PUSH2 0x1CE JUMPI PUSH2 0x1CD PUSH2 0x15B JUMP JUMPDEST JUMPDEST PUSH0 PUSH2 0x1DB DUP5 DUP3 DUP6 ADD PUSH2 0x1A5 JUMP JUMPDEST SWAP2 POP POP SWAP3 SWAP2 POP POP JUMP JUMPDEST PUSH2 0x102A DUP1 PUSH2 0x1F1 PUSH0 CODECOPY PUSH0 RETURN INVALID PUSH1 0x80 PUSH1 0x40 MSTORE CALLVALUE DUP1 ISZERO PUSH2 0xF JUMPI PUSH0 DUP1 REVERT JUMPDEST POP PUSH1 0x4 CALLDATASIZE LT PUSH2 0x7B JUMPI PUSH0 CALLDATALOAD PUSH1 0xE0 SHR DUP1 PUSH4 0x8DA5CB5B GT PUSH2 0x59 JUMPI DUP1 PUSH4 0x8DA5CB5B EQ PUSH2 0xD5 JUMPI DUP1 PUSH4 0xC9FF64EC EQ PUSH2 0xF3 JUMPI DUP1 PUSH4 0xF2FDE38B EQ PUSH2 0x123 JUMPI DUP1 PUSH4 0xF9BE04CA EQ PUSH2 0x13F JUMPI PUSH2 0x7B JUMP JUMPDEST DUP1 PUSH4 0x130B7686 EQ PUSH2 0x7F JUMPI DUP1 PUSH4 0x22341741 EQ PUSH2 0x9B JUMPI DUP1 PUSH4 0x715018A6 EQ PUSH2 0xCB JUMPI JUMPDEST PUSH0 DUP1 REVERT JUMPDEST PUSH2 0x99 PUSH1 0x4 DUP1 CALLDATASIZE SUB DUP2 ADD SWAP1 PUSH2 0x94 SWAP2 SWAP1 PUSH2 0x8F8 JUMP JUMPDEST PUSH2 0x15D JUMP JUMPDEST STOP JUMPDEST PUSH2 0xB5 PUSH1 0x4 DUP1 CALLDATASIZE SUB DUP2 ADD SWAP1 PUSH2 0xB0 SWAP2 SWAP1 PUSH2 0x98E JUMP JUMPDEST PUSH2 0x23A JUMP JUMPDEST PUSH1 0x40 MLOAD PUSH2 0xC2 SWAP2 SWAP1 PUSH2 0x9D3 JUMP JUMPDEST PUSH1 0x40 MLOAD DUP1 SWAP2 SUB SWAP1 RETURN JUMPDEST PUSH2 0xD3 PUSH2 0x257 JUMP JUMPDEST STOP JUMPDEST PUSH2 0xDD PUSH2 0x26A JUMP JUMPDEST PUSH1 0x40 MLOAD PUSH2 0xEA SWAP2 SWAP1 PUSH2 0xA2B JUMP JUMPDEST PUSH1 0x40 MLOAD DUP1 SWAP2 SUB SWAP1 RETURN JUMPDEST PUSH2 0x10D PUSH1 0x4 DUP1 CALLDATASIZE SUB DUP2 ADD SWAP1 PUSH2 0x108 SWAP2 SWAP1 PUSH2 0xA44 JUMP JUMPDEST PUSH2 0x291 JUMP JUMPDEST PUSH1 0x40 MLOAD PUSH2 0x11A SWAP2 SWAP1 PUSH2 0x9D3 JUMP JUMPDEST PUSH1 0x40 MLOAD DUP1 SWAP2 SUB SWAP1 RETURN JUMPDEST PUSH2 0x13D PUSH1 0x4 DUP1 CALLDATASIZE SUB DUP2 ADD SWAP1 PUSH2 0x138 SWAP2 SWAP1 PUSH2 0xA99 JUMP JUMPDEST PUSH2 0x2E4 JUMP JUMPDEST STOP JUMPDEST PUSH2 0x147 PUSH2 0x366 JUMP JUMPDEST PUSH1 0x40 MLOAD PUSH2 0x154 SWAP2 SWAP1 PUSH2 0xB1F JUMP JUMPDEST PUSH1 0x40 MLOAD DUP1 SWAP2 SUB SWAP1 RETURN JUMPDEST DUP5 NUMBER GT PUSH2 0x19F JUMPI PUSH1 0x40 MLOAD PUSH32 0x8C379A000000000000000000000000000000000000000000000000000000000 DUP2 MSTORE PUSH1 0x4 ADD PUSH2 0x196 SWAP1 PUSH2 0xBDE JUMP JUMPDEST PUSH1 0x40 MLOAD DUP1 SWAP2 SUB SWAP1 REVERT JUMPDEST PUSH2 0x1EA DUP5 DUP5 DUP1 DUP1 PUSH1 0x20 MUL PUSH1 0x20 ADD PUSH1 0x40 MLOAD SWAP1 DUP2 ADD PUSH1 0x40 MSTORE DUP1 SWAP4 SWAP3 SWAP2 SWAP1 DUP2 DUP2 MSTORE PUSH1 0x20 ADD DUP4 DUP4 PUSH1 0x20 MUL DUP1 DUP3 DUP5 CALLDATACOPY PUSH0 DUP2 DUP5 ADD MSTORE PUSH1 0x1F NOT PUSH1 0x1F DUP3 ADD AND SWAP1 POP DUP1 DUP4 ADD SWAP3 POP POP POP POP POP POP POP DUP4 DUP4 PUSH2 0x38B JUMP JUMPDEST PUSH2 0x229 JUMPI PUSH1 0x40 MLOAD PUSH32 0x8C379A000000000000000000000000000000000000000000000000000000000 DUP2 MSTORE PUSH1 0x4 ADD PUSH2 0x220 SWAP1 PUSH2 0xC46 JUMP JUMPDEST PUSH1 0x40 MLOAD DUP1 SWAP2 SUB SWAP1 REVERT JUMPDEST PUSH2 0x232 DUP7 PUSH2 0x3A1 JUMP JUMPDEST POP POP POP POP POP POP JUMP JUMPDEST PUSH1 0x2 PUSH1 0x20 MSTORE DUP1 PUSH0 MSTORE PUSH1 0x40 PUSH0 KECCAK256 PUSH0 SWAP2 POP SLOAD SWAP1 PUSH2 0x100 EXP SWAP1 DIV PUSH1 0xFF AND DUP2 JUMP JUMPDEST PUSH2 0x25F PUSH2 0x62D JUMP JUMPDEST PUSH2 0x268 PUSH0 PUSH2 0x6AB JUMP JUMPDEST JUMP JUMPDEST PUSH0 DUP1 PUSH0 SWAP1 SLOAD SWAP1 PUSH2 0x100 EXP SWAP1 DIV PUSH20 0xFFFFFFFFFFFFFFFFFFFFFFFFFFFFFFFFFFFFFFFF AND SWAP1 POP SWAP1 JUMP JUMPDEST PUSH0 DUP1 CALLER DUP4 PUSH1 0x40 MLOAD PUSH1 0x20 ADD PUSH2 0x2A6 SWAP3 SWAP2 SWAP1 PUSH2 0xCC9 JUMP JUMPDEST PUSH1 0x40 MLOAD PUSH1 0x20 DUP2 DUP4 SUB SUB DUP2 MSTORE SWAP1 PUSH1 0x40 MSTORE DUP1 MLOAD SWAP1 PUSH1 0x20 ADD KECCAK256 SWAP1 POP PUSH1 0x2 PUSH0 DUP3 DUP2 MSTORE PUSH1 0x20 ADD SWAP1 DUP2 MSTORE PUSH1 0x20 ADD PUSH0 KECCAK256 PUSH0 SWAP1 SLOAD SWAP1 PUSH2 0x100 EXP SWAP1 DIV PUSH1 0xFF AND SWAP2 POP POP SWAP2 SWAP1 POP JUMP JUMPDEST PUSH2 0x2EC PUSH2 0x62D JUMP JUMPDEST PUSH0 PUSH20 0xFFFFFFFFFFFFFFFFFFFFFFFFFFFFFFFFFFFFFFFF AND DUP2 PUSH20 0xFFFFFFFFFFFFFFFFFFFFFFFFFFFFFFFFFFFFFFFF AND SUB PUSH2 0x35A JUMPI PUSH1 0x40 MLOAD PUSH32 0x8C379A000000000000000000000000000000000000000000000000000000000 DUP2 MSTORE PUSH1 0x4 ADD PUSH2 0x351 SWAP1 PUSH2 0xD64 JUMP JUMPDEST PUSH1 0x40 MLOAD DUP1 SWAP2 SUB SWAP1 REVERT JUMPDEST PUSH2 0x363 DUP2 PUSH2 0x6AB JUMP JUMPDEST POP JUMP JUMPDEST PUSH1 0x1 PUSH0 SWAP1 SLOAD SWAP1 PUSH2 0x100 EXP SWAP1 DIV PUSH20 0xFFFFFFFFFFFFFFFFFFFFFFFFFFFFFFFFFFFFFFFF AND DUP2 JUMP JUMPDEST PUSH0 DUP3 PUSH2 0x397 DUP6 DUP5 PUSH2 0x76C JUMP JUMPDEST EQ SWAP1 POP SWAP4 SWAP3 POP POP POP JUMP JUMPDEST CALLER PUSH20 0xFFFFFFFFFFFFFFFFFFFFFFFFFFFFFFFFFFFFFFFF AND PUSH1 0x1 PUSH0 SWAP1 SLOAD SWAP1 PUSH2 0x100 EXP SWAP1 DIV PUSH20 0xFFFFFFFFFFFFFFFFFFFFFFFFFFFFFFFFFFFFFFFF AND PUSH20 0xFFFFFFFFFFFFFFFFFFFFFFFFFFFFFFFFFFFFFFFF AND PUSH4 0x6352211E DUP4 PUSH1 0x40 MLOAD DUP3 PUSH4 0xFFFFFFFF AND PUSH1 0xE0 SHL DUP2 MSTORE PUSH1 0x4 ADD PUSH2 0x412 SWAP2 SWAP1 PUSH2 0xD91 JUMP JUMPDEST PUSH1 0x20 PUSH1 0x40 MLOAD DUP1 DUP4 SUB DUP2 DUP7 GAS STATICCALL ISZERO DUP1 ISZERO PUSH2 0x42D JUMPI RETURNDATASIZE PUSH0 DUP1 RETURNDATACOPY RETURNDATASIZE PUSH0 REVERT JUMPDEST POP POP POP POP PUSH1 0x40 MLOAD RETURNDATASIZE PUSH1 0x1F NOT PUSH1 0x1F DUP3 ADD AND DUP3 ADD DUP1 PUSH1 0x40 MSTORE POP DUP2 ADD SWAP1 PUSH2 0x451 SWAP2 SWAP1 PUSH2 0xDBE JUMP JUMPDEST PUSH20 0xFFFFFFFFFFFFFFFFFFFFFFFFFFFFFFFFFFFFFFFF AND EQ PUSH2 0x4A7 JUMPI PUSH1 0x40 MLOAD PUSH32 0x8C379A000000000000000000000000000000000000000000000000000000000 DUP2 MSTORE PUSH1 0x4 ADD PUSH2 0x49E SWAP1 PUSH2 0xE59 JUMP JUMPDEST PUSH1 0x40 MLOAD DUP1 SWAP2 SUB SWAP1 REVERT JUMPDEST PUSH0 CALLER DUP3 PUSH1 0x40 MLOAD PUSH1 0x20 ADD PUSH2 0x4BB SWAP3 SWAP2 SWAP1 PUSH2 0xCC9 JUMP JUMPDEST PUSH1 0x40 MLOAD PUSH1 0x20 DUP2 DUP4 SUB SUB DUP2 MSTORE SWAP1 PUSH1 0x40 MSTORE DUP1 MLOAD SWAP1 PUSH1 0x20 ADD KECCAK256 SWAP1 POP PUSH1 0x2 PUSH0 DUP3 DUP2 MSTORE PUSH1 0x20 ADD SWAP1 DUP2 MSTORE PUSH1 0x20 ADD PUSH0 KECCAK256 PUSH0 SWAP1 SLOAD SWAP1 PUSH2 0x100 EXP SWAP1 DIV PUSH1 0xFF AND ISZERO PUSH2 0x531 JUMPI PUSH1 0x40 MLOAD PUSH32 0x8C379A000000000000000000000000000000000000000000000000000000000 DUP2 MSTORE PUSH1 0x4 ADD PUSH2 0x528 SWAP1 PUSH2 0xEC1 JUMP JUMPDEST PUSH1 0x40 MLOAD DUP1 SWAP2 SUB SWAP1 REVERT JUMPDEST PUSH1 0x1 PUSH1 0x2 PUSH0 DUP4 DUP2 MSTORE PUSH1 0x20 ADD SWAP1 DUP2 MSTORE PUSH1 0x20 ADD PUSH0 KECCAK256 PUSH0 PUSH2 0x100 EXP DUP2 SLOAD DUP2 PUSH1 0xFF MUL NOT AND SWAP1 DUP4 ISZERO ISZERO MUL OR SWAP1 SSTORE POP PUSH1 0x1 PUSH0 SWAP1 SLOAD SWAP1 PUSH2 0x100 EXP SWAP1 DIV PUSH20 0xFFFFFFFFFFFFFFFFFFFFFFFFFFFFFFFFFFFFFFFF AND PUSH20 0xFFFFFFFFFFFFFFFFFFFFFFFFFFFFFFFFFFFFFFFF AND PUSH4 0x23B872DD CALLER ADDRESS DUP6 PUSH1 0x40 MLOAD DUP5 PUSH4 0xFFFFFFFF AND PUSH1 0xE0 SHL DUP2 MSTORE PUSH1 0x4 ADD PUSH2 0x5B8 SWAP4 SWAP3 SWAP2 SWAP1 PUSH2 0xEDF JUMP JUMPDEST PUSH0 PUSH1 0x40 MLOAD DUP1 DUP4 SUB DUP2 PUSH0 DUP8 DUP1 EXTCODESIZE ISZERO DUP1 ISZERO PUSH2 0x5CF JUMPI PUSH0 DUP1 REVERT JUMPDEST POP GAS CALL ISZERO DUP1 ISZERO PUSH2 0x5E1 JUMPI RETURNDATASIZE PUSH0 DUP1 RETURNDATACOPY RETURNDATASIZE PUSH0 REVERT JUMPDEST POP POP POP POP DUP2 CALLER PUSH20 0xFFFFFFFFFFFFFFFFFFFFFFFFFFFFFFFFFFFFFFFF AND PUSH32 0xCD7D8045490761F6468DB55184C41C74AB6696514D5C6B630287BBD2F4E485C1 PUSH1 0x40 MLOAD PUSH1 0x40 MLOAD DUP1 SWAP2 SUB SWAP1 LOG3 POP POP JUMP JUMPDEST PUSH2 0x635 PUSH2 0x7BA JUMP JUMPDEST PUSH20 0xFFFFFFFFFFFFFFFFFFFFFFFFFFFFFFFFFFFFFFFF AND PUSH2 0x653 PUSH2 0x26A JUMP JUMPDEST PUSH20 0xFFFFFFFFFFFFFFFFFFFFFFFFFFFFFFFFFFFFFFFF AND EQ PUSH2 0x6A9 JUMPI PUSH1 0x40 MLOAD PUSH32 0x8C379A000000000000000000000000000000000000000000000000000000000 DUP2 MSTORE PUSH1 0x4 ADD PUSH2 0x6A0 SWAP1 PUSH2 0xF5E JUMP JUMPDEST PUSH1 0x40 MLOAD DUP1 SWAP2 SUB SWAP1 REVERT JUMPDEST JUMP JUMPDEST PUSH0 DUP1 PUSH0 SWAP1 SLOAD SWAP1 PUSH2 0x100 EXP SWAP1 DIV PUSH20 0xFFFFFFFFFFFFFFFFFFFFFFFFFFFFFFFFFFFFFFFF AND SWAP1 POP DUP2 PUSH0 DUP1 PUSH2 0x100 EXP DUP2 SLOAD DUP2 PUSH20 0xFFFFFFFFFFFFFFFFFFFFFFFFFFFFFFFFFFFFFFFF MUL NOT AND SWAP1 DUP4 PUSH20 0xFFFFFFFFFFFFFFFFFFFFFFFFFFFFFFFFFFFFFFFF AND MUL OR SWAP1 SSTORE POP DUP2 PUSH20 0xFFFFFFFFFFFFFFFFFFFFFFFFFFFFFFFFFFFFFFFF AND DUP2 PUSH20 0xFFFFFFFFFFFFFFFFFFFFFFFFFFFFFFFFFFFFFFFF AND PUSH32 0x8BE0079C531659141344CD1FD0A4F28419497F9722A3DAAFE3B4186F6B6457E0 PUSH1 0x40 MLOAD PUSH1 0x40 MLOAD DUP1 SWAP2 SUB SWAP1 LOG3 POP POP JUMP JUMPDEST PUSH0 DUP1 DUP3 SWAP1 POP PUSH0 JUMPDEST DUP5 MLOAD DUP2 LT ISZERO PUSH2 0x7AF JUMPI PUSH2 0x7A0 DUP3 DUP7 DUP4 DUP2 MLOAD DUP2 LT PUSH2 0x793 JUMPI PUSH2 0x792 PUSH2 0xF7C JUMP JUMPDEST JUMPDEST PUSH1 0x20 MUL PUSH1 0x20 ADD ADD MLOAD PUSH2 0x7C1 JUMP JUMPDEST SWAP2 POP DUP1 DUP1 PUSH1 0x1 ADD SWAP2 POP POP PUSH2 0x773 JUMP JUMPDEST POP DUP1 SWAP2 POP POP SWAP3 SWAP2 POP POP JUMP JUMPDEST PUSH0 CALLER SWAP1 POP SWAP1 JUMP JUMPDEST PUSH0 DUP2 DUP4 LT PUSH2 0x7F7 JUMPI DUP2 DUP4 PUSH1 0x40 MLOAD PUSH1 0x20 ADD PUSH2 0x7DC SWAP3 SWAP2 SWAP1 PUSH2 0xFC9 JUMP JUMPDEST PUSH1 0x40 MLOAD PUSH1 0x20 DUP2 DUP4 SUB SUB DUP2 MSTORE SWAP1 PUSH1 0x40 MSTORE DUP1 MLOAD SWAP1 PUSH1 0x20 ADD KECCAK256 PUSH2 0x821 JUMP JUMPDEST DUP3 DUP3 PUSH1 0x40 MLOAD PUSH1 0x20 ADD PUSH2 0x80A SWAP3 SWAP2 SWAP1 PUSH2 0xFC9 JUMP JUMPDEST PUSH1 0x40 MLOAD PUSH1 0x20 DUP2 DUP4 SUB SUB DUP2 MSTORE SWAP1 PUSH1 0x40 MSTORE DUP1 MLOAD SWAP1 PUSH1 0x20 ADD KECCAK256 JUMPDEST SWAP1 POP SWAP3 SWAP2 POP POP JUMP JUMPDEST PUSH0 DUP1 REVERT JUMPDEST PUSH0 DUP1 REVERT JUMPDEST PUSH0 DUP2 SWAP1 POP SWAP2 SWAP1 POP JUMP JUMPDEST PUSH2 0x843 DUP2 PUSH2 0x831 JUMP JUMPDEST DUP2 EQ PUSH2 0x84D JUMPI PUSH0 DUP1 REVERT JUMPDEST POP JUMP JUMPDEST PUSH0 DUP2 CALLDATALOAD SWAP1 POP PUSH2 0x85E DUP2 PUSH2 0x83A JUMP JUMPDEST SWAP3 SWAP2 POP POP JUMP JUMPDEST PUSH0 DUP1 REVERT JUMPDEST PUSH0 DUP1 REVERT JUMPDEST PUSH0 DUP1 REVERT JUMPDEST PUSH0 DUP1 DUP4 PUSH1 0x1F DUP5 ADD SLT PUSH2 0x885 JUMPI PUSH2 0x884 PUSH2 0x864 JUMP JUMPDEST JUMPDEST DUP3 CALLDATALOAD SWAP1 POP PUSH8 0xFFFFFFFFFFFFFFFF DUP2 GT ISZERO PUSH2 0x8A2 JUMPI PUSH2 0x8A1 PUSH2 0x868 JUMP JUMPDEST JUMPDEST PUSH1 0x20 DUP4 ADD SWAP2 POP DUP4 PUSH1 0x20 DUP3 MUL DUP4 ADD GT ISZERO PUSH2 0x8BE JUMPI PUSH2 0x8BD PUSH2 0x86C JUMP JUMPDEST JUMPDEST SWAP3 POP SWAP3 SWAP1 POP JUMP JUMPDEST PUSH0 DUP2 SWAP1 POP SWAP2 SWAP1 POP JUMP JUMPDEST PUSH2 0x8D7 DUP2 PUSH2 0x8C5 JUMP JUMPDEST DUP2 EQ PUSH2 0x8E1 JUMPI PUSH0 DUP1 REVERT JUMPDEST POP JUMP JUMPDEST PUSH0 DUP2 CALLDATALOAD SWAP1 POP PUSH2 0x8F2 DUP2 PUSH2 0x8CE JUMP JUMPDEST SWAP3 SWAP2 POP POP JUMP JUMPDEST PUSH0 DUP1 PUSH0 DUP1 PUSH0 DUP1 PUSH1 0xA0 DUP8 DUP10 SUB SLT ISZERO PUSH2 0x912 JUMPI PUSH2 0x911 PUSH2 0x829 JUMP JUMPDEST JUMPDEST PUSH0 PUSH2 0x91F DUP10 DUP3 DUP11 ADD PUSH2 0x850 JUMP JUMPDEST SWAP7 POP POP PUSH1 0x20 PUSH2 0x930 DUP10 DUP3 DUP11 ADD PUSH2 0x850 JUMP JUMPDEST SWAP6 POP POP PUSH1 0x40 DUP8 ADD CALLDATALOAD PUSH8 0xFFFFFFFFFFFFFFFF DUP2 GT ISZERO PUSH2 0x951 JUMPI PUSH2 0x950 PUSH2 0x82D JUMP JUMPDEST JUMPDEST PUSH2 0x95D DUP10 DUP3 DUP11 ADD PUSH2 0x870 JUMP JUMPDEST SWAP5 POP SWAP5 POP POP PUSH1 0x60 PUSH2 0x970 DUP10 DUP3 DUP11 ADD PUSH2 0x8E4 JUMP JUMPDEST SWAP3 POP POP PUSH1 0x80 PUSH2 0x981 DUP10 DUP3 DUP11 ADD PUSH2 0x8E4 JUMP JUMPDEST SWAP2 POP POP SWAP3 SWAP6 POP SWAP3 SWAP6 POP SWAP3 SWAP6 JUMP JUMPDEST PUSH0 PUSH1 0x20 DUP3 DUP5 SUB SLT ISZERO PUSH2 0x9A3 JUMPI PUSH2 0x9A2 PUSH2 0x829 JUMP JUMPDEST JUMPDEST PUSH0 PUSH2 0x9B0 DUP5 DUP3 DUP6 ADD PUSH2 0x8E4 JUMP JUMPDEST SWAP2 POP POP SWAP3 SWAP2 POP POP JUMP JUMPDEST PUSH0 DUP2 ISZERO ISZERO SWAP1 POP SWAP2 SWAP1 POP JUMP JUMPDEST PUSH2 0x9CD DUP2 PUSH2 0x9B9 JUMP JUMPDEST DUP3 MSTORE POP POP JUMP JUMPDEST PUSH0 PUSH1 0x20 DUP3 ADD SWAP1 POP PUSH2 0x9E6 PUSH0 DUP4 ADD DUP5 PUSH2 0x9C4 JUMP JUMPDEST SWAP3 SWAP2 POP POP JUMP JUMPDEST PUSH0 PUSH20 0xFFFFFFFFFFFFFFFFFFFFFFFFFFFFFFFFFFFFFFFF DUP3 AND SWAP1 POP SWAP2 SWAP1 POP JUMP JUMPDEST PUSH0 PUSH2 0xA15 DUP3 PUSH2 0x9EC JUMP JUMPDEST SWAP1 POP SWAP2 SWAP1 POP JUMP JUMPDEST PUSH2 0xA25 DUP2 PUSH2 0xA0B JUMP JUMPDEST DUP3 MSTORE POP POP JUMP JUMPDEST PUSH0 PUSH1 0x20 DUP3 ADD SWAP1 POP PUSH2 0xA3E PUSH0 DUP4 ADD DUP5 PUSH2 0xA1C JUMP JUMPDEST SWAP3 SWAP2 POP POP JUMP JUMPDEST PUSH0 PUSH1 0x20 DUP3 DUP5 SUB SLT ISZERO PUSH2 0xA59 JUMPI PUSH2 0xA58 PUSH2 0x829 JUMP JUMPDEST JUMPDEST PUSH0 PUSH2 0xA66 DUP5 DUP3 DUP6 ADD PUSH2 0x850 JUMP JUMPDEST SWAP2 POP POP SWAP3 SWAP2 POP POP JUMP JUMPDEST PUSH2 0xA78 DUP2 PUSH2 0xA0B JUMP JUMPDEST DUP2 EQ PUSH2 0xA82 JUMPI PUSH0 DUP1 REVERT JUMPDEST POP JUMP JUMPDEST PUSH0 DUP2 CALLDATALOAD SWAP1 POP PUSH2 0xA93 DUP2 PUSH2 0xA6F JUMP JUMPDEST SWAP3 SWAP2 POP POP JUMP JUMPDEST PUSH0 PUSH1 0x20 DUP3 DUP5 SUB SLT ISZERO PUSH2 0xAAE JUMPI PUSH2 0xAAD PUSH2 0x829 JUMP JUMPDEST JUMPDEST PUSH0 PUSH2 0xABB DUP5 DUP3 DUP6 ADD PUSH2 0xA85 JUMP JUMPDEST SWAP2 POP POP SWAP3 SWAP2 POP POP JUMP JUMPDEST PUSH0 DUP2 SWAP1 POP SWAP2 SWAP1 POP JUMP JUMPDEST PUSH0 PUSH2 0xAE7 PUSH2 0xAE2 PUSH2 0xADD DUP5 PUSH2 0x9EC JUMP JUMPDEST PUSH2 0xAC4 JUMP JUMPDEST PUSH2 0x9EC JUMP JUMPDEST SWAP1 POP SWAP2 SWAP1 POP JUMP JUMPDEST PUSH0 PUSH2 0xAF8 DUP3 PUSH2 0xACD JUMP JUMPDEST SWAP1 POP SWAP2 SWAP1 POP JUMP JUMPDEST PUSH0 PUSH2 0xB09 DUP3 PUSH2 0xAEE JUMP JUMPDEST SWAP1 POP SWAP2 SWAP1 POP JUMP JUMPDEST PUSH2 0xB19 DUP2 PUSH2 0xAFF JUMP JUMPDEST DUP3 MSTORE POP POP JUMP JUMPDEST PUSH0 PUSH1 0x20 DUP3 ADD SWAP1 POP PUSH2 0xB32 PUSH0 DUP4 ADD DUP5 PUSH2 0xB10 JUMP JUMPDEST SWAP3 SWAP2 POP POP JUMP JUMPDEST PUSH0 DUP3 DUP3 MSTORE PUSH1 0x20 DUP3 ADD SWAP1 POP SWAP3 SWAP2 POP POP JUMP JUMPDEST PUSH32 0x43757272656E7420626C6F636B206E756D626572206973206E6F742067726561 PUSH0 DUP3 ADD MSTORE PUSH32 0x746572207468616E207468652070726F766964656420626C6F636B206E756D62 PUSH1 0x20 DUP3 ADD MSTORE PUSH32 0x6572000000000000000000000000000000000000000000000000000000000000 PUSH1 0x40 DUP3 ADD MSTORE POP JUMP JUMPDEST PUSH0 PUSH2 0xBC8 PUSH1 0x42 DUP4 PUSH2 0xB38 JUMP JUMPDEST SWAP2 POP PUSH2 0xBD3 DUP3 PUSH2 0xB48 JUMP JUMPDEST PUSH1 0x60 DUP3 ADD SWAP1 POP SWAP2 SWAP1 POP JUMP JUMPDEST PUSH0 PUSH1 0x20 DUP3 ADD SWAP1 POP DUP2 DUP2 SUB PUSH0 DUP4 ADD MSTORE PUSH2 0xBF5 DUP2 PUSH2 0xBBC JUMP JUMPDEST SWAP1 POP SWAP2 SWAP1 POP JUMP JUMPDEST PUSH32 0x496E76616C6964204D65726B6C652070726F6F66000000000000000000000000 PUSH0 DUP3 ADD MSTORE POP JUMP JUMPDEST PUSH0 PUSH2 0xC30 PUSH1 0x14 DUP4 PUSH2 0xB38 JUMP JUMPDEST SWAP2 POP PUSH2 0xC3B DUP3 PUSH2 0xBFC JUMP JUMPDEST PUSH1 0x20 DUP3 ADD SWAP1 POP SWAP2 SWAP1 POP JUMP JUMPDEST PUSH0 PUSH1 0x20 DUP3 ADD SWAP1 POP DUP2 DUP2 SUB PUSH0 DUP4 ADD MSTORE PUSH2 0xC5D DUP2 PUSH2 0xC24 JUMP JUMPDEST SWAP1 POP SWAP2 SWAP1 POP JUMP JUMPDEST PUSH0 DUP2 PUSH1 0x60 SHL SWAP1 POP SWAP2 SWAP1 POP JUMP JUMPDEST PUSH0 PUSH2 0xC7A DUP3 PUSH2 0xC64 JUMP JUMPDEST SWAP1 POP SWAP2 SWAP1 POP JUMP JUMPDEST PUSH0 PUSH2 0xC8B DUP3 PUSH2 0xC70 JUMP JUMPDEST SWAP1 POP SWAP2 SWAP1 POP JUMP JUMPDEST PUSH2 0xCA3 PUSH2 0xC9E DUP3 PUSH2 0xA0B JUMP JUMPDEST PUSH2 0xC81 JUMP JUMPDEST DUP3 MSTORE POP POP JUMP JUMPDEST PUSH0 DUP2 SWAP1 POP SWAP2 SWAP1 POP JUMP JUMPDEST PUSH2 0xCC3 PUSH2 0xCBE DUP3 PUSH2 0x831 JUMP JUMPDEST PUSH2 0xCA9 JUMP JUMPDEST DUP3 MSTORE POP POP JUMP JUMPDEST PUSH0 PUSH2 0xCD4 DUP3 DUP6 PUSH2 0xC92 JUMP JUMPDEST PUSH1 0x14 DUP3 ADD SWAP2 POP PUSH2 0xCE4 DUP3 DUP5 PUSH2 0xCB2 JUMP JUMPDEST PUSH1 0x20 DUP3 ADD SWAP2 POP DUP2 SWAP1 POP SWAP4 SWAP3 POP POP POP JUMP JUMPDEST PUSH32 0x4F776E61626C653A206E6577206F776E657220697320746865207A65726F2061 PUSH0 DUP3 ADD MSTORE PUSH32 0x6464726573730000000000000000000000000000000000000000000000000000 PUSH1 0x20 DUP3 ADD MSTORE POP JUMP JUMPDEST PUSH0 PUSH2 0xD4E PUSH1 0x26 DUP4 PUSH2 0xB38 JUMP JUMPDEST SWAP2 POP PUSH2 0xD59 DUP3 PUSH2 0xCF4 JUMP JUMPDEST PUSH1 0x40 DUP3 ADD SWAP1 POP SWAP2 SWAP1 POP JUMP JUMPDEST PUSH0 PUSH1 0x20 DUP3 ADD SWAP1 POP DUP2 DUP2 SUB PUSH0 DUP4 ADD MSTORE PUSH2 0xD7B DUP2 PUSH2 0xD42 JUMP JUMPDEST SWAP1 POP SWAP2 SWAP1 POP JUMP JUMPDEST PUSH2 0xD8B DUP2 PUSH2 0x831 JUMP JUMPDEST DUP3 MSTORE POP POP JUMP JUMPDEST PUSH0 PUSH1 0x20 DUP3 ADD SWAP1 POP PUSH2 0xDA4 PUSH0 DUP4 ADD DUP5 PUSH2 0xD82 JUMP JUMPDEST SWAP3 SWAP2 POP POP JUMP JUMPDEST PUSH0 DUP2 MLOAD SWAP1 POP PUSH2 0xDB8 DUP2 PUSH2 0xA6F JUMP JUMPDEST SWAP3 SWAP2 POP POP JUMP JUMPDEST PUSH0 PUSH1 0x20 DUP3 DUP5 SUB SLT ISZERO PUSH2 0xDD3 JUMPI PUSH2 0xDD2 PUSH2 0x829 JUMP JUMPDEST JUMPDEST PUSH0 PUSH2 0xDE0 DUP5 DUP3 DUP6 ADD PUSH2 0xDAA JUMP JUMPDEST SWAP2 POP POP SWAP3 SWAP2 POP POP JUMP JUMPDEST PUSH32 0x596F7520617265206E6F7420746865206F776E6572206F662074686973204E46 PUSH0 DUP3 ADD MSTORE PUSH32 0x5400000000000000000000000000000000000000000000000000000000000000 PUSH1 0x20 DUP3 ADD MSTORE POP JUMP JUMPDEST PUSH0 PUSH2 0xE43 PUSH1 0x21 DUP4 PUSH2 0xB38 JUMP JUMPDEST SWAP2 POP PUSH2 0xE4E DUP3 PUSH2 0xDE9 JUMP JUMPDEST PUSH1 0x40 DUP3 ADD SWAP1 POP SWAP2 SWAP1 POP JUMP JUMPDEST PUSH0 PUSH1 0x20 DUP3 ADD SWAP1 POP DUP2 DUP2 SUB PUSH0 DUP4 ADD MSTORE PUSH2 0xE70 DUP2 PUSH2 0xE37 JUMP JUMPDEST SWAP1 POP SWAP2 SWAP1 POP JUMP JUMPDEST PUSH32 0x4E465420616C72656164792073746F7265640000000000000000000000000000 PUSH0 DUP3 ADD MSTORE POP JUMP JUMPDEST PUSH0 PUSH2 0xEAB PUSH1 0x12 DUP4 PUSH2 0xB38 JUMP JUMPDEST SWAP2 POP PUSH2 0xEB6 DUP3 PUSH2 0xE77 JUMP JUMPDEST PUSH1 0x20 DUP3 ADD SWAP1 POP SWAP2 SWAP1 POP JUMP JUMPDEST PUSH0 PUSH1 0x20 DUP3 ADD SWAP1 POP DUP2 DUP2 SUB PUSH0 DUP4 ADD MSTORE PUSH2 0xED8 DUP2 PUSH2 0xE9F JUMP JUMPDEST SWAP1 POP SWAP2 SWAP1 POP JUMP JUMPDEST PUSH0 PUSH1 0x60 DUP3 ADD SWAP1 POP PUSH2 0xEF2 PUSH0 DUP4 ADD DUP7 PUSH2 0xA1C JUMP JUMPDEST PUSH2 0xEFF PUSH1 0x20 DUP4 ADD DUP6 PUSH2 0xA1C JUMP JUMPDEST PUSH2 0xF0C PUSH1 0x40 DUP4 ADD DUP5 PUSH2 0xD82 JUMP JUMPDEST SWAP5 SWAP4 POP POP POP POP JUMP JUMPDEST PUSH32 0x4F776E61626C653A2063616C6C6572206973206E6F7420746865206F776E6572 PUSH0 DUP3 ADD MSTORE POP JUMP JUMPDEST PUSH0 PUSH2 0xF48 PUSH1 0x20 DUP4 PUSH2 0xB38 JUMP JUMPDEST SWAP2 POP PUSH2 0xF53 DUP3 PUSH2 0xF14 JUMP JUMPDEST PUSH1 0x20 DUP3 ADD SWAP1 POP SWAP2 SWAP1 POP JUMP JUMPDEST PUSH0 PUSH1 0x20 DUP3 ADD SWAP1 POP DUP2 DUP2 SUB PUSH0 DUP4 ADD MSTORE PUSH2 0xF75 DUP2 PUSH2 0xF3C JUMP JUMPDEST SWAP1 POP SWAP2 SWAP1 POP JUMP JUMPDEST PUSH32 0x4E487B7100000000000000000000000000000000000000000000000000000000 PUSH0 MSTORE PUSH1 0x32 PUSH1 0x4 MSTORE PUSH1 0x24 PUSH0 REVERT JUMPDEST PUSH0 DUP2 SWAP1 POP SWAP2 SWAP1 POP JUMP JUMPDEST PUSH2 0xFC3 PUSH2 0xFBE DUP3 PUSH2 0x8C5 JUMP JUMPDEST PUSH2 0xFA9 JUMP JUMPDEST DUP3 MSTORE POP POP JUMP JUMPDEST PUSH0 PUSH2 0xFD4 DUP3 DUP6 PUSH2 0xFB2 JUMP JUMPDEST PUSH1 0x20 DUP3 ADD SWAP2 POP PUSH2 0xFE4 DUP3 DUP5 PUSH2 0xFB2 JUMP JUMPDEST PUSH1 0x20 DUP3 ADD SWAP2 POP DUP2 SWAP1 POP SWAP4 SWAP3 POP POP POP JUMP INVALID LOG2 PUSH5 0x6970667358 0x22 SLT KECCAK256 0xA6 0xA7 0x2E SLOAD GT 0x2F CALLDATACOPY CALLCODE PUSH9 0xC101677F1A1C70F57A 0xD2 0xC5 STOP POP 0xBE BALANCE SWAP13 SWAP8 ADDRESS 0xB6 0xE4 DUP12 0xB1 PUSH6 0x64736F6C6343 STOP ADDMOD BYTE STOP CALLER "
				},
				"gasEstimates": {
					"creation": {
						"codeDepositCost": "827600",
						"executionCost": "infinite",
						"totalCost": "infinite"
					},
					"external": {
						"gameItemContract()": "infinite",
						"getStoredStatus(uint256)": "infinite",
						"owner()": "2515",
						"renounceOwnership()": "30435",
						"storedNFTs(bytes32)": "2808",
						"transferOwnership(address)": "30775",
						"verifyAndStore(uint256,uint256,bytes32[],bytes32,bytes32)": "infinite"
					},
					"internal": {
						"storeNFT(uint256)": "infinite"
					}
				},
				"methodIdentifiers": {
					"gameItemContract()": "f9be04ca",
					"getStoredStatus(uint256)": "c9ff64ec",
					"owner()": "8da5cb5b",
					"renounceOwnership()": "715018a6",
					"storedNFTs(bytes32)": "22341741",
					"transferOwnership(address)": "f2fde38b",
					"verifyAndStore(uint256,uint256,bytes32[],bytes32,bytes32)": "130b7686"
				}
			},
			"storageLayout": {
				"storage": [
					{
						"astId": 7,
						"contract": "trustless cross-chain/trading pair formation/cross-chain-validation.sol:SCc",
						"label": "_owner",
						"offset": 0,
						"slot": "0",
						"type": "t_address"
					},
					{
						"astId": 360,
						"contract": "trustless cross-chain/trading pair formation/cross-chain-validation.sol:SCc",
						"label": "gameItemContract",
						"offset": 0,
						"slot": "1",
						"type": "t_contract(IERC721)228"
					},
					{
						"astId": 364,
						"contract": "trustless cross-chain/trading pair formation/cross-chain-validation.sol:SCc",
						"label": "storedNFTs",
						"offset": 0,
						"slot": "2",
						"type": "t_mapping(t_bytes32,t_bool)"
					}
				],
				"types": {
					"t_address": {
						"encoding": "inplace",
						"label": "address",
						"numberOfBytes": "20"
					},
					"t_bool": {
						"encoding": "inplace",
						"label": "bool",
						"numberOfBytes": "1"
					},
					"t_bytes32": {
						"encoding": "inplace",
						"label": "bytes32",
						"numberOfBytes": "32"
					},
					"t_contract(IERC721)228": {
						"encoding": "inplace",
						"label": "contract IERC721",
						"numberOfBytes": "20"
					},
					"t_mapping(t_bytes32,t_bool)": {
						"encoding": "mapping",
						"key": "t_bytes32",
						"label": "mapping(bytes32 => bool)",
						"numberOfBytes": "32",
						"value": "t_bool"
					}
				}
			},
			"userdoc": {
				"kind": "user",
				"methods": {},
				"version": 1
			}
		}
	}
}