{
	"trustless cross-chain/trading pair formation/deposit1.sol": {
		"Deposit": {
			"abi": [
				{
					"inputs": [
						{
							"internalType": "address",
							"name": "_validationContract",
							"type": "address"
						}
					],
					"stateMutability": "nonpayable",
					"type": "constructor"
				},
				{
					"inputs": [
						{
							"internalType": "address",
							"name": "user",
							"type": "address"
						}
					],
					"name": "confiscate",
					"outputs": [],
					"stateMutability": "nonpayable",
					"type": "function"
				},
				{
					"inputs": [
						{
							"internalType": "uint256",
							"name": "k",
							"type": "uint256"
						}
					],
					"name": "deposit",
					"outputs": [],
					"stateMutability": "payable",
					"type": "function"
				},
				{
					"inputs": [
						{
							"internalType": "address",
							"name": "",
							"type": "address"
						}
					],
					"name": "deposits",
					"outputs": [
						{
							"internalType": "uint256",
							"name": "amount",
							"type": "uint256"
						},
						{
							"internalType": "uint256",
							"name": "unlockBlock",
							"type": "uint256"
						}
					],
					"stateMutability": "view",
					"type": "function"
				},
				{
					"inputs": [],
					"name": "validationContract",
					"outputs": [
						{
							"internalType": "address",
							"name": "",
							"type": "address"
						}
					],
					"stateMutability": "view",
					"type": "function"
				},
				{
					"inputs": [],
					"name": "withdraw",
					"outputs": [],
					"stateMutability": "nonpayable",
					"type": "function"
				}
			],
			"devdoc": {
				"kind": "dev",
				"methods": {},
				"version": 1
			},
			"evm": {
				"assembly": "    /* \"trustless cross-chain/trading pair formation/deposit1.sol\":25:1193  contract Deposit {... */\n  mstore(0x40, 0x80)\n    /* \"trustless cross-chain/trading pair formation/deposit1.sol\":226:324  constructor(address _validationContract) {... */\n  callvalue\n  dup1\n  iszero\n  tag_1\n  jumpi\n  0x00\n  dup1\n  revert\ntag_1:\n  pop\n  mload(0x40)\n  sub(codesize, bytecodeSize)\n  dup1\n  bytecodeSize\n  dup4\n  codecopy\n  dup2\n  dup2\n  add\n  0x40\n  mstore\n  dup2\n  add\n  swap1\n  tag_2\n  swap2\n  swap1\n  tag_3\n  jump\t// in\ntag_2:\n    /* \"trustless cross-chain/trading pair formation/deposit1.sol\":298:317  _validationContract */\n  dup1\n    /* \"trustless cross-chain/trading pair formation/deposit1.sol\":277:295  validationContract */\n  0x01\n  0x00\n    /* \"trustless cross-chain/trading pair formation/deposit1.sol\":277:317  validationContract = _validationContract */\n  0x0100\n  exp\n  dup2\n  sload\n  dup2\n  0xffffffffffffffffffffffffffffffffffffffff\n  mul\n  not\n  and\n  swap1\n  dup4\n  0xffffffffffffffffffffffffffffffffffffffff\n  and\n  mul\n  or\n  swap1\n  sstore\n  pop\n    /* \"trustless cross-chain/trading pair formation/deposit1.sol\":226:324  constructor(address _validationContract) {... */\n  pop\n    /* \"trustless cross-chain/trading pair formation/deposit1.sol\":25:1193  contract Deposit {... */\n  jump(tag_6)\n    /* \"#utility.yul\":88:205   */\ntag_8:\n    /* \"#utility.yul\":197:198   */\n  0x00\n    /* \"#utility.yul\":194:195   */\n  dup1\n    /* \"#utility.yul\":187:199   */\n  revert\n    /* \"#utility.yul\":334:460   */\ntag_10:\n    /* \"#utility.yul\":371:378   */\n  0x00\n    /* \"#utility.yul\":411:453   */\n  0xffffffffffffffffffffffffffffffffffffffff\n    /* \"#utility.yul\":404:409   */\n  dup3\n    /* \"#utility.yul\":400:454   */\n  and\n    /* \"#utility.yul\":389:454   */\n  swap1\n  pop\n    /* \"#utility.yul\":334:460   */\n  swap2\n  swap1\n  pop\n  jump\t// out\n    /* \"#utility.yul\":466:562   */\ntag_11:\n    /* \"#utility.yul\":503:510   */\n  0x00\n    /* \"#utility.yul\":532:556   */\n  tag_20\n    /* \"#utility.yul\":550:555   */\n  dup3\n    /* \"#utility.yul\":532:556   */\n  tag_10\n  jump\t// in\ntag_20:\n    /* \"#utility.yul\":521:556   */\n  swap1\n  pop\n    /* \"#utility.yul\":466:562   */\n  swap2\n  swap1\n  pop\n  jump\t// out\n    /* \"#utility.yul\":568:690   */\ntag_12:\n    /* \"#utility.yul\":641:665   */\n  tag_22\n    /* \"#utility.yul\":659:664   */\n  dup2\n    /* \"#utility.yul\":641:665   */\n  tag_11\n  jump\t// in\ntag_22:\n    /* \"#utility.yul\":634:639   */\n  dup2\n    /* \"#utility.yul\":631:666   */\n  eq\n    /* \"#utility.yul\":621:684   */\n  tag_23\n  jumpi\n    /* \"#utility.yul\":680:681   */\n  0x00\n    /* \"#utility.yul\":677:678   */\n  dup1\n    /* \"#utility.yul\":670:682   */\n  revert\n    /* \"#utility.yul\":621:684   */\ntag_23:\n    /* \"#utility.yul\":568:690   */\n  pop\n  jump\t// out\n    /* \"#utility.yul\":696:839   */\ntag_13:\n    /* \"#utility.yul\":753:758   */\n  0x00\n    /* \"#utility.yul\":784:790   */\n  dup2\n    /* \"#utility.yul\":778:791   */\n  mload\n    /* \"#utility.yul\":769:791   */\n  swap1\n  pop\n    /* \"#utility.yul\":800:833   */\n  tag_25\n    /* \"#utility.yul\":827:832   */\n  dup2\n    /* \"#utility.yul\":800:833   */\n  tag_12\n  jump\t// in\ntag_25:\n    /* \"#utility.yul\":696:839   */\n  swap3\n  swap2\n  pop\n  pop\n  jump\t// out\n    /* \"#utility.yul\":845:1196   */\ntag_3:\n    /* \"#utility.yul\":915:921   */\n  0x00\n    /* \"#utility.yul\":964:966   */\n  0x20\n    /* \"#utility.yul\":952:961   */\n  dup3\n    /* \"#utility.yul\":943:950   */\n  dup5\n    /* \"#utility.yul\":939:962   */\n  sub\n    /* \"#utility.yul\":935:967   */\n  slt\n    /* \"#utility.yul\":932:1051   */\n  iszero\n  tag_27\n  jumpi\n    /* \"#utility.yul\":970:1049   */\n  tag_28\n  tag_8\n  jump\t// in\ntag_28:\n    /* \"#utility.yul\":932:1051   */\ntag_27:\n    /* \"#utility.yul\":1090:1091   */\n  0x00\n    /* \"#utility.yul\":1115:1179   */\n  tag_29\n    /* \"#utility.yul\":1171:1178   */\n  dup5\n    /* \"#utility.yul\":1162:1168   */\n  dup3\n    /* \"#utility.yul\":1151:1160   */\n  dup6\n    /* \"#utility.yul\":1147:1169   */\n  add\n    /* \"#utility.yul\":1115:1179   */\n  tag_13\n  jump\t// in\ntag_29:\n    /* \"#utility.yul\":1105:1179   */\n  swap2\n  pop\n    /* \"#utility.yul\":1061:1189   */\n  pop\n    /* \"#utility.yul\":845:1196   */\n  swap3\n  swap2\n  pop\n  pop\n  jump\t// out\n    /* \"trustless cross-chain/trading pair formation/deposit1.sol\":25:1193  contract Deposit {... */\ntag_6:\n  dataSize(sub_0)\n  dup1\n  dataOffset(sub_0)\n  0x00\n  codecopy\n  0x00\n  return\nstop\n\nsub_0: assembly {\n        /* \"trustless cross-chain/trading pair formation/deposit1.sol\":25:1193  contract Deposit {... */\n      mstore(0x40, 0x80)\n      jumpi(tag_1, lt(calldatasize, 0x04))\n      shr(0xe0, calldataload(0x00))\n      dup1\n      0x3ccfd60b\n      eq\n      tag_2\n      jumpi\n      dup1\n      0x44f252a0\n      eq\n      tag_3\n      jumpi\n      dup1\n      0xb6b55f25\n      eq\n      tag_4\n      jumpi\n      dup1\n      0xd2b409a1\n      eq\n      tag_5\n      jumpi\n      dup1\n      0xfc7e286d\n      eq\n      tag_6\n      jumpi\n    tag_1:\n      0x00\n      dup1\n      revert\n        /* \"trustless cross-chain/trading pair formation/deposit1.sol\":666:1005  function withdraw() external {... */\n    tag_2:\n      callvalue\n      dup1\n      iszero\n      tag_7\n      jumpi\n      0x00\n      dup1\n      revert\n    tag_7:\n      pop\n      tag_8\n      tag_9\n      jump\t// in\n    tag_8:\n      stop\n        /* \"trustless cross-chain/trading pair formation/deposit1.sol\":1011:1191  function confiscate(address user) external {... */\n    tag_3:\n      callvalue\n      dup1\n      iszero\n      tag_10\n      jumpi\n      0x00\n      dup1\n      revert\n    tag_10:\n      pop\n      tag_11\n      0x04\n      dup1\n      calldatasize\n      sub\n      dup2\n      add\n      swap1\n      tag_12\n      swap2\n      swap1\n      tag_13\n      jump\t// in\n    tag_12:\n      tag_14\n      jump\t// in\n    tag_11:\n      stop\n        /* \"trustless cross-chain/trading pair formation/deposit1.sol\":330:660  function deposit(uint256 k) external payable {... */\n    tag_4:\n      tag_15\n      0x04\n      dup1\n      calldatasize\n      sub\n      dup2\n      add\n      swap1\n      tag_16\n      swap2\n      swap1\n      tag_17\n      jump\t// in\n    tag_16:\n      tag_18\n      jump\t// in\n    tag_15:\n      stop\n        /* \"trustless cross-chain/trading pair formation/deposit1.sol\":186:219  address public validationContract */\n    tag_5:\n      callvalue\n      dup1\n      iszero\n      tag_19\n      jumpi\n      0x00\n      dup1\n      revert\n    tag_19:\n      pop\n      tag_20\n      tag_21\n      jump\t// in\n    tag_20:\n      mload(0x40)\n      tag_22\n      swap2\n      swap1\n      tag_23\n      jump\t// in\n    tag_22:\n      mload(0x40)\n      dup1\n      swap2\n      sub\n      swap1\n      return\n        /* \"trustless cross-chain/trading pair formation/deposit1.sol\":133:180  mapping(address => DepositInfo) public deposits */\n    tag_6:\n      callvalue\n      dup1\n      iszero\n      tag_24\n      jumpi\n      0x00\n      dup1\n      revert\n    tag_24:\n      pop\n      tag_25\n      0x04\n      dup1\n      calldatasize\n      sub\n      dup2\n      add\n      swap1\n      tag_26\n      swap2\n      swap1\n      tag_13\n      jump\t// in\n    tag_26:\n      tag_27\n      jump\t// in\n    tag_25:\n      mload(0x40)\n      tag_28\n      swap3\n      swap2\n      swap1\n      tag_29\n      jump\t// in\n    tag_28:\n      mload(0x40)\n      dup1\n      swap2\n      sub\n      swap1\n      return\n        /* \"trustless cross-chain/trading pair formation/deposit1.sol\":666:1005  function withdraw() external {... */\n    tag_9:\n        /* \"trustless cross-chain/trading pair formation/deposit1.sol\":743:744  0 */\n      0x00\n        /* \"trustless cross-chain/trading pair formation/deposit1.sol\":713:721  deposits */\n      dup1\n        /* \"trustless cross-chain/trading pair formation/deposit1.sol\":713:733  deposits[msg.sender] */\n      0x00\n        /* \"trustless cross-chain/trading pair formation/deposit1.sol\":722:732  msg.sender */\n      caller\n        /* \"trustless cross-chain/trading pair formation/deposit1.sol\":713:733  deposits[msg.sender] */\n      0xffffffffffffffffffffffffffffffffffffffff\n      and\n      0xffffffffffffffffffffffffffffffffffffffff\n      and\n      dup2\n      mstore\n      0x20\n      add\n      swap1\n      dup2\n      mstore\n      0x20\n      add\n      0x00\n      keccak256\n        /* \"trustless cross-chain/trading pair formation/deposit1.sol\":713:740  deposits[msg.sender].amount */\n      0x00\n      add\n      sload\n        /* \"trustless cross-chain/trading pair formation/deposit1.sol\":713:744  deposits[msg.sender].amount > 0 */\n      gt\n        /* \"trustless cross-chain/trading pair formation/deposit1.sol\":705:765  require(deposits[msg.sender].amount > 0, \"No deposit found\") */\n      tag_31\n      jumpi\n      mload(0x40)\n      0x08c379a000000000000000000000000000000000000000000000000000000000\n      dup2\n      mstore\n      0x04\n      add\n      tag_32\n      swap1\n      tag_33\n      jump\t// in\n    tag_32:\n      mload(0x40)\n      dup1\n      swap2\n      sub\n      swap1\n      revert\n    tag_31:\n        /* \"trustless cross-chain/trading pair formation/deposit1.sol\":799:807  deposits */\n      0x00\n        /* \"trustless cross-chain/trading pair formation/deposit1.sol\":799:819  deposits[msg.sender] */\n      dup1\n        /* \"trustless cross-chain/trading pair formation/deposit1.sol\":808:818  msg.sender */\n      caller\n        /* \"trustless cross-chain/trading pair formation/deposit1.sol\":799:819  deposits[msg.sender] */\n      0xffffffffffffffffffffffffffffffffffffffff\n      and\n      0xffffffffffffffffffffffffffffffffffffffff\n      and\n      dup2\n      mstore\n      0x20\n      add\n      swap1\n      dup2\n      mstore\n      0x20\n      add\n      0x00\n      keccak256\n        /* \"trustless cross-chain/trading pair formation/deposit1.sol\":799:831  deposits[msg.sender].unlockBlock */\n      0x01\n      add\n      sload\n        /* \"trustless cross-chain/trading pair formation/deposit1.sol\":783:795  block.number */\n      number\n        /* \"trustless cross-chain/trading pair formation/deposit1.sol\":783:831  block.number >= deposits[msg.sender].unlockBlock */\n      lt\n      iszero\n        /* \"trustless cross-chain/trading pair formation/deposit1.sol\":775:856  require(block.number >= deposits[msg.sender].unlockBlock, \"Withdrawal is locked\") */\n      tag_34\n      jumpi\n      mload(0x40)\n      0x08c379a000000000000000000000000000000000000000000000000000000000\n      dup2\n      mstore\n      0x04\n      add\n      tag_35\n      swap1\n      tag_36\n      jump\t// in\n    tag_35:\n      mload(0x40)\n      dup1\n      swap2\n      sub\n      swap1\n      revert\n    tag_34:\n        /* \"trustless cross-chain/trading pair formation/deposit1.sol\":867:881  uint256 amount */\n      0x00\n        /* \"trustless cross-chain/trading pair formation/deposit1.sol\":884:892  deposits */\n      dup1\n        /* \"trustless cross-chain/trading pair formation/deposit1.sol\":884:904  deposits[msg.sender] */\n      0x00\n        /* \"trustless cross-chain/trading pair formation/deposit1.sol\":893:903  msg.sender */\n      caller\n        /* \"trustless cross-chain/trading pair formation/deposit1.sol\":884:904  deposits[msg.sender] */\n      0xffffffffffffffffffffffffffffffffffffffff\n      and\n      0xffffffffffffffffffffffffffffffffffffffff\n      and\n      dup2\n      mstore\n      0x20\n      add\n      swap1\n      dup2\n      mstore\n      0x20\n      add\n      0x00\n      keccak256\n        /* \"trustless cross-chain/trading pair formation/deposit1.sol\":884:911  deposits[msg.sender].amount */\n      0x00\n      add\n      sload\n        /* \"trustless cross-chain/trading pair formation/deposit1.sol\":867:911  uint256 amount = deposits[msg.sender].amount */\n      swap1\n      pop\n        /* \"trustless cross-chain/trading pair formation/deposit1.sol\":951:952  0 */\n      0x00\n        /* \"trustless cross-chain/trading pair formation/deposit1.sol\":921:929  deposits */\n      dup1\n        /* \"trustless cross-chain/trading pair formation/deposit1.sol\":921:941  deposits[msg.sender] */\n      0x00\n        /* \"trustless cross-chain/trading pair formation/deposit1.sol\":930:940  msg.sender */\n      caller\n        /* \"trustless cross-chain/trading pair formation/deposit1.sol\":921:941  deposits[msg.sender] */\n      0xffffffffffffffffffffffffffffffffffffffff\n      and\n      0xffffffffffffffffffffffffffffffffffffffff\n      and\n      dup2\n      mstore\n      0x20\n      add\n      swap1\n      dup2\n      mstore\n      0x20\n      add\n      0x00\n      keccak256\n        /* \"trustless cross-chain/trading pair formation/deposit1.sol\":921:948  deposits[msg.sender].amount */\n      0x00\n      add\n        /* \"trustless cross-chain/trading pair formation/deposit1.sol\":921:952  deposits[msg.sender].amount = 0 */\n      dup2\n      swap1\n      sstore\n      pop\n        /* \"trustless cross-chain/trading pair formation/deposit1.sol\":970:980  msg.sender */\n      caller\n        /* \"trustless cross-chain/trading pair formation/deposit1.sol\":962:990  payable(msg.sender).transfer */\n      0xffffffffffffffffffffffffffffffffffffffff\n      and\n        /* \"trustless cross-chain/trading pair formation/deposit1.sol\":962:998  payable(msg.sender).transfer(amount) */\n      0x08fc\n        /* \"trustless cross-chain/trading pair formation/deposit1.sol\":991:997  amount */\n      dup3\n        /* \"trustless cross-chain/trading pair formation/deposit1.sol\":962:998  payable(msg.sender).transfer(amount) */\n      swap1\n      dup2\n      iszero\n      mul\n      swap1\n      mload(0x40)\n      0x00\n      mload(0x40)\n      dup1\n      dup4\n      sub\n      dup2\n      dup6\n      dup9\n      dup9\n      call\n      swap4\n      pop\n      pop\n      pop\n      pop\n      iszero\n      dup1\n      iszero\n      tag_38\n      jumpi\n      returndatasize\n      0x00\n      dup1\n      returndatacopy\n      revert(0x00, returndatasize)\n    tag_38:\n      pop\n        /* \"trustless cross-chain/trading pair formation/deposit1.sol\":695:1005  {... */\n      pop\n        /* \"trustless cross-chain/trading pair formation/deposit1.sol\":666:1005  function withdraw() external {... */\n      jump\t// out\n        /* \"trustless cross-chain/trading pair formation/deposit1.sol\":1011:1191  function confiscate(address user) external {... */\n    tag_14:\n        /* \"trustless cross-chain/trading pair formation/deposit1.sol\":1086:1104  validationContract */\n      0x01\n      0x00\n      swap1\n      sload\n      swap1\n      0x0100\n      exp\n      swap1\n      div\n      0xffffffffffffffffffffffffffffffffffffffff\n      and\n        /* \"trustless cross-chain/trading pair formation/deposit1.sol\":1072:1104  msg.sender == validationContract */\n      0xffffffffffffffffffffffffffffffffffffffff\n      and\n        /* \"trustless cross-chain/trading pair formation/deposit1.sol\":1072:1082  msg.sender */\n      caller\n        /* \"trustless cross-chain/trading pair formation/deposit1.sol\":1072:1104  msg.sender == validationContract */\n      0xffffffffffffffffffffffffffffffffffffffff\n      and\n      eq\n        /* \"trustless cross-chain/trading pair formation/deposit1.sol\":1064:1148  require(msg.sender == validationContract, \"Only validation contract can confiscate\") */\n      tag_40\n      jumpi\n      mload(0x40)\n      0x08c379a000000000000000000000000000000000000000000000000000000000\n      dup2\n      mstore\n      0x04\n      add\n      tag_41\n      swap1\n      tag_42\n      jump\t// in\n    tag_41:\n      mload(0x40)\n      dup1\n      swap2\n      sub\n      swap1\n      revert\n    tag_40:\n        /* \"trustless cross-chain/trading pair formation/deposit1.sol\":1183:1184  0 */\n      0x00\n        /* \"trustless cross-chain/trading pair formation/deposit1.sol\":1159:1167  deposits */\n      dup1\n        /* \"trustless cross-chain/trading pair formation/deposit1.sol\":1159:1173  deposits[user] */\n      0x00\n        /* \"trustless cross-chain/trading pair formation/deposit1.sol\":1168:1172  user */\n      dup4\n        /* \"trustless cross-chain/trading pair formation/deposit1.sol\":1159:1173  deposits[user] */\n      0xffffffffffffffffffffffffffffffffffffffff\n      and\n      0xffffffffffffffffffffffffffffffffffffffff\n      and\n      dup2\n      mstore\n      0x20\n      add\n      swap1\n      dup2\n      mstore\n      0x20\n      add\n      0x00\n      keccak256\n        /* \"trustless cross-chain/trading pair formation/deposit1.sol\":1159:1180  deposits[user].amount */\n      0x00\n      add\n        /* \"trustless cross-chain/trading pair formation/deposit1.sol\":1159:1184  deposits[user].amount = 0 */\n      dup2\n      swap1\n      sstore\n      pop\n        /* \"trustless cross-chain/trading pair formation/deposit1.sol\":1011:1191  function confiscate(address user) external {... */\n      pop\n      jump\t// out\n        /* \"trustless cross-chain/trading pair formation/deposit1.sol\":330:660  function deposit(uint256 k) external payable {... */\n    tag_18:\n        /* \"trustless cross-chain/trading pair formation/deposit1.sol\":405:406  0 */\n      0x00\n        /* \"trustless cross-chain/trading pair formation/deposit1.sol\":393:402  msg.value */\n      callvalue\n        /* \"trustless cross-chain/trading pair formation/deposit1.sol\":393:406  msg.value > 0 */\n      gt\n        /* \"trustless cross-chain/trading pair formation/deposit1.sol\":385:437  require(msg.value > 0, \"Must send ether to deposit\") */\n      tag_44\n      jumpi\n      mload(0x40)\n      0x08c379a000000000000000000000000000000000000000000000000000000000\n      dup2\n      mstore\n      0x04\n      add\n      tag_45\n      swap1\n      tag_46\n      jump\t// in\n    tag_45:\n      mload(0x40)\n      dup1\n      swap2\n      sub\n      swap1\n      revert\n    tag_44:\n        /* \"trustless cross-chain/trading pair formation/deposit1.sol\":486:487  0 */\n      0x00\n        /* \"trustless cross-chain/trading pair formation/deposit1.sol\":455:463  deposits */\n      dup1\n        /* \"trustless cross-chain/trading pair formation/deposit1.sol\":455:475  deposits[msg.sender] */\n      0x00\n        /* \"trustless cross-chain/trading pair formation/deposit1.sol\":464:474  msg.sender */\n      caller\n        /* \"trustless cross-chain/trading pair formation/deposit1.sol\":455:475  deposits[msg.sender] */\n      0xffffffffffffffffffffffffffffffffffffffff\n      and\n      0xffffffffffffffffffffffffffffffffffffffff\n      and\n      dup2\n      mstore\n      0x20\n      add\n      swap1\n      dup2\n      mstore\n      0x20\n      add\n      0x00\n      keccak256\n        /* \"trustless cross-chain/trading pair formation/deposit1.sol\":455:482  deposits[msg.sender].amount */\n      0x00\n      add\n      sload\n        /* \"trustless cross-chain/trading pair formation/deposit1.sol\":455:487  deposits[msg.sender].amount == 0 */\n      eq\n        /* \"trustless cross-chain/trading pair formation/deposit1.sol\":447:522  require(deposits[msg.sender].amount == 0, \"Existing deposit not withdrawn\") */\n      tag_47\n      jumpi\n      mload(0x40)\n      0x08c379a000000000000000000000000000000000000000000000000000000000\n      dup2\n      mstore\n      0x04\n      add\n      tag_48\n      swap1\n      tag_49\n      jump\t// in\n    tag_48:\n      mload(0x40)\n      dup1\n      swap2\n      sub\n      swap1\n      revert\n    tag_47:\n        /* \"trustless cross-chain/trading pair formation/deposit1.sol\":556:653  DepositInfo({... */\n      mload(0x40)\n      dup1\n      0x40\n      add\n      0x40\n      mstore\n      dup1\n        /* \"trustless cross-chain/trading pair formation/deposit1.sol\":590:599  msg.value */\n      callvalue\n        /* \"trustless cross-chain/trading pair formation/deposit1.sol\":556:653  DepositInfo({... */\n      dup2\n      mstore\n      0x20\n      add\n        /* \"trustless cross-chain/trading pair formation/deposit1.sol\":641:642  k */\n      dup3\n        /* \"trustless cross-chain/trading pair formation/deposit1.sol\":626:638  block.number */\n      number\n        /* \"trustless cross-chain/trading pair formation/deposit1.sol\":626:642  block.number + k */\n      tag_50\n      swap2\n      swap1\n      tag_51\n      jump\t// in\n    tag_50:\n        /* \"trustless cross-chain/trading pair formation/deposit1.sol\":556:653  DepositInfo({... */\n      dup2\n      mstore\n      pop\n        /* \"trustless cross-chain/trading pair formation/deposit1.sol\":533:541  deposits */\n      0x00\n        /* \"trustless cross-chain/trading pair formation/deposit1.sol\":533:553  deposits[msg.sender] */\n      dup1\n        /* \"trustless cross-chain/trading pair formation/deposit1.sol\":542:552  msg.sender */\n      caller\n        /* \"trustless cross-chain/trading pair formation/deposit1.sol\":533:553  deposits[msg.sender] */\n      0xffffffffffffffffffffffffffffffffffffffff\n      and\n      0xffffffffffffffffffffffffffffffffffffffff\n      and\n      dup2\n      mstore\n      0x20\n      add\n      swap1\n      dup2\n      mstore\n      0x20\n      add\n      0x00\n      keccak256\n        /* \"trustless cross-chain/trading pair formation/deposit1.sol\":533:653  deposits[msg.sender] = DepositInfo({... */\n      0x00\n      dup3\n      add\n      mload\n      dup2\n      0x00\n      add\n      sstore\n      0x20\n      dup3\n      add\n      mload\n      dup2\n      0x01\n      add\n      sstore\n      swap1\n      pop\n      pop\n        /* \"trustless cross-chain/trading pair formation/deposit1.sol\":330:660  function deposit(uint256 k) external payable {... */\n      pop\n      jump\t// out\n        /* \"trustless cross-chain/trading pair formation/deposit1.sol\":186:219  address public validationContract */\n    tag_21:\n      0x01\n      0x00\n      swap1\n      sload\n      swap1\n      0x0100\n      exp\n      swap1\n      div\n      0xffffffffffffffffffffffffffffffffffffffff\n      and\n      dup2\n      jump\t// out\n        /* \"trustless cross-chain/trading pair formation/deposit1.sol\":133:180  mapping(address => DepositInfo) public deposits */\n    tag_27:\n      mstore(0x20, 0x00)\n      dup1\n      0x00\n      mstore\n      keccak256(0x00, 0x40)\n      0x00\n      swap2\n      pop\n      swap1\n      pop\n      dup1\n      0x00\n      add\n      sload\n      swap1\n      dup1\n      0x01\n      add\n      sload\n      swap1\n      pop\n      dup3\n      jump\t// out\n        /* \"#utility.yul\":88:205   */\n    tag_53:\n        /* \"#utility.yul\":197:198   */\n      0x00\n        /* \"#utility.yul\":194:195   */\n      dup1\n        /* \"#utility.yul\":187:199   */\n      revert\n        /* \"#utility.yul\":334:460   */\n    tag_55:\n        /* \"#utility.yul\":371:378   */\n      0x00\n        /* \"#utility.yul\":411:453   */\n      0xffffffffffffffffffffffffffffffffffffffff\n        /* \"#utility.yul\":404:409   */\n      dup3\n        /* \"#utility.yul\":400:454   */\n      and\n        /* \"#utility.yul\":389:454   */\n      swap1\n      pop\n        /* \"#utility.yul\":334:460   */\n      swap2\n      swap1\n      pop\n      jump\t// out\n        /* \"#utility.yul\":466:562   */\n    tag_56:\n        /* \"#utility.yul\":503:510   */\n      0x00\n        /* \"#utility.yul\":532:556   */\n      tag_82\n        /* \"#utility.yul\":550:555   */\n      dup3\n        /* \"#utility.yul\":532:556   */\n      tag_55\n      jump\t// in\n    tag_82:\n        /* \"#utility.yul\":521:556   */\n      swap1\n      pop\n        /* \"#utility.yul\":466:562   */\n      swap2\n      swap1\n      pop\n      jump\t// out\n        /* \"#utility.yul\":568:690   */\n    tag_57:\n        /* \"#utility.yul\":641:665   */\n      tag_84\n        /* \"#utility.yul\":659:664   */\n      dup2\n        /* \"#utility.yul\":641:665   */\n      tag_56\n      jump\t// in\n    tag_84:\n        /* \"#utility.yul\":634:639   */\n      dup2\n        /* \"#utility.yul\":631:666   */\n      eq\n        /* \"#utility.yul\":621:684   */\n      tag_85\n      jumpi\n        /* \"#utility.yul\":680:681   */\n      0x00\n        /* \"#utility.yul\":677:678   */\n      dup1\n        /* \"#utility.yul\":670:682   */\n      revert\n        /* \"#utility.yul\":621:684   */\n    tag_85:\n        /* \"#utility.yul\":568:690   */\n      pop\n      jump\t// out\n        /* \"#utility.yul\":696:835   */\n    tag_58:\n        /* \"#utility.yul\":742:747   */\n      0x00\n        /* \"#utility.yul\":780:786   */\n      dup2\n        /* \"#utility.yul\":767:787   */\n      calldataload\n        /* \"#utility.yul\":758:787   */\n      swap1\n      pop\n        /* \"#utility.yul\":796:829   */\n      tag_87\n        /* \"#utility.yul\":823:828   */\n      dup2\n        /* \"#utility.yul\":796:829   */\n      tag_57\n      jump\t// in\n    tag_87:\n        /* \"#utility.yul\":696:835   */\n      swap3\n      swap2\n      pop\n      pop\n      jump\t// out\n        /* \"#utility.yul\":841:1170   */\n    tag_13:\n        /* \"#utility.yul\":900:906   */\n      0x00\n        /* \"#utility.yul\":949:951   */\n      0x20\n        /* \"#utility.yul\":937:946   */\n      dup3\n        /* \"#utility.yul\":928:935   */\n      dup5\n        /* \"#utility.yul\":924:947   */\n      sub\n        /* \"#utility.yul\":920:952   */\n      slt\n        /* \"#utility.yul\":917:1036   */\n      iszero\n      tag_89\n      jumpi\n        /* \"#utility.yul\":955:1034   */\n      tag_90\n      tag_53\n      jump\t// in\n    tag_90:\n        /* \"#utility.yul\":917:1036   */\n    tag_89:\n        /* \"#utility.yul\":1075:1076   */\n      0x00\n        /* \"#utility.yul\":1100:1153   */\n      tag_91\n        /* \"#utility.yul\":1145:1152   */\n      dup5\n        /* \"#utility.yul\":1136:1142   */\n      dup3\n        /* \"#utility.yul\":1125:1134   */\n      dup6\n        /* \"#utility.yul\":1121:1143   */\n      add\n        /* \"#utility.yul\":1100:1153   */\n      tag_58\n      jump\t// in\n    tag_91:\n        /* \"#utility.yul\":1090:1153   */\n      swap2\n      pop\n        /* \"#utility.yul\":1046:1163   */\n      pop\n        /* \"#utility.yul\":841:1170   */\n      swap3\n      swap2\n      pop\n      pop\n      jump\t// out\n        /* \"#utility.yul\":1176:1253   */\n    tag_59:\n        /* \"#utility.yul\":1213:1220   */\n      0x00\n        /* \"#utility.yul\":1242:1247   */\n      dup2\n        /* \"#utility.yul\":1231:1247   */\n      swap1\n      pop\n        /* \"#utility.yul\":1176:1253   */\n      swap2\n      swap1\n      pop\n      jump\t// out\n        /* \"#utility.yul\":1259:1381   */\n    tag_60:\n        /* \"#utility.yul\":1332:1356   */\n      tag_94\n        /* \"#utility.yul\":1350:1355   */\n      dup2\n        /* \"#utility.yul\":1332:1356   */\n      tag_59\n      jump\t// in\n    tag_94:\n        /* \"#utility.yul\":1325:1330   */\n      dup2\n        /* \"#utility.yul\":1322:1357   */\n      eq\n        /* \"#utility.yul\":1312:1375   */\n      tag_95\n      jumpi\n        /* \"#utility.yul\":1371:1372   */\n      0x00\n        /* \"#utility.yul\":1368:1369   */\n      dup1\n        /* \"#utility.yul\":1361:1373   */\n      revert\n        /* \"#utility.yul\":1312:1375   */\n    tag_95:\n        /* \"#utility.yul\":1259:1381   */\n      pop\n      jump\t// out\n        /* \"#utility.yul\":1387:1526   */\n    tag_61:\n        /* \"#utility.yul\":1433:1438   */\n      0x00\n        /* \"#utility.yul\":1471:1477   */\n      dup2\n        /* \"#utility.yul\":1458:1478   */\n      calldataload\n        /* \"#utility.yul\":1449:1478   */\n      swap1\n      pop\n        /* \"#utility.yul\":1487:1520   */\n      tag_97\n        /* \"#utility.yul\":1514:1519   */\n      dup2\n        /* \"#utility.yul\":1487:1520   */\n      tag_60\n      jump\t// in\n    tag_97:\n        /* \"#utility.yul\":1387:1526   */\n      swap3\n      swap2\n      pop\n      pop\n      jump\t// out\n        /* \"#utility.yul\":1532:1861   */\n    tag_17:\n        /* \"#utility.yul\":1591:1597   */\n      0x00\n        /* \"#utility.yul\":1640:1642   */\n      0x20\n        /* \"#utility.yul\":1628:1637   */\n      dup3\n        /* \"#utility.yul\":1619:1626   */\n      dup5\n        /* \"#utility.yul\":1615:1638   */\n      sub\n        /* \"#utility.yul\":1611:1643   */\n      slt\n        /* \"#utility.yul\":1608:1727   */\n      iszero\n      tag_99\n      jumpi\n        /* \"#utility.yul\":1646:1725   */\n      tag_100\n      tag_53\n      jump\t// in\n    tag_100:\n        /* \"#utility.yul\":1608:1727   */\n    tag_99:\n        /* \"#utility.yul\":1766:1767   */\n      0x00\n        /* \"#utility.yul\":1791:1844   */\n      tag_101\n        /* \"#utility.yul\":1836:1843   */\n      dup5\n        /* \"#utility.yul\":1827:1833   */\n      dup3\n        /* \"#utility.yul\":1816:1825   */\n      dup6\n        /* \"#utility.yul\":1812:1834   */\n      add\n        /* \"#utility.yul\":1791:1844   */\n      tag_61\n      jump\t// in\n    tag_101:\n        /* \"#utility.yul\":1781:1844   */\n      swap2\n      pop\n        /* \"#utility.yul\":1737:1854   */\n      pop\n        /* \"#utility.yul\":1532:1861   */\n      swap3\n      swap2\n      pop\n      pop\n      jump\t// out\n        /* \"#utility.yul\":1867:1985   */\n    tag_62:\n        /* \"#utility.yul\":1954:1978   */\n      tag_103\n        /* \"#utility.yul\":1972:1977   */\n      dup2\n        /* \"#utility.yul\":1954:1978   */\n      tag_56\n      jump\t// in\n    tag_103:\n        /* \"#utility.yul\":1949:1952   */\n      dup3\n        /* \"#utility.yul\":1942:1979   */\n      mstore\n        /* \"#utility.yul\":1867:1985   */\n      pop\n      pop\n      jump\t// out\n        /* \"#utility.yul\":1991:2213   */\n    tag_23:\n        /* \"#utility.yul\":2084:2088   */\n      0x00\n        /* \"#utility.yul\":2122:2124   */\n      0x20\n        /* \"#utility.yul\":2111:2120   */\n      dup3\n        /* \"#utility.yul\":2107:2125   */\n      add\n        /* \"#utility.yul\":2099:2125   */\n      swap1\n      pop\n        /* \"#utility.yul\":2135:2206   */\n      tag_105\n        /* \"#utility.yul\":2203:2204   */\n      0x00\n        /* \"#utility.yul\":2192:2201   */\n      dup4\n        /* \"#utility.yul\":2188:2205   */\n      add\n        /* \"#utility.yul\":2179:2185   */\n      dup5\n        /* \"#utility.yul\":2135:2206   */\n      tag_62\n      jump\t// in\n    tag_105:\n        /* \"#utility.yul\":1991:2213   */\n      swap3\n      swap2\n      pop\n      pop\n      jump\t// out\n        /* \"#utility.yul\":2219:2337   */\n    tag_63:\n        /* \"#utility.yul\":2306:2330   */\n      tag_107\n        /* \"#utility.yul\":2324:2329   */\n      dup2\n        /* \"#utility.yul\":2306:2330   */\n      tag_59\n      jump\t// in\n    tag_107:\n        /* \"#utility.yul\":2301:2304   */\n      dup3\n        /* \"#utility.yul\":2294:2331   */\n      mstore\n        /* \"#utility.yul\":2219:2337   */\n      pop\n      pop\n      jump\t// out\n        /* \"#utility.yul\":2343:2675   */\n    tag_29:\n        /* \"#utility.yul\":2464:2468   */\n      0x00\n        /* \"#utility.yul\":2502:2504   */\n      0x40\n        /* \"#utility.yul\":2491:2500   */\n      dup3\n        /* \"#utility.yul\":2487:2505   */\n      add\n        /* \"#utility.yul\":2479:2505   */\n      swap1\n      pop\n        /* \"#utility.yul\":2515:2586   */\n      tag_109\n        /* \"#utility.yul\":2583:2584   */\n      0x00\n        /* \"#utility.yul\":2572:2581   */\n      dup4\n        /* \"#utility.yul\":2568:2585   */\n      add\n        /* \"#utility.yul\":2559:2565   */\n      dup6\n        /* \"#utility.yul\":2515:2586   */\n      tag_63\n      jump\t// in\n    tag_109:\n        /* \"#utility.yul\":2596:2668   */\n      tag_110\n        /* \"#utility.yul\":2664:2666   */\n      0x20\n        /* \"#utility.yul\":2653:2662   */\n      dup4\n        /* \"#utility.yul\":2649:2667   */\n      add\n        /* \"#utility.yul\":2640:2646   */\n      dup5\n        /* \"#utility.yul\":2596:2668   */\n      tag_63\n      jump\t// in\n    tag_110:\n        /* \"#utility.yul\":2343:2675   */\n      swap4\n      swap3\n      pop\n      pop\n      pop\n      jump\t// out\n        /* \"#utility.yul\":2681:2850   */\n    tag_64:\n        /* \"#utility.yul\":2765:2776   */\n      0x00\n        /* \"#utility.yul\":2799:2805   */\n      dup3\n        /* \"#utility.yul\":2794:2797   */\n      dup3\n        /* \"#utility.yul\":2787:2806   */\n      mstore\n        /* \"#utility.yul\":2839:2843   */\n      0x20\n        /* \"#utility.yul\":2834:2837   */\n      dup3\n        /* \"#utility.yul\":2830:2844   */\n      add\n        /* \"#utility.yul\":2815:2844   */\n      swap1\n      pop\n        /* \"#utility.yul\":2681:2850   */\n      swap3\n      swap2\n      pop\n      pop\n      jump\t// out\n        /* \"#utility.yul\":2856:3022   */\n    tag_65:\n        /* \"#utility.yul\":2996:3014   */\n      0x4e6f206465706f73697420666f756e6400000000000000000000000000000000\n        /* \"#utility.yul\":2992:2993   */\n      0x00\n        /* \"#utility.yul\":2984:2990   */\n      dup3\n        /* \"#utility.yul\":2980:2994   */\n      add\n        /* \"#utility.yul\":2973:3015   */\n      mstore\n        /* \"#utility.yul\":2856:3022   */\n      pop\n      jump\t// out\n        /* \"#utility.yul\":3028:3394   */\n    tag_66:\n        /* \"#utility.yul\":3170:3173   */\n      0x00\n        /* \"#utility.yul\":3191:3258   */\n      tag_114\n        /* \"#utility.yul\":3255:3257   */\n      0x10\n        /* \"#utility.yul\":3250:3253   */\n      dup4\n        /* \"#utility.yul\":3191:3258   */\n      tag_64\n      jump\t// in\n    tag_114:\n        /* \"#utility.yul\":3184:3258   */\n      swap2\n      pop\n        /* \"#utility.yul\":3267:3360   */\n      tag_115\n        /* \"#utility.yul\":3356:3359   */\n      dup3\n        /* \"#utility.yul\":3267:3360   */\n      tag_65\n      jump\t// in\n    tag_115:\n        /* \"#utility.yul\":3385:3387   */\n      0x20\n        /* \"#utility.yul\":3380:3383   */\n      dup3\n        /* \"#utility.yul\":3376:3388   */\n      add\n        /* \"#utility.yul\":3369:3388   */\n      swap1\n      pop\n        /* \"#utility.yul\":3028:3394   */\n      swap2\n      swap1\n      pop\n      jump\t// out\n        /* \"#utility.yul\":3400:3819   */\n    tag_33:\n        /* \"#utility.yul\":3566:3570   */\n      0x00\n        /* \"#utility.yul\":3604:3606   */\n      0x20\n        /* \"#utility.yul\":3593:3602   */\n      dup3\n        /* \"#utility.yul\":3589:3607   */\n      add\n        /* \"#utility.yul\":3581:3607   */\n      swap1\n      pop\n        /* \"#utility.yul\":3653:3662   */\n      dup2\n        /* \"#utility.yul\":3647:3651   */\n      dup2\n        /* \"#utility.yul\":3643:3663   */\n      sub\n        /* \"#utility.yul\":3639:3640   */\n      0x00\n        /* \"#utility.yul\":3628:3637   */\n      dup4\n        /* \"#utility.yul\":3624:3641   */\n      add\n        /* \"#utility.yul\":3617:3664   */\n      mstore\n        /* \"#utility.yul\":3681:3812   */\n      tag_117\n        /* \"#utility.yul\":3807:3811   */\n      dup2\n        /* \"#utility.yul\":3681:3812   */\n      tag_66\n      jump\t// in\n    tag_117:\n        /* \"#utility.yul\":3673:3812   */\n      swap1\n      pop\n        /* \"#utility.yul\":3400:3819   */\n      swap2\n      swap1\n      pop\n      jump\t// out\n        /* \"#utility.yul\":3825:3995   */\n    tag_67:\n        /* \"#utility.yul\":3965:3987   */\n      0x5769746864726177616c206973206c6f636b6564000000000000000000000000\n        /* \"#utility.yul\":3961:3962   */\n      0x00\n        /* \"#utility.yul\":3953:3959   */\n      dup3\n        /* \"#utility.yul\":3949:3963   */\n      add\n        /* \"#utility.yul\":3942:3988   */\n      mstore\n        /* \"#utility.yul\":3825:3995   */\n      pop\n      jump\t// out\n        /* \"#utility.yul\":4001:4367   */\n    tag_68:\n        /* \"#utility.yul\":4143:4146   */\n      0x00\n        /* \"#utility.yul\":4164:4231   */\n      tag_120\n        /* \"#utility.yul\":4228:4230   */\n      0x14\n        /* \"#utility.yul\":4223:4226   */\n      dup4\n        /* \"#utility.yul\":4164:4231   */\n      tag_64\n      jump\t// in\n    tag_120:\n        /* \"#utility.yul\":4157:4231   */\n      swap2\n      pop\n        /* \"#utility.yul\":4240:4333   */\n      tag_121\n        /* \"#utility.yul\":4329:4332   */\n      dup3\n        /* \"#utility.yul\":4240:4333   */\n      tag_67\n      jump\t// in\n    tag_121:\n        /* \"#utility.yul\":4358:4360   */\n      0x20\n        /* \"#utility.yul\":4353:4356   */\n      dup3\n        /* \"#utility.yul\":4349:4361   */\n      add\n        /* \"#utility.yul\":4342:4361   */\n      swap1\n      pop\n        /* \"#utility.yul\":4001:4367   */\n      swap2\n      swap1\n      pop\n      jump\t// out\n        /* \"#utility.yul\":4373:4792   */\n    tag_36:\n        /* \"#utility.yul\":4539:4543   */\n      0x00\n        /* \"#utility.yul\":4577:4579   */\n      0x20\n        /* \"#utility.yul\":4566:4575   */\n      dup3\n        /* \"#utility.yul\":4562:4580   */\n      add\n        /* \"#utility.yul\":4554:4580   */\n      swap1\n      pop\n        /* \"#utility.yul\":4626:4635   */\n      dup2\n        /* \"#utility.yul\":4620:4624   */\n      dup2\n        /* \"#utility.yul\":4616:4636   */\n      sub\n        /* \"#utility.yul\":4612:4613   */\n      0x00\n        /* \"#utility.yul\":4601:4610   */\n      dup4\n        /* \"#utility.yul\":4597:4614   */\n      add\n        /* \"#utility.yul\":4590:4637   */\n      mstore\n        /* \"#utility.yul\":4654:4785   */\n      tag_123\n        /* \"#utility.yul\":4780:4784   */\n      dup2\n        /* \"#utility.yul\":4654:4785   */\n      tag_68\n      jump\t// in\n    tag_123:\n        /* \"#utility.yul\":4646:4785   */\n      swap1\n      pop\n        /* \"#utility.yul\":4373:4792   */\n      swap2\n      swap1\n      pop\n      jump\t// out\n        /* \"#utility.yul\":4798:5024   */\n    tag_69:\n        /* \"#utility.yul\":4938:4972   */\n      0x4f6e6c792076616c69646174696f6e20636f6e74726163742063616e20636f6e\n        /* \"#utility.yul\":4934:4935   */\n      0x00\n        /* \"#utility.yul\":4926:4932   */\n      dup3\n        /* \"#utility.yul\":4922:4936   */\n      add\n        /* \"#utility.yul\":4915:4973   */\n      mstore\n        /* \"#utility.yul\":5007:5016   */\n      0x6669736361746500000000000000000000000000000000000000000000000000\n        /* \"#utility.yul\":5002:5004   */\n      0x20\n        /* \"#utility.yul\":4994:5000   */\n      dup3\n        /* \"#utility.yul\":4990:5005   */\n      add\n        /* \"#utility.yul\":4983:5017   */\n      mstore\n        /* \"#utility.yul\":4798:5024   */\n      pop\n      jump\t// out\n        /* \"#utility.yul\":5030:5396   */\n    tag_70:\n        /* \"#utility.yul\":5172:5175   */\n      0x00\n        /* \"#utility.yul\":5193:5260   */\n      tag_126\n        /* \"#utility.yul\":5257:5259   */\n      0x27\n        /* \"#utility.yul\":5252:5255   */\n      dup4\n        /* \"#utility.yul\":5193:5260   */\n      tag_64\n      jump\t// in\n    tag_126:\n        /* \"#utility.yul\":5186:5260   */\n      swap2\n      pop\n        /* \"#utility.yul\":5269:5362   */\n      tag_127\n        /* \"#utility.yul\":5358:5361   */\n      dup3\n        /* \"#utility.yul\":5269:5362   */\n      tag_69\n      jump\t// in\n    tag_127:\n        /* \"#utility.yul\":5387:5389   */\n      0x40\n        /* \"#utility.yul\":5382:5385   */\n      dup3\n        /* \"#utility.yul\":5378:5390   */\n      add\n        /* \"#utility.yul\":5371:5390   */\n      swap1\n      pop\n        /* \"#utility.yul\":5030:5396   */\n      swap2\n      swap1\n      pop\n      jump\t// out\n        /* \"#utility.yul\":5402:5821   */\n    tag_42:\n        /* \"#utility.yul\":5568:5572   */\n      0x00\n        /* \"#utility.yul\":5606:5608   */\n      0x20\n        /* \"#utility.yul\":5595:5604   */\n      dup3\n        /* \"#utility.yul\":5591:5609   */\n      add\n        /* \"#utility.yul\":5583:5609   */\n      swap1\n      pop\n        /* \"#utility.yul\":5655:5664   */\n      dup2\n        /* \"#utility.yul\":5649:5653   */\n      dup2\n        /* \"#utility.yul\":5645:5665   */\n      sub\n        /* \"#utility.yul\":5641:5642   */\n      0x00\n        /* \"#utility.yul\":5630:5639   */\n      dup4\n        /* \"#utility.yul\":5626:5643   */\n      add\n        /* \"#utility.yul\":5619:5666   */\n      mstore\n        /* \"#utility.yul\":5683:5814   */\n      tag_129\n        /* \"#utility.yul\":5809:5813   */\n      dup2\n        /* \"#utility.yul\":5683:5814   */\n      tag_70\n      jump\t// in\n    tag_129:\n        /* \"#utility.yul\":5675:5814   */\n      swap1\n      pop\n        /* \"#utility.yul\":5402:5821   */\n      swap2\n      swap1\n      pop\n      jump\t// out\n        /* \"#utility.yul\":5827:6003   */\n    tag_71:\n        /* \"#utility.yul\":5967:5995   */\n      0x4d7573742073656e6420657468657220746f206465706f736974000000000000\n        /* \"#utility.yul\":5963:5964   */\n      0x00\n        /* \"#utility.yul\":5955:5961   */\n      dup3\n        /* \"#utility.yul\":5951:5965   */\n      add\n        /* \"#utility.yul\":5944:5996   */\n      mstore\n        /* \"#utility.yul\":5827:6003   */\n      pop\n      jump\t// out\n        /* \"#utility.yul\":6009:6375   */\n    tag_72:\n        /* \"#utility.yul\":6151:6154   */\n      0x00\n        /* \"#utility.yul\":6172:6239   */\n      tag_132\n        /* \"#utility.yul\":6236:6238   */\n      0x1a\n        /* \"#utility.yul\":6231:6234   */\n      dup4\n        /* \"#utility.yul\":6172:6239   */\n      tag_64\n      jump\t// in\n    tag_132:\n        /* \"#utility.yul\":6165:6239   */\n      swap2\n      pop\n        /* \"#utility.yul\":6248:6341   */\n      tag_133\n        /* \"#utility.yul\":6337:6340   */\n      dup3\n        /* \"#utility.yul\":6248:6341   */\n      tag_71\n      jump\t// in\n    tag_133:\n        /* \"#utility.yul\":6366:6368   */\n      0x20\n        /* \"#utility.yul\":6361:6364   */\n      dup3\n        /* \"#utility.yul\":6357:6369   */\n      add\n        /* \"#utility.yul\":6350:6369   */\n      swap1\n      pop\n        /* \"#utility.yul\":6009:6375   */\n      swap2\n      swap1\n      pop\n      jump\t// out\n        /* \"#utility.yul\":6381:6800   */\n    tag_46:\n        /* \"#utility.yul\":6547:6551   */\n      0x00\n        /* \"#utility.yul\":6585:6587   */\n      0x20\n        /* \"#utility.yul\":6574:6583   */\n      dup3\n        /* \"#utility.yul\":6570:6588   */\n      add\n        /* \"#utility.yul\":6562:6588   */\n      swap1\n      pop\n        /* \"#utility.yul\":6634:6643   */\n      dup2\n        /* \"#utility.yul\":6628:6632   */\n      dup2\n        /* \"#utility.yul\":6624:6644   */\n      sub\n        /* \"#utility.yul\":6620:6621   */\n      0x00\n        /* \"#utility.yul\":6609:6618   */\n      dup4\n        /* \"#utility.yul\":6605:6622   */\n      add\n        /* \"#utility.yul\":6598:6645   */\n      mstore\n        /* \"#utility.yul\":6662:6793   */\n      tag_135\n        /* \"#utility.yul\":6788:6792   */\n      dup2\n        /* \"#utility.yul\":6662:6793   */\n      tag_72\n      jump\t// in\n    tag_135:\n        /* \"#utility.yul\":6654:6793   */\n      swap1\n      pop\n        /* \"#utility.yul\":6381:6800   */\n      swap2\n      swap1\n      pop\n      jump\t// out\n        /* \"#utility.yul\":6806:6986   */\n    tag_73:\n        /* \"#utility.yul\":6946:6978   */\n      0x4578697374696e67206465706f736974206e6f742077697468647261776e0000\n        /* \"#utility.yul\":6942:6943   */\n      0x00\n        /* \"#utility.yul\":6934:6940   */\n      dup3\n        /* \"#utility.yul\":6930:6944   */\n      add\n        /* \"#utility.yul\":6923:6979   */\n      mstore\n        /* \"#utility.yul\":6806:6986   */\n      pop\n      jump\t// out\n        /* \"#utility.yul\":6992:7358   */\n    tag_74:\n        /* \"#utility.yul\":7134:7137   */\n      0x00\n        /* \"#utility.yul\":7155:7222   */\n      tag_138\n        /* \"#utility.yul\":7219:7221   */\n      0x1e\n        /* \"#utility.yul\":7214:7217   */\n      dup4\n        /* \"#utility.yul\":7155:7222   */\n      tag_64\n      jump\t// in\n    tag_138:\n        /* \"#utility.yul\":7148:7222   */\n      swap2\n      pop\n        /* \"#utility.yul\":7231:7324   */\n      tag_139\n        /* \"#utility.yul\":7320:7323   */\n      dup3\n        /* \"#utility.yul\":7231:7324   */\n      tag_73\n      jump\t// in\n    tag_139:\n        /* \"#utility.yul\":7349:7351   */\n      0x20\n        /* \"#utility.yul\":7344:7347   */\n      dup3\n        /* \"#utility.yul\":7340:7352   */\n      add\n        /* \"#utility.yul\":7333:7352   */\n      swap1\n      pop\n        /* \"#utility.yul\":6992:7358   */\n      swap2\n      swap1\n      pop\n      jump\t// out\n        /* \"#utility.yul\":7364:7783   */\n    tag_49:\n        /* \"#utility.yul\":7530:7534   */\n      0x00\n        /* \"#utility.yul\":7568:7570   */\n      0x20\n        /* \"#utility.yul\":7557:7566   */\n      dup3\n        /* \"#utility.yul\":7553:7571   */\n      add\n        /* \"#utility.yul\":7545:7571   */\n      swap1\n      pop\n        /* \"#utility.yul\":7617:7626   */\n      dup2\n        /* \"#utility.yul\":7611:7615   */\n      dup2\n        /* \"#utility.yul\":7607:7627   */\n      sub\n        /* \"#utility.yul\":7603:7604   */\n      0x00\n        /* \"#utility.yul\":7592:7601   */\n      dup4\n        /* \"#utility.yul\":7588:7605   */\n      add\n        /* \"#utility.yul\":7581:7628   */\n      mstore\n        /* \"#utility.yul\":7645:7776   */\n      tag_141\n        /* \"#utility.yul\":7771:7775   */\n      dup2\n        /* \"#utility.yul\":7645:7776   */\n      tag_74\n      jump\t// in\n    tag_141:\n        /* \"#utility.yul\":7637:7776   */\n      swap1\n      pop\n        /* \"#utility.yul\":7364:7783   */\n      swap2\n      swap1\n      pop\n      jump\t// out\n        /* \"#utility.yul\":7789:7969   */\n    tag_75:\n        /* \"#utility.yul\":7837:7914   */\n      0x4e487b7100000000000000000000000000000000000000000000000000000000\n        /* \"#utility.yul\":7834:7835   */\n      0x00\n        /* \"#utility.yul\":7827:7915   */\n      mstore\n        /* \"#utility.yul\":7934:7938   */\n      0x11\n        /* \"#utility.yul\":7931:7932   */\n      0x04\n        /* \"#utility.yul\":7924:7939   */\n      mstore\n        /* \"#utility.yul\":7958:7962   */\n      0x24\n        /* \"#utility.yul\":7955:7956   */\n      0x00\n        /* \"#utility.yul\":7948:7963   */\n      revert\n        /* \"#utility.yul\":7975:8166   */\n    tag_51:\n        /* \"#utility.yul\":8015:8018   */\n      0x00\n        /* \"#utility.yul\":8034:8054   */\n      tag_144\n        /* \"#utility.yul\":8052:8053   */\n      dup3\n        /* \"#utility.yul\":8034:8054   */\n      tag_59\n      jump\t// in\n    tag_144:\n        /* \"#utility.yul\":8029:8054   */\n      swap2\n      pop\n        /* \"#utility.yul\":8068:8088   */\n      tag_145\n        /* \"#utility.yul\":8086:8087   */\n      dup4\n        /* \"#utility.yul\":8068:8088   */\n      tag_59\n      jump\t// in\n    tag_145:\n        /* \"#utility.yul\":8063:8088   */\n      swap3\n      pop\n        /* \"#utility.yul\":8111:8112   */\n      dup3\n        /* \"#utility.yul\":8108:8109   */\n      dup3\n        /* \"#utility.yul\":8104:8113   */\n      add\n        /* \"#utility.yul\":8097:8113   */\n      swap1\n      pop\n        /* \"#utility.yul\":8132:8135   */\n      dup1\n        /* \"#utility.yul\":8129:8130   */\n      dup3\n        /* \"#utility.yul\":8126:8136   */\n      gt\n        /* \"#utility.yul\":8123:8159   */\n      iszero\n      tag_146\n      jumpi\n        /* \"#utility.yul\":8139:8157   */\n      tag_147\n      tag_75\n      jump\t// in\n    tag_147:\n        /* \"#utility.yul\":8123:8159   */\n    tag_146:\n        /* \"#utility.yul\":7975:8166   */\n      swap3\n      swap2\n      pop\n      pop\n      jump\t// out\n\n    auxdata: 0xa2646970667358221220a5f1b205ad3f4110495b59a20d210f62f04f6d0031e13faf6fbb878bc0f1f3df64736f6c634300081a0033\n}\n",
				"bytecode": {
					"linkReferences": {},
					"object": "608060405234801561000f575f80fd5b50604051610a51380380610a51833981810160405281019061003191906100d5565b8060015f6101000a81548173ffffffffffffffffffffffffffffffffffffffff021916908373ffffffffffffffffffffffffffffffffffffffff16021790555050610100565b5f80fd5b5f73ffffffffffffffffffffffffffffffffffffffff82169050919050565b5f6100a48261007b565b9050919050565b6100b48161009a565b81146100be575f80fd5b50565b5f815190506100cf816100ab565b92915050565b5f602082840312156100ea576100e9610077565b5b5f6100f7848285016100c1565b91505092915050565b6109448061010d5f395ff3fe608060405260043610610049575f3560e01c80633ccfd60b1461004d57806344f252a014610063578063b6b55f251461008b578063d2b409a1146100a7578063fc7e286d146100d1575b5f80fd5b348015610058575f80fd5b5061006161010e565b005b34801561006e575f80fd5b5061008960048036038101906100849190610589565b6102dc565b005b6100a560048036038101906100a091906105e7565b6103b1565b005b3480156100b2575f80fd5b506100bb6104e7565b6040516100c89190610621565b60405180910390f35b3480156100dc575f80fd5b506100f760048036038101906100f29190610589565b61050c565b604051610105929190610649565b60405180910390f35b5f805f3373ffffffffffffffffffffffffffffffffffffffff1673ffffffffffffffffffffffffffffffffffffffff1681526020019081526020015f205f01541161018e576040517f08c379a0000000000000000000000000000000000000000000000000000000008152600401610185906106ca565b60405180910390fd5b5f803373ffffffffffffffffffffffffffffffffffffffff1673ffffffffffffffffffffffffffffffffffffffff1681526020019081526020015f2060010154431015610210576040517f08c379a000000000000000000000000000000000000000000000000000000000815260040161020790610732565b60405180910390fd5b5f805f3373ffffffffffffffffffffffffffffffffffffffff1673ffffffffffffffffffffffffffffffffffffffff1681526020019081526020015f205f015490505f805f3373ffffffffffffffffffffffffffffffffffffffff1673ffffffffffffffffffffffffffffffffffffffff1681526020019081526020015f205f01819055503373ffffffffffffffffffffffffffffffffffffffff166108fc8290811502906040515f60405180830381858888f193505050501580156102d8573d5f803e3d5ffd5b5050565b60015f9054906101000a900473ffffffffffffffffffffffffffffffffffffffff1673ffffffffffffffffffffffffffffffffffffffff163373ffffffffffffffffffffffffffffffffffffffff161461036b576040517f08c379a0000000000000000000000000000000000000000000000000000000008152600401610362906107c0565b60405180910390fd5b5f805f8373ffffffffffffffffffffffffffffffffffffffff1673ffffffffffffffffffffffffffffffffffffffff1681526020019081526020015f205f018190555050565b5f34116103f3576040517f08c379a00000000000000000000000000000000000000000000000000000000081526004016103ea90610828565b60405180910390fd5b5f805f3373ffffffffffffffffffffffffffffffffffffffff1673ffffffffffffffffffffffffffffffffffffffff1681526020019081526020015f205f015414610473576040517f08c379a000000000000000000000000000000000000000000000000000000000815260040161046a90610890565b60405180910390fd5b6040518060400160405280348152602001824361049091906108db565b8152505f803373ffffffffffffffffffffffffffffffffffffffff1673ffffffffffffffffffffffffffffffffffffffff1681526020019081526020015f205f820151815f01556020820151816001015590505050565b60015f9054906101000a900473ffffffffffffffffffffffffffffffffffffffff1681565b5f602052805f5260405f205f91509050805f0154908060010154905082565b5f80fd5b5f73ffffffffffffffffffffffffffffffffffffffff82169050919050565b5f6105588261052f565b9050919050565b6105688161054e565b8114610572575f80fd5b50565b5f813590506105838161055f565b92915050565b5f6020828403121561059e5761059d61052b565b5b5f6105ab84828501610575565b91505092915050565b5f819050919050565b6105c6816105b4565b81146105d0575f80fd5b50565b5f813590506105e1816105bd565b92915050565b5f602082840312156105fc576105fb61052b565b5b5f610609848285016105d3565b91505092915050565b61061b8161054e565b82525050565b5f6020820190506106345f830184610612565b92915050565b610643816105b4565b82525050565b5f60408201905061065c5f83018561063a565b610669602083018461063a565b9392505050565b5f82825260208201905092915050565b7f4e6f206465706f73697420666f756e64000000000000000000000000000000005f82015250565b5f6106b4601083610670565b91506106bf82610680565b602082019050919050565b5f6020820190508181035f8301526106e1816106a8565b9050919050565b7f5769746864726177616c206973206c6f636b65640000000000000000000000005f82015250565b5f61071c601483610670565b9150610727826106e8565b602082019050919050565b5f6020820190508181035f83015261074981610710565b9050919050565b7f4f6e6c792076616c69646174696f6e20636f6e74726163742063616e20636f6e5f8201527f6669736361746500000000000000000000000000000000000000000000000000602082015250565b5f6107aa602783610670565b91506107b582610750565b604082019050919050565b5f6020820190508181035f8301526107d78161079e565b9050919050565b7f4d7573742073656e6420657468657220746f206465706f7369740000000000005f82015250565b5f610812601a83610670565b915061081d826107de565b602082019050919050565b5f6020820190508181035f83015261083f81610806565b9050919050565b7f4578697374696e67206465706f736974206e6f742077697468647261776e00005f82015250565b5f61087a601e83610670565b915061088582610846565b602082019050919050565b5f6020820190508181035f8301526108a78161086e565b9050919050565b7f4e487b71000000000000000000000000000000000000000000000000000000005f52601160045260245ffd5b5f6108e5826105b4565b91506108f0836105b4565b9250828201905080821115610908576109076108ae565b5b9291505056fea2646970667358221220a5f1b205ad3f4110495b59a20d210f62f04f6d0031e13faf6fbb878bc0f1f3df64736f6c634300081a0033",
					"opcodes": "PUSH1 0x80 PUSH1 0x40 MSTORE CALLVALUE DUP1 ISZERO PUSH2 0xF JUMPI PUSH0 DUP1 REVERT JUMPDEST POP PUSH1 0x40 MLOAD PUSH2 0xA51 CODESIZE SUB DUP1 PUSH2 0xA51 DUP4 CODECOPY DUP2 DUP2 ADD PUSH1 0x40 MSTORE DUP2 ADD SWAP1 PUSH2 0x31 SWAP2 SWAP1 PUSH2 0xD5 JUMP JUMPDEST DUP1 PUSH1 0x1 PUSH0 PUSH2 0x100 EXP DUP2 SLOAD DUP2 PUSH20 0xFFFFFFFFFFFFFFFFFFFFFFFFFFFFFFFFFFFFFFFF MUL NOT AND SWAP1 DUP4 PUSH20 0xFFFFFFFFFFFFFFFFFFFFFFFFFFFFFFFFFFFFFFFF AND MUL OR SWAP1 SSTORE POP POP PUSH2 0x100 JUMP JUMPDEST PUSH0 DUP1 REVERT JUMPDEST PUSH0 PUSH20 0xFFFFFFFFFFFFFFFFFFFFFFFFFFFFFFFFFFFFFFFF DUP3 AND SWAP1 POP SWAP2 SWAP1 POP JUMP JUMPDEST PUSH0 PUSH2 0xA4 DUP3 PUSH2 0x7B JUMP JUMPDEST SWAP1 POP SWAP2 SWAP1 POP JUMP JUMPDEST PUSH2 0xB4 DUP2 PUSH2 0x9A JUMP JUMPDEST DUP2 EQ PUSH2 0xBE JUMPI PUSH0 DUP1 REVERT JUMPDEST POP JUMP JUMPDEST PUSH0 DUP2 MLOAD SWAP1 POP PUSH2 0xCF DUP2 PUSH2 0xAB JUMP JUMPDEST SWAP3 SWAP2 POP POP JUMP JUMPDEST PUSH0 PUSH1 0x20 DUP3 DUP5 SUB SLT ISZERO PUSH2 0xEA JUMPI PUSH2 0xE9 PUSH2 0x77 JUMP JUMPDEST JUMPDEST PUSH0 PUSH2 0xF7 DUP5 DUP3 DUP6 ADD PUSH2 0xC1 JUMP JUMPDEST SWAP2 POP POP SWAP3 SWAP2 POP POP JUMP JUMPDEST PUSH2 0x944 DUP1 PUSH2 0x10D PUSH0 CODECOPY PUSH0 RETURN INVALID PUSH1 0x80 PUSH1 0x40 MSTORE PUSH1 0x4 CALLDATASIZE LT PUSH2 0x49 JUMPI PUSH0 CALLDATALOAD PUSH1 0xE0 SHR DUP1 PUSH4 0x3CCFD60B EQ PUSH2 0x4D JUMPI DUP1 PUSH4 0x44F252A0 EQ PUSH2 0x63 JUMPI DUP1 PUSH4 0xB6B55F25 EQ PUSH2 0x8B JUMPI DUP1 PUSH4 0xD2B409A1 EQ PUSH2 0xA7 JUMPI DUP1 PUSH4 0xFC7E286D EQ PUSH2 0xD1 JUMPI JUMPDEST PUSH0 DUP1 REVERT JUMPDEST CALLVALUE DUP1 ISZERO PUSH2 0x58 JUMPI PUSH0 DUP1 REVERT JUMPDEST POP PUSH2 0x61 PUSH2 0x10E JUMP JUMPDEST STOP JUMPDEST CALLVALUE DUP1 ISZERO PUSH2 0x6E JUMPI PUSH0 DUP1 REVERT JUMPDEST POP PUSH2 0x89 PUSH1 0x4 DUP1 CALLDATASIZE SUB DUP2 ADD SWAP1 PUSH2 0x84 SWAP2 SWAP1 PUSH2 0x589 JUMP JUMPDEST PUSH2 0x2DC JUMP JUMPDEST STOP JUMPDEST PUSH2 0xA5 PUSH1 0x4 DUP1 CALLDATASIZE SUB DUP2 ADD SWAP1 PUSH2 0xA0 SWAP2 SWAP1 PUSH2 0x5E7 JUMP JUMPDEST PUSH2 0x3B1 JUMP JUMPDEST STOP JUMPDEST CALLVALUE DUP1 ISZERO PUSH2 0xB2 JUMPI PUSH0 DUP1 REVERT JUMPDEST POP PUSH2 0xBB PUSH2 0x4E7 JUMP JUMPDEST PUSH1 0x40 MLOAD PUSH2 0xC8 SWAP2 SWAP1 PUSH2 0x621 JUMP JUMPDEST PUSH1 0x40 MLOAD DUP1 SWAP2 SUB SWAP1 RETURN JUMPDEST CALLVALUE DUP1 ISZERO PUSH2 0xDC JUMPI PUSH0 DUP1 REVERT JUMPDEST POP PUSH2 0xF7 PUSH1 0x4 DUP1 CALLDATASIZE SUB DUP2 ADD SWAP1 PUSH2 0xF2 SWAP2 SWAP1 PUSH2 0x589 JUMP JUMPDEST PUSH2 0x50C JUMP JUMPDEST PUSH1 0x40 MLOAD PUSH2 0x105 SWAP3 SWAP2 SWAP1 PUSH2 0x649 JUMP JUMPDEST PUSH1 0x40 MLOAD DUP1 SWAP2 SUB SWAP1 RETURN JUMPDEST PUSH0 DUP1 PUSH0 CALLER PUSH20 0xFFFFFFFFFFFFFFFFFFFFFFFFFFFFFFFFFFFFFFFF AND PUSH20 0xFFFFFFFFFFFFFFFFFFFFFFFFFFFFFFFFFFFFFFFF AND DUP2 MSTORE PUSH1 0x20 ADD SWAP1 DUP2 MSTORE PUSH1 0x20 ADD PUSH0 KECCAK256 PUSH0 ADD SLOAD GT PUSH2 0x18E JUMPI PUSH1 0x40 MLOAD PUSH32 0x8C379A000000000000000000000000000000000000000000000000000000000 DUP2 MSTORE PUSH1 0x4 ADD PUSH2 0x185 SWAP1 PUSH2 0x6CA JUMP JUMPDEST PUSH1 0x40 MLOAD DUP1 SWAP2 SUB SWAP1 REVERT JUMPDEST PUSH0 DUP1 CALLER PUSH20 0xFFFFFFFFFFFFFFFFFFFFFFFFFFFFFFFFFFFFFFFF AND PUSH20 0xFFFFFFFFFFFFFFFFFFFFFFFFFFFFFFFFFFFFFFFF AND DUP2 MSTORE PUSH1 0x20 ADD SWAP1 DUP2 MSTORE PUSH1 0x20 ADD PUSH0 KECCAK256 PUSH1 0x1 ADD SLOAD NUMBER LT ISZERO PUSH2 0x210 JUMPI PUSH1 0x40 MLOAD PUSH32 0x8C379A000000000000000000000000000000000000000000000000000000000 DUP2 MSTORE PUSH1 0x4 ADD PUSH2 0x207 SWAP1 PUSH2 0x732 JUMP JUMPDEST PUSH1 0x40 MLOAD DUP1 SWAP2 SUB SWAP1 REVERT JUMPDEST PUSH0 DUP1 PUSH0 CALLER PUSH20 0xFFFFFFFFFFFFFFFFFFFFFFFFFFFFFFFFFFFFFFFF AND PUSH20 0xFFFFFFFFFFFFFFFFFFFFFFFFFFFFFFFFFFFFFFFF AND DUP2 MSTORE PUSH1 0x20 ADD SWAP1 DUP2 MSTORE PUSH1 0x20 ADD PUSH0 KECCAK256 PUSH0 ADD SLOAD SWAP1 POP PUSH0 DUP1 PUSH0 CALLER PUSH20 0xFFFFFFFFFFFFFFFFFFFFFFFFFFFFFFFFFFFFFFFF AND PUSH20 0xFFFFFFFFFFFFFFFFFFFFFFFFFFFFFFFFFFFFFFFF AND DUP2 MSTORE PUSH1 0x20 ADD SWAP1 DUP2 MSTORE PUSH1 0x20 ADD PUSH0 KECCAK256 PUSH0 ADD DUP2 SWAP1 SSTORE POP CALLER PUSH20 0xFFFFFFFFFFFFFFFFFFFFFFFFFFFFFFFFFFFFFFFF AND PUSH2 0x8FC DUP3 SWAP1 DUP2 ISZERO MUL SWAP1 PUSH1 0x40 MLOAD PUSH0 PUSH1 0x40 MLOAD DUP1 DUP4 SUB DUP2 DUP6 DUP9 DUP9 CALL SWAP4 POP POP POP POP ISZERO DUP1 ISZERO PUSH2 0x2D8 JUMPI RETURNDATASIZE PUSH0 DUP1 RETURNDATACOPY RETURNDATASIZE PUSH0 REVERT JUMPDEST POP POP JUMP JUMPDEST PUSH1 0x1 PUSH0 SWAP1 SLOAD SWAP1 PUSH2 0x100 EXP SWAP1 DIV PUSH20 0xFFFFFFFFFFFFFFFFFFFFFFFFFFFFFFFFFFFFFFFF AND PUSH20 0xFFFFFFFFFFFFFFFFFFFFFFFFFFFFFFFFFFFFFFFF AND CALLER PUSH20 0xFFFFFFFFFFFFFFFFFFFFFFFFFFFFFFFFFFFFFFFF AND EQ PUSH2 0x36B JUMPI PUSH1 0x40 MLOAD PUSH32 0x8C379A000000000000000000000000000000000000000000000000000000000 DUP2 MSTORE PUSH1 0x4 ADD PUSH2 0x362 SWAP1 PUSH2 0x7C0 JUMP JUMPDEST PUSH1 0x40 MLOAD DUP1 SWAP2 SUB SWAP1 REVERT JUMPDEST PUSH0 DUP1 PUSH0 DUP4 PUSH20 0xFFFFFFFFFFFFFFFFFFFFFFFFFFFFFFFFFFFFFFFF AND PUSH20 0xFFFFFFFFFFFFFFFFFFFFFFFFFFFFFFFFFFFFFFFF AND DUP2 MSTORE PUSH1 0x20 ADD SWAP1 DUP2 MSTORE PUSH1 0x20 ADD PUSH0 KECCAK256 PUSH0 ADD DUP2 SWAP1 SSTORE POP POP JUMP JUMPDEST PUSH0 CALLVALUE GT PUSH2 0x3F3 JUMPI PUSH1 0x40 MLOAD PUSH32 0x8C379A000000000000000000000000000000000000000000000000000000000 DUP2 MSTORE PUSH1 0x4 ADD PUSH2 0x3EA SWAP1 PUSH2 0x828 JUMP JUMPDEST PUSH1 0x40 MLOAD DUP1 SWAP2 SUB SWAP1 REVERT JUMPDEST PUSH0 DUP1 PUSH0 CALLER PUSH20 0xFFFFFFFFFFFFFFFFFFFFFFFFFFFFFFFFFFFFFFFF AND PUSH20 0xFFFFFFFFFFFFFFFFFFFFFFFFFFFFFFFFFFFFFFFF AND DUP2 MSTORE PUSH1 0x20 ADD SWAP1 DUP2 MSTORE PUSH1 0x20 ADD PUSH0 KECCAK256 PUSH0 ADD SLOAD EQ PUSH2 0x473 JUMPI PUSH1 0x40 MLOAD PUSH32 0x8C379A000000000000000000000000000000000000000000000000000000000 DUP2 MSTORE PUSH1 0x4 ADD PUSH2 0x46A SWAP1 PUSH2 0x890 JUMP JUMPDEST PUSH1 0x40 MLOAD DUP1 SWAP2 SUB SWAP1 REVERT JUMPDEST PUSH1 0x40 MLOAD DUP1 PUSH1 0x40 ADD PUSH1 0x40 MSTORE DUP1 CALLVALUE DUP2 MSTORE PUSH1 0x20 ADD DUP3 NUMBER PUSH2 0x490 SWAP2 SWAP1 PUSH2 0x8DB JUMP JUMPDEST DUP2 MSTORE POP PUSH0 DUP1 CALLER PUSH20 0xFFFFFFFFFFFFFFFFFFFFFFFFFFFFFFFFFFFFFFFF AND PUSH20 0xFFFFFFFFFFFFFFFFFFFFFFFFFFFFFFFFFFFFFFFF AND DUP2 MSTORE PUSH1 0x20 ADD SWAP1 DUP2 MSTORE PUSH1 0x20 ADD PUSH0 KECCAK256 PUSH0 DUP3 ADD MLOAD DUP2 PUSH0 ADD SSTORE PUSH1 0x20 DUP3 ADD MLOAD DUP2 PUSH1 0x1 ADD SSTORE SWAP1 POP POP POP JUMP JUMPDEST PUSH1 0x1 PUSH0 SWAP1 SLOAD SWAP1 PUSH2 0x100 EXP SWAP1 DIV PUSH20 0xFFFFFFFFFFFFFFFFFFFFFFFFFFFFFFFFFFFFFFFF AND DUP2 JUMP JUMPDEST PUSH0 PUSH1 0x20 MSTORE DUP1 PUSH0 MSTORE PUSH1 0x40 PUSH0 KECCAK256 PUSH0 SWAP2 POP SWAP1 POP DUP1 PUSH0 ADD SLOAD SWAP1 DUP1 PUSH1 0x1 ADD SLOAD SWAP1 POP DUP3 JUMP JUMPDEST PUSH0 DUP1 REVERT JUMPDEST PUSH0 PUSH20 0xFFFFFFFFFFFFFFFFFFFFFFFFFFFFFFFFFFFFFFFF DUP3 AND SWAP1 POP SWAP2 SWAP1 POP JUMP JUMPDEST PUSH0 PUSH2 0x558 DUP3 PUSH2 0x52F JUMP JUMPDEST SWAP1 POP SWAP2 SWAP1 POP JUMP JUMPDEST PUSH2 0x568 DUP2 PUSH2 0x54E JUMP JUMPDEST DUP2 EQ PUSH2 0x572 JUMPI PUSH0 DUP1 REVERT JUMPDEST POP JUMP JUMPDEST PUSH0 DUP2 CALLDATALOAD SWAP1 POP PUSH2 0x583 DUP2 PUSH2 0x55F JUMP JUMPDEST SWAP3 SWAP2 POP POP JUMP JUMPDEST PUSH0 PUSH1 0x20 DUP3 DUP5 SUB SLT ISZERO PUSH2 0x59E JUMPI PUSH2 0x59D PUSH2 0x52B JUMP JUMPDEST JUMPDEST PUSH0 PUSH2 0x5AB DUP5 DUP3 DUP6 ADD PUSH2 0x575 JUMP JUMPDEST SWAP2 POP POP SWAP3 SWAP2 POP POP JUMP JUMPDEST PUSH0 DUP2 SWAP1 POP SWAP2 SWAP1 POP JUMP JUMPDEST PUSH2 0x5C6 DUP2 PUSH2 0x5B4 JUMP JUMPDEST DUP2 EQ PUSH2 0x5D0 JUMPI PUSH0 DUP1 REVERT JUMPDEST POP JUMP JUMPDEST PUSH0 DUP2 CALLDATALOAD SWAP1 POP PUSH2 0x5E1 DUP2 PUSH2 0x5BD JUMP JUMPDEST SWAP3 SWAP2 POP POP JUMP JUMPDEST PUSH0 PUSH1 0x20 DUP3 DUP5 SUB SLT ISZERO PUSH2 0x5FC JUMPI PUSH2 0x5FB PUSH2 0x52B JUMP JUMPDEST JUMPDEST PUSH0 PUSH2 0x609 DUP5 DUP3 DUP6 ADD PUSH2 0x5D3 JUMP JUMPDEST SWAP2 POP POP SWAP3 SWAP2 POP POP JUMP JUMPDEST PUSH2 0x61B DUP2 PUSH2 0x54E JUMP JUMPDEST DUP3 MSTORE POP POP JUMP JUMPDEST PUSH0 PUSH1 0x20 DUP3 ADD SWAP1 POP PUSH2 0x634 PUSH0 DUP4 ADD DUP5 PUSH2 0x612 JUMP JUMPDEST SWAP3 SWAP2 POP POP JUMP JUMPDEST PUSH2 0x643 DUP2 PUSH2 0x5B4 JUMP JUMPDEST DUP3 MSTORE POP POP JUMP JUMPDEST PUSH0 PUSH1 0x40 DUP3 ADD SWAP1 POP PUSH2 0x65C PUSH0 DUP4 ADD DUP6 PUSH2 0x63A JUMP JUMPDEST PUSH2 0x669 PUSH1 0x20 DUP4 ADD DUP5 PUSH2 0x63A JUMP JUMPDEST SWAP4 SWAP3 POP POP POP JUMP JUMPDEST PUSH0 DUP3 DUP3 MSTORE PUSH1 0x20 DUP3 ADD SWAP1 POP SWAP3 SWAP2 POP POP JUMP JUMPDEST PUSH32 0x4E6F206465706F73697420666F756E6400000000000000000000000000000000 PUSH0 DUP3 ADD MSTORE POP JUMP JUMPDEST PUSH0 PUSH2 0x6B4 PUSH1 0x10 DUP4 PUSH2 0x670 JUMP JUMPDEST SWAP2 POP PUSH2 0x6BF DUP3 PUSH2 0x680 JUMP JUMPDEST PUSH1 0x20 DUP3 ADD SWAP1 POP SWAP2 SWAP1 POP JUMP JUMPDEST PUSH0 PUSH1 0x20 DUP3 ADD SWAP1 POP DUP2 DUP2 SUB PUSH0 DUP4 ADD MSTORE PUSH2 0x6E1 DUP2 PUSH2 0x6A8 JUMP JUMPDEST SWAP1 POP SWAP2 SWAP1 POP JUMP JUMPDEST PUSH32 0x5769746864726177616C206973206C6F636B6564000000000000000000000000 PUSH0 DUP3 ADD MSTORE POP JUMP JUMPDEST PUSH0 PUSH2 0x71C PUSH1 0x14 DUP4 PUSH2 0x670 JUMP JUMPDEST SWAP2 POP PUSH2 0x727 DUP3 PUSH2 0x6E8 JUMP JUMPDEST PUSH1 0x20 DUP3 ADD SWAP1 POP SWAP2 SWAP1 POP JUMP JUMPDEST PUSH0 PUSH1 0x20 DUP3 ADD SWAP1 POP DUP2 DUP2 SUB PUSH0 DUP4 ADD MSTORE PUSH2 0x749 DUP2 PUSH2 0x710 JUMP JUMPDEST SWAP1 POP SWAP2 SWAP1 POP JUMP JUMPDEST PUSH32 0x4F6E6C792076616C69646174696F6E20636F6E74726163742063616E20636F6E PUSH0 DUP3 ADD MSTORE PUSH32 0x6669736361746500000000000000000000000000000000000000000000000000 PUSH1 0x20 DUP3 ADD MSTORE POP JUMP JUMPDEST PUSH0 PUSH2 0x7AA PUSH1 0x27 DUP4 PUSH2 0x670 JUMP JUMPDEST SWAP2 POP PUSH2 0x7B5 DUP3 PUSH2 0x750 JUMP JUMPDEST PUSH1 0x40 DUP3 ADD SWAP1 POP SWAP2 SWAP1 POP JUMP JUMPDEST PUSH0 PUSH1 0x20 DUP3 ADD SWAP1 POP DUP2 DUP2 SUB PUSH0 DUP4 ADD MSTORE PUSH2 0x7D7 DUP2 PUSH2 0x79E JUMP JUMPDEST SWAP1 POP SWAP2 SWAP1 POP JUMP JUMPDEST PUSH32 0x4D7573742073656E6420657468657220746F206465706F736974000000000000 PUSH0 DUP3 ADD MSTORE POP JUMP JUMPDEST PUSH0 PUSH2 0x812 PUSH1 0x1A DUP4 PUSH2 0x670 JUMP JUMPDEST SWAP2 POP PUSH2 0x81D DUP3 PUSH2 0x7DE JUMP JUMPDEST PUSH1 0x20 DUP3 ADD SWAP1 POP SWAP2 SWAP1 POP JUMP JUMPDEST PUSH0 PUSH1 0x20 DUP3 ADD SWAP1 POP DUP2 DUP2 SUB PUSH0 DUP4 ADD MSTORE PUSH2 0x83F DUP2 PUSH2 0x806 JUMP JUMPDEST SWAP1 POP SWAP2 SWAP1 POP JUMP JUMPDEST PUSH32 0x4578697374696E67206465706F736974206E6F742077697468647261776E0000 PUSH0 DUP3 ADD MSTORE POP JUMP JUMPDEST PUSH0 PUSH2 0x87A PUSH1 0x1E DUP4 PUSH2 0x670 JUMP JUMPDEST SWAP2 POP PUSH2 0x885 DUP3 PUSH2 0x846 JUMP JUMPDEST PUSH1 0x20 DUP3 ADD SWAP1 POP SWAP2 SWAP1 POP JUMP JUMPDEST PUSH0 PUSH1 0x20 DUP3 ADD SWAP1 POP DUP2 DUP2 SUB PUSH0 DUP4 ADD MSTORE PUSH2 0x8A7 DUP2 PUSH2 0x86E JUMP JUMPDEST SWAP1 POP SWAP2 SWAP1 POP JUMP JUMPDEST PUSH32 0x4E487B7100000000000000000000000000000000000000000000000000000000 PUSH0 MSTORE PUSH1 0x11 PUSH1 0x4 MSTORE PUSH1 0x24 PUSH0 REVERT JUMPDEST PUSH0 PUSH2 0x8E5 DUP3 PUSH2 0x5B4 JUMP JUMPDEST SWAP2 POP PUSH2 0x8F0 DUP4 PUSH2 0x5B4 JUMP JUMPDEST SWAP3 POP DUP3 DUP3 ADD SWAP1 POP DUP1 DUP3 GT ISZERO PUSH2 0x908 JUMPI PUSH2 0x907 PUSH2 0x8AE JUMP JUMPDEST JUMPDEST SWAP3 SWAP2 POP POP JUMP INVALID LOG2 PUSH5 0x6970667358 0x22 SLT KECCAK256 0xA5 CALL 0xB2 SDIV 0xAD EXTCODEHASH COINBASE LT BLOBHASH JUMPDEST MSIZE LOG2 0xD 0x21 0xF PUSH3 0xF04F6D STOP BALANCE 0xE1 EXTCODEHASH 0xAF PUSH16 0xBB878BC0F1F3DF64736F6C634300081A STOP CALLER "
				},
				"gasEstimates": {
					"creation": {
						"codeDepositCost": "474400",
						"executionCost": "infinite",
						"totalCost": "infinite"
					},
					"external": {
						"confiscate(address)": "7724",
						"deposit(uint256)": "infinite",
						"deposits(address)": "infinite",
						"validationContract()": "2552",
						"withdraw()": "infinite"
					}
				},
				"methodIdentifiers": {
					"confiscate(address)": "44f252a0",
					"deposit(uint256)": "b6b55f25",
					"deposits(address)": "fc7e286d",
					"validationContract()": "d2b409a1",
					"withdraw()": "3ccfd60b"
				}
			},
			"storageLayout": {
				"storage": [
					{
						"astId": 11,
						"contract": "trustless cross-chain/trading pair formation/deposit1.sol:Deposit",
						"label": "deposits",
						"offset": 0,
						"slot": "0",
						"type": "t_mapping(t_address,t_struct(DepositInfo)6_storage)"
					},
					{
						"astId": 13,
						"contract": "trustless cross-chain/trading pair formation/deposit1.sol:Deposit",
						"label": "validationContract",
						"offset": 0,
						"slot": "1",
						"type": "t_address"
					}
				],
				"types": {
					"t_address": {
						"encoding": "inplace",
						"label": "address",
						"numberOfBytes": "20"
					},
					"t_mapping(t_address,t_struct(DepositInfo)6_storage)": {
						"encoding": "mapping",
						"key": "t_address",
						"label": "mapping(address => struct Deposit.DepositInfo)",
						"numberOfBytes": "32",
						"value": "t_struct(DepositInfo)6_storage"
					},
					"t_struct(DepositInfo)6_storage": {
						"encoding": "inplace",
						"label": "struct Deposit.DepositInfo",
						"members": [
							{
								"astId": 3,
								"contract": "trustless cross-chain/trading pair formation/deposit1.sol:Deposit",
								"label": "amount",
								"offset": 0,
								"slot": "0",
								"type": "t_uint256"
							},
							{
								"astId": 5,
								"contract": "trustless cross-chain/trading pair formation/deposit1.sol:Deposit",
								"label": "unlockBlock",
								"offset": 0,
								"slot": "1",
								"type": "t_uint256"
							}
						],
						"numberOfBytes": "64"
					},
					"t_uint256": {
						"encoding": "inplace",
						"label": "uint256",
						"numberOfBytes": "32"
					}
				}
			},
			"userdoc": {
				"kind": "user",
				"methods": {},
				"version": 1
			}
		}
	}
}