{
	"trustless cross-chain/trading pair formation/Updated_NFTL.sol": {
		"NFTLock": {
			"abi": [
				{
					"inputs": [
						{
							"internalType": "address",
							"name": "_nftManagement",
							"type": "address"
						}
					],
					"stateMutability": "nonpayable",
					"type": "constructor"
				},
				{
					"anonymous": false,
					"inputs": [
						{
							"indexed": true,
							"internalType": "address",
							"name": "previousOwner",
							"type": "address"
						},
						{
							"indexed": true,
							"internalType": "address",
							"name": "newOwner",
							"type": "address"
						}
					],
					"name": "OwnershipTransferred",
					"type": "event"
				},
				{
					"inputs": [
						{
							"internalType": "address",
							"name": "nftAddress",
							"type": "address"
						},
						{
							"internalType": "uint256",
							"name": "tokenId",
							"type": "uint256"
						},
						{
							"internalType": "uint256",
							"name": "lockDuration",
							"type": "uint256"
						}
					],
					"name": "lockNFT",
					"outputs": [],
					"stateMutability": "nonpayable",
					"type": "function"
				},
				{
					"inputs": [
						{
							"internalType": "address",
							"name": "",
							"type": "address"
						},
						{
							"internalType": "uint256",
							"name": "",
							"type": "uint256"
						}
					],
					"name": "lockedNFTs",
					"outputs": [
						{
							"internalType": "uint256",
							"name": "tokenId",
							"type": "uint256"
						},
						{
							"internalType": "uint256",
							"name": "unlockTime",
							"type": "uint256"
						},
						{
							"internalType": "bool",
							"name": "isLocked",
							"type": "bool"
						}
					],
					"stateMutability": "view",
					"type": "function"
				},
				{
					"inputs": [],
					"name": "nftManagement",
					"outputs": [
						{
							"internalType": "address",
							"name": "",
							"type": "address"
						}
					],
					"stateMutability": "view",
					"type": "function"
				},
				{
					"inputs": [],
					"name": "owner",
					"outputs": [
						{
							"internalType": "address",
							"name": "",
							"type": "address"
						}
					],
					"stateMutability": "view",
					"type": "function"
				},
				{
					"inputs": [],
					"name": "renounceOwnership",
					"outputs": [],
					"stateMutability": "nonpayable",
					"type": "function"
				},
				{
					"inputs": [
						{
							"internalType": "address",
							"name": "_nftManagement",
							"type": "address"
						}
					],
					"name": "setNftManagement",
					"outputs": [],
					"stateMutability": "nonpayable",
					"type": "function"
				},
				{
					"inputs": [
						{
							"internalType": "address",
							"name": "newOwner",
							"type": "address"
						}
					],
					"name": "transferOwnership",
					"outputs": [],
					"stateMutability": "nonpayable",
					"type": "function"
				},
				{
					"inputs": [
						{
							"internalType": "address",
							"name": "nftAddress",
							"type": "address"
						},
						{
							"internalType": "uint256",
							"name": "tokenId",
							"type": "uint256"
						}
					],
					"name": "unlockNFT",
					"outputs": [],
					"stateMutability": "nonpayable",
					"type": "function"
				}
			],
			"devdoc": {
				"kind": "dev",
				"methods": {
					"owner()": {
						"details": "Returns the address of the current owner."
					},
					"renounceOwnership()": {
						"details": "Leaves the contract without owner. It will not be possible to call `onlyOwner` functions anymore. Can only be called by the current owner. NOTE: Renouncing ownership will leave the contract without an owner, thereby removing any functionality that is only available to the owner."
					},
					"transferOwnership(address)": {
						"details": "Transfers ownership of the contract to a new account (`newOwner`). Can only be called by the current owner."
					}
				},
				"version": 1
			},
			"evm": {
				"assembly": "    /* \"trustless cross-chain/trading pair formation/Updated_NFTL.sol\":138:1526  contract NFTLock is Ownable {... */\n  mstore(0x40, 0x80)\n    /* \"trustless cross-chain/trading pair formation/Updated_NFTL.sol\":384:467  constructor(address _nftManagement) {... */\n  callvalue\n  dup1\n  iszero\n  tag_1\n  jumpi\n  0x00\n  dup1\n  revert\ntag_1:\n  pop\n  mload(0x40)\n  sub(codesize, bytecodeSize)\n  dup1\n  bytecodeSize\n  dup4\n  codecopy\n  dup2\n  dup2\n  add\n  0x40\n  mstore\n  dup2\n  add\n  swap1\n  tag_2\n  swap2\n  swap1\n  tag_3\n  jump\t// in\ntag_2:\n    /* \"@openzeppelin/contracts/access/Ownable.sol\":936:968  _transferOwnership(_msgSender()) */\n  tag_7\n    /* \"@openzeppelin/contracts/access/Ownable.sol\":955:967  _msgSender() */\n  tag_8\n    /* \"@openzeppelin/contracts/access/Ownable.sol\":955:965  _msgSender */\n  shl(0x20, tag_9)\n    /* \"@openzeppelin/contracts/access/Ownable.sol\":955:967  _msgSender() */\n  0x20\n  shr\n  jump\t// in\ntag_8:\n    /* \"@openzeppelin/contracts/access/Ownable.sol\":936:954  _transferOwnership */\n  shl(0x20, tag_10)\n    /* \"@openzeppelin/contracts/access/Ownable.sol\":936:968  _transferOwnership(_msgSender()) */\n  0x20\n  shr\n  jump\t// in\ntag_7:\n    /* \"trustless cross-chain/trading pair formation/Updated_NFTL.sol\":446:460  _nftManagement */\n  dup1\n    /* \"trustless cross-chain/trading pair formation/Updated_NFTL.sol\":430:443  nftManagement */\n  0x02\n  0x00\n    /* \"trustless cross-chain/trading pair formation/Updated_NFTL.sol\":430:460  nftManagement = _nftManagement */\n  0x0100\n  exp\n  dup2\n  sload\n  dup2\n  0xffffffffffffffffffffffffffffffffffffffff\n  mul\n  not\n  and\n  swap1\n  dup4\n  0xffffffffffffffffffffffffffffffffffffffff\n  and\n  mul\n  or\n  swap1\n  sstore\n  pop\n    /* \"trustless cross-chain/trading pair formation/Updated_NFTL.sol\":384:467  constructor(address _nftManagement) {... */\n  pop\n    /* \"trustless cross-chain/trading pair formation/Updated_NFTL.sol\":138:1526  contract NFTLock is Ownable {... */\n  jump(tag_12)\n    /* \"@openzeppelin/contracts/utils/Context.sol\":640:736  function _msgSender() internal view virtual returns (address) {... */\ntag_9:\n    /* \"@openzeppelin/contracts/utils/Context.sol\":693:700  address */\n  0x00\n    /* \"@openzeppelin/contracts/utils/Context.sol\":719:729  msg.sender */\n  caller\n    /* \"@openzeppelin/contracts/utils/Context.sol\":712:729  return msg.sender */\n  swap1\n  pop\n    /* \"@openzeppelin/contracts/utils/Context.sol\":640:736  function _msgSender() internal view virtual returns (address) {... */\n  swap1\n  jump\t// out\n    /* \"@openzeppelin/contracts/access/Ownable.sol\":2433:2620  function _transferOwnership(address newOwner) internal virtual {... */\ntag_10:\n    /* \"@openzeppelin/contracts/access/Ownable.sol\":2506:2522  address oldOwner */\n  0x00\n    /* \"@openzeppelin/contracts/access/Ownable.sol\":2525:2531  _owner */\n  dup1\n  0x00\n  swap1\n  sload\n  swap1\n  0x0100\n  exp\n  swap1\n  div\n  0xffffffffffffffffffffffffffffffffffffffff\n  and\n    /* \"@openzeppelin/contracts/access/Ownable.sol\":2506:2531  address oldOwner = _owner */\n  swap1\n  pop\n    /* \"@openzeppelin/contracts/access/Ownable.sol\":2550:2558  newOwner */\n  dup2\n    /* \"@openzeppelin/contracts/access/Ownable.sol\":2541:2547  _owner */\n  0x00\n  dup1\n    /* \"@openzeppelin/contracts/access/Ownable.sol\":2541:2558  _owner = newOwner */\n  0x0100\n  exp\n  dup2\n  sload\n  dup2\n  0xffffffffffffffffffffffffffffffffffffffff\n  mul\n  not\n  and\n  swap1\n  dup4\n  0xffffffffffffffffffffffffffffffffffffffff\n  and\n  mul\n  or\n  swap1\n  sstore\n  pop\n    /* \"@openzeppelin/contracts/access/Ownable.sol\":2604:2612  newOwner */\n  dup2\n    /* \"@openzeppelin/contracts/access/Ownable.sol\":2573:2613  OwnershipTransferred(oldOwner, newOwner) */\n  0xffffffffffffffffffffffffffffffffffffffff\n  and\n    /* \"@openzeppelin/contracts/access/Ownable.sol\":2594:2602  oldOwner */\n  dup2\n    /* \"@openzeppelin/contracts/access/Ownable.sol\":2573:2613  OwnershipTransferred(oldOwner, newOwner) */\n  0xffffffffffffffffffffffffffffffffffffffff\n  and\n  0x8be0079c531659141344cd1fd0a4f28419497f9722a3daafe3b4186f6b6457e0\n  mload(0x40)\n  mload(0x40)\n  dup1\n  swap2\n  sub\n  swap1\n  log3\n    /* \"@openzeppelin/contracts/access/Ownable.sol\":2496:2620  {... */\n  pop\n    /* \"@openzeppelin/contracts/access/Ownable.sol\":2433:2620  function _transferOwnership(address newOwner) internal virtual {... */\n  pop\n  jump\t// out\n    /* \"#utility.yul\":88:205   */\ntag_16:\n    /* \"#utility.yul\":197:198   */\n  0x00\n    /* \"#utility.yul\":194:195   */\n  dup1\n    /* \"#utility.yul\":187:199   */\n  revert\n    /* \"#utility.yul\":334:460   */\ntag_18:\n    /* \"#utility.yul\":371:378   */\n  0x00\n    /* \"#utility.yul\":411:453   */\n  0xffffffffffffffffffffffffffffffffffffffff\n    /* \"#utility.yul\":404:409   */\n  dup3\n    /* \"#utility.yul\":400:454   */\n  and\n    /* \"#utility.yul\":389:454   */\n  swap1\n  pop\n    /* \"#utility.yul\":334:460   */\n  swap2\n  swap1\n  pop\n  jump\t// out\n    /* \"#utility.yul\":466:562   */\ntag_19:\n    /* \"#utility.yul\":503:510   */\n  0x00\n    /* \"#utility.yul\":532:556   */\n  tag_28\n    /* \"#utility.yul\":550:555   */\n  dup3\n    /* \"#utility.yul\":532:556   */\n  tag_18\n  jump\t// in\ntag_28:\n    /* \"#utility.yul\":521:556   */\n  swap1\n  pop\n    /* \"#utility.yul\":466:562   */\n  swap2\n  swap1\n  pop\n  jump\t// out\n    /* \"#utility.yul\":568:690   */\ntag_20:\n    /* \"#utility.yul\":641:665   */\n  tag_30\n    /* \"#utility.yul\":659:664   */\n  dup2\n    /* \"#utility.yul\":641:665   */\n  tag_19\n  jump\t// in\ntag_30:\n    /* \"#utility.yul\":634:639   */\n  dup2\n    /* \"#utility.yul\":631:666   */\n  eq\n    /* \"#utility.yul\":621:684   */\n  tag_31\n  jumpi\n    /* \"#utility.yul\":680:681   */\n  0x00\n    /* \"#utility.yul\":677:678   */\n  dup1\n    /* \"#utility.yul\":670:682   */\n  revert\n    /* \"#utility.yul\":621:684   */\ntag_31:\n    /* \"#utility.yul\":568:690   */\n  pop\n  jump\t// out\n    /* \"#utility.yul\":696:839   */\ntag_21:\n    /* \"#utility.yul\":753:758   */\n  0x00\n    /* \"#utility.yul\":784:790   */\n  dup2\n    /* \"#utility.yul\":778:791   */\n  mload\n    /* \"#utility.yul\":769:791   */\n  swap1\n  pop\n    /* \"#utility.yul\":800:833   */\n  tag_33\n    /* \"#utility.yul\":827:832   */\n  dup2\n    /* \"#utility.yul\":800:833   */\n  tag_20\n  jump\t// in\ntag_33:\n    /* \"#utility.yul\":696:839   */\n  swap3\n  swap2\n  pop\n  pop\n  jump\t// out\n    /* \"#utility.yul\":845:1196   */\ntag_3:\n    /* \"#utility.yul\":915:921   */\n  0x00\n    /* \"#utility.yul\":964:966   */\n  0x20\n    /* \"#utility.yul\":952:961   */\n  dup3\n    /* \"#utility.yul\":943:950   */\n  dup5\n    /* \"#utility.yul\":939:962   */\n  sub\n    /* \"#utility.yul\":935:967   */\n  slt\n    /* \"#utility.yul\":932:1051   */\n  iszero\n  tag_35\n  jumpi\n    /* \"#utility.yul\":970:1049   */\n  tag_36\n  tag_16\n  jump\t// in\ntag_36:\n    /* \"#utility.yul\":932:1051   */\ntag_35:\n    /* \"#utility.yul\":1090:1091   */\n  0x00\n    /* \"#utility.yul\":1115:1179   */\n  tag_37\n    /* \"#utility.yul\":1171:1178   */\n  dup5\n    /* \"#utility.yul\":1162:1168   */\n  dup3\n    /* \"#utility.yul\":1151:1160   */\n  dup6\n    /* \"#utility.yul\":1147:1169   */\n  add\n    /* \"#utility.yul\":1115:1179   */\n  tag_21\n  jump\t// in\ntag_37:\n    /* \"#utility.yul\":1105:1179   */\n  swap2\n  pop\n    /* \"#utility.yul\":1061:1189   */\n  pop\n    /* \"#utility.yul\":845:1196   */\n  swap3\n  swap2\n  pop\n  pop\n  jump\t// out\n    /* \"trustless cross-chain/trading pair formation/Updated_NFTL.sol\":138:1526  contract NFTLock is Ownable {... */\ntag_12:\n  dataSize(sub_0)\n  dup1\n  dataOffset(sub_0)\n  0x00\n  codecopy\n  0x00\n  return\nstop\n\nsub_0: assembly {\n        /* \"trustless cross-chain/trading pair formation/Updated_NFTL.sol\":138:1526  contract NFTLock is Ownable {... */\n      mstore(0x40, 0x80)\n      callvalue\n      dup1\n      iszero\n      tag_1\n      jumpi\n      0x00\n      dup1\n      revert\n    tag_1:\n      pop\n      jumpi(tag_2, lt(calldatasize, 0x04))\n      shr(0xe0, calldataload(0x00))\n      dup1\n      0x715018a6\n      gt\n      tag_11\n      jumpi\n      dup1\n      0x715018a6\n      eq\n      tag_7\n      jumpi\n      dup1\n      0x8da5cb5b\n      eq\n      tag_8\n      jumpi\n      dup1\n      0xc2d09980\n      eq\n      tag_9\n      jumpi\n      dup1\n      0xf2fde38b\n      eq\n      tag_10\n      jumpi\n      jump(tag_2)\n    tag_11:\n      dup1\n      0x2672c002\n      eq\n      tag_3\n      jumpi\n      dup1\n      0x30486a25\n      eq\n      tag_4\n      jumpi\n      dup1\n      0x3a5e2b20\n      eq\n      tag_5\n      jumpi\n      dup1\n      0x54c993ac\n      eq\n      tag_6\n      jumpi\n    tag_2:\n      0x00\n      dup1\n      revert\n        /* \"trustless cross-chain/trading pair formation/Updated_NFTL.sol\":981:1402  function unlockNFT(address nftAddress, uint256 tokenId) external {... */\n    tag_3:\n      tag_12\n      0x04\n      dup1\n      calldatasize\n      sub\n      dup2\n      add\n      swap1\n      tag_13\n      swap2\n      swap1\n      tag_14\n      jump\t// in\n    tag_13:\n      tag_15\n      jump\t// in\n    tag_12:\n      stop\n        /* \"trustless cross-chain/trading pair formation/Updated_NFTL.sol\":1408:1524  function setNftManagement(address _nftManagement) external onlyOwner {... */\n    tag_4:\n      tag_16\n      0x04\n      dup1\n      calldatasize\n      sub\n      dup2\n      add\n      swap1\n      tag_17\n      swap2\n      swap1\n      tag_18\n      jump\t// in\n    tag_17:\n      tag_19\n      jump\t// in\n    tag_16:\n      stop\n        /* \"trustless cross-chain/trading pair formation/Updated_NFTL.sol\":277:343  mapping(address => mapping(uint256 => LockInfo)) public lockedNFTs */\n    tag_5:\n      tag_20\n      0x04\n      dup1\n      calldatasize\n      sub\n      dup2\n      add\n      swap1\n      tag_21\n      swap2\n      swap1\n      tag_14\n      jump\t// in\n    tag_21:\n      tag_22\n      jump\t// in\n    tag_20:\n      mload(0x40)\n      tag_23\n      swap4\n      swap3\n      swap2\n      swap1\n      tag_24\n      jump\t// in\n    tag_23:\n      mload(0x40)\n      dup1\n      swap2\n      sub\n      swap1\n      return\n        /* \"trustless cross-chain/trading pair formation/Updated_NFTL.sol\":473:975  function lockNFT(address nftAddress, uint256 tokenId, uint256 lockDuration) external {... */\n    tag_6:\n      tag_25\n      0x04\n      dup1\n      calldatasize\n      sub\n      dup2\n      add\n      swap1\n      tag_26\n      swap2\n      swap1\n      tag_27\n      jump\t// in\n    tag_26:\n      tag_28\n      jump\t// in\n    tag_25:\n      stop\n        /* \"@openzeppelin/contracts/access/Ownable.sol\":1831:1932  function renounceOwnership() public virtual onlyOwner {... */\n    tag_7:\n      tag_29\n      tag_30\n      jump\t// in\n    tag_29:\n      stop\n        /* \"@openzeppelin/contracts/access/Ownable.sol\":1201:1286  function owner() public view virtual returns (address) {... */\n    tag_8:\n      tag_31\n      tag_32\n      jump\t// in\n    tag_31:\n      mload(0x40)\n      tag_33\n      swap2\n      swap1\n      tag_34\n      jump\t// in\n    tag_33:\n      mload(0x40)\n      dup1\n      swap2\n      sub\n      swap1\n      return\n        /* \"trustless cross-chain/trading pair formation/Updated_NFTL.sol\":349:377  address public nftManagement */\n    tag_9:\n      tag_35\n      tag_36\n      jump\t// in\n    tag_35:\n      mload(0x40)\n      tag_37\n      swap2\n      swap1\n      tag_34\n      jump\t// in\n    tag_37:\n      mload(0x40)\n      dup1\n      swap2\n      sub\n      swap1\n      return\n        /* \"@openzeppelin/contracts/access/Ownable.sol\":2081:2279  function transferOwnership(address newOwner) public virtual onlyOwner {... */\n    tag_10:\n      tag_38\n      0x04\n      dup1\n      calldatasize\n      sub\n      dup2\n      add\n      swap1\n      tag_39\n      swap2\n      swap1\n      tag_18\n      jump\t// in\n    tag_39:\n      tag_40\n      jump\t// in\n    tag_38:\n      stop\n        /* \"trustless cross-chain/trading pair formation/Updated_NFTL.sol\":981:1402  function unlockNFT(address nftAddress, uint256 tokenId) external {... */\n    tag_15:\n        /* \"trustless cross-chain/trading pair formation/Updated_NFTL.sol\":1056:1081  LockInfo storage lockInfo */\n      0x00\n        /* \"trustless cross-chain/trading pair formation/Updated_NFTL.sol\":1084:1094  lockedNFTs */\n      0x01\n        /* \"trustless cross-chain/trading pair formation/Updated_NFTL.sol\":1084:1106  lockedNFTs[nftAddress] */\n      0x00\n        /* \"trustless cross-chain/trading pair formation/Updated_NFTL.sol\":1095:1105  nftAddress */\n      dup5\n        /* \"trustless cross-chain/trading pair formation/Updated_NFTL.sol\":1084:1106  lockedNFTs[nftAddress] */\n      0xffffffffffffffffffffffffffffffffffffffff\n      and\n      0xffffffffffffffffffffffffffffffffffffffff\n      and\n      dup2\n      mstore\n      0x20\n      add\n      swap1\n      dup2\n      mstore\n      0x20\n      add\n      0x00\n      keccak256\n        /* \"trustless cross-chain/trading pair formation/Updated_NFTL.sol\":1084:1115  lockedNFTs[nftAddress][tokenId] */\n      0x00\n        /* \"trustless cross-chain/trading pair formation/Updated_NFTL.sol\":1107:1114  tokenId */\n      dup4\n        /* \"trustless cross-chain/trading pair formation/Updated_NFTL.sol\":1084:1115  lockedNFTs[nftAddress][tokenId] */\n      dup2\n      mstore\n      0x20\n      add\n      swap1\n      dup2\n      mstore\n      0x20\n      add\n      0x00\n      keccak256\n        /* \"trustless cross-chain/trading pair formation/Updated_NFTL.sol\":1056:1115  LockInfo storage lockInfo = lockedNFTs[nftAddress][tokenId] */\n      swap1\n      pop\n        /* \"trustless cross-chain/trading pair formation/Updated_NFTL.sol\":1133:1141  lockInfo */\n      dup1\n        /* \"trustless cross-chain/trading pair formation/Updated_NFTL.sol\":1133:1150  lockInfo.isLocked */\n      0x02\n      add\n      0x00\n      swap1\n      sload\n      swap1\n      0x0100\n      exp\n      swap1\n      div\n      0xff\n      and\n        /* \"trustless cross-chain/trading pair formation/Updated_NFTL.sol\":1125:1172  require(lockInfo.isLocked, \"NFT is not locked\") */\n      tag_42\n      jumpi\n      mload(0x40)\n      0x08c379a000000000000000000000000000000000000000000000000000000000\n      dup2\n      mstore\n      0x04\n      add\n      tag_43\n      swap1\n      tag_44\n      jump\t// in\n    tag_43:\n      mload(0x40)\n      dup1\n      swap2\n      sub\n      swap1\n      revert\n    tag_42:\n        /* \"trustless cross-chain/trading pair formation/Updated_NFTL.sol\":1206:1214  lockInfo */\n      dup1\n        /* \"trustless cross-chain/trading pair formation/Updated_NFTL.sol\":1206:1225  lockInfo.unlockTime */\n      0x01\n      add\n      sload\n        /* \"trustless cross-chain/trading pair formation/Updated_NFTL.sol\":1190:1202  block.number */\n      number\n        /* \"trustless cross-chain/trading pair formation/Updated_NFTL.sol\":1190:1225  block.number >= lockInfo.unlockTime */\n      lt\n      iszero\n        /* \"trustless cross-chain/trading pair formation/Updated_NFTL.sol\":1182:1259  require(block.number >= lockInfo.unlockTime, \"Lock period has not ended yet\") */\n      tag_45\n      jumpi\n      mload(0x40)\n      0x08c379a000000000000000000000000000000000000000000000000000000000\n      dup2\n      mstore\n      0x04\n      add\n      tag_46\n      swap1\n      tag_47\n      jump\t// in\n    tag_46:\n      mload(0x40)\n      dup1\n      swap2\n      sub\n      swap1\n      revert\n    tag_45:\n        /* \"trustless cross-chain/trading pair formation/Updated_NFTL.sol\":1291:1304  nftManagement */\n      0x02\n      0x00\n      swap1\n      sload\n      swap1\n      0x0100\n      exp\n      swap1\n      div\n      0xffffffffffffffffffffffffffffffffffffffff\n      and\n        /* \"trustless cross-chain/trading pair formation/Updated_NFTL.sol\":1277:1304  msg.sender == nftManagement */\n      0xffffffffffffffffffffffffffffffffffffffff\n      and\n        /* \"trustless cross-chain/trading pair formation/Updated_NFTL.sol\":1277:1287  msg.sender */\n      caller\n        /* \"trustless cross-chain/trading pair formation/Updated_NFTL.sol\":1277:1304  msg.sender == nftManagement */\n      0xffffffffffffffffffffffffffffffffffffffff\n      and\n      eq\n        /* \"trustless cross-chain/trading pair formation/Updated_NFTL.sol\":1269:1359  require(msg.sender == nftManagement, \"Only the NFTManagement contract can unlock the NFT\") */\n      tag_48\n      jumpi\n      mload(0x40)\n      0x08c379a000000000000000000000000000000000000000000000000000000000\n      dup2\n      mstore\n      0x04\n      add\n      tag_49\n      swap1\n      tag_50\n      jump\t// in\n    tag_49:\n      mload(0x40)\n      dup1\n      swap2\n      sub\n      swap1\n      revert\n    tag_48:\n        /* \"trustless cross-chain/trading pair formation/Updated_NFTL.sol\":1390:1395  false */\n      0x00\n        /* \"trustless cross-chain/trading pair formation/Updated_NFTL.sol\":1370:1378  lockInfo */\n      dup2\n        /* \"trustless cross-chain/trading pair formation/Updated_NFTL.sol\":1370:1387  lockInfo.isLocked */\n      0x02\n      add\n      0x00\n        /* \"trustless cross-chain/trading pair formation/Updated_NFTL.sol\":1370:1395  lockInfo.isLocked = false */\n      0x0100\n      exp\n      dup2\n      sload\n      dup2\n      0xff\n      mul\n      not\n      and\n      swap1\n      dup4\n      iszero\n      iszero\n      mul\n      or\n      swap1\n      sstore\n      pop\n        /* \"trustless cross-chain/trading pair formation/Updated_NFTL.sol\":1046:1402  {... */\n      pop\n        /* \"trustless cross-chain/trading pair formation/Updated_NFTL.sol\":981:1402  function unlockNFT(address nftAddress, uint256 tokenId) external {... */\n      pop\n      pop\n      jump\t// out\n        /* \"trustless cross-chain/trading pair formation/Updated_NFTL.sol\":1408:1524  function setNftManagement(address _nftManagement) external onlyOwner {... */\n    tag_19:\n        /* \"@openzeppelin/contracts/access/Ownable.sol\":1094:1107  _checkOwner() */\n      tag_52\n        /* \"@openzeppelin/contracts/access/Ownable.sol\":1094:1105  _checkOwner */\n      tag_53\n        /* \"@openzeppelin/contracts/access/Ownable.sol\":1094:1107  _checkOwner() */\n      jump\t// in\n    tag_52:\n        /* \"trustless cross-chain/trading pair formation/Updated_NFTL.sol\":1503:1517  _nftManagement */\n      dup1\n        /* \"trustless cross-chain/trading pair formation/Updated_NFTL.sol\":1487:1500  nftManagement */\n      0x02\n      0x00\n        /* \"trustless cross-chain/trading pair formation/Updated_NFTL.sol\":1487:1517  nftManagement = _nftManagement */\n      0x0100\n      exp\n      dup2\n      sload\n      dup2\n      0xffffffffffffffffffffffffffffffffffffffff\n      mul\n      not\n      and\n      swap1\n      dup4\n      0xffffffffffffffffffffffffffffffffffffffff\n      and\n      mul\n      or\n      swap1\n      sstore\n      pop\n        /* \"trustless cross-chain/trading pair formation/Updated_NFTL.sol\":1408:1524  function setNftManagement(address _nftManagement) external onlyOwner {... */\n      pop\n      jump\t// out\n        /* \"trustless cross-chain/trading pair formation/Updated_NFTL.sol\":277:343  mapping(address => mapping(uint256 => LockInfo)) public lockedNFTs */\n    tag_22:\n      mstore(0x20, 0x01)\n      dup2\n      0x00\n      mstore\n      mstore(0x20, keccak256(0x00, 0x40))\n      dup1\n      0x00\n      mstore\n      keccak256(0x00, 0x40)\n      0x00\n      swap2\n      pop\n      swap2\n      pop\n      pop\n      dup1\n      0x00\n      add\n      sload\n      swap1\n      dup1\n      0x01\n      add\n      sload\n      swap1\n      dup1\n      0x02\n      add\n      0x00\n      swap1\n      sload\n      swap1\n      0x0100\n      exp\n      swap1\n      div\n      0xff\n      and\n      swap1\n      pop\n      dup4\n      jump\t// out\n        /* \"trustless cross-chain/trading pair formation/Updated_NFTL.sol\":473:975  function lockNFT(address nftAddress, uint256 tokenId, uint256 lockDuration) external {... */\n    tag_28:\n        /* \"trustless cross-chain/trading pair formation/Updated_NFTL.sol\":568:579  IERC721 nft */\n      0x00\n        /* \"trustless cross-chain/trading pair formation/Updated_NFTL.sol\":590:600  nftAddress */\n      dup4\n        /* \"trustless cross-chain/trading pair formation/Updated_NFTL.sol\":568:601  IERC721 nft = IERC721(nftAddress) */\n      swap1\n      pop\n        /* \"trustless cross-chain/trading pair formation/Updated_NFTL.sol\":643:653  msg.sender */\n      caller\n        /* \"trustless cross-chain/trading pair formation/Updated_NFTL.sol\":619:653  nft.ownerOf(tokenId) == msg.sender */\n      0xffffffffffffffffffffffffffffffffffffffff\n      and\n        /* \"trustless cross-chain/trading pair formation/Updated_NFTL.sol\":619:622  nft */\n      dup2\n        /* \"trustless cross-chain/trading pair formation/Updated_NFTL.sol\":619:630  nft.ownerOf */\n      0xffffffffffffffffffffffffffffffffffffffff\n      and\n      0x6352211e\n        /* \"trustless cross-chain/trading pair formation/Updated_NFTL.sol\":631:638  tokenId */\n      dup6\n        /* \"trustless cross-chain/trading pair formation/Updated_NFTL.sol\":619:639  nft.ownerOf(tokenId) */\n      mload(0x40)\n      dup3\n      0xffffffff\n      and\n      0xe0\n      shl\n      dup2\n      mstore\n      0x04\n      add\n      tag_56\n      swap2\n      swap1\n      tag_57\n      jump\t// in\n    tag_56:\n      0x20\n      mload(0x40)\n      dup1\n      dup4\n      sub\n      dup2\n      dup7\n      gas\n      staticcall\n      iszero\n      dup1\n      iszero\n      tag_59\n      jumpi\n      returndatasize\n      0x00\n      dup1\n      returndatacopy\n      revert(0x00, returndatasize)\n    tag_59:\n      pop\n      pop\n      pop\n      pop\n      mload(0x40)\n      returndatasize\n      not(0x1f)\n      0x1f\n      dup3\n      add\n      and\n      dup3\n      add\n      dup1\n      0x40\n      mstore\n      pop\n      dup2\n      add\n      swap1\n      tag_60\n      swap2\n      swap1\n      tag_61\n      jump\t// in\n    tag_60:\n        /* \"trustless cross-chain/trading pair formation/Updated_NFTL.sol\":619:653  nft.ownerOf(tokenId) == msg.sender */\n      0xffffffffffffffffffffffffffffffffffffffff\n      and\n      eq\n        /* \"trustless cross-chain/trading pair formation/Updated_NFTL.sol\":611:689  require(nft.ownerOf(tokenId) == msg.sender, \"You must own the NFT to lock it\") */\n      tag_62\n      jumpi\n      mload(0x40)\n      0x08c379a000000000000000000000000000000000000000000000000000000000\n      dup2\n      mstore\n      0x04\n      add\n      tag_63\n      swap1\n      tag_64\n      jump\t// in\n    tag_63:\n      mload(0x40)\n      dup1\n      swap2\n      sub\n      swap1\n      revert\n    tag_62:\n        /* \"trustless cross-chain/trading pair formation/Updated_NFTL.sol\":699:702  nft */\n      dup1\n        /* \"trustless cross-chain/trading pair formation/Updated_NFTL.sol\":699:715  nft.transferFrom */\n      0xffffffffffffffffffffffffffffffffffffffff\n      and\n      0x23b872dd\n        /* \"trustless cross-chain/trading pair formation/Updated_NFTL.sol\":716:726  msg.sender */\n      caller\n        /* \"trustless cross-chain/trading pair formation/Updated_NFTL.sol\":736:740  this */\n      address\n        /* \"trustless cross-chain/trading pair formation/Updated_NFTL.sol\":743:750  tokenId */\n      dup7\n        /* \"trustless cross-chain/trading pair formation/Updated_NFTL.sol\":699:751  nft.transferFrom(msg.sender, address(this), tokenId) */\n      mload(0x40)\n      dup5\n      0xffffffff\n      and\n      0xe0\n      shl\n      dup2\n      mstore\n      0x04\n      add\n      tag_65\n      swap4\n      swap3\n      swap2\n      swap1\n      tag_66\n      jump\t// in\n    tag_65:\n      0x00\n      mload(0x40)\n      dup1\n      dup4\n      sub\n      dup2\n      0x00\n      dup8\n      dup1\n      extcodesize\n      iszero\n      dup1\n      iszero\n      tag_67\n      jumpi\n      0x00\n      dup1\n      revert\n    tag_67:\n      pop\n      gas\n      call\n      iszero\n      dup1\n      iszero\n      tag_69\n      jumpi\n      returndatasize\n      0x00\n      dup1\n      returndatacopy\n      revert(0x00, returndatasize)\n    tag_69:\n      pop\n      pop\n      pop\n      pop\n        /* \"trustless cross-chain/trading pair formation/Updated_NFTL.sol\":762:780  uint256 unlockTime */\n      0x00\n        /* \"trustless cross-chain/trading pair formation/Updated_NFTL.sol\":798:810  lockDuration */\n      dup3\n        /* \"trustless cross-chain/trading pair formation/Updated_NFTL.sol\":783:795  block.number */\n      number\n        /* \"trustless cross-chain/trading pair formation/Updated_NFTL.sol\":783:810  block.number + lockDuration */\n      tag_70\n      swap2\n      swap1\n      tag_71\n      jump\t// in\n    tag_70:\n        /* \"trustless cross-chain/trading pair formation/Updated_NFTL.sol\":762:810  uint256 unlockTime = block.number + lockDuration */\n      swap1\n      pop\n        /* \"trustless cross-chain/trading pair formation/Updated_NFTL.sol\":854:968  LockInfo({... */\n      mload(0x40)\n      dup1\n      0x60\n      add\n      0x40\n      mstore\n      dup1\n        /* \"trustless cross-chain/trading pair formation/Updated_NFTL.sol\":886:893  tokenId */\n      dup6\n        /* \"trustless cross-chain/trading pair formation/Updated_NFTL.sol\":854:968  LockInfo({... */\n      dup2\n      mstore\n      0x20\n      add\n        /* \"trustless cross-chain/trading pair formation/Updated_NFTL.sol\":919:929  unlockTime */\n      dup3\n        /* \"trustless cross-chain/trading pair formation/Updated_NFTL.sol\":854:968  LockInfo({... */\n      dup2\n      mstore\n      0x20\n      add\n        /* \"trustless cross-chain/trading pair formation/Updated_NFTL.sol\":953:957  true */\n      0x01\n        /* \"trustless cross-chain/trading pair formation/Updated_NFTL.sol\":854:968  LockInfo({... */\n      iszero\n      iszero\n      dup2\n      mstore\n      pop\n        /* \"trustless cross-chain/trading pair formation/Updated_NFTL.sol\":820:830  lockedNFTs */\n      0x01\n        /* \"trustless cross-chain/trading pair formation/Updated_NFTL.sol\":820:842  lockedNFTs[nftAddress] */\n      0x00\n        /* \"trustless cross-chain/trading pair formation/Updated_NFTL.sol\":831:841  nftAddress */\n      dup8\n        /* \"trustless cross-chain/trading pair formation/Updated_NFTL.sol\":820:842  lockedNFTs[nftAddress] */\n      0xffffffffffffffffffffffffffffffffffffffff\n      and\n      0xffffffffffffffffffffffffffffffffffffffff\n      and\n      dup2\n      mstore\n      0x20\n      add\n      swap1\n      dup2\n      mstore\n      0x20\n      add\n      0x00\n      keccak256\n        /* \"trustless cross-chain/trading pair formation/Updated_NFTL.sol\":820:851  lockedNFTs[nftAddress][tokenId] */\n      0x00\n        /* \"trustless cross-chain/trading pair formation/Updated_NFTL.sol\":843:850  tokenId */\n      dup7\n        /* \"trustless cross-chain/trading pair formation/Updated_NFTL.sol\":820:851  lockedNFTs[nftAddress][tokenId] */\n      dup2\n      mstore\n      0x20\n      add\n      swap1\n      dup2\n      mstore\n      0x20\n      add\n      0x00\n      keccak256\n        /* \"trustless cross-chain/trading pair formation/Updated_NFTL.sol\":820:968  lockedNFTs[nftAddress][tokenId] = LockInfo({... */\n      0x00\n      dup3\n      add\n      mload\n      dup2\n      0x00\n      add\n      sstore\n      0x20\n      dup3\n      add\n      mload\n      dup2\n      0x01\n      add\n      sstore\n      0x40\n      dup3\n      add\n      mload\n      dup2\n      0x02\n      add\n      exp(0x0100, 0x00)\n      dup2\n      sload\n      dup2\n      0xff\n      mul\n      not\n      and\n      swap1\n      dup4\n      iszero\n      iszero\n      mul\n      or\n      swap1\n      sstore\n      pop\n      swap1\n      pop\n      pop\n        /* \"trustless cross-chain/trading pair formation/Updated_NFTL.sol\":558:975  {... */\n      pop\n      pop\n        /* \"trustless cross-chain/trading pair formation/Updated_NFTL.sol\":473:975  function lockNFT(address nftAddress, uint256 tokenId, uint256 lockDuration) external {... */\n      pop\n      pop\n      pop\n      jump\t// out\n        /* \"@openzeppelin/contracts/access/Ownable.sol\":1831:1932  function renounceOwnership() public virtual onlyOwner {... */\n    tag_30:\n        /* \"@openzeppelin/contracts/access/Ownable.sol\":1094:1107  _checkOwner() */\n      tag_73\n        /* \"@openzeppelin/contracts/access/Ownable.sol\":1094:1105  _checkOwner */\n      tag_53\n        /* \"@openzeppelin/contracts/access/Ownable.sol\":1094:1107  _checkOwner() */\n      jump\t// in\n    tag_73:\n        /* \"@openzeppelin/contracts/access/Ownable.sol\":1895:1925  _transferOwnership(address(0)) */\n      tag_75\n        /* \"@openzeppelin/contracts/access/Ownable.sol\":1922:1923  0 */\n      0x00\n        /* \"@openzeppelin/contracts/access/Ownable.sol\":1895:1913  _transferOwnership */\n      tag_76\n        /* \"@openzeppelin/contracts/access/Ownable.sol\":1895:1925  _transferOwnership(address(0)) */\n      jump\t// in\n    tag_75:\n        /* \"@openzeppelin/contracts/access/Ownable.sol\":1831:1932  function renounceOwnership() public virtual onlyOwner {... */\n      jump\t// out\n        /* \"@openzeppelin/contracts/access/Ownable.sol\":1201:1286  function owner() public view virtual returns (address) {... */\n    tag_32:\n        /* \"@openzeppelin/contracts/access/Ownable.sol\":1247:1254  address */\n      0x00\n        /* \"@openzeppelin/contracts/access/Ownable.sol\":1273:1279  _owner */\n      dup1\n      0x00\n      swap1\n      sload\n      swap1\n      0x0100\n      exp\n      swap1\n      div\n      0xffffffffffffffffffffffffffffffffffffffff\n      and\n        /* \"@openzeppelin/contracts/access/Ownable.sol\":1266:1279  return _owner */\n      swap1\n      pop\n        /* \"@openzeppelin/contracts/access/Ownable.sol\":1201:1286  function owner() public view virtual returns (address) {... */\n      swap1\n      jump\t// out\n        /* \"trustless cross-chain/trading pair formation/Updated_NFTL.sol\":349:377  address public nftManagement */\n    tag_36:\n      0x02\n      0x00\n      swap1\n      sload\n      swap1\n      0x0100\n      exp\n      swap1\n      div\n      0xffffffffffffffffffffffffffffffffffffffff\n      and\n      dup2\n      jump\t// out\n        /* \"@openzeppelin/contracts/access/Ownable.sol\":2081:2279  function transferOwnership(address newOwner) public virtual onlyOwner {... */\n    tag_40:\n        /* \"@openzeppelin/contracts/access/Ownable.sol\":1094:1107  _checkOwner() */\n      tag_79\n        /* \"@openzeppelin/contracts/access/Ownable.sol\":1094:1105  _checkOwner */\n      tag_53\n        /* \"@openzeppelin/contracts/access/Ownable.sol\":1094:1107  _checkOwner() */\n      jump\t// in\n    tag_79:\n        /* \"@openzeppelin/contracts/access/Ownable.sol\":2189:2190  0 */\n      0x00\n        /* \"@openzeppelin/contracts/access/Ownable.sol\":2169:2191  newOwner != address(0) */\n      0xffffffffffffffffffffffffffffffffffffffff\n      and\n        /* \"@openzeppelin/contracts/access/Ownable.sol\":2169:2177  newOwner */\n      dup2\n        /* \"@openzeppelin/contracts/access/Ownable.sol\":2169:2191  newOwner != address(0) */\n      0xffffffffffffffffffffffffffffffffffffffff\n      and\n      sub\n        /* \"@openzeppelin/contracts/access/Ownable.sol\":2161:2234  require(newOwner != address(0), \"Ownable: new owner is the zero address\") */\n      tag_81\n      jumpi\n      mload(0x40)\n      0x08c379a000000000000000000000000000000000000000000000000000000000\n      dup2\n      mstore\n      0x04\n      add\n      tag_82\n      swap1\n      tag_83\n      jump\t// in\n    tag_82:\n      mload(0x40)\n      dup1\n      swap2\n      sub\n      swap1\n      revert\n    tag_81:\n        /* \"@openzeppelin/contracts/access/Ownable.sol\":2244:2272  _transferOwnership(newOwner) */\n      tag_84\n        /* \"@openzeppelin/contracts/access/Ownable.sol\":2263:2271  newOwner */\n      dup2\n        /* \"@openzeppelin/contracts/access/Ownable.sol\":2244:2262  _transferOwnership */\n      tag_76\n        /* \"@openzeppelin/contracts/access/Ownable.sol\":2244:2272  _transferOwnership(newOwner) */\n      jump\t// in\n    tag_84:\n        /* \"@openzeppelin/contracts/access/Ownable.sol\":2081:2279  function transferOwnership(address newOwner) public virtual onlyOwner {... */\n      pop\n      jump\t// out\n        /* \"@openzeppelin/contracts/access/Ownable.sol\":1359:1489  function _checkOwner() internal view virtual {... */\n    tag_53:\n        /* \"@openzeppelin/contracts/access/Ownable.sol\":1433:1445  _msgSender() */\n      tag_86\n        /* \"@openzeppelin/contracts/access/Ownable.sol\":1433:1443  _msgSender */\n      tag_87\n        /* \"@openzeppelin/contracts/access/Ownable.sol\":1433:1445  _msgSender() */\n      jump\t// in\n    tag_86:\n        /* \"@openzeppelin/contracts/access/Ownable.sol\":1422:1445  owner() == _msgSender() */\n      0xffffffffffffffffffffffffffffffffffffffff\n      and\n        /* \"@openzeppelin/contracts/access/Ownable.sol\":1422:1429  owner() */\n      tag_88\n        /* \"@openzeppelin/contracts/access/Ownable.sol\":1422:1427  owner */\n      tag_32\n        /* \"@openzeppelin/contracts/access/Ownable.sol\":1422:1429  owner() */\n      jump\t// in\n    tag_88:\n        /* \"@openzeppelin/contracts/access/Ownable.sol\":1422:1445  owner() == _msgSender() */\n      0xffffffffffffffffffffffffffffffffffffffff\n      and\n      eq\n        /* \"@openzeppelin/contracts/access/Ownable.sol\":1414:1482  require(owner() == _msgSender(), \"Ownable: caller is not the owner\") */\n      tag_89\n      jumpi\n      mload(0x40)\n      0x08c379a000000000000000000000000000000000000000000000000000000000\n      dup2\n      mstore\n      0x04\n      add\n      tag_90\n      swap1\n      tag_91\n      jump\t// in\n    tag_90:\n      mload(0x40)\n      dup1\n      swap2\n      sub\n      swap1\n      revert\n    tag_89:\n        /* \"@openzeppelin/contracts/access/Ownable.sol\":1359:1489  function _checkOwner() internal view virtual {... */\n      jump\t// out\n        /* \"@openzeppelin/contracts/access/Ownable.sol\":2433:2620  function _transferOwnership(address newOwner) internal virtual {... */\n    tag_76:\n        /* \"@openzeppelin/contracts/access/Ownable.sol\":2506:2522  address oldOwner */\n      0x00\n        /* \"@openzeppelin/contracts/access/Ownable.sol\":2525:2531  _owner */\n      dup1\n      0x00\n      swap1\n      sload\n      swap1\n      0x0100\n      exp\n      swap1\n      div\n      0xffffffffffffffffffffffffffffffffffffffff\n      and\n        /* \"@openzeppelin/contracts/access/Ownable.sol\":2506:2531  address oldOwner = _owner */\n      swap1\n      pop\n        /* \"@openzeppelin/contracts/access/Ownable.sol\":2550:2558  newOwner */\n      dup2\n        /* \"@openzeppelin/contracts/access/Ownable.sol\":2541:2547  _owner */\n      0x00\n      dup1\n        /* \"@openzeppelin/contracts/access/Ownable.sol\":2541:2558  _owner = newOwner */\n      0x0100\n      exp\n      dup2\n      sload\n      dup2\n      0xffffffffffffffffffffffffffffffffffffffff\n      mul\n      not\n      and\n      swap1\n      dup4\n      0xffffffffffffffffffffffffffffffffffffffff\n      and\n      mul\n      or\n      swap1\n      sstore\n      pop\n        /* \"@openzeppelin/contracts/access/Ownable.sol\":2604:2612  newOwner */\n      dup2\n        /* \"@openzeppelin/contracts/access/Ownable.sol\":2573:2613  OwnershipTransferred(oldOwner, newOwner) */\n      0xffffffffffffffffffffffffffffffffffffffff\n      and\n        /* \"@openzeppelin/contracts/access/Ownable.sol\":2594:2602  oldOwner */\n      dup2\n        /* \"@openzeppelin/contracts/access/Ownable.sol\":2573:2613  OwnershipTransferred(oldOwner, newOwner) */\n      0xffffffffffffffffffffffffffffffffffffffff\n      and\n      0x8be0079c531659141344cd1fd0a4f28419497f9722a3daafe3b4186f6b6457e0\n      mload(0x40)\n      mload(0x40)\n      dup1\n      swap2\n      sub\n      swap1\n      log3\n        /* \"@openzeppelin/contracts/access/Ownable.sol\":2496:2620  {... */\n      pop\n        /* \"@openzeppelin/contracts/access/Ownable.sol\":2433:2620  function _transferOwnership(address newOwner) internal virtual {... */\n      pop\n      jump\t// out\n        /* \"@openzeppelin/contracts/utils/Context.sol\":640:736  function _msgSender() internal view virtual returns (address) {... */\n    tag_87:\n        /* \"@openzeppelin/contracts/utils/Context.sol\":693:700  address */\n      0x00\n        /* \"@openzeppelin/contracts/utils/Context.sol\":719:729  msg.sender */\n      caller\n        /* \"@openzeppelin/contracts/utils/Context.sol\":712:729  return msg.sender */\n      swap1\n      pop\n        /* \"@openzeppelin/contracts/utils/Context.sol\":640:736  function _msgSender() internal view virtual returns (address) {... */\n      swap1\n      jump\t// out\n        /* \"#utility.yul\":88:205   */\n    tag_95:\n        /* \"#utility.yul\":197:198   */\n      0x00\n        /* \"#utility.yul\":194:195   */\n      dup1\n        /* \"#utility.yul\":187:199   */\n      revert\n        /* \"#utility.yul\":334:460   */\n    tag_97:\n        /* \"#utility.yul\":371:378   */\n      0x00\n        /* \"#utility.yul\":411:453   */\n      0xffffffffffffffffffffffffffffffffffffffff\n        /* \"#utility.yul\":404:409   */\n      dup3\n        /* \"#utility.yul\":400:454   */\n      and\n        /* \"#utility.yul\":389:454   */\n      swap1\n      pop\n        /* \"#utility.yul\":334:460   */\n      swap2\n      swap1\n      pop\n      jump\t// out\n        /* \"#utility.yul\":466:562   */\n    tag_98:\n        /* \"#utility.yul\":503:510   */\n      0x00\n        /* \"#utility.yul\":532:556   */\n      tag_129\n        /* \"#utility.yul\":550:555   */\n      dup3\n        /* \"#utility.yul\":532:556   */\n      tag_97\n      jump\t// in\n    tag_129:\n        /* \"#utility.yul\":521:556   */\n      swap1\n      pop\n        /* \"#utility.yul\":466:562   */\n      swap2\n      swap1\n      pop\n      jump\t// out\n        /* \"#utility.yul\":568:690   */\n    tag_99:\n        /* \"#utility.yul\":641:665   */\n      tag_131\n        /* \"#utility.yul\":659:664   */\n      dup2\n        /* \"#utility.yul\":641:665   */\n      tag_98\n      jump\t// in\n    tag_131:\n        /* \"#utility.yul\":634:639   */\n      dup2\n        /* \"#utility.yul\":631:666   */\n      eq\n        /* \"#utility.yul\":621:684   */\n      tag_132\n      jumpi\n        /* \"#utility.yul\":680:681   */\n      0x00\n        /* \"#utility.yul\":677:678   */\n      dup1\n        /* \"#utility.yul\":670:682   */\n      revert\n        /* \"#utility.yul\":621:684   */\n    tag_132:\n        /* \"#utility.yul\":568:690   */\n      pop\n      jump\t// out\n        /* \"#utility.yul\":696:835   */\n    tag_100:\n        /* \"#utility.yul\":742:747   */\n      0x00\n        /* \"#utility.yul\":780:786   */\n      dup2\n        /* \"#utility.yul\":767:787   */\n      calldataload\n        /* \"#utility.yul\":758:787   */\n      swap1\n      pop\n        /* \"#utility.yul\":796:829   */\n      tag_134\n        /* \"#utility.yul\":823:828   */\n      dup2\n        /* \"#utility.yul\":796:829   */\n      tag_99\n      jump\t// in\n    tag_134:\n        /* \"#utility.yul\":696:835   */\n      swap3\n      swap2\n      pop\n      pop\n      jump\t// out\n        /* \"#utility.yul\":841:918   */\n    tag_101:\n        /* \"#utility.yul\":878:885   */\n      0x00\n        /* \"#utility.yul\":907:912   */\n      dup2\n        /* \"#utility.yul\":896:912   */\n      swap1\n      pop\n        /* \"#utility.yul\":841:918   */\n      swap2\n      swap1\n      pop\n      jump\t// out\n        /* \"#utility.yul\":924:1046   */\n    tag_102:\n        /* \"#utility.yul\":997:1021   */\n      tag_137\n        /* \"#utility.yul\":1015:1020   */\n      dup2\n        /* \"#utility.yul\":997:1021   */\n      tag_101\n      jump\t// in\n    tag_137:\n        /* \"#utility.yul\":990:995   */\n      dup2\n        /* \"#utility.yul\":987:1022   */\n      eq\n        /* \"#utility.yul\":977:1040   */\n      tag_138\n      jumpi\n        /* \"#utility.yul\":1036:1037   */\n      0x00\n        /* \"#utility.yul\":1033:1034   */\n      dup1\n        /* \"#utility.yul\":1026:1038   */\n      revert\n        /* \"#utility.yul\":977:1040   */\n    tag_138:\n        /* \"#utility.yul\":924:1046   */\n      pop\n      jump\t// out\n        /* \"#utility.yul\":1052:1191   */\n    tag_103:\n        /* \"#utility.yul\":1098:1103   */\n      0x00\n        /* \"#utility.yul\":1136:1142   */\n      dup2\n        /* \"#utility.yul\":1123:1143   */\n      calldataload\n        /* \"#utility.yul\":1114:1143   */\n      swap1\n      pop\n        /* \"#utility.yul\":1152:1185   */\n      tag_140\n        /* \"#utility.yul\":1179:1184   */\n      dup2\n        /* \"#utility.yul\":1152:1185   */\n      tag_102\n      jump\t// in\n    tag_140:\n        /* \"#utility.yul\":1052:1191   */\n      swap3\n      swap2\n      pop\n      pop\n      jump\t// out\n        /* \"#utility.yul\":1197:1671   */\n    tag_14:\n        /* \"#utility.yul\":1265:1271   */\n      0x00\n        /* \"#utility.yul\":1273:1279   */\n      dup1\n        /* \"#utility.yul\":1322:1324   */\n      0x40\n        /* \"#utility.yul\":1310:1319   */\n      dup4\n        /* \"#utility.yul\":1301:1308   */\n      dup6\n        /* \"#utility.yul\":1297:1320   */\n      sub\n        /* \"#utility.yul\":1293:1325   */\n      slt\n        /* \"#utility.yul\":1290:1409   */\n      iszero\n      tag_142\n      jumpi\n        /* \"#utility.yul\":1328:1407   */\n      tag_143\n      tag_95\n      jump\t// in\n    tag_143:\n        /* \"#utility.yul\":1290:1409   */\n    tag_142:\n        /* \"#utility.yul\":1448:1449   */\n      0x00\n        /* \"#utility.yul\":1473:1526   */\n      tag_144\n        /* \"#utility.yul\":1518:1525   */\n      dup6\n        /* \"#utility.yul\":1509:1515   */\n      dup3\n        /* \"#utility.yul\":1498:1507   */\n      dup7\n        /* \"#utility.yul\":1494:1516   */\n      add\n        /* \"#utility.yul\":1473:1526   */\n      tag_100\n      jump\t// in\n    tag_144:\n        /* \"#utility.yul\":1463:1526   */\n      swap3\n      pop\n        /* \"#utility.yul\":1419:1536   */\n      pop\n        /* \"#utility.yul\":1575:1577   */\n      0x20\n        /* \"#utility.yul\":1601:1654   */\n      tag_145\n        /* \"#utility.yul\":1646:1653   */\n      dup6\n        /* \"#utility.yul\":1637:1643   */\n      dup3\n        /* \"#utility.yul\":1626:1635   */\n      dup7\n        /* \"#utility.yul\":1622:1644   */\n      add\n        /* \"#utility.yul\":1601:1654   */\n      tag_103\n      jump\t// in\n    tag_145:\n        /* \"#utility.yul\":1591:1654   */\n      swap2\n      pop\n        /* \"#utility.yul\":1546:1664   */\n      pop\n        /* \"#utility.yul\":1197:1671   */\n      swap3\n      pop\n      swap3\n      swap1\n      pop\n      jump\t// out\n        /* \"#utility.yul\":1677:2006   */\n    tag_18:\n        /* \"#utility.yul\":1736:1742   */\n      0x00\n        /* \"#utility.yul\":1785:1787   */\n      0x20\n        /* \"#utility.yul\":1773:1782   */\n      dup3\n        /* \"#utility.yul\":1764:1771   */\n      dup5\n        /* \"#utility.yul\":1760:1783   */\n      sub\n        /* \"#utility.yul\":1756:1788   */\n      slt\n        /* \"#utility.yul\":1753:1872   */\n      iszero\n      tag_147\n      jumpi\n        /* \"#utility.yul\":1791:1870   */\n      tag_148\n      tag_95\n      jump\t// in\n    tag_148:\n        /* \"#utility.yul\":1753:1872   */\n    tag_147:\n        /* \"#utility.yul\":1911:1912   */\n      0x00\n        /* \"#utility.yul\":1936:1989   */\n      tag_149\n        /* \"#utility.yul\":1981:1988   */\n      dup5\n        /* \"#utility.yul\":1972:1978   */\n      dup3\n        /* \"#utility.yul\":1961:1970   */\n      dup6\n        /* \"#utility.yul\":1957:1979   */\n      add\n        /* \"#utility.yul\":1936:1989   */\n      tag_100\n      jump\t// in\n    tag_149:\n        /* \"#utility.yul\":1926:1989   */\n      swap2\n      pop\n        /* \"#utility.yul\":1882:1999   */\n      pop\n        /* \"#utility.yul\":1677:2006   */\n      swap3\n      swap2\n      pop\n      pop\n      jump\t// out\n        /* \"#utility.yul\":2012:2130   */\n    tag_104:\n        /* \"#utility.yul\":2099:2123   */\n      tag_151\n        /* \"#utility.yul\":2117:2122   */\n      dup2\n        /* \"#utility.yul\":2099:2123   */\n      tag_101\n      jump\t// in\n    tag_151:\n        /* \"#utility.yul\":2094:2097   */\n      dup3\n        /* \"#utility.yul\":2087:2124   */\n      mstore\n        /* \"#utility.yul\":2012:2130   */\n      pop\n      pop\n      jump\t// out\n        /* \"#utility.yul\":2136:2226   */\n    tag_105:\n        /* \"#utility.yul\":2170:2177   */\n      0x00\n        /* \"#utility.yul\":2213:2218   */\n      dup2\n        /* \"#utility.yul\":2206:2219   */\n      iszero\n        /* \"#utility.yul\":2199:2220   */\n      iszero\n        /* \"#utility.yul\":2188:2220   */\n      swap1\n      pop\n        /* \"#utility.yul\":2136:2226   */\n      swap2\n      swap1\n      pop\n      jump\t// out\n        /* \"#utility.yul\":2232:2341   */\n    tag_106:\n        /* \"#utility.yul\":2313:2334   */\n      tag_154\n        /* \"#utility.yul\":2328:2333   */\n      dup2\n        /* \"#utility.yul\":2313:2334   */\n      tag_105\n      jump\t// in\n    tag_154:\n        /* \"#utility.yul\":2308:2311   */\n      dup3\n        /* \"#utility.yul\":2301:2335   */\n      mstore\n        /* \"#utility.yul\":2232:2341   */\n      pop\n      pop\n      jump\t// out\n        /* \"#utility.yul\":2347:2777   */\n    tag_24:\n        /* \"#utility.yul\":2490:2494   */\n      0x00\n        /* \"#utility.yul\":2528:2530   */\n      0x60\n        /* \"#utility.yul\":2517:2526   */\n      dup3\n        /* \"#utility.yul\":2513:2531   */\n      add\n        /* \"#utility.yul\":2505:2531   */\n      swap1\n      pop\n        /* \"#utility.yul\":2541:2612   */\n      tag_156\n        /* \"#utility.yul\":2609:2610   */\n      0x00\n        /* \"#utility.yul\":2598:2607   */\n      dup4\n        /* \"#utility.yul\":2594:2611   */\n      add\n        /* \"#utility.yul\":2585:2591   */\n      dup7\n        /* \"#utility.yul\":2541:2612   */\n      tag_104\n      jump\t// in\n    tag_156:\n        /* \"#utility.yul\":2622:2694   */\n      tag_157\n        /* \"#utility.yul\":2690:2692   */\n      0x20\n        /* \"#utility.yul\":2679:2688   */\n      dup4\n        /* \"#utility.yul\":2675:2693   */\n      add\n        /* \"#utility.yul\":2666:2672   */\n      dup6\n        /* \"#utility.yul\":2622:2694   */\n      tag_104\n      jump\t// in\n    tag_157:\n        /* \"#utility.yul\":2704:2770   */\n      tag_158\n        /* \"#utility.yul\":2766:2768   */\n      0x40\n        /* \"#utility.yul\":2755:2764   */\n      dup4\n        /* \"#utility.yul\":2751:2769   */\n      add\n        /* \"#utility.yul\":2742:2748   */\n      dup5\n        /* \"#utility.yul\":2704:2770   */\n      tag_106\n      jump\t// in\n    tag_158:\n        /* \"#utility.yul\":2347:2777   */\n      swap5\n      swap4\n      pop\n      pop\n      pop\n      pop\n      jump\t// out\n        /* \"#utility.yul\":2783:3402   */\n    tag_27:\n        /* \"#utility.yul\":2860:2866   */\n      0x00\n        /* \"#utility.yul\":2868:2874   */\n      dup1\n        /* \"#utility.yul\":2876:2882   */\n      0x00\n        /* \"#utility.yul\":2925:2927   */\n      0x60\n        /* \"#utility.yul\":2913:2922   */\n      dup5\n        /* \"#utility.yul\":2904:2911   */\n      dup7\n        /* \"#utility.yul\":2900:2923   */\n      sub\n        /* \"#utility.yul\":2896:2928   */\n      slt\n        /* \"#utility.yul\":2893:3012   */\n      iszero\n      tag_160\n      jumpi\n        /* \"#utility.yul\":2931:3010   */\n      tag_161\n      tag_95\n      jump\t// in\n    tag_161:\n        /* \"#utility.yul\":2893:3012   */\n    tag_160:\n        /* \"#utility.yul\":3051:3052   */\n      0x00\n        /* \"#utility.yul\":3076:3129   */\n      tag_162\n        /* \"#utility.yul\":3121:3128   */\n      dup7\n        /* \"#utility.yul\":3112:3118   */\n      dup3\n        /* \"#utility.yul\":3101:3110   */\n      dup8\n        /* \"#utility.yul\":3097:3119   */\n      add\n        /* \"#utility.yul\":3076:3129   */\n      tag_100\n      jump\t// in\n    tag_162:\n        /* \"#utility.yul\":3066:3129   */\n      swap4\n      pop\n        /* \"#utility.yul\":3022:3139   */\n      pop\n        /* \"#utility.yul\":3178:3180   */\n      0x20\n        /* \"#utility.yul\":3204:3257   */\n      tag_163\n        /* \"#utility.yul\":3249:3256   */\n      dup7\n        /* \"#utility.yul\":3240:3246   */\n      dup3\n        /* \"#utility.yul\":3229:3238   */\n      dup8\n        /* \"#utility.yul\":3225:3247   */\n      add\n        /* \"#utility.yul\":3204:3257   */\n      tag_103\n      jump\t// in\n    tag_163:\n        /* \"#utility.yul\":3194:3257   */\n      swap3\n      pop\n        /* \"#utility.yul\":3149:3267   */\n      pop\n        /* \"#utility.yul\":3306:3308   */\n      0x40\n        /* \"#utility.yul\":3332:3385   */\n      tag_164\n        /* \"#utility.yul\":3377:3384   */\n      dup7\n        /* \"#utility.yul\":3368:3374   */\n      dup3\n        /* \"#utility.yul\":3357:3366   */\n      dup8\n        /* \"#utility.yul\":3353:3375   */\n      add\n        /* \"#utility.yul\":3332:3385   */\n      tag_103\n      jump\t// in\n    tag_164:\n        /* \"#utility.yul\":3322:3385   */\n      swap2\n      pop\n        /* \"#utility.yul\":3277:3395   */\n      pop\n        /* \"#utility.yul\":2783:3402   */\n      swap3\n      pop\n      swap3\n      pop\n      swap3\n      jump\t// out\n        /* \"#utility.yul\":3408:3526   */\n    tag_107:\n        /* \"#utility.yul\":3495:3519   */\n      tag_166\n        /* \"#utility.yul\":3513:3518   */\n      dup2\n        /* \"#utility.yul\":3495:3519   */\n      tag_98\n      jump\t// in\n    tag_166:\n        /* \"#utility.yul\":3490:3493   */\n      dup3\n        /* \"#utility.yul\":3483:3520   */\n      mstore\n        /* \"#utility.yul\":3408:3526   */\n      pop\n      pop\n      jump\t// out\n        /* \"#utility.yul\":3532:3754   */\n    tag_34:\n        /* \"#utility.yul\":3625:3629   */\n      0x00\n        /* \"#utility.yul\":3663:3665   */\n      0x20\n        /* \"#utility.yul\":3652:3661   */\n      dup3\n        /* \"#utility.yul\":3648:3666   */\n      add\n        /* \"#utility.yul\":3640:3666   */\n      swap1\n      pop\n        /* \"#utility.yul\":3676:3747   */\n      tag_168\n        /* \"#utility.yul\":3744:3745   */\n      0x00\n        /* \"#utility.yul\":3733:3742   */\n      dup4\n        /* \"#utility.yul\":3729:3746   */\n      add\n        /* \"#utility.yul\":3720:3726   */\n      dup5\n        /* \"#utility.yul\":3676:3747   */\n      tag_107\n      jump\t// in\n    tag_168:\n        /* \"#utility.yul\":3532:3754   */\n      swap3\n      swap2\n      pop\n      pop\n      jump\t// out\n        /* \"#utility.yul\":3760:3929   */\n    tag_108:\n        /* \"#utility.yul\":3844:3855   */\n      0x00\n        /* \"#utility.yul\":3878:3884   */\n      dup3\n        /* \"#utility.yul\":3873:3876   */\n      dup3\n        /* \"#utility.yul\":3866:3885   */\n      mstore\n        /* \"#utility.yul\":3918:3922   */\n      0x20\n        /* \"#utility.yul\":3913:3916   */\n      dup3\n        /* \"#utility.yul\":3909:3923   */\n      add\n        /* \"#utility.yul\":3894:3923   */\n      swap1\n      pop\n        /* \"#utility.yul\":3760:3929   */\n      swap3\n      swap2\n      pop\n      pop\n      jump\t// out\n        /* \"#utility.yul\":3935:4102   */\n    tag_109:\n        /* \"#utility.yul\":4075:4094   */\n      0x4e4654206973206e6f74206c6f636b6564000000000000000000000000000000\n        /* \"#utility.yul\":4071:4072   */\n      0x00\n        /* \"#utility.yul\":4063:4069   */\n      dup3\n        /* \"#utility.yul\":4059:4073   */\n      add\n        /* \"#utility.yul\":4052:4095   */\n      mstore\n        /* \"#utility.yul\":3935:4102   */\n      pop\n      jump\t// out\n        /* \"#utility.yul\":4108:4474   */\n    tag_110:\n        /* \"#utility.yul\":4250:4253   */\n      0x00\n        /* \"#utility.yul\":4271:4338   */\n      tag_172\n        /* \"#utility.yul\":4335:4337   */\n      0x11\n        /* \"#utility.yul\":4330:4333   */\n      dup4\n        /* \"#utility.yul\":4271:4338   */\n      tag_108\n      jump\t// in\n    tag_172:\n        /* \"#utility.yul\":4264:4338   */\n      swap2\n      pop\n        /* \"#utility.yul\":4347:4440   */\n      tag_173\n        /* \"#utility.yul\":4436:4439   */\n      dup3\n        /* \"#utility.yul\":4347:4440   */\n      tag_109\n      jump\t// in\n    tag_173:\n        /* \"#utility.yul\":4465:4467   */\n      0x20\n        /* \"#utility.yul\":4460:4463   */\n      dup3\n        /* \"#utility.yul\":4456:4468   */\n      add\n        /* \"#utility.yul\":4449:4468   */\n      swap1\n      pop\n        /* \"#utility.yul\":4108:4474   */\n      swap2\n      swap1\n      pop\n      jump\t// out\n        /* \"#utility.yul\":4480:4899   */\n    tag_44:\n        /* \"#utility.yul\":4646:4650   */\n      0x00\n        /* \"#utility.yul\":4684:4686   */\n      0x20\n        /* \"#utility.yul\":4673:4682   */\n      dup3\n        /* \"#utility.yul\":4669:4687   */\n      add\n        /* \"#utility.yul\":4661:4687   */\n      swap1\n      pop\n        /* \"#utility.yul\":4733:4742   */\n      dup2\n        /* \"#utility.yul\":4727:4731   */\n      dup2\n        /* \"#utility.yul\":4723:4743   */\n      sub\n        /* \"#utility.yul\":4719:4720   */\n      0x00\n        /* \"#utility.yul\":4708:4717   */\n      dup4\n        /* \"#utility.yul\":4704:4721   */\n      add\n        /* \"#utility.yul\":4697:4744   */\n      mstore\n        /* \"#utility.yul\":4761:4892   */\n      tag_175\n        /* \"#utility.yul\":4887:4891   */\n      dup2\n        /* \"#utility.yul\":4761:4892   */\n      tag_110\n      jump\t// in\n    tag_175:\n        /* \"#utility.yul\":4753:4892   */\n      swap1\n      pop\n        /* \"#utility.yul\":4480:4899   */\n      swap2\n      swap1\n      pop\n      jump\t// out\n        /* \"#utility.yul\":4905:5084   */\n    tag_111:\n        /* \"#utility.yul\":5045:5076   */\n      0x4c6f636b20706572696f6420686173206e6f7420656e64656420796574000000\n        /* \"#utility.yul\":5041:5042   */\n      0x00\n        /* \"#utility.yul\":5033:5039   */\n      dup3\n        /* \"#utility.yul\":5029:5043   */\n      add\n        /* \"#utility.yul\":5022:5077   */\n      mstore\n        /* \"#utility.yul\":4905:5084   */\n      pop\n      jump\t// out\n        /* \"#utility.yul\":5090:5456   */\n    tag_112:\n        /* \"#utility.yul\":5232:5235   */\n      0x00\n        /* \"#utility.yul\":5253:5320   */\n      tag_178\n        /* \"#utility.yul\":5317:5319   */\n      0x1d\n        /* \"#utility.yul\":5312:5315   */\n      dup4\n        /* \"#utility.yul\":5253:5320   */\n      tag_108\n      jump\t// in\n    tag_178:\n        /* \"#utility.yul\":5246:5320   */\n      swap2\n      pop\n        /* \"#utility.yul\":5329:5422   */\n      tag_179\n        /* \"#utility.yul\":5418:5421   */\n      dup3\n        /* \"#utility.yul\":5329:5422   */\n      tag_111\n      jump\t// in\n    tag_179:\n        /* \"#utility.yul\":5447:5449   */\n      0x20\n        /* \"#utility.yul\":5442:5445   */\n      dup3\n        /* \"#utility.yul\":5438:5450   */\n      add\n        /* \"#utility.yul\":5431:5450   */\n      swap1\n      pop\n        /* \"#utility.yul\":5090:5456   */\n      swap2\n      swap1\n      pop\n      jump\t// out\n        /* \"#utility.yul\":5462:5881   */\n    tag_47:\n        /* \"#utility.yul\":5628:5632   */\n      0x00\n        /* \"#utility.yul\":5666:5668   */\n      0x20\n        /* \"#utility.yul\":5655:5664   */\n      dup3\n        /* \"#utility.yul\":5651:5669   */\n      add\n        /* \"#utility.yul\":5643:5669   */\n      swap1\n      pop\n        /* \"#utility.yul\":5715:5724   */\n      dup2\n        /* \"#utility.yul\":5709:5713   */\n      dup2\n        /* \"#utility.yul\":5705:5725   */\n      sub\n        /* \"#utility.yul\":5701:5702   */\n      0x00\n        /* \"#utility.yul\":5690:5699   */\n      dup4\n        /* \"#utility.yul\":5686:5703   */\n      add\n        /* \"#utility.yul\":5679:5726   */\n      mstore\n        /* \"#utility.yul\":5743:5874   */\n      tag_181\n        /* \"#utility.yul\":5869:5873   */\n      dup2\n        /* \"#utility.yul\":5743:5874   */\n      tag_112\n      jump\t// in\n    tag_181:\n        /* \"#utility.yul\":5735:5874   */\n      swap1\n      pop\n        /* \"#utility.yul\":5462:5881   */\n      swap2\n      swap1\n      pop\n      jump\t// out\n        /* \"#utility.yul\":5887:6124   */\n    tag_113:\n        /* \"#utility.yul\":6027:6061   */\n      0x4f6e6c7920746865204e46544d616e6167656d656e7420636f6e747261637420\n        /* \"#utility.yul\":6023:6024   */\n      0x00\n        /* \"#utility.yul\":6015:6021   */\n      dup3\n        /* \"#utility.yul\":6011:6025   */\n      add\n        /* \"#utility.yul\":6004:6062   */\n      mstore\n        /* \"#utility.yul\":6096:6116   */\n      0x63616e20756e6c6f636b20746865204e46540000000000000000000000000000\n        /* \"#utility.yul\":6091:6093   */\n      0x20\n        /* \"#utility.yul\":6083:6089   */\n      dup3\n        /* \"#utility.yul\":6079:6094   */\n      add\n        /* \"#utility.yul\":6072:6117   */\n      mstore\n        /* \"#utility.yul\":5887:6124   */\n      pop\n      jump\t// out\n        /* \"#utility.yul\":6130:6496   */\n    tag_114:\n        /* \"#utility.yul\":6272:6275   */\n      0x00\n        /* \"#utility.yul\":6293:6360   */\n      tag_184\n        /* \"#utility.yul\":6357:6359   */\n      0x32\n        /* \"#utility.yul\":6352:6355   */\n      dup4\n        /* \"#utility.yul\":6293:6360   */\n      tag_108\n      jump\t// in\n    tag_184:\n        /* \"#utility.yul\":6286:6360   */\n      swap2\n      pop\n        /* \"#utility.yul\":6369:6462   */\n      tag_185\n        /* \"#utility.yul\":6458:6461   */\n      dup3\n        /* \"#utility.yul\":6369:6462   */\n      tag_113\n      jump\t// in\n    tag_185:\n        /* \"#utility.yul\":6487:6489   */\n      0x40\n        /* \"#utility.yul\":6482:6485   */\n      dup3\n        /* \"#utility.yul\":6478:6490   */\n      add\n        /* \"#utility.yul\":6471:6490   */\n      swap1\n      pop\n        /* \"#utility.yul\":6130:6496   */\n      swap2\n      swap1\n      pop\n      jump\t// out\n        /* \"#utility.yul\":6502:6921   */\n    tag_50:\n        /* \"#utility.yul\":6668:6672   */\n      0x00\n        /* \"#utility.yul\":6706:6708   */\n      0x20\n        /* \"#utility.yul\":6695:6704   */\n      dup3\n        /* \"#utility.yul\":6691:6709   */\n      add\n        /* \"#utility.yul\":6683:6709   */\n      swap1\n      pop\n        /* \"#utility.yul\":6755:6764   */\n      dup2\n        /* \"#utility.yul\":6749:6753   */\n      dup2\n        /* \"#utility.yul\":6745:6765   */\n      sub\n        /* \"#utility.yul\":6741:6742   */\n      0x00\n        /* \"#utility.yul\":6730:6739   */\n      dup4\n        /* \"#utility.yul\":6726:6743   */\n      add\n        /* \"#utility.yul\":6719:6766   */\n      mstore\n        /* \"#utility.yul\":6783:6914   */\n      tag_187\n        /* \"#utility.yul\":6909:6913   */\n      dup2\n        /* \"#utility.yul\":6783:6914   */\n      tag_114\n      jump\t// in\n    tag_187:\n        /* \"#utility.yul\":6775:6914   */\n      swap1\n      pop\n        /* \"#utility.yul\":6502:6921   */\n      swap2\n      swap1\n      pop\n      jump\t// out\n        /* \"#utility.yul\":6927:7149   */\n    tag_57:\n        /* \"#utility.yul\":7020:7024   */\n      0x00\n        /* \"#utility.yul\":7058:7060   */\n      0x20\n        /* \"#utility.yul\":7047:7056   */\n      dup3\n        /* \"#utility.yul\":7043:7061   */\n      add\n        /* \"#utility.yul\":7035:7061   */\n      swap1\n      pop\n        /* \"#utility.yul\":7071:7142   */\n      tag_189\n        /* \"#utility.yul\":7139:7140   */\n      0x00\n        /* \"#utility.yul\":7128:7137   */\n      dup4\n        /* \"#utility.yul\":7124:7141   */\n      add\n        /* \"#utility.yul\":7115:7121   */\n      dup5\n        /* \"#utility.yul\":7071:7142   */\n      tag_104\n      jump\t// in\n    tag_189:\n        /* \"#utility.yul\":6927:7149   */\n      swap3\n      swap2\n      pop\n      pop\n      jump\t// out\n        /* \"#utility.yul\":7155:7298   */\n    tag_115:\n        /* \"#utility.yul\":7212:7217   */\n      0x00\n        /* \"#utility.yul\":7243:7249   */\n      dup2\n        /* \"#utility.yul\":7237:7250   */\n      mload\n        /* \"#utility.yul\":7228:7250   */\n      swap1\n      pop\n        /* \"#utility.yul\":7259:7292   */\n      tag_191\n        /* \"#utility.yul\":7286:7291   */\n      dup2\n        /* \"#utility.yul\":7259:7292   */\n      tag_99\n      jump\t// in\n    tag_191:\n        /* \"#utility.yul\":7155:7298   */\n      swap3\n      swap2\n      pop\n      pop\n      jump\t// out\n        /* \"#utility.yul\":7304:7655   */\n    tag_61:\n        /* \"#utility.yul\":7374:7380   */\n      0x00\n        /* \"#utility.yul\":7423:7425   */\n      0x20\n        /* \"#utility.yul\":7411:7420   */\n      dup3\n        /* \"#utility.yul\":7402:7409   */\n      dup5\n        /* \"#utility.yul\":7398:7421   */\n      sub\n        /* \"#utility.yul\":7394:7426   */\n      slt\n        /* \"#utility.yul\":7391:7510   */\n      iszero\n      tag_193\n      jumpi\n        /* \"#utility.yul\":7429:7508   */\n      tag_194\n      tag_95\n      jump\t// in\n    tag_194:\n        /* \"#utility.yul\":7391:7510   */\n    tag_193:\n        /* \"#utility.yul\":7549:7550   */\n      0x00\n        /* \"#utility.yul\":7574:7638   */\n      tag_195\n        /* \"#utility.yul\":7630:7637   */\n      dup5\n        /* \"#utility.yul\":7621:7627   */\n      dup3\n        /* \"#utility.yul\":7610:7619   */\n      dup6\n        /* \"#utility.yul\":7606:7628   */\n      add\n        /* \"#utility.yul\":7574:7638   */\n      tag_115\n      jump\t// in\n    tag_195:\n        /* \"#utility.yul\":7564:7638   */\n      swap2\n      pop\n        /* \"#utility.yul\":7520:7648   */\n      pop\n        /* \"#utility.yul\":7304:7655   */\n      swap3\n      swap2\n      pop\n      pop\n      jump\t// out\n        /* \"#utility.yul\":7661:7842   */\n    tag_116:\n        /* \"#utility.yul\":7801:7834   */\n      0x596f75206d757374206f776e20746865204e465420746f206c6f636b20697400\n        /* \"#utility.yul\":7797:7798   */\n      0x00\n        /* \"#utility.yul\":7789:7795   */\n      dup3\n        /* \"#utility.yul\":7785:7799   */\n      add\n        /* \"#utility.yul\":7778:7835   */\n      mstore\n        /* \"#utility.yul\":7661:7842   */\n      pop\n      jump\t// out\n        /* \"#utility.yul\":7848:8214   */\n    tag_117:\n        /* \"#utility.yul\":7990:7993   */\n      0x00\n        /* \"#utility.yul\":8011:8078   */\n      tag_198\n        /* \"#utility.yul\":8075:8077   */\n      0x1f\n        /* \"#utility.yul\":8070:8073   */\n      dup4\n        /* \"#utility.yul\":8011:8078   */\n      tag_108\n      jump\t// in\n    tag_198:\n        /* \"#utility.yul\":8004:8078   */\n      swap2\n      pop\n        /* \"#utility.yul\":8087:8180   */\n      tag_199\n        /* \"#utility.yul\":8176:8179   */\n      dup3\n        /* \"#utility.yul\":8087:8180   */\n      tag_116\n      jump\t// in\n    tag_199:\n        /* \"#utility.yul\":8205:8207   */\n      0x20\n        /* \"#utility.yul\":8200:8203   */\n      dup3\n        /* \"#utility.yul\":8196:8208   */\n      add\n        /* \"#utility.yul\":8189:8208   */\n      swap1\n      pop\n        /* \"#utility.yul\":7848:8214   */\n      swap2\n      swap1\n      pop\n      jump\t// out\n        /* \"#utility.yul\":8220:8639   */\n    tag_64:\n        /* \"#utility.yul\":8386:8390   */\n      0x00\n        /* \"#utility.yul\":8424:8426   */\n      0x20\n        /* \"#utility.yul\":8413:8422   */\n      dup3\n        /* \"#utility.yul\":8409:8427   */\n      add\n        /* \"#utility.yul\":8401:8427   */\n      swap1\n      pop\n        /* \"#utility.yul\":8473:8482   */\n      dup2\n        /* \"#utility.yul\":8467:8471   */\n      dup2\n        /* \"#utility.yul\":8463:8483   */\n      sub\n        /* \"#utility.yul\":8459:8460   */\n      0x00\n        /* \"#utility.yul\":8448:8457   */\n      dup4\n        /* \"#utility.yul\":8444:8461   */\n      add\n        /* \"#utility.yul\":8437:8484   */\n      mstore\n        /* \"#utility.yul\":8501:8632   */\n      tag_201\n        /* \"#utility.yul\":8627:8631   */\n      dup2\n        /* \"#utility.yul\":8501:8632   */\n      tag_117\n      jump\t// in\n    tag_201:\n        /* \"#utility.yul\":8493:8632   */\n      swap1\n      pop\n        /* \"#utility.yul\":8220:8639   */\n      swap2\n      swap1\n      pop\n      jump\t// out\n        /* \"#utility.yul\":8645:9087   */\n    tag_66:\n        /* \"#utility.yul\":8794:8798   */\n      0x00\n        /* \"#utility.yul\":8832:8834   */\n      0x60\n        /* \"#utility.yul\":8821:8830   */\n      dup3\n        /* \"#utility.yul\":8817:8835   */\n      add\n        /* \"#utility.yul\":8809:8835   */\n      swap1\n      pop\n        /* \"#utility.yul\":8845:8916   */\n      tag_203\n        /* \"#utility.yul\":8913:8914   */\n      0x00\n        /* \"#utility.yul\":8902:8911   */\n      dup4\n        /* \"#utility.yul\":8898:8915   */\n      add\n        /* \"#utility.yul\":8889:8895   */\n      dup7\n        /* \"#utility.yul\":8845:8916   */\n      tag_107\n      jump\t// in\n    tag_203:\n        /* \"#utility.yul\":8926:8998   */\n      tag_204\n        /* \"#utility.yul\":8994:8996   */\n      0x20\n        /* \"#utility.yul\":8983:8992   */\n      dup4\n        /* \"#utility.yul\":8979:8997   */\n      add\n        /* \"#utility.yul\":8970:8976   */\n      dup6\n        /* \"#utility.yul\":8926:8998   */\n      tag_107\n      jump\t// in\n    tag_204:\n        /* \"#utility.yul\":9008:9080   */\n      tag_205\n        /* \"#utility.yul\":9076:9078   */\n      0x40\n        /* \"#utility.yul\":9065:9074   */\n      dup4\n        /* \"#utility.yul\":9061:9079   */\n      add\n        /* \"#utility.yul\":9052:9058   */\n      dup5\n        /* \"#utility.yul\":9008:9080   */\n      tag_104\n      jump\t// in\n    tag_205:\n        /* \"#utility.yul\":8645:9087   */\n      swap5\n      swap4\n      pop\n      pop\n      pop\n      pop\n      jump\t// out\n        /* \"#utility.yul\":9093:9273   */\n    tag_118:\n        /* \"#utility.yul\":9141:9218   */\n      0x4e487b7100000000000000000000000000000000000000000000000000000000\n        /* \"#utility.yul\":9138:9139   */\n      0x00\n        /* \"#utility.yul\":9131:9219   */\n      mstore\n        /* \"#utility.yul\":9238:9242   */\n      0x11\n        /* \"#utility.yul\":9235:9236   */\n      0x04\n        /* \"#utility.yul\":9228:9243   */\n      mstore\n        /* \"#utility.yul\":9262:9266   */\n      0x24\n        /* \"#utility.yul\":9259:9260   */\n      0x00\n        /* \"#utility.yul\":9252:9267   */\n      revert\n        /* \"#utility.yul\":9279:9470   */\n    tag_71:\n        /* \"#utility.yul\":9319:9322   */\n      0x00\n        /* \"#utility.yul\":9338:9358   */\n      tag_208\n        /* \"#utility.yul\":9356:9357   */\n      dup3\n        /* \"#utility.yul\":9338:9358   */\n      tag_101\n      jump\t// in\n    tag_208:\n        /* \"#utility.yul\":9333:9358   */\n      swap2\n      pop\n        /* \"#utility.yul\":9372:9392   */\n      tag_209\n        /* \"#utility.yul\":9390:9391   */\n      dup4\n        /* \"#utility.yul\":9372:9392   */\n      tag_101\n      jump\t// in\n    tag_209:\n        /* \"#utility.yul\":9367:9392   */\n      swap3\n      pop\n        /* \"#utility.yul\":9415:9416   */\n      dup3\n        /* \"#utility.yul\":9412:9413   */\n      dup3\n        /* \"#utility.yul\":9408:9417   */\n      add\n        /* \"#utility.yul\":9401:9417   */\n      swap1\n      pop\n        /* \"#utility.yul\":9436:9439   */\n      dup1\n        /* \"#utility.yul\":9433:9434   */\n      dup3\n        /* \"#utility.yul\":9430:9440   */\n      gt\n        /* \"#utility.yul\":9427:9463   */\n      iszero\n      tag_210\n      jumpi\n        /* \"#utility.yul\":9443:9461   */\n      tag_211\n      tag_118\n      jump\t// in\n    tag_211:\n        /* \"#utility.yul\":9427:9463   */\n    tag_210:\n        /* \"#utility.yul\":9279:9470   */\n      swap3\n      swap2\n      pop\n      pop\n      jump\t// out\n        /* \"#utility.yul\":9476:9701   */\n    tag_119:\n        /* \"#utility.yul\":9616:9650   */\n      0x4f776e61626c653a206e6577206f776e657220697320746865207a65726f2061\n        /* \"#utility.yul\":9612:9613   */\n      0x00\n        /* \"#utility.yul\":9604:9610   */\n      dup3\n        /* \"#utility.yul\":9600:9614   */\n      add\n        /* \"#utility.yul\":9593:9651   */\n      mstore\n        /* \"#utility.yul\":9685:9693   */\n      0x6464726573730000000000000000000000000000000000000000000000000000\n        /* \"#utility.yul\":9680:9682   */\n      0x20\n        /* \"#utility.yul\":9672:9678   */\n      dup3\n        /* \"#utility.yul\":9668:9683   */\n      add\n        /* \"#utility.yul\":9661:9694   */\n      mstore\n        /* \"#utility.yul\":9476:9701   */\n      pop\n      jump\t// out\n        /* \"#utility.yul\":9707:10073   */\n    tag_120:\n        /* \"#utility.yul\":9849:9852   */\n      0x00\n        /* \"#utility.yul\":9870:9937   */\n      tag_214\n        /* \"#utility.yul\":9934:9936   */\n      0x26\n        /* \"#utility.yul\":9929:9932   */\n      dup4\n        /* \"#utility.yul\":9870:9937   */\n      tag_108\n      jump\t// in\n    tag_214:\n        /* \"#utility.yul\":9863:9937   */\n      swap2\n      pop\n        /* \"#utility.yul\":9946:10039   */\n      tag_215\n        /* \"#utility.yul\":10035:10038   */\n      dup3\n        /* \"#utility.yul\":9946:10039   */\n      tag_119\n      jump\t// in\n    tag_215:\n        /* \"#utility.yul\":10064:10066   */\n      0x40\n        /* \"#utility.yul\":10059:10062   */\n      dup3\n        /* \"#utility.yul\":10055:10067   */\n      add\n        /* \"#utility.yul\":10048:10067   */\n      swap1\n      pop\n        /* \"#utility.yul\":9707:10073   */\n      swap2\n      swap1\n      pop\n      jump\t// out\n        /* \"#utility.yul\":10079:10498   */\n    tag_83:\n        /* \"#utility.yul\":10245:10249   */\n      0x00\n        /* \"#utility.yul\":10283:10285   */\n      0x20\n        /* \"#utility.yul\":10272:10281   */\n      dup3\n        /* \"#utility.yul\":10268:10286   */\n      add\n        /* \"#utility.yul\":10260:10286   */\n      swap1\n      pop\n        /* \"#utility.yul\":10332:10341   */\n      dup2\n        /* \"#utility.yul\":10326:10330   */\n      dup2\n        /* \"#utility.yul\":10322:10342   */\n      sub\n        /* \"#utility.yul\":10318:10319   */\n      0x00\n        /* \"#utility.yul\":10307:10316   */\n      dup4\n        /* \"#utility.yul\":10303:10320   */\n      add\n        /* \"#utility.yul\":10296:10343   */\n      mstore\n        /* \"#utility.yul\":10360:10491   */\n      tag_217\n        /* \"#utility.yul\":10486:10490   */\n      dup2\n        /* \"#utility.yul\":10360:10491   */\n      tag_120\n      jump\t// in\n    tag_217:\n        /* \"#utility.yul\":10352:10491   */\n      swap1\n      pop\n        /* \"#utility.yul\":10079:10498   */\n      swap2\n      swap1\n      pop\n      jump\t// out\n        /* \"#utility.yul\":10504:10686   */\n    tag_121:\n        /* \"#utility.yul\":10644:10678   */\n      0x4f776e61626c653a2063616c6c6572206973206e6f7420746865206f776e6572\n        /* \"#utility.yul\":10640:10641   */\n      0x00\n        /* \"#utility.yul\":10632:10638   */\n      dup3\n        /* \"#utility.yul\":10628:10642   */\n      add\n        /* \"#utility.yul\":10621:10679   */\n      mstore\n        /* \"#utility.yul\":10504:10686   */\n      pop\n      jump\t// out\n        /* \"#utility.yul\":10692:11058   */\n    tag_122:\n        /* \"#utility.yul\":10834:10837   */\n      0x00\n        /* \"#utility.yul\":10855:10922   */\n      tag_220\n        /* \"#utility.yul\":10919:10921   */\n      0x20\n        /* \"#utility.yul\":10914:10917   */\n      dup4\n        /* \"#utility.yul\":10855:10922   */\n      tag_108\n      jump\t// in\n    tag_220:\n        /* \"#utility.yul\":10848:10922   */\n      swap2\n      pop\n        /* \"#utility.yul\":10931:11024   */\n      tag_221\n        /* \"#utility.yul\":11020:11023   */\n      dup3\n        /* \"#utility.yul\":10931:11024   */\n      tag_121\n      jump\t// in\n    tag_221:\n        /* \"#utility.yul\":11049:11051   */\n      0x20\n        /* \"#utility.yul\":11044:11047   */\n      dup3\n        /* \"#utility.yul\":11040:11052   */\n      add\n        /* \"#utility.yul\":11033:11052   */\n      swap1\n      pop\n        /* \"#utility.yul\":10692:11058   */\n      swap2\n      swap1\n      pop\n      jump\t// out\n        /* \"#utility.yul\":11064:11483   */\n    tag_91:\n        /* \"#utility.yul\":11230:11234   */\n      0x00\n        /* \"#utility.yul\":11268:11270   */\n      0x20\n        /* \"#utility.yul\":11257:11266   */\n      dup3\n        /* \"#utility.yul\":11253:11271   */\n      add\n        /* \"#utility.yul\":11245:11271   */\n      swap1\n      pop\n        /* \"#utility.yul\":11317:11326   */\n      dup2\n        /* \"#utility.yul\":11311:11315   */\n      dup2\n        /* \"#utility.yul\":11307:11327   */\n      sub\n        /* \"#utility.yul\":11303:11304   */\n      0x00\n        /* \"#utility.yul\":11292:11301   */\n      dup4\n        /* \"#utility.yul\":11288:11305   */\n      add\n        /* \"#utility.yul\":11281:11328   */\n      mstore\n        /* \"#utility.yul\":11345:11476   */\n      tag_223\n        /* \"#utility.yul\":11471:11475   */\n      dup2\n        /* \"#utility.yul\":11345:11476   */\n      tag_122\n      jump\t// in\n    tag_223:\n        /* \"#utility.yul\":11337:11476   */\n      swap1\n      pop\n        /* \"#utility.yul\":11064:11483   */\n      swap2\n      swap1\n      pop\n      jump\t// out\n\n    auxdata: 0xa264697066735822122058a4870b9bfcc53b03e1054172810334c7f7e1a1aad979e07a413dd24c197f2164736f6c634300081a0033\n}\n",
				"bytecode": {
					"linkReferences": {},
					"object": "608060405234801561000f575f80fd5b50604051610f6d380380610f6d833981810160405281019061003191906101b9565b61004d61004261009360201b60201c565b61009a60201b60201c565b8060025f6101000a81548173ffffffffffffffffffffffffffffffffffffffff021916908373ffffffffffffffffffffffffffffffffffffffff160217905550506101e4565b5f33905090565b5f805f9054906101000a900473ffffffffffffffffffffffffffffffffffffffff169050815f806101000a81548173ffffffffffffffffffffffffffffffffffffffff021916908373ffffffffffffffffffffffffffffffffffffffff1602179055508173ffffffffffffffffffffffffffffffffffffffff168173ffffffffffffffffffffffffffffffffffffffff167f8be0079c531659141344cd1fd0a4f28419497f9722a3daafe3b4186f6b6457e060405160405180910390a35050565b5f80fd5b5f73ffffffffffffffffffffffffffffffffffffffff82169050919050565b5f6101888261015f565b9050919050565b6101988161017e565b81146101a2575f80fd5b50565b5f815190506101b38161018f565b92915050565b5f602082840312156101ce576101cd61015b565b5b5f6101db848285016101a5565b91505092915050565b610d7c806101f15f395ff3fe608060405234801561000f575f80fd5b5060043610610086575f3560e01c8063715018a611610059578063715018a6146101105780638da5cb5b1461011a578063c2d0998014610138578063f2fde38b1461015657610086565b80632672c0021461008a57806330486a25146100a65780633a5e2b20146100c257806354c993ac146100f4575b5f80fd5b6100a4600480360381019061009f919061084e565b610172565b005b6100c060048036038101906100bb919061088c565b610307565b005b6100dc60048036038101906100d7919061084e565b610352565b6040516100eb939291906108e0565b60405180910390f35b61010e60048036038101906101099190610915565b61038f565b005b610118610596565b005b6101226105a9565b60405161012f9190610974565b60405180910390f35b6101406105d0565b60405161014d9190610974565b60405180910390f35b610170600480360381019061016b919061088c565b6105f5565b005b5f60015f8473ffffffffffffffffffffffffffffffffffffffff1673ffffffffffffffffffffffffffffffffffffffff1681526020019081526020015f205f8381526020019081526020015f209050806002015f9054906101000a900460ff16610211576040517f08c379a0000000000000000000000000000000000000000000000000000000008152600401610208906109e7565b60405180910390fd5b8060010154431015610258576040517f08c379a000000000000000000000000000000000000000000000000000000000815260040161024f90610a4f565b60405180910390fd5b60025f9054906101000a900473ffffffffffffffffffffffffffffffffffffffff1673ffffffffffffffffffffffffffffffffffffffff163373ffffffffffffffffffffffffffffffffffffffff16146102e7576040517f08c379a00000000000000000000000000000000000000000000000000000000081526004016102de90610add565b60405180910390fd5b5f816002015f6101000a81548160ff021916908315150217905550505050565b61030f610677565b8060025f6101000a81548173ffffffffffffffffffffffffffffffffffffffff021916908373ffffffffffffffffffffffffffffffffffffffff16021790555050565b6001602052815f5260405f20602052805f5260405f205f9150915050805f015490806001015490806002015f9054906101000a900460ff16905083565b5f8390503373ffffffffffffffffffffffffffffffffffffffff168173ffffffffffffffffffffffffffffffffffffffff16636352211e856040518263ffffffff1660e01b81526004016103e39190610afb565b602060405180830381865afa1580156103fe573d5f803e3d5ffd5b505050506040513d601f19601f820116820180604052508101906104229190610b28565b73ffffffffffffffffffffffffffffffffffffffff1614610478576040517f08c379a000000000000000000000000000000000000000000000000000000000815260040161046f90610b9d565b60405180910390fd5b8073ffffffffffffffffffffffffffffffffffffffff166323b872dd3330866040518463ffffffff1660e01b81526004016104b593929190610bbb565b5f604051808303815f87803b1580156104cc575f80fd5b505af11580156104de573d5f803e3d5ffd5b505050505f82436104ef9190610c1d565b905060405180606001604052808581526020018281526020016001151581525060015f8773ffffffffffffffffffffffffffffffffffffffff1673ffffffffffffffffffffffffffffffffffffffff1681526020019081526020015f205f8681526020019081526020015f205f820151815f0155602082015181600101556040820151816002015f6101000a81548160ff0219169083151502179055509050505050505050565b61059e610677565b6105a75f6106f5565b565b5f805f9054906101000a900473ffffffffffffffffffffffffffffffffffffffff16905090565b60025f9054906101000a900473ffffffffffffffffffffffffffffffffffffffff1681565b6105fd610677565b5f73ffffffffffffffffffffffffffffffffffffffff168173ffffffffffffffffffffffffffffffffffffffff160361066b576040517f08c379a000000000000000000000000000000000000000000000000000000000815260040161066290610cc0565b60405180910390fd5b610674816106f5565b50565b61067f6107b6565b73ffffffffffffffffffffffffffffffffffffffff1661069d6105a9565b73ffffffffffffffffffffffffffffffffffffffff16146106f3576040517f08c379a00000000000000000000000000000000000000000000000000000000081526004016106ea90610d28565b60405180910390fd5b565b5f805f9054906101000a900473ffffffffffffffffffffffffffffffffffffffff169050815f806101000a81548173ffffffffffffffffffffffffffffffffffffffff021916908373ffffffffffffffffffffffffffffffffffffffff1602179055508173ffffffffffffffffffffffffffffffffffffffff168173ffffffffffffffffffffffffffffffffffffffff167f8be0079c531659141344cd1fd0a4f28419497f9722a3daafe3b4186f6b6457e060405160405180910390a35050565b5f33905090565b5f80fd5b5f73ffffffffffffffffffffffffffffffffffffffff82169050919050565b5f6107ea826107c1565b9050919050565b6107fa816107e0565b8114610804575f80fd5b50565b5f81359050610815816107f1565b92915050565b5f819050919050565b61082d8161081b565b8114610837575f80fd5b50565b5f8135905061084881610824565b92915050565b5f8060408385031215610864576108636107bd565b5b5f61087185828601610807565b92505060206108828582860161083a565b9150509250929050565b5f602082840312156108a1576108a06107bd565b5b5f6108ae84828501610807565b91505092915050565b6108c08161081b565b82525050565b5f8115159050919050565b6108da816108c6565b82525050565b5f6060820190506108f35f8301866108b7565b61090060208301856108b7565b61090d60408301846108d1565b949350505050565b5f805f6060848603121561092c5761092b6107bd565b5b5f61093986828701610807565b935050602061094a8682870161083a565b925050604061095b8682870161083a565b9150509250925092565b61096e816107e0565b82525050565b5f6020820190506109875f830184610965565b92915050565b5f82825260208201905092915050565b7f4e4654206973206e6f74206c6f636b65640000000000000000000000000000005f82015250565b5f6109d160118361098d565b91506109dc8261099d565b602082019050919050565b5f6020820190508181035f8301526109fe816109c5565b9050919050565b7f4c6f636b20706572696f6420686173206e6f7420656e646564207965740000005f82015250565b5f610a39601d8361098d565b9150610a4482610a05565b602082019050919050565b5f6020820190508181035f830152610a6681610a2d565b9050919050565b7f4f6e6c7920746865204e46544d616e6167656d656e7420636f6e7472616374205f8201527f63616e20756e6c6f636b20746865204e46540000000000000000000000000000602082015250565b5f610ac760328361098d565b9150610ad282610a6d565b604082019050919050565b5f6020820190508181035f830152610af481610abb565b9050919050565b5f602082019050610b0e5f8301846108b7565b92915050565b5f81519050610b22816107f1565b92915050565b5f60208284031215610b3d57610b3c6107bd565b5b5f610b4a84828501610b14565b91505092915050565b7f596f75206d757374206f776e20746865204e465420746f206c6f636b206974005f82015250565b5f610b87601f8361098d565b9150610b9282610b53565b602082019050919050565b5f6020820190508181035f830152610bb481610b7b565b9050919050565b5f606082019050610bce5f830186610965565b610bdb6020830185610965565b610be860408301846108b7565b949350505050565b7f4e487b71000000000000000000000000000000000000000000000000000000005f52601160045260245ffd5b5f610c278261081b565b9150610c328361081b565b9250828201905080821115610c4a57610c49610bf0565b5b92915050565b7f4f776e61626c653a206e6577206f776e657220697320746865207a65726f20615f8201527f6464726573730000000000000000000000000000000000000000000000000000602082015250565b5f610caa60268361098d565b9150610cb582610c50565b604082019050919050565b5f6020820190508181035f830152610cd781610c9e565b9050919050565b7f4f776e61626c653a2063616c6c6572206973206e6f7420746865206f776e65725f82015250565b5f610d1260208361098d565b9150610d1d82610cde565b602082019050919050565b5f6020820190508181035f830152610d3f81610d06565b905091905056fea264697066735822122058a4870b9bfcc53b03e1054172810334c7f7e1a1aad979e07a413dd24c197f2164736f6c634300081a0033",
					"opcodes": "PUSH1 0x80 PUSH1 0x40 MSTORE CALLVALUE DUP1 ISZERO PUSH2 0xF JUMPI PUSH0 DUP1 REVERT JUMPDEST POP PUSH1 0x40 MLOAD PUSH2 0xF6D CODESIZE SUB DUP1 PUSH2 0xF6D DUP4 CODECOPY DUP2 DUP2 ADD PUSH1 0x40 MSTORE DUP2 ADD SWAP1 PUSH2 0x31 SWAP2 SWAP1 PUSH2 0x1B9 JUMP JUMPDEST PUSH2 0x4D PUSH2 0x42 PUSH2 0x93 PUSH1 0x20 SHL PUSH1 0x20 SHR JUMP JUMPDEST PUSH2 0x9A PUSH1 0x20 SHL PUSH1 0x20 SHR JUMP JUMPDEST DUP1 PUSH1 0x2 PUSH0 PUSH2 0x100 EXP DUP2 SLOAD DUP2 PUSH20 0xFFFFFFFFFFFFFFFFFFFFFFFFFFFFFFFFFFFFFFFF MUL NOT AND SWAP1 DUP4 PUSH20 0xFFFFFFFFFFFFFFFFFFFFFFFFFFFFFFFFFFFFFFFF AND MUL OR SWAP1 SSTORE POP POP PUSH2 0x1E4 JUMP JUMPDEST PUSH0 CALLER SWAP1 POP SWAP1 JUMP JUMPDEST PUSH0 DUP1 PUSH0 SWAP1 SLOAD SWAP1 PUSH2 0x100 EXP SWAP1 DIV PUSH20 0xFFFFFFFFFFFFFFFFFFFFFFFFFFFFFFFFFFFFFFFF AND SWAP1 POP DUP2 PUSH0 DUP1 PUSH2 0x100 EXP DUP2 SLOAD DUP2 PUSH20 0xFFFFFFFFFFFFFFFFFFFFFFFFFFFFFFFFFFFFFFFF MUL NOT AND SWAP1 DUP4 PUSH20 0xFFFFFFFFFFFFFFFFFFFFFFFFFFFFFFFFFFFFFFFF AND MUL OR SWAP1 SSTORE POP DUP2 PUSH20 0xFFFFFFFFFFFFFFFFFFFFFFFFFFFFFFFFFFFFFFFF AND DUP2 PUSH20 0xFFFFFFFFFFFFFFFFFFFFFFFFFFFFFFFFFFFFFFFF AND PUSH32 0x8BE0079C531659141344CD1FD0A4F28419497F9722A3DAAFE3B4186F6B6457E0 PUSH1 0x40 MLOAD PUSH1 0x40 MLOAD DUP1 SWAP2 SUB SWAP1 LOG3 POP POP JUMP JUMPDEST PUSH0 DUP1 REVERT JUMPDEST PUSH0 PUSH20 0xFFFFFFFFFFFFFFFFFFFFFFFFFFFFFFFFFFFFFFFF DUP3 AND SWAP1 POP SWAP2 SWAP1 POP JUMP JUMPDEST PUSH0 PUSH2 0x188 DUP3 PUSH2 0x15F JUMP JUMPDEST SWAP1 POP SWAP2 SWAP1 POP JUMP JUMPDEST PUSH2 0x198 DUP2 PUSH2 0x17E JUMP JUMPDEST DUP2 EQ PUSH2 0x1A2 JUMPI PUSH0 DUP1 REVERT JUMPDEST POP JUMP JUMPDEST PUSH0 DUP2 MLOAD SWAP1 POP PUSH2 0x1B3 DUP2 PUSH2 0x18F JUMP JUMPDEST SWAP3 SWAP2 POP POP JUMP JUMPDEST PUSH0 PUSH1 0x20 DUP3 DUP5 SUB SLT ISZERO PUSH2 0x1CE JUMPI PUSH2 0x1CD PUSH2 0x15B JUMP JUMPDEST JUMPDEST PUSH0 PUSH2 0x1DB DUP5 DUP3 DUP6 ADD PUSH2 0x1A5 JUMP JUMPDEST SWAP2 POP POP SWAP3 SWAP2 POP POP JUMP JUMPDEST PUSH2 0xD7C DUP1 PUSH2 0x1F1 PUSH0 CODECOPY PUSH0 RETURN INVALID PUSH1 0x80 PUSH1 0x40 MSTORE CALLVALUE DUP1 ISZERO PUSH2 0xF JUMPI PUSH0 DUP1 REVERT JUMPDEST POP PUSH1 0x4 CALLDATASIZE LT PUSH2 0x86 JUMPI PUSH0 CALLDATALOAD PUSH1 0xE0 SHR DUP1 PUSH4 0x715018A6 GT PUSH2 0x59 JUMPI DUP1 PUSH4 0x715018A6 EQ PUSH2 0x110 JUMPI DUP1 PUSH4 0x8DA5CB5B EQ PUSH2 0x11A JUMPI DUP1 PUSH4 0xC2D09980 EQ PUSH2 0x138 JUMPI DUP1 PUSH4 0xF2FDE38B EQ PUSH2 0x156 JUMPI PUSH2 0x86 JUMP JUMPDEST DUP1 PUSH4 0x2672C002 EQ PUSH2 0x8A JUMPI DUP1 PUSH4 0x30486A25 EQ PUSH2 0xA6 JUMPI DUP1 PUSH4 0x3A5E2B20 EQ PUSH2 0xC2 JUMPI DUP1 PUSH4 0x54C993AC EQ PUSH2 0xF4 JUMPI JUMPDEST PUSH0 DUP1 REVERT JUMPDEST PUSH2 0xA4 PUSH1 0x4 DUP1 CALLDATASIZE SUB DUP2 ADD SWAP1 PUSH2 0x9F SWAP2 SWAP1 PUSH2 0x84E JUMP JUMPDEST PUSH2 0x172 JUMP JUMPDEST STOP JUMPDEST PUSH2 0xC0 PUSH1 0x4 DUP1 CALLDATASIZE SUB DUP2 ADD SWAP1 PUSH2 0xBB SWAP2 SWAP1 PUSH2 0x88C JUMP JUMPDEST PUSH2 0x307 JUMP JUMPDEST STOP JUMPDEST PUSH2 0xDC PUSH1 0x4 DUP1 CALLDATASIZE SUB DUP2 ADD SWAP1 PUSH2 0xD7 SWAP2 SWAP1 PUSH2 0x84E JUMP JUMPDEST PUSH2 0x352 JUMP JUMPDEST PUSH1 0x40 MLOAD PUSH2 0xEB SWAP4 SWAP3 SWAP2 SWAP1 PUSH2 0x8E0 JUMP JUMPDEST PUSH1 0x40 MLOAD DUP1 SWAP2 SUB SWAP1 RETURN JUMPDEST PUSH2 0x10E PUSH1 0x4 DUP1 CALLDATASIZE SUB DUP2 ADD SWAP1 PUSH2 0x109 SWAP2 SWAP1 PUSH2 0x915 JUMP JUMPDEST PUSH2 0x38F JUMP JUMPDEST STOP JUMPDEST PUSH2 0x118 PUSH2 0x596 JUMP JUMPDEST STOP JUMPDEST PUSH2 0x122 PUSH2 0x5A9 JUMP JUMPDEST PUSH1 0x40 MLOAD PUSH2 0x12F SWAP2 SWAP1 PUSH2 0x974 JUMP JUMPDEST PUSH1 0x40 MLOAD DUP1 SWAP2 SUB SWAP1 RETURN JUMPDEST PUSH2 0x140 PUSH2 0x5D0 JUMP JUMPDEST PUSH1 0x40 MLOAD PUSH2 0x14D SWAP2 SWAP1 PUSH2 0x974 JUMP JUMPDEST PUSH1 0x40 MLOAD DUP1 SWAP2 SUB SWAP1 RETURN JUMPDEST PUSH2 0x170 PUSH1 0x4 DUP1 CALLDATASIZE SUB DUP2 ADD SWAP1 PUSH2 0x16B SWAP2 SWAP1 PUSH2 0x88C JUMP JUMPDEST PUSH2 0x5F5 JUMP JUMPDEST STOP JUMPDEST PUSH0 PUSH1 0x1 PUSH0 DUP5 PUSH20 0xFFFFFFFFFFFFFFFFFFFFFFFFFFFFFFFFFFFFFFFF AND PUSH20 0xFFFFFFFFFFFFFFFFFFFFFFFFFFFFFFFFFFFFFFFF AND DUP2 MSTORE PUSH1 0x20 ADD SWAP1 DUP2 MSTORE PUSH1 0x20 ADD PUSH0 KECCAK256 PUSH0 DUP4 DUP2 MSTORE PUSH1 0x20 ADD SWAP1 DUP2 MSTORE PUSH1 0x20 ADD PUSH0 KECCAK256 SWAP1 POP DUP1 PUSH1 0x2 ADD PUSH0 SWAP1 SLOAD SWAP1 PUSH2 0x100 EXP SWAP1 DIV PUSH1 0xFF AND PUSH2 0x211 JUMPI PUSH1 0x40 MLOAD PUSH32 0x8C379A000000000000000000000000000000000000000000000000000000000 DUP2 MSTORE PUSH1 0x4 ADD PUSH2 0x208 SWAP1 PUSH2 0x9E7 JUMP JUMPDEST PUSH1 0x40 MLOAD DUP1 SWAP2 SUB SWAP1 REVERT JUMPDEST DUP1 PUSH1 0x1 ADD SLOAD NUMBER LT ISZERO PUSH2 0x258 JUMPI PUSH1 0x40 MLOAD PUSH32 0x8C379A000000000000000000000000000000000000000000000000000000000 DUP2 MSTORE PUSH1 0x4 ADD PUSH2 0x24F SWAP1 PUSH2 0xA4F JUMP JUMPDEST PUSH1 0x40 MLOAD DUP1 SWAP2 SUB SWAP1 REVERT JUMPDEST PUSH1 0x2 PUSH0 SWAP1 SLOAD SWAP1 PUSH2 0x100 EXP SWAP1 DIV PUSH20 0xFFFFFFFFFFFFFFFFFFFFFFFFFFFFFFFFFFFFFFFF AND PUSH20 0xFFFFFFFFFFFFFFFFFFFFFFFFFFFFFFFFFFFFFFFF AND CALLER PUSH20 0xFFFFFFFFFFFFFFFFFFFFFFFFFFFFFFFFFFFFFFFF AND EQ PUSH2 0x2E7 JUMPI PUSH1 0x40 MLOAD PUSH32 0x8C379A000000000000000000000000000000000000000000000000000000000 DUP2 MSTORE PUSH1 0x4 ADD PUSH2 0x2DE SWAP1 PUSH2 0xADD JUMP JUMPDEST PUSH1 0x40 MLOAD DUP1 SWAP2 SUB SWAP1 REVERT JUMPDEST PUSH0 DUP2 PUSH1 0x2 ADD PUSH0 PUSH2 0x100 EXP DUP2 SLOAD DUP2 PUSH1 0xFF MUL NOT AND SWAP1 DUP4 ISZERO ISZERO MUL OR SWAP1 SSTORE POP POP POP POP JUMP JUMPDEST PUSH2 0x30F PUSH2 0x677 JUMP JUMPDEST DUP1 PUSH1 0x2 PUSH0 PUSH2 0x100 EXP DUP2 SLOAD DUP2 PUSH20 0xFFFFFFFFFFFFFFFFFFFFFFFFFFFFFFFFFFFFFFFF MUL NOT AND SWAP1 DUP4 PUSH20 0xFFFFFFFFFFFFFFFFFFFFFFFFFFFFFFFFFFFFFFFF AND MUL OR SWAP1 SSTORE POP POP JUMP JUMPDEST PUSH1 0x1 PUSH1 0x20 MSTORE DUP2 PUSH0 MSTORE PUSH1 0x40 PUSH0 KECCAK256 PUSH1 0x20 MSTORE DUP1 PUSH0 MSTORE PUSH1 0x40 PUSH0 KECCAK256 PUSH0 SWAP2 POP SWAP2 POP POP DUP1 PUSH0 ADD SLOAD SWAP1 DUP1 PUSH1 0x1 ADD SLOAD SWAP1 DUP1 PUSH1 0x2 ADD PUSH0 SWAP1 SLOAD SWAP1 PUSH2 0x100 EXP SWAP1 DIV PUSH1 0xFF AND SWAP1 POP DUP4 JUMP JUMPDEST PUSH0 DUP4 SWAP1 POP CALLER PUSH20 0xFFFFFFFFFFFFFFFFFFFFFFFFFFFFFFFFFFFFFFFF AND DUP2 PUSH20 0xFFFFFFFFFFFFFFFFFFFFFFFFFFFFFFFFFFFFFFFF AND PUSH4 0x6352211E DUP6 PUSH1 0x40 MLOAD DUP3 PUSH4 0xFFFFFFFF AND PUSH1 0xE0 SHL DUP2 MSTORE PUSH1 0x4 ADD PUSH2 0x3E3 SWAP2 SWAP1 PUSH2 0xAFB JUMP JUMPDEST PUSH1 0x20 PUSH1 0x40 MLOAD DUP1 DUP4 SUB DUP2 DUP7 GAS STATICCALL ISZERO DUP1 ISZERO PUSH2 0x3FE JUMPI RETURNDATASIZE PUSH0 DUP1 RETURNDATACOPY RETURNDATASIZE PUSH0 REVERT JUMPDEST POP POP POP POP PUSH1 0x40 MLOAD RETURNDATASIZE PUSH1 0x1F NOT PUSH1 0x1F DUP3 ADD AND DUP3 ADD DUP1 PUSH1 0x40 MSTORE POP DUP2 ADD SWAP1 PUSH2 0x422 SWAP2 SWAP1 PUSH2 0xB28 JUMP JUMPDEST PUSH20 0xFFFFFFFFFFFFFFFFFFFFFFFFFFFFFFFFFFFFFFFF AND EQ PUSH2 0x478 JUMPI PUSH1 0x40 MLOAD PUSH32 0x8C379A000000000000000000000000000000000000000000000000000000000 DUP2 MSTORE PUSH1 0x4 ADD PUSH2 0x46F SWAP1 PUSH2 0xB9D JUMP JUMPDEST PUSH1 0x40 MLOAD DUP1 SWAP2 SUB SWAP1 REVERT JUMPDEST DUP1 PUSH20 0xFFFFFFFFFFFFFFFFFFFFFFFFFFFFFFFFFFFFFFFF AND PUSH4 0x23B872DD CALLER ADDRESS DUP7 PUSH1 0x40 MLOAD DUP5 PUSH4 0xFFFFFFFF AND PUSH1 0xE0 SHL DUP2 MSTORE PUSH1 0x4 ADD PUSH2 0x4B5 SWAP4 SWAP3 SWAP2 SWAP1 PUSH2 0xBBB JUMP JUMPDEST PUSH0 PUSH1 0x40 MLOAD DUP1 DUP4 SUB DUP2 PUSH0 DUP8 DUP1 EXTCODESIZE ISZERO DUP1 ISZERO PUSH2 0x4CC JUMPI PUSH0 DUP1 REVERT JUMPDEST POP GAS CALL ISZERO DUP1 ISZERO PUSH2 0x4DE JUMPI RETURNDATASIZE PUSH0 DUP1 RETURNDATACOPY RETURNDATASIZE PUSH0 REVERT JUMPDEST POP POP POP POP PUSH0 DUP3 NUMBER PUSH2 0x4EF SWAP2 SWAP1 PUSH2 0xC1D JUMP JUMPDEST SWAP1 POP PUSH1 0x40 MLOAD DUP1 PUSH1 0x60 ADD PUSH1 0x40 MSTORE DUP1 DUP6 DUP2 MSTORE PUSH1 0x20 ADD DUP3 DUP2 MSTORE PUSH1 0x20 ADD PUSH1 0x1 ISZERO ISZERO DUP2 MSTORE POP PUSH1 0x1 PUSH0 DUP8 PUSH20 0xFFFFFFFFFFFFFFFFFFFFFFFFFFFFFFFFFFFFFFFF AND PUSH20 0xFFFFFFFFFFFFFFFFFFFFFFFFFFFFFFFFFFFFFFFF AND DUP2 MSTORE PUSH1 0x20 ADD SWAP1 DUP2 MSTORE PUSH1 0x20 ADD PUSH0 KECCAK256 PUSH0 DUP7 DUP2 MSTORE PUSH1 0x20 ADD SWAP1 DUP2 MSTORE PUSH1 0x20 ADD PUSH0 KECCAK256 PUSH0 DUP3 ADD MLOAD DUP2 PUSH0 ADD SSTORE PUSH1 0x20 DUP3 ADD MLOAD DUP2 PUSH1 0x1 ADD SSTORE PUSH1 0x40 DUP3 ADD MLOAD DUP2 PUSH1 0x2 ADD PUSH0 PUSH2 0x100 EXP DUP2 SLOAD DUP2 PUSH1 0xFF MUL NOT AND SWAP1 DUP4 ISZERO ISZERO MUL OR SWAP1 SSTORE POP SWAP1 POP POP POP POP POP POP POP JUMP JUMPDEST PUSH2 0x59E PUSH2 0x677 JUMP JUMPDEST PUSH2 0x5A7 PUSH0 PUSH2 0x6F5 JUMP JUMPDEST JUMP JUMPDEST PUSH0 DUP1 PUSH0 SWAP1 SLOAD SWAP1 PUSH2 0x100 EXP SWAP1 DIV PUSH20 0xFFFFFFFFFFFFFFFFFFFFFFFFFFFFFFFFFFFFFFFF AND SWAP1 POP SWAP1 JUMP JUMPDEST PUSH1 0x2 PUSH0 SWAP1 SLOAD SWAP1 PUSH2 0x100 EXP SWAP1 DIV PUSH20 0xFFFFFFFFFFFFFFFFFFFFFFFFFFFFFFFFFFFFFFFF AND DUP2 JUMP JUMPDEST PUSH2 0x5FD PUSH2 0x677 JUMP JUMPDEST PUSH0 PUSH20 0xFFFFFFFFFFFFFFFFFFFFFFFFFFFFFFFFFFFFFFFF AND DUP2 PUSH20 0xFFFFFFFFFFFFFFFFFFFFFFFFFFFFFFFFFFFFFFFF AND SUB PUSH2 0x66B JUMPI PUSH1 0x40 MLOAD PUSH32 0x8C379A000000000000000000000000000000000000000000000000000000000 DUP2 MSTORE PUSH1 0x4 ADD PUSH2 0x662 SWAP1 PUSH2 0xCC0 JUMP JUMPDEST PUSH1 0x40 MLOAD DUP1 SWAP2 SUB SWAP1 REVERT JUMPDEST PUSH2 0x674 DUP2 PUSH2 0x6F5 JUMP JUMPDEST POP JUMP JUMPDEST PUSH2 0x67F PUSH2 0x7B6 JUMP JUMPDEST PUSH20 0xFFFFFFFFFFFFFFFFFFFFFFFFFFFFFFFFFFFFFFFF AND PUSH2 0x69D PUSH2 0x5A9 JUMP JUMPDEST PUSH20 0xFFFFFFFFFFFFFFFFFFFFFFFFFFFFFFFFFFFFFFFF AND EQ PUSH2 0x6F3 JUMPI PUSH1 0x40 MLOAD PUSH32 0x8C379A000000000000000000000000000000000000000000000000000000000 DUP2 MSTORE PUSH1 0x4 ADD PUSH2 0x6EA SWAP1 PUSH2 0xD28 JUMP JUMPDEST PUSH1 0x40 MLOAD DUP1 SWAP2 SUB SWAP1 REVERT JUMPDEST JUMP JUMPDEST PUSH0 DUP1 PUSH0 SWAP1 SLOAD SWAP1 PUSH2 0x100 EXP SWAP1 DIV PUSH20 0xFFFFFFFFFFFFFFFFFFFFFFFFFFFFFFFFFFFFFFFF AND SWAP1 POP DUP2 PUSH0 DUP1 PUSH2 0x100 EXP DUP2 SLOAD DUP2 PUSH20 0xFFFFFFFFFFFFFFFFFFFFFFFFFFFFFFFFFFFFFFFF MUL NOT AND SWAP1 DUP4 PUSH20 0xFFFFFFFFFFFFFFFFFFFFFFFFFFFFFFFFFFFFFFFF AND MUL OR SWAP1 SSTORE POP DUP2 PUSH20 0xFFFFFFFFFFFFFFFFFFFFFFFFFFFFFFFFFFFFFFFF AND DUP2 PUSH20 0xFFFFFFFFFFFFFFFFFFFFFFFFFFFFFFFFFFFFFFFF AND PUSH32 0x8BE0079C531659141344CD1FD0A4F28419497F9722A3DAAFE3B4186F6B6457E0 PUSH1 0x40 MLOAD PUSH1 0x40 MLOAD DUP1 SWAP2 SUB SWAP1 LOG3 POP POP JUMP JUMPDEST PUSH0 CALLER SWAP1 POP SWAP1 JUMP JUMPDEST PUSH0 DUP1 REVERT JUMPDEST PUSH0 PUSH20 0xFFFFFFFFFFFFFFFFFFFFFFFFFFFFFFFFFFFFFFFF DUP3 AND SWAP1 POP SWAP2 SWAP1 POP JUMP JUMPDEST PUSH0 PUSH2 0x7EA DUP3 PUSH2 0x7C1 JUMP JUMPDEST SWAP1 POP SWAP2 SWAP1 POP JUMP JUMPDEST PUSH2 0x7FA DUP2 PUSH2 0x7E0 JUMP JUMPDEST DUP2 EQ PUSH2 0x804 JUMPI PUSH0 DUP1 REVERT JUMPDEST POP JUMP JUMPDEST PUSH0 DUP2 CALLDATALOAD SWAP1 POP PUSH2 0x815 DUP2 PUSH2 0x7F1 JUMP JUMPDEST SWAP3 SWAP2 POP POP JUMP JUMPDEST PUSH0 DUP2 SWAP1 POP SWAP2 SWAP1 POP JUMP JUMPDEST PUSH2 0x82D DUP2 PUSH2 0x81B JUMP JUMPDEST DUP2 EQ PUSH2 0x837 JUMPI PUSH0 DUP1 REVERT JUMPDEST POP JUMP JUMPDEST PUSH0 DUP2 CALLDATALOAD SWAP1 POP PUSH2 0x848 DUP2 PUSH2 0x824 JUMP JUMPDEST SWAP3 SWAP2 POP POP JUMP JUMPDEST PUSH0 DUP1 PUSH1 0x40 DUP4 DUP6 SUB SLT ISZERO PUSH2 0x864 JUMPI PUSH2 0x863 PUSH2 0x7BD JUMP JUMPDEST JUMPDEST PUSH0 PUSH2 0x871 DUP6 DUP3 DUP7 ADD PUSH2 0x807 JUMP JUMPDEST SWAP3 POP POP PUSH1 0x20 PUSH2 0x882 DUP6 DUP3 DUP7 ADD PUSH2 0x83A JUMP JUMPDEST SWAP2 POP POP SWAP3 POP SWAP3 SWAP1 POP JUMP JUMPDEST PUSH0 PUSH1 0x20 DUP3 DUP5 SUB SLT ISZERO PUSH2 0x8A1 JUMPI PUSH2 0x8A0 PUSH2 0x7BD JUMP JUMPDEST JUMPDEST PUSH0 PUSH2 0x8AE DUP5 DUP3 DUP6 ADD PUSH2 0x807 JUMP JUMPDEST SWAP2 POP POP SWAP3 SWAP2 POP POP JUMP JUMPDEST PUSH2 0x8C0 DUP2 PUSH2 0x81B JUMP JUMPDEST DUP3 MSTORE POP POP JUMP JUMPDEST PUSH0 DUP2 ISZERO ISZERO SWAP1 POP SWAP2 SWAP1 POP JUMP JUMPDEST PUSH2 0x8DA DUP2 PUSH2 0x8C6 JUMP JUMPDEST DUP3 MSTORE POP POP JUMP JUMPDEST PUSH0 PUSH1 0x60 DUP3 ADD SWAP1 POP PUSH2 0x8F3 PUSH0 DUP4 ADD DUP7 PUSH2 0x8B7 JUMP JUMPDEST PUSH2 0x900 PUSH1 0x20 DUP4 ADD DUP6 PUSH2 0x8B7 JUMP JUMPDEST PUSH2 0x90D PUSH1 0x40 DUP4 ADD DUP5 PUSH2 0x8D1 JUMP JUMPDEST SWAP5 SWAP4 POP POP POP POP JUMP JUMPDEST PUSH0 DUP1 PUSH0 PUSH1 0x60 DUP5 DUP7 SUB SLT ISZERO PUSH2 0x92C JUMPI PUSH2 0x92B PUSH2 0x7BD JUMP JUMPDEST JUMPDEST PUSH0 PUSH2 0x939 DUP7 DUP3 DUP8 ADD PUSH2 0x807 JUMP JUMPDEST SWAP4 POP POP PUSH1 0x20 PUSH2 0x94A DUP7 DUP3 DUP8 ADD PUSH2 0x83A JUMP JUMPDEST SWAP3 POP POP PUSH1 0x40 PUSH2 0x95B DUP7 DUP3 DUP8 ADD PUSH2 0x83A JUMP JUMPDEST SWAP2 POP POP SWAP3 POP SWAP3 POP SWAP3 JUMP JUMPDEST PUSH2 0x96E DUP2 PUSH2 0x7E0 JUMP JUMPDEST DUP3 MSTORE POP POP JUMP JUMPDEST PUSH0 PUSH1 0x20 DUP3 ADD SWAP1 POP PUSH2 0x987 PUSH0 DUP4 ADD DUP5 PUSH2 0x965 JUMP JUMPDEST SWAP3 SWAP2 POP POP JUMP JUMPDEST PUSH0 DUP3 DUP3 MSTORE PUSH1 0x20 DUP3 ADD SWAP1 POP SWAP3 SWAP2 POP POP JUMP JUMPDEST PUSH32 0x4E4654206973206E6F74206C6F636B6564000000000000000000000000000000 PUSH0 DUP3 ADD MSTORE POP JUMP JUMPDEST PUSH0 PUSH2 0x9D1 PUSH1 0x11 DUP4 PUSH2 0x98D JUMP JUMPDEST SWAP2 POP PUSH2 0x9DC DUP3 PUSH2 0x99D JUMP JUMPDEST PUSH1 0x20 DUP3 ADD SWAP1 POP SWAP2 SWAP1 POP JUMP JUMPDEST PUSH0 PUSH1 0x20 DUP3 ADD SWAP1 POP DUP2 DUP2 SUB PUSH0 DUP4 ADD MSTORE PUSH2 0x9FE DUP2 PUSH2 0x9C5 JUMP JUMPDEST SWAP1 POP SWAP2 SWAP1 POP JUMP JUMPDEST PUSH32 0x4C6F636B20706572696F6420686173206E6F7420656E64656420796574000000 PUSH0 DUP3 ADD MSTORE POP JUMP JUMPDEST PUSH0 PUSH2 0xA39 PUSH1 0x1D DUP4 PUSH2 0x98D JUMP JUMPDEST SWAP2 POP PUSH2 0xA44 DUP3 PUSH2 0xA05 JUMP JUMPDEST PUSH1 0x20 DUP3 ADD SWAP1 POP SWAP2 SWAP1 POP JUMP JUMPDEST PUSH0 PUSH1 0x20 DUP3 ADD SWAP1 POP DUP2 DUP2 SUB PUSH0 DUP4 ADD MSTORE PUSH2 0xA66 DUP2 PUSH2 0xA2D JUMP JUMPDEST SWAP1 POP SWAP2 SWAP1 POP JUMP JUMPDEST PUSH32 0x4F6E6C7920746865204E46544D616E6167656D656E7420636F6E747261637420 PUSH0 DUP3 ADD MSTORE PUSH32 0x63616E20756E6C6F636B20746865204E46540000000000000000000000000000 PUSH1 0x20 DUP3 ADD MSTORE POP JUMP JUMPDEST PUSH0 PUSH2 0xAC7 PUSH1 0x32 DUP4 PUSH2 0x98D JUMP JUMPDEST SWAP2 POP PUSH2 0xAD2 DUP3 PUSH2 0xA6D JUMP JUMPDEST PUSH1 0x40 DUP3 ADD SWAP1 POP SWAP2 SWAP1 POP JUMP JUMPDEST PUSH0 PUSH1 0x20 DUP3 ADD SWAP1 POP DUP2 DUP2 SUB PUSH0 DUP4 ADD MSTORE PUSH2 0xAF4 DUP2 PUSH2 0xABB JUMP JUMPDEST SWAP1 POP SWAP2 SWAP1 POP JUMP JUMPDEST PUSH0 PUSH1 0x20 DUP3 ADD SWAP1 POP PUSH2 0xB0E PUSH0 DUP4 ADD DUP5 PUSH2 0x8B7 JUMP JUMPDEST SWAP3 SWAP2 POP POP JUMP JUMPDEST PUSH0 DUP2 MLOAD SWAP1 POP PUSH2 0xB22 DUP2 PUSH2 0x7F1 JUMP JUMPDEST SWAP3 SWAP2 POP POP JUMP JUMPDEST PUSH0 PUSH1 0x20 DUP3 DUP5 SUB SLT ISZERO PUSH2 0xB3D JUMPI PUSH2 0xB3C PUSH2 0x7BD JUMP JUMPDEST JUMPDEST PUSH0 PUSH2 0xB4A DUP5 DUP3 DUP6 ADD PUSH2 0xB14 JUMP JUMPDEST SWAP2 POP POP SWAP3 SWAP2 POP POP JUMP JUMPDEST PUSH32 0x596F75206D757374206F776E20746865204E465420746F206C6F636B20697400 PUSH0 DUP3 ADD MSTORE POP JUMP JUMPDEST PUSH0 PUSH2 0xB87 PUSH1 0x1F DUP4 PUSH2 0x98D JUMP JUMPDEST SWAP2 POP PUSH2 0xB92 DUP3 PUSH2 0xB53 JUMP JUMPDEST PUSH1 0x20 DUP3 ADD SWAP1 POP SWAP2 SWAP1 POP JUMP JUMPDEST PUSH0 PUSH1 0x20 DUP3 ADD SWAP1 POP DUP2 DUP2 SUB PUSH0 DUP4 ADD MSTORE PUSH2 0xBB4 DUP2 PUSH2 0xB7B JUMP JUMPDEST SWAP1 POP SWAP2 SWAP1 POP JUMP JUMPDEST PUSH0 PUSH1 0x60 DUP3 ADD SWAP1 POP PUSH2 0xBCE PUSH0 DUP4 ADD DUP7 PUSH2 0x965 JUMP JUMPDEST PUSH2 0xBDB PUSH1 0x20 DUP4 ADD DUP6 PUSH2 0x965 JUMP JUMPDEST PUSH2 0xBE8 PUSH1 0x40 DUP4 ADD DUP5 PUSH2 0x8B7 JUMP JUMPDEST SWAP5 SWAP4 POP POP POP POP JUMP JUMPDEST PUSH32 0x4E487B7100000000000000000000000000000000000000000000000000000000 PUSH0 MSTORE PUSH1 0x11 PUSH1 0x4 MSTORE PUSH1 0x24 PUSH0 REVERT JUMPDEST PUSH0 PUSH2 0xC27 DUP3 PUSH2 0x81B JUMP JUMPDEST SWAP2 POP PUSH2 0xC32 DUP4 PUSH2 0x81B JUMP JUMPDEST SWAP3 POP DUP3 DUP3 ADD SWAP1 POP DUP1 DUP3 GT ISZERO PUSH2 0xC4A JUMPI PUSH2 0xC49 PUSH2 0xBF0 JUMP JUMPDEST JUMPDEST SWAP3 SWAP2 POP POP JUMP JUMPDEST PUSH32 0x4F776E61626C653A206E6577206F776E657220697320746865207A65726F2061 PUSH0 DUP3 ADD MSTORE PUSH32 0x6464726573730000000000000000000000000000000000000000000000000000 PUSH1 0x20 DUP3 ADD MSTORE POP JUMP JUMPDEST PUSH0 PUSH2 0xCAA PUSH1 0x26 DUP4 PUSH2 0x98D JUMP JUMPDEST SWAP2 POP PUSH2 0xCB5 DUP3 PUSH2 0xC50 JUMP JUMPDEST PUSH1 0x40 DUP3 ADD SWAP1 POP SWAP2 SWAP1 POP JUMP JUMPDEST PUSH0 PUSH1 0x20 DUP3 ADD SWAP1 POP DUP2 DUP2 SUB PUSH0 DUP4 ADD MSTORE PUSH2 0xCD7 DUP2 PUSH2 0xC9E JUMP JUMPDEST SWAP1 POP SWAP2 SWAP1 POP JUMP JUMPDEST PUSH32 0x4F776E61626C653A2063616C6C6572206973206E6F7420746865206F776E6572 PUSH0 DUP3 ADD MSTORE POP JUMP JUMPDEST PUSH0 PUSH2 0xD12 PUSH1 0x20 DUP4 PUSH2 0x98D JUMP JUMPDEST SWAP2 POP PUSH2 0xD1D DUP3 PUSH2 0xCDE JUMP JUMPDEST PUSH1 0x20 DUP3 ADD SWAP1 POP SWAP2 SWAP1 POP JUMP JUMPDEST PUSH0 PUSH1 0x20 DUP3 ADD SWAP1 POP DUP2 DUP2 SUB PUSH0 DUP4 ADD MSTORE PUSH2 0xD3F DUP2 PUSH2 0xD06 JUMP JUMPDEST SWAP1 POP SWAP2 SWAP1 POP JUMP INVALID LOG2 PUSH5 0x6970667358 0x22 SLT KECCAK256 PC LOG4 DUP8 SIGNEXTEND SWAP12 0xFC 0xC5 EXTCODESIZE SUB 0xE1 SDIV COINBASE PUSH19 0x810334C7F7E1A1AAD979E07A413DD24C197F21 PUSH5 0x736F6C6343 STOP ADDMOD BYTE STOP CALLER "
				},
				"gasEstimates": {
					"creation": {
						"codeDepositCost": "690400",
						"executionCost": "infinite",
						"totalCost": "infinite"
					},
					"external": {
						"lockNFT(address,uint256,uint256)": "infinite",
						"lockedNFTs(address,uint256)": "infinite",
						"nftManagement()": "2552",
						"owner()": "2537",
						"renounceOwnership()": "30390",
						"setNftManagement(address)": "26999",
						"transferOwnership(address)": "30797",
						"unlockNFT(address,uint256)": "31526"
					}
				},
				"methodIdentifiers": {
					"lockNFT(address,uint256,uint256)": "54c993ac",
					"lockedNFTs(address,uint256)": "3a5e2b20",
					"nftManagement()": "c2d09980",
					"owner()": "8da5cb5b",
					"renounceOwnership()": "715018a6",
					"setNftManagement(address)": "30486a25",
					"transferOwnership(address)": "f2fde38b",
					"unlockNFT(address,uint256)": "2672c002"
				}
			},
			"storageLayout": {
				"storage": [
					{
						"astId": 7,
						"contract": "trustless cross-chain/trading pair formation/Updated_NFTL.sol:NFTLock",
						"label": "_owner",
						"offset": 0,
						"slot": "0",
						"type": "t_address"
					},
					{
						"astId": 282,
						"contract": "trustless cross-chain/trading pair formation/Updated_NFTL.sol:NFTLock",
						"label": "lockedNFTs",
						"offset": 0,
						"slot": "1",
						"type": "t_mapping(t_address,t_mapping(t_uint256,t_struct(LockInfo)275_storage))"
					},
					{
						"astId": 284,
						"contract": "trustless cross-chain/trading pair formation/Updated_NFTL.sol:NFTLock",
						"label": "nftManagement",
						"offset": 0,
						"slot": "2",
						"type": "t_address"
					}
				],
				"types": {
					"t_address": {
						"encoding": "inplace",
						"label": "address",
						"numberOfBytes": "20"
					},
					"t_bool": {
						"encoding": "inplace",
						"label": "bool",
						"numberOfBytes": "1"
					},
					"t_mapping(t_address,t_mapping(t_uint256,t_struct(LockInfo)275_storage))": {
						"encoding": "mapping",
						"key": "t_address",
						"label": "mapping(address => mapping(uint256 => struct NFTLock.LockInfo))",
						"numberOfBytes": "32",
						"value": "t_mapping(t_uint256,t_struct(LockInfo)275_storage)"
					},
					"t_mapping(t_uint256,t_struct(LockInfo)275_storage)": {
						"encoding": "mapping",
						"key": "t_uint256",
						"label": "mapping(uint256 => struct NFTLock.LockInfo)",
						"numberOfBytes": "32",
						"value": "t_struct(LockInfo)275_storage"
					},
					"t_struct(LockInfo)275_storage": {
						"encoding": "inplace",
						"label": "struct NFTLock.LockInfo",
						"members": [
							{
								"astId": 270,
								"contract": "trustless cross-chain/trading pair formation/Updated_NFTL.sol:NFTLock",
								"label": "tokenId",
								"offset": 0,
								"slot": "0",
								"type": "t_uint256"
							},
							{
								"astId": 272,
								"contract": "trustless cross-chain/trading pair formation/Updated_NFTL.sol:NFTLock",
								"label": "unlockTime",
								"offset": 0,
								"slot": "1",
								"type": "t_uint256"
							},
							{
								"astId": 274,
								"contract": "trustless cross-chain/trading pair formation/Updated_NFTL.sol:NFTLock",
								"label": "isLocked",
								"offset": 0,
								"slot": "2",
								"type": "t_bool"
							}
						],
						"numberOfBytes": "96"
					},
					"t_uint256": {
						"encoding": "inplace",
						"label": "uint256",
						"numberOfBytes": "32"
					}
				}
			},
			"userdoc": {
				"kind": "user",
				"methods": {},
				"version": 1
			}
		}
	}
}