{
	"trustless cross-chain/trading pair formation/MPV.sol": {
		"SCMPV": {
			"abi": [
				{
					"inputs": [],
					"stateMutability": "nonpayable",
					"type": "constructor"
				},
				{
					"anonymous": false,
					"inputs": [
						{
							"indexed": false,
							"internalType": "string",
							"name": "message",
							"type": "string"
						}
					],
					"name": "Complete",
					"type": "event"
				},
				{
					"anonymous": false,
					"inputs": [
						{
							"indexed": true,
							"internalType": "address",
							"name": "from",
							"type": "address"
						},
						{
							"indexed": true,
							"internalType": "address",
							"name": "to",
							"type": "address"
						},
						{
							"indexed": false,
							"internalType": "uint256",
							"name": "amount",
							"type": "uint256"
						}
					],
					"name": "ConfiscatedAndWithdrawn",
					"type": "event"
				},
				{
					"anonymous": false,
					"inputs": [
						{
							"indexed": false,
							"internalType": "string",
							"name": "message",
							"type": "string"
						}
					],
					"name": "DebugEvent",
					"type": "event"
				},
				{
					"anonymous": false,
					"inputs": [
						{
							"indexed": true,
							"internalType": "bytes32",
							"name": "leaf",
							"type": "bytes32"
						},
						{
							"indexed": true,
							"internalType": "bytes32",
							"name": "root",
							"type": "bytes32"
						},
						{
							"indexed": true,
							"internalType": "bool",
							"name": "success",
							"type": "bool"
						}
					],
					"name": "MerkleProofVerified",
					"type": "event"
				},
				{
					"inputs": [],
					"name": "deadline",
					"outputs": [
						{
							"internalType": "uint256",
							"name": "",
							"type": "uint256"
						}
					],
					"stateMutability": "view",
					"type": "function"
				},
				{
					"inputs": [],
					"name": "instructionsTimestamp",
					"outputs": [
						{
							"internalType": "uint256",
							"name": "",
							"type": "uint256"
						}
					],
					"stateMutability": "view",
					"type": "function"
				},
				{
					"inputs": [
						{
							"internalType": "uint256",
							"name": "",
							"type": "uint256"
						}
					],
					"name": "proofHashes",
					"outputs": [
						{
							"internalType": "bytes32",
							"name": "",
							"type": "bytes32"
						}
					],
					"stateMutability": "view",
					"type": "function"
				},
				{
					"inputs": [],
					"name": "sctContract",
					"outputs": [
						{
							"internalType": "address",
							"name": "",
							"type": "address"
						}
					],
					"stateMutability": "view",
					"type": "function"
				},
				{
					"inputs": [
						{
							"internalType": "address",
							"name": "_sctContract",
							"type": "address"
						}
					],
					"name": "setSCTContract",
					"outputs": [],
					"stateMutability": "nonpayable",
					"type": "function"
				},
				{
					"inputs": [],
					"name": "setTimestamps",
					"outputs": [],
					"stateMutability": "nonpayable",
					"type": "function"
				},
				{
					"inputs": [
						{
							"internalType": "address",
							"name": "_tokenDepositContract",
							"type": "address"
						}
					],
					"name": "setTokenDepositContract",
					"outputs": [],
					"stateMutability": "nonpayable",
					"type": "function"
				},
				{
					"inputs": [
						{
							"internalType": "bytes32",
							"name": "",
							"type": "bytes32"
						}
					],
					"name": "storedMerkleProofs",
					"outputs": [
						{
							"internalType": "bool",
							"name": "",
							"type": "bool"
						}
					],
					"stateMutability": "view",
					"type": "function"
				},
				{
					"inputs": [],
					"name": "tokenDepositContract",
					"outputs": [
						{
							"internalType": "address",
							"name": "",
							"type": "address"
						}
					],
					"stateMutability": "view",
					"type": "function"
				},
				{
					"inputs": [],
					"name": "triggerFallback",
					"outputs": [],
					"stateMutability": "nonpayable",
					"type": "function"
				},
				{
					"inputs": [
						{
							"internalType": "bytes32[]",
							"name": "proof",
							"type": "bytes32[]"
						},
						{
							"internalType": "bytes32",
							"name": "leaf",
							"type": "bytes32"
						},
						{
							"internalType": "bytes32",
							"name": "root",
							"type": "bytes32"
						}
					],
					"name": "verifyMerkleProof",
					"outputs": [
						{
							"internalType": "bool",
							"name": "",
							"type": "bool"
						}
					],
					"stateMutability": "nonpayable",
					"type": "function"
				}
			],
			"devdoc": {
				"kind": "dev",
				"methods": {},
				"version": 1
			},
			"evm": {
				"assembly": "    /* \"trustless cross-chain/trading pair formation/MPV.sol\":92:4079  contract SCMPV {... */\n  mstore(0x40, 0x80)\n    /* \"trustless cross-chain/trading pair formation/MPV.sol\":648:664  constructor() {} */\n  callvalue\n  dup1\n  iszero\n  tag_1\n  jumpi\n  0x00\n  dup1\n  revert\ntag_1:\n  pop\n    /* \"trustless cross-chain/trading pair formation/MPV.sol\":92:4079  contract SCMPV {... */\n  dataSize(sub_0)\n  dup1\n  dataOffset(sub_0)\n  0x00\n  codecopy\n  0x00\n  return\nstop\n\nsub_0: assembly {\n        /* \"trustless cross-chain/trading pair formation/MPV.sol\":92:4079  contract SCMPV {... */\n      mstore(0x40, 0x80)\n      callvalue\n      dup1\n      iszero\n      tag_1\n      jumpi\n      0x00\n      dup1\n      revert\n    tag_1:\n      pop\n      jumpi(tag_2, lt(calldatasize, 0x04))\n      shr(0xe0, calldataload(0x00))\n      dup1\n      0x61cba8f3\n      gt\n      tag_14\n      jumpi\n      dup1\n      0x61cba8f3\n      eq\n      tag_8\n      jumpi\n      dup1\n      0xa86e9715\n      eq\n      tag_9\n      jumpi\n      dup1\n      0xada4fa18\n      eq\n      tag_10\n      jumpi\n      dup1\n      0xb606fce0\n      eq\n      tag_11\n      jumpi\n      dup1\n      0xbbcf72bd\n      eq\n      tag_12\n      jumpi\n      dup1\n      0xc6a5f928\n      eq\n      tag_13\n      jumpi\n      jump(tag_2)\n    tag_14:\n      dup1\n      0x0773c532\n      eq\n      tag_3\n      jumpi\n      dup1\n      0x29dcb0cf\n      eq\n      tag_4\n      jumpi\n      dup1\n      0x2acda0c8\n      eq\n      tag_5\n      jumpi\n      dup1\n      0x4ddd3965\n      eq\n      tag_6\n      jumpi\n      dup1\n      0x4de8e53a\n      eq\n      tag_7\n      jumpi\n    tag_2:\n      0x00\n      dup1\n      revert\n        /* \"trustless cross-chain/trading pair formation/MPV.sol\":914:1087  function setTimestamps() external {... */\n    tag_3:\n      tag_15\n      tag_16\n      jump\t// in\n    tag_15:\n      stop\n        /* \"trustless cross-chain/trading pair formation/MPV.sol\":318:341  uint256 public deadline */\n    tag_4:\n      tag_17\n      tag_18\n      jump\t// in\n    tag_17:\n      mload(0x40)\n      tag_19\n      swap2\n      swap1\n      tag_20\n      jump\t// in\n    tag_19:\n      mload(0x40)\n      dup1\n      swap2\n      sub\n      swap1\n      return\n        /* \"trustless cross-chain/trading pair formation/MPV.sol\":2170:3397  function triggerFallback() external {... */\n    tag_5:\n      tag_21\n      tag_22\n      jump\t// in\n    tag_21:\n      stop\n        /* \"trustless cross-chain/trading pair formation/MPV.sol\":202:228  address public sctContract */\n    tag_6:\n      tag_23\n      tag_24\n      jump\t// in\n    tag_23:\n      mload(0x40)\n      tag_25\n      swap2\n      swap1\n      tag_26\n      jump\t// in\n    tag_25:\n      mload(0x40)\n      dup1\n      swap2\n      sub\n      swap1\n      return\n        /* \"trustless cross-chain/trading pair formation/MPV.sol\":146:196  mapping(bytes32 => bool) public storedMerkleProofs */\n    tag_7:\n      tag_27\n      0x04\n      dup1\n      calldatasize\n      sub\n      dup2\n      add\n      swap1\n      tag_28\n      swap2\n      swap1\n      tag_29\n      jump\t// in\n    tag_28:\n      tag_30\n      jump\t// in\n    tag_27:\n      mload(0x40)\n      tag_31\n      swap2\n      swap1\n      tag_32\n      jump\t// in\n    tag_31:\n      mload(0x40)\n      dup1\n      swap2\n      sub\n      swap1\n      return\n        /* \"trustless cross-chain/trading pair formation/MPV.sol\":276:312  uint256 public instructionsTimestamp */\n    tag_8:\n      tag_33\n      tag_34\n      jump\t// in\n    tag_33:\n      mload(0x40)\n      tag_35\n      swap2\n      swap1\n      tag_20\n      jump\t// in\n    tag_35:\n      mload(0x40)\n      dup1\n      swap2\n      sub\n      swap1\n      return\n        /* \"trustless cross-chain/trading pair formation/MPV.sol\":348:376  bytes32[] public proofHashes */\n    tag_9:\n      tag_36\n      0x04\n      dup1\n      calldatasize\n      sub\n      dup2\n      add\n      swap1\n      tag_37\n      swap2\n      swap1\n      tag_38\n      jump\t// in\n    tag_37:\n      tag_39\n      jump\t// in\n    tag_36:\n      mload(0x40)\n      tag_40\n      swap2\n      swap1\n      tag_41\n      jump\t// in\n    tag_40:\n      mload(0x40)\n      dup1\n      swap2\n      sub\n      swap1\n      return\n        /* \"trustless cross-chain/trading pair formation/MPV.sol\":1093:2163  function verifyMerkleProof(... */\n    tag_10:\n      tag_42\n      0x04\n      dup1\n      calldatasize\n      sub\n      dup2\n      add\n      swap1\n      tag_43\n      swap2\n      swap1\n      tag_44\n      jump\t// in\n    tag_43:\n      tag_45\n      jump\t// in\n    tag_42:\n      mload(0x40)\n      tag_46\n      swap2\n      swap1\n      tag_32\n      jump\t// in\n    tag_46:\n      mload(0x40)\n      dup1\n      swap2\n      sub\n      swap1\n      return\n        /* \"trustless cross-chain/trading pair formation/MPV.sol\":234:269  address public tokenDepositContract */\n    tag_11:\n      tag_47\n      tag_48\n      jump\t// in\n    tag_47:\n      mload(0x40)\n      tag_49\n      swap2\n      swap1\n      tag_26\n      jump\t// in\n    tag_49:\n      mload(0x40)\n      dup1\n      swap2\n      sub\n      swap1\n      return\n        /* \"trustless cross-chain/trading pair formation/MPV.sol\":670:768  function setSCTContract(address _sctContract) external {... */\n    tag_12:\n      tag_50\n      0x04\n      dup1\n      calldatasize\n      sub\n      dup2\n      add\n      swap1\n      tag_51\n      swap2\n      swap1\n      tag_52\n      jump\t// in\n    tag_51:\n      tag_53\n      jump\t// in\n    tag_50:\n      stop\n        /* \"trustless cross-chain/trading pair formation/MPV.sol\":774:908  function setTokenDepositContract(address _tokenDepositContract) external {... */\n    tag_13:\n      tag_54\n      0x04\n      dup1\n      calldatasize\n      sub\n      dup2\n      add\n      swap1\n      tag_55\n      swap2\n      swap1\n      tag_52\n      jump\t// in\n    tag_55:\n      tag_56\n      jump\t// in\n    tag_54:\n      stop\n        /* \"trustless cross-chain/trading pair formation/MPV.sol\":914:1087  function setTimestamps() external {... */\n    tag_16:\n        /* \"trustless cross-chain/trading pair formation/MPV.sol\":958:965  SCT sct */\n      0x00\n        /* \"trustless cross-chain/trading pair formation/MPV.sol\":972:983  sctContract */\n      0x01\n      0x00\n      swap1\n      sload\n      swap1\n      0x0100\n      exp\n      swap1\n      div\n      0xffffffffffffffffffffffffffffffffffffffff\n      and\n        /* \"trustless cross-chain/trading pair formation/MPV.sol\":958:984  SCT sct = SCT(sctContract) */\n      swap1\n      pop\n        /* \"trustless cross-chain/trading pair formation/MPV.sol\":1018:1021  sct */\n      dup1\n        /* \"trustless cross-chain/trading pair formation/MPV.sol\":1018:1043  sct.instructionsTimestamp */\n      0xffffffffffffffffffffffffffffffffffffffff\n      and\n      0x61cba8f3\n        /* \"trustless cross-chain/trading pair formation/MPV.sol\":1018:1045  sct.instructionsTimestamp() */\n      mload(0x40)\n      dup2\n      0xffffffff\n      and\n      0xe0\n      shl\n      dup2\n      mstore\n      0x04\n      add\n      0x20\n      mload(0x40)\n      dup1\n      dup4\n      sub\n      dup2\n      dup7\n      gas\n      staticcall\n      iszero\n      dup1\n      iszero\n      tag_59\n      jumpi\n      returndatasize\n      0x00\n      dup1\n      returndatacopy\n      revert(0x00, returndatasize)\n    tag_59:\n      pop\n      pop\n      pop\n      pop\n      mload(0x40)\n      returndatasize\n      not(0x1f)\n      0x1f\n      dup3\n      add\n      and\n      dup3\n      add\n      dup1\n      0x40\n      mstore\n      pop\n      dup2\n      add\n      swap1\n      tag_60\n      swap2\n      swap1\n      tag_61\n      jump\t// in\n    tag_60:\n        /* \"trustless cross-chain/trading pair formation/MPV.sol\":994:1015  instructionsTimestamp */\n      0x03\n        /* \"trustless cross-chain/trading pair formation/MPV.sol\":994:1045  instructionsTimestamp = sct.instructionsTimestamp() */\n      dup2\n      swap1\n      sstore\n      pop\n        /* \"trustless cross-chain/trading pair formation/MPV.sol\":1066:1069  sct */\n      dup1\n        /* \"trustless cross-chain/trading pair formation/MPV.sol\":1066:1078  sct.deadline */\n      0xffffffffffffffffffffffffffffffffffffffff\n      and\n      0x29dcb0cf\n        /* \"trustless cross-chain/trading pair formation/MPV.sol\":1066:1080  sct.deadline() */\n      mload(0x40)\n      dup2\n      0xffffffff\n      and\n      0xe0\n      shl\n      dup2\n      mstore\n      0x04\n      add\n      0x20\n      mload(0x40)\n      dup1\n      dup4\n      sub\n      dup2\n      dup7\n      gas\n      staticcall\n      iszero\n      dup1\n      iszero\n      tag_63\n      jumpi\n      returndatasize\n      0x00\n      dup1\n      returndatacopy\n      revert(0x00, returndatasize)\n    tag_63:\n      pop\n      pop\n      pop\n      pop\n      mload(0x40)\n      returndatasize\n      not(0x1f)\n      0x1f\n      dup3\n      add\n      and\n      dup3\n      add\n      dup1\n      0x40\n      mstore\n      pop\n      dup2\n      add\n      swap1\n      tag_64\n      swap2\n      swap1\n      tag_61\n      jump\t// in\n    tag_64:\n        /* \"trustless cross-chain/trading pair formation/MPV.sol\":1055:1063  deadline */\n      0x04\n        /* \"trustless cross-chain/trading pair formation/MPV.sol\":1055:1080  deadline = sct.deadline() */\n      dup2\n      swap1\n      sstore\n      pop\n        /* \"trustless cross-chain/trading pair formation/MPV.sol\":948:1087  {... */\n      pop\n        /* \"trustless cross-chain/trading pair formation/MPV.sol\":914:1087  function setTimestamps() external {... */\n      jump\t// out\n        /* \"trustless cross-chain/trading pair formation/MPV.sol\":318:341  uint256 public deadline */\n    tag_18:\n      sload(0x04)\n      dup2\n      jump\t// out\n        /* \"trustless cross-chain/trading pair formation/MPV.sol\":2170:3397  function triggerFallback() external {... */\n    tag_22:\n        /* \"trustless cross-chain/trading pair formation/MPV.sol\":2239:2247  deadline */\n      sload(0x04)\n        /* \"trustless cross-chain/trading pair formation/MPV.sol\":2224:2236  block.number */\n      number\n        /* \"trustless cross-chain/trading pair formation/MPV.sol\":2224:2247  block.number > deadline */\n      gt\n        /* \"trustless cross-chain/trading pair formation/MPV.sol\":2216:2276  require(block.number > deadline, \"Deadline not reached yet\") */\n      tag_66\n      jumpi\n      mload(0x40)\n      0x08c379a000000000000000000000000000000000000000000000000000000000\n      dup2\n      mstore\n      0x04\n      add\n      tag_67\n      swap1\n      tag_68\n      jump\t// in\n    tag_67:\n      mload(0x40)\n      dup1\n      swap2\n      sub\n      swap1\n      revert\n    tag_66:\n        /* \"trustless cross-chain/trading pair formation/MPV.sol\":2316:2317  2 */\n      0x02\n        /* \"trustless cross-chain/trading pair formation/MPV.sol\":2294:2313  countStoredProofs() */\n      tag_69\n        /* \"trustless cross-chain/trading pair formation/MPV.sol\":2294:2311  countStoredProofs */\n      tag_70\n        /* \"trustless cross-chain/trading pair formation/MPV.sol\":2294:2313  countStoredProofs() */\n      jump\t// in\n    tag_69:\n        /* \"trustless cross-chain/trading pair formation/MPV.sol\":2294:2317  countStoredProofs() < 2 */\n      lt\n        /* \"trustless cross-chain/trading pair formation/MPV.sol\":2286:2347  require(countStoredProofs() < 2, \"Two proofs already stored\") */\n      tag_71\n      jumpi\n      mload(0x40)\n      0x08c379a000000000000000000000000000000000000000000000000000000000\n      dup2\n      mstore\n      0x04\n      add\n      tag_72\n      swap1\n      tag_73\n      jump\t// in\n    tag_72:\n      mload(0x40)\n      dup1\n      swap2\n      sub\n      swap1\n      revert\n    tag_71:\n        /* \"trustless cross-chain/trading pair formation/MPV.sol\":2363:2400  DebugEvent(\"Entered triggerFallback\") */\n      0x56f074d292557f2e3c567d982816e0fb5b72100ff196892f8fbd23b8a9073679\n      mload(0x40)\n      tag_74\n      swap1\n      tag_75\n      jump\t// in\n    tag_74:\n      mload(0x40)\n      dup1\n      swap2\n      sub\n      swap1\n      log1\n        /* \"trustless cross-chain/trading pair formation/MPV.sol\":2411:2418  SCT sct */\n      0x00\n        /* \"trustless cross-chain/trading pair formation/MPV.sol\":2425:2436  sctContract */\n      0x01\n      0x00\n      swap1\n      sload\n      swap1\n      0x0100\n      exp\n      swap1\n      div\n      0xffffffffffffffffffffffffffffffffffffffff\n      and\n        /* \"trustless cross-chain/trading pair formation/MPV.sol\":2411:2437  SCT sct = SCT(sctContract) */\n      swap1\n      pop\n        /* \"trustless cross-chain/trading pair formation/MPV.sol\":2447:2462  address sender1 */\n      0x00\n        /* \"trustless cross-chain/trading pair formation/MPV.sol\":2465:2468  sct */\n      dup2\n        /* \"trustless cross-chain/trading pair formation/MPV.sol\":2465:2479  sct.sctSender1 */\n      0xffffffffffffffffffffffffffffffffffffffff\n      and\n      0xd5010511\n        /* \"trustless cross-chain/trading pair formation/MPV.sol\":2465:2481  sct.sctSender1() */\n      mload(0x40)\n      dup2\n      0xffffffff\n      and\n      0xe0\n      shl\n      dup2\n      mstore\n      0x04\n      add\n      0x20\n      mload(0x40)\n      dup1\n      dup4\n      sub\n      dup2\n      dup7\n      gas\n      staticcall\n      iszero\n      dup1\n      iszero\n      tag_77\n      jumpi\n      returndatasize\n      0x00\n      dup1\n      returndatacopy\n      revert(0x00, returndatasize)\n    tag_77:\n      pop\n      pop\n      pop\n      pop\n      mload(0x40)\n      returndatasize\n      not(0x1f)\n      0x1f\n      dup3\n      add\n      and\n      dup3\n      add\n      dup1\n      0x40\n      mstore\n      pop\n      dup2\n      add\n      swap1\n      tag_78\n      swap2\n      swap1\n      tag_79\n      jump\t// in\n    tag_78:\n        /* \"trustless cross-chain/trading pair formation/MPV.sol\":2447:2481  address sender1 = sct.sctSender1() */\n      swap1\n      pop\n        /* \"trustless cross-chain/trading pair formation/MPV.sol\":2491:2506  address sender2 */\n      0x00\n        /* \"trustless cross-chain/trading pair formation/MPV.sol\":2509:2512  sct */\n      dup3\n        /* \"trustless cross-chain/trading pair formation/MPV.sol\":2509:2523  sct.sctSender2 */\n      0xffffffffffffffffffffffffffffffffffffffff\n      and\n      0xf133dad2\n        /* \"trustless cross-chain/trading pair formation/MPV.sol\":2509:2525  sct.sctSender2() */\n      mload(0x40)\n      dup2\n      0xffffffff\n      and\n      0xe0\n      shl\n      dup2\n      mstore\n      0x04\n      add\n      0x20\n      mload(0x40)\n      dup1\n      dup4\n      sub\n      dup2\n      dup7\n      gas\n      staticcall\n      iszero\n      dup1\n      iszero\n      tag_81\n      jumpi\n      returndatasize\n      0x00\n      dup1\n      returndatacopy\n      revert(0x00, returndatasize)\n    tag_81:\n      pop\n      pop\n      pop\n      pop\n      mload(0x40)\n      returndatasize\n      not(0x1f)\n      0x1f\n      dup3\n      add\n      and\n      dup3\n      add\n      dup1\n      0x40\n      mstore\n      pop\n      dup2\n      add\n      swap1\n      tag_82\n      swap2\n      swap1\n      tag_79\n      jump\t// in\n    tag_82:\n        /* \"trustless cross-chain/trading pair formation/MPV.sol\":2491:2525  address sender2 = sct.sctSender2() */\n      swap1\n      pop\n        /* \"trustless cross-chain/trading pair formation/MPV.sol\":2541:2579  DebugEvent(\"Fetched senders from SCT\") */\n      0x56f074d292557f2e3c567d982816e0fb5b72100ff196892f8fbd23b8a9073679\n      mload(0x40)\n      tag_83\n      swap1\n      tag_84\n      jump\t// in\n    tag_83:\n      mload(0x40)\n      dup1\n      swap2\n      sub\n      swap1\n      log1\n        /* \"trustless cross-chain/trading pair formation/MPV.sol\":2590:2625  SCT.Instruction memory instruction1 */\n      0x00\n        /* \"trustless cross-chain/trading pair formation/MPV.sol\":2628:2631  sct */\n      dup4\n        /* \"trustless cross-chain/trading pair formation/MPV.sol\":2628:2644  sct.instructions */\n      0xffffffffffffffffffffffffffffffffffffffff\n      and\n      0x84a7c502\n        /* \"trustless cross-chain/trading pair formation/MPV.sol\":2645:2652  sender1 */\n      dup5\n        /* \"trustless cross-chain/trading pair formation/MPV.sol\":2628:2653  sct.instructions(sender1) */\n      mload(0x40)\n      dup3\n      0xffffffff\n      and\n      0xe0\n      shl\n      dup2\n      mstore\n      0x04\n      add\n      tag_85\n      swap2\n      swap1\n      tag_26\n      jump\t// in\n    tag_85:\n      0xe0\n      mload(0x40)\n      dup1\n      dup4\n      sub\n      dup2\n      dup7\n      gas\n      staticcall\n      iszero\n      dup1\n      iszero\n      tag_87\n      jumpi\n      returndatasize\n      0x00\n      dup1\n      returndatacopy\n      revert(0x00, returndatasize)\n    tag_87:\n      pop\n      pop\n      pop\n      pop\n      mload(0x40)\n      returndatasize\n      not(0x1f)\n      0x1f\n      dup3\n      add\n      and\n      dup3\n      add\n      dup1\n      0x40\n      mstore\n      pop\n      dup2\n      add\n      swap1\n      tag_88\n      swap2\n      swap1\n      tag_89\n      jump\t// in\n    tag_88:\n        /* \"trustless cross-chain/trading pair formation/MPV.sol\":2590:2653  SCT.Instruction memory instruction1 = sct.instructions(sender1) */\n      swap1\n      pop\n        /* \"trustless cross-chain/trading pair formation/MPV.sol\":2663:2698  SCT.Instruction memory instruction2 */\n      0x00\n        /* \"trustless cross-chain/trading pair formation/MPV.sol\":2701:2704  sct */\n      dup5\n        /* \"trustless cross-chain/trading pair formation/MPV.sol\":2701:2717  sct.instructions */\n      0xffffffffffffffffffffffffffffffffffffffff\n      and\n      0x84a7c502\n        /* \"trustless cross-chain/trading pair formation/MPV.sol\":2718:2725  sender2 */\n      dup5\n        /* \"trustless cross-chain/trading pair formation/MPV.sol\":2701:2726  sct.instructions(sender2) */\n      mload(0x40)\n      dup3\n      0xffffffff\n      and\n      0xe0\n      shl\n      dup2\n      mstore\n      0x04\n      add\n      tag_90\n      swap2\n      swap1\n      tag_26\n      jump\t// in\n    tag_90:\n      0xe0\n      mload(0x40)\n      dup1\n      dup4\n      sub\n      dup2\n      dup7\n      gas\n      staticcall\n      iszero\n      dup1\n      iszero\n      tag_92\n      jumpi\n      returndatasize\n      0x00\n      dup1\n      returndatacopy\n      revert(0x00, returndatasize)\n    tag_92:\n      pop\n      pop\n      pop\n      pop\n      mload(0x40)\n      returndatasize\n      not(0x1f)\n      0x1f\n      dup3\n      add\n      and\n      dup3\n      add\n      dup1\n      0x40\n      mstore\n      pop\n      dup2\n      add\n      swap1\n      tag_93\n      swap2\n      swap1\n      tag_89\n      jump\t// in\n    tag_93:\n        /* \"trustless cross-chain/trading pair formation/MPV.sol\":2663:2726  SCT.Instruction memory instruction2 = sct.instructions(sender2) */\n      swap1\n      pop\n        /* \"trustless cross-chain/trading pair formation/MPV.sol\":2776:2777  0 */\n      0x00\n        /* \"trustless cross-chain/trading pair formation/MPV.sol\":2745:2778  instruction1.sender != address(0) */\n      0xffffffffffffffffffffffffffffffffffffffff\n      and\n        /* \"trustless cross-chain/trading pair formation/MPV.sol\":2745:2757  instruction1 */\n      dup3\n        /* \"trustless cross-chain/trading pair formation/MPV.sol\":2745:2764  instruction1.sender */\n      0x00\n      add\n      mload\n        /* \"trustless cross-chain/trading pair formation/MPV.sol\":2745:2778  instruction1.sender != address(0) */\n      0xffffffffffffffffffffffffffffffffffffffff\n      and\n      sub\n        /* \"trustless cross-chain/trading pair formation/MPV.sol\":2737:2806  require(instruction1.sender != address(0), \"Invalid sender1 address\") */\n      tag_94\n      jumpi\n      mload(0x40)\n      0x08c379a000000000000000000000000000000000000000000000000000000000\n      dup2\n      mstore\n      0x04\n      add\n      tag_95\n      swap1\n      tag_96\n      jump\t// in\n    tag_95:\n      mload(0x40)\n      dup1\n      swap2\n      sub\n      swap1\n      revert\n    tag_94:\n        /* \"trustless cross-chain/trading pair formation/MPV.sol\":2855:2856  0 */\n      0x00\n        /* \"trustless cross-chain/trading pair formation/MPV.sol\":2824:2857  instruction2.sender != address(0) */\n      0xffffffffffffffffffffffffffffffffffffffff\n      and\n        /* \"trustless cross-chain/trading pair formation/MPV.sol\":2824:2836  instruction2 */\n      dup2\n        /* \"trustless cross-chain/trading pair formation/MPV.sol\":2824:2843  instruction2.sender */\n      0x00\n      add\n      mload\n        /* \"trustless cross-chain/trading pair formation/MPV.sol\":2824:2857  instruction2.sender != address(0) */\n      0xffffffffffffffffffffffffffffffffffffffff\n      and\n      sub\n        /* \"trustless cross-chain/trading pair formation/MPV.sol\":2816:2885  require(instruction2.sender != address(0), \"Invalid sender2 address\") */\n      tag_97\n      jumpi\n      mload(0x40)\n      0x08c379a000000000000000000000000000000000000000000000000000000000\n      dup2\n      mstore\n      0x04\n      add\n      tag_98\n      swap1\n      tag_99\n      jump\t// in\n    tag_98:\n      mload(0x40)\n      dup1\n      swap2\n      sub\n      swap1\n      revert\n    tag_97:\n        /* \"trustless cross-chain/trading pair formation/MPV.sol\":2901:2944  DebugEvent(\"Fetched instructions from SCT\") */\n      0x56f074d292557f2e3c567d982816e0fb5b72100ff196892f8fbd23b8a9073679\n      mload(0x40)\n      tag_100\n      swap1\n      tag_101\n      jump\t// in\n    tag_100:\n      mload(0x40)\n      dup1\n      swap2\n      sub\n      swap1\n      log1\n        /* \"trustless cross-chain/trading pair formation/MPV.sol\":2960:2978  storedMerkleProofs */\n      0x00\n        /* \"trustless cross-chain/trading pair formation/MPV.sol\":2960:3002  storedMerkleProofs[instruction1.proofHash] */\n      dup1\n        /* \"trustless cross-chain/trading pair formation/MPV.sol\":2979:2991  instruction1 */\n      dup4\n        /* \"trustless cross-chain/trading pair formation/MPV.sol\":2979:3001  instruction1.proofHash */\n      0x80\n      add\n      mload\n        /* \"trustless cross-chain/trading pair formation/MPV.sol\":2960:3002  storedMerkleProofs[instruction1.proofHash] */\n      dup2\n      mstore\n      0x20\n      add\n      swap1\n      dup2\n      mstore\n      0x20\n      add\n      0x00\n      keccak256\n      0x00\n      swap1\n      sload\n      swap1\n      0x0100\n      exp\n      swap1\n      div\n      0xff\n      and\n        /* \"trustless cross-chain/trading pair formation/MPV.sol\":2955:3136  if (!storedMerkleProofs[instruction1.proofHash]) {... */\n      tag_102\n      jumpi\n        /* \"trustless cross-chain/trading pair formation/MPV.sol\":3018:3125  confiscateAndWithdraw(instruction1.sender, instruction2.sender, instruction1.depositId, instruction1.token) */\n      tag_103\n        /* \"trustless cross-chain/trading pair formation/MPV.sol\":3040:3052  instruction1 */\n      dup3\n        /* \"trustless cross-chain/trading pair formation/MPV.sol\":3040:3059  instruction1.sender */\n      0x00\n      add\n      mload\n        /* \"trustless cross-chain/trading pair formation/MPV.sol\":3061:3073  instruction2 */\n      dup3\n        /* \"trustless cross-chain/trading pair formation/MPV.sol\":3061:3080  instruction2.sender */\n      0x00\n      add\n      mload\n        /* \"trustless cross-chain/trading pair formation/MPV.sol\":3082:3094  instruction1 */\n      dup5\n        /* \"trustless cross-chain/trading pair formation/MPV.sol\":3082:3104  instruction1.depositId */\n      0xa0\n      add\n      mload\n        /* \"trustless cross-chain/trading pair formation/MPV.sol\":3106:3118  instruction1 */\n      dup6\n        /* \"trustless cross-chain/trading pair formation/MPV.sol\":3106:3124  instruction1.token */\n      0xc0\n      add\n      mload\n        /* \"trustless cross-chain/trading pair formation/MPV.sol\":3018:3039  confiscateAndWithdraw */\n      tag_104\n        /* \"trustless cross-chain/trading pair formation/MPV.sol\":3018:3125  confiscateAndWithdraw(instruction1.sender, instruction2.sender, instruction1.depositId, instruction1.token) */\n      jump\t// in\n    tag_103:\n        /* \"trustless cross-chain/trading pair formation/MPV.sol\":2955:3136  if (!storedMerkleProofs[instruction1.proofHash]) {... */\n    tag_102:\n        /* \"trustless cross-chain/trading pair formation/MPV.sol\":3150:3168  storedMerkleProofs */\n      0x00\n        /* \"trustless cross-chain/trading pair formation/MPV.sol\":3150:3192  storedMerkleProofs[instruction2.proofHash] */\n      dup1\n        /* \"trustless cross-chain/trading pair formation/MPV.sol\":3169:3181  instruction2 */\n      dup3\n        /* \"trustless cross-chain/trading pair formation/MPV.sol\":3169:3191  instruction2.proofHash */\n      0x80\n      add\n      mload\n        /* \"trustless cross-chain/trading pair formation/MPV.sol\":3150:3192  storedMerkleProofs[instruction2.proofHash] */\n      dup2\n      mstore\n      0x20\n      add\n      swap1\n      dup2\n      mstore\n      0x20\n      add\n      0x00\n      keccak256\n      0x00\n      swap1\n      sload\n      swap1\n      0x0100\n      exp\n      swap1\n      div\n      0xff\n      and\n        /* \"trustless cross-chain/trading pair formation/MPV.sol\":3145:3326  if (!storedMerkleProofs[instruction2.proofHash]) {... */\n      tag_105\n      jumpi\n        /* \"trustless cross-chain/trading pair formation/MPV.sol\":3208:3315  confiscateAndWithdraw(instruction2.sender, instruction1.sender, instruction2.depositId, instruction2.token) */\n      tag_106\n        /* \"trustless cross-chain/trading pair formation/MPV.sol\":3230:3242  instruction2 */\n      dup2\n        /* \"trustless cross-chain/trading pair formation/MPV.sol\":3230:3249  instruction2.sender */\n      0x00\n      add\n      mload\n        /* \"trustless cross-chain/trading pair formation/MPV.sol\":3251:3263  instruction1 */\n      dup4\n        /* \"trustless cross-chain/trading pair formation/MPV.sol\":3251:3270  instruction1.sender */\n      0x00\n      add\n      mload\n        /* \"trustless cross-chain/trading pair formation/MPV.sol\":3272:3284  instruction2 */\n      dup4\n        /* \"trustless cross-chain/trading pair formation/MPV.sol\":3272:3294  instruction2.depositId */\n      0xa0\n      add\n      mload\n        /* \"trustless cross-chain/trading pair formation/MPV.sol\":3296:3308  instruction2 */\n      dup5\n        /* \"trustless cross-chain/trading pair formation/MPV.sol\":3296:3314  instruction2.token */\n      0xc0\n      add\n      mload\n        /* \"trustless cross-chain/trading pair formation/MPV.sol\":3208:3229  confiscateAndWithdraw */\n      tag_104\n        /* \"trustless cross-chain/trading pair formation/MPV.sol\":3208:3315  confiscateAndWithdraw(instruction2.sender, instruction1.sender, instruction2.depositId, instruction2.token) */\n      jump\t// in\n    tag_106:\n        /* \"trustless cross-chain/trading pair formation/MPV.sol\":3145:3326  if (!storedMerkleProofs[instruction2.proofHash]) {... */\n    tag_105:\n        /* \"trustless cross-chain/trading pair formation/MPV.sol\":3341:3390  DebugEvent(\"Completed triggerFallback execution\") */\n      0x56f074d292557f2e3c567d982816e0fb5b72100ff196892f8fbd23b8a9073679\n      mload(0x40)\n      tag_107\n      swap1\n      tag_108\n      jump\t// in\n    tag_107:\n      mload(0x40)\n      dup1\n      swap2\n      sub\n      swap1\n      log1\n        /* \"trustless cross-chain/trading pair formation/MPV.sol\":2206:3397  {... */\n      pop\n      pop\n      pop\n      pop\n      pop\n        /* \"trustless cross-chain/trading pair formation/MPV.sol\":2170:3397  function triggerFallback() external {... */\n      jump\t// out\n        /* \"trustless cross-chain/trading pair formation/MPV.sol\":202:228  address public sctContract */\n    tag_24:\n      0x01\n      0x00\n      swap1\n      sload\n      swap1\n      0x0100\n      exp\n      swap1\n      div\n      0xffffffffffffffffffffffffffffffffffffffff\n      and\n      dup2\n      jump\t// out\n        /* \"trustless cross-chain/trading pair formation/MPV.sol\":146:196  mapping(bytes32 => bool) public storedMerkleProofs */\n    tag_30:\n      mstore(0x20, 0x00)\n      dup1\n      0x00\n      mstore\n      keccak256(0x00, 0x40)\n      0x00\n      swap2\n      pop\n      sload\n      swap1\n      0x0100\n      exp\n      swap1\n      div\n      0xff\n      and\n      dup2\n      jump\t// out\n        /* \"trustless cross-chain/trading pair formation/MPV.sol\":276:312  uint256 public instructionsTimestamp */\n    tag_34:\n      sload(0x03)\n      dup2\n      jump\t// out\n        /* \"trustless cross-chain/trading pair formation/MPV.sol\":348:376  bytes32[] public proofHashes */\n    tag_39:\n      0x05\n      dup2\n      dup2\n      sload\n      dup2\n      lt\n      tag_109\n      jumpi\n      0x00\n      dup1\n      revert\n    tag_109:\n      swap1\n      0x00\n      mstore\n      keccak256(0x00, 0x20)\n      add\n      0x00\n      swap2\n      pop\n      swap1\n      pop\n      sload\n      dup2\n      jump\t// out\n        /* \"trustless cross-chain/trading pair formation/MPV.sol\":1093:2163  function verifyMerkleProof(... */\n    tag_45:\n        /* \"trustless cross-chain/trading pair formation/MPV.sol\":1218:1222  bool */\n      0x00\n        /* \"trustless cross-chain/trading pair formation/MPV.sol\":1257:1278  instructionsTimestamp */\n      sload(0x03)\n        /* \"trustless cross-chain/trading pair formation/MPV.sol\":1242:1254  block.number */\n      number\n        /* \"trustless cross-chain/trading pair formation/MPV.sol\":1242:1278  block.number > instructionsTimestamp */\n      gt\n        /* \"trustless cross-chain/trading pair formation/MPV.sol\":1234:1307  require(block.number > instructionsTimestamp, \"Proof received too early\") */\n      tag_112\n      jumpi\n      mload(0x40)\n      0x08c379a000000000000000000000000000000000000000000000000000000000\n      dup2\n      mstore\n      0x04\n      add\n      tag_113\n      swap1\n      tag_114\n      jump\t// in\n    tag_113:\n      mload(0x40)\n      dup1\n      swap2\n      sub\n      swap1\n      revert\n    tag_112:\n        /* \"trustless cross-chain/trading pair formation/MPV.sol\":1340:1348  deadline */\n      sload(0x04)\n        /* \"trustless cross-chain/trading pair formation/MPV.sol\":1325:1337  block.number */\n      number\n        /* \"trustless cross-chain/trading pair formation/MPV.sol\":1325:1348  block.number < deadline */\n      lt\n        /* \"trustless cross-chain/trading pair formation/MPV.sol\":1317:1376  require(block.number < deadline, \"Proof received too late\") */\n      tag_115\n      jumpi\n      mload(0x40)\n      0x08c379a000000000000000000000000000000000000000000000000000000000\n      dup2\n      mstore\n      0x04\n      add\n      tag_116\n      swap1\n      tag_117\n      jump\t// in\n    tag_116:\n      mload(0x40)\n      dup1\n      swap2\n      sub\n      swap1\n      revert\n    tag_115:\n        /* \"trustless cross-chain/trading pair formation/MPV.sol\":1387:1407  bytes32 computedHash */\n      0x00\n        /* \"trustless cross-chain/trading pair formation/MPV.sol\":1410:1414  leaf */\n      dup4\n        /* \"trustless cross-chain/trading pair formation/MPV.sol\":1387:1414  bytes32 computedHash = leaf */\n      swap1\n      pop\n        /* \"trustless cross-chain/trading pair formation/MPV.sol\":1430:1439  uint256 i */\n      0x00\n        /* \"trustless cross-chain/trading pair formation/MPV.sol\":1425:1783  for (uint256 i = 0; i < proof.length; i++) {... */\n    tag_118:\n        /* \"trustless cross-chain/trading pair formation/MPV.sol\":1449:1454  proof */\n      dup6\n        /* \"trustless cross-chain/trading pair formation/MPV.sol\":1449:1461  proof.length */\n      mload\n        /* \"trustless cross-chain/trading pair formation/MPV.sol\":1445:1446  i */\n      dup2\n        /* \"trustless cross-chain/trading pair formation/MPV.sol\":1445:1461  i < proof.length */\n      lt\n        /* \"trustless cross-chain/trading pair formation/MPV.sol\":1425:1783  for (uint256 i = 0; i < proof.length; i++) {... */\n      iszero\n      tag_119\n      jumpi\n        /* \"trustless cross-chain/trading pair formation/MPV.sol\":1482:1502  bytes32 proofElement */\n      0x00\n        /* \"trustless cross-chain/trading pair formation/MPV.sol\":1505:1510  proof */\n      dup7\n        /* \"trustless cross-chain/trading pair formation/MPV.sol\":1511:1512  i */\n      dup3\n        /* \"trustless cross-chain/trading pair formation/MPV.sol\":1505:1513  proof[i] */\n      dup2\n      mload\n      dup2\n      lt\n      tag_121\n      jumpi\n      tag_122\n      tag_123\n      jump\t// in\n    tag_122:\n    tag_121:\n      0x20\n      mul\n      0x20\n      add\n      add\n      mload\n        /* \"trustless cross-chain/trading pair formation/MPV.sol\":1482:1513  bytes32 proofElement = proof[i] */\n      swap1\n      pop\n        /* \"trustless cross-chain/trading pair formation/MPV.sol\":1547:1559  proofElement */\n      dup1\n        /* \"trustless cross-chain/trading pair formation/MPV.sol\":1532:1544  computedHash */\n      dup4\n        /* \"trustless cross-chain/trading pair formation/MPV.sol\":1532:1559  computedHash < proofElement */\n      lt\n        /* \"trustless cross-chain/trading pair formation/MPV.sol\":1528:1773  if (computedHash < proofElement) {... */\n      iszero\n      tag_124\n      jumpi\n        /* \"trustless cross-chain/trading pair formation/MPV.sol\":1621:1633  computedHash */\n      dup3\n        /* \"trustless cross-chain/trading pair formation/MPV.sol\":1635:1647  proofElement */\n      dup2\n        /* \"trustless cross-chain/trading pair formation/MPV.sol\":1604:1648  abi.encodePacked(computedHash, proofElement) */\n      add(0x20, mload(0x40))\n      tag_125\n      swap3\n      swap2\n      swap1\n      tag_126\n      jump\t// in\n    tag_125:\n      mload(0x40)\n      0x20\n      dup2\n      dup4\n      sub\n      sub\n      dup2\n      mstore\n      swap1\n      0x40\n      mstore\n        /* \"trustless cross-chain/trading pair formation/MPV.sol\":1594:1649  keccak256(abi.encodePacked(computedHash, proofElement)) */\n      dup1\n      mload\n      swap1\n      0x20\n      add\n      keccak256\n        /* \"trustless cross-chain/trading pair formation/MPV.sol\":1579:1649  computedHash = keccak256(abi.encodePacked(computedHash, proofElement)) */\n      swap3\n      pop\n        /* \"trustless cross-chain/trading pair formation/MPV.sol\":1528:1773  if (computedHash < proofElement) {... */\n      jump(tag_127)\n    tag_124:\n        /* \"trustless cross-chain/trading pair formation/MPV.sol\":1730:1742  proofElement */\n      dup1\n        /* \"trustless cross-chain/trading pair formation/MPV.sol\":1744:1756  computedHash */\n      dup4\n        /* \"trustless cross-chain/trading pair formation/MPV.sol\":1713:1757  abi.encodePacked(proofElement, computedHash) */\n      add(0x20, mload(0x40))\n      tag_128\n      swap3\n      swap2\n      swap1\n      tag_126\n      jump\t// in\n    tag_128:\n      mload(0x40)\n      0x20\n      dup2\n      dup4\n      sub\n      sub\n      dup2\n      mstore\n      swap1\n      0x40\n      mstore\n        /* \"trustless cross-chain/trading pair formation/MPV.sol\":1703:1758  keccak256(abi.encodePacked(proofElement, computedHash)) */\n      dup1\n      mload\n      swap1\n      0x20\n      add\n      keccak256\n        /* \"trustless cross-chain/trading pair formation/MPV.sol\":1688:1758  computedHash = keccak256(abi.encodePacked(proofElement, computedHash)) */\n      swap3\n      pop\n        /* \"trustless cross-chain/trading pair formation/MPV.sol\":1528:1773  if (computedHash < proofElement) {... */\n    tag_127:\n        /* \"trustless cross-chain/trading pair formation/MPV.sol\":1468:1783  {... */\n      pop\n        /* \"trustless cross-chain/trading pair formation/MPV.sol\":1463:1466  i++ */\n      dup1\n      dup1\n      0x01\n      add\n      swap2\n      pop\n      pop\n        /* \"trustless cross-chain/trading pair formation/MPV.sol\":1425:1783  for (uint256 i = 0; i < proof.length; i++) {... */\n      jump(tag_118)\n    tag_119:\n      pop\n        /* \"trustless cross-chain/trading pair formation/MPV.sol\":1793:1805  bool success */\n      0x00\n        /* \"trustless cross-chain/trading pair formation/MPV.sol\":1824:1828  root */\n      dup4\n        /* \"trustless cross-chain/trading pair formation/MPV.sol\":1808:1820  computedHash */\n      dup3\n        /* \"trustless cross-chain/trading pair formation/MPV.sol\":1808:1828  computedHash == root */\n      eq\n        /* \"trustless cross-chain/trading pair formation/MPV.sol\":1793:1828  bool success = computedHash == root */\n      swap1\n      pop\n        /* \"trustless cross-chain/trading pair formation/MPV.sol\":1842:1849  success */\n      dup1\n        /* \"trustless cross-chain/trading pair formation/MPV.sol\":1838:2078  if (success) {... */\n      iszero\n      tag_129\n      jumpi\n        /* \"trustless cross-chain/trading pair formation/MPV.sol\":1900:1904  true */\n      0x01\n        /* \"trustless cross-chain/trading pair formation/MPV.sol\":1865:1883  storedMerkleProofs */\n      0x00\n        /* \"trustless cross-chain/trading pair formation/MPV.sol\":1865:1897  storedMerkleProofs[computedHash] */\n      dup1\n        /* \"trustless cross-chain/trading pair formation/MPV.sol\":1884:1896  computedHash */\n      dup5\n        /* \"trustless cross-chain/trading pair formation/MPV.sol\":1865:1897  storedMerkleProofs[computedHash] */\n      dup2\n      mstore\n      0x20\n      add\n      swap1\n      dup2\n      mstore\n      0x20\n      add\n      0x00\n      keccak256\n      0x00\n        /* \"trustless cross-chain/trading pair formation/MPV.sol\":1865:1904  storedMerkleProofs[computedHash] = true */\n      0x0100\n      exp\n      dup2\n      sload\n      dup2\n      0xff\n      mul\n      not\n      and\n      swap1\n      dup4\n      iszero\n      iszero\n      mul\n      or\n      swap1\n      sstore\n      pop\n        /* \"trustless cross-chain/trading pair formation/MPV.sol\":1918:1929  proofHashes */\n      0x05\n        /* \"trustless cross-chain/trading pair formation/MPV.sol\":1935:1947  computedHash */\n      dup3\n        /* \"trustless cross-chain/trading pair formation/MPV.sol\":1918:1948  proofHashes.push(computedHash) */\n      swap1\n      dup1\n      0x01\n      dup2\n      sload\n      add\n      dup1\n      dup3\n      sstore\n      dup1\n      swap2\n      pop\n      pop\n      0x01\n      swap1\n      sub\n      swap1\n      0x00\n      mstore\n      keccak256(0x00, 0x20)\n      add\n      0x00\n      swap1\n      swap2\n      swap1\n      swap2\n      swap1\n      swap2\n      pop\n      sstore\n        /* \"trustless cross-chain/trading pair formation/MPV.sol\":1989:1990  2 */\n      0x02\n        /* \"trustless cross-chain/trading pair formation/MPV.sol\":1966:1985  countStoredProofs() */\n      tag_131\n        /* \"trustless cross-chain/trading pair formation/MPV.sol\":1966:1983  countStoredProofs */\n      tag_70\n        /* \"trustless cross-chain/trading pair formation/MPV.sol\":1966:1985  countStoredProofs() */\n      jump\t// in\n    tag_131:\n        /* \"trustless cross-chain/trading pair formation/MPV.sol\":1966:1990  countStoredProofs() >= 2 */\n      lt\n        /* \"trustless cross-chain/trading pair formation/MPV.sol\":1962:2068  if (countStoredProofs() >= 2) {... */\n      tag_132\n      jumpi\n        /* \"trustless cross-chain/trading pair formation/MPV.sol\":2015:2053  Complete(\"the CCTE process completes\") */\n      0xd1a275352d054749ca0e284aa1538acbd52943ea3338c470ffb9d0009de95372\n      mload(0x40)\n      tag_133\n      swap1\n      tag_134\n      jump\t// in\n    tag_133:\n      mload(0x40)\n      dup1\n      swap2\n      sub\n      swap1\n      log1\n        /* \"trustless cross-chain/trading pair formation/MPV.sol\":1962:2068  if (countStoredProofs() >= 2) {... */\n    tag_132:\n        /* \"trustless cross-chain/trading pair formation/MPV.sol\":1838:2078  if (success) {... */\n    tag_129:\n        /* \"trustless cross-chain/trading pair formation/MPV.sol\":2124:2131  success */\n      dup1\n        /* \"trustless cross-chain/trading pair formation/MPV.sol\":2092:2132  MerkleProofVerified(leaf, root, success) */\n      iszero\n      iszero\n        /* \"trustless cross-chain/trading pair formation/MPV.sol\":2118:2122  root */\n      dup5\n        /* \"trustless cross-chain/trading pair formation/MPV.sol\":2112:2116  leaf */\n      dup7\n        /* \"trustless cross-chain/trading pair formation/MPV.sol\":2092:2132  MerkleProofVerified(leaf, root, success) */\n      0x61ec1a646ff98fb3c33fbe01b3d5c1324c1a1980108ea113d5f13822ab0c9cea\n      mload(0x40)\n      mload(0x40)\n      dup1\n      swap2\n      sub\n      swap1\n      log4\n        /* \"trustless cross-chain/trading pair formation/MPV.sol\":2149:2156  success */\n      dup1\n        /* \"trustless cross-chain/trading pair formation/MPV.sol\":2142:2156  return success */\n      swap3\n      pop\n      pop\n      pop\n        /* \"trustless cross-chain/trading pair formation/MPV.sol\":1093:2163  function verifyMerkleProof(... */\n      swap4\n      swap3\n      pop\n      pop\n      pop\n      jump\t// out\n        /* \"trustless cross-chain/trading pair formation/MPV.sol\":234:269  address public tokenDepositContract */\n    tag_48:\n      0x02\n      0x00\n      swap1\n      sload\n      swap1\n      0x0100\n      exp\n      swap1\n      div\n      0xffffffffffffffffffffffffffffffffffffffff\n      and\n      dup2\n      jump\t// out\n        /* \"trustless cross-chain/trading pair formation/MPV.sol\":670:768  function setSCTContract(address _sctContract) external {... */\n    tag_53:\n        /* \"trustless cross-chain/trading pair formation/MPV.sol\":749:761  _sctContract */\n      dup1\n        /* \"trustless cross-chain/trading pair formation/MPV.sol\":735:746  sctContract */\n      0x01\n      0x00\n        /* \"trustless cross-chain/trading pair formation/MPV.sol\":735:761  sctContract = _sctContract */\n      0x0100\n      exp\n      dup2\n      sload\n      dup2\n      0xffffffffffffffffffffffffffffffffffffffff\n      mul\n      not\n      and\n      swap1\n      dup4\n      0xffffffffffffffffffffffffffffffffffffffff\n      and\n      mul\n      or\n      swap1\n      sstore\n      pop\n        /* \"trustless cross-chain/trading pair formation/MPV.sol\":670:768  function setSCTContract(address _sctContract) external {... */\n      pop\n      jump\t// out\n        /* \"trustless cross-chain/trading pair formation/MPV.sol\":774:908  function setTokenDepositContract(address _tokenDepositContract) external {... */\n    tag_56:\n        /* \"trustless cross-chain/trading pair formation/MPV.sol\":880:901  _tokenDepositContract */\n      dup1\n        /* \"trustless cross-chain/trading pair formation/MPV.sol\":857:877  tokenDepositContract */\n      0x02\n      0x00\n        /* \"trustless cross-chain/trading pair formation/MPV.sol\":857:901  tokenDepositContract = _tokenDepositContract */\n      0x0100\n      exp\n      dup2\n      sload\n      dup2\n      0xffffffffffffffffffffffffffffffffffffffff\n      mul\n      not\n      and\n      swap1\n      dup4\n      0xffffffffffffffffffffffffffffffffffffffff\n      and\n      mul\n      or\n      swap1\n      sstore\n      pop\n        /* \"trustless cross-chain/trading pair formation/MPV.sol\":774:908  function setTokenDepositContract(address _tokenDepositContract) external {... */\n      pop\n      jump\t// out\n        /* \"trustless cross-chain/trading pair formation/MPV.sol\":3798:4077  function countStoredProofs() internal view returns (uint256) {... */\n    tag_70:\n        /* \"trustless cross-chain/trading pair formation/MPV.sol\":3850:3857  uint256 */\n      0x00\n        /* \"trustless cross-chain/trading pair formation/MPV.sol\":3869:3882  uint256 count */\n      dup1\n        /* \"trustless cross-chain/trading pair formation/MPV.sol\":3885:3886  0 */\n      0x00\n        /* \"trustless cross-chain/trading pair formation/MPV.sol\":3869:3886  uint256 count = 0 */\n      swap1\n      pop\n        /* \"trustless cross-chain/trading pair formation/MPV.sol\":3901:3910  uint256 i */\n      0x00\n        /* \"trustless cross-chain/trading pair formation/MPV.sol\":3896:4049  for (uint256 i = 0; i < proofHashes.length; i++) {... */\n    tag_138:\n        /* \"trustless cross-chain/trading pair formation/MPV.sol\":3920:3931  proofHashes */\n      0x05\n        /* \"trustless cross-chain/trading pair formation/MPV.sol\":3920:3938  proofHashes.length */\n      dup1\n      sload\n      swap1\n      pop\n        /* \"trustless cross-chain/trading pair formation/MPV.sol\":3916:3917  i */\n      dup2\n        /* \"trustless cross-chain/trading pair formation/MPV.sol\":3916:3938  i < proofHashes.length */\n      lt\n        /* \"trustless cross-chain/trading pair formation/MPV.sol\":3896:4049  for (uint256 i = 0; i < proofHashes.length; i++) {... */\n      iszero\n      tag_139\n      jumpi\n        /* \"trustless cross-chain/trading pair formation/MPV.sol\":3963:3981  storedMerkleProofs */\n      0x00\n        /* \"trustless cross-chain/trading pair formation/MPV.sol\":3963:3997  storedMerkleProofs[proofHashes[i]] */\n      dup1\n        /* \"trustless cross-chain/trading pair formation/MPV.sol\":3982:3993  proofHashes */\n      0x05\n        /* \"trustless cross-chain/trading pair formation/MPV.sol\":3994:3995  i */\n      dup4\n        /* \"trustless cross-chain/trading pair formation/MPV.sol\":3982:3996  proofHashes[i] */\n      dup2\n      sload\n      dup2\n      lt\n      tag_141\n      jumpi\n      tag_142\n      tag_123\n      jump\t// in\n    tag_142:\n    tag_141:\n      swap1\n      0x00\n      mstore\n      keccak256(0x00, 0x20)\n      add\n      sload\n        /* \"trustless cross-chain/trading pair formation/MPV.sol\":3963:3997  storedMerkleProofs[proofHashes[i]] */\n      dup2\n      mstore\n      0x20\n      add\n      swap1\n      dup2\n      mstore\n      0x20\n      add\n      0x00\n      keccak256\n      0x00\n      swap1\n      sload\n      swap1\n      0x0100\n      exp\n      swap1\n      div\n      0xff\n      and\n        /* \"trustless cross-chain/trading pair formation/MPV.sol\":3959:4039  if (storedMerkleProofs[proofHashes[i]]) {... */\n      iszero\n      tag_144\n      jumpi\n        /* \"trustless cross-chain/trading pair formation/MPV.sol\":4017:4024  count++ */\n      dup2\n      dup1\n      tag_145\n      swap1\n      tag_146\n      jump\t// in\n    tag_145:\n      swap3\n      pop\n      pop\n        /* \"trustless cross-chain/trading pair formation/MPV.sol\":3959:4039  if (storedMerkleProofs[proofHashes[i]]) {... */\n    tag_144:\n        /* \"trustless cross-chain/trading pair formation/MPV.sol\":3940:3943  i++ */\n      dup1\n      dup1\n      0x01\n      add\n      swap2\n      pop\n      pop\n        /* \"trustless cross-chain/trading pair formation/MPV.sol\":3896:4049  for (uint256 i = 0; i < proofHashes.length; i++) {... */\n      jump(tag_138)\n    tag_139:\n      pop\n        /* \"trustless cross-chain/trading pair formation/MPV.sol\":4065:4070  count */\n      dup1\n        /* \"trustless cross-chain/trading pair formation/MPV.sol\":4058:4070  return count */\n      swap2\n      pop\n      pop\n        /* \"trustless cross-chain/trading pair formation/MPV.sol\":3798:4077  function countStoredProofs() internal view returns (uint256) {... */\n      swap1\n      jump\t// out\n        /* \"trustless cross-chain/trading pair formation/MPV.sol\":3403:3792  function confiscateAndWithdraw(... */\n    tag_104:\n        /* \"trustless cross-chain/trading pair formation/MPV.sol\":3551:3576  TokenDeposit tokenDeposit */\n      0x00\n        /* \"trustless cross-chain/trading pair formation/MPV.sol\":3592:3612  tokenDepositContract */\n      0x02\n      0x00\n      swap1\n      sload\n      swap1\n      0x0100\n      exp\n      swap1\n      div\n      0xffffffffffffffffffffffffffffffffffffffff\n      and\n        /* \"trustless cross-chain/trading pair formation/MPV.sol\":3551:3613  TokenDeposit tokenDeposit = TokenDeposit(tokenDepositContract) */\n      swap1\n      pop\n        /* \"trustless cross-chain/trading pair formation/MPV.sol\":3623:3635  tokenDeposit */\n      dup1\n        /* \"trustless cross-chain/trading pair formation/MPV.sol\":3623:3657  tokenDeposit.confiscateAndWithdraw */\n      0xffffffffffffffffffffffffffffffffffffffff\n      and\n      0xb2b3dbce\n        /* \"trustless cross-chain/trading pair formation/MPV.sol\":3658:3667  depositId */\n      dup5\n        /* \"trustless cross-chain/trading pair formation/MPV.sol\":3669:3674  token */\n      dup5\n        /* \"trustless cross-chain/trading pair formation/MPV.sol\":3676:3678  to */\n      dup8\n        /* \"trustless cross-chain/trading pair formation/MPV.sol\":3623:3679  tokenDeposit.confiscateAndWithdraw(depositId, token, to) */\n      mload(0x40)\n      dup5\n      0xffffffff\n      and\n      0xe0\n      shl\n      dup2\n      mstore\n      0x04\n      add\n      tag_148\n      swap4\n      swap3\n      swap2\n      swap1\n      tag_149\n      jump\t// in\n    tag_148:\n      0x00\n      mload(0x40)\n      dup1\n      dup4\n      sub\n      dup2\n      0x00\n      dup8\n      dup1\n      extcodesize\n      iszero\n      dup1\n      iszero\n      tag_150\n      jumpi\n      0x00\n      dup1\n      revert\n    tag_150:\n      pop\n      gas\n      call\n      iszero\n      dup1\n      iszero\n      tag_152\n      jumpi\n      returndatasize\n      0x00\n      dup1\n      returndatacopy\n      revert(0x00, returndatasize)\n    tag_152:\n      pop\n      pop\n      pop\n      pop\n        /* \"trustless cross-chain/trading pair formation/MPV.sol\":3724:3726  to */\n      dup4\n        /* \"trustless cross-chain/trading pair formation/MPV.sol\":3694:3730  ConfiscatedAndWithdrawn(from, to, 0) */\n      0xffffffffffffffffffffffffffffffffffffffff\n      and\n        /* \"trustless cross-chain/trading pair formation/MPV.sol\":3718:3722  from */\n      dup6\n        /* \"trustless cross-chain/trading pair formation/MPV.sol\":3694:3730  ConfiscatedAndWithdrawn(from, to, 0) */\n      0xffffffffffffffffffffffffffffffffffffffff\n      and\n      0x94ab56e036ad14a67a3a4c6e9367154cf3e7c3a04f1b9b29474362a9c1df2923\n        /* \"trustless cross-chain/trading pair formation/MPV.sol\":3728:3729  0 */\n      0x00\n        /* \"trustless cross-chain/trading pair formation/MPV.sol\":3694:3730  ConfiscatedAndWithdrawn(from, to, 0) */\n      mload(0x40)\n      tag_153\n      swap2\n      swap1\n      tag_154\n      jump\t// in\n    tag_153:\n      mload(0x40)\n      dup1\n      swap2\n      sub\n      swap1\n      log3\n        /* \"trustless cross-chain/trading pair formation/MPV.sol\":3541:3792  {... */\n      pop\n        /* \"trustless cross-chain/trading pair formation/MPV.sol\":3403:3792  function confiscateAndWithdraw(... */\n      pop\n      pop\n      pop\n      pop\n      jump\t// out\n        /* \"#utility.yul\":7:84   */\n    tag_155:\n        /* \"#utility.yul\":44:51   */\n      0x00\n        /* \"#utility.yul\":73:78   */\n      dup2\n        /* \"#utility.yul\":62:78   */\n      swap1\n      pop\n        /* \"#utility.yul\":7:84   */\n      swap2\n      swap1\n      pop\n      jump\t// out\n        /* \"#utility.yul\":90:208   */\n    tag_156:\n        /* \"#utility.yul\":177:201   */\n      tag_221\n        /* \"#utility.yul\":195:200   */\n      dup2\n        /* \"#utility.yul\":177:201   */\n      tag_155\n      jump\t// in\n    tag_221:\n        /* \"#utility.yul\":172:175   */\n      dup3\n        /* \"#utility.yul\":165:202   */\n      mstore\n        /* \"#utility.yul\":90:208   */\n      pop\n      pop\n      jump\t// out\n        /* \"#utility.yul\":214:436   */\n    tag_20:\n        /* \"#utility.yul\":307:311   */\n      0x00\n        /* \"#utility.yul\":345:347   */\n      0x20\n        /* \"#utility.yul\":334:343   */\n      dup3\n        /* \"#utility.yul\":330:348   */\n      add\n        /* \"#utility.yul\":322:348   */\n      swap1\n      pop\n        /* \"#utility.yul\":358:429   */\n      tag_223\n        /* \"#utility.yul\":426:427   */\n      0x00\n        /* \"#utility.yul\":415:424   */\n      dup4\n        /* \"#utility.yul\":411:428   */\n      add\n        /* \"#utility.yul\":402:408   */\n      dup5\n        /* \"#utility.yul\":358:429   */\n      tag_156\n      jump\t// in\n    tag_223:\n        /* \"#utility.yul\":214:436   */\n      swap3\n      swap2\n      pop\n      pop\n      jump\t// out\n        /* \"#utility.yul\":442:568   */\n    tag_157:\n        /* \"#utility.yul\":479:486   */\n      0x00\n        /* \"#utility.yul\":519:561   */\n      0xffffffffffffffffffffffffffffffffffffffff\n        /* \"#utility.yul\":512:517   */\n      dup3\n        /* \"#utility.yul\":508:562   */\n      and\n        /* \"#utility.yul\":497:562   */\n      swap1\n      pop\n        /* \"#utility.yul\":442:568   */\n      swap2\n      swap1\n      pop\n      jump\t// out\n        /* \"#utility.yul\":574:670   */\n    tag_158:\n        /* \"#utility.yul\":611:618   */\n      0x00\n        /* \"#utility.yul\":640:664   */\n      tag_226\n        /* \"#utility.yul\":658:663   */\n      dup3\n        /* \"#utility.yul\":640:664   */\n      tag_157\n      jump\t// in\n    tag_226:\n        /* \"#utility.yul\":629:664   */\n      swap1\n      pop\n        /* \"#utility.yul\":574:670   */\n      swap2\n      swap1\n      pop\n      jump\t// out\n        /* \"#utility.yul\":676:794   */\n    tag_159:\n        /* \"#utility.yul\":763:787   */\n      tag_228\n        /* \"#utility.yul\":781:786   */\n      dup2\n        /* \"#utility.yul\":763:787   */\n      tag_158\n      jump\t// in\n    tag_228:\n        /* \"#utility.yul\":758:761   */\n      dup3\n        /* \"#utility.yul\":751:788   */\n      mstore\n        /* \"#utility.yul\":676:794   */\n      pop\n      pop\n      jump\t// out\n        /* \"#utility.yul\":800:1022   */\n    tag_26:\n        /* \"#utility.yul\":893:897   */\n      0x00\n        /* \"#utility.yul\":931:933   */\n      0x20\n        /* \"#utility.yul\":920:929   */\n      dup3\n        /* \"#utility.yul\":916:934   */\n      add\n        /* \"#utility.yul\":908:934   */\n      swap1\n      pop\n        /* \"#utility.yul\":944:1015   */\n      tag_230\n        /* \"#utility.yul\":1012:1013   */\n      0x00\n        /* \"#utility.yul\":1001:1010   */\n      dup4\n        /* \"#utility.yul\":997:1014   */\n      add\n        /* \"#utility.yul\":988:994   */\n      dup5\n        /* \"#utility.yul\":944:1015   */\n      tag_159\n      jump\t// in\n    tag_230:\n        /* \"#utility.yul\":800:1022   */\n      swap3\n      swap2\n      pop\n      pop\n      jump\t// out\n        /* \"#utility.yul\":1028:1103   */\n    tag_160:\n        /* \"#utility.yul\":1061:1067   */\n      0x00\n        /* \"#utility.yul\":1094:1096   */\n      0x40\n        /* \"#utility.yul\":1088:1097   */\n      mload\n        /* \"#utility.yul\":1078:1097   */\n      swap1\n      pop\n        /* \"#utility.yul\":1028:1103   */\n      swap1\n      jump\t// out\n        /* \"#utility.yul\":1109:1226   */\n    tag_161:\n        /* \"#utility.yul\":1218:1219   */\n      0x00\n        /* \"#utility.yul\":1215:1216   */\n      dup1\n        /* \"#utility.yul\":1208:1220   */\n      revert\n        /* \"#utility.yul\":1232:1349   */\n    tag_162:\n        /* \"#utility.yul\":1341:1342   */\n      0x00\n        /* \"#utility.yul\":1338:1339   */\n      dup1\n        /* \"#utility.yul\":1331:1343   */\n      revert\n        /* \"#utility.yul\":1355:1432   */\n    tag_163:\n        /* \"#utility.yul\":1392:1399   */\n      0x00\n        /* \"#utility.yul\":1421:1426   */\n      dup2\n        /* \"#utility.yul\":1410:1426   */\n      swap1\n      pop\n        /* \"#utility.yul\":1355:1432   */\n      swap2\n      swap1\n      pop\n      jump\t// out\n        /* \"#utility.yul\":1438:1560   */\n    tag_164:\n        /* \"#utility.yul\":1511:1535   */\n      tag_236\n        /* \"#utility.yul\":1529:1534   */\n      dup2\n        /* \"#utility.yul\":1511:1535   */\n      tag_163\n      jump\t// in\n    tag_236:\n        /* \"#utility.yul\":1504:1509   */\n      dup2\n        /* \"#utility.yul\":1501:1536   */\n      eq\n        /* \"#utility.yul\":1491:1554   */\n      tag_237\n      jumpi\n        /* \"#utility.yul\":1550:1551   */\n      0x00\n        /* \"#utility.yul\":1547:1548   */\n      dup1\n        /* \"#utility.yul\":1540:1552   */\n      revert\n        /* \"#utility.yul\":1491:1554   */\n    tag_237:\n        /* \"#utility.yul\":1438:1560   */\n      pop\n      jump\t// out\n        /* \"#utility.yul\":1566:1705   */\n    tag_165:\n        /* \"#utility.yul\":1612:1617   */\n      0x00\n        /* \"#utility.yul\":1650:1656   */\n      dup2\n        /* \"#utility.yul\":1637:1657   */\n      calldataload\n        /* \"#utility.yul\":1628:1657   */\n      swap1\n      pop\n        /* \"#utility.yul\":1666:1699   */\n      tag_239\n        /* \"#utility.yul\":1693:1698   */\n      dup2\n        /* \"#utility.yul\":1666:1699   */\n      tag_164\n      jump\t// in\n    tag_239:\n        /* \"#utility.yul\":1566:1705   */\n      swap3\n      swap2\n      pop\n      pop\n      jump\t// out\n        /* \"#utility.yul\":1711:2040   */\n    tag_29:\n        /* \"#utility.yul\":1770:1776   */\n      0x00\n        /* \"#utility.yul\":1819:1821   */\n      0x20\n        /* \"#utility.yul\":1807:1816   */\n      dup3\n        /* \"#utility.yul\":1798:1805   */\n      dup5\n        /* \"#utility.yul\":1794:1817   */\n      sub\n        /* \"#utility.yul\":1790:1822   */\n      slt\n        /* \"#utility.yul\":1787:1906   */\n      iszero\n      tag_241\n      jumpi\n        /* \"#utility.yul\":1825:1904   */\n      tag_242\n      tag_161\n      jump\t// in\n    tag_242:\n        /* \"#utility.yul\":1787:1906   */\n    tag_241:\n        /* \"#utility.yul\":1945:1946   */\n      0x00\n        /* \"#utility.yul\":1970:2023   */\n      tag_243\n        /* \"#utility.yul\":2015:2022   */\n      dup5\n        /* \"#utility.yul\":2006:2012   */\n      dup3\n        /* \"#utility.yul\":1995:2004   */\n      dup6\n        /* \"#utility.yul\":1991:2013   */\n      add\n        /* \"#utility.yul\":1970:2023   */\n      tag_165\n      jump\t// in\n    tag_243:\n        /* \"#utility.yul\":1960:2023   */\n      swap2\n      pop\n        /* \"#utility.yul\":1916:2033   */\n      pop\n        /* \"#utility.yul\":1711:2040   */\n      swap3\n      swap2\n      pop\n      pop\n      jump\t// out\n        /* \"#utility.yul\":2046:2136   */\n    tag_166:\n        /* \"#utility.yul\":2080:2087   */\n      0x00\n        /* \"#utility.yul\":2123:2128   */\n      dup2\n        /* \"#utility.yul\":2116:2129   */\n      iszero\n        /* \"#utility.yul\":2109:2130   */\n      iszero\n        /* \"#utility.yul\":2098:2130   */\n      swap1\n      pop\n        /* \"#utility.yul\":2046:2136   */\n      swap2\n      swap1\n      pop\n      jump\t// out\n        /* \"#utility.yul\":2142:2251   */\n    tag_167:\n        /* \"#utility.yul\":2223:2244   */\n      tag_246\n        /* \"#utility.yul\":2238:2243   */\n      dup2\n        /* \"#utility.yul\":2223:2244   */\n      tag_166\n      jump\t// in\n    tag_246:\n        /* \"#utility.yul\":2218:2221   */\n      dup3\n        /* \"#utility.yul\":2211:2245   */\n      mstore\n        /* \"#utility.yul\":2142:2251   */\n      pop\n      pop\n      jump\t// out\n        /* \"#utility.yul\":2257:2467   */\n    tag_32:\n        /* \"#utility.yul\":2344:2348   */\n      0x00\n        /* \"#utility.yul\":2382:2384   */\n      0x20\n        /* \"#utility.yul\":2371:2380   */\n      dup3\n        /* \"#utility.yul\":2367:2385   */\n      add\n        /* \"#utility.yul\":2359:2385   */\n      swap1\n      pop\n        /* \"#utility.yul\":2395:2460   */\n      tag_248\n        /* \"#utility.yul\":2457:2458   */\n      0x00\n        /* \"#utility.yul\":2446:2455   */\n      dup4\n        /* \"#utility.yul\":2442:2459   */\n      add\n        /* \"#utility.yul\":2433:2439   */\n      dup5\n        /* \"#utility.yul\":2395:2460   */\n      tag_167\n      jump\t// in\n    tag_248:\n        /* \"#utility.yul\":2257:2467   */\n      swap3\n      swap2\n      pop\n      pop\n      jump\t// out\n        /* \"#utility.yul\":2473:2595   */\n    tag_168:\n        /* \"#utility.yul\":2546:2570   */\n      tag_250\n        /* \"#utility.yul\":2564:2569   */\n      dup2\n        /* \"#utility.yul\":2546:2570   */\n      tag_155\n      jump\t// in\n    tag_250:\n        /* \"#utility.yul\":2539:2544   */\n      dup2\n        /* \"#utility.yul\":2536:2571   */\n      eq\n        /* \"#utility.yul\":2526:2589   */\n      tag_251\n      jumpi\n        /* \"#utility.yul\":2585:2586   */\n      0x00\n        /* \"#utility.yul\":2582:2583   */\n      dup1\n        /* \"#utility.yul\":2575:2587   */\n      revert\n        /* \"#utility.yul\":2526:2589   */\n    tag_251:\n        /* \"#utility.yul\":2473:2595   */\n      pop\n      jump\t// out\n        /* \"#utility.yul\":2601:2740   */\n    tag_169:\n        /* \"#utility.yul\":2647:2652   */\n      0x00\n        /* \"#utility.yul\":2685:2691   */\n      dup2\n        /* \"#utility.yul\":2672:2692   */\n      calldataload\n        /* \"#utility.yul\":2663:2692   */\n      swap1\n      pop\n        /* \"#utility.yul\":2701:2734   */\n      tag_253\n        /* \"#utility.yul\":2728:2733   */\n      dup2\n        /* \"#utility.yul\":2701:2734   */\n      tag_168\n      jump\t// in\n    tag_253:\n        /* \"#utility.yul\":2601:2740   */\n      swap3\n      swap2\n      pop\n      pop\n      jump\t// out\n        /* \"#utility.yul\":2746:3075   */\n    tag_38:\n        /* \"#utility.yul\":2805:2811   */\n      0x00\n        /* \"#utility.yul\":2854:2856   */\n      0x20\n        /* \"#utility.yul\":2842:2851   */\n      dup3\n        /* \"#utility.yul\":2833:2840   */\n      dup5\n        /* \"#utility.yul\":2829:2852   */\n      sub\n        /* \"#utility.yul\":2825:2857   */\n      slt\n        /* \"#utility.yul\":2822:2941   */\n      iszero\n      tag_255\n      jumpi\n        /* \"#utility.yul\":2860:2939   */\n      tag_256\n      tag_161\n      jump\t// in\n    tag_256:\n        /* \"#utility.yul\":2822:2941   */\n    tag_255:\n        /* \"#utility.yul\":2980:2981   */\n      0x00\n        /* \"#utility.yul\":3005:3058   */\n      tag_257\n        /* \"#utility.yul\":3050:3057   */\n      dup5\n        /* \"#utility.yul\":3041:3047   */\n      dup3\n        /* \"#utility.yul\":3030:3039   */\n      dup6\n        /* \"#utility.yul\":3026:3048   */\n      add\n        /* \"#utility.yul\":3005:3058   */\n      tag_169\n      jump\t// in\n    tag_257:\n        /* \"#utility.yul\":2995:3058   */\n      swap2\n      pop\n        /* \"#utility.yul\":2951:3068   */\n      pop\n        /* \"#utility.yul\":2746:3075   */\n      swap3\n      swap2\n      pop\n      pop\n      jump\t// out\n        /* \"#utility.yul\":3081:3199   */\n    tag_170:\n        /* \"#utility.yul\":3168:3192   */\n      tag_259\n        /* \"#utility.yul\":3186:3191   */\n      dup2\n        /* \"#utility.yul\":3168:3192   */\n      tag_163\n      jump\t// in\n    tag_259:\n        /* \"#utility.yul\":3163:3166   */\n      dup3\n        /* \"#utility.yul\":3156:3193   */\n      mstore\n        /* \"#utility.yul\":3081:3199   */\n      pop\n      pop\n      jump\t// out\n        /* \"#utility.yul\":3205:3427   */\n    tag_41:\n        /* \"#utility.yul\":3298:3302   */\n      0x00\n        /* \"#utility.yul\":3336:3338   */\n      0x20\n        /* \"#utility.yul\":3325:3334   */\n      dup3\n        /* \"#utility.yul\":3321:3339   */\n      add\n        /* \"#utility.yul\":3313:3339   */\n      swap1\n      pop\n        /* \"#utility.yul\":3349:3420   */\n      tag_261\n        /* \"#utility.yul\":3417:3418   */\n      0x00\n        /* \"#utility.yul\":3406:3415   */\n      dup4\n        /* \"#utility.yul\":3402:3419   */\n      add\n        /* \"#utility.yul\":3393:3399   */\n      dup5\n        /* \"#utility.yul\":3349:3420   */\n      tag_170\n      jump\t// in\n    tag_261:\n        /* \"#utility.yul\":3205:3427   */\n      swap3\n      swap2\n      pop\n      pop\n      jump\t// out\n        /* \"#utility.yul\":3433:3550   */\n    tag_171:\n        /* \"#utility.yul\":3542:3543   */\n      0x00\n        /* \"#utility.yul\":3539:3540   */\n      dup1\n        /* \"#utility.yul\":3532:3544   */\n      revert\n        /* \"#utility.yul\":3556:3658   */\n    tag_172:\n        /* \"#utility.yul\":3597:3603   */\n      0x00\n        /* \"#utility.yul\":3648:3650   */\n      0x1f\n        /* \"#utility.yul\":3644:3651   */\n      not\n        /* \"#utility.yul\":3639:3641   */\n      0x1f\n        /* \"#utility.yul\":3632:3637   */\n      dup4\n        /* \"#utility.yul\":3628:3642   */\n      add\n        /* \"#utility.yul\":3624:3652   */\n      and\n        /* \"#utility.yul\":3614:3652   */\n      swap1\n      pop\n        /* \"#utility.yul\":3556:3658   */\n      swap2\n      swap1\n      pop\n      jump\t// out\n        /* \"#utility.yul\":3664:3844   */\n    tag_173:\n        /* \"#utility.yul\":3712:3789   */\n      0x4e487b7100000000000000000000000000000000000000000000000000000000\n        /* \"#utility.yul\":3709:3710   */\n      0x00\n        /* \"#utility.yul\":3702:3790   */\n      mstore\n        /* \"#utility.yul\":3809:3813   */\n      0x41\n        /* \"#utility.yul\":3806:3807   */\n      0x04\n        /* \"#utility.yul\":3799:3814   */\n      mstore\n        /* \"#utility.yul\":3833:3837   */\n      0x24\n        /* \"#utility.yul\":3830:3831   */\n      0x00\n        /* \"#utility.yul\":3823:3838   */\n      revert\n        /* \"#utility.yul\":3850:4131   */\n    tag_174:\n        /* \"#utility.yul\":3933:3960   */\n      tag_266\n        /* \"#utility.yul\":3955:3959   */\n      dup3\n        /* \"#utility.yul\":3933:3960   */\n      tag_172\n      jump\t// in\n    tag_266:\n        /* \"#utility.yul\":3925:3931   */\n      dup2\n        /* \"#utility.yul\":3921:3961   */\n      add\n        /* \"#utility.yul\":4063:4069   */\n      dup2\n        /* \"#utility.yul\":4051:4061   */\n      dup2\n        /* \"#utility.yul\":4048:4070   */\n      lt\n        /* \"#utility.yul\":4027:4045   */\n      0xffffffffffffffff\n        /* \"#utility.yul\":4015:4025   */\n      dup3\n        /* \"#utility.yul\":4012:4046   */\n      gt\n        /* \"#utility.yul\":4009:4071   */\n      or\n        /* \"#utility.yul\":4006:4094   */\n      iszero\n      tag_267\n      jumpi\n        /* \"#utility.yul\":4074:4092   */\n      tag_268\n      tag_173\n      jump\t// in\n    tag_268:\n        /* \"#utility.yul\":4006:4094   */\n    tag_267:\n        /* \"#utility.yul\":4114:4124   */\n      dup1\n        /* \"#utility.yul\":4110:4112   */\n      0x40\n        /* \"#utility.yul\":4103:4125   */\n      mstore\n        /* \"#utility.yul\":3893:4131   */\n      pop\n        /* \"#utility.yul\":3850:4131   */\n      pop\n      pop\n      jump\t// out\n        /* \"#utility.yul\":4137:4266   */\n    tag_175:\n        /* \"#utility.yul\":4171:4177   */\n      0x00\n        /* \"#utility.yul\":4198:4218   */\n      tag_270\n      tag_160\n      jump\t// in\n    tag_270:\n        /* \"#utility.yul\":4188:4218   */\n      swap1\n      pop\n        /* \"#utility.yul\":4227:4260   */\n      tag_271\n        /* \"#utility.yul\":4255:4259   */\n      dup3\n        /* \"#utility.yul\":4247:4253   */\n      dup3\n        /* \"#utility.yul\":4227:4260   */\n      tag_174\n      jump\t// in\n    tag_271:\n        /* \"#utility.yul\":4137:4266   */\n      swap2\n      swap1\n      pop\n      jump\t// out\n        /* \"#utility.yul\":4272:4583   */\n    tag_176:\n        /* \"#utility.yul\":4349:4353   */\n      0x00\n        /* \"#utility.yul\":4439:4457   */\n      0xffffffffffffffff\n        /* \"#utility.yul\":4431:4437   */\n      dup3\n        /* \"#utility.yul\":4428:4458   */\n      gt\n        /* \"#utility.yul\":4425:4481   */\n      iszero\n      tag_273\n      jumpi\n        /* \"#utility.yul\":4461:4479   */\n      tag_274\n      tag_173\n      jump\t// in\n    tag_274:\n        /* \"#utility.yul\":4425:4481   */\n    tag_273:\n        /* \"#utility.yul\":4511:4515   */\n      0x20\n        /* \"#utility.yul\":4503:4509   */\n      dup3\n        /* \"#utility.yul\":4499:4516   */\n      mul\n        /* \"#utility.yul\":4491:4516   */\n      swap1\n      pop\n        /* \"#utility.yul\":4571:4575   */\n      0x20\n        /* \"#utility.yul\":4565:4569   */\n      dup2\n        /* \"#utility.yul\":4561:4576   */\n      add\n        /* \"#utility.yul\":4553:4576   */\n      swap1\n      pop\n        /* \"#utility.yul\":4272:4583   */\n      swap2\n      swap1\n      pop\n      jump\t// out\n        /* \"#utility.yul\":4589:4706   */\n    tag_177:\n        /* \"#utility.yul\":4698:4699   */\n      0x00\n        /* \"#utility.yul\":4695:4696   */\n      dup1\n        /* \"#utility.yul\":4688:4700   */\n      revert\n        /* \"#utility.yul\":4729:5439   */\n    tag_178:\n        /* \"#utility.yul\":4825:4830   */\n      0x00\n        /* \"#utility.yul\":4850:4931   */\n      tag_277\n        /* \"#utility.yul\":4866:4930   */\n      tag_278\n        /* \"#utility.yul\":4923:4929   */\n      dup5\n        /* \"#utility.yul\":4866:4930   */\n      tag_176\n      jump\t// in\n    tag_278:\n        /* \"#utility.yul\":4850:4931   */\n      tag_175\n      jump\t// in\n    tag_277:\n        /* \"#utility.yul\":4841:4931   */\n      swap1\n      pop\n        /* \"#utility.yul\":4951:4956   */\n      dup1\n        /* \"#utility.yul\":4980:4986   */\n      dup4\n        /* \"#utility.yul\":4973:4978   */\n      dup3\n        /* \"#utility.yul\":4966:4987   */\n      mstore\n        /* \"#utility.yul\":5014:5018   */\n      0x20\n        /* \"#utility.yul\":5007:5012   */\n      dup3\n        /* \"#utility.yul\":5003:5019   */\n      add\n        /* \"#utility.yul\":4996:5019   */\n      swap1\n      pop\n        /* \"#utility.yul\":5067:5071   */\n      0x20\n        /* \"#utility.yul\":5059:5065   */\n      dup5\n        /* \"#utility.yul\":5055:5072   */\n      mul\n        /* \"#utility.yul\":5047:5053   */\n      dup4\n        /* \"#utility.yul\":5043:5073   */\n      add\n        /* \"#utility.yul\":5096:5099   */\n      dup6\n        /* \"#utility.yul\":5088:5094   */\n      dup2\n        /* \"#utility.yul\":5085:5100   */\n      gt\n        /* \"#utility.yul\":5082:5204   */\n      iszero\n      tag_279\n      jumpi\n        /* \"#utility.yul\":5115:5194   */\n      tag_280\n      tag_177\n      jump\t// in\n    tag_280:\n        /* \"#utility.yul\":5082:5204   */\n    tag_279:\n        /* \"#utility.yul\":5230:5236   */\n      dup4\n        /* \"#utility.yul\":5213:5433   */\n    tag_281:\n        /* \"#utility.yul\":5247:5253   */\n      dup2\n        /* \"#utility.yul\":5242:5245   */\n      dup2\n        /* \"#utility.yul\":5239:5254   */\n      lt\n        /* \"#utility.yul\":5213:5433   */\n      iszero\n      tag_283\n      jumpi\n        /* \"#utility.yul\":5322:5325   */\n      dup1\n        /* \"#utility.yul\":5351:5388   */\n      tag_284\n        /* \"#utility.yul\":5384:5387   */\n      dup9\n        /* \"#utility.yul\":5372:5382   */\n      dup3\n        /* \"#utility.yul\":5351:5388   */\n      tag_165\n      jump\t// in\n    tag_284:\n        /* \"#utility.yul\":5346:5349   */\n      dup5\n        /* \"#utility.yul\":5339:5389   */\n      mstore\n        /* \"#utility.yul\":5418:5422   */\n      0x20\n        /* \"#utility.yul\":5413:5416   */\n      dup5\n        /* \"#utility.yul\":5409:5423   */\n      add\n        /* \"#utility.yul\":5402:5423   */\n      swap4\n      pop\n        /* \"#utility.yul\":5289:5433   */\n      pop\n        /* \"#utility.yul\":5273:5277   */\n      0x20\n        /* \"#utility.yul\":5268:5271   */\n      dup2\n        /* \"#utility.yul\":5264:5278   */\n      add\n        /* \"#utility.yul\":5257:5278   */\n      swap1\n      pop\n        /* \"#utility.yul\":5213:5433   */\n      jump(tag_281)\n    tag_283:\n        /* \"#utility.yul\":5217:5238   */\n      pop\n        /* \"#utility.yul\":4831:5439   */\n      pop\n      pop\n        /* \"#utility.yul\":4729:5439   */\n      swap4\n      swap3\n      pop\n      pop\n      pop\n      jump\t// out\n        /* \"#utility.yul\":5462:5832   */\n    tag_179:\n        /* \"#utility.yul\":5533:5538   */\n      0x00\n        /* \"#utility.yul\":5582:5585   */\n      dup3\n        /* \"#utility.yul\":5575:5579   */\n      0x1f\n        /* \"#utility.yul\":5567:5573   */\n      dup4\n        /* \"#utility.yul\":5563:5580   */\n      add\n        /* \"#utility.yul\":5559:5586   */\n      slt\n        /* \"#utility.yul\":5549:5671   */\n      tag_286\n      jumpi\n        /* \"#utility.yul\":5590:5669   */\n      tag_287\n      tag_171\n      jump\t// in\n    tag_287:\n        /* \"#utility.yul\":5549:5671   */\n    tag_286:\n        /* \"#utility.yul\":5707:5713   */\n      dup2\n        /* \"#utility.yul\":5694:5714   */\n      calldataload\n        /* \"#utility.yul\":5732:5826   */\n      tag_288\n        /* \"#utility.yul\":5822:5825   */\n      dup5\n        /* \"#utility.yul\":5814:5820   */\n      dup3\n        /* \"#utility.yul\":5807:5811   */\n      0x20\n        /* \"#utility.yul\":5799:5805   */\n      dup7\n        /* \"#utility.yul\":5795:5812   */\n      add\n        /* \"#utility.yul\":5732:5826   */\n      tag_178\n      jump\t// in\n    tag_288:\n        /* \"#utility.yul\":5723:5826   */\n      swap2\n      pop\n        /* \"#utility.yul\":5539:5832   */\n      pop\n        /* \"#utility.yul\":5462:5832   */\n      swap3\n      swap2\n      pop\n      pop\n      jump\t// out\n        /* \"#utility.yul\":5838:6667   */\n    tag_44:\n        /* \"#utility.yul\":5940:5946   */\n      0x00\n        /* \"#utility.yul\":5948:5954   */\n      dup1\n        /* \"#utility.yul\":5956:5962   */\n      0x00\n        /* \"#utility.yul\":6005:6007   */\n      0x60\n        /* \"#utility.yul\":5993:6002   */\n      dup5\n        /* \"#utility.yul\":5984:5991   */\n      dup7\n        /* \"#utility.yul\":5980:6003   */\n      sub\n        /* \"#utility.yul\":5976:6008   */\n      slt\n        /* \"#utility.yul\":5973:6092   */\n      iszero\n      tag_290\n      jumpi\n        /* \"#utility.yul\":6011:6090   */\n      tag_291\n      tag_161\n      jump\t// in\n    tag_291:\n        /* \"#utility.yul\":5973:6092   */\n    tag_290:\n        /* \"#utility.yul\":6159:6160   */\n      0x00\n        /* \"#utility.yul\":6148:6157   */\n      dup5\n        /* \"#utility.yul\":6144:6161   */\n      add\n        /* \"#utility.yul\":6131:6162   */\n      calldataload\n        /* \"#utility.yul\":6189:6207   */\n      0xffffffffffffffff\n        /* \"#utility.yul\":6181:6187   */\n      dup2\n        /* \"#utility.yul\":6178:6208   */\n      gt\n        /* \"#utility.yul\":6175:6292   */\n      iszero\n      tag_292\n      jumpi\n        /* \"#utility.yul\":6211:6290   */\n      tag_293\n      tag_162\n      jump\t// in\n    tag_293:\n        /* \"#utility.yul\":6175:6292   */\n    tag_292:\n        /* \"#utility.yul\":6316:6394   */\n      tag_294\n        /* \"#utility.yul\":6386:6393   */\n      dup7\n        /* \"#utility.yul\":6377:6383   */\n      dup3\n        /* \"#utility.yul\":6366:6375   */\n      dup8\n        /* \"#utility.yul\":6362:6384   */\n      add\n        /* \"#utility.yul\":6316:6394   */\n      tag_179\n      jump\t// in\n    tag_294:\n        /* \"#utility.yul\":6306:6394   */\n      swap4\n      pop\n        /* \"#utility.yul\":6102:6404   */\n      pop\n        /* \"#utility.yul\":6443:6445   */\n      0x20\n        /* \"#utility.yul\":6469:6522   */\n      tag_295\n        /* \"#utility.yul\":6514:6521   */\n      dup7\n        /* \"#utility.yul\":6505:6511   */\n      dup3\n        /* \"#utility.yul\":6494:6503   */\n      dup8\n        /* \"#utility.yul\":6490:6512   */\n      add\n        /* \"#utility.yul\":6469:6522   */\n      tag_165\n      jump\t// in\n    tag_295:\n        /* \"#utility.yul\":6459:6522   */\n      swap3\n      pop\n        /* \"#utility.yul\":6414:6532   */\n      pop\n        /* \"#utility.yul\":6571:6573   */\n      0x40\n        /* \"#utility.yul\":6597:6650   */\n      tag_296\n        /* \"#utility.yul\":6642:6649   */\n      dup7\n        /* \"#utility.yul\":6633:6639   */\n      dup3\n        /* \"#utility.yul\":6622:6631   */\n      dup8\n        /* \"#utility.yul\":6618:6640   */\n      add\n        /* \"#utility.yul\":6597:6650   */\n      tag_165\n      jump\t// in\n    tag_296:\n        /* \"#utility.yul\":6587:6650   */\n      swap2\n      pop\n        /* \"#utility.yul\":6542:6660   */\n      pop\n        /* \"#utility.yul\":5838:6667   */\n      swap3\n      pop\n      swap3\n      pop\n      swap3\n      jump\t// out\n        /* \"#utility.yul\":6673:6795   */\n    tag_180:\n        /* \"#utility.yul\":6746:6770   */\n      tag_298\n        /* \"#utility.yul\":6764:6769   */\n      dup2\n        /* \"#utility.yul\":6746:6770   */\n      tag_158\n      jump\t// in\n    tag_298:\n        /* \"#utility.yul\":6739:6744   */\n      dup2\n        /* \"#utility.yul\":6736:6771   */\n      eq\n        /* \"#utility.yul\":6726:6789   */\n      tag_299\n      jumpi\n        /* \"#utility.yul\":6785:6786   */\n      0x00\n        /* \"#utility.yul\":6782:6783   */\n      dup1\n        /* \"#utility.yul\":6775:6787   */\n      revert\n        /* \"#utility.yul\":6726:6789   */\n    tag_299:\n        /* \"#utility.yul\":6673:6795   */\n      pop\n      jump\t// out\n        /* \"#utility.yul\":6801:6940   */\n    tag_181:\n        /* \"#utility.yul\":6847:6852   */\n      0x00\n        /* \"#utility.yul\":6885:6891   */\n      dup2\n        /* \"#utility.yul\":6872:6892   */\n      calldataload\n        /* \"#utility.yul\":6863:6892   */\n      swap1\n      pop\n        /* \"#utility.yul\":6901:6934   */\n      tag_301\n        /* \"#utility.yul\":6928:6933   */\n      dup2\n        /* \"#utility.yul\":6901:6934   */\n      tag_180\n      jump\t// in\n    tag_301:\n        /* \"#utility.yul\":6801:6940   */\n      swap3\n      swap2\n      pop\n      pop\n      jump\t// out\n        /* \"#utility.yul\":6946:7275   */\n    tag_52:\n        /* \"#utility.yul\":7005:7011   */\n      0x00\n        /* \"#utility.yul\":7054:7056   */\n      0x20\n        /* \"#utility.yul\":7042:7051   */\n      dup3\n        /* \"#utility.yul\":7033:7040   */\n      dup5\n        /* \"#utility.yul\":7029:7052   */\n      sub\n        /* \"#utility.yul\":7025:7057   */\n      slt\n        /* \"#utility.yul\":7022:7141   */\n      iszero\n      tag_303\n      jumpi\n        /* \"#utility.yul\":7060:7139   */\n      tag_304\n      tag_161\n      jump\t// in\n    tag_304:\n        /* \"#utility.yul\":7022:7141   */\n    tag_303:\n        /* \"#utility.yul\":7180:7181   */\n      0x00\n        /* \"#utility.yul\":7205:7258   */\n      tag_305\n        /* \"#utility.yul\":7250:7257   */\n      dup5\n        /* \"#utility.yul\":7241:7247   */\n      dup3\n        /* \"#utility.yul\":7230:7239   */\n      dup6\n        /* \"#utility.yul\":7226:7248   */\n      add\n        /* \"#utility.yul\":7205:7258   */\n      tag_181\n      jump\t// in\n    tag_305:\n        /* \"#utility.yul\":7195:7258   */\n      swap2\n      pop\n        /* \"#utility.yul\":7151:7268   */\n      pop\n        /* \"#utility.yul\":6946:7275   */\n      swap3\n      swap2\n      pop\n      pop\n      jump\t// out\n        /* \"#utility.yul\":7281:7424   */\n    tag_182:\n        /* \"#utility.yul\":7338:7343   */\n      0x00\n        /* \"#utility.yul\":7369:7375   */\n      dup2\n        /* \"#utility.yul\":7363:7376   */\n      mload\n        /* \"#utility.yul\":7354:7376   */\n      swap1\n      pop\n        /* \"#utility.yul\":7385:7418   */\n      tag_307\n        /* \"#utility.yul\":7412:7417   */\n      dup2\n        /* \"#utility.yul\":7385:7418   */\n      tag_168\n      jump\t// in\n    tag_307:\n        /* \"#utility.yul\":7281:7424   */\n      swap3\n      swap2\n      pop\n      pop\n      jump\t// out\n        /* \"#utility.yul\":7430:7781   */\n    tag_61:\n        /* \"#utility.yul\":7500:7506   */\n      0x00\n        /* \"#utility.yul\":7549:7551   */\n      0x20\n        /* \"#utility.yul\":7537:7546   */\n      dup3\n        /* \"#utility.yul\":7528:7535   */\n      dup5\n        /* \"#utility.yul\":7524:7547   */\n      sub\n        /* \"#utility.yul\":7520:7552   */\n      slt\n        /* \"#utility.yul\":7517:7636   */\n      iszero\n      tag_309\n      jumpi\n        /* \"#utility.yul\":7555:7634   */\n      tag_310\n      tag_161\n      jump\t// in\n    tag_310:\n        /* \"#utility.yul\":7517:7636   */\n    tag_309:\n        /* \"#utility.yul\":7675:7676   */\n      0x00\n        /* \"#utility.yul\":7700:7764   */\n      tag_311\n        /* \"#utility.yul\":7756:7763   */\n      dup5\n        /* \"#utility.yul\":7747:7753   */\n      dup3\n        /* \"#utility.yul\":7736:7745   */\n      dup6\n        /* \"#utility.yul\":7732:7754   */\n      add\n        /* \"#utility.yul\":7700:7764   */\n      tag_182\n      jump\t// in\n    tag_311:\n        /* \"#utility.yul\":7690:7764   */\n      swap2\n      pop\n        /* \"#utility.yul\":7646:7774   */\n      pop\n        /* \"#utility.yul\":7430:7781   */\n      swap3\n      swap2\n      pop\n      pop\n      jump\t// out\n        /* \"#utility.yul\":7787:7956   */\n    tag_183:\n        /* \"#utility.yul\":7871:7882   */\n      0x00\n        /* \"#utility.yul\":7905:7911   */\n      dup3\n        /* \"#utility.yul\":7900:7903   */\n      dup3\n        /* \"#utility.yul\":7893:7912   */\n      mstore\n        /* \"#utility.yul\":7945:7949   */\n      0x20\n        /* \"#utility.yul\":7940:7943   */\n      dup3\n        /* \"#utility.yul\":7936:7950   */\n      add\n        /* \"#utility.yul\":7921:7950   */\n      swap1\n      pop\n        /* \"#utility.yul\":7787:7956   */\n      swap3\n      swap2\n      pop\n      pop\n      jump\t// out\n        /* \"#utility.yul\":7962:8136   */\n    tag_184:\n        /* \"#utility.yul\":8102:8128   */\n      0x446561646c696e65206e6f742072656163686564207965740000000000000000\n        /* \"#utility.yul\":8098:8099   */\n      0x00\n        /* \"#utility.yul\":8090:8096   */\n      dup3\n        /* \"#utility.yul\":8086:8100   */\n      add\n        /* \"#utility.yul\":8079:8129   */\n      mstore\n        /* \"#utility.yul\":7962:8136   */\n      pop\n      jump\t// out\n        /* \"#utility.yul\":8142:8508   */\n    tag_185:\n        /* \"#utility.yul\":8284:8287   */\n      0x00\n        /* \"#utility.yul\":8305:8372   */\n      tag_315\n        /* \"#utility.yul\":8369:8371   */\n      0x18\n        /* \"#utility.yul\":8364:8367   */\n      dup4\n        /* \"#utility.yul\":8305:8372   */\n      tag_183\n      jump\t// in\n    tag_315:\n        /* \"#utility.yul\":8298:8372   */\n      swap2\n      pop\n        /* \"#utility.yul\":8381:8474   */\n      tag_316\n        /* \"#utility.yul\":8470:8473   */\n      dup3\n        /* \"#utility.yul\":8381:8474   */\n      tag_184\n      jump\t// in\n    tag_316:\n        /* \"#utility.yul\":8499:8501   */\n      0x20\n        /* \"#utility.yul\":8494:8497   */\n      dup3\n        /* \"#utility.yul\":8490:8502   */\n      add\n        /* \"#utility.yul\":8483:8502   */\n      swap1\n      pop\n        /* \"#utility.yul\":8142:8508   */\n      swap2\n      swap1\n      pop\n      jump\t// out\n        /* \"#utility.yul\":8514:8933   */\n    tag_68:\n        /* \"#utility.yul\":8680:8684   */\n      0x00\n        /* \"#utility.yul\":8718:8720   */\n      0x20\n        /* \"#utility.yul\":8707:8716   */\n      dup3\n        /* \"#utility.yul\":8703:8721   */\n      add\n        /* \"#utility.yul\":8695:8721   */\n      swap1\n      pop\n        /* \"#utility.yul\":8767:8776   */\n      dup2\n        /* \"#utility.yul\":8761:8765   */\n      dup2\n        /* \"#utility.yul\":8757:8777   */\n      sub\n        /* \"#utility.yul\":8753:8754   */\n      0x00\n        /* \"#utility.yul\":8742:8751   */\n      dup4\n        /* \"#utility.yul\":8738:8755   */\n      add\n        /* \"#utility.yul\":8731:8778   */\n      mstore\n        /* \"#utility.yul\":8795:8926   */\n      tag_318\n        /* \"#utility.yul\":8921:8925   */\n      dup2\n        /* \"#utility.yul\":8795:8926   */\n      tag_185\n      jump\t// in\n    tag_318:\n        /* \"#utility.yul\":8787:8926   */\n      swap1\n      pop\n        /* \"#utility.yul\":8514:8933   */\n      swap2\n      swap1\n      pop\n      jump\t// out\n        /* \"#utility.yul\":8939:9114   */\n    tag_186:\n        /* \"#utility.yul\":9079:9106   */\n      0x54776f2070726f6f667320616c72656164792073746f72656400000000000000\n        /* \"#utility.yul\":9075:9076   */\n      0x00\n        /* \"#utility.yul\":9067:9073   */\n      dup3\n        /* \"#utility.yul\":9063:9077   */\n      add\n        /* \"#utility.yul\":9056:9107   */\n      mstore\n        /* \"#utility.yul\":8939:9114   */\n      pop\n      jump\t// out\n        /* \"#utility.yul\":9120:9486   */\n    tag_187:\n        /* \"#utility.yul\":9262:9265   */\n      0x00\n        /* \"#utility.yul\":9283:9350   */\n      tag_321\n        /* \"#utility.yul\":9347:9349   */\n      0x19\n        /* \"#utility.yul\":9342:9345   */\n      dup4\n        /* \"#utility.yul\":9283:9350   */\n      tag_183\n      jump\t// in\n    tag_321:\n        /* \"#utility.yul\":9276:9350   */\n      swap2\n      pop\n        /* \"#utility.yul\":9359:9452   */\n      tag_322\n        /* \"#utility.yul\":9448:9451   */\n      dup3\n        /* \"#utility.yul\":9359:9452   */\n      tag_186\n      jump\t// in\n    tag_322:\n        /* \"#utility.yul\":9477:9479   */\n      0x20\n        /* \"#utility.yul\":9472:9475   */\n      dup3\n        /* \"#utility.yul\":9468:9480   */\n      add\n        /* \"#utility.yul\":9461:9480   */\n      swap1\n      pop\n        /* \"#utility.yul\":9120:9486   */\n      swap2\n      swap1\n      pop\n      jump\t// out\n        /* \"#utility.yul\":9492:9911   */\n    tag_73:\n        /* \"#utility.yul\":9658:9662   */\n      0x00\n        /* \"#utility.yul\":9696:9698   */\n      0x20\n        /* \"#utility.yul\":9685:9694   */\n      dup3\n        /* \"#utility.yul\":9681:9699   */\n      add\n        /* \"#utility.yul\":9673:9699   */\n      swap1\n      pop\n        /* \"#utility.yul\":9745:9754   */\n      dup2\n        /* \"#utility.yul\":9739:9743   */\n      dup2\n        /* \"#utility.yul\":9735:9755   */\n      sub\n        /* \"#utility.yul\":9731:9732   */\n      0x00\n        /* \"#utility.yul\":9720:9729   */\n      dup4\n        /* \"#utility.yul\":9716:9733   */\n      add\n        /* \"#utility.yul\":9709:9756   */\n      mstore\n        /* \"#utility.yul\":9773:9904   */\n      tag_324\n        /* \"#utility.yul\":9899:9903   */\n      dup2\n        /* \"#utility.yul\":9773:9904   */\n      tag_187\n      jump\t// in\n    tag_324:\n        /* \"#utility.yul\":9765:9904   */\n      swap1\n      pop\n        /* \"#utility.yul\":9492:9911   */\n      swap2\n      swap1\n      pop\n      jump\t// out\n        /* \"#utility.yul\":9917:10090   */\n    tag_188:\n        /* \"#utility.yul\":10057:10082   */\n      0x456e7465726564207472696767657246616c6c6261636b000000000000000000\n        /* \"#utility.yul\":10053:10054   */\n      0x00\n        /* \"#utility.yul\":10045:10051   */\n      dup3\n        /* \"#utility.yul\":10041:10055   */\n      add\n        /* \"#utility.yul\":10034:10083   */\n      mstore\n        /* \"#utility.yul\":9917:10090   */\n      pop\n      jump\t// out\n        /* \"#utility.yul\":10096:10462   */\n    tag_189:\n        /* \"#utility.yul\":10238:10241   */\n      0x00\n        /* \"#utility.yul\":10259:10326   */\n      tag_327\n        /* \"#utility.yul\":10323:10325   */\n      0x17\n        /* \"#utility.yul\":10318:10321   */\n      dup4\n        /* \"#utility.yul\":10259:10326   */\n      tag_183\n      jump\t// in\n    tag_327:\n        /* \"#utility.yul\":10252:10326   */\n      swap2\n      pop\n        /* \"#utility.yul\":10335:10428   */\n      tag_328\n        /* \"#utility.yul\":10424:10427   */\n      dup3\n        /* \"#utility.yul\":10335:10428   */\n      tag_188\n      jump\t// in\n    tag_328:\n        /* \"#utility.yul\":10453:10455   */\n      0x20\n        /* \"#utility.yul\":10448:10451   */\n      dup3\n        /* \"#utility.yul\":10444:10456   */\n      add\n        /* \"#utility.yul\":10437:10456   */\n      swap1\n      pop\n        /* \"#utility.yul\":10096:10462   */\n      swap2\n      swap1\n      pop\n      jump\t// out\n        /* \"#utility.yul\":10468:10887   */\n    tag_75:\n        /* \"#utility.yul\":10634:10638   */\n      0x00\n        /* \"#utility.yul\":10672:10674   */\n      0x20\n        /* \"#utility.yul\":10661:10670   */\n      dup3\n        /* \"#utility.yul\":10657:10675   */\n      add\n        /* \"#utility.yul\":10649:10675   */\n      swap1\n      pop\n        /* \"#utility.yul\":10721:10730   */\n      dup2\n        /* \"#utility.yul\":10715:10719   */\n      dup2\n        /* \"#utility.yul\":10711:10731   */\n      sub\n        /* \"#utility.yul\":10707:10708   */\n      0x00\n        /* \"#utility.yul\":10696:10705   */\n      dup4\n        /* \"#utility.yul\":10692:10709   */\n      add\n        /* \"#utility.yul\":10685:10732   */\n      mstore\n        /* \"#utility.yul\":10749:10880   */\n      tag_330\n        /* \"#utility.yul\":10875:10879   */\n      dup2\n        /* \"#utility.yul\":10749:10880   */\n      tag_189\n      jump\t// in\n    tag_330:\n        /* \"#utility.yul\":10741:10880   */\n      swap1\n      pop\n        /* \"#utility.yul\":10468:10887   */\n      swap2\n      swap1\n      pop\n      jump\t// out\n        /* \"#utility.yul\":10893:11036   */\n    tag_190:\n        /* \"#utility.yul\":10950:10955   */\n      0x00\n        /* \"#utility.yul\":10981:10987   */\n      dup2\n        /* \"#utility.yul\":10975:10988   */\n      mload\n        /* \"#utility.yul\":10966:10988   */\n      swap1\n      pop\n        /* \"#utility.yul\":10997:11030   */\n      tag_332\n        /* \"#utility.yul\":11024:11029   */\n      dup2\n        /* \"#utility.yul\":10997:11030   */\n      tag_180\n      jump\t// in\n    tag_332:\n        /* \"#utility.yul\":10893:11036   */\n      swap3\n      swap2\n      pop\n      pop\n      jump\t// out\n        /* \"#utility.yul\":11042:11393   */\n    tag_79:\n        /* \"#utility.yul\":11112:11118   */\n      0x00\n        /* \"#utility.yul\":11161:11163   */\n      0x20\n        /* \"#utility.yul\":11149:11158   */\n      dup3\n        /* \"#utility.yul\":11140:11147   */\n      dup5\n        /* \"#utility.yul\":11136:11159   */\n      sub\n        /* \"#utility.yul\":11132:11164   */\n      slt\n        /* \"#utility.yul\":11129:11248   */\n      iszero\n      tag_334\n      jumpi\n        /* \"#utility.yul\":11167:11246   */\n      tag_335\n      tag_161\n      jump\t// in\n    tag_335:\n        /* \"#utility.yul\":11129:11248   */\n    tag_334:\n        /* \"#utility.yul\":11287:11288   */\n      0x00\n        /* \"#utility.yul\":11312:11376   */\n      tag_336\n        /* \"#utility.yul\":11368:11375   */\n      dup5\n        /* \"#utility.yul\":11359:11365   */\n      dup3\n        /* \"#utility.yul\":11348:11357   */\n      dup6\n        /* \"#utility.yul\":11344:11366   */\n      add\n        /* \"#utility.yul\":11312:11376   */\n      tag_190\n      jump\t// in\n    tag_336:\n        /* \"#utility.yul\":11302:11376   */\n      swap2\n      pop\n        /* \"#utility.yul\":11258:11386   */\n      pop\n        /* \"#utility.yul\":11042:11393   */\n      swap3\n      swap2\n      pop\n      pop\n      jump\t// out\n        /* \"#utility.yul\":11399:11573   */\n    tag_191:\n        /* \"#utility.yul\":11539:11565   */\n      0x466574636865642073656e646572732066726f6d205343540000000000000000\n        /* \"#utility.yul\":11535:11536   */\n      0x00\n        /* \"#utility.yul\":11527:11533   */\n      dup3\n        /* \"#utility.yul\":11523:11537   */\n      add\n        /* \"#utility.yul\":11516:11566   */\n      mstore\n        /* \"#utility.yul\":11399:11573   */\n      pop\n      jump\t// out\n        /* \"#utility.yul\":11579:11945   */\n    tag_192:\n        /* \"#utility.yul\":11721:11724   */\n      0x00\n        /* \"#utility.yul\":11742:11809   */\n      tag_339\n        /* \"#utility.yul\":11806:11808   */\n      0x18\n        /* \"#utility.yul\":11801:11804   */\n      dup4\n        /* \"#utility.yul\":11742:11809   */\n      tag_183\n      jump\t// in\n    tag_339:\n        /* \"#utility.yul\":11735:11809   */\n      swap2\n      pop\n        /* \"#utility.yul\":11818:11911   */\n      tag_340\n        /* \"#utility.yul\":11907:11910   */\n      dup3\n        /* \"#utility.yul\":11818:11911   */\n      tag_191\n      jump\t// in\n    tag_340:\n        /* \"#utility.yul\":11936:11938   */\n      0x20\n        /* \"#utility.yul\":11931:11934   */\n      dup3\n        /* \"#utility.yul\":11927:11939   */\n      add\n        /* \"#utility.yul\":11920:11939   */\n      swap1\n      pop\n        /* \"#utility.yul\":11579:11945   */\n      swap2\n      swap1\n      pop\n      jump\t// out\n        /* \"#utility.yul\":11951:12370   */\n    tag_84:\n        /* \"#utility.yul\":12117:12121   */\n      0x00\n        /* \"#utility.yul\":12155:12157   */\n      0x20\n        /* \"#utility.yul\":12144:12153   */\n      dup3\n        /* \"#utility.yul\":12140:12158   */\n      add\n        /* \"#utility.yul\":12132:12158   */\n      swap1\n      pop\n        /* \"#utility.yul\":12204:12213   */\n      dup2\n        /* \"#utility.yul\":12198:12202   */\n      dup2\n        /* \"#utility.yul\":12194:12214   */\n      sub\n        /* \"#utility.yul\":12190:12191   */\n      0x00\n        /* \"#utility.yul\":12179:12188   */\n      dup4\n        /* \"#utility.yul\":12175:12192   */\n      add\n        /* \"#utility.yul\":12168:12215   */\n      mstore\n        /* \"#utility.yul\":12232:12363   */\n      tag_342\n        /* \"#utility.yul\":12358:12362   */\n      dup2\n        /* \"#utility.yul\":12232:12363   */\n      tag_192\n      jump\t// in\n    tag_342:\n        /* \"#utility.yul\":12224:12363   */\n      swap1\n      pop\n        /* \"#utility.yul\":11951:12370   */\n      swap2\n      swap1\n      pop\n      jump\t// out\n        /* \"#utility.yul\":12376:12493   */\n    tag_193:\n        /* \"#utility.yul\":12485:12486   */\n      0x00\n        /* \"#utility.yul\":12482:12483   */\n      dup1\n        /* \"#utility.yul\":12475:12487   */\n      revert\n        /* \"#utility.yul\":12622:12765   */\n    tag_195:\n        /* \"#utility.yul\":12679:12684   */\n      0x00\n        /* \"#utility.yul\":12710:12716   */\n      dup2\n        /* \"#utility.yul\":12704:12717   */\n      mload\n        /* \"#utility.yul\":12695:12717   */\n      swap1\n      pop\n        /* \"#utility.yul\":12726:12759   */\n      tag_346\n        /* \"#utility.yul\":12753:12758   */\n      dup2\n        /* \"#utility.yul\":12726:12759   */\n      tag_164\n      jump\t// in\n    tag_346:\n        /* \"#utility.yul\":12622:12765   */\n      swap3\n      swap2\n      pop\n      pop\n      jump\t// out\n        /* \"#utility.yul\":12801:14306   */\n    tag_196:\n        /* \"#utility.yul\":12890:12895   */\n      0x00\n        /* \"#utility.yul\":12934:12938   */\n      0xe0\n        /* \"#utility.yul\":12922:12931   */\n      dup3\n        /* \"#utility.yul\":12917:12920   */\n      dup5\n        /* \"#utility.yul\":12913:12932   */\n      sub\n        /* \"#utility.yul\":12909:12939   */\n      slt\n        /* \"#utility.yul\":12906:13023   */\n      iszero\n      tag_348\n      jumpi\n        /* \"#utility.yul\":12942:13021   */\n      tag_349\n      tag_193\n      jump\t// in\n    tag_349:\n        /* \"#utility.yul\":12906:13023   */\n    tag_348:\n        /* \"#utility.yul\":13041:13062   */\n      tag_350\n        /* \"#utility.yul\":13057:13061   */\n      0xe0\n        /* \"#utility.yul\":13041:13062   */\n      tag_175\n      jump\t// in\n    tag_350:\n        /* \"#utility.yul\":13032:13062   */\n      swap1\n      pop\n        /* \"#utility.yul\":13123:13124   */\n      0x00\n        /* \"#utility.yul\":13163:13223   */\n      tag_351\n        /* \"#utility.yul\":13219:13222   */\n      dup5\n        /* \"#utility.yul\":13210:13216   */\n      dup3\n        /* \"#utility.yul\":13199:13208   */\n      dup6\n        /* \"#utility.yul\":13195:13217   */\n      add\n        /* \"#utility.yul\":13163:13223   */\n      tag_190\n      jump\t// in\n    tag_351:\n        /* \"#utility.yul\":13156:13160   */\n      0x00\n        /* \"#utility.yul\":13149:13154   */\n      dup4\n        /* \"#utility.yul\":13145:13161   */\n      add\n        /* \"#utility.yul\":13138:13224   */\n      mstore\n        /* \"#utility.yul\":13072:13235   */\n      pop\n        /* \"#utility.yul\":13298:13300   */\n      0x20\n        /* \"#utility.yul\":13339:13399   */\n      tag_352\n        /* \"#utility.yul\":13395:13398   */\n      dup5\n        /* \"#utility.yul\":13386:13392   */\n      dup3\n        /* \"#utility.yul\":13375:13384   */\n      dup6\n        /* \"#utility.yul\":13371:13393   */\n      add\n        /* \"#utility.yul\":13339:13399   */\n      tag_190\n      jump\t// in\n    tag_352:\n        /* \"#utility.yul\":13332:13336   */\n      0x20\n        /* \"#utility.yul\":13325:13330   */\n      dup4\n        /* \"#utility.yul\":13321:13337   */\n      add\n        /* \"#utility.yul\":13314:13400   */\n      mstore\n        /* \"#utility.yul\":13245:13411   */\n      pop\n        /* \"#utility.yul\":13480:13482   */\n      0x40\n        /* \"#utility.yul\":13521:13581   */\n      tag_353\n        /* \"#utility.yul\":13577:13580   */\n      dup5\n        /* \"#utility.yul\":13568:13574   */\n      dup3\n        /* \"#utility.yul\":13557:13566   */\n      dup6\n        /* \"#utility.yul\":13553:13575   */\n      add\n        /* \"#utility.yul\":13521:13581   */\n      tag_182\n      jump\t// in\n    tag_353:\n        /* \"#utility.yul\":13514:13518   */\n      0x40\n        /* \"#utility.yul\":13507:13512   */\n      dup4\n        /* \"#utility.yul\":13503:13519   */\n      add\n        /* \"#utility.yul\":13496:13582   */\n      mstore\n        /* \"#utility.yul\":13421:13593   */\n      pop\n        /* \"#utility.yul\":13656:13658   */\n      0x60\n        /* \"#utility.yul\":13697:13757   */\n      tag_354\n        /* \"#utility.yul\":13753:13756   */\n      dup5\n        /* \"#utility.yul\":13744:13750   */\n      dup3\n        /* \"#utility.yul\":13733:13742   */\n      dup6\n        /* \"#utility.yul\":13729:13751   */\n      add\n        /* \"#utility.yul\":13697:13757   */\n      tag_190\n      jump\t// in\n    tag_354:\n        /* \"#utility.yul\":13690:13694   */\n      0x60\n        /* \"#utility.yul\":13683:13688   */\n      dup4\n        /* \"#utility.yul\":13679:13695   */\n      add\n        /* \"#utility.yul\":13672:13758   */\n      mstore\n        /* \"#utility.yul\":13603:13769   */\n      pop\n        /* \"#utility.yul\":13833:13836   */\n      0x80\n        /* \"#utility.yul\":13875:13935   */\n      tag_355\n        /* \"#utility.yul\":13931:13934   */\n      dup5\n        /* \"#utility.yul\":13922:13928   */\n      dup3\n        /* \"#utility.yul\":13911:13920   */\n      dup6\n        /* \"#utility.yul\":13907:13929   */\n      add\n        /* \"#utility.yul\":13875:13935   */\n      tag_195\n      jump\t// in\n    tag_355:\n        /* \"#utility.yul\":13868:13872   */\n      0x80\n        /* \"#utility.yul\":13861:13866   */\n      dup4\n        /* \"#utility.yul\":13857:13873   */\n      add\n        /* \"#utility.yul\":13850:13936   */\n      mstore\n        /* \"#utility.yul\":13779:13947   */\n      pop\n        /* \"#utility.yul\":14011:14014   */\n      0xa0\n        /* \"#utility.yul\":14053:14113   */\n      tag_356\n        /* \"#utility.yul\":14109:14112   */\n      dup5\n        /* \"#utility.yul\":14100:14106   */\n      dup3\n        /* \"#utility.yul\":14089:14098   */\n      dup6\n        /* \"#utility.yul\":14085:14107   */\n      add\n        /* \"#utility.yul\":14053:14113   */\n      tag_195\n      jump\t// in\n    tag_356:\n        /* \"#utility.yul\":14046:14050   */\n      0xa0\n        /* \"#utility.yul\":14039:14044   */\n      dup4\n        /* \"#utility.yul\":14035:14051   */\n      add\n        /* \"#utility.yul\":14028:14114   */\n      mstore\n        /* \"#utility.yul\":13957:14125   */\n      pop\n        /* \"#utility.yul\":14185:14188   */\n      0xc0\n        /* \"#utility.yul\":14227:14287   */\n      tag_357\n        /* \"#utility.yul\":14283:14286   */\n      dup5\n        /* \"#utility.yul\":14274:14280   */\n      dup3\n        /* \"#utility.yul\":14263:14272   */\n      dup6\n        /* \"#utility.yul\":14259:14281   */\n      add\n        /* \"#utility.yul\":14227:14287   */\n      tag_190\n      jump\t// in\n    tag_357:\n        /* \"#utility.yul\":14220:14224   */\n      0xc0\n        /* \"#utility.yul\":14213:14218   */\n      dup4\n        /* \"#utility.yul\":14209:14225   */\n      add\n        /* \"#utility.yul\":14202:14288   */\n      mstore\n        /* \"#utility.yul\":14135:14299   */\n      pop\n        /* \"#utility.yul\":12801:14306   */\n      swap3\n      swap2\n      pop\n      pop\n      jump\t// out\n        /* \"#utility.yul\":14312:14722   */\n    tag_89:\n        /* \"#utility.yul\":14411:14417   */\n      0x00\n        /* \"#utility.yul\":14460:14463   */\n      0xe0\n        /* \"#utility.yul\":14448:14457   */\n      dup3\n        /* \"#utility.yul\":14439:14446   */\n      dup5\n        /* \"#utility.yul\":14435:14458   */\n      sub\n        /* \"#utility.yul\":14431:14464   */\n      slt\n        /* \"#utility.yul\":14428:14548   */\n      iszero\n      tag_359\n      jumpi\n        /* \"#utility.yul\":14467:14546   */\n      tag_360\n      tag_161\n      jump\t// in\n    tag_360:\n        /* \"#utility.yul\":14428:14548   */\n    tag_359:\n        /* \"#utility.yul\":14587:14588   */\n      0x00\n        /* \"#utility.yul\":14612:14705   */\n      tag_361\n        /* \"#utility.yul\":14697:14704   */\n      dup5\n        /* \"#utility.yul\":14688:14694   */\n      dup3\n        /* \"#utility.yul\":14677:14686   */\n      dup6\n        /* \"#utility.yul\":14673:14695   */\n      add\n        /* \"#utility.yul\":14612:14705   */\n      tag_196\n      jump\t// in\n    tag_361:\n        /* \"#utility.yul\":14602:14705   */\n      swap2\n      pop\n        /* \"#utility.yul\":14558:14715   */\n      pop\n        /* \"#utility.yul\":14312:14722   */\n      swap3\n      swap2\n      pop\n      pop\n      jump\t// out\n        /* \"#utility.yul\":14728:14901   */\n    tag_197:\n        /* \"#utility.yul\":14868:14893   */\n      0x496e76616c69642073656e646572312061646472657373000000000000000000\n        /* \"#utility.yul\":14864:14865   */\n      0x00\n        /* \"#utility.yul\":14856:14862   */\n      dup3\n        /* \"#utility.yul\":14852:14866   */\n      add\n        /* \"#utility.yul\":14845:14894   */\n      mstore\n        /* \"#utility.yul\":14728:14901   */\n      pop\n      jump\t// out\n        /* \"#utility.yul\":14907:15273   */\n    tag_198:\n        /* \"#utility.yul\":15049:15052   */\n      0x00\n        /* \"#utility.yul\":15070:15137   */\n      tag_364\n        /* \"#utility.yul\":15134:15136   */\n      0x17\n        /* \"#utility.yul\":15129:15132   */\n      dup4\n        /* \"#utility.yul\":15070:15137   */\n      tag_183\n      jump\t// in\n    tag_364:\n        /* \"#utility.yul\":15063:15137   */\n      swap2\n      pop\n        /* \"#utility.yul\":15146:15239   */\n      tag_365\n        /* \"#utility.yul\":15235:15238   */\n      dup3\n        /* \"#utility.yul\":15146:15239   */\n      tag_197\n      jump\t// in\n    tag_365:\n        /* \"#utility.yul\":15264:15266   */\n      0x20\n        /* \"#utility.yul\":15259:15262   */\n      dup3\n        /* \"#utility.yul\":15255:15267   */\n      add\n        /* \"#utility.yul\":15248:15267   */\n      swap1\n      pop\n        /* \"#utility.yul\":14907:15273   */\n      swap2\n      swap1\n      pop\n      jump\t// out\n        /* \"#utility.yul\":15279:15698   */\n    tag_96:\n        /* \"#utility.yul\":15445:15449   */\n      0x00\n        /* \"#utility.yul\":15483:15485   */\n      0x20\n        /* \"#utility.yul\":15472:15481   */\n      dup3\n        /* \"#utility.yul\":15468:15486   */\n      add\n        /* \"#utility.yul\":15460:15486   */\n      swap1\n      pop\n        /* \"#utility.yul\":15532:15541   */\n      dup2\n        /* \"#utility.yul\":15526:15530   */\n      dup2\n        /* \"#utility.yul\":15522:15542   */\n      sub\n        /* \"#utility.yul\":15518:15519   */\n      0x00\n        /* \"#utility.yul\":15507:15516   */\n      dup4\n        /* \"#utility.yul\":15503:15520   */\n      add\n        /* \"#utility.yul\":15496:15543   */\n      mstore\n        /* \"#utility.yul\":15560:15691   */\n      tag_367\n        /* \"#utility.yul\":15686:15690   */\n      dup2\n        /* \"#utility.yul\":15560:15691   */\n      tag_198\n      jump\t// in\n    tag_367:\n        /* \"#utility.yul\":15552:15691   */\n      swap1\n      pop\n        /* \"#utility.yul\":15279:15698   */\n      swap2\n      swap1\n      pop\n      jump\t// out\n        /* \"#utility.yul\":15704:15877   */\n    tag_199:\n        /* \"#utility.yul\":15844:15869   */\n      0x496e76616c69642073656e646572322061646472657373000000000000000000\n        /* \"#utility.yul\":15840:15841   */\n      0x00\n        /* \"#utility.yul\":15832:15838   */\n      dup3\n        /* \"#utility.yul\":15828:15842   */\n      add\n        /* \"#utility.yul\":15821:15870   */\n      mstore\n        /* \"#utility.yul\":15704:15877   */\n      pop\n      jump\t// out\n        /* \"#utility.yul\":15883:16249   */\n    tag_200:\n        /* \"#utility.yul\":16025:16028   */\n      0x00\n        /* \"#utility.yul\":16046:16113   */\n      tag_370\n        /* \"#utility.yul\":16110:16112   */\n      0x17\n        /* \"#utility.yul\":16105:16108   */\n      dup4\n        /* \"#utility.yul\":16046:16113   */\n      tag_183\n      jump\t// in\n    tag_370:\n        /* \"#utility.yul\":16039:16113   */\n      swap2\n      pop\n        /* \"#utility.yul\":16122:16215   */\n      tag_371\n        /* \"#utility.yul\":16211:16214   */\n      dup3\n        /* \"#utility.yul\":16122:16215   */\n      tag_199\n      jump\t// in\n    tag_371:\n        /* \"#utility.yul\":16240:16242   */\n      0x20\n        /* \"#utility.yul\":16235:16238   */\n      dup3\n        /* \"#utility.yul\":16231:16243   */\n      add\n        /* \"#utility.yul\":16224:16243   */\n      swap1\n      pop\n        /* \"#utility.yul\":15883:16249   */\n      swap2\n      swap1\n      pop\n      jump\t// out\n        /* \"#utility.yul\":16255:16674   */\n    tag_99:\n        /* \"#utility.yul\":16421:16425   */\n      0x00\n        /* \"#utility.yul\":16459:16461   */\n      0x20\n        /* \"#utility.yul\":16448:16457   */\n      dup3\n        /* \"#utility.yul\":16444:16462   */\n      add\n        /* \"#utility.yul\":16436:16462   */\n      swap1\n      pop\n        /* \"#utility.yul\":16508:16517   */\n      dup2\n        /* \"#utility.yul\":16502:16506   */\n      dup2\n        /* \"#utility.yul\":16498:16518   */\n      sub\n        /* \"#utility.yul\":16494:16495   */\n      0x00\n        /* \"#utility.yul\":16483:16492   */\n      dup4\n        /* \"#utility.yul\":16479:16496   */\n      add\n        /* \"#utility.yul\":16472:16519   */\n      mstore\n        /* \"#utility.yul\":16536:16667   */\n      tag_373\n        /* \"#utility.yul\":16662:16666   */\n      dup2\n        /* \"#utility.yul\":16536:16667   */\n      tag_200\n      jump\t// in\n    tag_373:\n        /* \"#utility.yul\":16528:16667   */\n      swap1\n      pop\n        /* \"#utility.yul\":16255:16674   */\n      swap2\n      swap1\n      pop\n      jump\t// out\n        /* \"#utility.yul\":16680:16859   */\n    tag_201:\n        /* \"#utility.yul\":16820:16851   */\n      0x4665746368656420696e737472756374696f6e732066726f6d20534354000000\n        /* \"#utility.yul\":16816:16817   */\n      0x00\n        /* \"#utility.yul\":16808:16814   */\n      dup3\n        /* \"#utility.yul\":16804:16818   */\n      add\n        /* \"#utility.yul\":16797:16852   */\n      mstore\n        /* \"#utility.yul\":16680:16859   */\n      pop\n      jump\t// out\n        /* \"#utility.yul\":16865:17231   */\n    tag_202:\n        /* \"#utility.yul\":17007:17010   */\n      0x00\n        /* \"#utility.yul\":17028:17095   */\n      tag_376\n        /* \"#utility.yul\":17092:17094   */\n      0x1d\n        /* \"#utility.yul\":17087:17090   */\n      dup4\n        /* \"#utility.yul\":17028:17095   */\n      tag_183\n      jump\t// in\n    tag_376:\n        /* \"#utility.yul\":17021:17095   */\n      swap2\n      pop\n        /* \"#utility.yul\":17104:17197   */\n      tag_377\n        /* \"#utility.yul\":17193:17196   */\n      dup3\n        /* \"#utility.yul\":17104:17197   */\n      tag_201\n      jump\t// in\n    tag_377:\n        /* \"#utility.yul\":17222:17224   */\n      0x20\n        /* \"#utility.yul\":17217:17220   */\n      dup3\n        /* \"#utility.yul\":17213:17225   */\n      add\n        /* \"#utility.yul\":17206:17225   */\n      swap1\n      pop\n        /* \"#utility.yul\":16865:17231   */\n      swap2\n      swap1\n      pop\n      jump\t// out\n        /* \"#utility.yul\":17237:17656   */\n    tag_101:\n        /* \"#utility.yul\":17403:17407   */\n      0x00\n        /* \"#utility.yul\":17441:17443   */\n      0x20\n        /* \"#utility.yul\":17430:17439   */\n      dup3\n        /* \"#utility.yul\":17426:17444   */\n      add\n        /* \"#utility.yul\":17418:17444   */\n      swap1\n      pop\n        /* \"#utility.yul\":17490:17499   */\n      dup2\n        /* \"#utility.yul\":17484:17488   */\n      dup2\n        /* \"#utility.yul\":17480:17500   */\n      sub\n        /* \"#utility.yul\":17476:17477   */\n      0x00\n        /* \"#utility.yul\":17465:17474   */\n      dup4\n        /* \"#utility.yul\":17461:17478   */\n      add\n        /* \"#utility.yul\":17454:17501   */\n      mstore\n        /* \"#utility.yul\":17518:17649   */\n      tag_379\n        /* \"#utility.yul\":17644:17648   */\n      dup2\n        /* \"#utility.yul\":17518:17649   */\n      tag_202\n      jump\t// in\n    tag_379:\n        /* \"#utility.yul\":17510:17649   */\n      swap1\n      pop\n        /* \"#utility.yul\":17237:17656   */\n      swap2\n      swap1\n      pop\n      jump\t// out\n        /* \"#utility.yul\":17662:17884   */\n    tag_203:\n        /* \"#utility.yul\":17802:17836   */\n      0x436f6d706c65746564207472696767657246616c6c6261636b20657865637574\n        /* \"#utility.yul\":17798:17799   */\n      0x00\n        /* \"#utility.yul\":17790:17796   */\n      dup3\n        /* \"#utility.yul\":17786:17800   */\n      add\n        /* \"#utility.yul\":17779:17837   */\n      mstore\n        /* \"#utility.yul\":17871:17876   */\n      0x696f6e0000000000000000000000000000000000000000000000000000000000\n        /* \"#utility.yul\":17866:17868   */\n      0x20\n        /* \"#utility.yul\":17858:17864   */\n      dup3\n        /* \"#utility.yul\":17854:17869   */\n      add\n        /* \"#utility.yul\":17847:17877   */\n      mstore\n        /* \"#utility.yul\":17662:17884   */\n      pop\n      jump\t// out\n        /* \"#utility.yul\":17890:18256   */\n    tag_204:\n        /* \"#utility.yul\":18032:18035   */\n      0x00\n        /* \"#utility.yul\":18053:18120   */\n      tag_382\n        /* \"#utility.yul\":18117:18119   */\n      0x23\n        /* \"#utility.yul\":18112:18115   */\n      dup4\n        /* \"#utility.yul\":18053:18120   */\n      tag_183\n      jump\t// in\n    tag_382:\n        /* \"#utility.yul\":18046:18120   */\n      swap2\n      pop\n        /* \"#utility.yul\":18129:18222   */\n      tag_383\n        /* \"#utility.yul\":18218:18221   */\n      dup3\n        /* \"#utility.yul\":18129:18222   */\n      tag_203\n      jump\t// in\n    tag_383:\n        /* \"#utility.yul\":18247:18249   */\n      0x40\n        /* \"#utility.yul\":18242:18245   */\n      dup3\n        /* \"#utility.yul\":18238:18250   */\n      add\n        /* \"#utility.yul\":18231:18250   */\n      swap1\n      pop\n        /* \"#utility.yul\":17890:18256   */\n      swap2\n      swap1\n      pop\n      jump\t// out\n        /* \"#utility.yul\":18262:18681   */\n    tag_108:\n        /* \"#utility.yul\":18428:18432   */\n      0x00\n        /* \"#utility.yul\":18466:18468   */\n      0x20\n        /* \"#utility.yul\":18455:18464   */\n      dup3\n        /* \"#utility.yul\":18451:18469   */\n      add\n        /* \"#utility.yul\":18443:18469   */\n      swap1\n      pop\n        /* \"#utility.yul\":18515:18524   */\n      dup2\n        /* \"#utility.yul\":18509:18513   */\n      dup2\n        /* \"#utility.yul\":18505:18525   */\n      sub\n        /* \"#utility.yul\":18501:18502   */\n      0x00\n        /* \"#utility.yul\":18490:18499   */\n      dup4\n        /* \"#utility.yul\":18486:18503   */\n      add\n        /* \"#utility.yul\":18479:18526   */\n      mstore\n        /* \"#utility.yul\":18543:18674   */\n      tag_385\n        /* \"#utility.yul\":18669:18673   */\n      dup2\n        /* \"#utility.yul\":18543:18674   */\n      tag_204\n      jump\t// in\n    tag_385:\n        /* \"#utility.yul\":18535:18674   */\n      swap1\n      pop\n        /* \"#utility.yul\":18262:18681   */\n      swap2\n      swap1\n      pop\n      jump\t// out\n        /* \"#utility.yul\":18687:18861   */\n    tag_205:\n        /* \"#utility.yul\":18827:18853   */\n      0x50726f6f6620726563656976656420746f6f206561726c790000000000000000\n        /* \"#utility.yul\":18823:18824   */\n      0x00\n        /* \"#utility.yul\":18815:18821   */\n      dup3\n        /* \"#utility.yul\":18811:18825   */\n      add\n        /* \"#utility.yul\":18804:18854   */\n      mstore\n        /* \"#utility.yul\":18687:18861   */\n      pop\n      jump\t// out\n        /* \"#utility.yul\":18867:19233   */\n    tag_206:\n        /* \"#utility.yul\":19009:19012   */\n      0x00\n        /* \"#utility.yul\":19030:19097   */\n      tag_388\n        /* \"#utility.yul\":19094:19096   */\n      0x18\n        /* \"#utility.yul\":19089:19092   */\n      dup4\n        /* \"#utility.yul\":19030:19097   */\n      tag_183\n      jump\t// in\n    tag_388:\n        /* \"#utility.yul\":19023:19097   */\n      swap2\n      pop\n        /* \"#utility.yul\":19106:19199   */\n      tag_389\n        /* \"#utility.yul\":19195:19198   */\n      dup3\n        /* \"#utility.yul\":19106:19199   */\n      tag_205\n      jump\t// in\n    tag_389:\n        /* \"#utility.yul\":19224:19226   */\n      0x20\n        /* \"#utility.yul\":19219:19222   */\n      dup3\n        /* \"#utility.yul\":19215:19227   */\n      add\n        /* \"#utility.yul\":19208:19227   */\n      swap1\n      pop\n        /* \"#utility.yul\":18867:19233   */\n      swap2\n      swap1\n      pop\n      jump\t// out\n        /* \"#utility.yul\":19239:19658   */\n    tag_114:\n        /* \"#utility.yul\":19405:19409   */\n      0x00\n        /* \"#utility.yul\":19443:19445   */\n      0x20\n        /* \"#utility.yul\":19432:19441   */\n      dup3\n        /* \"#utility.yul\":19428:19446   */\n      add\n        /* \"#utility.yul\":19420:19446   */\n      swap1\n      pop\n        /* \"#utility.yul\":19492:19501   */\n      dup2\n        /* \"#utility.yul\":19486:19490   */\n      dup2\n        /* \"#utility.yul\":19482:19502   */\n      sub\n        /* \"#utility.yul\":19478:19479   */\n      0x00\n        /* \"#utility.yul\":19467:19476   */\n      dup4\n        /* \"#utility.yul\":19463:19480   */\n      add\n        /* \"#utility.yul\":19456:19503   */\n      mstore\n        /* \"#utility.yul\":19520:19651   */\n      tag_391\n        /* \"#utility.yul\":19646:19650   */\n      dup2\n        /* \"#utility.yul\":19520:19651   */\n      tag_206\n      jump\t// in\n    tag_391:\n        /* \"#utility.yul\":19512:19651   */\n      swap1\n      pop\n        /* \"#utility.yul\":19239:19658   */\n      swap2\n      swap1\n      pop\n      jump\t// out\n        /* \"#utility.yul\":19664:19837   */\n    tag_207:\n        /* \"#utility.yul\":19804:19829   */\n      0x50726f6f6620726563656976656420746f6f206c617465000000000000000000\n        /* \"#utility.yul\":19800:19801   */\n      0x00\n        /* \"#utility.yul\":19792:19798   */\n      dup3\n        /* \"#utility.yul\":19788:19802   */\n      add\n        /* \"#utility.yul\":19781:19830   */\n      mstore\n        /* \"#utility.yul\":19664:19837   */\n      pop\n      jump\t// out\n        /* \"#utility.yul\":19843:20209   */\n    tag_208:\n        /* \"#utility.yul\":19985:19988   */\n      0x00\n        /* \"#utility.yul\":20006:20073   */\n      tag_394\n        /* \"#utility.yul\":20070:20072   */\n      0x17\n        /* \"#utility.yul\":20065:20068   */\n      dup4\n        /* \"#utility.yul\":20006:20073   */\n      tag_183\n      jump\t// in\n    tag_394:\n        /* \"#utility.yul\":19999:20073   */\n      swap2\n      pop\n        /* \"#utility.yul\":20082:20175   */\n      tag_395\n        /* \"#utility.yul\":20171:20174   */\n      dup3\n        /* \"#utility.yul\":20082:20175   */\n      tag_207\n      jump\t// in\n    tag_395:\n        /* \"#utility.yul\":20200:20202   */\n      0x20\n        /* \"#utility.yul\":20195:20198   */\n      dup3\n        /* \"#utility.yul\":20191:20203   */\n      add\n        /* \"#utility.yul\":20184:20203   */\n      swap1\n      pop\n        /* \"#utility.yul\":19843:20209   */\n      swap2\n      swap1\n      pop\n      jump\t// out\n        /* \"#utility.yul\":20215:20634   */\n    tag_117:\n        /* \"#utility.yul\":20381:20385   */\n      0x00\n        /* \"#utility.yul\":20419:20421   */\n      0x20\n        /* \"#utility.yul\":20408:20417   */\n      dup3\n        /* \"#utility.yul\":20404:20422   */\n      add\n        /* \"#utility.yul\":20396:20422   */\n      swap1\n      pop\n        /* \"#utility.yul\":20468:20477   */\n      dup2\n        /* \"#utility.yul\":20462:20466   */\n      dup2\n        /* \"#utility.yul\":20458:20478   */\n      sub\n        /* \"#utility.yul\":20454:20455   */\n      0x00\n        /* \"#utility.yul\":20443:20452   */\n      dup4\n        /* \"#utility.yul\":20439:20456   */\n      add\n        /* \"#utility.yul\":20432:20479   */\n      mstore\n        /* \"#utility.yul\":20496:20627   */\n      tag_397\n        /* \"#utility.yul\":20622:20626   */\n      dup2\n        /* \"#utility.yul\":20496:20627   */\n      tag_208\n      jump\t// in\n    tag_397:\n        /* \"#utility.yul\":20488:20627   */\n      swap1\n      pop\n        /* \"#utility.yul\":20215:20634   */\n      swap2\n      swap1\n      pop\n      jump\t// out\n        /* \"#utility.yul\":20640:20820   */\n    tag_123:\n        /* \"#utility.yul\":20688:20765   */\n      0x4e487b7100000000000000000000000000000000000000000000000000000000\n        /* \"#utility.yul\":20685:20686   */\n      0x00\n        /* \"#utility.yul\":20678:20766   */\n      mstore\n        /* \"#utility.yul\":20785:20789   */\n      0x32\n        /* \"#utility.yul\":20782:20783   */\n      0x04\n        /* \"#utility.yul\":20775:20790   */\n      mstore\n        /* \"#utility.yul\":20809:20813   */\n      0x24\n        /* \"#utility.yul\":20806:20807   */\n      0x00\n        /* \"#utility.yul\":20799:20814   */\n      revert\n        /* \"#utility.yul\":20826:20905   */\n    tag_209:\n        /* \"#utility.yul\":20865:20872   */\n      0x00\n        /* \"#utility.yul\":20894:20899   */\n      dup2\n        /* \"#utility.yul\":20883:20899   */\n      swap1\n      pop\n        /* \"#utility.yul\":20826:20905   */\n      swap2\n      swap1\n      pop\n      jump\t// out\n        /* \"#utility.yul\":20911:21068   */\n    tag_210:\n        /* \"#utility.yul\":21016:21061   */\n      tag_401\n        /* \"#utility.yul\":21036:21060   */\n      tag_402\n        /* \"#utility.yul\":21054:21059   */\n      dup3\n        /* \"#utility.yul\":21036:21060   */\n      tag_163\n      jump\t// in\n    tag_402:\n        /* \"#utility.yul\":21016:21061   */\n      tag_209\n      jump\t// in\n    tag_401:\n        /* \"#utility.yul\":21011:21014   */\n      dup3\n        /* \"#utility.yul\":21004:21062   */\n      mstore\n        /* \"#utility.yul\":20911:21068   */\n      pop\n      pop\n      jump\t// out\n        /* \"#utility.yul\":21074:21471   */\n    tag_126:\n        /* \"#utility.yul\":21214:21217   */\n      0x00\n        /* \"#utility.yul\":21229:21304   */\n      tag_404\n        /* \"#utility.yul\":21300:21303   */\n      dup3\n        /* \"#utility.yul\":21291:21297   */\n      dup6\n        /* \"#utility.yul\":21229:21304   */\n      tag_210\n      jump\t// in\n    tag_404:\n        /* \"#utility.yul\":21329:21331   */\n      0x20\n        /* \"#utility.yul\":21324:21327   */\n      dup3\n        /* \"#utility.yul\":21320:21332   */\n      add\n        /* \"#utility.yul\":21313:21332   */\n      swap2\n      pop\n        /* \"#utility.yul\":21342:21417   */\n      tag_405\n        /* \"#utility.yul\":21413:21416   */\n      dup3\n        /* \"#utility.yul\":21404:21410   */\n      dup5\n        /* \"#utility.yul\":21342:21417   */\n      tag_210\n      jump\t// in\n    tag_405:\n        /* \"#utility.yul\":21442:21444   */\n      0x20\n        /* \"#utility.yul\":21437:21440   */\n      dup3\n        /* \"#utility.yul\":21433:21445   */\n      add\n        /* \"#utility.yul\":21426:21445   */\n      swap2\n      pop\n        /* \"#utility.yul\":21462:21465   */\n      dup2\n        /* \"#utility.yul\":21455:21465   */\n      swap1\n      pop\n        /* \"#utility.yul\":21074:21471   */\n      swap4\n      swap3\n      pop\n      pop\n      pop\n      jump\t// out\n        /* \"#utility.yul\":21477:21653   */\n    tag_211:\n        /* \"#utility.yul\":21617:21645   */\n      0x74686520434354452070726f6365737320636f6d706c65746573000000000000\n        /* \"#utility.yul\":21613:21614   */\n      0x00\n        /* \"#utility.yul\":21605:21611   */\n      dup3\n        /* \"#utility.yul\":21601:21615   */\n      add\n        /* \"#utility.yul\":21594:21646   */\n      mstore\n        /* \"#utility.yul\":21477:21653   */\n      pop\n      jump\t// out\n        /* \"#utility.yul\":21659:22025   */\n    tag_212:\n        /* \"#utility.yul\":21801:21804   */\n      0x00\n        /* \"#utility.yul\":21822:21889   */\n      tag_408\n        /* \"#utility.yul\":21886:21888   */\n      0x1a\n        /* \"#utility.yul\":21881:21884   */\n      dup4\n        /* \"#utility.yul\":21822:21889   */\n      tag_183\n      jump\t// in\n    tag_408:\n        /* \"#utility.yul\":21815:21889   */\n      swap2\n      pop\n        /* \"#utility.yul\":21898:21991   */\n      tag_409\n        /* \"#utility.yul\":21987:21990   */\n      dup3\n        /* \"#utility.yul\":21898:21991   */\n      tag_211\n      jump\t// in\n    tag_409:\n        /* \"#utility.yul\":22016:22018   */\n      0x20\n        /* \"#utility.yul\":22011:22014   */\n      dup3\n        /* \"#utility.yul\":22007:22019   */\n      add\n        /* \"#utility.yul\":22000:22019   */\n      swap1\n      pop\n        /* \"#utility.yul\":21659:22025   */\n      swap2\n      swap1\n      pop\n      jump\t// out\n        /* \"#utility.yul\":22031:22450   */\n    tag_134:\n        /* \"#utility.yul\":22197:22201   */\n      0x00\n        /* \"#utility.yul\":22235:22237   */\n      0x20\n        /* \"#utility.yul\":22224:22233   */\n      dup3\n        /* \"#utility.yul\":22220:22238   */\n      add\n        /* \"#utility.yul\":22212:22238   */\n      swap1\n      pop\n        /* \"#utility.yul\":22284:22293   */\n      dup2\n        /* \"#utility.yul\":22278:22282   */\n      dup2\n        /* \"#utility.yul\":22274:22294   */\n      sub\n        /* \"#utility.yul\":22270:22271   */\n      0x00\n        /* \"#utility.yul\":22259:22268   */\n      dup4\n        /* \"#utility.yul\":22255:22272   */\n      add\n        /* \"#utility.yul\":22248:22295   */\n      mstore\n        /* \"#utility.yul\":22312:22443   */\n      tag_411\n        /* \"#utility.yul\":22438:22442   */\n      dup2\n        /* \"#utility.yul\":22312:22443   */\n      tag_212\n      jump\t// in\n    tag_411:\n        /* \"#utility.yul\":22304:22443   */\n      swap1\n      pop\n        /* \"#utility.yul\":22031:22450   */\n      swap2\n      swap1\n      pop\n      jump\t// out\n        /* \"#utility.yul\":22456:22636   */\n    tag_213:\n        /* \"#utility.yul\":22504:22581   */\n      0x4e487b7100000000000000000000000000000000000000000000000000000000\n        /* \"#utility.yul\":22501:22502   */\n      0x00\n        /* \"#utility.yul\":22494:22582   */\n      mstore\n        /* \"#utility.yul\":22601:22605   */\n      0x11\n        /* \"#utility.yul\":22598:22599   */\n      0x04\n        /* \"#utility.yul\":22591:22606   */\n      mstore\n        /* \"#utility.yul\":22625:22629   */\n      0x24\n        /* \"#utility.yul\":22622:22623   */\n      0x00\n        /* \"#utility.yul\":22615:22630   */\n      revert\n        /* \"#utility.yul\":22642:22875   */\n    tag_146:\n        /* \"#utility.yul\":22681:22684   */\n      0x00\n        /* \"#utility.yul\":22704:22728   */\n      tag_414\n        /* \"#utility.yul\":22722:22727   */\n      dup3\n        /* \"#utility.yul\":22704:22728   */\n      tag_155\n      jump\t// in\n    tag_414:\n        /* \"#utility.yul\":22695:22728   */\n      swap2\n      pop\n        /* \"#utility.yul\":22750:22816   */\n      0xffffffffffffffffffffffffffffffffffffffffffffffffffffffffffffffff\n        /* \"#utility.yul\":22743:22748   */\n      dup3\n        /* \"#utility.yul\":22740:22817   */\n      sub\n        /* \"#utility.yul\":22737:22840   */\n      tag_415\n      jumpi\n        /* \"#utility.yul\":22820:22838   */\n      tag_416\n      tag_213\n      jump\t// in\n    tag_416:\n        /* \"#utility.yul\":22737:22840   */\n    tag_415:\n        /* \"#utility.yul\":22867:22868   */\n      0x01\n        /* \"#utility.yul\":22860:22865   */\n      dup3\n        /* \"#utility.yul\":22856:22869   */\n      add\n        /* \"#utility.yul\":22849:22869   */\n      swap1\n      pop\n        /* \"#utility.yul\":22642:22875   */\n      swap2\n      swap1\n      pop\n      jump\t// out\n        /* \"#utility.yul\":22881:23323   */\n    tag_149:\n        /* \"#utility.yul\":23030:23034   */\n      0x00\n        /* \"#utility.yul\":23068:23070   */\n      0x60\n        /* \"#utility.yul\":23057:23066   */\n      dup3\n        /* \"#utility.yul\":23053:23071   */\n      add\n        /* \"#utility.yul\":23045:23071   */\n      swap1\n      pop\n        /* \"#utility.yul\":23081:23152   */\n      tag_418\n        /* \"#utility.yul\":23149:23150   */\n      0x00\n        /* \"#utility.yul\":23138:23147   */\n      dup4\n        /* \"#utility.yul\":23134:23151   */\n      add\n        /* \"#utility.yul\":23125:23131   */\n      dup7\n        /* \"#utility.yul\":23081:23152   */\n      tag_170\n      jump\t// in\n    tag_418:\n        /* \"#utility.yul\":23162:23234   */\n      tag_419\n        /* \"#utility.yul\":23230:23232   */\n      0x20\n        /* \"#utility.yul\":23219:23228   */\n      dup4\n        /* \"#utility.yul\":23215:23233   */\n      add\n        /* \"#utility.yul\":23206:23212   */\n      dup6\n        /* \"#utility.yul\":23162:23234   */\n      tag_159\n      jump\t// in\n    tag_419:\n        /* \"#utility.yul\":23244:23316   */\n      tag_420\n        /* \"#utility.yul\":23312:23314   */\n      0x40\n        /* \"#utility.yul\":23301:23310   */\n      dup4\n        /* \"#utility.yul\":23297:23315   */\n      add\n        /* \"#utility.yul\":23288:23294   */\n      dup5\n        /* \"#utility.yul\":23244:23316   */\n      tag_159\n      jump\t// in\n    tag_420:\n        /* \"#utility.yul\":22881:23323   */\n      swap5\n      swap4\n      pop\n      pop\n      pop\n      pop\n      jump\t// out\n        /* \"#utility.yul\":23329:23414   */\n    tag_214:\n        /* \"#utility.yul\":23374:23381   */\n      0x00\n        /* \"#utility.yul\":23403:23408   */\n      dup2\n        /* \"#utility.yul\":23392:23408   */\n      swap1\n      pop\n        /* \"#utility.yul\":23329:23414   */\n      swap2\n      swap1\n      pop\n      jump\t// out\n        /* \"#utility.yul\":23420:23480   */\n    tag_215:\n        /* \"#utility.yul\":23448:23451   */\n      0x00\n        /* \"#utility.yul\":23469:23474   */\n      dup2\n        /* \"#utility.yul\":23462:23474   */\n      swap1\n      pop\n        /* \"#utility.yul\":23420:23480   */\n      swap2\n      swap1\n      pop\n      jump\t// out\n        /* \"#utility.yul\":23486:23644   */\n    tag_216:\n        /* \"#utility.yul\":23544:23553   */\n      0x00\n        /* \"#utility.yul\":23577:23638   */\n      tag_424\n        /* \"#utility.yul\":23595:23637   */\n      tag_425\n        /* \"#utility.yul\":23604:23636   */\n      tag_426\n        /* \"#utility.yul\":23630:23635   */\n      dup5\n        /* \"#utility.yul\":23604:23636   */\n      tag_214\n      jump\t// in\n    tag_426:\n        /* \"#utility.yul\":23595:23637   */\n      tag_215\n      jump\t// in\n    tag_425:\n        /* \"#utility.yul\":23577:23638   */\n      tag_155\n      jump\t// in\n    tag_424:\n        /* \"#utility.yul\":23564:23638   */\n      swap1\n      pop\n        /* \"#utility.yul\":23486:23644   */\n      swap2\n      swap1\n      pop\n      jump\t// out\n        /* \"#utility.yul\":23650:23797   */\n    tag_217:\n        /* \"#utility.yul\":23745:23790   */\n      tag_428\n        /* \"#utility.yul\":23784:23789   */\n      dup2\n        /* \"#utility.yul\":23745:23790   */\n      tag_216\n      jump\t// in\n    tag_428:\n        /* \"#utility.yul\":23740:23743   */\n      dup3\n        /* \"#utility.yul\":23733:23791   */\n      mstore\n        /* \"#utility.yul\":23650:23797   */\n      pop\n      pop\n      jump\t// out\n        /* \"#utility.yul\":23803:24041   */\n    tag_154:\n        /* \"#utility.yul\":23904:23908   */\n      0x00\n        /* \"#utility.yul\":23942:23944   */\n      0x20\n        /* \"#utility.yul\":23931:23940   */\n      dup3\n        /* \"#utility.yul\":23927:23945   */\n      add\n        /* \"#utility.yul\":23919:23945   */\n      swap1\n      pop\n        /* \"#utility.yul\":23955:24034   */\n      tag_430\n        /* \"#utility.yul\":24031:24032   */\n      0x00\n        /* \"#utility.yul\":24020:24029   */\n      dup4\n        /* \"#utility.yul\":24016:24033   */\n      add\n        /* \"#utility.yul\":24007:24013   */\n      dup5\n        /* \"#utility.yul\":23955:24034   */\n      tag_217\n      jump\t// in\n    tag_430:\n        /* \"#utility.yul\":23803:24041   */\n      swap3\n      swap2\n      pop\n      pop\n      jump\t// out\n\n    auxdata: 0xa2646970667358221220851c7e51c22a9c0c6aa5cebb6926516b140db3b488edf03a8b7272486331c1ca64736f6c634300081a0033\n}\n",
				"bytecode": {
					"linkReferences": {},
					"object": "6080604052348015600e575f80fd5b506117ed8061001c5f395ff3fe608060405234801561000f575f80fd5b50600436106100a7575f3560e01c806361cba8f31161006f57806361cba8f31461012b578063a86e971514610149578063ada4fa1814610179578063b606fce0146101a9578063bbcf72bd146101c7578063c6a5f928146101e3576100a7565b80630773c532146100ab57806329dcb0cf146100b55780632acda0c8146100d35780634ddd3965146100dd5780634de8e53a146100fb575b5f80fd5b6100b36101ff565b005b6100bd61030d565b6040516100ca9190610c7a565b60405180910390f35b6100db610313565b005b6100e56107d9565b6040516100f29190610cd2565b60405180910390f35b61011560048036038101906101109190610d2f565b6107fe565b6040516101229190610d74565b60405180910390f35b61013361081a565b6040516101409190610c7a565b60405180910390f35b610163600480360381019061015e9190610db7565b610820565b6040516101709190610df1565b60405180910390f35b610193600480360381019061018e9190610f5a565b610840565b6040516101a09190610d74565b60405180910390f35b6101b1610a46565b6040516101be9190610cd2565b60405180910390f35b6101e160048036038101906101dc9190610ff0565b610a6b565b005b6101fd60048036038101906101f89190610ff0565b610aae565b005b5f60015f9054906101000a900473ffffffffffffffffffffffffffffffffffffffff1690508073ffffffffffffffffffffffffffffffffffffffff166361cba8f36040518163ffffffff1660e01b8152600401602060405180830381865afa15801561026d573d5f803e3d5ffd5b505050506040513d601f19601f82011682018060405250810190610291919061102f565b6003819055508073ffffffffffffffffffffffffffffffffffffffff166329dcb0cf6040518163ffffffff1660e01b8152600401602060405180830381865afa1580156102e0573d5f803e3d5ffd5b505050506040513d601f19601f82011682018060405250810190610304919061102f565b60048190555050565b60045481565b6004544311610357576040517f08c379a000000000000000000000000000000000000000000000000000000000815260040161034e906110b4565b60405180910390fd5b6002610361610af1565b106103a1576040517f08c379a00000000000000000000000000000000000000000000000000000000081526004016103989061111c565b60405180910390fd5b7f56f074d292557f2e3c567d982816e0fb5b72100ff196892f8fbd23b8a90736796040516103ce90611184565b60405180910390a15f60015f9054906101000a900473ffffffffffffffffffffffffffffffffffffffff1690505f8173ffffffffffffffffffffffffffffffffffffffff1663d50105116040518163ffffffff1660e01b8152600401602060405180830381865afa158015610445573d5f803e3d5ffd5b505050506040513d601f19601f8201168201806040525081019061046991906111b6565b90505f8273ffffffffffffffffffffffffffffffffffffffff1663f133dad26040518163ffffffff1660e01b8152600401602060405180830381865afa1580156104b5573d5f803e3d5ffd5b505050506040513d601f19601f820116820180604052508101906104d991906111b6565b90507f56f074d292557f2e3c567d982816e0fb5b72100ff196892f8fbd23b8a90736796040516105089061122b565b60405180910390a15f8373ffffffffffffffffffffffffffffffffffffffff166384a7c502846040518263ffffffff1660e01b815260040161054a9190610cd2565b60e060405180830381865afa158015610565573d5f803e3d5ffd5b505050506040513d601f19601f820116820180604052508101906105899190611312565b90505f8473ffffffffffffffffffffffffffffffffffffffff166384a7c502846040518263ffffffff1660e01b81526004016105c59190610cd2565b60e060405180830381865afa1580156105e0573d5f803e3d5ffd5b505050506040513d601f19601f820116820180604052508101906106049190611312565b90505f73ffffffffffffffffffffffffffffffffffffffff16825f015173ffffffffffffffffffffffffffffffffffffffff1603610677576040517f08c379a000000000000000000000000000000000000000000000000000000000815260040161066e90611387565b60405180910390fd5b5f73ffffffffffffffffffffffffffffffffffffffff16815f015173ffffffffffffffffffffffffffffffffffffffff16036106e8576040517f08c379a00000000000000000000000000000000000000000000000000000000081526004016106df906113ef565b60405180910390fd5b7f56f074d292557f2e3c567d982816e0fb5b72100ff196892f8fbd23b8a907367960405161071590611457565b60405180910390a15f80836080015181526020019081526020015f205f9054906101000a900460ff1661075d5761075c825f0151825f01518460a001518560c00151610b67565b5b5f80826080015181526020019081526020015f205f9054906101000a900460ff1661079d5761079c815f0151835f01518360a001518460c00151610b67565b5b7f56f074d292557f2e3c567d982816e0fb5b72100ff196892f8fbd23b8a90736796040516107ca906114e5565b60405180910390a15050505050565b60015f9054906101000a900473ffffffffffffffffffffffffffffffffffffffff1681565b5f602052805f5260405f205f915054906101000a900460ff1681565b60035481565b6005818154811061082f575f80fd5b905f5260205f20015f915090505481565b5f6003544311610885576040517f08c379a000000000000000000000000000000000000000000000000000000000815260040161087c9061154d565b60405180910390fd5b60045443106108c9576040517f08c379a00000000000000000000000000000000000000000000000000000000081526004016108c0906115b5565b60405180910390fd5b5f8390505f5b8551811015610968575f8682815181106108ec576108eb6115d3565b5b602002602001015190508083101561092e578281604051602001610911929190611620565b60405160208183030381529060405280519060200120925061095a565b8083604051602001610941929190611620565b6040516020818303038152906040528051906020012092505b5080806001019150506108cf565b505f83821490508015610a095760015f808481526020019081526020015f205f6101000a81548160ff021916908315150217905550600582908060018154018082558091505060019003905f5260205f20015f909190919091505560026109cd610af1565b10610a08577fd1a275352d054749ca0e284aa1538acbd52943ea3338c470ffb9d0009de953726040516109ff90611695565b60405180910390a15b5b80151584867f61ec1a646ff98fb3c33fbe01b3d5c1324c1a1980108ea113d5f13822ab0c9cea60405160405180910390a480925050509392505050565b60025f9054906101000a900473ffffffffffffffffffffffffffffffffffffffff1681565b8060015f6101000a81548173ffffffffffffffffffffffffffffffffffffffff021916908373ffffffffffffffffffffffffffffffffffffffff16021790555050565b8060025f6101000a81548173ffffffffffffffffffffffffffffffffffffffff021916908373ffffffffffffffffffffffffffffffffffffffff16021790555050565b5f805f90505f5b600580549050811015610b5f575f8060058381548110610b1b57610b1a6115d3565b5b905f5260205f20015481526020019081526020015f205f9054906101000a900460ff1615610b52578180610b4e906116e0565b9250505b8080600101915050610af8565b508091505090565b5f60025f9054906101000a900473ffffffffffffffffffffffffffffffffffffffff1690508073ffffffffffffffffffffffffffffffffffffffff1663b2b3dbce8484876040518463ffffffff1660e01b8152600401610bc993929190611727565b5f604051808303815f87803b158015610be0575f80fd5b505af1158015610bf2573d5f803e3d5ffd5b505050508373ffffffffffffffffffffffffffffffffffffffff168573ffffffffffffffffffffffffffffffffffffffff167f94ab56e036ad14a67a3a4c6e9367154cf3e7c3a04f1b9b29474362a9c1df29235f604051610c53919061179e565b60405180910390a35050505050565b5f819050919050565b610c7481610c62565b82525050565b5f602082019050610c8d5f830184610c6b565b92915050565b5f73ffffffffffffffffffffffffffffffffffffffff82169050919050565b5f610cbc82610c93565b9050919050565b610ccc81610cb2565b82525050565b5f602082019050610ce55f830184610cc3565b92915050565b5f604051905090565b5f80fd5b5f80fd5b5f819050919050565b610d0e81610cfc565b8114610d18575f80fd5b50565b5f81359050610d2981610d05565b92915050565b5f60208284031215610d4457610d43610cf4565b5b5f610d5184828501610d1b565b91505092915050565b5f8115159050919050565b610d6e81610d5a565b82525050565b5f602082019050610d875f830184610d65565b92915050565b610d9681610c62565b8114610da0575f80fd5b50565b5f81359050610db181610d8d565b92915050565b5f60208284031215610dcc57610dcb610cf4565b5b5f610dd984828501610da3565b91505092915050565b610deb81610cfc565b82525050565b5f602082019050610e045f830184610de2565b92915050565b5f80fd5b5f601f19601f8301169050919050565b7f4e487b71000000000000000000000000000000000000000000000000000000005f52604160045260245ffd5b610e5482610e0e565b810181811067ffffffffffffffff82111715610e7357610e72610e1e565b5b80604052505050565b5f610e85610ceb565b9050610e918282610e4b565b919050565b5f67ffffffffffffffff821115610eb057610eaf610e1e565b5b602082029050602081019050919050565b5f80fd5b5f610ed7610ed284610e96565b610e7c565b90508083825260208201905060208402830185811115610efa57610ef9610ec1565b5b835b81811015610f235780610f0f8882610d1b565b845260208401935050602081019050610efc565b5050509392505050565b5f82601f830112610f4157610f40610e0a565b5b8135610f51848260208601610ec5565b91505092915050565b5f805f60608486031215610f7157610f70610cf4565b5b5f84013567ffffffffffffffff811115610f8e57610f8d610cf8565b5b610f9a86828701610f2d565b9350506020610fab86828701610d1b565b9250506040610fbc86828701610d1b565b9150509250925092565b610fcf81610cb2565b8114610fd9575f80fd5b50565b5f81359050610fea81610fc6565b92915050565b5f6020828403121561100557611004610cf4565b5b5f61101284828501610fdc565b91505092915050565b5f8151905061102981610d8d565b92915050565b5f6020828403121561104457611043610cf4565b5b5f6110518482850161101b565b91505092915050565b5f82825260208201905092915050565b7f446561646c696e65206e6f7420726561636865642079657400000000000000005f82015250565b5f61109e60188361105a565b91506110a98261106a565b602082019050919050565b5f6020820190508181035f8301526110cb81611092565b9050919050565b7f54776f2070726f6f667320616c72656164792073746f726564000000000000005f82015250565b5f61110660198361105a565b9150611111826110d2565b602082019050919050565b5f6020820190508181035f830152611133816110fa565b9050919050565b7f456e7465726564207472696767657246616c6c6261636b0000000000000000005f82015250565b5f61116e60178361105a565b91506111798261113a565b602082019050919050565b5f6020820190508181035f83015261119b81611162565b9050919050565b5f815190506111b081610fc6565b92915050565b5f602082840312156111cb576111ca610cf4565b5b5f6111d8848285016111a2565b91505092915050565b7f466574636865642073656e646572732066726f6d2053435400000000000000005f82015250565b5f61121560188361105a565b9150611220826111e1565b602082019050919050565b5f6020820190508181035f83015261124281611209565b9050919050565b5f80fd5b5f8151905061125b81610d05565b92915050565b5f60e0828403121561127657611275611249565b5b61128060e0610e7c565b90505f61128f848285016111a2565b5f8301525060206112a2848285016111a2565b60208301525060406112b68482850161101b565b60408301525060606112ca848285016111a2565b60608301525060806112de8482850161124d565b60808301525060a06112f28482850161124d565b60a08301525060c0611306848285016111a2565b60c08301525092915050565b5f60e0828403121561132757611326610cf4565b5b5f61133484828501611261565b91505092915050565b7f496e76616c69642073656e6465723120616464726573730000000000000000005f82015250565b5f61137160178361105a565b915061137c8261133d565b602082019050919050565b5f6020820190508181035f83015261139e81611365565b9050919050565b7f496e76616c69642073656e6465723220616464726573730000000000000000005f82015250565b5f6113d960178361105a565b91506113e4826113a5565b602082019050919050565b5f6020820190508181035f830152611406816113cd565b9050919050565b7f4665746368656420696e737472756374696f6e732066726f6d205343540000005f82015250565b5f611441601d8361105a565b915061144c8261140d565b602082019050919050565b5f6020820190508181035f83015261146e81611435565b9050919050565b7f436f6d706c65746564207472696767657246616c6c6261636b206578656375745f8201527f696f6e0000000000000000000000000000000000000000000000000000000000602082015250565b5f6114cf60238361105a565b91506114da82611475565b604082019050919050565b5f6020820190508181035f8301526114fc816114c3565b9050919050565b7f50726f6f6620726563656976656420746f6f206561726c7900000000000000005f82015250565b5f61153760188361105a565b915061154282611503565b602082019050919050565b5f6020820190508181035f8301526115648161152b565b9050919050565b7f50726f6f6620726563656976656420746f6f206c6174650000000000000000005f82015250565b5f61159f60178361105a565b91506115aa8261156b565b602082019050919050565b5f6020820190508181035f8301526115cc81611593565b9050919050565b7f4e487b71000000000000000000000000000000000000000000000000000000005f52603260045260245ffd5b5f819050919050565b61161a61161582610cfc565b611600565b82525050565b5f61162b8285611609565b60208201915061163b8284611609565b6020820191508190509392505050565b7f74686520434354452070726f6365737320636f6d706c657465730000000000005f82015250565b5f61167f601a8361105a565b915061168a8261164b565b602082019050919050565b5f6020820190508181035f8301526116ac81611673565b9050919050565b7f4e487b71000000000000000000000000000000000000000000000000000000005f52601160045260245ffd5b5f6116ea82610c62565b91507fffffffffffffffffffffffffffffffffffffffffffffffffffffffffffffffff820361171c5761171b6116b3565b5b600182019050919050565b5f60608201905061173a5f830186610de2565b6117476020830185610cc3565b6117546040830184610cc3565b949350505050565b5f819050919050565b5f819050919050565b5f61178861178361177e8461175c565b611765565b610c62565b9050919050565b6117988161176e565b82525050565b5f6020820190506117b15f83018461178f565b9291505056fea2646970667358221220851c7e51c22a9c0c6aa5cebb6926516b140db3b488edf03a8b7272486331c1ca64736f6c634300081a0033",
					"opcodes": "PUSH1 0x80 PUSH1 0x40 MSTORE CALLVALUE DUP1 ISZERO PUSH1 0xE JUMPI PUSH0 DUP1 REVERT JUMPDEST POP PUSH2 0x17ED DUP1 PUSH2 0x1C PUSH0 CODECOPY PUSH0 RETURN INVALID PUSH1 0x80 PUSH1 0x40 MSTORE CALLVALUE DUP1 ISZERO PUSH2 0xF JUMPI PUSH0 DUP1 REVERT JUMPDEST POP PUSH1 0x4 CALLDATASIZE LT PUSH2 0xA7 JUMPI PUSH0 CALLDATALOAD PUSH1 0xE0 SHR DUP1 PUSH4 0x61CBA8F3 GT PUSH2 0x6F JUMPI DUP1 PUSH4 0x61CBA8F3 EQ PUSH2 0x12B JUMPI DUP1 PUSH4 0xA86E9715 EQ PUSH2 0x149 JUMPI DUP1 PUSH4 0xADA4FA18 EQ PUSH2 0x179 JUMPI DUP1 PUSH4 0xB606FCE0 EQ PUSH2 0x1A9 JUMPI DUP1 PUSH4 0xBBCF72BD EQ PUSH2 0x1C7 JUMPI DUP1 PUSH4 0xC6A5F928 EQ PUSH2 0x1E3 JUMPI PUSH2 0xA7 JUMP JUMPDEST DUP1 PUSH4 0x773C532 EQ PUSH2 0xAB JUMPI DUP1 PUSH4 0x29DCB0CF EQ PUSH2 0xB5 JUMPI DUP1 PUSH4 0x2ACDA0C8 EQ PUSH2 0xD3 JUMPI DUP1 PUSH4 0x4DDD3965 EQ PUSH2 0xDD JUMPI DUP1 PUSH4 0x4DE8E53A EQ PUSH2 0xFB JUMPI JUMPDEST PUSH0 DUP1 REVERT JUMPDEST PUSH2 0xB3 PUSH2 0x1FF JUMP JUMPDEST STOP JUMPDEST PUSH2 0xBD PUSH2 0x30D JUMP JUMPDEST PUSH1 0x40 MLOAD PUSH2 0xCA SWAP2 SWAP1 PUSH2 0xC7A JUMP JUMPDEST PUSH1 0x40 MLOAD DUP1 SWAP2 SUB SWAP1 RETURN JUMPDEST PUSH2 0xDB PUSH2 0x313 JUMP JUMPDEST STOP JUMPDEST PUSH2 0xE5 PUSH2 0x7D9 JUMP JUMPDEST PUSH1 0x40 MLOAD PUSH2 0xF2 SWAP2 SWAP1 PUSH2 0xCD2 JUMP JUMPDEST PUSH1 0x40 MLOAD DUP1 SWAP2 SUB SWAP1 RETURN JUMPDEST PUSH2 0x115 PUSH1 0x4 DUP1 CALLDATASIZE SUB DUP2 ADD SWAP1 PUSH2 0x110 SWAP2 SWAP1 PUSH2 0xD2F JUMP JUMPDEST PUSH2 0x7FE JUMP JUMPDEST PUSH1 0x40 MLOAD PUSH2 0x122 SWAP2 SWAP1 PUSH2 0xD74 JUMP JUMPDEST PUSH1 0x40 MLOAD DUP1 SWAP2 SUB SWAP1 RETURN JUMPDEST PUSH2 0x133 PUSH2 0x81A JUMP JUMPDEST PUSH1 0x40 MLOAD PUSH2 0x140 SWAP2 SWAP1 PUSH2 0xC7A JUMP JUMPDEST PUSH1 0x40 MLOAD DUP1 SWAP2 SUB SWAP1 RETURN JUMPDEST PUSH2 0x163 PUSH1 0x4 DUP1 CALLDATASIZE SUB DUP2 ADD SWAP1 PUSH2 0x15E SWAP2 SWAP1 PUSH2 0xDB7 JUMP JUMPDEST PUSH2 0x820 JUMP JUMPDEST PUSH1 0x40 MLOAD PUSH2 0x170 SWAP2 SWAP1 PUSH2 0xDF1 JUMP JUMPDEST PUSH1 0x40 MLOAD DUP1 SWAP2 SUB SWAP1 RETURN JUMPDEST PUSH2 0x193 PUSH1 0x4 DUP1 CALLDATASIZE SUB DUP2 ADD SWAP1 PUSH2 0x18E SWAP2 SWAP1 PUSH2 0xF5A JUMP JUMPDEST PUSH2 0x840 JUMP JUMPDEST PUSH1 0x40 MLOAD PUSH2 0x1A0 SWAP2 SWAP1 PUSH2 0xD74 JUMP JUMPDEST PUSH1 0x40 MLOAD DUP1 SWAP2 SUB SWAP1 RETURN JUMPDEST PUSH2 0x1B1 PUSH2 0xA46 JUMP JUMPDEST PUSH1 0x40 MLOAD PUSH2 0x1BE SWAP2 SWAP1 PUSH2 0xCD2 JUMP JUMPDEST PUSH1 0x40 MLOAD DUP1 SWAP2 SUB SWAP1 RETURN JUMPDEST PUSH2 0x1E1 PUSH1 0x4 DUP1 CALLDATASIZE SUB DUP2 ADD SWAP1 PUSH2 0x1DC SWAP2 SWAP1 PUSH2 0xFF0 JUMP JUMPDEST PUSH2 0xA6B JUMP JUMPDEST STOP JUMPDEST PUSH2 0x1FD PUSH1 0x4 DUP1 CALLDATASIZE SUB DUP2 ADD SWAP1 PUSH2 0x1F8 SWAP2 SWAP1 PUSH2 0xFF0 JUMP JUMPDEST PUSH2 0xAAE JUMP JUMPDEST STOP JUMPDEST PUSH0 PUSH1 0x1 PUSH0 SWAP1 SLOAD SWAP1 PUSH2 0x100 EXP SWAP1 DIV PUSH20 0xFFFFFFFFFFFFFFFFFFFFFFFFFFFFFFFFFFFFFFFF AND SWAP1 POP DUP1 PUSH20 0xFFFFFFFFFFFFFFFFFFFFFFFFFFFFFFFFFFFFFFFF AND PUSH4 0x61CBA8F3 PUSH1 0x40 MLOAD DUP2 PUSH4 0xFFFFFFFF AND PUSH1 0xE0 SHL DUP2 MSTORE PUSH1 0x4 ADD PUSH1 0x20 PUSH1 0x40 MLOAD DUP1 DUP4 SUB DUP2 DUP7 GAS STATICCALL ISZERO DUP1 ISZERO PUSH2 0x26D JUMPI RETURNDATASIZE PUSH0 DUP1 RETURNDATACOPY RETURNDATASIZE PUSH0 REVERT JUMPDEST POP POP POP POP PUSH1 0x40 MLOAD RETURNDATASIZE PUSH1 0x1F NOT PUSH1 0x1F DUP3 ADD AND DUP3 ADD DUP1 PUSH1 0x40 MSTORE POP DUP2 ADD SWAP1 PUSH2 0x291 SWAP2 SWAP1 PUSH2 0x102F JUMP JUMPDEST PUSH1 0x3 DUP2 SWAP1 SSTORE POP DUP1 PUSH20 0xFFFFFFFFFFFFFFFFFFFFFFFFFFFFFFFFFFFFFFFF AND PUSH4 0x29DCB0CF PUSH1 0x40 MLOAD DUP2 PUSH4 0xFFFFFFFF AND PUSH1 0xE0 SHL DUP2 MSTORE PUSH1 0x4 ADD PUSH1 0x20 PUSH1 0x40 MLOAD DUP1 DUP4 SUB DUP2 DUP7 GAS STATICCALL ISZERO DUP1 ISZERO PUSH2 0x2E0 JUMPI RETURNDATASIZE PUSH0 DUP1 RETURNDATACOPY RETURNDATASIZE PUSH0 REVERT JUMPDEST POP POP POP POP PUSH1 0x40 MLOAD RETURNDATASIZE PUSH1 0x1F NOT PUSH1 0x1F DUP3 ADD AND DUP3 ADD DUP1 PUSH1 0x40 MSTORE POP DUP2 ADD SWAP1 PUSH2 0x304 SWAP2 SWAP1 PUSH2 0x102F JUMP JUMPDEST PUSH1 0x4 DUP2 SWAP1 SSTORE POP POP JUMP JUMPDEST PUSH1 0x4 SLOAD DUP2 JUMP JUMPDEST PUSH1 0x4 SLOAD NUMBER GT PUSH2 0x357 JUMPI PUSH1 0x40 MLOAD PUSH32 0x8C379A000000000000000000000000000000000000000000000000000000000 DUP2 MSTORE PUSH1 0x4 ADD PUSH2 0x34E SWAP1 PUSH2 0x10B4 JUMP JUMPDEST PUSH1 0x40 MLOAD DUP1 SWAP2 SUB SWAP1 REVERT JUMPDEST PUSH1 0x2 PUSH2 0x361 PUSH2 0xAF1 JUMP JUMPDEST LT PUSH2 0x3A1 JUMPI PUSH1 0x40 MLOAD PUSH32 0x8C379A000000000000000000000000000000000000000000000000000000000 DUP2 MSTORE PUSH1 0x4 ADD PUSH2 0x398 SWAP1 PUSH2 0x111C JUMP JUMPDEST PUSH1 0x40 MLOAD DUP1 SWAP2 SUB SWAP1 REVERT JUMPDEST PUSH32 0x56F074D292557F2E3C567D982816E0FB5B72100FF196892F8FBD23B8A9073679 PUSH1 0x40 MLOAD PUSH2 0x3CE SWAP1 PUSH2 0x1184 JUMP JUMPDEST PUSH1 0x40 MLOAD DUP1 SWAP2 SUB SWAP1 LOG1 PUSH0 PUSH1 0x1 PUSH0 SWAP1 SLOAD SWAP1 PUSH2 0x100 EXP SWAP1 DIV PUSH20 0xFFFFFFFFFFFFFFFFFFFFFFFFFFFFFFFFFFFFFFFF AND SWAP1 POP PUSH0 DUP2 PUSH20 0xFFFFFFFFFFFFFFFFFFFFFFFFFFFFFFFFFFFFFFFF AND PUSH4 0xD5010511 PUSH1 0x40 MLOAD DUP2 PUSH4 0xFFFFFFFF AND PUSH1 0xE0 SHL DUP2 MSTORE PUSH1 0x4 ADD PUSH1 0x20 PUSH1 0x40 MLOAD DUP1 DUP4 SUB DUP2 DUP7 GAS STATICCALL ISZERO DUP1 ISZERO PUSH2 0x445 JUMPI RETURNDATASIZE PUSH0 DUP1 RETURNDATACOPY RETURNDATASIZE PUSH0 REVERT JUMPDEST POP POP POP POP PUSH1 0x40 MLOAD RETURNDATASIZE PUSH1 0x1F NOT PUSH1 0x1F DUP3 ADD AND DUP3 ADD DUP1 PUSH1 0x40 MSTORE POP DUP2 ADD SWAP1 PUSH2 0x469 SWAP2 SWAP1 PUSH2 0x11B6 JUMP JUMPDEST SWAP1 POP PUSH0 DUP3 PUSH20 0xFFFFFFFFFFFFFFFFFFFFFFFFFFFFFFFFFFFFFFFF AND PUSH4 0xF133DAD2 PUSH1 0x40 MLOAD DUP2 PUSH4 0xFFFFFFFF AND PUSH1 0xE0 SHL DUP2 MSTORE PUSH1 0x4 ADD PUSH1 0x20 PUSH1 0x40 MLOAD DUP1 DUP4 SUB DUP2 DUP7 GAS STATICCALL ISZERO DUP1 ISZERO PUSH2 0x4B5 JUMPI RETURNDATASIZE PUSH0 DUP1 RETURNDATACOPY RETURNDATASIZE PUSH0 REVERT JUMPDEST POP POP POP POP PUSH1 0x40 MLOAD RETURNDATASIZE PUSH1 0x1F NOT PUSH1 0x1F DUP3 ADD AND DUP3 ADD DUP1 PUSH1 0x40 MSTORE POP DUP2 ADD SWAP1 PUSH2 0x4D9 SWAP2 SWAP1 PUSH2 0x11B6 JUMP JUMPDEST SWAP1 POP PUSH32 0x56F074D292557F2E3C567D982816E0FB5B72100FF196892F8FBD23B8A9073679 PUSH1 0x40 MLOAD PUSH2 0x508 SWAP1 PUSH2 0x122B JUMP JUMPDEST PUSH1 0x40 MLOAD DUP1 SWAP2 SUB SWAP1 LOG1 PUSH0 DUP4 PUSH20 0xFFFFFFFFFFFFFFFFFFFFFFFFFFFFFFFFFFFFFFFF AND PUSH4 0x84A7C502 DUP5 PUSH1 0x40 MLOAD DUP3 PUSH4 0xFFFFFFFF AND PUSH1 0xE0 SHL DUP2 MSTORE PUSH1 0x4 ADD PUSH2 0x54A SWAP2 SWAP1 PUSH2 0xCD2 JUMP JUMPDEST PUSH1 0xE0 PUSH1 0x40 MLOAD DUP1 DUP4 SUB DUP2 DUP7 GAS STATICCALL ISZERO DUP1 ISZERO PUSH2 0x565 JUMPI RETURNDATASIZE PUSH0 DUP1 RETURNDATACOPY RETURNDATASIZE PUSH0 REVERT JUMPDEST POP POP POP POP PUSH1 0x40 MLOAD RETURNDATASIZE PUSH1 0x1F NOT PUSH1 0x1F DUP3 ADD AND DUP3 ADD DUP1 PUSH1 0x40 MSTORE POP DUP2 ADD SWAP1 PUSH2 0x589 SWAP2 SWAP1 PUSH2 0x1312 JUMP JUMPDEST SWAP1 POP PUSH0 DUP5 PUSH20 0xFFFFFFFFFFFFFFFFFFFFFFFFFFFFFFFFFFFFFFFF AND PUSH4 0x84A7C502 DUP5 PUSH1 0x40 MLOAD DUP3 PUSH4 0xFFFFFFFF AND PUSH1 0xE0 SHL DUP2 MSTORE PUSH1 0x4 ADD PUSH2 0x5C5 SWAP2 SWAP1 PUSH2 0xCD2 JUMP JUMPDEST PUSH1 0xE0 PUSH1 0x40 MLOAD DUP1 DUP4 SUB DUP2 DUP7 GAS STATICCALL ISZERO DUP1 ISZERO PUSH2 0x5E0 JUMPI RETURNDATASIZE PUSH0 DUP1 RETURNDATACOPY RETURNDATASIZE PUSH0 REVERT JUMPDEST POP POP POP POP PUSH1 0x40 MLOAD RETURNDATASIZE PUSH1 0x1F NOT PUSH1 0x1F DUP3 ADD AND DUP3 ADD DUP1 PUSH1 0x40 MSTORE POP DUP2 ADD SWAP1 PUSH2 0x604 SWAP2 SWAP1 PUSH2 0x1312 JUMP JUMPDEST SWAP1 POP PUSH0 PUSH20 0xFFFFFFFFFFFFFFFFFFFFFFFFFFFFFFFFFFFFFFFF AND DUP3 PUSH0 ADD MLOAD PUSH20 0xFFFFFFFFFFFFFFFFFFFFFFFFFFFFFFFFFFFFFFFF AND SUB PUSH2 0x677 JUMPI PUSH1 0x40 MLOAD PUSH32 0x8C379A000000000000000000000000000000000000000000000000000000000 DUP2 MSTORE PUSH1 0x4 ADD PUSH2 0x66E SWAP1 PUSH2 0x1387 JUMP JUMPDEST PUSH1 0x40 MLOAD DUP1 SWAP2 SUB SWAP1 REVERT JUMPDEST PUSH0 PUSH20 0xFFFFFFFFFFFFFFFFFFFFFFFFFFFFFFFFFFFFFFFF AND DUP2 PUSH0 ADD MLOAD PUSH20 0xFFFFFFFFFFFFFFFFFFFFFFFFFFFFFFFFFFFFFFFF AND SUB PUSH2 0x6E8 JUMPI PUSH1 0x40 MLOAD PUSH32 0x8C379A000000000000000000000000000000000000000000000000000000000 DUP2 MSTORE PUSH1 0x4 ADD PUSH2 0x6DF SWAP1 PUSH2 0x13EF JUMP JUMPDEST PUSH1 0x40 MLOAD DUP1 SWAP2 SUB SWAP1 REVERT JUMPDEST PUSH32 0x56F074D292557F2E3C567D982816E0FB5B72100FF196892F8FBD23B8A9073679 PUSH1 0x40 MLOAD PUSH2 0x715 SWAP1 PUSH2 0x1457 JUMP JUMPDEST PUSH1 0x40 MLOAD DUP1 SWAP2 SUB SWAP1 LOG1 PUSH0 DUP1 DUP4 PUSH1 0x80 ADD MLOAD DUP2 MSTORE PUSH1 0x20 ADD SWAP1 DUP2 MSTORE PUSH1 0x20 ADD PUSH0 KECCAK256 PUSH0 SWAP1 SLOAD SWAP1 PUSH2 0x100 EXP SWAP1 DIV PUSH1 0xFF AND PUSH2 0x75D JUMPI PUSH2 0x75C DUP3 PUSH0 ADD MLOAD DUP3 PUSH0 ADD MLOAD DUP5 PUSH1 0xA0 ADD MLOAD DUP6 PUSH1 0xC0 ADD MLOAD PUSH2 0xB67 JUMP JUMPDEST JUMPDEST PUSH0 DUP1 DUP3 PUSH1 0x80 ADD MLOAD DUP2 MSTORE PUSH1 0x20 ADD SWAP1 DUP2 MSTORE PUSH1 0x20 ADD PUSH0 KECCAK256 PUSH0 SWAP1 SLOAD SWAP1 PUSH2 0x100 EXP SWAP1 DIV PUSH1 0xFF AND PUSH2 0x79D JUMPI PUSH2 0x79C DUP2 PUSH0 ADD MLOAD DUP4 PUSH0 ADD MLOAD DUP4 PUSH1 0xA0 ADD MLOAD DUP5 PUSH1 0xC0 ADD MLOAD PUSH2 0xB67 JUMP JUMPDEST JUMPDEST PUSH32 0x56F074D292557F2E3C567D982816E0FB5B72100FF196892F8FBD23B8A9073679 PUSH1 0x40 MLOAD PUSH2 0x7CA SWAP1 PUSH2 0x14E5 JUMP JUMPDEST PUSH1 0x40 MLOAD DUP1 SWAP2 SUB SWAP1 LOG1 POP POP POP POP POP JUMP JUMPDEST PUSH1 0x1 PUSH0 SWAP1 SLOAD SWAP1 PUSH2 0x100 EXP SWAP1 DIV PUSH20 0xFFFFFFFFFFFFFFFFFFFFFFFFFFFFFFFFFFFFFFFF AND DUP2 JUMP JUMPDEST PUSH0 PUSH1 0x20 MSTORE DUP1 PUSH0 MSTORE PUSH1 0x40 PUSH0 KECCAK256 PUSH0 SWAP2 POP SLOAD SWAP1 PUSH2 0x100 EXP SWAP1 DIV PUSH1 0xFF AND DUP2 JUMP JUMPDEST PUSH1 0x3 SLOAD DUP2 JUMP JUMPDEST PUSH1 0x5 DUP2 DUP2 SLOAD DUP2 LT PUSH2 0x82F JUMPI PUSH0 DUP1 REVERT JUMPDEST SWAP1 PUSH0 MSTORE PUSH1 0x20 PUSH0 KECCAK256 ADD PUSH0 SWAP2 POP SWAP1 POP SLOAD DUP2 JUMP JUMPDEST PUSH0 PUSH1 0x3 SLOAD NUMBER GT PUSH2 0x885 JUMPI PUSH1 0x40 MLOAD PUSH32 0x8C379A000000000000000000000000000000000000000000000000000000000 DUP2 MSTORE PUSH1 0x4 ADD PUSH2 0x87C SWAP1 PUSH2 0x154D JUMP JUMPDEST PUSH1 0x40 MLOAD DUP1 SWAP2 SUB SWAP1 REVERT JUMPDEST PUSH1 0x4 SLOAD NUMBER LT PUSH2 0x8C9 JUMPI PUSH1 0x40 MLOAD PUSH32 0x8C379A000000000000000000000000000000000000000000000000000000000 DUP2 MSTORE PUSH1 0x4 ADD PUSH2 0x8C0 SWAP1 PUSH2 0x15B5 JUMP JUMPDEST PUSH1 0x40 MLOAD DUP1 SWAP2 SUB SWAP1 REVERT JUMPDEST PUSH0 DUP4 SWAP1 POP PUSH0 JUMPDEST DUP6 MLOAD DUP2 LT ISZERO PUSH2 0x968 JUMPI PUSH0 DUP7 DUP3 DUP2 MLOAD DUP2 LT PUSH2 0x8EC JUMPI PUSH2 0x8EB PUSH2 0x15D3 JUMP JUMPDEST JUMPDEST PUSH1 0x20 MUL PUSH1 0x20 ADD ADD MLOAD SWAP1 POP DUP1 DUP4 LT ISZERO PUSH2 0x92E JUMPI DUP3 DUP2 PUSH1 0x40 MLOAD PUSH1 0x20 ADD PUSH2 0x911 SWAP3 SWAP2 SWAP1 PUSH2 0x1620 JUMP JUMPDEST PUSH1 0x40 MLOAD PUSH1 0x20 DUP2 DUP4 SUB SUB DUP2 MSTORE SWAP1 PUSH1 0x40 MSTORE DUP1 MLOAD SWAP1 PUSH1 0x20 ADD KECCAK256 SWAP3 POP PUSH2 0x95A JUMP JUMPDEST DUP1 DUP4 PUSH1 0x40 MLOAD PUSH1 0x20 ADD PUSH2 0x941 SWAP3 SWAP2 SWAP1 PUSH2 0x1620 JUMP JUMPDEST PUSH1 0x40 MLOAD PUSH1 0x20 DUP2 DUP4 SUB SUB DUP2 MSTORE SWAP1 PUSH1 0x40 MSTORE DUP1 MLOAD SWAP1 PUSH1 0x20 ADD KECCAK256 SWAP3 POP JUMPDEST POP DUP1 DUP1 PUSH1 0x1 ADD SWAP2 POP POP PUSH2 0x8CF JUMP JUMPDEST POP PUSH0 DUP4 DUP3 EQ SWAP1 POP DUP1 ISZERO PUSH2 0xA09 JUMPI PUSH1 0x1 PUSH0 DUP1 DUP5 DUP2 MSTORE PUSH1 0x20 ADD SWAP1 DUP2 MSTORE PUSH1 0x20 ADD PUSH0 KECCAK256 PUSH0 PUSH2 0x100 EXP DUP2 SLOAD DUP2 PUSH1 0xFF MUL NOT AND SWAP1 DUP4 ISZERO ISZERO MUL OR SWAP1 SSTORE POP PUSH1 0x5 DUP3 SWAP1 DUP1 PUSH1 0x1 DUP2 SLOAD ADD DUP1 DUP3 SSTORE DUP1 SWAP2 POP POP PUSH1 0x1 SWAP1 SUB SWAP1 PUSH0 MSTORE PUSH1 0x20 PUSH0 KECCAK256 ADD PUSH0 SWAP1 SWAP2 SWAP1 SWAP2 SWAP1 SWAP2 POP SSTORE PUSH1 0x2 PUSH2 0x9CD PUSH2 0xAF1 JUMP JUMPDEST LT PUSH2 0xA08 JUMPI PUSH32 0xD1A275352D054749CA0E284AA1538ACBD52943EA3338C470FFB9D0009DE95372 PUSH1 0x40 MLOAD PUSH2 0x9FF SWAP1 PUSH2 0x1695 JUMP JUMPDEST PUSH1 0x40 MLOAD DUP1 SWAP2 SUB SWAP1 LOG1 JUMPDEST JUMPDEST DUP1 ISZERO ISZERO DUP5 DUP7 PUSH32 0x61EC1A646FF98FB3C33FBE01B3D5C1324C1A1980108EA113D5F13822AB0C9CEA PUSH1 0x40 MLOAD PUSH1 0x40 MLOAD DUP1 SWAP2 SUB SWAP1 LOG4 DUP1 SWAP3 POP POP POP SWAP4 SWAP3 POP POP POP JUMP JUMPDEST PUSH1 0x2 PUSH0 SWAP1 SLOAD SWAP1 PUSH2 0x100 EXP SWAP1 DIV PUSH20 0xFFFFFFFFFFFFFFFFFFFFFFFFFFFFFFFFFFFFFFFF AND DUP2 JUMP JUMPDEST DUP1 PUSH1 0x1 PUSH0 PUSH2 0x100 EXP DUP2 SLOAD DUP2 PUSH20 0xFFFFFFFFFFFFFFFFFFFFFFFFFFFFFFFFFFFFFFFF MUL NOT AND SWAP1 DUP4 PUSH20 0xFFFFFFFFFFFFFFFFFFFFFFFFFFFFFFFFFFFFFFFF AND MUL OR SWAP1 SSTORE POP POP JUMP JUMPDEST DUP1 PUSH1 0x2 PUSH0 PUSH2 0x100 EXP DUP2 SLOAD DUP2 PUSH20 0xFFFFFFFFFFFFFFFFFFFFFFFFFFFFFFFFFFFFFFFF MUL NOT AND SWAP1 DUP4 PUSH20 0xFFFFFFFFFFFFFFFFFFFFFFFFFFFFFFFFFFFFFFFF AND MUL OR SWAP1 SSTORE POP POP JUMP JUMPDEST PUSH0 DUP1 PUSH0 SWAP1 POP PUSH0 JUMPDEST PUSH1 0x5 DUP1 SLOAD SWAP1 POP DUP2 LT ISZERO PUSH2 0xB5F JUMPI PUSH0 DUP1 PUSH1 0x5 DUP4 DUP2 SLOAD DUP2 LT PUSH2 0xB1B JUMPI PUSH2 0xB1A PUSH2 0x15D3 JUMP JUMPDEST JUMPDEST SWAP1 PUSH0 MSTORE PUSH1 0x20 PUSH0 KECCAK256 ADD SLOAD DUP2 MSTORE PUSH1 0x20 ADD SWAP1 DUP2 MSTORE PUSH1 0x20 ADD PUSH0 KECCAK256 PUSH0 SWAP1 SLOAD SWAP1 PUSH2 0x100 EXP SWAP1 DIV PUSH1 0xFF AND ISZERO PUSH2 0xB52 JUMPI DUP2 DUP1 PUSH2 0xB4E SWAP1 PUSH2 0x16E0 JUMP JUMPDEST SWAP3 POP POP JUMPDEST DUP1 DUP1 PUSH1 0x1 ADD SWAP2 POP POP PUSH2 0xAF8 JUMP JUMPDEST POP DUP1 SWAP2 POP POP SWAP1 JUMP JUMPDEST PUSH0 PUSH1 0x2 PUSH0 SWAP1 SLOAD SWAP1 PUSH2 0x100 EXP SWAP1 DIV PUSH20 0xFFFFFFFFFFFFFFFFFFFFFFFFFFFFFFFFFFFFFFFF AND SWAP1 POP DUP1 PUSH20 0xFFFFFFFFFFFFFFFFFFFFFFFFFFFFFFFFFFFFFFFF AND PUSH4 0xB2B3DBCE DUP5 DUP5 DUP8 PUSH1 0x40 MLOAD DUP5 PUSH4 0xFFFFFFFF AND PUSH1 0xE0 SHL DUP2 MSTORE PUSH1 0x4 ADD PUSH2 0xBC9 SWAP4 SWAP3 SWAP2 SWAP1 PUSH2 0x1727 JUMP JUMPDEST PUSH0 PUSH1 0x40 MLOAD DUP1 DUP4 SUB DUP2 PUSH0 DUP8 DUP1 EXTCODESIZE ISZERO DUP1 ISZERO PUSH2 0xBE0 JUMPI PUSH0 DUP1 REVERT JUMPDEST POP GAS CALL ISZERO DUP1 ISZERO PUSH2 0xBF2 JUMPI RETURNDATASIZE PUSH0 DUP1 RETURNDATACOPY RETURNDATASIZE PUSH0 REVERT JUMPDEST POP POP POP POP DUP4 PUSH20 0xFFFFFFFFFFFFFFFFFFFFFFFFFFFFFFFFFFFFFFFF AND DUP6 PUSH20 0xFFFFFFFFFFFFFFFFFFFFFFFFFFFFFFFFFFFFFFFF AND PUSH32 0x94AB56E036AD14A67A3A4C6E9367154CF3E7C3A04F1B9B29474362A9C1DF2923 PUSH0 PUSH1 0x40 MLOAD PUSH2 0xC53 SWAP2 SWAP1 PUSH2 0x179E JUMP JUMPDEST PUSH1 0x40 MLOAD DUP1 SWAP2 SUB SWAP1 LOG3 POP POP POP POP POP JUMP JUMPDEST PUSH0 DUP2 SWAP1 POP SWAP2 SWAP1 POP JUMP JUMPDEST PUSH2 0xC74 DUP2 PUSH2 0xC62 JUMP JUMPDEST DUP3 MSTORE POP POP JUMP JUMPDEST PUSH0 PUSH1 0x20 DUP3 ADD SWAP1 POP PUSH2 0xC8D PUSH0 DUP4 ADD DUP5 PUSH2 0xC6B JUMP JUMPDEST SWAP3 SWAP2 POP POP JUMP JUMPDEST PUSH0 PUSH20 0xFFFFFFFFFFFFFFFFFFFFFFFFFFFFFFFFFFFFFFFF DUP3 AND SWAP1 POP SWAP2 SWAP1 POP JUMP JUMPDEST PUSH0 PUSH2 0xCBC DUP3 PUSH2 0xC93 JUMP JUMPDEST SWAP1 POP SWAP2 SWAP1 POP JUMP JUMPDEST PUSH2 0xCCC DUP2 PUSH2 0xCB2 JUMP JUMPDEST DUP3 MSTORE POP POP JUMP JUMPDEST PUSH0 PUSH1 0x20 DUP3 ADD SWAP1 POP PUSH2 0xCE5 PUSH0 DUP4 ADD DUP5 PUSH2 0xCC3 JUMP JUMPDEST SWAP3 SWAP2 POP POP JUMP JUMPDEST PUSH0 PUSH1 0x40 MLOAD SWAP1 POP SWAP1 JUMP JUMPDEST PUSH0 DUP1 REVERT JUMPDEST PUSH0 DUP1 REVERT JUMPDEST PUSH0 DUP2 SWAP1 POP SWAP2 SWAP1 POP JUMP JUMPDEST PUSH2 0xD0E DUP2 PUSH2 0xCFC JUMP JUMPDEST DUP2 EQ PUSH2 0xD18 JUMPI PUSH0 DUP1 REVERT JUMPDEST POP JUMP JUMPDEST PUSH0 DUP2 CALLDATALOAD SWAP1 POP PUSH2 0xD29 DUP2 PUSH2 0xD05 JUMP JUMPDEST SWAP3 SWAP2 POP POP JUMP JUMPDEST PUSH0 PUSH1 0x20 DUP3 DUP5 SUB SLT ISZERO PUSH2 0xD44 JUMPI PUSH2 0xD43 PUSH2 0xCF4 JUMP JUMPDEST JUMPDEST PUSH0 PUSH2 0xD51 DUP5 DUP3 DUP6 ADD PUSH2 0xD1B JUMP JUMPDEST SWAP2 POP POP SWAP3 SWAP2 POP POP JUMP JUMPDEST PUSH0 DUP2 ISZERO ISZERO SWAP1 POP SWAP2 SWAP1 POP JUMP JUMPDEST PUSH2 0xD6E DUP2 PUSH2 0xD5A JUMP JUMPDEST DUP3 MSTORE POP POP JUMP JUMPDEST PUSH0 PUSH1 0x20 DUP3 ADD SWAP1 POP PUSH2 0xD87 PUSH0 DUP4 ADD DUP5 PUSH2 0xD65 JUMP JUMPDEST SWAP3 SWAP2 POP POP JUMP JUMPDEST PUSH2 0xD96 DUP2 PUSH2 0xC62 JUMP JUMPDEST DUP2 EQ PUSH2 0xDA0 JUMPI PUSH0 DUP1 REVERT JUMPDEST POP JUMP JUMPDEST PUSH0 DUP2 CALLDATALOAD SWAP1 POP PUSH2 0xDB1 DUP2 PUSH2 0xD8D JUMP JUMPDEST SWAP3 SWAP2 POP POP JUMP JUMPDEST PUSH0 PUSH1 0x20 DUP3 DUP5 SUB SLT ISZERO PUSH2 0xDCC JUMPI PUSH2 0xDCB PUSH2 0xCF4 JUMP JUMPDEST JUMPDEST PUSH0 PUSH2 0xDD9 DUP5 DUP3 DUP6 ADD PUSH2 0xDA3 JUMP JUMPDEST SWAP2 POP POP SWAP3 SWAP2 POP POP JUMP JUMPDEST PUSH2 0xDEB DUP2 PUSH2 0xCFC JUMP JUMPDEST DUP3 MSTORE POP POP JUMP JUMPDEST PUSH0 PUSH1 0x20 DUP3 ADD SWAP1 POP PUSH2 0xE04 PUSH0 DUP4 ADD DUP5 PUSH2 0xDE2 JUMP JUMPDEST SWAP3 SWAP2 POP POP JUMP JUMPDEST PUSH0 DUP1 REVERT JUMPDEST PUSH0 PUSH1 0x1F NOT PUSH1 0x1F DUP4 ADD AND SWAP1 POP SWAP2 SWAP1 POP JUMP JUMPDEST PUSH32 0x4E487B7100000000000000000000000000000000000000000000000000000000 PUSH0 MSTORE PUSH1 0x41 PUSH1 0x4 MSTORE PUSH1 0x24 PUSH0 REVERT JUMPDEST PUSH2 0xE54 DUP3 PUSH2 0xE0E JUMP JUMPDEST DUP2 ADD DUP2 DUP2 LT PUSH8 0xFFFFFFFFFFFFFFFF DUP3 GT OR ISZERO PUSH2 0xE73 JUMPI PUSH2 0xE72 PUSH2 0xE1E JUMP JUMPDEST JUMPDEST DUP1 PUSH1 0x40 MSTORE POP POP POP JUMP JUMPDEST PUSH0 PUSH2 0xE85 PUSH2 0xCEB JUMP JUMPDEST SWAP1 POP PUSH2 0xE91 DUP3 DUP3 PUSH2 0xE4B JUMP JUMPDEST SWAP2 SWAP1 POP JUMP JUMPDEST PUSH0 PUSH8 0xFFFFFFFFFFFFFFFF DUP3 GT ISZERO PUSH2 0xEB0 JUMPI PUSH2 0xEAF PUSH2 0xE1E JUMP JUMPDEST JUMPDEST PUSH1 0x20 DUP3 MUL SWAP1 POP PUSH1 0x20 DUP2 ADD SWAP1 POP SWAP2 SWAP1 POP JUMP JUMPDEST PUSH0 DUP1 REVERT JUMPDEST PUSH0 PUSH2 0xED7 PUSH2 0xED2 DUP5 PUSH2 0xE96 JUMP JUMPDEST PUSH2 0xE7C JUMP JUMPDEST SWAP1 POP DUP1 DUP4 DUP3 MSTORE PUSH1 0x20 DUP3 ADD SWAP1 POP PUSH1 0x20 DUP5 MUL DUP4 ADD DUP6 DUP2 GT ISZERO PUSH2 0xEFA JUMPI PUSH2 0xEF9 PUSH2 0xEC1 JUMP JUMPDEST JUMPDEST DUP4 JUMPDEST DUP2 DUP2 LT ISZERO PUSH2 0xF23 JUMPI DUP1 PUSH2 0xF0F DUP9 DUP3 PUSH2 0xD1B JUMP JUMPDEST DUP5 MSTORE PUSH1 0x20 DUP5 ADD SWAP4 POP POP PUSH1 0x20 DUP2 ADD SWAP1 POP PUSH2 0xEFC JUMP JUMPDEST POP POP POP SWAP4 SWAP3 POP POP POP JUMP JUMPDEST PUSH0 DUP3 PUSH1 0x1F DUP4 ADD SLT PUSH2 0xF41 JUMPI PUSH2 0xF40 PUSH2 0xE0A JUMP JUMPDEST JUMPDEST DUP2 CALLDATALOAD PUSH2 0xF51 DUP5 DUP3 PUSH1 0x20 DUP7 ADD PUSH2 0xEC5 JUMP JUMPDEST SWAP2 POP POP SWAP3 SWAP2 POP POP JUMP JUMPDEST PUSH0 DUP1 PUSH0 PUSH1 0x60 DUP5 DUP7 SUB SLT ISZERO PUSH2 0xF71 JUMPI PUSH2 0xF70 PUSH2 0xCF4 JUMP JUMPDEST JUMPDEST PUSH0 DUP5 ADD CALLDATALOAD PUSH8 0xFFFFFFFFFFFFFFFF DUP2 GT ISZERO PUSH2 0xF8E JUMPI PUSH2 0xF8D PUSH2 0xCF8 JUMP JUMPDEST JUMPDEST PUSH2 0xF9A DUP7 DUP3 DUP8 ADD PUSH2 0xF2D JUMP JUMPDEST SWAP4 POP POP PUSH1 0x20 PUSH2 0xFAB DUP7 DUP3 DUP8 ADD PUSH2 0xD1B JUMP JUMPDEST SWAP3 POP POP PUSH1 0x40 PUSH2 0xFBC DUP7 DUP3 DUP8 ADD PUSH2 0xD1B JUMP JUMPDEST SWAP2 POP POP SWAP3 POP SWAP3 POP SWAP3 JUMP JUMPDEST PUSH2 0xFCF DUP2 PUSH2 0xCB2 JUMP JUMPDEST DUP2 EQ PUSH2 0xFD9 JUMPI PUSH0 DUP1 REVERT JUMPDEST POP JUMP JUMPDEST PUSH0 DUP2 CALLDATALOAD SWAP1 POP PUSH2 0xFEA DUP2 PUSH2 0xFC6 JUMP JUMPDEST SWAP3 SWAP2 POP POP JUMP JUMPDEST PUSH0 PUSH1 0x20 DUP3 DUP5 SUB SLT ISZERO PUSH2 0x1005 JUMPI PUSH2 0x1004 PUSH2 0xCF4 JUMP JUMPDEST JUMPDEST PUSH0 PUSH2 0x1012 DUP5 DUP3 DUP6 ADD PUSH2 0xFDC JUMP JUMPDEST SWAP2 POP POP SWAP3 SWAP2 POP POP JUMP JUMPDEST PUSH0 DUP2 MLOAD SWAP1 POP PUSH2 0x1029 DUP2 PUSH2 0xD8D JUMP JUMPDEST SWAP3 SWAP2 POP POP JUMP JUMPDEST PUSH0 PUSH1 0x20 DUP3 DUP5 SUB SLT ISZERO PUSH2 0x1044 JUMPI PUSH2 0x1043 PUSH2 0xCF4 JUMP JUMPDEST JUMPDEST PUSH0 PUSH2 0x1051 DUP5 DUP3 DUP6 ADD PUSH2 0x101B JUMP JUMPDEST SWAP2 POP POP SWAP3 SWAP2 POP POP JUMP JUMPDEST PUSH0 DUP3 DUP3 MSTORE PUSH1 0x20 DUP3 ADD SWAP1 POP SWAP3 SWAP2 POP POP JUMP JUMPDEST PUSH32 0x446561646C696E65206E6F742072656163686564207965740000000000000000 PUSH0 DUP3 ADD MSTORE POP JUMP JUMPDEST PUSH0 PUSH2 0x109E PUSH1 0x18 DUP4 PUSH2 0x105A JUMP JUMPDEST SWAP2 POP PUSH2 0x10A9 DUP3 PUSH2 0x106A JUMP JUMPDEST PUSH1 0x20 DUP3 ADD SWAP1 POP SWAP2 SWAP1 POP JUMP JUMPDEST PUSH0 PUSH1 0x20 DUP3 ADD SWAP1 POP DUP2 DUP2 SUB PUSH0 DUP4 ADD MSTORE PUSH2 0x10CB DUP2 PUSH2 0x1092 JUMP JUMPDEST SWAP1 POP SWAP2 SWAP1 POP JUMP JUMPDEST PUSH32 0x54776F2070726F6F667320616C72656164792073746F72656400000000000000 PUSH0 DUP3 ADD MSTORE POP JUMP JUMPDEST PUSH0 PUSH2 0x1106 PUSH1 0x19 DUP4 PUSH2 0x105A JUMP JUMPDEST SWAP2 POP PUSH2 0x1111 DUP3 PUSH2 0x10D2 JUMP JUMPDEST PUSH1 0x20 DUP3 ADD SWAP1 POP SWAP2 SWAP1 POP JUMP JUMPDEST PUSH0 PUSH1 0x20 DUP3 ADD SWAP1 POP DUP2 DUP2 SUB PUSH0 DUP4 ADD MSTORE PUSH2 0x1133 DUP2 PUSH2 0x10FA JUMP JUMPDEST SWAP1 POP SWAP2 SWAP1 POP JUMP JUMPDEST PUSH32 0x456E7465726564207472696767657246616C6C6261636B000000000000000000 PUSH0 DUP3 ADD MSTORE POP JUMP JUMPDEST PUSH0 PUSH2 0x116E PUSH1 0x17 DUP4 PUSH2 0x105A JUMP JUMPDEST SWAP2 POP PUSH2 0x1179 DUP3 PUSH2 0x113A JUMP JUMPDEST PUSH1 0x20 DUP3 ADD SWAP1 POP SWAP2 SWAP1 POP JUMP JUMPDEST PUSH0 PUSH1 0x20 DUP3 ADD SWAP1 POP DUP2 DUP2 SUB PUSH0 DUP4 ADD MSTORE PUSH2 0x119B DUP2 PUSH2 0x1162 JUMP JUMPDEST SWAP1 POP SWAP2 SWAP1 POP JUMP JUMPDEST PUSH0 DUP2 MLOAD SWAP1 POP PUSH2 0x11B0 DUP2 PUSH2 0xFC6 JUMP JUMPDEST SWAP3 SWAP2 POP POP JUMP JUMPDEST PUSH0 PUSH1 0x20 DUP3 DUP5 SUB SLT ISZERO PUSH2 0x11CB JUMPI PUSH2 0x11CA PUSH2 0xCF4 JUMP JUMPDEST JUMPDEST PUSH0 PUSH2 0x11D8 DUP5 DUP3 DUP6 ADD PUSH2 0x11A2 JUMP JUMPDEST SWAP2 POP POP SWAP3 SWAP2 POP POP JUMP JUMPDEST PUSH32 0x466574636865642073656E646572732066726F6D205343540000000000000000 PUSH0 DUP3 ADD MSTORE POP JUMP JUMPDEST PUSH0 PUSH2 0x1215 PUSH1 0x18 DUP4 PUSH2 0x105A JUMP JUMPDEST SWAP2 POP PUSH2 0x1220 DUP3 PUSH2 0x11E1 JUMP JUMPDEST PUSH1 0x20 DUP3 ADD SWAP1 POP SWAP2 SWAP1 POP JUMP JUMPDEST PUSH0 PUSH1 0x20 DUP3 ADD SWAP1 POP DUP2 DUP2 SUB PUSH0 DUP4 ADD MSTORE PUSH2 0x1242 DUP2 PUSH2 0x1209 JUMP JUMPDEST SWAP1 POP SWAP2 SWAP1 POP JUMP JUMPDEST PUSH0 DUP1 REVERT JUMPDEST PUSH0 DUP2 MLOAD SWAP1 POP PUSH2 0x125B DUP2 PUSH2 0xD05 JUMP JUMPDEST SWAP3 SWAP2 POP POP JUMP JUMPDEST PUSH0 PUSH1 0xE0 DUP3 DUP5 SUB SLT ISZERO PUSH2 0x1276 JUMPI PUSH2 0x1275 PUSH2 0x1249 JUMP JUMPDEST JUMPDEST PUSH2 0x1280 PUSH1 0xE0 PUSH2 0xE7C JUMP JUMPDEST SWAP1 POP PUSH0 PUSH2 0x128F DUP5 DUP3 DUP6 ADD PUSH2 0x11A2 JUMP JUMPDEST PUSH0 DUP4 ADD MSTORE POP PUSH1 0x20 PUSH2 0x12A2 DUP5 DUP3 DUP6 ADD PUSH2 0x11A2 JUMP JUMPDEST PUSH1 0x20 DUP4 ADD MSTORE POP PUSH1 0x40 PUSH2 0x12B6 DUP5 DUP3 DUP6 ADD PUSH2 0x101B JUMP JUMPDEST PUSH1 0x40 DUP4 ADD MSTORE POP PUSH1 0x60 PUSH2 0x12CA DUP5 DUP3 DUP6 ADD PUSH2 0x11A2 JUMP JUMPDEST PUSH1 0x60 DUP4 ADD MSTORE POP PUSH1 0x80 PUSH2 0x12DE DUP5 DUP3 DUP6 ADD PUSH2 0x124D JUMP JUMPDEST PUSH1 0x80 DUP4 ADD MSTORE POP PUSH1 0xA0 PUSH2 0x12F2 DUP5 DUP3 DUP6 ADD PUSH2 0x124D JUMP JUMPDEST PUSH1 0xA0 DUP4 ADD MSTORE POP PUSH1 0xC0 PUSH2 0x1306 DUP5 DUP3 DUP6 ADD PUSH2 0x11A2 JUMP JUMPDEST PUSH1 0xC0 DUP4 ADD MSTORE POP SWAP3 SWAP2 POP POP JUMP JUMPDEST PUSH0 PUSH1 0xE0 DUP3 DUP5 SUB SLT ISZERO PUSH2 0x1327 JUMPI PUSH2 0x1326 PUSH2 0xCF4 JUMP JUMPDEST JUMPDEST PUSH0 PUSH2 0x1334 DUP5 DUP3 DUP6 ADD PUSH2 0x1261 JUMP JUMPDEST SWAP2 POP POP SWAP3 SWAP2 POP POP JUMP JUMPDEST PUSH32 0x496E76616C69642073656E646572312061646472657373000000000000000000 PUSH0 DUP3 ADD MSTORE POP JUMP JUMPDEST PUSH0 PUSH2 0x1371 PUSH1 0x17 DUP4 PUSH2 0x105A JUMP JUMPDEST SWAP2 POP PUSH2 0x137C DUP3 PUSH2 0x133D JUMP JUMPDEST PUSH1 0x20 DUP3 ADD SWAP1 POP SWAP2 SWAP1 POP JUMP JUMPDEST PUSH0 PUSH1 0x20 DUP3 ADD SWAP1 POP DUP2 DUP2 SUB PUSH0 DUP4 ADD MSTORE PUSH2 0x139E DUP2 PUSH2 0x1365 JUMP JUMPDEST SWAP1 POP SWAP2 SWAP1 POP JUMP JUMPDEST PUSH32 0x496E76616C69642073656E646572322061646472657373000000000000000000 PUSH0 DUP3 ADD MSTORE POP JUMP JUMPDEST PUSH0 PUSH2 0x13D9 PUSH1 0x17 DUP4 PUSH2 0x105A JUMP JUMPDEST SWAP2 POP PUSH2 0x13E4 DUP3 PUSH2 0x13A5 JUMP JUMPDEST PUSH1 0x20 DUP3 ADD SWAP1 POP SWAP2 SWAP1 POP JUMP JUMPDEST PUSH0 PUSH1 0x20 DUP3 ADD SWAP1 POP DUP2 DUP2 SUB PUSH0 DUP4 ADD MSTORE PUSH2 0x1406 DUP2 PUSH2 0x13CD JUMP JUMPDEST SWAP1 POP SWAP2 SWAP1 POP JUMP JUMPDEST PUSH32 0x4665746368656420696E737472756374696F6E732066726F6D20534354000000 PUSH0 DUP3 ADD MSTORE POP JUMP JUMPDEST PUSH0 PUSH2 0x1441 PUSH1 0x1D DUP4 PUSH2 0x105A JUMP JUMPDEST SWAP2 POP PUSH2 0x144C DUP3 PUSH2 0x140D JUMP JUMPDEST PUSH1 0x20 DUP3 ADD SWAP1 POP SWAP2 SWAP1 POP JUMP JUMPDEST PUSH0 PUSH1 0x20 DUP3 ADD SWAP1 POP DUP2 DUP2 SUB PUSH0 DUP4 ADD MSTORE PUSH2 0x146E DUP2 PUSH2 0x1435 JUMP JUMPDEST SWAP1 POP SWAP2 SWAP1 POP JUMP JUMPDEST PUSH32 0x436F6D706C65746564207472696767657246616C6C6261636B20657865637574 PUSH0 DUP3 ADD MSTORE PUSH32 0x696F6E0000000000000000000000000000000000000000000000000000000000 PUSH1 0x20 DUP3 ADD MSTORE POP JUMP JUMPDEST PUSH0 PUSH2 0x14CF PUSH1 0x23 DUP4 PUSH2 0x105A JUMP JUMPDEST SWAP2 POP PUSH2 0x14DA DUP3 PUSH2 0x1475 JUMP JUMPDEST PUSH1 0x40 DUP3 ADD SWAP1 POP SWAP2 SWAP1 POP JUMP JUMPDEST PUSH0 PUSH1 0x20 DUP3 ADD SWAP1 POP DUP2 DUP2 SUB PUSH0 DUP4 ADD MSTORE PUSH2 0x14FC DUP2 PUSH2 0x14C3 JUMP JUMPDEST SWAP1 POP SWAP2 SWAP1 POP JUMP JUMPDEST PUSH32 0x50726F6F6620726563656976656420746F6F206561726C790000000000000000 PUSH0 DUP3 ADD MSTORE POP JUMP JUMPDEST PUSH0 PUSH2 0x1537 PUSH1 0x18 DUP4 PUSH2 0x105A JUMP JUMPDEST SWAP2 POP PUSH2 0x1542 DUP3 PUSH2 0x1503 JUMP JUMPDEST PUSH1 0x20 DUP3 ADD SWAP1 POP SWAP2 SWAP1 POP JUMP JUMPDEST PUSH0 PUSH1 0x20 DUP3 ADD SWAP1 POP DUP2 DUP2 SUB PUSH0 DUP4 ADD MSTORE PUSH2 0x1564 DUP2 PUSH2 0x152B JUMP JUMPDEST SWAP1 POP SWAP2 SWAP1 POP JUMP JUMPDEST PUSH32 0x50726F6F6620726563656976656420746F6F206C617465000000000000000000 PUSH0 DUP3 ADD MSTORE POP JUMP JUMPDEST PUSH0 PUSH2 0x159F PUSH1 0x17 DUP4 PUSH2 0x105A JUMP JUMPDEST SWAP2 POP PUSH2 0x15AA DUP3 PUSH2 0x156B JUMP JUMPDEST PUSH1 0x20 DUP3 ADD SWAP1 POP SWAP2 SWAP1 POP JUMP JUMPDEST PUSH0 PUSH1 0x20 DUP3 ADD SWAP1 POP DUP2 DUP2 SUB PUSH0 DUP4 ADD MSTORE PUSH2 0x15CC DUP2 PUSH2 0x1593 JUMP JUMPDEST SWAP1 POP SWAP2 SWAP1 POP JUMP JUMPDEST PUSH32 0x4E487B7100000000000000000000000000000000000000000000000000000000 PUSH0 MSTORE PUSH1 0x32 PUSH1 0x4 MSTORE PUSH1 0x24 PUSH0 REVERT JUMPDEST PUSH0 DUP2 SWAP1 POP SWAP2 SWAP1 POP JUMP JUMPDEST PUSH2 0x161A PUSH2 0x1615 DUP3 PUSH2 0xCFC JUMP JUMPDEST PUSH2 0x1600 JUMP JUMPDEST DUP3 MSTORE POP POP JUMP JUMPDEST PUSH0 PUSH2 0x162B DUP3 DUP6 PUSH2 0x1609 JUMP JUMPDEST PUSH1 0x20 DUP3 ADD SWAP2 POP PUSH2 0x163B DUP3 DUP5 PUSH2 0x1609 JUMP JUMPDEST PUSH1 0x20 DUP3 ADD SWAP2 POP DUP2 SWAP1 POP SWAP4 SWAP3 POP POP POP JUMP JUMPDEST PUSH32 0x74686520434354452070726F6365737320636F6D706C65746573000000000000 PUSH0 DUP3 ADD MSTORE POP JUMP JUMPDEST PUSH0 PUSH2 0x167F PUSH1 0x1A DUP4 PUSH2 0x105A JUMP JUMPDEST SWAP2 POP PUSH2 0x168A DUP3 PUSH2 0x164B JUMP JUMPDEST PUSH1 0x20 DUP3 ADD SWAP1 POP SWAP2 SWAP1 POP JUMP JUMPDEST PUSH0 PUSH1 0x20 DUP3 ADD SWAP1 POP DUP2 DUP2 SUB PUSH0 DUP4 ADD MSTORE PUSH2 0x16AC DUP2 PUSH2 0x1673 JUMP JUMPDEST SWAP1 POP SWAP2 SWAP1 POP JUMP JUMPDEST PUSH32 0x4E487B7100000000000000000000000000000000000000000000000000000000 PUSH0 MSTORE PUSH1 0x11 PUSH1 0x4 MSTORE PUSH1 0x24 PUSH0 REVERT JUMPDEST PUSH0 PUSH2 0x16EA DUP3 PUSH2 0xC62 JUMP JUMPDEST SWAP2 POP PUSH32 0xFFFFFFFFFFFFFFFFFFFFFFFFFFFFFFFFFFFFFFFFFFFFFFFFFFFFFFFFFFFFFFFF DUP3 SUB PUSH2 0x171C JUMPI PUSH2 0x171B PUSH2 0x16B3 JUMP JUMPDEST JUMPDEST PUSH1 0x1 DUP3 ADD SWAP1 POP SWAP2 SWAP1 POP JUMP JUMPDEST PUSH0 PUSH1 0x60 DUP3 ADD SWAP1 POP PUSH2 0x173A PUSH0 DUP4 ADD DUP7 PUSH2 0xDE2 JUMP JUMPDEST PUSH2 0x1747 PUSH1 0x20 DUP4 ADD DUP6 PUSH2 0xCC3 JUMP JUMPDEST PUSH2 0x1754 PUSH1 0x40 DUP4 ADD DUP5 PUSH2 0xCC3 JUMP JUMPDEST SWAP5 SWAP4 POP POP POP POP JUMP JUMPDEST PUSH0 DUP2 SWAP1 POP SWAP2 SWAP1 POP JUMP JUMPDEST PUSH0 DUP2 SWAP1 POP SWAP2 SWAP1 POP JUMP JUMPDEST PUSH0 PUSH2 0x1788 PUSH2 0x1783 PUSH2 0x177E DUP5 PUSH2 0x175C JUMP JUMPDEST PUSH2 0x1765 JUMP JUMPDEST PUSH2 0xC62 JUMP JUMPDEST SWAP1 POP SWAP2 SWAP1 POP JUMP JUMPDEST PUSH2 0x1798 DUP2 PUSH2 0x176E JUMP JUMPDEST DUP3 MSTORE POP POP JUMP JUMPDEST PUSH0 PUSH1 0x20 DUP3 ADD SWAP1 POP PUSH2 0x17B1 PUSH0 DUP4 ADD DUP5 PUSH2 0x178F JUMP JUMPDEST SWAP3 SWAP2 POP POP JUMP INVALID LOG2 PUSH5 0x6970667358 0x22 SLT KECCAK256 DUP6 SHR PUSH31 0x51C22A9C0C6AA5CEBB6926516B140DB3B488EDF03A8B7272486331C1CA6473 PUSH16 0x6C634300081A00330000000000000000 "
				},
				"gasEstimates": {
					"creation": {
						"codeDepositCost": "1225000",
						"executionCost": "1273",
						"totalCost": "1226273"
					},
					"external": {
						"deadline()": "2448",
						"instructionsTimestamp()": "2425",
						"proofHashes(uint256)": "4893",
						"sctContract()": "2575",
						"setSCTContract(address)": "24803",
						"setTimestamps()": "infinite",
						"setTokenDepositContract(address)": "24825",
						"storedMerkleProofs(bytes32)": "2873",
						"tokenDepositContract()": "2574",
						"triggerFallback()": "infinite",
						"verifyMerkleProof(bytes32[],bytes32,bytes32)": "infinite"
					},
					"internal": {
						"confiscateAndWithdraw(address,address,bytes32,address)": "infinite",
						"countStoredProofs()": "infinite"
					}
				},
				"methodIdentifiers": {
					"deadline()": "29dcb0cf",
					"instructionsTimestamp()": "61cba8f3",
					"proofHashes(uint256)": "a86e9715",
					"sctContract()": "4ddd3965",
					"setSCTContract(address)": "bbcf72bd",
					"setTimestamps()": "0773c532",
					"setTokenDepositContract(address)": "c6a5f928",
					"storedMerkleProofs(bytes32)": "4de8e53a",
					"tokenDepositContract()": "b606fce0",
					"triggerFallback()": "2acda0c8",
					"verifyMerkleProof(bytes32[],bytes32,bytes32)": "ada4fa18"
				}
			},
			"storageLayout": {
				"storage": [
					{
						"astId": 735,
						"contract": "trustless cross-chain/trading pair formation/MPV.sol:SCMPV",
						"label": "storedMerkleProofs",
						"offset": 0,
						"slot": "0",
						"type": "t_mapping(t_bytes32,t_bool)"
					},
					{
						"astId": 737,
						"contract": "trustless cross-chain/trading pair formation/MPV.sol:SCMPV",
						"label": "sctContract",
						"offset": 0,
						"slot": "1",
						"type": "t_address"
					},
					{
						"astId": 739,
						"contract": "trustless cross-chain/trading pair formation/MPV.sol:SCMPV",
						"label": "tokenDepositContract",
						"offset": 0,
						"slot": "2",
						"type": "t_address"
					},
					{
						"astId": 741,
						"contract": "trustless cross-chain/trading pair formation/MPV.sol:SCMPV",
						"label": "instructionsTimestamp",
						"offset": 0,
						"slot": "3",
						"type": "t_uint256"
					},
					{
						"astId": 743,
						"contract": "trustless cross-chain/trading pair formation/MPV.sol:SCMPV",
						"label": "deadline",
						"offset": 0,
						"slot": "4",
						"type": "t_uint256"
					},
					{
						"astId": 746,
						"contract": "trustless cross-chain/trading pair formation/MPV.sol:SCMPV",
						"label": "proofHashes",
						"offset": 0,
						"slot": "5",
						"type": "t_array(t_bytes32)dyn_storage"
					}
				],
				"types": {
					"t_address": {
						"encoding": "inplace",
						"label": "address",
						"numberOfBytes": "20"
					},
					"t_array(t_bytes32)dyn_storage": {
						"base": "t_bytes32",
						"encoding": "dynamic_array",
						"label": "bytes32[]",
						"numberOfBytes": "32"
					},
					"t_bool": {
						"encoding": "inplace",
						"label": "bool",
						"numberOfBytes": "1"
					},
					"t_bytes32": {
						"encoding": "inplace",
						"label": "bytes32",
						"numberOfBytes": "32"
					},
					"t_mapping(t_bytes32,t_bool)": {
						"encoding": "mapping",
						"key": "t_bytes32",
						"label": "mapping(bytes32 => bool)",
						"numberOfBytes": "32",
						"value": "t_bool"
					},
					"t_uint256": {
						"encoding": "inplace",
						"label": "uint256",
						"numberOfBytes": "32"
					}
				}
			},
			"userdoc": {
				"kind": "user",
				"methods": {},
				"version": 1
			}
		}
	}
}