{
	"trustless cross-chain/trading pair formation/AMM.sol": {
		"SimpleBalancerAMM": {
			"abi": [
				{
					"inputs": [
						{
							"internalType": "address",
							"name": "_tokenA",
							"type": "address"
						},
						{
							"internalType": "address",
							"name": "_tokenB",
							"type": "address"
						}
					],
					"stateMutability": "nonpayable",
					"type": "constructor"
				},
				{
					"inputs": [
						{
							"internalType": "uint256",
							"name": "amountA",
							"type": "uint256"
						},
						{
							"internalType": "uint256",
							"name": "amountB",
							"type": "uint256"
						}
					],
					"name": "addLiquidity",
					"outputs": [],
					"stateMutability": "nonpayable",
					"type": "function"
				},
				{
					"inputs": [],
					"name": "getExchangeRate",
					"outputs": [
						{
							"internalType": "uint256",
							"name": "",
							"type": "uint256"
						}
					],
					"stateMutability": "view",
					"type": "function"
				},
				{
					"inputs": [],
					"name": "poolTokenA",
					"outputs": [
						{
							"internalType": "uint256",
							"name": "",
							"type": "uint256"
						}
					],
					"stateMutability": "view",
					"type": "function"
				},
				{
					"inputs": [],
					"name": "poolTokenB",
					"outputs": [
						{
							"internalType": "uint256",
							"name": "",
							"type": "uint256"
						}
					],
					"stateMutability": "view",
					"type": "function"
				},
				{
					"inputs": [],
					"name": "tokenA",
					"outputs": [
						{
							"internalType": "contract IERC20",
							"name": "",
							"type": "address"
						}
					],
					"stateMutability": "view",
					"type": "function"
				},
				{
					"inputs": [],
					"name": "tokenB",
					"outputs": [
						{
							"internalType": "contract IERC20",
							"name": "",
							"type": "address"
						}
					],
					"stateMutability": "view",
					"type": "function"
				}
			],
			"devdoc": {
				"kind": "dev",
				"methods": {},
				"version": 1
			},
			"evm": {
				"assembly": "    /* \"trustless cross-chain/trading pair formation/AMM.sol\":83:922  contract SimpleBalancerAMM {... */\n  mstore(0x40, 0x80)\n    /* \"trustless cross-chain/trading pair formation/AMM.sol\":231:352  constructor(address _tokenA, address _tokenB) {... */\n  callvalue\n  dup1\n  iszero\n  tag_1\n  jumpi\n  0x00\n  dup1\n  revert\ntag_1:\n  pop\n  mload(0x40)\n  sub(codesize, bytecodeSize)\n  dup1\n  bytecodeSize\n  dup4\n  codecopy\n  dup2\n  dup2\n  add\n  0x40\n  mstore\n  dup2\n  add\n  swap1\n  tag_2\n  swap2\n  swap1\n  tag_3\n  jump\t// in\ntag_2:\n    /* \"trustless cross-chain/trading pair formation/AMM.sol\":303:310  _tokenA */\n  dup2\n    /* \"trustless cross-chain/trading pair formation/AMM.sol\":287:293  tokenA */\n  0x00\n  dup1\n    /* \"trustless cross-chain/trading pair formation/AMM.sol\":287:311  tokenA = IERC20(_tokenA) */\n  0x0100\n  exp\n  dup2\n  sload\n  dup2\n  0xffffffffffffffffffffffffffffffffffffffff\n  mul\n  not\n  and\n  swap1\n  dup4\n  0xffffffffffffffffffffffffffffffffffffffff\n  and\n  mul\n  or\n  swap1\n  sstore\n  pop\n    /* \"trustless cross-chain/trading pair formation/AMM.sol\":337:344  _tokenB */\n  dup1\n    /* \"trustless cross-chain/trading pair formation/AMM.sol\":321:327  tokenB */\n  0x01\n  0x00\n    /* \"trustless cross-chain/trading pair formation/AMM.sol\":321:345  tokenB = IERC20(_tokenB) */\n  0x0100\n  exp\n  dup2\n  sload\n  dup2\n  0xffffffffffffffffffffffffffffffffffffffff\n  mul\n  not\n  and\n  swap1\n  dup4\n  0xffffffffffffffffffffffffffffffffffffffff\n  and\n  mul\n  or\n  swap1\n  sstore\n  pop\n    /* \"trustless cross-chain/trading pair formation/AMM.sol\":231:352  constructor(address _tokenA, address _tokenB) {... */\n  pop\n  pop\n    /* \"trustless cross-chain/trading pair formation/AMM.sol\":83:922  contract SimpleBalancerAMM {... */\n  jump(tag_6)\n    /* \"#utility.yul\":88:205   */\ntag_8:\n    /* \"#utility.yul\":197:198   */\n  0x00\n    /* \"#utility.yul\":194:195   */\n  dup1\n    /* \"#utility.yul\":187:199   */\n  revert\n    /* \"#utility.yul\":334:460   */\ntag_10:\n    /* \"#utility.yul\":371:378   */\n  0x00\n    /* \"#utility.yul\":411:453   */\n  0xffffffffffffffffffffffffffffffffffffffff\n    /* \"#utility.yul\":404:409   */\n  dup3\n    /* \"#utility.yul\":400:454   */\n  and\n    /* \"#utility.yul\":389:454   */\n  swap1\n  pop\n    /* \"#utility.yul\":334:460   */\n  swap2\n  swap1\n  pop\n  jump\t// out\n    /* \"#utility.yul\":466:562   */\ntag_11:\n    /* \"#utility.yul\":503:510   */\n  0x00\n    /* \"#utility.yul\":532:556   */\n  tag_20\n    /* \"#utility.yul\":550:555   */\n  dup3\n    /* \"#utility.yul\":532:556   */\n  tag_10\n  jump\t// in\ntag_20:\n    /* \"#utility.yul\":521:556   */\n  swap1\n  pop\n    /* \"#utility.yul\":466:562   */\n  swap2\n  swap1\n  pop\n  jump\t// out\n    /* \"#utility.yul\":568:690   */\ntag_12:\n    /* \"#utility.yul\":641:665   */\n  tag_22\n    /* \"#utility.yul\":659:664   */\n  dup2\n    /* \"#utility.yul\":641:665   */\n  tag_11\n  jump\t// in\ntag_22:\n    /* \"#utility.yul\":634:639   */\n  dup2\n    /* \"#utility.yul\":631:666   */\n  eq\n    /* \"#utility.yul\":621:684   */\n  tag_23\n  jumpi\n    /* \"#utility.yul\":680:681   */\n  0x00\n    /* \"#utility.yul\":677:678   */\n  dup1\n    /* \"#utility.yul\":670:682   */\n  revert\n    /* \"#utility.yul\":621:684   */\ntag_23:\n    /* \"#utility.yul\":568:690   */\n  pop\n  jump\t// out\n    /* \"#utility.yul\":696:839   */\ntag_13:\n    /* \"#utility.yul\":753:758   */\n  0x00\n    /* \"#utility.yul\":784:790   */\n  dup2\n    /* \"#utility.yul\":778:791   */\n  mload\n    /* \"#utility.yul\":769:791   */\n  swap1\n  pop\n    /* \"#utility.yul\":800:833   */\n  tag_25\n    /* \"#utility.yul\":827:832   */\n  dup2\n    /* \"#utility.yul\":800:833   */\n  tag_12\n  jump\t// in\ntag_25:\n    /* \"#utility.yul\":696:839   */\n  swap3\n  swap2\n  pop\n  pop\n  jump\t// out\n    /* \"#utility.yul\":845:1352   */\ntag_3:\n    /* \"#utility.yul\":924:930   */\n  0x00\n    /* \"#utility.yul\":932:938   */\n  dup1\n    /* \"#utility.yul\":981:983   */\n  0x40\n    /* \"#utility.yul\":969:978   */\n  dup4\n    /* \"#utility.yul\":960:967   */\n  dup6\n    /* \"#utility.yul\":956:979   */\n  sub\n    /* \"#utility.yul\":952:984   */\n  slt\n    /* \"#utility.yul\":949:1068   */\n  iszero\n  tag_27\n  jumpi\n    /* \"#utility.yul\":987:1066   */\n  tag_28\n  tag_8\n  jump\t// in\ntag_28:\n    /* \"#utility.yul\":949:1068   */\ntag_27:\n    /* \"#utility.yul\":1107:1108   */\n  0x00\n    /* \"#utility.yul\":1132:1196   */\n  tag_29\n    /* \"#utility.yul\":1188:1195   */\n  dup6\n    /* \"#utility.yul\":1179:1185   */\n  dup3\n    /* \"#utility.yul\":1168:1177   */\n  dup7\n    /* \"#utility.yul\":1164:1186   */\n  add\n    /* \"#utility.yul\":1132:1196   */\n  tag_13\n  jump\t// in\ntag_29:\n    /* \"#utility.yul\":1122:1196   */\n  swap3\n  pop\n    /* \"#utility.yul\":1078:1206   */\n  pop\n    /* \"#utility.yul\":1245:1247   */\n  0x20\n    /* \"#utility.yul\":1271:1335   */\n  tag_30\n    /* \"#utility.yul\":1327:1334   */\n  dup6\n    /* \"#utility.yul\":1318:1324   */\n  dup3\n    /* \"#utility.yul\":1307:1316   */\n  dup7\n    /* \"#utility.yul\":1303:1325   */\n  add\n    /* \"#utility.yul\":1271:1335   */\n  tag_13\n  jump\t// in\ntag_30:\n    /* \"#utility.yul\":1261:1335   */\n  swap2\n  pop\n    /* \"#utility.yul\":1216:1345   */\n  pop\n    /* \"#utility.yul\":845:1352   */\n  swap3\n  pop\n  swap3\n  swap1\n  pop\n  jump\t// out\n    /* \"trustless cross-chain/trading pair formation/AMM.sol\":83:922  contract SimpleBalancerAMM {... */\ntag_6:\n  dataSize(sub_0)\n  dup1\n  dataOffset(sub_0)\n  0x00\n  codecopy\n  0x00\n  return\nstop\n\nsub_0: assembly {\n        /* \"trustless cross-chain/trading pair formation/AMM.sol\":83:922  contract SimpleBalancerAMM {... */\n      mstore(0x40, 0x80)\n      callvalue\n      dup1\n      iszero\n      tag_1\n      jumpi\n      0x00\n      dup1\n      revert\n    tag_1:\n      pop\n      jumpi(tag_2, lt(calldatasize, 0x04))\n      shr(0xe0, calldataload(0x00))\n      dup1\n      0x0fc63d10\n      eq\n      tag_3\n      jumpi\n      dup1\n      0x186d334b\n      eq\n      tag_4\n      jumpi\n      dup1\n      0x5f64b55b\n      eq\n      tag_5\n      jumpi\n      dup1\n      0x9cd441da\n      eq\n      tag_6\n      jumpi\n      dup1\n      0xa97a8ccd\n      eq\n      tag_7\n      jumpi\n      dup1\n      0xe6aa216c\n      eq\n      tag_8\n      jumpi\n    tag_2:\n      0x00\n      dup1\n      revert\n        /* \"trustless cross-chain/trading pair formation/AMM.sol\":116:136  IERC20 public tokenA */\n    tag_3:\n      tag_9\n      tag_10\n      jump\t// in\n    tag_9:\n      mload(0x40)\n      tag_11\n      swap2\n      swap1\n      tag_12\n      jump\t// in\n    tag_11:\n      mload(0x40)\n      dup1\n      swap2\n      sub\n      swap1\n      return\n        /* \"trustless cross-chain/trading pair formation/AMM.sol\":168:193  uint256 public poolTokenA */\n    tag_4:\n      tag_13\n      tag_14\n      jump\t// in\n    tag_13:\n      mload(0x40)\n      tag_15\n      swap2\n      swap1\n      tag_16\n      jump\t// in\n    tag_15:\n      mload(0x40)\n      dup1\n      swap2\n      sub\n      swap1\n      return\n        /* \"trustless cross-chain/trading pair formation/AMM.sol\":142:162  IERC20 public tokenB */\n    tag_5:\n      tag_17\n      tag_18\n      jump\t// in\n    tag_17:\n      mload(0x40)\n      tag_19\n      swap2\n      swap1\n      tag_12\n      jump\t// in\n    tag_19:\n      mload(0x40)\n      dup1\n      swap2\n      sub\n      swap1\n      return\n        /* \"trustless cross-chain/trading pair formation/AMM.sol\":358:719  function addLiquidity(uint256 amountA, uint256 amountB) external {... */\n    tag_6:\n      tag_20\n      0x04\n      dup1\n      calldatasize\n      sub\n      dup2\n      add\n      swap1\n      tag_21\n      swap2\n      swap1\n      tag_22\n      jump\t// in\n    tag_21:\n      tag_23\n      jump\t// in\n    tag_20:\n      stop\n        /* \"trustless cross-chain/trading pair formation/AMM.sol\":199:224  uint256 public poolTokenB */\n    tag_7:\n      tag_24\n      tag_25\n      jump\t// in\n    tag_24:\n      mload(0x40)\n      tag_26\n      swap2\n      swap1\n      tag_16\n      jump\t// in\n    tag_26:\n      mload(0x40)\n      dup1\n      swap2\n      sub\n      swap1\n      return\n        /* \"trustless cross-chain/trading pair formation/AMM.sol\":725:920  function getExchangeRate() external view returns (uint256) {... */\n    tag_8:\n      tag_27\n      tag_28\n      jump\t// in\n    tag_27:\n      mload(0x40)\n      tag_29\n      swap2\n      swap1\n      tag_16\n      jump\t// in\n    tag_29:\n      mload(0x40)\n      dup1\n      swap2\n      sub\n      swap1\n      return\n        /* \"trustless cross-chain/trading pair formation/AMM.sol\":116:136  IERC20 public tokenA */\n    tag_10:\n      0x00\n      dup1\n      sload\n      swap1\n      0x0100\n      exp\n      swap1\n      div\n      0xffffffffffffffffffffffffffffffffffffffff\n      and\n      dup2\n      jump\t// out\n        /* \"trustless cross-chain/trading pair formation/AMM.sol\":168:193  uint256 public poolTokenA */\n    tag_14:\n      sload(0x02)\n      dup2\n      jump\t// out\n        /* \"trustless cross-chain/trading pair formation/AMM.sol\":142:162  IERC20 public tokenB */\n    tag_18:\n      0x01\n      0x00\n      swap1\n      sload\n      swap1\n      0x0100\n      exp\n      swap1\n      div\n      0xffffffffffffffffffffffffffffffffffffffff\n      and\n      dup2\n      jump\t// out\n        /* \"trustless cross-chain/trading pair formation/AMM.sol\":358:719  function addLiquidity(uint256 amountA, uint256 amountB) external {... */\n    tag_23:\n        /* \"trustless cross-chain/trading pair formation/AMM.sol\":451:452  0 */\n      0x00\n        /* \"trustless cross-chain/trading pair formation/AMM.sol\":441:448  amountA */\n      dup3\n        /* \"trustless cross-chain/trading pair formation/AMM.sol\":441:452  amountA > 0 */\n      gt\n        /* \"trustless cross-chain/trading pair formation/AMM.sol\":441:467  amountA > 0 && amountB > 0 */\n      dup1\n      iszero\n      tag_31\n      jumpi\n      pop\n        /* \"trustless cross-chain/trading pair formation/AMM.sol\":466:467  0 */\n      0x00\n        /* \"trustless cross-chain/trading pair formation/AMM.sol\":456:463  amountB */\n      dup2\n        /* \"trustless cross-chain/trading pair formation/AMM.sol\":456:467  amountB > 0 */\n      gt\n        /* \"trustless cross-chain/trading pair formation/AMM.sol\":441:467  amountA > 0 && amountB > 0 */\n    tag_31:\n        /* \"trustless cross-chain/trading pair formation/AMM.sol\":433:502  require(amountA > 0 && amountB > 0, \"Amounts must be greater than 0\") */\n      tag_32\n      jumpi\n      mload(0x40)\n      0x08c379a000000000000000000000000000000000000000000000000000000000\n      dup2\n      mstore\n      0x04\n      add\n      tag_33\n      swap1\n      tag_34\n      jump\t// in\n    tag_33:\n      mload(0x40)\n      dup1\n      swap2\n      sub\n      swap1\n      revert\n    tag_32:\n        /* \"trustless cross-chain/trading pair formation/AMM.sol\":521:527  tokenA */\n      0x00\n      dup1\n      sload\n      swap1\n      0x0100\n      exp\n      swap1\n      div\n      0xffffffffffffffffffffffffffffffffffffffff\n      and\n        /* \"trustless cross-chain/trading pair formation/AMM.sol\":521:540  tokenA.transferFrom */\n      0xffffffffffffffffffffffffffffffffffffffff\n      and\n      0x23b872dd\n        /* \"trustless cross-chain/trading pair formation/AMM.sol\":541:551  msg.sender */\n      caller\n        /* \"trustless cross-chain/trading pair formation/AMM.sol\":561:565  this */\n      address\n        /* \"trustless cross-chain/trading pair formation/AMM.sol\":568:575  amountA */\n      dup6\n        /* \"trustless cross-chain/trading pair formation/AMM.sol\":521:576  tokenA.transferFrom(msg.sender, address(this), amountA) */\n      mload(0x40)\n      dup5\n      0xffffffff\n      and\n      0xe0\n      shl\n      dup2\n      mstore\n      0x04\n      add\n      tag_35\n      swap4\n      swap3\n      swap2\n      swap1\n      tag_36\n      jump\t// in\n    tag_35:\n      0x20\n      mload(0x40)\n      dup1\n      dup4\n      sub\n      dup2\n      0x00\n      dup8\n      gas\n      call\n      iszero\n      dup1\n      iszero\n      tag_38\n      jumpi\n      returndatasize\n      0x00\n      dup1\n      returndatacopy\n      revert(0x00, returndatasize)\n    tag_38:\n      pop\n      pop\n      pop\n      pop\n      mload(0x40)\n      returndatasize\n      not(0x1f)\n      0x1f\n      dup3\n      add\n      and\n      dup3\n      add\n      dup1\n      0x40\n      mstore\n      pop\n      dup2\n      add\n      swap1\n      tag_39\n      swap2\n      swap1\n      tag_40\n      jump\t// in\n    tag_39:\n      pop\n        /* \"trustless cross-chain/trading pair formation/AMM.sol\":586:592  tokenB */\n      0x01\n      0x00\n      swap1\n      sload\n      swap1\n      0x0100\n      exp\n      swap1\n      div\n      0xffffffffffffffffffffffffffffffffffffffff\n      and\n        /* \"trustless cross-chain/trading pair formation/AMM.sol\":586:605  tokenB.transferFrom */\n      0xffffffffffffffffffffffffffffffffffffffff\n      and\n      0x23b872dd\n        /* \"trustless cross-chain/trading pair formation/AMM.sol\":606:616  msg.sender */\n      caller\n        /* \"trustless cross-chain/trading pair formation/AMM.sol\":626:630  this */\n      address\n        /* \"trustless cross-chain/trading pair formation/AMM.sol\":633:640  amountB */\n      dup5\n        /* \"trustless cross-chain/trading pair formation/AMM.sol\":586:641  tokenB.transferFrom(msg.sender, address(this), amountB) */\n      mload(0x40)\n      dup5\n      0xffffffff\n      and\n      0xe0\n      shl\n      dup2\n      mstore\n      0x04\n      add\n      tag_41\n      swap4\n      swap3\n      swap2\n      swap1\n      tag_36\n      jump\t// in\n    tag_41:\n      0x20\n      mload(0x40)\n      dup1\n      dup4\n      sub\n      dup2\n      0x00\n      dup8\n      gas\n      call\n      iszero\n      dup1\n      iszero\n      tag_43\n      jumpi\n      returndatasize\n      0x00\n      dup1\n      returndatacopy\n      revert(0x00, returndatasize)\n    tag_43:\n      pop\n      pop\n      pop\n      pop\n      mload(0x40)\n      returndatasize\n      not(0x1f)\n      0x1f\n      dup3\n      add\n      and\n      dup3\n      add\n      dup1\n      0x40\n      mstore\n      pop\n      dup2\n      add\n      swap1\n      tag_44\n      swap2\n      swap1\n      tag_40\n      jump\t// in\n    tag_44:\n      pop\n        /* \"trustless cross-chain/trading pair formation/AMM.sol\":674:681  amountA */\n      dup2\n        /* \"trustless cross-chain/trading pair formation/AMM.sol\":660:670  poolTokenA */\n      0x02\n      0x00\n        /* \"trustless cross-chain/trading pair formation/AMM.sol\":660:681  poolTokenA += amountA */\n      dup3\n      dup3\n      sload\n      tag_45\n      swap2\n      swap1\n      tag_46\n      jump\t// in\n    tag_45:\n      swap3\n      pop\n      pop\n      dup2\n      swap1\n      sstore\n      pop\n        /* \"trustless cross-chain/trading pair formation/AMM.sol\":705:712  amountB */\n      dup1\n        /* \"trustless cross-chain/trading pair formation/AMM.sol\":691:701  poolTokenB */\n      0x03\n      0x00\n        /* \"trustless cross-chain/trading pair formation/AMM.sol\":691:712  poolTokenB += amountB */\n      dup3\n      dup3\n      sload\n      tag_47\n      swap2\n      swap1\n      tag_46\n      jump\t// in\n    tag_47:\n      swap3\n      pop\n      pop\n      dup2\n      swap1\n      sstore\n      pop\n        /* \"trustless cross-chain/trading pair formation/AMM.sol\":358:719  function addLiquidity(uint256 amountA, uint256 amountB) external {... */\n      pop\n      pop\n      jump\t// out\n        /* \"trustless cross-chain/trading pair formation/AMM.sol\":199:224  uint256 public poolTokenB */\n    tag_25:\n      sload(0x03)\n      dup2\n      jump\t// out\n        /* \"trustless cross-chain/trading pair formation/AMM.sol\":725:920  function getExchangeRate() external view returns (uint256) {... */\n    tag_28:\n        /* \"trustless cross-chain/trading pair formation/AMM.sol\":775:782  uint256 */\n      0x00\n        /* \"trustless cross-chain/trading pair formation/AMM.sol\":815:816  0 */\n      dup1\n        /* \"trustless cross-chain/trading pair formation/AMM.sol\":802:812  poolTokenA */\n      sload(0x02)\n        /* \"trustless cross-chain/trading pair formation/AMM.sol\":802:816  poolTokenA > 0 */\n      gt\n        /* \"trustless cross-chain/trading pair formation/AMM.sol\":802:834  poolTokenA > 0 && poolTokenB > 0 */\n      dup1\n      iszero\n      tag_49\n      jumpi\n      pop\n        /* \"trustless cross-chain/trading pair formation/AMM.sol\":833:834  0 */\n      0x00\n        /* \"trustless cross-chain/trading pair formation/AMM.sol\":820:830  poolTokenB */\n      sload(0x03)\n        /* \"trustless cross-chain/trading pair formation/AMM.sol\":820:834  poolTokenB > 0 */\n      gt\n        /* \"trustless cross-chain/trading pair formation/AMM.sol\":802:834  poolTokenA > 0 && poolTokenB > 0 */\n    tag_49:\n        /* \"trustless cross-chain/trading pair formation/AMM.sol\":794:863  require(poolTokenA > 0 && poolTokenB > 0, \"Pool must have liquidity\") */\n      tag_50\n      jumpi\n      mload(0x40)\n      0x08c379a000000000000000000000000000000000000000000000000000000000\n      dup2\n      mstore\n      0x04\n      add\n      tag_51\n      swap1\n      tag_52\n      jump\t// in\n    tag_51:\n      mload(0x40)\n      dup1\n      swap2\n      sub\n      swap1\n      revert\n    tag_50:\n        /* \"trustless cross-chain/trading pair formation/AMM.sol\":903:913  poolTokenB */\n      sload(0x03)\n        /* \"trustless cross-chain/trading pair formation/AMM.sol\":895:899  1e18 */\n      0x0de0b6b3a7640000\n        /* \"trustless cross-chain/trading pair formation/AMM.sol\":882:892  poolTokenA */\n      sload(0x02)\n        /* \"trustless cross-chain/trading pair formation/AMM.sol\":882:899  poolTokenA * 1e18 */\n      tag_53\n      swap2\n      swap1\n      tag_54\n      jump\t// in\n    tag_53:\n        /* \"trustless cross-chain/trading pair formation/AMM.sol\":881:913  (poolTokenA * 1e18) / poolTokenB */\n      tag_55\n      swap2\n      swap1\n      tag_56\n      jump\t// in\n    tag_55:\n        /* \"trustless cross-chain/trading pair formation/AMM.sol\":874:913  return (poolTokenA * 1e18) / poolTokenB */\n      swap1\n      pop\n        /* \"trustless cross-chain/trading pair formation/AMM.sol\":725:920  function getExchangeRate() external view returns (uint256) {... */\n      swap1\n      jump\t// out\n        /* \"#utility.yul\":7:133   */\n    tag_57:\n        /* \"#utility.yul\":44:51   */\n      0x00\n        /* \"#utility.yul\":84:126   */\n      0xffffffffffffffffffffffffffffffffffffffff\n        /* \"#utility.yul\":77:82   */\n      dup3\n        /* \"#utility.yul\":73:127   */\n      and\n        /* \"#utility.yul\":62:127   */\n      swap1\n      pop\n        /* \"#utility.yul\":7:133   */\n      swap2\n      swap1\n      pop\n      jump\t// out\n        /* \"#utility.yul\":139:199   */\n    tag_58:\n        /* \"#utility.yul\":167:170   */\n      0x00\n        /* \"#utility.yul\":188:193   */\n      dup2\n        /* \"#utility.yul\":181:193   */\n      swap1\n      pop\n        /* \"#utility.yul\":139:199   */\n      swap2\n      swap1\n      pop\n      jump\t// out\n        /* \"#utility.yul\":205:347   */\n    tag_59:\n        /* \"#utility.yul\":255:264   */\n      0x00\n        /* \"#utility.yul\":288:341   */\n      tag_86\n        /* \"#utility.yul\":306:340   */\n      tag_87\n        /* \"#utility.yul\":315:339   */\n      tag_88\n        /* \"#utility.yul\":333:338   */\n      dup5\n        /* \"#utility.yul\":315:339   */\n      tag_57\n      jump\t// in\n    tag_88:\n        /* \"#utility.yul\":306:340   */\n      tag_58\n      jump\t// in\n    tag_87:\n        /* \"#utility.yul\":288:341   */\n      tag_57\n      jump\t// in\n    tag_86:\n        /* \"#utility.yul\":275:341   */\n      swap1\n      pop\n        /* \"#utility.yul\":205:347   */\n      swap2\n      swap1\n      pop\n      jump\t// out\n        /* \"#utility.yul\":353:479   */\n    tag_60:\n        /* \"#utility.yul\":403:412   */\n      0x00\n        /* \"#utility.yul\":436:473   */\n      tag_90\n        /* \"#utility.yul\":467:472   */\n      dup3\n        /* \"#utility.yul\":436:473   */\n      tag_59\n      jump\t// in\n    tag_90:\n        /* \"#utility.yul\":423:473   */\n      swap1\n      pop\n        /* \"#utility.yul\":353:479   */\n      swap2\n      swap1\n      pop\n      jump\t// out\n        /* \"#utility.yul\":485:624   */\n    tag_61:\n        /* \"#utility.yul\":548:557   */\n      0x00\n        /* \"#utility.yul\":581:618   */\n      tag_92\n        /* \"#utility.yul\":612:617   */\n      dup3\n        /* \"#utility.yul\":581:618   */\n      tag_60\n      jump\t// in\n    tag_92:\n        /* \"#utility.yul\":568:618   */\n      swap1\n      pop\n        /* \"#utility.yul\":485:624   */\n      swap2\n      swap1\n      pop\n      jump\t// out\n        /* \"#utility.yul\":630:787   */\n    tag_62:\n        /* \"#utility.yul\":730:780   */\n      tag_94\n        /* \"#utility.yul\":774:779   */\n      dup2\n        /* \"#utility.yul\":730:780   */\n      tag_61\n      jump\t// in\n    tag_94:\n        /* \"#utility.yul\":725:728   */\n      dup3\n        /* \"#utility.yul\":718:781   */\n      mstore\n        /* \"#utility.yul\":630:787   */\n      pop\n      pop\n      jump\t// out\n        /* \"#utility.yul\":793:1041   */\n    tag_12:\n        /* \"#utility.yul\":899:903   */\n      0x00\n        /* \"#utility.yul\":937:939   */\n      0x20\n        /* \"#utility.yul\":926:935   */\n      dup3\n        /* \"#utility.yul\":922:940   */\n      add\n        /* \"#utility.yul\":914:940   */\n      swap1\n      pop\n        /* \"#utility.yul\":950:1034   */\n      tag_96\n        /* \"#utility.yul\":1031:1032   */\n      0x00\n        /* \"#utility.yul\":1020:1029   */\n      dup4\n        /* \"#utility.yul\":1016:1033   */\n      add\n        /* \"#utility.yul\":1007:1013   */\n      dup5\n        /* \"#utility.yul\":950:1034   */\n      tag_62\n      jump\t// in\n    tag_96:\n        /* \"#utility.yul\":793:1041   */\n      swap3\n      swap2\n      pop\n      pop\n      jump\t// out\n        /* \"#utility.yul\":1047:1124   */\n    tag_63:\n        /* \"#utility.yul\":1084:1091   */\n      0x00\n        /* \"#utility.yul\":1113:1118   */\n      dup2\n        /* \"#utility.yul\":1102:1118   */\n      swap1\n      pop\n        /* \"#utility.yul\":1047:1124   */\n      swap2\n      swap1\n      pop\n      jump\t// out\n        /* \"#utility.yul\":1130:1248   */\n    tag_64:\n        /* \"#utility.yul\":1217:1241   */\n      tag_99\n        /* \"#utility.yul\":1235:1240   */\n      dup2\n        /* \"#utility.yul\":1217:1241   */\n      tag_63\n      jump\t// in\n    tag_99:\n        /* \"#utility.yul\":1212:1215   */\n      dup3\n        /* \"#utility.yul\":1205:1242   */\n      mstore\n        /* \"#utility.yul\":1130:1248   */\n      pop\n      pop\n      jump\t// out\n        /* \"#utility.yul\":1254:1476   */\n    tag_16:\n        /* \"#utility.yul\":1347:1351   */\n      0x00\n        /* \"#utility.yul\":1385:1387   */\n      0x20\n        /* \"#utility.yul\":1374:1383   */\n      dup3\n        /* \"#utility.yul\":1370:1388   */\n      add\n        /* \"#utility.yul\":1362:1388   */\n      swap1\n      pop\n        /* \"#utility.yul\":1398:1469   */\n      tag_101\n        /* \"#utility.yul\":1466:1467   */\n      0x00\n        /* \"#utility.yul\":1455:1464   */\n      dup4\n        /* \"#utility.yul\":1451:1468   */\n      add\n        /* \"#utility.yul\":1442:1448   */\n      dup5\n        /* \"#utility.yul\":1398:1469   */\n      tag_64\n      jump\t// in\n    tag_101:\n        /* \"#utility.yul\":1254:1476   */\n      swap3\n      swap2\n      pop\n      pop\n      jump\t// out\n        /* \"#utility.yul\":1563:1680   */\n    tag_66:\n        /* \"#utility.yul\":1672:1673   */\n      0x00\n        /* \"#utility.yul\":1669:1670   */\n      dup1\n        /* \"#utility.yul\":1662:1674   */\n      revert\n        /* \"#utility.yul\":1809:1931   */\n    tag_68:\n        /* \"#utility.yul\":1882:1906   */\n      tag_106\n        /* \"#utility.yul\":1900:1905   */\n      dup2\n        /* \"#utility.yul\":1882:1906   */\n      tag_63\n      jump\t// in\n    tag_106:\n        /* \"#utility.yul\":1875:1880   */\n      dup2\n        /* \"#utility.yul\":1872:1907   */\n      eq\n        /* \"#utility.yul\":1862:1925   */\n      tag_107\n      jumpi\n        /* \"#utility.yul\":1921:1922   */\n      0x00\n        /* \"#utility.yul\":1918:1919   */\n      dup1\n        /* \"#utility.yul\":1911:1923   */\n      revert\n        /* \"#utility.yul\":1862:1925   */\n    tag_107:\n        /* \"#utility.yul\":1809:1931   */\n      pop\n      jump\t// out\n        /* \"#utility.yul\":1937:2076   */\n    tag_69:\n        /* \"#utility.yul\":1983:1988   */\n      0x00\n        /* \"#utility.yul\":2021:2027   */\n      dup2\n        /* \"#utility.yul\":2008:2028   */\n      calldataload\n        /* \"#utility.yul\":1999:2028   */\n      swap1\n      pop\n        /* \"#utility.yul\":2037:2070   */\n      tag_109\n        /* \"#utility.yul\":2064:2069   */\n      dup2\n        /* \"#utility.yul\":2037:2070   */\n      tag_68\n      jump\t// in\n    tag_109:\n        /* \"#utility.yul\":1937:2076   */\n      swap3\n      swap2\n      pop\n      pop\n      jump\t// out\n        /* \"#utility.yul\":2082:2556   */\n    tag_22:\n        /* \"#utility.yul\":2150:2156   */\n      0x00\n        /* \"#utility.yul\":2158:2164   */\n      dup1\n        /* \"#utility.yul\":2207:2209   */\n      0x40\n        /* \"#utility.yul\":2195:2204   */\n      dup4\n        /* \"#utility.yul\":2186:2193   */\n      dup6\n        /* \"#utility.yul\":2182:2205   */\n      sub\n        /* \"#utility.yul\":2178:2210   */\n      slt\n        /* \"#utility.yul\":2175:2294   */\n      iszero\n      tag_111\n      jumpi\n        /* \"#utility.yul\":2213:2292   */\n      tag_112\n      tag_66\n      jump\t// in\n    tag_112:\n        /* \"#utility.yul\":2175:2294   */\n    tag_111:\n        /* \"#utility.yul\":2333:2334   */\n      0x00\n        /* \"#utility.yul\":2358:2411   */\n      tag_113\n        /* \"#utility.yul\":2403:2410   */\n      dup6\n        /* \"#utility.yul\":2394:2400   */\n      dup3\n        /* \"#utility.yul\":2383:2392   */\n      dup7\n        /* \"#utility.yul\":2379:2401   */\n      add\n        /* \"#utility.yul\":2358:2411   */\n      tag_69\n      jump\t// in\n    tag_113:\n        /* \"#utility.yul\":2348:2411   */\n      swap3\n      pop\n        /* \"#utility.yul\":2304:2421   */\n      pop\n        /* \"#utility.yul\":2460:2462   */\n      0x20\n        /* \"#utility.yul\":2486:2539   */\n      tag_114\n        /* \"#utility.yul\":2531:2538   */\n      dup6\n        /* \"#utility.yul\":2522:2528   */\n      dup3\n        /* \"#utility.yul\":2511:2520   */\n      dup7\n        /* \"#utility.yul\":2507:2529   */\n      add\n        /* \"#utility.yul\":2486:2539   */\n      tag_69\n      jump\t// in\n    tag_114:\n        /* \"#utility.yul\":2476:2539   */\n      swap2\n      pop\n        /* \"#utility.yul\":2431:2549   */\n      pop\n        /* \"#utility.yul\":2082:2556   */\n      swap3\n      pop\n      swap3\n      swap1\n      pop\n      jump\t// out\n        /* \"#utility.yul\":2562:2731   */\n    tag_70:\n        /* \"#utility.yul\":2646:2657   */\n      0x00\n        /* \"#utility.yul\":2680:2686   */\n      dup3\n        /* \"#utility.yul\":2675:2678   */\n      dup3\n        /* \"#utility.yul\":2668:2687   */\n      mstore\n        /* \"#utility.yul\":2720:2724   */\n      0x20\n        /* \"#utility.yul\":2715:2718   */\n      dup3\n        /* \"#utility.yul\":2711:2725   */\n      add\n        /* \"#utility.yul\":2696:2725   */\n      swap1\n      pop\n        /* \"#utility.yul\":2562:2731   */\n      swap3\n      swap2\n      pop\n      pop\n      jump\t// out\n        /* \"#utility.yul\":2737:2917   */\n    tag_71:\n        /* \"#utility.yul\":2877:2909   */\n      0x416d6f756e7473206d7573742062652067726561746572207468616e20300000\n        /* \"#utility.yul\":2873:2874   */\n      0x00\n        /* \"#utility.yul\":2865:2871   */\n      dup3\n        /* \"#utility.yul\":2861:2875   */\n      add\n        /* \"#utility.yul\":2854:2910   */\n      mstore\n        /* \"#utility.yul\":2737:2917   */\n      pop\n      jump\t// out\n        /* \"#utility.yul\":2923:3289   */\n    tag_72:\n        /* \"#utility.yul\":3065:3068   */\n      0x00\n        /* \"#utility.yul\":3086:3153   */\n      tag_118\n        /* \"#utility.yul\":3150:3152   */\n      0x1e\n        /* \"#utility.yul\":3145:3148   */\n      dup4\n        /* \"#utility.yul\":3086:3153   */\n      tag_70\n      jump\t// in\n    tag_118:\n        /* \"#utility.yul\":3079:3153   */\n      swap2\n      pop\n        /* \"#utility.yul\":3162:3255   */\n      tag_119\n        /* \"#utility.yul\":3251:3254   */\n      dup3\n        /* \"#utility.yul\":3162:3255   */\n      tag_71\n      jump\t// in\n    tag_119:\n        /* \"#utility.yul\":3280:3282   */\n      0x20\n        /* \"#utility.yul\":3275:3278   */\n      dup3\n        /* \"#utility.yul\":3271:3283   */\n      add\n        /* \"#utility.yul\":3264:3283   */\n      swap1\n      pop\n        /* \"#utility.yul\":2923:3289   */\n      swap2\n      swap1\n      pop\n      jump\t// out\n        /* \"#utility.yul\":3295:3714   */\n    tag_34:\n        /* \"#utility.yul\":3461:3465   */\n      0x00\n        /* \"#utility.yul\":3499:3501   */\n      0x20\n        /* \"#utility.yul\":3488:3497   */\n      dup3\n        /* \"#utility.yul\":3484:3502   */\n      add\n        /* \"#utility.yul\":3476:3502   */\n      swap1\n      pop\n        /* \"#utility.yul\":3548:3557   */\n      dup2\n        /* \"#utility.yul\":3542:3546   */\n      dup2\n        /* \"#utility.yul\":3538:3558   */\n      sub\n        /* \"#utility.yul\":3534:3535   */\n      0x00\n        /* \"#utility.yul\":3523:3532   */\n      dup4\n        /* \"#utility.yul\":3519:3536   */\n      add\n        /* \"#utility.yul\":3512:3559   */\n      mstore\n        /* \"#utility.yul\":3576:3707   */\n      tag_121\n        /* \"#utility.yul\":3702:3706   */\n      dup2\n        /* \"#utility.yul\":3576:3707   */\n      tag_72\n      jump\t// in\n    tag_121:\n        /* \"#utility.yul\":3568:3707   */\n      swap1\n      pop\n        /* \"#utility.yul\":3295:3714   */\n      swap2\n      swap1\n      pop\n      jump\t// out\n        /* \"#utility.yul\":3720:3816   */\n    tag_73:\n        /* \"#utility.yul\":3757:3764   */\n      0x00\n        /* \"#utility.yul\":3786:3810   */\n      tag_123\n        /* \"#utility.yul\":3804:3809   */\n      dup3\n        /* \"#utility.yul\":3786:3810   */\n      tag_57\n      jump\t// in\n    tag_123:\n        /* \"#utility.yul\":3775:3810   */\n      swap1\n      pop\n        /* \"#utility.yul\":3720:3816   */\n      swap2\n      swap1\n      pop\n      jump\t// out\n        /* \"#utility.yul\":3822:3940   */\n    tag_74:\n        /* \"#utility.yul\":3909:3933   */\n      tag_125\n        /* \"#utility.yul\":3927:3932   */\n      dup2\n        /* \"#utility.yul\":3909:3933   */\n      tag_73\n      jump\t// in\n    tag_125:\n        /* \"#utility.yul\":3904:3907   */\n      dup3\n        /* \"#utility.yul\":3897:3934   */\n      mstore\n        /* \"#utility.yul\":3822:3940   */\n      pop\n      pop\n      jump\t// out\n        /* \"#utility.yul\":3946:4388   */\n    tag_36:\n        /* \"#utility.yul\":4095:4099   */\n      0x00\n        /* \"#utility.yul\":4133:4135   */\n      0x60\n        /* \"#utility.yul\":4122:4131   */\n      dup3\n        /* \"#utility.yul\":4118:4136   */\n      add\n        /* \"#utility.yul\":4110:4136   */\n      swap1\n      pop\n        /* \"#utility.yul\":4146:4217   */\n      tag_127\n        /* \"#utility.yul\":4214:4215   */\n      0x00\n        /* \"#utility.yul\":4203:4212   */\n      dup4\n        /* \"#utility.yul\":4199:4216   */\n      add\n        /* \"#utility.yul\":4190:4196   */\n      dup7\n        /* \"#utility.yul\":4146:4217   */\n      tag_74\n      jump\t// in\n    tag_127:\n        /* \"#utility.yul\":4227:4299   */\n      tag_128\n        /* \"#utility.yul\":4295:4297   */\n      0x20\n        /* \"#utility.yul\":4284:4293   */\n      dup4\n        /* \"#utility.yul\":4280:4298   */\n      add\n        /* \"#utility.yul\":4271:4277   */\n      dup6\n        /* \"#utility.yul\":4227:4299   */\n      tag_74\n      jump\t// in\n    tag_128:\n        /* \"#utility.yul\":4309:4381   */\n      tag_129\n        /* \"#utility.yul\":4377:4379   */\n      0x40\n        /* \"#utility.yul\":4366:4375   */\n      dup4\n        /* \"#utility.yul\":4362:4380   */\n      add\n        /* \"#utility.yul\":4353:4359   */\n      dup5\n        /* \"#utility.yul\":4309:4381   */\n      tag_64\n      jump\t// in\n    tag_129:\n        /* \"#utility.yul\":3946:4388   */\n      swap5\n      swap4\n      pop\n      pop\n      pop\n      pop\n      jump\t// out\n        /* \"#utility.yul\":4394:4484   */\n    tag_75:\n        /* \"#utility.yul\":4428:4435   */\n      0x00\n        /* \"#utility.yul\":4471:4476   */\n      dup2\n        /* \"#utility.yul\":4464:4477   */\n      iszero\n        /* \"#utility.yul\":4457:4478   */\n      iszero\n        /* \"#utility.yul\":4446:4478   */\n      swap1\n      pop\n        /* \"#utility.yul\":4394:4484   */\n      swap2\n      swap1\n      pop\n      jump\t// out\n        /* \"#utility.yul\":4490:4606   */\n    tag_76:\n        /* \"#utility.yul\":4560:4581   */\n      tag_132\n        /* \"#utility.yul\":4575:4580   */\n      dup2\n        /* \"#utility.yul\":4560:4581   */\n      tag_75\n      jump\t// in\n    tag_132:\n        /* \"#utility.yul\":4553:4558   */\n      dup2\n        /* \"#utility.yul\":4550:4582   */\n      eq\n        /* \"#utility.yul\":4540:4600   */\n      tag_133\n      jumpi\n        /* \"#utility.yul\":4596:4597   */\n      0x00\n        /* \"#utility.yul\":4593:4594   */\n      dup1\n        /* \"#utility.yul\":4586:4598   */\n      revert\n        /* \"#utility.yul\":4540:4600   */\n    tag_133:\n        /* \"#utility.yul\":4490:4606   */\n      pop\n      jump\t// out\n        /* \"#utility.yul\":4612:4749   */\n    tag_77:\n        /* \"#utility.yul\":4666:4671   */\n      0x00\n        /* \"#utility.yul\":4697:4703   */\n      dup2\n        /* \"#utility.yul\":4691:4704   */\n      mload\n        /* \"#utility.yul\":4682:4704   */\n      swap1\n      pop\n        /* \"#utility.yul\":4713:4743   */\n      tag_135\n        /* \"#utility.yul\":4737:4742   */\n      dup2\n        /* \"#utility.yul\":4713:4743   */\n      tag_76\n      jump\t// in\n    tag_135:\n        /* \"#utility.yul\":4612:4749   */\n      swap3\n      swap2\n      pop\n      pop\n      jump\t// out\n        /* \"#utility.yul\":4755:5100   */\n    tag_40:\n        /* \"#utility.yul\":4822:4828   */\n      0x00\n        /* \"#utility.yul\":4871:4873   */\n      0x20\n        /* \"#utility.yul\":4859:4868   */\n      dup3\n        /* \"#utility.yul\":4850:4857   */\n      dup5\n        /* \"#utility.yul\":4846:4869   */\n      sub\n        /* \"#utility.yul\":4842:4874   */\n      slt\n        /* \"#utility.yul\":4839:4958   */\n      iszero\n      tag_137\n      jumpi\n        /* \"#utility.yul\":4877:4956   */\n      tag_138\n      tag_66\n      jump\t// in\n    tag_138:\n        /* \"#utility.yul\":4839:4958   */\n    tag_137:\n        /* \"#utility.yul\":4997:4998   */\n      0x00\n        /* \"#utility.yul\":5022:5083   */\n      tag_139\n        /* \"#utility.yul\":5075:5082   */\n      dup5\n        /* \"#utility.yul\":5066:5072   */\n      dup3\n        /* \"#utility.yul\":5055:5064   */\n      dup6\n        /* \"#utility.yul\":5051:5073   */\n      add\n        /* \"#utility.yul\":5022:5083   */\n      tag_77\n      jump\t// in\n    tag_139:\n        /* \"#utility.yul\":5012:5083   */\n      swap2\n      pop\n        /* \"#utility.yul\":4968:5093   */\n      pop\n        /* \"#utility.yul\":4755:5100   */\n      swap3\n      swap2\n      pop\n      pop\n      jump\t// out\n        /* \"#utility.yul\":5106:5286   */\n    tag_78:\n        /* \"#utility.yul\":5154:5231   */\n      0x4e487b7100000000000000000000000000000000000000000000000000000000\n        /* \"#utility.yul\":5151:5152   */\n      0x00\n        /* \"#utility.yul\":5144:5232   */\n      mstore\n        /* \"#utility.yul\":5251:5255   */\n      0x11\n        /* \"#utility.yul\":5248:5249   */\n      0x04\n        /* \"#utility.yul\":5241:5256   */\n      mstore\n        /* \"#utility.yul\":5275:5279   */\n      0x24\n        /* \"#utility.yul\":5272:5273   */\n      0x00\n        /* \"#utility.yul\":5265:5280   */\n      revert\n        /* \"#utility.yul\":5292:5483   */\n    tag_46:\n        /* \"#utility.yul\":5332:5335   */\n      0x00\n        /* \"#utility.yul\":5351:5371   */\n      tag_142\n        /* \"#utility.yul\":5369:5370   */\n      dup3\n        /* \"#utility.yul\":5351:5371   */\n      tag_63\n      jump\t// in\n    tag_142:\n        /* \"#utility.yul\":5346:5371   */\n      swap2\n      pop\n        /* \"#utility.yul\":5385:5405   */\n      tag_143\n        /* \"#utility.yul\":5403:5404   */\n      dup4\n        /* \"#utility.yul\":5385:5405   */\n      tag_63\n      jump\t// in\n    tag_143:\n        /* \"#utility.yul\":5380:5405   */\n      swap3\n      pop\n        /* \"#utility.yul\":5428:5429   */\n      dup3\n        /* \"#utility.yul\":5425:5426   */\n      dup3\n        /* \"#utility.yul\":5421:5430   */\n      add\n        /* \"#utility.yul\":5414:5430   */\n      swap1\n      pop\n        /* \"#utility.yul\":5449:5452   */\n      dup1\n        /* \"#utility.yul\":5446:5447   */\n      dup3\n        /* \"#utility.yul\":5443:5453   */\n      gt\n        /* \"#utility.yul\":5440:5476   */\n      iszero\n      tag_144\n      jumpi\n        /* \"#utility.yul\":5456:5474   */\n      tag_145\n      tag_78\n      jump\t// in\n    tag_145:\n        /* \"#utility.yul\":5440:5476   */\n    tag_144:\n        /* \"#utility.yul\":5292:5483   */\n      swap3\n      swap2\n      pop\n      pop\n      jump\t// out\n        /* \"#utility.yul\":5489:5663   */\n    tag_79:\n        /* \"#utility.yul\":5629:5655   */\n      0x506f6f6c206d7573742068617665206c69717569646974790000000000000000\n        /* \"#utility.yul\":5625:5626   */\n      0x00\n        /* \"#utility.yul\":5617:5623   */\n      dup3\n        /* \"#utility.yul\":5613:5627   */\n      add\n        /* \"#utility.yul\":5606:5656   */\n      mstore\n        /* \"#utility.yul\":5489:5663   */\n      pop\n      jump\t// out\n        /* \"#utility.yul\":5669:6035   */\n    tag_80:\n        /* \"#utility.yul\":5811:5814   */\n      0x00\n        /* \"#utility.yul\":5832:5899   */\n      tag_148\n        /* \"#utility.yul\":5896:5898   */\n      0x18\n        /* \"#utility.yul\":5891:5894   */\n      dup4\n        /* \"#utility.yul\":5832:5899   */\n      tag_70\n      jump\t// in\n    tag_148:\n        /* \"#utility.yul\":5825:5899   */\n      swap2\n      pop\n        /* \"#utility.yul\":5908:6001   */\n      tag_149\n        /* \"#utility.yul\":5997:6000   */\n      dup3\n        /* \"#utility.yul\":5908:6001   */\n      tag_79\n      jump\t// in\n    tag_149:\n        /* \"#utility.yul\":6026:6028   */\n      0x20\n        /* \"#utility.yul\":6021:6024   */\n      dup3\n        /* \"#utility.yul\":6017:6029   */\n      add\n        /* \"#utility.yul\":6010:6029   */\n      swap1\n      pop\n        /* \"#utility.yul\":5669:6035   */\n      swap2\n      swap1\n      pop\n      jump\t// out\n        /* \"#utility.yul\":6041:6460   */\n    tag_52:\n        /* \"#utility.yul\":6207:6211   */\n      0x00\n        /* \"#utility.yul\":6245:6247   */\n      0x20\n        /* \"#utility.yul\":6234:6243   */\n      dup3\n        /* \"#utility.yul\":6230:6248   */\n      add\n        /* \"#utility.yul\":6222:6248   */\n      swap1\n      pop\n        /* \"#utility.yul\":6294:6303   */\n      dup2\n        /* \"#utility.yul\":6288:6292   */\n      dup2\n        /* \"#utility.yul\":6284:6304   */\n      sub\n        /* \"#utility.yul\":6280:6281   */\n      0x00\n        /* \"#utility.yul\":6269:6278   */\n      dup4\n        /* \"#utility.yul\":6265:6282   */\n      add\n        /* \"#utility.yul\":6258:6305   */\n      mstore\n        /* \"#utility.yul\":6322:6453   */\n      tag_151\n        /* \"#utility.yul\":6448:6452   */\n      dup2\n        /* \"#utility.yul\":6322:6453   */\n      tag_80\n      jump\t// in\n    tag_151:\n        /* \"#utility.yul\":6314:6453   */\n      swap1\n      pop\n        /* \"#utility.yul\":6041:6460   */\n      swap2\n      swap1\n      pop\n      jump\t// out\n        /* \"#utility.yul\":6466:6876   */\n    tag_54:\n        /* \"#utility.yul\":6506:6513   */\n      0x00\n        /* \"#utility.yul\":6529:6549   */\n      tag_153\n        /* \"#utility.yul\":6547:6548   */\n      dup3\n        /* \"#utility.yul\":6529:6549   */\n      tag_63\n      jump\t// in\n    tag_153:\n        /* \"#utility.yul\":6524:6549   */\n      swap2\n      pop\n        /* \"#utility.yul\":6563:6583   */\n      tag_154\n        /* \"#utility.yul\":6581:6582   */\n      dup4\n        /* \"#utility.yul\":6563:6583   */\n      tag_63\n      jump\t// in\n    tag_154:\n        /* \"#utility.yul\":6558:6583   */\n      swap3\n      pop\n        /* \"#utility.yul\":6618:6619   */\n      dup3\n        /* \"#utility.yul\":6615:6616   */\n      dup3\n        /* \"#utility.yul\":6611:6620   */\n      mul\n        /* \"#utility.yul\":6640:6670   */\n      tag_155\n        /* \"#utility.yul\":6658:6669   */\n      dup2\n        /* \"#utility.yul\":6640:6670   */\n      tag_63\n      jump\t// in\n    tag_155:\n        /* \"#utility.yul\":6629:6670   */\n      swap2\n      pop\n        /* \"#utility.yul\":6819:6820   */\n      dup3\n        /* \"#utility.yul\":6810:6817   */\n      dup3\n        /* \"#utility.yul\":6806:6821   */\n      div\n        /* \"#utility.yul\":6803:6804   */\n      dup5\n        /* \"#utility.yul\":6800:6822   */\n      eq\n        /* \"#utility.yul\":6780:6781   */\n      dup4\n        /* \"#utility.yul\":6773:6782   */\n      iszero\n        /* \"#utility.yul\":6753:6836   */\n      or\n        /* \"#utility.yul\":6730:6869   */\n      tag_156\n      jumpi\n        /* \"#utility.yul\":6849:6867   */\n      tag_157\n      tag_78\n      jump\t// in\n    tag_157:\n        /* \"#utility.yul\":6730:6869   */\n    tag_156:\n        /* \"#utility.yul\":6514:6876   */\n      pop\n        /* \"#utility.yul\":6466:6876   */\n      swap3\n      swap2\n      pop\n      pop\n      jump\t// out\n        /* \"#utility.yul\":6882:7062   */\n    tag_81:\n        /* \"#utility.yul\":6930:7007   */\n      0x4e487b7100000000000000000000000000000000000000000000000000000000\n        /* \"#utility.yul\":6927:6928   */\n      0x00\n        /* \"#utility.yul\":6920:7008   */\n      mstore\n        /* \"#utility.yul\":7027:7031   */\n      0x12\n        /* \"#utility.yul\":7024:7025   */\n      0x04\n        /* \"#utility.yul\":7017:7032   */\n      mstore\n        /* \"#utility.yul\":7051:7055   */\n      0x24\n        /* \"#utility.yul\":7048:7049   */\n      0x00\n        /* \"#utility.yul\":7041:7056   */\n      revert\n        /* \"#utility.yul\":7068:7253   */\n    tag_56:\n        /* \"#utility.yul\":7108:7109   */\n      0x00\n        /* \"#utility.yul\":7125:7145   */\n      tag_160\n        /* \"#utility.yul\":7143:7144   */\n      dup3\n        /* \"#utility.yul\":7125:7145   */\n      tag_63\n      jump\t// in\n    tag_160:\n        /* \"#utility.yul\":7120:7145   */\n      swap2\n      pop\n        /* \"#utility.yul\":7159:7179   */\n      tag_161\n        /* \"#utility.yul\":7177:7178   */\n      dup4\n        /* \"#utility.yul\":7159:7179   */\n      tag_63\n      jump\t// in\n    tag_161:\n        /* \"#utility.yul\":7154:7179   */\n      swap3\n      pop\n        /* \"#utility.yul\":7198:7199   */\n      dup3\n        /* \"#utility.yul\":7188:7223   */\n      tag_162\n      jumpi\n        /* \"#utility.yul\":7203:7221   */\n      tag_163\n      tag_81\n      jump\t// in\n    tag_163:\n        /* \"#utility.yul\":7188:7223   */\n    tag_162:\n        /* \"#utility.yul\":7245:7246   */\n      dup3\n        /* \"#utility.yul\":7242:7243   */\n      dup3\n        /* \"#utility.yul\":7238:7247   */\n      div\n        /* \"#utility.yul\":7233:7247   */\n      swap1\n      pop\n        /* \"#utility.yul\":7068:7253   */\n      swap3\n      swap2\n      pop\n      pop\n      jump\t// out\n\n    auxdata: 0xa26469706673582212204e7b97e06b91ac491da8e99f5043663ce00525d9d2d42e733140dcfd3cb9d41d64736f6c634300081a0033\n}\n",
				"bytecode": {
					"linkReferences": {},
					"object": "608060405234801561000f575f80fd5b506040516108fa3803806108fa83398181016040528101906100319190610115565b815f806101000a81548173ffffffffffffffffffffffffffffffffffffffff021916908373ffffffffffffffffffffffffffffffffffffffff1602179055508060015f6101000a81548173ffffffffffffffffffffffffffffffffffffffff021916908373ffffffffffffffffffffffffffffffffffffffff1602179055505050610153565b5f80fd5b5f73ffffffffffffffffffffffffffffffffffffffff82169050919050565b5f6100e4826100bb565b9050919050565b6100f4816100da565b81146100fe575f80fd5b50565b5f8151905061010f816100eb565b92915050565b5f806040838503121561012b5761012a6100b7565b5b5f61013885828601610101565b925050602061014985828601610101565b9150509250929050565b61079a806101605f395ff3fe608060405234801561000f575f80fd5b5060043610610060575f3560e01c80630fc63d1014610064578063186d334b146100825780635f64b55b146100a05780639cd441da146100be578063a97a8ccd146100da578063e6aa216c146100f8575b5f80fd5b61006c610116565b604051610079919061041b565b60405180910390f35b61008a610139565b604051610097919061044c565b60405180910390f35b6100a861013f565b6040516100b5919061041b565b60405180910390f35b6100d860048036038101906100d39190610493565b610164565b005b6100e2610321565b6040516100ef919061044c565b60405180910390f35b610100610327565b60405161010d919061044c565b60405180910390f35b5f8054906101000a900473ffffffffffffffffffffffffffffffffffffffff1681565b60025481565b60015f9054906101000a900473ffffffffffffffffffffffffffffffffffffffff1681565b5f8211801561017257505f81115b6101b1576040517f08c379a00000000000000000000000000000000000000000000000000000000081526004016101a89061052b565b60405180910390fd5b5f8054906101000a900473ffffffffffffffffffffffffffffffffffffffff1673ffffffffffffffffffffffffffffffffffffffff166323b872dd3330856040518463ffffffff1660e01b815260040161020d93929190610569565b6020604051808303815f875af1158015610229573d5f803e3d5ffd5b505050506040513d601f19601f8201168201806040525081019061024d91906105d3565b5060015f9054906101000a900473ffffffffffffffffffffffffffffffffffffffff1673ffffffffffffffffffffffffffffffffffffffff166323b872dd3330846040518463ffffffff1660e01b81526004016102ac93929190610569565b6020604051808303815f875af11580156102c8573d5f803e3d5ffd5b505050506040513d601f19601f820116820180604052508101906102ec91906105d3565b508160025f8282546102fe919061062b565b925050819055508060035f828254610316919061062b565b925050819055505050565b60035481565b5f8060025411801561033a57505f600354115b610379576040517f08c379a0000000000000000000000000000000000000000000000000000000008152600401610370906106a8565b60405180910390fd5b600354670de0b6b3a764000060025461039291906106c6565b61039c9190610734565b905090565b5f73ffffffffffffffffffffffffffffffffffffffff82169050919050565b5f819050919050565b5f6103e36103de6103d9846103a1565b6103c0565b6103a1565b9050919050565b5f6103f4826103c9565b9050919050565b5f610405826103ea565b9050919050565b610415816103fb565b82525050565b5f60208201905061042e5f83018461040c565b92915050565b5f819050919050565b61044681610434565b82525050565b5f60208201905061045f5f83018461043d565b92915050565b5f80fd5b61047281610434565b811461047c575f80fd5b50565b5f8135905061048d81610469565b92915050565b5f80604083850312156104a9576104a8610465565b5b5f6104b68582860161047f565b92505060206104c78582860161047f565b9150509250929050565b5f82825260208201905092915050565b7f416d6f756e7473206d7573742062652067726561746572207468616e203000005f82015250565b5f610515601e836104d1565b9150610520826104e1565b602082019050919050565b5f6020820190508181035f83015261054281610509565b9050919050565b5f610553826103a1565b9050919050565b61056381610549565b82525050565b5f60608201905061057c5f83018661055a565b610589602083018561055a565b610596604083018461043d565b949350505050565b5f8115159050919050565b6105b28161059e565b81146105bc575f80fd5b50565b5f815190506105cd816105a9565b92915050565b5f602082840312156105e8576105e7610465565b5b5f6105f5848285016105bf565b91505092915050565b7f4e487b71000000000000000000000000000000000000000000000000000000005f52601160045260245ffd5b5f61063582610434565b915061064083610434565b9250828201905080821115610658576106576105fe565b5b92915050565b7f506f6f6c206d7573742068617665206c697175696469747900000000000000005f82015250565b5f6106926018836104d1565b915061069d8261065e565b602082019050919050565b5f6020820190508181035f8301526106bf81610686565b9050919050565b5f6106d082610434565b91506106db83610434565b92508282026106e981610434565b91508282048414831517610700576106ff6105fe565b5b5092915050565b7f4e487b71000000000000000000000000000000000000000000000000000000005f52601260045260245ffd5b5f61073e82610434565b915061074983610434565b92508261075957610758610707565b5b82820490509291505056fea26469706673582212204e7b97e06b91ac491da8e99f5043663ce00525d9d2d42e733140dcfd3cb9d41d64736f6c634300081a0033",
					"opcodes": "PUSH1 0x80 PUSH1 0x40 MSTORE CALLVALUE DUP1 ISZERO PUSH2 0xF JUMPI PUSH0 DUP1 REVERT JUMPDEST POP PUSH1 0x40 MLOAD PUSH2 0x8FA CODESIZE SUB DUP1 PUSH2 0x8FA DUP4 CODECOPY DUP2 DUP2 ADD PUSH1 0x40 MSTORE DUP2 ADD SWAP1 PUSH2 0x31 SWAP2 SWAP1 PUSH2 0x115 JUMP JUMPDEST DUP2 PUSH0 DUP1 PUSH2 0x100 EXP DUP2 SLOAD DUP2 PUSH20 0xFFFFFFFFFFFFFFFFFFFFFFFFFFFFFFFFFFFFFFFF MUL NOT AND SWAP1 DUP4 PUSH20 0xFFFFFFFFFFFFFFFFFFFFFFFFFFFFFFFFFFFFFFFF AND MUL OR SWAP1 SSTORE POP DUP1 PUSH1 0x1 PUSH0 PUSH2 0x100 EXP DUP2 SLOAD DUP2 PUSH20 0xFFFFFFFFFFFFFFFFFFFFFFFFFFFFFFFFFFFFFFFF MUL NOT AND SWAP1 DUP4 PUSH20 0xFFFFFFFFFFFFFFFFFFFFFFFFFFFFFFFFFFFFFFFF AND MUL OR SWAP1 SSTORE POP POP POP PUSH2 0x153 JUMP JUMPDEST PUSH0 DUP1 REVERT JUMPDEST PUSH0 PUSH20 0xFFFFFFFFFFFFFFFFFFFFFFFFFFFFFFFFFFFFFFFF DUP3 AND SWAP1 POP SWAP2 SWAP1 POP JUMP JUMPDEST PUSH0 PUSH2 0xE4 DUP3 PUSH2 0xBB JUMP JUMPDEST SWAP1 POP SWAP2 SWAP1 POP JUMP JUMPDEST PUSH2 0xF4 DUP2 PUSH2 0xDA JUMP JUMPDEST DUP2 EQ PUSH2 0xFE JUMPI PUSH0 DUP1 REVERT JUMPDEST POP JUMP JUMPDEST PUSH0 DUP2 MLOAD SWAP1 POP PUSH2 0x10F DUP2 PUSH2 0xEB JUMP JUMPDEST SWAP3 SWAP2 POP POP JUMP JUMPDEST PUSH0 DUP1 PUSH1 0x40 DUP4 DUP6 SUB SLT ISZERO PUSH2 0x12B JUMPI PUSH2 0x12A PUSH2 0xB7 JUMP JUMPDEST JUMPDEST PUSH0 PUSH2 0x138 DUP6 DUP3 DUP7 ADD PUSH2 0x101 JUMP JUMPDEST SWAP3 POP POP PUSH1 0x20 PUSH2 0x149 DUP6 DUP3 DUP7 ADD PUSH2 0x101 JUMP JUMPDEST SWAP2 POP POP SWAP3 POP SWAP3 SWAP1 POP JUMP JUMPDEST PUSH2 0x79A DUP1 PUSH2 0x160 PUSH0 CODECOPY PUSH0 RETURN INVALID PUSH1 0x80 PUSH1 0x40 MSTORE CALLVALUE DUP1 ISZERO PUSH2 0xF JUMPI PUSH0 DUP1 REVERT JUMPDEST POP PUSH1 0x4 CALLDATASIZE LT PUSH2 0x60 JUMPI PUSH0 CALLDATALOAD PUSH1 0xE0 SHR DUP1 PUSH4 0xFC63D10 EQ PUSH2 0x64 JUMPI DUP1 PUSH4 0x186D334B EQ PUSH2 0x82 JUMPI DUP1 PUSH4 0x5F64B55B EQ PUSH2 0xA0 JUMPI DUP1 PUSH4 0x9CD441DA EQ PUSH2 0xBE JUMPI DUP1 PUSH4 0xA97A8CCD EQ PUSH2 0xDA JUMPI DUP1 PUSH4 0xE6AA216C EQ PUSH2 0xF8 JUMPI JUMPDEST PUSH0 DUP1 REVERT JUMPDEST PUSH2 0x6C PUSH2 0x116 JUMP JUMPDEST PUSH1 0x40 MLOAD PUSH2 0x79 SWAP2 SWAP1 PUSH2 0x41B JUMP JUMPDEST PUSH1 0x40 MLOAD DUP1 SWAP2 SUB SWAP1 RETURN JUMPDEST PUSH2 0x8A PUSH2 0x139 JUMP JUMPDEST PUSH1 0x40 MLOAD PUSH2 0x97 SWAP2 SWAP1 PUSH2 0x44C JUMP JUMPDEST PUSH1 0x40 MLOAD DUP1 SWAP2 SUB SWAP1 RETURN JUMPDEST PUSH2 0xA8 PUSH2 0x13F JUMP JUMPDEST PUSH1 0x40 MLOAD PUSH2 0xB5 SWAP2 SWAP1 PUSH2 0x41B JUMP JUMPDEST PUSH1 0x40 MLOAD DUP1 SWAP2 SUB SWAP1 RETURN JUMPDEST PUSH2 0xD8 PUSH1 0x4 DUP1 CALLDATASIZE SUB DUP2 ADD SWAP1 PUSH2 0xD3 SWAP2 SWAP1 PUSH2 0x493 JUMP JUMPDEST PUSH2 0x164 JUMP JUMPDEST STOP JUMPDEST PUSH2 0xE2 PUSH2 0x321 JUMP JUMPDEST PUSH1 0x40 MLOAD PUSH2 0xEF SWAP2 SWAP1 PUSH2 0x44C JUMP JUMPDEST PUSH1 0x40 MLOAD DUP1 SWAP2 SUB SWAP1 RETURN JUMPDEST PUSH2 0x100 PUSH2 0x327 JUMP JUMPDEST PUSH1 0x40 MLOAD PUSH2 0x10D SWAP2 SWAP1 PUSH2 0x44C JUMP JUMPDEST PUSH1 0x40 MLOAD DUP1 SWAP2 SUB SWAP1 RETURN JUMPDEST PUSH0 DUP1 SLOAD SWAP1 PUSH2 0x100 EXP SWAP1 DIV PUSH20 0xFFFFFFFFFFFFFFFFFFFFFFFFFFFFFFFFFFFFFFFF AND DUP2 JUMP JUMPDEST PUSH1 0x2 SLOAD DUP2 JUMP JUMPDEST PUSH1 0x1 PUSH0 SWAP1 SLOAD SWAP1 PUSH2 0x100 EXP SWAP1 DIV PUSH20 0xFFFFFFFFFFFFFFFFFFFFFFFFFFFFFFFFFFFFFFFF AND DUP2 JUMP JUMPDEST PUSH0 DUP3 GT DUP1 ISZERO PUSH2 0x172 JUMPI POP PUSH0 DUP2 GT JUMPDEST PUSH2 0x1B1 JUMPI PUSH1 0x40 MLOAD PUSH32 0x8C379A000000000000000000000000000000000000000000000000000000000 DUP2 MSTORE PUSH1 0x4 ADD PUSH2 0x1A8 SWAP1 PUSH2 0x52B JUMP JUMPDEST PUSH1 0x40 MLOAD DUP1 SWAP2 SUB SWAP1 REVERT JUMPDEST PUSH0 DUP1 SLOAD SWAP1 PUSH2 0x100 EXP SWAP1 DIV PUSH20 0xFFFFFFFFFFFFFFFFFFFFFFFFFFFFFFFFFFFFFFFF AND PUSH20 0xFFFFFFFFFFFFFFFFFFFFFFFFFFFFFFFFFFFFFFFF AND PUSH4 0x23B872DD CALLER ADDRESS DUP6 PUSH1 0x40 MLOAD DUP5 PUSH4 0xFFFFFFFF AND PUSH1 0xE0 SHL DUP2 MSTORE PUSH1 0x4 ADD PUSH2 0x20D SWAP4 SWAP3 SWAP2 SWAP1 PUSH2 0x569 JUMP JUMPDEST PUSH1 0x20 PUSH1 0x40 MLOAD DUP1 DUP4 SUB DUP2 PUSH0 DUP8 GAS CALL ISZERO DUP1 ISZERO PUSH2 0x229 JUMPI RETURNDATASIZE PUSH0 DUP1 RETURNDATACOPY RETURNDATASIZE PUSH0 REVERT JUMPDEST POP POP POP POP PUSH1 0x40 MLOAD RETURNDATASIZE PUSH1 0x1F NOT PUSH1 0x1F DUP3 ADD AND DUP3 ADD DUP1 PUSH1 0x40 MSTORE POP DUP2 ADD SWAP1 PUSH2 0x24D SWAP2 SWAP1 PUSH2 0x5D3 JUMP JUMPDEST POP PUSH1 0x1 PUSH0 SWAP1 SLOAD SWAP1 PUSH2 0x100 EXP SWAP1 DIV PUSH20 0xFFFFFFFFFFFFFFFFFFFFFFFFFFFFFFFFFFFFFFFF AND PUSH20 0xFFFFFFFFFFFFFFFFFFFFFFFFFFFFFFFFFFFFFFFF AND PUSH4 0x23B872DD CALLER ADDRESS DUP5 PUSH1 0x40 MLOAD DUP5 PUSH4 0xFFFFFFFF AND PUSH1 0xE0 SHL DUP2 MSTORE PUSH1 0x4 ADD PUSH2 0x2AC SWAP4 SWAP3 SWAP2 SWAP1 PUSH2 0x569 JUMP JUMPDEST PUSH1 0x20 PUSH1 0x40 MLOAD DUP1 DUP4 SUB DUP2 PUSH0 DUP8 GAS CALL ISZERO DUP1 ISZERO PUSH2 0x2C8 JUMPI RETURNDATASIZE PUSH0 DUP1 RETURNDATACOPY RETURNDATASIZE PUSH0 REVERT JUMPDEST POP POP POP POP PUSH1 0x40 MLOAD RETURNDATASIZE PUSH1 0x1F NOT PUSH1 0x1F DUP3 ADD AND DUP3 ADD DUP1 PUSH1 0x40 MSTORE POP DUP2 ADD SWAP1 PUSH2 0x2EC SWAP2 SWAP1 PUSH2 0x5D3 JUMP JUMPDEST POP DUP2 PUSH1 0x2 PUSH0 DUP3 DUP3 SLOAD PUSH2 0x2FE SWAP2 SWAP1 PUSH2 0x62B JUMP JUMPDEST SWAP3 POP POP DUP2 SWAP1 SSTORE POP DUP1 PUSH1 0x3 PUSH0 DUP3 DUP3 SLOAD PUSH2 0x316 SWAP2 SWAP1 PUSH2 0x62B JUMP JUMPDEST SWAP3 POP POP DUP2 SWAP1 SSTORE POP POP POP JUMP JUMPDEST PUSH1 0x3 SLOAD DUP2 JUMP JUMPDEST PUSH0 DUP1 PUSH1 0x2 SLOAD GT DUP1 ISZERO PUSH2 0x33A JUMPI POP PUSH0 PUSH1 0x3 SLOAD GT JUMPDEST PUSH2 0x379 JUMPI PUSH1 0x40 MLOAD PUSH32 0x8C379A000000000000000000000000000000000000000000000000000000000 DUP2 MSTORE PUSH1 0x4 ADD PUSH2 0x370 SWAP1 PUSH2 0x6A8 JUMP JUMPDEST PUSH1 0x40 MLOAD DUP1 SWAP2 SUB SWAP1 REVERT JUMPDEST PUSH1 0x3 SLOAD PUSH8 0xDE0B6B3A7640000 PUSH1 0x2 SLOAD PUSH2 0x392 SWAP2 SWAP1 PUSH2 0x6C6 JUMP JUMPDEST PUSH2 0x39C SWAP2 SWAP1 PUSH2 0x734 JUMP JUMPDEST SWAP1 POP SWAP1 JUMP JUMPDEST PUSH0 PUSH20 0xFFFFFFFFFFFFFFFFFFFFFFFFFFFFFFFFFFFFFFFF DUP3 AND SWAP1 POP SWAP2 SWAP1 POP JUMP JUMPDEST PUSH0 DUP2 SWAP1 POP SWAP2 SWAP1 POP JUMP JUMPDEST PUSH0 PUSH2 0x3E3 PUSH2 0x3DE PUSH2 0x3D9 DUP5 PUSH2 0x3A1 JUMP JUMPDEST PUSH2 0x3C0 JUMP JUMPDEST PUSH2 0x3A1 JUMP JUMPDEST SWAP1 POP SWAP2 SWAP1 POP JUMP JUMPDEST PUSH0 PUSH2 0x3F4 DUP3 PUSH2 0x3C9 JUMP JUMPDEST SWAP1 POP SWAP2 SWAP1 POP JUMP JUMPDEST PUSH0 PUSH2 0x405 DUP3 PUSH2 0x3EA JUMP JUMPDEST SWAP1 POP SWAP2 SWAP1 POP JUMP JUMPDEST PUSH2 0x415 DUP2 PUSH2 0x3FB JUMP JUMPDEST DUP3 MSTORE POP POP JUMP JUMPDEST PUSH0 PUSH1 0x20 DUP3 ADD SWAP1 POP PUSH2 0x42E PUSH0 DUP4 ADD DUP5 PUSH2 0x40C JUMP JUMPDEST SWAP3 SWAP2 POP POP JUMP JUMPDEST PUSH0 DUP2 SWAP1 POP SWAP2 SWAP1 POP JUMP JUMPDEST PUSH2 0x446 DUP2 PUSH2 0x434 JUMP JUMPDEST DUP3 MSTORE POP POP JUMP JUMPDEST PUSH0 PUSH1 0x20 DUP3 ADD SWAP1 POP PUSH2 0x45F PUSH0 DUP4 ADD DUP5 PUSH2 0x43D JUMP JUMPDEST SWAP3 SWAP2 POP POP JUMP JUMPDEST PUSH0 DUP1 REVERT JUMPDEST PUSH2 0x472 DUP2 PUSH2 0x434 JUMP JUMPDEST DUP2 EQ PUSH2 0x47C JUMPI PUSH0 DUP1 REVERT JUMPDEST POP JUMP JUMPDEST PUSH0 DUP2 CALLDATALOAD SWAP1 POP PUSH2 0x48D DUP2 PUSH2 0x469 JUMP JUMPDEST SWAP3 SWAP2 POP POP JUMP JUMPDEST PUSH0 DUP1 PUSH1 0x40 DUP4 DUP6 SUB SLT ISZERO PUSH2 0x4A9 JUMPI PUSH2 0x4A8 PUSH2 0x465 JUMP JUMPDEST JUMPDEST PUSH0 PUSH2 0x4B6 DUP6 DUP3 DUP7 ADD PUSH2 0x47F JUMP JUMPDEST SWAP3 POP POP PUSH1 0x20 PUSH2 0x4C7 DUP6 DUP3 DUP7 ADD PUSH2 0x47F JUMP JUMPDEST SWAP2 POP POP SWAP3 POP SWAP3 SWAP1 POP JUMP JUMPDEST PUSH0 DUP3 DUP3 MSTORE PUSH1 0x20 DUP3 ADD SWAP1 POP SWAP3 SWAP2 POP POP JUMP JUMPDEST PUSH32 0x416D6F756E7473206D7573742062652067726561746572207468616E20300000 PUSH0 DUP3 ADD MSTORE POP JUMP JUMPDEST PUSH0 PUSH2 0x515 PUSH1 0x1E DUP4 PUSH2 0x4D1 JUMP JUMPDEST SWAP2 POP PUSH2 0x520 DUP3 PUSH2 0x4E1 JUMP JUMPDEST PUSH1 0x20 DUP3 ADD SWAP1 POP SWAP2 SWAP1 POP JUMP JUMPDEST PUSH0 PUSH1 0x20 DUP3 ADD SWAP1 POP DUP2 DUP2 SUB PUSH0 DUP4 ADD MSTORE PUSH2 0x542 DUP2 PUSH2 0x509 JUMP JUMPDEST SWAP1 POP SWAP2 SWAP1 POP JUMP JUMPDEST PUSH0 PUSH2 0x553 DUP3 PUSH2 0x3A1 JUMP JUMPDEST SWAP1 POP SWAP2 SWAP1 POP JUMP JUMPDEST PUSH2 0x563 DUP2 PUSH2 0x549 JUMP JUMPDEST DUP3 MSTORE POP POP JUMP JUMPDEST PUSH0 PUSH1 0x60 DUP3 ADD SWAP1 POP PUSH2 0x57C PUSH0 DUP4 ADD DUP7 PUSH2 0x55A JUMP JUMPDEST PUSH2 0x589 PUSH1 0x20 DUP4 ADD DUP6 PUSH2 0x55A JUMP JUMPDEST PUSH2 0x596 PUSH1 0x40 DUP4 ADD DUP5 PUSH2 0x43D JUMP JUMPDEST SWAP5 SWAP4 POP POP POP POP JUMP JUMPDEST PUSH0 DUP2 ISZERO ISZERO SWAP1 POP SWAP2 SWAP1 POP JUMP JUMPDEST PUSH2 0x5B2 DUP2 PUSH2 0x59E JUMP JUMPDEST DUP2 EQ PUSH2 0x5BC JUMPI PUSH0 DUP1 REVERT JUMPDEST POP JUMP JUMPDEST PUSH0 DUP2 MLOAD SWAP1 POP PUSH2 0x5CD DUP2 PUSH2 0x5A9 JUMP JUMPDEST SWAP3 SWAP2 POP POP JUMP JUMPDEST PUSH0 PUSH1 0x20 DUP3 DUP5 SUB SLT ISZERO PUSH2 0x5E8 JUMPI PUSH2 0x5E7 PUSH2 0x465 JUMP JUMPDEST JUMPDEST PUSH0 PUSH2 0x5F5 DUP5 DUP3 DUP6 ADD PUSH2 0x5BF JUMP JUMPDEST SWAP2 POP POP SWAP3 SWAP2 POP POP JUMP JUMPDEST PUSH32 0x4E487B7100000000000000000000000000000000000000000000000000000000 PUSH0 MSTORE PUSH1 0x11 PUSH1 0x4 MSTORE PUSH1 0x24 PUSH0 REVERT JUMPDEST PUSH0 PUSH2 0x635 DUP3 PUSH2 0x434 JUMP JUMPDEST SWAP2 POP PUSH2 0x640 DUP4 PUSH2 0x434 JUMP JUMPDEST SWAP3 POP DUP3 DUP3 ADD SWAP1 POP DUP1 DUP3 GT ISZERO PUSH2 0x658 JUMPI PUSH2 0x657 PUSH2 0x5FE JUMP JUMPDEST JUMPDEST SWAP3 SWAP2 POP POP JUMP JUMPDEST PUSH32 0x506F6F6C206D7573742068617665206C69717569646974790000000000000000 PUSH0 DUP3 ADD MSTORE POP JUMP JUMPDEST PUSH0 PUSH2 0x692 PUSH1 0x18 DUP4 PUSH2 0x4D1 JUMP JUMPDEST SWAP2 POP PUSH2 0x69D DUP3 PUSH2 0x65E JUMP JUMPDEST PUSH1 0x20 DUP3 ADD SWAP1 POP SWAP2 SWAP1 POP JUMP JUMPDEST PUSH0 PUSH1 0x20 DUP3 ADD SWAP1 POP DUP2 DUP2 SUB PUSH0 DUP4 ADD MSTORE PUSH2 0x6BF DUP2 PUSH2 0x686 JUMP JUMPDEST SWAP1 POP SWAP2 SWAP1 POP JUMP JUMPDEST PUSH0 PUSH2 0x6D0 DUP3 PUSH2 0x434 JUMP JUMPDEST SWAP2 POP PUSH2 0x6DB DUP4 PUSH2 0x434 JUMP JUMPDEST SWAP3 POP DUP3 DUP3 MUL PUSH2 0x6E9 DUP2 PUSH2 0x434 JUMP JUMPDEST SWAP2 POP DUP3 DUP3 DIV DUP5 EQ DUP4 ISZERO OR PUSH2 0x700 JUMPI PUSH2 0x6FF PUSH2 0x5FE JUMP JUMPDEST JUMPDEST POP SWAP3 SWAP2 POP POP JUMP JUMPDEST PUSH32 0x4E487B7100000000000000000000000000000000000000000000000000000000 PUSH0 MSTORE PUSH1 0x12 PUSH1 0x4 MSTORE PUSH1 0x24 PUSH0 REVERT JUMPDEST PUSH0 PUSH2 0x73E DUP3 PUSH2 0x434 JUMP JUMPDEST SWAP2 POP PUSH2 0x749 DUP4 PUSH2 0x434 JUMP JUMPDEST SWAP3 POP DUP3 PUSH2 0x759 JUMPI PUSH2 0x758 PUSH2 0x707 JUMP JUMPDEST JUMPDEST DUP3 DUP3 DIV SWAP1 POP SWAP3 SWAP2 POP POP JUMP INVALID LOG2 PUSH5 0x6970667358 0x22 SLT KECCAK256 0x4E PUSH28 0x97E06B91AC491DA8E99F5043663CE00525D9D2D42E733140DCFD3CB9 0xD4 SAR PUSH5 0x736F6C6343 STOP ADDMOD BYTE STOP CALLER "
				},
				"gasEstimates": {
					"creation": {
						"codeDepositCost": "389200",
						"executionCost": "infinite",
						"totalCost": "infinite"
					},
					"external": {
						"addLiquidity(uint256,uint256)": "infinite",
						"getExchangeRate()": "infinite",
						"poolTokenA()": "2425",
						"poolTokenB()": "2491",
						"tokenA()": "infinite",
						"tokenB()": "infinite"
					}
				},
				"methodIdentifiers": {
					"addLiquidity(uint256,uint256)": "9cd441da",
					"getExchangeRate()": "e6aa216c",
					"poolTokenA()": "186d334b",
					"poolTokenB()": "a97a8ccd",
					"tokenA()": "0fc63d10",
					"tokenB()": "5f64b55b"
				}
			},
			"storageLayout": {
				"storage": [
					{
						"astId": 83,
						"contract": "trustless cross-chain/trading pair formation/AMM.sol:SimpleBalancerAMM",
						"label": "tokenA",
						"offset": 0,
						"slot": "0",
						"type": "t_contract(IERC20)77"
					},
					{
						"astId": 86,
						"contract": "trustless cross-chain/trading pair formation/AMM.sol:SimpleBalancerAMM",
						"label": "tokenB",
						"offset": 0,
						"slot": "1",
						"type": "t_contract(IERC20)77"
					},
					{
						"astId": 88,
						"contract": "trustless cross-chain/trading pair formation/AMM.sol:SimpleBalancerAMM",
						"label": "poolTokenA",
						"offset": 0,
						"slot": "2",
						"type": "t_uint256"
					},
					{
						"astId": 90,
						"contract": "trustless cross-chain/trading pair formation/AMM.sol:SimpleBalancerAMM",
						"label": "poolTokenB",
						"offset": 0,
						"slot": "3",
						"type": "t_uint256"
					}
				],
				"types": {
					"t_contract(IERC20)77": {
						"encoding": "inplace",
						"label": "contract IERC20",
						"numberOfBytes": "20"
					},
					"t_uint256": {
						"encoding": "inplace",
						"label": "uint256",
						"numberOfBytes": "32"
					}
				}
			},
			"userdoc": {
				"kind": "user",
				"methods": {},
				"version": 1
			}
		}
	}
}