{
	"trustless cross-chain/trading pair formation/Battlegame.sol": {
		"BattleGame": {
			"abi": [
				{
					"inputs": [
						{
							"internalType": "address",
							"name": "_nftAddress",
							"type": "address"
						}
					],
					"stateMutability": "nonpayable",
					"type": "constructor"
				},
				{
					"anonymous": false,
					"inputs": [
						{
							"indexed": true,
							"internalType": "address",
							"name": "previousOwner",
							"type": "address"
						},
						{
							"indexed": true,
							"internalType": "address",
							"name": "newOwner",
							"type": "address"
						}
					],
					"name": "OwnershipTransferred",
					"type": "event"
				},
				{
					"inputs": [
						{
							"internalType": "uint256",
							"name": "tokenId",
							"type": "uint256"
						}
					],
					"name": "deletePlayerData",
					"outputs": [],
					"stateMutability": "nonpayable",
					"type": "function"
				},
				{
					"inputs": [
						{
							"internalType": "uint256",
							"name": "tokenId",
							"type": "uint256"
						}
					],
					"name": "getNFTData",
					"outputs": [
						{
							"components": [
								{
									"internalType": "string",
									"name": "name",
									"type": "string"
								},
								{
									"internalType": "uint256",
									"name": "attack",
									"type": "uint256"
								},
								{
									"internalType": "uint256",
									"name": "defense",
									"type": "uint256"
								},
								{
									"internalType": "uint256",
									"name": "experience",
									"type": "uint256"
								}
							],
							"internalType": "struct BattleGame.PlayerData",
							"name": "",
							"type": "tuple"
						}
					],
					"stateMutability": "view",
					"type": "function"
				},
				{
					"inputs": [
						{
							"internalType": "uint256",
							"name": "tokenId",
							"type": "uint256"
						}
					],
					"name": "getplayerData",
					"outputs": [
						{
							"components": [
								{
									"internalType": "string",
									"name": "name",
									"type": "string"
								},
								{
									"internalType": "uint256",
									"name": "attack",
									"type": "uint256"
								},
								{
									"internalType": "uint256",
									"name": "defense",
									"type": "uint256"
								},
								{
									"internalType": "uint256",
									"name": "experience",
									"type": "uint256"
								}
							],
							"internalType": "struct BattleGame.PlayerData",
							"name": "",
							"type": "tuple"
						}
					],
					"stateMutability": "view",
					"type": "function"
				},
				{
					"inputs": [],
					"name": "nft",
					"outputs": [
						{
							"internalType": "contract IERC721",
							"name": "",
							"type": "address"
						}
					],
					"stateMutability": "view",
					"type": "function"
				},
				{
					"inputs": [],
					"name": "owner",
					"outputs": [
						{
							"internalType": "address",
							"name": "",
							"type": "address"
						}
					],
					"stateMutability": "view",
					"type": "function"
				},
				{
					"inputs": [
						{
							"internalType": "uint256",
							"name": "",
							"type": "uint256"
						}
					],
					"name": "playerData",
					"outputs": [
						{
							"internalType": "string",
							"name": "name",
							"type": "string"
						},
						{
							"internalType": "uint256",
							"name": "attack",
							"type": "uint256"
						},
						{
							"internalType": "uint256",
							"name": "defense",
							"type": "uint256"
						},
						{
							"internalType": "uint256",
							"name": "experience",
							"type": "uint256"
						}
					],
					"stateMutability": "view",
					"type": "function"
				},
				{
					"inputs": [
						{
							"internalType": "uint256[]",
							"name": "tokenIds",
							"type": "uint256[]"
						},
						{
							"internalType": "uint256",
							"name": "npcAttack",
							"type": "uint256"
						},
						{
							"internalType": "uint256",
							"name": "npcDefense",
							"type": "uint256"
						}
					],
					"name": "playerVersusNPC",
					"outputs": [],
					"stateMutability": "nonpayable",
					"type": "function"
				},
				{
					"inputs": [
						{
							"internalType": "uint256",
							"name": "tokenId1",
							"type": "uint256"
						},
						{
							"internalType": "uint256",
							"name": "tokenId2",
							"type": "uint256"
						}
					],
					"name": "playerVersusPlayer",
					"outputs": [],
					"stateMutability": "nonpayable",
					"type": "function"
				},
				{
					"inputs": [],
					"name": "renounceOwnership",
					"outputs": [],
					"stateMutability": "nonpayable",
					"type": "function"
				},
				{
					"inputs": [
						{
							"internalType": "address",
							"name": "_trustedNFTManagement",
							"type": "address"
						}
					],
					"name": "setTrustedNFTManagement",
					"outputs": [],
					"stateMutability": "nonpayable",
					"type": "function"
				},
				{
					"inputs": [
						{
							"internalType": "address",
							"name": "newOwner",
							"type": "address"
						}
					],
					"name": "transferOwnership",
					"outputs": [],
					"stateMutability": "nonpayable",
					"type": "function"
				},
				{
					"inputs": [],
					"name": "trustedNFTManagement",
					"outputs": [
						{
							"internalType": "address",
							"name": "",
							"type": "address"
						}
					],
					"stateMutability": "view",
					"type": "function"
				}
			],
			"devdoc": {
				"kind": "dev",
				"methods": {
					"owner()": {
						"details": "Returns the address of the current owner."
					},
					"renounceOwnership()": {
						"details": "Leaves the contract without owner. It will not be possible to call `onlyOwner` functions anymore. Can only be called by the current owner. NOTE: Renouncing ownership will leave the contract without an owner, thereby removing any functionality that is only available to the owner."
					},
					"transferOwnership(address)": {
						"details": "Transfers ownership of the contract to a new account (`newOwner`). Can only be called by the current owner."
					}
				},
				"version": 1
			},
			"evm": {
				"assembly": "    /* \"trustless cross-chain/trading pair formation/Battlegame.sol\":138:3443  contract BattleGame is Ownable {... */\n  mstore(0x40, 0x80)\n    /* \"trustless cross-chain/trading pair formation/Battlegame.sol\":519:595  constructor(address _nftAddress) {... */\n  callvalue\n  dup1\n  iszero\n  tag_1\n  jumpi\n  0x00\n  dup1\n  revert\ntag_1:\n  pop\n  mload(0x40)\n  sub(codesize, bytecodeSize)\n  dup1\n  bytecodeSize\n  dup4\n  codecopy\n  dup2\n  dup2\n  add\n  0x40\n  mstore\n  dup2\n  add\n  swap1\n  tag_2\n  swap2\n  swap1\n  tag_3\n  jump\t// in\ntag_2:\n    /* \"@openzeppelin/contracts/access/Ownable.sol\":936:968  _transferOwnership(_msgSender()) */\n  tag_7\n    /* \"@openzeppelin/contracts/access/Ownable.sol\":955:967  _msgSender() */\n  tag_8\n    /* \"@openzeppelin/contracts/access/Ownable.sol\":955:965  _msgSender */\n  shl(0x20, tag_9)\n    /* \"@openzeppelin/contracts/access/Ownable.sol\":955:967  _msgSender() */\n  0x20\n  shr\n  jump\t// in\ntag_8:\n    /* \"@openzeppelin/contracts/access/Ownable.sol\":936:954  _transferOwnership */\n  shl(0x20, tag_10)\n    /* \"@openzeppelin/contracts/access/Ownable.sol\":936:968  _transferOwnership(_msgSender()) */\n  0x20\n  shr\n  jump\t// in\ntag_7:\n    /* \"trustless cross-chain/trading pair formation/Battlegame.sol\":576:587  _nftAddress */\n  dup1\n    /* \"trustless cross-chain/trading pair formation/Battlegame.sol\":562:565  nft */\n  0x01\n  0x00\n    /* \"trustless cross-chain/trading pair formation/Battlegame.sol\":562:588  nft = IERC721(_nftAddress) */\n  0x0100\n  exp\n  dup2\n  sload\n  dup2\n  0xffffffffffffffffffffffffffffffffffffffff\n  mul\n  not\n  and\n  swap1\n  dup4\n  0xffffffffffffffffffffffffffffffffffffffff\n  and\n  mul\n  or\n  swap1\n  sstore\n  pop\n    /* \"trustless cross-chain/trading pair formation/Battlegame.sol\":519:595  constructor(address _nftAddress) {... */\n  pop\n    /* \"trustless cross-chain/trading pair formation/Battlegame.sol\":138:3443  contract BattleGame is Ownable {... */\n  jump(tag_12)\n    /* \"@openzeppelin/contracts/utils/Context.sol\":640:736  function _msgSender() internal view virtual returns (address) {... */\ntag_9:\n    /* \"@openzeppelin/contracts/utils/Context.sol\":693:700  address */\n  0x00\n    /* \"@openzeppelin/contracts/utils/Context.sol\":719:729  msg.sender */\n  caller\n    /* \"@openzeppelin/contracts/utils/Context.sol\":712:729  return msg.sender */\n  swap1\n  pop\n    /* \"@openzeppelin/contracts/utils/Context.sol\":640:736  function _msgSender() internal view virtual returns (address) {... */\n  swap1\n  jump\t// out\n    /* \"@openzeppelin/contracts/access/Ownable.sol\":2433:2620  function _transferOwnership(address newOwner) internal virtual {... */\ntag_10:\n    /* \"@openzeppelin/contracts/access/Ownable.sol\":2506:2522  address oldOwner */\n  0x00\n    /* \"@openzeppelin/contracts/access/Ownable.sol\":2525:2531  _owner */\n  dup1\n  0x00\n  swap1\n  sload\n  swap1\n  0x0100\n  exp\n  swap1\n  div\n  0xffffffffffffffffffffffffffffffffffffffff\n  and\n    /* \"@openzeppelin/contracts/access/Ownable.sol\":2506:2531  address oldOwner = _owner */\n  swap1\n  pop\n    /* \"@openzeppelin/contracts/access/Ownable.sol\":2550:2558  newOwner */\n  dup2\n    /* \"@openzeppelin/contracts/access/Ownable.sol\":2541:2547  _owner */\n  0x00\n  dup1\n    /* \"@openzeppelin/contracts/access/Ownable.sol\":2541:2558  _owner = newOwner */\n  0x0100\n  exp\n  dup2\n  sload\n  dup2\n  0xffffffffffffffffffffffffffffffffffffffff\n  mul\n  not\n  and\n  swap1\n  dup4\n  0xffffffffffffffffffffffffffffffffffffffff\n  and\n  mul\n  or\n  swap1\n  sstore\n  pop\n    /* \"@openzeppelin/contracts/access/Ownable.sol\":2604:2612  newOwner */\n  dup2\n    /* \"@openzeppelin/contracts/access/Ownable.sol\":2573:2613  OwnershipTransferred(oldOwner, newOwner) */\n  0xffffffffffffffffffffffffffffffffffffffff\n  and\n    /* \"@openzeppelin/contracts/access/Ownable.sol\":2594:2602  oldOwner */\n  dup2\n    /* \"@openzeppelin/contracts/access/Ownable.sol\":2573:2613  OwnershipTransferred(oldOwner, newOwner) */\n  0xffffffffffffffffffffffffffffffffffffffff\n  and\n  0x8be0079c531659141344cd1fd0a4f28419497f9722a3daafe3b4186f6b6457e0\n  mload(0x40)\n  mload(0x40)\n  dup1\n  swap2\n  sub\n  swap1\n  log3\n    /* \"@openzeppelin/contracts/access/Ownable.sol\":2496:2620  {... */\n  pop\n    /* \"@openzeppelin/contracts/access/Ownable.sol\":2433:2620  function _transferOwnership(address newOwner) internal virtual {... */\n  pop\n  jump\t// out\n    /* \"#utility.yul\":88:205   */\ntag_16:\n    /* \"#utility.yul\":197:198   */\n  0x00\n    /* \"#utility.yul\":194:195   */\n  dup1\n    /* \"#utility.yul\":187:199   */\n  revert\n    /* \"#utility.yul\":334:460   */\ntag_18:\n    /* \"#utility.yul\":371:378   */\n  0x00\n    /* \"#utility.yul\":411:453   */\n  0xffffffffffffffffffffffffffffffffffffffff\n    /* \"#utility.yul\":404:409   */\n  dup3\n    /* \"#utility.yul\":400:454   */\n  and\n    /* \"#utility.yul\":389:454   */\n  swap1\n  pop\n    /* \"#utility.yul\":334:460   */\n  swap2\n  swap1\n  pop\n  jump\t// out\n    /* \"#utility.yul\":466:562   */\ntag_19:\n    /* \"#utility.yul\":503:510   */\n  0x00\n    /* \"#utility.yul\":532:556   */\n  tag_28\n    /* \"#utility.yul\":550:555   */\n  dup3\n    /* \"#utility.yul\":532:556   */\n  tag_18\n  jump\t// in\ntag_28:\n    /* \"#utility.yul\":521:556   */\n  swap1\n  pop\n    /* \"#utility.yul\":466:562   */\n  swap2\n  swap1\n  pop\n  jump\t// out\n    /* \"#utility.yul\":568:690   */\ntag_20:\n    /* \"#utility.yul\":641:665   */\n  tag_30\n    /* \"#utility.yul\":659:664   */\n  dup2\n    /* \"#utility.yul\":641:665   */\n  tag_19\n  jump\t// in\ntag_30:\n    /* \"#utility.yul\":634:639   */\n  dup2\n    /* \"#utility.yul\":631:666   */\n  eq\n    /* \"#utility.yul\":621:684   */\n  tag_31\n  jumpi\n    /* \"#utility.yul\":680:681   */\n  0x00\n    /* \"#utility.yul\":677:678   */\n  dup1\n    /* \"#utility.yul\":670:682   */\n  revert\n    /* \"#utility.yul\":621:684   */\ntag_31:\n    /* \"#utility.yul\":568:690   */\n  pop\n  jump\t// out\n    /* \"#utility.yul\":696:839   */\ntag_21:\n    /* \"#utility.yul\":753:758   */\n  0x00\n    /* \"#utility.yul\":784:790   */\n  dup2\n    /* \"#utility.yul\":778:791   */\n  mload\n    /* \"#utility.yul\":769:791   */\n  swap1\n  pop\n    /* \"#utility.yul\":800:833   */\n  tag_33\n    /* \"#utility.yul\":827:832   */\n  dup2\n    /* \"#utility.yul\":800:833   */\n  tag_20\n  jump\t// in\ntag_33:\n    /* \"#utility.yul\":696:839   */\n  swap3\n  swap2\n  pop\n  pop\n  jump\t// out\n    /* \"#utility.yul\":845:1196   */\ntag_3:\n    /* \"#utility.yul\":915:921   */\n  0x00\n    /* \"#utility.yul\":964:966   */\n  0x20\n    /* \"#utility.yul\":952:961   */\n  dup3\n    /* \"#utility.yul\":943:950   */\n  dup5\n    /* \"#utility.yul\":939:962   */\n  sub\n    /* \"#utility.yul\":935:967   */\n  slt\n    /* \"#utility.yul\":932:1051   */\n  iszero\n  tag_35\n  jumpi\n    /* \"#utility.yul\":970:1049   */\n  tag_36\n  tag_16\n  jump\t// in\ntag_36:\n    /* \"#utility.yul\":932:1051   */\ntag_35:\n    /* \"#utility.yul\":1090:1091   */\n  0x00\n    /* \"#utility.yul\":1115:1179   */\n  tag_37\n    /* \"#utility.yul\":1171:1178   */\n  dup5\n    /* \"#utility.yul\":1162:1168   */\n  dup3\n    /* \"#utility.yul\":1151:1160   */\n  dup6\n    /* \"#utility.yul\":1147:1169   */\n  add\n    /* \"#utility.yul\":1115:1179   */\n  tag_21\n  jump\t// in\ntag_37:\n    /* \"#utility.yul\":1105:1179   */\n  swap2\n  pop\n    /* \"#utility.yul\":1061:1189   */\n  pop\n    /* \"#utility.yul\":845:1196   */\n  swap3\n  swap2\n  pop\n  pop\n  jump\t// out\n    /* \"trustless cross-chain/trading pair formation/Battlegame.sol\":138:3443  contract BattleGame is Ownable {... */\ntag_12:\n  dataSize(sub_0)\n  dup1\n  dataOffset(sub_0)\n  0x00\n  codecopy\n  0x00\n  return\nstop\n\nsub_0: assembly {\n        /* \"trustless cross-chain/trading pair formation/Battlegame.sol\":138:3443  contract BattleGame is Ownable {... */\n      mstore(0x40, 0x80)\n      callvalue\n      dup1\n      iszero\n      tag_1\n      jumpi\n      0x00\n      dup1\n      revert\n    tag_1:\n      pop\n      jumpi(tag_2, lt(calldatasize, 0x04))\n      shr(0xe0, calldataload(0x00))\n      dup1\n      0x715018a6\n      gt\n      tag_15\n      jumpi\n      dup1\n      0x715018a6\n      eq\n      tag_9\n      jumpi\n      dup1\n      0x8da5cb5b\n      eq\n      tag_10\n      jumpi\n      dup1\n      0xb67836f8\n      eq\n      tag_11\n      jumpi\n      dup1\n      0xd7b8d485\n      eq\n      tag_12\n      jumpi\n      dup1\n      0xe00974ff\n      eq\n      tag_13\n      jumpi\n      dup1\n      0xf2fde38b\n      eq\n      tag_14\n      jumpi\n      jump(tag_2)\n    tag_15:\n      dup1\n      0x0ad4c4f4\n      eq\n      tag_3\n      jumpi\n      dup1\n      0x0aec4ed1\n      eq\n      tag_4\n      jumpi\n      dup1\n      0x25cab809\n      eq\n      tag_5\n      jumpi\n      dup1\n      0x38a2c0a3\n      eq\n      tag_6\n      jumpi\n      dup1\n      0x47ccca02\n      eq\n      tag_7\n      jumpi\n      dup1\n      0x5f52789b\n      eq\n      tag_8\n      jumpi\n    tag_2:\n      0x00\n      dup1\n      revert\n        /* \"trustless cross-chain/trading pair formation/Battlegame.sol\":2710:2907  function getNFTData(uint256 tokenId) external view returns (PlayerData memory) {... */\n    tag_3:\n      tag_16\n      0x04\n      dup1\n      calldatasize\n      sub\n      dup2\n      add\n      swap1\n      tag_17\n      swap2\n      swap1\n      tag_18\n      jump\t// in\n    tag_17:\n      tag_19\n      jump\t// in\n    tag_16:\n      mload(0x40)\n      tag_20\n      swap2\n      swap1\n      tag_21\n      jump\t// in\n    tag_20:\n      mload(0x40)\n      dup1\n      swap2\n      sub\n      swap1\n      return\n        /* \"trustless cross-chain/trading pair formation/Battlegame.sol\":464:512  mapping(uint256 => PlayerData) public playerData */\n    tag_4:\n      tag_22\n      0x04\n      dup1\n      calldatasize\n      sub\n      dup2\n      add\n      swap1\n      tag_23\n      swap2\n      swap1\n      tag_18\n      jump\t// in\n    tag_23:\n      tag_24\n      jump\t// in\n    tag_22:\n      mload(0x40)\n      tag_25\n      swap5\n      swap4\n      swap3\n      swap2\n      swap1\n      tag_26\n      jump\t// in\n    tag_25:\n      mload(0x40)\n      dup1\n      swap2\n      sub\n      swap1\n      return\n        /* \"trustless cross-chain/trading pair formation/Battlegame.sol\":3176:3320  function setTrustedNFTManagement(address _trustedNFTManagement) external onlyOwner {... */\n    tag_5:\n      tag_27\n      0x04\n      dup1\n      calldatasize\n      sub\n      dup2\n      add\n      swap1\n      tag_28\n      swap2\n      swap1\n      tag_29\n      jump\t// in\n    tag_28:\n      tag_30\n      jump\t// in\n    tag_27:\n      stop\n        /* \"trustless cross-chain/trading pair formation/Battlegame.sol\":1809:2704  function playerVersusNPC(uint256[] memory tokenIds, uint256 npcAttack, uint256 npcDefense) public {... */\n    tag_6:\n      tag_31\n      0x04\n      dup1\n      calldatasize\n      sub\n      dup2\n      add\n      swap1\n      tag_32\n      swap2\n      swap1\n      tag_33\n      jump\t// in\n    tag_32:\n      tag_34\n      jump\t// in\n    tag_31:\n      stop\n        /* \"trustless cross-chain/trading pair formation/Battlegame.sol\":176:194  IERC721 public nft */\n    tag_7:\n      tag_35\n      tag_36\n      jump\t// in\n    tag_35:\n      mload(0x40)\n      tag_37\n      swap2\n      swap1\n      tag_38\n      jump\t// in\n    tag_37:\n      mload(0x40)\n      dup1\n      swap2\n      sub\n      swap1\n      return\n        /* \"trustless cross-chain/trading pair formation/Battlegame.sol\":3325:3440  function getplayerData(uint256 tokenId) public view returns (PlayerData memory) {... */\n    tag_8:\n      tag_39\n      0x04\n      dup1\n      calldatasize\n      sub\n      dup2\n      add\n      swap1\n      tag_40\n      swap2\n      swap1\n      tag_18\n      jump\t// in\n    tag_40:\n      tag_41\n      jump\t// in\n    tag_39:\n      mload(0x40)\n      tag_42\n      swap2\n      swap1\n      tag_21\n      jump\t// in\n    tag_42:\n      mload(0x40)\n      dup1\n      swap2\n      sub\n      swap1\n      return\n        /* \"@openzeppelin/contracts/access/Ownable.sol\":1831:1932  function renounceOwnership() public virtual onlyOwner {... */\n    tag_9:\n      tag_43\n      tag_44\n      jump\t// in\n    tag_43:\n      stop\n        /* \"@openzeppelin/contracts/access/Ownable.sol\":1201:1286  function owner() public view virtual returns (address) {... */\n    tag_10:\n      tag_45\n      tag_46\n      jump\t// in\n    tag_45:\n      mload(0x40)\n      tag_47\n      swap2\n      swap1\n      tag_48\n      jump\t// in\n    tag_47:\n      mload(0x40)\n      dup1\n      swap2\n      sub\n      swap1\n      return\n        /* \"trustless cross-chain/trading pair formation/Battlegame.sol\":777:1803  function playerVersusPlayer(uint256 tokenId1, uint256 tokenId2) public {... */\n    tag_11:\n      tag_49\n      0x04\n      dup1\n      calldatasize\n      sub\n      dup2\n      add\n      swap1\n      tag_50\n      swap2\n      swap1\n      tag_51\n      jump\t// in\n    tag_50:\n      tag_52\n      jump\t// in\n    tag_49:\n      stop\n        /* \"trustless cross-chain/trading pair formation/Battlegame.sol\":2912:3126  function deletePlayerData(uint256 tokenId) external {... */\n    tag_12:\n      tag_53\n      0x04\n      dup1\n      calldatasize\n      sub\n      dup2\n      add\n      swap1\n      tag_54\n      swap2\n      swap1\n      tag_18\n      jump\t// in\n    tag_54:\n      tag_55\n      jump\t// in\n    tag_53:\n      stop\n        /* \"trustless cross-chain/trading pair formation/Battlegame.sol\":200:235  address public trustedNFTManagement */\n    tag_13:\n      tag_56\n      tag_57\n      jump\t// in\n    tag_56:\n      mload(0x40)\n      tag_58\n      swap2\n      swap1\n      tag_48\n      jump\t// in\n    tag_58:\n      mload(0x40)\n      dup1\n      swap2\n      sub\n      swap1\n      return\n        /* \"@openzeppelin/contracts/access/Ownable.sol\":2081:2279  function transferOwnership(address newOwner) public virtual onlyOwner {... */\n    tag_14:\n      tag_59\n      0x04\n      dup1\n      calldatasize\n      sub\n      dup2\n      add\n      swap1\n      tag_60\n      swap2\n      swap1\n      tag_29\n      jump\t// in\n    tag_60:\n      tag_61\n      jump\t// in\n    tag_59:\n      stop\n        /* \"trustless cross-chain/trading pair formation/Battlegame.sol\":2710:2907  function getNFTData(uint256 tokenId) external view returns (PlayerData memory) {... */\n    tag_19:\n        /* \"trustless cross-chain/trading pair formation/Battlegame.sol\":2770:2787  PlayerData memory */\n      tag_62\n      tag_63\n      jump\t// in\n    tag_62:\n        /* \"trustless cross-chain/trading pair formation/Battlegame.sol\":2839:2840  0 */\n      0x00\n        /* \"trustless cross-chain/trading pair formation/Battlegame.sol\":2807:2841  nft.ownerOf(tokenId) != address(0) */\n      0xffffffffffffffffffffffffffffffffffffffff\n      and\n        /* \"trustless cross-chain/trading pair formation/Battlegame.sol\":2807:2810  nft */\n      0x01\n      0x00\n      swap1\n      sload\n      swap1\n      0x0100\n      exp\n      swap1\n      div\n      0xffffffffffffffffffffffffffffffffffffffff\n      and\n        /* \"trustless cross-chain/trading pair formation/Battlegame.sol\":2807:2818  nft.ownerOf */\n      0xffffffffffffffffffffffffffffffffffffffff\n      and\n      0x6352211e\n        /* \"trustless cross-chain/trading pair formation/Battlegame.sol\":2819:2826  tokenId */\n      dup5\n        /* \"trustless cross-chain/trading pair formation/Battlegame.sol\":2807:2827  nft.ownerOf(tokenId) */\n      mload(0x40)\n      dup3\n      0xffffffff\n      and\n      0xe0\n      shl\n      dup2\n      mstore\n      0x04\n      add\n      tag_65\n      swap2\n      swap1\n      tag_66\n      jump\t// in\n    tag_65:\n      0x20\n      mload(0x40)\n      dup1\n      dup4\n      sub\n      dup2\n      dup7\n      gas\n      staticcall\n      iszero\n      dup1\n      iszero\n      tag_68\n      jumpi\n      returndatasize\n      0x00\n      dup1\n      returndatacopy\n      revert(0x00, returndatasize)\n    tag_68:\n      pop\n      pop\n      pop\n      pop\n      mload(0x40)\n      returndatasize\n      not(0x1f)\n      0x1f\n      dup3\n      add\n      and\n      dup3\n      add\n      dup1\n      0x40\n      mstore\n      pop\n      dup2\n      add\n      swap1\n      tag_69\n      swap2\n      swap1\n      tag_70\n      jump\t// in\n    tag_69:\n        /* \"trustless cross-chain/trading pair formation/Battlegame.sol\":2807:2841  nft.ownerOf(tokenId) != address(0) */\n      0xffffffffffffffffffffffffffffffffffffffff\n      and\n      sub\n        /* \"trustless cross-chain/trading pair formation/Battlegame.sol\":2799:2864  require(nft.ownerOf(tokenId) != address(0), \"NFT does not exist\") */\n      tag_71\n      jumpi\n      mload(0x40)\n      0x08c379a000000000000000000000000000000000000000000000000000000000\n      dup2\n      mstore\n      0x04\n      add\n      tag_72\n      swap1\n      tag_73\n      jump\t// in\n    tag_72:\n      mload(0x40)\n      dup1\n      swap2\n      sub\n      swap1\n      revert\n    tag_71:\n        /* \"trustless cross-chain/trading pair formation/Battlegame.sol\":2881:2891  playerData */\n      0x03\n        /* \"trustless cross-chain/trading pair formation/Battlegame.sol\":2881:2900  playerData[tokenId] */\n      0x00\n        /* \"trustless cross-chain/trading pair formation/Battlegame.sol\":2892:2899  tokenId */\n      dup4\n        /* \"trustless cross-chain/trading pair formation/Battlegame.sol\":2881:2900  playerData[tokenId] */\n      dup2\n      mstore\n      0x20\n      add\n      swap1\n      dup2\n      mstore\n      0x20\n      add\n      0x00\n      keccak256\n        /* \"trustless cross-chain/trading pair formation/Battlegame.sol\":2874:2900  return playerData[tokenId] */\n      mload(0x40)\n      dup1\n      0x80\n      add\n      0x40\n      mstore\n      swap1\n      dup2\n      0x00\n      dup3\n      add\n      dup1\n      sload\n      tag_74\n      swap1\n      tag_75\n      jump\t// in\n    tag_74:\n      dup1\n      0x1f\n      add\n      0x20\n      dup1\n      swap2\n      div\n      mul\n      0x20\n      add\n      mload(0x40)\n      swap1\n      dup2\n      add\n      0x40\n      mstore\n      dup1\n      swap3\n      swap2\n      swap1\n      dup2\n      dup2\n      mstore\n      0x20\n      add\n      dup3\n      dup1\n      sload\n      tag_76\n      swap1\n      tag_75\n      jump\t// in\n    tag_76:\n      dup1\n      iszero\n      tag_77\n      jumpi\n      dup1\n      0x1f\n      lt\n      tag_78\n      jumpi\n      0x0100\n      dup1\n      dup4\n      sload\n      div\n      mul\n      dup4\n      mstore\n      swap2\n      0x20\n      add\n      swap2\n      jump(tag_77)\n    tag_78:\n      dup3\n      add\n      swap2\n      swap1\n      0x00\n      mstore\n      keccak256(0x00, 0x20)\n      swap1\n    tag_79:\n      dup2\n      sload\n      dup2\n      mstore\n      swap1\n      0x01\n      add\n      swap1\n      0x20\n      add\n      dup1\n      dup4\n      gt\n      tag_79\n      jumpi\n      dup3\n      swap1\n      sub\n      0x1f\n      and\n      dup3\n      add\n      swap2\n    tag_77:\n      pop\n      pop\n      pop\n      pop\n      pop\n      dup2\n      mstore\n      0x20\n      add\n      0x01\n      dup3\n      add\n      sload\n      dup2\n      mstore\n      0x20\n      add\n      0x02\n      dup3\n      add\n      sload\n      dup2\n      mstore\n      0x20\n      add\n      0x03\n      dup3\n      add\n      sload\n      dup2\n      mstore\n      pop\n      pop\n      swap1\n      pop\n        /* \"trustless cross-chain/trading pair formation/Battlegame.sol\":2710:2907  function getNFTData(uint256 tokenId) external view returns (PlayerData memory) {... */\n      swap2\n      swap1\n      pop\n      jump\t// out\n        /* \"trustless cross-chain/trading pair formation/Battlegame.sol\":464:512  mapping(uint256 => PlayerData) public playerData */\n    tag_24:\n      mstore(0x20, 0x03)\n      dup1\n      0x00\n      mstore\n      keccak256(0x00, 0x40)\n      0x00\n      swap2\n      pop\n      swap1\n      pop\n      dup1\n      0x00\n      add\n      dup1\n      sload\n      tag_80\n      swap1\n      tag_75\n      jump\t// in\n    tag_80:\n      dup1\n      0x1f\n      add\n      0x20\n      dup1\n      swap2\n      div\n      mul\n      0x20\n      add\n      mload(0x40)\n      swap1\n      dup2\n      add\n      0x40\n      mstore\n      dup1\n      swap3\n      swap2\n      swap1\n      dup2\n      dup2\n      mstore\n      0x20\n      add\n      dup3\n      dup1\n      sload\n      tag_81\n      swap1\n      tag_75\n      jump\t// in\n    tag_81:\n      dup1\n      iszero\n      tag_82\n      jumpi\n      dup1\n      0x1f\n      lt\n      tag_83\n      jumpi\n      0x0100\n      dup1\n      dup4\n      sload\n      div\n      mul\n      dup4\n      mstore\n      swap2\n      0x20\n      add\n      swap2\n      jump(tag_82)\n    tag_83:\n      dup3\n      add\n      swap2\n      swap1\n      0x00\n      mstore\n      keccak256(0x00, 0x20)\n      swap1\n    tag_84:\n      dup2\n      sload\n      dup2\n      mstore\n      swap1\n      0x01\n      add\n      swap1\n      0x20\n      add\n      dup1\n      dup4\n      gt\n      tag_84\n      jumpi\n      dup3\n      swap1\n      sub\n      0x1f\n      and\n      dup3\n      add\n      swap2\n    tag_82:\n      pop\n      pop\n      pop\n      pop\n      pop\n      swap1\n      dup1\n      0x01\n      add\n      sload\n      swap1\n      dup1\n      0x02\n      add\n      sload\n      swap1\n      dup1\n      0x03\n      add\n      sload\n      swap1\n      pop\n      dup5\n      jump\t// out\n        /* \"trustless cross-chain/trading pair formation/Battlegame.sol\":3176:3320  function setTrustedNFTManagement(address _trustedNFTManagement) external onlyOwner {... */\n    tag_30:\n        /* \"@openzeppelin/contracts/access/Ownable.sol\":1094:1107  _checkOwner() */\n      tag_86\n        /* \"@openzeppelin/contracts/access/Ownable.sol\":1094:1105  _checkOwner */\n      tag_87\n        /* \"@openzeppelin/contracts/access/Ownable.sol\":1094:1107  _checkOwner() */\n      jump\t// in\n    tag_86:\n        /* \"trustless cross-chain/trading pair formation/Battlegame.sol\":3292:3313  _trustedNFTManagement */\n      dup1\n        /* \"trustless cross-chain/trading pair formation/Battlegame.sol\":3269:3289  trustedNFTManagement */\n      0x02\n      0x00\n        /* \"trustless cross-chain/trading pair formation/Battlegame.sol\":3269:3313  trustedNFTManagement = _trustedNFTManagement */\n      0x0100\n      exp\n      dup2\n      sload\n      dup2\n      0xffffffffffffffffffffffffffffffffffffffff\n      mul\n      not\n      and\n      swap1\n      dup4\n      0xffffffffffffffffffffffffffffffffffffffff\n      and\n      mul\n      or\n      swap1\n      sstore\n      pop\n        /* \"trustless cross-chain/trading pair formation/Battlegame.sol\":3176:3320  function setTrustedNFTManagement(address _trustedNFTManagement) external onlyOwner {... */\n      pop\n      jump\t// out\n        /* \"trustless cross-chain/trading pair formation/Battlegame.sol\":1809:2704  function playerVersusNPC(uint256[] memory tokenIds, uint256 npcAttack, uint256 npcDefense) public {... */\n    tag_34:\n        /* \"trustless cross-chain/trading pair formation/Battlegame.sol\":1917:1926  uint256 p */\n      0x00\n        /* \"trustless cross-chain/trading pair formation/Battlegame.sol\":1929:1937  tokenIds */\n      dup4\n        /* \"trustless cross-chain/trading pair formation/Battlegame.sol\":1929:1944  tokenIds.length */\n      mload\n        /* \"trustless cross-chain/trading pair formation/Battlegame.sol\":1917:1944  uint256 p = tokenIds.length */\n      swap1\n      pop\n        /* \"trustless cross-chain/trading pair formation/Battlegame.sol\":1954:1964  uint256 r1 */\n      0x00\n        /* \"trustless cross-chain/trading pair formation/Battlegame.sol\":1967:1975  random() */\n      tag_90\n        /* \"trustless cross-chain/trading pair formation/Battlegame.sol\":1967:1973  random */\n      tag_91\n        /* \"trustless cross-chain/trading pair formation/Battlegame.sol\":1967:1975  random() */\n      jump\t// in\n    tag_90:\n        /* \"trustless cross-chain/trading pair formation/Battlegame.sol\":1954:1975  uint256 r1 = random() */\n      swap1\n      pop\n        /* \"trustless cross-chain/trading pair formation/Battlegame.sol\":1985:1995  uint256 r2 */\n      0x00\n        /* \"trustless cross-chain/trading pair formation/Battlegame.sol\":1998:2006  random() */\n      tag_92\n        /* \"trustless cross-chain/trading pair formation/Battlegame.sol\":1998:2004  random */\n      tag_91\n        /* \"trustless cross-chain/trading pair formation/Battlegame.sol\":1998:2006  random() */\n      jump\t// in\n    tag_92:\n        /* \"trustless cross-chain/trading pair formation/Battlegame.sol\":1985:2006  uint256 r2 = random() */\n      swap1\n      pop\n        /* \"trustless cross-chain/trading pair formation/Battlegame.sol\":2017:2025  int256 s */\n      0x00\n        /* \"trustless cross-chain/trading pair formation/Battlegame.sol\":2044:2053  uint256 i */\n      dup1\n        /* \"trustless cross-chain/trading pair formation/Battlegame.sol\":2039:2231  for (uint256 i = 0; i < p; i++) {... */\n    tag_93:\n        /* \"trustless cross-chain/trading pair formation/Battlegame.sol\":2063:2064  p */\n      dup5\n        /* \"trustless cross-chain/trading pair formation/Battlegame.sol\":2059:2060  i */\n      dup2\n        /* \"trustless cross-chain/trading pair formation/Battlegame.sol\":2059:2064  i < p */\n      lt\n        /* \"trustless cross-chain/trading pair formation/Battlegame.sol\":2039:2231  for (uint256 i = 0; i < p; i++) {... */\n      iszero\n      tag_94\n      jumpi\n        /* \"trustless cross-chain/trading pair formation/Battlegame.sol\":2085:2110  PlayerData storage player */\n      0x00\n        /* \"trustless cross-chain/trading pair formation/Battlegame.sol\":2113:2123  playerData */\n      0x03\n        /* \"trustless cross-chain/trading pair formation/Battlegame.sol\":2113:2136  playerData[tokenIds[i]] */\n      0x00\n        /* \"trustless cross-chain/trading pair formation/Battlegame.sol\":2124:2132  tokenIds */\n      dup11\n        /* \"trustless cross-chain/trading pair formation/Battlegame.sol\":2133:2134  i */\n      dup5\n        /* \"trustless cross-chain/trading pair formation/Battlegame.sol\":2124:2135  tokenIds[i] */\n      dup2\n      mload\n      dup2\n      lt\n      tag_96\n      jumpi\n      tag_97\n      tag_98\n      jump\t// in\n    tag_97:\n    tag_96:\n      0x20\n      mul\n      0x20\n      add\n      add\n      mload\n        /* \"trustless cross-chain/trading pair formation/Battlegame.sol\":2113:2136  playerData[tokenIds[i]] */\n      dup2\n      mstore\n      0x20\n      add\n      swap1\n      dup2\n      mstore\n      0x20\n      add\n      0x00\n      keccak256\n        /* \"trustless cross-chain/trading pair formation/Battlegame.sol\":2085:2136  PlayerData storage player = playerData[tokenIds[i]] */\n      swap1\n      pop\n        /* \"trustless cross-chain/trading pair formation/Battlegame.sol\":2217:2219  r1 */\n      dup5\n        /* \"trustless cross-chain/trading pair formation/Battlegame.sol\":2196:2202  player */\n      dup2\n        /* \"trustless cross-chain/trading pair formation/Battlegame.sol\":2196:2213  player.experience */\n      0x03\n      add\n      sload\n        /* \"trustless cross-chain/trading pair formation/Battlegame.sol\":2179:2185  player */\n      dup3\n        /* \"trustless cross-chain/trading pair formation/Battlegame.sol\":2179:2193  player.defense */\n      0x02\n      add\n      sload\n        /* \"trustless cross-chain/trading pair formation/Battlegame.sol\":2163:2169  player */\n      dup4\n        /* \"trustless cross-chain/trading pair formation/Battlegame.sol\":2163:2176  player.attack */\n      0x01\n      add\n      sload\n        /* \"trustless cross-chain/trading pair formation/Battlegame.sol\":2163:2193  player.attack + player.defense */\n      tag_99\n      swap2\n      swap1\n      tag_100\n      jump\t// in\n    tag_99:\n        /* \"trustless cross-chain/trading pair formation/Battlegame.sol\":2163:2213  player.attack + player.defense + player.experience */\n      tag_101\n      swap2\n      swap1\n      tag_100\n      jump\t// in\n    tag_101:\n        /* \"trustless cross-chain/trading pair formation/Battlegame.sol\":2162:2219  (player.attack + player.defense + player.experience) * r1 */\n      tag_102\n      swap2\n      swap1\n      tag_103\n      jump\t// in\n    tag_102:\n        /* \"trustless cross-chain/trading pair formation/Battlegame.sol\":2150:2220  s += int256((player.attack + player.defense + player.experience) * r1) */\n      dup4\n      tag_104\n      swap2\n      swap1\n      tag_105\n      jump\t// in\n    tag_104:\n      swap3\n      pop\n        /* \"trustless cross-chain/trading pair formation/Battlegame.sol\":2071:2231  {... */\n      pop\n        /* \"trustless cross-chain/trading pair formation/Battlegame.sol\":2066:2069  i++ */\n      dup1\n      dup1\n      tag_106\n      swap1\n      tag_107\n      jump\t// in\n    tag_106:\n      swap2\n      pop\n      pop\n        /* \"trustless cross-chain/trading pair formation/Battlegame.sol\":2039:2231  for (uint256 i = 0; i < p; i++) {... */\n      jump(tag_93)\n    tag_94:\n      pop\n        /* \"trustless cross-chain/trading pair formation/Battlegame.sol\":2279:2281  r2 */\n      dup2\n        /* \"trustless cross-chain/trading pair formation/Battlegame.sol\":2265:2275  npcDefense */\n      dup6\n        /* \"trustless cross-chain/trading pair formation/Battlegame.sol\":2253:2262  npcAttack */\n      dup8\n        /* \"trustless cross-chain/trading pair formation/Battlegame.sol\":2253:2275  npcAttack + npcDefense */\n      tag_108\n      swap2\n      swap1\n      tag_100\n      jump\t// in\n    tag_108:\n        /* \"trustless cross-chain/trading pair formation/Battlegame.sol\":2252:2281  (npcAttack + npcDefense) * r2 */\n      tag_109\n      swap2\n      swap1\n      tag_103\n      jump\t// in\n    tag_109:\n        /* \"trustless cross-chain/trading pair formation/Battlegame.sol\":2240:2282  s -= int256((npcAttack + npcDefense) * r2) */\n      dup2\n      tag_110\n      swap2\n      swap1\n      tag_111\n      jump\t// in\n    tag_110:\n      swap1\n      pop\n        /* \"trustless cross-chain/trading pair formation/Battlegame.sol\":2298:2307  uint256 i */\n      0x00\n        /* \"trustless cross-chain/trading pair formation/Battlegame.sol\":2293:2698  for (uint256 i = 0; i < p; i++) {... */\n    tag_112:\n        /* \"trustless cross-chain/trading pair formation/Battlegame.sol\":2317:2318  p */\n      dup5\n        /* \"trustless cross-chain/trading pair formation/Battlegame.sol\":2313:2314  i */\n      dup2\n        /* \"trustless cross-chain/trading pair formation/Battlegame.sol\":2313:2318  i < p */\n      lt\n        /* \"trustless cross-chain/trading pair formation/Battlegame.sol\":2293:2698  for (uint256 i = 0; i < p; i++) {... */\n      iszero\n      tag_113\n      jumpi\n        /* \"trustless cross-chain/trading pair formation/Battlegame.sol\":2339:2364  PlayerData storage player */\n      0x00\n        /* \"trustless cross-chain/trading pair formation/Battlegame.sol\":2367:2377  playerData */\n      0x03\n        /* \"trustless cross-chain/trading pair formation/Battlegame.sol\":2367:2390  playerData[tokenIds[i]] */\n      0x00\n        /* \"trustless cross-chain/trading pair formation/Battlegame.sol\":2378:2386  tokenIds */\n      dup11\n        /* \"trustless cross-chain/trading pair formation/Battlegame.sol\":2387:2388  i */\n      dup5\n        /* \"trustless cross-chain/trading pair formation/Battlegame.sol\":2378:2389  tokenIds[i] */\n      dup2\n      mload\n      dup2\n      lt\n      tag_115\n      jumpi\n      tag_116\n      tag_98\n      jump\t// in\n    tag_116:\n    tag_115:\n      0x20\n      mul\n      0x20\n      add\n      add\n      mload\n        /* \"trustless cross-chain/trading pair formation/Battlegame.sol\":2367:2390  playerData[tokenIds[i]] */\n      dup2\n      mstore\n      0x20\n      add\n      swap1\n      dup2\n      mstore\n      0x20\n      add\n      0x00\n      keccak256\n        /* \"trustless cross-chain/trading pair formation/Battlegame.sol\":2339:2390  PlayerData storage player = playerData[tokenIds[i]] */\n      swap1\n      pop\n        /* \"trustless cross-chain/trading pair formation/Battlegame.sol\":2412:2413  0 */\n      0x00\n        /* \"trustless cross-chain/trading pair formation/Battlegame.sol\":2408:2409  s */\n      dup4\n        /* \"trustless cross-chain/trading pair formation/Battlegame.sol\":2408:2413  s > 0 */\n      sgt\n        /* \"trustless cross-chain/trading pair formation/Battlegame.sol\":2404:2688  if (s > 0) {... */\n      iszero\n      tag_117\n      jumpi\n        /* \"trustless cross-chain/trading pair formation/Battlegame.sol\":2450:2453  100 */\n      0x64\n        /* \"trustless cross-chain/trading pair formation/Battlegame.sol\":2433:2439  player */\n      dup2\n        /* \"trustless cross-chain/trading pair formation/Battlegame.sol\":2433:2446  player.attack */\n      0x01\n      add\n      0x00\n        /* \"trustless cross-chain/trading pair formation/Battlegame.sol\":2433:2453  player.attack += 100 */\n      dup3\n      dup3\n      sload\n      tag_118\n      swap2\n      swap1\n      tag_100\n      jump\t// in\n    tag_118:\n      swap3\n      pop\n      pop\n      dup2\n      swap1\n      sstore\n      pop\n        /* \"trustless cross-chain/trading pair formation/Battlegame.sol\":2489:2492  100 */\n      0x64\n        /* \"trustless cross-chain/trading pair formation/Battlegame.sol\":2471:2477  player */\n      dup2\n        /* \"trustless cross-chain/trading pair formation/Battlegame.sol\":2471:2485  player.defense */\n      0x02\n      add\n      0x00\n        /* \"trustless cross-chain/trading pair formation/Battlegame.sol\":2471:2492  player.defense += 100 */\n      dup3\n      dup3\n      sload\n      tag_119\n      swap2\n      swap1\n      tag_100\n      jump\t// in\n    tag_119:\n      swap3\n      pop\n      pop\n      dup2\n      swap1\n      sstore\n      pop\n        /* \"trustless cross-chain/trading pair formation/Battlegame.sol\":2531:2535  1000 */\n      0x03e8\n        /* \"trustless cross-chain/trading pair formation/Battlegame.sol\":2510:2516  player */\n      dup2\n        /* \"trustless cross-chain/trading pair formation/Battlegame.sol\":2510:2527  player.experience */\n      0x03\n      add\n      0x00\n        /* \"trustless cross-chain/trading pair formation/Battlegame.sol\":2510:2535  player.experience += 1000 */\n      dup3\n      dup3\n      sload\n      tag_120\n      swap2\n      swap1\n      tag_100\n      jump\t// in\n    tag_120:\n      swap3\n      pop\n      pop\n      dup2\n      swap1\n      sstore\n      pop\n        /* \"trustless cross-chain/trading pair formation/Battlegame.sol\":2404:2688  if (s > 0) {... */\n      jump(tag_121)\n    tag_117:\n        /* \"trustless cross-chain/trading pair formation/Battlegame.sol\":2591:2593  50 */\n      0x32\n        /* \"trustless cross-chain/trading pair formation/Battlegame.sol\":2574:2580  player */\n      dup2\n        /* \"trustless cross-chain/trading pair formation/Battlegame.sol\":2574:2587  player.attack */\n      0x01\n      add\n      0x00\n        /* \"trustless cross-chain/trading pair formation/Battlegame.sol\":2574:2593  player.attack += 50 */\n      dup3\n      dup3\n      sload\n      tag_122\n      swap2\n      swap1\n      tag_100\n      jump\t// in\n    tag_122:\n      swap3\n      pop\n      pop\n      dup2\n      swap1\n      sstore\n      pop\n        /* \"trustless cross-chain/trading pair formation/Battlegame.sol\":2629:2631  50 */\n      0x32\n        /* \"trustless cross-chain/trading pair formation/Battlegame.sol\":2611:2617  player */\n      dup2\n        /* \"trustless cross-chain/trading pair formation/Battlegame.sol\":2611:2625  player.defense */\n      0x02\n      add\n      0x00\n        /* \"trustless cross-chain/trading pair formation/Battlegame.sol\":2611:2631  player.defense += 50 */\n      dup3\n      dup3\n      sload\n      tag_123\n      swap2\n      swap1\n      tag_100\n      jump\t// in\n    tag_123:\n      swap3\n      pop\n      pop\n      dup2\n      swap1\n      sstore\n      pop\n        /* \"trustless cross-chain/trading pair formation/Battlegame.sol\":2670:2673  500 */\n      0x01f4\n        /* \"trustless cross-chain/trading pair formation/Battlegame.sol\":2649:2655  player */\n      dup2\n        /* \"trustless cross-chain/trading pair formation/Battlegame.sol\":2649:2666  player.experience */\n      0x03\n      add\n      0x00\n        /* \"trustless cross-chain/trading pair formation/Battlegame.sol\":2649:2673  player.experience += 500 */\n      dup3\n      dup3\n      sload\n      tag_124\n      swap2\n      swap1\n      tag_100\n      jump\t// in\n    tag_124:\n      swap3\n      pop\n      pop\n      dup2\n      swap1\n      sstore\n      pop\n        /* \"trustless cross-chain/trading pair formation/Battlegame.sol\":2404:2688  if (s > 0) {... */\n    tag_121:\n        /* \"trustless cross-chain/trading pair formation/Battlegame.sol\":2325:2698  {... */\n      pop\n        /* \"trustless cross-chain/trading pair formation/Battlegame.sol\":2320:2323  i++ */\n      dup1\n      dup1\n      tag_125\n      swap1\n      tag_107\n      jump\t// in\n    tag_125:\n      swap2\n      pop\n      pop\n        /* \"trustless cross-chain/trading pair formation/Battlegame.sol\":2293:2698  for (uint256 i = 0; i < p; i++) {... */\n      jump(tag_112)\n    tag_113:\n      pop\n        /* \"trustless cross-chain/trading pair formation/Battlegame.sol\":1907:2704  {... */\n      pop\n      pop\n      pop\n      pop\n        /* \"trustless cross-chain/trading pair formation/Battlegame.sol\":1809:2704  function playerVersusNPC(uint256[] memory tokenIds, uint256 npcAttack, uint256 npcDefense) public {... */\n      pop\n      pop\n      pop\n      jump\t// out\n        /* \"trustless cross-chain/trading pair formation/Battlegame.sol\":176:194  IERC721 public nft */\n    tag_36:\n      0x01\n      0x00\n      swap1\n      sload\n      swap1\n      0x0100\n      exp\n      swap1\n      div\n      0xffffffffffffffffffffffffffffffffffffffff\n      and\n      dup2\n      jump\t// out\n        /* \"trustless cross-chain/trading pair formation/Battlegame.sol\":3325:3440  function getplayerData(uint256 tokenId) public view returns (PlayerData memory) {... */\n    tag_41:\n        /* \"trustless cross-chain/trading pair formation/Battlegame.sol\":3386:3403  PlayerData memory */\n      tag_126\n      tag_63\n      jump\t// in\n    tag_126:\n        /* \"trustless cross-chain/trading pair formation/Battlegame.sol\":3418:3428  playerData */\n      0x03\n        /* \"trustless cross-chain/trading pair formation/Battlegame.sol\":3418:3437  playerData[tokenId] */\n      0x00\n        /* \"trustless cross-chain/trading pair formation/Battlegame.sol\":3429:3436  tokenId */\n      dup4\n        /* \"trustless cross-chain/trading pair formation/Battlegame.sol\":3418:3437  playerData[tokenId] */\n      dup2\n      mstore\n      0x20\n      add\n      swap1\n      dup2\n      mstore\n      0x20\n      add\n      0x00\n      keccak256\n        /* \"trustless cross-chain/trading pair formation/Battlegame.sol\":3411:3437  return playerData[tokenId] */\n      mload(0x40)\n      dup1\n      0x80\n      add\n      0x40\n      mstore\n      swap1\n      dup2\n      0x00\n      dup3\n      add\n      dup1\n      sload\n      tag_128\n      swap1\n      tag_75\n      jump\t// in\n    tag_128:\n      dup1\n      0x1f\n      add\n      0x20\n      dup1\n      swap2\n      div\n      mul\n      0x20\n      add\n      mload(0x40)\n      swap1\n      dup2\n      add\n      0x40\n      mstore\n      dup1\n      swap3\n      swap2\n      swap1\n      dup2\n      dup2\n      mstore\n      0x20\n      add\n      dup3\n      dup1\n      sload\n      tag_129\n      swap1\n      tag_75\n      jump\t// in\n    tag_129:\n      dup1\n      iszero\n      tag_130\n      jumpi\n      dup1\n      0x1f\n      lt\n      tag_131\n      jumpi\n      0x0100\n      dup1\n      dup4\n      sload\n      div\n      mul\n      dup4\n      mstore\n      swap2\n      0x20\n      add\n      swap2\n      jump(tag_130)\n    tag_131:\n      dup3\n      add\n      swap2\n      swap1\n      0x00\n      mstore\n      keccak256(0x00, 0x20)\n      swap1\n    tag_132:\n      dup2\n      sload\n      dup2\n      mstore\n      swap1\n      0x01\n      add\n      swap1\n      0x20\n      add\n      dup1\n      dup4\n      gt\n      tag_132\n      jumpi\n      dup3\n      swap1\n      sub\n      0x1f\n      and\n      dup3\n      add\n      swap2\n    tag_130:\n      pop\n      pop\n      pop\n      pop\n      pop\n      dup2\n      mstore\n      0x20\n      add\n      0x01\n      dup3\n      add\n      sload\n      dup2\n      mstore\n      0x20\n      add\n      0x02\n      dup3\n      add\n      sload\n      dup2\n      mstore\n      0x20\n      add\n      0x03\n      dup3\n      add\n      sload\n      dup2\n      mstore\n      pop\n      pop\n      swap1\n      pop\n        /* \"trustless cross-chain/trading pair formation/Battlegame.sol\":3325:3440  function getplayerData(uint256 tokenId) public view returns (PlayerData memory) {... */\n      swap2\n      swap1\n      pop\n      jump\t// out\n        /* \"@openzeppelin/contracts/access/Ownable.sol\":1831:1932  function renounceOwnership() public virtual onlyOwner {... */\n    tag_44:\n        /* \"@openzeppelin/contracts/access/Ownable.sol\":1094:1107  _checkOwner() */\n      tag_134\n        /* \"@openzeppelin/contracts/access/Ownable.sol\":1094:1105  _checkOwner */\n      tag_87\n        /* \"@openzeppelin/contracts/access/Ownable.sol\":1094:1107  _checkOwner() */\n      jump\t// in\n    tag_134:\n        /* \"@openzeppelin/contracts/access/Ownable.sol\":1895:1925  _transferOwnership(address(0)) */\n      tag_136\n        /* \"@openzeppelin/contracts/access/Ownable.sol\":1922:1923  0 */\n      0x00\n        /* \"@openzeppelin/contracts/access/Ownable.sol\":1895:1913  _transferOwnership */\n      tag_137\n        /* \"@openzeppelin/contracts/access/Ownable.sol\":1895:1925  _transferOwnership(address(0)) */\n      jump\t// in\n    tag_136:\n        /* \"@openzeppelin/contracts/access/Ownable.sol\":1831:1932  function renounceOwnership() public virtual onlyOwner {... */\n      jump\t// out\n        /* \"@openzeppelin/contracts/access/Ownable.sol\":1201:1286  function owner() public view virtual returns (address) {... */\n    tag_46:\n        /* \"@openzeppelin/contracts/access/Ownable.sol\":1247:1254  address */\n      0x00\n        /* \"@openzeppelin/contracts/access/Ownable.sol\":1273:1279  _owner */\n      dup1\n      0x00\n      swap1\n      sload\n      swap1\n      0x0100\n      exp\n      swap1\n      div\n      0xffffffffffffffffffffffffffffffffffffffff\n      and\n        /* \"@openzeppelin/contracts/access/Ownable.sol\":1266:1279  return _owner */\n      swap1\n      pop\n        /* \"@openzeppelin/contracts/access/Ownable.sol\":1201:1286  function owner() public view virtual returns (address) {... */\n      swap1\n      jump\t// out\n        /* \"trustless cross-chain/trading pair formation/Battlegame.sol\":777:1803  function playerVersusPlayer(uint256 tokenId1, uint256 tokenId2) public {... */\n    tag_52:\n        /* \"trustless cross-chain/trading pair formation/Battlegame.sol\":988:1014  PlayerData storage player1 */\n      0x00\n        /* \"trustless cross-chain/trading pair formation/Battlegame.sol\":1017:1027  playerData */\n      0x03\n        /* \"trustless cross-chain/trading pair formation/Battlegame.sol\":1017:1037  playerData[tokenId1] */\n      0x00\n        /* \"trustless cross-chain/trading pair formation/Battlegame.sol\":1028:1036  tokenId1 */\n      dup5\n        /* \"trustless cross-chain/trading pair formation/Battlegame.sol\":1017:1037  playerData[tokenId1] */\n      dup2\n      mstore\n      0x20\n      add\n      swap1\n      dup2\n      mstore\n      0x20\n      add\n      0x00\n      keccak256\n        /* \"trustless cross-chain/trading pair formation/Battlegame.sol\":988:1037  PlayerData storage player1 = playerData[tokenId1] */\n      swap1\n      pop\n        /* \"trustless cross-chain/trading pair formation/Battlegame.sol\":1047:1073  PlayerData storage player2 */\n      0x00\n        /* \"trustless cross-chain/trading pair formation/Battlegame.sol\":1076:1086  playerData */\n      0x03\n        /* \"trustless cross-chain/trading pair formation/Battlegame.sol\":1076:1096  playerData[tokenId2] */\n      0x00\n        /* \"trustless cross-chain/trading pair formation/Battlegame.sol\":1087:1095  tokenId2 */\n      dup5\n        /* \"trustless cross-chain/trading pair formation/Battlegame.sol\":1076:1096  playerData[tokenId2] */\n      dup2\n      mstore\n      0x20\n      add\n      swap1\n      dup2\n      mstore\n      0x20\n      add\n      0x00\n      keccak256\n        /* \"trustless cross-chain/trading pair formation/Battlegame.sol\":1047:1096  PlayerData storage player2 = playerData[tokenId2] */\n      swap1\n      pop\n        /* \"trustless cross-chain/trading pair formation/Battlegame.sol\":1106:1116  uint256 r1 */\n      0x00\n        /* \"trustless cross-chain/trading pair formation/Battlegame.sol\":1119:1127  random() */\n      tag_140\n        /* \"trustless cross-chain/trading pair formation/Battlegame.sol\":1119:1125  random */\n      tag_91\n        /* \"trustless cross-chain/trading pair formation/Battlegame.sol\":1119:1127  random() */\n      jump\t// in\n    tag_140:\n        /* \"trustless cross-chain/trading pair formation/Battlegame.sol\":1106:1127  uint256 r1 = random() */\n      swap1\n      pop\n        /* \"trustless cross-chain/trading pair formation/Battlegame.sol\":1137:1147  uint256 r2 */\n      0x00\n        /* \"trustless cross-chain/trading pair formation/Battlegame.sol\":1150:1158  random() */\n      tag_141\n        /* \"trustless cross-chain/trading pair formation/Battlegame.sol\":1150:1156  random */\n      tag_91\n        /* \"trustless cross-chain/trading pair formation/Battlegame.sol\":1150:1158  random() */\n      jump\t// in\n    tag_141:\n        /* \"trustless cross-chain/trading pair formation/Battlegame.sol\":1137:1158  uint256 r2 = random() */\n      swap1\n      pop\n        /* \"trustless cross-chain/trading pair formation/Battlegame.sol\":1169:1177  int256 s */\n      0x00\n        /* \"trustless cross-chain/trading pair formation/Battlegame.sol\":1316:1318  r2 */\n      dup2\n        /* \"trustless cross-chain/trading pair formation/Battlegame.sol\":1294:1301  player2 */\n      dup5\n        /* \"trustless cross-chain/trading pair formation/Battlegame.sol\":1294:1312  player2.experience */\n      0x03\n      add\n      sload\n        /* \"trustless cross-chain/trading pair formation/Battlegame.sol\":1276:1283  player2 */\n      dup6\n        /* \"trustless cross-chain/trading pair formation/Battlegame.sol\":1276:1291  player2.defense */\n      0x02\n      add\n      sload\n        /* \"trustless cross-chain/trading pair formation/Battlegame.sol\":1259:1266  player2 */\n      dup7\n        /* \"trustless cross-chain/trading pair formation/Battlegame.sol\":1259:1273  player2.attack */\n      0x01\n      add\n      sload\n        /* \"trustless cross-chain/trading pair formation/Battlegame.sol\":1259:1291  player2.attack + player2.defense */\n      tag_142\n      swap2\n      swap1\n      tag_100\n      jump\t// in\n    tag_142:\n        /* \"trustless cross-chain/trading pair formation/Battlegame.sol\":1259:1312  player2.attack + player2.defense + player2.experience */\n      tag_143\n      swap2\n      swap1\n      tag_100\n      jump\t// in\n    tag_143:\n        /* \"trustless cross-chain/trading pair formation/Battlegame.sol\":1258:1318  (player2.attack + player2.defense + player2.experience) * r2 */\n      tag_144\n      swap2\n      swap1\n      tag_103\n      jump\t// in\n    tag_144:\n        /* \"trustless cross-chain/trading pair formation/Battlegame.sol\":1245:1247  r1 */\n      dup4\n        /* \"trustless cross-chain/trading pair formation/Battlegame.sol\":1223:1230  player1 */\n      dup7\n        /* \"trustless cross-chain/trading pair formation/Battlegame.sol\":1223:1241  player1.experience */\n      0x03\n      add\n      sload\n        /* \"trustless cross-chain/trading pair formation/Battlegame.sol\":1205:1212  player1 */\n      dup8\n        /* \"trustless cross-chain/trading pair formation/Battlegame.sol\":1205:1220  player1.defense */\n      0x02\n      add\n      sload\n        /* \"trustless cross-chain/trading pair formation/Battlegame.sol\":1188:1195  player1 */\n      dup9\n        /* \"trustless cross-chain/trading pair formation/Battlegame.sol\":1188:1202  player1.attack */\n      0x01\n      add\n      sload\n        /* \"trustless cross-chain/trading pair formation/Battlegame.sol\":1188:1220  player1.attack + player1.defense */\n      tag_145\n      swap2\n      swap1\n      tag_100\n      jump\t// in\n    tag_145:\n        /* \"trustless cross-chain/trading pair formation/Battlegame.sol\":1188:1241  player1.attack + player1.defense + player1.experience */\n      tag_146\n      swap2\n      swap1\n      tag_100\n      jump\t// in\n    tag_146:\n        /* \"trustless cross-chain/trading pair formation/Battlegame.sol\":1187:1247  (player1.attack + player1.defense + player1.experience) * r1 */\n      tag_147\n      swap2\n      swap1\n      tag_103\n      jump\t// in\n    tag_147:\n        /* \"trustless cross-chain/trading pair formation/Battlegame.sol\":1180:1319  int256((player1.attack + player1.defense + player1.experience) * r1) - int256((player2.attack + player2.defense + player2.experience) * r2) */\n      tag_148\n      swap2\n      swap1\n      tag_111\n      jump\t// in\n    tag_148:\n        /* \"trustless cross-chain/trading pair formation/Battlegame.sol\":1169:1319  int256 s = int256((player1.attack + player1.defense + player1.experience) * r1) - int256((player2.attack + player2.defense + player2.experience) * r2) */\n      swap1\n      pop\n        /* \"trustless cross-chain/trading pair formation/Battlegame.sol\":1338:1339  0 */\n      0x00\n        /* \"trustless cross-chain/trading pair formation/Battlegame.sol\":1334:1335  s */\n      dup2\n        /* \"trustless cross-chain/trading pair formation/Battlegame.sol\":1334:1339  s > 0 */\n      sgt\n        /* \"trustless cross-chain/trading pair formation/Battlegame.sol\":1330:1797  if (s > 0) {... */\n      iszero\n      tag_149\n      jumpi\n        /* \"trustless cross-chain/trading pair formation/Battlegame.sol\":1373:1375  10 */\n      0x0a\n        /* \"trustless cross-chain/trading pair formation/Battlegame.sol\":1355:1362  player1 */\n      dup6\n        /* \"trustless cross-chain/trading pair formation/Battlegame.sol\":1355:1369  player1.attack */\n      0x01\n      add\n      0x00\n        /* \"trustless cross-chain/trading pair formation/Battlegame.sol\":1355:1375  player1.attack += 10 */\n      dup3\n      dup3\n      sload\n      tag_150\n      swap2\n      swap1\n      tag_100\n      jump\t// in\n    tag_150:\n      swap3\n      pop\n      pop\n      dup2\n      swap1\n      sstore\n      pop\n        /* \"trustless cross-chain/trading pair formation/Battlegame.sol\":1408:1410  10 */\n      0x0a\n        /* \"trustless cross-chain/trading pair formation/Battlegame.sol\":1389:1396  player1 */\n      dup6\n        /* \"trustless cross-chain/trading pair formation/Battlegame.sol\":1389:1404  player1.defense */\n      0x02\n      add\n      0x00\n        /* \"trustless cross-chain/trading pair formation/Battlegame.sol\":1389:1410  player1.defense += 10 */\n      dup3\n      dup3\n      sload\n      tag_151\n      swap2\n      swap1\n      tag_100\n      jump\t// in\n    tag_151:\n      swap3\n      pop\n      pop\n      dup2\n      swap1\n      sstore\n      pop\n        /* \"trustless cross-chain/trading pair formation/Battlegame.sol\":1446:1449  100 */\n      0x64\n        /* \"trustless cross-chain/trading pair formation/Battlegame.sol\":1424:1431  player1 */\n      dup6\n        /* \"trustless cross-chain/trading pair formation/Battlegame.sol\":1424:1442  player1.experience */\n      0x03\n      add\n      0x00\n        /* \"trustless cross-chain/trading pair formation/Battlegame.sol\":1424:1449  player1.experience += 100 */\n      dup3\n      dup3\n      sload\n      tag_152\n      swap2\n      swap1\n      tag_100\n      jump\t// in\n    tag_152:\n      swap3\n      pop\n      pop\n      dup2\n      swap1\n      sstore\n      pop\n        /* \"trustless cross-chain/trading pair formation/Battlegame.sol\":1482:1483  1 */\n      0x01\n        /* \"trustless cross-chain/trading pair formation/Battlegame.sol\":1464:1471  player2 */\n      dup5\n        /* \"trustless cross-chain/trading pair formation/Battlegame.sol\":1464:1478  player2.attack */\n      0x01\n      add\n      0x00\n        /* \"trustless cross-chain/trading pair formation/Battlegame.sol\":1464:1483  player2.attack += 1 */\n      dup3\n      dup3\n      sload\n      tag_153\n      swap2\n      swap1\n      tag_100\n      jump\t// in\n    tag_153:\n      swap3\n      pop\n      pop\n      dup2\n      swap1\n      sstore\n      pop\n        /* \"trustless cross-chain/trading pair formation/Battlegame.sol\":1516:1517  1 */\n      0x01\n        /* \"trustless cross-chain/trading pair formation/Battlegame.sol\":1497:1504  player2 */\n      dup5\n        /* \"trustless cross-chain/trading pair formation/Battlegame.sol\":1497:1512  player2.defense */\n      0x02\n      add\n      0x00\n        /* \"trustless cross-chain/trading pair formation/Battlegame.sol\":1497:1517  player2.defense += 1 */\n      dup3\n      dup3\n      sload\n      tag_154\n      swap2\n      swap1\n      tag_100\n      jump\t// in\n    tag_154:\n      swap3\n      pop\n      pop\n      dup2\n      swap1\n      sstore\n      pop\n        /* \"trustless cross-chain/trading pair formation/Battlegame.sol\":1553:1555  50 */\n      0x32\n        /* \"trustless cross-chain/trading pair formation/Battlegame.sol\":1531:1538  player2 */\n      dup5\n        /* \"trustless cross-chain/trading pair formation/Battlegame.sol\":1531:1549  player2.experience */\n      0x03\n      add\n      0x00\n        /* \"trustless cross-chain/trading pair formation/Battlegame.sol\":1531:1555  player2.experience += 50 */\n      dup3\n      dup3\n      sload\n      tag_155\n      swap2\n      swap1\n      tag_100\n      jump\t// in\n    tag_155:\n      swap3\n      pop\n      pop\n      dup2\n      swap1\n      sstore\n      pop\n        /* \"trustless cross-chain/trading pair formation/Battlegame.sol\":1330:1797  if (s > 0) {... */\n      jump(tag_156)\n    tag_149:\n        /* \"trustless cross-chain/trading pair formation/Battlegame.sol\":1604:1605  1 */\n      0x01\n        /* \"trustless cross-chain/trading pair formation/Battlegame.sol\":1586:1593  player1 */\n      dup6\n        /* \"trustless cross-chain/trading pair formation/Battlegame.sol\":1586:1600  player1.attack */\n      0x01\n      add\n      0x00\n        /* \"trustless cross-chain/trading pair formation/Battlegame.sol\":1586:1605  player1.attack += 1 */\n      dup3\n      dup3\n      sload\n      tag_157\n      swap2\n      swap1\n      tag_100\n      jump\t// in\n    tag_157:\n      swap3\n      pop\n      pop\n      dup2\n      swap1\n      sstore\n      pop\n        /* \"trustless cross-chain/trading pair formation/Battlegame.sol\":1638:1639  1 */\n      0x01\n        /* \"trustless cross-chain/trading pair formation/Battlegame.sol\":1619:1626  player1 */\n      dup6\n        /* \"trustless cross-chain/trading pair formation/Battlegame.sol\":1619:1634  player1.defense */\n      0x02\n      add\n      0x00\n        /* \"trustless cross-chain/trading pair formation/Battlegame.sol\":1619:1639  player1.defense += 1 */\n      dup3\n      dup3\n      sload\n      tag_158\n      swap2\n      swap1\n      tag_100\n      jump\t// in\n    tag_158:\n      swap3\n      pop\n      pop\n      dup2\n      swap1\n      sstore\n      pop\n        /* \"trustless cross-chain/trading pair formation/Battlegame.sol\":1675:1677  50 */\n      0x32\n        /* \"trustless cross-chain/trading pair formation/Battlegame.sol\":1653:1660  player1 */\n      dup6\n        /* \"trustless cross-chain/trading pair formation/Battlegame.sol\":1653:1671  player1.experience */\n      0x03\n      add\n      0x00\n        /* \"trustless cross-chain/trading pair formation/Battlegame.sol\":1653:1677  player1.experience += 50 */\n      dup3\n      dup3\n      sload\n      tag_159\n      swap2\n      swap1\n      tag_100\n      jump\t// in\n    tag_159:\n      swap3\n      pop\n      pop\n      dup2\n      swap1\n      sstore\n      pop\n        /* \"trustless cross-chain/trading pair formation/Battlegame.sol\":1710:1712  10 */\n      0x0a\n        /* \"trustless cross-chain/trading pair formation/Battlegame.sol\":1692:1699  player2 */\n      dup5\n        /* \"trustless cross-chain/trading pair formation/Battlegame.sol\":1692:1706  player2.attack */\n      0x01\n      add\n      0x00\n        /* \"trustless cross-chain/trading pair formation/Battlegame.sol\":1692:1712  player2.attack += 10 */\n      dup3\n      dup3\n      sload\n      tag_160\n      swap2\n      swap1\n      tag_100\n      jump\t// in\n    tag_160:\n      swap3\n      pop\n      pop\n      dup2\n      swap1\n      sstore\n      pop\n        /* \"trustless cross-chain/trading pair formation/Battlegame.sol\":1745:1747  10 */\n      0x0a\n        /* \"trustless cross-chain/trading pair formation/Battlegame.sol\":1726:1733  player2 */\n      dup5\n        /* \"trustless cross-chain/trading pair formation/Battlegame.sol\":1726:1741  player2.defense */\n      0x02\n      add\n      0x00\n        /* \"trustless cross-chain/trading pair formation/Battlegame.sol\":1726:1747  player2.defense += 10 */\n      dup3\n      dup3\n      sload\n      tag_161\n      swap2\n      swap1\n      tag_100\n      jump\t// in\n    tag_161:\n      swap3\n      pop\n      pop\n      dup2\n      swap1\n      sstore\n      pop\n        /* \"trustless cross-chain/trading pair formation/Battlegame.sol\":1783:1786  100 */\n      0x64\n        /* \"trustless cross-chain/trading pair formation/Battlegame.sol\":1761:1768  player2 */\n      dup5\n        /* \"trustless cross-chain/trading pair formation/Battlegame.sol\":1761:1779  player2.experience */\n      0x03\n      add\n      0x00\n        /* \"trustless cross-chain/trading pair formation/Battlegame.sol\":1761:1786  player2.experience += 100 */\n      dup3\n      dup3\n      sload\n      tag_162\n      swap2\n      swap1\n      tag_100\n      jump\t// in\n    tag_162:\n      swap3\n      pop\n      pop\n      dup2\n      swap1\n      sstore\n      pop\n        /* \"trustless cross-chain/trading pair formation/Battlegame.sol\":1330:1797  if (s > 0) {... */\n    tag_156:\n        /* \"trustless cross-chain/trading pair formation/Battlegame.sol\":848:1803  {... */\n      pop\n      pop\n      pop\n      pop\n      pop\n        /* \"trustless cross-chain/trading pair formation/Battlegame.sol\":777:1803  function playerVersusPlayer(uint256 tokenId1, uint256 tokenId2) public {... */\n      pop\n      pop\n      jump\t// out\n        /* \"trustless cross-chain/trading pair formation/Battlegame.sol\":2912:3126  function deletePlayerData(uint256 tokenId) external {... */\n    tag_55:\n        /* \"trustless cross-chain/trading pair formation/Battlegame.sol\":2996:3016  trustedNFTManagement */\n      0x02\n      0x00\n      swap1\n      sload\n      swap1\n      0x0100\n      exp\n      swap1\n      div\n      0xffffffffffffffffffffffffffffffffffffffff\n      and\n        /* \"trustless cross-chain/trading pair formation/Battlegame.sol\":2982:3016  msg.sender == trustedNFTManagement */\n      0xffffffffffffffffffffffffffffffffffffffff\n      and\n        /* \"trustless cross-chain/trading pair formation/Battlegame.sol\":2982:2992  msg.sender */\n      caller\n        /* \"trustless cross-chain/trading pair formation/Battlegame.sol\":2982:3016  msg.sender == trustedNFTManagement */\n      0xffffffffffffffffffffffffffffffffffffffff\n      and\n      eq\n        /* \"trustless cross-chain/trading pair formation/Battlegame.sol\":2974:3083  require(msg.sender == trustedNFTManagement, \"Only the trusted NFTManagement contract can call this function\") */\n      tag_164\n      jumpi\n      mload(0x40)\n      0x08c379a000000000000000000000000000000000000000000000000000000000\n      dup2\n      mstore\n      0x04\n      add\n      tag_165\n      swap1\n      tag_166\n      jump\t// in\n    tag_165:\n      mload(0x40)\n      dup1\n      swap2\n      sub\n      swap1\n      revert\n    tag_164:\n        /* \"trustless cross-chain/trading pair formation/Battlegame.sol\":3100:3110  playerData */\n      0x03\n        /* \"trustless cross-chain/trading pair formation/Battlegame.sol\":3100:3119  playerData[tokenId] */\n      0x00\n        /* \"trustless cross-chain/trading pair formation/Battlegame.sol\":3111:3118  tokenId */\n      dup3\n        /* \"trustless cross-chain/trading pair formation/Battlegame.sol\":3100:3119  playerData[tokenId] */\n      dup2\n      mstore\n      0x20\n      add\n      swap1\n      dup2\n      mstore\n      0x20\n      add\n      0x00\n      keccak256\n      0x00\n        /* \"trustless cross-chain/trading pair formation/Battlegame.sol\":3093:3119  delete playerData[tokenId] */\n      dup1\n      dup3\n      add\n      0x00\n      tag_167\n      swap2\n      swap1\n      tag_168\n      jump\t// in\n    tag_167:\n      0x01\n      dup3\n      add\n      0x00\n      swap1\n      sstore\n      0x02\n      dup3\n      add\n      0x00\n      swap1\n      sstore\n      0x03\n      dup3\n      add\n      0x00\n      swap1\n      sstore\n      pop\n      pop\n        /* \"trustless cross-chain/trading pair formation/Battlegame.sol\":2912:3126  function deletePlayerData(uint256 tokenId) external {... */\n      pop\n      jump\t// out\n        /* \"trustless cross-chain/trading pair formation/Battlegame.sol\":200:235  address public trustedNFTManagement */\n    tag_57:\n      0x02\n      0x00\n      swap1\n      sload\n      swap1\n      0x0100\n      exp\n      swap1\n      div\n      0xffffffffffffffffffffffffffffffffffffffff\n      and\n      dup2\n      jump\t// out\n        /* \"@openzeppelin/contracts/access/Ownable.sol\":2081:2279  function transferOwnership(address newOwner) public virtual onlyOwner {... */\n    tag_61:\n        /* \"@openzeppelin/contracts/access/Ownable.sol\":1094:1107  _checkOwner() */\n      tag_170\n        /* \"@openzeppelin/contracts/access/Ownable.sol\":1094:1105  _checkOwner */\n      tag_87\n        /* \"@openzeppelin/contracts/access/Ownable.sol\":1094:1107  _checkOwner() */\n      jump\t// in\n    tag_170:\n        /* \"@openzeppelin/contracts/access/Ownable.sol\":2189:2190  0 */\n      0x00\n        /* \"@openzeppelin/contracts/access/Ownable.sol\":2169:2191  newOwner != address(0) */\n      0xffffffffffffffffffffffffffffffffffffffff\n      and\n        /* \"@openzeppelin/contracts/access/Ownable.sol\":2169:2177  newOwner */\n      dup2\n        /* \"@openzeppelin/contracts/access/Ownable.sol\":2169:2191  newOwner != address(0) */\n      0xffffffffffffffffffffffffffffffffffffffff\n      and\n      sub\n        /* \"@openzeppelin/contracts/access/Ownable.sol\":2161:2234  require(newOwner != address(0), \"Ownable: new owner is the zero address\") */\n      tag_172\n      jumpi\n      mload(0x40)\n      0x08c379a000000000000000000000000000000000000000000000000000000000\n      dup2\n      mstore\n      0x04\n      add\n      tag_173\n      swap1\n      tag_174\n      jump\t// in\n    tag_173:\n      mload(0x40)\n      dup1\n      swap2\n      sub\n      swap1\n      revert\n    tag_172:\n        /* \"@openzeppelin/contracts/access/Ownable.sol\":2244:2272  _transferOwnership(newOwner) */\n      tag_175\n        /* \"@openzeppelin/contracts/access/Ownable.sol\":2263:2271  newOwner */\n      dup2\n        /* \"@openzeppelin/contracts/access/Ownable.sol\":2244:2262  _transferOwnership */\n      tag_137\n        /* \"@openzeppelin/contracts/access/Ownable.sol\":2244:2272  _transferOwnership(newOwner) */\n      jump\t// in\n    tag_175:\n        /* \"@openzeppelin/contracts/access/Ownable.sol\":2081:2279  function transferOwnership(address newOwner) public virtual onlyOwner {... */\n      pop\n      jump\t// out\n        /* \"@openzeppelin/contracts/access/Ownable.sol\":1359:1489  function _checkOwner() internal view virtual {... */\n    tag_87:\n        /* \"@openzeppelin/contracts/access/Ownable.sol\":1433:1445  _msgSender() */\n      tag_177\n        /* \"@openzeppelin/contracts/access/Ownable.sol\":1433:1443  _msgSender */\n      tag_178\n        /* \"@openzeppelin/contracts/access/Ownable.sol\":1433:1445  _msgSender() */\n      jump\t// in\n    tag_177:\n        /* \"@openzeppelin/contracts/access/Ownable.sol\":1422:1445  owner() == _msgSender() */\n      0xffffffffffffffffffffffffffffffffffffffff\n      and\n        /* \"@openzeppelin/contracts/access/Ownable.sol\":1422:1429  owner() */\n      tag_179\n        /* \"@openzeppelin/contracts/access/Ownable.sol\":1422:1427  owner */\n      tag_46\n        /* \"@openzeppelin/contracts/access/Ownable.sol\":1422:1429  owner() */\n      jump\t// in\n    tag_179:\n        /* \"@openzeppelin/contracts/access/Ownable.sol\":1422:1445  owner() == _msgSender() */\n      0xffffffffffffffffffffffffffffffffffffffff\n      and\n      eq\n        /* \"@openzeppelin/contracts/access/Ownable.sol\":1414:1482  require(owner() == _msgSender(), \"Ownable: caller is not the owner\") */\n      tag_180\n      jumpi\n      mload(0x40)\n      0x08c379a000000000000000000000000000000000000000000000000000000000\n      dup2\n      mstore\n      0x04\n      add\n      tag_181\n      swap1\n      tag_182\n      jump\t// in\n    tag_181:\n      mload(0x40)\n      dup1\n      swap2\n      sub\n      swap1\n      revert\n    tag_180:\n        /* \"@openzeppelin/contracts/access/Ownable.sol\":1359:1489  function _checkOwner() internal view virtual {... */\n      jump\t// out\n        /* \"trustless cross-chain/trading pair formation/Battlegame.sol\":600:771  function random() private view returns (uint256) {... */\n    tag_91:\n        /* \"trustless cross-chain/trading pair formation/Battlegame.sol\":640:647  uint256 */\n      0x00\n        /* \"trustless cross-chain/trading pair formation/Battlegame.sol\":279:281  80 */\n      0x50\n        /* \"trustless cross-chain/trading pair formation/Battlegame.sol\":749:750  1 */\n      0x01\n        /* \"trustless cross-chain/trading pair formation/Battlegame.sol\":279:281  80 */\n      0x50\n        /* \"trustless cross-chain/trading pair formation/Battlegame.sol\":325:328  100 */\n      0x64\n        /* \"trustless cross-chain/trading pair formation/Battlegame.sol\":723:746  RANDOM_MAX - RANDOM_MIN */\n      tag_184\n      swap2\n      swap1\n      tag_185\n      jump\t// in\n    tag_184:\n        /* \"trustless cross-chain/trading pair formation/Battlegame.sol\":723:750  RANDOM_MAX - RANDOM_MIN + 1 */\n      tag_186\n      swap2\n      swap1\n      tag_100\n      jump\t// in\n    tag_186:\n        /* \"trustless cross-chain/trading pair formation/Battlegame.sol\":701:716  block.timestamp */\n      timestamp\n        /* \"trustless cross-chain/trading pair formation/Battlegame.sol\":684:717  abi.encodePacked(block.timestamp) */\n      add(0x20, mload(0x40))\n      tag_187\n      swap2\n      swap1\n      tag_188\n      jump\t// in\n    tag_187:\n      mload(0x40)\n      0x20\n      dup2\n      dup4\n      sub\n      sub\n      dup2\n      mstore\n      swap1\n      0x40\n      mstore\n        /* \"trustless cross-chain/trading pair formation/Battlegame.sol\":674:718  keccak256(abi.encodePacked(block.timestamp)) */\n      dup1\n      mload\n      swap1\n      0x20\n      add\n      keccak256\n        /* \"trustless cross-chain/trading pair formation/Battlegame.sol\":666:719  uint256(keccak256(abi.encodePacked(block.timestamp))) */\n      0x00\n      shr\n        /* \"trustless cross-chain/trading pair formation/Battlegame.sol\":666:751  uint256(keccak256(abi.encodePacked(block.timestamp))) % (RANDOM_MAX - RANDOM_MIN + 1) */\n      tag_189\n      swap2\n      swap1\n      tag_190\n      jump\t// in\n    tag_189:\n        /* \"trustless cross-chain/trading pair formation/Battlegame.sol\":666:764  uint256(keccak256(abi.encodePacked(block.timestamp))) % (RANDOM_MAX - RANDOM_MIN + 1) + RANDOM_MIN */\n      tag_191\n      swap2\n      swap1\n      tag_100\n      jump\t// in\n    tag_191:\n        /* \"trustless cross-chain/trading pair formation/Battlegame.sol\":659:764  return uint256(keccak256(abi.encodePacked(block.timestamp))) % (RANDOM_MAX - RANDOM_MIN + 1) + RANDOM_MIN */\n      swap1\n      pop\n        /* \"trustless cross-chain/trading pair formation/Battlegame.sol\":600:771  function random() private view returns (uint256) {... */\n      swap1\n      jump\t// out\n        /* \"@openzeppelin/contracts/access/Ownable.sol\":2433:2620  function _transferOwnership(address newOwner) internal virtual {... */\n    tag_137:\n        /* \"@openzeppelin/contracts/access/Ownable.sol\":2506:2522  address oldOwner */\n      0x00\n        /* \"@openzeppelin/contracts/access/Ownable.sol\":2525:2531  _owner */\n      dup1\n      0x00\n      swap1\n      sload\n      swap1\n      0x0100\n      exp\n      swap1\n      div\n      0xffffffffffffffffffffffffffffffffffffffff\n      and\n        /* \"@openzeppelin/contracts/access/Ownable.sol\":2506:2531  address oldOwner = _owner */\n      swap1\n      pop\n        /* \"@openzeppelin/contracts/access/Ownable.sol\":2550:2558  newOwner */\n      dup2\n        /* \"@openzeppelin/contracts/access/Ownable.sol\":2541:2547  _owner */\n      0x00\n      dup1\n        /* \"@openzeppelin/contracts/access/Ownable.sol\":2541:2558  _owner = newOwner */\n      0x0100\n      exp\n      dup2\n      sload\n      dup2\n      0xffffffffffffffffffffffffffffffffffffffff\n      mul\n      not\n      and\n      swap1\n      dup4\n      0xffffffffffffffffffffffffffffffffffffffff\n      and\n      mul\n      or\n      swap1\n      sstore\n      pop\n        /* \"@openzeppelin/contracts/access/Ownable.sol\":2604:2612  newOwner */\n      dup2\n        /* \"@openzeppelin/contracts/access/Ownable.sol\":2573:2613  OwnershipTransferred(oldOwner, newOwner) */\n      0xffffffffffffffffffffffffffffffffffffffff\n      and\n        /* \"@openzeppelin/contracts/access/Ownable.sol\":2594:2602  oldOwner */\n      dup2\n        /* \"@openzeppelin/contracts/access/Ownable.sol\":2573:2613  OwnershipTransferred(oldOwner, newOwner) */\n      0xffffffffffffffffffffffffffffffffffffffff\n      and\n      0x8be0079c531659141344cd1fd0a4f28419497f9722a3daafe3b4186f6b6457e0\n      mload(0x40)\n      mload(0x40)\n      dup1\n      swap2\n      sub\n      swap1\n      log3\n        /* \"@openzeppelin/contracts/access/Ownable.sol\":2496:2620  {... */\n      pop\n        /* \"@openzeppelin/contracts/access/Ownable.sol\":2433:2620  function _transferOwnership(address newOwner) internal virtual {... */\n      pop\n      jump\t// out\n        /* \"@openzeppelin/contracts/utils/Context.sol\":640:736  function _msgSender() internal view virtual returns (address) {... */\n    tag_178:\n        /* \"@openzeppelin/contracts/utils/Context.sol\":693:700  address */\n      0x00\n        /* \"@openzeppelin/contracts/utils/Context.sol\":719:729  msg.sender */\n      caller\n        /* \"@openzeppelin/contracts/utils/Context.sol\":712:729  return msg.sender */\n      swap1\n      pop\n        /* \"@openzeppelin/contracts/utils/Context.sol\":640:736  function _msgSender() internal view virtual returns (address) {... */\n      swap1\n      jump\t// out\n    tag_63:\n      mload(0x40)\n      dup1\n      0x80\n      add\n      0x40\n      mstore\n      dup1\n      0x60\n      dup2\n      mstore\n      0x20\n      add\n      0x00\n      dup2\n      mstore\n      0x20\n      add\n      0x00\n      dup2\n      mstore\n      0x20\n      add\n      0x00\n      dup2\n      mstore\n      pop\n      swap1\n      jump\t// out\n    tag_168:\n      pop\n      dup1\n      sload\n      tag_194\n      swap1\n      tag_75\n      jump\t// in\n    tag_194:\n      0x00\n      dup3\n      sstore\n      dup1\n      0x1f\n      lt\n      tag_196\n      jumpi\n      pop\n      jump(tag_195)\n    tag_196:\n      0x1f\n      add\n      0x20\n      swap1\n      div\n      swap1\n      0x00\n      mstore\n      keccak256(0x00, 0x20)\n      swap1\n      dup2\n      add\n      swap1\n      tag_197\n      swap2\n      swap1\n      tag_198\n      jump\t// in\n    tag_197:\n    tag_195:\n      pop\n      jump\t// out\n    tag_198:\n    tag_199:\n      dup1\n      dup3\n      gt\n      iszero\n      tag_200\n      jumpi\n      0x00\n      dup2\n      0x00\n      swap1\n      sstore\n      pop\n      0x01\n      add\n      jump(tag_199)\n    tag_200:\n      pop\n      swap1\n      jump\t// out\n        /* \"#utility.yul\":7:82   */\n    tag_201:\n        /* \"#utility.yul\":40:46   */\n      0x00\n        /* \"#utility.yul\":73:75   */\n      0x40\n        /* \"#utility.yul\":67:76   */\n      mload\n        /* \"#utility.yul\":57:76   */\n      swap1\n      pop\n        /* \"#utility.yul\":7:82   */\n      swap1\n      jump\t// out\n        /* \"#utility.yul\":88:205   */\n    tag_202:\n        /* \"#utility.yul\":197:198   */\n      0x00\n        /* \"#utility.yul\":194:195   */\n      dup1\n        /* \"#utility.yul\":187:199   */\n      revert\n        /* \"#utility.yul\":211:328   */\n    tag_203:\n        /* \"#utility.yul\":320:321   */\n      0x00\n        /* \"#utility.yul\":317:318   */\n      dup1\n        /* \"#utility.yul\":310:322   */\n      revert\n        /* \"#utility.yul\":334:411   */\n    tag_204:\n        /* \"#utility.yul\":371:378   */\n      0x00\n        /* \"#utility.yul\":400:405   */\n      dup2\n        /* \"#utility.yul\":389:405   */\n      swap1\n      pop\n        /* \"#utility.yul\":334:411   */\n      swap2\n      swap1\n      pop\n      jump\t// out\n        /* \"#utility.yul\":417:539   */\n    tag_205:\n        /* \"#utility.yul\":490:514   */\n      tag_256\n        /* \"#utility.yul\":508:513   */\n      dup2\n        /* \"#utility.yul\":490:514   */\n      tag_204\n      jump\t// in\n    tag_256:\n        /* \"#utility.yul\":483:488   */\n      dup2\n        /* \"#utility.yul\":480:515   */\n      eq\n        /* \"#utility.yul\":470:533   */\n      tag_257\n      jumpi\n        /* \"#utility.yul\":529:530   */\n      0x00\n        /* \"#utility.yul\":526:527   */\n      dup1\n        /* \"#utility.yul\":519:531   */\n      revert\n        /* \"#utility.yul\":470:533   */\n    tag_257:\n        /* \"#utility.yul\":417:539   */\n      pop\n      jump\t// out\n        /* \"#utility.yul\":545:684   */\n    tag_206:\n        /* \"#utility.yul\":591:596   */\n      0x00\n        /* \"#utility.yul\":629:635   */\n      dup2\n        /* \"#utility.yul\":616:636   */\n      calldataload\n        /* \"#utility.yul\":607:636   */\n      swap1\n      pop\n        /* \"#utility.yul\":645:678   */\n      tag_259\n        /* \"#utility.yul\":672:677   */\n      dup2\n        /* \"#utility.yul\":645:678   */\n      tag_205\n      jump\t// in\n    tag_259:\n        /* \"#utility.yul\":545:684   */\n      swap3\n      swap2\n      pop\n      pop\n      jump\t// out\n        /* \"#utility.yul\":690:1019   */\n    tag_18:\n        /* \"#utility.yul\":749:755   */\n      0x00\n        /* \"#utility.yul\":798:800   */\n      0x20\n        /* \"#utility.yul\":786:795   */\n      dup3\n        /* \"#utility.yul\":777:784   */\n      dup5\n        /* \"#utility.yul\":773:796   */\n      sub\n        /* \"#utility.yul\":769:801   */\n      slt\n        /* \"#utility.yul\":766:885   */\n      iszero\n      tag_261\n      jumpi\n        /* \"#utility.yul\":804:883   */\n      tag_262\n      tag_202\n      jump\t// in\n    tag_262:\n        /* \"#utility.yul\":766:885   */\n    tag_261:\n        /* \"#utility.yul\":924:925   */\n      0x00\n        /* \"#utility.yul\":949:1002   */\n      tag_263\n        /* \"#utility.yul\":994:1001   */\n      dup5\n        /* \"#utility.yul\":985:991   */\n      dup3\n        /* \"#utility.yul\":974:983   */\n      dup6\n        /* \"#utility.yul\":970:992   */\n      add\n        /* \"#utility.yul\":949:1002   */\n      tag_206\n      jump\t// in\n    tag_263:\n        /* \"#utility.yul\":939:1002   */\n      swap2\n      pop\n        /* \"#utility.yul\":895:1012   */\n      pop\n        /* \"#utility.yul\":690:1019   */\n      swap3\n      swap2\n      pop\n      pop\n      jump\t// out\n        /* \"#utility.yul\":1025:1124   */\n    tag_207:\n        /* \"#utility.yul\":1077:1083   */\n      0x00\n        /* \"#utility.yul\":1111:1116   */\n      dup2\n        /* \"#utility.yul\":1105:1117   */\n      mload\n        /* \"#utility.yul\":1095:1117   */\n      swap1\n      pop\n        /* \"#utility.yul\":1025:1124   */\n      swap2\n      swap1\n      pop\n      jump\t// out\n        /* \"#utility.yul\":1130:1289   */\n    tag_208:\n        /* \"#utility.yul\":1204:1215   */\n      0x00\n        /* \"#utility.yul\":1238:1244   */\n      dup3\n        /* \"#utility.yul\":1233:1236   */\n      dup3\n        /* \"#utility.yul\":1226:1245   */\n      mstore\n        /* \"#utility.yul\":1278:1282   */\n      0x20\n        /* \"#utility.yul\":1273:1276   */\n      dup3\n        /* \"#utility.yul\":1269:1283   */\n      add\n        /* \"#utility.yul\":1254:1283   */\n      swap1\n      pop\n        /* \"#utility.yul\":1130:1289   */\n      swap3\n      swap2\n      pop\n      pop\n      jump\t// out\n        /* \"#utility.yul\":1295:1541   */\n    tag_209:\n        /* \"#utility.yul\":1376:1377   */\n      0x00\n        /* \"#utility.yul\":1386:1499   */\n    tag_267:\n        /* \"#utility.yul\":1400:1406   */\n      dup4\n        /* \"#utility.yul\":1397:1398   */\n      dup2\n        /* \"#utility.yul\":1394:1407   */\n      lt\n        /* \"#utility.yul\":1386:1499   */\n      iszero\n      tag_269\n      jumpi\n        /* \"#utility.yul\":1485:1486   */\n      dup1\n        /* \"#utility.yul\":1480:1483   */\n      dup3\n        /* \"#utility.yul\":1476:1487   */\n      add\n        /* \"#utility.yul\":1470:1488   */\n      mload\n        /* \"#utility.yul\":1466:1467   */\n      dup2\n        /* \"#utility.yul\":1461:1464   */\n      dup5\n        /* \"#utility.yul\":1457:1468   */\n      add\n        /* \"#utility.yul\":1450:1489   */\n      mstore\n        /* \"#utility.yul\":1422:1424   */\n      0x20\n        /* \"#utility.yul\":1419:1420   */\n      dup2\n        /* \"#utility.yul\":1415:1425   */\n      add\n        /* \"#utility.yul\":1410:1425   */\n      swap1\n      pop\n        /* \"#utility.yul\":1386:1499   */\n      jump(tag_267)\n    tag_269:\n        /* \"#utility.yul\":1533:1534   */\n      0x00\n        /* \"#utility.yul\":1524:1530   */\n      dup5\n        /* \"#utility.yul\":1519:1522   */\n      dup5\n        /* \"#utility.yul\":1515:1531   */\n      add\n        /* \"#utility.yul\":1508:1535   */\n      mstore\n        /* \"#utility.yul\":1357:1541   */\n      pop\n        /* \"#utility.yul\":1295:1541   */\n      pop\n      pop\n      pop\n      jump\t// out\n        /* \"#utility.yul\":1547:1649   */\n    tag_210:\n        /* \"#utility.yul\":1588:1594   */\n      0x00\n        /* \"#utility.yul\":1639:1641   */\n      0x1f\n        /* \"#utility.yul\":1635:1642   */\n      not\n        /* \"#utility.yul\":1630:1632   */\n      0x1f\n        /* \"#utility.yul\":1623:1628   */\n      dup4\n        /* \"#utility.yul\":1619:1633   */\n      add\n        /* \"#utility.yul\":1615:1643   */\n      and\n        /* \"#utility.yul\":1605:1643   */\n      swap1\n      pop\n        /* \"#utility.yul\":1547:1649   */\n      swap2\n      swap1\n      pop\n      jump\t// out\n        /* \"#utility.yul\":1655:2012   */\n    tag_211:\n        /* \"#utility.yul\":1733:1736   */\n      0x00\n        /* \"#utility.yul\":1761:1800   */\n      tag_272\n        /* \"#utility.yul\":1794:1799   */\n      dup3\n        /* \"#utility.yul\":1761:1800   */\n      tag_207\n      jump\t// in\n    tag_272:\n        /* \"#utility.yul\":1816:1877   */\n      tag_273\n        /* \"#utility.yul\":1870:1876   */\n      dup2\n        /* \"#utility.yul\":1865:1868   */\n      dup6\n        /* \"#utility.yul\":1816:1877   */\n      tag_208\n      jump\t// in\n    tag_273:\n        /* \"#utility.yul\":1809:1877   */\n      swap4\n      pop\n        /* \"#utility.yul\":1886:1951   */\n      tag_274\n        /* \"#utility.yul\":1944:1950   */\n      dup2\n        /* \"#utility.yul\":1939:1942   */\n      dup6\n        /* \"#utility.yul\":1932:1936   */\n      0x20\n        /* \"#utility.yul\":1925:1930   */\n      dup7\n        /* \"#utility.yul\":1921:1937   */\n      add\n        /* \"#utility.yul\":1886:1951   */\n      tag_209\n      jump\t// in\n    tag_274:\n        /* \"#utility.yul\":1976:2005   */\n      tag_275\n        /* \"#utility.yul\":1998:2004   */\n      dup2\n        /* \"#utility.yul\":1976:2005   */\n      tag_210\n      jump\t// in\n    tag_275:\n        /* \"#utility.yul\":1971:1974   */\n      dup5\n        /* \"#utility.yul\":1967:2006   */\n      add\n        /* \"#utility.yul\":1960:2006   */\n      swap2\n      pop\n        /* \"#utility.yul\":1737:2012   */\n      pop\n        /* \"#utility.yul\":1655:2012   */\n      swap3\n      swap2\n      pop\n      pop\n      jump\t// out\n        /* \"#utility.yul\":2018:2126   */\n    tag_212:\n        /* \"#utility.yul\":2095:2119   */\n      tag_277\n        /* \"#utility.yul\":2113:2118   */\n      dup2\n        /* \"#utility.yul\":2095:2119   */\n      tag_204\n      jump\t// in\n    tag_277:\n        /* \"#utility.yul\":2090:2093   */\n      dup3\n        /* \"#utility.yul\":2083:2120   */\n      mstore\n        /* \"#utility.yul\":2018:2126   */\n      pop\n      pop\n      jump\t// out\n        /* \"#utility.yul\":2200:3169   */\n    tag_213:\n        /* \"#utility.yul\":2323:2326   */\n      0x00\n        /* \"#utility.yul\":2359:2363   */\n      0x80\n        /* \"#utility.yul\":2354:2357   */\n      dup4\n        /* \"#utility.yul\":2350:2364   */\n      add\n        /* \"#utility.yul\":2446:2450   */\n      0x00\n        /* \"#utility.yul\":2439:2444   */\n      dup4\n        /* \"#utility.yul\":2435:2451   */\n      add\n        /* \"#utility.yul\":2429:2452   */\n      mload\n        /* \"#utility.yul\":2499:2502   */\n      dup5\n        /* \"#utility.yul\":2493:2497   */\n      dup3\n        /* \"#utility.yul\":2489:2503   */\n      sub\n        /* \"#utility.yul\":2482:2486   */\n      0x00\n        /* \"#utility.yul\":2477:2480   */\n      dup7\n        /* \"#utility.yul\":2473:2487   */\n      add\n        /* \"#utility.yul\":2466:2504   */\n      mstore\n        /* \"#utility.yul\":2525:2598   */\n      tag_279\n        /* \"#utility.yul\":2593:2597   */\n      dup3\n        /* \"#utility.yul\":2579:2591   */\n      dup3\n        /* \"#utility.yul\":2525:2598   */\n      tag_211\n      jump\t// in\n    tag_279:\n        /* \"#utility.yul\":2517:2598   */\n      swap2\n      pop\n        /* \"#utility.yul\":2374:2609   */\n      pop\n        /* \"#utility.yul\":2693:2697   */\n      0x20\n        /* \"#utility.yul\":2686:2691   */\n      dup4\n        /* \"#utility.yul\":2682:2698   */\n      add\n        /* \"#utility.yul\":2676:2699   */\n      mload\n        /* \"#utility.yul\":2712:2775   */\n      tag_280\n        /* \"#utility.yul\":2769:2773   */\n      0x20\n        /* \"#utility.yul\":2764:2767   */\n      dup7\n        /* \"#utility.yul\":2760:2774   */\n      add\n        /* \"#utility.yul\":2746:2758   */\n      dup3\n        /* \"#utility.yul\":2712:2775   */\n      tag_212\n      jump\t// in\n    tag_280:\n        /* \"#utility.yul\":2619:2785   */\n      pop\n        /* \"#utility.yul\":2870:2874   */\n      0x40\n        /* \"#utility.yul\":2863:2868   */\n      dup4\n        /* \"#utility.yul\":2859:2875   */\n      add\n        /* \"#utility.yul\":2853:2876   */\n      mload\n        /* \"#utility.yul\":2889:2952   */\n      tag_281\n        /* \"#utility.yul\":2946:2950   */\n      0x40\n        /* \"#utility.yul\":2941:2944   */\n      dup7\n        /* \"#utility.yul\":2937:2951   */\n      add\n        /* \"#utility.yul\":2923:2935   */\n      dup3\n        /* \"#utility.yul\":2889:2952   */\n      tag_212\n      jump\t// in\n    tag_281:\n        /* \"#utility.yul\":2795:2962   */\n      pop\n        /* \"#utility.yul\":3050:3054   */\n      0x60\n        /* \"#utility.yul\":3043:3048   */\n      dup4\n        /* \"#utility.yul\":3039:3055   */\n      add\n        /* \"#utility.yul\":3033:3056   */\n      mload\n        /* \"#utility.yul\":3069:3132   */\n      tag_282\n        /* \"#utility.yul\":3126:3130   */\n      0x60\n        /* \"#utility.yul\":3121:3124   */\n      dup7\n        /* \"#utility.yul\":3117:3131   */\n      add\n        /* \"#utility.yul\":3103:3115   */\n      dup3\n        /* \"#utility.yul\":3069:3132   */\n      tag_212\n      jump\t// in\n    tag_282:\n        /* \"#utility.yul\":2972:3142   */\n      pop\n        /* \"#utility.yul\":3159:3163   */\n      dup1\n        /* \"#utility.yul\":3152:3163   */\n      swap2\n      pop\n        /* \"#utility.yul\":2328:3169   */\n      pop\n        /* \"#utility.yul\":2200:3169   */\n      swap3\n      swap2\n      pop\n      pop\n      jump\t// out\n        /* \"#utility.yul\":3175:3556   */\n    tag_21:\n        /* \"#utility.yul\":3322:3326   */\n      0x00\n        /* \"#utility.yul\":3360:3362   */\n      0x20\n        /* \"#utility.yul\":3349:3358   */\n      dup3\n        /* \"#utility.yul\":3345:3363   */\n      add\n        /* \"#utility.yul\":3337:3363   */\n      swap1\n      pop\n        /* \"#utility.yul\":3409:3418   */\n      dup2\n        /* \"#utility.yul\":3403:3407   */\n      dup2\n        /* \"#utility.yul\":3399:3419   */\n      sub\n        /* \"#utility.yul\":3395:3396   */\n      0x00\n        /* \"#utility.yul\":3384:3393   */\n      dup4\n        /* \"#utility.yul\":3380:3397   */\n      add\n        /* \"#utility.yul\":3373:3420   */\n      mstore\n        /* \"#utility.yul\":3437:3549   */\n      tag_284\n        /* \"#utility.yul\":3544:3548   */\n      dup2\n        /* \"#utility.yul\":3535:3541   */\n      dup5\n        /* \"#utility.yul\":3437:3549   */\n      tag_213\n      jump\t// in\n    tag_284:\n        /* \"#utility.yul\":3429:3549   */\n      swap1\n      pop\n        /* \"#utility.yul\":3175:3556   */\n      swap3\n      swap2\n      pop\n      pop\n      jump\t// out\n        /* \"#utility.yul\":3562:3731   */\n    tag_214:\n        /* \"#utility.yul\":3646:3657   */\n      0x00\n        /* \"#utility.yul\":3680:3686   */\n      dup3\n        /* \"#utility.yul\":3675:3678   */\n      dup3\n        /* \"#utility.yul\":3668:3687   */\n      mstore\n        /* \"#utility.yul\":3720:3724   */\n      0x20\n        /* \"#utility.yul\":3715:3718   */\n      dup3\n        /* \"#utility.yul\":3711:3725   */\n      add\n        /* \"#utility.yul\":3696:3725   */\n      swap1\n      pop\n        /* \"#utility.yul\":3562:3731   */\n      swap3\n      swap2\n      pop\n      pop\n      jump\t// out\n        /* \"#utility.yul\":3737:4114   */\n    tag_215:\n        /* \"#utility.yul\":3825:3828   */\n      0x00\n        /* \"#utility.yul\":3853:3892   */\n      tag_287\n        /* \"#utility.yul\":3886:3891   */\n      dup3\n        /* \"#utility.yul\":3853:3892   */\n      tag_207\n      jump\t// in\n    tag_287:\n        /* \"#utility.yul\":3908:3979   */\n      tag_288\n        /* \"#utility.yul\":3972:3978   */\n      dup2\n        /* \"#utility.yul\":3967:3970   */\n      dup6\n        /* \"#utility.yul\":3908:3979   */\n      tag_214\n      jump\t// in\n    tag_288:\n        /* \"#utility.yul\":3901:3979   */\n      swap4\n      pop\n        /* \"#utility.yul\":3988:4053   */\n      tag_289\n        /* \"#utility.yul\":4046:4052   */\n      dup2\n        /* \"#utility.yul\":4041:4044   */\n      dup6\n        /* \"#utility.yul\":4034:4038   */\n      0x20\n        /* \"#utility.yul\":4027:4032   */\n      dup7\n        /* \"#utility.yul\":4023:4039   */\n      add\n        /* \"#utility.yul\":3988:4053   */\n      tag_209\n      jump\t// in\n    tag_289:\n        /* \"#utility.yul\":4078:4107   */\n      tag_290\n        /* \"#utility.yul\":4100:4106   */\n      dup2\n        /* \"#utility.yul\":4078:4107   */\n      tag_210\n      jump\t// in\n    tag_290:\n        /* \"#utility.yul\":4073:4076   */\n      dup5\n        /* \"#utility.yul\":4069:4108   */\n      add\n        /* \"#utility.yul\":4062:4108   */\n      swap2\n      pop\n        /* \"#utility.yul\":3829:4114   */\n      pop\n        /* \"#utility.yul\":3737:4114   */\n      swap3\n      swap2\n      pop\n      pop\n      jump\t// out\n        /* \"#utility.yul\":4120:4238   */\n    tag_216:\n        /* \"#utility.yul\":4207:4231   */\n      tag_292\n        /* \"#utility.yul\":4225:4230   */\n      dup2\n        /* \"#utility.yul\":4207:4231   */\n      tag_204\n      jump\t// in\n    tag_292:\n        /* \"#utility.yul\":4202:4205   */\n      dup3\n        /* \"#utility.yul\":4195:4232   */\n      mstore\n        /* \"#utility.yul\":4120:4238   */\n      pop\n      pop\n      jump\t// out\n        /* \"#utility.yul\":4244:4888   */\n    tag_26:\n        /* \"#utility.yul\":4441:4445   */\n      0x00\n        /* \"#utility.yul\":4479:4482   */\n      0x80\n        /* \"#utility.yul\":4468:4477   */\n      dup3\n        /* \"#utility.yul\":4464:4483   */\n      add\n        /* \"#utility.yul\":4456:4483   */\n      swap1\n      pop\n        /* \"#utility.yul\":4529:4538   */\n      dup2\n        /* \"#utility.yul\":4523:4527   */\n      dup2\n        /* \"#utility.yul\":4519:4539   */\n      sub\n        /* \"#utility.yul\":4515:4516   */\n      0x00\n        /* \"#utility.yul\":4504:4513   */\n      dup4\n        /* \"#utility.yul\":4500:4517   */\n      add\n        /* \"#utility.yul\":4493:4540   */\n      mstore\n        /* \"#utility.yul\":4557:4635   */\n      tag_294\n        /* \"#utility.yul\":4630:4634   */\n      dup2\n        /* \"#utility.yul\":4621:4627   */\n      dup8\n        /* \"#utility.yul\":4557:4635   */\n      tag_215\n      jump\t// in\n    tag_294:\n        /* \"#utility.yul\":4549:4635   */\n      swap1\n      pop\n        /* \"#utility.yul\":4645:4717   */\n      tag_295\n        /* \"#utility.yul\":4713:4715   */\n      0x20\n        /* \"#utility.yul\":4702:4711   */\n      dup4\n        /* \"#utility.yul\":4698:4716   */\n      add\n        /* \"#utility.yul\":4689:4695   */\n      dup7\n        /* \"#utility.yul\":4645:4717   */\n      tag_216\n      jump\t// in\n    tag_295:\n        /* \"#utility.yul\":4727:4799   */\n      tag_296\n        /* \"#utility.yul\":4795:4797   */\n      0x40\n        /* \"#utility.yul\":4784:4793   */\n      dup4\n        /* \"#utility.yul\":4780:4798   */\n      add\n        /* \"#utility.yul\":4771:4777   */\n      dup6\n        /* \"#utility.yul\":4727:4799   */\n      tag_216\n      jump\t// in\n    tag_296:\n        /* \"#utility.yul\":4809:4881   */\n      tag_297\n        /* \"#utility.yul\":4877:4879   */\n      0x60\n        /* \"#utility.yul\":4866:4875   */\n      dup4\n        /* \"#utility.yul\":4862:4880   */\n      add\n        /* \"#utility.yul\":4853:4859   */\n      dup5\n        /* \"#utility.yul\":4809:4881   */\n      tag_216\n      jump\t// in\n    tag_297:\n        /* \"#utility.yul\":4244:4888   */\n      swap6\n      swap5\n      pop\n      pop\n      pop\n      pop\n      pop\n      jump\t// out\n        /* \"#utility.yul\":4894:5020   */\n    tag_217:\n        /* \"#utility.yul\":4931:4938   */\n      0x00\n        /* \"#utility.yul\":4971:5013   */\n      0xffffffffffffffffffffffffffffffffffffffff\n        /* \"#utility.yul\":4964:4969   */\n      dup3\n        /* \"#utility.yul\":4960:5014   */\n      and\n        /* \"#utility.yul\":4949:5014   */\n      swap1\n      pop\n        /* \"#utility.yul\":4894:5020   */\n      swap2\n      swap1\n      pop\n      jump\t// out\n        /* \"#utility.yul\":5026:5122   */\n    tag_218:\n        /* \"#utility.yul\":5063:5070   */\n      0x00\n        /* \"#utility.yul\":5092:5116   */\n      tag_300\n        /* \"#utility.yul\":5110:5115   */\n      dup3\n        /* \"#utility.yul\":5092:5116   */\n      tag_217\n      jump\t// in\n    tag_300:\n        /* \"#utility.yul\":5081:5116   */\n      swap1\n      pop\n        /* \"#utility.yul\":5026:5122   */\n      swap2\n      swap1\n      pop\n      jump\t// out\n        /* \"#utility.yul\":5128:5250   */\n    tag_219:\n        /* \"#utility.yul\":5201:5225   */\n      tag_302\n        /* \"#utility.yul\":5219:5224   */\n      dup2\n        /* \"#utility.yul\":5201:5225   */\n      tag_218\n      jump\t// in\n    tag_302:\n        /* \"#utility.yul\":5194:5199   */\n      dup2\n        /* \"#utility.yul\":5191:5226   */\n      eq\n        /* \"#utility.yul\":5181:5244   */\n      tag_303\n      jumpi\n        /* \"#utility.yul\":5240:5241   */\n      0x00\n        /* \"#utility.yul\":5237:5238   */\n      dup1\n        /* \"#utility.yul\":5230:5242   */\n      revert\n        /* \"#utility.yul\":5181:5244   */\n    tag_303:\n        /* \"#utility.yul\":5128:5250   */\n      pop\n      jump\t// out\n        /* \"#utility.yul\":5256:5395   */\n    tag_220:\n        /* \"#utility.yul\":5302:5307   */\n      0x00\n        /* \"#utility.yul\":5340:5346   */\n      dup2\n        /* \"#utility.yul\":5327:5347   */\n      calldataload\n        /* \"#utility.yul\":5318:5347   */\n      swap1\n      pop\n        /* \"#utility.yul\":5356:5389   */\n      tag_305\n        /* \"#utility.yul\":5383:5388   */\n      dup2\n        /* \"#utility.yul\":5356:5389   */\n      tag_219\n      jump\t// in\n    tag_305:\n        /* \"#utility.yul\":5256:5395   */\n      swap3\n      swap2\n      pop\n      pop\n      jump\t// out\n        /* \"#utility.yul\":5401:5730   */\n    tag_29:\n        /* \"#utility.yul\":5460:5466   */\n      0x00\n        /* \"#utility.yul\":5509:5511   */\n      0x20\n        /* \"#utility.yul\":5497:5506   */\n      dup3\n        /* \"#utility.yul\":5488:5495   */\n      dup5\n        /* \"#utility.yul\":5484:5507   */\n      sub\n        /* \"#utility.yul\":5480:5512   */\n      slt\n        /* \"#utility.yul\":5477:5596   */\n      iszero\n      tag_307\n      jumpi\n        /* \"#utility.yul\":5515:5594   */\n      tag_308\n      tag_202\n      jump\t// in\n    tag_308:\n        /* \"#utility.yul\":5477:5596   */\n    tag_307:\n        /* \"#utility.yul\":5635:5636   */\n      0x00\n        /* \"#utility.yul\":5660:5713   */\n      tag_309\n        /* \"#utility.yul\":5705:5712   */\n      dup5\n        /* \"#utility.yul\":5696:5702   */\n      dup3\n        /* \"#utility.yul\":5685:5694   */\n      dup6\n        /* \"#utility.yul\":5681:5703   */\n      add\n        /* \"#utility.yul\":5660:5713   */\n      tag_220\n      jump\t// in\n    tag_309:\n        /* \"#utility.yul\":5650:5713   */\n      swap2\n      pop\n        /* \"#utility.yul\":5606:5723   */\n      pop\n        /* \"#utility.yul\":5401:5730   */\n      swap3\n      swap2\n      pop\n      pop\n      jump\t// out\n        /* \"#utility.yul\":5736:5853   */\n    tag_221:\n        /* \"#utility.yul\":5845:5846   */\n      0x00\n        /* \"#utility.yul\":5842:5843   */\n      dup1\n        /* \"#utility.yul\":5835:5847   */\n      revert\n        /* \"#utility.yul\":5859:6039   */\n    tag_222:\n        /* \"#utility.yul\":5907:5984   */\n      0x4e487b7100000000000000000000000000000000000000000000000000000000\n        /* \"#utility.yul\":5904:5905   */\n      0x00\n        /* \"#utility.yul\":5897:5985   */\n      mstore\n        /* \"#utility.yul\":6004:6008   */\n      0x41\n        /* \"#utility.yul\":6001:6002   */\n      0x04\n        /* \"#utility.yul\":5994:6009   */\n      mstore\n        /* \"#utility.yul\":6028:6032   */\n      0x24\n        /* \"#utility.yul\":6025:6026   */\n      0x00\n        /* \"#utility.yul\":6018:6033   */\n      revert\n        /* \"#utility.yul\":6045:6326   */\n    tag_223:\n        /* \"#utility.yul\":6128:6155   */\n      tag_313\n        /* \"#utility.yul\":6150:6154   */\n      dup3\n        /* \"#utility.yul\":6128:6155   */\n      tag_210\n      jump\t// in\n    tag_313:\n        /* \"#utility.yul\":6120:6126   */\n      dup2\n        /* \"#utility.yul\":6116:6156   */\n      add\n        /* \"#utility.yul\":6258:6264   */\n      dup2\n        /* \"#utility.yul\":6246:6256   */\n      dup2\n        /* \"#utility.yul\":6243:6265   */\n      lt\n        /* \"#utility.yul\":6222:6240   */\n      0xffffffffffffffff\n        /* \"#utility.yul\":6210:6220   */\n      dup3\n        /* \"#utility.yul\":6207:6241   */\n      gt\n        /* \"#utility.yul\":6204:6266   */\n      or\n        /* \"#utility.yul\":6201:6289   */\n      iszero\n      tag_314\n      jumpi\n        /* \"#utility.yul\":6269:6287   */\n      tag_315\n      tag_222\n      jump\t// in\n    tag_315:\n        /* \"#utility.yul\":6201:6289   */\n    tag_314:\n        /* \"#utility.yul\":6309:6319   */\n      dup1\n        /* \"#utility.yul\":6305:6307   */\n      0x40\n        /* \"#utility.yul\":6298:6320   */\n      mstore\n        /* \"#utility.yul\":6088:6326   */\n      pop\n        /* \"#utility.yul\":6045:6326   */\n      pop\n      pop\n      jump\t// out\n        /* \"#utility.yul\":6332:6461   */\n    tag_224:\n        /* \"#utility.yul\":6366:6372   */\n      0x00\n        /* \"#utility.yul\":6393:6413   */\n      tag_317\n      tag_201\n      jump\t// in\n    tag_317:\n        /* \"#utility.yul\":6383:6413   */\n      swap1\n      pop\n        /* \"#utility.yul\":6422:6455   */\n      tag_318\n        /* \"#utility.yul\":6450:6454   */\n      dup3\n        /* \"#utility.yul\":6442:6448   */\n      dup3\n        /* \"#utility.yul\":6422:6455   */\n      tag_223\n      jump\t// in\n    tag_318:\n        /* \"#utility.yul\":6332:6461   */\n      swap2\n      swap1\n      pop\n      jump\t// out\n        /* \"#utility.yul\":6467:6778   */\n    tag_225:\n        /* \"#utility.yul\":6544:6548   */\n      0x00\n        /* \"#utility.yul\":6634:6652   */\n      0xffffffffffffffff\n        /* \"#utility.yul\":6626:6632   */\n      dup3\n        /* \"#utility.yul\":6623:6653   */\n      gt\n        /* \"#utility.yul\":6620:6676   */\n      iszero\n      tag_320\n      jumpi\n        /* \"#utility.yul\":6656:6674   */\n      tag_321\n      tag_222\n      jump\t// in\n    tag_321:\n        /* \"#utility.yul\":6620:6676   */\n    tag_320:\n        /* \"#utility.yul\":6706:6710   */\n      0x20\n        /* \"#utility.yul\":6698:6704   */\n      dup3\n        /* \"#utility.yul\":6694:6711   */\n      mul\n        /* \"#utility.yul\":6686:6711   */\n      swap1\n      pop\n        /* \"#utility.yul\":6766:6770   */\n      0x20\n        /* \"#utility.yul\":6760:6764   */\n      dup2\n        /* \"#utility.yul\":6756:6771   */\n      add\n        /* \"#utility.yul\":6748:6771   */\n      swap1\n      pop\n        /* \"#utility.yul\":6467:6778   */\n      swap2\n      swap1\n      pop\n      jump\t// out\n        /* \"#utility.yul\":6784:6901   */\n    tag_226:\n        /* \"#utility.yul\":6893:6894   */\n      0x00\n        /* \"#utility.yul\":6890:6891   */\n      dup1\n        /* \"#utility.yul\":6883:6895   */\n      revert\n        /* \"#utility.yul\":6924:7634   */\n    tag_227:\n        /* \"#utility.yul\":7020:7025   */\n      0x00\n        /* \"#utility.yul\":7045:7126   */\n      tag_324\n        /* \"#utility.yul\":7061:7125   */\n      tag_325\n        /* \"#utility.yul\":7118:7124   */\n      dup5\n        /* \"#utility.yul\":7061:7125   */\n      tag_225\n      jump\t// in\n    tag_325:\n        /* \"#utility.yul\":7045:7126   */\n      tag_224\n      jump\t// in\n    tag_324:\n        /* \"#utility.yul\":7036:7126   */\n      swap1\n      pop\n        /* \"#utility.yul\":7146:7151   */\n      dup1\n        /* \"#utility.yul\":7175:7181   */\n      dup4\n        /* \"#utility.yul\":7168:7173   */\n      dup3\n        /* \"#utility.yul\":7161:7182   */\n      mstore\n        /* \"#utility.yul\":7209:7213   */\n      0x20\n        /* \"#utility.yul\":7202:7207   */\n      dup3\n        /* \"#utility.yul\":7198:7214   */\n      add\n        /* \"#utility.yul\":7191:7214   */\n      swap1\n      pop\n        /* \"#utility.yul\":7262:7266   */\n      0x20\n        /* \"#utility.yul\":7254:7260   */\n      dup5\n        /* \"#utility.yul\":7250:7267   */\n      mul\n        /* \"#utility.yul\":7242:7248   */\n      dup4\n        /* \"#utility.yul\":7238:7268   */\n      add\n        /* \"#utility.yul\":7291:7294   */\n      dup6\n        /* \"#utility.yul\":7283:7289   */\n      dup2\n        /* \"#utility.yul\":7280:7295   */\n      gt\n        /* \"#utility.yul\":7277:7399   */\n      iszero\n      tag_326\n      jumpi\n        /* \"#utility.yul\":7310:7389   */\n      tag_327\n      tag_226\n      jump\t// in\n    tag_327:\n        /* \"#utility.yul\":7277:7399   */\n    tag_326:\n        /* \"#utility.yul\":7425:7431   */\n      dup4\n        /* \"#utility.yul\":7408:7628   */\n    tag_328:\n        /* \"#utility.yul\":7442:7448   */\n      dup2\n        /* \"#utility.yul\":7437:7440   */\n      dup2\n        /* \"#utility.yul\":7434:7449   */\n      lt\n        /* \"#utility.yul\":7408:7628   */\n      iszero\n      tag_330\n      jumpi\n        /* \"#utility.yul\":7517:7520   */\n      dup1\n        /* \"#utility.yul\":7546:7583   */\n      tag_331\n        /* \"#utility.yul\":7579:7582   */\n      dup9\n        /* \"#utility.yul\":7567:7577   */\n      dup3\n        /* \"#utility.yul\":7546:7583   */\n      tag_206\n      jump\t// in\n    tag_331:\n        /* \"#utility.yul\":7541:7544   */\n      dup5\n        /* \"#utility.yul\":7534:7584   */\n      mstore\n        /* \"#utility.yul\":7613:7617   */\n      0x20\n        /* \"#utility.yul\":7608:7611   */\n      dup5\n        /* \"#utility.yul\":7604:7618   */\n      add\n        /* \"#utility.yul\":7597:7618   */\n      swap4\n      pop\n        /* \"#utility.yul\":7484:7628   */\n      pop\n        /* \"#utility.yul\":7468:7472   */\n      0x20\n        /* \"#utility.yul\":7463:7466   */\n      dup2\n        /* \"#utility.yul\":7459:7473   */\n      add\n        /* \"#utility.yul\":7452:7473   */\n      swap1\n      pop\n        /* \"#utility.yul\":7408:7628   */\n      jump(tag_328)\n    tag_330:\n        /* \"#utility.yul\":7412:7433   */\n      pop\n        /* \"#utility.yul\":7026:7634   */\n      pop\n      pop\n        /* \"#utility.yul\":6924:7634   */\n      swap4\n      swap3\n      pop\n      pop\n      pop\n      jump\t// out\n        /* \"#utility.yul\":7657:8027   */\n    tag_228:\n        /* \"#utility.yul\":7728:7733   */\n      0x00\n        /* \"#utility.yul\":7777:7780   */\n      dup3\n        /* \"#utility.yul\":7770:7774   */\n      0x1f\n        /* \"#utility.yul\":7762:7768   */\n      dup4\n        /* \"#utility.yul\":7758:7775   */\n      add\n        /* \"#utility.yul\":7754:7781   */\n      slt\n        /* \"#utility.yul\":7744:7866   */\n      tag_333\n      jumpi\n        /* \"#utility.yul\":7785:7864   */\n      tag_334\n      tag_221\n      jump\t// in\n    tag_334:\n        /* \"#utility.yul\":7744:7866   */\n    tag_333:\n        /* \"#utility.yul\":7902:7908   */\n      dup2\n        /* \"#utility.yul\":7889:7909   */\n      calldataload\n        /* \"#utility.yul\":7927:8021   */\n      tag_335\n        /* \"#utility.yul\":8017:8020   */\n      dup5\n        /* \"#utility.yul\":8009:8015   */\n      dup3\n        /* \"#utility.yul\":8002:8006   */\n      0x20\n        /* \"#utility.yul\":7994:8000   */\n      dup7\n        /* \"#utility.yul\":7990:8007   */\n      add\n        /* \"#utility.yul\":7927:8021   */\n      tag_227\n      jump\t// in\n    tag_335:\n        /* \"#utility.yul\":7918:8021   */\n      swap2\n      pop\n        /* \"#utility.yul\":7734:8027   */\n      pop\n        /* \"#utility.yul\":7657:8027   */\n      swap3\n      swap2\n      pop\n      pop\n      jump\t// out\n        /* \"#utility.yul\":8033:8862   */\n    tag_33:\n        /* \"#utility.yul\":8135:8141   */\n      0x00\n        /* \"#utility.yul\":8143:8149   */\n      dup1\n        /* \"#utility.yul\":8151:8157   */\n      0x00\n        /* \"#utility.yul\":8200:8202   */\n      0x60\n        /* \"#utility.yul\":8188:8197   */\n      dup5\n        /* \"#utility.yul\":8179:8186   */\n      dup7\n        /* \"#utility.yul\":8175:8198   */\n      sub\n        /* \"#utility.yul\":8171:8203   */\n      slt\n        /* \"#utility.yul\":8168:8287   */\n      iszero\n      tag_337\n      jumpi\n        /* \"#utility.yul\":8206:8285   */\n      tag_338\n      tag_202\n      jump\t// in\n    tag_338:\n        /* \"#utility.yul\":8168:8287   */\n    tag_337:\n        /* \"#utility.yul\":8354:8355   */\n      0x00\n        /* \"#utility.yul\":8343:8352   */\n      dup5\n        /* \"#utility.yul\":8339:8356   */\n      add\n        /* \"#utility.yul\":8326:8357   */\n      calldataload\n        /* \"#utility.yul\":8384:8402   */\n      0xffffffffffffffff\n        /* \"#utility.yul\":8376:8382   */\n      dup2\n        /* \"#utility.yul\":8373:8403   */\n      gt\n        /* \"#utility.yul\":8370:8487   */\n      iszero\n      tag_339\n      jumpi\n        /* \"#utility.yul\":8406:8485   */\n      tag_340\n      tag_203\n      jump\t// in\n    tag_340:\n        /* \"#utility.yul\":8370:8487   */\n    tag_339:\n        /* \"#utility.yul\":8511:8589   */\n      tag_341\n        /* \"#utility.yul\":8581:8588   */\n      dup7\n        /* \"#utility.yul\":8572:8578   */\n      dup3\n        /* \"#utility.yul\":8561:8570   */\n      dup8\n        /* \"#utility.yul\":8557:8579   */\n      add\n        /* \"#utility.yul\":8511:8589   */\n      tag_228\n      jump\t// in\n    tag_341:\n        /* \"#utility.yul\":8501:8589   */\n      swap4\n      pop\n        /* \"#utility.yul\":8297:8599   */\n      pop\n        /* \"#utility.yul\":8638:8640   */\n      0x20\n        /* \"#utility.yul\":8664:8717   */\n      tag_342\n        /* \"#utility.yul\":8709:8716   */\n      dup7\n        /* \"#utility.yul\":8700:8706   */\n      dup3\n        /* \"#utility.yul\":8689:8698   */\n      dup8\n        /* \"#utility.yul\":8685:8707   */\n      add\n        /* \"#utility.yul\":8664:8717   */\n      tag_206\n      jump\t// in\n    tag_342:\n        /* \"#utility.yul\":8654:8717   */\n      swap3\n      pop\n        /* \"#utility.yul\":8609:8727   */\n      pop\n        /* \"#utility.yul\":8766:8768   */\n      0x40\n        /* \"#utility.yul\":8792:8845   */\n      tag_343\n        /* \"#utility.yul\":8837:8844   */\n      dup7\n        /* \"#utility.yul\":8828:8834   */\n      dup3\n        /* \"#utility.yul\":8817:8826   */\n      dup8\n        /* \"#utility.yul\":8813:8835   */\n      add\n        /* \"#utility.yul\":8792:8845   */\n      tag_206\n      jump\t// in\n    tag_343:\n        /* \"#utility.yul\":8782:8845   */\n      swap2\n      pop\n        /* \"#utility.yul\":8737:8855   */\n      pop\n        /* \"#utility.yul\":8033:8862   */\n      swap3\n      pop\n      swap3\n      pop\n      swap3\n      jump\t// out\n        /* \"#utility.yul\":8868:8928   */\n    tag_229:\n        /* \"#utility.yul\":8896:8899   */\n      0x00\n        /* \"#utility.yul\":8917:8922   */\n      dup2\n        /* \"#utility.yul\":8910:8922   */\n      swap1\n      pop\n        /* \"#utility.yul\":8868:8928   */\n      swap2\n      swap1\n      pop\n      jump\t// out\n        /* \"#utility.yul\":8934:9076   */\n    tag_230:\n        /* \"#utility.yul\":8984:8993   */\n      0x00\n        /* \"#utility.yul\":9017:9070   */\n      tag_346\n        /* \"#utility.yul\":9035:9069   */\n      tag_347\n        /* \"#utility.yul\":9044:9068   */\n      tag_348\n        /* \"#utility.yul\":9062:9067   */\n      dup5\n        /* \"#utility.yul\":9044:9068   */\n      tag_217\n      jump\t// in\n    tag_348:\n        /* \"#utility.yul\":9035:9069   */\n      tag_229\n      jump\t// in\n    tag_347:\n        /* \"#utility.yul\":9017:9070   */\n      tag_217\n      jump\t// in\n    tag_346:\n        /* \"#utility.yul\":9004:9070   */\n      swap1\n      pop\n        /* \"#utility.yul\":8934:9076   */\n      swap2\n      swap1\n      pop\n      jump\t// out\n        /* \"#utility.yul\":9082:9208   */\n    tag_231:\n        /* \"#utility.yul\":9132:9141   */\n      0x00\n        /* \"#utility.yul\":9165:9202   */\n      tag_350\n        /* \"#utility.yul\":9196:9201   */\n      dup3\n        /* \"#utility.yul\":9165:9202   */\n      tag_230\n      jump\t// in\n    tag_350:\n        /* \"#utility.yul\":9152:9202   */\n      swap1\n      pop\n        /* \"#utility.yul\":9082:9208   */\n      swap2\n      swap1\n      pop\n      jump\t// out\n        /* \"#utility.yul\":9214:9355   */\n    tag_232:\n        /* \"#utility.yul\":9279:9288   */\n      0x00\n        /* \"#utility.yul\":9312:9349   */\n      tag_352\n        /* \"#utility.yul\":9343:9348   */\n      dup3\n        /* \"#utility.yul\":9312:9349   */\n      tag_231\n      jump\t// in\n    tag_352:\n        /* \"#utility.yul\":9299:9349   */\n      swap1\n      pop\n        /* \"#utility.yul\":9214:9355   */\n      swap2\n      swap1\n      pop\n      jump\t// out\n        /* \"#utility.yul\":9361:9522   */\n    tag_233:\n        /* \"#utility.yul\":9463:9515   */\n      tag_354\n        /* \"#utility.yul\":9509:9514   */\n      dup2\n        /* \"#utility.yul\":9463:9515   */\n      tag_232\n      jump\t// in\n    tag_354:\n        /* \"#utility.yul\":9458:9461   */\n      dup3\n        /* \"#utility.yul\":9451:9516   */\n      mstore\n        /* \"#utility.yul\":9361:9522   */\n      pop\n      pop\n      jump\t// out\n        /* \"#utility.yul\":9528:9780   */\n    tag_38:\n        /* \"#utility.yul\":9636:9640   */\n      0x00\n        /* \"#utility.yul\":9674:9676   */\n      0x20\n        /* \"#utility.yul\":9663:9672   */\n      dup3\n        /* \"#utility.yul\":9659:9677   */\n      add\n        /* \"#utility.yul\":9651:9677   */\n      swap1\n      pop\n        /* \"#utility.yul\":9687:9773   */\n      tag_356\n        /* \"#utility.yul\":9770:9771   */\n      0x00\n        /* \"#utility.yul\":9759:9768   */\n      dup4\n        /* \"#utility.yul\":9755:9772   */\n      add\n        /* \"#utility.yul\":9746:9752   */\n      dup5\n        /* \"#utility.yul\":9687:9773   */\n      tag_233\n      jump\t// in\n    tag_356:\n        /* \"#utility.yul\":9528:9780   */\n      swap3\n      swap2\n      pop\n      pop\n      jump\t// out\n        /* \"#utility.yul\":9786:9904   */\n    tag_234:\n        /* \"#utility.yul\":9873:9897   */\n      tag_358\n        /* \"#utility.yul\":9891:9896   */\n      dup2\n        /* \"#utility.yul\":9873:9897   */\n      tag_218\n      jump\t// in\n    tag_358:\n        /* \"#utility.yul\":9868:9871   */\n      dup3\n        /* \"#utility.yul\":9861:9898   */\n      mstore\n        /* \"#utility.yul\":9786:9904   */\n      pop\n      pop\n      jump\t// out\n        /* \"#utility.yul\":9910:10132   */\n    tag_48:\n        /* \"#utility.yul\":10003:10007   */\n      0x00\n        /* \"#utility.yul\":10041:10043   */\n      0x20\n        /* \"#utility.yul\":10030:10039   */\n      dup3\n        /* \"#utility.yul\":10026:10044   */\n      add\n        /* \"#utility.yul\":10018:10044   */\n      swap1\n      pop\n        /* \"#utility.yul\":10054:10125   */\n      tag_360\n        /* \"#utility.yul\":10122:10123   */\n      0x00\n        /* \"#utility.yul\":10111:10120   */\n      dup4\n        /* \"#utility.yul\":10107:10124   */\n      add\n        /* \"#utility.yul\":10098:10104   */\n      dup5\n        /* \"#utility.yul\":10054:10125   */\n      tag_234\n      jump\t// in\n    tag_360:\n        /* \"#utility.yul\":9910:10132   */\n      swap3\n      swap2\n      pop\n      pop\n      jump\t// out\n        /* \"#utility.yul\":10138:10612   */\n    tag_51:\n        /* \"#utility.yul\":10206:10212   */\n      0x00\n        /* \"#utility.yul\":10214:10220   */\n      dup1\n        /* \"#utility.yul\":10263:10265   */\n      0x40\n        /* \"#utility.yul\":10251:10260   */\n      dup4\n        /* \"#utility.yul\":10242:10249   */\n      dup6\n        /* \"#utility.yul\":10238:10261   */\n      sub\n        /* \"#utility.yul\":10234:10266   */\n      slt\n        /* \"#utility.yul\":10231:10350   */\n      iszero\n      tag_362\n      jumpi\n        /* \"#utility.yul\":10269:10348   */\n      tag_363\n      tag_202\n      jump\t// in\n    tag_363:\n        /* \"#utility.yul\":10231:10350   */\n    tag_362:\n        /* \"#utility.yul\":10389:10390   */\n      0x00\n        /* \"#utility.yul\":10414:10467   */\n      tag_364\n        /* \"#utility.yul\":10459:10466   */\n      dup6\n        /* \"#utility.yul\":10450:10456   */\n      dup3\n        /* \"#utility.yul\":10439:10448   */\n      dup7\n        /* \"#utility.yul\":10435:10457   */\n      add\n        /* \"#utility.yul\":10414:10467   */\n      tag_206\n      jump\t// in\n    tag_364:\n        /* \"#utility.yul\":10404:10467   */\n      swap3\n      pop\n        /* \"#utility.yul\":10360:10477   */\n      pop\n        /* \"#utility.yul\":10516:10518   */\n      0x20\n        /* \"#utility.yul\":10542:10595   */\n      tag_365\n        /* \"#utility.yul\":10587:10594   */\n      dup6\n        /* \"#utility.yul\":10578:10584   */\n      dup3\n        /* \"#utility.yul\":10567:10576   */\n      dup7\n        /* \"#utility.yul\":10563:10585   */\n      add\n        /* \"#utility.yul\":10542:10595   */\n      tag_206\n      jump\t// in\n    tag_365:\n        /* \"#utility.yul\":10532:10595   */\n      swap2\n      pop\n        /* \"#utility.yul\":10487:10605   */\n      pop\n        /* \"#utility.yul\":10138:10612   */\n      swap3\n      pop\n      swap3\n      swap1\n      pop\n      jump\t// out\n        /* \"#utility.yul\":10618:10840   */\n    tag_66:\n        /* \"#utility.yul\":10711:10715   */\n      0x00\n        /* \"#utility.yul\":10749:10751   */\n      0x20\n        /* \"#utility.yul\":10738:10747   */\n      dup3\n        /* \"#utility.yul\":10734:10752   */\n      add\n        /* \"#utility.yul\":10726:10752   */\n      swap1\n      pop\n        /* \"#utility.yul\":10762:10833   */\n      tag_367\n        /* \"#utility.yul\":10830:10831   */\n      0x00\n        /* \"#utility.yul\":10819:10828   */\n      dup4\n        /* \"#utility.yul\":10815:10832   */\n      add\n        /* \"#utility.yul\":10806:10812   */\n      dup5\n        /* \"#utility.yul\":10762:10833   */\n      tag_216\n      jump\t// in\n    tag_367:\n        /* \"#utility.yul\":10618:10840   */\n      swap3\n      swap2\n      pop\n      pop\n      jump\t// out\n        /* \"#utility.yul\":10846:10989   */\n    tag_235:\n        /* \"#utility.yul\":10903:10908   */\n      0x00\n        /* \"#utility.yul\":10934:10940   */\n      dup2\n        /* \"#utility.yul\":10928:10941   */\n      mload\n        /* \"#utility.yul\":10919:10941   */\n      swap1\n      pop\n        /* \"#utility.yul\":10950:10983   */\n      tag_369\n        /* \"#utility.yul\":10977:10982   */\n      dup2\n        /* \"#utility.yul\":10950:10983   */\n      tag_219\n      jump\t// in\n    tag_369:\n        /* \"#utility.yul\":10846:10989   */\n      swap3\n      swap2\n      pop\n      pop\n      jump\t// out\n        /* \"#utility.yul\":10995:11346   */\n    tag_70:\n        /* \"#utility.yul\":11065:11071   */\n      0x00\n        /* \"#utility.yul\":11114:11116   */\n      0x20\n        /* \"#utility.yul\":11102:11111   */\n      dup3\n        /* \"#utility.yul\":11093:11100   */\n      dup5\n        /* \"#utility.yul\":11089:11112   */\n      sub\n        /* \"#utility.yul\":11085:11117   */\n      slt\n        /* \"#utility.yul\":11082:11201   */\n      iszero\n      tag_371\n      jumpi\n        /* \"#utility.yul\":11120:11199   */\n      tag_372\n      tag_202\n      jump\t// in\n    tag_372:\n        /* \"#utility.yul\":11082:11201   */\n    tag_371:\n        /* \"#utility.yul\":11240:11241   */\n      0x00\n        /* \"#utility.yul\":11265:11329   */\n      tag_373\n        /* \"#utility.yul\":11321:11328   */\n      dup5\n        /* \"#utility.yul\":11312:11318   */\n      dup3\n        /* \"#utility.yul\":11301:11310   */\n      dup6\n        /* \"#utility.yul\":11297:11319   */\n      add\n        /* \"#utility.yul\":11265:11329   */\n      tag_235\n      jump\t// in\n    tag_373:\n        /* \"#utility.yul\":11255:11329   */\n      swap2\n      pop\n        /* \"#utility.yul\":11211:11339   */\n      pop\n        /* \"#utility.yul\":10995:11346   */\n      swap3\n      swap2\n      pop\n      pop\n      jump\t// out\n        /* \"#utility.yul\":11352:11520   */\n    tag_236:\n        /* \"#utility.yul\":11492:11512   */\n      0x4e465420646f6573206e6f742065786973740000000000000000000000000000\n        /* \"#utility.yul\":11488:11489   */\n      0x00\n        /* \"#utility.yul\":11480:11486   */\n      dup3\n        /* \"#utility.yul\":11476:11490   */\n      add\n        /* \"#utility.yul\":11469:11513   */\n      mstore\n        /* \"#utility.yul\":11352:11520   */\n      pop\n      jump\t// out\n        /* \"#utility.yul\":11526:11892   */\n    tag_237:\n        /* \"#utility.yul\":11668:11671   */\n      0x00\n        /* \"#utility.yul\":11689:11756   */\n      tag_376\n        /* \"#utility.yul\":11753:11755   */\n      0x12\n        /* \"#utility.yul\":11748:11751   */\n      dup4\n        /* \"#utility.yul\":11689:11756   */\n      tag_214\n      jump\t// in\n    tag_376:\n        /* \"#utility.yul\":11682:11756   */\n      swap2\n      pop\n        /* \"#utility.yul\":11765:11858   */\n      tag_377\n        /* \"#utility.yul\":11854:11857   */\n      dup3\n        /* \"#utility.yul\":11765:11858   */\n      tag_236\n      jump\t// in\n    tag_377:\n        /* \"#utility.yul\":11883:11885   */\n      0x20\n        /* \"#utility.yul\":11878:11881   */\n      dup3\n        /* \"#utility.yul\":11874:11886   */\n      add\n        /* \"#utility.yul\":11867:11886   */\n      swap1\n      pop\n        /* \"#utility.yul\":11526:11892   */\n      swap2\n      swap1\n      pop\n      jump\t// out\n        /* \"#utility.yul\":11898:12317   */\n    tag_73:\n        /* \"#utility.yul\":12064:12068   */\n      0x00\n        /* \"#utility.yul\":12102:12104   */\n      0x20\n        /* \"#utility.yul\":12091:12100   */\n      dup3\n        /* \"#utility.yul\":12087:12105   */\n      add\n        /* \"#utility.yul\":12079:12105   */\n      swap1\n      pop\n        /* \"#utility.yul\":12151:12160   */\n      dup2\n        /* \"#utility.yul\":12145:12149   */\n      dup2\n        /* \"#utility.yul\":12141:12161   */\n      sub\n        /* \"#utility.yul\":12137:12138   */\n      0x00\n        /* \"#utility.yul\":12126:12135   */\n      dup4\n        /* \"#utility.yul\":12122:12139   */\n      add\n        /* \"#utility.yul\":12115:12162   */\n      mstore\n        /* \"#utility.yul\":12179:12310   */\n      tag_379\n        /* \"#utility.yul\":12305:12309   */\n      dup2\n        /* \"#utility.yul\":12179:12310   */\n      tag_237\n      jump\t// in\n    tag_379:\n        /* \"#utility.yul\":12171:12310   */\n      swap1\n      pop\n        /* \"#utility.yul\":11898:12317   */\n      swap2\n      swap1\n      pop\n      jump\t// out\n        /* \"#utility.yul\":12323:12503   */\n    tag_238:\n        /* \"#utility.yul\":12371:12448   */\n      0x4e487b7100000000000000000000000000000000000000000000000000000000\n        /* \"#utility.yul\":12368:12369   */\n      0x00\n        /* \"#utility.yul\":12361:12449   */\n      mstore\n        /* \"#utility.yul\":12468:12472   */\n      0x22\n        /* \"#utility.yul\":12465:12466   */\n      0x04\n        /* \"#utility.yul\":12458:12473   */\n      mstore\n        /* \"#utility.yul\":12492:12496   */\n      0x24\n        /* \"#utility.yul\":12489:12490   */\n      0x00\n        /* \"#utility.yul\":12482:12497   */\n      revert\n        /* \"#utility.yul\":12509:12829   */\n    tag_75:\n        /* \"#utility.yul\":12553:12559   */\n      0x00\n        /* \"#utility.yul\":12590:12591   */\n      0x02\n        /* \"#utility.yul\":12584:12588   */\n      dup3\n        /* \"#utility.yul\":12580:12592   */\n      div\n        /* \"#utility.yul\":12570:12592   */\n      swap1\n      pop\n        /* \"#utility.yul\":12637:12638   */\n      0x01\n        /* \"#utility.yul\":12631:12635   */\n      dup3\n        /* \"#utility.yul\":12627:12639   */\n      and\n        /* \"#utility.yul\":12658:12676   */\n      dup1\n        /* \"#utility.yul\":12648:12729   */\n      tag_382\n      jumpi\n        /* \"#utility.yul\":12714:12718   */\n      0x7f\n        /* \"#utility.yul\":12706:12712   */\n      dup3\n        /* \"#utility.yul\":12702:12719   */\n      and\n        /* \"#utility.yul\":12692:12719   */\n      swap2\n      pop\n        /* \"#utility.yul\":12648:12729   */\n    tag_382:\n        /* \"#utility.yul\":12776:12778   */\n      0x20\n        /* \"#utility.yul\":12768:12774   */\n      dup3\n        /* \"#utility.yul\":12765:12779   */\n      lt\n        /* \"#utility.yul\":12745:12763   */\n      dup2\n        /* \"#utility.yul\":12742:12780   */\n      sub\n        /* \"#utility.yul\":12739:12823   */\n      tag_383\n      jumpi\n        /* \"#utility.yul\":12795:12813   */\n      tag_384\n      tag_238\n      jump\t// in\n    tag_384:\n        /* \"#utility.yul\":12739:12823   */\n    tag_383:\n        /* \"#utility.yul\":12560:12829   */\n      pop\n        /* \"#utility.yul\":12509:12829   */\n      swap2\n      swap1\n      pop\n      jump\t// out\n        /* \"#utility.yul\":12835:13015   */\n    tag_98:\n        /* \"#utility.yul\":12883:12960   */\n      0x4e487b7100000000000000000000000000000000000000000000000000000000\n        /* \"#utility.yul\":12880:12881   */\n      0x00\n        /* \"#utility.yul\":12873:12961   */\n      mstore\n        /* \"#utility.yul\":12980:12984   */\n      0x32\n        /* \"#utility.yul\":12977:12978   */\n      0x04\n        /* \"#utility.yul\":12970:12985   */\n      mstore\n        /* \"#utility.yul\":13004:13008   */\n      0x24\n        /* \"#utility.yul\":13001:13002   */\n      0x00\n        /* \"#utility.yul\":12994:13009   */\n      revert\n        /* \"#utility.yul\":13021:13201   */\n    tag_239:\n        /* \"#utility.yul\":13069:13146   */\n      0x4e487b7100000000000000000000000000000000000000000000000000000000\n        /* \"#utility.yul\":13066:13067   */\n      0x00\n        /* \"#utility.yul\":13059:13147   */\n      mstore\n        /* \"#utility.yul\":13166:13170   */\n      0x11\n        /* \"#utility.yul\":13163:13164   */\n      0x04\n        /* \"#utility.yul\":13156:13171   */\n      mstore\n        /* \"#utility.yul\":13190:13194   */\n      0x24\n        /* \"#utility.yul\":13187:13188   */\n      0x00\n        /* \"#utility.yul\":13180:13195   */\n      revert\n        /* \"#utility.yul\":13207:13398   */\n    tag_100:\n        /* \"#utility.yul\":13247:13250   */\n      0x00\n        /* \"#utility.yul\":13266:13286   */\n      tag_388\n        /* \"#utility.yul\":13284:13285   */\n      dup3\n        /* \"#utility.yul\":13266:13286   */\n      tag_204\n      jump\t// in\n    tag_388:\n        /* \"#utility.yul\":13261:13286   */\n      swap2\n      pop\n        /* \"#utility.yul\":13300:13320   */\n      tag_389\n        /* \"#utility.yul\":13318:13319   */\n      dup4\n        /* \"#utility.yul\":13300:13320   */\n      tag_204\n      jump\t// in\n    tag_389:\n        /* \"#utility.yul\":13295:13320   */\n      swap3\n      pop\n        /* \"#utility.yul\":13343:13344   */\n      dup3\n        /* \"#utility.yul\":13340:13341   */\n      dup3\n        /* \"#utility.yul\":13336:13345   */\n      add\n        /* \"#utility.yul\":13329:13345   */\n      swap1\n      pop\n        /* \"#utility.yul\":13364:13367   */\n      dup1\n        /* \"#utility.yul\":13361:13362   */\n      dup3\n        /* \"#utility.yul\":13358:13368   */\n      gt\n        /* \"#utility.yul\":13355:13391   */\n      iszero\n      tag_390\n      jumpi\n        /* \"#utility.yul\":13371:13389   */\n      tag_391\n      tag_239\n      jump\t// in\n    tag_391:\n        /* \"#utility.yul\":13355:13391   */\n    tag_390:\n        /* \"#utility.yul\":13207:13398   */\n      swap3\n      swap2\n      pop\n      pop\n      jump\t// out\n        /* \"#utility.yul\":13404:13814   */\n    tag_103:\n        /* \"#utility.yul\":13444:13451   */\n      0x00\n        /* \"#utility.yul\":13467:13487   */\n      tag_393\n        /* \"#utility.yul\":13485:13486   */\n      dup3\n        /* \"#utility.yul\":13467:13487   */\n      tag_204\n      jump\t// in\n    tag_393:\n        /* \"#utility.yul\":13462:13487   */\n      swap2\n      pop\n        /* \"#utility.yul\":13501:13521   */\n      tag_394\n        /* \"#utility.yul\":13519:13520   */\n      dup4\n        /* \"#utility.yul\":13501:13521   */\n      tag_204\n      jump\t// in\n    tag_394:\n        /* \"#utility.yul\":13496:13521   */\n      swap3\n      pop\n        /* \"#utility.yul\":13556:13557   */\n      dup3\n        /* \"#utility.yul\":13553:13554   */\n      dup3\n        /* \"#utility.yul\":13549:13558   */\n      mul\n        /* \"#utility.yul\":13578:13608   */\n      tag_395\n        /* \"#utility.yul\":13596:13607   */\n      dup2\n        /* \"#utility.yul\":13578:13608   */\n      tag_204\n      jump\t// in\n    tag_395:\n        /* \"#utility.yul\":13567:13608   */\n      swap2\n      pop\n        /* \"#utility.yul\":13757:13758   */\n      dup3\n        /* \"#utility.yul\":13748:13755   */\n      dup3\n        /* \"#utility.yul\":13744:13759   */\n      div\n        /* \"#utility.yul\":13741:13742   */\n      dup5\n        /* \"#utility.yul\":13738:13760   */\n      eq\n        /* \"#utility.yul\":13718:13719   */\n      dup4\n        /* \"#utility.yul\":13711:13720   */\n      iszero\n        /* \"#utility.yul\":13691:13774   */\n      or\n        /* \"#utility.yul\":13668:13807   */\n      tag_396\n      jumpi\n        /* \"#utility.yul\":13787:13805   */\n      tag_397\n      tag_239\n      jump\t// in\n    tag_397:\n        /* \"#utility.yul\":13668:13807   */\n    tag_396:\n        /* \"#utility.yul\":13452:13814   */\n      pop\n        /* \"#utility.yul\":13404:13814   */\n      swap3\n      swap2\n      pop\n      pop\n      jump\t// out\n        /* \"#utility.yul\":13820:13896   */\n    tag_240:\n        /* \"#utility.yul\":13856:13863   */\n      0x00\n        /* \"#utility.yul\":13885:13890   */\n      dup2\n        /* \"#utility.yul\":13874:13890   */\n      swap1\n      pop\n        /* \"#utility.yul\":13820:13896   */\n      swap2\n      swap1\n      pop\n      jump\t// out\n        /* \"#utility.yul\":13902:14277   */\n    tag_105:\n        /* \"#utility.yul\":13941:13944   */\n      0x00\n        /* \"#utility.yul\":13960:13979   */\n      tag_400\n        /* \"#utility.yul\":13977:13978   */\n      dup3\n        /* \"#utility.yul\":13960:13979   */\n      tag_240\n      jump\t// in\n    tag_400:\n        /* \"#utility.yul\":13955:13979   */\n      swap2\n      pop\n        /* \"#utility.yul\":13993:14012   */\n      tag_401\n        /* \"#utility.yul\":14010:14011   */\n      dup4\n        /* \"#utility.yul\":13993:14012   */\n      tag_240\n      jump\t// in\n    tag_401:\n        /* \"#utility.yul\":13988:14012   */\n      swap3\n      pop\n        /* \"#utility.yul\":14035:14036   */\n      dup3\n        /* \"#utility.yul\":14032:14033   */\n      dup3\n        /* \"#utility.yul\":14028:14037   */\n      add\n        /* \"#utility.yul\":14021:14037   */\n      swap1\n      pop\n        /* \"#utility.yul\":14233:14234   */\n      dup3\n        /* \"#utility.yul\":14228:14231   */\n      dup2\n        /* \"#utility.yul\":14224:14235   */\n      slt\n        /* \"#utility.yul\":14217:14236   */\n      iszero\n        /* \"#utility.yul\":14213:14214   */\n      0x00\n        /* \"#utility.yul\":14210:14211   */\n      dup4\n        /* \"#utility.yul\":14206:14215   */\n      slt\n        /* \"#utility.yul\":14202:14237   */\n      and\n        /* \"#utility.yul\":14185:14186   */\n      dup4\n        /* \"#utility.yul\":14180:14183   */\n      dup3\n        /* \"#utility.yul\":14176:14187   */\n      slt\n        /* \"#utility.yul\":14171:14172   */\n      0x00\n        /* \"#utility.yul\":14168:14169   */\n      dup5\n        /* \"#utility.yul\":14164:14173   */\n      slt\n        /* \"#utility.yul\":14157:14174   */\n      iszero\n        /* \"#utility.yul\":14153:14188   */\n      and\n        /* \"#utility.yul\":14137:14247   */\n      or\n        /* \"#utility.yul\":14134:14270   */\n      iszero\n      tag_402\n      jumpi\n        /* \"#utility.yul\":14250:14268   */\n      tag_403\n      tag_239\n      jump\t// in\n    tag_403:\n        /* \"#utility.yul\":14134:14270   */\n    tag_402:\n        /* \"#utility.yul\":13902:14277   */\n      swap3\n      swap2\n      pop\n      pop\n      jump\t// out\n        /* \"#utility.yul\":14283:14516   */\n    tag_107:\n        /* \"#utility.yul\":14322:14325   */\n      0x00\n        /* \"#utility.yul\":14345:14369   */\n      tag_405\n        /* \"#utility.yul\":14363:14368   */\n      dup3\n        /* \"#utility.yul\":14345:14369   */\n      tag_204\n      jump\t// in\n    tag_405:\n        /* \"#utility.yul\":14336:14369   */\n      swap2\n      pop\n        /* \"#utility.yul\":14391:14457   */\n      0xffffffffffffffffffffffffffffffffffffffffffffffffffffffffffffffff\n        /* \"#utility.yul\":14384:14389   */\n      dup3\n        /* \"#utility.yul\":14381:14458   */\n      sub\n        /* \"#utility.yul\":14378:14481   */\n      tag_406\n      jumpi\n        /* \"#utility.yul\":14461:14479   */\n      tag_407\n      tag_239\n      jump\t// in\n    tag_407:\n        /* \"#utility.yul\":14378:14481   */\n    tag_406:\n        /* \"#utility.yul\":14508:14509   */\n      0x01\n        /* \"#utility.yul\":14501:14506   */\n      dup3\n        /* \"#utility.yul\":14497:14510   */\n      add\n        /* \"#utility.yul\":14490:14510   */\n      swap1\n      pop\n        /* \"#utility.yul\":14283:14516   */\n      swap2\n      swap1\n      pop\n      jump\t// out\n        /* \"#utility.yul\":14522:14894   */\n    tag_111:\n        /* \"#utility.yul\":14561:14565   */\n      0x00\n        /* \"#utility.yul\":14581:14600   */\n      tag_409\n        /* \"#utility.yul\":14598:14599   */\n      dup3\n        /* \"#utility.yul\":14581:14600   */\n      tag_240\n      jump\t// in\n    tag_409:\n        /* \"#utility.yul\":14576:14600   */\n      swap2\n      pop\n        /* \"#utility.yul\":14614:14633   */\n      tag_410\n        /* \"#utility.yul\":14631:14632   */\n      dup4\n        /* \"#utility.yul\":14614:14633   */\n      tag_240\n      jump\t// in\n    tag_410:\n        /* \"#utility.yul\":14609:14633   */\n      swap3\n      pop\n        /* \"#utility.yul\":14657:14658   */\n      dup3\n        /* \"#utility.yul\":14654:14655   */\n      dup3\n        /* \"#utility.yul\":14650:14659   */\n      sub\n        /* \"#utility.yul\":14642:14659   */\n      swap1\n      pop\n        /* \"#utility.yul\":14851:14852   */\n      dup2\n        /* \"#utility.yul\":14845:14849   */\n      dup2\n        /* \"#utility.yul\":14841:14853   */\n      slt\n        /* \"#utility.yul\":14837:14838   */\n      0x00\n        /* \"#utility.yul\":14834:14835   */\n      dup5\n        /* \"#utility.yul\":14830:14839   */\n      slt\n        /* \"#utility.yul\":14826:14854   */\n      and\n        /* \"#utility.yul\":14809:14810   */\n      dup3\n        /* \"#utility.yul\":14803:14807   */\n      dup3\n        /* \"#utility.yul\":14799:14811   */\n      sgt\n        /* \"#utility.yul\":14794:14795   */\n      0x00\n        /* \"#utility.yul\":14791:14792   */\n      dup6\n        /* \"#utility.yul\":14787:14796   */\n      slt\n        /* \"#utility.yul\":14780:14797   */\n      iszero\n        /* \"#utility.yul\":14776:14812   */\n      and\n        /* \"#utility.yul\":14760:14864   */\n      or\n        /* \"#utility.yul\":14757:14887   */\n      iszero\n      tag_411\n      jumpi\n        /* \"#utility.yul\":14867:14885   */\n      tag_412\n      tag_239\n      jump\t// in\n    tag_412:\n        /* \"#utility.yul\":14757:14887   */\n    tag_411:\n        /* \"#utility.yul\":14522:14894   */\n      swap3\n      swap2\n      pop\n      pop\n      jump\t// out\n        /* \"#utility.yul\":14900:15149   */\n    tag_241:\n        /* \"#utility.yul\":15040:15074   */\n      0x4f6e6c79207468652074727573746564204e46544d616e6167656d656e742063\n        /* \"#utility.yul\":15036:15037   */\n      0x00\n        /* \"#utility.yul\":15028:15034   */\n      dup3\n        /* \"#utility.yul\":15024:15038   */\n      add\n        /* \"#utility.yul\":15017:15075   */\n      mstore\n        /* \"#utility.yul\":15109:15141   */\n      0x6f6e74726163742063616e2063616c6c20746869732066756e6374696f6e0000\n        /* \"#utility.yul\":15104:15106   */\n      0x20\n        /* \"#utility.yul\":15096:15102   */\n      dup3\n        /* \"#utility.yul\":15092:15107   */\n      add\n        /* \"#utility.yul\":15085:15142   */\n      mstore\n        /* \"#utility.yul\":14900:15149   */\n      pop\n      jump\t// out\n        /* \"#utility.yul\":15155:15521   */\n    tag_242:\n        /* \"#utility.yul\":15297:15300   */\n      0x00\n        /* \"#utility.yul\":15318:15385   */\n      tag_415\n        /* \"#utility.yul\":15382:15384   */\n      0x3e\n        /* \"#utility.yul\":15377:15380   */\n      dup4\n        /* \"#utility.yul\":15318:15385   */\n      tag_214\n      jump\t// in\n    tag_415:\n        /* \"#utility.yul\":15311:15385   */\n      swap2\n      pop\n        /* \"#utility.yul\":15394:15487   */\n      tag_416\n        /* \"#utility.yul\":15483:15486   */\n      dup3\n        /* \"#utility.yul\":15394:15487   */\n      tag_241\n      jump\t// in\n    tag_416:\n        /* \"#utility.yul\":15512:15514   */\n      0x40\n        /* \"#utility.yul\":15507:15510   */\n      dup3\n        /* \"#utility.yul\":15503:15515   */\n      add\n        /* \"#utility.yul\":15496:15515   */\n      swap1\n      pop\n        /* \"#utility.yul\":15155:15521   */\n      swap2\n      swap1\n      pop\n      jump\t// out\n        /* \"#utility.yul\":15527:15946   */\n    tag_166:\n        /* \"#utility.yul\":15693:15697   */\n      0x00\n        /* \"#utility.yul\":15731:15733   */\n      0x20\n        /* \"#utility.yul\":15720:15729   */\n      dup3\n        /* \"#utility.yul\":15716:15734   */\n      add\n        /* \"#utility.yul\":15708:15734   */\n      swap1\n      pop\n        /* \"#utility.yul\":15780:15789   */\n      dup2\n        /* \"#utility.yul\":15774:15778   */\n      dup2\n        /* \"#utility.yul\":15770:15790   */\n      sub\n        /* \"#utility.yul\":15766:15767   */\n      0x00\n        /* \"#utility.yul\":15755:15764   */\n      dup4\n        /* \"#utility.yul\":15751:15768   */\n      add\n        /* \"#utility.yul\":15744:15791   */\n      mstore\n        /* \"#utility.yul\":15808:15939   */\n      tag_418\n        /* \"#utility.yul\":15934:15938   */\n      dup2\n        /* \"#utility.yul\":15808:15939   */\n      tag_242\n      jump\t// in\n    tag_418:\n        /* \"#utility.yul\":15800:15939   */\n      swap1\n      pop\n        /* \"#utility.yul\":15527:15946   */\n      swap2\n      swap1\n      pop\n      jump\t// out\n        /* \"#utility.yul\":15952:16177   */\n    tag_243:\n        /* \"#utility.yul\":16092:16126   */\n      0x4f776e61626c653a206e6577206f776e657220697320746865207a65726f2061\n        /* \"#utility.yul\":16088:16089   */\n      0x00\n        /* \"#utility.yul\":16080:16086   */\n      dup3\n        /* \"#utility.yul\":16076:16090   */\n      add\n        /* \"#utility.yul\":16069:16127   */\n      mstore\n        /* \"#utility.yul\":16161:16169   */\n      0x6464726573730000000000000000000000000000000000000000000000000000\n        /* \"#utility.yul\":16156:16158   */\n      0x20\n        /* \"#utility.yul\":16148:16154   */\n      dup3\n        /* \"#utility.yul\":16144:16159   */\n      add\n        /* \"#utility.yul\":16137:16170   */\n      mstore\n        /* \"#utility.yul\":15952:16177   */\n      pop\n      jump\t// out\n        /* \"#utility.yul\":16183:16549   */\n    tag_244:\n        /* \"#utility.yul\":16325:16328   */\n      0x00\n        /* \"#utility.yul\":16346:16413   */\n      tag_421\n        /* \"#utility.yul\":16410:16412   */\n      0x26\n        /* \"#utility.yul\":16405:16408   */\n      dup4\n        /* \"#utility.yul\":16346:16413   */\n      tag_214\n      jump\t// in\n    tag_421:\n        /* \"#utility.yul\":16339:16413   */\n      swap2\n      pop\n        /* \"#utility.yul\":16422:16515   */\n      tag_422\n        /* \"#utility.yul\":16511:16514   */\n      dup3\n        /* \"#utility.yul\":16422:16515   */\n      tag_243\n      jump\t// in\n    tag_422:\n        /* \"#utility.yul\":16540:16542   */\n      0x40\n        /* \"#utility.yul\":16535:16538   */\n      dup3\n        /* \"#utility.yul\":16531:16543   */\n      add\n        /* \"#utility.yul\":16524:16543   */\n      swap1\n      pop\n        /* \"#utility.yul\":16183:16549   */\n      swap2\n      swap1\n      pop\n      jump\t// out\n        /* \"#utility.yul\":16555:16974   */\n    tag_174:\n        /* \"#utility.yul\":16721:16725   */\n      0x00\n        /* \"#utility.yul\":16759:16761   */\n      0x20\n        /* \"#utility.yul\":16748:16757   */\n      dup3\n        /* \"#utility.yul\":16744:16762   */\n      add\n        /* \"#utility.yul\":16736:16762   */\n      swap1\n      pop\n        /* \"#utility.yul\":16808:16817   */\n      dup2\n        /* \"#utility.yul\":16802:16806   */\n      dup2\n        /* \"#utility.yul\":16798:16818   */\n      sub\n        /* \"#utility.yul\":16794:16795   */\n      0x00\n        /* \"#utility.yul\":16783:16792   */\n      dup4\n        /* \"#utility.yul\":16779:16796   */\n      add\n        /* \"#utility.yul\":16772:16819   */\n      mstore\n        /* \"#utility.yul\":16836:16967   */\n      tag_424\n        /* \"#utility.yul\":16962:16966   */\n      dup2\n        /* \"#utility.yul\":16836:16967   */\n      tag_244\n      jump\t// in\n    tag_424:\n        /* \"#utility.yul\":16828:16967   */\n      swap1\n      pop\n        /* \"#utility.yul\":16555:16974   */\n      swap2\n      swap1\n      pop\n      jump\t// out\n        /* \"#utility.yul\":16980:17162   */\n    tag_245:\n        /* \"#utility.yul\":17120:17154   */\n      0x4f776e61626c653a2063616c6c6572206973206e6f7420746865206f776e6572\n        /* \"#utility.yul\":17116:17117   */\n      0x00\n        /* \"#utility.yul\":17108:17114   */\n      dup3\n        /* \"#utility.yul\":17104:17118   */\n      add\n        /* \"#utility.yul\":17097:17155   */\n      mstore\n        /* \"#utility.yul\":16980:17162   */\n      pop\n      jump\t// out\n        /* \"#utility.yul\":17168:17534   */\n    tag_246:\n        /* \"#utility.yul\":17310:17313   */\n      0x00\n        /* \"#utility.yul\":17331:17398   */\n      tag_427\n        /* \"#utility.yul\":17395:17397   */\n      0x20\n        /* \"#utility.yul\":17390:17393   */\n      dup4\n        /* \"#utility.yul\":17331:17398   */\n      tag_214\n      jump\t// in\n    tag_427:\n        /* \"#utility.yul\":17324:17398   */\n      swap2\n      pop\n        /* \"#utility.yul\":17407:17500   */\n      tag_428\n        /* \"#utility.yul\":17496:17499   */\n      dup3\n        /* \"#utility.yul\":17407:17500   */\n      tag_245\n      jump\t// in\n    tag_428:\n        /* \"#utility.yul\":17525:17527   */\n      0x20\n        /* \"#utility.yul\":17520:17523   */\n      dup3\n        /* \"#utility.yul\":17516:17528   */\n      add\n        /* \"#utility.yul\":17509:17528   */\n      swap1\n      pop\n        /* \"#utility.yul\":17168:17534   */\n      swap2\n      swap1\n      pop\n      jump\t// out\n        /* \"#utility.yul\":17540:17959   */\n    tag_182:\n        /* \"#utility.yul\":17706:17710   */\n      0x00\n        /* \"#utility.yul\":17744:17746   */\n      0x20\n        /* \"#utility.yul\":17733:17742   */\n      dup3\n        /* \"#utility.yul\":17729:17747   */\n      add\n        /* \"#utility.yul\":17721:17747   */\n      swap1\n      pop\n        /* \"#utility.yul\":17793:17802   */\n      dup2\n        /* \"#utility.yul\":17787:17791   */\n      dup2\n        /* \"#utility.yul\":17783:17803   */\n      sub\n        /* \"#utility.yul\":17779:17780   */\n      0x00\n        /* \"#utility.yul\":17768:17777   */\n      dup4\n        /* \"#utility.yul\":17764:17781   */\n      add\n        /* \"#utility.yul\":17757:17804   */\n      mstore\n        /* \"#utility.yul\":17821:17952   */\n      tag_430\n        /* \"#utility.yul\":17947:17951   */\n      dup2\n        /* \"#utility.yul\":17821:17952   */\n      tag_246\n      jump\t// in\n    tag_430:\n        /* \"#utility.yul\":17813:17952   */\n      swap1\n      pop\n        /* \"#utility.yul\":17540:17959   */\n      swap2\n      swap1\n      pop\n      jump\t// out\n        /* \"#utility.yul\":17965:18159   */\n    tag_185:\n        /* \"#utility.yul\":18005:18009   */\n      0x00\n        /* \"#utility.yul\":18025:18045   */\n      tag_432\n        /* \"#utility.yul\":18043:18044   */\n      dup3\n        /* \"#utility.yul\":18025:18045   */\n      tag_204\n      jump\t// in\n    tag_432:\n        /* \"#utility.yul\":18020:18045   */\n      swap2\n      pop\n        /* \"#utility.yul\":18059:18079   */\n      tag_433\n        /* \"#utility.yul\":18077:18078   */\n      dup4\n        /* \"#utility.yul\":18059:18079   */\n      tag_204\n      jump\t// in\n    tag_433:\n        /* \"#utility.yul\":18054:18079   */\n      swap3\n      pop\n        /* \"#utility.yul\":18103:18104   */\n      dup3\n        /* \"#utility.yul\":18100:18101   */\n      dup3\n        /* \"#utility.yul\":18096:18105   */\n      sub\n        /* \"#utility.yul\":18088:18105   */\n      swap1\n      pop\n        /* \"#utility.yul\":18127:18128   */\n      dup2\n        /* \"#utility.yul\":18121:18125   */\n      dup2\n        /* \"#utility.yul\":18118:18129   */\n      gt\n        /* \"#utility.yul\":18115:18152   */\n      iszero\n      tag_434\n      jumpi\n        /* \"#utility.yul\":18132:18150   */\n      tag_435\n      tag_239\n      jump\t// in\n    tag_435:\n        /* \"#utility.yul\":18115:18152   */\n    tag_434:\n        /* \"#utility.yul\":17965:18159   */\n      swap3\n      swap2\n      pop\n      pop\n      jump\t// out\n        /* \"#utility.yul\":18165:18244   */\n    tag_247:\n        /* \"#utility.yul\":18204:18211   */\n      0x00\n        /* \"#utility.yul\":18233:18238   */\n      dup2\n        /* \"#utility.yul\":18222:18238   */\n      swap1\n      pop\n        /* \"#utility.yul\":18165:18244   */\n      swap2\n      swap1\n      pop\n      jump\t// out\n        /* \"#utility.yul\":18250:18407   */\n    tag_248:\n        /* \"#utility.yul\":18355:18400   */\n      tag_438\n        /* \"#utility.yul\":18375:18399   */\n      tag_439\n        /* \"#utility.yul\":18393:18398   */\n      dup3\n        /* \"#utility.yul\":18375:18399   */\n      tag_204\n      jump\t// in\n    tag_439:\n        /* \"#utility.yul\":18355:18400   */\n      tag_247\n      jump\t// in\n    tag_438:\n        /* \"#utility.yul\":18350:18353   */\n      dup3\n        /* \"#utility.yul\":18343:18401   */\n      mstore\n        /* \"#utility.yul\":18250:18407   */\n      pop\n      pop\n      jump\t// out\n        /* \"#utility.yul\":18413:18669   */\n    tag_188:\n        /* \"#utility.yul\":18525:18528   */\n      0x00\n        /* \"#utility.yul\":18540:18615   */\n      tag_441\n        /* \"#utility.yul\":18611:18614   */\n      dup3\n        /* \"#utility.yul\":18602:18608   */\n      dup5\n        /* \"#utility.yul\":18540:18615   */\n      tag_248\n      jump\t// in\n    tag_441:\n        /* \"#utility.yul\":18640:18642   */\n      0x20\n        /* \"#utility.yul\":18635:18638   */\n      dup3\n        /* \"#utility.yul\":18631:18643   */\n      add\n        /* \"#utility.yul\":18624:18643   */\n      swap2\n      pop\n        /* \"#utility.yul\":18660:18663   */\n      dup2\n        /* \"#utility.yul\":18653:18663   */\n      swap1\n      pop\n        /* \"#utility.yul\":18413:18669   */\n      swap3\n      swap2\n      pop\n      pop\n      jump\t// out\n        /* \"#utility.yul\":18675:18855   */\n    tag_249:\n        /* \"#utility.yul\":18723:18800   */\n      0x4e487b7100000000000000000000000000000000000000000000000000000000\n        /* \"#utility.yul\":18720:18721   */\n      0x00\n        /* \"#utility.yul\":18713:18801   */\n      mstore\n        /* \"#utility.yul\":18820:18824   */\n      0x12\n        /* \"#utility.yul\":18817:18818   */\n      0x04\n        /* \"#utility.yul\":18810:18825   */\n      mstore\n        /* \"#utility.yul\":18844:18848   */\n      0x24\n        /* \"#utility.yul\":18841:18842   */\n      0x00\n        /* \"#utility.yul\":18834:18849   */\n      revert\n        /* \"#utility.yul\":18861:19037   */\n    tag_190:\n        /* \"#utility.yul\":18893:18894   */\n      0x00\n        /* \"#utility.yul\":18910:18930   */\n      tag_444\n        /* \"#utility.yul\":18928:18929   */\n      dup3\n        /* \"#utility.yul\":18910:18930   */\n      tag_204\n      jump\t// in\n    tag_444:\n        /* \"#utility.yul\":18905:18930   */\n      swap2\n      pop\n        /* \"#utility.yul\":18944:18964   */\n      tag_445\n        /* \"#utility.yul\":18962:18963   */\n      dup4\n        /* \"#utility.yul\":18944:18964   */\n      tag_204\n      jump\t// in\n    tag_445:\n        /* \"#utility.yul\":18939:18964   */\n      swap3\n      pop\n        /* \"#utility.yul\":18983:18984   */\n      dup3\n        /* \"#utility.yul\":18973:19008   */\n      tag_446\n      jumpi\n        /* \"#utility.yul\":18988:19006   */\n      tag_447\n      tag_249\n      jump\t// in\n    tag_447:\n        /* \"#utility.yul\":18973:19008   */\n    tag_446:\n        /* \"#utility.yul\":19029:19030   */\n      dup3\n        /* \"#utility.yul\":19026:19027   */\n      dup3\n        /* \"#utility.yul\":19022:19031   */\n      mod\n        /* \"#utility.yul\":19017:19031   */\n      swap1\n      pop\n        /* \"#utility.yul\":18861:19037   */\n      swap3\n      swap2\n      pop\n      pop\n      jump\t// out\n\n    auxdata: 0xa26469706673582212209e59051d326f852a68197e4a72d07c590f8e92dd2d55e05c5ee0fbeb51616c3364736f6c63430008130033\n}\n",
				"bytecode": {
					"linkReferences": {},
					"object": "60806040523480156200001157600080fd5b5060405162001af438038062001af48339818101604052810190620000379190620001d5565b620000576200004b6200009f60201b60201c565b620000a760201b60201c565b80600160006101000a81548173ffffffffffffffffffffffffffffffffffffffff021916908373ffffffffffffffffffffffffffffffffffffffff1602179055505062000207565b600033905090565b60008060009054906101000a900473ffffffffffffffffffffffffffffffffffffffff169050816000806101000a81548173ffffffffffffffffffffffffffffffffffffffff021916908373ffffffffffffffffffffffffffffffffffffffff1602179055508173ffffffffffffffffffffffffffffffffffffffff168173ffffffffffffffffffffffffffffffffffffffff167f8be0079c531659141344cd1fd0a4f28419497f9722a3daafe3b4186f6b6457e060405160405180910390a35050565b600080fd5b600073ffffffffffffffffffffffffffffffffffffffff82169050919050565b60006200019d8262000170565b9050919050565b620001af8162000190565b8114620001bb57600080fd5b50565b600081519050620001cf81620001a4565b92915050565b600060208284031215620001ee57620001ed6200016b565b5b6000620001fe84828501620001be565b91505092915050565b6118dd80620002176000396000f3fe608060405234801561001057600080fd5b50600436106100b45760003560e01c8063715018a611610071578063715018a6146101a25780638da5cb5b146101ac578063b67836f8146101ca578063d7b8d485146101e6578063e00974ff14610202578063f2fde38b14610220576100b4565b80630ad4c4f4146100b95780630aec4ed1146100e957806325cab8091461011c57806338a2c0a31461013857806347ccca02146101545780635f52789b14610172575b600080fd5b6100d360048036038101906100ce9190610e55565b61023c565b6040516100e09190610f84565b60405180910390f35b61010360048036038101906100fe9190610e55565b610423565b6040516101139493929190610fff565b60405180910390f35b610136600480360381019061013191906110a9565b6104db565b005b610152600480360381019061014d919061121e565b610527565b005b61015c610709565b60405161016991906112ec565b60405180910390f35b61018c60048036038101906101879190610e55565b61072f565b6040516101999190610f84565b60405180910390f35b6101aa61080c565b005b6101b4610820565b6040516101c19190611316565b60405180910390f35b6101e460048036038101906101df9190611331565b610849565b005b61020060048036038101906101fb9190610e55565b610a61565b005b61020a610b32565b6040516102179190611316565b60405180910390f35b61023a600480360381019061023591906110a9565b610b58565b005b610244610d86565b600073ffffffffffffffffffffffffffffffffffffffff16600160009054906101000a900473ffffffffffffffffffffffffffffffffffffffff1673ffffffffffffffffffffffffffffffffffffffff16636352211e846040518263ffffffff1660e01b81526004016102b79190611371565b602060405180830381865afa1580156102d4573d6000803e3d6000fd5b505050506040513d601f19601f820116820180604052508101906102f891906113a1565b73ffffffffffffffffffffffffffffffffffffffff160361034e576040517f08c379a00000000000000000000000000000000000000000000000000000000081526004016103459061141a565b60405180910390fd5b6003600083815260200190815260200160002060405180608001604052908160008201805461037c90611469565b80601f01602080910402602001604051908101604052809291908181526020018280546103a890611469565b80156103f55780601f106103ca576101008083540402835291602001916103f5565b820191906000526020600020905b8154815290600101906020018083116103d857829003601f168201915b5050505050815260200160018201548152602001600282015481526020016003820154815250509050919050565b600360205280600052604060002060009150905080600001805461044690611469565b80601f016020809104026020016040519081016040528092919081815260200182805461047290611469565b80156104bf5780601f10610494576101008083540402835291602001916104bf565b820191906000526020600020905b8154815290600101906020018083116104a257829003601f168201915b5050505050908060010154908060020154908060030154905084565b6104e3610bdb565b80600260006101000a81548173ffffffffffffffffffffffffffffffffffffffff021916908373ffffffffffffffffffffffffffffffffffffffff16021790555050565b6000835190506000610537610c59565b90506000610543610c59565b90506000805b848110156105d1576000600360008a848151811061056a5761056961149a565b5b6020026020010151815260200190815260200160002090508481600301548260020154836001015461059c91906114f8565b6105a691906114f8565b6105b0919061152c565b836105bb9190611578565b92505080806105c9906115bc565b915050610549565b508185876105df91906114f8565b6105e9919061152c565b816105f49190611604565b905060005b848110156106ff576000600360008a848151811061061a5761061961149a565b5b602002602001015181526020019081526020016000209050600083131561069557606481600101600082825461065091906114f8565b92505081905550606481600201600082825461066c91906114f8565b925050819055506103e881600301600082825461068991906114f8565b925050819055506106eb565b60328160010160008282546106aa91906114f8565b9250508190555060328160020160008282546106c691906114f8565b925050819055506101f48160030160008282546106e391906114f8565b925050819055505b5080806106f7906115bc565b9150506105f9565b5050505050505050565b600160009054906101000a900473ffffffffffffffffffffffffffffffffffffffff1681565b610737610d86565b6003600083815260200190815260200160002060405180608001604052908160008201805461076590611469565b80601f016020809104026020016040519081016040528092919081815260200182805461079190611469565b80156107de5780601f106107b3576101008083540402835291602001916107de565b820191906000526020600020905b8154815290600101906020018083116107c157829003601f168201915b5050505050815260200160018201548152602001600282015481526020016003820154815250509050919050565b610814610bdb565b61081e6000610cba565b565b60008060009054906101000a900473ffffffffffffffffffffffffffffffffffffffff16905090565b600060036000848152602001908152602001600020905060006003600084815260200190815260200160002090506000610881610c59565b9050600061088d610c59565b90506000818460030154856002015486600101546108ab91906114f8565b6108b591906114f8565b6108bf919061152c565b838660030154876002015488600101546108d991906114f8565b6108e391906114f8565b6108ed919061152c565b6108f79190611604565b905060008113156109af57600a85600101600082825461091791906114f8565b92505081905550600a85600201600082825461093391906114f8565b92505081905550606485600301600082825461094f91906114f8565b92505081905550600184600101600082825461096b91906114f8565b92505081905550600184600201600082825461098791906114f8565b9250508190555060328460030160008282546109a391906114f8565b92505081905550610a58565b60018560010160008282546109c491906114f8565b9250508190555060018560020160008282546109e091906114f8565b9250508190555060328560030160008282546109fc91906114f8565b92505081905550600a846001016000828254610a1891906114f8565b92505081905550600a846002016000828254610a3491906114f8565b925050819055506064846003016000828254610a5091906114f8565b925050819055505b50505050505050565b600260009054906101000a900473ffffffffffffffffffffffffffffffffffffffff1673ffffffffffffffffffffffffffffffffffffffff163373ffffffffffffffffffffffffffffffffffffffff1614610af1576040517f08c379a0000000000000000000000000000000000000000000000000000000008152600401610ae8906116b9565b60405180910390fd5b6003600082815260200190815260200160002060008082016000610b159190610dae565b600182016000905560028201600090556003820160009055505050565b600260009054906101000a900473ffffffffffffffffffffffffffffffffffffffff1681565b610b60610bdb565b600073ffffffffffffffffffffffffffffffffffffffff168173ffffffffffffffffffffffffffffffffffffffff1603610bcf576040517f08c379a0000000000000000000000000000000000000000000000000000000008152600401610bc69061174b565b60405180910390fd5b610bd881610cba565b50565b610be3610d7e565b73ffffffffffffffffffffffffffffffffffffffff16610c01610820565b73ffffffffffffffffffffffffffffffffffffffff1614610c57576040517f08c379a0000000000000000000000000000000000000000000000000000000008152600401610c4e906117b7565b60405180910390fd5b565b60006050600160506064610c6d91906117d7565b610c7791906114f8565b42604051602001610c88919061182c565b6040516020818303038152906040528051906020012060001c610cab9190611876565b610cb591906114f8565b905090565b60008060009054906101000a900473ffffffffffffffffffffffffffffffffffffffff169050816000806101000a81548173ffffffffffffffffffffffffffffffffffffffff021916908373ffffffffffffffffffffffffffffffffffffffff1602179055508173ffffffffffffffffffffffffffffffffffffffff168173ffffffffffffffffffffffffffffffffffffffff167f8be0079c531659141344cd1fd0a4f28419497f9722a3daafe3b4186f6b6457e060405160405180910390a35050565b600033905090565b6040518060800160405280606081526020016000815260200160008152602001600081525090565b508054610dba90611469565b6000825580601f10610dcc5750610deb565b601f016020900490600052602060002090810190610dea9190610dee565b5b50565b5b80821115610e07576000816000905550600101610def565b5090565b6000604051905090565b600080fd5b600080fd5b6000819050919050565b610e3281610e1f565b8114610e3d57600080fd5b50565b600081359050610e4f81610e29565b92915050565b600060208284031215610e6b57610e6a610e15565b5b6000610e7984828501610e40565b91505092915050565b600081519050919050565b600082825260208201905092915050565b60005b83811015610ebc578082015181840152602081019050610ea1565b60008484015250505050565b6000601f19601f8301169050919050565b6000610ee482610e82565b610eee8185610e8d565b9350610efe818560208601610e9e565b610f0781610ec8565b840191505092915050565b610f1b81610e1f565b82525050565b60006080830160008301518482036000860152610f3e8282610ed9565b9150506020830151610f536020860182610f12565b506040830151610f666040860182610f12565b506060830151610f796060860182610f12565b508091505092915050565b60006020820190508181036000830152610f9e8184610f21565b905092915050565b600082825260208201905092915050565b6000610fc282610e82565b610fcc8185610fa6565b9350610fdc818560208601610e9e565b610fe581610ec8565b840191505092915050565b610ff981610e1f565b82525050565b600060808201905081810360008301526110198187610fb7565b90506110286020830186610ff0565b6110356040830185610ff0565b6110426060830184610ff0565b95945050505050565b600073ffffffffffffffffffffffffffffffffffffffff82169050919050565b60006110768261104b565b9050919050565b6110868161106b565b811461109157600080fd5b50565b6000813590506110a38161107d565b92915050565b6000602082840312156110bf576110be610e15565b5b60006110cd84828501611094565b91505092915050565b600080fd5b7f4e487b7100000000000000000000000000000000000000000000000000000000600052604160045260246000fd5b61111382610ec8565b810181811067ffffffffffffffff82111715611132576111316110db565b5b80604052505050565b6000611145610e0b565b9050611151828261110a565b919050565b600067ffffffffffffffff821115611171576111706110db565b5b602082029050602081019050919050565b600080fd5b600061119a61119584611156565b61113b565b905080838252602082019050602084028301858111156111bd576111bc611182565b5b835b818110156111e657806111d28882610e40565b8452602084019350506020810190506111bf565b5050509392505050565b600082601f830112611205576112046110d6565b5b8135611215848260208601611187565b91505092915050565b60008060006060848603121561123757611236610e15565b5b600084013567ffffffffffffffff81111561125557611254610e1a565b5b611261868287016111f0565b935050602061127286828701610e40565b925050604061128386828701610e40565b9150509250925092565b6000819050919050565b60006112b26112ad6112a88461104b565b61128d565b61104b565b9050919050565b60006112c482611297565b9050919050565b60006112d6826112b9565b9050919050565b6112e6816112cb565b82525050565b600060208201905061130160008301846112dd565b92915050565b6113108161106b565b82525050565b600060208201905061132b6000830184611307565b92915050565b6000806040838503121561134857611347610e15565b5b600061135685828601610e40565b925050602061136785828601610e40565b9150509250929050565b60006020820190506113866000830184610ff0565b92915050565b60008151905061139b8161107d565b92915050565b6000602082840312156113b7576113b6610e15565b5b60006113c58482850161138c565b91505092915050565b7f4e465420646f6573206e6f742065786973740000000000000000000000000000600082015250565b6000611404601283610fa6565b915061140f826113ce565b602082019050919050565b60006020820190508181036000830152611433816113f7565b9050919050565b7f4e487b7100000000000000000000000000000000000000000000000000000000600052602260045260246000fd5b6000600282049050600182168061148157607f821691505b6020821081036114945761149361143a565b5b50919050565b7f4e487b7100000000000000000000000000000000000000000000000000000000600052603260045260246000fd5b7f4e487b7100000000000000000000000000000000000000000000000000000000600052601160045260246000fd5b600061150382610e1f565b915061150e83610e1f565b9250828201905080821115611526576115256114c9565b5b92915050565b600061153782610e1f565b915061154283610e1f565b925082820261155081610e1f565b91508282048414831517611567576115666114c9565b5b5092915050565b6000819050919050565b60006115838261156e565b915061158e8361156e565b9250828201905082811215600083121683821260008412151617156115b6576115b56114c9565b5b92915050565b60006115c782610e1f565b91507fffffffffffffffffffffffffffffffffffffffffffffffffffffffffffffffff82036115f9576115f86114c9565b5b600182019050919050565b600061160f8261156e565b915061161a8361156e565b9250828203905081811260008412168282136000851215161715611641576116406114c9565b5b92915050565b7f4f6e6c79207468652074727573746564204e46544d616e6167656d656e74206360008201527f6f6e74726163742063616e2063616c6c20746869732066756e6374696f6e0000602082015250565b60006116a3603e83610fa6565b91506116ae82611647565b604082019050919050565b600060208201905081810360008301526116d281611696565b9050919050565b7f4f776e61626c653a206e6577206f776e657220697320746865207a65726f206160008201527f6464726573730000000000000000000000000000000000000000000000000000602082015250565b6000611735602683610fa6565b9150611740826116d9565b604082019050919050565b6000602082019050818103600083015261176481611728565b9050919050565b7f4f776e61626c653a2063616c6c6572206973206e6f7420746865206f776e6572600082015250565b60006117a1602083610fa6565b91506117ac8261176b565b602082019050919050565b600060208201905081810360008301526117d081611794565b9050919050565b60006117e282610e1f565b91506117ed83610e1f565b9250828203905081811115611805576118046114c9565b5b92915050565b6000819050919050565b61182661182182610e1f565b61180b565b82525050565b60006118388284611815565b60208201915081905092915050565b7f4e487b7100000000000000000000000000000000000000000000000000000000600052601260045260246000fd5b600061188182610e1f565b915061188c83610e1f565b92508261189c5761189b611847565b5b82820690509291505056fea26469706673582212209e59051d326f852a68197e4a72d07c590f8e92dd2d55e05c5ee0fbeb51616c3364736f6c63430008130033",
					"opcodes": "PUSH1 0x80 PUSH1 0x40 MSTORE CALLVALUE DUP1 ISZERO PUSH3 0x11 JUMPI PUSH1 0x0 DUP1 REVERT JUMPDEST POP PUSH1 0x40 MLOAD PUSH3 0x1AF4 CODESIZE SUB DUP1 PUSH3 0x1AF4 DUP4 CODECOPY DUP2 DUP2 ADD PUSH1 0x40 MSTORE DUP2 ADD SWAP1 PUSH3 0x37 SWAP2 SWAP1 PUSH3 0x1D5 JUMP JUMPDEST PUSH3 0x57 PUSH3 0x4B PUSH3 0x9F PUSH1 0x20 SHL PUSH1 0x20 SHR JUMP JUMPDEST PUSH3 0xA7 PUSH1 0x20 SHL PUSH1 0x20 SHR JUMP JUMPDEST DUP1 PUSH1 0x1 PUSH1 0x0 PUSH2 0x100 EXP DUP2 SLOAD DUP2 PUSH20 0xFFFFFFFFFFFFFFFFFFFFFFFFFFFFFFFFFFFFFFFF MUL NOT AND SWAP1 DUP4 PUSH20 0xFFFFFFFFFFFFFFFFFFFFFFFFFFFFFFFFFFFFFFFF AND MUL OR SWAP1 SSTORE POP POP PUSH3 0x207 JUMP JUMPDEST PUSH1 0x0 CALLER SWAP1 POP SWAP1 JUMP JUMPDEST PUSH1 0x0 DUP1 PUSH1 0x0 SWAP1 SLOAD SWAP1 PUSH2 0x100 EXP SWAP1 DIV PUSH20 0xFFFFFFFFFFFFFFFFFFFFFFFFFFFFFFFFFFFFFFFF AND SWAP1 POP DUP2 PUSH1 0x0 DUP1 PUSH2 0x100 EXP DUP2 SLOAD DUP2 PUSH20 0xFFFFFFFFFFFFFFFFFFFFFFFFFFFFFFFFFFFFFFFF MUL NOT AND SWAP1 DUP4 PUSH20 0xFFFFFFFFFFFFFFFFFFFFFFFFFFFFFFFFFFFFFFFF AND MUL OR SWAP1 SSTORE POP DUP2 PUSH20 0xFFFFFFFFFFFFFFFFFFFFFFFFFFFFFFFFFFFFFFFF AND DUP2 PUSH20 0xFFFFFFFFFFFFFFFFFFFFFFFFFFFFFFFFFFFFFFFF AND PUSH32 0x8BE0079C531659141344CD1FD0A4F28419497F9722A3DAAFE3B4186F6B6457E0 PUSH1 0x40 MLOAD PUSH1 0x40 MLOAD DUP1 SWAP2 SUB SWAP1 LOG3 POP POP JUMP JUMPDEST PUSH1 0x0 DUP1 REVERT JUMPDEST PUSH1 0x0 PUSH20 0xFFFFFFFFFFFFFFFFFFFFFFFFFFFFFFFFFFFFFFFF DUP3 AND SWAP1 POP SWAP2 SWAP1 POP JUMP JUMPDEST PUSH1 0x0 PUSH3 0x19D DUP3 PUSH3 0x170 JUMP JUMPDEST SWAP1 POP SWAP2 SWAP1 POP JUMP JUMPDEST PUSH3 0x1AF DUP2 PUSH3 0x190 JUMP JUMPDEST DUP2 EQ PUSH3 0x1BB JUMPI PUSH1 0x0 DUP1 REVERT JUMPDEST POP JUMP JUMPDEST PUSH1 0x0 DUP2 MLOAD SWAP1 POP PUSH3 0x1CF DUP2 PUSH3 0x1A4 JUMP JUMPDEST SWAP3 SWAP2 POP POP JUMP JUMPDEST PUSH1 0x0 PUSH1 0x20 DUP3 DUP5 SUB SLT ISZERO PUSH3 0x1EE JUMPI PUSH3 0x1ED PUSH3 0x16B JUMP JUMPDEST JUMPDEST PUSH1 0x0 PUSH3 0x1FE DUP5 DUP3 DUP6 ADD PUSH3 0x1BE JUMP JUMPDEST SWAP2 POP POP SWAP3 SWAP2 POP POP JUMP JUMPDEST PUSH2 0x18DD DUP1 PUSH3 0x217 PUSH1 0x0 CODECOPY PUSH1 0x0 RETURN INVALID PUSH1 0x80 PUSH1 0x40 MSTORE CALLVALUE DUP1 ISZERO PUSH2 0x10 JUMPI PUSH1 0x0 DUP1 REVERT JUMPDEST POP PUSH1 0x4 CALLDATASIZE LT PUSH2 0xB4 JUMPI PUSH1 0x0 CALLDATALOAD PUSH1 0xE0 SHR DUP1 PUSH4 0x715018A6 GT PUSH2 0x71 JUMPI DUP1 PUSH4 0x715018A6 EQ PUSH2 0x1A2 JUMPI DUP1 PUSH4 0x8DA5CB5B EQ PUSH2 0x1AC JUMPI DUP1 PUSH4 0xB67836F8 EQ PUSH2 0x1CA JUMPI DUP1 PUSH4 0xD7B8D485 EQ PUSH2 0x1E6 JUMPI DUP1 PUSH4 0xE00974FF EQ PUSH2 0x202 JUMPI DUP1 PUSH4 0xF2FDE38B EQ PUSH2 0x220 JUMPI PUSH2 0xB4 JUMP JUMPDEST DUP1 PUSH4 0xAD4C4F4 EQ PUSH2 0xB9 JUMPI DUP1 PUSH4 0xAEC4ED1 EQ PUSH2 0xE9 JUMPI DUP1 PUSH4 0x25CAB809 EQ PUSH2 0x11C JUMPI DUP1 PUSH4 0x38A2C0A3 EQ PUSH2 0x138 JUMPI DUP1 PUSH4 0x47CCCA02 EQ PUSH2 0x154 JUMPI DUP1 PUSH4 0x5F52789B EQ PUSH2 0x172 JUMPI JUMPDEST PUSH1 0x0 DUP1 REVERT JUMPDEST PUSH2 0xD3 PUSH1 0x4 DUP1 CALLDATASIZE SUB DUP2 ADD SWAP1 PUSH2 0xCE SWAP2 SWAP1 PUSH2 0xE55 JUMP JUMPDEST PUSH2 0x23C JUMP JUMPDEST PUSH1 0x40 MLOAD PUSH2 0xE0 SWAP2 SWAP1 PUSH2 0xF84 JUMP JUMPDEST PUSH1 0x40 MLOAD DUP1 SWAP2 SUB SWAP1 RETURN JUMPDEST PUSH2 0x103 PUSH1 0x4 DUP1 CALLDATASIZE SUB DUP2 ADD SWAP1 PUSH2 0xFE SWAP2 SWAP1 PUSH2 0xE55 JUMP JUMPDEST PUSH2 0x423 JUMP JUMPDEST PUSH1 0x40 MLOAD PUSH2 0x113 SWAP5 SWAP4 SWAP3 SWAP2 SWAP1 PUSH2 0xFFF JUMP JUMPDEST PUSH1 0x40 MLOAD DUP1 SWAP2 SUB SWAP1 RETURN JUMPDEST PUSH2 0x136 PUSH1 0x4 DUP1 CALLDATASIZE SUB DUP2 ADD SWAP1 PUSH2 0x131 SWAP2 SWAP1 PUSH2 0x10A9 JUMP JUMPDEST PUSH2 0x4DB JUMP JUMPDEST STOP JUMPDEST PUSH2 0x152 PUSH1 0x4 DUP1 CALLDATASIZE SUB DUP2 ADD SWAP1 PUSH2 0x14D SWAP2 SWAP1 PUSH2 0x121E JUMP JUMPDEST PUSH2 0x527 JUMP JUMPDEST STOP JUMPDEST PUSH2 0x15C PUSH2 0x709 JUMP JUMPDEST PUSH1 0x40 MLOAD PUSH2 0x169 SWAP2 SWAP1 PUSH2 0x12EC JUMP JUMPDEST PUSH1 0x40 MLOAD DUP1 SWAP2 SUB SWAP1 RETURN JUMPDEST PUSH2 0x18C PUSH1 0x4 DUP1 CALLDATASIZE SUB DUP2 ADD SWAP1 PUSH2 0x187 SWAP2 SWAP1 PUSH2 0xE55 JUMP JUMPDEST PUSH2 0x72F JUMP JUMPDEST PUSH1 0x40 MLOAD PUSH2 0x199 SWAP2 SWAP1 PUSH2 0xF84 JUMP JUMPDEST PUSH1 0x40 MLOAD DUP1 SWAP2 SUB SWAP1 RETURN JUMPDEST PUSH2 0x1AA PUSH2 0x80C JUMP JUMPDEST STOP JUMPDEST PUSH2 0x1B4 PUSH2 0x820 JUMP JUMPDEST PUSH1 0x40 MLOAD PUSH2 0x1C1 SWAP2 SWAP1 PUSH2 0x1316 JUMP JUMPDEST PUSH1 0x40 MLOAD DUP1 SWAP2 SUB SWAP1 RETURN JUMPDEST PUSH2 0x1E4 PUSH1 0x4 DUP1 CALLDATASIZE SUB DUP2 ADD SWAP1 PUSH2 0x1DF SWAP2 SWAP1 PUSH2 0x1331 JUMP JUMPDEST PUSH2 0x849 JUMP JUMPDEST STOP JUMPDEST PUSH2 0x200 PUSH1 0x4 DUP1 CALLDATASIZE SUB DUP2 ADD SWAP1 PUSH2 0x1FB SWAP2 SWAP1 PUSH2 0xE55 JUMP JUMPDEST PUSH2 0xA61 JUMP JUMPDEST STOP JUMPDEST PUSH2 0x20A PUSH2 0xB32 JUMP JUMPDEST PUSH1 0x40 MLOAD PUSH2 0x217 SWAP2 SWAP1 PUSH2 0x1316 JUMP JUMPDEST PUSH1 0x40 MLOAD DUP1 SWAP2 SUB SWAP1 RETURN JUMPDEST PUSH2 0x23A PUSH1 0x4 DUP1 CALLDATASIZE SUB DUP2 ADD SWAP1 PUSH2 0x235 SWAP2 SWAP1 PUSH2 0x10A9 JUMP JUMPDEST PUSH2 0xB58 JUMP JUMPDEST STOP JUMPDEST PUSH2 0x244 PUSH2 0xD86 JUMP JUMPDEST PUSH1 0x0 PUSH20 0xFFFFFFFFFFFFFFFFFFFFFFFFFFFFFFFFFFFFFFFF AND PUSH1 0x1 PUSH1 0x0 SWAP1 SLOAD SWAP1 PUSH2 0x100 EXP SWAP1 DIV PUSH20 0xFFFFFFFFFFFFFFFFFFFFFFFFFFFFFFFFFFFFFFFF AND PUSH20 0xFFFFFFFFFFFFFFFFFFFFFFFFFFFFFFFFFFFFFFFF AND PUSH4 0x6352211E DUP5 PUSH1 0x40 MLOAD DUP3 PUSH4 0xFFFFFFFF AND PUSH1 0xE0 SHL DUP2 MSTORE PUSH1 0x4 ADD PUSH2 0x2B7 SWAP2 SWAP1 PUSH2 0x1371 JUMP JUMPDEST PUSH1 0x20 PUSH1 0x40 MLOAD DUP1 DUP4 SUB DUP2 DUP7 GAS STATICCALL ISZERO DUP1 ISZERO PUSH2 0x2D4 JUMPI RETURNDATASIZE PUSH1 0x0 DUP1 RETURNDATACOPY RETURNDATASIZE PUSH1 0x0 REVERT JUMPDEST POP POP POP POP PUSH1 0x40 MLOAD RETURNDATASIZE PUSH1 0x1F NOT PUSH1 0x1F DUP3 ADD AND DUP3 ADD DUP1 PUSH1 0x40 MSTORE POP DUP2 ADD SWAP1 PUSH2 0x2F8 SWAP2 SWAP1 PUSH2 0x13A1 JUMP JUMPDEST PUSH20 0xFFFFFFFFFFFFFFFFFFFFFFFFFFFFFFFFFFFFFFFF AND SUB PUSH2 0x34E JUMPI PUSH1 0x40 MLOAD PUSH32 0x8C379A000000000000000000000000000000000000000000000000000000000 DUP2 MSTORE PUSH1 0x4 ADD PUSH2 0x345 SWAP1 PUSH2 0x141A JUMP JUMPDEST PUSH1 0x40 MLOAD DUP1 SWAP2 SUB SWAP1 REVERT JUMPDEST PUSH1 0x3 PUSH1 0x0 DUP4 DUP2 MSTORE PUSH1 0x20 ADD SWAP1 DUP2 MSTORE PUSH1 0x20 ADD PUSH1 0x0 KECCAK256 PUSH1 0x40 MLOAD DUP1 PUSH1 0x80 ADD PUSH1 0x40 MSTORE SWAP1 DUP2 PUSH1 0x0 DUP3 ADD DUP1 SLOAD PUSH2 0x37C SWAP1 PUSH2 0x1469 JUMP JUMPDEST DUP1 PUSH1 0x1F ADD PUSH1 0x20 DUP1 SWAP2 DIV MUL PUSH1 0x20 ADD PUSH1 0x40 MLOAD SWAP1 DUP2 ADD PUSH1 0x40 MSTORE DUP1 SWAP3 SWAP2 SWAP1 DUP2 DUP2 MSTORE PUSH1 0x20 ADD DUP3 DUP1 SLOAD PUSH2 0x3A8 SWAP1 PUSH2 0x1469 JUMP JUMPDEST DUP1 ISZERO PUSH2 0x3F5 JUMPI DUP1 PUSH1 0x1F LT PUSH2 0x3CA JUMPI PUSH2 0x100 DUP1 DUP4 SLOAD DIV MUL DUP4 MSTORE SWAP2 PUSH1 0x20 ADD SWAP2 PUSH2 0x3F5 JUMP JUMPDEST DUP3 ADD SWAP2 SWAP1 PUSH1 0x0 MSTORE PUSH1 0x20 PUSH1 0x0 KECCAK256 SWAP1 JUMPDEST DUP2 SLOAD DUP2 MSTORE SWAP1 PUSH1 0x1 ADD SWAP1 PUSH1 0x20 ADD DUP1 DUP4 GT PUSH2 0x3D8 JUMPI DUP3 SWAP1 SUB PUSH1 0x1F AND DUP3 ADD SWAP2 JUMPDEST POP POP POP POP POP DUP2 MSTORE PUSH1 0x20 ADD PUSH1 0x1 DUP3 ADD SLOAD DUP2 MSTORE PUSH1 0x20 ADD PUSH1 0x2 DUP3 ADD SLOAD DUP2 MSTORE PUSH1 0x20 ADD PUSH1 0x3 DUP3 ADD SLOAD DUP2 MSTORE POP POP SWAP1 POP SWAP2 SWAP1 POP JUMP JUMPDEST PUSH1 0x3 PUSH1 0x20 MSTORE DUP1 PUSH1 0x0 MSTORE PUSH1 0x40 PUSH1 0x0 KECCAK256 PUSH1 0x0 SWAP2 POP SWAP1 POP DUP1 PUSH1 0x0 ADD DUP1 SLOAD PUSH2 0x446 SWAP1 PUSH2 0x1469 JUMP JUMPDEST DUP1 PUSH1 0x1F ADD PUSH1 0x20 DUP1 SWAP2 DIV MUL PUSH1 0x20 ADD PUSH1 0x40 MLOAD SWAP1 DUP2 ADD PUSH1 0x40 MSTORE DUP1 SWAP3 SWAP2 SWAP1 DUP2 DUP2 MSTORE PUSH1 0x20 ADD DUP3 DUP1 SLOAD PUSH2 0x472 SWAP1 PUSH2 0x1469 JUMP JUMPDEST DUP1 ISZERO PUSH2 0x4BF JUMPI DUP1 PUSH1 0x1F LT PUSH2 0x494 JUMPI PUSH2 0x100 DUP1 DUP4 SLOAD DIV MUL DUP4 MSTORE SWAP2 PUSH1 0x20 ADD SWAP2 PUSH2 0x4BF JUMP JUMPDEST DUP3 ADD SWAP2 SWAP1 PUSH1 0x0 MSTORE PUSH1 0x20 PUSH1 0x0 KECCAK256 SWAP1 JUMPDEST DUP2 SLOAD DUP2 MSTORE SWAP1 PUSH1 0x1 ADD SWAP1 PUSH1 0x20 ADD DUP1 DUP4 GT PUSH2 0x4A2 JUMPI DUP3 SWAP1 SUB PUSH1 0x1F AND DUP3 ADD SWAP2 JUMPDEST POP POP POP POP POP SWAP1 DUP1 PUSH1 0x1 ADD SLOAD SWAP1 DUP1 PUSH1 0x2 ADD SLOAD SWAP1 DUP1 PUSH1 0x3 ADD SLOAD SWAP1 POP DUP5 JUMP JUMPDEST PUSH2 0x4E3 PUSH2 0xBDB JUMP JUMPDEST DUP1 PUSH1 0x2 PUSH1 0x0 PUSH2 0x100 EXP DUP2 SLOAD DUP2 PUSH20 0xFFFFFFFFFFFFFFFFFFFFFFFFFFFFFFFFFFFFFFFF MUL NOT AND SWAP1 DUP4 PUSH20 0xFFFFFFFFFFFFFFFFFFFFFFFFFFFFFFFFFFFFFFFF AND MUL OR SWAP1 SSTORE POP POP JUMP JUMPDEST PUSH1 0x0 DUP4 MLOAD SWAP1 POP PUSH1 0x0 PUSH2 0x537 PUSH2 0xC59 JUMP JUMPDEST SWAP1 POP PUSH1 0x0 PUSH2 0x543 PUSH2 0xC59 JUMP JUMPDEST SWAP1 POP PUSH1 0x0 DUP1 JUMPDEST DUP5 DUP2 LT ISZERO PUSH2 0x5D1 JUMPI PUSH1 0x0 PUSH1 0x3 PUSH1 0x0 DUP11 DUP5 DUP2 MLOAD DUP2 LT PUSH2 0x56A JUMPI PUSH2 0x569 PUSH2 0x149A JUMP JUMPDEST JUMPDEST PUSH1 0x20 MUL PUSH1 0x20 ADD ADD MLOAD DUP2 MSTORE PUSH1 0x20 ADD SWAP1 DUP2 MSTORE PUSH1 0x20 ADD PUSH1 0x0 KECCAK256 SWAP1 POP DUP5 DUP2 PUSH1 0x3 ADD SLOAD DUP3 PUSH1 0x2 ADD SLOAD DUP4 PUSH1 0x1 ADD SLOAD PUSH2 0x59C SWAP2 SWAP1 PUSH2 0x14F8 JUMP JUMPDEST PUSH2 0x5A6 SWAP2 SWAP1 PUSH2 0x14F8 JUMP JUMPDEST PUSH2 0x5B0 SWAP2 SWAP1 PUSH2 0x152C JUMP JUMPDEST DUP4 PUSH2 0x5BB SWAP2 SWAP1 PUSH2 0x1578 JUMP JUMPDEST SWAP3 POP POP DUP1 DUP1 PUSH2 0x5C9 SWAP1 PUSH2 0x15BC JUMP JUMPDEST SWAP2 POP POP PUSH2 0x549 JUMP JUMPDEST POP DUP2 DUP6 DUP8 PUSH2 0x5DF SWAP2 SWAP1 PUSH2 0x14F8 JUMP JUMPDEST PUSH2 0x5E9 SWAP2 SWAP1 PUSH2 0x152C JUMP JUMPDEST DUP2 PUSH2 0x5F4 SWAP2 SWAP1 PUSH2 0x1604 JUMP JUMPDEST SWAP1 POP PUSH1 0x0 JUMPDEST DUP5 DUP2 LT ISZERO PUSH2 0x6FF JUMPI PUSH1 0x0 PUSH1 0x3 PUSH1 0x0 DUP11 DUP5 DUP2 MLOAD DUP2 LT PUSH2 0x61A JUMPI PUSH2 0x619 PUSH2 0x149A JUMP JUMPDEST JUMPDEST PUSH1 0x20 MUL PUSH1 0x20 ADD ADD MLOAD DUP2 MSTORE PUSH1 0x20 ADD SWAP1 DUP2 MSTORE PUSH1 0x20 ADD PUSH1 0x0 KECCAK256 SWAP1 POP PUSH1 0x0 DUP4 SGT ISZERO PUSH2 0x695 JUMPI PUSH1 0x64 DUP2 PUSH1 0x1 ADD PUSH1 0x0 DUP3 DUP3 SLOAD PUSH2 0x650 SWAP2 SWAP1 PUSH2 0x14F8 JUMP JUMPDEST SWAP3 POP POP DUP2 SWAP1 SSTORE POP PUSH1 0x64 DUP2 PUSH1 0x2 ADD PUSH1 0x0 DUP3 DUP3 SLOAD PUSH2 0x66C SWAP2 SWAP1 PUSH2 0x14F8 JUMP JUMPDEST SWAP3 POP POP DUP2 SWAP1 SSTORE POP PUSH2 0x3E8 DUP2 PUSH1 0x3 ADD PUSH1 0x0 DUP3 DUP3 SLOAD PUSH2 0x689 SWAP2 SWAP1 PUSH2 0x14F8 JUMP JUMPDEST SWAP3 POP POP DUP2 SWAP1 SSTORE POP PUSH2 0x6EB JUMP JUMPDEST PUSH1 0x32 DUP2 PUSH1 0x1 ADD PUSH1 0x0 DUP3 DUP3 SLOAD PUSH2 0x6AA SWAP2 SWAP1 PUSH2 0x14F8 JUMP JUMPDEST SWAP3 POP POP DUP2 SWAP1 SSTORE POP PUSH1 0x32 DUP2 PUSH1 0x2 ADD PUSH1 0x0 DUP3 DUP3 SLOAD PUSH2 0x6C6 SWAP2 SWAP1 PUSH2 0x14F8 JUMP JUMPDEST SWAP3 POP POP DUP2 SWAP1 SSTORE POP PUSH2 0x1F4 DUP2 PUSH1 0x3 ADD PUSH1 0x0 DUP3 DUP3 SLOAD PUSH2 0x6E3 SWAP2 SWAP1 PUSH2 0x14F8 JUMP JUMPDEST SWAP3 POP POP DUP2 SWAP1 SSTORE POP JUMPDEST POP DUP1 DUP1 PUSH2 0x6F7 SWAP1 PUSH2 0x15BC JUMP JUMPDEST SWAP2 POP POP PUSH2 0x5F9 JUMP JUMPDEST POP POP POP POP POP POP POP POP JUMP JUMPDEST PUSH1 0x1 PUSH1 0x0 SWAP1 SLOAD SWAP1 PUSH2 0x100 EXP SWAP1 DIV PUSH20 0xFFFFFFFFFFFFFFFFFFFFFFFFFFFFFFFFFFFFFFFF AND DUP2 JUMP JUMPDEST PUSH2 0x737 PUSH2 0xD86 JUMP JUMPDEST PUSH1 0x3 PUSH1 0x0 DUP4 DUP2 MSTORE PUSH1 0x20 ADD SWAP1 DUP2 MSTORE PUSH1 0x20 ADD PUSH1 0x0 KECCAK256 PUSH1 0x40 MLOAD DUP1 PUSH1 0x80 ADD PUSH1 0x40 MSTORE SWAP1 DUP2 PUSH1 0x0 DUP3 ADD DUP1 SLOAD PUSH2 0x765 SWAP1 PUSH2 0x1469 JUMP JUMPDEST DUP1 PUSH1 0x1F ADD PUSH1 0x20 DUP1 SWAP2 DIV MUL PUSH1 0x20 ADD PUSH1 0x40 MLOAD SWAP1 DUP2 ADD PUSH1 0x40 MSTORE DUP1 SWAP3 SWAP2 SWAP1 DUP2 DUP2 MSTORE PUSH1 0x20 ADD DUP3 DUP1 SLOAD PUSH2 0x791 SWAP1 PUSH2 0x1469 JUMP JUMPDEST DUP1 ISZERO PUSH2 0x7DE JUMPI DUP1 PUSH1 0x1F LT PUSH2 0x7B3 JUMPI PUSH2 0x100 DUP1 DUP4 SLOAD DIV MUL DUP4 MSTORE SWAP2 PUSH1 0x20 ADD SWAP2 PUSH2 0x7DE JUMP JUMPDEST DUP3 ADD SWAP2 SWAP1 PUSH1 0x0 MSTORE PUSH1 0x20 PUSH1 0x0 KECCAK256 SWAP1 JUMPDEST DUP2 SLOAD DUP2 MSTORE SWAP1 PUSH1 0x1 ADD SWAP1 PUSH1 0x20 ADD DUP1 DUP4 GT PUSH2 0x7C1 JUMPI DUP3 SWAP1 SUB PUSH1 0x1F AND DUP3 ADD SWAP2 JUMPDEST POP POP POP POP POP DUP2 MSTORE PUSH1 0x20 ADD PUSH1 0x1 DUP3 ADD SLOAD DUP2 MSTORE PUSH1 0x20 ADD PUSH1 0x2 DUP3 ADD SLOAD DUP2 MSTORE PUSH1 0x20 ADD PUSH1 0x3 DUP3 ADD SLOAD DUP2 MSTORE POP POP SWAP1 POP SWAP2 SWAP1 POP JUMP JUMPDEST PUSH2 0x814 PUSH2 0xBDB JUMP JUMPDEST PUSH2 0x81E PUSH1 0x0 PUSH2 0xCBA JUMP JUMPDEST JUMP JUMPDEST PUSH1 0x0 DUP1 PUSH1 0x0 SWAP1 SLOAD SWAP1 PUSH2 0x100 EXP SWAP1 DIV PUSH20 0xFFFFFFFFFFFFFFFFFFFFFFFFFFFFFFFFFFFFFFFF AND SWAP1 POP SWAP1 JUMP JUMPDEST PUSH1 0x0 PUSH1 0x3 PUSH1 0x0 DUP5 DUP2 MSTORE PUSH1 0x20 ADD SWAP1 DUP2 MSTORE PUSH1 0x20 ADD PUSH1 0x0 KECCAK256 SWAP1 POP PUSH1 0x0 PUSH1 0x3 PUSH1 0x0 DUP5 DUP2 MSTORE PUSH1 0x20 ADD SWAP1 DUP2 MSTORE PUSH1 0x20 ADD PUSH1 0x0 KECCAK256 SWAP1 POP PUSH1 0x0 PUSH2 0x881 PUSH2 0xC59 JUMP JUMPDEST SWAP1 POP PUSH1 0x0 PUSH2 0x88D PUSH2 0xC59 JUMP JUMPDEST SWAP1 POP PUSH1 0x0 DUP2 DUP5 PUSH1 0x3 ADD SLOAD DUP6 PUSH1 0x2 ADD SLOAD DUP7 PUSH1 0x1 ADD SLOAD PUSH2 0x8AB SWAP2 SWAP1 PUSH2 0x14F8 JUMP JUMPDEST PUSH2 0x8B5 SWAP2 SWAP1 PUSH2 0x14F8 JUMP JUMPDEST PUSH2 0x8BF SWAP2 SWAP1 PUSH2 0x152C JUMP JUMPDEST DUP4 DUP7 PUSH1 0x3 ADD SLOAD DUP8 PUSH1 0x2 ADD SLOAD DUP9 PUSH1 0x1 ADD SLOAD PUSH2 0x8D9 SWAP2 SWAP1 PUSH2 0x14F8 JUMP JUMPDEST PUSH2 0x8E3 SWAP2 SWAP1 PUSH2 0x14F8 JUMP JUMPDEST PUSH2 0x8ED SWAP2 SWAP1 PUSH2 0x152C JUMP JUMPDEST PUSH2 0x8F7 SWAP2 SWAP1 PUSH2 0x1604 JUMP JUMPDEST SWAP1 POP PUSH1 0x0 DUP2 SGT ISZERO PUSH2 0x9AF JUMPI PUSH1 0xA DUP6 PUSH1 0x1 ADD PUSH1 0x0 DUP3 DUP3 SLOAD PUSH2 0x917 SWAP2 SWAP1 PUSH2 0x14F8 JUMP JUMPDEST SWAP3 POP POP DUP2 SWAP1 SSTORE POP PUSH1 0xA DUP6 PUSH1 0x2 ADD PUSH1 0x0 DUP3 DUP3 SLOAD PUSH2 0x933 SWAP2 SWAP1 PUSH2 0x14F8 JUMP JUMPDEST SWAP3 POP POP DUP2 SWAP1 SSTORE POP PUSH1 0x64 DUP6 PUSH1 0x3 ADD PUSH1 0x0 DUP3 DUP3 SLOAD PUSH2 0x94F SWAP2 SWAP1 PUSH2 0x14F8 JUMP JUMPDEST SWAP3 POP POP DUP2 SWAP1 SSTORE POP PUSH1 0x1 DUP5 PUSH1 0x1 ADD PUSH1 0x0 DUP3 DUP3 SLOAD PUSH2 0x96B SWAP2 SWAP1 PUSH2 0x14F8 JUMP JUMPDEST SWAP3 POP POP DUP2 SWAP1 SSTORE POP PUSH1 0x1 DUP5 PUSH1 0x2 ADD PUSH1 0x0 DUP3 DUP3 SLOAD PUSH2 0x987 SWAP2 SWAP1 PUSH2 0x14F8 JUMP JUMPDEST SWAP3 POP POP DUP2 SWAP1 SSTORE POP PUSH1 0x32 DUP5 PUSH1 0x3 ADD PUSH1 0x0 DUP3 DUP3 SLOAD PUSH2 0x9A3 SWAP2 SWAP1 PUSH2 0x14F8 JUMP JUMPDEST SWAP3 POP POP DUP2 SWAP1 SSTORE POP PUSH2 0xA58 JUMP JUMPDEST PUSH1 0x1 DUP6 PUSH1 0x1 ADD PUSH1 0x0 DUP3 DUP3 SLOAD PUSH2 0x9C4 SWAP2 SWAP1 PUSH2 0x14F8 JUMP JUMPDEST SWAP3 POP POP DUP2 SWAP1 SSTORE POP PUSH1 0x1 DUP6 PUSH1 0x2 ADD PUSH1 0x0 DUP3 DUP3 SLOAD PUSH2 0x9E0 SWAP2 SWAP1 PUSH2 0x14F8 JUMP JUMPDEST SWAP3 POP POP DUP2 SWAP1 SSTORE POP PUSH1 0x32 DUP6 PUSH1 0x3 ADD PUSH1 0x0 DUP3 DUP3 SLOAD PUSH2 0x9FC SWAP2 SWAP1 PUSH2 0x14F8 JUMP JUMPDEST SWAP3 POP POP DUP2 SWAP1 SSTORE POP PUSH1 0xA DUP5 PUSH1 0x1 ADD PUSH1 0x0 DUP3 DUP3 SLOAD PUSH2 0xA18 SWAP2 SWAP1 PUSH2 0x14F8 JUMP JUMPDEST SWAP3 POP POP DUP2 SWAP1 SSTORE POP PUSH1 0xA DUP5 PUSH1 0x2 ADD PUSH1 0x0 DUP3 DUP3 SLOAD PUSH2 0xA34 SWAP2 SWAP1 PUSH2 0x14F8 JUMP JUMPDEST SWAP3 POP POP DUP2 SWAP1 SSTORE POP PUSH1 0x64 DUP5 PUSH1 0x3 ADD PUSH1 0x0 DUP3 DUP3 SLOAD PUSH2 0xA50 SWAP2 SWAP1 PUSH2 0x14F8 JUMP JUMPDEST SWAP3 POP POP DUP2 SWAP1 SSTORE POP JUMPDEST POP POP POP POP POP POP POP JUMP JUMPDEST PUSH1 0x2 PUSH1 0x0 SWAP1 SLOAD SWAP1 PUSH2 0x100 EXP SWAP1 DIV PUSH20 0xFFFFFFFFFFFFFFFFFFFFFFFFFFFFFFFFFFFFFFFF AND PUSH20 0xFFFFFFFFFFFFFFFFFFFFFFFFFFFFFFFFFFFFFFFF AND CALLER PUSH20 0xFFFFFFFFFFFFFFFFFFFFFFFFFFFFFFFFFFFFFFFF AND EQ PUSH2 0xAF1 JUMPI PUSH1 0x40 MLOAD PUSH32 0x8C379A000000000000000000000000000000000000000000000000000000000 DUP2 MSTORE PUSH1 0x4 ADD PUSH2 0xAE8 SWAP1 PUSH2 0x16B9 JUMP JUMPDEST PUSH1 0x40 MLOAD DUP1 SWAP2 SUB SWAP1 REVERT JUMPDEST PUSH1 0x3 PUSH1 0x0 DUP3 DUP2 MSTORE PUSH1 0x20 ADD SWAP1 DUP2 MSTORE PUSH1 0x20 ADD PUSH1 0x0 KECCAK256 PUSH1 0x0 DUP1 DUP3 ADD PUSH1 0x0 PUSH2 0xB15 SWAP2 SWAP1 PUSH2 0xDAE JUMP JUMPDEST PUSH1 0x1 DUP3 ADD PUSH1 0x0 SWAP1 SSTORE PUSH1 0x2 DUP3 ADD PUSH1 0x0 SWAP1 SSTORE PUSH1 0x3 DUP3 ADD PUSH1 0x0 SWAP1 SSTORE POP POP POP JUMP JUMPDEST PUSH1 0x2 PUSH1 0x0 SWAP1 SLOAD SWAP1 PUSH2 0x100 EXP SWAP1 DIV PUSH20 0xFFFFFFFFFFFFFFFFFFFFFFFFFFFFFFFFFFFFFFFF AND DUP2 JUMP JUMPDEST PUSH2 0xB60 PUSH2 0xBDB JUMP JUMPDEST PUSH1 0x0 PUSH20 0xFFFFFFFFFFFFFFFFFFFFFFFFFFFFFFFFFFFFFFFF AND DUP2 PUSH20 0xFFFFFFFFFFFFFFFFFFFFFFFFFFFFFFFFFFFFFFFF AND SUB PUSH2 0xBCF JUMPI PUSH1 0x40 MLOAD PUSH32 0x8C379A000000000000000000000000000000000000000000000000000000000 DUP2 MSTORE PUSH1 0x4 ADD PUSH2 0xBC6 SWAP1 PUSH2 0x174B JUMP JUMPDEST PUSH1 0x40 MLOAD DUP1 SWAP2 SUB SWAP1 REVERT JUMPDEST PUSH2 0xBD8 DUP2 PUSH2 0xCBA JUMP JUMPDEST POP JUMP JUMPDEST PUSH2 0xBE3 PUSH2 0xD7E JUMP JUMPDEST PUSH20 0xFFFFFFFFFFFFFFFFFFFFFFFFFFFFFFFFFFFFFFFF AND PUSH2 0xC01 PUSH2 0x820 JUMP JUMPDEST PUSH20 0xFFFFFFFFFFFFFFFFFFFFFFFFFFFFFFFFFFFFFFFF AND EQ PUSH2 0xC57 JUMPI PUSH1 0x40 MLOAD PUSH32 0x8C379A000000000000000000000000000000000000000000000000000000000 DUP2 MSTORE PUSH1 0x4 ADD PUSH2 0xC4E SWAP1 PUSH2 0x17B7 JUMP JUMPDEST PUSH1 0x40 MLOAD DUP1 SWAP2 SUB SWAP1 REVERT JUMPDEST JUMP JUMPDEST PUSH1 0x0 PUSH1 0x50 PUSH1 0x1 PUSH1 0x50 PUSH1 0x64 PUSH2 0xC6D SWAP2 SWAP1 PUSH2 0x17D7 JUMP JUMPDEST PUSH2 0xC77 SWAP2 SWAP1 PUSH2 0x14F8 JUMP JUMPDEST TIMESTAMP PUSH1 0x40 MLOAD PUSH1 0x20 ADD PUSH2 0xC88 SWAP2 SWAP1 PUSH2 0x182C JUMP JUMPDEST PUSH1 0x40 MLOAD PUSH1 0x20 DUP2 DUP4 SUB SUB DUP2 MSTORE SWAP1 PUSH1 0x40 MSTORE DUP1 MLOAD SWAP1 PUSH1 0x20 ADD KECCAK256 PUSH1 0x0 SHR PUSH2 0xCAB SWAP2 SWAP1 PUSH2 0x1876 JUMP JUMPDEST PUSH2 0xCB5 SWAP2 SWAP1 PUSH2 0x14F8 JUMP JUMPDEST SWAP1 POP SWAP1 JUMP JUMPDEST PUSH1 0x0 DUP1 PUSH1 0x0 SWAP1 SLOAD SWAP1 PUSH2 0x100 EXP SWAP1 DIV PUSH20 0xFFFFFFFFFFFFFFFFFFFFFFFFFFFFFFFFFFFFFFFF AND SWAP1 POP DUP2 PUSH1 0x0 DUP1 PUSH2 0x100 EXP DUP2 SLOAD DUP2 PUSH20 0xFFFFFFFFFFFFFFFFFFFFFFFFFFFFFFFFFFFFFFFF MUL NOT AND SWAP1 DUP4 PUSH20 0xFFFFFFFFFFFFFFFFFFFFFFFFFFFFFFFFFFFFFFFF AND MUL OR SWAP1 SSTORE POP DUP2 PUSH20 0xFFFFFFFFFFFFFFFFFFFFFFFFFFFFFFFFFFFFFFFF AND DUP2 PUSH20 0xFFFFFFFFFFFFFFFFFFFFFFFFFFFFFFFFFFFFFFFF AND PUSH32 0x8BE0079C531659141344CD1FD0A4F28419497F9722A3DAAFE3B4186F6B6457E0 PUSH1 0x40 MLOAD PUSH1 0x40 MLOAD DUP1 SWAP2 SUB SWAP1 LOG3 POP POP JUMP JUMPDEST PUSH1 0x0 CALLER SWAP1 POP SWAP1 JUMP JUMPDEST PUSH1 0x40 MLOAD DUP1 PUSH1 0x80 ADD PUSH1 0x40 MSTORE DUP1 PUSH1 0x60 DUP2 MSTORE PUSH1 0x20 ADD PUSH1 0x0 DUP2 MSTORE PUSH1 0x20 ADD PUSH1 0x0 DUP2 MSTORE PUSH1 0x20 ADD PUSH1 0x0 DUP2 MSTORE POP SWAP1 JUMP JUMPDEST POP DUP1 SLOAD PUSH2 0xDBA SWAP1 PUSH2 0x1469 JUMP JUMPDEST PUSH1 0x0 DUP3 SSTORE DUP1 PUSH1 0x1F LT PUSH2 0xDCC JUMPI POP PUSH2 0xDEB JUMP JUMPDEST PUSH1 0x1F ADD PUSH1 0x20 SWAP1 DIV SWAP1 PUSH1 0x0 MSTORE PUSH1 0x20 PUSH1 0x0 KECCAK256 SWAP1 DUP2 ADD SWAP1 PUSH2 0xDEA SWAP2 SWAP1 PUSH2 0xDEE JUMP JUMPDEST JUMPDEST POP JUMP JUMPDEST JUMPDEST DUP1 DUP3 GT ISZERO PUSH2 0xE07 JUMPI PUSH1 0x0 DUP2 PUSH1 0x0 SWAP1 SSTORE POP PUSH1 0x1 ADD PUSH2 0xDEF JUMP JUMPDEST POP SWAP1 JUMP JUMPDEST PUSH1 0x0 PUSH1 0x40 MLOAD SWAP1 POP SWAP1 JUMP JUMPDEST PUSH1 0x0 DUP1 REVERT JUMPDEST PUSH1 0x0 DUP1 REVERT JUMPDEST PUSH1 0x0 DUP2 SWAP1 POP SWAP2 SWAP1 POP JUMP JUMPDEST PUSH2 0xE32 DUP2 PUSH2 0xE1F JUMP JUMPDEST DUP2 EQ PUSH2 0xE3D JUMPI PUSH1 0x0 DUP1 REVERT JUMPDEST POP JUMP JUMPDEST PUSH1 0x0 DUP2 CALLDATALOAD SWAP1 POP PUSH2 0xE4F DUP2 PUSH2 0xE29 JUMP JUMPDEST SWAP3 SWAP2 POP POP JUMP JUMPDEST PUSH1 0x0 PUSH1 0x20 DUP3 DUP5 SUB SLT ISZERO PUSH2 0xE6B JUMPI PUSH2 0xE6A PUSH2 0xE15 JUMP JUMPDEST JUMPDEST PUSH1 0x0 PUSH2 0xE79 DUP5 DUP3 DUP6 ADD PUSH2 0xE40 JUMP JUMPDEST SWAP2 POP POP SWAP3 SWAP2 POP POP JUMP JUMPDEST PUSH1 0x0 DUP2 MLOAD SWAP1 POP SWAP2 SWAP1 POP JUMP JUMPDEST PUSH1 0x0 DUP3 DUP3 MSTORE PUSH1 0x20 DUP3 ADD SWAP1 POP SWAP3 SWAP2 POP POP JUMP JUMPDEST PUSH1 0x0 JUMPDEST DUP4 DUP2 LT ISZERO PUSH2 0xEBC JUMPI DUP1 DUP3 ADD MLOAD DUP2 DUP5 ADD MSTORE PUSH1 0x20 DUP2 ADD SWAP1 POP PUSH2 0xEA1 JUMP JUMPDEST PUSH1 0x0 DUP5 DUP5 ADD MSTORE POP POP POP POP JUMP JUMPDEST PUSH1 0x0 PUSH1 0x1F NOT PUSH1 0x1F DUP4 ADD AND SWAP1 POP SWAP2 SWAP1 POP JUMP JUMPDEST PUSH1 0x0 PUSH2 0xEE4 DUP3 PUSH2 0xE82 JUMP JUMPDEST PUSH2 0xEEE DUP2 DUP6 PUSH2 0xE8D JUMP JUMPDEST SWAP4 POP PUSH2 0xEFE DUP2 DUP6 PUSH1 0x20 DUP7 ADD PUSH2 0xE9E JUMP JUMPDEST PUSH2 0xF07 DUP2 PUSH2 0xEC8 JUMP JUMPDEST DUP5 ADD SWAP2 POP POP SWAP3 SWAP2 POP POP JUMP JUMPDEST PUSH2 0xF1B DUP2 PUSH2 0xE1F JUMP JUMPDEST DUP3 MSTORE POP POP JUMP JUMPDEST PUSH1 0x0 PUSH1 0x80 DUP4 ADD PUSH1 0x0 DUP4 ADD MLOAD DUP5 DUP3 SUB PUSH1 0x0 DUP7 ADD MSTORE PUSH2 0xF3E DUP3 DUP3 PUSH2 0xED9 JUMP JUMPDEST SWAP2 POP POP PUSH1 0x20 DUP4 ADD MLOAD PUSH2 0xF53 PUSH1 0x20 DUP7 ADD DUP3 PUSH2 0xF12 JUMP JUMPDEST POP PUSH1 0x40 DUP4 ADD MLOAD PUSH2 0xF66 PUSH1 0x40 DUP7 ADD DUP3 PUSH2 0xF12 JUMP JUMPDEST POP PUSH1 0x60 DUP4 ADD MLOAD PUSH2 0xF79 PUSH1 0x60 DUP7 ADD DUP3 PUSH2 0xF12 JUMP JUMPDEST POP DUP1 SWAP2 POP POP SWAP3 SWAP2 POP POP JUMP JUMPDEST PUSH1 0x0 PUSH1 0x20 DUP3 ADD SWAP1 POP DUP2 DUP2 SUB PUSH1 0x0 DUP4 ADD MSTORE PUSH2 0xF9E DUP2 DUP5 PUSH2 0xF21 JUMP JUMPDEST SWAP1 POP SWAP3 SWAP2 POP POP JUMP JUMPDEST PUSH1 0x0 DUP3 DUP3 MSTORE PUSH1 0x20 DUP3 ADD SWAP1 POP SWAP3 SWAP2 POP POP JUMP JUMPDEST PUSH1 0x0 PUSH2 0xFC2 DUP3 PUSH2 0xE82 JUMP JUMPDEST PUSH2 0xFCC DUP2 DUP6 PUSH2 0xFA6 JUMP JUMPDEST SWAP4 POP PUSH2 0xFDC DUP2 DUP6 PUSH1 0x20 DUP7 ADD PUSH2 0xE9E JUMP JUMPDEST PUSH2 0xFE5 DUP2 PUSH2 0xEC8 JUMP JUMPDEST DUP5 ADD SWAP2 POP POP SWAP3 SWAP2 POP POP JUMP JUMPDEST PUSH2 0xFF9 DUP2 PUSH2 0xE1F JUMP JUMPDEST DUP3 MSTORE POP POP JUMP JUMPDEST PUSH1 0x0 PUSH1 0x80 DUP3 ADD SWAP1 POP DUP2 DUP2 SUB PUSH1 0x0 DUP4 ADD MSTORE PUSH2 0x1019 DUP2 DUP8 PUSH2 0xFB7 JUMP JUMPDEST SWAP1 POP PUSH2 0x1028 PUSH1 0x20 DUP4 ADD DUP7 PUSH2 0xFF0 JUMP JUMPDEST PUSH2 0x1035 PUSH1 0x40 DUP4 ADD DUP6 PUSH2 0xFF0 JUMP JUMPDEST PUSH2 0x1042 PUSH1 0x60 DUP4 ADD DUP5 PUSH2 0xFF0 JUMP JUMPDEST SWAP6 SWAP5 POP POP POP POP POP JUMP JUMPDEST PUSH1 0x0 PUSH20 0xFFFFFFFFFFFFFFFFFFFFFFFFFFFFFFFFFFFFFFFF DUP3 AND SWAP1 POP SWAP2 SWAP1 POP JUMP JUMPDEST PUSH1 0x0 PUSH2 0x1076 DUP3 PUSH2 0x104B JUMP JUMPDEST SWAP1 POP SWAP2 SWAP1 POP JUMP JUMPDEST PUSH2 0x1086 DUP2 PUSH2 0x106B JUMP JUMPDEST DUP2 EQ PUSH2 0x1091 JUMPI PUSH1 0x0 DUP1 REVERT JUMPDEST POP JUMP JUMPDEST PUSH1 0x0 DUP2 CALLDATALOAD SWAP1 POP PUSH2 0x10A3 DUP2 PUSH2 0x107D JUMP JUMPDEST SWAP3 SWAP2 POP POP JUMP JUMPDEST PUSH1 0x0 PUSH1 0x20 DUP3 DUP5 SUB SLT ISZERO PUSH2 0x10BF JUMPI PUSH2 0x10BE PUSH2 0xE15 JUMP JUMPDEST JUMPDEST PUSH1 0x0 PUSH2 0x10CD DUP5 DUP3 DUP6 ADD PUSH2 0x1094 JUMP JUMPDEST SWAP2 POP POP SWAP3 SWAP2 POP POP JUMP JUMPDEST PUSH1 0x0 DUP1 REVERT JUMPDEST PUSH32 0x4E487B7100000000000000000000000000000000000000000000000000000000 PUSH1 0x0 MSTORE PUSH1 0x41 PUSH1 0x4 MSTORE PUSH1 0x24 PUSH1 0x0 REVERT JUMPDEST PUSH2 0x1113 DUP3 PUSH2 0xEC8 JUMP JUMPDEST DUP2 ADD DUP2 DUP2 LT PUSH8 0xFFFFFFFFFFFFFFFF DUP3 GT OR ISZERO PUSH2 0x1132 JUMPI PUSH2 0x1131 PUSH2 0x10DB JUMP JUMPDEST JUMPDEST DUP1 PUSH1 0x40 MSTORE POP POP POP JUMP JUMPDEST PUSH1 0x0 PUSH2 0x1145 PUSH2 0xE0B JUMP JUMPDEST SWAP1 POP PUSH2 0x1151 DUP3 DUP3 PUSH2 0x110A JUMP JUMPDEST SWAP2 SWAP1 POP JUMP JUMPDEST PUSH1 0x0 PUSH8 0xFFFFFFFFFFFFFFFF DUP3 GT ISZERO PUSH2 0x1171 JUMPI PUSH2 0x1170 PUSH2 0x10DB JUMP JUMPDEST JUMPDEST PUSH1 0x20 DUP3 MUL SWAP1 POP PUSH1 0x20 DUP2 ADD SWAP1 POP SWAP2 SWAP1 POP JUMP JUMPDEST PUSH1 0x0 DUP1 REVERT JUMPDEST PUSH1 0x0 PUSH2 0x119A PUSH2 0x1195 DUP5 PUSH2 0x1156 JUMP JUMPDEST PUSH2 0x113B JUMP JUMPDEST SWAP1 POP DUP1 DUP4 DUP3 MSTORE PUSH1 0x20 DUP3 ADD SWAP1 POP PUSH1 0x20 DUP5 MUL DUP4 ADD DUP6 DUP2 GT ISZERO PUSH2 0x11BD JUMPI PUSH2 0x11BC PUSH2 0x1182 JUMP JUMPDEST JUMPDEST DUP4 JUMPDEST DUP2 DUP2 LT ISZERO PUSH2 0x11E6 JUMPI DUP1 PUSH2 0x11D2 DUP9 DUP3 PUSH2 0xE40 JUMP JUMPDEST DUP5 MSTORE PUSH1 0x20 DUP5 ADD SWAP4 POP POP PUSH1 0x20 DUP2 ADD SWAP1 POP PUSH2 0x11BF JUMP JUMPDEST POP POP POP SWAP4 SWAP3 POP POP POP JUMP JUMPDEST PUSH1 0x0 DUP3 PUSH1 0x1F DUP4 ADD SLT PUSH2 0x1205 JUMPI PUSH2 0x1204 PUSH2 0x10D6 JUMP JUMPDEST JUMPDEST DUP2 CALLDATALOAD PUSH2 0x1215 DUP5 DUP3 PUSH1 0x20 DUP7 ADD PUSH2 0x1187 JUMP JUMPDEST SWAP2 POP POP SWAP3 SWAP2 POP POP JUMP JUMPDEST PUSH1 0x0 DUP1 PUSH1 0x0 PUSH1 0x60 DUP5 DUP7 SUB SLT ISZERO PUSH2 0x1237 JUMPI PUSH2 0x1236 PUSH2 0xE15 JUMP JUMPDEST JUMPDEST PUSH1 0x0 DUP5 ADD CALLDATALOAD PUSH8 0xFFFFFFFFFFFFFFFF DUP2 GT ISZERO PUSH2 0x1255 JUMPI PUSH2 0x1254 PUSH2 0xE1A JUMP JUMPDEST JUMPDEST PUSH2 0x1261 DUP7 DUP3 DUP8 ADD PUSH2 0x11F0 JUMP JUMPDEST SWAP4 POP POP PUSH1 0x20 PUSH2 0x1272 DUP7 DUP3 DUP8 ADD PUSH2 0xE40 JUMP JUMPDEST SWAP3 POP POP PUSH1 0x40 PUSH2 0x1283 DUP7 DUP3 DUP8 ADD PUSH2 0xE40 JUMP JUMPDEST SWAP2 POP POP SWAP3 POP SWAP3 POP SWAP3 JUMP JUMPDEST PUSH1 0x0 DUP2 SWAP1 POP SWAP2 SWAP1 POP JUMP JUMPDEST PUSH1 0x0 PUSH2 0x12B2 PUSH2 0x12AD PUSH2 0x12A8 DUP5 PUSH2 0x104B JUMP JUMPDEST PUSH2 0x128D JUMP JUMPDEST PUSH2 0x104B JUMP JUMPDEST SWAP1 POP SWAP2 SWAP1 POP JUMP JUMPDEST PUSH1 0x0 PUSH2 0x12C4 DUP3 PUSH2 0x1297 JUMP JUMPDEST SWAP1 POP SWAP2 SWAP1 POP JUMP JUMPDEST PUSH1 0x0 PUSH2 0x12D6 DUP3 PUSH2 0x12B9 JUMP JUMPDEST SWAP1 POP SWAP2 SWAP1 POP JUMP JUMPDEST PUSH2 0x12E6 DUP2 PUSH2 0x12CB JUMP JUMPDEST DUP3 MSTORE POP POP JUMP JUMPDEST PUSH1 0x0 PUSH1 0x20 DUP3 ADD SWAP1 POP PUSH2 0x1301 PUSH1 0x0 DUP4 ADD DUP5 PUSH2 0x12DD JUMP JUMPDEST SWAP3 SWAP2 POP POP JUMP JUMPDEST PUSH2 0x1310 DUP2 PUSH2 0x106B JUMP JUMPDEST DUP3 MSTORE POP POP JUMP JUMPDEST PUSH1 0x0 PUSH1 0x20 DUP3 ADD SWAP1 POP PUSH2 0x132B PUSH1 0x0 DUP4 ADD DUP5 PUSH2 0x1307 JUMP JUMPDEST SWAP3 SWAP2 POP POP JUMP JUMPDEST PUSH1 0x0 DUP1 PUSH1 0x40 DUP4 DUP6 SUB SLT ISZERO PUSH2 0x1348 JUMPI PUSH2 0x1347 PUSH2 0xE15 JUMP JUMPDEST JUMPDEST PUSH1 0x0 PUSH2 0x1356 DUP6 DUP3 DUP7 ADD PUSH2 0xE40 JUMP JUMPDEST SWAP3 POP POP PUSH1 0x20 PUSH2 0x1367 DUP6 DUP3 DUP7 ADD PUSH2 0xE40 JUMP JUMPDEST SWAP2 POP POP SWAP3 POP SWAP3 SWAP1 POP JUMP JUMPDEST PUSH1 0x0 PUSH1 0x20 DUP3 ADD SWAP1 POP PUSH2 0x1386 PUSH1 0x0 DUP4 ADD DUP5 PUSH2 0xFF0 JUMP JUMPDEST SWAP3 SWAP2 POP POP JUMP JUMPDEST PUSH1 0x0 DUP2 MLOAD SWAP1 POP PUSH2 0x139B DUP2 PUSH2 0x107D JUMP JUMPDEST SWAP3 SWAP2 POP POP JUMP JUMPDEST PUSH1 0x0 PUSH1 0x20 DUP3 DUP5 SUB SLT ISZERO PUSH2 0x13B7 JUMPI PUSH2 0x13B6 PUSH2 0xE15 JUMP JUMPDEST JUMPDEST PUSH1 0x0 PUSH2 0x13C5 DUP5 DUP3 DUP6 ADD PUSH2 0x138C JUMP JUMPDEST SWAP2 POP POP SWAP3 SWAP2 POP POP JUMP JUMPDEST PUSH32 0x4E465420646F6573206E6F742065786973740000000000000000000000000000 PUSH1 0x0 DUP3 ADD MSTORE POP JUMP JUMPDEST PUSH1 0x0 PUSH2 0x1404 PUSH1 0x12 DUP4 PUSH2 0xFA6 JUMP JUMPDEST SWAP2 POP PUSH2 0x140F DUP3 PUSH2 0x13CE JUMP JUMPDEST PUSH1 0x20 DUP3 ADD SWAP1 POP SWAP2 SWAP1 POP JUMP JUMPDEST PUSH1 0x0 PUSH1 0x20 DUP3 ADD SWAP1 POP DUP2 DUP2 SUB PUSH1 0x0 DUP4 ADD MSTORE PUSH2 0x1433 DUP2 PUSH2 0x13F7 JUMP JUMPDEST SWAP1 POP SWAP2 SWAP1 POP JUMP JUMPDEST PUSH32 0x4E487B7100000000000000000000000000000000000000000000000000000000 PUSH1 0x0 MSTORE PUSH1 0x22 PUSH1 0x4 MSTORE PUSH1 0x24 PUSH1 0x0 REVERT JUMPDEST PUSH1 0x0 PUSH1 0x2 DUP3 DIV SWAP1 POP PUSH1 0x1 DUP3 AND DUP1 PUSH2 0x1481 JUMPI PUSH1 0x7F DUP3 AND SWAP2 POP JUMPDEST PUSH1 0x20 DUP3 LT DUP2 SUB PUSH2 0x1494 JUMPI PUSH2 0x1493 PUSH2 0x143A JUMP JUMPDEST JUMPDEST POP SWAP2 SWAP1 POP JUMP JUMPDEST PUSH32 0x4E487B7100000000000000000000000000000000000000000000000000000000 PUSH1 0x0 MSTORE PUSH1 0x32 PUSH1 0x4 MSTORE PUSH1 0x24 PUSH1 0x0 REVERT JUMPDEST PUSH32 0x4E487B7100000000000000000000000000000000000000000000000000000000 PUSH1 0x0 MSTORE PUSH1 0x11 PUSH1 0x4 MSTORE PUSH1 0x24 PUSH1 0x0 REVERT JUMPDEST PUSH1 0x0 PUSH2 0x1503 DUP3 PUSH2 0xE1F JUMP JUMPDEST SWAP2 POP PUSH2 0x150E DUP4 PUSH2 0xE1F JUMP JUMPDEST SWAP3 POP DUP3 DUP3 ADD SWAP1 POP DUP1 DUP3 GT ISZERO PUSH2 0x1526 JUMPI PUSH2 0x1525 PUSH2 0x14C9 JUMP JUMPDEST JUMPDEST SWAP3 SWAP2 POP POP JUMP JUMPDEST PUSH1 0x0 PUSH2 0x1537 DUP3 PUSH2 0xE1F JUMP JUMPDEST SWAP2 POP PUSH2 0x1542 DUP4 PUSH2 0xE1F JUMP JUMPDEST SWAP3 POP DUP3 DUP3 MUL PUSH2 0x1550 DUP2 PUSH2 0xE1F JUMP JUMPDEST SWAP2 POP DUP3 DUP3 DIV DUP5 EQ DUP4 ISZERO OR PUSH2 0x1567 JUMPI PUSH2 0x1566 PUSH2 0x14C9 JUMP JUMPDEST JUMPDEST POP SWAP3 SWAP2 POP POP JUMP JUMPDEST PUSH1 0x0 DUP2 SWAP1 POP SWAP2 SWAP1 POP JUMP JUMPDEST PUSH1 0x0 PUSH2 0x1583 DUP3 PUSH2 0x156E JUMP JUMPDEST SWAP2 POP PUSH2 0x158E DUP4 PUSH2 0x156E JUMP JUMPDEST SWAP3 POP DUP3 DUP3 ADD SWAP1 POP DUP3 DUP2 SLT ISZERO PUSH1 0x0 DUP4 SLT AND DUP4 DUP3 SLT PUSH1 0x0 DUP5 SLT ISZERO AND OR ISZERO PUSH2 0x15B6 JUMPI PUSH2 0x15B5 PUSH2 0x14C9 JUMP JUMPDEST JUMPDEST SWAP3 SWAP2 POP POP JUMP JUMPDEST PUSH1 0x0 PUSH2 0x15C7 DUP3 PUSH2 0xE1F JUMP JUMPDEST SWAP2 POP PUSH32 0xFFFFFFFFFFFFFFFFFFFFFFFFFFFFFFFFFFFFFFFFFFFFFFFFFFFFFFFFFFFFFFFF DUP3 SUB PUSH2 0x15F9 JUMPI PUSH2 0x15F8 PUSH2 0x14C9 JUMP JUMPDEST JUMPDEST PUSH1 0x1 DUP3 ADD SWAP1 POP SWAP2 SWAP1 POP JUMP JUMPDEST PUSH1 0x0 PUSH2 0x160F DUP3 PUSH2 0x156E JUMP JUMPDEST SWAP2 POP PUSH2 0x161A DUP4 PUSH2 0x156E JUMP JUMPDEST SWAP3 POP DUP3 DUP3 SUB SWAP1 POP DUP2 DUP2 SLT PUSH1 0x0 DUP5 SLT AND DUP3 DUP3 SGT PUSH1 0x0 DUP6 SLT ISZERO AND OR ISZERO PUSH2 0x1641 JUMPI PUSH2 0x1640 PUSH2 0x14C9 JUMP JUMPDEST JUMPDEST SWAP3 SWAP2 POP POP JUMP JUMPDEST PUSH32 0x4F6E6C79207468652074727573746564204E46544D616E6167656D656E742063 PUSH1 0x0 DUP3 ADD MSTORE PUSH32 0x6F6E74726163742063616E2063616C6C20746869732066756E6374696F6E0000 PUSH1 0x20 DUP3 ADD MSTORE POP JUMP JUMPDEST PUSH1 0x0 PUSH2 0x16A3 PUSH1 0x3E DUP4 PUSH2 0xFA6 JUMP JUMPDEST SWAP2 POP PUSH2 0x16AE DUP3 PUSH2 0x1647 JUMP JUMPDEST PUSH1 0x40 DUP3 ADD SWAP1 POP SWAP2 SWAP1 POP JUMP JUMPDEST PUSH1 0x0 PUSH1 0x20 DUP3 ADD SWAP1 POP DUP2 DUP2 SUB PUSH1 0x0 DUP4 ADD MSTORE PUSH2 0x16D2 DUP2 PUSH2 0x1696 JUMP JUMPDEST SWAP1 POP SWAP2 SWAP1 POP JUMP JUMPDEST PUSH32 0x4F776E61626C653A206E6577206F776E657220697320746865207A65726F2061 PUSH1 0x0 DUP3 ADD MSTORE PUSH32 0x6464726573730000000000000000000000000000000000000000000000000000 PUSH1 0x20 DUP3 ADD MSTORE POP JUMP JUMPDEST PUSH1 0x0 PUSH2 0x1735 PUSH1 0x26 DUP4 PUSH2 0xFA6 JUMP JUMPDEST SWAP2 POP PUSH2 0x1740 DUP3 PUSH2 0x16D9 JUMP JUMPDEST PUSH1 0x40 DUP3 ADD SWAP1 POP SWAP2 SWAP1 POP JUMP JUMPDEST PUSH1 0x0 PUSH1 0x20 DUP3 ADD SWAP1 POP DUP2 DUP2 SUB PUSH1 0x0 DUP4 ADD MSTORE PUSH2 0x1764 DUP2 PUSH2 0x1728 JUMP JUMPDEST SWAP1 POP SWAP2 SWAP1 POP JUMP JUMPDEST PUSH32 0x4F776E61626C653A2063616C6C6572206973206E6F7420746865206F776E6572 PUSH1 0x0 DUP3 ADD MSTORE POP JUMP JUMPDEST PUSH1 0x0 PUSH2 0x17A1 PUSH1 0x20 DUP4 PUSH2 0xFA6 JUMP JUMPDEST SWAP2 POP PUSH2 0x17AC DUP3 PUSH2 0x176B JUMP JUMPDEST PUSH1 0x20 DUP3 ADD SWAP1 POP SWAP2 SWAP1 POP JUMP JUMPDEST PUSH1 0x0 PUSH1 0x20 DUP3 ADD SWAP1 POP DUP2 DUP2 SUB PUSH1 0x0 DUP4 ADD MSTORE PUSH2 0x17D0 DUP2 PUSH2 0x1794 JUMP JUMPDEST SWAP1 POP SWAP2 SWAP1 POP JUMP JUMPDEST PUSH1 0x0 PUSH2 0x17E2 DUP3 PUSH2 0xE1F JUMP JUMPDEST SWAP2 POP PUSH2 0x17ED DUP4 PUSH2 0xE1F JUMP JUMPDEST SWAP3 POP DUP3 DUP3 SUB SWAP1 POP DUP2 DUP2 GT ISZERO PUSH2 0x1805 JUMPI PUSH2 0x1804 PUSH2 0x14C9 JUMP JUMPDEST JUMPDEST SWAP3 SWAP2 POP POP JUMP JUMPDEST PUSH1 0x0 DUP2 SWAP1 POP SWAP2 SWAP1 POP JUMP JUMPDEST PUSH2 0x1826 PUSH2 0x1821 DUP3 PUSH2 0xE1F JUMP JUMPDEST PUSH2 0x180B JUMP JUMPDEST DUP3 MSTORE POP POP JUMP JUMPDEST PUSH1 0x0 PUSH2 0x1838 DUP3 DUP5 PUSH2 0x1815 JUMP JUMPDEST PUSH1 0x20 DUP3 ADD SWAP2 POP DUP2 SWAP1 POP SWAP3 SWAP2 POP POP JUMP JUMPDEST PUSH32 0x4E487B7100000000000000000000000000000000000000000000000000000000 PUSH1 0x0 MSTORE PUSH1 0x12 PUSH1 0x4 MSTORE PUSH1 0x24 PUSH1 0x0 REVERT JUMPDEST PUSH1 0x0 PUSH2 0x1881 DUP3 PUSH2 0xE1F JUMP JUMPDEST SWAP2 POP PUSH2 0x188C DUP4 PUSH2 0xE1F JUMP JUMPDEST SWAP3 POP DUP3 PUSH2 0x189C JUMPI PUSH2 0x189B PUSH2 0x1847 JUMP JUMPDEST JUMPDEST DUP3 DUP3 MOD SWAP1 POP SWAP3 SWAP2 POP POP JUMP INVALID LOG2 PUSH5 0x6970667358 0x22 SLT KECCAK256 SWAP15 MSIZE SDIV SAR ORIGIN PUSH16 0x852A68197E4A72D07C590F8E92DD2D55 0xE0 0x5C 0x5E 0xE0 0xFB 0xEB MLOAD PUSH2 0x6C33 PUSH5 0x736F6C6343 STOP ADDMOD SGT STOP CALLER "
				},
				"gasEstimates": {
					"creation": {
						"codeDepositCost": "1273000",
						"executionCost": "infinite",
						"totalCost": "infinite"
					},
					"external": {
						"deletePlayerData(uint256)": "infinite",
						"getNFTData(uint256)": "infinite",
						"getplayerData(uint256)": "infinite",
						"nft()": "infinite",
						"owner()": "2544",
						"playerData(uint256)": "infinite",
						"playerVersusNPC(uint256[],uint256,uint256)": "infinite",
						"playerVersusPlayer(uint256,uint256)": "infinite",
						"renounceOwnership()": "30398",
						"setTrustedNFTManagement(address)": "27031",
						"transferOwnership(address)": "30854",
						"trustedNFTManagement()": "2602"
					},
					"internal": {
						"random()": "infinite"
					}
				},
				"methodIdentifiers": {
					"deletePlayerData(uint256)": "d7b8d485",
					"getNFTData(uint256)": "0ad4c4f4",
					"getplayerData(uint256)": "5f52789b",
					"nft()": "47ccca02",
					"owner()": "8da5cb5b",
					"playerData(uint256)": "0aec4ed1",
					"playerVersusNPC(uint256[],uint256,uint256)": "38a2c0a3",
					"playerVersusPlayer(uint256,uint256)": "b67836f8",
					"renounceOwnership()": "715018a6",
					"setTrustedNFTManagement(address)": "25cab809",
					"transferOwnership(address)": "f2fde38b",
					"trustedNFTManagement()": "e00974ff"
				}
			},
			"storageLayout": {
				"storage": [
					{
						"astId": 7,
						"contract": "trustless cross-chain/trading pair formation/Battlegame.sol:BattleGame",
						"label": "_owner",
						"offset": 0,
						"slot": "0",
						"type": "t_address"
					},
					{
						"astId": 271,
						"contract": "trustless cross-chain/trading pair formation/Battlegame.sol:BattleGame",
						"label": "nft",
						"offset": 0,
						"slot": "1",
						"type": "t_contract(IERC721)228"
					},
					{
						"astId": 273,
						"contract": "trustless cross-chain/trading pair formation/Battlegame.sol:BattleGame",
						"label": "trustedNFTManagement",
						"offset": 0,
						"slot": "2",
						"type": "t_address"
					},
					{
						"astId": 293,
						"contract": "trustless cross-chain/trading pair formation/Battlegame.sol:BattleGame",
						"label": "playerData",
						"offset": 0,
						"slot": "3",
						"type": "t_mapping(t_uint256,t_struct(PlayerData)288_storage)"
					}
				],
				"types": {
					"t_address": {
						"encoding": "inplace",
						"label": "address",
						"numberOfBytes": "20"
					},
					"t_contract(IERC721)228": {
						"encoding": "inplace",
						"label": "contract IERC721",
						"numberOfBytes": "20"
					},
					"t_mapping(t_uint256,t_struct(PlayerData)288_storage)": {
						"encoding": "mapping",
						"key": "t_uint256",
						"label": "mapping(uint256 => struct BattleGame.PlayerData)",
						"numberOfBytes": "32",
						"value": "t_struct(PlayerData)288_storage"
					},
					"t_string_storage": {
						"encoding": "bytes",
						"label": "string",
						"numberOfBytes": "32"
					},
					"t_struct(PlayerData)288_storage": {
						"encoding": "inplace",
						"label": "struct BattleGame.PlayerData",
						"members": [
							{
								"astId": 281,
								"contract": "trustless cross-chain/trading pair formation/Battlegame.sol:BattleGame",
								"label": "name",
								"offset": 0,
								"slot": "0",
								"type": "t_string_storage"
							},
							{
								"astId": 283,
								"contract": "trustless cross-chain/trading pair formation/Battlegame.sol:BattleGame",
								"label": "attack",
								"offset": 0,
								"slot": "1",
								"type": "t_uint256"
							},
							{
								"astId": 285,
								"contract": "trustless cross-chain/trading pair formation/Battlegame.sol:BattleGame",
								"label": "defense",
								"offset": 0,
								"slot": "2",
								"type": "t_uint256"
							},
							{
								"astId": 287,
								"contract": "trustless cross-chain/trading pair formation/Battlegame.sol:BattleGame",
								"label": "experience",
								"offset": 0,
								"slot": "3",
								"type": "t_uint256"
							}
						],
						"numberOfBytes": "128"
					},
					"t_uint256": {
						"encoding": "inplace",
						"label": "uint256",
						"numberOfBytes": "32"
					}
				}
			},
			"userdoc": {
				"kind": "user",
				"methods": {},
				"version": 1
			}
		}
	}
}