{
	"trustless cross-chain/trading pair formation/deposit2.sol": {
		"TokenDeposit": {
			"abi": [
				{
					"anonymous": false,
					"inputs": [
						{
							"indexed": false,
							"internalType": "bytes32",
							"name": "depositId",
							"type": "bytes32"
						},
						{
							"indexed": true,
							"internalType": "address",
							"name": "depositor",
							"type": "address"
						},
						{
							"indexed": false,
							"internalType": "string",
							"name": "symbol",
							"type": "string"
						},
						{
							"indexed": false,
							"internalType": "uint256",
							"name": "amount",
							"type": "uint256"
						},
						{
							"indexed": false,
							"internalType": "uint256",
							"name": "blockNumber",
							"type": "uint256"
						}
					],
					"name": "DepositLocked",
					"type": "event"
				},
				{
					"anonymous": false,
					"inputs": [
						{
							"indexed": false,
							"internalType": "bytes32",
							"name": "depositId",
							"type": "bytes32"
						}
					],
					"name": "EventOccurred",
					"type": "event"
				},
				{
					"anonymous": false,
					"inputs": [
						{
							"indexed": false,
							"internalType": "bytes32",
							"name": "depositId",
							"type": "bytes32"
						}
					],
					"name": "Withdrawn",
					"type": "event"
				},
				{
					"inputs": [
						{
							"internalType": "address",
							"name": "token",
							"type": "address"
						},
						{
							"internalType": "string",
							"name": "symbol",
							"type": "string"
						},
						{
							"internalType": "uint256",
							"name": "amount",
							"type": "uint256"
						},
						{
							"internalType": "uint256",
							"name": "blockNumber",
							"type": "uint256"
						},
						{
							"internalType": "bool",
							"name": "triggerEvent",
							"type": "bool"
						}
					],
					"name": "deposit",
					"outputs": [],
					"stateMutability": "nonpayable",
					"type": "function"
				},
				{
					"inputs": [
						{
							"internalType": "bytes32",
							"name": "",
							"type": "bytes32"
						}
					],
					"name": "deposits",
					"outputs": [
						{
							"internalType": "address",
							"name": "depositor",
							"type": "address"
						},
						{
							"internalType": "string",
							"name": "symbol",
							"type": "string"
						},
						{
							"internalType": "uint256",
							"name": "amount",
							"type": "uint256"
						},
						{
							"internalType": "uint256",
							"name": "blockNumber",
							"type": "uint256"
						},
						{
							"internalType": "bool",
							"name": "withdrawn",
							"type": "bool"
						},
						{
							"internalType": "bool",
							"name": "eventOccurred",
							"type": "bool"
						}
					],
					"stateMutability": "view",
					"type": "function"
				},
				{
					"inputs": [
						{
							"internalType": "bytes32",
							"name": "depositId",
							"type": "bytes32"
						}
					],
					"name": "triggerEvent",
					"outputs": [],
					"stateMutability": "nonpayable",
					"type": "function"
				},
				{
					"inputs": [
						{
							"internalType": "bytes32",
							"name": "depositId",
							"type": "bytes32"
						},
						{
							"internalType": "address",
							"name": "token",
							"type": "address"
						}
					],
					"name": "withdraw",
					"outputs": [],
					"stateMutability": "nonpayable",
					"type": "function"
				}
			],
			"devdoc": {
				"kind": "dev",
				"methods": {},
				"version": 1
			},
			"evm": {
				"assembly": "    /* \"trustless cross-chain/trading pair formation/deposit2.sol\":149:2377  contract TokenDeposit {... */\n  mstore(0x40, 0x80)\n  callvalue\n  dup1\n  iszero\n  tag_1\n  jumpi\n  0x00\n  dup1\n  revert\ntag_1:\n  pop\n  dataSize(sub_0)\n  dup1\n  dataOffset(sub_0)\n  0x00\n  codecopy\n  0x00\n  return\nstop\n\nsub_0: assembly {\n        /* \"trustless cross-chain/trading pair formation/deposit2.sol\":149:2377  contract TokenDeposit {... */\n      mstore(0x40, 0x80)\n      callvalue\n      dup1\n      iszero\n      tag_1\n      jumpi\n      0x00\n      dup1\n      revert\n    tag_1:\n      pop\n      jumpi(tag_2, lt(calldatasize, 0x04))\n      shr(0xe0, calldataload(0x00))\n      dup1\n      0x1b258d50\n      eq\n      tag_3\n      jumpi\n      dup1\n      0x3d4dff7b\n      eq\n      tag_4\n      jumpi\n      dup1\n      0xab6d1c09\n      eq\n      tag_5\n      jumpi\n      dup1\n      0xef90dbb6\n      eq\n      tag_6\n      jumpi\n    tag_2:\n      0x00\n      dup1\n      revert\n        /* \"trustless cross-chain/trading pair formation/deposit2.sol\":1280:1819  function withdraw(bytes32 depositId, address token) public {... */\n    tag_3:\n      tag_7\n      0x04\n      dup1\n      calldatasize\n      sub\n      dup2\n      add\n      swap1\n      tag_8\n      swap2\n      swap1\n      tag_9\n      jump\t// in\n    tag_8:\n      tag_10\n      jump\t// in\n    tag_7:\n      stop\n        /* \"trustless cross-chain/trading pair formation/deposit2.sol\":393:436  mapping(bytes32 => Deposit) public deposits */\n    tag_4:\n      tag_11\n      0x04\n      dup1\n      calldatasize\n      sub\n      dup2\n      add\n      swap1\n      tag_12\n      swap2\n      swap1\n      tag_13\n      jump\t// in\n    tag_12:\n      tag_14\n      jump\t// in\n    tag_11:\n      mload(0x40)\n      tag_15\n      swap7\n      swap6\n      swap5\n      swap4\n      swap3\n      swap2\n      swap1\n      tag_16\n      jump\t// in\n    tag_15:\n      mload(0x40)\n      dup1\n      swap2\n      sub\n      swap1\n      return\n        /* \"trustless cross-chain/trading pair formation/deposit2.sol\":1825:1921  function triggerEvent(bytes32 depositId) public {... */\n    tag_5:\n      tag_17\n      0x04\n      dup1\n      calldatasize\n      sub\n      dup2\n      add\n      swap1\n      tag_18\n      swap2\n      swap1\n      tag_13\n      jump\t// in\n    tag_18:\n      tag_19\n      jump\t// in\n    tag_17:\n      stop\n        /* \"trustless cross-chain/trading pair formation/deposit2.sol\":651:1274  function deposit(address token, string memory symbol, uint256 amount, uint256 blockNumber, bool triggerEvent) public {... */\n    tag_6:\n      tag_20\n      0x04\n      dup1\n      calldatasize\n      sub\n      dup2\n      add\n      swap1\n      tag_21\n      swap2\n      swap1\n      tag_22\n      jump\t// in\n    tag_21:\n      tag_23\n      jump\t// in\n    tag_20:\n      stop\n        /* \"trustless cross-chain/trading pair formation/deposit2.sol\":1280:1819  function withdraw(bytes32 depositId, address token) public {... */\n    tag_10:\n        /* \"trustless cross-chain/trading pair formation/deposit2.sol\":1349:1372  Deposit storage deposit */\n      0x00\n        /* \"trustless cross-chain/trading pair formation/deposit2.sol\":1375:1383  deposits */\n      dup1\n        /* \"trustless cross-chain/trading pair formation/deposit2.sol\":1375:1394  deposits[depositId] */\n      0x00\n        /* \"trustless cross-chain/trading pair formation/deposit2.sol\":1384:1393  depositId */\n      dup5\n        /* \"trustless cross-chain/trading pair formation/deposit2.sol\":1375:1394  deposits[depositId] */\n      dup2\n      mstore\n      0x20\n      add\n      swap1\n      dup2\n      mstore\n      0x20\n      add\n      0x00\n      keccak256\n        /* \"trustless cross-chain/trading pair formation/deposit2.sol\":1349:1394  Deposit storage deposit = deposits[depositId] */\n      swap1\n      pop\n        /* \"trustless cross-chain/trading pair formation/deposit2.sol\":1414:1421  deposit */\n      dup1\n        /* \"trustless cross-chain/trading pair formation/deposit2.sol\":1414:1431  deposit.withdrawn */\n      0x04\n      add\n      0x00\n      swap1\n      sload\n      swap1\n      0x0100\n      exp\n      swap1\n      div\n      0xff\n      and\n        /* \"trustless cross-chain/trading pair formation/deposit2.sol\":1413:1431  !deposit.withdrawn */\n      iszero\n        /* \"trustless cross-chain/trading pair formation/deposit2.sol\":1405:1462  require(!deposit.withdrawn, \"Deposit already withdrawn.\") */\n      tag_25\n      jumpi\n      mload(0x40)\n      0x08c379a000000000000000000000000000000000000000000000000000000000\n      dup2\n      mstore\n      0x04\n      add\n      tag_26\n      swap1\n      tag_27\n      jump\t// in\n    tag_26:\n      mload(0x40)\n      dup1\n      swap2\n      sub\n      swap1\n      revert\n    tag_25:\n        /* \"trustless cross-chain/trading pair formation/deposit2.sol\":1501:1511  msg.sender */\n      caller\n        /* \"trustless cross-chain/trading pair formation/deposit2.sol\":1480:1511  deposit.depositor == msg.sender */\n      0xffffffffffffffffffffffffffffffffffffffff\n      and\n        /* \"trustless cross-chain/trading pair formation/deposit2.sol\":1480:1487  deposit */\n      dup2\n        /* \"trustless cross-chain/trading pair formation/deposit2.sol\":1480:1497  deposit.depositor */\n      0x00\n      add\n      0x00\n      swap1\n      sload\n      swap1\n      0x0100\n      exp\n      swap1\n      div\n      0xffffffffffffffffffffffffffffffffffffffff\n      and\n        /* \"trustless cross-chain/trading pair formation/deposit2.sol\":1480:1511  deposit.depositor == msg.sender */\n      0xffffffffffffffffffffffffffffffffffffffff\n      and\n      eq\n        /* \"trustless cross-chain/trading pair formation/deposit2.sol\":1472:1560  require(deposit.depositor == msg.sender, \"Only the depositor can withdraw the deposit.\") */\n      tag_28\n      jumpi\n      mload(0x40)\n      0x08c379a000000000000000000000000000000000000000000000000000000000\n      dup2\n      mstore\n      0x04\n      add\n      tag_29\n      swap1\n      tag_30\n      jump\t// in\n    tag_29:\n      mload(0x40)\n      dup1\n      swap2\n      sub\n      swap1\n      revert\n    tag_28:\n        /* \"trustless cross-chain/trading pair formation/deposit2.sol\":1578:1585  deposit */\n      dup1\n        /* \"trustless cross-chain/trading pair formation/deposit2.sol\":1578:1599  deposit.eventOccurred */\n      0x04\n      add\n      0x01\n      swap1\n      sload\n      swap1\n      0x0100\n      exp\n      swap1\n      div\n      0xff\n      and\n        /* \"trustless cross-chain/trading pair formation/deposit2.sol\":1578:1638  deposit.eventOccurred || block.number >= deposit.blockNumber */\n      dup1\n      tag_31\n      jumpi\n      pop\n        /* \"trustless cross-chain/trading pair formation/deposit2.sol\":1619:1626  deposit */\n      dup1\n        /* \"trustless cross-chain/trading pair formation/deposit2.sol\":1619:1638  deposit.blockNumber */\n      0x03\n      add\n      sload\n        /* \"trustless cross-chain/trading pair formation/deposit2.sol\":1603:1615  block.number */\n      number\n        /* \"trustless cross-chain/trading pair formation/deposit2.sol\":1603:1638  block.number >= deposit.blockNumber */\n      lt\n      iszero\n        /* \"trustless cross-chain/trading pair formation/deposit2.sol\":1578:1638  deposit.eventOccurred || block.number >= deposit.blockNumber */\n    tag_31:\n        /* \"trustless cross-chain/trading pair formation/deposit2.sol\":1570:1677  require(deposit.eventOccurred || block.number >= deposit.blockNumber, \"Conditions for withdrawal not met.\") */\n      tag_32\n      jumpi\n      mload(0x40)\n      0x08c379a000000000000000000000000000000000000000000000000000000000\n      dup2\n      mstore\n      0x04\n      add\n      tag_33\n      swap1\n      tag_34\n      jump\t// in\n    tag_33:\n      mload(0x40)\n      dup1\n      swap2\n      sub\n      swap1\n      revert\n    tag_32:\n        /* \"trustless cross-chain/trading pair formation/deposit2.sol\":1708:1712  true */\n      0x01\n        /* \"trustless cross-chain/trading pair formation/deposit2.sol\":1688:1695  deposit */\n      dup2\n        /* \"trustless cross-chain/trading pair formation/deposit2.sol\":1688:1705  deposit.withdrawn */\n      0x04\n      add\n      0x00\n        /* \"trustless cross-chain/trading pair formation/deposit2.sol\":1688:1712  deposit.withdrawn = true */\n      0x0100\n      exp\n      dup2\n      sload\n      dup2\n      0xff\n      mul\n      not\n      and\n      swap1\n      dup4\n      iszero\n      iszero\n      mul\n      or\n      swap1\n      sstore\n      pop\n        /* \"trustless cross-chain/trading pair formation/deposit2.sol\":1722:1776  IERC20(token).safeTransfer(msg.sender, deposit.amount) */\n      tag_35\n        /* \"trustless cross-chain/trading pair formation/deposit2.sol\":1749:1759  msg.sender */\n      caller\n        /* \"trustless cross-chain/trading pair formation/deposit2.sol\":1761:1768  deposit */\n      dup3\n        /* \"trustless cross-chain/trading pair formation/deposit2.sol\":1761:1775  deposit.amount */\n      0x02\n      add\n      sload\n        /* \"trustless cross-chain/trading pair formation/deposit2.sol\":1729:1734  token */\n      dup5\n        /* \"trustless cross-chain/trading pair formation/deposit2.sol\":1722:1748  IERC20(token).safeTransfer */\n      0xffffffffffffffffffffffffffffffffffffffff\n      and\n      tag_36\n      swap1\n        /* \"trustless cross-chain/trading pair formation/deposit2.sol\":1722:1776  IERC20(token).safeTransfer(msg.sender, deposit.amount) */\n      swap3\n      swap2\n      swap1\n      0xffffffff\n      and\n      jump\t// in\n    tag_35:\n        /* \"trustless cross-chain/trading pair formation/deposit2.sol\":1792:1812  Withdrawn(depositId) */\n      0x44654674e66e9e53d34afdf3e9513fb94b4c8b946e980d6958ef4e6a37a153e3\n        /* \"trustless cross-chain/trading pair formation/deposit2.sol\":1802:1811  depositId */\n      dup4\n        /* \"trustless cross-chain/trading pair formation/deposit2.sol\":1792:1812  Withdrawn(depositId) */\n      mload(0x40)\n      tag_37\n      swap2\n      swap1\n      tag_38\n      jump\t// in\n    tag_37:\n      mload(0x40)\n      dup1\n      swap2\n      sub\n      swap1\n      log1\n        /* \"trustless cross-chain/trading pair formation/deposit2.sol\":1339:1819  {... */\n      pop\n        /* \"trustless cross-chain/trading pair formation/deposit2.sol\":1280:1819  function withdraw(bytes32 depositId, address token) public {... */\n      pop\n      pop\n      jump\t// out\n        /* \"trustless cross-chain/trading pair formation/deposit2.sol\":393:436  mapping(bytes32 => Deposit) public deposits */\n    tag_14:\n      mstore(0x20, 0x00)\n      dup1\n      0x00\n      mstore\n      keccak256(0x00, 0x40)\n      0x00\n      swap2\n      pop\n      swap1\n      pop\n      dup1\n      0x00\n      add\n      0x00\n      swap1\n      sload\n      swap1\n      0x0100\n      exp\n      swap1\n      div\n      0xffffffffffffffffffffffffffffffffffffffff\n      and\n      swap1\n      dup1\n      0x01\n      add\n      dup1\n      sload\n      tag_39\n      swap1\n      tag_40\n      jump\t// in\n    tag_39:\n      dup1\n      0x1f\n      add\n      0x20\n      dup1\n      swap2\n      div\n      mul\n      0x20\n      add\n      mload(0x40)\n      swap1\n      dup2\n      add\n      0x40\n      mstore\n      dup1\n      swap3\n      swap2\n      swap1\n      dup2\n      dup2\n      mstore\n      0x20\n      add\n      dup3\n      dup1\n      sload\n      tag_41\n      swap1\n      tag_40\n      jump\t// in\n    tag_41:\n      dup1\n      iszero\n      tag_42\n      jumpi\n      dup1\n      0x1f\n      lt\n      tag_43\n      jumpi\n      0x0100\n      dup1\n      dup4\n      sload\n      div\n      mul\n      dup4\n      mstore\n      swap2\n      0x20\n      add\n      swap2\n      jump(tag_42)\n    tag_43:\n      dup3\n      add\n      swap2\n      swap1\n      0x00\n      mstore\n      keccak256(0x00, 0x20)\n      swap1\n    tag_44:\n      dup2\n      sload\n      dup2\n      mstore\n      swap1\n      0x01\n      add\n      swap1\n      0x20\n      add\n      dup1\n      dup4\n      gt\n      tag_44\n      jumpi\n      dup3\n      swap1\n      sub\n      0x1f\n      and\n      dup3\n      add\n      swap2\n    tag_42:\n      pop\n      pop\n      pop\n      pop\n      pop\n      swap1\n      dup1\n      0x02\n      add\n      sload\n      swap1\n      dup1\n      0x03\n      add\n      sload\n      swap1\n      dup1\n      0x04\n      add\n      0x00\n      swap1\n      sload\n      swap1\n      0x0100\n      exp\n      swap1\n      div\n      0xff\n      and\n      swap1\n      dup1\n      0x04\n      add\n      0x01\n      swap1\n      sload\n      swap1\n      0x0100\n      exp\n      swap1\n      div\n      0xff\n      and\n      swap1\n      pop\n      dup7\n      jump\t// out\n        /* \"trustless cross-chain/trading pair formation/deposit2.sol\":1825:1921  function triggerEvent(bytes32 depositId) public {... */\n    tag_19:\n        /* \"trustless cross-chain/trading pair formation/deposit2.sol\":1883:1914  triggerEventInternal(depositId) */\n      tag_46\n        /* \"trustless cross-chain/trading pair formation/deposit2.sol\":1904:1913  depositId */\n      dup2\n        /* \"trustless cross-chain/trading pair formation/deposit2.sol\":1883:1903  triggerEventInternal */\n      tag_47\n        /* \"trustless cross-chain/trading pair formation/deposit2.sol\":1883:1914  triggerEventInternal(depositId) */\n      jump\t// in\n    tag_46:\n        /* \"trustless cross-chain/trading pair formation/deposit2.sol\":1825:1921  function triggerEvent(bytes32 depositId) public {... */\n      pop\n      jump\t// out\n        /* \"trustless cross-chain/trading pair formation/deposit2.sol\":651:1274  function deposit(address token, string memory symbol, uint256 amount, uint256 blockNumber, bool triggerEvent) public {... */\n    tag_23:\n        /* \"trustless cross-chain/trading pair formation/deposit2.sol\":795:796  0 */\n      0x00\n        /* \"trustless cross-chain/trading pair formation/deposit2.sol\":786:792  amount */\n      dup4\n        /* \"trustless cross-chain/trading pair formation/deposit2.sol\":786:796  amount > 0 */\n      gt\n        /* \"trustless cross-chain/trading pair formation/deposit2.sol\":778:834  require(amount > 0, \"Amount must be greater than zero.\") */\n      tag_49\n      jumpi\n      mload(0x40)\n      0x08c379a000000000000000000000000000000000000000000000000000000000\n      dup2\n      mstore\n      0x04\n      add\n      tag_50\n      swap1\n      tag_51\n      jump\t// in\n    tag_50:\n      mload(0x40)\n      dup1\n      swap2\n      sub\n      swap1\n      revert\n    tag_49:\n        /* \"trustless cross-chain/trading pair formation/deposit2.sol\":844:909  IERC20(token).safeTransferFrom(msg.sender, address(this), amount) */\n      tag_52\n        /* \"trustless cross-chain/trading pair formation/deposit2.sol\":875:885  msg.sender */\n      caller\n        /* \"trustless cross-chain/trading pair formation/deposit2.sol\":895:899  this */\n      address\n        /* \"trustless cross-chain/trading pair formation/deposit2.sol\":902:908  amount */\n      dup6\n        /* \"trustless cross-chain/trading pair formation/deposit2.sol\":851:856  token */\n      dup9\n        /* \"trustless cross-chain/trading pair formation/deposit2.sol\":844:874  IERC20(token).safeTransferFrom */\n      0xffffffffffffffffffffffffffffffffffffffff\n      and\n      tag_53\n      swap1\n        /* \"trustless cross-chain/trading pair formation/deposit2.sol\":844:909  IERC20(token).safeTransferFrom(msg.sender, address(this), amount) */\n      swap4\n      swap3\n      swap2\n      swap1\n      0xffffffff\n      and\n      jump\t// in\n    tag_52:\n        /* \"trustless cross-chain/trading pair formation/deposit2.sol\":920:937  bytes32 depositId */\n      0x00\n        /* \"trustless cross-chain/trading pair formation/deposit2.sol\":967:977  msg.sender */\n      caller\n        /* \"trustless cross-chain/trading pair formation/deposit2.sol\":979:985  symbol */\n      dup6\n        /* \"trustless cross-chain/trading pair formation/deposit2.sol\":987:993  amount */\n      dup6\n        /* \"trustless cross-chain/trading pair formation/deposit2.sol\":995:1006  blockNumber */\n      dup6\n        /* \"trustless cross-chain/trading pair formation/deposit2.sol\":950:1007  abi.encodePacked(msg.sender, symbol, amount, blockNumber) */\n      add(0x20, mload(0x40))\n      tag_54\n      swap5\n      swap4\n      swap3\n      swap2\n      swap1\n      tag_55\n      jump\t// in\n    tag_54:\n      mload(0x40)\n      0x20\n      dup2\n      dup4\n      sub\n      sub\n      dup2\n      mstore\n      swap1\n      0x40\n      mstore\n        /* \"trustless cross-chain/trading pair formation/deposit2.sol\":940:1008  keccak256(abi.encodePacked(msg.sender, symbol, amount, blockNumber)) */\n      dup1\n      mload\n      swap1\n      0x20\n      add\n      keccak256\n        /* \"trustless cross-chain/trading pair formation/deposit2.sol\":920:1008  bytes32 depositId = keccak256(abi.encodePacked(msg.sender, symbol, amount, blockNumber)) */\n      swap1\n      pop\n        /* \"trustless cross-chain/trading pair formation/deposit2.sol\":1040:1102  Deposit(msg.sender, symbol, amount, blockNumber, false, false) */\n      mload(0x40)\n      dup1\n      0xc0\n      add\n      0x40\n      mstore\n      dup1\n        /* \"trustless cross-chain/trading pair formation/deposit2.sol\":1048:1058  msg.sender */\n      caller\n        /* \"trustless cross-chain/trading pair formation/deposit2.sol\":1040:1102  Deposit(msg.sender, symbol, amount, blockNumber, false, false) */\n      0xffffffffffffffffffffffffffffffffffffffff\n      and\n      dup2\n      mstore\n      0x20\n      add\n        /* \"trustless cross-chain/trading pair formation/deposit2.sol\":1060:1066  symbol */\n      dup7\n        /* \"trustless cross-chain/trading pair formation/deposit2.sol\":1040:1102  Deposit(msg.sender, symbol, amount, blockNumber, false, false) */\n      dup2\n      mstore\n      0x20\n      add\n        /* \"trustless cross-chain/trading pair formation/deposit2.sol\":1068:1074  amount */\n      dup6\n        /* \"trustless cross-chain/trading pair formation/deposit2.sol\":1040:1102  Deposit(msg.sender, symbol, amount, blockNumber, false, false) */\n      dup2\n      mstore\n      0x20\n      add\n        /* \"trustless cross-chain/trading pair formation/deposit2.sol\":1076:1087  blockNumber */\n      dup5\n        /* \"trustless cross-chain/trading pair formation/deposit2.sol\":1040:1102  Deposit(msg.sender, symbol, amount, blockNumber, false, false) */\n      dup2\n      mstore\n      0x20\n      add\n        /* \"trustless cross-chain/trading pair formation/deposit2.sol\":1089:1094  false */\n      0x00\n        /* \"trustless cross-chain/trading pair formation/deposit2.sol\":1040:1102  Deposit(msg.sender, symbol, amount, blockNumber, false, false) */\n      iszero\n      iszero\n      dup2\n      mstore\n      0x20\n      add\n        /* \"trustless cross-chain/trading pair formation/deposit2.sol\":1096:1101  false */\n      0x00\n        /* \"trustless cross-chain/trading pair formation/deposit2.sol\":1040:1102  Deposit(msg.sender, symbol, amount, blockNumber, false, false) */\n      iszero\n      iszero\n      dup2\n      mstore\n      pop\n        /* \"trustless cross-chain/trading pair formation/deposit2.sol\":1018:1026  deposits */\n      0x00\n        /* \"trustless cross-chain/trading pair formation/deposit2.sol\":1018:1037  deposits[depositId] */\n      dup1\n        /* \"trustless cross-chain/trading pair formation/deposit2.sol\":1027:1036  depositId */\n      dup4\n        /* \"trustless cross-chain/trading pair formation/deposit2.sol\":1018:1037  deposits[depositId] */\n      dup2\n      mstore\n      0x20\n      add\n      swap1\n      dup2\n      mstore\n      0x20\n      add\n      0x00\n      keccak256\n        /* \"trustless cross-chain/trading pair formation/deposit2.sol\":1018:1102  deposits[depositId] = Deposit(msg.sender, symbol, amount, blockNumber, false, false) */\n      0x00\n      dup3\n      add\n      mload\n      dup2\n      0x00\n      add\n      exp(0x0100, 0x00)\n      dup2\n      sload\n      dup2\n      0xffffffffffffffffffffffffffffffffffffffff\n      mul\n      not\n      and\n      swap1\n      dup4\n      0xffffffffffffffffffffffffffffffffffffffff\n      and\n      mul\n      or\n      swap1\n      sstore\n      pop\n      0x20\n      dup3\n      add\n      mload\n      dup2\n      0x01\n      add\n      swap1\n      dup2\n      tag_56\n      swap2\n      swap1\n      tag_57\n      jump\t// in\n    tag_56:\n      pop\n      0x40\n      dup3\n      add\n      mload\n      dup2\n      0x02\n      add\n      sstore\n      0x60\n      dup3\n      add\n      mload\n      dup2\n      0x03\n      add\n      sstore\n      0x80\n      dup3\n      add\n      mload\n      dup2\n      0x04\n      add\n      exp(0x0100, 0x00)\n      dup2\n      sload\n      dup2\n      0xff\n      mul\n      not\n      and\n      swap1\n      dup4\n      iszero\n      iszero\n      mul\n      or\n      swap1\n      sstore\n      pop\n      0xa0\n      dup3\n      add\n      mload\n      dup2\n      0x04\n      add\n      exp(0x0100, 0x01)\n      dup2\n      sload\n      dup2\n      0xff\n      mul\n      not\n      and\n      swap1\n      dup4\n      iszero\n      iszero\n      mul\n      or\n      swap1\n      sstore\n      pop\n      swap1\n      pop\n      pop\n        /* \"trustless cross-chain/trading pair formation/deposit2.sol\":1143:1153  msg.sender */\n      caller\n        /* \"trustless cross-chain/trading pair formation/deposit2.sol\":1118:1183  DepositLocked(depositId, msg.sender, symbol, amount, blockNumber) */\n      0xffffffffffffffffffffffffffffffffffffffff\n      and\n      0xa1cff1b2f4bcfbf6eeee2c1d4fd6de1249eeaa035f878bd93899dc7a8348b6\n        /* \"trustless cross-chain/trading pair formation/deposit2.sol\":1132:1141  depositId */\n      dup3\n        /* \"trustless cross-chain/trading pair formation/deposit2.sol\":1155:1161  symbol */\n      dup8\n        /* \"trustless cross-chain/trading pair formation/deposit2.sol\":1163:1169  amount */\n      dup8\n        /* \"trustless cross-chain/trading pair formation/deposit2.sol\":1171:1182  blockNumber */\n      dup8\n        /* \"trustless cross-chain/trading pair formation/deposit2.sol\":1118:1183  DepositLocked(depositId, msg.sender, symbol, amount, blockNumber) */\n      mload(0x40)\n      tag_58\n      swap5\n      swap4\n      swap3\n      swap2\n      swap1\n      tag_59\n      jump\t// in\n    tag_58:\n      mload(0x40)\n      dup1\n      swap2\n      sub\n      swap1\n      log2\n        /* \"trustless cross-chain/trading pair formation/deposit2.sol\":1198:1210  triggerEvent */\n      dup2\n        /* \"trustless cross-chain/trading pair formation/deposit2.sol\":1194:1268  if (triggerEvent) {... */\n      iszero\n      tag_60\n      jumpi\n        /* \"trustless cross-chain/trading pair formation/deposit2.sol\":1226:1257  triggerEventInternal(depositId) */\n      tag_61\n        /* \"trustless cross-chain/trading pair formation/deposit2.sol\":1247:1256  depositId */\n      dup2\n        /* \"trustless cross-chain/trading pair formation/deposit2.sol\":1226:1246  triggerEventInternal */\n      tag_47\n        /* \"trustless cross-chain/trading pair formation/deposit2.sol\":1226:1257  triggerEventInternal(depositId) */\n      jump\t// in\n    tag_61:\n        /* \"trustless cross-chain/trading pair formation/deposit2.sol\":1194:1268  if (triggerEvent) {... */\n    tag_60:\n        /* \"trustless cross-chain/trading pair formation/deposit2.sol\":768:1274  {... */\n      pop\n        /* \"trustless cross-chain/trading pair formation/deposit2.sol\":651:1274  function deposit(address token, string memory symbol, uint256 amount, uint256 blockNumber, bool triggerEvent) public {... */\n      pop\n      pop\n      pop\n      pop\n      pop\n      jump\t// out\n        /* \"@openzeppelin/contracts/token/ERC20/utils/SafeERC20.sol\":763:968  function safeTransfer(... */\n    tag_36:\n        /* \"@openzeppelin/contracts/token/ERC20/utils/SafeERC20.sol\":875:961  _callOptionalReturn(token, abi.encodeWithSelector(token.transfer.selector, to, value)) */\n      tag_63\n        /* \"@openzeppelin/contracts/token/ERC20/utils/SafeERC20.sol\":895:900  token */\n      dup4\n        /* \"@openzeppelin/contracts/token/ERC20/utils/SafeERC20.sol\":925:948  token.transfer.selector */\n      shl(0xe0, 0xa9059cbb)\n        /* \"@openzeppelin/contracts/token/ERC20/utils/SafeERC20.sol\":950:952  to */\n      dup5\n        /* \"@openzeppelin/contracts/token/ERC20/utils/SafeERC20.sol\":954:959  value */\n      dup5\n        /* \"@openzeppelin/contracts/token/ERC20/utils/SafeERC20.sol\":902:960  abi.encodeWithSelector(token.transfer.selector, to, value) */\n      add(0x24, mload(0x40))\n      tag_64\n      swap3\n      swap2\n      swap1\n      tag_65\n      jump\t// in\n    tag_64:\n      mload(0x40)\n      0x20\n      dup2\n      dup4\n      sub\n      sub\n      dup2\n      mstore\n      swap1\n      0x40\n      mstore\n      swap1\n      not(0xffffffffffffffffffffffffffffffffffffffffffffffffffffffff)\n      and\n      0x20\n      dup3\n      add\n      dup1\n      mload\n      0xffffffffffffffffffffffffffffffffffffffffffffffffffffffff\n      dup4\n      dup2\n      dup4\n      and\n      or\n      dup4\n      mstore\n      pop\n      pop\n      pop\n      pop\n        /* \"@openzeppelin/contracts/token/ERC20/utils/SafeERC20.sol\":875:894  _callOptionalReturn */\n      tag_66\n        /* \"@openzeppelin/contracts/token/ERC20/utils/SafeERC20.sol\":875:961  _callOptionalReturn(token, abi.encodeWithSelector(token.transfer.selector, to, value)) */\n      jump\t// in\n    tag_63:\n        /* \"@openzeppelin/contracts/token/ERC20/utils/SafeERC20.sol\":763:968  function safeTransfer(... */\n      pop\n      pop\n      pop\n      jump\t// out\n        /* \"trustless cross-chain/trading pair formation/deposit2.sol\":1927:2375  function triggerEventInternal(bytes32 depositId) internal {... */\n    tag_47:\n        /* \"trustless cross-chain/trading pair formation/deposit2.sol\":2095:2107  bool isValid */\n      0x00\n        /* \"trustless cross-chain/trading pair formation/deposit2.sol\":2131:2138  isValid */\n      dup1\n        /* \"trustless cross-chain/trading pair formation/deposit2.sol\":2126:2369  if (!isValid) {... */\n      tag_68\n      jumpi\n        /* \"trustless cross-chain/trading pair formation/deposit2.sol\":2154:2177  Deposit storage deposit */\n      0x00\n        /* \"trustless cross-chain/trading pair formation/deposit2.sol\":2180:2188  deposits */\n      dup1\n        /* \"trustless cross-chain/trading pair formation/deposit2.sol\":2180:2199  deposits[depositId] */\n      0x00\n        /* \"trustless cross-chain/trading pair formation/deposit2.sol\":2189:2198  depositId */\n      dup5\n        /* \"trustless cross-chain/trading pair formation/deposit2.sol\":2180:2199  deposits[depositId] */\n      dup2\n      mstore\n      0x20\n      add\n      swap1\n      dup2\n      mstore\n      0x20\n      add\n      0x00\n      keccak256\n        /* \"trustless cross-chain/trading pair formation/deposit2.sol\":2154:2199  Deposit storage deposit = deposits[depositId] */\n      swap1\n      pop\n        /* \"trustless cross-chain/trading pair formation/deposit2.sol\":2222:2229  deposit */\n      dup1\n        /* \"trustless cross-chain/trading pair formation/deposit2.sol\":2222:2243  deposit.eventOccurred */\n      0x04\n      add\n      0x01\n      swap1\n      sload\n      swap1\n      0x0100\n      exp\n      swap1\n      div\n      0xff\n      and\n        /* \"trustless cross-chain/trading pair formation/deposit2.sol\":2221:2243  !deposit.eventOccurred */\n      iszero\n        /* \"trustless cross-chain/trading pair formation/deposit2.sol\":2213:2271  require(!deposit.eventOccurred, \"Event already occurred.\") */\n      tag_69\n      jumpi\n      mload(0x40)\n      0x08c379a000000000000000000000000000000000000000000000000000000000\n      dup2\n      mstore\n      0x04\n      add\n      tag_70\n      swap1\n      tag_71\n      jump\t// in\n    tag_70:\n      mload(0x40)\n      dup1\n      swap2\n      sub\n      swap1\n      revert\n    tag_69:\n        /* \"trustless cross-chain/trading pair formation/deposit2.sol\":2310:2314  true */\n      0x01\n        /* \"trustless cross-chain/trading pair formation/deposit2.sol\":2286:2293  deposit */\n      dup2\n        /* \"trustless cross-chain/trading pair formation/deposit2.sol\":2286:2307  deposit.eventOccurred */\n      0x04\n      add\n      0x01\n        /* \"trustless cross-chain/trading pair formation/deposit2.sol\":2286:2314  deposit.eventOccurred = true */\n      0x0100\n      exp\n      dup2\n      sload\n      dup2\n      0xff\n      mul\n      not\n      and\n      swap1\n      dup4\n      iszero\n      iszero\n      mul\n      or\n      swap1\n      sstore\n      pop\n        /* \"trustless cross-chain/trading pair formation/deposit2.sol\":2334:2358  EventOccurred(depositId) */\n      0x3374383624a6239154f46d2d6fc35a0e58e2f53b0d5ea77c85d26e3fddebdee0\n        /* \"trustless cross-chain/trading pair formation/deposit2.sol\":2348:2357  depositId */\n      dup4\n        /* \"trustless cross-chain/trading pair formation/deposit2.sol\":2334:2358  EventOccurred(depositId) */\n      mload(0x40)\n      tag_72\n      swap2\n      swap1\n      tag_38\n      jump\t// in\n    tag_72:\n      mload(0x40)\n      dup1\n      swap2\n      sub\n      swap1\n      log1\n        /* \"trustless cross-chain/trading pair formation/deposit2.sol\":2140:2369  {... */\n      pop\n        /* \"trustless cross-chain/trading pair formation/deposit2.sol\":2126:2369  if (!isValid) {... */\n    tag_68:\n        /* \"trustless cross-chain/trading pair formation/deposit2.sol\":1985:2375  {... */\n      pop\n        /* \"trustless cross-chain/trading pair formation/deposit2.sol\":1927:2375  function triggerEventInternal(bytes32 depositId) internal {... */\n      pop\n      jump\t// out\n        /* \"@openzeppelin/contracts/token/ERC20/utils/SafeERC20.sol\":974:1215  function safeTransferFrom(... */\n    tag_53:\n        /* \"@openzeppelin/contracts/token/ERC20/utils/SafeERC20.sol\":1112:1208  _callOptionalReturn(token, abi.encodeWithSelector(token.transferFrom.selector, from, to, value)) */\n      tag_74\n        /* \"@openzeppelin/contracts/token/ERC20/utils/SafeERC20.sol\":1132:1137  token */\n      dup5\n        /* \"@openzeppelin/contracts/token/ERC20/utils/SafeERC20.sol\":1162:1189  token.transferFrom.selector */\n      shl(0xe0, 0x23b872dd)\n        /* \"@openzeppelin/contracts/token/ERC20/utils/SafeERC20.sol\":1191:1195  from */\n      dup6\n        /* \"@openzeppelin/contracts/token/ERC20/utils/SafeERC20.sol\":1197:1199  to */\n      dup6\n        /* \"@openzeppelin/contracts/token/ERC20/utils/SafeERC20.sol\":1201:1206  value */\n      dup6\n        /* \"@openzeppelin/contracts/token/ERC20/utils/SafeERC20.sol\":1139:1207  abi.encodeWithSelector(token.transferFrom.selector, from, to, value) */\n      add(0x24, mload(0x40))\n      tag_75\n      swap4\n      swap3\n      swap2\n      swap1\n      tag_76\n      jump\t// in\n    tag_75:\n      mload(0x40)\n      0x20\n      dup2\n      dup4\n      sub\n      sub\n      dup2\n      mstore\n      swap1\n      0x40\n      mstore\n      swap1\n      not(0xffffffffffffffffffffffffffffffffffffffffffffffffffffffff)\n      and\n      0x20\n      dup3\n      add\n      dup1\n      mload\n      0xffffffffffffffffffffffffffffffffffffffffffffffffffffffff\n      dup4\n      dup2\n      dup4\n      and\n      or\n      dup4\n      mstore\n      pop\n      pop\n      pop\n      pop\n        /* \"@openzeppelin/contracts/token/ERC20/utils/SafeERC20.sol\":1112:1131  _callOptionalReturn */\n      tag_66\n        /* \"@openzeppelin/contracts/token/ERC20/utils/SafeERC20.sol\":1112:1208  _callOptionalReturn(token, abi.encodeWithSelector(token.transferFrom.selector, from, to, value)) */\n      jump\t// in\n    tag_74:\n        /* \"@openzeppelin/contracts/token/ERC20/utils/SafeERC20.sol\":974:1215  function safeTransferFrom(... */\n      pop\n      pop\n      pop\n      pop\n      jump\t// out\n        /* \"@openzeppelin/contracts/token/ERC20/utils/SafeERC20.sol\":3747:4453  function _callOptionalReturn(IERC20 token, bytes memory data) private {... */\n    tag_66:\n        /* \"@openzeppelin/contracts/token/ERC20/utils/SafeERC20.sol\":4166:4189  bytes memory returndata */\n      0x00\n        /* \"@openzeppelin/contracts/token/ERC20/utils/SafeERC20.sol\":4192:4261  address(token).functionCall(data, \"SafeERC20: low-level call failed\") */\n      tag_78\n        /* \"@openzeppelin/contracts/token/ERC20/utils/SafeERC20.sol\":4220:4224  data */\n      dup3\n        /* \"@openzeppelin/contracts/token/ERC20/utils/SafeERC20.sol\":4192:4261  address(token).functionCall(data, \"SafeERC20: low-level call failed\") */\n      mload(0x40)\n      dup1\n      0x40\n      add\n      0x40\n      mstore\n      dup1\n      0x20\n      dup2\n      mstore\n      0x20\n      add\n      0x5361666545524332303a206c6f772d6c6576656c2063616c6c206661696c6564\n      dup2\n      mstore\n      pop\n        /* \"@openzeppelin/contracts/token/ERC20/utils/SafeERC20.sol\":4200:4205  token */\n      dup6\n        /* \"@openzeppelin/contracts/token/ERC20/utils/SafeERC20.sol\":4192:4219  address(token).functionCall */\n      0xffffffffffffffffffffffffffffffffffffffff\n      and\n      tag_79\n      swap1\n        /* \"@openzeppelin/contracts/token/ERC20/utils/SafeERC20.sol\":4192:4261  address(token).functionCall(data, \"SafeERC20: low-level call failed\") */\n      swap3\n      swap2\n      swap1\n      0xffffffff\n      and\n      jump\t// in\n    tag_78:\n        /* \"@openzeppelin/contracts/token/ERC20/utils/SafeERC20.sol\":4166:4261  bytes memory returndata = address(token).functionCall(data, \"SafeERC20: low-level call failed\") */\n      swap1\n      pop\n        /* \"@openzeppelin/contracts/token/ERC20/utils/SafeERC20.sol\":4295:4296  0 */\n      0x00\n        /* \"@openzeppelin/contracts/token/ERC20/utils/SafeERC20.sol\":4275:4285  returndata */\n      dup2\n        /* \"@openzeppelin/contracts/token/ERC20/utils/SafeERC20.sol\":4275:4292  returndata.length */\n      mload\n        /* \"@openzeppelin/contracts/token/ERC20/utils/SafeERC20.sol\":4275:4296  returndata.length > 0 */\n      gt\n        /* \"@openzeppelin/contracts/token/ERC20/utils/SafeERC20.sol\":4271:4447  if (returndata.length > 0) {... */\n      iszero\n      tag_80\n      jumpi\n        /* \"@openzeppelin/contracts/token/ERC20/utils/SafeERC20.sol\":4370:4380  returndata */\n      dup1\n        /* \"@openzeppelin/contracts/token/ERC20/utils/SafeERC20.sol\":4359:4389  abi.decode(returndata, (bool)) */\n      dup1\n      0x20\n      add\n      swap1\n      mload\n      dup2\n      add\n      swap1\n      tag_81\n      swap2\n      swap1\n      tag_82\n      jump\t// in\n    tag_81:\n        /* \"@openzeppelin/contracts/token/ERC20/utils/SafeERC20.sol\":4351:4436  require(abi.decode(returndata, (bool)), \"SafeERC20: ERC20 operation did not succeed\") */\n      tag_83\n      jumpi\n      mload(0x40)\n      0x08c379a000000000000000000000000000000000000000000000000000000000\n      dup2\n      mstore\n      0x04\n      add\n      tag_84\n      swap1\n      tag_85\n      jump\t// in\n    tag_84:\n      mload(0x40)\n      dup1\n      swap2\n      sub\n      swap1\n      revert\n    tag_83:\n        /* \"@openzeppelin/contracts/token/ERC20/utils/SafeERC20.sol\":4271:4447  if (returndata.length > 0) {... */\n    tag_80:\n        /* \"@openzeppelin/contracts/token/ERC20/utils/SafeERC20.sol\":3817:4453  {... */\n      pop\n        /* \"@openzeppelin/contracts/token/ERC20/utils/SafeERC20.sol\":3747:4453  function _callOptionalReturn(IERC20 token, bytes memory data) private {... */\n      pop\n      pop\n      jump\t// out\n        /* \"@openzeppelin/contracts/utils/Address.sol\":3873:4096  function functionCall(... */\n    tag_79:\n        /* \"@openzeppelin/contracts/utils/Address.sol\":4006:4018  bytes memory */\n      0x60\n        /* \"@openzeppelin/contracts/utils/Address.sol\":4037:4089  functionCallWithValue(target, data, 0, errorMessage) */\n      tag_87\n        /* \"@openzeppelin/contracts/utils/Address.sol\":4059:4065  target */\n      dup5\n        /* \"@openzeppelin/contracts/utils/Address.sol\":4067:4071  data */\n      dup5\n        /* \"@openzeppelin/contracts/utils/Address.sol\":4073:4074  0 */\n      0x00\n        /* \"@openzeppelin/contracts/utils/Address.sol\":4076:4088  errorMessage */\n      dup6\n        /* \"@openzeppelin/contracts/utils/Address.sol\":4037:4058  functionCallWithValue */\n      tag_88\n        /* \"@openzeppelin/contracts/utils/Address.sol\":4037:4089  functionCallWithValue(target, data, 0, errorMessage) */\n      jump\t// in\n    tag_87:\n        /* \"@openzeppelin/contracts/utils/Address.sol\":4030:4089  return functionCallWithValue(target, data, 0, errorMessage) */\n      swap1\n      pop\n        /* \"@openzeppelin/contracts/utils/Address.sol\":3873:4096  function functionCall(... */\n      swap4\n      swap3\n      pop\n      pop\n      pop\n      jump\t// out\n        /* \"@openzeppelin/contracts/utils/Address.sol\":4960:5406  function functionCallWithValue(... */\n    tag_88:\n        /* \"@openzeppelin/contracts/utils/Address.sol\":5125:5137  bytes memory */\n      0x60\n        /* \"@openzeppelin/contracts/utils/Address.sol\":5182:5187  value */\n      dup3\n        /* \"@openzeppelin/contracts/utils/Address.sol\":5157:5178  address(this).balance */\n      selfbalance\n        /* \"@openzeppelin/contracts/utils/Address.sol\":5157:5187  address(this).balance >= value */\n      lt\n      iszero\n        /* \"@openzeppelin/contracts/utils/Address.sol\":5149:5230  require(address(this).balance >= value, \"Address: insufficient balance for call\") */\n      tag_90\n      jumpi\n      mload(0x40)\n      0x08c379a000000000000000000000000000000000000000000000000000000000\n      dup2\n      mstore\n      0x04\n      add\n      tag_91\n      swap1\n      tag_92\n      jump\t// in\n    tag_91:\n      mload(0x40)\n      dup1\n      swap2\n      sub\n      swap1\n      revert\n    tag_90:\n        /* \"@openzeppelin/contracts/utils/Address.sol\":5241:5253  bool success */\n      0x00\n        /* \"@openzeppelin/contracts/utils/Address.sol\":5255:5278  bytes memory returndata */\n      dup1\n        /* \"@openzeppelin/contracts/utils/Address.sol\":5282:5288  target */\n      dup7\n        /* \"@openzeppelin/contracts/utils/Address.sol\":5282:5293  target.call */\n      0xffffffffffffffffffffffffffffffffffffffff\n      and\n        /* \"@openzeppelin/contracts/utils/Address.sol\":5301:5306  value */\n      dup6\n        /* \"@openzeppelin/contracts/utils/Address.sol\":5308:5312  data */\n      dup8\n        /* \"@openzeppelin/contracts/utils/Address.sol\":5282:5313  target.call{value: value}(data) */\n      mload(0x40)\n      tag_93\n      swap2\n      swap1\n      tag_94\n      jump\t// in\n    tag_93:\n      0x00\n      mload(0x40)\n      dup1\n      dup4\n      sub\n      dup2\n      dup6\n      dup8\n      gas\n      call\n      swap3\n      pop\n      pop\n      pop\n      returndatasize\n      dup1\n      0x00\n      dup2\n      eq\n      tag_97\n      jumpi\n      mload(0x40)\n      swap2\n      pop\n      and(add(returndatasize, 0x3f), not(0x1f))\n      dup3\n      add\n      0x40\n      mstore\n      returndatasize\n      dup3\n      mstore\n      returndatasize\n      0x00\n      0x20\n      dup5\n      add\n      returndatacopy\n      jump(tag_96)\n    tag_97:\n      0x60\n      swap2\n      pop\n    tag_96:\n      pop\n        /* \"@openzeppelin/contracts/utils/Address.sol\":5240:5313  (bool success, bytes memory returndata) = target.call{value: value}(data) */\n      swap2\n      pop\n      swap2\n      pop\n        /* \"@openzeppelin/contracts/utils/Address.sol\":5330:5399  verifyCallResultFromTarget(target, success, returndata, errorMessage) */\n      tag_98\n        /* \"@openzeppelin/contracts/utils/Address.sol\":5357:5363  target */\n      dup8\n        /* \"@openzeppelin/contracts/utils/Address.sol\":5365:5372  success */\n      dup4\n        /* \"@openzeppelin/contracts/utils/Address.sol\":5374:5384  returndata */\n      dup4\n        /* \"@openzeppelin/contracts/utils/Address.sol\":5386:5398  errorMessage */\n      dup8\n        /* \"@openzeppelin/contracts/utils/Address.sol\":5330:5356  verifyCallResultFromTarget */\n      tag_99\n        /* \"@openzeppelin/contracts/utils/Address.sol\":5330:5399  verifyCallResultFromTarget(target, success, returndata, errorMessage) */\n      jump\t// in\n    tag_98:\n        /* \"@openzeppelin/contracts/utils/Address.sol\":5323:5399  return verifyCallResultFromTarget(target, success, returndata, errorMessage) */\n      swap3\n      pop\n      pop\n      pop\n        /* \"@openzeppelin/contracts/utils/Address.sol\":4960:5406  function functionCallWithValue(... */\n      swap5\n      swap4\n      pop\n      pop\n      pop\n      pop\n      jump\t// out\n        /* \"@openzeppelin/contracts/utils/Address.sol\":7466:8094  function verifyCallResultFromTarget(... */\n    tag_99:\n        /* \"@openzeppelin/contracts/utils/Address.sol\":7646:7658  bytes memory */\n      0x60\n        /* \"@openzeppelin/contracts/utils/Address.sol\":7674:7681  success */\n      dup4\n        /* \"@openzeppelin/contracts/utils/Address.sol\":7670:8088  if (success) {... */\n      iszero\n      tag_101\n      jumpi\n        /* \"@openzeppelin/contracts/utils/Address.sol\":7722:7723  0 */\n      0x00\n        /* \"@openzeppelin/contracts/utils/Address.sol\":7701:7711  returndata */\n      dup4\n        /* \"@openzeppelin/contracts/utils/Address.sol\":7701:7718  returndata.length */\n      mload\n        /* \"@openzeppelin/contracts/utils/Address.sol\":7701:7723  returndata.length == 0 */\n      sub\n        /* \"@openzeppelin/contracts/utils/Address.sol\":7697:7983  if (returndata.length == 0) {... */\n      tag_102\n      jumpi\n        /* \"@openzeppelin/contracts/utils/Address.sol\":7916:7934  isContract(target) */\n      tag_103\n        /* \"@openzeppelin/contracts/utils/Address.sol\":7927:7933  target */\n      dup6\n        /* \"@openzeppelin/contracts/utils/Address.sol\":7916:7926  isContract */\n      tag_104\n        /* \"@openzeppelin/contracts/utils/Address.sol\":7916:7934  isContract(target) */\n      jump\t// in\n    tag_103:\n        /* \"@openzeppelin/contracts/utils/Address.sol\":7908:7968  require(isContract(target), \"Address: call to non-contract\") */\n      tag_105\n      jumpi\n      mload(0x40)\n      0x08c379a000000000000000000000000000000000000000000000000000000000\n      dup2\n      mstore\n      0x04\n      add\n      tag_106\n      swap1\n      tag_107\n      jump\t// in\n    tag_106:\n      mload(0x40)\n      dup1\n      swap2\n      sub\n      swap1\n      revert\n    tag_105:\n        /* \"@openzeppelin/contracts/utils/Address.sol\":7697:7983  if (returndata.length == 0) {... */\n    tag_102:\n        /* \"@openzeppelin/contracts/utils/Address.sol\":8003:8013  returndata */\n      dup3\n        /* \"@openzeppelin/contracts/utils/Address.sol\":7996:8013  return returndata */\n      swap1\n      pop\n      jump(tag_100)\n        /* \"@openzeppelin/contracts/utils/Address.sol\":7670:8088  if (success) {... */\n    tag_101:\n        /* \"@openzeppelin/contracts/utils/Address.sol\":8044:8077  _revert(returndata, errorMessage) */\n      tag_109\n        /* \"@openzeppelin/contracts/utils/Address.sol\":8052:8062  returndata */\n      dup4\n        /* \"@openzeppelin/contracts/utils/Address.sol\":8064:8076  errorMessage */\n      dup4\n        /* \"@openzeppelin/contracts/utils/Address.sol\":8044:8051  _revert */\n      tag_110\n        /* \"@openzeppelin/contracts/utils/Address.sol\":8044:8077  _revert(returndata, errorMessage) */\n      jump\t// in\n    tag_109:\n        /* \"@openzeppelin/contracts/utils/Address.sol\":7466:8094  function verifyCallResultFromTarget(... */\n    tag_100:\n      swap5\n      swap4\n      pop\n      pop\n      pop\n      pop\n      jump\t// out\n        /* \"@openzeppelin/contracts/utils/Address.sol\":1175:1495  function isContract(address account) internal view returns (bool) {... */\n    tag_104:\n        /* \"@openzeppelin/contracts/utils/Address.sol\":1235:1239  bool */\n      0x00\n        /* \"@openzeppelin/contracts/utils/Address.sol\":1487:1488  0 */\n      dup1\n        /* \"@openzeppelin/contracts/utils/Address.sol\":1465:1472  account */\n      dup3\n        /* \"@openzeppelin/contracts/utils/Address.sol\":1465:1484  account.code.length */\n      0xffffffffffffffffffffffffffffffffffffffff\n      and\n      extcodesize\n        /* \"@openzeppelin/contracts/utils/Address.sol\":1465:1488  account.code.length > 0 */\n      gt\n        /* \"@openzeppelin/contracts/utils/Address.sol\":1458:1488  return account.code.length > 0 */\n      swap1\n      pop\n        /* \"@openzeppelin/contracts/utils/Address.sol\":1175:1495  function isContract(address account) internal view returns (bool) {... */\n      swap2\n      swap1\n      pop\n      jump\t// out\n        /* \"@openzeppelin/contracts/utils/Address.sol\":8616:9156  function _revert(bytes memory returndata, string memory errorMessage) private pure {... */\n    tag_110:\n        /* \"@openzeppelin/contracts/utils/Address.sol\":8795:8796  0 */\n      0x00\n        /* \"@openzeppelin/contracts/utils/Address.sol\":8775:8785  returndata */\n      dup3\n        /* \"@openzeppelin/contracts/utils/Address.sol\":8775:8792  returndata.length */\n      mload\n        /* \"@openzeppelin/contracts/utils/Address.sol\":8775:8796  returndata.length > 0 */\n      gt\n        /* \"@openzeppelin/contracts/utils/Address.sol\":8771:9150  if (returndata.length > 0) {... */\n      iszero\n      tag_113\n      jumpi\n        /* \"@openzeppelin/contracts/utils/Address.sol\":9003:9013  returndata */\n      dup2\n        /* \"@openzeppelin/contracts/utils/Address.sol\":8997:9014  mload(returndata) */\n      mload\n        /* \"@openzeppelin/contracts/utils/Address.sol\":9059:9074  returndata_size */\n      dup1\n        /* \"@openzeppelin/contracts/utils/Address.sol\":9046:9056  returndata */\n      dup4\n        /* \"@openzeppelin/contracts/utils/Address.sol\":9042:9044  32 */\n      0x20\n        /* \"@openzeppelin/contracts/utils/Address.sol\":9038:9057  add(32, returndata) */\n      add\n        /* \"@openzeppelin/contracts/utils/Address.sol\":9031:9075  revert(add(32, returndata), returndata_size) */\n      revert\n        /* \"@openzeppelin/contracts/utils/Address.sol\":8771:9150  if (returndata.length > 0) {... */\n    tag_113:\n        /* \"@openzeppelin/contracts/utils/Address.sol\":9126:9138  errorMessage */\n      dup1\n        /* \"@openzeppelin/contracts/utils/Address.sol\":9119:9139  revert(errorMessage) */\n      mload(0x40)\n      0x08c379a000000000000000000000000000000000000000000000000000000000\n      dup2\n      mstore\n      0x04\n      add\n      tag_115\n      swap2\n      swap1\n      tag_116\n      jump\t// in\n    tag_115:\n      mload(0x40)\n      dup1\n      swap2\n      sub\n      swap1\n      revert\n        /* \"#utility.yul\":7:82   */\n    tag_117:\n        /* \"#utility.yul\":40:46   */\n      0x00\n        /* \"#utility.yul\":73:75   */\n      0x40\n        /* \"#utility.yul\":67:76   */\n      mload\n        /* \"#utility.yul\":57:76   */\n      swap1\n      pop\n        /* \"#utility.yul\":7:82   */\n      swap1\n      jump\t// out\n        /* \"#utility.yul\":88:205   */\n    tag_118:\n        /* \"#utility.yul\":197:198   */\n      0x00\n        /* \"#utility.yul\":194:195   */\n      dup1\n        /* \"#utility.yul\":187:199   */\n      revert\n        /* \"#utility.yul\":211:328   */\n    tag_119:\n        /* \"#utility.yul\":320:321   */\n      0x00\n        /* \"#utility.yul\":317:318   */\n      dup1\n        /* \"#utility.yul\":310:322   */\n      revert\n        /* \"#utility.yul\":334:411   */\n    tag_120:\n        /* \"#utility.yul\":371:378   */\n      0x00\n        /* \"#utility.yul\":400:405   */\n      dup2\n        /* \"#utility.yul\":389:405   */\n      swap1\n      pop\n        /* \"#utility.yul\":334:411   */\n      swap2\n      swap1\n      pop\n      jump\t// out\n        /* \"#utility.yul\":417:539   */\n    tag_121:\n        /* \"#utility.yul\":490:514   */\n      tag_201\n        /* \"#utility.yul\":508:513   */\n      dup2\n        /* \"#utility.yul\":490:514   */\n      tag_120\n      jump\t// in\n    tag_201:\n        /* \"#utility.yul\":483:488   */\n      dup2\n        /* \"#utility.yul\":480:515   */\n      eq\n        /* \"#utility.yul\":470:533   */\n      tag_202\n      jumpi\n        /* \"#utility.yul\":529:530   */\n      0x00\n        /* \"#utility.yul\":526:527   */\n      dup1\n        /* \"#utility.yul\":519:531   */\n      revert\n        /* \"#utility.yul\":470:533   */\n    tag_202:\n        /* \"#utility.yul\":417:539   */\n      pop\n      jump\t// out\n        /* \"#utility.yul\":545:684   */\n    tag_122:\n        /* \"#utility.yul\":591:596   */\n      0x00\n        /* \"#utility.yul\":629:635   */\n      dup2\n        /* \"#utility.yul\":616:636   */\n      calldataload\n        /* \"#utility.yul\":607:636   */\n      swap1\n      pop\n        /* \"#utility.yul\":645:678   */\n      tag_204\n        /* \"#utility.yul\":672:677   */\n      dup2\n        /* \"#utility.yul\":645:678   */\n      tag_121\n      jump\t// in\n    tag_204:\n        /* \"#utility.yul\":545:684   */\n      swap3\n      swap2\n      pop\n      pop\n      jump\t// out\n        /* \"#utility.yul\":690:816   */\n    tag_123:\n        /* \"#utility.yul\":727:734   */\n      0x00\n        /* \"#utility.yul\":767:809   */\n      0xffffffffffffffffffffffffffffffffffffffff\n        /* \"#utility.yul\":760:765   */\n      dup3\n        /* \"#utility.yul\":756:810   */\n      and\n        /* \"#utility.yul\":745:810   */\n      swap1\n      pop\n        /* \"#utility.yul\":690:816   */\n      swap2\n      swap1\n      pop\n      jump\t// out\n        /* \"#utility.yul\":822:918   */\n    tag_124:\n        /* \"#utility.yul\":859:866   */\n      0x00\n        /* \"#utility.yul\":888:912   */\n      tag_207\n        /* \"#utility.yul\":906:911   */\n      dup3\n        /* \"#utility.yul\":888:912   */\n      tag_123\n      jump\t// in\n    tag_207:\n        /* \"#utility.yul\":877:912   */\n      swap1\n      pop\n        /* \"#utility.yul\":822:918   */\n      swap2\n      swap1\n      pop\n      jump\t// out\n        /* \"#utility.yul\":924:1046   */\n    tag_125:\n        /* \"#utility.yul\":997:1021   */\n      tag_209\n        /* \"#utility.yul\":1015:1020   */\n      dup2\n        /* \"#utility.yul\":997:1021   */\n      tag_124\n      jump\t// in\n    tag_209:\n        /* \"#utility.yul\":990:995   */\n      dup2\n        /* \"#utility.yul\":987:1022   */\n      eq\n        /* \"#utility.yul\":977:1040   */\n      tag_210\n      jumpi\n        /* \"#utility.yul\":1036:1037   */\n      0x00\n        /* \"#utility.yul\":1033:1034   */\n      dup1\n        /* \"#utility.yul\":1026:1038   */\n      revert\n        /* \"#utility.yul\":977:1040   */\n    tag_210:\n        /* \"#utility.yul\":924:1046   */\n      pop\n      jump\t// out\n        /* \"#utility.yul\":1052:1191   */\n    tag_126:\n        /* \"#utility.yul\":1098:1103   */\n      0x00\n        /* \"#utility.yul\":1136:1142   */\n      dup2\n        /* \"#utility.yul\":1123:1143   */\n      calldataload\n        /* \"#utility.yul\":1114:1143   */\n      swap1\n      pop\n        /* \"#utility.yul\":1152:1185   */\n      tag_212\n        /* \"#utility.yul\":1179:1184   */\n      dup2\n        /* \"#utility.yul\":1152:1185   */\n      tag_125\n      jump\t// in\n    tag_212:\n        /* \"#utility.yul\":1052:1191   */\n      swap3\n      swap2\n      pop\n      pop\n      jump\t// out\n        /* \"#utility.yul\":1197:1671   */\n    tag_9:\n        /* \"#utility.yul\":1265:1271   */\n      0x00\n        /* \"#utility.yul\":1273:1279   */\n      dup1\n        /* \"#utility.yul\":1322:1324   */\n      0x40\n        /* \"#utility.yul\":1310:1319   */\n      dup4\n        /* \"#utility.yul\":1301:1308   */\n      dup6\n        /* \"#utility.yul\":1297:1320   */\n      sub\n        /* \"#utility.yul\":1293:1325   */\n      slt\n        /* \"#utility.yul\":1290:1409   */\n      iszero\n      tag_214\n      jumpi\n        /* \"#utility.yul\":1328:1407   */\n      tag_215\n      tag_118\n      jump\t// in\n    tag_215:\n        /* \"#utility.yul\":1290:1409   */\n    tag_214:\n        /* \"#utility.yul\":1448:1449   */\n      0x00\n        /* \"#utility.yul\":1473:1526   */\n      tag_216\n        /* \"#utility.yul\":1518:1525   */\n      dup6\n        /* \"#utility.yul\":1509:1515   */\n      dup3\n        /* \"#utility.yul\":1498:1507   */\n      dup7\n        /* \"#utility.yul\":1494:1516   */\n      add\n        /* \"#utility.yul\":1473:1526   */\n      tag_122\n      jump\t// in\n    tag_216:\n        /* \"#utility.yul\":1463:1526   */\n      swap3\n      pop\n        /* \"#utility.yul\":1419:1536   */\n      pop\n        /* \"#utility.yul\":1575:1577   */\n      0x20\n        /* \"#utility.yul\":1601:1654   */\n      tag_217\n        /* \"#utility.yul\":1646:1653   */\n      dup6\n        /* \"#utility.yul\":1637:1643   */\n      dup3\n        /* \"#utility.yul\":1626:1635   */\n      dup7\n        /* \"#utility.yul\":1622:1644   */\n      add\n        /* \"#utility.yul\":1601:1654   */\n      tag_126\n      jump\t// in\n    tag_217:\n        /* \"#utility.yul\":1591:1654   */\n      swap2\n      pop\n        /* \"#utility.yul\":1546:1664   */\n      pop\n        /* \"#utility.yul\":1197:1671   */\n      swap3\n      pop\n      swap3\n      swap1\n      pop\n      jump\t// out\n        /* \"#utility.yul\":1677:2006   */\n    tag_13:\n        /* \"#utility.yul\":1736:1742   */\n      0x00\n        /* \"#utility.yul\":1785:1787   */\n      0x20\n        /* \"#utility.yul\":1773:1782   */\n      dup3\n        /* \"#utility.yul\":1764:1771   */\n      dup5\n        /* \"#utility.yul\":1760:1783   */\n      sub\n        /* \"#utility.yul\":1756:1788   */\n      slt\n        /* \"#utility.yul\":1753:1872   */\n      iszero\n      tag_219\n      jumpi\n        /* \"#utility.yul\":1791:1870   */\n      tag_220\n      tag_118\n      jump\t// in\n    tag_220:\n        /* \"#utility.yul\":1753:1872   */\n    tag_219:\n        /* \"#utility.yul\":1911:1912   */\n      0x00\n        /* \"#utility.yul\":1936:1989   */\n      tag_221\n        /* \"#utility.yul\":1981:1988   */\n      dup5\n        /* \"#utility.yul\":1972:1978   */\n      dup3\n        /* \"#utility.yul\":1961:1970   */\n      dup6\n        /* \"#utility.yul\":1957:1979   */\n      add\n        /* \"#utility.yul\":1936:1989   */\n      tag_122\n      jump\t// in\n    tag_221:\n        /* \"#utility.yul\":1926:1989   */\n      swap2\n      pop\n        /* \"#utility.yul\":1882:1999   */\n      pop\n        /* \"#utility.yul\":1677:2006   */\n      swap3\n      swap2\n      pop\n      pop\n      jump\t// out\n        /* \"#utility.yul\":2012:2130   */\n    tag_127:\n        /* \"#utility.yul\":2099:2123   */\n      tag_223\n        /* \"#utility.yul\":2117:2122   */\n      dup2\n        /* \"#utility.yul\":2099:2123   */\n      tag_124\n      jump\t// in\n    tag_223:\n        /* \"#utility.yul\":2094:2097   */\n      dup3\n        /* \"#utility.yul\":2087:2124   */\n      mstore\n        /* \"#utility.yul\":2012:2130   */\n      pop\n      pop\n      jump\t// out\n        /* \"#utility.yul\":2136:2235   */\n    tag_128:\n        /* \"#utility.yul\":2188:2194   */\n      0x00\n        /* \"#utility.yul\":2222:2227   */\n      dup2\n        /* \"#utility.yul\":2216:2228   */\n      mload\n        /* \"#utility.yul\":2206:2228   */\n      swap1\n      pop\n        /* \"#utility.yul\":2136:2235   */\n      swap2\n      swap1\n      pop\n      jump\t// out\n        /* \"#utility.yul\":2241:2410   */\n    tag_129:\n        /* \"#utility.yul\":2325:2336   */\n      0x00\n        /* \"#utility.yul\":2359:2365   */\n      dup3\n        /* \"#utility.yul\":2354:2357   */\n      dup3\n        /* \"#utility.yul\":2347:2366   */\n      mstore\n        /* \"#utility.yul\":2399:2403   */\n      0x20\n        /* \"#utility.yul\":2394:2397   */\n      dup3\n        /* \"#utility.yul\":2390:2404   */\n      add\n        /* \"#utility.yul\":2375:2404   */\n      swap1\n      pop\n        /* \"#utility.yul\":2241:2410   */\n      swap3\n      swap2\n      pop\n      pop\n      jump\t// out\n        /* \"#utility.yul\":2416:2555   */\n    tag_130:\n        /* \"#utility.yul\":2505:2511   */\n      dup3\n        /* \"#utility.yul\":2500:2503   */\n      dup2\n        /* \"#utility.yul\":2495:2498   */\n      dup4\n        /* \"#utility.yul\":2489:2512   */\n      mcopy\n        /* \"#utility.yul\":2546:2547   */\n      0x00\n        /* \"#utility.yul\":2537:2543   */\n      dup4\n        /* \"#utility.yul\":2532:2535   */\n      dup4\n        /* \"#utility.yul\":2528:2544   */\n      add\n        /* \"#utility.yul\":2521:2548   */\n      mstore\n        /* \"#utility.yul\":2416:2555   */\n      pop\n      pop\n      pop\n      jump\t// out\n        /* \"#utility.yul\":2561:2663   */\n    tag_131:\n        /* \"#utility.yul\":2602:2608   */\n      0x00\n        /* \"#utility.yul\":2653:2655   */\n      0x1f\n        /* \"#utility.yul\":2649:2656   */\n      not\n        /* \"#utility.yul\":2644:2646   */\n      0x1f\n        /* \"#utility.yul\":2637:2642   */\n      dup4\n        /* \"#utility.yul\":2633:2647   */\n      add\n        /* \"#utility.yul\":2629:2657   */\n      and\n        /* \"#utility.yul\":2619:2657   */\n      swap1\n      pop\n        /* \"#utility.yul\":2561:2663   */\n      swap2\n      swap1\n      pop\n      jump\t// out\n        /* \"#utility.yul\":2669:3046   */\n    tag_132:\n        /* \"#utility.yul\":2757:2760   */\n      0x00\n        /* \"#utility.yul\":2785:2824   */\n      tag_229\n        /* \"#utility.yul\":2818:2823   */\n      dup3\n        /* \"#utility.yul\":2785:2824   */\n      tag_128\n      jump\t// in\n    tag_229:\n        /* \"#utility.yul\":2840:2911   */\n      tag_230\n        /* \"#utility.yul\":2904:2910   */\n      dup2\n        /* \"#utility.yul\":2899:2902   */\n      dup6\n        /* \"#utility.yul\":2840:2911   */\n      tag_129\n      jump\t// in\n    tag_230:\n        /* \"#utility.yul\":2833:2911   */\n      swap4\n      pop\n        /* \"#utility.yul\":2920:2985   */\n      tag_231\n        /* \"#utility.yul\":2978:2984   */\n      dup2\n        /* \"#utility.yul\":2973:2976   */\n      dup6\n        /* \"#utility.yul\":2966:2970   */\n      0x20\n        /* \"#utility.yul\":2959:2964   */\n      dup7\n        /* \"#utility.yul\":2955:2971   */\n      add\n        /* \"#utility.yul\":2920:2985   */\n      tag_130\n      jump\t// in\n    tag_231:\n        /* \"#utility.yul\":3010:3039   */\n      tag_232\n        /* \"#utility.yul\":3032:3038   */\n      dup2\n        /* \"#utility.yul\":3010:3039   */\n      tag_131\n      jump\t// in\n    tag_232:\n        /* \"#utility.yul\":3005:3008   */\n      dup5\n        /* \"#utility.yul\":3001:3040   */\n      add\n        /* \"#utility.yul\":2994:3040   */\n      swap2\n      pop\n        /* \"#utility.yul\":2761:3046   */\n      pop\n        /* \"#utility.yul\":2669:3046   */\n      swap3\n      swap2\n      pop\n      pop\n      jump\t// out\n        /* \"#utility.yul\":3052:3129   */\n    tag_133:\n        /* \"#utility.yul\":3089:3096   */\n      0x00\n        /* \"#utility.yul\":3118:3123   */\n      dup2\n        /* \"#utility.yul\":3107:3123   */\n      swap1\n      pop\n        /* \"#utility.yul\":3052:3129   */\n      swap2\n      swap1\n      pop\n      jump\t// out\n        /* \"#utility.yul\":3135:3253   */\n    tag_134:\n        /* \"#utility.yul\":3222:3246   */\n      tag_235\n        /* \"#utility.yul\":3240:3245   */\n      dup2\n        /* \"#utility.yul\":3222:3246   */\n      tag_133\n      jump\t// in\n    tag_235:\n        /* \"#utility.yul\":3217:3220   */\n      dup3\n        /* \"#utility.yul\":3210:3247   */\n      mstore\n        /* \"#utility.yul\":3135:3253   */\n      pop\n      pop\n      jump\t// out\n        /* \"#utility.yul\":3259:3349   */\n    tag_135:\n        /* \"#utility.yul\":3293:3300   */\n      0x00\n        /* \"#utility.yul\":3336:3341   */\n      dup2\n        /* \"#utility.yul\":3329:3342   */\n      iszero\n        /* \"#utility.yul\":3322:3343   */\n      iszero\n        /* \"#utility.yul\":3311:3343   */\n      swap1\n      pop\n        /* \"#utility.yul\":3259:3349   */\n      swap2\n      swap1\n      pop\n      jump\t// out\n        /* \"#utility.yul\":3355:3464   */\n    tag_136:\n        /* \"#utility.yul\":3436:3457   */\n      tag_238\n        /* \"#utility.yul\":3451:3456   */\n      dup2\n        /* \"#utility.yul\":3436:3457   */\n      tag_135\n      jump\t// in\n    tag_238:\n        /* \"#utility.yul\":3431:3434   */\n      dup3\n        /* \"#utility.yul\":3424:3458   */\n      mstore\n        /* \"#utility.yul\":3355:3464   */\n      pop\n      pop\n      jump\t// out\n        /* \"#utility.yul\":3470:4312   */\n    tag_16:\n        /* \"#utility.yul\":3711:3715   */\n      0x00\n        /* \"#utility.yul\":3749:3752   */\n      0xc0\n        /* \"#utility.yul\":3738:3747   */\n      dup3\n        /* \"#utility.yul\":3734:3753   */\n      add\n        /* \"#utility.yul\":3726:3753   */\n      swap1\n      pop\n        /* \"#utility.yul\":3763:3834   */\n      tag_240\n        /* \"#utility.yul\":3831:3832   */\n      0x00\n        /* \"#utility.yul\":3820:3829   */\n      dup4\n        /* \"#utility.yul\":3816:3833   */\n      add\n        /* \"#utility.yul\":3807:3813   */\n      dup10\n        /* \"#utility.yul\":3763:3834   */\n      tag_127\n      jump\t// in\n    tag_240:\n        /* \"#utility.yul\":3881:3890   */\n      dup2\n        /* \"#utility.yul\":3875:3879   */\n      dup2\n        /* \"#utility.yul\":3871:3891   */\n      sub\n        /* \"#utility.yul\":3866:3868   */\n      0x20\n        /* \"#utility.yul\":3855:3864   */\n      dup4\n        /* \"#utility.yul\":3851:3869   */\n      add\n        /* \"#utility.yul\":3844:3892   */\n      mstore\n        /* \"#utility.yul\":3909:3987   */\n      tag_241\n        /* \"#utility.yul\":3982:3986   */\n      dup2\n        /* \"#utility.yul\":3973:3979   */\n      dup9\n        /* \"#utility.yul\":3909:3987   */\n      tag_132\n      jump\t// in\n    tag_241:\n        /* \"#utility.yul\":3901:3987   */\n      swap1\n      pop\n        /* \"#utility.yul\":3997:4069   */\n      tag_242\n        /* \"#utility.yul\":4065:4067   */\n      0x40\n        /* \"#utility.yul\":4054:4063   */\n      dup4\n        /* \"#utility.yul\":4050:4068   */\n      add\n        /* \"#utility.yul\":4041:4047   */\n      dup8\n        /* \"#utility.yul\":3997:4069   */\n      tag_134\n      jump\t// in\n    tag_242:\n        /* \"#utility.yul\":4079:4151   */\n      tag_243\n        /* \"#utility.yul\":4147:4149   */\n      0x60\n        /* \"#utility.yul\":4136:4145   */\n      dup4\n        /* \"#utility.yul\":4132:4150   */\n      add\n        /* \"#utility.yul\":4123:4129   */\n      dup7\n        /* \"#utility.yul\":4079:4151   */\n      tag_134\n      jump\t// in\n    tag_243:\n        /* \"#utility.yul\":4161:4228   */\n      tag_244\n        /* \"#utility.yul\":4223:4226   */\n      0x80\n        /* \"#utility.yul\":4212:4221   */\n      dup4\n        /* \"#utility.yul\":4208:4227   */\n      add\n        /* \"#utility.yul\":4199:4205   */\n      dup6\n        /* \"#utility.yul\":4161:4228   */\n      tag_136\n      jump\t// in\n    tag_244:\n        /* \"#utility.yul\":4238:4305   */\n      tag_245\n        /* \"#utility.yul\":4300:4303   */\n      0xa0\n        /* \"#utility.yul\":4289:4298   */\n      dup4\n        /* \"#utility.yul\":4285:4304   */\n      add\n        /* \"#utility.yul\":4276:4282   */\n      dup5\n        /* \"#utility.yul\":4238:4305   */\n      tag_136\n      jump\t// in\n    tag_245:\n        /* \"#utility.yul\":3470:4312   */\n      swap8\n      swap7\n      pop\n      pop\n      pop\n      pop\n      pop\n      pop\n      pop\n      jump\t// out\n        /* \"#utility.yul\":4318:4435   */\n    tag_137:\n        /* \"#utility.yul\":4427:4428   */\n      0x00\n        /* \"#utility.yul\":4424:4425   */\n      dup1\n        /* \"#utility.yul\":4417:4429   */\n      revert\n        /* \"#utility.yul\":4441:4558   */\n    tag_138:\n        /* \"#utility.yul\":4550:4551   */\n      0x00\n        /* \"#utility.yul\":4547:4548   */\n      dup1\n        /* \"#utility.yul\":4540:4552   */\n      revert\n        /* \"#utility.yul\":4564:4744   */\n    tag_139:\n        /* \"#utility.yul\":4612:4689   */\n      0x4e487b7100000000000000000000000000000000000000000000000000000000\n        /* \"#utility.yul\":4609:4610   */\n      0x00\n        /* \"#utility.yul\":4602:4690   */\n      mstore\n        /* \"#utility.yul\":4709:4713   */\n      0x41\n        /* \"#utility.yul\":4706:4707   */\n      0x04\n        /* \"#utility.yul\":4699:4714   */\n      mstore\n        /* \"#utility.yul\":4733:4737   */\n      0x24\n        /* \"#utility.yul\":4730:4731   */\n      0x00\n        /* \"#utility.yul\":4723:4738   */\n      revert\n        /* \"#utility.yul\":4750:5031   */\n    tag_140:\n        /* \"#utility.yul\":4833:4860   */\n      tag_250\n        /* \"#utility.yul\":4855:4859   */\n      dup3\n        /* \"#utility.yul\":4833:4860   */\n      tag_131\n      jump\t// in\n    tag_250:\n        /* \"#utility.yul\":4825:4831   */\n      dup2\n        /* \"#utility.yul\":4821:4861   */\n      add\n        /* \"#utility.yul\":4963:4969   */\n      dup2\n        /* \"#utility.yul\":4951:4961   */\n      dup2\n        /* \"#utility.yul\":4948:4970   */\n      lt\n        /* \"#utility.yul\":4927:4945   */\n      0xffffffffffffffff\n        /* \"#utility.yul\":4915:4925   */\n      dup3\n        /* \"#utility.yul\":4912:4946   */\n      gt\n        /* \"#utility.yul\":4909:4971   */\n      or\n        /* \"#utility.yul\":4906:4994   */\n      iszero\n      tag_251\n      jumpi\n        /* \"#utility.yul\":4974:4992   */\n      tag_252\n      tag_139\n      jump\t// in\n    tag_252:\n        /* \"#utility.yul\":4906:4994   */\n    tag_251:\n        /* \"#utility.yul\":5014:5024   */\n      dup1\n        /* \"#utility.yul\":5010:5012   */\n      0x40\n        /* \"#utility.yul\":5003:5025   */\n      mstore\n        /* \"#utility.yul\":4793:5031   */\n      pop\n        /* \"#utility.yul\":4750:5031   */\n      pop\n      pop\n      jump\t// out\n        /* \"#utility.yul\":5037:5166   */\n    tag_141:\n        /* \"#utility.yul\":5071:5077   */\n      0x00\n        /* \"#utility.yul\":5098:5118   */\n      tag_254\n      tag_117\n      jump\t// in\n    tag_254:\n        /* \"#utility.yul\":5088:5118   */\n      swap1\n      pop\n        /* \"#utility.yul\":5127:5160   */\n      tag_255\n        /* \"#utility.yul\":5155:5159   */\n      dup3\n        /* \"#utility.yul\":5147:5153   */\n      dup3\n        /* \"#utility.yul\":5127:5160   */\n      tag_140\n      jump\t// in\n    tag_255:\n        /* \"#utility.yul\":5037:5166   */\n      swap2\n      swap1\n      pop\n      jump\t// out\n        /* \"#utility.yul\":5172:5480   */\n    tag_142:\n        /* \"#utility.yul\":5234:5238   */\n      0x00\n        /* \"#utility.yul\":5324:5342   */\n      0xffffffffffffffff\n        /* \"#utility.yul\":5316:5322   */\n      dup3\n        /* \"#utility.yul\":5313:5343   */\n      gt\n        /* \"#utility.yul\":5310:5366   */\n      iszero\n      tag_257\n      jumpi\n        /* \"#utility.yul\":5346:5364   */\n      tag_258\n      tag_139\n      jump\t// in\n    tag_258:\n        /* \"#utility.yul\":5310:5366   */\n    tag_257:\n        /* \"#utility.yul\":5384:5413   */\n      tag_259\n        /* \"#utility.yul\":5406:5412   */\n      dup3\n        /* \"#utility.yul\":5384:5413   */\n      tag_131\n      jump\t// in\n    tag_259:\n        /* \"#utility.yul\":5376:5413   */\n      swap1\n      pop\n        /* \"#utility.yul\":5468:5472   */\n      0x20\n        /* \"#utility.yul\":5462:5466   */\n      dup2\n        /* \"#utility.yul\":5458:5473   */\n      add\n        /* \"#utility.yul\":5450:5473   */\n      swap1\n      pop\n        /* \"#utility.yul\":5172:5480   */\n      swap2\n      swap1\n      pop\n      jump\t// out\n        /* \"#utility.yul\":5486:5634   */\n    tag_143:\n        /* \"#utility.yul\":5584:5590   */\n      dup3\n        /* \"#utility.yul\":5579:5582   */\n      dup2\n        /* \"#utility.yul\":5574:5577   */\n      dup4\n        /* \"#utility.yul\":5561:5591   */\n      calldatacopy\n        /* \"#utility.yul\":5625:5626   */\n      0x00\n        /* \"#utility.yul\":5616:5622   */\n      dup4\n        /* \"#utility.yul\":5611:5614   */\n      dup4\n        /* \"#utility.yul\":5607:5623   */\n      add\n        /* \"#utility.yul\":5600:5627   */\n      mstore\n        /* \"#utility.yul\":5486:5634   */\n      pop\n      pop\n      pop\n      jump\t// out\n        /* \"#utility.yul\":5640:6065   */\n    tag_144:\n        /* \"#utility.yul\":5718:5723   */\n      0x00\n        /* \"#utility.yul\":5743:5809   */\n      tag_262\n        /* \"#utility.yul\":5759:5808   */\n      tag_263\n        /* \"#utility.yul\":5801:5807   */\n      dup5\n        /* \"#utility.yul\":5759:5808   */\n      tag_142\n      jump\t// in\n    tag_263:\n        /* \"#utility.yul\":5743:5809   */\n      tag_141\n      jump\t// in\n    tag_262:\n        /* \"#utility.yul\":5734:5809   */\n      swap1\n      pop\n        /* \"#utility.yul\":5832:5838   */\n      dup3\n        /* \"#utility.yul\":5825:5830   */\n      dup2\n        /* \"#utility.yul\":5818:5839   */\n      mstore\n        /* \"#utility.yul\":5870:5874   */\n      0x20\n        /* \"#utility.yul\":5863:5868   */\n      dup2\n        /* \"#utility.yul\":5859:5875   */\n      add\n        /* \"#utility.yul\":5908:5911   */\n      dup5\n        /* \"#utility.yul\":5899:5905   */\n      dup5\n        /* \"#utility.yul\":5894:5897   */\n      dup5\n        /* \"#utility.yul\":5890:5906   */\n      add\n        /* \"#utility.yul\":5887:5912   */\n      gt\n        /* \"#utility.yul\":5884:5996   */\n      iszero\n      tag_264\n      jumpi\n        /* \"#utility.yul\":5915:5994   */\n      tag_265\n      tag_138\n      jump\t// in\n    tag_265:\n        /* \"#utility.yul\":5884:5996   */\n    tag_264:\n        /* \"#utility.yul\":6005:6059   */\n      tag_266\n        /* \"#utility.yul\":6052:6058   */\n      dup5\n        /* \"#utility.yul\":6047:6050   */\n      dup3\n        /* \"#utility.yul\":6042:6045   */\n      dup6\n        /* \"#utility.yul\":6005:6059   */\n      tag_143\n      jump\t// in\n    tag_266:\n        /* \"#utility.yul\":5724:6065   */\n      pop\n        /* \"#utility.yul\":5640:6065   */\n      swap4\n      swap3\n      pop\n      pop\n      pop\n      jump\t// out\n        /* \"#utility.yul\":6085:6425   */\n    tag_145:\n        /* \"#utility.yul\":6141:6146   */\n      0x00\n        /* \"#utility.yul\":6190:6193   */\n      dup3\n        /* \"#utility.yul\":6183:6187   */\n      0x1f\n        /* \"#utility.yul\":6175:6181   */\n      dup4\n        /* \"#utility.yul\":6171:6188   */\n      add\n        /* \"#utility.yul\":6167:6194   */\n      slt\n        /* \"#utility.yul\":6157:6279   */\n      tag_268\n      jumpi\n        /* \"#utility.yul\":6198:6277   */\n      tag_269\n      tag_137\n      jump\t// in\n    tag_269:\n        /* \"#utility.yul\":6157:6279   */\n    tag_268:\n        /* \"#utility.yul\":6315:6321   */\n      dup2\n        /* \"#utility.yul\":6302:6322   */\n      calldataload\n        /* \"#utility.yul\":6340:6419   */\n      tag_270\n        /* \"#utility.yul\":6415:6418   */\n      dup5\n        /* \"#utility.yul\":6407:6413   */\n      dup3\n        /* \"#utility.yul\":6400:6404   */\n      0x20\n        /* \"#utility.yul\":6392:6398   */\n      dup7\n        /* \"#utility.yul\":6388:6405   */\n      add\n        /* \"#utility.yul\":6340:6419   */\n      tag_144\n      jump\t// in\n    tag_270:\n        /* \"#utility.yul\":6331:6419   */\n      swap2\n      pop\n        /* \"#utility.yul\":6147:6425   */\n      pop\n        /* \"#utility.yul\":6085:6425   */\n      swap3\n      swap2\n      pop\n      pop\n      jump\t// out\n        /* \"#utility.yul\":6431:6553   */\n    tag_146:\n        /* \"#utility.yul\":6504:6528   */\n      tag_272\n        /* \"#utility.yul\":6522:6527   */\n      dup2\n        /* \"#utility.yul\":6504:6528   */\n      tag_133\n      jump\t// in\n    tag_272:\n        /* \"#utility.yul\":6497:6502   */\n      dup2\n        /* \"#utility.yul\":6494:6529   */\n      eq\n        /* \"#utility.yul\":6484:6547   */\n      tag_273\n      jumpi\n        /* \"#utility.yul\":6543:6544   */\n      0x00\n        /* \"#utility.yul\":6540:6541   */\n      dup1\n        /* \"#utility.yul\":6533:6545   */\n      revert\n        /* \"#utility.yul\":6484:6547   */\n    tag_273:\n        /* \"#utility.yul\":6431:6553   */\n      pop\n      jump\t// out\n        /* \"#utility.yul\":6559:6698   */\n    tag_147:\n        /* \"#utility.yul\":6605:6610   */\n      0x00\n        /* \"#utility.yul\":6643:6649   */\n      dup2\n        /* \"#utility.yul\":6630:6650   */\n      calldataload\n        /* \"#utility.yul\":6621:6650   */\n      swap1\n      pop\n        /* \"#utility.yul\":6659:6692   */\n      tag_275\n        /* \"#utility.yul\":6686:6691   */\n      dup2\n        /* \"#utility.yul\":6659:6692   */\n      tag_146\n      jump\t// in\n    tag_275:\n        /* \"#utility.yul\":6559:6698   */\n      swap3\n      swap2\n      pop\n      pop\n      jump\t// out\n        /* \"#utility.yul\":6704:6820   */\n    tag_148:\n        /* \"#utility.yul\":6774:6795   */\n      tag_277\n        /* \"#utility.yul\":6789:6794   */\n      dup2\n        /* \"#utility.yul\":6774:6795   */\n      tag_135\n      jump\t// in\n    tag_277:\n        /* \"#utility.yul\":6767:6772   */\n      dup2\n        /* \"#utility.yul\":6764:6796   */\n      eq\n        /* \"#utility.yul\":6754:6814   */\n      tag_278\n      jumpi\n        /* \"#utility.yul\":6810:6811   */\n      0x00\n        /* \"#utility.yul\":6807:6808   */\n      dup1\n        /* \"#utility.yul\":6800:6812   */\n      revert\n        /* \"#utility.yul\":6754:6814   */\n    tag_278:\n        /* \"#utility.yul\":6704:6820   */\n      pop\n      jump\t// out\n        /* \"#utility.yul\":6826:6959   */\n    tag_149:\n        /* \"#utility.yul\":6869:6874   */\n      0x00\n        /* \"#utility.yul\":6907:6913   */\n      dup2\n        /* \"#utility.yul\":6894:6914   */\n      calldataload\n        /* \"#utility.yul\":6885:6914   */\n      swap1\n      pop\n        /* \"#utility.yul\":6923:6953   */\n      tag_280\n        /* \"#utility.yul\":6947:6952   */\n      dup2\n        /* \"#utility.yul\":6923:6953   */\n      tag_148\n      jump\t// in\n    tag_280:\n        /* \"#utility.yul\":6826:6959   */\n      swap3\n      swap2\n      pop\n      pop\n      jump\t// out\n        /* \"#utility.yul\":6965:8050   */\n    tag_22:\n        /* \"#utility.yul\":7067:7073   */\n      0x00\n        /* \"#utility.yul\":7075:7081   */\n      dup1\n        /* \"#utility.yul\":7083:7089   */\n      0x00\n        /* \"#utility.yul\":7091:7097   */\n      dup1\n        /* \"#utility.yul\":7099:7105   */\n      0x00\n        /* \"#utility.yul\":7148:7151   */\n      0xa0\n        /* \"#utility.yul\":7136:7145   */\n      dup7\n        /* \"#utility.yul\":7127:7134   */\n      dup9\n        /* \"#utility.yul\":7123:7146   */\n      sub\n        /* \"#utility.yul\":7119:7152   */\n      slt\n        /* \"#utility.yul\":7116:7236   */\n      iszero\n      tag_282\n      jumpi\n        /* \"#utility.yul\":7155:7234   */\n      tag_283\n      tag_118\n      jump\t// in\n    tag_283:\n        /* \"#utility.yul\":7116:7236   */\n    tag_282:\n        /* \"#utility.yul\":7275:7276   */\n      0x00\n        /* \"#utility.yul\":7300:7353   */\n      tag_284\n        /* \"#utility.yul\":7345:7352   */\n      dup9\n        /* \"#utility.yul\":7336:7342   */\n      dup3\n        /* \"#utility.yul\":7325:7334   */\n      dup10\n        /* \"#utility.yul\":7321:7343   */\n      add\n        /* \"#utility.yul\":7300:7353   */\n      tag_126\n      jump\t// in\n    tag_284:\n        /* \"#utility.yul\":7290:7353   */\n      swap6\n      pop\n        /* \"#utility.yul\":7246:7363   */\n      pop\n        /* \"#utility.yul\":7430:7432   */\n      0x20\n        /* \"#utility.yul\":7419:7428   */\n      dup7\n        /* \"#utility.yul\":7415:7433   */\n      add\n        /* \"#utility.yul\":7402:7434   */\n      calldataload\n        /* \"#utility.yul\":7461:7479   */\n      0xffffffffffffffff\n        /* \"#utility.yul\":7453:7459   */\n      dup2\n        /* \"#utility.yul\":7450:7480   */\n      gt\n        /* \"#utility.yul\":7447:7564   */\n      iszero\n      tag_285\n      jumpi\n        /* \"#utility.yul\":7483:7562   */\n      tag_286\n      tag_119\n      jump\t// in\n    tag_286:\n        /* \"#utility.yul\":7447:7564   */\n    tag_285:\n        /* \"#utility.yul\":7588:7651   */\n      tag_287\n        /* \"#utility.yul\":7643:7650   */\n      dup9\n        /* \"#utility.yul\":7634:7640   */\n      dup3\n        /* \"#utility.yul\":7623:7632   */\n      dup10\n        /* \"#utility.yul\":7619:7641   */\n      add\n        /* \"#utility.yul\":7588:7651   */\n      tag_145\n      jump\t// in\n    tag_287:\n        /* \"#utility.yul\":7578:7651   */\n      swap5\n      pop\n        /* \"#utility.yul\":7373:7661   */\n      pop\n        /* \"#utility.yul\":7700:7702   */\n      0x40\n        /* \"#utility.yul\":7726:7779   */\n      tag_288\n        /* \"#utility.yul\":7771:7778   */\n      dup9\n        /* \"#utility.yul\":7762:7768   */\n      dup3\n        /* \"#utility.yul\":7751:7760   */\n      dup10\n        /* \"#utility.yul\":7747:7769   */\n      add\n        /* \"#utility.yul\":7726:7779   */\n      tag_147\n      jump\t// in\n    tag_288:\n        /* \"#utility.yul\":7716:7779   */\n      swap4\n      pop\n        /* \"#utility.yul\":7671:7789   */\n      pop\n        /* \"#utility.yul\":7828:7830   */\n      0x60\n        /* \"#utility.yul\":7854:7907   */\n      tag_289\n        /* \"#utility.yul\":7899:7906   */\n      dup9\n        /* \"#utility.yul\":7890:7896   */\n      dup3\n        /* \"#utility.yul\":7879:7888   */\n      dup10\n        /* \"#utility.yul\":7875:7897   */\n      add\n        /* \"#utility.yul\":7854:7907   */\n      tag_147\n      jump\t// in\n    tag_289:\n        /* \"#utility.yul\":7844:7907   */\n      swap3\n      pop\n        /* \"#utility.yul\":7799:7917   */\n      pop\n        /* \"#utility.yul\":7956:7959   */\n      0x80\n        /* \"#utility.yul\":7983:8033   */\n      tag_290\n        /* \"#utility.yul\":8025:8032   */\n      dup9\n        /* \"#utility.yul\":8016:8022   */\n      dup3\n        /* \"#utility.yul\":8005:8014   */\n      dup10\n        /* \"#utility.yul\":8001:8023   */\n      add\n        /* \"#utility.yul\":7983:8033   */\n      tag_149\n      jump\t// in\n    tag_290:\n        /* \"#utility.yul\":7973:8033   */\n      swap2\n      pop\n        /* \"#utility.yul\":7927:8043   */\n      pop\n        /* \"#utility.yul\":6965:8050   */\n      swap3\n      swap6\n      pop\n      swap3\n      swap6\n      swap1\n      swap4\n      pop\n      jump\t// out\n        /* \"#utility.yul\":8056:8232   */\n    tag_150:\n        /* \"#utility.yul\":8196:8224   */\n      0x4465706f73697420616c72656164792077697468647261776e2e000000000000\n        /* \"#utility.yul\":8192:8193   */\n      0x00\n        /* \"#utility.yul\":8184:8190   */\n      dup3\n        /* \"#utility.yul\":8180:8194   */\n      add\n        /* \"#utility.yul\":8173:8225   */\n      mstore\n        /* \"#utility.yul\":8056:8232   */\n      pop\n      jump\t// out\n        /* \"#utility.yul\":8238:8604   */\n    tag_151:\n        /* \"#utility.yul\":8380:8383   */\n      0x00\n        /* \"#utility.yul\":8401:8468   */\n      tag_293\n        /* \"#utility.yul\":8465:8467   */\n      0x1a\n        /* \"#utility.yul\":8460:8463   */\n      dup4\n        /* \"#utility.yul\":8401:8468   */\n      tag_129\n      jump\t// in\n    tag_293:\n        /* \"#utility.yul\":8394:8468   */\n      swap2\n      pop\n        /* \"#utility.yul\":8477:8570   */\n      tag_294\n        /* \"#utility.yul\":8566:8569   */\n      dup3\n        /* \"#utility.yul\":8477:8570   */\n      tag_150\n      jump\t// in\n    tag_294:\n        /* \"#utility.yul\":8595:8597   */\n      0x20\n        /* \"#utility.yul\":8590:8593   */\n      dup3\n        /* \"#utility.yul\":8586:8598   */\n      add\n        /* \"#utility.yul\":8579:8598   */\n      swap1\n      pop\n        /* \"#utility.yul\":8238:8604   */\n      swap2\n      swap1\n      pop\n      jump\t// out\n        /* \"#utility.yul\":8610:9029   */\n    tag_27:\n        /* \"#utility.yul\":8776:8780   */\n      0x00\n        /* \"#utility.yul\":8814:8816   */\n      0x20\n        /* \"#utility.yul\":8803:8812   */\n      dup3\n        /* \"#utility.yul\":8799:8817   */\n      add\n        /* \"#utility.yul\":8791:8817   */\n      swap1\n      pop\n        /* \"#utility.yul\":8863:8872   */\n      dup2\n        /* \"#utility.yul\":8857:8861   */\n      dup2\n        /* \"#utility.yul\":8853:8873   */\n      sub\n        /* \"#utility.yul\":8849:8850   */\n      0x00\n        /* \"#utility.yul\":8838:8847   */\n      dup4\n        /* \"#utility.yul\":8834:8851   */\n      add\n        /* \"#utility.yul\":8827:8874   */\n      mstore\n        /* \"#utility.yul\":8891:9022   */\n      tag_296\n        /* \"#utility.yul\":9017:9021   */\n      dup2\n        /* \"#utility.yul\":8891:9022   */\n      tag_151\n      jump\t// in\n    tag_296:\n        /* \"#utility.yul\":8883:9022   */\n      swap1\n      pop\n        /* \"#utility.yul\":8610:9029   */\n      swap2\n      swap1\n      pop\n      jump\t// out\n        /* \"#utility.yul\":9035:9266   */\n    tag_152:\n        /* \"#utility.yul\":9175:9209   */\n      0x4f6e6c7920746865206465706f7369746f722063616e20776974686472617720\n        /* \"#utility.yul\":9171:9172   */\n      0x00\n        /* \"#utility.yul\":9163:9169   */\n      dup3\n        /* \"#utility.yul\":9159:9173   */\n      add\n        /* \"#utility.yul\":9152:9210   */\n      mstore\n        /* \"#utility.yul\":9244:9258   */\n      0x746865206465706f7369742e0000000000000000000000000000000000000000\n        /* \"#utility.yul\":9239:9241   */\n      0x20\n        /* \"#utility.yul\":9231:9237   */\n      dup3\n        /* \"#utility.yul\":9227:9242   */\n      add\n        /* \"#utility.yul\":9220:9259   */\n      mstore\n        /* \"#utility.yul\":9035:9266   */\n      pop\n      jump\t// out\n        /* \"#utility.yul\":9272:9638   */\n    tag_153:\n        /* \"#utility.yul\":9414:9417   */\n      0x00\n        /* \"#utility.yul\":9435:9502   */\n      tag_299\n        /* \"#utility.yul\":9499:9501   */\n      0x2c\n        /* \"#utility.yul\":9494:9497   */\n      dup4\n        /* \"#utility.yul\":9435:9502   */\n      tag_129\n      jump\t// in\n    tag_299:\n        /* \"#utility.yul\":9428:9502   */\n      swap2\n      pop\n        /* \"#utility.yul\":9511:9604   */\n      tag_300\n        /* \"#utility.yul\":9600:9603   */\n      dup3\n        /* \"#utility.yul\":9511:9604   */\n      tag_152\n      jump\t// in\n    tag_300:\n        /* \"#utility.yul\":9629:9631   */\n      0x40\n        /* \"#utility.yul\":9624:9627   */\n      dup3\n        /* \"#utility.yul\":9620:9632   */\n      add\n        /* \"#utility.yul\":9613:9632   */\n      swap1\n      pop\n        /* \"#utility.yul\":9272:9638   */\n      swap2\n      swap1\n      pop\n      jump\t// out\n        /* \"#utility.yul\":9644:10063   */\n    tag_30:\n        /* \"#utility.yul\":9810:9814   */\n      0x00\n        /* \"#utility.yul\":9848:9850   */\n      0x20\n        /* \"#utility.yul\":9837:9846   */\n      dup3\n        /* \"#utility.yul\":9833:9851   */\n      add\n        /* \"#utility.yul\":9825:9851   */\n      swap1\n      pop\n        /* \"#utility.yul\":9897:9906   */\n      dup2\n        /* \"#utility.yul\":9891:9895   */\n      dup2\n        /* \"#utility.yul\":9887:9907   */\n      sub\n        /* \"#utility.yul\":9883:9884   */\n      0x00\n        /* \"#utility.yul\":9872:9881   */\n      dup4\n        /* \"#utility.yul\":9868:9885   */\n      add\n        /* \"#utility.yul\":9861:9908   */\n      mstore\n        /* \"#utility.yul\":9925:10056   */\n      tag_302\n        /* \"#utility.yul\":10051:10055   */\n      dup2\n        /* \"#utility.yul\":9925:10056   */\n      tag_153\n      jump\t// in\n    tag_302:\n        /* \"#utility.yul\":9917:10056   */\n      swap1\n      pop\n        /* \"#utility.yul\":9644:10063   */\n      swap2\n      swap1\n      pop\n      jump\t// out\n        /* \"#utility.yul\":10069:10290   */\n    tag_154:\n        /* \"#utility.yul\":10209:10243   */\n      0x436f6e646974696f6e7320666f72207769746864726177616c206e6f74206d65\n        /* \"#utility.yul\":10205:10206   */\n      0x00\n        /* \"#utility.yul\":10197:10203   */\n      dup3\n        /* \"#utility.yul\":10193:10207   */\n      add\n        /* \"#utility.yul\":10186:10244   */\n      mstore\n        /* \"#utility.yul\":10278:10282   */\n      0x742e000000000000000000000000000000000000000000000000000000000000\n        /* \"#utility.yul\":10273:10275   */\n      0x20\n        /* \"#utility.yul\":10265:10271   */\n      dup3\n        /* \"#utility.yul\":10261:10276   */\n      add\n        /* \"#utility.yul\":10254:10283   */\n      mstore\n        /* \"#utility.yul\":10069:10290   */\n      pop\n      jump\t// out\n        /* \"#utility.yul\":10296:10662   */\n    tag_155:\n        /* \"#utility.yul\":10438:10441   */\n      0x00\n        /* \"#utility.yul\":10459:10526   */\n      tag_305\n        /* \"#utility.yul\":10523:10525   */\n      0x22\n        /* \"#utility.yul\":10518:10521   */\n      dup4\n        /* \"#utility.yul\":10459:10526   */\n      tag_129\n      jump\t// in\n    tag_305:\n        /* \"#utility.yul\":10452:10526   */\n      swap2\n      pop\n        /* \"#utility.yul\":10535:10628   */\n      tag_306\n        /* \"#utility.yul\":10624:10627   */\n      dup3\n        /* \"#utility.yul\":10535:10628   */\n      tag_154\n      jump\t// in\n    tag_306:\n        /* \"#utility.yul\":10653:10655   */\n      0x40\n        /* \"#utility.yul\":10648:10651   */\n      dup3\n        /* \"#utility.yul\":10644:10656   */\n      add\n        /* \"#utility.yul\":10637:10656   */\n      swap1\n      pop\n        /* \"#utility.yul\":10296:10662   */\n      swap2\n      swap1\n      pop\n      jump\t// out\n        /* \"#utility.yul\":10668:11087   */\n    tag_34:\n        /* \"#utility.yul\":10834:10838   */\n      0x00\n        /* \"#utility.yul\":10872:10874   */\n      0x20\n        /* \"#utility.yul\":10861:10870   */\n      dup3\n        /* \"#utility.yul\":10857:10875   */\n      add\n        /* \"#utility.yul\":10849:10875   */\n      swap1\n      pop\n        /* \"#utility.yul\":10921:10930   */\n      dup2\n        /* \"#utility.yul\":10915:10919   */\n      dup2\n        /* \"#utility.yul\":10911:10931   */\n      sub\n        /* \"#utility.yul\":10907:10908   */\n      0x00\n        /* \"#utility.yul\":10896:10905   */\n      dup4\n        /* \"#utility.yul\":10892:10909   */\n      add\n        /* \"#utility.yul\":10885:10932   */\n      mstore\n        /* \"#utility.yul\":10949:11080   */\n      tag_308\n        /* \"#utility.yul\":11075:11079   */\n      dup2\n        /* \"#utility.yul\":10949:11080   */\n      tag_155\n      jump\t// in\n    tag_308:\n        /* \"#utility.yul\":10941:11080   */\n      swap1\n      pop\n        /* \"#utility.yul\":10668:11087   */\n      swap2\n      swap1\n      pop\n      jump\t// out\n        /* \"#utility.yul\":11093:11211   */\n    tag_156:\n        /* \"#utility.yul\":11180:11204   */\n      tag_310\n        /* \"#utility.yul\":11198:11203   */\n      dup2\n        /* \"#utility.yul\":11180:11204   */\n      tag_120\n      jump\t// in\n    tag_310:\n        /* \"#utility.yul\":11175:11178   */\n      dup3\n        /* \"#utility.yul\":11168:11205   */\n      mstore\n        /* \"#utility.yul\":11093:11211   */\n      pop\n      pop\n      jump\t// out\n        /* \"#utility.yul\":11217:11439   */\n    tag_38:\n        /* \"#utility.yul\":11310:11314   */\n      0x00\n        /* \"#utility.yul\":11348:11350   */\n      0x20\n        /* \"#utility.yul\":11337:11346   */\n      dup3\n        /* \"#utility.yul\":11333:11351   */\n      add\n        /* \"#utility.yul\":11325:11351   */\n      swap1\n      pop\n        /* \"#utility.yul\":11361:11432   */\n      tag_312\n        /* \"#utility.yul\":11429:11430   */\n      0x00\n        /* \"#utility.yul\":11418:11427   */\n      dup4\n        /* \"#utility.yul\":11414:11431   */\n      add\n        /* \"#utility.yul\":11405:11411   */\n      dup5\n        /* \"#utility.yul\":11361:11432   */\n      tag_156\n      jump\t// in\n    tag_312:\n        /* \"#utility.yul\":11217:11439   */\n      swap3\n      swap2\n      pop\n      pop\n      jump\t// out\n        /* \"#utility.yul\":11445:11625   */\n    tag_157:\n        /* \"#utility.yul\":11493:11570   */\n      0x4e487b7100000000000000000000000000000000000000000000000000000000\n        /* \"#utility.yul\":11490:11491   */\n      0x00\n        /* \"#utility.yul\":11483:11571   */\n      mstore\n        /* \"#utility.yul\":11590:11594   */\n      0x22\n        /* \"#utility.yul\":11587:11588   */\n      0x04\n        /* \"#utility.yul\":11580:11595   */\n      mstore\n        /* \"#utility.yul\":11614:11618   */\n      0x24\n        /* \"#utility.yul\":11611:11612   */\n      0x00\n        /* \"#utility.yul\":11604:11619   */\n      revert\n        /* \"#utility.yul\":11631:11951   */\n    tag_40:\n        /* \"#utility.yul\":11675:11681   */\n      0x00\n        /* \"#utility.yul\":11712:11713   */\n      0x02\n        /* \"#utility.yul\":11706:11710   */\n      dup3\n        /* \"#utility.yul\":11702:11714   */\n      div\n        /* \"#utility.yul\":11692:11714   */\n      swap1\n      pop\n        /* \"#utility.yul\":11759:11760   */\n      0x01\n        /* \"#utility.yul\":11753:11757   */\n      dup3\n        /* \"#utility.yul\":11749:11761   */\n      and\n        /* \"#utility.yul\":11780:11798   */\n      dup1\n        /* \"#utility.yul\":11770:11851   */\n      tag_315\n      jumpi\n        /* \"#utility.yul\":11836:11840   */\n      0x7f\n        /* \"#utility.yul\":11828:11834   */\n      dup3\n        /* \"#utility.yul\":11824:11841   */\n      and\n        /* \"#utility.yul\":11814:11841   */\n      swap2\n      pop\n        /* \"#utility.yul\":11770:11851   */\n    tag_315:\n        /* \"#utility.yul\":11898:11900   */\n      0x20\n        /* \"#utility.yul\":11890:11896   */\n      dup3\n        /* \"#utility.yul\":11887:11901   */\n      lt\n        /* \"#utility.yul\":11867:11885   */\n      dup2\n        /* \"#utility.yul\":11864:11902   */\n      sub\n        /* \"#utility.yul\":11861:11945   */\n      tag_316\n      jumpi\n        /* \"#utility.yul\":11917:11935   */\n      tag_317\n      tag_157\n      jump\t// in\n    tag_317:\n        /* \"#utility.yul\":11861:11945   */\n    tag_316:\n        /* \"#utility.yul\":11682:11951   */\n      pop\n        /* \"#utility.yul\":11631:11951   */\n      swap2\n      swap1\n      pop\n      jump\t// out\n        /* \"#utility.yul\":11957:12177   */\n    tag_158:\n        /* \"#utility.yul\":12097:12131   */\n      0x416d6f756e74206d7573742062652067726561746572207468616e207a65726f\n        /* \"#utility.yul\":12093:12094   */\n      0x00\n        /* \"#utility.yul\":12085:12091   */\n      dup3\n        /* \"#utility.yul\":12081:12095   */\n      add\n        /* \"#utility.yul\":12074:12132   */\n      mstore\n        /* \"#utility.yul\":12166:12169   */\n      0x2e00000000000000000000000000000000000000000000000000000000000000\n        /* \"#utility.yul\":12161:12163   */\n      0x20\n        /* \"#utility.yul\":12153:12159   */\n      dup3\n        /* \"#utility.yul\":12149:12164   */\n      add\n        /* \"#utility.yul\":12142:12170   */\n      mstore\n        /* \"#utility.yul\":11957:12177   */\n      pop\n      jump\t// out\n        /* \"#utility.yul\":12183:12549   */\n    tag_159:\n        /* \"#utility.yul\":12325:12328   */\n      0x00\n        /* \"#utility.yul\":12346:12413   */\n      tag_320\n        /* \"#utility.yul\":12410:12412   */\n      0x21\n        /* \"#utility.yul\":12405:12408   */\n      dup4\n        /* \"#utility.yul\":12346:12413   */\n      tag_129\n      jump\t// in\n    tag_320:\n        /* \"#utility.yul\":12339:12413   */\n      swap2\n      pop\n        /* \"#utility.yul\":12422:12515   */\n      tag_321\n        /* \"#utility.yul\":12511:12514   */\n      dup3\n        /* \"#utility.yul\":12422:12515   */\n      tag_158\n      jump\t// in\n    tag_321:\n        /* \"#utility.yul\":12540:12542   */\n      0x40\n        /* \"#utility.yul\":12535:12538   */\n      dup3\n        /* \"#utility.yul\":12531:12543   */\n      add\n        /* \"#utility.yul\":12524:12543   */\n      swap1\n      pop\n        /* \"#utility.yul\":12183:12549   */\n      swap2\n      swap1\n      pop\n      jump\t// out\n        /* \"#utility.yul\":12555:12974   */\n    tag_51:\n        /* \"#utility.yul\":12721:12725   */\n      0x00\n        /* \"#utility.yul\":12759:12761   */\n      0x20\n        /* \"#utility.yul\":12748:12757   */\n      dup3\n        /* \"#utility.yul\":12744:12762   */\n      add\n        /* \"#utility.yul\":12736:12762   */\n      swap1\n      pop\n        /* \"#utility.yul\":12808:12817   */\n      dup2\n        /* \"#utility.yul\":12802:12806   */\n      dup2\n        /* \"#utility.yul\":12798:12818   */\n      sub\n        /* \"#utility.yul\":12794:12795   */\n      0x00\n        /* \"#utility.yul\":12783:12792   */\n      dup4\n        /* \"#utility.yul\":12779:12796   */\n      add\n        /* \"#utility.yul\":12772:12819   */\n      mstore\n        /* \"#utility.yul\":12836:12967   */\n      tag_323\n        /* \"#utility.yul\":12962:12966   */\n      dup2\n        /* \"#utility.yul\":12836:12967   */\n      tag_159\n      jump\t// in\n    tag_323:\n        /* \"#utility.yul\":12828:12967   */\n      swap1\n      pop\n        /* \"#utility.yul\":12555:12974   */\n      swap2\n      swap1\n      pop\n      jump\t// out\n        /* \"#utility.yul\":12980:13074   */\n    tag_160:\n        /* \"#utility.yul\":13013:13021   */\n      0x00\n        /* \"#utility.yul\":13061:13066   */\n      dup2\n        /* \"#utility.yul\":13057:13059   */\n      0x60\n        /* \"#utility.yul\":13053:13067   */\n      shl\n        /* \"#utility.yul\":13032:13067   */\n      swap1\n      pop\n        /* \"#utility.yul\":12980:13074   */\n      swap2\n      swap1\n      pop\n      jump\t// out\n        /* \"#utility.yul\":13080:13174   */\n    tag_161:\n        /* \"#utility.yul\":13119:13126   */\n      0x00\n        /* \"#utility.yul\":13148:13168   */\n      tag_326\n        /* \"#utility.yul\":13162:13167   */\n      dup3\n        /* \"#utility.yul\":13148:13168   */\n      tag_160\n      jump\t// in\n    tag_326:\n        /* \"#utility.yul\":13137:13168   */\n      swap1\n      pop\n        /* \"#utility.yul\":13080:13174   */\n      swap2\n      swap1\n      pop\n      jump\t// out\n        /* \"#utility.yul\":13180:13280   */\n    tag_162:\n        /* \"#utility.yul\":13219:13226   */\n      0x00\n        /* \"#utility.yul\":13248:13274   */\n      tag_328\n        /* \"#utility.yul\":13268:13273   */\n      dup3\n        /* \"#utility.yul\":13248:13274   */\n      tag_161\n      jump\t// in\n    tag_328:\n        /* \"#utility.yul\":13237:13274   */\n      swap1\n      pop\n        /* \"#utility.yul\":13180:13280   */\n      swap2\n      swap1\n      pop\n      jump\t// out\n        /* \"#utility.yul\":13286:13443   */\n    tag_163:\n        /* \"#utility.yul\":13391:13436   */\n      tag_330\n        /* \"#utility.yul\":13411:13435   */\n      tag_331\n        /* \"#utility.yul\":13429:13434   */\n      dup3\n        /* \"#utility.yul\":13411:13435   */\n      tag_124\n      jump\t// in\n    tag_331:\n        /* \"#utility.yul\":13391:13436   */\n      tag_162\n      jump\t// in\n    tag_330:\n        /* \"#utility.yul\":13386:13389   */\n      dup3\n        /* \"#utility.yul\":13379:13437   */\n      mstore\n        /* \"#utility.yul\":13286:13443   */\n      pop\n      pop\n      jump\t// out\n        /* \"#utility.yul\":13449:13597   */\n    tag_164:\n        /* \"#utility.yul\":13551:13562   */\n      0x00\n        /* \"#utility.yul\":13588:13591   */\n      dup2\n        /* \"#utility.yul\":13573:13591   */\n      swap1\n      pop\n        /* \"#utility.yul\":13449:13597   */\n      swap3\n      swap2\n      pop\n      pop\n      jump\t// out\n        /* \"#utility.yul\":13603:13993   */\n    tag_165:\n        /* \"#utility.yul\":13709:13712   */\n      0x00\n        /* \"#utility.yul\":13737:13776   */\n      tag_334\n        /* \"#utility.yul\":13770:13775   */\n      dup3\n        /* \"#utility.yul\":13737:13776   */\n      tag_128\n      jump\t// in\n    tag_334:\n        /* \"#utility.yul\":13792:13881   */\n      tag_335\n        /* \"#utility.yul\":13874:13880   */\n      dup2\n        /* \"#utility.yul\":13869:13872   */\n      dup6\n        /* \"#utility.yul\":13792:13881   */\n      tag_164\n      jump\t// in\n    tag_335:\n        /* \"#utility.yul\":13785:13881   */\n      swap4\n      pop\n        /* \"#utility.yul\":13890:13955   */\n      tag_336\n        /* \"#utility.yul\":13948:13954   */\n      dup2\n        /* \"#utility.yul\":13943:13946   */\n      dup6\n        /* \"#utility.yul\":13936:13940   */\n      0x20\n        /* \"#utility.yul\":13929:13934   */\n      dup7\n        /* \"#utility.yul\":13925:13941   */\n      add\n        /* \"#utility.yul\":13890:13955   */\n      tag_130\n      jump\t// in\n    tag_336:\n        /* \"#utility.yul\":13980:13986   */\n      dup1\n        /* \"#utility.yul\":13975:13978   */\n      dup5\n        /* \"#utility.yul\":13971:13987   */\n      add\n        /* \"#utility.yul\":13964:13987   */\n      swap2\n      pop\n        /* \"#utility.yul\":13713:13993   */\n      pop\n        /* \"#utility.yul\":13603:13993   */\n      swap3\n      swap2\n      pop\n      pop\n      jump\t// out\n        /* \"#utility.yul\":13999:14078   */\n    tag_166:\n        /* \"#utility.yul\":14038:14045   */\n      0x00\n        /* \"#utility.yul\":14067:14072   */\n      dup2\n        /* \"#utility.yul\":14056:14072   */\n      swap1\n      pop\n        /* \"#utility.yul\":13999:14078   */\n      swap2\n      swap1\n      pop\n      jump\t// out\n        /* \"#utility.yul\":14084:14241   */\n    tag_167:\n        /* \"#utility.yul\":14189:14234   */\n      tag_339\n        /* \"#utility.yul\":14209:14233   */\n      tag_340\n        /* \"#utility.yul\":14227:14232   */\n      dup3\n        /* \"#utility.yul\":14209:14233   */\n      tag_133\n      jump\t// in\n    tag_340:\n        /* \"#utility.yul\":14189:14234   */\n      tag_166\n      jump\t// in\n    tag_339:\n        /* \"#utility.yul\":14184:14187   */\n      dup3\n        /* \"#utility.yul\":14177:14235   */\n      mstore\n        /* \"#utility.yul\":14084:14241   */\n      pop\n      pop\n      jump\t// out\n        /* \"#utility.yul\":14247:14945   */\n    tag_55:\n        /* \"#utility.yul\":14463:14466   */\n      0x00\n        /* \"#utility.yul\":14478:14553   */\n      tag_342\n        /* \"#utility.yul\":14549:14552   */\n      dup3\n        /* \"#utility.yul\":14540:14546   */\n      dup8\n        /* \"#utility.yul\":14478:14553   */\n      tag_163\n      jump\t// in\n    tag_342:\n        /* \"#utility.yul\":14578:14580   */\n      0x14\n        /* \"#utility.yul\":14573:14576   */\n      dup3\n        /* \"#utility.yul\":14569:14581   */\n      add\n        /* \"#utility.yul\":14562:14581   */\n      swap2\n      pop\n        /* \"#utility.yul\":14598:14693   */\n      tag_343\n        /* \"#utility.yul\":14689:14692   */\n      dup3\n        /* \"#utility.yul\":14680:14686   */\n      dup7\n        /* \"#utility.yul\":14598:14693   */\n      tag_165\n      jump\t// in\n    tag_343:\n        /* \"#utility.yul\":14591:14693   */\n      swap2\n      pop\n        /* \"#utility.yul\":14703:14778   */\n      tag_344\n        /* \"#utility.yul\":14774:14777   */\n      dup3\n        /* \"#utility.yul\":14765:14771   */\n      dup6\n        /* \"#utility.yul\":14703:14778   */\n      tag_167\n      jump\t// in\n    tag_344:\n        /* \"#utility.yul\":14803:14805   */\n      0x20\n        /* \"#utility.yul\":14798:14801   */\n      dup3\n        /* \"#utility.yul\":14794:14806   */\n      add\n        /* \"#utility.yul\":14787:14806   */\n      swap2\n      pop\n        /* \"#utility.yul\":14816:14891   */\n      tag_345\n        /* \"#utility.yul\":14887:14890   */\n      dup3\n        /* \"#utility.yul\":14878:14884   */\n      dup5\n        /* \"#utility.yul\":14816:14891   */\n      tag_167\n      jump\t// in\n    tag_345:\n        /* \"#utility.yul\":14916:14918   */\n      0x20\n        /* \"#utility.yul\":14911:14914   */\n      dup3\n        /* \"#utility.yul\":14907:14919   */\n      add\n        /* \"#utility.yul\":14900:14919   */\n      swap2\n      pop\n        /* \"#utility.yul\":14936:14939   */\n      dup2\n        /* \"#utility.yul\":14929:14939   */\n      swap1\n      pop\n        /* \"#utility.yul\":14247:14945   */\n      swap6\n      swap5\n      pop\n      pop\n      pop\n      pop\n      pop\n      jump\t// out\n        /* \"#utility.yul\":14951:15092   */\n    tag_168:\n        /* \"#utility.yul\":15000:15004   */\n      0x00\n        /* \"#utility.yul\":15023:15026   */\n      dup2\n        /* \"#utility.yul\":15015:15026   */\n      swap1\n      pop\n        /* \"#utility.yul\":15046:15049   */\n      dup2\n        /* \"#utility.yul\":15043:15044   */\n      0x00\n        /* \"#utility.yul\":15036:15050   */\n      mstore\n        /* \"#utility.yul\":15080:15084   */\n      0x20\n        /* \"#utility.yul\":15077:15078   */\n      0x00\n        /* \"#utility.yul\":15067:15085   */\n      keccak256\n        /* \"#utility.yul\":15059:15085   */\n      swap1\n      pop\n        /* \"#utility.yul\":14951:15092   */\n      swap2\n      swap1\n      pop\n      jump\t// out\n        /* \"#utility.yul\":15098:15191   */\n    tag_169:\n        /* \"#utility.yul\":15135:15141   */\n      0x00\n        /* \"#utility.yul\":15182:15184   */\n      0x20\n        /* \"#utility.yul\":15177:15179   */\n      0x1f\n        /* \"#utility.yul\":15170:15175   */\n      dup4\n        /* \"#utility.yul\":15166:15180   */\n      add\n        /* \"#utility.yul\":15162:15185   */\n      div\n        /* \"#utility.yul\":15152:15185   */\n      swap1\n      pop\n        /* \"#utility.yul\":15098:15191   */\n      swap2\n      swap1\n      pop\n      jump\t// out\n        /* \"#utility.yul\":15197:15304   */\n    tag_170:\n        /* \"#utility.yul\":15241:15249   */\n      0x00\n        /* \"#utility.yul\":15291:15296   */\n      dup3\n        /* \"#utility.yul\":15285:15289   */\n      dup3\n        /* \"#utility.yul\":15281:15297   */\n      shl\n        /* \"#utility.yul\":15260:15297   */\n      swap1\n      pop\n        /* \"#utility.yul\":15197:15304   */\n      swap3\n      swap2\n      pop\n      pop\n      jump\t// out\n        /* \"#utility.yul\":15310:15703   */\n    tag_171:\n        /* \"#utility.yul\":15379:15385   */\n      0x00\n        /* \"#utility.yul\":15429:15430   */\n      0x08\n        /* \"#utility.yul\":15417:15427   */\n      dup4\n        /* \"#utility.yul\":15413:15431   */\n      mul\n        /* \"#utility.yul\":15452:15549   */\n      tag_350\n        /* \"#utility.yul\":15482:15548   */\n      0xffffffffffffffffffffffffffffffffffffffffffffffffffffffffffffffff\n        /* \"#utility.yul\":15471:15480   */\n      dup3\n        /* \"#utility.yul\":15452:15549   */\n      tag_170\n      jump\t// in\n    tag_350:\n        /* \"#utility.yul\":15570:15609   */\n      tag_351\n        /* \"#utility.yul\":15600:15608   */\n      dup7\n        /* \"#utility.yul\":15589:15598   */\n      dup4\n        /* \"#utility.yul\":15570:15609   */\n      tag_170\n      jump\t// in\n    tag_351:\n        /* \"#utility.yul\":15558:15609   */\n      swap6\n      pop\n        /* \"#utility.yul\":15642:15646   */\n      dup1\n        /* \"#utility.yul\":15638:15647   */\n      not\n        /* \"#utility.yul\":15631:15636   */\n      dup5\n        /* \"#utility.yul\":15627:15648   */\n      and\n        /* \"#utility.yul\":15618:15648   */\n      swap4\n      pop\n        /* \"#utility.yul\":15691:15695   */\n      dup1\n        /* \"#utility.yul\":15681:15689   */\n      dup7\n        /* \"#utility.yul\":15677:15696   */\n      and\n        /* \"#utility.yul\":15670:15675   */\n      dup5\n        /* \"#utility.yul\":15667:15697   */\n      or\n        /* \"#utility.yul\":15657:15697   */\n      swap3\n      pop\n        /* \"#utility.yul\":15386:15703   */\n      pop\n      pop\n        /* \"#utility.yul\":15310:15703   */\n      swap4\n      swap3\n      pop\n      pop\n      pop\n      jump\t// out\n        /* \"#utility.yul\":15709:15769   */\n    tag_172:\n        /* \"#utility.yul\":15737:15740   */\n      0x00\n        /* \"#utility.yul\":15758:15763   */\n      dup2\n        /* \"#utility.yul\":15751:15763   */\n      swap1\n      pop\n        /* \"#utility.yul\":15709:15769   */\n      swap2\n      swap1\n      pop\n      jump\t// out\n        /* \"#utility.yul\":15775:15917   */\n    tag_173:\n        /* \"#utility.yul\":15825:15834   */\n      0x00\n        /* \"#utility.yul\":15858:15911   */\n      tag_354\n        /* \"#utility.yul\":15876:15910   */\n      tag_355\n        /* \"#utility.yul\":15885:15909   */\n      tag_356\n        /* \"#utility.yul\":15903:15908   */\n      dup5\n        /* \"#utility.yul\":15885:15909   */\n      tag_133\n      jump\t// in\n    tag_356:\n        /* \"#utility.yul\":15876:15910   */\n      tag_172\n      jump\t// in\n    tag_355:\n        /* \"#utility.yul\":15858:15911   */\n      tag_133\n      jump\t// in\n    tag_354:\n        /* \"#utility.yul\":15845:15911   */\n      swap1\n      pop\n        /* \"#utility.yul\":15775:15917   */\n      swap2\n      swap1\n      pop\n      jump\t// out\n        /* \"#utility.yul\":15923:15998   */\n    tag_174:\n        /* \"#utility.yul\":15966:15969   */\n      0x00\n        /* \"#utility.yul\":15987:15992   */\n      dup2\n        /* \"#utility.yul\":15980:15992   */\n      swap1\n      pop\n        /* \"#utility.yul\":15923:15998   */\n      swap2\n      swap1\n      pop\n      jump\t// out\n        /* \"#utility.yul\":16004:16273   */\n    tag_175:\n        /* \"#utility.yul\":16114:16153   */\n      tag_359\n        /* \"#utility.yul\":16145:16152   */\n      dup4\n        /* \"#utility.yul\":16114:16153   */\n      tag_173\n      jump\t// in\n    tag_359:\n        /* \"#utility.yul\":16175:16266   */\n      tag_360\n        /* \"#utility.yul\":16224:16265   */\n      tag_361\n        /* \"#utility.yul\":16248:16264   */\n      dup3\n        /* \"#utility.yul\":16224:16265   */\n      tag_174\n      jump\t// in\n    tag_361:\n        /* \"#utility.yul\":16216:16222   */\n      dup5\n        /* \"#utility.yul\":16209:16213   */\n      dup5\n        /* \"#utility.yul\":16203:16214   */\n      sload\n        /* \"#utility.yul\":16175:16266   */\n      tag_171\n      jump\t// in\n    tag_360:\n        /* \"#utility.yul\":16169:16173   */\n      dup3\n        /* \"#utility.yul\":16162:16267   */\n      sstore\n        /* \"#utility.yul\":16080:16273   */\n      pop\n        /* \"#utility.yul\":16004:16273   */\n      pop\n      pop\n      pop\n      jump\t// out\n        /* \"#utility.yul\":16279:16352   */\n    tag_176:\n        /* \"#utility.yul\":16324:16327   */\n      0x00\n        /* \"#utility.yul\":16279:16352   */\n      swap1\n      jump\t// out\n        /* \"#utility.yul\":16358:16547   */\n    tag_177:\n        /* \"#utility.yul\":16435:16467   */\n      tag_364\n      tag_176\n      jump\t// in\n    tag_364:\n        /* \"#utility.yul\":16476:16541   */\n      tag_365\n        /* \"#utility.yul\":16534:16540   */\n      dup2\n        /* \"#utility.yul\":16526:16532   */\n      dup5\n        /* \"#utility.yul\":16520:16524   */\n      dup5\n        /* \"#utility.yul\":16476:16541   */\n      tag_175\n      jump\t// in\n    tag_365:\n        /* \"#utility.yul\":16411:16547   */\n      pop\n        /* \"#utility.yul\":16358:16547   */\n      pop\n      pop\n      jump\t// out\n        /* \"#utility.yul\":16553:16739   */\n    tag_178:\n        /* \"#utility.yul\":16613:16733   */\n    tag_367:\n        /* \"#utility.yul\":16630:16633   */\n      dup2\n        /* \"#utility.yul\":16623:16628   */\n      dup2\n        /* \"#utility.yul\":16620:16634   */\n      lt\n        /* \"#utility.yul\":16613:16733   */\n      iszero\n      tag_369\n      jumpi\n        /* \"#utility.yul\":16684:16723   */\n      tag_370\n        /* \"#utility.yul\":16721:16722   */\n      0x00\n        /* \"#utility.yul\":16714:16719   */\n      dup3\n        /* \"#utility.yul\":16684:16723   */\n      tag_177\n      jump\t// in\n    tag_370:\n        /* \"#utility.yul\":16657:16658   */\n      0x01\n        /* \"#utility.yul\":16650:16655   */\n      dup2\n        /* \"#utility.yul\":16646:16659   */\n      add\n        /* \"#utility.yul\":16637:16659   */\n      swap1\n      pop\n        /* \"#utility.yul\":16613:16733   */\n      jump(tag_367)\n    tag_369:\n        /* \"#utility.yul\":16553:16739   */\n      pop\n      pop\n      jump\t// out\n        /* \"#utility.yul\":16745:17288   */\n    tag_179:\n        /* \"#utility.yul\":16846:16848   */\n      0x1f\n        /* \"#utility.yul\":16841:16844   */\n      dup3\n        /* \"#utility.yul\":16838:16849   */\n      gt\n        /* \"#utility.yul\":16835:17281   */\n      iszero\n      tag_372\n      jumpi\n        /* \"#utility.yul\":16880:16918   */\n      tag_373\n        /* \"#utility.yul\":16912:16917   */\n      dup2\n        /* \"#utility.yul\":16880:16918   */\n      tag_168\n      jump\t// in\n    tag_373:\n        /* \"#utility.yul\":16964:16993   */\n      tag_374\n        /* \"#utility.yul\":16982:16992   */\n      dup5\n        /* \"#utility.yul\":16964:16993   */\n      tag_169\n      jump\t// in\n    tag_374:\n        /* \"#utility.yul\":16954:16962   */\n      dup2\n        /* \"#utility.yul\":16950:16994   */\n      add\n        /* \"#utility.yul\":17147:17149   */\n      0x20\n        /* \"#utility.yul\":17135:17145   */\n      dup6\n        /* \"#utility.yul\":17132:17150   */\n      lt\n        /* \"#utility.yul\":17129:17178   */\n      iszero\n      tag_375\n      jumpi\n        /* \"#utility.yul\":17168:17176   */\n      dup2\n        /* \"#utility.yul\":17153:17176   */\n      swap1\n      pop\n        /* \"#utility.yul\":17129:17178   */\n    tag_375:\n        /* \"#utility.yul\":17191:17271   */\n      tag_376\n        /* \"#utility.yul\":17247:17269   */\n      tag_377\n        /* \"#utility.yul\":17265:17268   */\n      dup6\n        /* \"#utility.yul\":17247:17269   */\n      tag_169\n      jump\t// in\n    tag_377:\n        /* \"#utility.yul\":17237:17245   */\n      dup4\n        /* \"#utility.yul\":17233:17270   */\n      add\n        /* \"#utility.yul\":17220:17231   */\n      dup3\n        /* \"#utility.yul\":17191:17271   */\n      tag_178\n      jump\t// in\n    tag_376:\n        /* \"#utility.yul\":16850:17281   */\n      pop\n      pop\n        /* \"#utility.yul\":16835:17281   */\n    tag_372:\n        /* \"#utility.yul\":16745:17288   */\n      pop\n      pop\n      pop\n      jump\t// out\n        /* \"#utility.yul\":17294:17411   */\n    tag_180:\n        /* \"#utility.yul\":17348:17356   */\n      0x00\n        /* \"#utility.yul\":17398:17403   */\n      dup3\n        /* \"#utility.yul\":17392:17396   */\n      dup3\n        /* \"#utility.yul\":17388:17404   */\n      shr\n        /* \"#utility.yul\":17367:17404   */\n      swap1\n      pop\n        /* \"#utility.yul\":17294:17411   */\n      swap3\n      swap2\n      pop\n      pop\n      jump\t// out\n        /* \"#utility.yul\":17417:17586   */\n    tag_181:\n        /* \"#utility.yul\":17461:17467   */\n      0x00\n        /* \"#utility.yul\":17494:17545   */\n      tag_380\n        /* \"#utility.yul\":17542:17543   */\n      0x00\n        /* \"#utility.yul\":17538:17544   */\n      not\n        /* \"#utility.yul\":17530:17535   */\n      dup5\n        /* \"#utility.yul\":17527:17528   */\n      0x08\n        /* \"#utility.yul\":17523:17536   */\n      mul\n        /* \"#utility.yul\":17494:17545   */\n      tag_180\n      jump\t// in\n    tag_380:\n        /* \"#utility.yul\":17490:17546   */\n      not\n        /* \"#utility.yul\":17575:17579   */\n      dup1\n        /* \"#utility.yul\":17569:17573   */\n      dup4\n        /* \"#utility.yul\":17565:17580   */\n      and\n        /* \"#utility.yul\":17555:17580   */\n      swap2\n      pop\n        /* \"#utility.yul\":17468:17586   */\n      pop\n        /* \"#utility.yul\":17417:17586   */\n      swap3\n      swap2\n      pop\n      pop\n      jump\t// out\n        /* \"#utility.yul\":17591:17886   */\n    tag_182:\n        /* \"#utility.yul\":17667:17671   */\n      0x00\n        /* \"#utility.yul\":17813:17842   */\n      tag_382\n        /* \"#utility.yul\":17838:17841   */\n      dup4\n        /* \"#utility.yul\":17832:17836   */\n      dup4\n        /* \"#utility.yul\":17813:17842   */\n      tag_181\n      jump\t// in\n    tag_382:\n        /* \"#utility.yul\":17805:17842   */\n      swap2\n      pop\n        /* \"#utility.yul\":17875:17878   */\n      dup3\n        /* \"#utility.yul\":17872:17873   */\n      0x02\n        /* \"#utility.yul\":17868:17879   */\n      mul\n        /* \"#utility.yul\":17862:17866   */\n      dup3\n        /* \"#utility.yul\":17859:17880   */\n      or\n        /* \"#utility.yul\":17851:17880   */\n      swap1\n      pop\n        /* \"#utility.yul\":17591:17886   */\n      swap3\n      swap2\n      pop\n      pop\n      jump\t// out\n        /* \"#utility.yul\":17891:19286   */\n    tag_57:\n        /* \"#utility.yul\":18008:18045   */\n      tag_384\n        /* \"#utility.yul\":18041:18044   */\n      dup3\n        /* \"#utility.yul\":18008:18045   */\n      tag_128\n      jump\t// in\n    tag_384:\n        /* \"#utility.yul\":18110:18128   */\n      0xffffffffffffffff\n        /* \"#utility.yul\":18102:18108   */\n      dup2\n        /* \"#utility.yul\":18099:18129   */\n      gt\n        /* \"#utility.yul\":18096:18152   */\n      iszero\n      tag_385\n      jumpi\n        /* \"#utility.yul\":18132:18150   */\n      tag_386\n      tag_139\n      jump\t// in\n    tag_386:\n        /* \"#utility.yul\":18096:18152   */\n    tag_385:\n        /* \"#utility.yul\":18176:18214   */\n      tag_387\n        /* \"#utility.yul\":18208:18212   */\n      dup3\n        /* \"#utility.yul\":18202:18213   */\n      sload\n        /* \"#utility.yul\":18176:18214   */\n      tag_40\n      jump\t// in\n    tag_387:\n        /* \"#utility.yul\":18261:18328   */\n      tag_388\n        /* \"#utility.yul\":18321:18327   */\n      dup3\n        /* \"#utility.yul\":18313:18319   */\n      dup3\n        /* \"#utility.yul\":18307:18311   */\n      dup6\n        /* \"#utility.yul\":18261:18328   */\n      tag_179\n      jump\t// in\n    tag_388:\n        /* \"#utility.yul\":18355:18356   */\n      0x00\n        /* \"#utility.yul\":18379:18383   */\n      0x20\n        /* \"#utility.yul\":18366:18383   */\n      swap1\n      pop\n        /* \"#utility.yul\":18411:18413   */\n      0x1f\n        /* \"#utility.yul\":18403:18409   */\n      dup4\n        /* \"#utility.yul\":18400:18414   */\n      gt\n        /* \"#utility.yul\":18428:18429   */\n      0x01\n        /* \"#utility.yul\":18423:19041   */\n      dup2\n      eq\n      tag_390\n      jumpi\n        /* \"#utility.yul\":19085:19086   */\n      0x00\n        /* \"#utility.yul\":19102:19108   */\n      dup5\n        /* \"#utility.yul\":19099:19176   */\n      iszero\n      tag_391\n      jumpi\n        /* \"#utility.yul\":19151:19160   */\n      dup3\n        /* \"#utility.yul\":19146:19149   */\n      dup8\n        /* \"#utility.yul\":19142:19161   */\n      add\n        /* \"#utility.yul\":19136:19162   */\n      mload\n        /* \"#utility.yul\":19127:19162   */\n      swap1\n      pop\n        /* \"#utility.yul\":19099:19176   */\n    tag_391:\n        /* \"#utility.yul\":19202:19269   */\n      tag_392\n        /* \"#utility.yul\":19262:19268   */\n      dup6\n        /* \"#utility.yul\":19255:19260   */\n      dup3\n        /* \"#utility.yul\":19202:19269   */\n      tag_182\n      jump\t// in\n    tag_392:\n        /* \"#utility.yul\":19196:19200   */\n      dup7\n        /* \"#utility.yul\":19189:19270   */\n      sstore\n        /* \"#utility.yul\":19058:19280   */\n      pop\n        /* \"#utility.yul\":18393:19280   */\n      jump(tag_389)\n        /* \"#utility.yul\":18423:19041   */\n    tag_390:\n        /* \"#utility.yul\":18475:18479   */\n      0x1f\n        /* \"#utility.yul\":18471:18480   */\n      not\n        /* \"#utility.yul\":18463:18469   */\n      dup5\n        /* \"#utility.yul\":18459:18481   */\n      and\n        /* \"#utility.yul\":18509:18546   */\n      tag_393\n        /* \"#utility.yul\":18541:18545   */\n      dup7\n        /* \"#utility.yul\":18509:18546   */\n      tag_168\n      jump\t// in\n    tag_393:\n        /* \"#utility.yul\":18568:18569   */\n      0x00\n        /* \"#utility.yul\":18582:18790   */\n    tag_394:\n        /* \"#utility.yul\":18596:18603   */\n      dup3\n        /* \"#utility.yul\":18593:18594   */\n      dup2\n        /* \"#utility.yul\":18590:18604   */\n      lt\n        /* \"#utility.yul\":18582:18790   */\n      iszero\n      tag_396\n      jumpi\n        /* \"#utility.yul\":18675:18684   */\n      dup5\n        /* \"#utility.yul\":18670:18673   */\n      dup10\n        /* \"#utility.yul\":18666:18685   */\n      add\n        /* \"#utility.yul\":18660:18686   */\n      mload\n        /* \"#utility.yul\":18652:18658   */\n      dup3\n        /* \"#utility.yul\":18645:18687   */\n      sstore\n        /* \"#utility.yul\":18726:18727   */\n      0x01\n        /* \"#utility.yul\":18718:18724   */\n      dup3\n        /* \"#utility.yul\":18714:18728   */\n      add\n        /* \"#utility.yul\":18704:18728   */\n      swap2\n      pop\n        /* \"#utility.yul\":18773:18775   */\n      0x20\n        /* \"#utility.yul\":18762:18771   */\n      dup6\n        /* \"#utility.yul\":18758:18776   */\n      add\n        /* \"#utility.yul\":18745:18776   */\n      swap5\n      pop\n        /* \"#utility.yul\":18619:18623   */\n      0x20\n        /* \"#utility.yul\":18616:18617   */\n      dup2\n        /* \"#utility.yul\":18612:18624   */\n      add\n        /* \"#utility.yul\":18607:18624   */\n      swap1\n      pop\n        /* \"#utility.yul\":18582:18790   */\n      jump(tag_394)\n    tag_396:\n        /* \"#utility.yul\":18818:18824   */\n      dup7\n        /* \"#utility.yul\":18809:18816   */\n      dup4\n        /* \"#utility.yul\":18806:18825   */\n      lt\n        /* \"#utility.yul\":18803:18982   */\n      iszero\n      tag_397\n      jumpi\n        /* \"#utility.yul\":18876:18885   */\n      dup5\n        /* \"#utility.yul\":18871:18874   */\n      dup10\n        /* \"#utility.yul\":18867:18886   */\n      add\n        /* \"#utility.yul\":18861:18887   */\n      mload\n        /* \"#utility.yul\":18919:18967   */\n      tag_398\n        /* \"#utility.yul\":18961:18965   */\n      0x1f\n        /* \"#utility.yul\":18953:18959   */\n      dup10\n        /* \"#utility.yul\":18949:18966   */\n      and\n        /* \"#utility.yul\":18938:18947   */\n      dup3\n        /* \"#utility.yul\":18919:18967   */\n      tag_181\n      jump\t// in\n    tag_398:\n        /* \"#utility.yul\":18911:18917   */\n      dup4\n        /* \"#utility.yul\":18904:18968   */\n      sstore\n        /* \"#utility.yul\":18826:18982   */\n      pop\n        /* \"#utility.yul\":18803:18982   */\n    tag_397:\n        /* \"#utility.yul\":19028:19029   */\n      0x01\n        /* \"#utility.yul\":19024:19025   */\n      0x02\n        /* \"#utility.yul\":19016:19022   */\n      dup9\n        /* \"#utility.yul\":19012:19026   */\n      mul\n        /* \"#utility.yul\":19008:19030   */\n      add\n        /* \"#utility.yul\":19002:19006   */\n      dup9\n        /* \"#utility.yul\":18995:19031   */\n      sstore\n        /* \"#utility.yul\":18430:19041   */\n      pop\n      pop\n      pop\n        /* \"#utility.yul\":18393:19280   */\n    tag_389:\n      pop\n        /* \"#utility.yul\":17983:19286   */\n      pop\n      pop\n      pop\n        /* \"#utility.yul\":17891:19286   */\n      pop\n      pop\n      jump\t// out\n        /* \"#utility.yul\":19292:19936   */\n    tag_59:\n        /* \"#utility.yul\":19489:19493   */\n      0x00\n        /* \"#utility.yul\":19527:19530   */\n      0x80\n        /* \"#utility.yul\":19516:19525   */\n      dup3\n        /* \"#utility.yul\":19512:19531   */\n      add\n        /* \"#utility.yul\":19504:19531   */\n      swap1\n      pop\n        /* \"#utility.yul\":19541:19612   */\n      tag_400\n        /* \"#utility.yul\":19609:19610   */\n      0x00\n        /* \"#utility.yul\":19598:19607   */\n      dup4\n        /* \"#utility.yul\":19594:19611   */\n      add\n        /* \"#utility.yul\":19585:19591   */\n      dup8\n        /* \"#utility.yul\":19541:19612   */\n      tag_156\n      jump\t// in\n    tag_400:\n        /* \"#utility.yul\":19659:19668   */\n      dup2\n        /* \"#utility.yul\":19653:19657   */\n      dup2\n        /* \"#utility.yul\":19649:19669   */\n      sub\n        /* \"#utility.yul\":19644:19646   */\n      0x20\n        /* \"#utility.yul\":19633:19642   */\n      dup4\n        /* \"#utility.yul\":19629:19647   */\n      add\n        /* \"#utility.yul\":19622:19670   */\n      mstore\n        /* \"#utility.yul\":19687:19765   */\n      tag_401\n        /* \"#utility.yul\":19760:19764   */\n      dup2\n        /* \"#utility.yul\":19751:19757   */\n      dup7\n        /* \"#utility.yul\":19687:19765   */\n      tag_132\n      jump\t// in\n    tag_401:\n        /* \"#utility.yul\":19679:19765   */\n      swap1\n      pop\n        /* \"#utility.yul\":19775:19847   */\n      tag_402\n        /* \"#utility.yul\":19843:19845   */\n      0x40\n        /* \"#utility.yul\":19832:19841   */\n      dup4\n        /* \"#utility.yul\":19828:19846   */\n      add\n        /* \"#utility.yul\":19819:19825   */\n      dup6\n        /* \"#utility.yul\":19775:19847   */\n      tag_134\n      jump\t// in\n    tag_402:\n        /* \"#utility.yul\":19857:19929   */\n      tag_403\n        /* \"#utility.yul\":19925:19927   */\n      0x60\n        /* \"#utility.yul\":19914:19923   */\n      dup4\n        /* \"#utility.yul\":19910:19928   */\n      add\n        /* \"#utility.yul\":19901:19907   */\n      dup5\n        /* \"#utility.yul\":19857:19929   */\n      tag_134\n      jump\t// in\n    tag_403:\n        /* \"#utility.yul\":19292:19936   */\n      swap6\n      swap5\n      pop\n      pop\n      pop\n      pop\n      pop\n      jump\t// out\n        /* \"#utility.yul\":19942:20274   */\n    tag_65:\n        /* \"#utility.yul\":20063:20067   */\n      0x00\n        /* \"#utility.yul\":20101:20103   */\n      0x40\n        /* \"#utility.yul\":20090:20099   */\n      dup3\n        /* \"#utility.yul\":20086:20104   */\n      add\n        /* \"#utility.yul\":20078:20104   */\n      swap1\n      pop\n        /* \"#utility.yul\":20114:20185   */\n      tag_405\n        /* \"#utility.yul\":20182:20183   */\n      0x00\n        /* \"#utility.yul\":20171:20180   */\n      dup4\n        /* \"#utility.yul\":20167:20184   */\n      add\n        /* \"#utility.yul\":20158:20164   */\n      dup6\n        /* \"#utility.yul\":20114:20185   */\n      tag_127\n      jump\t// in\n    tag_405:\n        /* \"#utility.yul\":20195:20267   */\n      tag_406\n        /* \"#utility.yul\":20263:20265   */\n      0x20\n        /* \"#utility.yul\":20252:20261   */\n      dup4\n        /* \"#utility.yul\":20248:20266   */\n      add\n        /* \"#utility.yul\":20239:20245   */\n      dup5\n        /* \"#utility.yul\":20195:20267   */\n      tag_134\n      jump\t// in\n    tag_406:\n        /* \"#utility.yul\":19942:20274   */\n      swap4\n      swap3\n      pop\n      pop\n      pop\n      jump\t// out\n        /* \"#utility.yul\":20280:20453   */\n    tag_183:\n        /* \"#utility.yul\":20420:20445   */\n      0x4576656e7420616c7265616479206f636375727265642e000000000000000000\n        /* \"#utility.yul\":20416:20417   */\n      0x00\n        /* \"#utility.yul\":20408:20414   */\n      dup3\n        /* \"#utility.yul\":20404:20418   */\n      add\n        /* \"#utility.yul\":20397:20446   */\n      mstore\n        /* \"#utility.yul\":20280:20453   */\n      pop\n      jump\t// out\n        /* \"#utility.yul\":20459:20825   */\n    tag_184:\n        /* \"#utility.yul\":20601:20604   */\n      0x00\n        /* \"#utility.yul\":20622:20689   */\n      tag_409\n        /* \"#utility.yul\":20686:20688   */\n      0x17\n        /* \"#utility.yul\":20681:20684   */\n      dup4\n        /* \"#utility.yul\":20622:20689   */\n      tag_129\n      jump\t// in\n    tag_409:\n        /* \"#utility.yul\":20615:20689   */\n      swap2\n      pop\n        /* \"#utility.yul\":20698:20791   */\n      tag_410\n        /* \"#utility.yul\":20787:20790   */\n      dup3\n        /* \"#utility.yul\":20698:20791   */\n      tag_183\n      jump\t// in\n    tag_410:\n        /* \"#utility.yul\":20816:20818   */\n      0x20\n        /* \"#utility.yul\":20811:20814   */\n      dup3\n        /* \"#utility.yul\":20807:20819   */\n      add\n        /* \"#utility.yul\":20800:20819   */\n      swap1\n      pop\n        /* \"#utility.yul\":20459:20825   */\n      swap2\n      swap1\n      pop\n      jump\t// out\n        /* \"#utility.yul\":20831:21250   */\n    tag_71:\n        /* \"#utility.yul\":20997:21001   */\n      0x00\n        /* \"#utility.yul\":21035:21037   */\n      0x20\n        /* \"#utility.yul\":21024:21033   */\n      dup3\n        /* \"#utility.yul\":21020:21038   */\n      add\n        /* \"#utility.yul\":21012:21038   */\n      swap1\n      pop\n        /* \"#utility.yul\":21084:21093   */\n      dup2\n        /* \"#utility.yul\":21078:21082   */\n      dup2\n        /* \"#utility.yul\":21074:21094   */\n      sub\n        /* \"#utility.yul\":21070:21071   */\n      0x00\n        /* \"#utility.yul\":21059:21068   */\n      dup4\n        /* \"#utility.yul\":21055:21072   */\n      add\n        /* \"#utility.yul\":21048:21095   */\n      mstore\n        /* \"#utility.yul\":21112:21243   */\n      tag_412\n        /* \"#utility.yul\":21238:21242   */\n      dup2\n        /* \"#utility.yul\":21112:21243   */\n      tag_184\n      jump\t// in\n    tag_412:\n        /* \"#utility.yul\":21104:21243   */\n      swap1\n      pop\n        /* \"#utility.yul\":20831:21250   */\n      swap2\n      swap1\n      pop\n      jump\t// out\n        /* \"#utility.yul\":21256:21698   */\n    tag_76:\n        /* \"#utility.yul\":21405:21409   */\n      0x00\n        /* \"#utility.yul\":21443:21445   */\n      0x60\n        /* \"#utility.yul\":21432:21441   */\n      dup3\n        /* \"#utility.yul\":21428:21446   */\n      add\n        /* \"#utility.yul\":21420:21446   */\n      swap1\n      pop\n        /* \"#utility.yul\":21456:21527   */\n      tag_414\n        /* \"#utility.yul\":21524:21525   */\n      0x00\n        /* \"#utility.yul\":21513:21522   */\n      dup4\n        /* \"#utility.yul\":21509:21526   */\n      add\n        /* \"#utility.yul\":21500:21506   */\n      dup7\n        /* \"#utility.yul\":21456:21527   */\n      tag_127\n      jump\t// in\n    tag_414:\n        /* \"#utility.yul\":21537:21609   */\n      tag_415\n        /* \"#utility.yul\":21605:21607   */\n      0x20\n        /* \"#utility.yul\":21594:21603   */\n      dup4\n        /* \"#utility.yul\":21590:21608   */\n      add\n        /* \"#utility.yul\":21581:21587   */\n      dup6\n        /* \"#utility.yul\":21537:21609   */\n      tag_127\n      jump\t// in\n    tag_415:\n        /* \"#utility.yul\":21619:21691   */\n      tag_416\n        /* \"#utility.yul\":21687:21689   */\n      0x40\n        /* \"#utility.yul\":21676:21685   */\n      dup4\n        /* \"#utility.yul\":21672:21690   */\n      add\n        /* \"#utility.yul\":21663:21669   */\n      dup5\n        /* \"#utility.yul\":21619:21691   */\n      tag_134\n      jump\t// in\n    tag_416:\n        /* \"#utility.yul\":21256:21698   */\n      swap5\n      swap4\n      pop\n      pop\n      pop\n      pop\n      jump\t// out\n        /* \"#utility.yul\":21704:21841   */\n    tag_185:\n        /* \"#utility.yul\":21758:21763   */\n      0x00\n        /* \"#utility.yul\":21789:21795   */\n      dup2\n        /* \"#utility.yul\":21783:21796   */\n      mload\n        /* \"#utility.yul\":21774:21796   */\n      swap1\n      pop\n        /* \"#utility.yul\":21805:21835   */\n      tag_418\n        /* \"#utility.yul\":21829:21834   */\n      dup2\n        /* \"#utility.yul\":21805:21835   */\n      tag_148\n      jump\t// in\n    tag_418:\n        /* \"#utility.yul\":21704:21841   */\n      swap3\n      swap2\n      pop\n      pop\n      jump\t// out\n        /* \"#utility.yul\":21847:22192   */\n    tag_82:\n        /* \"#utility.yul\":21914:21920   */\n      0x00\n        /* \"#utility.yul\":21963:21965   */\n      0x20\n        /* \"#utility.yul\":21951:21960   */\n      dup3\n        /* \"#utility.yul\":21942:21949   */\n      dup5\n        /* \"#utility.yul\":21938:21961   */\n      sub\n        /* \"#utility.yul\":21934:21966   */\n      slt\n        /* \"#utility.yul\":21931:22050   */\n      iszero\n      tag_420\n      jumpi\n        /* \"#utility.yul\":21969:22048   */\n      tag_421\n      tag_118\n      jump\t// in\n    tag_421:\n        /* \"#utility.yul\":21931:22050   */\n    tag_420:\n        /* \"#utility.yul\":22089:22090   */\n      0x00\n        /* \"#utility.yul\":22114:22175   */\n      tag_422\n        /* \"#utility.yul\":22167:22174   */\n      dup5\n        /* \"#utility.yul\":22158:22164   */\n      dup3\n        /* \"#utility.yul\":22147:22156   */\n      dup6\n        /* \"#utility.yul\":22143:22165   */\n      add\n        /* \"#utility.yul\":22114:22175   */\n      tag_185\n      jump\t// in\n    tag_422:\n        /* \"#utility.yul\":22104:22175   */\n      swap2\n      pop\n        /* \"#utility.yul\":22060:22185   */\n      pop\n        /* \"#utility.yul\":21847:22192   */\n      swap3\n      swap2\n      pop\n      pop\n      jump\t// out\n        /* \"#utility.yul\":22198:22427   */\n    tag_186:\n        /* \"#utility.yul\":22338:22372   */\n      0x5361666545524332303a204552433230206f7065726174696f6e20646964206e\n        /* \"#utility.yul\":22334:22335   */\n      0x00\n        /* \"#utility.yul\":22326:22332   */\n      dup3\n        /* \"#utility.yul\":22322:22336   */\n      add\n        /* \"#utility.yul\":22315:22373   */\n      mstore\n        /* \"#utility.yul\":22407:22419   */\n      0x6f74207375636365656400000000000000000000000000000000000000000000\n        /* \"#utility.yul\":22402:22404   */\n      0x20\n        /* \"#utility.yul\":22394:22400   */\n      dup3\n        /* \"#utility.yul\":22390:22405   */\n      add\n        /* \"#utility.yul\":22383:22420   */\n      mstore\n        /* \"#utility.yul\":22198:22427   */\n      pop\n      jump\t// out\n        /* \"#utility.yul\":22433:22799   */\n    tag_187:\n        /* \"#utility.yul\":22575:22578   */\n      0x00\n        /* \"#utility.yul\":22596:22663   */\n      tag_425\n        /* \"#utility.yul\":22660:22662   */\n      0x2a\n        /* \"#utility.yul\":22655:22658   */\n      dup4\n        /* \"#utility.yul\":22596:22663   */\n      tag_129\n      jump\t// in\n    tag_425:\n        /* \"#utility.yul\":22589:22663   */\n      swap2\n      pop\n        /* \"#utility.yul\":22672:22765   */\n      tag_426\n        /* \"#utility.yul\":22761:22764   */\n      dup3\n        /* \"#utility.yul\":22672:22765   */\n      tag_186\n      jump\t// in\n    tag_426:\n        /* \"#utility.yul\":22790:22792   */\n      0x40\n        /* \"#utility.yul\":22785:22788   */\n      dup3\n        /* \"#utility.yul\":22781:22793   */\n      add\n        /* \"#utility.yul\":22774:22793   */\n      swap1\n      pop\n        /* \"#utility.yul\":22433:22799   */\n      swap2\n      swap1\n      pop\n      jump\t// out\n        /* \"#utility.yul\":22805:23224   */\n    tag_85:\n        /* \"#utility.yul\":22971:22975   */\n      0x00\n        /* \"#utility.yul\":23009:23011   */\n      0x20\n        /* \"#utility.yul\":22998:23007   */\n      dup3\n        /* \"#utility.yul\":22994:23012   */\n      add\n        /* \"#utility.yul\":22986:23012   */\n      swap1\n      pop\n        /* \"#utility.yul\":23058:23067   */\n      dup2\n        /* \"#utility.yul\":23052:23056   */\n      dup2\n        /* \"#utility.yul\":23048:23068   */\n      sub\n        /* \"#utility.yul\":23044:23045   */\n      0x00\n        /* \"#utility.yul\":23033:23042   */\n      dup4\n        /* \"#utility.yul\":23029:23046   */\n      add\n        /* \"#utility.yul\":23022:23069   */\n      mstore\n        /* \"#utility.yul\":23086:23217   */\n      tag_428\n        /* \"#utility.yul\":23212:23216   */\n      dup2\n        /* \"#utility.yul\":23086:23217   */\n      tag_187\n      jump\t// in\n    tag_428:\n        /* \"#utility.yul\":23078:23217   */\n      swap1\n      pop\n        /* \"#utility.yul\":22805:23224   */\n      swap2\n      swap1\n      pop\n      jump\t// out\n        /* \"#utility.yul\":23230:23455   */\n    tag_188:\n        /* \"#utility.yul\":23370:23404   */\n      0x416464726573733a20696e73756666696369656e742062616c616e636520666f\n        /* \"#utility.yul\":23366:23367   */\n      0x00\n        /* \"#utility.yul\":23358:23364   */\n      dup3\n        /* \"#utility.yul\":23354:23368   */\n      add\n        /* \"#utility.yul\":23347:23405   */\n      mstore\n        /* \"#utility.yul\":23439:23447   */\n      0x722063616c6c0000000000000000000000000000000000000000000000000000\n        /* \"#utility.yul\":23434:23436   */\n      0x20\n        /* \"#utility.yul\":23426:23432   */\n      dup3\n        /* \"#utility.yul\":23422:23437   */\n      add\n        /* \"#utility.yul\":23415:23448   */\n      mstore\n        /* \"#utility.yul\":23230:23455   */\n      pop\n      jump\t// out\n        /* \"#utility.yul\":23461:23827   */\n    tag_189:\n        /* \"#utility.yul\":23603:23606   */\n      0x00\n        /* \"#utility.yul\":23624:23691   */\n      tag_431\n        /* \"#utility.yul\":23688:23690   */\n      0x26\n        /* \"#utility.yul\":23683:23686   */\n      dup4\n        /* \"#utility.yul\":23624:23691   */\n      tag_129\n      jump\t// in\n    tag_431:\n        /* \"#utility.yul\":23617:23691   */\n      swap2\n      pop\n        /* \"#utility.yul\":23700:23793   */\n      tag_432\n        /* \"#utility.yul\":23789:23792   */\n      dup3\n        /* \"#utility.yul\":23700:23793   */\n      tag_188\n      jump\t// in\n    tag_432:\n        /* \"#utility.yul\":23818:23820   */\n      0x40\n        /* \"#utility.yul\":23813:23816   */\n      dup3\n        /* \"#utility.yul\":23809:23821   */\n      add\n        /* \"#utility.yul\":23802:23821   */\n      swap1\n      pop\n        /* \"#utility.yul\":23461:23827   */\n      swap2\n      swap1\n      pop\n      jump\t// out\n        /* \"#utility.yul\":23833:24252   */\n    tag_92:\n        /* \"#utility.yul\":23999:24003   */\n      0x00\n        /* \"#utility.yul\":24037:24039   */\n      0x20\n        /* \"#utility.yul\":24026:24035   */\n      dup3\n        /* \"#utility.yul\":24022:24040   */\n      add\n        /* \"#utility.yul\":24014:24040   */\n      swap1\n      pop\n        /* \"#utility.yul\":24086:24095   */\n      dup2\n        /* \"#utility.yul\":24080:24084   */\n      dup2\n        /* \"#utility.yul\":24076:24096   */\n      sub\n        /* \"#utility.yul\":24072:24073   */\n      0x00\n        /* \"#utility.yul\":24061:24070   */\n      dup4\n        /* \"#utility.yul\":24057:24074   */\n      add\n        /* \"#utility.yul\":24050:24097   */\n      mstore\n        /* \"#utility.yul\":24114:24245   */\n      tag_434\n        /* \"#utility.yul\":24240:24244   */\n      dup2\n        /* \"#utility.yul\":24114:24245   */\n      tag_189\n      jump\t// in\n    tag_434:\n        /* \"#utility.yul\":24106:24245   */\n      swap1\n      pop\n        /* \"#utility.yul\":23833:24252   */\n      swap2\n      swap1\n      pop\n      jump\t// out\n        /* \"#utility.yul\":24258:24356   */\n    tag_190:\n        /* \"#utility.yul\":24309:24315   */\n      0x00\n        /* \"#utility.yul\":24343:24348   */\n      dup2\n        /* \"#utility.yul\":24337:24349   */\n      mload\n        /* \"#utility.yul\":24327:24349   */\n      swap1\n      pop\n        /* \"#utility.yul\":24258:24356   */\n      swap2\n      swap1\n      pop\n      jump\t// out\n        /* \"#utility.yul\":24362:24509   */\n    tag_191:\n        /* \"#utility.yul\":24463:24474   */\n      0x00\n        /* \"#utility.yul\":24500:24503   */\n      dup2\n        /* \"#utility.yul\":24485:24503   */\n      swap1\n      pop\n        /* \"#utility.yul\":24362:24509   */\n      swap3\n      swap2\n      pop\n      pop\n      jump\t// out\n        /* \"#utility.yul\":24515:24901   */\n    tag_192:\n        /* \"#utility.yul\":24619:24622   */\n      0x00\n        /* \"#utility.yul\":24647:24685   */\n      tag_438\n        /* \"#utility.yul\":24679:24684   */\n      dup3\n        /* \"#utility.yul\":24647:24685   */\n      tag_190\n      jump\t// in\n    tag_438:\n        /* \"#utility.yul\":24701:24789   */\n      tag_439\n        /* \"#utility.yul\":24782:24788   */\n      dup2\n        /* \"#utility.yul\":24777:24780   */\n      dup6\n        /* \"#utility.yul\":24701:24789   */\n      tag_191\n      jump\t// in\n    tag_439:\n        /* \"#utility.yul\":24694:24789   */\n      swap4\n      pop\n        /* \"#utility.yul\":24798:24863   */\n      tag_440\n        /* \"#utility.yul\":24856:24862   */\n      dup2\n        /* \"#utility.yul\":24851:24854   */\n      dup6\n        /* \"#utility.yul\":24844:24848   */\n      0x20\n        /* \"#utility.yul\":24837:24842   */\n      dup7\n        /* \"#utility.yul\":24833:24849   */\n      add\n        /* \"#utility.yul\":24798:24863   */\n      tag_130\n      jump\t// in\n    tag_440:\n        /* \"#utility.yul\":24888:24894   */\n      dup1\n        /* \"#utility.yul\":24883:24886   */\n      dup5\n        /* \"#utility.yul\":24879:24895   */\n      add\n        /* \"#utility.yul\":24872:24895   */\n      swap2\n      pop\n        /* \"#utility.yul\":24623:24901   */\n      pop\n        /* \"#utility.yul\":24515:24901   */\n      swap3\n      swap2\n      pop\n      pop\n      jump\t// out\n        /* \"#utility.yul\":24907:25178   */\n    tag_94:\n        /* \"#utility.yul\":25037:25040   */\n      0x00\n        /* \"#utility.yul\":25059:25152   */\n      tag_442\n        /* \"#utility.yul\":25148:25151   */\n      dup3\n        /* \"#utility.yul\":25139:25145   */\n      dup5\n        /* \"#utility.yul\":25059:25152   */\n      tag_192\n      jump\t// in\n    tag_442:\n        /* \"#utility.yul\":25052:25152   */\n      swap2\n      pop\n        /* \"#utility.yul\":25169:25172   */\n      dup2\n        /* \"#utility.yul\":25162:25172   */\n      swap1\n      pop\n        /* \"#utility.yul\":24907:25178   */\n      swap3\n      swap2\n      pop\n      pop\n      jump\t// out\n        /* \"#utility.yul\":25184:25363   */\n    tag_193:\n        /* \"#utility.yul\":25324:25355   */\n      0x416464726573733a2063616c6c20746f206e6f6e2d636f6e7472616374000000\n        /* \"#utility.yul\":25320:25321   */\n      0x00\n        /* \"#utility.yul\":25312:25318   */\n      dup3\n        /* \"#utility.yul\":25308:25322   */\n      add\n        /* \"#utility.yul\":25301:25356   */\n      mstore\n        /* \"#utility.yul\":25184:25363   */\n      pop\n      jump\t// out\n        /* \"#utility.yul\":25369:25735   */\n    tag_194:\n        /* \"#utility.yul\":25511:25514   */\n      0x00\n        /* \"#utility.yul\":25532:25599   */\n      tag_445\n        /* \"#utility.yul\":25596:25598   */\n      0x1d\n        /* \"#utility.yul\":25591:25594   */\n      dup4\n        /* \"#utility.yul\":25532:25599   */\n      tag_129\n      jump\t// in\n    tag_445:\n        /* \"#utility.yul\":25525:25599   */\n      swap2\n      pop\n        /* \"#utility.yul\":25608:25701   */\n      tag_446\n        /* \"#utility.yul\":25697:25700   */\n      dup3\n        /* \"#utility.yul\":25608:25701   */\n      tag_193\n      jump\t// in\n    tag_446:\n        /* \"#utility.yul\":25726:25728   */\n      0x20\n        /* \"#utility.yul\":25721:25724   */\n      dup3\n        /* \"#utility.yul\":25717:25729   */\n      add\n        /* \"#utility.yul\":25710:25729   */\n      swap1\n      pop\n        /* \"#utility.yul\":25369:25735   */\n      swap2\n      swap1\n      pop\n      jump\t// out\n        /* \"#utility.yul\":25741:26160   */\n    tag_107:\n        /* \"#utility.yul\":25907:25911   */\n      0x00\n        /* \"#utility.yul\":25945:25947   */\n      0x20\n        /* \"#utility.yul\":25934:25943   */\n      dup3\n        /* \"#utility.yul\":25930:25948   */\n      add\n        /* \"#utility.yul\":25922:25948   */\n      swap1\n      pop\n        /* \"#utility.yul\":25994:26003   */\n      dup2\n        /* \"#utility.yul\":25988:25992   */\n      dup2\n        /* \"#utility.yul\":25984:26004   */\n      sub\n        /* \"#utility.yul\":25980:25981   */\n      0x00\n        /* \"#utility.yul\":25969:25978   */\n      dup4\n        /* \"#utility.yul\":25965:25982   */\n      add\n        /* \"#utility.yul\":25958:26005   */\n      mstore\n        /* \"#utility.yul\":26022:26153   */\n      tag_448\n        /* \"#utility.yul\":26148:26152   */\n      dup2\n        /* \"#utility.yul\":26022:26153   */\n      tag_194\n      jump\t// in\n    tag_448:\n        /* \"#utility.yul\":26014:26153   */\n      swap1\n      pop\n        /* \"#utility.yul\":25741:26160   */\n      swap2\n      swap1\n      pop\n      jump\t// out\n        /* \"#utility.yul\":26166:26479   */\n    tag_116:\n        /* \"#utility.yul\":26279:26283   */\n      0x00\n        /* \"#utility.yul\":26317:26319   */\n      0x20\n        /* \"#utility.yul\":26306:26315   */\n      dup3\n        /* \"#utility.yul\":26302:26320   */\n      add\n        /* \"#utility.yul\":26294:26320   */\n      swap1\n      pop\n        /* \"#utility.yul\":26366:26375   */\n      dup2\n        /* \"#utility.yul\":26360:26364   */\n      dup2\n        /* \"#utility.yul\":26356:26376   */\n      sub\n        /* \"#utility.yul\":26352:26353   */\n      0x00\n        /* \"#utility.yul\":26341:26350   */\n      dup4\n        /* \"#utility.yul\":26337:26354   */\n      add\n        /* \"#utility.yul\":26330:26377   */\n      mstore\n        /* \"#utility.yul\":26394:26472   */\n      tag_450\n        /* \"#utility.yul\":26467:26471   */\n      dup2\n        /* \"#utility.yul\":26458:26464   */\n      dup5\n        /* \"#utility.yul\":26394:26472   */\n      tag_132\n      jump\t// in\n    tag_450:\n        /* \"#utility.yul\":26386:26472   */\n      swap1\n      pop\n        /* \"#utility.yul\":26166:26479   */\n      swap3\n      swap2\n      pop\n      pop\n      jump\t// out\n\n    auxdata: 0xa26469706673582212208e61a8e8036b47c8c42c3c8f35ce24fffaad54cfc45bfe87af3060dd470e630164736f6c634300081a0033\n}\n",
				"bytecode": {
					"linkReferences": {},
					"object": "6080604052348015600e575f80fd5b506117bf8061001c5f395ff3fe608060405234801561000f575f80fd5b506004361061004a575f3560e01c80631b258d501461004e5780633d4dff7b1461006a578063ab6d1c091461009f578063ef90dbb6146100bb575b5f80fd5b61006860048036038101906100639190610ac0565b6100d7565b005b610084600480360381019061007f9190610afe565b6102b2565b60405161009696959493929190610bda565b60405180910390f35b6100b960048036038101906100b49190610afe565b6103a7565b005b6100d560048036038101906100d09190610dc0565b6103b3565b005b5f805f8481526020019081526020015f209050806004015f9054906101000a900460ff161561013b576040517f08c379a000000000000000000000000000000000000000000000000000000000815260040161013290610e9d565b60405180910390fd5b3373ffffffffffffffffffffffffffffffffffffffff16815f015f9054906101000a900473ffffffffffffffffffffffffffffffffffffffff1673ffffffffffffffffffffffffffffffffffffffff16146101cb576040517f08c379a00000000000000000000000000000000000000000000000000000000081526004016101c290610f2b565b60405180910390fd5b8060040160019054906101000a900460ff16806101ec575080600301544310155b61022b576040517f08c379a000000000000000000000000000000000000000000000000000000000815260040161022290610fb9565b60405180910390fd5b6001816004015f6101000a81548160ff0219169083151502179055506102763382600201548473ffffffffffffffffffffffffffffffffffffffff166105c49092919063ffffffff16565b7f44654674e66e9e53d34afdf3e9513fb94b4c8b946e980d6958ef4e6a37a153e3836040516102a59190610fe6565b60405180910390a1505050565b5f602052805f5260405f205f91509050805f015f9054906101000a900473ffffffffffffffffffffffffffffffffffffffff16908060010180546102f59061102c565b80601f01602080910402602001604051908101604052809291908181526020018280546103219061102c565b801561036c5780601f106103435761010080835404028352916020019161036c565b820191905f5260205f20905b81548152906001019060200180831161034f57829003601f168201915b505050505090806002015490806003015490806004015f9054906101000a900460ff16908060040160019054906101000a900460ff16905086565b6103b08161064a565b50565b5f83116103f5576040517f08c379a00000000000000000000000000000000000000000000000000000000081526004016103ec906110cc565b60405180910390fd5b6104223330858873ffffffffffffffffffffffffffffffffffffffff1661070f909392919063ffffffff16565b5f3385858560405160200161043a9493929190611189565b6040516020818303038152906040528051906020012090506040518060c001604052803373ffffffffffffffffffffffffffffffffffffffff1681526020018681526020018581526020018481526020015f151581526020015f15158152505f808381526020019081526020015f205f820151815f015f6101000a81548173ffffffffffffffffffffffffffffffffffffffff021916908373ffffffffffffffffffffffffffffffffffffffff1602179055506020820151816001019081610502919061136f565b5060408201518160020155606082015181600301556080820151816004015f6101000a81548160ff02191690831515021790555060a08201518160040160016101000a81548160ff0219169083151502179055509050503373ffffffffffffffffffffffffffffffffffffffff167ea1cff1b2f4bcfbf6eeee2c1d4fd6de1249eeaa035f878bd93899dc7a8348b6828787876040516105a4949392919061143e565b60405180910390a281156105bc576105bb8161064a565b5b505050505050565b6106458363a9059cbb60e01b84846040516024016105e3929190611488565b604051602081830303815290604052907bffffffffffffffffffffffffffffffffffffffffffffffffffffffff19166020820180517bffffffffffffffffffffffffffffffffffffffffffffffffffffffff8381831617835250505050610798565b505050565b5f8061070b575f805f8481526020019081526020015f2090508060040160019054906101000a900460ff16156106b5576040517f08c379a00000000000000000000000000000000000000000000000000000000081526004016106ac906114f9565b60405180910390fd5b60018160040160016101000a81548160ff0219169083151502179055507f3374383624a6239154f46d2d6fc35a0e58e2f53b0d5ea77c85d26e3fddebdee0836040516107019190610fe6565b60405180910390a1505b5050565b610792846323b872dd60e01b85858560405160240161073093929190611517565b604051602081830303815290604052907bffffffffffffffffffffffffffffffffffffffffffffffffffffffff19166020820180517bffffffffffffffffffffffffffffffffffffffffffffffffffffffff8381831617835250505050610798565b50505050565b5f6107f9826040518060400160405280602081526020017f5361666545524332303a206c6f772d6c6576656c2063616c6c206661696c65648152508573ffffffffffffffffffffffffffffffffffffffff1661085d9092919063ffffffff16565b90505f8151111561085857808060200190518101906108189190611560565b610857576040517f08c379a000000000000000000000000000000000000000000000000000000000815260040161084e906115fb565b60405180910390fd5b5b505050565b606061086b84845f85610874565b90509392505050565b6060824710156108b9576040517f08c379a00000000000000000000000000000000000000000000000000000000081526004016108b090611689565b60405180910390fd5b5f808673ffffffffffffffffffffffffffffffffffffffff1685876040516108e191906116eb565b5f6040518083038185875af1925050503d805f811461091b576040519150601f19603f3d011682016040523d82523d5f602084013e610920565b606091505b50915091506109318783838761093d565b92505050949350505050565b6060831561099e575f83510361099657610956856109b1565b610995576040517f08c379a000000000000000000000000000000000000000000000000000000000815260040161098c9061174b565b60405180910390fd5b5b8290506109a9565b6109a883836109d3565b5b949350505050565b5f808273ffffffffffffffffffffffffffffffffffffffff163b119050919050565b5f825111156109e55781518083602001fd5b806040517f08c379a0000000000000000000000000000000000000000000000000000000008152600401610a199190611769565b60405180910390fd5b5f604051905090565b5f80fd5b5f80fd5b5f819050919050565b610a4581610a33565b8114610a4f575f80fd5b50565b5f81359050610a6081610a3c565b92915050565b5f73ffffffffffffffffffffffffffffffffffffffff82169050919050565b5f610a8f82610a66565b9050919050565b610a9f81610a85565b8114610aa9575f80fd5b50565b5f81359050610aba81610a96565b92915050565b5f8060408385031215610ad657610ad5610a2b565b5b5f610ae385828601610a52565b9250506020610af485828601610aac565b9150509250929050565b5f60208284031215610b1357610b12610a2b565b5b5f610b2084828501610a52565b91505092915050565b610b3281610a85565b82525050565b5f81519050919050565b5f82825260208201905092915050565b8281835e5f83830152505050565b5f601f19601f8301169050919050565b5f610b7a82610b38565b610b848185610b42565b9350610b94818560208601610b52565b610b9d81610b60565b840191505092915050565b5f819050919050565b610bba81610ba8565b82525050565b5f8115159050919050565b610bd481610bc0565b82525050565b5f60c082019050610bed5f830189610b29565b8181036020830152610bff8188610b70565b9050610c0e6040830187610bb1565b610c1b6060830186610bb1565b610c286080830185610bcb565b610c3560a0830184610bcb565b979650505050505050565b5f80fd5b5f80fd5b7f4e487b71000000000000000000000000000000000000000000000000000000005f52604160045260245ffd5b610c7e82610b60565b810181811067ffffffffffffffff82111715610c9d57610c9c610c48565b5b80604052505050565b5f610caf610a22565b9050610cbb8282610c75565b919050565b5f67ffffffffffffffff821115610cda57610cd9610c48565b5b610ce382610b60565b9050602081019050919050565b828183375f83830152505050565b5f610d10610d0b84610cc0565b610ca6565b905082815260208101848484011115610d2c57610d2b610c44565b5b610d37848285610cf0565b509392505050565b5f82601f830112610d5357610d52610c40565b5b8135610d63848260208601610cfe565b91505092915050565b610d7581610ba8565b8114610d7f575f80fd5b50565b5f81359050610d9081610d6c565b92915050565b610d9f81610bc0565b8114610da9575f80fd5b50565b5f81359050610dba81610d96565b92915050565b5f805f805f60a08688031215610dd957610dd8610a2b565b5b5f610de688828901610aac565b955050602086013567ffffffffffffffff811115610e0757610e06610a2f565b5b610e1388828901610d3f565b9450506040610e2488828901610d82565b9350506060610e3588828901610d82565b9250506080610e4688828901610dac565b9150509295509295909350565b7f4465706f73697420616c72656164792077697468647261776e2e0000000000005f82015250565b5f610e87601a83610b42565b9150610e9282610e53565b602082019050919050565b5f6020820190508181035f830152610eb481610e7b565b9050919050565b7f4f6e6c7920746865206465706f7369746f722063616e207769746864726177205f8201527f746865206465706f7369742e0000000000000000000000000000000000000000602082015250565b5f610f15602c83610b42565b9150610f2082610ebb565b604082019050919050565b5f6020820190508181035f830152610f4281610f09565b9050919050565b7f436f6e646974696f6e7320666f72207769746864726177616c206e6f74206d655f8201527f742e000000000000000000000000000000000000000000000000000000000000602082015250565b5f610fa3602283610b42565b9150610fae82610f49565b604082019050919050565b5f6020820190508181035f830152610fd081610f97565b9050919050565b610fe081610a33565b82525050565b5f602082019050610ff95f830184610fd7565b92915050565b7f4e487b71000000000000000000000000000000000000000000000000000000005f52602260045260245ffd5b5f600282049050600182168061104357607f821691505b60208210810361105657611055610fff565b5b50919050565b7f416d6f756e74206d7573742062652067726561746572207468616e207a65726f5f8201527f2e00000000000000000000000000000000000000000000000000000000000000602082015250565b5f6110b6602183610b42565b91506110c18261105c565b604082019050919050565b5f6020820190508181035f8301526110e3816110aa565b9050919050565b5f8160601b9050919050565b5f611100826110ea565b9050919050565b5f611111826110f6565b9050919050565b61112961112482610a85565b611107565b82525050565b5f81905092915050565b5f61114382610b38565b61114d818561112f565b935061115d818560208601610b52565b80840191505092915050565b5f819050919050565b61118361117e82610ba8565b611169565b82525050565b5f6111948287611118565b6014820191506111a48286611139565b91506111b08285611172565b6020820191506111c08284611172565b60208201915081905095945050505050565b5f819050815f5260205f209050919050565b5f6020601f8301049050919050565b5f82821b905092915050565b5f6008830261122e7fffffffffffffffffffffffffffffffffffffffffffffffffffffffffffffffff826111f3565b61123886836111f3565b95508019841693508086168417925050509392505050565b5f819050919050565b5f61127361126e61126984610ba8565b611250565b610ba8565b9050919050565b5f819050919050565b61128c83611259565b6112a06112988261127a565b8484546111ff565b825550505050565b5f90565b6112b46112a8565b6112bf818484611283565b505050565b5b818110156112e2576112d75f826112ac565b6001810190506112c5565b5050565b601f821115611327576112f8816111d2565b611301846111e4565b81016020851015611310578190505b61132461131c856111e4565b8301826112c4565b50505b505050565b5f82821c905092915050565b5f6113475f198460080261132c565b1980831691505092915050565b5f61135f8383611338565b9150826002028217905092915050565b61137882610b38565b67ffffffffffffffff81111561139157611390610c48565b5b61139b825461102c565b6113a68282856112e6565b5f60209050601f8311600181146113d7575f84156113c5578287015190505b6113cf8582611354565b865550611436565b601f1984166113e5866111d2565b5f5b8281101561140c578489015182556001820191506020850194506020810190506113e7565b868310156114295784890151611425601f891682611338565b8355505b6001600288020188555050505b505050505050565b5f6080820190506114515f830187610fd7565b81810360208301526114638186610b70565b90506114726040830185610bb1565b61147f6060830184610bb1565b95945050505050565b5f60408201905061149b5f830185610b29565b6114a86020830184610bb1565b9392505050565b7f4576656e7420616c7265616479206f636375727265642e0000000000000000005f82015250565b5f6114e3601783610b42565b91506114ee826114af565b602082019050919050565b5f6020820190508181035f830152611510816114d7565b9050919050565b5f60608201905061152a5f830186610b29565b6115376020830185610b29565b6115446040830184610bb1565b949350505050565b5f8151905061155a81610d96565b92915050565b5f6020828403121561157557611574610a2b565b5b5f6115828482850161154c565b91505092915050565b7f5361666545524332303a204552433230206f7065726174696f6e20646964206e5f8201527f6f74207375636365656400000000000000000000000000000000000000000000602082015250565b5f6115e5602a83610b42565b91506115f08261158b565b604082019050919050565b5f6020820190508181035f830152611612816115d9565b9050919050565b7f416464726573733a20696e73756666696369656e742062616c616e636520666f5f8201527f722063616c6c0000000000000000000000000000000000000000000000000000602082015250565b5f611673602683610b42565b915061167e82611619565b604082019050919050565b5f6020820190508181035f8301526116a081611667565b9050919050565b5f81519050919050565b5f81905092915050565b5f6116c5826116a7565b6116cf81856116b1565b93506116df818560208601610b52565b80840191505092915050565b5f6116f682846116bb565b915081905092915050565b7f416464726573733a2063616c6c20746f206e6f6e2d636f6e74726163740000005f82015250565b5f611735601d83610b42565b915061174082611701565b602082019050919050565b5f6020820190508181035f83015261176281611729565b9050919050565b5f6020820190508181035f8301526117818184610b70565b90509291505056fea26469706673582212208e61a8e8036b47c8c42c3c8f35ce24fffaad54cfc45bfe87af3060dd470e630164736f6c634300081a0033",
					"opcodes": "PUSH1 0x80 PUSH1 0x40 MSTORE CALLVALUE DUP1 ISZERO PUSH1 0xE JUMPI PUSH0 DUP1 REVERT JUMPDEST POP PUSH2 0x17BF DUP1 PUSH2 0x1C PUSH0 CODECOPY PUSH0 RETURN INVALID PUSH1 0x80 PUSH1 0x40 MSTORE CALLVALUE DUP1 ISZERO PUSH2 0xF JUMPI PUSH0 DUP1 REVERT JUMPDEST POP PUSH1 0x4 CALLDATASIZE LT PUSH2 0x4A JUMPI PUSH0 CALLDATALOAD PUSH1 0xE0 SHR DUP1 PUSH4 0x1B258D50 EQ PUSH2 0x4E JUMPI DUP1 PUSH4 0x3D4DFF7B EQ PUSH2 0x6A JUMPI DUP1 PUSH4 0xAB6D1C09 EQ PUSH2 0x9F JUMPI DUP1 PUSH4 0xEF90DBB6 EQ PUSH2 0xBB JUMPI JUMPDEST PUSH0 DUP1 REVERT JUMPDEST PUSH2 0x68 PUSH1 0x4 DUP1 CALLDATASIZE SUB DUP2 ADD SWAP1 PUSH2 0x63 SWAP2 SWAP1 PUSH2 0xAC0 JUMP JUMPDEST PUSH2 0xD7 JUMP JUMPDEST STOP JUMPDEST PUSH2 0x84 PUSH1 0x4 DUP1 CALLDATASIZE SUB DUP2 ADD SWAP1 PUSH2 0x7F SWAP2 SWAP1 PUSH2 0xAFE JUMP JUMPDEST PUSH2 0x2B2 JUMP JUMPDEST PUSH1 0x40 MLOAD PUSH2 0x96 SWAP7 SWAP6 SWAP5 SWAP4 SWAP3 SWAP2 SWAP1 PUSH2 0xBDA JUMP JUMPDEST PUSH1 0x40 MLOAD DUP1 SWAP2 SUB SWAP1 RETURN JUMPDEST PUSH2 0xB9 PUSH1 0x4 DUP1 CALLDATASIZE SUB DUP2 ADD SWAP1 PUSH2 0xB4 SWAP2 SWAP1 PUSH2 0xAFE JUMP JUMPDEST PUSH2 0x3A7 JUMP JUMPDEST STOP JUMPDEST PUSH2 0xD5 PUSH1 0x4 DUP1 CALLDATASIZE SUB DUP2 ADD SWAP1 PUSH2 0xD0 SWAP2 SWAP1 PUSH2 0xDC0 JUMP JUMPDEST PUSH2 0x3B3 JUMP JUMPDEST STOP JUMPDEST PUSH0 DUP1 PUSH0 DUP5 DUP2 MSTORE PUSH1 0x20 ADD SWAP1 DUP2 MSTORE PUSH1 0x20 ADD PUSH0 KECCAK256 SWAP1 POP DUP1 PUSH1 0x4 ADD PUSH0 SWAP1 SLOAD SWAP1 PUSH2 0x100 EXP SWAP1 DIV PUSH1 0xFF AND ISZERO PUSH2 0x13B JUMPI PUSH1 0x40 MLOAD PUSH32 0x8C379A000000000000000000000000000000000000000000000000000000000 DUP2 MSTORE PUSH1 0x4 ADD PUSH2 0x132 SWAP1 PUSH2 0xE9D JUMP JUMPDEST PUSH1 0x40 MLOAD DUP1 SWAP2 SUB SWAP1 REVERT JUMPDEST CALLER PUSH20 0xFFFFFFFFFFFFFFFFFFFFFFFFFFFFFFFFFFFFFFFF AND DUP2 PUSH0 ADD PUSH0 SWAP1 SLOAD SWAP1 PUSH2 0x100 EXP SWAP1 DIV PUSH20 0xFFFFFFFFFFFFFFFFFFFFFFFFFFFFFFFFFFFFFFFF AND PUSH20 0xFFFFFFFFFFFFFFFFFFFFFFFFFFFFFFFFFFFFFFFF AND EQ PUSH2 0x1CB JUMPI PUSH1 0x40 MLOAD PUSH32 0x8C379A000000000000000000000000000000000000000000000000000000000 DUP2 MSTORE PUSH1 0x4 ADD PUSH2 0x1C2 SWAP1 PUSH2 0xF2B JUMP JUMPDEST PUSH1 0x40 MLOAD DUP1 SWAP2 SUB SWAP1 REVERT JUMPDEST DUP1 PUSH1 0x4 ADD PUSH1 0x1 SWAP1 SLOAD SWAP1 PUSH2 0x100 EXP SWAP1 DIV PUSH1 0xFF AND DUP1 PUSH2 0x1EC JUMPI POP DUP1 PUSH1 0x3 ADD SLOAD NUMBER LT ISZERO JUMPDEST PUSH2 0x22B JUMPI PUSH1 0x40 MLOAD PUSH32 0x8C379A000000000000000000000000000000000000000000000000000000000 DUP2 MSTORE PUSH1 0x4 ADD PUSH2 0x222 SWAP1 PUSH2 0xFB9 JUMP JUMPDEST PUSH1 0x40 MLOAD DUP1 SWAP2 SUB SWAP1 REVERT JUMPDEST PUSH1 0x1 DUP2 PUSH1 0x4 ADD PUSH0 PUSH2 0x100 EXP DUP2 SLOAD DUP2 PUSH1 0xFF MUL NOT AND SWAP1 DUP4 ISZERO ISZERO MUL OR SWAP1 SSTORE POP PUSH2 0x276 CALLER DUP3 PUSH1 0x2 ADD SLOAD DUP5 PUSH20 0xFFFFFFFFFFFFFFFFFFFFFFFFFFFFFFFFFFFFFFFF AND PUSH2 0x5C4 SWAP1 SWAP3 SWAP2 SWAP1 PUSH4 0xFFFFFFFF AND JUMP JUMPDEST PUSH32 0x44654674E66E9E53D34AFDF3E9513FB94B4C8B946E980D6958EF4E6A37A153E3 DUP4 PUSH1 0x40 MLOAD PUSH2 0x2A5 SWAP2 SWAP1 PUSH2 0xFE6 JUMP JUMPDEST PUSH1 0x40 MLOAD DUP1 SWAP2 SUB SWAP1 LOG1 POP POP POP JUMP JUMPDEST PUSH0 PUSH1 0x20 MSTORE DUP1 PUSH0 MSTORE PUSH1 0x40 PUSH0 KECCAK256 PUSH0 SWAP2 POP SWAP1 POP DUP1 PUSH0 ADD PUSH0 SWAP1 SLOAD SWAP1 PUSH2 0x100 EXP SWAP1 DIV PUSH20 0xFFFFFFFFFFFFFFFFFFFFFFFFFFFFFFFFFFFFFFFF AND SWAP1 DUP1 PUSH1 0x1 ADD DUP1 SLOAD PUSH2 0x2F5 SWAP1 PUSH2 0x102C JUMP JUMPDEST DUP1 PUSH1 0x1F ADD PUSH1 0x20 DUP1 SWAP2 DIV MUL PUSH1 0x20 ADD PUSH1 0x40 MLOAD SWAP1 DUP2 ADD PUSH1 0x40 MSTORE DUP1 SWAP3 SWAP2 SWAP1 DUP2 DUP2 MSTORE PUSH1 0x20 ADD DUP3 DUP1 SLOAD PUSH2 0x321 SWAP1 PUSH2 0x102C JUMP JUMPDEST DUP1 ISZERO PUSH2 0x36C JUMPI DUP1 PUSH1 0x1F LT PUSH2 0x343 JUMPI PUSH2 0x100 DUP1 DUP4 SLOAD DIV MUL DUP4 MSTORE SWAP2 PUSH1 0x20 ADD SWAP2 PUSH2 0x36C JUMP JUMPDEST DUP3 ADD SWAP2 SWAP1 PUSH0 MSTORE PUSH1 0x20 PUSH0 KECCAK256 SWAP1 JUMPDEST DUP2 SLOAD DUP2 MSTORE SWAP1 PUSH1 0x1 ADD SWAP1 PUSH1 0x20 ADD DUP1 DUP4 GT PUSH2 0x34F JUMPI DUP3 SWAP1 SUB PUSH1 0x1F AND DUP3 ADD SWAP2 JUMPDEST POP POP POP POP POP SWAP1 DUP1 PUSH1 0x2 ADD SLOAD SWAP1 DUP1 PUSH1 0x3 ADD SLOAD SWAP1 DUP1 PUSH1 0x4 ADD PUSH0 SWAP1 SLOAD SWAP1 PUSH2 0x100 EXP SWAP1 DIV PUSH1 0xFF AND SWAP1 DUP1 PUSH1 0x4 ADD PUSH1 0x1 SWAP1 SLOAD SWAP1 PUSH2 0x100 EXP SWAP1 DIV PUSH1 0xFF AND SWAP1 POP DUP7 JUMP JUMPDEST PUSH2 0x3B0 DUP2 PUSH2 0x64A JUMP JUMPDEST POP JUMP JUMPDEST PUSH0 DUP4 GT PUSH2 0x3F5 JUMPI PUSH1 0x40 MLOAD PUSH32 0x8C379A000000000000000000000000000000000000000000000000000000000 DUP2 MSTORE PUSH1 0x4 ADD PUSH2 0x3EC SWAP1 PUSH2 0x10CC JUMP JUMPDEST PUSH1 0x40 MLOAD DUP1 SWAP2 SUB SWAP1 REVERT JUMPDEST PUSH2 0x422 CALLER ADDRESS DUP6 DUP9 PUSH20 0xFFFFFFFFFFFFFFFFFFFFFFFFFFFFFFFFFFFFFFFF AND PUSH2 0x70F SWAP1 SWAP4 SWAP3 SWAP2 SWAP1 PUSH4 0xFFFFFFFF AND JUMP JUMPDEST PUSH0 CALLER DUP6 DUP6 DUP6 PUSH1 0x40 MLOAD PUSH1 0x20 ADD PUSH2 0x43A SWAP5 SWAP4 SWAP3 SWAP2 SWAP1 PUSH2 0x1189 JUMP JUMPDEST PUSH1 0x40 MLOAD PUSH1 0x20 DUP2 DUP4 SUB SUB DUP2 MSTORE SWAP1 PUSH1 0x40 MSTORE DUP1 MLOAD SWAP1 PUSH1 0x20 ADD KECCAK256 SWAP1 POP PUSH1 0x40 MLOAD DUP1 PUSH1 0xC0 ADD PUSH1 0x40 MSTORE DUP1 CALLER PUSH20 0xFFFFFFFFFFFFFFFFFFFFFFFFFFFFFFFFFFFFFFFF AND DUP2 MSTORE PUSH1 0x20 ADD DUP7 DUP2 MSTORE PUSH1 0x20 ADD DUP6 DUP2 MSTORE PUSH1 0x20 ADD DUP5 DUP2 MSTORE PUSH1 0x20 ADD PUSH0 ISZERO ISZERO DUP2 MSTORE PUSH1 0x20 ADD PUSH0 ISZERO ISZERO DUP2 MSTORE POP PUSH0 DUP1 DUP4 DUP2 MSTORE PUSH1 0x20 ADD SWAP1 DUP2 MSTORE PUSH1 0x20 ADD PUSH0 KECCAK256 PUSH0 DUP3 ADD MLOAD DUP2 PUSH0 ADD PUSH0 PUSH2 0x100 EXP DUP2 SLOAD DUP2 PUSH20 0xFFFFFFFFFFFFFFFFFFFFFFFFFFFFFFFFFFFFFFFF MUL NOT AND SWAP1 DUP4 PUSH20 0xFFFFFFFFFFFFFFFFFFFFFFFFFFFFFFFFFFFFFFFF AND MUL OR SWAP1 SSTORE POP PUSH1 0x20 DUP3 ADD MLOAD DUP2 PUSH1 0x1 ADD SWAP1 DUP2 PUSH2 0x502 SWAP2 SWAP1 PUSH2 0x136F JUMP JUMPDEST POP PUSH1 0x40 DUP3 ADD MLOAD DUP2 PUSH1 0x2 ADD SSTORE PUSH1 0x60 DUP3 ADD MLOAD DUP2 PUSH1 0x3 ADD SSTORE PUSH1 0x80 DUP3 ADD MLOAD DUP2 PUSH1 0x4 ADD PUSH0 PUSH2 0x100 EXP DUP2 SLOAD DUP2 PUSH1 0xFF MUL NOT AND SWAP1 DUP4 ISZERO ISZERO MUL OR SWAP1 SSTORE POP PUSH1 0xA0 DUP3 ADD MLOAD DUP2 PUSH1 0x4 ADD PUSH1 0x1 PUSH2 0x100 EXP DUP2 SLOAD DUP2 PUSH1 0xFF MUL NOT AND SWAP1 DUP4 ISZERO ISZERO MUL OR SWAP1 SSTORE POP SWAP1 POP POP CALLER PUSH20 0xFFFFFFFFFFFFFFFFFFFFFFFFFFFFFFFFFFFFFFFF AND PUSH31 0xA1CFF1B2F4BCFBF6EEEE2C1D4FD6DE1249EEAA035F878BD93899DC7A8348B6 DUP3 DUP8 DUP8 DUP8 PUSH1 0x40 MLOAD PUSH2 0x5A4 SWAP5 SWAP4 SWAP3 SWAP2 SWAP1 PUSH2 0x143E JUMP JUMPDEST PUSH1 0x40 MLOAD DUP1 SWAP2 SUB SWAP1 LOG2 DUP2 ISZERO PUSH2 0x5BC JUMPI PUSH2 0x5BB DUP2 PUSH2 0x64A JUMP JUMPDEST JUMPDEST POP POP POP POP POP POP JUMP JUMPDEST PUSH2 0x645 DUP4 PUSH4 0xA9059CBB PUSH1 0xE0 SHL DUP5 DUP5 PUSH1 0x40 MLOAD PUSH1 0x24 ADD PUSH2 0x5E3 SWAP3 SWAP2 SWAP1 PUSH2 0x1488 JUMP JUMPDEST PUSH1 0x40 MLOAD PUSH1 0x20 DUP2 DUP4 SUB SUB DUP2 MSTORE SWAP1 PUSH1 0x40 MSTORE SWAP1 PUSH28 0xFFFFFFFFFFFFFFFFFFFFFFFFFFFFFFFFFFFFFFFFFFFFFFFFFFFFFFFF NOT AND PUSH1 0x20 DUP3 ADD DUP1 MLOAD PUSH28 0xFFFFFFFFFFFFFFFFFFFFFFFFFFFFFFFFFFFFFFFFFFFFFFFFFFFFFFFF DUP4 DUP2 DUP4 AND OR DUP4 MSTORE POP POP POP POP PUSH2 0x798 JUMP JUMPDEST POP POP POP JUMP JUMPDEST PUSH0 DUP1 PUSH2 0x70B JUMPI PUSH0 DUP1 PUSH0 DUP5 DUP2 MSTORE PUSH1 0x20 ADD SWAP1 DUP2 MSTORE PUSH1 0x20 ADD PUSH0 KECCAK256 SWAP1 POP DUP1 PUSH1 0x4 ADD PUSH1 0x1 SWAP1 SLOAD SWAP1 PUSH2 0x100 EXP SWAP1 DIV PUSH1 0xFF AND ISZERO PUSH2 0x6B5 JUMPI PUSH1 0x40 MLOAD PUSH32 0x8C379A000000000000000000000000000000000000000000000000000000000 DUP2 MSTORE PUSH1 0x4 ADD PUSH2 0x6AC SWAP1 PUSH2 0x14F9 JUMP JUMPDEST PUSH1 0x40 MLOAD DUP1 SWAP2 SUB SWAP1 REVERT JUMPDEST PUSH1 0x1 DUP2 PUSH1 0x4 ADD PUSH1 0x1 PUSH2 0x100 EXP DUP2 SLOAD DUP2 PUSH1 0xFF MUL NOT AND SWAP1 DUP4 ISZERO ISZERO MUL OR SWAP1 SSTORE POP PUSH32 0x3374383624A6239154F46D2D6FC35A0E58E2F53B0D5EA77C85D26E3FDDEBDEE0 DUP4 PUSH1 0x40 MLOAD PUSH2 0x701 SWAP2 SWAP1 PUSH2 0xFE6 JUMP JUMPDEST PUSH1 0x40 MLOAD DUP1 SWAP2 SUB SWAP1 LOG1 POP JUMPDEST POP POP JUMP JUMPDEST PUSH2 0x792 DUP5 PUSH4 0x23B872DD PUSH1 0xE0 SHL DUP6 DUP6 DUP6 PUSH1 0x40 MLOAD PUSH1 0x24 ADD PUSH2 0x730 SWAP4 SWAP3 SWAP2 SWAP1 PUSH2 0x1517 JUMP JUMPDEST PUSH1 0x40 MLOAD PUSH1 0x20 DUP2 DUP4 SUB SUB DUP2 MSTORE SWAP1 PUSH1 0x40 MSTORE SWAP1 PUSH28 0xFFFFFFFFFFFFFFFFFFFFFFFFFFFFFFFFFFFFFFFFFFFFFFFFFFFFFFFF NOT AND PUSH1 0x20 DUP3 ADD DUP1 MLOAD PUSH28 0xFFFFFFFFFFFFFFFFFFFFFFFFFFFFFFFFFFFFFFFFFFFFFFFFFFFFFFFF DUP4 DUP2 DUP4 AND OR DUP4 MSTORE POP POP POP POP PUSH2 0x798 JUMP JUMPDEST POP POP POP POP JUMP JUMPDEST PUSH0 PUSH2 0x7F9 DUP3 PUSH1 0x40 MLOAD DUP1 PUSH1 0x40 ADD PUSH1 0x40 MSTORE DUP1 PUSH1 0x20 DUP2 MSTORE PUSH1 0x20 ADD PUSH32 0x5361666545524332303A206C6F772D6C6576656C2063616C6C206661696C6564 DUP2 MSTORE POP DUP6 PUSH20 0xFFFFFFFFFFFFFFFFFFFFFFFFFFFFFFFFFFFFFFFF AND PUSH2 0x85D SWAP1 SWAP3 SWAP2 SWAP1 PUSH4 0xFFFFFFFF AND JUMP JUMPDEST SWAP1 POP PUSH0 DUP2 MLOAD GT ISZERO PUSH2 0x858 JUMPI DUP1 DUP1 PUSH1 0x20 ADD SWAP1 MLOAD DUP2 ADD SWAP1 PUSH2 0x818 SWAP2 SWAP1 PUSH2 0x1560 JUMP JUMPDEST PUSH2 0x857 JUMPI PUSH1 0x40 MLOAD PUSH32 0x8C379A000000000000000000000000000000000000000000000000000000000 DUP2 MSTORE PUSH1 0x4 ADD PUSH2 0x84E SWAP1 PUSH2 0x15FB JUMP JUMPDEST PUSH1 0x40 MLOAD DUP1 SWAP2 SUB SWAP1 REVERT JUMPDEST JUMPDEST POP POP POP JUMP JUMPDEST PUSH1 0x60 PUSH2 0x86B DUP5 DUP5 PUSH0 DUP6 PUSH2 0x874 JUMP JUMPDEST SWAP1 POP SWAP4 SWAP3 POP POP POP JUMP JUMPDEST PUSH1 0x60 DUP3 SELFBALANCE LT ISZERO PUSH2 0x8B9 JUMPI PUSH1 0x40 MLOAD PUSH32 0x8C379A000000000000000000000000000000000000000000000000000000000 DUP2 MSTORE PUSH1 0x4 ADD PUSH2 0x8B0 SWAP1 PUSH2 0x1689 JUMP JUMPDEST PUSH1 0x40 MLOAD DUP1 SWAP2 SUB SWAP1 REVERT JUMPDEST PUSH0 DUP1 DUP7 PUSH20 0xFFFFFFFFFFFFFFFFFFFFFFFFFFFFFFFFFFFFFFFF AND DUP6 DUP8 PUSH1 0x40 MLOAD PUSH2 0x8E1 SWAP2 SWAP1 PUSH2 0x16EB JUMP JUMPDEST PUSH0 PUSH1 0x40 MLOAD DUP1 DUP4 SUB DUP2 DUP6 DUP8 GAS CALL SWAP3 POP POP POP RETURNDATASIZE DUP1 PUSH0 DUP2 EQ PUSH2 0x91B JUMPI PUSH1 0x40 MLOAD SWAP2 POP PUSH1 0x1F NOT PUSH1 0x3F RETURNDATASIZE ADD AND DUP3 ADD PUSH1 0x40 MSTORE RETURNDATASIZE DUP3 MSTORE RETURNDATASIZE PUSH0 PUSH1 0x20 DUP5 ADD RETURNDATACOPY PUSH2 0x920 JUMP JUMPDEST PUSH1 0x60 SWAP2 POP JUMPDEST POP SWAP2 POP SWAP2 POP PUSH2 0x931 DUP8 DUP4 DUP4 DUP8 PUSH2 0x93D JUMP JUMPDEST SWAP3 POP POP POP SWAP5 SWAP4 POP POP POP POP JUMP JUMPDEST PUSH1 0x60 DUP4 ISZERO PUSH2 0x99E JUMPI PUSH0 DUP4 MLOAD SUB PUSH2 0x996 JUMPI PUSH2 0x956 DUP6 PUSH2 0x9B1 JUMP JUMPDEST PUSH2 0x995 JUMPI PUSH1 0x40 MLOAD PUSH32 0x8C379A000000000000000000000000000000000000000000000000000000000 DUP2 MSTORE PUSH1 0x4 ADD PUSH2 0x98C SWAP1 PUSH2 0x174B JUMP JUMPDEST PUSH1 0x40 MLOAD DUP1 SWAP2 SUB SWAP1 REVERT JUMPDEST JUMPDEST DUP3 SWAP1 POP PUSH2 0x9A9 JUMP JUMPDEST PUSH2 0x9A8 DUP4 DUP4 PUSH2 0x9D3 JUMP JUMPDEST JUMPDEST SWAP5 SWAP4 POP POP POP POP JUMP JUMPDEST PUSH0 DUP1 DUP3 PUSH20 0xFFFFFFFFFFFFFFFFFFFFFFFFFFFFFFFFFFFFFFFF AND EXTCODESIZE GT SWAP1 POP SWAP2 SWAP1 POP JUMP JUMPDEST PUSH0 DUP3 MLOAD GT ISZERO PUSH2 0x9E5 JUMPI DUP2 MLOAD DUP1 DUP4 PUSH1 0x20 ADD REVERT JUMPDEST DUP1 PUSH1 0x40 MLOAD PUSH32 0x8C379A000000000000000000000000000000000000000000000000000000000 DUP2 MSTORE PUSH1 0x4 ADD PUSH2 0xA19 SWAP2 SWAP1 PUSH2 0x1769 JUMP JUMPDEST PUSH1 0x40 MLOAD DUP1 SWAP2 SUB SWAP1 REVERT JUMPDEST PUSH0 PUSH1 0x40 MLOAD SWAP1 POP SWAP1 JUMP JUMPDEST PUSH0 DUP1 REVERT JUMPDEST PUSH0 DUP1 REVERT JUMPDEST PUSH0 DUP2 SWAP1 POP SWAP2 SWAP1 POP JUMP JUMPDEST PUSH2 0xA45 DUP2 PUSH2 0xA33 JUMP JUMPDEST DUP2 EQ PUSH2 0xA4F JUMPI PUSH0 DUP1 REVERT JUMPDEST POP JUMP JUMPDEST PUSH0 DUP2 CALLDATALOAD SWAP1 POP PUSH2 0xA60 DUP2 PUSH2 0xA3C JUMP JUMPDEST SWAP3 SWAP2 POP POP JUMP JUMPDEST PUSH0 PUSH20 0xFFFFFFFFFFFFFFFFFFFFFFFFFFFFFFFFFFFFFFFF DUP3 AND SWAP1 POP SWAP2 SWAP1 POP JUMP JUMPDEST PUSH0 PUSH2 0xA8F DUP3 PUSH2 0xA66 JUMP JUMPDEST SWAP1 POP SWAP2 SWAP1 POP JUMP JUMPDEST PUSH2 0xA9F DUP2 PUSH2 0xA85 JUMP JUMPDEST DUP2 EQ PUSH2 0xAA9 JUMPI PUSH0 DUP1 REVERT JUMPDEST POP JUMP JUMPDEST PUSH0 DUP2 CALLDATALOAD SWAP1 POP PUSH2 0xABA DUP2 PUSH2 0xA96 JUMP JUMPDEST SWAP3 SWAP2 POP POP JUMP JUMPDEST PUSH0 DUP1 PUSH1 0x40 DUP4 DUP6 SUB SLT ISZERO PUSH2 0xAD6 JUMPI PUSH2 0xAD5 PUSH2 0xA2B JUMP JUMPDEST JUMPDEST PUSH0 PUSH2 0xAE3 DUP6 DUP3 DUP7 ADD PUSH2 0xA52 JUMP JUMPDEST SWAP3 POP POP PUSH1 0x20 PUSH2 0xAF4 DUP6 DUP3 DUP7 ADD PUSH2 0xAAC JUMP JUMPDEST SWAP2 POP POP SWAP3 POP SWAP3 SWAP1 POP JUMP JUMPDEST PUSH0 PUSH1 0x20 DUP3 DUP5 SUB SLT ISZERO PUSH2 0xB13 JUMPI PUSH2 0xB12 PUSH2 0xA2B JUMP JUMPDEST JUMPDEST PUSH0 PUSH2 0xB20 DUP5 DUP3 DUP6 ADD PUSH2 0xA52 JUMP JUMPDEST SWAP2 POP POP SWAP3 SWAP2 POP POP JUMP JUMPDEST PUSH2 0xB32 DUP2 PUSH2 0xA85 JUMP JUMPDEST DUP3 MSTORE POP POP JUMP JUMPDEST PUSH0 DUP2 MLOAD SWAP1 POP SWAP2 SWAP1 POP JUMP JUMPDEST PUSH0 DUP3 DUP3 MSTORE PUSH1 0x20 DUP3 ADD SWAP1 POP SWAP3 SWAP2 POP POP JUMP JUMPDEST DUP3 DUP2 DUP4 MCOPY PUSH0 DUP4 DUP4 ADD MSTORE POP POP POP JUMP JUMPDEST PUSH0 PUSH1 0x1F NOT PUSH1 0x1F DUP4 ADD AND SWAP1 POP SWAP2 SWAP1 POP JUMP JUMPDEST PUSH0 PUSH2 0xB7A DUP3 PUSH2 0xB38 JUMP JUMPDEST PUSH2 0xB84 DUP2 DUP6 PUSH2 0xB42 JUMP JUMPDEST SWAP4 POP PUSH2 0xB94 DUP2 DUP6 PUSH1 0x20 DUP7 ADD PUSH2 0xB52 JUMP JUMPDEST PUSH2 0xB9D DUP2 PUSH2 0xB60 JUMP JUMPDEST DUP5 ADD SWAP2 POP POP SWAP3 SWAP2 POP POP JUMP JUMPDEST PUSH0 DUP2 SWAP1 POP SWAP2 SWAP1 POP JUMP JUMPDEST PUSH2 0xBBA DUP2 PUSH2 0xBA8 JUMP JUMPDEST DUP3 MSTORE POP POP JUMP JUMPDEST PUSH0 DUP2 ISZERO ISZERO SWAP1 POP SWAP2 SWAP1 POP JUMP JUMPDEST PUSH2 0xBD4 DUP2 PUSH2 0xBC0 JUMP JUMPDEST DUP3 MSTORE POP POP JUMP JUMPDEST PUSH0 PUSH1 0xC0 DUP3 ADD SWAP1 POP PUSH2 0xBED PUSH0 DUP4 ADD DUP10 PUSH2 0xB29 JUMP JUMPDEST DUP2 DUP2 SUB PUSH1 0x20 DUP4 ADD MSTORE PUSH2 0xBFF DUP2 DUP9 PUSH2 0xB70 JUMP JUMPDEST SWAP1 POP PUSH2 0xC0E PUSH1 0x40 DUP4 ADD DUP8 PUSH2 0xBB1 JUMP JUMPDEST PUSH2 0xC1B PUSH1 0x60 DUP4 ADD DUP7 PUSH2 0xBB1 JUMP JUMPDEST PUSH2 0xC28 PUSH1 0x80 DUP4 ADD DUP6 PUSH2 0xBCB JUMP JUMPDEST PUSH2 0xC35 PUSH1 0xA0 DUP4 ADD DUP5 PUSH2 0xBCB JUMP JUMPDEST SWAP8 SWAP7 POP POP POP POP POP POP POP JUMP JUMPDEST PUSH0 DUP1 REVERT JUMPDEST PUSH0 DUP1 REVERT JUMPDEST PUSH32 0x4E487B7100000000000000000000000000000000000000000000000000000000 PUSH0 MSTORE PUSH1 0x41 PUSH1 0x4 MSTORE PUSH1 0x24 PUSH0 REVERT JUMPDEST PUSH2 0xC7E DUP3 PUSH2 0xB60 JUMP JUMPDEST DUP2 ADD DUP2 DUP2 LT PUSH8 0xFFFFFFFFFFFFFFFF DUP3 GT OR ISZERO PUSH2 0xC9D JUMPI PUSH2 0xC9C PUSH2 0xC48 JUMP JUMPDEST JUMPDEST DUP1 PUSH1 0x40 MSTORE POP POP POP JUMP JUMPDEST PUSH0 PUSH2 0xCAF PUSH2 0xA22 JUMP JUMPDEST SWAP1 POP PUSH2 0xCBB DUP3 DUP3 PUSH2 0xC75 JUMP JUMPDEST SWAP2 SWAP1 POP JUMP JUMPDEST PUSH0 PUSH8 0xFFFFFFFFFFFFFFFF DUP3 GT ISZERO PUSH2 0xCDA JUMPI PUSH2 0xCD9 PUSH2 0xC48 JUMP JUMPDEST JUMPDEST PUSH2 0xCE3 DUP3 PUSH2 0xB60 JUMP JUMPDEST SWAP1 POP PUSH1 0x20 DUP2 ADD SWAP1 POP SWAP2 SWAP1 POP JUMP JUMPDEST DUP3 DUP2 DUP4 CALLDATACOPY PUSH0 DUP4 DUP4 ADD MSTORE POP POP POP JUMP JUMPDEST PUSH0 PUSH2 0xD10 PUSH2 0xD0B DUP5 PUSH2 0xCC0 JUMP JUMPDEST PUSH2 0xCA6 JUMP JUMPDEST SWAP1 POP DUP3 DUP2 MSTORE PUSH1 0x20 DUP2 ADD DUP5 DUP5 DUP5 ADD GT ISZERO PUSH2 0xD2C JUMPI PUSH2 0xD2B PUSH2 0xC44 JUMP JUMPDEST JUMPDEST PUSH2 0xD37 DUP5 DUP3 DUP6 PUSH2 0xCF0 JUMP JUMPDEST POP SWAP4 SWAP3 POP POP POP JUMP JUMPDEST PUSH0 DUP3 PUSH1 0x1F DUP4 ADD SLT PUSH2 0xD53 JUMPI PUSH2 0xD52 PUSH2 0xC40 JUMP JUMPDEST JUMPDEST DUP2 CALLDATALOAD PUSH2 0xD63 DUP5 DUP3 PUSH1 0x20 DUP7 ADD PUSH2 0xCFE JUMP JUMPDEST SWAP2 POP POP SWAP3 SWAP2 POP POP JUMP JUMPDEST PUSH2 0xD75 DUP2 PUSH2 0xBA8 JUMP JUMPDEST DUP2 EQ PUSH2 0xD7F JUMPI PUSH0 DUP1 REVERT JUMPDEST POP JUMP JUMPDEST PUSH0 DUP2 CALLDATALOAD SWAP1 POP PUSH2 0xD90 DUP2 PUSH2 0xD6C JUMP JUMPDEST SWAP3 SWAP2 POP POP JUMP JUMPDEST PUSH2 0xD9F DUP2 PUSH2 0xBC0 JUMP JUMPDEST DUP2 EQ PUSH2 0xDA9 JUMPI PUSH0 DUP1 REVERT JUMPDEST POP JUMP JUMPDEST PUSH0 DUP2 CALLDATALOAD SWAP1 POP PUSH2 0xDBA DUP2 PUSH2 0xD96 JUMP JUMPDEST SWAP3 SWAP2 POP POP JUMP JUMPDEST PUSH0 DUP1 PUSH0 DUP1 PUSH0 PUSH1 0xA0 DUP7 DUP9 SUB SLT ISZERO PUSH2 0xDD9 JUMPI PUSH2 0xDD8 PUSH2 0xA2B JUMP JUMPDEST JUMPDEST PUSH0 PUSH2 0xDE6 DUP9 DUP3 DUP10 ADD PUSH2 0xAAC JUMP JUMPDEST SWAP6 POP POP PUSH1 0x20 DUP7 ADD CALLDATALOAD PUSH8 0xFFFFFFFFFFFFFFFF DUP2 GT ISZERO PUSH2 0xE07 JUMPI PUSH2 0xE06 PUSH2 0xA2F JUMP JUMPDEST JUMPDEST PUSH2 0xE13 DUP9 DUP3 DUP10 ADD PUSH2 0xD3F JUMP JUMPDEST SWAP5 POP POP PUSH1 0x40 PUSH2 0xE24 DUP9 DUP3 DUP10 ADD PUSH2 0xD82 JUMP JUMPDEST SWAP4 POP POP PUSH1 0x60 PUSH2 0xE35 DUP9 DUP3 DUP10 ADD PUSH2 0xD82 JUMP JUMPDEST SWAP3 POP POP PUSH1 0x80 PUSH2 0xE46 DUP9 DUP3 DUP10 ADD PUSH2 0xDAC JUMP JUMPDEST SWAP2 POP POP SWAP3 SWAP6 POP SWAP3 SWAP6 SWAP1 SWAP4 POP JUMP JUMPDEST PUSH32 0x4465706F73697420616C72656164792077697468647261776E2E000000000000 PUSH0 DUP3 ADD MSTORE POP JUMP JUMPDEST PUSH0 PUSH2 0xE87 PUSH1 0x1A DUP4 PUSH2 0xB42 JUMP JUMPDEST SWAP2 POP PUSH2 0xE92 DUP3 PUSH2 0xE53 JUMP JUMPDEST PUSH1 0x20 DUP3 ADD SWAP1 POP SWAP2 SWAP1 POP JUMP JUMPDEST PUSH0 PUSH1 0x20 DUP3 ADD SWAP1 POP DUP2 DUP2 SUB PUSH0 DUP4 ADD MSTORE PUSH2 0xEB4 DUP2 PUSH2 0xE7B JUMP JUMPDEST SWAP1 POP SWAP2 SWAP1 POP JUMP JUMPDEST PUSH32 0x4F6E6C7920746865206465706F7369746F722063616E20776974686472617720 PUSH0 DUP3 ADD MSTORE PUSH32 0x746865206465706F7369742E0000000000000000000000000000000000000000 PUSH1 0x20 DUP3 ADD MSTORE POP JUMP JUMPDEST PUSH0 PUSH2 0xF15 PUSH1 0x2C DUP4 PUSH2 0xB42 JUMP JUMPDEST SWAP2 POP PUSH2 0xF20 DUP3 PUSH2 0xEBB JUMP JUMPDEST PUSH1 0x40 DUP3 ADD SWAP1 POP SWAP2 SWAP1 POP JUMP JUMPDEST PUSH0 PUSH1 0x20 DUP3 ADD SWAP1 POP DUP2 DUP2 SUB PUSH0 DUP4 ADD MSTORE PUSH2 0xF42 DUP2 PUSH2 0xF09 JUMP JUMPDEST SWAP1 POP SWAP2 SWAP1 POP JUMP JUMPDEST PUSH32 0x436F6E646974696F6E7320666F72207769746864726177616C206E6F74206D65 PUSH0 DUP3 ADD MSTORE PUSH32 0x742E000000000000000000000000000000000000000000000000000000000000 PUSH1 0x20 DUP3 ADD MSTORE POP JUMP JUMPDEST PUSH0 PUSH2 0xFA3 PUSH1 0x22 DUP4 PUSH2 0xB42 JUMP JUMPDEST SWAP2 POP PUSH2 0xFAE DUP3 PUSH2 0xF49 JUMP JUMPDEST PUSH1 0x40 DUP3 ADD SWAP1 POP SWAP2 SWAP1 POP JUMP JUMPDEST PUSH0 PUSH1 0x20 DUP3 ADD SWAP1 POP DUP2 DUP2 SUB PUSH0 DUP4 ADD MSTORE PUSH2 0xFD0 DUP2 PUSH2 0xF97 JUMP JUMPDEST SWAP1 POP SWAP2 SWAP1 POP JUMP JUMPDEST PUSH2 0xFE0 DUP2 PUSH2 0xA33 JUMP JUMPDEST DUP3 MSTORE POP POP JUMP JUMPDEST PUSH0 PUSH1 0x20 DUP3 ADD SWAP1 POP PUSH2 0xFF9 PUSH0 DUP4 ADD DUP5 PUSH2 0xFD7 JUMP JUMPDEST SWAP3 SWAP2 POP POP JUMP JUMPDEST PUSH32 0x4E487B7100000000000000000000000000000000000000000000000000000000 PUSH0 MSTORE PUSH1 0x22 PUSH1 0x4 MSTORE PUSH1 0x24 PUSH0 REVERT JUMPDEST PUSH0 PUSH1 0x2 DUP3 DIV SWAP1 POP PUSH1 0x1 DUP3 AND DUP1 PUSH2 0x1043 JUMPI PUSH1 0x7F DUP3 AND SWAP2 POP JUMPDEST PUSH1 0x20 DUP3 LT DUP2 SUB PUSH2 0x1056 JUMPI PUSH2 0x1055 PUSH2 0xFFF JUMP JUMPDEST JUMPDEST POP SWAP2 SWAP1 POP JUMP JUMPDEST PUSH32 0x416D6F756E74206D7573742062652067726561746572207468616E207A65726F PUSH0 DUP3 ADD MSTORE PUSH32 0x2E00000000000000000000000000000000000000000000000000000000000000 PUSH1 0x20 DUP3 ADD MSTORE POP JUMP JUMPDEST PUSH0 PUSH2 0x10B6 PUSH1 0x21 DUP4 PUSH2 0xB42 JUMP JUMPDEST SWAP2 POP PUSH2 0x10C1 DUP3 PUSH2 0x105C JUMP JUMPDEST PUSH1 0x40 DUP3 ADD SWAP1 POP SWAP2 SWAP1 POP JUMP JUMPDEST PUSH0 PUSH1 0x20 DUP3 ADD SWAP1 POP DUP2 DUP2 SUB PUSH0 DUP4 ADD MSTORE PUSH2 0x10E3 DUP2 PUSH2 0x10AA JUMP JUMPDEST SWAP1 POP SWAP2 SWAP1 POP JUMP JUMPDEST PUSH0 DUP2 PUSH1 0x60 SHL SWAP1 POP SWAP2 SWAP1 POP JUMP JUMPDEST PUSH0 PUSH2 0x1100 DUP3 PUSH2 0x10EA JUMP JUMPDEST SWAP1 POP SWAP2 SWAP1 POP JUMP JUMPDEST PUSH0 PUSH2 0x1111 DUP3 PUSH2 0x10F6 JUMP JUMPDEST SWAP1 POP SWAP2 SWAP1 POP JUMP JUMPDEST PUSH2 0x1129 PUSH2 0x1124 DUP3 PUSH2 0xA85 JUMP JUMPDEST PUSH2 0x1107 JUMP JUMPDEST DUP3 MSTORE POP POP JUMP JUMPDEST PUSH0 DUP2 SWAP1 POP SWAP3 SWAP2 POP POP JUMP JUMPDEST PUSH0 PUSH2 0x1143 DUP3 PUSH2 0xB38 JUMP JUMPDEST PUSH2 0x114D DUP2 DUP6 PUSH2 0x112F JUMP JUMPDEST SWAP4 POP PUSH2 0x115D DUP2 DUP6 PUSH1 0x20 DUP7 ADD PUSH2 0xB52 JUMP JUMPDEST DUP1 DUP5 ADD SWAP2 POP POP SWAP3 SWAP2 POP POP JUMP JUMPDEST PUSH0 DUP2 SWAP1 POP SWAP2 SWAP1 POP JUMP JUMPDEST PUSH2 0x1183 PUSH2 0x117E DUP3 PUSH2 0xBA8 JUMP JUMPDEST PUSH2 0x1169 JUMP JUMPDEST DUP3 MSTORE POP POP JUMP JUMPDEST PUSH0 PUSH2 0x1194 DUP3 DUP8 PUSH2 0x1118 JUMP JUMPDEST PUSH1 0x14 DUP3 ADD SWAP2 POP PUSH2 0x11A4 DUP3 DUP7 PUSH2 0x1139 JUMP JUMPDEST SWAP2 POP PUSH2 0x11B0 DUP3 DUP6 PUSH2 0x1172 JUMP JUMPDEST PUSH1 0x20 DUP3 ADD SWAP2 POP PUSH2 0x11C0 DUP3 DUP5 PUSH2 0x1172 JUMP JUMPDEST PUSH1 0x20 DUP3 ADD SWAP2 POP DUP2 SWAP1 POP SWAP6 SWAP5 POP POP POP POP POP JUMP JUMPDEST PUSH0 DUP2 SWAP1 POP DUP2 PUSH0 MSTORE PUSH1 0x20 PUSH0 KECCAK256 SWAP1 POP SWAP2 SWAP1 POP JUMP JUMPDEST PUSH0 PUSH1 0x20 PUSH1 0x1F DUP4 ADD DIV SWAP1 POP SWAP2 SWAP1 POP JUMP JUMPDEST PUSH0 DUP3 DUP3 SHL SWAP1 POP SWAP3 SWAP2 POP POP JUMP JUMPDEST PUSH0 PUSH1 0x8 DUP4 MUL PUSH2 0x122E PUSH32 0xFFFFFFFFFFFFFFFFFFFFFFFFFFFFFFFFFFFFFFFFFFFFFFFFFFFFFFFFFFFFFFFF DUP3 PUSH2 0x11F3 JUMP JUMPDEST PUSH2 0x1238 DUP7 DUP4 PUSH2 0x11F3 JUMP JUMPDEST SWAP6 POP DUP1 NOT DUP5 AND SWAP4 POP DUP1 DUP7 AND DUP5 OR SWAP3 POP POP POP SWAP4 SWAP3 POP POP POP JUMP JUMPDEST PUSH0 DUP2 SWAP1 POP SWAP2 SWAP1 POP JUMP JUMPDEST PUSH0 PUSH2 0x1273 PUSH2 0x126E PUSH2 0x1269 DUP5 PUSH2 0xBA8 JUMP JUMPDEST PUSH2 0x1250 JUMP JUMPDEST PUSH2 0xBA8 JUMP JUMPDEST SWAP1 POP SWAP2 SWAP1 POP JUMP JUMPDEST PUSH0 DUP2 SWAP1 POP SWAP2 SWAP1 POP JUMP JUMPDEST PUSH2 0x128C DUP4 PUSH2 0x1259 JUMP JUMPDEST PUSH2 0x12A0 PUSH2 0x1298 DUP3 PUSH2 0x127A JUMP JUMPDEST DUP5 DUP5 SLOAD PUSH2 0x11FF JUMP JUMPDEST DUP3 SSTORE POP POP POP POP JUMP JUMPDEST PUSH0 SWAP1 JUMP JUMPDEST PUSH2 0x12B4 PUSH2 0x12A8 JUMP JUMPDEST PUSH2 0x12BF DUP2 DUP5 DUP5 PUSH2 0x1283 JUMP JUMPDEST POP POP POP JUMP JUMPDEST JUMPDEST DUP2 DUP2 LT ISZERO PUSH2 0x12E2 JUMPI PUSH2 0x12D7 PUSH0 DUP3 PUSH2 0x12AC JUMP JUMPDEST PUSH1 0x1 DUP2 ADD SWAP1 POP PUSH2 0x12C5 JUMP JUMPDEST POP POP JUMP JUMPDEST PUSH1 0x1F DUP3 GT ISZERO PUSH2 0x1327 JUMPI PUSH2 0x12F8 DUP2 PUSH2 0x11D2 JUMP JUMPDEST PUSH2 0x1301 DUP5 PUSH2 0x11E4 JUMP JUMPDEST DUP2 ADD PUSH1 0x20 DUP6 LT ISZERO PUSH2 0x1310 JUMPI DUP2 SWAP1 POP JUMPDEST PUSH2 0x1324 PUSH2 0x131C DUP6 PUSH2 0x11E4 JUMP JUMPDEST DUP4 ADD DUP3 PUSH2 0x12C4 JUMP JUMPDEST POP POP JUMPDEST POP POP POP JUMP JUMPDEST PUSH0 DUP3 DUP3 SHR SWAP1 POP SWAP3 SWAP2 POP POP JUMP JUMPDEST PUSH0 PUSH2 0x1347 PUSH0 NOT DUP5 PUSH1 0x8 MUL PUSH2 0x132C JUMP JUMPDEST NOT DUP1 DUP4 AND SWAP2 POP POP SWAP3 SWAP2 POP POP JUMP JUMPDEST PUSH0 PUSH2 0x135F DUP4 DUP4 PUSH2 0x1338 JUMP JUMPDEST SWAP2 POP DUP3 PUSH1 0x2 MUL DUP3 OR SWAP1 POP SWAP3 SWAP2 POP POP JUMP JUMPDEST PUSH2 0x1378 DUP3 PUSH2 0xB38 JUMP JUMPDEST PUSH8 0xFFFFFFFFFFFFFFFF DUP2 GT ISZERO PUSH2 0x1391 JUMPI PUSH2 0x1390 PUSH2 0xC48 JUMP JUMPDEST JUMPDEST PUSH2 0x139B DUP3 SLOAD PUSH2 0x102C JUMP JUMPDEST PUSH2 0x13A6 DUP3 DUP3 DUP6 PUSH2 0x12E6 JUMP JUMPDEST PUSH0 PUSH1 0x20 SWAP1 POP PUSH1 0x1F DUP4 GT PUSH1 0x1 DUP2 EQ PUSH2 0x13D7 JUMPI PUSH0 DUP5 ISZERO PUSH2 0x13C5 JUMPI DUP3 DUP8 ADD MLOAD SWAP1 POP JUMPDEST PUSH2 0x13CF DUP6 DUP3 PUSH2 0x1354 JUMP JUMPDEST DUP7 SSTORE POP PUSH2 0x1436 JUMP JUMPDEST PUSH1 0x1F NOT DUP5 AND PUSH2 0x13E5 DUP7 PUSH2 0x11D2 JUMP JUMPDEST PUSH0 JUMPDEST DUP3 DUP2 LT ISZERO PUSH2 0x140C JUMPI DUP5 DUP10 ADD MLOAD DUP3 SSTORE PUSH1 0x1 DUP3 ADD SWAP2 POP PUSH1 0x20 DUP6 ADD SWAP5 POP PUSH1 0x20 DUP2 ADD SWAP1 POP PUSH2 0x13E7 JUMP JUMPDEST DUP7 DUP4 LT ISZERO PUSH2 0x1429 JUMPI DUP5 DUP10 ADD MLOAD PUSH2 0x1425 PUSH1 0x1F DUP10 AND DUP3 PUSH2 0x1338 JUMP JUMPDEST DUP4 SSTORE POP JUMPDEST PUSH1 0x1 PUSH1 0x2 DUP9 MUL ADD DUP9 SSTORE POP POP POP JUMPDEST POP POP POP POP POP POP JUMP JUMPDEST PUSH0 PUSH1 0x80 DUP3 ADD SWAP1 POP PUSH2 0x1451 PUSH0 DUP4 ADD DUP8 PUSH2 0xFD7 JUMP JUMPDEST DUP2 DUP2 SUB PUSH1 0x20 DUP4 ADD MSTORE PUSH2 0x1463 DUP2 DUP7 PUSH2 0xB70 JUMP JUMPDEST SWAP1 POP PUSH2 0x1472 PUSH1 0x40 DUP4 ADD DUP6 PUSH2 0xBB1 JUMP JUMPDEST PUSH2 0x147F PUSH1 0x60 DUP4 ADD DUP5 PUSH2 0xBB1 JUMP JUMPDEST SWAP6 SWAP5 POP POP POP POP POP JUMP JUMPDEST PUSH0 PUSH1 0x40 DUP3 ADD SWAP1 POP PUSH2 0x149B PUSH0 DUP4 ADD DUP6 PUSH2 0xB29 JUMP JUMPDEST PUSH2 0x14A8 PUSH1 0x20 DUP4 ADD DUP5 PUSH2 0xBB1 JUMP JUMPDEST SWAP4 SWAP3 POP POP POP JUMP JUMPDEST PUSH32 0x4576656E7420616C7265616479206F636375727265642E000000000000000000 PUSH0 DUP3 ADD MSTORE POP JUMP JUMPDEST PUSH0 PUSH2 0x14E3 PUSH1 0x17 DUP4 PUSH2 0xB42 JUMP JUMPDEST SWAP2 POP PUSH2 0x14EE DUP3 PUSH2 0x14AF JUMP JUMPDEST PUSH1 0x20 DUP3 ADD SWAP1 POP SWAP2 SWAP1 POP JUMP JUMPDEST PUSH0 PUSH1 0x20 DUP3 ADD SWAP1 POP DUP2 DUP2 SUB PUSH0 DUP4 ADD MSTORE PUSH2 0x1510 DUP2 PUSH2 0x14D7 JUMP JUMPDEST SWAP1 POP SWAP2 SWAP1 POP JUMP JUMPDEST PUSH0 PUSH1 0x60 DUP3 ADD SWAP1 POP PUSH2 0x152A PUSH0 DUP4 ADD DUP7 PUSH2 0xB29 JUMP JUMPDEST PUSH2 0x1537 PUSH1 0x20 DUP4 ADD DUP6 PUSH2 0xB29 JUMP JUMPDEST PUSH2 0x1544 PUSH1 0x40 DUP4 ADD DUP5 PUSH2 0xBB1 JUMP JUMPDEST SWAP5 SWAP4 POP POP POP POP JUMP JUMPDEST PUSH0 DUP2 MLOAD SWAP1 POP PUSH2 0x155A DUP2 PUSH2 0xD96 JUMP JUMPDEST SWAP3 SWAP2 POP POP JUMP JUMPDEST PUSH0 PUSH1 0x20 DUP3 DUP5 SUB SLT ISZERO PUSH2 0x1575 JUMPI PUSH2 0x1574 PUSH2 0xA2B JUMP JUMPDEST JUMPDEST PUSH0 PUSH2 0x1582 DUP5 DUP3 DUP6 ADD PUSH2 0x154C JUMP JUMPDEST SWAP2 POP POP SWAP3 SWAP2 POP POP JUMP JUMPDEST PUSH32 0x5361666545524332303A204552433230206F7065726174696F6E20646964206E PUSH0 DUP3 ADD MSTORE PUSH32 0x6F74207375636365656400000000000000000000000000000000000000000000 PUSH1 0x20 DUP3 ADD MSTORE POP JUMP JUMPDEST PUSH0 PUSH2 0x15E5 PUSH1 0x2A DUP4 PUSH2 0xB42 JUMP JUMPDEST SWAP2 POP PUSH2 0x15F0 DUP3 PUSH2 0x158B JUMP JUMPDEST PUSH1 0x40 DUP3 ADD SWAP1 POP SWAP2 SWAP1 POP JUMP JUMPDEST PUSH0 PUSH1 0x20 DUP3 ADD SWAP1 POP DUP2 DUP2 SUB PUSH0 DUP4 ADD MSTORE PUSH2 0x1612 DUP2 PUSH2 0x15D9 JUMP JUMPDEST SWAP1 POP SWAP2 SWAP1 POP JUMP JUMPDEST PUSH32 0x416464726573733A20696E73756666696369656E742062616C616E636520666F PUSH0 DUP3 ADD MSTORE PUSH32 0x722063616C6C0000000000000000000000000000000000000000000000000000 PUSH1 0x20 DUP3 ADD MSTORE POP JUMP JUMPDEST PUSH0 PUSH2 0x1673 PUSH1 0x26 DUP4 PUSH2 0xB42 JUMP JUMPDEST SWAP2 POP PUSH2 0x167E DUP3 PUSH2 0x1619 JUMP JUMPDEST PUSH1 0x40 DUP3 ADD SWAP1 POP SWAP2 SWAP1 POP JUMP JUMPDEST PUSH0 PUSH1 0x20 DUP3 ADD SWAP1 POP DUP2 DUP2 SUB PUSH0 DUP4 ADD MSTORE PUSH2 0x16A0 DUP2 PUSH2 0x1667 JUMP JUMPDEST SWAP1 POP SWAP2 SWAP1 POP JUMP JUMPDEST PUSH0 DUP2 MLOAD SWAP1 POP SWAP2 SWAP1 POP JUMP JUMPDEST PUSH0 DUP2 SWAP1 POP SWAP3 SWAP2 POP POP JUMP JUMPDEST PUSH0 PUSH2 0x16C5 DUP3 PUSH2 0x16A7 JUMP JUMPDEST PUSH2 0x16CF DUP2 DUP6 PUSH2 0x16B1 JUMP JUMPDEST SWAP4 POP PUSH2 0x16DF DUP2 DUP6 PUSH1 0x20 DUP7 ADD PUSH2 0xB52 JUMP JUMPDEST DUP1 DUP5 ADD SWAP2 POP POP SWAP3 SWAP2 POP POP JUMP JUMPDEST PUSH0 PUSH2 0x16F6 DUP3 DUP5 PUSH2 0x16BB JUMP JUMPDEST SWAP2 POP DUP2 SWAP1 POP SWAP3 SWAP2 POP POP JUMP JUMPDEST PUSH32 0x416464726573733A2063616C6C20746F206E6F6E2D636F6E7472616374000000 PUSH0 DUP3 ADD MSTORE POP JUMP JUMPDEST PUSH0 PUSH2 0x1735 PUSH1 0x1D DUP4 PUSH2 0xB42 JUMP JUMPDEST SWAP2 POP PUSH2 0x1740 DUP3 PUSH2 0x1701 JUMP JUMPDEST PUSH1 0x20 DUP3 ADD SWAP1 POP SWAP2 SWAP1 POP JUMP JUMPDEST PUSH0 PUSH1 0x20 DUP3 ADD SWAP1 POP DUP2 DUP2 SUB PUSH0 DUP4 ADD MSTORE PUSH2 0x1762 DUP2 PUSH2 0x1729 JUMP JUMPDEST SWAP1 POP SWAP2 SWAP1 POP JUMP JUMPDEST PUSH0 PUSH1 0x20 DUP3 ADD SWAP1 POP DUP2 DUP2 SUB PUSH0 DUP4 ADD MSTORE PUSH2 0x1781 DUP2 DUP5 PUSH2 0xB70 JUMP JUMPDEST SWAP1 POP SWAP3 SWAP2 POP POP JUMP INVALID LOG2 PUSH5 0x6970667358 0x22 SLT KECCAK256 DUP15 PUSH2 0xA8E8 SUB PUSH12 0x47C8C42C3C8F35CE24FFFAAD SLOAD 0xCF 0xC4 JUMPDEST INVALID DUP8 0xAF ADDRESS PUSH1 0xDD SELFBALANCE 0xE PUSH4 0x164736F PUSH13 0x634300081A0033000000000000 "
				},
				"gasEstimates": {
					"creation": {
						"codeDepositCost": "1215800",
						"executionCost": "1259",
						"totalCost": "1217059"
					},
					"external": {
						"deposit(address,string,uint256,uint256,bool)": "infinite",
						"deposits(bytes32)": "infinite",
						"triggerEvent(bytes32)": "infinite",
						"withdraw(bytes32,address)": "infinite"
					},
					"internal": {
						"triggerEventInternal(bytes32)": "infinite"
					}
				},
				"methodIdentifiers": {
					"deposit(address,string,uint256,uint256,bool)": "ef90dbb6",
					"deposits(bytes32)": "3d4dff7b",
					"triggerEvent(bytes32)": "ab6d1c09",
					"withdraw(bytes32,address)": "1b258d50"
				}
			},
			"storageLayout": {
				"storage": [
					{
						"astId": 750,
						"contract": "trustless cross-chain/trading pair formation/deposit2.sol:TokenDeposit",
						"label": "deposits",
						"offset": 0,
						"slot": "0",
						"type": "t_mapping(t_bytes32,t_struct(Deposit)745_storage)"
					}
				],
				"types": {
					"t_address": {
						"encoding": "inplace",
						"label": "address",
						"numberOfBytes": "20"
					},
					"t_bool": {
						"encoding": "inplace",
						"label": "bool",
						"numberOfBytes": "1"
					},
					"t_bytes32": {
						"encoding": "inplace",
						"label": "bytes32",
						"numberOfBytes": "32"
					},
					"t_mapping(t_bytes32,t_struct(Deposit)745_storage)": {
						"encoding": "mapping",
						"key": "t_bytes32",
						"label": "mapping(bytes32 => struct TokenDeposit.Deposit)",
						"numberOfBytes": "32",
						"value": "t_struct(Deposit)745_storage"
					},
					"t_string_storage": {
						"encoding": "bytes",
						"label": "string",
						"numberOfBytes": "32"
					},
					"t_struct(Deposit)745_storage": {
						"encoding": "inplace",
						"label": "struct TokenDeposit.Deposit",
						"members": [
							{
								"astId": 734,
								"contract": "trustless cross-chain/trading pair formation/deposit2.sol:TokenDeposit",
								"label": "depositor",
								"offset": 0,
								"slot": "0",
								"type": "t_address"
							},
							{
								"astId": 736,
								"contract": "trustless cross-chain/trading pair formation/deposit2.sol:TokenDeposit",
								"label": "symbol",
								"offset": 0,
								"slot": "1",
								"type": "t_string_storage"
							},
							{
								"astId": 738,
								"contract": "trustless cross-chain/trading pair formation/deposit2.sol:TokenDeposit",
								"label": "amount",
								"offset": 0,
								"slot": "2",
								"type": "t_uint256"
							},
							{
								"astId": 740,
								"contract": "trustless cross-chain/trading pair formation/deposit2.sol:TokenDeposit",
								"label": "blockNumber",
								"offset": 0,
								"slot": "3",
								"type": "t_uint256"
							},
							{
								"astId": 742,
								"contract": "trustless cross-chain/trading pair formation/deposit2.sol:TokenDeposit",
								"label": "withdrawn",
								"offset": 0,
								"slot": "4",
								"type": "t_bool"
							},
							{
								"astId": 744,
								"contract": "trustless cross-chain/trading pair formation/deposit2.sol:TokenDeposit",
								"label": "eventOccurred",
								"offset": 1,
								"slot": "4",
								"type": "t_bool"
							}
						],
						"numberOfBytes": "160"
					},
					"t_uint256": {
						"encoding": "inplace",
						"label": "uint256",
						"numberOfBytes": "32"
					}
				}
			},
			"userdoc": {
				"kind": "user",
				"methods": {},
				"version": 1
			}
		}
	}
}