{
	"trustless cross-chain/trading pair formation/deposit.sol": {
		"TokenDeposit": {
			"abi": [
				{
					"anonymous": false,
					"inputs": [
						{
							"indexed": false,
							"internalType": "bytes32",
							"name": "depositId",
							"type": "bytes32"
						},
						{
							"indexed": true,
							"internalType": "address",
							"name": "depositor",
							"type": "address"
						},
						{
							"indexed": false,
							"internalType": "string",
							"name": "symbol",
							"type": "string"
						},
						{
							"indexed": false,
							"internalType": "uint256",
							"name": "amount",
							"type": "uint256"
						},
						{
							"indexed": false,
							"internalType": "uint256",
							"name": "blockNumber",
							"type": "uint256"
						}
					],
					"name": "DepositLocked",
					"type": "event"
				},
				{
					"anonymous": false,
					"inputs": [
						{
							"indexed": false,
							"internalType": "bytes32",
							"name": "depositId",
							"type": "bytes32"
						}
					],
					"name": "EventOccurred",
					"type": "event"
				},
				{
					"anonymous": false,
					"inputs": [
						{
							"indexed": false,
							"internalType": "bytes32",
							"name": "depositId",
							"type": "bytes32"
						}
					],
					"name": "Withdrawn",
					"type": "event"
				},
				{
					"inputs": [
						{
							"internalType": "address",
							"name": "token",
							"type": "address"
						},
						{
							"internalType": "string",
							"name": "symbol",
							"type": "string"
						},
						{
							"internalType": "uint256",
							"name": "amount",
							"type": "uint256"
						},
						{
							"internalType": "uint256",
							"name": "blockNumber",
							"type": "uint256"
						}
					],
					"name": "deposit",
					"outputs": [],
					"stateMutability": "nonpayable",
					"type": "function"
				},
				{
					"inputs": [
						{
							"internalType": "bytes32",
							"name": "",
							"type": "bytes32"
						}
					],
					"name": "deposits",
					"outputs": [
						{
							"internalType": "address",
							"name": "depositor",
							"type": "address"
						},
						{
							"internalType": "string",
							"name": "symbol",
							"type": "string"
						},
						{
							"internalType": "uint256",
							"name": "amount",
							"type": "uint256"
						},
						{
							"internalType": "uint256",
							"name": "blockNumber",
							"type": "uint256"
						},
						{
							"internalType": "bool",
							"name": "withdrawn",
							"type": "bool"
						},
						{
							"internalType": "bool",
							"name": "eventOccurred",
							"type": "bool"
						}
					],
					"stateMutability": "view",
					"type": "function"
				},
				{
					"inputs": [
						{
							"internalType": "bytes32",
							"name": "depositId",
							"type": "bytes32"
						}
					],
					"name": "triggerEvent",
					"outputs": [],
					"stateMutability": "nonpayable",
					"type": "function"
				},
				{
					"inputs": [
						{
							"internalType": "bytes32",
							"name": "depositId",
							"type": "bytes32"
						},
						{
							"internalType": "address",
							"name": "token",
							"type": "address"
						}
					],
					"name": "withdraw",
					"outputs": [],
					"stateMutability": "nonpayable",
					"type": "function"
				}
			],
			"devdoc": {
				"kind": "dev",
				"methods": {},
				"version": 1
			},
			"evm": {
				"assembly": "    /* \"trustless cross-chain/trading pair formation/deposit.sol\":149:2162  contract TokenDeposit {... */\n  mstore(0x40, 0x80)\n  callvalue\n  dup1\n  iszero\n  tag_1\n  jumpi\n  0x00\n  dup1\n  revert\ntag_1:\n  pop\n  dataSize(sub_0)\n  dup1\n  dataOffset(sub_0)\n  0x00\n  codecopy\n  0x00\n  return\nstop\n\nsub_0: assembly {\n        /* \"trustless cross-chain/trading pair formation/deposit.sol\":149:2162  contract TokenDeposit {... */\n      mstore(0x40, 0x80)\n      callvalue\n      dup1\n      iszero\n      tag_1\n      jumpi\n      0x00\n      dup1\n      revert\n    tag_1:\n      pop\n      jumpi(tag_2, lt(calldatasize, 0x04))\n      shr(0xe0, calldataload(0x00))\n      dup1\n      0x1b258d50\n      eq\n      tag_3\n      jumpi\n      dup1\n      0x3d4dff7b\n      eq\n      tag_4\n      jumpi\n      dup1\n      0xab6d1c09\n      eq\n      tag_5\n      jumpi\n      dup1\n      0xeb21b9d7\n      eq\n      tag_6\n      jumpi\n    tag_2:\n      0x00\n      dup1\n      revert\n        /* \"trustless cross-chain/trading pair formation/deposit.sol\":1177:1716  function withdraw(bytes32 depositId, address token) public {... */\n    tag_3:\n      tag_7\n      0x04\n      dup1\n      calldatasize\n      sub\n      dup2\n      add\n      swap1\n      tag_8\n      swap2\n      swap1\n      tag_9\n      jump\t// in\n    tag_8:\n      tag_10\n      jump\t// in\n    tag_7:\n      stop\n        /* \"trustless cross-chain/trading pair formation/deposit.sol\":393:436  mapping(bytes32 => Deposit) public deposits */\n    tag_4:\n      tag_11\n      0x04\n      dup1\n      calldatasize\n      sub\n      dup2\n      add\n      swap1\n      tag_12\n      swap2\n      swap1\n      tag_13\n      jump\t// in\n    tag_12:\n      tag_14\n      jump\t// in\n    tag_11:\n      mload(0x40)\n      tag_15\n      swap7\n      swap6\n      swap5\n      swap4\n      swap3\n      swap2\n      swap1\n      tag_16\n      jump\t// in\n    tag_15:\n      mload(0x40)\n      dup1\n      swap2\n      sub\n      swap1\n      return\n        /* \"trustless cross-chain/trading pair formation/deposit.sol\":1722:2160  function triggerEvent(bytes32 depositId) public {... */\n    tag_5:\n      tag_17\n      0x04\n      dup1\n      calldatasize\n      sub\n      dup2\n      add\n      swap1\n      tag_18\n      swap2\n      swap1\n      tag_13\n      jump\t// in\n    tag_18:\n      tag_19\n      jump\t// in\n    tag_17:\n      stop\n        /* \"trustless cross-chain/trading pair formation/deposit.sol\":651:1171  function deposit(address token, string memory symbol, uint256 amount, uint256 blockNumber) public {... */\n    tag_6:\n      tag_20\n      0x04\n      dup1\n      calldatasize\n      sub\n      dup2\n      add\n      swap1\n      tag_21\n      swap2\n      swap1\n      tag_22\n      jump\t// in\n    tag_21:\n      tag_23\n      jump\t// in\n    tag_20:\n      stop\n        /* \"trustless cross-chain/trading pair formation/deposit.sol\":1177:1716  function withdraw(bytes32 depositId, address token) public {... */\n    tag_10:\n        /* \"trustless cross-chain/trading pair formation/deposit.sol\":1246:1269  Deposit storage deposit */\n      0x00\n        /* \"trustless cross-chain/trading pair formation/deposit.sol\":1272:1280  deposits */\n      dup1\n        /* \"trustless cross-chain/trading pair formation/deposit.sol\":1272:1291  deposits[depositId] */\n      0x00\n        /* \"trustless cross-chain/trading pair formation/deposit.sol\":1281:1290  depositId */\n      dup5\n        /* \"trustless cross-chain/trading pair formation/deposit.sol\":1272:1291  deposits[depositId] */\n      dup2\n      mstore\n      0x20\n      add\n      swap1\n      dup2\n      mstore\n      0x20\n      add\n      0x00\n      keccak256\n        /* \"trustless cross-chain/trading pair formation/deposit.sol\":1246:1291  Deposit storage deposit = deposits[depositId] */\n      swap1\n      pop\n        /* \"trustless cross-chain/trading pair formation/deposit.sol\":1311:1318  deposit */\n      dup1\n        /* \"trustless cross-chain/trading pair formation/deposit.sol\":1311:1328  deposit.withdrawn */\n      0x04\n      add\n      0x00\n      swap1\n      sload\n      swap1\n      0x0100\n      exp\n      swap1\n      div\n      0xff\n      and\n        /* \"trustless cross-chain/trading pair formation/deposit.sol\":1310:1328  !deposit.withdrawn */\n      iszero\n        /* \"trustless cross-chain/trading pair formation/deposit.sol\":1302:1359  require(!deposit.withdrawn, \"Deposit already withdrawn.\") */\n      tag_25\n      jumpi\n      mload(0x40)\n      0x08c379a000000000000000000000000000000000000000000000000000000000\n      dup2\n      mstore\n      0x04\n      add\n      tag_26\n      swap1\n      tag_27\n      jump\t// in\n    tag_26:\n      mload(0x40)\n      dup1\n      swap2\n      sub\n      swap1\n      revert\n    tag_25:\n        /* \"trustless cross-chain/trading pair formation/deposit.sol\":1398:1408  msg.sender */\n      caller\n        /* \"trustless cross-chain/trading pair formation/deposit.sol\":1377:1408  deposit.depositor == msg.sender */\n      0xffffffffffffffffffffffffffffffffffffffff\n      and\n        /* \"trustless cross-chain/trading pair formation/deposit.sol\":1377:1384  deposit */\n      dup2\n        /* \"trustless cross-chain/trading pair formation/deposit.sol\":1377:1394  deposit.depositor */\n      0x00\n      add\n      0x00\n      swap1\n      sload\n      swap1\n      0x0100\n      exp\n      swap1\n      div\n      0xffffffffffffffffffffffffffffffffffffffff\n      and\n        /* \"trustless cross-chain/trading pair formation/deposit.sol\":1377:1408  deposit.depositor == msg.sender */\n      0xffffffffffffffffffffffffffffffffffffffff\n      and\n      eq\n        /* \"trustless cross-chain/trading pair formation/deposit.sol\":1369:1457  require(deposit.depositor == msg.sender, \"Only the depositor can withdraw the deposit.\") */\n      tag_28\n      jumpi\n      mload(0x40)\n      0x08c379a000000000000000000000000000000000000000000000000000000000\n      dup2\n      mstore\n      0x04\n      add\n      tag_29\n      swap1\n      tag_30\n      jump\t// in\n    tag_29:\n      mload(0x40)\n      dup1\n      swap2\n      sub\n      swap1\n      revert\n    tag_28:\n        /* \"trustless cross-chain/trading pair formation/deposit.sol\":1475:1482  deposit */\n      dup1\n        /* \"trustless cross-chain/trading pair formation/deposit.sol\":1475:1496  deposit.eventOccurred */\n      0x04\n      add\n      0x01\n      swap1\n      sload\n      swap1\n      0x0100\n      exp\n      swap1\n      div\n      0xff\n      and\n        /* \"trustless cross-chain/trading pair formation/deposit.sol\":1475:1535  deposit.eventOccurred || block.number >= deposit.blockNumber */\n      dup1\n      tag_31\n      jumpi\n      pop\n        /* \"trustless cross-chain/trading pair formation/deposit.sol\":1516:1523  deposit */\n      dup1\n        /* \"trustless cross-chain/trading pair formation/deposit.sol\":1516:1535  deposit.blockNumber */\n      0x03\n      add\n      sload\n        /* \"trustless cross-chain/trading pair formation/deposit.sol\":1500:1512  block.number */\n      number\n        /* \"trustless cross-chain/trading pair formation/deposit.sol\":1500:1535  block.number >= deposit.blockNumber */\n      lt\n      iszero\n        /* \"trustless cross-chain/trading pair formation/deposit.sol\":1475:1535  deposit.eventOccurred || block.number >= deposit.blockNumber */\n    tag_31:\n        /* \"trustless cross-chain/trading pair formation/deposit.sol\":1467:1574  require(deposit.eventOccurred || block.number >= deposit.blockNumber, \"Conditions for withdrawal not met.\") */\n      tag_32\n      jumpi\n      mload(0x40)\n      0x08c379a000000000000000000000000000000000000000000000000000000000\n      dup2\n      mstore\n      0x04\n      add\n      tag_33\n      swap1\n      tag_34\n      jump\t// in\n    tag_33:\n      mload(0x40)\n      dup1\n      swap2\n      sub\n      swap1\n      revert\n    tag_32:\n        /* \"trustless cross-chain/trading pair formation/deposit.sol\":1605:1609  true */\n      0x01\n        /* \"trustless cross-chain/trading pair formation/deposit.sol\":1585:1592  deposit */\n      dup2\n        /* \"trustless cross-chain/trading pair formation/deposit.sol\":1585:1602  deposit.withdrawn */\n      0x04\n      add\n      0x00\n        /* \"trustless cross-chain/trading pair formation/deposit.sol\":1585:1609  deposit.withdrawn = true */\n      0x0100\n      exp\n      dup2\n      sload\n      dup2\n      0xff\n      mul\n      not\n      and\n      swap1\n      dup4\n      iszero\n      iszero\n      mul\n      or\n      swap1\n      sstore\n      pop\n        /* \"trustless cross-chain/trading pair formation/deposit.sol\":1619:1673  IERC20(token).safeTransfer(msg.sender, deposit.amount) */\n      tag_35\n        /* \"trustless cross-chain/trading pair formation/deposit.sol\":1646:1656  msg.sender */\n      caller\n        /* \"trustless cross-chain/trading pair formation/deposit.sol\":1658:1665  deposit */\n      dup3\n        /* \"trustless cross-chain/trading pair formation/deposit.sol\":1658:1672  deposit.amount */\n      0x02\n      add\n      sload\n        /* \"trustless cross-chain/trading pair formation/deposit.sol\":1626:1631  token */\n      dup5\n        /* \"trustless cross-chain/trading pair formation/deposit.sol\":1619:1645  IERC20(token).safeTransfer */\n      0xffffffffffffffffffffffffffffffffffffffff\n      and\n      tag_36\n      swap1\n        /* \"trustless cross-chain/trading pair formation/deposit.sol\":1619:1673  IERC20(token).safeTransfer(msg.sender, deposit.amount) */\n      swap3\n      swap2\n      swap1\n      0xffffffff\n      and\n      jump\t// in\n    tag_35:\n        /* \"trustless cross-chain/trading pair formation/deposit.sol\":1689:1709  Withdrawn(depositId) */\n      0x44654674e66e9e53d34afdf3e9513fb94b4c8b946e980d6958ef4e6a37a153e3\n        /* \"trustless cross-chain/trading pair formation/deposit.sol\":1699:1708  depositId */\n      dup4\n        /* \"trustless cross-chain/trading pair formation/deposit.sol\":1689:1709  Withdrawn(depositId) */\n      mload(0x40)\n      tag_37\n      swap2\n      swap1\n      tag_38\n      jump\t// in\n    tag_37:\n      mload(0x40)\n      dup1\n      swap2\n      sub\n      swap1\n      log1\n        /* \"trustless cross-chain/trading pair formation/deposit.sol\":1236:1716  {... */\n      pop\n        /* \"trustless cross-chain/trading pair formation/deposit.sol\":1177:1716  function withdraw(bytes32 depositId, address token) public {... */\n      pop\n      pop\n      jump\t// out\n        /* \"trustless cross-chain/trading pair formation/deposit.sol\":393:436  mapping(bytes32 => Deposit) public deposits */\n    tag_14:\n      mstore(0x20, 0x00)\n      dup1\n      0x00\n      mstore\n      keccak256(0x00, 0x40)\n      0x00\n      swap2\n      pop\n      swap1\n      pop\n      dup1\n      0x00\n      add\n      0x00\n      swap1\n      sload\n      swap1\n      0x0100\n      exp\n      swap1\n      div\n      0xffffffffffffffffffffffffffffffffffffffff\n      and\n      swap1\n      dup1\n      0x01\n      add\n      dup1\n      sload\n      tag_39\n      swap1\n      tag_40\n      jump\t// in\n    tag_39:\n      dup1\n      0x1f\n      add\n      0x20\n      dup1\n      swap2\n      div\n      mul\n      0x20\n      add\n      mload(0x40)\n      swap1\n      dup2\n      add\n      0x40\n      mstore\n      dup1\n      swap3\n      swap2\n      swap1\n      dup2\n      dup2\n      mstore\n      0x20\n      add\n      dup3\n      dup1\n      sload\n      tag_41\n      swap1\n      tag_40\n      jump\t// in\n    tag_41:\n      dup1\n      iszero\n      tag_42\n      jumpi\n      dup1\n      0x1f\n      lt\n      tag_43\n      jumpi\n      0x0100\n      dup1\n      dup4\n      sload\n      div\n      mul\n      dup4\n      mstore\n      swap2\n      0x20\n      add\n      swap2\n      jump(tag_42)\n    tag_43:\n      dup3\n      add\n      swap2\n      swap1\n      0x00\n      mstore\n      keccak256(0x00, 0x20)\n      swap1\n    tag_44:\n      dup2\n      sload\n      dup2\n      mstore\n      swap1\n      0x01\n      add\n      swap1\n      0x20\n      add\n      dup1\n      dup4\n      gt\n      tag_44\n      jumpi\n      dup3\n      swap1\n      sub\n      0x1f\n      and\n      dup3\n      add\n      swap2\n    tag_42:\n      pop\n      pop\n      pop\n      pop\n      pop\n      swap1\n      dup1\n      0x02\n      add\n      sload\n      swap1\n      dup1\n      0x03\n      add\n      sload\n      swap1\n      dup1\n      0x04\n      add\n      0x00\n      swap1\n      sload\n      swap1\n      0x0100\n      exp\n      swap1\n      div\n      0xff\n      and\n      swap1\n      dup1\n      0x04\n      add\n      0x01\n      swap1\n      sload\n      swap1\n      0x0100\n      exp\n      swap1\n      div\n      0xff\n      and\n      swap1\n      pop\n      dup7\n      jump\t// out\n        /* \"trustless cross-chain/trading pair formation/deposit.sol\":1722:2160  function triggerEvent(bytes32 depositId) public {... */\n    tag_19:\n        /* \"trustless cross-chain/trading pair formation/deposit.sol\":1880:1892  bool isValid */\n      0x00\n        /* \"trustless cross-chain/trading pair formation/deposit.sol\":1916:1923  isValid */\n      dup1\n        /* \"trustless cross-chain/trading pair formation/deposit.sol\":1911:2154  if (!isValid) {... */\n      tag_46\n      jumpi\n        /* \"trustless cross-chain/trading pair formation/deposit.sol\":1939:1962  Deposit storage deposit */\n      0x00\n        /* \"trustless cross-chain/trading pair formation/deposit.sol\":1965:1973  deposits */\n      dup1\n        /* \"trustless cross-chain/trading pair formation/deposit.sol\":1965:1984  deposits[depositId] */\n      0x00\n        /* \"trustless cross-chain/trading pair formation/deposit.sol\":1974:1983  depositId */\n      dup5\n        /* \"trustless cross-chain/trading pair formation/deposit.sol\":1965:1984  deposits[depositId] */\n      dup2\n      mstore\n      0x20\n      add\n      swap1\n      dup2\n      mstore\n      0x20\n      add\n      0x00\n      keccak256\n        /* \"trustless cross-chain/trading pair formation/deposit.sol\":1939:1984  Deposit storage deposit = deposits[depositId] */\n      swap1\n      pop\n        /* \"trustless cross-chain/trading pair formation/deposit.sol\":2007:2014  deposit */\n      dup1\n        /* \"trustless cross-chain/trading pair formation/deposit.sol\":2007:2028  deposit.eventOccurred */\n      0x04\n      add\n      0x01\n      swap1\n      sload\n      swap1\n      0x0100\n      exp\n      swap1\n      div\n      0xff\n      and\n        /* \"trustless cross-chain/trading pair formation/deposit.sol\":2006:2028  !deposit.eventOccurred */\n      iszero\n        /* \"trustless cross-chain/trading pair formation/deposit.sol\":1998:2056  require(!deposit.eventOccurred, \"Event already occurred.\") */\n      tag_47\n      jumpi\n      mload(0x40)\n      0x08c379a000000000000000000000000000000000000000000000000000000000\n      dup2\n      mstore\n      0x04\n      add\n      tag_48\n      swap1\n      tag_49\n      jump\t// in\n    tag_48:\n      mload(0x40)\n      dup1\n      swap2\n      sub\n      swap1\n      revert\n    tag_47:\n        /* \"trustless cross-chain/trading pair formation/deposit.sol\":2095:2099  true */\n      0x01\n        /* \"trustless cross-chain/trading pair formation/deposit.sol\":2071:2078  deposit */\n      dup2\n        /* \"trustless cross-chain/trading pair formation/deposit.sol\":2071:2092  deposit.eventOccurred */\n      0x04\n      add\n      0x01\n        /* \"trustless cross-chain/trading pair formation/deposit.sol\":2071:2099  deposit.eventOccurred = true */\n      0x0100\n      exp\n      dup2\n      sload\n      dup2\n      0xff\n      mul\n      not\n      and\n      swap1\n      dup4\n      iszero\n      iszero\n      mul\n      or\n      swap1\n      sstore\n      pop\n        /* \"trustless cross-chain/trading pair formation/deposit.sol\":2119:2143  EventOccurred(depositId) */\n      0x3374383624a6239154f46d2d6fc35a0e58e2f53b0d5ea77c85d26e3fddebdee0\n        /* \"trustless cross-chain/trading pair formation/deposit.sol\":2133:2142  depositId */\n      dup4\n        /* \"trustless cross-chain/trading pair formation/deposit.sol\":2119:2143  EventOccurred(depositId) */\n      mload(0x40)\n      tag_50\n      swap2\n      swap1\n      tag_38\n      jump\t// in\n    tag_50:\n      mload(0x40)\n      dup1\n      swap2\n      sub\n      swap1\n      log1\n        /* \"trustless cross-chain/trading pair formation/deposit.sol\":1925:2154  {... */\n      pop\n        /* \"trustless cross-chain/trading pair formation/deposit.sol\":1911:2154  if (!isValid) {... */\n    tag_46:\n        /* \"trustless cross-chain/trading pair formation/deposit.sol\":1770:2160  {... */\n      pop\n        /* \"trustless cross-chain/trading pair formation/deposit.sol\":1722:2160  function triggerEvent(bytes32 depositId) public {... */\n      pop\n      jump\t// out\n        /* \"trustless cross-chain/trading pair formation/deposit.sol\":651:1171  function deposit(address token, string memory symbol, uint256 amount, uint256 blockNumber) public {... */\n    tag_23:\n        /* \"trustless cross-chain/trading pair formation/deposit.sol\":776:777  0 */\n      0x00\n        /* \"trustless cross-chain/trading pair formation/deposit.sol\":767:773  amount */\n      dup3\n        /* \"trustless cross-chain/trading pair formation/deposit.sol\":767:777  amount > 0 */\n      gt\n        /* \"trustless cross-chain/trading pair formation/deposit.sol\":759:815  require(amount > 0, \"Amount must be greater than zero.\") */\n      tag_52\n      jumpi\n      mload(0x40)\n      0x08c379a000000000000000000000000000000000000000000000000000000000\n      dup2\n      mstore\n      0x04\n      add\n      tag_53\n      swap1\n      tag_54\n      jump\t// in\n    tag_53:\n      mload(0x40)\n      dup1\n      swap2\n      sub\n      swap1\n      revert\n    tag_52:\n        /* \"trustless cross-chain/trading pair formation/deposit.sol\":825:890  IERC20(token).safeTransferFrom(msg.sender, address(this), amount) */\n      tag_55\n        /* \"trustless cross-chain/trading pair formation/deposit.sol\":856:866  msg.sender */\n      caller\n        /* \"trustless cross-chain/trading pair formation/deposit.sol\":876:880  this */\n      address\n        /* \"trustless cross-chain/trading pair formation/deposit.sol\":883:889  amount */\n      dup5\n        /* \"trustless cross-chain/trading pair formation/deposit.sol\":832:837  token */\n      dup8\n        /* \"trustless cross-chain/trading pair formation/deposit.sol\":825:855  IERC20(token).safeTransferFrom */\n      0xffffffffffffffffffffffffffffffffffffffff\n      and\n      tag_56\n      swap1\n        /* \"trustless cross-chain/trading pair formation/deposit.sol\":825:890  IERC20(token).safeTransferFrom(msg.sender, address(this), amount) */\n      swap4\n      swap3\n      swap2\n      swap1\n      0xffffffff\n      and\n      jump\t// in\n    tag_55:\n        /* \"trustless cross-chain/trading pair formation/deposit.sol\":901:918  bytes32 depositId */\n      0x00\n        /* \"trustless cross-chain/trading pair formation/deposit.sol\":948:958  msg.sender */\n      caller\n        /* \"trustless cross-chain/trading pair formation/deposit.sol\":960:966  symbol */\n      dup5\n        /* \"trustless cross-chain/trading pair formation/deposit.sol\":968:974  amount */\n      dup5\n        /* \"trustless cross-chain/trading pair formation/deposit.sol\":976:987  blockNumber */\n      dup5\n        /* \"trustless cross-chain/trading pair formation/deposit.sol\":931:988  abi.encodePacked(msg.sender, symbol, amount, blockNumber) */\n      add(0x20, mload(0x40))\n      tag_57\n      swap5\n      swap4\n      swap3\n      swap2\n      swap1\n      tag_58\n      jump\t// in\n    tag_57:\n      mload(0x40)\n      0x20\n      dup2\n      dup4\n      sub\n      sub\n      dup2\n      mstore\n      swap1\n      0x40\n      mstore\n        /* \"trustless cross-chain/trading pair formation/deposit.sol\":921:989  keccak256(abi.encodePacked(msg.sender, symbol, amount, blockNumber)) */\n      dup1\n      mload\n      swap1\n      0x20\n      add\n      keccak256\n        /* \"trustless cross-chain/trading pair formation/deposit.sol\":901:989  bytes32 depositId = keccak256(abi.encodePacked(msg.sender, symbol, amount, blockNumber)) */\n      swap1\n      pop\n        /* \"trustless cross-chain/trading pair formation/deposit.sol\":1021:1083  Deposit(msg.sender, symbol, amount, blockNumber, false, false) */\n      mload(0x40)\n      dup1\n      0xc0\n      add\n      0x40\n      mstore\n      dup1\n        /* \"trustless cross-chain/trading pair formation/deposit.sol\":1029:1039  msg.sender */\n      caller\n        /* \"trustless cross-chain/trading pair formation/deposit.sol\":1021:1083  Deposit(msg.sender, symbol, amount, blockNumber, false, false) */\n      0xffffffffffffffffffffffffffffffffffffffff\n      and\n      dup2\n      mstore\n      0x20\n      add\n        /* \"trustless cross-chain/trading pair formation/deposit.sol\":1041:1047  symbol */\n      dup6\n        /* \"trustless cross-chain/trading pair formation/deposit.sol\":1021:1083  Deposit(msg.sender, symbol, amount, blockNumber, false, false) */\n      dup2\n      mstore\n      0x20\n      add\n        /* \"trustless cross-chain/trading pair formation/deposit.sol\":1049:1055  amount */\n      dup5\n        /* \"trustless cross-chain/trading pair formation/deposit.sol\":1021:1083  Deposit(msg.sender, symbol, amount, blockNumber, false, false) */\n      dup2\n      mstore\n      0x20\n      add\n        /* \"trustless cross-chain/trading pair formation/deposit.sol\":1057:1068  blockNumber */\n      dup4\n        /* \"trustless cross-chain/trading pair formation/deposit.sol\":1021:1083  Deposit(msg.sender, symbol, amount, blockNumber, false, false) */\n      dup2\n      mstore\n      0x20\n      add\n        /* \"trustless cross-chain/trading pair formation/deposit.sol\":1070:1075  false */\n      0x00\n        /* \"trustless cross-chain/trading pair formation/deposit.sol\":1021:1083  Deposit(msg.sender, symbol, amount, blockNumber, false, false) */\n      iszero\n      iszero\n      dup2\n      mstore\n      0x20\n      add\n        /* \"trustless cross-chain/trading pair formation/deposit.sol\":1077:1082  false */\n      0x00\n        /* \"trustless cross-chain/trading pair formation/deposit.sol\":1021:1083  Deposit(msg.sender, symbol, amount, blockNumber, false, false) */\n      iszero\n      iszero\n      dup2\n      mstore\n      pop\n        /* \"trustless cross-chain/trading pair formation/deposit.sol\":999:1007  deposits */\n      0x00\n        /* \"trustless cross-chain/trading pair formation/deposit.sol\":999:1018  deposits[depositId] */\n      dup1\n        /* \"trustless cross-chain/trading pair formation/deposit.sol\":1008:1017  depositId */\n      dup4\n        /* \"trustless cross-chain/trading pair formation/deposit.sol\":999:1018  deposits[depositId] */\n      dup2\n      mstore\n      0x20\n      add\n      swap1\n      dup2\n      mstore\n      0x20\n      add\n      0x00\n      keccak256\n        /* \"trustless cross-chain/trading pair formation/deposit.sol\":999:1083  deposits[depositId] = Deposit(msg.sender, symbol, amount, blockNumber, false, false) */\n      0x00\n      dup3\n      add\n      mload\n      dup2\n      0x00\n      add\n      exp(0x0100, 0x00)\n      dup2\n      sload\n      dup2\n      0xffffffffffffffffffffffffffffffffffffffff\n      mul\n      not\n      and\n      swap1\n      dup4\n      0xffffffffffffffffffffffffffffffffffffffff\n      and\n      mul\n      or\n      swap1\n      sstore\n      pop\n      0x20\n      dup3\n      add\n      mload\n      dup2\n      0x01\n      add\n      swap1\n      dup2\n      tag_59\n      swap2\n      swap1\n      tag_60\n      jump\t// in\n    tag_59:\n      pop\n      0x40\n      dup3\n      add\n      mload\n      dup2\n      0x02\n      add\n      sstore\n      0x60\n      dup3\n      add\n      mload\n      dup2\n      0x03\n      add\n      sstore\n      0x80\n      dup3\n      add\n      mload\n      dup2\n      0x04\n      add\n      exp(0x0100, 0x00)\n      dup2\n      sload\n      dup2\n      0xff\n      mul\n      not\n      and\n      swap1\n      dup4\n      iszero\n      iszero\n      mul\n      or\n      swap1\n      sstore\n      pop\n      0xa0\n      dup3\n      add\n      mload\n      dup2\n      0x04\n      add\n      exp(0x0100, 0x01)\n      dup2\n      sload\n      dup2\n      0xff\n      mul\n      not\n      and\n      swap1\n      dup4\n      iszero\n      iszero\n      mul\n      or\n      swap1\n      sstore\n      pop\n      swap1\n      pop\n      pop\n        /* \"trustless cross-chain/trading pair formation/deposit.sol\":1124:1134  msg.sender */\n      caller\n        /* \"trustless cross-chain/trading pair formation/deposit.sol\":1099:1164  DepositLocked(depositId, msg.sender, symbol, amount, blockNumber) */\n      0xffffffffffffffffffffffffffffffffffffffff\n      and\n      0xa1cff1b2f4bcfbf6eeee2c1d4fd6de1249eeaa035f878bd93899dc7a8348b6\n        /* \"trustless cross-chain/trading pair formation/deposit.sol\":1113:1122  depositId */\n      dup3\n        /* \"trustless cross-chain/trading pair formation/deposit.sol\":1136:1142  symbol */\n      dup7\n        /* \"trustless cross-chain/trading pair formation/deposit.sol\":1144:1150  amount */\n      dup7\n        /* \"trustless cross-chain/trading pair formation/deposit.sol\":1152:1163  blockNumber */\n      dup7\n        /* \"trustless cross-chain/trading pair formation/deposit.sol\":1099:1164  DepositLocked(depositId, msg.sender, symbol, amount, blockNumber) */\n      mload(0x40)\n      tag_61\n      swap5\n      swap4\n      swap3\n      swap2\n      swap1\n      tag_62\n      jump\t// in\n    tag_61:\n      mload(0x40)\n      dup1\n      swap2\n      sub\n      swap1\n      log2\n        /* \"trustless cross-chain/trading pair formation/deposit.sol\":749:1171  {... */\n      pop\n        /* \"trustless cross-chain/trading pair formation/deposit.sol\":651:1171  function deposit(address token, string memory symbol, uint256 amount, uint256 blockNumber) public {... */\n      pop\n      pop\n      pop\n      pop\n      jump\t// out\n        /* \"@openzeppelin/contracts/token/ERC20/utils/SafeERC20.sol\":763:968  function safeTransfer(... */\n    tag_36:\n        /* \"@openzeppelin/contracts/token/ERC20/utils/SafeERC20.sol\":875:961  _callOptionalReturn(token, abi.encodeWithSelector(token.transfer.selector, to, value)) */\n      tag_64\n        /* \"@openzeppelin/contracts/token/ERC20/utils/SafeERC20.sol\":895:900  token */\n      dup4\n        /* \"@openzeppelin/contracts/token/ERC20/utils/SafeERC20.sol\":925:948  token.transfer.selector */\n      shl(0xe0, 0xa9059cbb)\n        /* \"@openzeppelin/contracts/token/ERC20/utils/SafeERC20.sol\":950:952  to */\n      dup5\n        /* \"@openzeppelin/contracts/token/ERC20/utils/SafeERC20.sol\":954:959  value */\n      dup5\n        /* \"@openzeppelin/contracts/token/ERC20/utils/SafeERC20.sol\":902:960  abi.encodeWithSelector(token.transfer.selector, to, value) */\n      add(0x24, mload(0x40))\n      tag_65\n      swap3\n      swap2\n      swap1\n      tag_66\n      jump\t// in\n    tag_65:\n      mload(0x40)\n      0x20\n      dup2\n      dup4\n      sub\n      sub\n      dup2\n      mstore\n      swap1\n      0x40\n      mstore\n      swap1\n      not(0xffffffffffffffffffffffffffffffffffffffffffffffffffffffff)\n      and\n      0x20\n      dup3\n      add\n      dup1\n      mload\n      0xffffffffffffffffffffffffffffffffffffffffffffffffffffffff\n      dup4\n      dup2\n      dup4\n      and\n      or\n      dup4\n      mstore\n      pop\n      pop\n      pop\n      pop\n        /* \"@openzeppelin/contracts/token/ERC20/utils/SafeERC20.sol\":875:894  _callOptionalReturn */\n      tag_67\n        /* \"@openzeppelin/contracts/token/ERC20/utils/SafeERC20.sol\":875:961  _callOptionalReturn(token, abi.encodeWithSelector(token.transfer.selector, to, value)) */\n      jump\t// in\n    tag_64:\n        /* \"@openzeppelin/contracts/token/ERC20/utils/SafeERC20.sol\":763:968  function safeTransfer(... */\n      pop\n      pop\n      pop\n      jump\t// out\n        /* \"@openzeppelin/contracts/token/ERC20/utils/SafeERC20.sol\":974:1215  function safeTransferFrom(... */\n    tag_56:\n        /* \"@openzeppelin/contracts/token/ERC20/utils/SafeERC20.sol\":1112:1208  _callOptionalReturn(token, abi.encodeWithSelector(token.transferFrom.selector, from, to, value)) */\n      tag_69\n        /* \"@openzeppelin/contracts/token/ERC20/utils/SafeERC20.sol\":1132:1137  token */\n      dup5\n        /* \"@openzeppelin/contracts/token/ERC20/utils/SafeERC20.sol\":1162:1189  token.transferFrom.selector */\n      shl(0xe0, 0x23b872dd)\n        /* \"@openzeppelin/contracts/token/ERC20/utils/SafeERC20.sol\":1191:1195  from */\n      dup6\n        /* \"@openzeppelin/contracts/token/ERC20/utils/SafeERC20.sol\":1197:1199  to */\n      dup6\n        /* \"@openzeppelin/contracts/token/ERC20/utils/SafeERC20.sol\":1201:1206  value */\n      dup6\n        /* \"@openzeppelin/contracts/token/ERC20/utils/SafeERC20.sol\":1139:1207  abi.encodeWithSelector(token.transferFrom.selector, from, to, value) */\n      add(0x24, mload(0x40))\n      tag_70\n      swap4\n      swap3\n      swap2\n      swap1\n      tag_71\n      jump\t// in\n    tag_70:\n      mload(0x40)\n      0x20\n      dup2\n      dup4\n      sub\n      sub\n      dup2\n      mstore\n      swap1\n      0x40\n      mstore\n      swap1\n      not(0xffffffffffffffffffffffffffffffffffffffffffffffffffffffff)\n      and\n      0x20\n      dup3\n      add\n      dup1\n      mload\n      0xffffffffffffffffffffffffffffffffffffffffffffffffffffffff\n      dup4\n      dup2\n      dup4\n      and\n      or\n      dup4\n      mstore\n      pop\n      pop\n      pop\n      pop\n        /* \"@openzeppelin/contracts/token/ERC20/utils/SafeERC20.sol\":1112:1131  _callOptionalReturn */\n      tag_67\n        /* \"@openzeppelin/contracts/token/ERC20/utils/SafeERC20.sol\":1112:1208  _callOptionalReturn(token, abi.encodeWithSelector(token.transferFrom.selector, from, to, value)) */\n      jump\t// in\n    tag_69:\n        /* \"@openzeppelin/contracts/token/ERC20/utils/SafeERC20.sol\":974:1215  function safeTransferFrom(... */\n      pop\n      pop\n      pop\n      pop\n      jump\t// out\n        /* \"@openzeppelin/contracts/token/ERC20/utils/SafeERC20.sol\":3747:4453  function _callOptionalReturn(IERC20 token, bytes memory data) private {... */\n    tag_67:\n        /* \"@openzeppelin/contracts/token/ERC20/utils/SafeERC20.sol\":4166:4189  bytes memory returndata */\n      0x00\n        /* \"@openzeppelin/contracts/token/ERC20/utils/SafeERC20.sol\":4192:4261  address(token).functionCall(data, \"SafeERC20: low-level call failed\") */\n      tag_73\n        /* \"@openzeppelin/contracts/token/ERC20/utils/SafeERC20.sol\":4220:4224  data */\n      dup3\n        /* \"@openzeppelin/contracts/token/ERC20/utils/SafeERC20.sol\":4192:4261  address(token).functionCall(data, \"SafeERC20: low-level call failed\") */\n      mload(0x40)\n      dup1\n      0x40\n      add\n      0x40\n      mstore\n      dup1\n      0x20\n      dup2\n      mstore\n      0x20\n      add\n      0x5361666545524332303a206c6f772d6c6576656c2063616c6c206661696c6564\n      dup2\n      mstore\n      pop\n        /* \"@openzeppelin/contracts/token/ERC20/utils/SafeERC20.sol\":4200:4205  token */\n      dup6\n        /* \"@openzeppelin/contracts/token/ERC20/utils/SafeERC20.sol\":4192:4219  address(token).functionCall */\n      0xffffffffffffffffffffffffffffffffffffffff\n      and\n      tag_74\n      swap1\n        /* \"@openzeppelin/contracts/token/ERC20/utils/SafeERC20.sol\":4192:4261  address(token).functionCall(data, \"SafeERC20: low-level call failed\") */\n      swap3\n      swap2\n      swap1\n      0xffffffff\n      and\n      jump\t// in\n    tag_73:\n        /* \"@openzeppelin/contracts/token/ERC20/utils/SafeERC20.sol\":4166:4261  bytes memory returndata = address(token).functionCall(data, \"SafeERC20: low-level call failed\") */\n      swap1\n      pop\n        /* \"@openzeppelin/contracts/token/ERC20/utils/SafeERC20.sol\":4295:4296  0 */\n      0x00\n        /* \"@openzeppelin/contracts/token/ERC20/utils/SafeERC20.sol\":4275:4285  returndata */\n      dup2\n        /* \"@openzeppelin/contracts/token/ERC20/utils/SafeERC20.sol\":4275:4292  returndata.length */\n      mload\n        /* \"@openzeppelin/contracts/token/ERC20/utils/SafeERC20.sol\":4275:4296  returndata.length > 0 */\n      gt\n        /* \"@openzeppelin/contracts/token/ERC20/utils/SafeERC20.sol\":4271:4447  if (returndata.length > 0) {... */\n      iszero\n      tag_75\n      jumpi\n        /* \"@openzeppelin/contracts/token/ERC20/utils/SafeERC20.sol\":4370:4380  returndata */\n      dup1\n        /* \"@openzeppelin/contracts/token/ERC20/utils/SafeERC20.sol\":4359:4389  abi.decode(returndata, (bool)) */\n      dup1\n      0x20\n      add\n      swap1\n      mload\n      dup2\n      add\n      swap1\n      tag_76\n      swap2\n      swap1\n      tag_77\n      jump\t// in\n    tag_76:\n        /* \"@openzeppelin/contracts/token/ERC20/utils/SafeERC20.sol\":4351:4436  require(abi.decode(returndata, (bool)), \"SafeERC20: ERC20 operation did not succeed\") */\n      tag_78\n      jumpi\n      mload(0x40)\n      0x08c379a000000000000000000000000000000000000000000000000000000000\n      dup2\n      mstore\n      0x04\n      add\n      tag_79\n      swap1\n      tag_80\n      jump\t// in\n    tag_79:\n      mload(0x40)\n      dup1\n      swap2\n      sub\n      swap1\n      revert\n    tag_78:\n        /* \"@openzeppelin/contracts/token/ERC20/utils/SafeERC20.sol\":4271:4447  if (returndata.length > 0) {... */\n    tag_75:\n        /* \"@openzeppelin/contracts/token/ERC20/utils/SafeERC20.sol\":3817:4453  {... */\n      pop\n        /* \"@openzeppelin/contracts/token/ERC20/utils/SafeERC20.sol\":3747:4453  function _callOptionalReturn(IERC20 token, bytes memory data) private {... */\n      pop\n      pop\n      jump\t// out\n        /* \"@openzeppelin/contracts/utils/Address.sol\":3873:4096  function functionCall(... */\n    tag_74:\n        /* \"@openzeppelin/contracts/utils/Address.sol\":4006:4018  bytes memory */\n      0x60\n        /* \"@openzeppelin/contracts/utils/Address.sol\":4037:4089  functionCallWithValue(target, data, 0, errorMessage) */\n      tag_82\n        /* \"@openzeppelin/contracts/utils/Address.sol\":4059:4065  target */\n      dup5\n        /* \"@openzeppelin/contracts/utils/Address.sol\":4067:4071  data */\n      dup5\n        /* \"@openzeppelin/contracts/utils/Address.sol\":4073:4074  0 */\n      0x00\n        /* \"@openzeppelin/contracts/utils/Address.sol\":4076:4088  errorMessage */\n      dup6\n        /* \"@openzeppelin/contracts/utils/Address.sol\":4037:4058  functionCallWithValue */\n      tag_83\n        /* \"@openzeppelin/contracts/utils/Address.sol\":4037:4089  functionCallWithValue(target, data, 0, errorMessage) */\n      jump\t// in\n    tag_82:\n        /* \"@openzeppelin/contracts/utils/Address.sol\":4030:4089  return functionCallWithValue(target, data, 0, errorMessage) */\n      swap1\n      pop\n        /* \"@openzeppelin/contracts/utils/Address.sol\":3873:4096  function functionCall(... */\n      swap4\n      swap3\n      pop\n      pop\n      pop\n      jump\t// out\n        /* \"@openzeppelin/contracts/utils/Address.sol\":4960:5406  function functionCallWithValue(... */\n    tag_83:\n        /* \"@openzeppelin/contracts/utils/Address.sol\":5125:5137  bytes memory */\n      0x60\n        /* \"@openzeppelin/contracts/utils/Address.sol\":5182:5187  value */\n      dup3\n        /* \"@openzeppelin/contracts/utils/Address.sol\":5157:5178  address(this).balance */\n      selfbalance\n        /* \"@openzeppelin/contracts/utils/Address.sol\":5157:5187  address(this).balance >= value */\n      lt\n      iszero\n        /* \"@openzeppelin/contracts/utils/Address.sol\":5149:5230  require(address(this).balance >= value, \"Address: insufficient balance for call\") */\n      tag_85\n      jumpi\n      mload(0x40)\n      0x08c379a000000000000000000000000000000000000000000000000000000000\n      dup2\n      mstore\n      0x04\n      add\n      tag_86\n      swap1\n      tag_87\n      jump\t// in\n    tag_86:\n      mload(0x40)\n      dup1\n      swap2\n      sub\n      swap1\n      revert\n    tag_85:\n        /* \"@openzeppelin/contracts/utils/Address.sol\":5241:5253  bool success */\n      0x00\n        /* \"@openzeppelin/contracts/utils/Address.sol\":5255:5278  bytes memory returndata */\n      dup1\n        /* \"@openzeppelin/contracts/utils/Address.sol\":5282:5288  target */\n      dup7\n        /* \"@openzeppelin/contracts/utils/Address.sol\":5282:5293  target.call */\n      0xffffffffffffffffffffffffffffffffffffffff\n      and\n        /* \"@openzeppelin/contracts/utils/Address.sol\":5301:5306  value */\n      dup6\n        /* \"@openzeppelin/contracts/utils/Address.sol\":5308:5312  data */\n      dup8\n        /* \"@openzeppelin/contracts/utils/Address.sol\":5282:5313  target.call{value: value}(data) */\n      mload(0x40)\n      tag_88\n      swap2\n      swap1\n      tag_89\n      jump\t// in\n    tag_88:\n      0x00\n      mload(0x40)\n      dup1\n      dup4\n      sub\n      dup2\n      dup6\n      dup8\n      gas\n      call\n      swap3\n      pop\n      pop\n      pop\n      returndatasize\n      dup1\n      0x00\n      dup2\n      eq\n      tag_92\n      jumpi\n      mload(0x40)\n      swap2\n      pop\n      and(add(returndatasize, 0x3f), not(0x1f))\n      dup3\n      add\n      0x40\n      mstore\n      returndatasize\n      dup3\n      mstore\n      returndatasize\n      0x00\n      0x20\n      dup5\n      add\n      returndatacopy\n      jump(tag_91)\n    tag_92:\n      0x60\n      swap2\n      pop\n    tag_91:\n      pop\n        /* \"@openzeppelin/contracts/utils/Address.sol\":5240:5313  (bool success, bytes memory returndata) = target.call{value: value}(data) */\n      swap2\n      pop\n      swap2\n      pop\n        /* \"@openzeppelin/contracts/utils/Address.sol\":5330:5399  verifyCallResultFromTarget(target, success, returndata, errorMessage) */\n      tag_93\n        /* \"@openzeppelin/contracts/utils/Address.sol\":5357:5363  target */\n      dup8\n        /* \"@openzeppelin/contracts/utils/Address.sol\":5365:5372  success */\n      dup4\n        /* \"@openzeppelin/contracts/utils/Address.sol\":5374:5384  returndata */\n      dup4\n        /* \"@openzeppelin/contracts/utils/Address.sol\":5386:5398  errorMessage */\n      dup8\n        /* \"@openzeppelin/contracts/utils/Address.sol\":5330:5356  verifyCallResultFromTarget */\n      tag_94\n        /* \"@openzeppelin/contracts/utils/Address.sol\":5330:5399  verifyCallResultFromTarget(target, success, returndata, errorMessage) */\n      jump\t// in\n    tag_93:\n        /* \"@openzeppelin/contracts/utils/Address.sol\":5323:5399  return verifyCallResultFromTarget(target, success, returndata, errorMessage) */\n      swap3\n      pop\n      pop\n      pop\n        /* \"@openzeppelin/contracts/utils/Address.sol\":4960:5406  function functionCallWithValue(... */\n      swap5\n      swap4\n      pop\n      pop\n      pop\n      pop\n      jump\t// out\n        /* \"@openzeppelin/contracts/utils/Address.sol\":7466:8094  function verifyCallResultFromTarget(... */\n    tag_94:\n        /* \"@openzeppelin/contracts/utils/Address.sol\":7646:7658  bytes memory */\n      0x60\n        /* \"@openzeppelin/contracts/utils/Address.sol\":7674:7681  success */\n      dup4\n        /* \"@openzeppelin/contracts/utils/Address.sol\":7670:8088  if (success) {... */\n      iszero\n      tag_96\n      jumpi\n        /* \"@openzeppelin/contracts/utils/Address.sol\":7722:7723  0 */\n      0x00\n        /* \"@openzeppelin/contracts/utils/Address.sol\":7701:7711  returndata */\n      dup4\n        /* \"@openzeppelin/contracts/utils/Address.sol\":7701:7718  returndata.length */\n      mload\n        /* \"@openzeppelin/contracts/utils/Address.sol\":7701:7723  returndata.length == 0 */\n      sub\n        /* \"@openzeppelin/contracts/utils/Address.sol\":7697:7983  if (returndata.length == 0) {... */\n      tag_97\n      jumpi\n        /* \"@openzeppelin/contracts/utils/Address.sol\":7916:7934  isContract(target) */\n      tag_98\n        /* \"@openzeppelin/contracts/utils/Address.sol\":7927:7933  target */\n      dup6\n        /* \"@openzeppelin/contracts/utils/Address.sol\":7916:7926  isContract */\n      tag_99\n        /* \"@openzeppelin/contracts/utils/Address.sol\":7916:7934  isContract(target) */\n      jump\t// in\n    tag_98:\n        /* \"@openzeppelin/contracts/utils/Address.sol\":7908:7968  require(isContract(target), \"Address: call to non-contract\") */\n      tag_100\n      jumpi\n      mload(0x40)\n      0x08c379a000000000000000000000000000000000000000000000000000000000\n      dup2\n      mstore\n      0x04\n      add\n      tag_101\n      swap1\n      tag_102\n      jump\t// in\n    tag_101:\n      mload(0x40)\n      dup1\n      swap2\n      sub\n      swap1\n      revert\n    tag_100:\n        /* \"@openzeppelin/contracts/utils/Address.sol\":7697:7983  if (returndata.length == 0) {... */\n    tag_97:\n        /* \"@openzeppelin/contracts/utils/Address.sol\":8003:8013  returndata */\n      dup3\n        /* \"@openzeppelin/contracts/utils/Address.sol\":7996:8013  return returndata */\n      swap1\n      pop\n      jump(tag_95)\n        /* \"@openzeppelin/contracts/utils/Address.sol\":7670:8088  if (success) {... */\n    tag_96:\n        /* \"@openzeppelin/contracts/utils/Address.sol\":8044:8077  _revert(returndata, errorMessage) */\n      tag_104\n        /* \"@openzeppelin/contracts/utils/Address.sol\":8052:8062  returndata */\n      dup4\n        /* \"@openzeppelin/contracts/utils/Address.sol\":8064:8076  errorMessage */\n      dup4\n        /* \"@openzeppelin/contracts/utils/Address.sol\":8044:8051  _revert */\n      tag_105\n        /* \"@openzeppelin/contracts/utils/Address.sol\":8044:8077  _revert(returndata, errorMessage) */\n      jump\t// in\n    tag_104:\n        /* \"@openzeppelin/contracts/utils/Address.sol\":7466:8094  function verifyCallResultFromTarget(... */\n    tag_95:\n      swap5\n      swap4\n      pop\n      pop\n      pop\n      pop\n      jump\t// out\n        /* \"@openzeppelin/contracts/utils/Address.sol\":1175:1495  function isContract(address account) internal view returns (bool) {... */\n    tag_99:\n        /* \"@openzeppelin/contracts/utils/Address.sol\":1235:1239  bool */\n      0x00\n        /* \"@openzeppelin/contracts/utils/Address.sol\":1487:1488  0 */\n      dup1\n        /* \"@openzeppelin/contracts/utils/Address.sol\":1465:1472  account */\n      dup3\n        /* \"@openzeppelin/contracts/utils/Address.sol\":1465:1484  account.code.length */\n      0xffffffffffffffffffffffffffffffffffffffff\n      and\n      extcodesize\n        /* \"@openzeppelin/contracts/utils/Address.sol\":1465:1488  account.code.length > 0 */\n      gt\n        /* \"@openzeppelin/contracts/utils/Address.sol\":1458:1488  return account.code.length > 0 */\n      swap1\n      pop\n        /* \"@openzeppelin/contracts/utils/Address.sol\":1175:1495  function isContract(address account) internal view returns (bool) {... */\n      swap2\n      swap1\n      pop\n      jump\t// out\n        /* \"@openzeppelin/contracts/utils/Address.sol\":8616:9156  function _revert(bytes memory returndata, string memory errorMessage) private pure {... */\n    tag_105:\n        /* \"@openzeppelin/contracts/utils/Address.sol\":8795:8796  0 */\n      0x00\n        /* \"@openzeppelin/contracts/utils/Address.sol\":8775:8785  returndata */\n      dup3\n        /* \"@openzeppelin/contracts/utils/Address.sol\":8775:8792  returndata.length */\n      mload\n        /* \"@openzeppelin/contracts/utils/Address.sol\":8775:8796  returndata.length > 0 */\n      gt\n        /* \"@openzeppelin/contracts/utils/Address.sol\":8771:9150  if (returndata.length > 0) {... */\n      iszero\n      tag_108\n      jumpi\n        /* \"@openzeppelin/contracts/utils/Address.sol\":9003:9013  returndata */\n      dup2\n        /* \"@openzeppelin/contracts/utils/Address.sol\":8997:9014  mload(returndata) */\n      mload\n        /* \"@openzeppelin/contracts/utils/Address.sol\":9059:9074  returndata_size */\n      dup1\n        /* \"@openzeppelin/contracts/utils/Address.sol\":9046:9056  returndata */\n      dup4\n        /* \"@openzeppelin/contracts/utils/Address.sol\":9042:9044  32 */\n      0x20\n        /* \"@openzeppelin/contracts/utils/Address.sol\":9038:9057  add(32, returndata) */\n      add\n        /* \"@openzeppelin/contracts/utils/Address.sol\":9031:9075  revert(add(32, returndata), returndata_size) */\n      revert\n        /* \"@openzeppelin/contracts/utils/Address.sol\":8771:9150  if (returndata.length > 0) {... */\n    tag_108:\n        /* \"@openzeppelin/contracts/utils/Address.sol\":9126:9138  errorMessage */\n      dup1\n        /* \"@openzeppelin/contracts/utils/Address.sol\":9119:9139  revert(errorMessage) */\n      mload(0x40)\n      0x08c379a000000000000000000000000000000000000000000000000000000000\n      dup2\n      mstore\n      0x04\n      add\n      tag_110\n      swap2\n      swap1\n      tag_111\n      jump\t// in\n    tag_110:\n      mload(0x40)\n      dup1\n      swap2\n      sub\n      swap1\n      revert\n        /* \"#utility.yul\":7:82   */\n    tag_112:\n        /* \"#utility.yul\":40:46   */\n      0x00\n        /* \"#utility.yul\":73:75   */\n      0x40\n        /* \"#utility.yul\":67:76   */\n      mload\n        /* \"#utility.yul\":57:76   */\n      swap1\n      pop\n        /* \"#utility.yul\":7:82   */\n      swap1\n      jump\t// out\n        /* \"#utility.yul\":88:205   */\n    tag_113:\n        /* \"#utility.yul\":197:198   */\n      0x00\n        /* \"#utility.yul\":194:195   */\n      dup1\n        /* \"#utility.yul\":187:199   */\n      revert\n        /* \"#utility.yul\":211:328   */\n    tag_114:\n        /* \"#utility.yul\":320:321   */\n      0x00\n        /* \"#utility.yul\":317:318   */\n      dup1\n        /* \"#utility.yul\":310:322   */\n      revert\n        /* \"#utility.yul\":334:411   */\n    tag_115:\n        /* \"#utility.yul\":371:378   */\n      0x00\n        /* \"#utility.yul\":400:405   */\n      dup2\n        /* \"#utility.yul\":389:405   */\n      swap1\n      pop\n        /* \"#utility.yul\":334:411   */\n      swap2\n      swap1\n      pop\n      jump\t// out\n        /* \"#utility.yul\":417:539   */\n    tag_116:\n        /* \"#utility.yul\":490:514   */\n      tag_195\n        /* \"#utility.yul\":508:513   */\n      dup2\n        /* \"#utility.yul\":490:514   */\n      tag_115\n      jump\t// in\n    tag_195:\n        /* \"#utility.yul\":483:488   */\n      dup2\n        /* \"#utility.yul\":480:515   */\n      eq\n        /* \"#utility.yul\":470:533   */\n      tag_196\n      jumpi\n        /* \"#utility.yul\":529:530   */\n      0x00\n        /* \"#utility.yul\":526:527   */\n      dup1\n        /* \"#utility.yul\":519:531   */\n      revert\n        /* \"#utility.yul\":470:533   */\n    tag_196:\n        /* \"#utility.yul\":417:539   */\n      pop\n      jump\t// out\n        /* \"#utility.yul\":545:684   */\n    tag_117:\n        /* \"#utility.yul\":591:596   */\n      0x00\n        /* \"#utility.yul\":629:635   */\n      dup2\n        /* \"#utility.yul\":616:636   */\n      calldataload\n        /* \"#utility.yul\":607:636   */\n      swap1\n      pop\n        /* \"#utility.yul\":645:678   */\n      tag_198\n        /* \"#utility.yul\":672:677   */\n      dup2\n        /* \"#utility.yul\":645:678   */\n      tag_116\n      jump\t// in\n    tag_198:\n        /* \"#utility.yul\":545:684   */\n      swap3\n      swap2\n      pop\n      pop\n      jump\t// out\n        /* \"#utility.yul\":690:816   */\n    tag_118:\n        /* \"#utility.yul\":727:734   */\n      0x00\n        /* \"#utility.yul\":767:809   */\n      0xffffffffffffffffffffffffffffffffffffffff\n        /* \"#utility.yul\":760:765   */\n      dup3\n        /* \"#utility.yul\":756:810   */\n      and\n        /* \"#utility.yul\":745:810   */\n      swap1\n      pop\n        /* \"#utility.yul\":690:816   */\n      swap2\n      swap1\n      pop\n      jump\t// out\n        /* \"#utility.yul\":822:918   */\n    tag_119:\n        /* \"#utility.yul\":859:866   */\n      0x00\n        /* \"#utility.yul\":888:912   */\n      tag_201\n        /* \"#utility.yul\":906:911   */\n      dup3\n        /* \"#utility.yul\":888:912   */\n      tag_118\n      jump\t// in\n    tag_201:\n        /* \"#utility.yul\":877:912   */\n      swap1\n      pop\n        /* \"#utility.yul\":822:918   */\n      swap2\n      swap1\n      pop\n      jump\t// out\n        /* \"#utility.yul\":924:1046   */\n    tag_120:\n        /* \"#utility.yul\":997:1021   */\n      tag_203\n        /* \"#utility.yul\":1015:1020   */\n      dup2\n        /* \"#utility.yul\":997:1021   */\n      tag_119\n      jump\t// in\n    tag_203:\n        /* \"#utility.yul\":990:995   */\n      dup2\n        /* \"#utility.yul\":987:1022   */\n      eq\n        /* \"#utility.yul\":977:1040   */\n      tag_204\n      jumpi\n        /* \"#utility.yul\":1036:1037   */\n      0x00\n        /* \"#utility.yul\":1033:1034   */\n      dup1\n        /* \"#utility.yul\":1026:1038   */\n      revert\n        /* \"#utility.yul\":977:1040   */\n    tag_204:\n        /* \"#utility.yul\":924:1046   */\n      pop\n      jump\t// out\n        /* \"#utility.yul\":1052:1191   */\n    tag_121:\n        /* \"#utility.yul\":1098:1103   */\n      0x00\n        /* \"#utility.yul\":1136:1142   */\n      dup2\n        /* \"#utility.yul\":1123:1143   */\n      calldataload\n        /* \"#utility.yul\":1114:1143   */\n      swap1\n      pop\n        /* \"#utility.yul\":1152:1185   */\n      tag_206\n        /* \"#utility.yul\":1179:1184   */\n      dup2\n        /* \"#utility.yul\":1152:1185   */\n      tag_120\n      jump\t// in\n    tag_206:\n        /* \"#utility.yul\":1052:1191   */\n      swap3\n      swap2\n      pop\n      pop\n      jump\t// out\n        /* \"#utility.yul\":1197:1671   */\n    tag_9:\n        /* \"#utility.yul\":1265:1271   */\n      0x00\n        /* \"#utility.yul\":1273:1279   */\n      dup1\n        /* \"#utility.yul\":1322:1324   */\n      0x40\n        /* \"#utility.yul\":1310:1319   */\n      dup4\n        /* \"#utility.yul\":1301:1308   */\n      dup6\n        /* \"#utility.yul\":1297:1320   */\n      sub\n        /* \"#utility.yul\":1293:1325   */\n      slt\n        /* \"#utility.yul\":1290:1409   */\n      iszero\n      tag_208\n      jumpi\n        /* \"#utility.yul\":1328:1407   */\n      tag_209\n      tag_113\n      jump\t// in\n    tag_209:\n        /* \"#utility.yul\":1290:1409   */\n    tag_208:\n        /* \"#utility.yul\":1448:1449   */\n      0x00\n        /* \"#utility.yul\":1473:1526   */\n      tag_210\n        /* \"#utility.yul\":1518:1525   */\n      dup6\n        /* \"#utility.yul\":1509:1515   */\n      dup3\n        /* \"#utility.yul\":1498:1507   */\n      dup7\n        /* \"#utility.yul\":1494:1516   */\n      add\n        /* \"#utility.yul\":1473:1526   */\n      tag_117\n      jump\t// in\n    tag_210:\n        /* \"#utility.yul\":1463:1526   */\n      swap3\n      pop\n        /* \"#utility.yul\":1419:1536   */\n      pop\n        /* \"#utility.yul\":1575:1577   */\n      0x20\n        /* \"#utility.yul\":1601:1654   */\n      tag_211\n        /* \"#utility.yul\":1646:1653   */\n      dup6\n        /* \"#utility.yul\":1637:1643   */\n      dup3\n        /* \"#utility.yul\":1626:1635   */\n      dup7\n        /* \"#utility.yul\":1622:1644   */\n      add\n        /* \"#utility.yul\":1601:1654   */\n      tag_121\n      jump\t// in\n    tag_211:\n        /* \"#utility.yul\":1591:1654   */\n      swap2\n      pop\n        /* \"#utility.yul\":1546:1664   */\n      pop\n        /* \"#utility.yul\":1197:1671   */\n      swap3\n      pop\n      swap3\n      swap1\n      pop\n      jump\t// out\n        /* \"#utility.yul\":1677:2006   */\n    tag_13:\n        /* \"#utility.yul\":1736:1742   */\n      0x00\n        /* \"#utility.yul\":1785:1787   */\n      0x20\n        /* \"#utility.yul\":1773:1782   */\n      dup3\n        /* \"#utility.yul\":1764:1771   */\n      dup5\n        /* \"#utility.yul\":1760:1783   */\n      sub\n        /* \"#utility.yul\":1756:1788   */\n      slt\n        /* \"#utility.yul\":1753:1872   */\n      iszero\n      tag_213\n      jumpi\n        /* \"#utility.yul\":1791:1870   */\n      tag_214\n      tag_113\n      jump\t// in\n    tag_214:\n        /* \"#utility.yul\":1753:1872   */\n    tag_213:\n        /* \"#utility.yul\":1911:1912   */\n      0x00\n        /* \"#utility.yul\":1936:1989   */\n      tag_215\n        /* \"#utility.yul\":1981:1988   */\n      dup5\n        /* \"#utility.yul\":1972:1978   */\n      dup3\n        /* \"#utility.yul\":1961:1970   */\n      dup6\n        /* \"#utility.yul\":1957:1979   */\n      add\n        /* \"#utility.yul\":1936:1989   */\n      tag_117\n      jump\t// in\n    tag_215:\n        /* \"#utility.yul\":1926:1989   */\n      swap2\n      pop\n        /* \"#utility.yul\":1882:1999   */\n      pop\n        /* \"#utility.yul\":1677:2006   */\n      swap3\n      swap2\n      pop\n      pop\n      jump\t// out\n        /* \"#utility.yul\":2012:2130   */\n    tag_122:\n        /* \"#utility.yul\":2099:2123   */\n      tag_217\n        /* \"#utility.yul\":2117:2122   */\n      dup2\n        /* \"#utility.yul\":2099:2123   */\n      tag_119\n      jump\t// in\n    tag_217:\n        /* \"#utility.yul\":2094:2097   */\n      dup3\n        /* \"#utility.yul\":2087:2124   */\n      mstore\n        /* \"#utility.yul\":2012:2130   */\n      pop\n      pop\n      jump\t// out\n        /* \"#utility.yul\":2136:2235   */\n    tag_123:\n        /* \"#utility.yul\":2188:2194   */\n      0x00\n        /* \"#utility.yul\":2222:2227   */\n      dup2\n        /* \"#utility.yul\":2216:2228   */\n      mload\n        /* \"#utility.yul\":2206:2228   */\n      swap1\n      pop\n        /* \"#utility.yul\":2136:2235   */\n      swap2\n      swap1\n      pop\n      jump\t// out\n        /* \"#utility.yul\":2241:2410   */\n    tag_124:\n        /* \"#utility.yul\":2325:2336   */\n      0x00\n        /* \"#utility.yul\":2359:2365   */\n      dup3\n        /* \"#utility.yul\":2354:2357   */\n      dup3\n        /* \"#utility.yul\":2347:2366   */\n      mstore\n        /* \"#utility.yul\":2399:2403   */\n      0x20\n        /* \"#utility.yul\":2394:2397   */\n      dup3\n        /* \"#utility.yul\":2390:2404   */\n      add\n        /* \"#utility.yul\":2375:2404   */\n      swap1\n      pop\n        /* \"#utility.yul\":2241:2410   */\n      swap3\n      swap2\n      pop\n      pop\n      jump\t// out\n        /* \"#utility.yul\":2416:2555   */\n    tag_125:\n        /* \"#utility.yul\":2505:2511   */\n      dup3\n        /* \"#utility.yul\":2500:2503   */\n      dup2\n        /* \"#utility.yul\":2495:2498   */\n      dup4\n        /* \"#utility.yul\":2489:2512   */\n      mcopy\n        /* \"#utility.yul\":2546:2547   */\n      0x00\n        /* \"#utility.yul\":2537:2543   */\n      dup4\n        /* \"#utility.yul\":2532:2535   */\n      dup4\n        /* \"#utility.yul\":2528:2544   */\n      add\n        /* \"#utility.yul\":2521:2548   */\n      mstore\n        /* \"#utility.yul\":2416:2555   */\n      pop\n      pop\n      pop\n      jump\t// out\n        /* \"#utility.yul\":2561:2663   */\n    tag_126:\n        /* \"#utility.yul\":2602:2608   */\n      0x00\n        /* \"#utility.yul\":2653:2655   */\n      0x1f\n        /* \"#utility.yul\":2649:2656   */\n      not\n        /* \"#utility.yul\":2644:2646   */\n      0x1f\n        /* \"#utility.yul\":2637:2642   */\n      dup4\n        /* \"#utility.yul\":2633:2647   */\n      add\n        /* \"#utility.yul\":2629:2657   */\n      and\n        /* \"#utility.yul\":2619:2657   */\n      swap1\n      pop\n        /* \"#utility.yul\":2561:2663   */\n      swap2\n      swap1\n      pop\n      jump\t// out\n        /* \"#utility.yul\":2669:3046   */\n    tag_127:\n        /* \"#utility.yul\":2757:2760   */\n      0x00\n        /* \"#utility.yul\":2785:2824   */\n      tag_223\n        /* \"#utility.yul\":2818:2823   */\n      dup3\n        /* \"#utility.yul\":2785:2824   */\n      tag_123\n      jump\t// in\n    tag_223:\n        /* \"#utility.yul\":2840:2911   */\n      tag_224\n        /* \"#utility.yul\":2904:2910   */\n      dup2\n        /* \"#utility.yul\":2899:2902   */\n      dup6\n        /* \"#utility.yul\":2840:2911   */\n      tag_124\n      jump\t// in\n    tag_224:\n        /* \"#utility.yul\":2833:2911   */\n      swap4\n      pop\n        /* \"#utility.yul\":2920:2985   */\n      tag_225\n        /* \"#utility.yul\":2978:2984   */\n      dup2\n        /* \"#utility.yul\":2973:2976   */\n      dup6\n        /* \"#utility.yul\":2966:2970   */\n      0x20\n        /* \"#utility.yul\":2959:2964   */\n      dup7\n        /* \"#utility.yul\":2955:2971   */\n      add\n        /* \"#utility.yul\":2920:2985   */\n      tag_125\n      jump\t// in\n    tag_225:\n        /* \"#utility.yul\":3010:3039   */\n      tag_226\n        /* \"#utility.yul\":3032:3038   */\n      dup2\n        /* \"#utility.yul\":3010:3039   */\n      tag_126\n      jump\t// in\n    tag_226:\n        /* \"#utility.yul\":3005:3008   */\n      dup5\n        /* \"#utility.yul\":3001:3040   */\n      add\n        /* \"#utility.yul\":2994:3040   */\n      swap2\n      pop\n        /* \"#utility.yul\":2761:3046   */\n      pop\n        /* \"#utility.yul\":2669:3046   */\n      swap3\n      swap2\n      pop\n      pop\n      jump\t// out\n        /* \"#utility.yul\":3052:3129   */\n    tag_128:\n        /* \"#utility.yul\":3089:3096   */\n      0x00\n        /* \"#utility.yul\":3118:3123   */\n      dup2\n        /* \"#utility.yul\":3107:3123   */\n      swap1\n      pop\n        /* \"#utility.yul\":3052:3129   */\n      swap2\n      swap1\n      pop\n      jump\t// out\n        /* \"#utility.yul\":3135:3253   */\n    tag_129:\n        /* \"#utility.yul\":3222:3246   */\n      tag_229\n        /* \"#utility.yul\":3240:3245   */\n      dup2\n        /* \"#utility.yul\":3222:3246   */\n      tag_128\n      jump\t// in\n    tag_229:\n        /* \"#utility.yul\":3217:3220   */\n      dup3\n        /* \"#utility.yul\":3210:3247   */\n      mstore\n        /* \"#utility.yul\":3135:3253   */\n      pop\n      pop\n      jump\t// out\n        /* \"#utility.yul\":3259:3349   */\n    tag_130:\n        /* \"#utility.yul\":3293:3300   */\n      0x00\n        /* \"#utility.yul\":3336:3341   */\n      dup2\n        /* \"#utility.yul\":3329:3342   */\n      iszero\n        /* \"#utility.yul\":3322:3343   */\n      iszero\n        /* \"#utility.yul\":3311:3343   */\n      swap1\n      pop\n        /* \"#utility.yul\":3259:3349   */\n      swap2\n      swap1\n      pop\n      jump\t// out\n        /* \"#utility.yul\":3355:3464   */\n    tag_131:\n        /* \"#utility.yul\":3436:3457   */\n      tag_232\n        /* \"#utility.yul\":3451:3456   */\n      dup2\n        /* \"#utility.yul\":3436:3457   */\n      tag_130\n      jump\t// in\n    tag_232:\n        /* \"#utility.yul\":3431:3434   */\n      dup3\n        /* \"#utility.yul\":3424:3458   */\n      mstore\n        /* \"#utility.yul\":3355:3464   */\n      pop\n      pop\n      jump\t// out\n        /* \"#utility.yul\":3470:4312   */\n    tag_16:\n        /* \"#utility.yul\":3711:3715   */\n      0x00\n        /* \"#utility.yul\":3749:3752   */\n      0xc0\n        /* \"#utility.yul\":3738:3747   */\n      dup3\n        /* \"#utility.yul\":3734:3753   */\n      add\n        /* \"#utility.yul\":3726:3753   */\n      swap1\n      pop\n        /* \"#utility.yul\":3763:3834   */\n      tag_234\n        /* \"#utility.yul\":3831:3832   */\n      0x00\n        /* \"#utility.yul\":3820:3829   */\n      dup4\n        /* \"#utility.yul\":3816:3833   */\n      add\n        /* \"#utility.yul\":3807:3813   */\n      dup10\n        /* \"#utility.yul\":3763:3834   */\n      tag_122\n      jump\t// in\n    tag_234:\n        /* \"#utility.yul\":3881:3890   */\n      dup2\n        /* \"#utility.yul\":3875:3879   */\n      dup2\n        /* \"#utility.yul\":3871:3891   */\n      sub\n        /* \"#utility.yul\":3866:3868   */\n      0x20\n        /* \"#utility.yul\":3855:3864   */\n      dup4\n        /* \"#utility.yul\":3851:3869   */\n      add\n        /* \"#utility.yul\":3844:3892   */\n      mstore\n        /* \"#utility.yul\":3909:3987   */\n      tag_235\n        /* \"#utility.yul\":3982:3986   */\n      dup2\n        /* \"#utility.yul\":3973:3979   */\n      dup9\n        /* \"#utility.yul\":3909:3987   */\n      tag_127\n      jump\t// in\n    tag_235:\n        /* \"#utility.yul\":3901:3987   */\n      swap1\n      pop\n        /* \"#utility.yul\":3997:4069   */\n      tag_236\n        /* \"#utility.yul\":4065:4067   */\n      0x40\n        /* \"#utility.yul\":4054:4063   */\n      dup4\n        /* \"#utility.yul\":4050:4068   */\n      add\n        /* \"#utility.yul\":4041:4047   */\n      dup8\n        /* \"#utility.yul\":3997:4069   */\n      tag_129\n      jump\t// in\n    tag_236:\n        /* \"#utility.yul\":4079:4151   */\n      tag_237\n        /* \"#utility.yul\":4147:4149   */\n      0x60\n        /* \"#utility.yul\":4136:4145   */\n      dup4\n        /* \"#utility.yul\":4132:4150   */\n      add\n        /* \"#utility.yul\":4123:4129   */\n      dup7\n        /* \"#utility.yul\":4079:4151   */\n      tag_129\n      jump\t// in\n    tag_237:\n        /* \"#utility.yul\":4161:4228   */\n      tag_238\n        /* \"#utility.yul\":4223:4226   */\n      0x80\n        /* \"#utility.yul\":4212:4221   */\n      dup4\n        /* \"#utility.yul\":4208:4227   */\n      add\n        /* \"#utility.yul\":4199:4205   */\n      dup6\n        /* \"#utility.yul\":4161:4228   */\n      tag_131\n      jump\t// in\n    tag_238:\n        /* \"#utility.yul\":4238:4305   */\n      tag_239\n        /* \"#utility.yul\":4300:4303   */\n      0xa0\n        /* \"#utility.yul\":4289:4298   */\n      dup4\n        /* \"#utility.yul\":4285:4304   */\n      add\n        /* \"#utility.yul\":4276:4282   */\n      dup5\n        /* \"#utility.yul\":4238:4305   */\n      tag_131\n      jump\t// in\n    tag_239:\n        /* \"#utility.yul\":3470:4312   */\n      swap8\n      swap7\n      pop\n      pop\n      pop\n      pop\n      pop\n      pop\n      pop\n      jump\t// out\n        /* \"#utility.yul\":4318:4435   */\n    tag_132:\n        /* \"#utility.yul\":4427:4428   */\n      0x00\n        /* \"#utility.yul\":4424:4425   */\n      dup1\n        /* \"#utility.yul\":4417:4429   */\n      revert\n        /* \"#utility.yul\":4441:4558   */\n    tag_133:\n        /* \"#utility.yul\":4550:4551   */\n      0x00\n        /* \"#utility.yul\":4547:4548   */\n      dup1\n        /* \"#utility.yul\":4540:4552   */\n      revert\n        /* \"#utility.yul\":4564:4744   */\n    tag_134:\n        /* \"#utility.yul\":4612:4689   */\n      0x4e487b7100000000000000000000000000000000000000000000000000000000\n        /* \"#utility.yul\":4609:4610   */\n      0x00\n        /* \"#utility.yul\":4602:4690   */\n      mstore\n        /* \"#utility.yul\":4709:4713   */\n      0x41\n        /* \"#utility.yul\":4706:4707   */\n      0x04\n        /* \"#utility.yul\":4699:4714   */\n      mstore\n        /* \"#utility.yul\":4733:4737   */\n      0x24\n        /* \"#utility.yul\":4730:4731   */\n      0x00\n        /* \"#utility.yul\":4723:4738   */\n      revert\n        /* \"#utility.yul\":4750:5031   */\n    tag_135:\n        /* \"#utility.yul\":4833:4860   */\n      tag_244\n        /* \"#utility.yul\":4855:4859   */\n      dup3\n        /* \"#utility.yul\":4833:4860   */\n      tag_126\n      jump\t// in\n    tag_244:\n        /* \"#utility.yul\":4825:4831   */\n      dup2\n        /* \"#utility.yul\":4821:4861   */\n      add\n        /* \"#utility.yul\":4963:4969   */\n      dup2\n        /* \"#utility.yul\":4951:4961   */\n      dup2\n        /* \"#utility.yul\":4948:4970   */\n      lt\n        /* \"#utility.yul\":4927:4945   */\n      0xffffffffffffffff\n        /* \"#utility.yul\":4915:4925   */\n      dup3\n        /* \"#utility.yul\":4912:4946   */\n      gt\n        /* \"#utility.yul\":4909:4971   */\n      or\n        /* \"#utility.yul\":4906:4994   */\n      iszero\n      tag_245\n      jumpi\n        /* \"#utility.yul\":4974:4992   */\n      tag_246\n      tag_134\n      jump\t// in\n    tag_246:\n        /* \"#utility.yul\":4906:4994   */\n    tag_245:\n        /* \"#utility.yul\":5014:5024   */\n      dup1\n        /* \"#utility.yul\":5010:5012   */\n      0x40\n        /* \"#utility.yul\":5003:5025   */\n      mstore\n        /* \"#utility.yul\":4793:5031   */\n      pop\n        /* \"#utility.yul\":4750:5031   */\n      pop\n      pop\n      jump\t// out\n        /* \"#utility.yul\":5037:5166   */\n    tag_136:\n        /* \"#utility.yul\":5071:5077   */\n      0x00\n        /* \"#utility.yul\":5098:5118   */\n      tag_248\n      tag_112\n      jump\t// in\n    tag_248:\n        /* \"#utility.yul\":5088:5118   */\n      swap1\n      pop\n        /* \"#utility.yul\":5127:5160   */\n      tag_249\n        /* \"#utility.yul\":5155:5159   */\n      dup3\n        /* \"#utility.yul\":5147:5153   */\n      dup3\n        /* \"#utility.yul\":5127:5160   */\n      tag_135\n      jump\t// in\n    tag_249:\n        /* \"#utility.yul\":5037:5166   */\n      swap2\n      swap1\n      pop\n      jump\t// out\n        /* \"#utility.yul\":5172:5480   */\n    tag_137:\n        /* \"#utility.yul\":5234:5238   */\n      0x00\n        /* \"#utility.yul\":5324:5342   */\n      0xffffffffffffffff\n        /* \"#utility.yul\":5316:5322   */\n      dup3\n        /* \"#utility.yul\":5313:5343   */\n      gt\n        /* \"#utility.yul\":5310:5366   */\n      iszero\n      tag_251\n      jumpi\n        /* \"#utility.yul\":5346:5364   */\n      tag_252\n      tag_134\n      jump\t// in\n    tag_252:\n        /* \"#utility.yul\":5310:5366   */\n    tag_251:\n        /* \"#utility.yul\":5384:5413   */\n      tag_253\n        /* \"#utility.yul\":5406:5412   */\n      dup3\n        /* \"#utility.yul\":5384:5413   */\n      tag_126\n      jump\t// in\n    tag_253:\n        /* \"#utility.yul\":5376:5413   */\n      swap1\n      pop\n        /* \"#utility.yul\":5468:5472   */\n      0x20\n        /* \"#utility.yul\":5462:5466   */\n      dup2\n        /* \"#utility.yul\":5458:5473   */\n      add\n        /* \"#utility.yul\":5450:5473   */\n      swap1\n      pop\n        /* \"#utility.yul\":5172:5480   */\n      swap2\n      swap1\n      pop\n      jump\t// out\n        /* \"#utility.yul\":5486:5634   */\n    tag_138:\n        /* \"#utility.yul\":5584:5590   */\n      dup3\n        /* \"#utility.yul\":5579:5582   */\n      dup2\n        /* \"#utility.yul\":5574:5577   */\n      dup4\n        /* \"#utility.yul\":5561:5591   */\n      calldatacopy\n        /* \"#utility.yul\":5625:5626   */\n      0x00\n        /* \"#utility.yul\":5616:5622   */\n      dup4\n        /* \"#utility.yul\":5611:5614   */\n      dup4\n        /* \"#utility.yul\":5607:5623   */\n      add\n        /* \"#utility.yul\":5600:5627   */\n      mstore\n        /* \"#utility.yul\":5486:5634   */\n      pop\n      pop\n      pop\n      jump\t// out\n        /* \"#utility.yul\":5640:6065   */\n    tag_139:\n        /* \"#utility.yul\":5718:5723   */\n      0x00\n        /* \"#utility.yul\":5743:5809   */\n      tag_256\n        /* \"#utility.yul\":5759:5808   */\n      tag_257\n        /* \"#utility.yul\":5801:5807   */\n      dup5\n        /* \"#utility.yul\":5759:5808   */\n      tag_137\n      jump\t// in\n    tag_257:\n        /* \"#utility.yul\":5743:5809   */\n      tag_136\n      jump\t// in\n    tag_256:\n        /* \"#utility.yul\":5734:5809   */\n      swap1\n      pop\n        /* \"#utility.yul\":5832:5838   */\n      dup3\n        /* \"#utility.yul\":5825:5830   */\n      dup2\n        /* \"#utility.yul\":5818:5839   */\n      mstore\n        /* \"#utility.yul\":5870:5874   */\n      0x20\n        /* \"#utility.yul\":5863:5868   */\n      dup2\n        /* \"#utility.yul\":5859:5875   */\n      add\n        /* \"#utility.yul\":5908:5911   */\n      dup5\n        /* \"#utility.yul\":5899:5905   */\n      dup5\n        /* \"#utility.yul\":5894:5897   */\n      dup5\n        /* \"#utility.yul\":5890:5906   */\n      add\n        /* \"#utility.yul\":5887:5912   */\n      gt\n        /* \"#utility.yul\":5884:5996   */\n      iszero\n      tag_258\n      jumpi\n        /* \"#utility.yul\":5915:5994   */\n      tag_259\n      tag_133\n      jump\t// in\n    tag_259:\n        /* \"#utility.yul\":5884:5996   */\n    tag_258:\n        /* \"#utility.yul\":6005:6059   */\n      tag_260\n        /* \"#utility.yul\":6052:6058   */\n      dup5\n        /* \"#utility.yul\":6047:6050   */\n      dup3\n        /* \"#utility.yul\":6042:6045   */\n      dup6\n        /* \"#utility.yul\":6005:6059   */\n      tag_138\n      jump\t// in\n    tag_260:\n        /* \"#utility.yul\":5724:6065   */\n      pop\n        /* \"#utility.yul\":5640:6065   */\n      swap4\n      swap3\n      pop\n      pop\n      pop\n      jump\t// out\n        /* \"#utility.yul\":6085:6425   */\n    tag_140:\n        /* \"#utility.yul\":6141:6146   */\n      0x00\n        /* \"#utility.yul\":6190:6193   */\n      dup3\n        /* \"#utility.yul\":6183:6187   */\n      0x1f\n        /* \"#utility.yul\":6175:6181   */\n      dup4\n        /* \"#utility.yul\":6171:6188   */\n      add\n        /* \"#utility.yul\":6167:6194   */\n      slt\n        /* \"#utility.yul\":6157:6279   */\n      tag_262\n      jumpi\n        /* \"#utility.yul\":6198:6277   */\n      tag_263\n      tag_132\n      jump\t// in\n    tag_263:\n        /* \"#utility.yul\":6157:6279   */\n    tag_262:\n        /* \"#utility.yul\":6315:6321   */\n      dup2\n        /* \"#utility.yul\":6302:6322   */\n      calldataload\n        /* \"#utility.yul\":6340:6419   */\n      tag_264\n        /* \"#utility.yul\":6415:6418   */\n      dup5\n        /* \"#utility.yul\":6407:6413   */\n      dup3\n        /* \"#utility.yul\":6400:6404   */\n      0x20\n        /* \"#utility.yul\":6392:6398   */\n      dup7\n        /* \"#utility.yul\":6388:6405   */\n      add\n        /* \"#utility.yul\":6340:6419   */\n      tag_139\n      jump\t// in\n    tag_264:\n        /* \"#utility.yul\":6331:6419   */\n      swap2\n      pop\n        /* \"#utility.yul\":6147:6425   */\n      pop\n        /* \"#utility.yul\":6085:6425   */\n      swap3\n      swap2\n      pop\n      pop\n      jump\t// out\n        /* \"#utility.yul\":6431:6553   */\n    tag_141:\n        /* \"#utility.yul\":6504:6528   */\n      tag_266\n        /* \"#utility.yul\":6522:6527   */\n      dup2\n        /* \"#utility.yul\":6504:6528   */\n      tag_128\n      jump\t// in\n    tag_266:\n        /* \"#utility.yul\":6497:6502   */\n      dup2\n        /* \"#utility.yul\":6494:6529   */\n      eq\n        /* \"#utility.yul\":6484:6547   */\n      tag_267\n      jumpi\n        /* \"#utility.yul\":6543:6544   */\n      0x00\n        /* \"#utility.yul\":6540:6541   */\n      dup1\n        /* \"#utility.yul\":6533:6545   */\n      revert\n        /* \"#utility.yul\":6484:6547   */\n    tag_267:\n        /* \"#utility.yul\":6431:6553   */\n      pop\n      jump\t// out\n        /* \"#utility.yul\":6559:6698   */\n    tag_142:\n        /* \"#utility.yul\":6605:6610   */\n      0x00\n        /* \"#utility.yul\":6643:6649   */\n      dup2\n        /* \"#utility.yul\":6630:6650   */\n      calldataload\n        /* \"#utility.yul\":6621:6650   */\n      swap1\n      pop\n        /* \"#utility.yul\":6659:6692   */\n      tag_269\n        /* \"#utility.yul\":6686:6691   */\n      dup2\n        /* \"#utility.yul\":6659:6692   */\n      tag_141\n      jump\t// in\n    tag_269:\n        /* \"#utility.yul\":6559:6698   */\n      swap3\n      swap2\n      pop\n      pop\n      jump\t// out\n        /* \"#utility.yul\":6704:7649   */\n    tag_22:\n        /* \"#utility.yul\":6800:6806   */\n      0x00\n        /* \"#utility.yul\":6808:6814   */\n      dup1\n        /* \"#utility.yul\":6816:6822   */\n      0x00\n        /* \"#utility.yul\":6824:6830   */\n      dup1\n        /* \"#utility.yul\":6873:6876   */\n      0x80\n        /* \"#utility.yul\":6861:6870   */\n      dup6\n        /* \"#utility.yul\":6852:6859   */\n      dup8\n        /* \"#utility.yul\":6848:6871   */\n      sub\n        /* \"#utility.yul\":6844:6877   */\n      slt\n        /* \"#utility.yul\":6841:6961   */\n      iszero\n      tag_271\n      jumpi\n        /* \"#utility.yul\":6880:6959   */\n      tag_272\n      tag_113\n      jump\t// in\n    tag_272:\n        /* \"#utility.yul\":6841:6961   */\n    tag_271:\n        /* \"#utility.yul\":7000:7001   */\n      0x00\n        /* \"#utility.yul\":7025:7078   */\n      tag_273\n        /* \"#utility.yul\":7070:7077   */\n      dup8\n        /* \"#utility.yul\":7061:7067   */\n      dup3\n        /* \"#utility.yul\":7050:7059   */\n      dup9\n        /* \"#utility.yul\":7046:7068   */\n      add\n        /* \"#utility.yul\":7025:7078   */\n      tag_121\n      jump\t// in\n    tag_273:\n        /* \"#utility.yul\":7015:7078   */\n      swap5\n      pop\n        /* \"#utility.yul\":6971:7088   */\n      pop\n        /* \"#utility.yul\":7155:7157   */\n      0x20\n        /* \"#utility.yul\":7144:7153   */\n      dup6\n        /* \"#utility.yul\":7140:7158   */\n      add\n        /* \"#utility.yul\":7127:7159   */\n      calldataload\n        /* \"#utility.yul\":7186:7204   */\n      0xffffffffffffffff\n        /* \"#utility.yul\":7178:7184   */\n      dup2\n        /* \"#utility.yul\":7175:7205   */\n      gt\n        /* \"#utility.yul\":7172:7289   */\n      iszero\n      tag_274\n      jumpi\n        /* \"#utility.yul\":7208:7287   */\n      tag_275\n      tag_114\n      jump\t// in\n    tag_275:\n        /* \"#utility.yul\":7172:7289   */\n    tag_274:\n        /* \"#utility.yul\":7313:7376   */\n      tag_276\n        /* \"#utility.yul\":7368:7375   */\n      dup8\n        /* \"#utility.yul\":7359:7365   */\n      dup3\n        /* \"#utility.yul\":7348:7357   */\n      dup9\n        /* \"#utility.yul\":7344:7366   */\n      add\n        /* \"#utility.yul\":7313:7376   */\n      tag_140\n      jump\t// in\n    tag_276:\n        /* \"#utility.yul\":7303:7376   */\n      swap4\n      pop\n        /* \"#utility.yul\":7098:7386   */\n      pop\n        /* \"#utility.yul\":7425:7427   */\n      0x40\n        /* \"#utility.yul\":7451:7504   */\n      tag_277\n        /* \"#utility.yul\":7496:7503   */\n      dup8\n        /* \"#utility.yul\":7487:7493   */\n      dup3\n        /* \"#utility.yul\":7476:7485   */\n      dup9\n        /* \"#utility.yul\":7472:7494   */\n      add\n        /* \"#utility.yul\":7451:7504   */\n      tag_142\n      jump\t// in\n    tag_277:\n        /* \"#utility.yul\":7441:7504   */\n      swap3\n      pop\n        /* \"#utility.yul\":7396:7514   */\n      pop\n        /* \"#utility.yul\":7553:7555   */\n      0x60\n        /* \"#utility.yul\":7579:7632   */\n      tag_278\n        /* \"#utility.yul\":7624:7631   */\n      dup8\n        /* \"#utility.yul\":7615:7621   */\n      dup3\n        /* \"#utility.yul\":7604:7613   */\n      dup9\n        /* \"#utility.yul\":7600:7622   */\n      add\n        /* \"#utility.yul\":7579:7632   */\n      tag_142\n      jump\t// in\n    tag_278:\n        /* \"#utility.yul\":7569:7632   */\n      swap2\n      pop\n        /* \"#utility.yul\":7524:7642   */\n      pop\n        /* \"#utility.yul\":6704:7649   */\n      swap3\n      swap6\n      swap2\n      swap5\n      pop\n      swap3\n      pop\n      jump\t// out\n        /* \"#utility.yul\":7655:7831   */\n    tag_143:\n        /* \"#utility.yul\":7795:7823   */\n      0x4465706f73697420616c72656164792077697468647261776e2e000000000000\n        /* \"#utility.yul\":7791:7792   */\n      0x00\n        /* \"#utility.yul\":7783:7789   */\n      dup3\n        /* \"#utility.yul\":7779:7793   */\n      add\n        /* \"#utility.yul\":7772:7824   */\n      mstore\n        /* \"#utility.yul\":7655:7831   */\n      pop\n      jump\t// out\n        /* \"#utility.yul\":7837:8203   */\n    tag_144:\n        /* \"#utility.yul\":7979:7982   */\n      0x00\n        /* \"#utility.yul\":8000:8067   */\n      tag_281\n        /* \"#utility.yul\":8064:8066   */\n      0x1a\n        /* \"#utility.yul\":8059:8062   */\n      dup4\n        /* \"#utility.yul\":8000:8067   */\n      tag_124\n      jump\t// in\n    tag_281:\n        /* \"#utility.yul\":7993:8067   */\n      swap2\n      pop\n        /* \"#utility.yul\":8076:8169   */\n      tag_282\n        /* \"#utility.yul\":8165:8168   */\n      dup3\n        /* \"#utility.yul\":8076:8169   */\n      tag_143\n      jump\t// in\n    tag_282:\n        /* \"#utility.yul\":8194:8196   */\n      0x20\n        /* \"#utility.yul\":8189:8192   */\n      dup3\n        /* \"#utility.yul\":8185:8197   */\n      add\n        /* \"#utility.yul\":8178:8197   */\n      swap1\n      pop\n        /* \"#utility.yul\":7837:8203   */\n      swap2\n      swap1\n      pop\n      jump\t// out\n        /* \"#utility.yul\":8209:8628   */\n    tag_27:\n        /* \"#utility.yul\":8375:8379   */\n      0x00\n        /* \"#utility.yul\":8413:8415   */\n      0x20\n        /* \"#utility.yul\":8402:8411   */\n      dup3\n        /* \"#utility.yul\":8398:8416   */\n      add\n        /* \"#utility.yul\":8390:8416   */\n      swap1\n      pop\n        /* \"#utility.yul\":8462:8471   */\n      dup2\n        /* \"#utility.yul\":8456:8460   */\n      dup2\n        /* \"#utility.yul\":8452:8472   */\n      sub\n        /* \"#utility.yul\":8448:8449   */\n      0x00\n        /* \"#utility.yul\":8437:8446   */\n      dup4\n        /* \"#utility.yul\":8433:8450   */\n      add\n        /* \"#utility.yul\":8426:8473   */\n      mstore\n        /* \"#utility.yul\":8490:8621   */\n      tag_284\n        /* \"#utility.yul\":8616:8620   */\n      dup2\n        /* \"#utility.yul\":8490:8621   */\n      tag_144\n      jump\t// in\n    tag_284:\n        /* \"#utility.yul\":8482:8621   */\n      swap1\n      pop\n        /* \"#utility.yul\":8209:8628   */\n      swap2\n      swap1\n      pop\n      jump\t// out\n        /* \"#utility.yul\":8634:8865   */\n    tag_145:\n        /* \"#utility.yul\":8774:8808   */\n      0x4f6e6c7920746865206465706f7369746f722063616e20776974686472617720\n        /* \"#utility.yul\":8770:8771   */\n      0x00\n        /* \"#utility.yul\":8762:8768   */\n      dup3\n        /* \"#utility.yul\":8758:8772   */\n      add\n        /* \"#utility.yul\":8751:8809   */\n      mstore\n        /* \"#utility.yul\":8843:8857   */\n      0x746865206465706f7369742e0000000000000000000000000000000000000000\n        /* \"#utility.yul\":8838:8840   */\n      0x20\n        /* \"#utility.yul\":8830:8836   */\n      dup3\n        /* \"#utility.yul\":8826:8841   */\n      add\n        /* \"#utility.yul\":8819:8858   */\n      mstore\n        /* \"#utility.yul\":8634:8865   */\n      pop\n      jump\t// out\n        /* \"#utility.yul\":8871:9237   */\n    tag_146:\n        /* \"#utility.yul\":9013:9016   */\n      0x00\n        /* \"#utility.yul\":9034:9101   */\n      tag_287\n        /* \"#utility.yul\":9098:9100   */\n      0x2c\n        /* \"#utility.yul\":9093:9096   */\n      dup4\n        /* \"#utility.yul\":9034:9101   */\n      tag_124\n      jump\t// in\n    tag_287:\n        /* \"#utility.yul\":9027:9101   */\n      swap2\n      pop\n        /* \"#utility.yul\":9110:9203   */\n      tag_288\n        /* \"#utility.yul\":9199:9202   */\n      dup3\n        /* \"#utility.yul\":9110:9203   */\n      tag_145\n      jump\t// in\n    tag_288:\n        /* \"#utility.yul\":9228:9230   */\n      0x40\n        /* \"#utility.yul\":9223:9226   */\n      dup3\n        /* \"#utility.yul\":9219:9231   */\n      add\n        /* \"#utility.yul\":9212:9231   */\n      swap1\n      pop\n        /* \"#utility.yul\":8871:9237   */\n      swap2\n      swap1\n      pop\n      jump\t// out\n        /* \"#utility.yul\":9243:9662   */\n    tag_30:\n        /* \"#utility.yul\":9409:9413   */\n      0x00\n        /* \"#utility.yul\":9447:9449   */\n      0x20\n        /* \"#utility.yul\":9436:9445   */\n      dup3\n        /* \"#utility.yul\":9432:9450   */\n      add\n        /* \"#utility.yul\":9424:9450   */\n      swap1\n      pop\n        /* \"#utility.yul\":9496:9505   */\n      dup2\n        /* \"#utility.yul\":9490:9494   */\n      dup2\n        /* \"#utility.yul\":9486:9506   */\n      sub\n        /* \"#utility.yul\":9482:9483   */\n      0x00\n        /* \"#utility.yul\":9471:9480   */\n      dup4\n        /* \"#utility.yul\":9467:9484   */\n      add\n        /* \"#utility.yul\":9460:9507   */\n      mstore\n        /* \"#utility.yul\":9524:9655   */\n      tag_290\n        /* \"#utility.yul\":9650:9654   */\n      dup2\n        /* \"#utility.yul\":9524:9655   */\n      tag_146\n      jump\t// in\n    tag_290:\n        /* \"#utility.yul\":9516:9655   */\n      swap1\n      pop\n        /* \"#utility.yul\":9243:9662   */\n      swap2\n      swap1\n      pop\n      jump\t// out\n        /* \"#utility.yul\":9668:9889   */\n    tag_147:\n        /* \"#utility.yul\":9808:9842   */\n      0x436f6e646974696f6e7320666f72207769746864726177616c206e6f74206d65\n        /* \"#utility.yul\":9804:9805   */\n      0x00\n        /* \"#utility.yul\":9796:9802   */\n      dup3\n        /* \"#utility.yul\":9792:9806   */\n      add\n        /* \"#utility.yul\":9785:9843   */\n      mstore\n        /* \"#utility.yul\":9877:9881   */\n      0x742e000000000000000000000000000000000000000000000000000000000000\n        /* \"#utility.yul\":9872:9874   */\n      0x20\n        /* \"#utility.yul\":9864:9870   */\n      dup3\n        /* \"#utility.yul\":9860:9875   */\n      add\n        /* \"#utility.yul\":9853:9882   */\n      mstore\n        /* \"#utility.yul\":9668:9889   */\n      pop\n      jump\t// out\n        /* \"#utility.yul\":9895:10261   */\n    tag_148:\n        /* \"#utility.yul\":10037:10040   */\n      0x00\n        /* \"#utility.yul\":10058:10125   */\n      tag_293\n        /* \"#utility.yul\":10122:10124   */\n      0x22\n        /* \"#utility.yul\":10117:10120   */\n      dup4\n        /* \"#utility.yul\":10058:10125   */\n      tag_124\n      jump\t// in\n    tag_293:\n        /* \"#utility.yul\":10051:10125   */\n      swap2\n      pop\n        /* \"#utility.yul\":10134:10227   */\n      tag_294\n        /* \"#utility.yul\":10223:10226   */\n      dup3\n        /* \"#utility.yul\":10134:10227   */\n      tag_147\n      jump\t// in\n    tag_294:\n        /* \"#utility.yul\":10252:10254   */\n      0x40\n        /* \"#utility.yul\":10247:10250   */\n      dup3\n        /* \"#utility.yul\":10243:10255   */\n      add\n        /* \"#utility.yul\":10236:10255   */\n      swap1\n      pop\n        /* \"#utility.yul\":9895:10261   */\n      swap2\n      swap1\n      pop\n      jump\t// out\n        /* \"#utility.yul\":10267:10686   */\n    tag_34:\n        /* \"#utility.yul\":10433:10437   */\n      0x00\n        /* \"#utility.yul\":10471:10473   */\n      0x20\n        /* \"#utility.yul\":10460:10469   */\n      dup3\n        /* \"#utility.yul\":10456:10474   */\n      add\n        /* \"#utility.yul\":10448:10474   */\n      swap1\n      pop\n        /* \"#utility.yul\":10520:10529   */\n      dup2\n        /* \"#utility.yul\":10514:10518   */\n      dup2\n        /* \"#utility.yul\":10510:10530   */\n      sub\n        /* \"#utility.yul\":10506:10507   */\n      0x00\n        /* \"#utility.yul\":10495:10504   */\n      dup4\n        /* \"#utility.yul\":10491:10508   */\n      add\n        /* \"#utility.yul\":10484:10531   */\n      mstore\n        /* \"#utility.yul\":10548:10679   */\n      tag_296\n        /* \"#utility.yul\":10674:10678   */\n      dup2\n        /* \"#utility.yul\":10548:10679   */\n      tag_148\n      jump\t// in\n    tag_296:\n        /* \"#utility.yul\":10540:10679   */\n      swap1\n      pop\n        /* \"#utility.yul\":10267:10686   */\n      swap2\n      swap1\n      pop\n      jump\t// out\n        /* \"#utility.yul\":10692:10810   */\n    tag_149:\n        /* \"#utility.yul\":10779:10803   */\n      tag_298\n        /* \"#utility.yul\":10797:10802   */\n      dup2\n        /* \"#utility.yul\":10779:10803   */\n      tag_115\n      jump\t// in\n    tag_298:\n        /* \"#utility.yul\":10774:10777   */\n      dup3\n        /* \"#utility.yul\":10767:10804   */\n      mstore\n        /* \"#utility.yul\":10692:10810   */\n      pop\n      pop\n      jump\t// out\n        /* \"#utility.yul\":10816:11038   */\n    tag_38:\n        /* \"#utility.yul\":10909:10913   */\n      0x00\n        /* \"#utility.yul\":10947:10949   */\n      0x20\n        /* \"#utility.yul\":10936:10945   */\n      dup3\n        /* \"#utility.yul\":10932:10950   */\n      add\n        /* \"#utility.yul\":10924:10950   */\n      swap1\n      pop\n        /* \"#utility.yul\":10960:11031   */\n      tag_300\n        /* \"#utility.yul\":11028:11029   */\n      0x00\n        /* \"#utility.yul\":11017:11026   */\n      dup4\n        /* \"#utility.yul\":11013:11030   */\n      add\n        /* \"#utility.yul\":11004:11010   */\n      dup5\n        /* \"#utility.yul\":10960:11031   */\n      tag_149\n      jump\t// in\n    tag_300:\n        /* \"#utility.yul\":10816:11038   */\n      swap3\n      swap2\n      pop\n      pop\n      jump\t// out\n        /* \"#utility.yul\":11044:11224   */\n    tag_150:\n        /* \"#utility.yul\":11092:11169   */\n      0x4e487b7100000000000000000000000000000000000000000000000000000000\n        /* \"#utility.yul\":11089:11090   */\n      0x00\n        /* \"#utility.yul\":11082:11170   */\n      mstore\n        /* \"#utility.yul\":11189:11193   */\n      0x22\n        /* \"#utility.yul\":11186:11187   */\n      0x04\n        /* \"#utility.yul\":11179:11194   */\n      mstore\n        /* \"#utility.yul\":11213:11217   */\n      0x24\n        /* \"#utility.yul\":11210:11211   */\n      0x00\n        /* \"#utility.yul\":11203:11218   */\n      revert\n        /* \"#utility.yul\":11230:11550   */\n    tag_40:\n        /* \"#utility.yul\":11274:11280   */\n      0x00\n        /* \"#utility.yul\":11311:11312   */\n      0x02\n        /* \"#utility.yul\":11305:11309   */\n      dup3\n        /* \"#utility.yul\":11301:11313   */\n      div\n        /* \"#utility.yul\":11291:11313   */\n      swap1\n      pop\n        /* \"#utility.yul\":11358:11359   */\n      0x01\n        /* \"#utility.yul\":11352:11356   */\n      dup3\n        /* \"#utility.yul\":11348:11360   */\n      and\n        /* \"#utility.yul\":11379:11397   */\n      dup1\n        /* \"#utility.yul\":11369:11450   */\n      tag_303\n      jumpi\n        /* \"#utility.yul\":11435:11439   */\n      0x7f\n        /* \"#utility.yul\":11427:11433   */\n      dup3\n        /* \"#utility.yul\":11423:11440   */\n      and\n        /* \"#utility.yul\":11413:11440   */\n      swap2\n      pop\n        /* \"#utility.yul\":11369:11450   */\n    tag_303:\n        /* \"#utility.yul\":11497:11499   */\n      0x20\n        /* \"#utility.yul\":11489:11495   */\n      dup3\n        /* \"#utility.yul\":11486:11500   */\n      lt\n        /* \"#utility.yul\":11466:11484   */\n      dup2\n        /* \"#utility.yul\":11463:11501   */\n      sub\n        /* \"#utility.yul\":11460:11544   */\n      tag_304\n      jumpi\n        /* \"#utility.yul\":11516:11534   */\n      tag_305\n      tag_150\n      jump\t// in\n    tag_305:\n        /* \"#utility.yul\":11460:11544   */\n    tag_304:\n        /* \"#utility.yul\":11281:11550   */\n      pop\n        /* \"#utility.yul\":11230:11550   */\n      swap2\n      swap1\n      pop\n      jump\t// out\n        /* \"#utility.yul\":11556:11729   */\n    tag_151:\n        /* \"#utility.yul\":11696:11721   */\n      0x4576656e7420616c7265616479206f636375727265642e000000000000000000\n        /* \"#utility.yul\":11692:11693   */\n      0x00\n        /* \"#utility.yul\":11684:11690   */\n      dup3\n        /* \"#utility.yul\":11680:11694   */\n      add\n        /* \"#utility.yul\":11673:11722   */\n      mstore\n        /* \"#utility.yul\":11556:11729   */\n      pop\n      jump\t// out\n        /* \"#utility.yul\":11735:12101   */\n    tag_152:\n        /* \"#utility.yul\":11877:11880   */\n      0x00\n        /* \"#utility.yul\":11898:11965   */\n      tag_308\n        /* \"#utility.yul\":11962:11964   */\n      0x17\n        /* \"#utility.yul\":11957:11960   */\n      dup4\n        /* \"#utility.yul\":11898:11965   */\n      tag_124\n      jump\t// in\n    tag_308:\n        /* \"#utility.yul\":11891:11965   */\n      swap2\n      pop\n        /* \"#utility.yul\":11974:12067   */\n      tag_309\n        /* \"#utility.yul\":12063:12066   */\n      dup3\n        /* \"#utility.yul\":11974:12067   */\n      tag_151\n      jump\t// in\n    tag_309:\n        /* \"#utility.yul\":12092:12094   */\n      0x20\n        /* \"#utility.yul\":12087:12090   */\n      dup3\n        /* \"#utility.yul\":12083:12095   */\n      add\n        /* \"#utility.yul\":12076:12095   */\n      swap1\n      pop\n        /* \"#utility.yul\":11735:12101   */\n      swap2\n      swap1\n      pop\n      jump\t// out\n        /* \"#utility.yul\":12107:12526   */\n    tag_49:\n        /* \"#utility.yul\":12273:12277   */\n      0x00\n        /* \"#utility.yul\":12311:12313   */\n      0x20\n        /* \"#utility.yul\":12300:12309   */\n      dup3\n        /* \"#utility.yul\":12296:12314   */\n      add\n        /* \"#utility.yul\":12288:12314   */\n      swap1\n      pop\n        /* \"#utility.yul\":12360:12369   */\n      dup2\n        /* \"#utility.yul\":12354:12358   */\n      dup2\n        /* \"#utility.yul\":12350:12370   */\n      sub\n        /* \"#utility.yul\":12346:12347   */\n      0x00\n        /* \"#utility.yul\":12335:12344   */\n      dup4\n        /* \"#utility.yul\":12331:12348   */\n      add\n        /* \"#utility.yul\":12324:12371   */\n      mstore\n        /* \"#utility.yul\":12388:12519   */\n      tag_311\n        /* \"#utility.yul\":12514:12518   */\n      dup2\n        /* \"#utility.yul\":12388:12519   */\n      tag_152\n      jump\t// in\n    tag_311:\n        /* \"#utility.yul\":12380:12519   */\n      swap1\n      pop\n        /* \"#utility.yul\":12107:12526   */\n      swap2\n      swap1\n      pop\n      jump\t// out\n        /* \"#utility.yul\":12532:12752   */\n    tag_153:\n        /* \"#utility.yul\":12672:12706   */\n      0x416d6f756e74206d7573742062652067726561746572207468616e207a65726f\n        /* \"#utility.yul\":12668:12669   */\n      0x00\n        /* \"#utility.yul\":12660:12666   */\n      dup3\n        /* \"#utility.yul\":12656:12670   */\n      add\n        /* \"#utility.yul\":12649:12707   */\n      mstore\n        /* \"#utility.yul\":12741:12744   */\n      0x2e00000000000000000000000000000000000000000000000000000000000000\n        /* \"#utility.yul\":12736:12738   */\n      0x20\n        /* \"#utility.yul\":12728:12734   */\n      dup3\n        /* \"#utility.yul\":12724:12739   */\n      add\n        /* \"#utility.yul\":12717:12745   */\n      mstore\n        /* \"#utility.yul\":12532:12752   */\n      pop\n      jump\t// out\n        /* \"#utility.yul\":12758:13124   */\n    tag_154:\n        /* \"#utility.yul\":12900:12903   */\n      0x00\n        /* \"#utility.yul\":12921:12988   */\n      tag_314\n        /* \"#utility.yul\":12985:12987   */\n      0x21\n        /* \"#utility.yul\":12980:12983   */\n      dup4\n        /* \"#utility.yul\":12921:12988   */\n      tag_124\n      jump\t// in\n    tag_314:\n        /* \"#utility.yul\":12914:12988   */\n      swap2\n      pop\n        /* \"#utility.yul\":12997:13090   */\n      tag_315\n        /* \"#utility.yul\":13086:13089   */\n      dup3\n        /* \"#utility.yul\":12997:13090   */\n      tag_153\n      jump\t// in\n    tag_315:\n        /* \"#utility.yul\":13115:13117   */\n      0x40\n        /* \"#utility.yul\":13110:13113   */\n      dup3\n        /* \"#utility.yul\":13106:13118   */\n      add\n        /* \"#utility.yul\":13099:13118   */\n      swap1\n      pop\n        /* \"#utility.yul\":12758:13124   */\n      swap2\n      swap1\n      pop\n      jump\t// out\n        /* \"#utility.yul\":13130:13549   */\n    tag_54:\n        /* \"#utility.yul\":13296:13300   */\n      0x00\n        /* \"#utility.yul\":13334:13336   */\n      0x20\n        /* \"#utility.yul\":13323:13332   */\n      dup3\n        /* \"#utility.yul\":13319:13337   */\n      add\n        /* \"#utility.yul\":13311:13337   */\n      swap1\n      pop\n        /* \"#utility.yul\":13383:13392   */\n      dup2\n        /* \"#utility.yul\":13377:13381   */\n      dup2\n        /* \"#utility.yul\":13373:13393   */\n      sub\n        /* \"#utility.yul\":13369:13370   */\n      0x00\n        /* \"#utility.yul\":13358:13367   */\n      dup4\n        /* \"#utility.yul\":13354:13371   */\n      add\n        /* \"#utility.yul\":13347:13394   */\n      mstore\n        /* \"#utility.yul\":13411:13542   */\n      tag_317\n        /* \"#utility.yul\":13537:13541   */\n      dup2\n        /* \"#utility.yul\":13411:13542   */\n      tag_154\n      jump\t// in\n    tag_317:\n        /* \"#utility.yul\":13403:13542   */\n      swap1\n      pop\n        /* \"#utility.yul\":13130:13549   */\n      swap2\n      swap1\n      pop\n      jump\t// out\n        /* \"#utility.yul\":13555:13649   */\n    tag_155:\n        /* \"#utility.yul\":13588:13596   */\n      0x00\n        /* \"#utility.yul\":13636:13641   */\n      dup2\n        /* \"#utility.yul\":13632:13634   */\n      0x60\n        /* \"#utility.yul\":13628:13642   */\n      shl\n        /* \"#utility.yul\":13607:13642   */\n      swap1\n      pop\n        /* \"#utility.yul\":13555:13649   */\n      swap2\n      swap1\n      pop\n      jump\t// out\n        /* \"#utility.yul\":13655:13749   */\n    tag_156:\n        /* \"#utility.yul\":13694:13701   */\n      0x00\n        /* \"#utility.yul\":13723:13743   */\n      tag_320\n        /* \"#utility.yul\":13737:13742   */\n      dup3\n        /* \"#utility.yul\":13723:13743   */\n      tag_155\n      jump\t// in\n    tag_320:\n        /* \"#utility.yul\":13712:13743   */\n      swap1\n      pop\n        /* \"#utility.yul\":13655:13749   */\n      swap2\n      swap1\n      pop\n      jump\t// out\n        /* \"#utility.yul\":13755:13855   */\n    tag_157:\n        /* \"#utility.yul\":13794:13801   */\n      0x00\n        /* \"#utility.yul\":13823:13849   */\n      tag_322\n        /* \"#utility.yul\":13843:13848   */\n      dup3\n        /* \"#utility.yul\":13823:13849   */\n      tag_156\n      jump\t// in\n    tag_322:\n        /* \"#utility.yul\":13812:13849   */\n      swap1\n      pop\n        /* \"#utility.yul\":13755:13855   */\n      swap2\n      swap1\n      pop\n      jump\t// out\n        /* \"#utility.yul\":13861:14018   */\n    tag_158:\n        /* \"#utility.yul\":13966:14011   */\n      tag_324\n        /* \"#utility.yul\":13986:14010   */\n      tag_325\n        /* \"#utility.yul\":14004:14009   */\n      dup3\n        /* \"#utility.yul\":13986:14010   */\n      tag_119\n      jump\t// in\n    tag_325:\n        /* \"#utility.yul\":13966:14011   */\n      tag_157\n      jump\t// in\n    tag_324:\n        /* \"#utility.yul\":13961:13964   */\n      dup3\n        /* \"#utility.yul\":13954:14012   */\n      mstore\n        /* \"#utility.yul\":13861:14018   */\n      pop\n      pop\n      jump\t// out\n        /* \"#utility.yul\":14024:14172   */\n    tag_159:\n        /* \"#utility.yul\":14126:14137   */\n      0x00\n        /* \"#utility.yul\":14163:14166   */\n      dup2\n        /* \"#utility.yul\":14148:14166   */\n      swap1\n      pop\n        /* \"#utility.yul\":14024:14172   */\n      swap3\n      swap2\n      pop\n      pop\n      jump\t// out\n        /* \"#utility.yul\":14178:14568   */\n    tag_160:\n        /* \"#utility.yul\":14284:14287   */\n      0x00\n        /* \"#utility.yul\":14312:14351   */\n      tag_328\n        /* \"#utility.yul\":14345:14350   */\n      dup3\n        /* \"#utility.yul\":14312:14351   */\n      tag_123\n      jump\t// in\n    tag_328:\n        /* \"#utility.yul\":14367:14456   */\n      tag_329\n        /* \"#utility.yul\":14449:14455   */\n      dup2\n        /* \"#utility.yul\":14444:14447   */\n      dup6\n        /* \"#utility.yul\":14367:14456   */\n      tag_159\n      jump\t// in\n    tag_329:\n        /* \"#utility.yul\":14360:14456   */\n      swap4\n      pop\n        /* \"#utility.yul\":14465:14530   */\n      tag_330\n        /* \"#utility.yul\":14523:14529   */\n      dup2\n        /* \"#utility.yul\":14518:14521   */\n      dup6\n        /* \"#utility.yul\":14511:14515   */\n      0x20\n        /* \"#utility.yul\":14504:14509   */\n      dup7\n        /* \"#utility.yul\":14500:14516   */\n      add\n        /* \"#utility.yul\":14465:14530   */\n      tag_125\n      jump\t// in\n    tag_330:\n        /* \"#utility.yul\":14555:14561   */\n      dup1\n        /* \"#utility.yul\":14550:14553   */\n      dup5\n        /* \"#utility.yul\":14546:14562   */\n      add\n        /* \"#utility.yul\":14539:14562   */\n      swap2\n      pop\n        /* \"#utility.yul\":14288:14568   */\n      pop\n        /* \"#utility.yul\":14178:14568   */\n      swap3\n      swap2\n      pop\n      pop\n      jump\t// out\n        /* \"#utility.yul\":14574:14653   */\n    tag_161:\n        /* \"#utility.yul\":14613:14620   */\n      0x00\n        /* \"#utility.yul\":14642:14647   */\n      dup2\n        /* \"#utility.yul\":14631:14647   */\n      swap1\n      pop\n        /* \"#utility.yul\":14574:14653   */\n      swap2\n      swap1\n      pop\n      jump\t// out\n        /* \"#utility.yul\":14659:14816   */\n    tag_162:\n        /* \"#utility.yul\":14764:14809   */\n      tag_333\n        /* \"#utility.yul\":14784:14808   */\n      tag_334\n        /* \"#utility.yul\":14802:14807   */\n      dup3\n        /* \"#utility.yul\":14784:14808   */\n      tag_128\n      jump\t// in\n    tag_334:\n        /* \"#utility.yul\":14764:14809   */\n      tag_161\n      jump\t// in\n    tag_333:\n        /* \"#utility.yul\":14759:14762   */\n      dup3\n        /* \"#utility.yul\":14752:14810   */\n      mstore\n        /* \"#utility.yul\":14659:14816   */\n      pop\n      pop\n      jump\t// out\n        /* \"#utility.yul\":14822:15520   */\n    tag_58:\n        /* \"#utility.yul\":15038:15041   */\n      0x00\n        /* \"#utility.yul\":15053:15128   */\n      tag_336\n        /* \"#utility.yul\":15124:15127   */\n      dup3\n        /* \"#utility.yul\":15115:15121   */\n      dup8\n        /* \"#utility.yul\":15053:15128   */\n      tag_158\n      jump\t// in\n    tag_336:\n        /* \"#utility.yul\":15153:15155   */\n      0x14\n        /* \"#utility.yul\":15148:15151   */\n      dup3\n        /* \"#utility.yul\":15144:15156   */\n      add\n        /* \"#utility.yul\":15137:15156   */\n      swap2\n      pop\n        /* \"#utility.yul\":15173:15268   */\n      tag_337\n        /* \"#utility.yul\":15264:15267   */\n      dup3\n        /* \"#utility.yul\":15255:15261   */\n      dup7\n        /* \"#utility.yul\":15173:15268   */\n      tag_160\n      jump\t// in\n    tag_337:\n        /* \"#utility.yul\":15166:15268   */\n      swap2\n      pop\n        /* \"#utility.yul\":15278:15353   */\n      tag_338\n        /* \"#utility.yul\":15349:15352   */\n      dup3\n        /* \"#utility.yul\":15340:15346   */\n      dup6\n        /* \"#utility.yul\":15278:15353   */\n      tag_162\n      jump\t// in\n    tag_338:\n        /* \"#utility.yul\":15378:15380   */\n      0x20\n        /* \"#utility.yul\":15373:15376   */\n      dup3\n        /* \"#utility.yul\":15369:15381   */\n      add\n        /* \"#utility.yul\":15362:15381   */\n      swap2\n      pop\n        /* \"#utility.yul\":15391:15466   */\n      tag_339\n        /* \"#utility.yul\":15462:15465   */\n      dup3\n        /* \"#utility.yul\":15453:15459   */\n      dup5\n        /* \"#utility.yul\":15391:15466   */\n      tag_162\n      jump\t// in\n    tag_339:\n        /* \"#utility.yul\":15491:15493   */\n      0x20\n        /* \"#utility.yul\":15486:15489   */\n      dup3\n        /* \"#utility.yul\":15482:15494   */\n      add\n        /* \"#utility.yul\":15475:15494   */\n      swap2\n      pop\n        /* \"#utility.yul\":15511:15514   */\n      dup2\n        /* \"#utility.yul\":15504:15514   */\n      swap1\n      pop\n        /* \"#utility.yul\":14822:15520   */\n      swap6\n      swap5\n      pop\n      pop\n      pop\n      pop\n      pop\n      jump\t// out\n        /* \"#utility.yul\":15526:15667   */\n    tag_163:\n        /* \"#utility.yul\":15575:15579   */\n      0x00\n        /* \"#utility.yul\":15598:15601   */\n      dup2\n        /* \"#utility.yul\":15590:15601   */\n      swap1\n      pop\n        /* \"#utility.yul\":15621:15624   */\n      dup2\n        /* \"#utility.yul\":15618:15619   */\n      0x00\n        /* \"#utility.yul\":15611:15625   */\n      mstore\n        /* \"#utility.yul\":15655:15659   */\n      0x20\n        /* \"#utility.yul\":15652:15653   */\n      0x00\n        /* \"#utility.yul\":15642:15660   */\n      keccak256\n        /* \"#utility.yul\":15634:15660   */\n      swap1\n      pop\n        /* \"#utility.yul\":15526:15667   */\n      swap2\n      swap1\n      pop\n      jump\t// out\n        /* \"#utility.yul\":15673:15766   */\n    tag_164:\n        /* \"#utility.yul\":15710:15716   */\n      0x00\n        /* \"#utility.yul\":15757:15759   */\n      0x20\n        /* \"#utility.yul\":15752:15754   */\n      0x1f\n        /* \"#utility.yul\":15745:15750   */\n      dup4\n        /* \"#utility.yul\":15741:15755   */\n      add\n        /* \"#utility.yul\":15737:15760   */\n      div\n        /* \"#utility.yul\":15727:15760   */\n      swap1\n      pop\n        /* \"#utility.yul\":15673:15766   */\n      swap2\n      swap1\n      pop\n      jump\t// out\n        /* \"#utility.yul\":15772:15879   */\n    tag_165:\n        /* \"#utility.yul\":15816:15824   */\n      0x00\n        /* \"#utility.yul\":15866:15871   */\n      dup3\n        /* \"#utility.yul\":15860:15864   */\n      dup3\n        /* \"#utility.yul\":15856:15872   */\n      shl\n        /* \"#utility.yul\":15835:15872   */\n      swap1\n      pop\n        /* \"#utility.yul\":15772:15879   */\n      swap3\n      swap2\n      pop\n      pop\n      jump\t// out\n        /* \"#utility.yul\":15885:16278   */\n    tag_166:\n        /* \"#utility.yul\":15954:15960   */\n      0x00\n        /* \"#utility.yul\":16004:16005   */\n      0x08\n        /* \"#utility.yul\":15992:16002   */\n      dup4\n        /* \"#utility.yul\":15988:16006   */\n      mul\n        /* \"#utility.yul\":16027:16124   */\n      tag_344\n        /* \"#utility.yul\":16057:16123   */\n      0xffffffffffffffffffffffffffffffffffffffffffffffffffffffffffffffff\n        /* \"#utility.yul\":16046:16055   */\n      dup3\n        /* \"#utility.yul\":16027:16124   */\n      tag_165\n      jump\t// in\n    tag_344:\n        /* \"#utility.yul\":16145:16184   */\n      tag_345\n        /* \"#utility.yul\":16175:16183   */\n      dup7\n        /* \"#utility.yul\":16164:16173   */\n      dup4\n        /* \"#utility.yul\":16145:16184   */\n      tag_165\n      jump\t// in\n    tag_345:\n        /* \"#utility.yul\":16133:16184   */\n      swap6\n      pop\n        /* \"#utility.yul\":16217:16221   */\n      dup1\n        /* \"#utility.yul\":16213:16222   */\n      not\n        /* \"#utility.yul\":16206:16211   */\n      dup5\n        /* \"#utility.yul\":16202:16223   */\n      and\n        /* \"#utility.yul\":16193:16223   */\n      swap4\n      pop\n        /* \"#utility.yul\":16266:16270   */\n      dup1\n        /* \"#utility.yul\":16256:16264   */\n      dup7\n        /* \"#utility.yul\":16252:16271   */\n      and\n        /* \"#utility.yul\":16245:16250   */\n      dup5\n        /* \"#utility.yul\":16242:16272   */\n      or\n        /* \"#utility.yul\":16232:16272   */\n      swap3\n      pop\n        /* \"#utility.yul\":15961:16278   */\n      pop\n      pop\n        /* \"#utility.yul\":15885:16278   */\n      swap4\n      swap3\n      pop\n      pop\n      pop\n      jump\t// out\n        /* \"#utility.yul\":16284:16344   */\n    tag_167:\n        /* \"#utility.yul\":16312:16315   */\n      0x00\n        /* \"#utility.yul\":16333:16338   */\n      dup2\n        /* \"#utility.yul\":16326:16338   */\n      swap1\n      pop\n        /* \"#utility.yul\":16284:16344   */\n      swap2\n      swap1\n      pop\n      jump\t// out\n        /* \"#utility.yul\":16350:16492   */\n    tag_168:\n        /* \"#utility.yul\":16400:16409   */\n      0x00\n        /* \"#utility.yul\":16433:16486   */\n      tag_348\n        /* \"#utility.yul\":16451:16485   */\n      tag_349\n        /* \"#utility.yul\":16460:16484   */\n      tag_350\n        /* \"#utility.yul\":16478:16483   */\n      dup5\n        /* \"#utility.yul\":16460:16484   */\n      tag_128\n      jump\t// in\n    tag_350:\n        /* \"#utility.yul\":16451:16485   */\n      tag_167\n      jump\t// in\n    tag_349:\n        /* \"#utility.yul\":16433:16486   */\n      tag_128\n      jump\t// in\n    tag_348:\n        /* \"#utility.yul\":16420:16486   */\n      swap1\n      pop\n        /* \"#utility.yul\":16350:16492   */\n      swap2\n      swap1\n      pop\n      jump\t// out\n        /* \"#utility.yul\":16498:16573   */\n    tag_169:\n        /* \"#utility.yul\":16541:16544   */\n      0x00\n        /* \"#utility.yul\":16562:16567   */\n      dup2\n        /* \"#utility.yul\":16555:16567   */\n      swap1\n      pop\n        /* \"#utility.yul\":16498:16573   */\n      swap2\n      swap1\n      pop\n      jump\t// out\n        /* \"#utility.yul\":16579:16848   */\n    tag_170:\n        /* \"#utility.yul\":16689:16728   */\n      tag_353\n        /* \"#utility.yul\":16720:16727   */\n      dup4\n        /* \"#utility.yul\":16689:16728   */\n      tag_168\n      jump\t// in\n    tag_353:\n        /* \"#utility.yul\":16750:16841   */\n      tag_354\n        /* \"#utility.yul\":16799:16840   */\n      tag_355\n        /* \"#utility.yul\":16823:16839   */\n      dup3\n        /* \"#utility.yul\":16799:16840   */\n      tag_169\n      jump\t// in\n    tag_355:\n        /* \"#utility.yul\":16791:16797   */\n      dup5\n        /* \"#utility.yul\":16784:16788   */\n      dup5\n        /* \"#utility.yul\":16778:16789   */\n      sload\n        /* \"#utility.yul\":16750:16841   */\n      tag_166\n      jump\t// in\n    tag_354:\n        /* \"#utility.yul\":16744:16748   */\n      dup3\n        /* \"#utility.yul\":16737:16842   */\n      sstore\n        /* \"#utility.yul\":16655:16848   */\n      pop\n        /* \"#utility.yul\":16579:16848   */\n      pop\n      pop\n      pop\n      jump\t// out\n        /* \"#utility.yul\":16854:16927   */\n    tag_171:\n        /* \"#utility.yul\":16899:16902   */\n      0x00\n        /* \"#utility.yul\":16854:16927   */\n      swap1\n      jump\t// out\n        /* \"#utility.yul\":16933:17122   */\n    tag_172:\n        /* \"#utility.yul\":17010:17042   */\n      tag_358\n      tag_171\n      jump\t// in\n    tag_358:\n        /* \"#utility.yul\":17051:17116   */\n      tag_359\n        /* \"#utility.yul\":17109:17115   */\n      dup2\n        /* \"#utility.yul\":17101:17107   */\n      dup5\n        /* \"#utility.yul\":17095:17099   */\n      dup5\n        /* \"#utility.yul\":17051:17116   */\n      tag_170\n      jump\t// in\n    tag_359:\n        /* \"#utility.yul\":16986:17122   */\n      pop\n        /* \"#utility.yul\":16933:17122   */\n      pop\n      pop\n      jump\t// out\n        /* \"#utility.yul\":17128:17314   */\n    tag_173:\n        /* \"#utility.yul\":17188:17308   */\n    tag_361:\n        /* \"#utility.yul\":17205:17208   */\n      dup2\n        /* \"#utility.yul\":17198:17203   */\n      dup2\n        /* \"#utility.yul\":17195:17209   */\n      lt\n        /* \"#utility.yul\":17188:17308   */\n      iszero\n      tag_363\n      jumpi\n        /* \"#utility.yul\":17259:17298   */\n      tag_364\n        /* \"#utility.yul\":17296:17297   */\n      0x00\n        /* \"#utility.yul\":17289:17294   */\n      dup3\n        /* \"#utility.yul\":17259:17298   */\n      tag_172\n      jump\t// in\n    tag_364:\n        /* \"#utility.yul\":17232:17233   */\n      0x01\n        /* \"#utility.yul\":17225:17230   */\n      dup2\n        /* \"#utility.yul\":17221:17234   */\n      add\n        /* \"#utility.yul\":17212:17234   */\n      swap1\n      pop\n        /* \"#utility.yul\":17188:17308   */\n      jump(tag_361)\n    tag_363:\n        /* \"#utility.yul\":17128:17314   */\n      pop\n      pop\n      jump\t// out\n        /* \"#utility.yul\":17320:17863   */\n    tag_174:\n        /* \"#utility.yul\":17421:17423   */\n      0x1f\n        /* \"#utility.yul\":17416:17419   */\n      dup3\n        /* \"#utility.yul\":17413:17424   */\n      gt\n        /* \"#utility.yul\":17410:17856   */\n      iszero\n      tag_366\n      jumpi\n        /* \"#utility.yul\":17455:17493   */\n      tag_367\n        /* \"#utility.yul\":17487:17492   */\n      dup2\n        /* \"#utility.yul\":17455:17493   */\n      tag_163\n      jump\t// in\n    tag_367:\n        /* \"#utility.yul\":17539:17568   */\n      tag_368\n        /* \"#utility.yul\":17557:17567   */\n      dup5\n        /* \"#utility.yul\":17539:17568   */\n      tag_164\n      jump\t// in\n    tag_368:\n        /* \"#utility.yul\":17529:17537   */\n      dup2\n        /* \"#utility.yul\":17525:17569   */\n      add\n        /* \"#utility.yul\":17722:17724   */\n      0x20\n        /* \"#utility.yul\":17710:17720   */\n      dup6\n        /* \"#utility.yul\":17707:17725   */\n      lt\n        /* \"#utility.yul\":17704:17753   */\n      iszero\n      tag_369\n      jumpi\n        /* \"#utility.yul\":17743:17751   */\n      dup2\n        /* \"#utility.yul\":17728:17751   */\n      swap1\n      pop\n        /* \"#utility.yul\":17704:17753   */\n    tag_369:\n        /* \"#utility.yul\":17766:17846   */\n      tag_370\n        /* \"#utility.yul\":17822:17844   */\n      tag_371\n        /* \"#utility.yul\":17840:17843   */\n      dup6\n        /* \"#utility.yul\":17822:17844   */\n      tag_164\n      jump\t// in\n    tag_371:\n        /* \"#utility.yul\":17812:17820   */\n      dup4\n        /* \"#utility.yul\":17808:17845   */\n      add\n        /* \"#utility.yul\":17795:17806   */\n      dup3\n        /* \"#utility.yul\":17766:17846   */\n      tag_173\n      jump\t// in\n    tag_370:\n        /* \"#utility.yul\":17425:17856   */\n      pop\n      pop\n        /* \"#utility.yul\":17410:17856   */\n    tag_366:\n        /* \"#utility.yul\":17320:17863   */\n      pop\n      pop\n      pop\n      jump\t// out\n        /* \"#utility.yul\":17869:17986   */\n    tag_175:\n        /* \"#utility.yul\":17923:17931   */\n      0x00\n        /* \"#utility.yul\":17973:17978   */\n      dup3\n        /* \"#utility.yul\":17967:17971   */\n      dup3\n        /* \"#utility.yul\":17963:17979   */\n      shr\n        /* \"#utility.yul\":17942:17979   */\n      swap1\n      pop\n        /* \"#utility.yul\":17869:17986   */\n      swap3\n      swap2\n      pop\n      pop\n      jump\t// out\n        /* \"#utility.yul\":17992:18161   */\n    tag_176:\n        /* \"#utility.yul\":18036:18042   */\n      0x00\n        /* \"#utility.yul\":18069:18120   */\n      tag_374\n        /* \"#utility.yul\":18117:18118   */\n      0x00\n        /* \"#utility.yul\":18113:18119   */\n      not\n        /* \"#utility.yul\":18105:18110   */\n      dup5\n        /* \"#utility.yul\":18102:18103   */\n      0x08\n        /* \"#utility.yul\":18098:18111   */\n      mul\n        /* \"#utility.yul\":18069:18120   */\n      tag_175\n      jump\t// in\n    tag_374:\n        /* \"#utility.yul\":18065:18121   */\n      not\n        /* \"#utility.yul\":18150:18154   */\n      dup1\n        /* \"#utility.yul\":18144:18148   */\n      dup4\n        /* \"#utility.yul\":18140:18155   */\n      and\n        /* \"#utility.yul\":18130:18155   */\n      swap2\n      pop\n        /* \"#utility.yul\":18043:18161   */\n      pop\n        /* \"#utility.yul\":17992:18161   */\n      swap3\n      swap2\n      pop\n      pop\n      jump\t// out\n        /* \"#utility.yul\":18166:18461   */\n    tag_177:\n        /* \"#utility.yul\":18242:18246   */\n      0x00\n        /* \"#utility.yul\":18388:18417   */\n      tag_376\n        /* \"#utility.yul\":18413:18416   */\n      dup4\n        /* \"#utility.yul\":18407:18411   */\n      dup4\n        /* \"#utility.yul\":18388:18417   */\n      tag_176\n      jump\t// in\n    tag_376:\n        /* \"#utility.yul\":18380:18417   */\n      swap2\n      pop\n        /* \"#utility.yul\":18450:18453   */\n      dup3\n        /* \"#utility.yul\":18447:18448   */\n      0x02\n        /* \"#utility.yul\":18443:18454   */\n      mul\n        /* \"#utility.yul\":18437:18441   */\n      dup3\n        /* \"#utility.yul\":18434:18455   */\n      or\n        /* \"#utility.yul\":18426:18455   */\n      swap1\n      pop\n        /* \"#utility.yul\":18166:18461   */\n      swap3\n      swap2\n      pop\n      pop\n      jump\t// out\n        /* \"#utility.yul\":18466:19861   */\n    tag_60:\n        /* \"#utility.yul\":18583:18620   */\n      tag_378\n        /* \"#utility.yul\":18616:18619   */\n      dup3\n        /* \"#utility.yul\":18583:18620   */\n      tag_123\n      jump\t// in\n    tag_378:\n        /* \"#utility.yul\":18685:18703   */\n      0xffffffffffffffff\n        /* \"#utility.yul\":18677:18683   */\n      dup2\n        /* \"#utility.yul\":18674:18704   */\n      gt\n        /* \"#utility.yul\":18671:18727   */\n      iszero\n      tag_379\n      jumpi\n        /* \"#utility.yul\":18707:18725   */\n      tag_380\n      tag_134\n      jump\t// in\n    tag_380:\n        /* \"#utility.yul\":18671:18727   */\n    tag_379:\n        /* \"#utility.yul\":18751:18789   */\n      tag_381\n        /* \"#utility.yul\":18783:18787   */\n      dup3\n        /* \"#utility.yul\":18777:18788   */\n      sload\n        /* \"#utility.yul\":18751:18789   */\n      tag_40\n      jump\t// in\n    tag_381:\n        /* \"#utility.yul\":18836:18903   */\n      tag_382\n        /* \"#utility.yul\":18896:18902   */\n      dup3\n        /* \"#utility.yul\":18888:18894   */\n      dup3\n        /* \"#utility.yul\":18882:18886   */\n      dup6\n        /* \"#utility.yul\":18836:18903   */\n      tag_174\n      jump\t// in\n    tag_382:\n        /* \"#utility.yul\":18930:18931   */\n      0x00\n        /* \"#utility.yul\":18954:18958   */\n      0x20\n        /* \"#utility.yul\":18941:18958   */\n      swap1\n      pop\n        /* \"#utility.yul\":18986:18988   */\n      0x1f\n        /* \"#utility.yul\":18978:18984   */\n      dup4\n        /* \"#utility.yul\":18975:18989   */\n      gt\n        /* \"#utility.yul\":19003:19004   */\n      0x01\n        /* \"#utility.yul\":18998:19616   */\n      dup2\n      eq\n      tag_384\n      jumpi\n        /* \"#utility.yul\":19660:19661   */\n      0x00\n        /* \"#utility.yul\":19677:19683   */\n      dup5\n        /* \"#utility.yul\":19674:19751   */\n      iszero\n      tag_385\n      jumpi\n        /* \"#utility.yul\":19726:19735   */\n      dup3\n        /* \"#utility.yul\":19721:19724   */\n      dup8\n        /* \"#utility.yul\":19717:19736   */\n      add\n        /* \"#utility.yul\":19711:19737   */\n      mload\n        /* \"#utility.yul\":19702:19737   */\n      swap1\n      pop\n        /* \"#utility.yul\":19674:19751   */\n    tag_385:\n        /* \"#utility.yul\":19777:19844   */\n      tag_386\n        /* \"#utility.yul\":19837:19843   */\n      dup6\n        /* \"#utility.yul\":19830:19835   */\n      dup3\n        /* \"#utility.yul\":19777:19844   */\n      tag_177\n      jump\t// in\n    tag_386:\n        /* \"#utility.yul\":19771:19775   */\n      dup7\n        /* \"#utility.yul\":19764:19845   */\n      sstore\n        /* \"#utility.yul\":19633:19855   */\n      pop\n        /* \"#utility.yul\":18968:19855   */\n      jump(tag_383)\n        /* \"#utility.yul\":18998:19616   */\n    tag_384:\n        /* \"#utility.yul\":19050:19054   */\n      0x1f\n        /* \"#utility.yul\":19046:19055   */\n      not\n        /* \"#utility.yul\":19038:19044   */\n      dup5\n        /* \"#utility.yul\":19034:19056   */\n      and\n        /* \"#utility.yul\":19084:19121   */\n      tag_387\n        /* \"#utility.yul\":19116:19120   */\n      dup7\n        /* \"#utility.yul\":19084:19121   */\n      tag_163\n      jump\t// in\n    tag_387:\n        /* \"#utility.yul\":19143:19144   */\n      0x00\n        /* \"#utility.yul\":19157:19365   */\n    tag_388:\n        /* \"#utility.yul\":19171:19178   */\n      dup3\n        /* \"#utility.yul\":19168:19169   */\n      dup2\n        /* \"#utility.yul\":19165:19179   */\n      lt\n        /* \"#utility.yul\":19157:19365   */\n      iszero\n      tag_390\n      jumpi\n        /* \"#utility.yul\":19250:19259   */\n      dup5\n        /* \"#utility.yul\":19245:19248   */\n      dup10\n        /* \"#utility.yul\":19241:19260   */\n      add\n        /* \"#utility.yul\":19235:19261   */\n      mload\n        /* \"#utility.yul\":19227:19233   */\n      dup3\n        /* \"#utility.yul\":19220:19262   */\n      sstore\n        /* \"#utility.yul\":19301:19302   */\n      0x01\n        /* \"#utility.yul\":19293:19299   */\n      dup3\n        /* \"#utility.yul\":19289:19303   */\n      add\n        /* \"#utility.yul\":19279:19303   */\n      swap2\n      pop\n        /* \"#utility.yul\":19348:19350   */\n      0x20\n        /* \"#utility.yul\":19337:19346   */\n      dup6\n        /* \"#utility.yul\":19333:19351   */\n      add\n        /* \"#utility.yul\":19320:19351   */\n      swap5\n      pop\n        /* \"#utility.yul\":19194:19198   */\n      0x20\n        /* \"#utility.yul\":19191:19192   */\n      dup2\n        /* \"#utility.yul\":19187:19199   */\n      add\n        /* \"#utility.yul\":19182:19199   */\n      swap1\n      pop\n        /* \"#utility.yul\":19157:19365   */\n      jump(tag_388)\n    tag_390:\n        /* \"#utility.yul\":19393:19399   */\n      dup7\n        /* \"#utility.yul\":19384:19391   */\n      dup4\n        /* \"#utility.yul\":19381:19400   */\n      lt\n        /* \"#utility.yul\":19378:19557   */\n      iszero\n      tag_391\n      jumpi\n        /* \"#utility.yul\":19451:19460   */\n      dup5\n        /* \"#utility.yul\":19446:19449   */\n      dup10\n        /* \"#utility.yul\":19442:19461   */\n      add\n        /* \"#utility.yul\":19436:19462   */\n      mload\n        /* \"#utility.yul\":19494:19542   */\n      tag_392\n        /* \"#utility.yul\":19536:19540   */\n      0x1f\n        /* \"#utility.yul\":19528:19534   */\n      dup10\n        /* \"#utility.yul\":19524:19541   */\n      and\n        /* \"#utility.yul\":19513:19522   */\n      dup3\n        /* \"#utility.yul\":19494:19542   */\n      tag_176\n      jump\t// in\n    tag_392:\n        /* \"#utility.yul\":19486:19492   */\n      dup4\n        /* \"#utility.yul\":19479:19543   */\n      sstore\n        /* \"#utility.yul\":19401:19557   */\n      pop\n        /* \"#utility.yul\":19378:19557   */\n    tag_391:\n        /* \"#utility.yul\":19603:19604   */\n      0x01\n        /* \"#utility.yul\":19599:19600   */\n      0x02\n        /* \"#utility.yul\":19591:19597   */\n      dup9\n        /* \"#utility.yul\":19587:19601   */\n      mul\n        /* \"#utility.yul\":19583:19605   */\n      add\n        /* \"#utility.yul\":19577:19581   */\n      dup9\n        /* \"#utility.yul\":19570:19606   */\n      sstore\n        /* \"#utility.yul\":19005:19616   */\n      pop\n      pop\n      pop\n        /* \"#utility.yul\":18968:19855   */\n    tag_383:\n      pop\n        /* \"#utility.yul\":18558:19861   */\n      pop\n      pop\n      pop\n        /* \"#utility.yul\":18466:19861   */\n      pop\n      pop\n      jump\t// out\n        /* \"#utility.yul\":19867:20511   */\n    tag_62:\n        /* \"#utility.yul\":20064:20068   */\n      0x00\n        /* \"#utility.yul\":20102:20105   */\n      0x80\n        /* \"#utility.yul\":20091:20100   */\n      dup3\n        /* \"#utility.yul\":20087:20106   */\n      add\n        /* \"#utility.yul\":20079:20106   */\n      swap1\n      pop\n        /* \"#utility.yul\":20116:20187   */\n      tag_394\n        /* \"#utility.yul\":20184:20185   */\n      0x00\n        /* \"#utility.yul\":20173:20182   */\n      dup4\n        /* \"#utility.yul\":20169:20186   */\n      add\n        /* \"#utility.yul\":20160:20166   */\n      dup8\n        /* \"#utility.yul\":20116:20187   */\n      tag_149\n      jump\t// in\n    tag_394:\n        /* \"#utility.yul\":20234:20243   */\n      dup2\n        /* \"#utility.yul\":20228:20232   */\n      dup2\n        /* \"#utility.yul\":20224:20244   */\n      sub\n        /* \"#utility.yul\":20219:20221   */\n      0x20\n        /* \"#utility.yul\":20208:20217   */\n      dup4\n        /* \"#utility.yul\":20204:20222   */\n      add\n        /* \"#utility.yul\":20197:20245   */\n      mstore\n        /* \"#utility.yul\":20262:20340   */\n      tag_395\n        /* \"#utility.yul\":20335:20339   */\n      dup2\n        /* \"#utility.yul\":20326:20332   */\n      dup7\n        /* \"#utility.yul\":20262:20340   */\n      tag_127\n      jump\t// in\n    tag_395:\n        /* \"#utility.yul\":20254:20340   */\n      swap1\n      pop\n        /* \"#utility.yul\":20350:20422   */\n      tag_396\n        /* \"#utility.yul\":20418:20420   */\n      0x40\n        /* \"#utility.yul\":20407:20416   */\n      dup4\n        /* \"#utility.yul\":20403:20421   */\n      add\n        /* \"#utility.yul\":20394:20400   */\n      dup6\n        /* \"#utility.yul\":20350:20422   */\n      tag_129\n      jump\t// in\n    tag_396:\n        /* \"#utility.yul\":20432:20504   */\n      tag_397\n        /* \"#utility.yul\":20500:20502   */\n      0x60\n        /* \"#utility.yul\":20489:20498   */\n      dup4\n        /* \"#utility.yul\":20485:20503   */\n      add\n        /* \"#utility.yul\":20476:20482   */\n      dup5\n        /* \"#utility.yul\":20432:20504   */\n      tag_129\n      jump\t// in\n    tag_397:\n        /* \"#utility.yul\":19867:20511   */\n      swap6\n      swap5\n      pop\n      pop\n      pop\n      pop\n      pop\n      jump\t// out\n        /* \"#utility.yul\":20517:20849   */\n    tag_66:\n        /* \"#utility.yul\":20638:20642   */\n      0x00\n        /* \"#utility.yul\":20676:20678   */\n      0x40\n        /* \"#utility.yul\":20665:20674   */\n      dup3\n        /* \"#utility.yul\":20661:20679   */\n      add\n        /* \"#utility.yul\":20653:20679   */\n      swap1\n      pop\n        /* \"#utility.yul\":20689:20760   */\n      tag_399\n        /* \"#utility.yul\":20757:20758   */\n      0x00\n        /* \"#utility.yul\":20746:20755   */\n      dup4\n        /* \"#utility.yul\":20742:20759   */\n      add\n        /* \"#utility.yul\":20733:20739   */\n      dup6\n        /* \"#utility.yul\":20689:20760   */\n      tag_122\n      jump\t// in\n    tag_399:\n        /* \"#utility.yul\":20770:20842   */\n      tag_400\n        /* \"#utility.yul\":20838:20840   */\n      0x20\n        /* \"#utility.yul\":20827:20836   */\n      dup4\n        /* \"#utility.yul\":20823:20841   */\n      add\n        /* \"#utility.yul\":20814:20820   */\n      dup5\n        /* \"#utility.yul\":20770:20842   */\n      tag_129\n      jump\t// in\n    tag_400:\n        /* \"#utility.yul\":20517:20849   */\n      swap4\n      swap3\n      pop\n      pop\n      pop\n      jump\t// out\n        /* \"#utility.yul\":20855:21297   */\n    tag_71:\n        /* \"#utility.yul\":21004:21008   */\n      0x00\n        /* \"#utility.yul\":21042:21044   */\n      0x60\n        /* \"#utility.yul\":21031:21040   */\n      dup3\n        /* \"#utility.yul\":21027:21045   */\n      add\n        /* \"#utility.yul\":21019:21045   */\n      swap1\n      pop\n        /* \"#utility.yul\":21055:21126   */\n      tag_402\n        /* \"#utility.yul\":21123:21124   */\n      0x00\n        /* \"#utility.yul\":21112:21121   */\n      dup4\n        /* \"#utility.yul\":21108:21125   */\n      add\n        /* \"#utility.yul\":21099:21105   */\n      dup7\n        /* \"#utility.yul\":21055:21126   */\n      tag_122\n      jump\t// in\n    tag_402:\n        /* \"#utility.yul\":21136:21208   */\n      tag_403\n        /* \"#utility.yul\":21204:21206   */\n      0x20\n        /* \"#utility.yul\":21193:21202   */\n      dup4\n        /* \"#utility.yul\":21189:21207   */\n      add\n        /* \"#utility.yul\":21180:21186   */\n      dup6\n        /* \"#utility.yul\":21136:21208   */\n      tag_122\n      jump\t// in\n    tag_403:\n        /* \"#utility.yul\":21218:21290   */\n      tag_404\n        /* \"#utility.yul\":21286:21288   */\n      0x40\n        /* \"#utility.yul\":21275:21284   */\n      dup4\n        /* \"#utility.yul\":21271:21289   */\n      add\n        /* \"#utility.yul\":21262:21268   */\n      dup5\n        /* \"#utility.yul\":21218:21290   */\n      tag_129\n      jump\t// in\n    tag_404:\n        /* \"#utility.yul\":20855:21297   */\n      swap5\n      swap4\n      pop\n      pop\n      pop\n      pop\n      jump\t// out\n        /* \"#utility.yul\":21303:21419   */\n    tag_178:\n        /* \"#utility.yul\":21373:21394   */\n      tag_406\n        /* \"#utility.yul\":21388:21393   */\n      dup2\n        /* \"#utility.yul\":21373:21394   */\n      tag_130\n      jump\t// in\n    tag_406:\n        /* \"#utility.yul\":21366:21371   */\n      dup2\n        /* \"#utility.yul\":21363:21395   */\n      eq\n        /* \"#utility.yul\":21353:21413   */\n      tag_407\n      jumpi\n        /* \"#utility.yul\":21409:21410   */\n      0x00\n        /* \"#utility.yul\":21406:21407   */\n      dup1\n        /* \"#utility.yul\":21399:21411   */\n      revert\n        /* \"#utility.yul\":21353:21413   */\n    tag_407:\n        /* \"#utility.yul\":21303:21419   */\n      pop\n      jump\t// out\n        /* \"#utility.yul\":21425:21562   */\n    tag_179:\n        /* \"#utility.yul\":21479:21484   */\n      0x00\n        /* \"#utility.yul\":21510:21516   */\n      dup2\n        /* \"#utility.yul\":21504:21517   */\n      mload\n        /* \"#utility.yul\":21495:21517   */\n      swap1\n      pop\n        /* \"#utility.yul\":21526:21556   */\n      tag_409\n        /* \"#utility.yul\":21550:21555   */\n      dup2\n        /* \"#utility.yul\":21526:21556   */\n      tag_178\n      jump\t// in\n    tag_409:\n        /* \"#utility.yul\":21425:21562   */\n      swap3\n      swap2\n      pop\n      pop\n      jump\t// out\n        /* \"#utility.yul\":21568:21913   */\n    tag_77:\n        /* \"#utility.yul\":21635:21641   */\n      0x00\n        /* \"#utility.yul\":21684:21686   */\n      0x20\n        /* \"#utility.yul\":21672:21681   */\n      dup3\n        /* \"#utility.yul\":21663:21670   */\n      dup5\n        /* \"#utility.yul\":21659:21682   */\n      sub\n        /* \"#utility.yul\":21655:21687   */\n      slt\n        /* \"#utility.yul\":21652:21771   */\n      iszero\n      tag_411\n      jumpi\n        /* \"#utility.yul\":21690:21769   */\n      tag_412\n      tag_113\n      jump\t// in\n    tag_412:\n        /* \"#utility.yul\":21652:21771   */\n    tag_411:\n        /* \"#utility.yul\":21810:21811   */\n      0x00\n        /* \"#utility.yul\":21835:21896   */\n      tag_413\n        /* \"#utility.yul\":21888:21895   */\n      dup5\n        /* \"#utility.yul\":21879:21885   */\n      dup3\n        /* \"#utility.yul\":21868:21877   */\n      dup6\n        /* \"#utility.yul\":21864:21886   */\n      add\n        /* \"#utility.yul\":21835:21896   */\n      tag_179\n      jump\t// in\n    tag_413:\n        /* \"#utility.yul\":21825:21896   */\n      swap2\n      pop\n        /* \"#utility.yul\":21781:21906   */\n      pop\n        /* \"#utility.yul\":21568:21913   */\n      swap3\n      swap2\n      pop\n      pop\n      jump\t// out\n        /* \"#utility.yul\":21919:22148   */\n    tag_180:\n        /* \"#utility.yul\":22059:22093   */\n      0x5361666545524332303a204552433230206f7065726174696f6e20646964206e\n        /* \"#utility.yul\":22055:22056   */\n      0x00\n        /* \"#utility.yul\":22047:22053   */\n      dup3\n        /* \"#utility.yul\":22043:22057   */\n      add\n        /* \"#utility.yul\":22036:22094   */\n      mstore\n        /* \"#utility.yul\":22128:22140   */\n      0x6f74207375636365656400000000000000000000000000000000000000000000\n        /* \"#utility.yul\":22123:22125   */\n      0x20\n        /* \"#utility.yul\":22115:22121   */\n      dup3\n        /* \"#utility.yul\":22111:22126   */\n      add\n        /* \"#utility.yul\":22104:22141   */\n      mstore\n        /* \"#utility.yul\":21919:22148   */\n      pop\n      jump\t// out\n        /* \"#utility.yul\":22154:22520   */\n    tag_181:\n        /* \"#utility.yul\":22296:22299   */\n      0x00\n        /* \"#utility.yul\":22317:22384   */\n      tag_416\n        /* \"#utility.yul\":22381:22383   */\n      0x2a\n        /* \"#utility.yul\":22376:22379   */\n      dup4\n        /* \"#utility.yul\":22317:22384   */\n      tag_124\n      jump\t// in\n    tag_416:\n        /* \"#utility.yul\":22310:22384   */\n      swap2\n      pop\n        /* \"#utility.yul\":22393:22486   */\n      tag_417\n        /* \"#utility.yul\":22482:22485   */\n      dup3\n        /* \"#utility.yul\":22393:22486   */\n      tag_180\n      jump\t// in\n    tag_417:\n        /* \"#utility.yul\":22511:22513   */\n      0x40\n        /* \"#utility.yul\":22506:22509   */\n      dup3\n        /* \"#utility.yul\":22502:22514   */\n      add\n        /* \"#utility.yul\":22495:22514   */\n      swap1\n      pop\n        /* \"#utility.yul\":22154:22520   */\n      swap2\n      swap1\n      pop\n      jump\t// out\n        /* \"#utility.yul\":22526:22945   */\n    tag_80:\n        /* \"#utility.yul\":22692:22696   */\n      0x00\n        /* \"#utility.yul\":22730:22732   */\n      0x20\n        /* \"#utility.yul\":22719:22728   */\n      dup3\n        /* \"#utility.yul\":22715:22733   */\n      add\n        /* \"#utility.yul\":22707:22733   */\n      swap1\n      pop\n        /* \"#utility.yul\":22779:22788   */\n      dup2\n        /* \"#utility.yul\":22773:22777   */\n      dup2\n        /* \"#utility.yul\":22769:22789   */\n      sub\n        /* \"#utility.yul\":22765:22766   */\n      0x00\n        /* \"#utility.yul\":22754:22763   */\n      dup4\n        /* \"#utility.yul\":22750:22767   */\n      add\n        /* \"#utility.yul\":22743:22790   */\n      mstore\n        /* \"#utility.yul\":22807:22938   */\n      tag_419\n        /* \"#utility.yul\":22933:22937   */\n      dup2\n        /* \"#utility.yul\":22807:22938   */\n      tag_181\n      jump\t// in\n    tag_419:\n        /* \"#utility.yul\":22799:22938   */\n      swap1\n      pop\n        /* \"#utility.yul\":22526:22945   */\n      swap2\n      swap1\n      pop\n      jump\t// out\n        /* \"#utility.yul\":22951:23176   */\n    tag_182:\n        /* \"#utility.yul\":23091:23125   */\n      0x416464726573733a20696e73756666696369656e742062616c616e636520666f\n        /* \"#utility.yul\":23087:23088   */\n      0x00\n        /* \"#utility.yul\":23079:23085   */\n      dup3\n        /* \"#utility.yul\":23075:23089   */\n      add\n        /* \"#utility.yul\":23068:23126   */\n      mstore\n        /* \"#utility.yul\":23160:23168   */\n      0x722063616c6c0000000000000000000000000000000000000000000000000000\n        /* \"#utility.yul\":23155:23157   */\n      0x20\n        /* \"#utility.yul\":23147:23153   */\n      dup3\n        /* \"#utility.yul\":23143:23158   */\n      add\n        /* \"#utility.yul\":23136:23169   */\n      mstore\n        /* \"#utility.yul\":22951:23176   */\n      pop\n      jump\t// out\n        /* \"#utility.yul\":23182:23548   */\n    tag_183:\n        /* \"#utility.yul\":23324:23327   */\n      0x00\n        /* \"#utility.yul\":23345:23412   */\n      tag_422\n        /* \"#utility.yul\":23409:23411   */\n      0x26\n        /* \"#utility.yul\":23404:23407   */\n      dup4\n        /* \"#utility.yul\":23345:23412   */\n      tag_124\n      jump\t// in\n    tag_422:\n        /* \"#utility.yul\":23338:23412   */\n      swap2\n      pop\n        /* \"#utility.yul\":23421:23514   */\n      tag_423\n        /* \"#utility.yul\":23510:23513   */\n      dup3\n        /* \"#utility.yul\":23421:23514   */\n      tag_182\n      jump\t// in\n    tag_423:\n        /* \"#utility.yul\":23539:23541   */\n      0x40\n        /* \"#utility.yul\":23534:23537   */\n      dup3\n        /* \"#utility.yul\":23530:23542   */\n      add\n        /* \"#utility.yul\":23523:23542   */\n      swap1\n      pop\n        /* \"#utility.yul\":23182:23548   */\n      swap2\n      swap1\n      pop\n      jump\t// out\n        /* \"#utility.yul\":23554:23973   */\n    tag_87:\n        /* \"#utility.yul\":23720:23724   */\n      0x00\n        /* \"#utility.yul\":23758:23760   */\n      0x20\n        /* \"#utility.yul\":23747:23756   */\n      dup3\n        /* \"#utility.yul\":23743:23761   */\n      add\n        /* \"#utility.yul\":23735:23761   */\n      swap1\n      pop\n        /* \"#utility.yul\":23807:23816   */\n      dup2\n        /* \"#utility.yul\":23801:23805   */\n      dup2\n        /* \"#utility.yul\":23797:23817   */\n      sub\n        /* \"#utility.yul\":23793:23794   */\n      0x00\n        /* \"#utility.yul\":23782:23791   */\n      dup4\n        /* \"#utility.yul\":23778:23795   */\n      add\n        /* \"#utility.yul\":23771:23818   */\n      mstore\n        /* \"#utility.yul\":23835:23966   */\n      tag_425\n        /* \"#utility.yul\":23961:23965   */\n      dup2\n        /* \"#utility.yul\":23835:23966   */\n      tag_183\n      jump\t// in\n    tag_425:\n        /* \"#utility.yul\":23827:23966   */\n      swap1\n      pop\n        /* \"#utility.yul\":23554:23973   */\n      swap2\n      swap1\n      pop\n      jump\t// out\n        /* \"#utility.yul\":23979:24077   */\n    tag_184:\n        /* \"#utility.yul\":24030:24036   */\n      0x00\n        /* \"#utility.yul\":24064:24069   */\n      dup2\n        /* \"#utility.yul\":24058:24070   */\n      mload\n        /* \"#utility.yul\":24048:24070   */\n      swap1\n      pop\n        /* \"#utility.yul\":23979:24077   */\n      swap2\n      swap1\n      pop\n      jump\t// out\n        /* \"#utility.yul\":24083:24230   */\n    tag_185:\n        /* \"#utility.yul\":24184:24195   */\n      0x00\n        /* \"#utility.yul\":24221:24224   */\n      dup2\n        /* \"#utility.yul\":24206:24224   */\n      swap1\n      pop\n        /* \"#utility.yul\":24083:24230   */\n      swap3\n      swap2\n      pop\n      pop\n      jump\t// out\n        /* \"#utility.yul\":24236:24622   */\n    tag_186:\n        /* \"#utility.yul\":24340:24343   */\n      0x00\n        /* \"#utility.yul\":24368:24406   */\n      tag_429\n        /* \"#utility.yul\":24400:24405   */\n      dup3\n        /* \"#utility.yul\":24368:24406   */\n      tag_184\n      jump\t// in\n    tag_429:\n        /* \"#utility.yul\":24422:24510   */\n      tag_430\n        /* \"#utility.yul\":24503:24509   */\n      dup2\n        /* \"#utility.yul\":24498:24501   */\n      dup6\n        /* \"#utility.yul\":24422:24510   */\n      tag_185\n      jump\t// in\n    tag_430:\n        /* \"#utility.yul\":24415:24510   */\n      swap4\n      pop\n        /* \"#utility.yul\":24519:24584   */\n      tag_431\n        /* \"#utility.yul\":24577:24583   */\n      dup2\n        /* \"#utility.yul\":24572:24575   */\n      dup6\n        /* \"#utility.yul\":24565:24569   */\n      0x20\n        /* \"#utility.yul\":24558:24563   */\n      dup7\n        /* \"#utility.yul\":24554:24570   */\n      add\n        /* \"#utility.yul\":24519:24584   */\n      tag_125\n      jump\t// in\n    tag_431:\n        /* \"#utility.yul\":24609:24615   */\n      dup1\n        /* \"#utility.yul\":24604:24607   */\n      dup5\n        /* \"#utility.yul\":24600:24616   */\n      add\n        /* \"#utility.yul\":24593:24616   */\n      swap2\n      pop\n        /* \"#utility.yul\":24344:24622   */\n      pop\n        /* \"#utility.yul\":24236:24622   */\n      swap3\n      swap2\n      pop\n      pop\n      jump\t// out\n        /* \"#utility.yul\":24628:24899   */\n    tag_89:\n        /* \"#utility.yul\":24758:24761   */\n      0x00\n        /* \"#utility.yul\":24780:24873   */\n      tag_433\n        /* \"#utility.yul\":24869:24872   */\n      dup3\n        /* \"#utility.yul\":24860:24866   */\n      dup5\n        /* \"#utility.yul\":24780:24873   */\n      tag_186\n      jump\t// in\n    tag_433:\n        /* \"#utility.yul\":24773:24873   */\n      swap2\n      pop\n        /* \"#utility.yul\":24890:24893   */\n      dup2\n        /* \"#utility.yul\":24883:24893   */\n      swap1\n      pop\n        /* \"#utility.yul\":24628:24899   */\n      swap3\n      swap2\n      pop\n      pop\n      jump\t// out\n        /* \"#utility.yul\":24905:25084   */\n    tag_187:\n        /* \"#utility.yul\":25045:25076   */\n      0x416464726573733a2063616c6c20746f206e6f6e2d636f6e7472616374000000\n        /* \"#utility.yul\":25041:25042   */\n      0x00\n        /* \"#utility.yul\":25033:25039   */\n      dup3\n        /* \"#utility.yul\":25029:25043   */\n      add\n        /* \"#utility.yul\":25022:25077   */\n      mstore\n        /* \"#utility.yul\":24905:25084   */\n      pop\n      jump\t// out\n        /* \"#utility.yul\":25090:25456   */\n    tag_188:\n        /* \"#utility.yul\":25232:25235   */\n      0x00\n        /* \"#utility.yul\":25253:25320   */\n      tag_436\n        /* \"#utility.yul\":25317:25319   */\n      0x1d\n        /* \"#utility.yul\":25312:25315   */\n      dup4\n        /* \"#utility.yul\":25253:25320   */\n      tag_124\n      jump\t// in\n    tag_436:\n        /* \"#utility.yul\":25246:25320   */\n      swap2\n      pop\n        /* \"#utility.yul\":25329:25422   */\n      tag_437\n        /* \"#utility.yul\":25418:25421   */\n      dup3\n        /* \"#utility.yul\":25329:25422   */\n      tag_187\n      jump\t// in\n    tag_437:\n        /* \"#utility.yul\":25447:25449   */\n      0x20\n        /* \"#utility.yul\":25442:25445   */\n      dup3\n        /* \"#utility.yul\":25438:25450   */\n      add\n        /* \"#utility.yul\":25431:25450   */\n      swap1\n      pop\n        /* \"#utility.yul\":25090:25456   */\n      swap2\n      swap1\n      pop\n      jump\t// out\n        /* \"#utility.yul\":25462:25881   */\n    tag_102:\n        /* \"#utility.yul\":25628:25632   */\n      0x00\n        /* \"#utility.yul\":25666:25668   */\n      0x20\n        /* \"#utility.yul\":25655:25664   */\n      dup3\n        /* \"#utility.yul\":25651:25669   */\n      add\n        /* \"#utility.yul\":25643:25669   */\n      swap1\n      pop\n        /* \"#utility.yul\":25715:25724   */\n      dup2\n        /* \"#utility.yul\":25709:25713   */\n      dup2\n        /* \"#utility.yul\":25705:25725   */\n      sub\n        /* \"#utility.yul\":25701:25702   */\n      0x00\n        /* \"#utility.yul\":25690:25699   */\n      dup4\n        /* \"#utility.yul\":25686:25703   */\n      add\n        /* \"#utility.yul\":25679:25726   */\n      mstore\n        /* \"#utility.yul\":25743:25874   */\n      tag_439\n        /* \"#utility.yul\":25869:25873   */\n      dup2\n        /* \"#utility.yul\":25743:25874   */\n      tag_188\n      jump\t// in\n    tag_439:\n        /* \"#utility.yul\":25735:25874   */\n      swap1\n      pop\n        /* \"#utility.yul\":25462:25881   */\n      swap2\n      swap1\n      pop\n      jump\t// out\n        /* \"#utility.yul\":25887:26200   */\n    tag_111:\n        /* \"#utility.yul\":26000:26004   */\n      0x00\n        /* \"#utility.yul\":26038:26040   */\n      0x20\n        /* \"#utility.yul\":26027:26036   */\n      dup3\n        /* \"#utility.yul\":26023:26041   */\n      add\n        /* \"#utility.yul\":26015:26041   */\n      swap1\n      pop\n        /* \"#utility.yul\":26087:26096   */\n      dup2\n        /* \"#utility.yul\":26081:26085   */\n      dup2\n        /* \"#utility.yul\":26077:26097   */\n      sub\n        /* \"#utility.yul\":26073:26074   */\n      0x00\n        /* \"#utility.yul\":26062:26071   */\n      dup4\n        /* \"#utility.yul\":26058:26075   */\n      add\n        /* \"#utility.yul\":26051:26098   */\n      mstore\n        /* \"#utility.yul\":26115:26193   */\n      tag_441\n        /* \"#utility.yul\":26188:26192   */\n      dup2\n        /* \"#utility.yul\":26179:26185   */\n      dup5\n        /* \"#utility.yul\":26115:26193   */\n      tag_127\n      jump\t// in\n    tag_441:\n        /* \"#utility.yul\":26107:26193   */\n      swap1\n      pop\n        /* \"#utility.yul\":25887:26200   */\n      swap3\n      swap2\n      pop\n      pop\n      jump\t// out\n\n    auxdata: 0xa26469706673582212206d5a552ed9cc1425503aea32c7e89f59cf1576800ee30669c1c497337ee0a77d64736f6c634300081a0033\n}\n",
				"bytecode": {
					"linkReferences": {},
					"object": "6080604052348015600e575f80fd5b5061177b8061001c5f395ff3fe608060405234801561000f575f80fd5b506004361061004a575f3560e01c80631b258d501461004e5780633d4dff7b1461006a578063ab6d1c091461009f578063eb21b9d7146100bb575b5f80fd5b61006860048036038101906100639190610aa3565b6100d7565b005b610084600480360381019061007f9190610ae1565b6102b2565b60405161009696959493929190610bbd565b60405180910390f35b6100b960048036038101906100b49190610ae1565b6103a7565b005b6100d560048036038101906100d09190610d79565b61046c565b005b5f805f8481526020019081526020015f209050806004015f9054906101000a900460ff161561013b576040517f08c379a000000000000000000000000000000000000000000000000000000000815260040161013290610e43565b60405180910390fd5b3373ffffffffffffffffffffffffffffffffffffffff16815f015f9054906101000a900473ffffffffffffffffffffffffffffffffffffffff1673ffffffffffffffffffffffffffffffffffffffff16146101cb576040517f08c379a00000000000000000000000000000000000000000000000000000000081526004016101c290610ed1565b60405180910390fd5b8060040160019054906101000a900460ff16806101ec575080600301544310155b61022b576040517f08c379a000000000000000000000000000000000000000000000000000000000815260040161022290610f5f565b60405180910390fd5b6001816004015f6101000a81548160ff0219169083151502179055506102763382600201548473ffffffffffffffffffffffffffffffffffffffff1661066c9092919063ffffffff16565b7f44654674e66e9e53d34afdf3e9513fb94b4c8b946e980d6958ef4e6a37a153e3836040516102a59190610f8c565b60405180910390a1505050565b5f602052805f5260405f205f91509050805f015f9054906101000a900473ffffffffffffffffffffffffffffffffffffffff16908060010180546102f590610fd2565b80601f016020809104026020016040519081016040528092919081815260200182805461032190610fd2565b801561036c5780601f106103435761010080835404028352916020019161036c565b820191905f5260205f20905b81548152906001019060200180831161034f57829003601f168201915b505050505090806002015490806003015490806004015f9054906101000a900460ff16908060040160019054906101000a900460ff16905086565b5f80610468575f805f8481526020019081526020015f2090508060040160019054906101000a900460ff1615610412576040517f08c379a00000000000000000000000000000000000000000000000000000000081526004016104099061104c565b60405180910390fd5b60018160040160016101000a81548160ff0219169083151502179055507f3374383624a6239154f46d2d6fc35a0e58e2f53b0d5ea77c85d26e3fddebdee08360405161045e9190610f8c565b60405180910390a1505b5050565b5f82116104ae576040517f08c379a00000000000000000000000000000000000000000000000000000000081526004016104a5906110da565b60405180910390fd5b6104db3330848773ffffffffffffffffffffffffffffffffffffffff166106f2909392919063ffffffff16565b5f338484846040516020016104f39493929190611197565b6040516020818303038152906040528051906020012090506040518060c001604052803373ffffffffffffffffffffffffffffffffffffffff1681526020018581526020018481526020018381526020015f151581526020015f15158152505f808381526020019081526020015f205f820151815f015f6101000a81548173ffffffffffffffffffffffffffffffffffffffff021916908373ffffffffffffffffffffffffffffffffffffffff16021790555060208201518160010190816105bb919061137d565b5060408201518160020155606082015181600301556080820151816004015f6101000a81548160ff02191690831515021790555060a08201518160040160016101000a81548160ff0219169083151502179055509050503373ffffffffffffffffffffffffffffffffffffffff167ea1cff1b2f4bcfbf6eeee2c1d4fd6de1249eeaa035f878bd93899dc7a8348b68286868660405161065d949392919061144c565b60405180910390a25050505050565b6106ed8363a9059cbb60e01b848460405160240161068b929190611496565b604051602081830303815290604052907bffffffffffffffffffffffffffffffffffffffffffffffffffffffff19166020820180517bffffffffffffffffffffffffffffffffffffffffffffffffffffffff838183161783525050505061077b565b505050565b610775846323b872dd60e01b858585604051602401610713939291906114bd565b604051602081830303815290604052907bffffffffffffffffffffffffffffffffffffffffffffffffffffffff19166020820180517bffffffffffffffffffffffffffffffffffffffffffffffffffffffff838183161783525050505061077b565b50505050565b5f6107dc826040518060400160405280602081526020017f5361666545524332303a206c6f772d6c6576656c2063616c6c206661696c65648152508573ffffffffffffffffffffffffffffffffffffffff166108409092919063ffffffff16565b90505f8151111561083b57808060200190518101906107fb919061151c565b61083a576040517f08c379a0000000000000000000000000000000000000000000000000000000008152600401610831906115b7565b60405180910390fd5b5b505050565b606061084e84845f85610857565b90509392505050565b60608247101561089c576040517f08c379a000000000000000000000000000000000000000000000000000000000815260040161089390611645565b60405180910390fd5b5f808673ffffffffffffffffffffffffffffffffffffffff1685876040516108c491906116a7565b5f6040518083038185875af1925050503d805f81146108fe576040519150601f19603f3d011682016040523d82523d5f602084013e610903565b606091505b509150915061091487838387610920565b92505050949350505050565b60608315610981575f8351036109795761093985610994565b610978576040517f08c379a000000000000000000000000000000000000000000000000000000000815260040161096f90611707565b60405180910390fd5b5b82905061098c565b61098b83836109b6565b5b949350505050565b5f808273ffffffffffffffffffffffffffffffffffffffff163b119050919050565b5f825111156109c85781518083602001fd5b806040517f08c379a00000000000000000000000000000000000000000000000000000000081526004016109fc9190611725565b60405180910390fd5b5f604051905090565b5f80fd5b5f80fd5b5f819050919050565b610a2881610a16565b8114610a32575f80fd5b50565b5f81359050610a4381610a1f565b92915050565b5f73ffffffffffffffffffffffffffffffffffffffff82169050919050565b5f610a7282610a49565b9050919050565b610a8281610a68565b8114610a8c575f80fd5b50565b5f81359050610a9d81610a79565b92915050565b5f8060408385031215610ab957610ab8610a0e565b5b5f610ac685828601610a35565b9250506020610ad785828601610a8f565b9150509250929050565b5f60208284031215610af657610af5610a0e565b5b5f610b0384828501610a35565b91505092915050565b610b1581610a68565b82525050565b5f81519050919050565b5f82825260208201905092915050565b8281835e5f83830152505050565b5f601f19601f8301169050919050565b5f610b5d82610b1b565b610b678185610b25565b9350610b77818560208601610b35565b610b8081610b43565b840191505092915050565b5f819050919050565b610b9d81610b8b565b82525050565b5f8115159050919050565b610bb781610ba3565b82525050565b5f60c082019050610bd05f830189610b0c565b8181036020830152610be28188610b53565b9050610bf16040830187610b94565b610bfe6060830186610b94565b610c0b6080830185610bae565b610c1860a0830184610bae565b979650505050505050565b5f80fd5b5f80fd5b7f4e487b71000000000000000000000000000000000000000000000000000000005f52604160045260245ffd5b610c6182610b43565b810181811067ffffffffffffffff82111715610c8057610c7f610c2b565b5b80604052505050565b5f610c92610a05565b9050610c9e8282610c58565b919050565b5f67ffffffffffffffff821115610cbd57610cbc610c2b565b5b610cc682610b43565b9050602081019050919050565b828183375f83830152505050565b5f610cf3610cee84610ca3565b610c89565b905082815260208101848484011115610d0f57610d0e610c27565b5b610d1a848285610cd3565b509392505050565b5f82601f830112610d3657610d35610c23565b5b8135610d46848260208601610ce1565b91505092915050565b610d5881610b8b565b8114610d62575f80fd5b50565b5f81359050610d7381610d4f565b92915050565b5f805f8060808587031215610d9157610d90610a0e565b5b5f610d9e87828801610a8f565b945050602085013567ffffffffffffffff811115610dbf57610dbe610a12565b5b610dcb87828801610d22565b9350506040610ddc87828801610d65565b9250506060610ded87828801610d65565b91505092959194509250565b7f4465706f73697420616c72656164792077697468647261776e2e0000000000005f82015250565b5f610e2d601a83610b25565b9150610e3882610df9565b602082019050919050565b5f6020820190508181035f830152610e5a81610e21565b9050919050565b7f4f6e6c7920746865206465706f7369746f722063616e207769746864726177205f8201527f746865206465706f7369742e0000000000000000000000000000000000000000602082015250565b5f610ebb602c83610b25565b9150610ec682610e61565b604082019050919050565b5f6020820190508181035f830152610ee881610eaf565b9050919050565b7f436f6e646974696f6e7320666f72207769746864726177616c206e6f74206d655f8201527f742e000000000000000000000000000000000000000000000000000000000000602082015250565b5f610f49602283610b25565b9150610f5482610eef565b604082019050919050565b5f6020820190508181035f830152610f7681610f3d565b9050919050565b610f8681610a16565b82525050565b5f602082019050610f9f5f830184610f7d565b92915050565b7f4e487b71000000000000000000000000000000000000000000000000000000005f52602260045260245ffd5b5f6002820490506001821680610fe957607f821691505b602082108103610ffc57610ffb610fa5565b5b50919050565b7f4576656e7420616c7265616479206f636375727265642e0000000000000000005f82015250565b5f611036601783610b25565b915061104182611002565b602082019050919050565b5f6020820190508181035f8301526110638161102a565b9050919050565b7f416d6f756e74206d7573742062652067726561746572207468616e207a65726f5f8201527f2e00000000000000000000000000000000000000000000000000000000000000602082015250565b5f6110c4602183610b25565b91506110cf8261106a565b604082019050919050565b5f6020820190508181035f8301526110f1816110b8565b9050919050565b5f8160601b9050919050565b5f61110e826110f8565b9050919050565b5f61111f82611104565b9050919050565b61113761113282610a68565b611115565b82525050565b5f81905092915050565b5f61115182610b1b565b61115b818561113d565b935061116b818560208601610b35565b80840191505092915050565b5f819050919050565b61119161118c82610b8b565b611177565b82525050565b5f6111a28287611126565b6014820191506111b28286611147565b91506111be8285611180565b6020820191506111ce8284611180565b60208201915081905095945050505050565b5f819050815f5260205f209050919050565b5f6020601f8301049050919050565b5f82821b905092915050565b5f6008830261123c7fffffffffffffffffffffffffffffffffffffffffffffffffffffffffffffffff82611201565b6112468683611201565b95508019841693508086168417925050509392505050565b5f819050919050565b5f61128161127c61127784610b8b565b61125e565b610b8b565b9050919050565b5f819050919050565b61129a83611267565b6112ae6112a682611288565b84845461120d565b825550505050565b5f90565b6112c26112b6565b6112cd818484611291565b505050565b5b818110156112f0576112e55f826112ba565b6001810190506112d3565b5050565b601f82111561133557611306816111e0565b61130f846111f2565b8101602085101561131e578190505b61133261132a856111f2565b8301826112d2565b50505b505050565b5f82821c905092915050565b5f6113555f198460080261133a565b1980831691505092915050565b5f61136d8383611346565b9150826002028217905092915050565b61138682610b1b565b67ffffffffffffffff81111561139f5761139e610c2b565b5b6113a98254610fd2565b6113b48282856112f4565b5f60209050601f8311600181146113e5575f84156113d3578287015190505b6113dd8582611362565b865550611444565b601f1984166113f3866111e0565b5f5b8281101561141a578489015182556001820191506020850194506020810190506113f5565b868310156114375784890151611433601f891682611346565b8355505b6001600288020188555050505b505050505050565b5f60808201905061145f5f830187610f7d565b81810360208301526114718186610b53565b90506114806040830185610b94565b61148d6060830184610b94565b95945050505050565b5f6040820190506114a95f830185610b0c565b6114b66020830184610b94565b9392505050565b5f6060820190506114d05f830186610b0c565b6114dd6020830185610b0c565b6114ea6040830184610b94565b949350505050565b6114fb81610ba3565b8114611505575f80fd5b50565b5f81519050611516816114f2565b92915050565b5f6020828403121561153157611530610a0e565b5b5f61153e84828501611508565b91505092915050565b7f5361666545524332303a204552433230206f7065726174696f6e20646964206e5f8201527f6f74207375636365656400000000000000000000000000000000000000000000602082015250565b5f6115a1602a83610b25565b91506115ac82611547565b604082019050919050565b5f6020820190508181035f8301526115ce81611595565b9050919050565b7f416464726573733a20696e73756666696369656e742062616c616e636520666f5f8201527f722063616c6c0000000000000000000000000000000000000000000000000000602082015250565b5f61162f602683610b25565b915061163a826115d5565b604082019050919050565b5f6020820190508181035f83015261165c81611623565b9050919050565b5f81519050919050565b5f81905092915050565b5f61168182611663565b61168b818561166d565b935061169b818560208601610b35565b80840191505092915050565b5f6116b28284611677565b915081905092915050565b7f416464726573733a2063616c6c20746f206e6f6e2d636f6e74726163740000005f82015250565b5f6116f1601d83610b25565b91506116fc826116bd565b602082019050919050565b5f6020820190508181035f83015261171e816116e5565b9050919050565b5f6020820190508181035f83015261173d8184610b53565b90509291505056fea26469706673582212206d5a552ed9cc1425503aea32c7e89f59cf1576800ee30669c1c497337ee0a77d64736f6c634300081a0033",
					"opcodes": "PUSH1 0x80 PUSH1 0x40 MSTORE CALLVALUE DUP1 ISZERO PUSH1 0xE JUMPI PUSH0 DUP1 REVERT JUMPDEST POP PUSH2 0x177B DUP1 PUSH2 0x1C PUSH0 CODECOPY PUSH0 RETURN INVALID PUSH1 0x80 PUSH1 0x40 MSTORE CALLVALUE DUP1 ISZERO PUSH2 0xF JUMPI PUSH0 DUP1 REVERT JUMPDEST POP PUSH1 0x4 CALLDATASIZE LT PUSH2 0x4A JUMPI PUSH0 CALLDATALOAD PUSH1 0xE0 SHR DUP1 PUSH4 0x1B258D50 EQ PUSH2 0x4E JUMPI DUP1 PUSH4 0x3D4DFF7B EQ PUSH2 0x6A JUMPI DUP1 PUSH4 0xAB6D1C09 EQ PUSH2 0x9F JUMPI DUP1 PUSH4 0xEB21B9D7 EQ PUSH2 0xBB JUMPI JUMPDEST PUSH0 DUP1 REVERT JUMPDEST PUSH2 0x68 PUSH1 0x4 DUP1 CALLDATASIZE SUB DUP2 ADD SWAP1 PUSH2 0x63 SWAP2 SWAP1 PUSH2 0xAA3 JUMP JUMPDEST PUSH2 0xD7 JUMP JUMPDEST STOP JUMPDEST PUSH2 0x84 PUSH1 0x4 DUP1 CALLDATASIZE SUB DUP2 ADD SWAP1 PUSH2 0x7F SWAP2 SWAP1 PUSH2 0xAE1 JUMP JUMPDEST PUSH2 0x2B2 JUMP JUMPDEST PUSH1 0x40 MLOAD PUSH2 0x96 SWAP7 SWAP6 SWAP5 SWAP4 SWAP3 SWAP2 SWAP1 PUSH2 0xBBD JUMP JUMPDEST PUSH1 0x40 MLOAD DUP1 SWAP2 SUB SWAP1 RETURN JUMPDEST PUSH2 0xB9 PUSH1 0x4 DUP1 CALLDATASIZE SUB DUP2 ADD SWAP1 PUSH2 0xB4 SWAP2 SWAP1 PUSH2 0xAE1 JUMP JUMPDEST PUSH2 0x3A7 JUMP JUMPDEST STOP JUMPDEST PUSH2 0xD5 PUSH1 0x4 DUP1 CALLDATASIZE SUB DUP2 ADD SWAP1 PUSH2 0xD0 SWAP2 SWAP1 PUSH2 0xD79 JUMP JUMPDEST PUSH2 0x46C JUMP JUMPDEST STOP JUMPDEST PUSH0 DUP1 PUSH0 DUP5 DUP2 MSTORE PUSH1 0x20 ADD SWAP1 DUP2 MSTORE PUSH1 0x20 ADD PUSH0 KECCAK256 SWAP1 POP DUP1 PUSH1 0x4 ADD PUSH0 SWAP1 SLOAD SWAP1 PUSH2 0x100 EXP SWAP1 DIV PUSH1 0xFF AND ISZERO PUSH2 0x13B JUMPI PUSH1 0x40 MLOAD PUSH32 0x8C379A000000000000000000000000000000000000000000000000000000000 DUP2 MSTORE PUSH1 0x4 ADD PUSH2 0x132 SWAP1 PUSH2 0xE43 JUMP JUMPDEST PUSH1 0x40 MLOAD DUP1 SWAP2 SUB SWAP1 REVERT JUMPDEST CALLER PUSH20 0xFFFFFFFFFFFFFFFFFFFFFFFFFFFFFFFFFFFFFFFF AND DUP2 PUSH0 ADD PUSH0 SWAP1 SLOAD SWAP1 PUSH2 0x100 EXP SWAP1 DIV PUSH20 0xFFFFFFFFFFFFFFFFFFFFFFFFFFFFFFFFFFFFFFFF AND PUSH20 0xFFFFFFFFFFFFFFFFFFFFFFFFFFFFFFFFFFFFFFFF AND EQ PUSH2 0x1CB JUMPI PUSH1 0x40 MLOAD PUSH32 0x8C379A000000000000000000000000000000000000000000000000000000000 DUP2 MSTORE PUSH1 0x4 ADD PUSH2 0x1C2 SWAP1 PUSH2 0xED1 JUMP JUMPDEST PUSH1 0x40 MLOAD DUP1 SWAP2 SUB SWAP1 REVERT JUMPDEST DUP1 PUSH1 0x4 ADD PUSH1 0x1 SWAP1 SLOAD SWAP1 PUSH2 0x100 EXP SWAP1 DIV PUSH1 0xFF AND DUP1 PUSH2 0x1EC JUMPI POP DUP1 PUSH1 0x3 ADD SLOAD NUMBER LT ISZERO JUMPDEST PUSH2 0x22B JUMPI PUSH1 0x40 MLOAD PUSH32 0x8C379A000000000000000000000000000000000000000000000000000000000 DUP2 MSTORE PUSH1 0x4 ADD PUSH2 0x222 SWAP1 PUSH2 0xF5F JUMP JUMPDEST PUSH1 0x40 MLOAD DUP1 SWAP2 SUB SWAP1 REVERT JUMPDEST PUSH1 0x1 DUP2 PUSH1 0x4 ADD PUSH0 PUSH2 0x100 EXP DUP2 SLOAD DUP2 PUSH1 0xFF MUL NOT AND SWAP1 DUP4 ISZERO ISZERO MUL OR SWAP1 SSTORE POP PUSH2 0x276 CALLER DUP3 PUSH1 0x2 ADD SLOAD DUP5 PUSH20 0xFFFFFFFFFFFFFFFFFFFFFFFFFFFFFFFFFFFFFFFF AND PUSH2 0x66C SWAP1 SWAP3 SWAP2 SWAP1 PUSH4 0xFFFFFFFF AND JUMP JUMPDEST PUSH32 0x44654674E66E9E53D34AFDF3E9513FB94B4C8B946E980D6958EF4E6A37A153E3 DUP4 PUSH1 0x40 MLOAD PUSH2 0x2A5 SWAP2 SWAP1 PUSH2 0xF8C JUMP JUMPDEST PUSH1 0x40 MLOAD DUP1 SWAP2 SUB SWAP1 LOG1 POP POP POP JUMP JUMPDEST PUSH0 PUSH1 0x20 MSTORE DUP1 PUSH0 MSTORE PUSH1 0x40 PUSH0 KECCAK256 PUSH0 SWAP2 POP SWAP1 POP DUP1 PUSH0 ADD PUSH0 SWAP1 SLOAD SWAP1 PUSH2 0x100 EXP SWAP1 DIV PUSH20 0xFFFFFFFFFFFFFFFFFFFFFFFFFFFFFFFFFFFFFFFF AND SWAP1 DUP1 PUSH1 0x1 ADD DUP1 SLOAD PUSH2 0x2F5 SWAP1 PUSH2 0xFD2 JUMP JUMPDEST DUP1 PUSH1 0x1F ADD PUSH1 0x20 DUP1 SWAP2 DIV MUL PUSH1 0x20 ADD PUSH1 0x40 MLOAD SWAP1 DUP2 ADD PUSH1 0x40 MSTORE DUP1 SWAP3 SWAP2 SWAP1 DUP2 DUP2 MSTORE PUSH1 0x20 ADD DUP3 DUP1 SLOAD PUSH2 0x321 SWAP1 PUSH2 0xFD2 JUMP JUMPDEST DUP1 ISZERO PUSH2 0x36C JUMPI DUP1 PUSH1 0x1F LT PUSH2 0x343 JUMPI PUSH2 0x100 DUP1 DUP4 SLOAD DIV MUL DUP4 MSTORE SWAP2 PUSH1 0x20 ADD SWAP2 PUSH2 0x36C JUMP JUMPDEST DUP3 ADD SWAP2 SWAP1 PUSH0 MSTORE PUSH1 0x20 PUSH0 KECCAK256 SWAP1 JUMPDEST DUP2 SLOAD DUP2 MSTORE SWAP1 PUSH1 0x1 ADD SWAP1 PUSH1 0x20 ADD DUP1 DUP4 GT PUSH2 0x34F JUMPI DUP3 SWAP1 SUB PUSH1 0x1F AND DUP3 ADD SWAP2 JUMPDEST POP POP POP POP POP SWAP1 DUP1 PUSH1 0x2 ADD SLOAD SWAP1 DUP1 PUSH1 0x3 ADD SLOAD SWAP1 DUP1 PUSH1 0x4 ADD PUSH0 SWAP1 SLOAD SWAP1 PUSH2 0x100 EXP SWAP1 DIV PUSH1 0xFF AND SWAP1 DUP1 PUSH1 0x4 ADD PUSH1 0x1 SWAP1 SLOAD SWAP1 PUSH2 0x100 EXP SWAP1 DIV PUSH1 0xFF AND SWAP1 POP DUP7 JUMP JUMPDEST PUSH0 DUP1 PUSH2 0x468 JUMPI PUSH0 DUP1 PUSH0 DUP5 DUP2 MSTORE PUSH1 0x20 ADD SWAP1 DUP2 MSTORE PUSH1 0x20 ADD PUSH0 KECCAK256 SWAP1 POP DUP1 PUSH1 0x4 ADD PUSH1 0x1 SWAP1 SLOAD SWAP1 PUSH2 0x100 EXP SWAP1 DIV PUSH1 0xFF AND ISZERO PUSH2 0x412 JUMPI PUSH1 0x40 MLOAD PUSH32 0x8C379A000000000000000000000000000000000000000000000000000000000 DUP2 MSTORE PUSH1 0x4 ADD PUSH2 0x409 SWAP1 PUSH2 0x104C JUMP JUMPDEST PUSH1 0x40 MLOAD DUP1 SWAP2 SUB SWAP1 REVERT JUMPDEST PUSH1 0x1 DUP2 PUSH1 0x4 ADD PUSH1 0x1 PUSH2 0x100 EXP DUP2 SLOAD DUP2 PUSH1 0xFF MUL NOT AND SWAP1 DUP4 ISZERO ISZERO MUL OR SWAP1 SSTORE POP PUSH32 0x3374383624A6239154F46D2D6FC35A0E58E2F53B0D5EA77C85D26E3FDDEBDEE0 DUP4 PUSH1 0x40 MLOAD PUSH2 0x45E SWAP2 SWAP1 PUSH2 0xF8C JUMP JUMPDEST PUSH1 0x40 MLOAD DUP1 SWAP2 SUB SWAP1 LOG1 POP JUMPDEST POP POP JUMP JUMPDEST PUSH0 DUP3 GT PUSH2 0x4AE JUMPI PUSH1 0x40 MLOAD PUSH32 0x8C379A000000000000000000000000000000000000000000000000000000000 DUP2 MSTORE PUSH1 0x4 ADD PUSH2 0x4A5 SWAP1 PUSH2 0x10DA JUMP JUMPDEST PUSH1 0x40 MLOAD DUP1 SWAP2 SUB SWAP1 REVERT JUMPDEST PUSH2 0x4DB CALLER ADDRESS DUP5 DUP8 PUSH20 0xFFFFFFFFFFFFFFFFFFFFFFFFFFFFFFFFFFFFFFFF AND PUSH2 0x6F2 SWAP1 SWAP4 SWAP3 SWAP2 SWAP1 PUSH4 0xFFFFFFFF AND JUMP JUMPDEST PUSH0 CALLER DUP5 DUP5 DUP5 PUSH1 0x40 MLOAD PUSH1 0x20 ADD PUSH2 0x4F3 SWAP5 SWAP4 SWAP3 SWAP2 SWAP1 PUSH2 0x1197 JUMP JUMPDEST PUSH1 0x40 MLOAD PUSH1 0x20 DUP2 DUP4 SUB SUB DUP2 MSTORE SWAP1 PUSH1 0x40 MSTORE DUP1 MLOAD SWAP1 PUSH1 0x20 ADD KECCAK256 SWAP1 POP PUSH1 0x40 MLOAD DUP1 PUSH1 0xC0 ADD PUSH1 0x40 MSTORE DUP1 CALLER PUSH20 0xFFFFFFFFFFFFFFFFFFFFFFFFFFFFFFFFFFFFFFFF AND DUP2 MSTORE PUSH1 0x20 ADD DUP6 DUP2 MSTORE PUSH1 0x20 ADD DUP5 DUP2 MSTORE PUSH1 0x20 ADD DUP4 DUP2 MSTORE PUSH1 0x20 ADD PUSH0 ISZERO ISZERO DUP2 MSTORE PUSH1 0x20 ADD PUSH0 ISZERO ISZERO DUP2 MSTORE POP PUSH0 DUP1 DUP4 DUP2 MSTORE PUSH1 0x20 ADD SWAP1 DUP2 MSTORE PUSH1 0x20 ADD PUSH0 KECCAK256 PUSH0 DUP3 ADD MLOAD DUP2 PUSH0 ADD PUSH0 PUSH2 0x100 EXP DUP2 SLOAD DUP2 PUSH20 0xFFFFFFFFFFFFFFFFFFFFFFFFFFFFFFFFFFFFFFFF MUL NOT AND SWAP1 DUP4 PUSH20 0xFFFFFFFFFFFFFFFFFFFFFFFFFFFFFFFFFFFFFFFF AND MUL OR SWAP1 SSTORE POP PUSH1 0x20 DUP3 ADD MLOAD DUP2 PUSH1 0x1 ADD SWAP1 DUP2 PUSH2 0x5BB SWAP2 SWAP1 PUSH2 0x137D JUMP JUMPDEST POP PUSH1 0x40 DUP3 ADD MLOAD DUP2 PUSH1 0x2 ADD SSTORE PUSH1 0x60 DUP3 ADD MLOAD DUP2 PUSH1 0x3 ADD SSTORE PUSH1 0x80 DUP3 ADD MLOAD DUP2 PUSH1 0x4 ADD PUSH0 PUSH2 0x100 EXP DUP2 SLOAD DUP2 PUSH1 0xFF MUL NOT AND SWAP1 DUP4 ISZERO ISZERO MUL OR SWAP1 SSTORE POP PUSH1 0xA0 DUP3 ADD MLOAD DUP2 PUSH1 0x4 ADD PUSH1 0x1 PUSH2 0x100 EXP DUP2 SLOAD DUP2 PUSH1 0xFF MUL NOT AND SWAP1 DUP4 ISZERO ISZERO MUL OR SWAP1 SSTORE POP SWAP1 POP POP CALLER PUSH20 0xFFFFFFFFFFFFFFFFFFFFFFFFFFFFFFFFFFFFFFFF AND PUSH31 0xA1CFF1B2F4BCFBF6EEEE2C1D4FD6DE1249EEAA035F878BD93899DC7A8348B6 DUP3 DUP7 DUP7 DUP7 PUSH1 0x40 MLOAD PUSH2 0x65D SWAP5 SWAP4 SWAP3 SWAP2 SWAP1 PUSH2 0x144C JUMP JUMPDEST PUSH1 0x40 MLOAD DUP1 SWAP2 SUB SWAP1 LOG2 POP POP POP POP POP JUMP JUMPDEST PUSH2 0x6ED DUP4 PUSH4 0xA9059CBB PUSH1 0xE0 SHL DUP5 DUP5 PUSH1 0x40 MLOAD PUSH1 0x24 ADD PUSH2 0x68B SWAP3 SWAP2 SWAP1 PUSH2 0x1496 JUMP JUMPDEST PUSH1 0x40 MLOAD PUSH1 0x20 DUP2 DUP4 SUB SUB DUP2 MSTORE SWAP1 PUSH1 0x40 MSTORE SWAP1 PUSH28 0xFFFFFFFFFFFFFFFFFFFFFFFFFFFFFFFFFFFFFFFFFFFFFFFFFFFFFFFF NOT AND PUSH1 0x20 DUP3 ADD DUP1 MLOAD PUSH28 0xFFFFFFFFFFFFFFFFFFFFFFFFFFFFFFFFFFFFFFFFFFFFFFFFFFFFFFFF DUP4 DUP2 DUP4 AND OR DUP4 MSTORE POP POP POP POP PUSH2 0x77B JUMP JUMPDEST POP POP POP JUMP JUMPDEST PUSH2 0x775 DUP5 PUSH4 0x23B872DD PUSH1 0xE0 SHL DUP6 DUP6 DUP6 PUSH1 0x40 MLOAD PUSH1 0x24 ADD PUSH2 0x713 SWAP4 SWAP3 SWAP2 SWAP1 PUSH2 0x14BD JUMP JUMPDEST PUSH1 0x40 MLOAD PUSH1 0x20 DUP2 DUP4 SUB SUB DUP2 MSTORE SWAP1 PUSH1 0x40 MSTORE SWAP1 PUSH28 0xFFFFFFFFFFFFFFFFFFFFFFFFFFFFFFFFFFFFFFFFFFFFFFFFFFFFFFFF NOT AND PUSH1 0x20 DUP3 ADD DUP1 MLOAD PUSH28 0xFFFFFFFFFFFFFFFFFFFFFFFFFFFFFFFFFFFFFFFFFFFFFFFFFFFFFFFF DUP4 DUP2 DUP4 AND OR DUP4 MSTORE POP POP POP POP PUSH2 0x77B JUMP JUMPDEST POP POP POP POP JUMP JUMPDEST PUSH0 PUSH2 0x7DC DUP3 PUSH1 0x40 MLOAD DUP1 PUSH1 0x40 ADD PUSH1 0x40 MSTORE DUP1 PUSH1 0x20 DUP2 MSTORE PUSH1 0x20 ADD PUSH32 0x5361666545524332303A206C6F772D6C6576656C2063616C6C206661696C6564 DUP2 MSTORE POP DUP6 PUSH20 0xFFFFFFFFFFFFFFFFFFFFFFFFFFFFFFFFFFFFFFFF AND PUSH2 0x840 SWAP1 SWAP3 SWAP2 SWAP1 PUSH4 0xFFFFFFFF AND JUMP JUMPDEST SWAP1 POP PUSH0 DUP2 MLOAD GT ISZERO PUSH2 0x83B JUMPI DUP1 DUP1 PUSH1 0x20 ADD SWAP1 MLOAD DUP2 ADD SWAP1 PUSH2 0x7FB SWAP2 SWAP1 PUSH2 0x151C JUMP JUMPDEST PUSH2 0x83A JUMPI PUSH1 0x40 MLOAD PUSH32 0x8C379A000000000000000000000000000000000000000000000000000000000 DUP2 MSTORE PUSH1 0x4 ADD PUSH2 0x831 SWAP1 PUSH2 0x15B7 JUMP JUMPDEST PUSH1 0x40 MLOAD DUP1 SWAP2 SUB SWAP1 REVERT JUMPDEST JUMPDEST POP POP POP JUMP JUMPDEST PUSH1 0x60 PUSH2 0x84E DUP5 DUP5 PUSH0 DUP6 PUSH2 0x857 JUMP JUMPDEST SWAP1 POP SWAP4 SWAP3 POP POP POP JUMP JUMPDEST PUSH1 0x60 DUP3 SELFBALANCE LT ISZERO PUSH2 0x89C JUMPI PUSH1 0x40 MLOAD PUSH32 0x8C379A000000000000000000000000000000000000000000000000000000000 DUP2 MSTORE PUSH1 0x4 ADD PUSH2 0x893 SWAP1 PUSH2 0x1645 JUMP JUMPDEST PUSH1 0x40 MLOAD DUP1 SWAP2 SUB SWAP1 REVERT JUMPDEST PUSH0 DUP1 DUP7 PUSH20 0xFFFFFFFFFFFFFFFFFFFFFFFFFFFFFFFFFFFFFFFF AND DUP6 DUP8 PUSH1 0x40 MLOAD PUSH2 0x8C4 SWAP2 SWAP1 PUSH2 0x16A7 JUMP JUMPDEST PUSH0 PUSH1 0x40 MLOAD DUP1 DUP4 SUB DUP2 DUP6 DUP8 GAS CALL SWAP3 POP POP POP RETURNDATASIZE DUP1 PUSH0 DUP2 EQ PUSH2 0x8FE JUMPI PUSH1 0x40 MLOAD SWAP2 POP PUSH1 0x1F NOT PUSH1 0x3F RETURNDATASIZE ADD AND DUP3 ADD PUSH1 0x40 MSTORE RETURNDATASIZE DUP3 MSTORE RETURNDATASIZE PUSH0 PUSH1 0x20 DUP5 ADD RETURNDATACOPY PUSH2 0x903 JUMP JUMPDEST PUSH1 0x60 SWAP2 POP JUMPDEST POP SWAP2 POP SWAP2 POP PUSH2 0x914 DUP8 DUP4 DUP4 DUP8 PUSH2 0x920 JUMP JUMPDEST SWAP3 POP POP POP SWAP5 SWAP4 POP POP POP POP JUMP JUMPDEST PUSH1 0x60 DUP4 ISZERO PUSH2 0x981 JUMPI PUSH0 DUP4 MLOAD SUB PUSH2 0x979 JUMPI PUSH2 0x939 DUP6 PUSH2 0x994 JUMP JUMPDEST PUSH2 0x978 JUMPI PUSH1 0x40 MLOAD PUSH32 0x8C379A000000000000000000000000000000000000000000000000000000000 DUP2 MSTORE PUSH1 0x4 ADD PUSH2 0x96F SWAP1 PUSH2 0x1707 JUMP JUMPDEST PUSH1 0x40 MLOAD DUP1 SWAP2 SUB SWAP1 REVERT JUMPDEST JUMPDEST DUP3 SWAP1 POP PUSH2 0x98C JUMP JUMPDEST PUSH2 0x98B DUP4 DUP4 PUSH2 0x9B6 JUMP JUMPDEST JUMPDEST SWAP5 SWAP4 POP POP POP POP JUMP JUMPDEST PUSH0 DUP1 DUP3 PUSH20 0xFFFFFFFFFFFFFFFFFFFFFFFFFFFFFFFFFFFFFFFF AND EXTCODESIZE GT SWAP1 POP SWAP2 SWAP1 POP JUMP JUMPDEST PUSH0 DUP3 MLOAD GT ISZERO PUSH2 0x9C8 JUMPI DUP2 MLOAD DUP1 DUP4 PUSH1 0x20 ADD REVERT JUMPDEST DUP1 PUSH1 0x40 MLOAD PUSH32 0x8C379A000000000000000000000000000000000000000000000000000000000 DUP2 MSTORE PUSH1 0x4 ADD PUSH2 0x9FC SWAP2 SWAP1 PUSH2 0x1725 JUMP JUMPDEST PUSH1 0x40 MLOAD DUP1 SWAP2 SUB SWAP1 REVERT JUMPDEST PUSH0 PUSH1 0x40 MLOAD SWAP1 POP SWAP1 JUMP JUMPDEST PUSH0 DUP1 REVERT JUMPDEST PUSH0 DUP1 REVERT JUMPDEST PUSH0 DUP2 SWAP1 POP SWAP2 SWAP1 POP JUMP JUMPDEST PUSH2 0xA28 DUP2 PUSH2 0xA16 JUMP JUMPDEST DUP2 EQ PUSH2 0xA32 JUMPI PUSH0 DUP1 REVERT JUMPDEST POP JUMP JUMPDEST PUSH0 DUP2 CALLDATALOAD SWAP1 POP PUSH2 0xA43 DUP2 PUSH2 0xA1F JUMP JUMPDEST SWAP3 SWAP2 POP POP JUMP JUMPDEST PUSH0 PUSH20 0xFFFFFFFFFFFFFFFFFFFFFFFFFFFFFFFFFFFFFFFF DUP3 AND SWAP1 POP SWAP2 SWAP1 POP JUMP JUMPDEST PUSH0 PUSH2 0xA72 DUP3 PUSH2 0xA49 JUMP JUMPDEST SWAP1 POP SWAP2 SWAP1 POP JUMP JUMPDEST PUSH2 0xA82 DUP2 PUSH2 0xA68 JUMP JUMPDEST DUP2 EQ PUSH2 0xA8C JUMPI PUSH0 DUP1 REVERT JUMPDEST POP JUMP JUMPDEST PUSH0 DUP2 CALLDATALOAD SWAP1 POP PUSH2 0xA9D DUP2 PUSH2 0xA79 JUMP JUMPDEST SWAP3 SWAP2 POP POP JUMP JUMPDEST PUSH0 DUP1 PUSH1 0x40 DUP4 DUP6 SUB SLT ISZERO PUSH2 0xAB9 JUMPI PUSH2 0xAB8 PUSH2 0xA0E JUMP JUMPDEST JUMPDEST PUSH0 PUSH2 0xAC6 DUP6 DUP3 DUP7 ADD PUSH2 0xA35 JUMP JUMPDEST SWAP3 POP POP PUSH1 0x20 PUSH2 0xAD7 DUP6 DUP3 DUP7 ADD PUSH2 0xA8F JUMP JUMPDEST SWAP2 POP POP SWAP3 POP SWAP3 SWAP1 POP JUMP JUMPDEST PUSH0 PUSH1 0x20 DUP3 DUP5 SUB SLT ISZERO PUSH2 0xAF6 JUMPI PUSH2 0xAF5 PUSH2 0xA0E JUMP JUMPDEST JUMPDEST PUSH0 PUSH2 0xB03 DUP5 DUP3 DUP6 ADD PUSH2 0xA35 JUMP JUMPDEST SWAP2 POP POP SWAP3 SWAP2 POP POP JUMP JUMPDEST PUSH2 0xB15 DUP2 PUSH2 0xA68 JUMP JUMPDEST DUP3 MSTORE POP POP JUMP JUMPDEST PUSH0 DUP2 MLOAD SWAP1 POP SWAP2 SWAP1 POP JUMP JUMPDEST PUSH0 DUP3 DUP3 MSTORE PUSH1 0x20 DUP3 ADD SWAP1 POP SWAP3 SWAP2 POP POP JUMP JUMPDEST DUP3 DUP2 DUP4 MCOPY PUSH0 DUP4 DUP4 ADD MSTORE POP POP POP JUMP JUMPDEST PUSH0 PUSH1 0x1F NOT PUSH1 0x1F DUP4 ADD AND SWAP1 POP SWAP2 SWAP1 POP JUMP JUMPDEST PUSH0 PUSH2 0xB5D DUP3 PUSH2 0xB1B JUMP JUMPDEST PUSH2 0xB67 DUP2 DUP6 PUSH2 0xB25 JUMP JUMPDEST SWAP4 POP PUSH2 0xB77 DUP2 DUP6 PUSH1 0x20 DUP7 ADD PUSH2 0xB35 JUMP JUMPDEST PUSH2 0xB80 DUP2 PUSH2 0xB43 JUMP JUMPDEST DUP5 ADD SWAP2 POP POP SWAP3 SWAP2 POP POP JUMP JUMPDEST PUSH0 DUP2 SWAP1 POP SWAP2 SWAP1 POP JUMP JUMPDEST PUSH2 0xB9D DUP2 PUSH2 0xB8B JUMP JUMPDEST DUP3 MSTORE POP POP JUMP JUMPDEST PUSH0 DUP2 ISZERO ISZERO SWAP1 POP SWAP2 SWAP1 POP JUMP JUMPDEST PUSH2 0xBB7 DUP2 PUSH2 0xBA3 JUMP JUMPDEST DUP3 MSTORE POP POP JUMP JUMPDEST PUSH0 PUSH1 0xC0 DUP3 ADD SWAP1 POP PUSH2 0xBD0 PUSH0 DUP4 ADD DUP10 PUSH2 0xB0C JUMP JUMPDEST DUP2 DUP2 SUB PUSH1 0x20 DUP4 ADD MSTORE PUSH2 0xBE2 DUP2 DUP9 PUSH2 0xB53 JUMP JUMPDEST SWAP1 POP PUSH2 0xBF1 PUSH1 0x40 DUP4 ADD DUP8 PUSH2 0xB94 JUMP JUMPDEST PUSH2 0xBFE PUSH1 0x60 DUP4 ADD DUP7 PUSH2 0xB94 JUMP JUMPDEST PUSH2 0xC0B PUSH1 0x80 DUP4 ADD DUP6 PUSH2 0xBAE JUMP JUMPDEST PUSH2 0xC18 PUSH1 0xA0 DUP4 ADD DUP5 PUSH2 0xBAE JUMP JUMPDEST SWAP8 SWAP7 POP POP POP POP POP POP POP JUMP JUMPDEST PUSH0 DUP1 REVERT JUMPDEST PUSH0 DUP1 REVERT JUMPDEST PUSH32 0x4E487B7100000000000000000000000000000000000000000000000000000000 PUSH0 MSTORE PUSH1 0x41 PUSH1 0x4 MSTORE PUSH1 0x24 PUSH0 REVERT JUMPDEST PUSH2 0xC61 DUP3 PUSH2 0xB43 JUMP JUMPDEST DUP2 ADD DUP2 DUP2 LT PUSH8 0xFFFFFFFFFFFFFFFF DUP3 GT OR ISZERO PUSH2 0xC80 JUMPI PUSH2 0xC7F PUSH2 0xC2B JUMP JUMPDEST JUMPDEST DUP1 PUSH1 0x40 MSTORE POP POP POP JUMP JUMPDEST PUSH0 PUSH2 0xC92 PUSH2 0xA05 JUMP JUMPDEST SWAP1 POP PUSH2 0xC9E DUP3 DUP3 PUSH2 0xC58 JUMP JUMPDEST SWAP2 SWAP1 POP JUMP JUMPDEST PUSH0 PUSH8 0xFFFFFFFFFFFFFFFF DUP3 GT ISZERO PUSH2 0xCBD JUMPI PUSH2 0xCBC PUSH2 0xC2B JUMP JUMPDEST JUMPDEST PUSH2 0xCC6 DUP3 PUSH2 0xB43 JUMP JUMPDEST SWAP1 POP PUSH1 0x20 DUP2 ADD SWAP1 POP SWAP2 SWAP1 POP JUMP JUMPDEST DUP3 DUP2 DUP4 CALLDATACOPY PUSH0 DUP4 DUP4 ADD MSTORE POP POP POP JUMP JUMPDEST PUSH0 PUSH2 0xCF3 PUSH2 0xCEE DUP5 PUSH2 0xCA3 JUMP JUMPDEST PUSH2 0xC89 JUMP JUMPDEST SWAP1 POP DUP3 DUP2 MSTORE PUSH1 0x20 DUP2 ADD DUP5 DUP5 DUP5 ADD GT ISZERO PUSH2 0xD0F JUMPI PUSH2 0xD0E PUSH2 0xC27 JUMP JUMPDEST JUMPDEST PUSH2 0xD1A DUP5 DUP3 DUP6 PUSH2 0xCD3 JUMP JUMPDEST POP SWAP4 SWAP3 POP POP POP JUMP JUMPDEST PUSH0 DUP3 PUSH1 0x1F DUP4 ADD SLT PUSH2 0xD36 JUMPI PUSH2 0xD35 PUSH2 0xC23 JUMP JUMPDEST JUMPDEST DUP2 CALLDATALOAD PUSH2 0xD46 DUP5 DUP3 PUSH1 0x20 DUP7 ADD PUSH2 0xCE1 JUMP JUMPDEST SWAP2 POP POP SWAP3 SWAP2 POP POP JUMP JUMPDEST PUSH2 0xD58 DUP2 PUSH2 0xB8B JUMP JUMPDEST DUP2 EQ PUSH2 0xD62 JUMPI PUSH0 DUP1 REVERT JUMPDEST POP JUMP JUMPDEST PUSH0 DUP2 CALLDATALOAD SWAP1 POP PUSH2 0xD73 DUP2 PUSH2 0xD4F JUMP JUMPDEST SWAP3 SWAP2 POP POP JUMP JUMPDEST PUSH0 DUP1 PUSH0 DUP1 PUSH1 0x80 DUP6 DUP8 SUB SLT ISZERO PUSH2 0xD91 JUMPI PUSH2 0xD90 PUSH2 0xA0E JUMP JUMPDEST JUMPDEST PUSH0 PUSH2 0xD9E DUP8 DUP3 DUP9 ADD PUSH2 0xA8F JUMP JUMPDEST SWAP5 POP POP PUSH1 0x20 DUP6 ADD CALLDATALOAD PUSH8 0xFFFFFFFFFFFFFFFF DUP2 GT ISZERO PUSH2 0xDBF JUMPI PUSH2 0xDBE PUSH2 0xA12 JUMP JUMPDEST JUMPDEST PUSH2 0xDCB DUP8 DUP3 DUP9 ADD PUSH2 0xD22 JUMP JUMPDEST SWAP4 POP POP PUSH1 0x40 PUSH2 0xDDC DUP8 DUP3 DUP9 ADD PUSH2 0xD65 JUMP JUMPDEST SWAP3 POP POP PUSH1 0x60 PUSH2 0xDED DUP8 DUP3 DUP9 ADD PUSH2 0xD65 JUMP JUMPDEST SWAP2 POP POP SWAP3 SWAP6 SWAP2 SWAP5 POP SWAP3 POP JUMP JUMPDEST PUSH32 0x4465706F73697420616C72656164792077697468647261776E2E000000000000 PUSH0 DUP3 ADD MSTORE POP JUMP JUMPDEST PUSH0 PUSH2 0xE2D PUSH1 0x1A DUP4 PUSH2 0xB25 JUMP JUMPDEST SWAP2 POP PUSH2 0xE38 DUP3 PUSH2 0xDF9 JUMP JUMPDEST PUSH1 0x20 DUP3 ADD SWAP1 POP SWAP2 SWAP1 POP JUMP JUMPDEST PUSH0 PUSH1 0x20 DUP3 ADD SWAP1 POP DUP2 DUP2 SUB PUSH0 DUP4 ADD MSTORE PUSH2 0xE5A DUP2 PUSH2 0xE21 JUMP JUMPDEST SWAP1 POP SWAP2 SWAP1 POP JUMP JUMPDEST PUSH32 0x4F6E6C7920746865206465706F7369746F722063616E20776974686472617720 PUSH0 DUP3 ADD MSTORE PUSH32 0x746865206465706F7369742E0000000000000000000000000000000000000000 PUSH1 0x20 DUP3 ADD MSTORE POP JUMP JUMPDEST PUSH0 PUSH2 0xEBB PUSH1 0x2C DUP4 PUSH2 0xB25 JUMP JUMPDEST SWAP2 POP PUSH2 0xEC6 DUP3 PUSH2 0xE61 JUMP JUMPDEST PUSH1 0x40 DUP3 ADD SWAP1 POP SWAP2 SWAP1 POP JUMP JUMPDEST PUSH0 PUSH1 0x20 DUP3 ADD SWAP1 POP DUP2 DUP2 SUB PUSH0 DUP4 ADD MSTORE PUSH2 0xEE8 DUP2 PUSH2 0xEAF JUMP JUMPDEST SWAP1 POP SWAP2 SWAP1 POP JUMP JUMPDEST PUSH32 0x436F6E646974696F6E7320666F72207769746864726177616C206E6F74206D65 PUSH0 DUP3 ADD MSTORE PUSH32 0x742E000000000000000000000000000000000000000000000000000000000000 PUSH1 0x20 DUP3 ADD MSTORE POP JUMP JUMPDEST PUSH0 PUSH2 0xF49 PUSH1 0x22 DUP4 PUSH2 0xB25 JUMP JUMPDEST SWAP2 POP PUSH2 0xF54 DUP3 PUSH2 0xEEF JUMP JUMPDEST PUSH1 0x40 DUP3 ADD SWAP1 POP SWAP2 SWAP1 POP JUMP JUMPDEST PUSH0 PUSH1 0x20 DUP3 ADD SWAP1 POP DUP2 DUP2 SUB PUSH0 DUP4 ADD MSTORE PUSH2 0xF76 DUP2 PUSH2 0xF3D JUMP JUMPDEST SWAP1 POP SWAP2 SWAP1 POP JUMP JUMPDEST PUSH2 0xF86 DUP2 PUSH2 0xA16 JUMP JUMPDEST DUP3 MSTORE POP POP JUMP JUMPDEST PUSH0 PUSH1 0x20 DUP3 ADD SWAP1 POP PUSH2 0xF9F PUSH0 DUP4 ADD DUP5 PUSH2 0xF7D JUMP JUMPDEST SWAP3 SWAP2 POP POP JUMP JUMPDEST PUSH32 0x4E487B7100000000000000000000000000000000000000000000000000000000 PUSH0 MSTORE PUSH1 0x22 PUSH1 0x4 MSTORE PUSH1 0x24 PUSH0 REVERT JUMPDEST PUSH0 PUSH1 0x2 DUP3 DIV SWAP1 POP PUSH1 0x1 DUP3 AND DUP1 PUSH2 0xFE9 JUMPI PUSH1 0x7F DUP3 AND SWAP2 POP JUMPDEST PUSH1 0x20 DUP3 LT DUP2 SUB PUSH2 0xFFC JUMPI PUSH2 0xFFB PUSH2 0xFA5 JUMP JUMPDEST JUMPDEST POP SWAP2 SWAP1 POP JUMP JUMPDEST PUSH32 0x4576656E7420616C7265616479206F636375727265642E000000000000000000 PUSH0 DUP3 ADD MSTORE POP JUMP JUMPDEST PUSH0 PUSH2 0x1036 PUSH1 0x17 DUP4 PUSH2 0xB25 JUMP JUMPDEST SWAP2 POP PUSH2 0x1041 DUP3 PUSH2 0x1002 JUMP JUMPDEST PUSH1 0x20 DUP3 ADD SWAP1 POP SWAP2 SWAP1 POP JUMP JUMPDEST PUSH0 PUSH1 0x20 DUP3 ADD SWAP1 POP DUP2 DUP2 SUB PUSH0 DUP4 ADD MSTORE PUSH2 0x1063 DUP2 PUSH2 0x102A JUMP JUMPDEST SWAP1 POP SWAP2 SWAP1 POP JUMP JUMPDEST PUSH32 0x416D6F756E74206D7573742062652067726561746572207468616E207A65726F PUSH0 DUP3 ADD MSTORE PUSH32 0x2E00000000000000000000000000000000000000000000000000000000000000 PUSH1 0x20 DUP3 ADD MSTORE POP JUMP JUMPDEST PUSH0 PUSH2 0x10C4 PUSH1 0x21 DUP4 PUSH2 0xB25 JUMP JUMPDEST SWAP2 POP PUSH2 0x10CF DUP3 PUSH2 0x106A JUMP JUMPDEST PUSH1 0x40 DUP3 ADD SWAP1 POP SWAP2 SWAP1 POP JUMP JUMPDEST PUSH0 PUSH1 0x20 DUP3 ADD SWAP1 POP DUP2 DUP2 SUB PUSH0 DUP4 ADD MSTORE PUSH2 0x10F1 DUP2 PUSH2 0x10B8 JUMP JUMPDEST SWAP1 POP SWAP2 SWAP1 POP JUMP JUMPDEST PUSH0 DUP2 PUSH1 0x60 SHL SWAP1 POP SWAP2 SWAP1 POP JUMP JUMPDEST PUSH0 PUSH2 0x110E DUP3 PUSH2 0x10F8 JUMP JUMPDEST SWAP1 POP SWAP2 SWAP1 POP JUMP JUMPDEST PUSH0 PUSH2 0x111F DUP3 PUSH2 0x1104 JUMP JUMPDEST SWAP1 POP SWAP2 SWAP1 POP JUMP JUMPDEST PUSH2 0x1137 PUSH2 0x1132 DUP3 PUSH2 0xA68 JUMP JUMPDEST PUSH2 0x1115 JUMP JUMPDEST DUP3 MSTORE POP POP JUMP JUMPDEST PUSH0 DUP2 SWAP1 POP SWAP3 SWAP2 POP POP JUMP JUMPDEST PUSH0 PUSH2 0x1151 DUP3 PUSH2 0xB1B JUMP JUMPDEST PUSH2 0x115B DUP2 DUP6 PUSH2 0x113D JUMP JUMPDEST SWAP4 POP PUSH2 0x116B DUP2 DUP6 PUSH1 0x20 DUP7 ADD PUSH2 0xB35 JUMP JUMPDEST DUP1 DUP5 ADD SWAP2 POP POP SWAP3 SWAP2 POP POP JUMP JUMPDEST PUSH0 DUP2 SWAP1 POP SWAP2 SWAP1 POP JUMP JUMPDEST PUSH2 0x1191 PUSH2 0x118C DUP3 PUSH2 0xB8B JUMP JUMPDEST PUSH2 0x1177 JUMP JUMPDEST DUP3 MSTORE POP POP JUMP JUMPDEST PUSH0 PUSH2 0x11A2 DUP3 DUP8 PUSH2 0x1126 JUMP JUMPDEST PUSH1 0x14 DUP3 ADD SWAP2 POP PUSH2 0x11B2 DUP3 DUP7 PUSH2 0x1147 JUMP JUMPDEST SWAP2 POP PUSH2 0x11BE DUP3 DUP6 PUSH2 0x1180 JUMP JUMPDEST PUSH1 0x20 DUP3 ADD SWAP2 POP PUSH2 0x11CE DUP3 DUP5 PUSH2 0x1180 JUMP JUMPDEST PUSH1 0x20 DUP3 ADD SWAP2 POP DUP2 SWAP1 POP SWAP6 SWAP5 POP POP POP POP POP JUMP JUMPDEST PUSH0 DUP2 SWAP1 POP DUP2 PUSH0 MSTORE PUSH1 0x20 PUSH0 KECCAK256 SWAP1 POP SWAP2 SWAP1 POP JUMP JUMPDEST PUSH0 PUSH1 0x20 PUSH1 0x1F DUP4 ADD DIV SWAP1 POP SWAP2 SWAP1 POP JUMP JUMPDEST PUSH0 DUP3 DUP3 SHL SWAP1 POP SWAP3 SWAP2 POP POP JUMP JUMPDEST PUSH0 PUSH1 0x8 DUP4 MUL PUSH2 0x123C PUSH32 0xFFFFFFFFFFFFFFFFFFFFFFFFFFFFFFFFFFFFFFFFFFFFFFFFFFFFFFFFFFFFFFFF DUP3 PUSH2 0x1201 JUMP JUMPDEST PUSH2 0x1246 DUP7 DUP4 PUSH2 0x1201 JUMP JUMPDEST SWAP6 POP DUP1 NOT DUP5 AND SWAP4 POP DUP1 DUP7 AND DUP5 OR SWAP3 POP POP POP SWAP4 SWAP3 POP POP POP JUMP JUMPDEST PUSH0 DUP2 SWAP1 POP SWAP2 SWAP1 POP JUMP JUMPDEST PUSH0 PUSH2 0x1281 PUSH2 0x127C PUSH2 0x1277 DUP5 PUSH2 0xB8B JUMP JUMPDEST PUSH2 0x125E JUMP JUMPDEST PUSH2 0xB8B JUMP JUMPDEST SWAP1 POP SWAP2 SWAP1 POP JUMP JUMPDEST PUSH0 DUP2 SWAP1 POP SWAP2 SWAP1 POP JUMP JUMPDEST PUSH2 0x129A DUP4 PUSH2 0x1267 JUMP JUMPDEST PUSH2 0x12AE PUSH2 0x12A6 DUP3 PUSH2 0x1288 JUMP JUMPDEST DUP5 DUP5 SLOAD PUSH2 0x120D JUMP JUMPDEST DUP3 SSTORE POP POP POP POP JUMP JUMPDEST PUSH0 SWAP1 JUMP JUMPDEST PUSH2 0x12C2 PUSH2 0x12B6 JUMP JUMPDEST PUSH2 0x12CD DUP2 DUP5 DUP5 PUSH2 0x1291 JUMP JUMPDEST POP POP POP JUMP JUMPDEST JUMPDEST DUP2 DUP2 LT ISZERO PUSH2 0x12F0 JUMPI PUSH2 0x12E5 PUSH0 DUP3 PUSH2 0x12BA JUMP JUMPDEST PUSH1 0x1 DUP2 ADD SWAP1 POP PUSH2 0x12D3 JUMP JUMPDEST POP POP JUMP JUMPDEST PUSH1 0x1F DUP3 GT ISZERO PUSH2 0x1335 JUMPI PUSH2 0x1306 DUP2 PUSH2 0x11E0 JUMP JUMPDEST PUSH2 0x130F DUP5 PUSH2 0x11F2 JUMP JUMPDEST DUP2 ADD PUSH1 0x20 DUP6 LT ISZERO PUSH2 0x131E JUMPI DUP2 SWAP1 POP JUMPDEST PUSH2 0x1332 PUSH2 0x132A DUP6 PUSH2 0x11F2 JUMP JUMPDEST DUP4 ADD DUP3 PUSH2 0x12D2 JUMP JUMPDEST POP POP JUMPDEST POP POP POP JUMP JUMPDEST PUSH0 DUP3 DUP3 SHR SWAP1 POP SWAP3 SWAP2 POP POP JUMP JUMPDEST PUSH0 PUSH2 0x1355 PUSH0 NOT DUP5 PUSH1 0x8 MUL PUSH2 0x133A JUMP JUMPDEST NOT DUP1 DUP4 AND SWAP2 POP POP SWAP3 SWAP2 POP POP JUMP JUMPDEST PUSH0 PUSH2 0x136D DUP4 DUP4 PUSH2 0x1346 JUMP JUMPDEST SWAP2 POP DUP3 PUSH1 0x2 MUL DUP3 OR SWAP1 POP SWAP3 SWAP2 POP POP JUMP JUMPDEST PUSH2 0x1386 DUP3 PUSH2 0xB1B JUMP JUMPDEST PUSH8 0xFFFFFFFFFFFFFFFF DUP2 GT ISZERO PUSH2 0x139F JUMPI PUSH2 0x139E PUSH2 0xC2B JUMP JUMPDEST JUMPDEST PUSH2 0x13A9 DUP3 SLOAD PUSH2 0xFD2 JUMP JUMPDEST PUSH2 0x13B4 DUP3 DUP3 DUP6 PUSH2 0x12F4 JUMP JUMPDEST PUSH0 PUSH1 0x20 SWAP1 POP PUSH1 0x1F DUP4 GT PUSH1 0x1 DUP2 EQ PUSH2 0x13E5 JUMPI PUSH0 DUP5 ISZERO PUSH2 0x13D3 JUMPI DUP3 DUP8 ADD MLOAD SWAP1 POP JUMPDEST PUSH2 0x13DD DUP6 DUP3 PUSH2 0x1362 JUMP JUMPDEST DUP7 SSTORE POP PUSH2 0x1444 JUMP JUMPDEST PUSH1 0x1F NOT DUP5 AND PUSH2 0x13F3 DUP7 PUSH2 0x11E0 JUMP JUMPDEST PUSH0 JUMPDEST DUP3 DUP2 LT ISZERO PUSH2 0x141A JUMPI DUP5 DUP10 ADD MLOAD DUP3 SSTORE PUSH1 0x1 DUP3 ADD SWAP2 POP PUSH1 0x20 DUP6 ADD SWAP5 POP PUSH1 0x20 DUP2 ADD SWAP1 POP PUSH2 0x13F5 JUMP JUMPDEST DUP7 DUP4 LT ISZERO PUSH2 0x1437 JUMPI DUP5 DUP10 ADD MLOAD PUSH2 0x1433 PUSH1 0x1F DUP10 AND DUP3 PUSH2 0x1346 JUMP JUMPDEST DUP4 SSTORE POP JUMPDEST PUSH1 0x1 PUSH1 0x2 DUP9 MUL ADD DUP9 SSTORE POP POP POP JUMPDEST POP POP POP POP POP POP JUMP JUMPDEST PUSH0 PUSH1 0x80 DUP3 ADD SWAP1 POP PUSH2 0x145F PUSH0 DUP4 ADD DUP8 PUSH2 0xF7D JUMP JUMPDEST DUP2 DUP2 SUB PUSH1 0x20 DUP4 ADD MSTORE PUSH2 0x1471 DUP2 DUP7 PUSH2 0xB53 JUMP JUMPDEST SWAP1 POP PUSH2 0x1480 PUSH1 0x40 DUP4 ADD DUP6 PUSH2 0xB94 JUMP JUMPDEST PUSH2 0x148D PUSH1 0x60 DUP4 ADD DUP5 PUSH2 0xB94 JUMP JUMPDEST SWAP6 SWAP5 POP POP POP POP POP JUMP JUMPDEST PUSH0 PUSH1 0x40 DUP3 ADD SWAP1 POP PUSH2 0x14A9 PUSH0 DUP4 ADD DUP6 PUSH2 0xB0C JUMP JUMPDEST PUSH2 0x14B6 PUSH1 0x20 DUP4 ADD DUP5 PUSH2 0xB94 JUMP JUMPDEST SWAP4 SWAP3 POP POP POP JUMP JUMPDEST PUSH0 PUSH1 0x60 DUP3 ADD SWAP1 POP PUSH2 0x14D0 PUSH0 DUP4 ADD DUP7 PUSH2 0xB0C JUMP JUMPDEST PUSH2 0x14DD PUSH1 0x20 DUP4 ADD DUP6 PUSH2 0xB0C JUMP JUMPDEST PUSH2 0x14EA PUSH1 0x40 DUP4 ADD DUP5 PUSH2 0xB94 JUMP JUMPDEST SWAP5 SWAP4 POP POP POP POP JUMP JUMPDEST PUSH2 0x14FB DUP2 PUSH2 0xBA3 JUMP JUMPDEST DUP2 EQ PUSH2 0x1505 JUMPI PUSH0 DUP1 REVERT JUMPDEST POP JUMP JUMPDEST PUSH0 DUP2 MLOAD SWAP1 POP PUSH2 0x1516 DUP2 PUSH2 0x14F2 JUMP JUMPDEST SWAP3 SWAP2 POP POP JUMP JUMPDEST PUSH0 PUSH1 0x20 DUP3 DUP5 SUB SLT ISZERO PUSH2 0x1531 JUMPI PUSH2 0x1530 PUSH2 0xA0E JUMP JUMPDEST JUMPDEST PUSH0 PUSH2 0x153E DUP5 DUP3 DUP6 ADD PUSH2 0x1508 JUMP JUMPDEST SWAP2 POP POP SWAP3 SWAP2 POP POP JUMP JUMPDEST PUSH32 0x5361666545524332303A204552433230206F7065726174696F6E20646964206E PUSH0 DUP3 ADD MSTORE PUSH32 0x6F74207375636365656400000000000000000000000000000000000000000000 PUSH1 0x20 DUP3 ADD MSTORE POP JUMP JUMPDEST PUSH0 PUSH2 0x15A1 PUSH1 0x2A DUP4 PUSH2 0xB25 JUMP JUMPDEST SWAP2 POP PUSH2 0x15AC DUP3 PUSH2 0x1547 JUMP JUMPDEST PUSH1 0x40 DUP3 ADD SWAP1 POP SWAP2 SWAP1 POP JUMP JUMPDEST PUSH0 PUSH1 0x20 DUP3 ADD SWAP1 POP DUP2 DUP2 SUB PUSH0 DUP4 ADD MSTORE PUSH2 0x15CE DUP2 PUSH2 0x1595 JUMP JUMPDEST SWAP1 POP SWAP2 SWAP1 POP JUMP JUMPDEST PUSH32 0x416464726573733A20696E73756666696369656E742062616C616E636520666F PUSH0 DUP3 ADD MSTORE PUSH32 0x722063616C6C0000000000000000000000000000000000000000000000000000 PUSH1 0x20 DUP3 ADD MSTORE POP JUMP JUMPDEST PUSH0 PUSH2 0x162F PUSH1 0x26 DUP4 PUSH2 0xB25 JUMP JUMPDEST SWAP2 POP PUSH2 0x163A DUP3 PUSH2 0x15D5 JUMP JUMPDEST PUSH1 0x40 DUP3 ADD SWAP1 POP SWAP2 SWAP1 POP JUMP JUMPDEST PUSH0 PUSH1 0x20 DUP3 ADD SWAP1 POP DUP2 DUP2 SUB PUSH0 DUP4 ADD MSTORE PUSH2 0x165C DUP2 PUSH2 0x1623 JUMP JUMPDEST SWAP1 POP SWAP2 SWAP1 POP JUMP JUMPDEST PUSH0 DUP2 MLOAD SWAP1 POP SWAP2 SWAP1 POP JUMP JUMPDEST PUSH0 DUP2 SWAP1 POP SWAP3 SWAP2 POP POP JUMP JUMPDEST PUSH0 PUSH2 0x1681 DUP3 PUSH2 0x1663 JUMP JUMPDEST PUSH2 0x168B DUP2 DUP6 PUSH2 0x166D JUMP JUMPDEST SWAP4 POP PUSH2 0x169B DUP2 DUP6 PUSH1 0x20 DUP7 ADD PUSH2 0xB35 JUMP JUMPDEST DUP1 DUP5 ADD SWAP2 POP POP SWAP3 SWAP2 POP POP JUMP JUMPDEST PUSH0 PUSH2 0x16B2 DUP3 DUP5 PUSH2 0x1677 JUMP JUMPDEST SWAP2 POP DUP2 SWAP1 POP SWAP3 SWAP2 POP POP JUMP JUMPDEST PUSH32 0x416464726573733A2063616C6C20746F206E6F6E2D636F6E7472616374000000 PUSH0 DUP3 ADD MSTORE POP JUMP JUMPDEST PUSH0 PUSH2 0x16F1 PUSH1 0x1D DUP4 PUSH2 0xB25 JUMP JUMPDEST SWAP2 POP PUSH2 0x16FC DUP3 PUSH2 0x16BD JUMP JUMPDEST PUSH1 0x20 DUP3 ADD SWAP1 POP SWAP2 SWAP1 POP JUMP JUMPDEST PUSH0 PUSH1 0x20 DUP3 ADD SWAP1 POP DUP2 DUP2 SUB PUSH0 DUP4 ADD MSTORE PUSH2 0x171E DUP2 PUSH2 0x16E5 JUMP JUMPDEST SWAP1 POP SWAP2 SWAP1 POP JUMP JUMPDEST PUSH0 PUSH1 0x20 DUP3 ADD SWAP1 POP DUP2 DUP2 SUB PUSH0 DUP4 ADD MSTORE PUSH2 0x173D DUP2 DUP5 PUSH2 0xB53 JUMP JUMPDEST SWAP1 POP SWAP3 SWAP2 POP POP JUMP INVALID LOG2 PUSH5 0x6970667358 0x22 SLT KECCAK256 PUSH14 0x5A552ED9CC1425503AEA32C7E89F MSIZE 0xCF ISZERO PUSH23 0x800EE30669C1C497337EE0A77D64736F6C634300081A00 CALLER "
				},
				"gasEstimates": {
					"creation": {
						"codeDepositCost": "1202200",
						"executionCost": "1246",
						"totalCost": "1203446"
					},
					"external": {
						"deposit(address,string,uint256,uint256)": "infinite",
						"deposits(bytes32)": "infinite",
						"triggerEvent(bytes32)": "infinite",
						"withdraw(bytes32,address)": "infinite"
					}
				},
				"methodIdentifiers": {
					"deposit(address,string,uint256,uint256)": "eb21b9d7",
					"deposits(bytes32)": "3d4dff7b",
					"triggerEvent(bytes32)": "ab6d1c09",
					"withdraw(bytes32,address)": "1b258d50"
				}
			},
			"storageLayout": {
				"storage": [
					{
						"astId": 750,
						"contract": "trustless cross-chain/trading pair formation/deposit.sol:TokenDeposit",
						"label": "deposits",
						"offset": 0,
						"slot": "0",
						"type": "t_mapping(t_bytes32,t_struct(Deposit)745_storage)"
					}
				],
				"types": {
					"t_address": {
						"encoding": "inplace",
						"label": "address",
						"numberOfBytes": "20"
					},
					"t_bool": {
						"encoding": "inplace",
						"label": "bool",
						"numberOfBytes": "1"
					},
					"t_bytes32": {
						"encoding": "inplace",
						"label": "bytes32",
						"numberOfBytes": "32"
					},
					"t_mapping(t_bytes32,t_struct(Deposit)745_storage)": {
						"encoding": "mapping",
						"key": "t_bytes32",
						"label": "mapping(bytes32 => struct TokenDeposit.Deposit)",
						"numberOfBytes": "32",
						"value": "t_struct(Deposit)745_storage"
					},
					"t_string_storage": {
						"encoding": "bytes",
						"label": "string",
						"numberOfBytes": "32"
					},
					"t_struct(Deposit)745_storage": {
						"encoding": "inplace",
						"label": "struct TokenDeposit.Deposit",
						"members": [
							{
								"astId": 734,
								"contract": "trustless cross-chain/trading pair formation/deposit.sol:TokenDeposit",
								"label": "depositor",
								"offset": 0,
								"slot": "0",
								"type": "t_address"
							},
							{
								"astId": 736,
								"contract": "trustless cross-chain/trading pair formation/deposit.sol:TokenDeposit",
								"label": "symbol",
								"offset": 0,
								"slot": "1",
								"type": "t_string_storage"
							},
							{
								"astId": 738,
								"contract": "trustless cross-chain/trading pair formation/deposit.sol:TokenDeposit",
								"label": "amount",
								"offset": 0,
								"slot": "2",
								"type": "t_uint256"
							},
							{
								"astId": 740,
								"contract": "trustless cross-chain/trading pair formation/deposit.sol:TokenDeposit",
								"label": "blockNumber",
								"offset": 0,
								"slot": "3",
								"type": "t_uint256"
							},
							{
								"astId": 742,
								"contract": "trustless cross-chain/trading pair formation/deposit.sol:TokenDeposit",
								"label": "withdrawn",
								"offset": 0,
								"slot": "4",
								"type": "t_bool"
							},
							{
								"astId": 744,
								"contract": "trustless cross-chain/trading pair formation/deposit.sol:TokenDeposit",
								"label": "eventOccurred",
								"offset": 1,
								"slot": "4",
								"type": "t_bool"
							}
						],
						"numberOfBytes": "160"
					},
					"t_uint256": {
						"encoding": "inplace",
						"label": "uint256",
						"numberOfBytes": "32"
					}
				}
			},
			"userdoc": {
				"kind": "user",
				"methods": {},
				"version": 1
			}
		}
	}
}