{
	"data": {
		"bytecode": {
			"linkReferences": {},
			"object": "608060405234801561001057600080fd5b50611052806100206000396000f3fe608060405234801561001057600080fd5b50600436106100575760003560e01c8063477e4a021461005c5780637f4109081461008e578063ada4fa18146100be578063d1538949146100ee578063d6da100e1461011e575b600080fd5b610076600480360381019061007191906108be565b61014e565b604051610085939291906109c2565b60405180910390f35b6100a860048036038101906100a391906108be565b610327565b6040516100b59190610a1b565b60405180910390f35b6100d860048036038101906100d39190610bbb565b610357565b6040516100e59190610a1b565b60405180910390f35b61010860048036038101906101039190610c2a565b61042b565b6040516101159190610c73565b60405180910390f35b61013860048036038101906101339190610c8e565b6105c6565b6040516101459190610cea565b60405180910390f35b6060600080600060016040516020016101679190610d2d565b604051602081830303815290604052805190602001209050600060026040516020016101939190610d2d565b604051602081830303815290604052805190602001209050600060036040516020016101bf9190610d2d565b604051602081830303815290604052805190602001209050600060046040516020016101eb9190610d2d565b6040516020818303038152906040528051906020012090506000600467ffffffffffffffff8111156102205761021f610a4c565b5b60405190808252806020026020018201604052801561024e5781602001602082028036833780820191505090505b509050848160008151811061026657610265610d48565b5b602002602001018181525050838160018151811061028757610286610d48565b5b60200260200101818152505082816002815181106102a8576102a7610d48565b5b60200260200101818152505081816003815181106102c9576102c8610d48565b5b60200260200101818152505060006102e1828b6105c6565b90506000828b815181106102f8576102f7610d48565b5b60200260200101519050600061030d8461042b565b90508282829a509a509a5050505050505050509193909250565b6000806000806103368561014e565b9250925092506000610349848484610357565b905080945050505050919050565b6000808390506000805b865181101561041c57600087828151811061037f5761037e610d48565b5b6020026020010151905060006002846103989190610da6565b036103cd5783816040516020016103b0929190610df8565b6040516020818303038152906040528051906020012093506103f9565b80846040516020016103e0929190610df8565b6040516020818303038152906040528051906020012093505b6002836104069190610e53565b925050808061041490610e84565b915050610361565b50838214925050509392505050565b6000808251905060008103610446576000801b9150506105c1565b5b60018111156105a157600060026001836104619190610ecc565b61046b9190610e53565b905060005b81811015610597578260016002836104889190610f00565b6104929190610ecc565b101561053d57846002826104a69190610f00565b815181106104b7576104b6610d48565b5b60200260200101518560016002846104cf9190610f00565b6104d99190610ecc565b815181106104ea576104e9610d48565b5b6020026020010151604051602001610503929190610df8565b6040516020818303038152906040528051906020012085828151811061052c5761052b610d48565b5b602002602001018181525050610584565b8460028261054b9190610f00565b8151811061055c5761055b610d48565b5b602002602001015185828151811061057757610576610d48565b5b6020026020010181815250505b808061058f90610e84565b915050610470565b5080915050610447565b826000815181106105b5576105b4610d48565b5b60200260200101519150505b919050565b60608251821061060b576040517f08c379a000000000000000000000000000000000000000000000000000000000815260040161060290610f9f565b60405180910390fd5b600080845190505b600181111561064a57818061062790610e84565b92505060026001826106399190610ecc565b6106439190610e53565b9050610613565b5060008167ffffffffffffffff81111561066757610666610a4c565b5b6040519080825280602002602001820160405280156106955781602001602082028036833780820191505090505b509050600085905060005b600182511115610867576000806002886106ba9190610da6565b146106d1576001876106cc9190610fbf565b6106df565b6001876106de9190610ecc565b5b90508251811015610733578281815181106106fd576106fc610d48565b5b602002602001015184838151811061071857610717610d48565b5b602002602001018181525050818061072f90610e84565b9250505b60006002600185516107459190610ecc565b61074f9190610e53565b67ffffffffffffffff81111561076857610767610a4c565b5b6040519080825280602002602001820160405280156107965781602001602082028036833780820191505090505b50905060005b845181101561084d578481815181106107b8576107b7610d48565b5b6020026020010151856001836107ce9190610ecc565b815181106107df576107de610d48565b5b60200260200101516040516020016107f8929190610ff3565b604051602081830303815290604052805190602001208260028361081c9190610e53565b8151811061082d5761082c610d48565b5b6020026020010181815250506002816108469190610ecc565b905061079c565b5080935060028861085e9190610e53565b975050506106a0565b8294505050505092915050565b6000604051905090565b600080fd5b600080fd5b6000819050919050565b61089b81610888565b81146108a657600080fd5b50565b6000813590506108b881610892565b92915050565b6000602082840312156108d4576108d361087e565b5b60006108e2848285016108a9565b91505092915050565b600081519050919050565b600082825260208201905092915050565b6000819050602082019050919050565b6000819050919050565b61092a81610917565b82525050565b600061093c8383610921565b60208301905092915050565b6000602082019050919050565b6000610960826108eb565b61096a81856108f6565b935061097583610907565b8060005b838110156109a657815161098d8882610930565b975061099883610948565b925050600181019050610979565b5085935050505092915050565b6109bc81610917565b82525050565b600060608201905081810360008301526109dc8186610955565b90506109eb60208301856109b3565b6109f860408301846109b3565b949350505050565b60008115159050919050565b610a1581610a00565b82525050565b6000602082019050610a306000830184610a0c565b92915050565b600080fd5b6000601f19601f8301169050919050565b7f4e487b7100000000000000000000000000000000000000000000000000000000600052604160045260246000fd5b610a8482610a3b565b810181811067ffffffffffffffff82111715610aa357610aa2610a4c565b5b80604052505050565b6000610ab6610874565b9050610ac28282610a7b565b919050565b600067ffffffffffffffff821115610ae257610ae1610a4c565b5b602082029050602081019050919050565b600080fd5b610b0181610917565b8114610b0c57600080fd5b50565b600081359050610b1e81610af8565b92915050565b6000610b37610b3284610ac7565b610aac565b90508083825260208201905060208402830185811115610b5a57610b59610af3565b5b835b81811015610b835780610b6f8882610b0f565b845260208401935050602081019050610b5c565b5050509392505050565b600082601f830112610ba257610ba1610a36565b5b8135610bb2848260208601610b24565b91505092915050565b600080600060608486031215610bd457610bd361087e565b5b600084013567ffffffffffffffff811115610bf257610bf1610883565b5b610bfe86828701610b8d565b9350506020610c0f86828701610b0f565b9250506040610c2086828701610b0f565b9150509250925092565b600060208284031215610c4057610c3f61087e565b5b600082013567ffffffffffffffff811115610c5e57610c5d610883565b5b610c6a84828501610b8d565b91505092915050565b6000602082019050610c8860008301846109b3565b92915050565b60008060408385031215610ca557610ca461087e565b5b600083013567ffffffffffffffff811115610cc357610cc2610883565b5b610ccf85828601610b8d565b9250506020610ce0858286016108a9565b9150509250929050565b60006020820190508181036000830152610d048184610955565b905092915050565b6000819050919050565b610d27610d2282610888565b610d0c565b82525050565b6000610d398284610d16565b60208201915081905092915050565b7f4e487b7100000000000000000000000000000000000000000000000000000000600052603260045260246000fd5b7f4e487b7100000000000000000000000000000000000000000000000000000000600052601260045260246000fd5b6000610db182610888565b9150610dbc83610888565b925082610dcc57610dcb610d77565b5b828206905092915050565b6000819050919050565b610df2610ded82610917565b610dd7565b82525050565b6000610e048285610de1565b602082019150610e148284610de1565b6020820191508190509392505050565b7f4e487b7100000000000000000000000000000000000000000000000000000000600052601160045260246000fd5b6000610e5e82610888565b9150610e6983610888565b925082610e7957610e78610d77565b5b828204905092915050565b6000610e8f82610888565b91507fffffffffffffffffffffffffffffffffffffffffffffffffffffffffffffffff8203610ec157610ec0610e24565b5b600182019050919050565b6000610ed782610888565b9150610ee283610888565b9250828201905080821115610efa57610ef9610e24565b5b92915050565b6000610f0b82610888565b9150610f1683610888565b9250828202610f2481610888565b91508282048414831517610f3b57610f3a610e24565b5b5092915050565b600082825260208201905092915050565b7f496e76616c6964206c65616620696e6465780000000000000000000000000000600082015250565b6000610f89601283610f42565b9150610f9482610f53565b602082019050919050565b60006020820190508181036000830152610fb881610f7c565b9050919050565b6000610fca82610888565b9150610fd583610888565b9250828203905081811115610fed57610fec610e24565b5b92915050565b600060408201905061100860008301856109b3565b61101560208301846109b3565b939250505056fea264697066735822122057b1365c6b74add0571da24505f272f4974517910d6b6790e19beed15d2aa99f64736f6c63430008130033",
			"opcodes": "PUSH1 0x80 PUSH1 0x40 MSTORE CALLVALUE DUP1 ISZERO PUSH2 0x10 JUMPI PUSH1 0x0 DUP1 REVERT JUMPDEST POP PUSH2 0x1052 DUP1 PUSH2 0x20 PUSH1 0x0 CODECOPY PUSH1 0x0 RETURN INVALID PUSH1 0x80 PUSH1 0x40 MSTORE CALLVALUE DUP1 ISZERO PUSH2 0x10 JUMPI PUSH1 0x0 DUP1 REVERT JUMPDEST POP PUSH1 0x4 CALLDATASIZE LT PUSH2 0x57 JUMPI PUSH1 0x0 CALLDATALOAD PUSH1 0xE0 SHR DUP1 PUSH4 0x477E4A02 EQ PUSH2 0x5C JUMPI DUP1 PUSH4 0x7F410908 EQ PUSH2 0x8E JUMPI DUP1 PUSH4 0xADA4FA18 EQ PUSH2 0xBE JUMPI DUP1 PUSH4 0xD1538949 EQ PUSH2 0xEE JUMPI DUP1 PUSH4 0xD6DA100E EQ PUSH2 0x11E JUMPI JUMPDEST PUSH1 0x0 DUP1 REVERT JUMPDEST PUSH2 0x76 PUSH1 0x4 DUP1 CALLDATASIZE SUB DUP2 ADD SWAP1 PUSH2 0x71 SWAP2 SWAP1 PUSH2 0x8BE JUMP JUMPDEST PUSH2 0x14E JUMP JUMPDEST PUSH1 0x40 MLOAD PUSH2 0x85 SWAP4 SWAP3 SWAP2 SWAP1 PUSH2 0x9C2 JUMP JUMPDEST PUSH1 0x40 MLOAD DUP1 SWAP2 SUB SWAP1 RETURN JUMPDEST PUSH2 0xA8 PUSH1 0x4 DUP1 CALLDATASIZE SUB DUP2 ADD SWAP1 PUSH2 0xA3 SWAP2 SWAP1 PUSH2 0x8BE JUMP JUMPDEST PUSH2 0x327 JUMP JUMPDEST PUSH1 0x40 MLOAD PUSH2 0xB5 SWAP2 SWAP1 PUSH2 0xA1B JUMP JUMPDEST PUSH1 0x40 MLOAD DUP1 SWAP2 SUB SWAP1 RETURN JUMPDEST PUSH2 0xD8 PUSH1 0x4 DUP1 CALLDATASIZE SUB DUP2 ADD SWAP1 PUSH2 0xD3 SWAP2 SWAP1 PUSH2 0xBBB JUMP JUMPDEST PUSH2 0x357 JUMP JUMPDEST PUSH1 0x40 MLOAD PUSH2 0xE5 SWAP2 SWAP1 PUSH2 0xA1B JUMP JUMPDEST PUSH1 0x40 MLOAD DUP1 SWAP2 SUB SWAP1 RETURN JUMPDEST PUSH2 0x108 PUSH1 0x4 DUP1 CALLDATASIZE SUB DUP2 ADD SWAP1 PUSH2 0x103 SWAP2 SWAP1 PUSH2 0xC2A JUMP JUMPDEST PUSH2 0x42B JUMP JUMPDEST PUSH1 0x40 MLOAD PUSH2 0x115 SWAP2 SWAP1 PUSH2 0xC73 JUMP JUMPDEST PUSH1 0x40 MLOAD DUP1 SWAP2 SUB SWAP1 RETURN JUMPDEST PUSH2 0x138 PUSH1 0x4 DUP1 CALLDATASIZE SUB DUP2 ADD SWAP1 PUSH2 0x133 SWAP2 SWAP1 PUSH2 0xC8E JUMP JUMPDEST PUSH2 0x5C6 JUMP JUMPDEST PUSH1 0x40 MLOAD PUSH2 0x145 SWAP2 SWAP1 PUSH2 0xCEA JUMP JUMPDEST PUSH1 0x40 MLOAD DUP1 SWAP2 SUB SWAP1 RETURN JUMPDEST PUSH1 0x60 PUSH1 0x0 DUP1 PUSH1 0x0 PUSH1 0x1 PUSH1 0x40 MLOAD PUSH1 0x20 ADD PUSH2 0x167 SWAP2 SWAP1 PUSH2 0xD2D JUMP JUMPDEST PUSH1 0x40 MLOAD PUSH1 0x20 DUP2 DUP4 SUB SUB DUP2 MSTORE SWAP1 PUSH1 0x40 MSTORE DUP1 MLOAD SWAP1 PUSH1 0x20 ADD KECCAK256 SWAP1 POP PUSH1 0x0 PUSH1 0x2 PUSH1 0x40 MLOAD PUSH1 0x20 ADD PUSH2 0x193 SWAP2 SWAP1 PUSH2 0xD2D JUMP JUMPDEST PUSH1 0x40 MLOAD PUSH1 0x20 DUP2 DUP4 SUB SUB DUP2 MSTORE SWAP1 PUSH1 0x40 MSTORE DUP1 MLOAD SWAP1 PUSH1 0x20 ADD KECCAK256 SWAP1 POP PUSH1 0x0 PUSH1 0x3 PUSH1 0x40 MLOAD PUSH1 0x20 ADD PUSH2 0x1BF SWAP2 SWAP1 PUSH2 0xD2D JUMP JUMPDEST PUSH1 0x40 MLOAD PUSH1 0x20 DUP2 DUP4 SUB SUB DUP2 MSTORE SWAP1 PUSH1 0x40 MSTORE DUP1 MLOAD SWAP1 PUSH1 0x20 ADD KECCAK256 SWAP1 POP PUSH1 0x0 PUSH1 0x4 PUSH1 0x40 MLOAD PUSH1 0x20 ADD PUSH2 0x1EB SWAP2 SWAP1 PUSH2 0xD2D JUMP JUMPDEST PUSH1 0x40 MLOAD PUSH1 0x20 DUP2 DUP4 SUB SUB DUP2 MSTORE SWAP1 PUSH1 0x40 MSTORE DUP1 MLOAD SWAP1 PUSH1 0x20 ADD KECCAK256 SWAP1 POP PUSH1 0x0 PUSH1 0x4 PUSH8 0xFFFFFFFFFFFFFFFF DUP2 GT ISZERO PUSH2 0x220 JUMPI PUSH2 0x21F PUSH2 0xA4C JUMP JUMPDEST JUMPDEST PUSH1 0x40 MLOAD SWAP1 DUP1 DUP3 MSTORE DUP1 PUSH1 0x20 MUL PUSH1 0x20 ADD DUP3 ADD PUSH1 0x40 MSTORE DUP1 ISZERO PUSH2 0x24E JUMPI DUP2 PUSH1 0x20 ADD PUSH1 0x20 DUP3 MUL DUP1 CALLDATASIZE DUP4 CALLDATACOPY DUP1 DUP3 ADD SWAP2 POP POP SWAP1 POP JUMPDEST POP SWAP1 POP DUP5 DUP2 PUSH1 0x0 DUP2 MLOAD DUP2 LT PUSH2 0x266 JUMPI PUSH2 0x265 PUSH2 0xD48 JUMP JUMPDEST JUMPDEST PUSH1 0x20 MUL PUSH1 0x20 ADD ADD DUP2 DUP2 MSTORE POP POP DUP4 DUP2 PUSH1 0x1 DUP2 MLOAD DUP2 LT PUSH2 0x287 JUMPI PUSH2 0x286 PUSH2 0xD48 JUMP JUMPDEST JUMPDEST PUSH1 0x20 MUL PUSH1 0x20 ADD ADD DUP2 DUP2 MSTORE POP POP DUP3 DUP2 PUSH1 0x2 DUP2 MLOAD DUP2 LT PUSH2 0x2A8 JUMPI PUSH2 0x2A7 PUSH2 0xD48 JUMP JUMPDEST JUMPDEST PUSH1 0x20 MUL PUSH1 0x20 ADD ADD DUP2 DUP2 MSTORE POP POP DUP2 DUP2 PUSH1 0x3 DUP2 MLOAD DUP2 LT PUSH2 0x2C9 JUMPI PUSH2 0x2C8 PUSH2 0xD48 JUMP JUMPDEST JUMPDEST PUSH1 0x20 MUL PUSH1 0x20 ADD ADD DUP2 DUP2 MSTORE POP POP PUSH1 0x0 PUSH2 0x2E1 DUP3 DUP12 PUSH2 0x5C6 JUMP JUMPDEST SWAP1 POP PUSH1 0x0 DUP3 DUP12 DUP2 MLOAD DUP2 LT PUSH2 0x2F8 JUMPI PUSH2 0x2F7 PUSH2 0xD48 JUMP JUMPDEST JUMPDEST PUSH1 0x20 MUL PUSH1 0x20 ADD ADD MLOAD SWAP1 POP PUSH1 0x0 PUSH2 0x30D DUP5 PUSH2 0x42B JUMP JUMPDEST SWAP1 POP DUP3 DUP3 DUP3 SWAP11 POP SWAP11 POP SWAP11 POP POP POP POP POP POP POP POP POP SWAP2 SWAP4 SWAP1 SWAP3 POP JUMP JUMPDEST PUSH1 0x0 DUP1 PUSH1 0x0 DUP1 PUSH2 0x336 DUP6 PUSH2 0x14E JUMP JUMPDEST SWAP3 POP SWAP3 POP SWAP3 POP PUSH1 0x0 PUSH2 0x349 DUP5 DUP5 DUP5 PUSH2 0x357 JUMP JUMPDEST SWAP1 POP DUP1 SWAP5 POP POP POP POP POP SWAP2 SWAP1 POP JUMP JUMPDEST PUSH1 0x0 DUP1 DUP4 SWAP1 POP PUSH1 0x0 DUP1 JUMPDEST DUP7 MLOAD DUP2 LT ISZERO PUSH2 0x41C JUMPI PUSH1 0x0 DUP8 DUP3 DUP2 MLOAD DUP2 LT PUSH2 0x37F JUMPI PUSH2 0x37E PUSH2 0xD48 JUMP JUMPDEST JUMPDEST PUSH1 0x20 MUL PUSH1 0x20 ADD ADD MLOAD SWAP1 POP PUSH1 0x0 PUSH1 0x2 DUP5 PUSH2 0x398 SWAP2 SWAP1 PUSH2 0xDA6 JUMP JUMPDEST SUB PUSH2 0x3CD JUMPI DUP4 DUP2 PUSH1 0x40 MLOAD PUSH1 0x20 ADD PUSH2 0x3B0 SWAP3 SWAP2 SWAP1 PUSH2 0xDF8 JUMP JUMPDEST PUSH1 0x40 MLOAD PUSH1 0x20 DUP2 DUP4 SUB SUB DUP2 MSTORE SWAP1 PUSH1 0x40 MSTORE DUP1 MLOAD SWAP1 PUSH1 0x20 ADD KECCAK256 SWAP4 POP PUSH2 0x3F9 JUMP JUMPDEST DUP1 DUP5 PUSH1 0x40 MLOAD PUSH1 0x20 ADD PUSH2 0x3E0 SWAP3 SWAP2 SWAP1 PUSH2 0xDF8 JUMP JUMPDEST PUSH1 0x40 MLOAD PUSH1 0x20 DUP2 DUP4 SUB SUB DUP2 MSTORE SWAP1 PUSH1 0x40 MSTORE DUP1 MLOAD SWAP1 PUSH1 0x20 ADD KECCAK256 SWAP4 POP JUMPDEST PUSH1 0x2 DUP4 PUSH2 0x406 SWAP2 SWAP1 PUSH2 0xE53 JUMP JUMPDEST SWAP3 POP POP DUP1 DUP1 PUSH2 0x414 SWAP1 PUSH2 0xE84 JUMP JUMPDEST SWAP2 POP POP PUSH2 0x361 JUMP JUMPDEST POP DUP4 DUP3 EQ SWAP3 POP POP POP SWAP4 SWAP3 POP POP POP JUMP JUMPDEST PUSH1 0x0 DUP1 DUP3 MLOAD SWAP1 POP PUSH1 0x0 DUP2 SUB PUSH2 0x446 JUMPI PUSH1 0x0 DUP1 SHL SWAP2 POP POP PUSH2 0x5C1 JUMP JUMPDEST JUMPDEST PUSH1 0x1 DUP2 GT ISZERO PUSH2 0x5A1 JUMPI PUSH1 0x0 PUSH1 0x2 PUSH1 0x1 DUP4 PUSH2 0x461 SWAP2 SWAP1 PUSH2 0xECC JUMP JUMPDEST PUSH2 0x46B SWAP2 SWAP1 PUSH2 0xE53 JUMP JUMPDEST SWAP1 POP PUSH1 0x0 JUMPDEST DUP2 DUP2 LT ISZERO PUSH2 0x597 JUMPI DUP3 PUSH1 0x1 PUSH1 0x2 DUP4 PUSH2 0x488 SWAP2 SWAP1 PUSH2 0xF00 JUMP JUMPDEST PUSH2 0x492 SWAP2 SWAP1 PUSH2 0xECC JUMP JUMPDEST LT ISZERO PUSH2 0x53D JUMPI DUP5 PUSH1 0x2 DUP3 PUSH2 0x4A6 SWAP2 SWAP1 PUSH2 0xF00 JUMP JUMPDEST DUP2 MLOAD DUP2 LT PUSH2 0x4B7 JUMPI PUSH2 0x4B6 PUSH2 0xD48 JUMP JUMPDEST JUMPDEST PUSH1 0x20 MUL PUSH1 0x20 ADD ADD MLOAD DUP6 PUSH1 0x1 PUSH1 0x2 DUP5 PUSH2 0x4CF SWAP2 SWAP1 PUSH2 0xF00 JUMP JUMPDEST PUSH2 0x4D9 SWAP2 SWAP1 PUSH2 0xECC JUMP JUMPDEST DUP2 MLOAD DUP2 LT PUSH2 0x4EA JUMPI PUSH2 0x4E9 PUSH2 0xD48 JUMP JUMPDEST JUMPDEST PUSH1 0x20 MUL PUSH1 0x20 ADD ADD MLOAD PUSH1 0x40 MLOAD PUSH1 0x20 ADD PUSH2 0x503 SWAP3 SWAP2 SWAP1 PUSH2 0xDF8 JUMP JUMPDEST PUSH1 0x40 MLOAD PUSH1 0x20 DUP2 DUP4 SUB SUB DUP2 MSTORE SWAP1 PUSH1 0x40 MSTORE DUP1 MLOAD SWAP1 PUSH1 0x20 ADD KECCAK256 DUP6 DUP3 DUP2 MLOAD DUP2 LT PUSH2 0x52C JUMPI PUSH2 0x52B PUSH2 0xD48 JUMP JUMPDEST JUMPDEST PUSH1 0x20 MUL PUSH1 0x20 ADD ADD DUP2 DUP2 MSTORE POP POP PUSH2 0x584 JUMP JUMPDEST DUP5 PUSH1 0x2 DUP3 PUSH2 0x54B SWAP2 SWAP1 PUSH2 0xF00 JUMP JUMPDEST DUP2 MLOAD DUP2 LT PUSH2 0x55C JUMPI PUSH2 0x55B PUSH2 0xD48 JUMP JUMPDEST JUMPDEST PUSH1 0x20 MUL PUSH1 0x20 ADD ADD MLOAD DUP6 DUP3 DUP2 MLOAD DUP2 LT PUSH2 0x577 JUMPI PUSH2 0x576 PUSH2 0xD48 JUMP JUMPDEST JUMPDEST PUSH1 0x20 MUL PUSH1 0x20 ADD ADD DUP2 DUP2 MSTORE POP POP JUMPDEST DUP1 DUP1 PUSH2 0x58F SWAP1 PUSH2 0xE84 JUMP JUMPDEST SWAP2 POP POP PUSH2 0x470 JUMP JUMPDEST POP DUP1 SWAP2 POP POP PUSH2 0x447 JUMP JUMPDEST DUP3 PUSH1 0x0 DUP2 MLOAD DUP2 LT PUSH2 0x5B5 JUMPI PUSH2 0x5B4 PUSH2 0xD48 JUMP JUMPDEST JUMPDEST PUSH1 0x20 MUL PUSH1 0x20 ADD ADD MLOAD SWAP2 POP POP JUMPDEST SWAP2 SWAP1 POP JUMP JUMPDEST PUSH1 0x60 DUP3 MLOAD DUP3 LT PUSH2 0x60B JUMPI PUSH1 0x40 MLOAD PUSH32 0x8C379A000000000000000000000000000000000000000000000000000000000 DUP2 MSTORE PUSH1 0x4 ADD PUSH2 0x602 SWAP1 PUSH2 0xF9F JUMP JUMPDEST PUSH1 0x40 MLOAD DUP1 SWAP2 SUB SWAP1 REVERT JUMPDEST PUSH1 0x0 DUP1 DUP5 MLOAD SWAP1 POP JUMPDEST PUSH1 0x1 DUP2 GT ISZERO PUSH2 0x64A JUMPI DUP2 DUP1 PUSH2 0x627 SWAP1 PUSH2 0xE84 JUMP JUMPDEST SWAP3 POP POP PUSH1 0x2 PUSH1 0x1 DUP3 PUSH2 0x639 SWAP2 SWAP1 PUSH2 0xECC JUMP JUMPDEST PUSH2 0x643 SWAP2 SWAP1 PUSH2 0xE53 JUMP JUMPDEST SWAP1 POP PUSH2 0x613 JUMP JUMPDEST POP PUSH1 0x0 DUP2 PUSH8 0xFFFFFFFFFFFFFFFF DUP2 GT ISZERO PUSH2 0x667 JUMPI PUSH2 0x666 PUSH2 0xA4C JUMP JUMPDEST JUMPDEST PUSH1 0x40 MLOAD SWAP1 DUP1 DUP3 MSTORE DUP1 PUSH1 0x20 MUL PUSH1 0x20 ADD DUP3 ADD PUSH1 0x40 MSTORE DUP1 ISZERO PUSH2 0x695 JUMPI DUP2 PUSH1 0x20 ADD PUSH1 0x20 DUP3 MUL DUP1 CALLDATASIZE DUP4 CALLDATACOPY DUP1 DUP3 ADD SWAP2 POP POP SWAP1 POP JUMPDEST POP SWAP1 POP PUSH1 0x0 DUP6 SWAP1 POP PUSH1 0x0 JUMPDEST PUSH1 0x1 DUP3 MLOAD GT ISZERO PUSH2 0x867 JUMPI PUSH1 0x0 DUP1 PUSH1 0x2 DUP9 PUSH2 0x6BA SWAP2 SWAP1 PUSH2 0xDA6 JUMP JUMPDEST EQ PUSH2 0x6D1 JUMPI PUSH1 0x1 DUP8 PUSH2 0x6CC SWAP2 SWAP1 PUSH2 0xFBF JUMP JUMPDEST PUSH2 0x6DF JUMP JUMPDEST PUSH1 0x1 DUP8 PUSH2 0x6DE SWAP2 SWAP1 PUSH2 0xECC JUMP JUMPDEST JUMPDEST SWAP1 POP DUP3 MLOAD DUP2 LT ISZERO PUSH2 0x733 JUMPI DUP3 DUP2 DUP2 MLOAD DUP2 LT PUSH2 0x6FD JUMPI PUSH2 0x6FC PUSH2 0xD48 JUMP JUMPDEST JUMPDEST PUSH1 0x20 MUL PUSH1 0x20 ADD ADD MLOAD DUP5 DUP4 DUP2 MLOAD DUP2 LT PUSH2 0x718 JUMPI PUSH2 0x717 PUSH2 0xD48 JUMP JUMPDEST JUMPDEST PUSH1 0x20 MUL PUSH1 0x20 ADD ADD DUP2 DUP2 MSTORE POP POP DUP2 DUP1 PUSH2 0x72F SWAP1 PUSH2 0xE84 JUMP JUMPDEST SWAP3 POP POP JUMPDEST PUSH1 0x0 PUSH1 0x2 PUSH1 0x1 DUP6 MLOAD PUSH2 0x745 SWAP2 SWAP1 PUSH2 0xECC JUMP JUMPDEST PUSH2 0x74F SWAP2 SWAP1 PUSH2 0xE53 JUMP JUMPDEST PUSH8 0xFFFFFFFFFFFFFFFF DUP2 GT ISZERO PUSH2 0x768 JUMPI PUSH2 0x767 PUSH2 0xA4C JUMP JUMPDEST JUMPDEST PUSH1 0x40 MLOAD SWAP1 DUP1 DUP3 MSTORE DUP1 PUSH1 0x20 MUL PUSH1 0x20 ADD DUP3 ADD PUSH1 0x40 MSTORE DUP1 ISZERO PUSH2 0x796 JUMPI DUP2 PUSH1 0x20 ADD PUSH1 0x20 DUP3 MUL DUP1 CALLDATASIZE DUP4 CALLDATACOPY DUP1 DUP3 ADD SWAP2 POP POP SWAP1 POP JUMPDEST POP SWAP1 POP PUSH1 0x0 JUMPDEST DUP5 MLOAD DUP2 LT ISZERO PUSH2 0x84D JUMPI DUP5 DUP2 DUP2 MLOAD DUP2 LT PUSH2 0x7B8 JUMPI PUSH2 0x7B7 PUSH2 0xD48 JUMP JUMPDEST JUMPDEST PUSH1 0x20 MUL PUSH1 0x20 ADD ADD MLOAD DUP6 PUSH1 0x1 DUP4 PUSH2 0x7CE SWAP2 SWAP1 PUSH2 0xECC JUMP JUMPDEST DUP2 MLOAD DUP2 LT PUSH2 0x7DF JUMPI PUSH2 0x7DE PUSH2 0xD48 JUMP JUMPDEST JUMPDEST PUSH1 0x20 MUL PUSH1 0x20 ADD ADD MLOAD PUSH1 0x40 MLOAD PUSH1 0x20 ADD PUSH2 0x7F8 SWAP3 SWAP2 SWAP1 PUSH2 0xFF3 JUMP JUMPDEST PUSH1 0x40 MLOAD PUSH1 0x20 DUP2 DUP4 SUB SUB DUP2 MSTORE SWAP1 PUSH1 0x40 MSTORE DUP1 MLOAD SWAP1 PUSH1 0x20 ADD KECCAK256 DUP3 PUSH1 0x2 DUP4 PUSH2 0x81C SWAP2 SWAP1 PUSH2 0xE53 JUMP JUMPDEST DUP2 MLOAD DUP2 LT PUSH2 0x82D JUMPI PUSH2 0x82C PUSH2 0xD48 JUMP JUMPDEST JUMPDEST PUSH1 0x20 MUL PUSH1 0x20 ADD ADD DUP2 DUP2 MSTORE POP POP PUSH1 0x2 DUP2 PUSH2 0x846 SWAP2 SWAP1 PUSH2 0xECC JUMP JUMPDEST SWAP1 POP PUSH2 0x79C JUMP JUMPDEST POP DUP1 SWAP4 POP PUSH1 0x2 DUP9 PUSH2 0x85E SWAP2 SWAP1 PUSH2 0xE53 JUMP JUMPDEST SWAP8 POP POP POP PUSH2 0x6A0 JUMP JUMPDEST DUP3 SWAP5 POP POP POP POP POP SWAP3 SWAP2 POP POP JUMP JUMPDEST PUSH1 0x0 PUSH1 0x40 MLOAD SWAP1 POP SWAP1 JUMP JUMPDEST PUSH1 0x0 DUP1 REVERT JUMPDEST PUSH1 0x0 DUP1 REVERT JUMPDEST PUSH1 0x0 DUP2 SWAP1 POP SWAP2 SWAP1 POP JUMP JUMPDEST PUSH2 0x89B DUP2 PUSH2 0x888 JUMP JUMPDEST DUP2 EQ PUSH2 0x8A6 JUMPI PUSH1 0x0 DUP1 REVERT JUMPDEST POP JUMP JUMPDEST PUSH1 0x0 DUP2 CALLDATALOAD SWAP1 POP PUSH2 0x8B8 DUP2 PUSH2 0x892 JUMP JUMPDEST SWAP3 SWAP2 POP POP JUMP JUMPDEST PUSH1 0x0 PUSH1 0x20 DUP3 DUP5 SUB SLT ISZERO PUSH2 0x8D4 JUMPI PUSH2 0x8D3 PUSH2 0x87E JUMP JUMPDEST JUMPDEST PUSH1 0x0 PUSH2 0x8E2 DUP5 DUP3 DUP6 ADD PUSH2 0x8A9 JUMP JUMPDEST SWAP2 POP POP SWAP3 SWAP2 POP POP JUMP JUMPDEST PUSH1 0x0 DUP2 MLOAD SWAP1 POP SWAP2 SWAP1 POP JUMP JUMPDEST PUSH1 0x0 DUP3 DUP3 MSTORE PUSH1 0x20 DUP3 ADD SWAP1 POP SWAP3 SWAP2 POP POP JUMP JUMPDEST PUSH1 0x0 DUP2 SWAP1 POP PUSH1 0x20 DUP3 ADD SWAP1 POP SWAP2 SWAP1 POP JUMP JUMPDEST PUSH1 0x0 DUP2 SWAP1 POP SWAP2 SWAP1 POP JUMP JUMPDEST PUSH2 0x92A DUP2 PUSH2 0x917 JUMP JUMPDEST DUP3 MSTORE POP POP JUMP JUMPDEST PUSH1 0x0 PUSH2 0x93C DUP4 DUP4 PUSH2 0x921 JUMP JUMPDEST PUSH1 0x20 DUP4 ADD SWAP1 POP SWAP3 SWAP2 POP POP JUMP JUMPDEST PUSH1 0x0 PUSH1 0x20 DUP3 ADD SWAP1 POP SWAP2 SWAP1 POP JUMP JUMPDEST PUSH1 0x0 PUSH2 0x960 DUP3 PUSH2 0x8EB JUMP JUMPDEST PUSH2 0x96A DUP2 DUP6 PUSH2 0x8F6 JUMP JUMPDEST SWAP4 POP PUSH2 0x975 DUP4 PUSH2 0x907 JUMP JUMPDEST DUP1 PUSH1 0x0 JUMPDEST DUP4 DUP2 LT ISZERO PUSH2 0x9A6 JUMPI DUP2 MLOAD PUSH2 0x98D DUP9 DUP3 PUSH2 0x930 JUMP JUMPDEST SWAP8 POP PUSH2 0x998 DUP4 PUSH2 0x948 JUMP JUMPDEST SWAP3 POP POP PUSH1 0x1 DUP2 ADD SWAP1 POP PUSH2 0x979 JUMP JUMPDEST POP DUP6 SWAP4 POP POP POP POP SWAP3 SWAP2 POP POP JUMP JUMPDEST PUSH2 0x9BC DUP2 PUSH2 0x917 JUMP JUMPDEST DUP3 MSTORE POP POP JUMP JUMPDEST PUSH1 0x0 PUSH1 0x60 DUP3 ADD SWAP1 POP DUP2 DUP2 SUB PUSH1 0x0 DUP4 ADD MSTORE PUSH2 0x9DC DUP2 DUP7 PUSH2 0x955 JUMP JUMPDEST SWAP1 POP PUSH2 0x9EB PUSH1 0x20 DUP4 ADD DUP6 PUSH2 0x9B3 JUMP JUMPDEST PUSH2 0x9F8 PUSH1 0x40 DUP4 ADD DUP5 PUSH2 0x9B3 JUMP JUMPDEST SWAP5 SWAP4 POP POP POP POP JUMP JUMPDEST PUSH1 0x0 DUP2 ISZERO ISZERO SWAP1 POP SWAP2 SWAP1 POP JUMP JUMPDEST PUSH2 0xA15 DUP2 PUSH2 0xA00 JUMP JUMPDEST DUP3 MSTORE POP POP JUMP JUMPDEST PUSH1 0x0 PUSH1 0x20 DUP3 ADD SWAP1 POP PUSH2 0xA30 PUSH1 0x0 DUP4 ADD DUP5 PUSH2 0xA0C JUMP JUMPDEST SWAP3 SWAP2 POP POP JUMP JUMPDEST PUSH1 0x0 DUP1 REVERT JUMPDEST PUSH1 0x0 PUSH1 0x1F NOT PUSH1 0x1F DUP4 ADD AND SWAP1 POP SWAP2 SWAP1 POP JUMP JUMPDEST PUSH32 0x4E487B7100000000000000000000000000000000000000000000000000000000 PUSH1 0x0 MSTORE PUSH1 0x41 PUSH1 0x4 MSTORE PUSH1 0x24 PUSH1 0x0 REVERT JUMPDEST PUSH2 0xA84 DUP3 PUSH2 0xA3B JUMP JUMPDEST DUP2 ADD DUP2 DUP2 LT PUSH8 0xFFFFFFFFFFFFFFFF DUP3 GT OR ISZERO PUSH2 0xAA3 JUMPI PUSH2 0xAA2 PUSH2 0xA4C JUMP JUMPDEST JUMPDEST DUP1 PUSH1 0x40 MSTORE POP POP POP JUMP JUMPDEST PUSH1 0x0 PUSH2 0xAB6 PUSH2 0x874 JUMP JUMPDEST SWAP1 POP PUSH2 0xAC2 DUP3 DUP3 PUSH2 0xA7B JUMP JUMPDEST SWAP2 SWAP1 POP JUMP JUMPDEST PUSH1 0x0 PUSH8 0xFFFFFFFFFFFFFFFF DUP3 GT ISZERO PUSH2 0xAE2 JUMPI PUSH2 0xAE1 PUSH2 0xA4C JUMP JUMPDEST JUMPDEST PUSH1 0x20 DUP3 MUL SWAP1 POP PUSH1 0x20 DUP2 ADD SWAP1 POP SWAP2 SWAP1 POP JUMP JUMPDEST PUSH1 0x0 DUP1 REVERT JUMPDEST PUSH2 0xB01 DUP2 PUSH2 0x917 JUMP JUMPDEST DUP2 EQ PUSH2 0xB0C JUMPI PUSH1 0x0 DUP1 REVERT JUMPDEST POP JUMP JUMPDEST PUSH1 0x0 DUP2 CALLDATALOAD SWAP1 POP PUSH2 0xB1E DUP2 PUSH2 0xAF8 JUMP JUMPDEST SWAP3 SWAP2 POP POP JUMP JUMPDEST PUSH1 0x0 PUSH2 0xB37 PUSH2 0xB32 DUP5 PUSH2 0xAC7 JUMP JUMPDEST PUSH2 0xAAC JUMP JUMPDEST SWAP1 POP DUP1 DUP4 DUP3 MSTORE PUSH1 0x20 DUP3 ADD SWAP1 POP PUSH1 0x20 DUP5 MUL DUP4 ADD DUP6 DUP2 GT ISZERO PUSH2 0xB5A JUMPI PUSH2 0xB59 PUSH2 0xAF3 JUMP JUMPDEST JUMPDEST DUP4 JUMPDEST DUP2 DUP2 LT ISZERO PUSH2 0xB83 JUMPI DUP1 PUSH2 0xB6F DUP9 DUP3 PUSH2 0xB0F JUMP JUMPDEST DUP5 MSTORE PUSH1 0x20 DUP5 ADD SWAP4 POP POP PUSH1 0x20 DUP2 ADD SWAP1 POP PUSH2 0xB5C JUMP JUMPDEST POP POP POP SWAP4 SWAP3 POP POP POP JUMP JUMPDEST PUSH1 0x0 DUP3 PUSH1 0x1F DUP4 ADD SLT PUSH2 0xBA2 JUMPI PUSH2 0xBA1 PUSH2 0xA36 JUMP JUMPDEST JUMPDEST DUP2 CALLDATALOAD PUSH2 0xBB2 DUP5 DUP3 PUSH1 0x20 DUP7 ADD PUSH2 0xB24 JUMP JUMPDEST SWAP2 POP POP SWAP3 SWAP2 POP POP JUMP JUMPDEST PUSH1 0x0 DUP1 PUSH1 0x0 PUSH1 0x60 DUP5 DUP7 SUB SLT ISZERO PUSH2 0xBD4 JUMPI PUSH2 0xBD3 PUSH2 0x87E JUMP JUMPDEST JUMPDEST PUSH1 0x0 DUP5 ADD CALLDATALOAD PUSH8 0xFFFFFFFFFFFFFFFF DUP2 GT ISZERO PUSH2 0xBF2 JUMPI PUSH2 0xBF1 PUSH2 0x883 JUMP JUMPDEST JUMPDEST PUSH2 0xBFE DUP7 DUP3 DUP8 ADD PUSH2 0xB8D JUMP JUMPDEST SWAP4 POP POP PUSH1 0x20 PUSH2 0xC0F DUP7 DUP3 DUP8 ADD PUSH2 0xB0F JUMP JUMPDEST SWAP3 POP POP PUSH1 0x40 PUSH2 0xC20 DUP7 DUP3 DUP8 ADD PUSH2 0xB0F JUMP JUMPDEST SWAP2 POP POP SWAP3 POP SWAP3 POP SWAP3 JUMP JUMPDEST PUSH1 0x0 PUSH1 0x20 DUP3 DUP5 SUB SLT ISZERO PUSH2 0xC40 JUMPI PUSH2 0xC3F PUSH2 0x87E JUMP JUMPDEST JUMPDEST PUSH1 0x0 DUP3 ADD CALLDATALOAD PUSH8 0xFFFFFFFFFFFFFFFF DUP2 GT ISZERO PUSH2 0xC5E JUMPI PUSH2 0xC5D PUSH2 0x883 JUMP JUMPDEST JUMPDEST PUSH2 0xC6A DUP5 DUP3 DUP6 ADD PUSH2 0xB8D JUMP JUMPDEST SWAP2 POP POP SWAP3 SWAP2 POP POP JUMP JUMPDEST PUSH1 0x0 PUSH1 0x20 DUP3 ADD SWAP1 POP PUSH2 0xC88 PUSH1 0x0 DUP4 ADD DUP5 PUSH2 0x9B3 JUMP JUMPDEST SWAP3 SWAP2 POP POP JUMP JUMPDEST PUSH1 0x0 DUP1 PUSH1 0x40 DUP4 DUP6 SUB SLT ISZERO PUSH2 0xCA5 JUMPI PUSH2 0xCA4 PUSH2 0x87E JUMP JUMPDEST JUMPDEST PUSH1 0x0 DUP4 ADD CALLDATALOAD PUSH8 0xFFFFFFFFFFFFFFFF DUP2 GT ISZERO PUSH2 0xCC3 JUMPI PUSH2 0xCC2 PUSH2 0x883 JUMP JUMPDEST JUMPDEST PUSH2 0xCCF DUP6 DUP3 DUP7 ADD PUSH2 0xB8D JUMP JUMPDEST SWAP3 POP POP PUSH1 0x20 PUSH2 0xCE0 DUP6 DUP3 DUP7 ADD PUSH2 0x8A9 JUMP JUMPDEST SWAP2 POP POP SWAP3 POP SWAP3 SWAP1 POP JUMP JUMPDEST PUSH1 0x0 PUSH1 0x20 DUP3 ADD SWAP1 POP DUP2 DUP2 SUB PUSH1 0x0 DUP4 ADD MSTORE PUSH2 0xD04 DUP2 DUP5 PUSH2 0x955 JUMP JUMPDEST SWAP1 POP SWAP3 SWAP2 POP POP JUMP JUMPDEST PUSH1 0x0 DUP2 SWAP1 POP SWAP2 SWAP1 POP JUMP JUMPDEST PUSH2 0xD27 PUSH2 0xD22 DUP3 PUSH2 0x888 JUMP JUMPDEST PUSH2 0xD0C JUMP JUMPDEST DUP3 MSTORE POP POP JUMP JUMPDEST PUSH1 0x0 PUSH2 0xD39 DUP3 DUP5 PUSH2 0xD16 JUMP JUMPDEST PUSH1 0x20 DUP3 ADD SWAP2 POP DUP2 SWAP1 POP SWAP3 SWAP2 POP POP JUMP JUMPDEST PUSH32 0x4E487B7100000000000000000000000000000000000000000000000000000000 PUSH1 0x0 MSTORE PUSH1 0x32 PUSH1 0x4 MSTORE PUSH1 0x24 PUSH1 0x0 REVERT JUMPDEST PUSH32 0x4E487B7100000000000000000000000000000000000000000000000000000000 PUSH1 0x0 MSTORE PUSH1 0x12 PUSH1 0x4 MSTORE PUSH1 0x24 PUSH1 0x0 REVERT JUMPDEST PUSH1 0x0 PUSH2 0xDB1 DUP3 PUSH2 0x888 JUMP JUMPDEST SWAP2 POP PUSH2 0xDBC DUP4 PUSH2 0x888 JUMP JUMPDEST SWAP3 POP DUP3 PUSH2 0xDCC JUMPI PUSH2 0xDCB PUSH2 0xD77 JUMP JUMPDEST JUMPDEST DUP3 DUP3 MOD SWAP1 POP SWAP3 SWAP2 POP POP JUMP JUMPDEST PUSH1 0x0 DUP2 SWAP1 POP SWAP2 SWAP1 POP JUMP JUMPDEST PUSH2 0xDF2 PUSH2 0xDED DUP3 PUSH2 0x917 JUMP JUMPDEST PUSH2 0xDD7 JUMP JUMPDEST DUP3 MSTORE POP POP JUMP JUMPDEST PUSH1 0x0 PUSH2 0xE04 DUP3 DUP6 PUSH2 0xDE1 JUMP JUMPDEST PUSH1 0x20 DUP3 ADD SWAP2 POP PUSH2 0xE14 DUP3 DUP5 PUSH2 0xDE1 JUMP JUMPDEST PUSH1 0x20 DUP3 ADD SWAP2 POP DUP2 SWAP1 POP SWAP4 SWAP3 POP POP POP JUMP JUMPDEST PUSH32 0x4E487B7100000000000000000000000000000000000000000000000000000000 PUSH1 0x0 MSTORE PUSH1 0x11 PUSH1 0x4 MSTORE PUSH1 0x24 PUSH1 0x0 REVERT JUMPDEST PUSH1 0x0 PUSH2 0xE5E DUP3 PUSH2 0x888 JUMP JUMPDEST SWAP2 POP PUSH2 0xE69 DUP4 PUSH2 0x888 JUMP JUMPDEST SWAP3 POP DUP3 PUSH2 0xE79 JUMPI PUSH2 0xE78 PUSH2 0xD77 JUMP JUMPDEST JUMPDEST DUP3 DUP3 DIV SWAP1 POP SWAP3 SWAP2 POP POP JUMP JUMPDEST PUSH1 0x0 PUSH2 0xE8F DUP3 PUSH2 0x888 JUMP JUMPDEST SWAP2 POP PUSH32 0xFFFFFFFFFFFFFFFFFFFFFFFFFFFFFFFFFFFFFFFFFFFFFFFFFFFFFFFFFFFFFFFF DUP3 SUB PUSH2 0xEC1 JUMPI PUSH2 0xEC0 PUSH2 0xE24 JUMP JUMPDEST JUMPDEST PUSH1 0x1 DUP3 ADD SWAP1 POP SWAP2 SWAP1 POP JUMP JUMPDEST PUSH1 0x0 PUSH2 0xED7 DUP3 PUSH2 0x888 JUMP JUMPDEST SWAP2 POP PUSH2 0xEE2 DUP4 PUSH2 0x888 JUMP JUMPDEST SWAP3 POP DUP3 DUP3 ADD SWAP1 POP DUP1 DUP3 GT ISZERO PUSH2 0xEFA JUMPI PUSH2 0xEF9 PUSH2 0xE24 JUMP JUMPDEST JUMPDEST SWAP3 SWAP2 POP POP JUMP JUMPDEST PUSH1 0x0 PUSH2 0xF0B DUP3 PUSH2 0x888 JUMP JUMPDEST SWAP2 POP PUSH2 0xF16 DUP4 PUSH2 0x888 JUMP JUMPDEST SWAP3 POP DUP3 DUP3 MUL PUSH2 0xF24 DUP2 PUSH2 0x888 JUMP JUMPDEST SWAP2 POP DUP3 DUP3 DIV DUP5 EQ DUP4 ISZERO OR PUSH2 0xF3B JUMPI PUSH2 0xF3A PUSH2 0xE24 JUMP JUMPDEST JUMPDEST POP SWAP3 SWAP2 POP POP JUMP JUMPDEST PUSH1 0x0 DUP3 DUP3 MSTORE PUSH1 0x20 DUP3 ADD SWAP1 POP SWAP3 SWAP2 POP POP JUMP JUMPDEST PUSH32 0x496E76616C6964206C65616620696E6465780000000000000000000000000000 PUSH1 0x0 DUP3 ADD MSTORE POP JUMP JUMPDEST PUSH1 0x0 PUSH2 0xF89 PUSH1 0x12 DUP4 PUSH2 0xF42 JUMP JUMPDEST SWAP2 POP PUSH2 0xF94 DUP3 PUSH2 0xF53 JUMP JUMPDEST PUSH1 0x20 DUP3 ADD SWAP1 POP SWAP2 SWAP1 POP JUMP JUMPDEST PUSH1 0x0 PUSH1 0x20 DUP3 ADD SWAP1 POP DUP2 DUP2 SUB PUSH1 0x0 DUP4 ADD MSTORE PUSH2 0xFB8 DUP2 PUSH2 0xF7C JUMP JUMPDEST SWAP1 POP SWAP2 SWAP1 POP JUMP JUMPDEST PUSH1 0x0 PUSH2 0xFCA DUP3 PUSH2 0x888 JUMP JUMPDEST SWAP2 POP PUSH2 0xFD5 DUP4 PUSH2 0x888 JUMP JUMPDEST SWAP3 POP DUP3 DUP3 SUB SWAP1 POP DUP2 DUP2 GT ISZERO PUSH2 0xFED JUMPI PUSH2 0xFEC PUSH2 0xE24 JUMP JUMPDEST JUMPDEST SWAP3 SWAP2 POP POP JUMP JUMPDEST PUSH1 0x0 PUSH1 0x40 DUP3 ADD SWAP1 POP PUSH2 0x1008 PUSH1 0x0 DUP4 ADD DUP6 PUSH2 0x9B3 JUMP JUMPDEST PUSH2 0x1015 PUSH1 0x20 DUP4 ADD DUP5 PUSH2 0x9B3 JUMP JUMPDEST SWAP4 SWAP3 POP POP POP JUMP INVALID LOG2 PUSH5 0x6970667358 0x22 SLT KECCAK256 JUMPI 0xB1 CALLDATASIZE 0x5C PUSH12 0x74ADD0571DA24505F272F497 GASLIMIT OR SWAP2 0xD PUSH12 0x6790E19BEED15D2AA99F6473 PUSH16 0x6C634300081300330000000000000000 "
		},
		"gasEstimates": {
			"creation": {
				"codeDepositCost": "835600",
				"executionCost": "870",
				"totalCost": "836470"
			},
			"external": {
				"example(uint256)": "infinite",
				"generateMerkleProof(bytes32[],uint256)": "infinite",
				"generateMerkleRoot(bytes32[])": "infinite",
				"testExampleFunction(uint256)": "infinite",
				"verifyMerkleProof(bytes32[],bytes32,bytes32)": "infinite"
			}
		},
		"methodIdentifiers": {
			"example(uint256)": "477e4a02",
			"generateMerkleProof(bytes32[],uint256)": "d6da100e",
			"generateMerkleRoot(bytes32[])": "d1538949",
			"testExampleFunction(uint256)": "7f410908",
			"verifyMerkleProof(bytes32[],bytes32,bytes32)": "ada4fa18"
		}
	},
	"abi": [
		{
			"inputs": [
				{
					"internalType": "uint256",
					"name": "index",
					"type": "uint256"
				}
			],
			"name": "example",
			"outputs": [
				{
					"internalType": "bytes32[]",
					"name": "",
					"type": "bytes32[]"
				},
				{
					"internalType": "bytes32",
					"name": "",
					"type": "bytes32"
				},
				{
					"internalType": "bytes32",
					"name": "",
					"type": "bytes32"
				}
			],
			"stateMutability": "pure",
			"type": "function"
		},
		{
			"inputs": [
				{
					"internalType": "bytes32[]",
					"name": "leaves",
					"type": "bytes32[]"
				},
				{
					"internalType": "uint256",
					"name": "index",
					"type": "uint256"
				}
			],
			"name": "generateMerkleProof",
			"outputs": [
				{
					"internalType": "bytes32[]",
					"name": "",
					"type": "bytes32[]"
				}
			],
			"stateMutability": "pure",
			"type": "function"
		},
		{
			"inputs": [
				{
					"internalType": "bytes32[]",
					"name": "leaves",
					"type": "bytes32[]"
				}
			],
			"name": "generateMerkleRoot",
			"outputs": [
				{
					"internalType": "bytes32",
					"name": "",
					"type": "bytes32"
				}
			],
			"stateMutability": "pure",
			"type": "function"
		},
		{
			"inputs": [
				{
					"internalType": "uint256",
					"name": "index",
					"type": "uint256"
				}
			],
			"name": "testExampleFunction",
			"outputs": [
				{
					"internalType": "bool",
					"name": "",
					"type": "bool"
				}
			],
			"stateMutability": "pure",
			"type": "function"
		},
		{
			"inputs": [
				{
					"internalType": "bytes32[]",
					"name": "merkleProof",
					"type": "bytes32[]"
				},
				{
					"internalType": "bytes32",
					"name": "leafNode",
					"type": "bytes32"
				},
				{
					"internalType": "bytes32",
					"name": "rootHash",
					"type": "bytes32"
				}
			],
			"name": "verifyMerkleProof",
			"outputs": [
				{
					"internalType": "bool",
					"name": "",
					"type": "bool"
				}
			],
			"stateMutability": "pure",
			"type": "function"
		}
	]
}