{
	"data": {
		"bytecode": {
			"linkReferences": {},
			"object": "608060405234801561001057600080fd5b506107d4806100206000396000f3fe608060405234801561001057600080fd5b506004361061002b5760003560e01c8063b861619514610030575b600080fd5b61004a60048036038101906100459190610441565b610060565b604051610057919061055b565b60405180910390f35b6060825182106100a5576040517f08c379a000000000000000000000000000000000000000000000000000000000815260040161009c906105da565b60405180910390fd5b6000600184516100b59190610629565b67ffffffffffffffff8111156100ce576100cd610292565b5b6040519080825280602002602001820160405280156100fc5781602001602082028036833780820191505090505b50905060008451905060005b600182111561025c576000600286610120919061068c565b8261012b91906106bd565b9050600087878461013c91906106bd565b8151811061014d5761014c6106f1565b5b602002602001015190506000806002896101679190610720565b036101a557886001898661017b91906106bd565b61018591906106bd565b81518110610196576101956106f1565b5b602002602001015190506101da565b88600189866101b491906106bd565b6101be9190610629565b815181106101cf576101ce6106f1565b5b602002602001015190505b600082826040516020016101ef929190610772565b6040516020818303038152906040528051906020012090508087858151811061021b5761021a6106f1565b5b602002602001018181525050600289610234919061068c565b9850600286610243919061068c565b9550858561025191906106bd565b945050505050610108565b82935050505092915050565b6000604051905090565b600080fd5b600080fd5b600080fd5b6000601f19601f8301169050919050565b7f4e487b7100000000000000000000000000000000000000000000000000000000600052604160045260246000fd5b6102ca82610281565b810181811067ffffffffffffffff821117156102e9576102e8610292565b5b80604052505050565b60006102fc610268565b905061030882826102c1565b919050565b600067ffffffffffffffff82111561032857610327610292565b5b602082029050602081019050919050565b600080fd5b6000819050919050565b6103518161033e565b811461035c57600080fd5b50565b60008135905061036e81610348565b92915050565b60006103876103828461030d565b6102f2565b905080838252602082019050602084028301858111156103aa576103a9610339565b5b835b818110156103d357806103bf888261035f565b8452602084019350506020810190506103ac565b5050509392505050565b600082601f8301126103f2576103f161027c565b5b8135610402848260208601610374565b91505092915050565b6000819050919050565b61041e8161040b565b811461042957600080fd5b50565b60008135905061043b81610415565b92915050565b6000806040838503121561045857610457610272565b5b600083013567ffffffffffffffff81111561047657610475610277565b5b610482858286016103dd565b92505060206104938582860161042c565b9150509250929050565b600081519050919050565b600082825260208201905092915050565b6000819050602082019050919050565b6104d28161033e565b82525050565b60006104e483836104c9565b60208301905092915050565b6000602082019050919050565b60006105088261049d565b61051281856104a8565b935061051d836104b9565b8060005b8381101561054e57815161053588826104d8565b9750610540836104f0565b925050600181019050610521565b5085935050505092915050565b6000602082019050818103600083015261057581846104fd565b905092915050565b600082825260208201905092915050565b7f496e76616c696420696e64657800000000000000000000000000000000000000600082015250565b60006105c4600d8361057d565b91506105cf8261058e565b602082019050919050565b600060208201905081810360008301526105f3816105b7565b9050919050565b7f4e487b7100000000000000000000000000000000000000000000000000000000600052601160045260246000fd5b60006106348261040b565b915061063f8361040b565b9250828203905081811115610657576106566105fa565b5b92915050565b7f4e487b7100000000000000000000000000000000000000000000000000000000600052601260045260246000fd5b60006106978261040b565b91506106a28361040b565b9250826106b2576106b161065d565b5b828204905092915050565b60006106c88261040b565b91506106d38361040b565b92508282019050808211156106eb576106ea6105fa565b5b92915050565b7f4e487b7100000000000000000000000000000000000000000000000000000000600052603260045260246000fd5b600061072b8261040b565b91506107368361040b565b9250826107465761074561065d565b5b828206905092915050565b6000819050919050565b61076c6107678261033e565b610751565b82525050565b600061077e828561075b565b60208201915061078e828461075b565b602082019150819050939250505056fea2646970667358221220581eafd69f36eabc5b0efa6274ecc48458e5320dbbf0f75af369f954f2d6396764736f6c63430008130033",
			"opcodes": "PUSH1 0x80 PUSH1 0x40 MSTORE CALLVALUE DUP1 ISZERO PUSH2 0x10 JUMPI PUSH1 0x0 DUP1 REVERT JUMPDEST POP PUSH2 0x7D4 DUP1 PUSH2 0x20 PUSH1 0x0 CODECOPY PUSH1 0x0 RETURN INVALID PUSH1 0x80 PUSH1 0x40 MSTORE CALLVALUE DUP1 ISZERO PUSH2 0x10 JUMPI PUSH1 0x0 DUP1 REVERT JUMPDEST POP PUSH1 0x4 CALLDATASIZE LT PUSH2 0x2B JUMPI PUSH1 0x0 CALLDATALOAD PUSH1 0xE0 SHR DUP1 PUSH4 0xB8616195 EQ PUSH2 0x30 JUMPI JUMPDEST PUSH1 0x0 DUP1 REVERT JUMPDEST PUSH2 0x4A PUSH1 0x4 DUP1 CALLDATASIZE SUB DUP2 ADD SWAP1 PUSH2 0x45 SWAP2 SWAP1 PUSH2 0x441 JUMP JUMPDEST PUSH2 0x60 JUMP JUMPDEST PUSH1 0x40 MLOAD PUSH2 0x57 SWAP2 SWAP1 PUSH2 0x55B JUMP JUMPDEST PUSH1 0x40 MLOAD DUP1 SWAP2 SUB SWAP1 RETURN JUMPDEST PUSH1 0x60 DUP3 MLOAD DUP3 LT PUSH2 0xA5 JUMPI PUSH1 0x40 MLOAD PUSH32 0x8C379A000000000000000000000000000000000000000000000000000000000 DUP2 MSTORE PUSH1 0x4 ADD PUSH2 0x9C SWAP1 PUSH2 0x5DA JUMP JUMPDEST PUSH1 0x40 MLOAD DUP1 SWAP2 SUB SWAP1 REVERT JUMPDEST PUSH1 0x0 PUSH1 0x1 DUP5 MLOAD PUSH2 0xB5 SWAP2 SWAP1 PUSH2 0x629 JUMP JUMPDEST PUSH8 0xFFFFFFFFFFFFFFFF DUP2 GT ISZERO PUSH2 0xCE JUMPI PUSH2 0xCD PUSH2 0x292 JUMP JUMPDEST JUMPDEST PUSH1 0x40 MLOAD SWAP1 DUP1 DUP3 MSTORE DUP1 PUSH1 0x20 MUL PUSH1 0x20 ADD DUP3 ADD PUSH1 0x40 MSTORE DUP1 ISZERO PUSH2 0xFC JUMPI DUP2 PUSH1 0x20 ADD PUSH1 0x20 DUP3 MUL DUP1 CALLDATASIZE DUP4 CALLDATACOPY DUP1 DUP3 ADD SWAP2 POP POP SWAP1 POP JUMPDEST POP SWAP1 POP PUSH1 0x0 DUP5 MLOAD SWAP1 POP PUSH1 0x0 JUMPDEST PUSH1 0x1 DUP3 GT ISZERO PUSH2 0x25C JUMPI PUSH1 0x0 PUSH1 0x2 DUP7 PUSH2 0x120 SWAP2 SWAP1 PUSH2 0x68C JUMP JUMPDEST DUP3 PUSH2 0x12B SWAP2 SWAP1 PUSH2 0x6BD JUMP JUMPDEST SWAP1 POP PUSH1 0x0 DUP8 DUP8 DUP5 PUSH2 0x13C SWAP2 SWAP1 PUSH2 0x6BD JUMP JUMPDEST DUP2 MLOAD DUP2 LT PUSH2 0x14D JUMPI PUSH2 0x14C PUSH2 0x6F1 JUMP JUMPDEST JUMPDEST PUSH1 0x20 MUL PUSH1 0x20 ADD ADD MLOAD SWAP1 POP PUSH1 0x0 DUP1 PUSH1 0x2 DUP10 PUSH2 0x167 SWAP2 SWAP1 PUSH2 0x720 JUMP JUMPDEST SUB PUSH2 0x1A5 JUMPI DUP9 PUSH1 0x1 DUP10 DUP7 PUSH2 0x17B SWAP2 SWAP1 PUSH2 0x6BD JUMP JUMPDEST PUSH2 0x185 SWAP2 SWAP1 PUSH2 0x6BD JUMP JUMPDEST DUP2 MLOAD DUP2 LT PUSH2 0x196 JUMPI PUSH2 0x195 PUSH2 0x6F1 JUMP JUMPDEST JUMPDEST PUSH1 0x20 MUL PUSH1 0x20 ADD ADD MLOAD SWAP1 POP PUSH2 0x1DA JUMP JUMPDEST DUP9 PUSH1 0x1 DUP10 DUP7 PUSH2 0x1B4 SWAP2 SWAP1 PUSH2 0x6BD JUMP JUMPDEST PUSH2 0x1BE SWAP2 SWAP1 PUSH2 0x629 JUMP JUMPDEST DUP2 MLOAD DUP2 LT PUSH2 0x1CF JUMPI PUSH2 0x1CE PUSH2 0x6F1 JUMP JUMPDEST JUMPDEST PUSH1 0x20 MUL PUSH1 0x20 ADD ADD MLOAD SWAP1 POP JUMPDEST PUSH1 0x0 DUP3 DUP3 PUSH1 0x40 MLOAD PUSH1 0x20 ADD PUSH2 0x1EF SWAP3 SWAP2 SWAP1 PUSH2 0x772 JUMP JUMPDEST PUSH1 0x40 MLOAD PUSH1 0x20 DUP2 DUP4 SUB SUB DUP2 MSTORE SWAP1 PUSH1 0x40 MSTORE DUP1 MLOAD SWAP1 PUSH1 0x20 ADD KECCAK256 SWAP1 POP DUP1 DUP8 DUP6 DUP2 MLOAD DUP2 LT PUSH2 0x21B JUMPI PUSH2 0x21A PUSH2 0x6F1 JUMP JUMPDEST JUMPDEST PUSH1 0x20 MUL PUSH1 0x20 ADD ADD DUP2 DUP2 MSTORE POP POP PUSH1 0x2 DUP10 PUSH2 0x234 SWAP2 SWAP1 PUSH2 0x68C JUMP JUMPDEST SWAP9 POP PUSH1 0x2 DUP7 PUSH2 0x243 SWAP2 SWAP1 PUSH2 0x68C JUMP JUMPDEST SWAP6 POP DUP6 DUP6 PUSH2 0x251 SWAP2 SWAP1 PUSH2 0x6BD JUMP JUMPDEST SWAP5 POP POP POP POP POP PUSH2 0x108 JUMP JUMPDEST DUP3 SWAP4 POP POP POP POP SWAP3 SWAP2 POP POP JUMP JUMPDEST PUSH1 0x0 PUSH1 0x40 MLOAD SWAP1 POP SWAP1 JUMP JUMPDEST PUSH1 0x0 DUP1 REVERT JUMPDEST PUSH1 0x0 DUP1 REVERT JUMPDEST PUSH1 0x0 DUP1 REVERT JUMPDEST PUSH1 0x0 PUSH1 0x1F NOT PUSH1 0x1F DUP4 ADD AND SWAP1 POP SWAP2 SWAP1 POP JUMP JUMPDEST PUSH32 0x4E487B7100000000000000000000000000000000000000000000000000000000 PUSH1 0x0 MSTORE PUSH1 0x41 PUSH1 0x4 MSTORE PUSH1 0x24 PUSH1 0x0 REVERT JUMPDEST PUSH2 0x2CA DUP3 PUSH2 0x281 JUMP JUMPDEST DUP2 ADD DUP2 DUP2 LT PUSH8 0xFFFFFFFFFFFFFFFF DUP3 GT OR ISZERO PUSH2 0x2E9 JUMPI PUSH2 0x2E8 PUSH2 0x292 JUMP JUMPDEST JUMPDEST DUP1 PUSH1 0x40 MSTORE POP POP POP JUMP JUMPDEST PUSH1 0x0 PUSH2 0x2FC PUSH2 0x268 JUMP JUMPDEST SWAP1 POP PUSH2 0x308 DUP3 DUP3 PUSH2 0x2C1 JUMP JUMPDEST SWAP2 SWAP1 POP JUMP JUMPDEST PUSH1 0x0 PUSH8 0xFFFFFFFFFFFFFFFF DUP3 GT ISZERO PUSH2 0x328 JUMPI PUSH2 0x327 PUSH2 0x292 JUMP JUMPDEST JUMPDEST PUSH1 0x20 DUP3 MUL SWAP1 POP PUSH1 0x20 DUP2 ADD SWAP1 POP SWAP2 SWAP1 POP JUMP JUMPDEST PUSH1 0x0 DUP1 REVERT JUMPDEST PUSH1 0x0 DUP2 SWAP1 POP SWAP2 SWAP1 POP JUMP JUMPDEST PUSH2 0x351 DUP2 PUSH2 0x33E JUMP JUMPDEST DUP2 EQ PUSH2 0x35C JUMPI PUSH1 0x0 DUP1 REVERT JUMPDEST POP JUMP JUMPDEST PUSH1 0x0 DUP2 CALLDATALOAD SWAP1 POP PUSH2 0x36E DUP2 PUSH2 0x348 JUMP JUMPDEST SWAP3 SWAP2 POP POP JUMP JUMPDEST PUSH1 0x0 PUSH2 0x387 PUSH2 0x382 DUP5 PUSH2 0x30D JUMP JUMPDEST PUSH2 0x2F2 JUMP JUMPDEST SWAP1 POP DUP1 DUP4 DUP3 MSTORE PUSH1 0x20 DUP3 ADD SWAP1 POP PUSH1 0x20 DUP5 MUL DUP4 ADD DUP6 DUP2 GT ISZERO PUSH2 0x3AA JUMPI PUSH2 0x3A9 PUSH2 0x339 JUMP JUMPDEST JUMPDEST DUP4 JUMPDEST DUP2 DUP2 LT ISZERO PUSH2 0x3D3 JUMPI DUP1 PUSH2 0x3BF DUP9 DUP3 PUSH2 0x35F JUMP JUMPDEST DUP5 MSTORE PUSH1 0x20 DUP5 ADD SWAP4 POP POP PUSH1 0x20 DUP2 ADD SWAP1 POP PUSH2 0x3AC JUMP JUMPDEST POP POP POP SWAP4 SWAP3 POP POP POP JUMP JUMPDEST PUSH1 0x0 DUP3 PUSH1 0x1F DUP4 ADD SLT PUSH2 0x3F2 JUMPI PUSH2 0x3F1 PUSH2 0x27C JUMP JUMPDEST JUMPDEST DUP2 CALLDATALOAD PUSH2 0x402 DUP5 DUP3 PUSH1 0x20 DUP7 ADD PUSH2 0x374 JUMP JUMPDEST SWAP2 POP POP SWAP3 SWAP2 POP POP JUMP JUMPDEST PUSH1 0x0 DUP2 SWAP1 POP SWAP2 SWAP1 POP JUMP JUMPDEST PUSH2 0x41E DUP2 PUSH2 0x40B JUMP JUMPDEST DUP2 EQ PUSH2 0x429 JUMPI PUSH1 0x0 DUP1 REVERT JUMPDEST POP JUMP JUMPDEST PUSH1 0x0 DUP2 CALLDATALOAD SWAP1 POP PUSH2 0x43B DUP2 PUSH2 0x415 JUMP JUMPDEST SWAP3 SWAP2 POP POP JUMP JUMPDEST PUSH1 0x0 DUP1 PUSH1 0x40 DUP4 DUP6 SUB SLT ISZERO PUSH2 0x458 JUMPI PUSH2 0x457 PUSH2 0x272 JUMP JUMPDEST JUMPDEST PUSH1 0x0 DUP4 ADD CALLDATALOAD PUSH8 0xFFFFFFFFFFFFFFFF DUP2 GT ISZERO PUSH2 0x476 JUMPI PUSH2 0x475 PUSH2 0x277 JUMP JUMPDEST JUMPDEST PUSH2 0x482 DUP6 DUP3 DUP7 ADD PUSH2 0x3DD JUMP JUMPDEST SWAP3 POP POP PUSH1 0x20 PUSH2 0x493 DUP6 DUP3 DUP7 ADD PUSH2 0x42C JUMP JUMPDEST SWAP2 POP POP SWAP3 POP SWAP3 SWAP1 POP JUMP JUMPDEST PUSH1 0x0 DUP2 MLOAD SWAP1 POP SWAP2 SWAP1 POP JUMP JUMPDEST PUSH1 0x0 DUP3 DUP3 MSTORE PUSH1 0x20 DUP3 ADD SWAP1 POP SWAP3 SWAP2 POP POP JUMP JUMPDEST PUSH1 0x0 DUP2 SWAP1 POP PUSH1 0x20 DUP3 ADD SWAP1 POP SWAP2 SWAP1 POP JUMP JUMPDEST PUSH2 0x4D2 DUP2 PUSH2 0x33E JUMP JUMPDEST DUP3 MSTORE POP POP JUMP JUMPDEST PUSH1 0x0 PUSH2 0x4E4 DUP4 DUP4 PUSH2 0x4C9 JUMP JUMPDEST PUSH1 0x20 DUP4 ADD SWAP1 POP SWAP3 SWAP2 POP POP JUMP JUMPDEST PUSH1 0x0 PUSH1 0x20 DUP3 ADD SWAP1 POP SWAP2 SWAP1 POP JUMP JUMPDEST PUSH1 0x0 PUSH2 0x508 DUP3 PUSH2 0x49D JUMP JUMPDEST PUSH2 0x512 DUP2 DUP6 PUSH2 0x4A8 JUMP JUMPDEST SWAP4 POP PUSH2 0x51D DUP4 PUSH2 0x4B9 JUMP JUMPDEST DUP1 PUSH1 0x0 JUMPDEST DUP4 DUP2 LT ISZERO PUSH2 0x54E JUMPI DUP2 MLOAD PUSH2 0x535 DUP9 DUP3 PUSH2 0x4D8 JUMP JUMPDEST SWAP8 POP PUSH2 0x540 DUP4 PUSH2 0x4F0 JUMP JUMPDEST SWAP3 POP POP PUSH1 0x1 DUP2 ADD SWAP1 POP PUSH2 0x521 JUMP JUMPDEST POP DUP6 SWAP4 POP POP POP POP SWAP3 SWAP2 POP POP JUMP JUMPDEST PUSH1 0x0 PUSH1 0x20 DUP3 ADD SWAP1 POP DUP2 DUP2 SUB PUSH1 0x0 DUP4 ADD MSTORE PUSH2 0x575 DUP2 DUP5 PUSH2 0x4FD JUMP JUMPDEST SWAP1 POP SWAP3 SWAP2 POP POP JUMP JUMPDEST PUSH1 0x0 DUP3 DUP3 MSTORE PUSH1 0x20 DUP3 ADD SWAP1 POP SWAP3 SWAP2 POP POP JUMP JUMPDEST PUSH32 0x496E76616C696420696E64657800000000000000000000000000000000000000 PUSH1 0x0 DUP3 ADD MSTORE POP JUMP JUMPDEST PUSH1 0x0 PUSH2 0x5C4 PUSH1 0xD DUP4 PUSH2 0x57D JUMP JUMPDEST SWAP2 POP PUSH2 0x5CF DUP3 PUSH2 0x58E JUMP JUMPDEST PUSH1 0x20 DUP3 ADD SWAP1 POP SWAP2 SWAP1 POP JUMP JUMPDEST PUSH1 0x0 PUSH1 0x20 DUP3 ADD SWAP1 POP DUP2 DUP2 SUB PUSH1 0x0 DUP4 ADD MSTORE PUSH2 0x5F3 DUP2 PUSH2 0x5B7 JUMP JUMPDEST SWAP1 POP SWAP2 SWAP1 POP JUMP JUMPDEST PUSH32 0x4E487B7100000000000000000000000000000000000000000000000000000000 PUSH1 0x0 MSTORE PUSH1 0x11 PUSH1 0x4 MSTORE PUSH1 0x24 PUSH1 0x0 REVERT JUMPDEST PUSH1 0x0 PUSH2 0x634 DUP3 PUSH2 0x40B JUMP JUMPDEST SWAP2 POP PUSH2 0x63F DUP4 PUSH2 0x40B JUMP JUMPDEST SWAP3 POP DUP3 DUP3 SUB SWAP1 POP DUP2 DUP2 GT ISZERO PUSH2 0x657 JUMPI PUSH2 0x656 PUSH2 0x5FA JUMP JUMPDEST JUMPDEST SWAP3 SWAP2 POP POP JUMP JUMPDEST PUSH32 0x4E487B7100000000000000000000000000000000000000000000000000000000 PUSH1 0x0 MSTORE PUSH1 0x12 PUSH1 0x4 MSTORE PUSH1 0x24 PUSH1 0x0 REVERT JUMPDEST PUSH1 0x0 PUSH2 0x697 DUP3 PUSH2 0x40B JUMP JUMPDEST SWAP2 POP PUSH2 0x6A2 DUP4 PUSH2 0x40B JUMP JUMPDEST SWAP3 POP DUP3 PUSH2 0x6B2 JUMPI PUSH2 0x6B1 PUSH2 0x65D JUMP JUMPDEST JUMPDEST DUP3 DUP3 DIV SWAP1 POP SWAP3 SWAP2 POP POP JUMP JUMPDEST PUSH1 0x0 PUSH2 0x6C8 DUP3 PUSH2 0x40B JUMP JUMPDEST SWAP2 POP PUSH2 0x6D3 DUP4 PUSH2 0x40B JUMP JUMPDEST SWAP3 POP DUP3 DUP3 ADD SWAP1 POP DUP1 DUP3 GT ISZERO PUSH2 0x6EB JUMPI PUSH2 0x6EA PUSH2 0x5FA JUMP JUMPDEST JUMPDEST SWAP3 SWAP2 POP POP JUMP JUMPDEST PUSH32 0x4E487B7100000000000000000000000000000000000000000000000000000000 PUSH1 0x0 MSTORE PUSH1 0x32 PUSH1 0x4 MSTORE PUSH1 0x24 PUSH1 0x0 REVERT JUMPDEST PUSH1 0x0 PUSH2 0x72B DUP3 PUSH2 0x40B JUMP JUMPDEST SWAP2 POP PUSH2 0x736 DUP4 PUSH2 0x40B JUMP JUMPDEST SWAP3 POP DUP3 PUSH2 0x746 JUMPI PUSH2 0x745 PUSH2 0x65D JUMP JUMPDEST JUMPDEST DUP3 DUP3 MOD SWAP1 POP SWAP3 SWAP2 POP POP JUMP JUMPDEST PUSH1 0x0 DUP2 SWAP1 POP SWAP2 SWAP1 POP JUMP JUMPDEST PUSH2 0x76C PUSH2 0x767 DUP3 PUSH2 0x33E JUMP JUMPDEST PUSH2 0x751 JUMP JUMPDEST DUP3 MSTORE POP POP JUMP JUMPDEST PUSH1 0x0 PUSH2 0x77E DUP3 DUP6 PUSH2 0x75B JUMP JUMPDEST PUSH1 0x20 DUP3 ADD SWAP2 POP PUSH2 0x78E DUP3 DUP5 PUSH2 0x75B JUMP JUMPDEST PUSH1 0x20 DUP3 ADD SWAP2 POP DUP2 SWAP1 POP SWAP4 SWAP3 POP POP POP JUMP INVALID LOG2 PUSH5 0x6970667358 0x22 SLT KECCAK256 PC 0x1E 0xAF 0xD6 SWAP16 CALLDATASIZE 0xEA 0xBC JUMPDEST 0xE STATICCALL PUSH3 0x74ECC4 DUP5 PC 0xE5 ORIGIN 0xD 0xBB CREATE 0xF7 GAS RETURN PUSH10 0xF954F2D6396764736F6C PUSH4 0x43000813 STOP CALLER "
		},
		"gasEstimates": {
			"creation": {
				"codeDepositCost": "400800",
				"executionCost": "436",
				"totalCost": "401236"
			},
			"external": {
				"getProof(bytes32[],uint256)": "infinite"
			}
		},
		"methodIdentifiers": {
			"getProof(bytes32[],uint256)": "b8616195"
		}
	},
	"abi": [
		{
			"inputs": [
				{
					"internalType": "bytes32[]",
					"name": "leaves",
					"type": "bytes32[]"
				},
				{
					"internalType": "uint256",
					"name": "index",
					"type": "uint256"
				}
			],
			"name": "getProof",
			"outputs": [
				{
					"internalType": "bytes32[]",
					"name": "",
					"type": "bytes32[]"
				}
			],
			"stateMutability": "pure",
			"type": "function"
		}
	]
}