{
	"data": {
		"bytecode": {
			"linkReferences": {},
			"object": "608060405234801561001057600080fd5b50610f02806100206000396000f3fe608060405234801561001057600080fd5b50600436106100415760003560e01c8063477e4a02146100465780634bc935d714610078578063d6da100e146100a8575b600080fd5b610060600480360381019061005b91906108a9565b6100d8565b60405161006f939291906109ad565b60405180910390f35b610092600480360381019061008d9190610b70565b6102b1565b60405161009f9190610bfa565b60405180910390f35b6100c260048036038101906100bd9190610c15565b6102c7565b6040516100cf9190610c71565b60405180910390f35b6060600080600060016040516020016100f19190610cb4565b6040516020818303038152906040528051906020012090506000600260405160200161011d9190610cb4565b604051602081830303815290604052805190602001209050600060036040516020016101499190610cb4565b604051602081830303815290604052805190602001209050600060046040516020016101759190610cb4565b6040516020818303038152906040528051906020012090506000600467ffffffffffffffff8111156101aa576101a9610a01565b5b6040519080825280602002602001820160405280156101d85781602001602082028036833780820191505090505b50905084816000815181106101f0576101ef610ccf565b5b602002602001018181525050838160018151811061021157610210610ccf565b5b602002602001018181525050828160028151811061023257610231610ccf565b5b602002602001018181525050818160038151811061025357610252610ccf565b5b602002602001018181525050600061026b828b6102c7565b90506000828b8151811061028257610281610ccf565b5b602002602001015190506000610297846105cb565b90508282829a509a509a5050505050505050509193909250565b60006102be8484846107b0565b90509392505050565b6060600080845190505b60018111156102f5576001826102e79190610d2d565b9150600181901c90506102d1565b5060008167ffffffffffffffff81111561031257610311610a01565b5b6040519080825280602002602001820160405280156103405781602001602082028036833780820191505090505b5090506000855160026103539190610d61565b67ffffffffffffffff81111561036c5761036b610a01565b5b60405190808252806020026020018201604052801561039a5781602001602082028036833780820191505090505b50905060005b86518110156103f6578681815181106103bc576103bb610ccf565b5b60200260200101518282815181106103d7576103d6610ccf565b5b60200260200101818152505080806103ee90610da3565b9150506103a0565b506000865190505b60018751600261040e9190610d61565b6104189190610deb565b8110156104ea5781600288518361042f9190610deb565b6104399190610d61565b8151811061044a57610449610ccf565b5b602002602001015182600160028a51856104649190610deb565b61046e9190610d61565b6104789190610d2d565b8151811061048957610488610ccf565b5b60200260200101516040516020016104a2929190610e40565b604051602081830303815290604052805190602001208282815181106104cb576104ca610ccf565b5b60200260200101818152505080806104e290610da3565b9150506103fe565b506000859050600080600090505b858110156105bc57600060028461050f9190610e9b565b14610526576001836105219190610deb565b610534565b6001836105339190610d2d565b5b9150836001808b51866105479190610d2d565b901c846105549190610d2d565b61055e9190610deb565b8151811061056f5761056e610ccf565b5b602002602001015185828151811061058a57610589610ccf565b5b60200260200101818152505060018951846105a59190610d2d565b901c925080806105b490610da3565b9150506104f8565b50839550505050505092915050565b6000808251905060008160026105e19190610d61565b67ffffffffffffffff8111156105fa576105f9610a01565b5b6040519080825280602002602001820160405280156106285781602001602082028036833780820191505090505b50905060005b828110156106835784818151811061064957610648610ccf565b5b602002602001015182828151811061066457610663610ccf565b5b602002602001018181525050808061067b90610da3565b91505061062e565b5060008290505b60018360026106999190610d61565b6106a39190610deb565b8110156107735781836002836106b99190610d61565b6106c39190610deb565b815181106106d4576106d3610ccf565b5b6020026020010151826001856002856106ed9190610d61565b6106f79190610deb565b6107019190610d2d565b8151811061071257610711610ccf565b5b602002602001015160405160200161072b929190610e40565b6040516020818303038152906040528051906020012082828151811061075457610753610ccf565b5b602002602001018181525050808061076b90610da3565b91505061068a565b508060028360026107849190610d61565b61078e9190610deb565b8151811061079f5761079e610ccf565b5b602002602001015192505050919050565b6000826107bd85846107c7565b1490509392505050565b60008082905060005b8451811015610812576107fd828683815181106107f0576107ef610ccf565b5b602002602001015161081d565b9150808061080a90610da3565b9150506107d0565b508091505092915050565b6000818310610835576108308284610848565b610840565b61083f8383610848565b5b905092915050565b600082600052816020526040600020905092915050565b6000604051905090565b600080fd5b600080fd5b6000819050919050565b61088681610873565b811461089157600080fd5b50565b6000813590506108a38161087d565b92915050565b6000602082840312156108bf576108be610869565b5b60006108cd84828501610894565b91505092915050565b600081519050919050565b600082825260208201905092915050565b6000819050602082019050919050565b6000819050919050565b61091581610902565b82525050565b6000610927838361090c565b60208301905092915050565b6000602082019050919050565b600061094b826108d6565b61095581856108e1565b9350610960836108f2565b8060005b83811015610991578151610978888261091b565b975061098383610933565b925050600181019050610964565b5085935050505092915050565b6109a781610902565b82525050565b600060608201905081810360008301526109c78186610940565b90506109d6602083018561099e565b6109e3604083018461099e565b949350505050565b600080fd5b6000601f19601f8301169050919050565b7f4e487b7100000000000000000000000000000000000000000000000000000000600052604160045260246000fd5b610a39826109f0565b810181811067ffffffffffffffff82111715610a5857610a57610a01565b5b80604052505050565b6000610a6b61085f565b9050610a778282610a30565b919050565b600067ffffffffffffffff821115610a9757610a96610a01565b5b602082029050602081019050919050565b600080fd5b610ab681610902565b8114610ac157600080fd5b50565b600081359050610ad381610aad565b92915050565b6000610aec610ae784610a7c565b610a61565b90508083825260208201905060208402830185811115610b0f57610b0e610aa8565b5b835b81811015610b385780610b248882610ac4565b845260208401935050602081019050610b11565b5050509392505050565b600082601f830112610b5757610b566109eb565b5b8135610b67848260208601610ad9565b91505092915050565b600080600060608486031215610b8957610b88610869565b5b600084013567ffffffffffffffff811115610ba757610ba661086e565b5b610bb386828701610b42565b9350506020610bc486828701610ac4565b9250506040610bd586828701610ac4565b9150509250925092565b60008115159050919050565b610bf481610bdf565b82525050565b6000602082019050610c0f6000830184610beb565b92915050565b60008060408385031215610c2c57610c2b610869565b5b600083013567ffffffffffffffff811115610c4a57610c4961086e565b5b610c5685828601610b42565b9250506020610c6785828601610894565b9150509250929050565b60006020820190508181036000830152610c8b8184610940565b905092915050565b6000819050919050565b610cae610ca982610873565b610c93565b82525050565b6000610cc08284610c9d565b60208201915081905092915050565b7f4e487b7100000000000000000000000000000000000000000000000000000000600052603260045260246000fd5b7f4e487b7100000000000000000000000000000000000000000000000000000000600052601160045260246000fd5b6000610d3882610873565b9150610d4383610873565b9250828201905080821115610d5b57610d5a610cfe565b5b92915050565b6000610d6c82610873565b9150610d7783610873565b9250828202610d8581610873565b91508282048414831517610d9c57610d9b610cfe565b5b5092915050565b6000610dae82610873565b91507fffffffffffffffffffffffffffffffffffffffffffffffffffffffffffffffff8203610de057610ddf610cfe565b5b600182019050919050565b6000610df682610873565b9150610e0183610873565b9250828203905081811115610e1957610e18610cfe565b5b92915050565b6000819050919050565b610e3a610e3582610902565b610e1f565b82525050565b6000610e4c8285610e29565b602082019150610e5c8284610e29565b6020820191508190509392505050565b7f4e487b7100000000000000000000000000000000000000000000000000000000600052601260045260246000fd5b6000610ea682610873565b9150610eb183610873565b925082610ec157610ec0610e6c565b5b82820690509291505056fea26469706673582212209c58ee724f1337d6a3b5b014dceeb3350031ad6f7af1f28a25dc5830d4434de564736f6c63430008130033",
			"opcodes": "PUSH1 0x80 PUSH1 0x40 MSTORE CALLVALUE DUP1 ISZERO PUSH2 0x10 JUMPI PUSH1 0x0 DUP1 REVERT JUMPDEST POP PUSH2 0xF02 DUP1 PUSH2 0x20 PUSH1 0x0 CODECOPY PUSH1 0x0 RETURN INVALID PUSH1 0x80 PUSH1 0x40 MSTORE CALLVALUE DUP1 ISZERO PUSH2 0x10 JUMPI PUSH1 0x0 DUP1 REVERT JUMPDEST POP PUSH1 0x4 CALLDATASIZE LT PUSH2 0x41 JUMPI PUSH1 0x0 CALLDATALOAD PUSH1 0xE0 SHR DUP1 PUSH4 0x477E4A02 EQ PUSH2 0x46 JUMPI DUP1 PUSH4 0x4BC935D7 EQ PUSH2 0x78 JUMPI DUP1 PUSH4 0xD6DA100E EQ PUSH2 0xA8 JUMPI JUMPDEST PUSH1 0x0 DUP1 REVERT JUMPDEST PUSH2 0x60 PUSH1 0x4 DUP1 CALLDATASIZE SUB DUP2 ADD SWAP1 PUSH2 0x5B SWAP2 SWAP1 PUSH2 0x8A9 JUMP JUMPDEST PUSH2 0xD8 JUMP JUMPDEST PUSH1 0x40 MLOAD PUSH2 0x6F SWAP4 SWAP3 SWAP2 SWAP1 PUSH2 0x9AD JUMP JUMPDEST PUSH1 0x40 MLOAD DUP1 SWAP2 SUB SWAP1 RETURN JUMPDEST PUSH2 0x92 PUSH1 0x4 DUP1 CALLDATASIZE SUB DUP2 ADD SWAP1 PUSH2 0x8D SWAP2 SWAP1 PUSH2 0xB70 JUMP JUMPDEST PUSH2 0x2B1 JUMP JUMPDEST PUSH1 0x40 MLOAD PUSH2 0x9F SWAP2 SWAP1 PUSH2 0xBFA JUMP JUMPDEST PUSH1 0x40 MLOAD DUP1 SWAP2 SUB SWAP1 RETURN JUMPDEST PUSH2 0xC2 PUSH1 0x4 DUP1 CALLDATASIZE SUB DUP2 ADD SWAP1 PUSH2 0xBD SWAP2 SWAP1 PUSH2 0xC15 JUMP JUMPDEST PUSH2 0x2C7 JUMP JUMPDEST PUSH1 0x40 MLOAD PUSH2 0xCF SWAP2 SWAP1 PUSH2 0xC71 JUMP JUMPDEST PUSH1 0x40 MLOAD DUP1 SWAP2 SUB SWAP1 RETURN JUMPDEST PUSH1 0x60 PUSH1 0x0 DUP1 PUSH1 0x0 PUSH1 0x1 PUSH1 0x40 MLOAD PUSH1 0x20 ADD PUSH2 0xF1 SWAP2 SWAP1 PUSH2 0xCB4 JUMP JUMPDEST PUSH1 0x40 MLOAD PUSH1 0x20 DUP2 DUP4 SUB SUB DUP2 MSTORE SWAP1 PUSH1 0x40 MSTORE DUP1 MLOAD SWAP1 PUSH1 0x20 ADD KECCAK256 SWAP1 POP PUSH1 0x0 PUSH1 0x2 PUSH1 0x40 MLOAD PUSH1 0x20 ADD PUSH2 0x11D SWAP2 SWAP1 PUSH2 0xCB4 JUMP JUMPDEST PUSH1 0x40 MLOAD PUSH1 0x20 DUP2 DUP4 SUB SUB DUP2 MSTORE SWAP1 PUSH1 0x40 MSTORE DUP1 MLOAD SWAP1 PUSH1 0x20 ADD KECCAK256 SWAP1 POP PUSH1 0x0 PUSH1 0x3 PUSH1 0x40 MLOAD PUSH1 0x20 ADD PUSH2 0x149 SWAP2 SWAP1 PUSH2 0xCB4 JUMP JUMPDEST PUSH1 0x40 MLOAD PUSH1 0x20 DUP2 DUP4 SUB SUB DUP2 MSTORE SWAP1 PUSH1 0x40 MSTORE DUP1 MLOAD SWAP1 PUSH1 0x20 ADD KECCAK256 SWAP1 POP PUSH1 0x0 PUSH1 0x4 PUSH1 0x40 MLOAD PUSH1 0x20 ADD PUSH2 0x175 SWAP2 SWAP1 PUSH2 0xCB4 JUMP JUMPDEST PUSH1 0x40 MLOAD PUSH1 0x20 DUP2 DUP4 SUB SUB DUP2 MSTORE SWAP1 PUSH1 0x40 MSTORE DUP1 MLOAD SWAP1 PUSH1 0x20 ADD KECCAK256 SWAP1 POP PUSH1 0x0 PUSH1 0x4 PUSH8 0xFFFFFFFFFFFFFFFF DUP2 GT ISZERO PUSH2 0x1AA JUMPI PUSH2 0x1A9 PUSH2 0xA01 JUMP JUMPDEST JUMPDEST PUSH1 0x40 MLOAD SWAP1 DUP1 DUP3 MSTORE DUP1 PUSH1 0x20 MUL PUSH1 0x20 ADD DUP3 ADD PUSH1 0x40 MSTORE DUP1 ISZERO PUSH2 0x1D8 JUMPI DUP2 PUSH1 0x20 ADD PUSH1 0x20 DUP3 MUL DUP1 CALLDATASIZE DUP4 CALLDATACOPY DUP1 DUP3 ADD SWAP2 POP POP SWAP1 POP JUMPDEST POP SWAP1 POP DUP5 DUP2 PUSH1 0x0 DUP2 MLOAD DUP2 LT PUSH2 0x1F0 JUMPI PUSH2 0x1EF PUSH2 0xCCF JUMP JUMPDEST JUMPDEST PUSH1 0x20 MUL PUSH1 0x20 ADD ADD DUP2 DUP2 MSTORE POP POP DUP4 DUP2 PUSH1 0x1 DUP2 MLOAD DUP2 LT PUSH2 0x211 JUMPI PUSH2 0x210 PUSH2 0xCCF JUMP JUMPDEST JUMPDEST PUSH1 0x20 MUL PUSH1 0x20 ADD ADD DUP2 DUP2 MSTORE POP POP DUP3 DUP2 PUSH1 0x2 DUP2 MLOAD DUP2 LT PUSH2 0x232 JUMPI PUSH2 0x231 PUSH2 0xCCF JUMP JUMPDEST JUMPDEST PUSH1 0x20 MUL PUSH1 0x20 ADD ADD DUP2 DUP2 MSTORE POP POP DUP2 DUP2 PUSH1 0x3 DUP2 MLOAD DUP2 LT PUSH2 0x253 JUMPI PUSH2 0x252 PUSH2 0xCCF JUMP JUMPDEST JUMPDEST PUSH1 0x20 MUL PUSH1 0x20 ADD ADD DUP2 DUP2 MSTORE POP POP PUSH1 0x0 PUSH2 0x26B DUP3 DUP12 PUSH2 0x2C7 JUMP JUMPDEST SWAP1 POP PUSH1 0x0 DUP3 DUP12 DUP2 MLOAD DUP2 LT PUSH2 0x282 JUMPI PUSH2 0x281 PUSH2 0xCCF JUMP JUMPDEST JUMPDEST PUSH1 0x20 MUL PUSH1 0x20 ADD ADD MLOAD SWAP1 POP PUSH1 0x0 PUSH2 0x297 DUP5 PUSH2 0x5CB JUMP JUMPDEST SWAP1 POP DUP3 DUP3 DUP3 SWAP11 POP SWAP11 POP SWAP11 POP POP POP POP POP POP POP POP POP SWAP2 SWAP4 SWAP1 SWAP3 POP JUMP JUMPDEST PUSH1 0x0 PUSH2 0x2BE DUP5 DUP5 DUP5 PUSH2 0x7B0 JUMP JUMPDEST SWAP1 POP SWAP4 SWAP3 POP POP POP JUMP JUMPDEST PUSH1 0x60 PUSH1 0x0 DUP1 DUP5 MLOAD SWAP1 POP JUMPDEST PUSH1 0x1 DUP2 GT ISZERO PUSH2 0x2F5 JUMPI PUSH1 0x1 DUP3 PUSH2 0x2E7 SWAP2 SWAP1 PUSH2 0xD2D JUMP JUMPDEST SWAP2 POP PUSH1 0x1 DUP2 SWAP1 SHR SWAP1 POP PUSH2 0x2D1 JUMP JUMPDEST POP PUSH1 0x0 DUP2 PUSH8 0xFFFFFFFFFFFFFFFF DUP2 GT ISZERO PUSH2 0x312 JUMPI PUSH2 0x311 PUSH2 0xA01 JUMP JUMPDEST JUMPDEST PUSH1 0x40 MLOAD SWAP1 DUP1 DUP3 MSTORE DUP1 PUSH1 0x20 MUL PUSH1 0x20 ADD DUP3 ADD PUSH1 0x40 MSTORE DUP1 ISZERO PUSH2 0x340 JUMPI DUP2 PUSH1 0x20 ADD PUSH1 0x20 DUP3 MUL DUP1 CALLDATASIZE DUP4 CALLDATACOPY DUP1 DUP3 ADD SWAP2 POP POP SWAP1 POP JUMPDEST POP SWAP1 POP PUSH1 0x0 DUP6 MLOAD PUSH1 0x2 PUSH2 0x353 SWAP2 SWAP1 PUSH2 0xD61 JUMP JUMPDEST PUSH8 0xFFFFFFFFFFFFFFFF DUP2 GT ISZERO PUSH2 0x36C JUMPI PUSH2 0x36B PUSH2 0xA01 JUMP JUMPDEST JUMPDEST PUSH1 0x40 MLOAD SWAP1 DUP1 DUP3 MSTORE DUP1 PUSH1 0x20 MUL PUSH1 0x20 ADD DUP3 ADD PUSH1 0x40 MSTORE DUP1 ISZERO PUSH2 0x39A JUMPI DUP2 PUSH1 0x20 ADD PUSH1 0x20 DUP3 MUL DUP1 CALLDATASIZE DUP4 CALLDATACOPY DUP1 DUP3 ADD SWAP2 POP POP SWAP1 POP JUMPDEST POP SWAP1 POP PUSH1 0x0 JUMPDEST DUP7 MLOAD DUP2 LT ISZERO PUSH2 0x3F6 JUMPI DUP7 DUP2 DUP2 MLOAD DUP2 LT PUSH2 0x3BC JUMPI PUSH2 0x3BB PUSH2 0xCCF JUMP JUMPDEST JUMPDEST PUSH1 0x20 MUL PUSH1 0x20 ADD ADD MLOAD DUP3 DUP3 DUP2 MLOAD DUP2 LT PUSH2 0x3D7 JUMPI PUSH2 0x3D6 PUSH2 0xCCF JUMP JUMPDEST JUMPDEST PUSH1 0x20 MUL PUSH1 0x20 ADD ADD DUP2 DUP2 MSTORE POP POP DUP1 DUP1 PUSH2 0x3EE SWAP1 PUSH2 0xDA3 JUMP JUMPDEST SWAP2 POP POP PUSH2 0x3A0 JUMP JUMPDEST POP PUSH1 0x0 DUP7 MLOAD SWAP1 POP JUMPDEST PUSH1 0x1 DUP8 MLOAD PUSH1 0x2 PUSH2 0x40E SWAP2 SWAP1 PUSH2 0xD61 JUMP JUMPDEST PUSH2 0x418 SWAP2 SWAP1 PUSH2 0xDEB JUMP JUMPDEST DUP2 LT ISZERO PUSH2 0x4EA JUMPI DUP2 PUSH1 0x2 DUP9 MLOAD DUP4 PUSH2 0x42F SWAP2 SWAP1 PUSH2 0xDEB JUMP JUMPDEST PUSH2 0x439 SWAP2 SWAP1 PUSH2 0xD61 JUMP JUMPDEST DUP2 MLOAD DUP2 LT PUSH2 0x44A JUMPI PUSH2 0x449 PUSH2 0xCCF JUMP JUMPDEST JUMPDEST PUSH1 0x20 MUL PUSH1 0x20 ADD ADD MLOAD DUP3 PUSH1 0x1 PUSH1 0x2 DUP11 MLOAD DUP6 PUSH2 0x464 SWAP2 SWAP1 PUSH2 0xDEB JUMP JUMPDEST PUSH2 0x46E SWAP2 SWAP1 PUSH2 0xD61 JUMP JUMPDEST PUSH2 0x478 SWAP2 SWAP1 PUSH2 0xD2D JUMP JUMPDEST DUP2 MLOAD DUP2 LT PUSH2 0x489 JUMPI PUSH2 0x488 PUSH2 0xCCF JUMP JUMPDEST JUMPDEST PUSH1 0x20 MUL PUSH1 0x20 ADD ADD MLOAD PUSH1 0x40 MLOAD PUSH1 0x20 ADD PUSH2 0x4A2 SWAP3 SWAP2 SWAP1 PUSH2 0xE40 JUMP JUMPDEST PUSH1 0x40 MLOAD PUSH1 0x20 DUP2 DUP4 SUB SUB DUP2 MSTORE SWAP1 PUSH1 0x40 MSTORE DUP1 MLOAD SWAP1 PUSH1 0x20 ADD KECCAK256 DUP3 DUP3 DUP2 MLOAD DUP2 LT PUSH2 0x4CB JUMPI PUSH2 0x4CA PUSH2 0xCCF JUMP JUMPDEST JUMPDEST PUSH1 0x20 MUL PUSH1 0x20 ADD ADD DUP2 DUP2 MSTORE POP POP DUP1 DUP1 PUSH2 0x4E2 SWAP1 PUSH2 0xDA3 JUMP JUMPDEST SWAP2 POP POP PUSH2 0x3FE JUMP JUMPDEST POP PUSH1 0x0 DUP6 SWAP1 POP PUSH1 0x0 DUP1 PUSH1 0x0 SWAP1 POP JUMPDEST DUP6 DUP2 LT ISZERO PUSH2 0x5BC JUMPI PUSH1 0x0 PUSH1 0x2 DUP5 PUSH2 0x50F SWAP2 SWAP1 PUSH2 0xE9B JUMP JUMPDEST EQ PUSH2 0x526 JUMPI PUSH1 0x1 DUP4 PUSH2 0x521 SWAP2 SWAP1 PUSH2 0xDEB JUMP JUMPDEST PUSH2 0x534 JUMP JUMPDEST PUSH1 0x1 DUP4 PUSH2 0x533 SWAP2 SWAP1 PUSH2 0xD2D JUMP JUMPDEST JUMPDEST SWAP2 POP DUP4 PUSH1 0x1 DUP1 DUP12 MLOAD DUP7 PUSH2 0x547 SWAP2 SWAP1 PUSH2 0xD2D JUMP JUMPDEST SWAP1 SHR DUP5 PUSH2 0x554 SWAP2 SWAP1 PUSH2 0xD2D JUMP JUMPDEST PUSH2 0x55E SWAP2 SWAP1 PUSH2 0xDEB JUMP JUMPDEST DUP2 MLOAD DUP2 LT PUSH2 0x56F JUMPI PUSH2 0x56E PUSH2 0xCCF JUMP JUMPDEST JUMPDEST PUSH1 0x20 MUL PUSH1 0x20 ADD ADD MLOAD DUP6 DUP3 DUP2 MLOAD DUP2 LT PUSH2 0x58A JUMPI PUSH2 0x589 PUSH2 0xCCF JUMP JUMPDEST JUMPDEST PUSH1 0x20 MUL PUSH1 0x20 ADD ADD DUP2 DUP2 MSTORE POP POP PUSH1 0x1 DUP10 MLOAD DUP5 PUSH2 0x5A5 SWAP2 SWAP1 PUSH2 0xD2D JUMP JUMPDEST SWAP1 SHR SWAP3 POP DUP1 DUP1 PUSH2 0x5B4 SWAP1 PUSH2 0xDA3 JUMP JUMPDEST SWAP2 POP POP PUSH2 0x4F8 JUMP JUMPDEST POP DUP4 SWAP6 POP POP POP POP POP POP SWAP3 SWAP2 POP POP JUMP JUMPDEST PUSH1 0x0 DUP1 DUP3 MLOAD SWAP1 POP PUSH1 0x0 DUP2 PUSH1 0x2 PUSH2 0x5E1 SWAP2 SWAP1 PUSH2 0xD61 JUMP JUMPDEST PUSH8 0xFFFFFFFFFFFFFFFF DUP2 GT ISZERO PUSH2 0x5FA JUMPI PUSH2 0x5F9 PUSH2 0xA01 JUMP JUMPDEST JUMPDEST PUSH1 0x40 MLOAD SWAP1 DUP1 DUP3 MSTORE DUP1 PUSH1 0x20 MUL PUSH1 0x20 ADD DUP3 ADD PUSH1 0x40 MSTORE DUP1 ISZERO PUSH2 0x628 JUMPI DUP2 PUSH1 0x20 ADD PUSH1 0x20 DUP3 MUL DUP1 CALLDATASIZE DUP4 CALLDATACOPY DUP1 DUP3 ADD SWAP2 POP POP SWAP1 POP JUMPDEST POP SWAP1 POP PUSH1 0x0 JUMPDEST DUP3 DUP2 LT ISZERO PUSH2 0x683 JUMPI DUP5 DUP2 DUP2 MLOAD DUP2 LT PUSH2 0x649 JUMPI PUSH2 0x648 PUSH2 0xCCF JUMP JUMPDEST JUMPDEST PUSH1 0x20 MUL PUSH1 0x20 ADD ADD MLOAD DUP3 DUP3 DUP2 MLOAD DUP2 LT PUSH2 0x664 JUMPI PUSH2 0x663 PUSH2 0xCCF JUMP JUMPDEST JUMPDEST PUSH1 0x20 MUL PUSH1 0x20 ADD ADD DUP2 DUP2 MSTORE POP POP DUP1 DUP1 PUSH2 0x67B SWAP1 PUSH2 0xDA3 JUMP JUMPDEST SWAP2 POP POP PUSH2 0x62E JUMP JUMPDEST POP PUSH1 0x0 DUP3 SWAP1 POP JUMPDEST PUSH1 0x1 DUP4 PUSH1 0x2 PUSH2 0x699 SWAP2 SWAP1 PUSH2 0xD61 JUMP JUMPDEST PUSH2 0x6A3 SWAP2 SWAP1 PUSH2 0xDEB JUMP JUMPDEST DUP2 LT ISZERO PUSH2 0x773 JUMPI DUP2 DUP4 PUSH1 0x2 DUP4 PUSH2 0x6B9 SWAP2 SWAP1 PUSH2 0xD61 JUMP JUMPDEST PUSH2 0x6C3 SWAP2 SWAP1 PUSH2 0xDEB JUMP JUMPDEST DUP2 MLOAD DUP2 LT PUSH2 0x6D4 JUMPI PUSH2 0x6D3 PUSH2 0xCCF JUMP JUMPDEST JUMPDEST PUSH1 0x20 MUL PUSH1 0x20 ADD ADD MLOAD DUP3 PUSH1 0x1 DUP6 PUSH1 0x2 DUP6 PUSH2 0x6ED SWAP2 SWAP1 PUSH2 0xD61 JUMP JUMPDEST PUSH2 0x6F7 SWAP2 SWAP1 PUSH2 0xDEB JUMP JUMPDEST PUSH2 0x701 SWAP2 SWAP1 PUSH2 0xD2D JUMP JUMPDEST DUP2 MLOAD DUP2 LT PUSH2 0x712 JUMPI PUSH2 0x711 PUSH2 0xCCF JUMP JUMPDEST JUMPDEST PUSH1 0x20 MUL PUSH1 0x20 ADD ADD MLOAD PUSH1 0x40 MLOAD PUSH1 0x20 ADD PUSH2 0x72B SWAP3 SWAP2 SWAP1 PUSH2 0xE40 JUMP JUMPDEST PUSH1 0x40 MLOAD PUSH1 0x20 DUP2 DUP4 SUB SUB DUP2 MSTORE SWAP1 PUSH1 0x40 MSTORE DUP1 MLOAD SWAP1 PUSH1 0x20 ADD KECCAK256 DUP3 DUP3 DUP2 MLOAD DUP2 LT PUSH2 0x754 JUMPI PUSH2 0x753 PUSH2 0xCCF JUMP JUMPDEST JUMPDEST PUSH1 0x20 MUL PUSH1 0x20 ADD ADD DUP2 DUP2 MSTORE POP POP DUP1 DUP1 PUSH2 0x76B SWAP1 PUSH2 0xDA3 JUMP JUMPDEST SWAP2 POP POP PUSH2 0x68A JUMP JUMPDEST POP DUP1 PUSH1 0x2 DUP4 PUSH1 0x2 PUSH2 0x784 SWAP2 SWAP1 PUSH2 0xD61 JUMP JUMPDEST PUSH2 0x78E SWAP2 SWAP1 PUSH2 0xDEB JUMP JUMPDEST DUP2 MLOAD DUP2 LT PUSH2 0x79F JUMPI PUSH2 0x79E PUSH2 0xCCF JUMP JUMPDEST JUMPDEST PUSH1 0x20 MUL PUSH1 0x20 ADD ADD MLOAD SWAP3 POP POP POP SWAP2 SWAP1 POP JUMP JUMPDEST PUSH1 0x0 DUP3 PUSH2 0x7BD DUP6 DUP5 PUSH2 0x7C7 JUMP JUMPDEST EQ SWAP1 POP SWAP4 SWAP3 POP POP POP JUMP JUMPDEST PUSH1 0x0 DUP1 DUP3 SWAP1 POP PUSH1 0x0 JUMPDEST DUP5 MLOAD DUP2 LT ISZERO PUSH2 0x812 JUMPI PUSH2 0x7FD DUP3 DUP7 DUP4 DUP2 MLOAD DUP2 LT PUSH2 0x7F0 JUMPI PUSH2 0x7EF PUSH2 0xCCF JUMP JUMPDEST JUMPDEST PUSH1 0x20 MUL PUSH1 0x20 ADD ADD MLOAD PUSH2 0x81D JUMP JUMPDEST SWAP2 POP DUP1 DUP1 PUSH2 0x80A SWAP1 PUSH2 0xDA3 JUMP JUMPDEST SWAP2 POP POP PUSH2 0x7D0 JUMP JUMPDEST POP DUP1 SWAP2 POP POP SWAP3 SWAP2 POP POP JUMP JUMPDEST PUSH1 0x0 DUP2 DUP4 LT PUSH2 0x835 JUMPI PUSH2 0x830 DUP3 DUP5 PUSH2 0x848 JUMP JUMPDEST PUSH2 0x840 JUMP JUMPDEST PUSH2 0x83F DUP4 DUP4 PUSH2 0x848 JUMP JUMPDEST JUMPDEST SWAP1 POP SWAP3 SWAP2 POP POP JUMP JUMPDEST PUSH1 0x0 DUP3 PUSH1 0x0 MSTORE DUP2 PUSH1 0x20 MSTORE PUSH1 0x40 PUSH1 0x0 KECCAK256 SWAP1 POP SWAP3 SWAP2 POP POP JUMP JUMPDEST PUSH1 0x0 PUSH1 0x40 MLOAD SWAP1 POP SWAP1 JUMP JUMPDEST PUSH1 0x0 DUP1 REVERT JUMPDEST PUSH1 0x0 DUP1 REVERT JUMPDEST PUSH1 0x0 DUP2 SWAP1 POP SWAP2 SWAP1 POP JUMP JUMPDEST PUSH2 0x886 DUP2 PUSH2 0x873 JUMP JUMPDEST DUP2 EQ PUSH2 0x891 JUMPI PUSH1 0x0 DUP1 REVERT JUMPDEST POP JUMP JUMPDEST PUSH1 0x0 DUP2 CALLDATALOAD SWAP1 POP PUSH2 0x8A3 DUP2 PUSH2 0x87D JUMP JUMPDEST SWAP3 SWAP2 POP POP JUMP JUMPDEST PUSH1 0x0 PUSH1 0x20 DUP3 DUP5 SUB SLT ISZERO PUSH2 0x8BF JUMPI PUSH2 0x8BE PUSH2 0x869 JUMP JUMPDEST JUMPDEST PUSH1 0x0 PUSH2 0x8CD DUP5 DUP3 DUP6 ADD PUSH2 0x894 JUMP JUMPDEST SWAP2 POP POP SWAP3 SWAP2 POP POP JUMP JUMPDEST PUSH1 0x0 DUP2 MLOAD SWAP1 POP SWAP2 SWAP1 POP JUMP JUMPDEST PUSH1 0x0 DUP3 DUP3 MSTORE PUSH1 0x20 DUP3 ADD SWAP1 POP SWAP3 SWAP2 POP POP JUMP JUMPDEST PUSH1 0x0 DUP2 SWAP1 POP PUSH1 0x20 DUP3 ADD SWAP1 POP SWAP2 SWAP1 POP JUMP JUMPDEST PUSH1 0x0 DUP2 SWAP1 POP SWAP2 SWAP1 POP JUMP JUMPDEST PUSH2 0x915 DUP2 PUSH2 0x902 JUMP JUMPDEST DUP3 MSTORE POP POP JUMP JUMPDEST PUSH1 0x0 PUSH2 0x927 DUP4 DUP4 PUSH2 0x90C JUMP JUMPDEST PUSH1 0x20 DUP4 ADD SWAP1 POP SWAP3 SWAP2 POP POP JUMP JUMPDEST PUSH1 0x0 PUSH1 0x20 DUP3 ADD SWAP1 POP SWAP2 SWAP1 POP JUMP JUMPDEST PUSH1 0x0 PUSH2 0x94B DUP3 PUSH2 0x8D6 JUMP JUMPDEST PUSH2 0x955 DUP2 DUP6 PUSH2 0x8E1 JUMP JUMPDEST SWAP4 POP PUSH2 0x960 DUP4 PUSH2 0x8F2 JUMP JUMPDEST DUP1 PUSH1 0x0 JUMPDEST DUP4 DUP2 LT ISZERO PUSH2 0x991 JUMPI DUP2 MLOAD PUSH2 0x978 DUP9 DUP3 PUSH2 0x91B JUMP JUMPDEST SWAP8 POP PUSH2 0x983 DUP4 PUSH2 0x933 JUMP JUMPDEST SWAP3 POP POP PUSH1 0x1 DUP2 ADD SWAP1 POP PUSH2 0x964 JUMP JUMPDEST POP DUP6 SWAP4 POP POP POP POP SWAP3 SWAP2 POP POP JUMP JUMPDEST PUSH2 0x9A7 DUP2 PUSH2 0x902 JUMP JUMPDEST DUP3 MSTORE POP POP JUMP JUMPDEST PUSH1 0x0 PUSH1 0x60 DUP3 ADD SWAP1 POP DUP2 DUP2 SUB PUSH1 0x0 DUP4 ADD MSTORE PUSH2 0x9C7 DUP2 DUP7 PUSH2 0x940 JUMP JUMPDEST SWAP1 POP PUSH2 0x9D6 PUSH1 0x20 DUP4 ADD DUP6 PUSH2 0x99E JUMP JUMPDEST PUSH2 0x9E3 PUSH1 0x40 DUP4 ADD DUP5 PUSH2 0x99E JUMP JUMPDEST SWAP5 SWAP4 POP POP POP POP JUMP JUMPDEST PUSH1 0x0 DUP1 REVERT JUMPDEST PUSH1 0x0 PUSH1 0x1F NOT PUSH1 0x1F DUP4 ADD AND SWAP1 POP SWAP2 SWAP1 POP JUMP JUMPDEST PUSH32 0x4E487B7100000000000000000000000000000000000000000000000000000000 PUSH1 0x0 MSTORE PUSH1 0x41 PUSH1 0x4 MSTORE PUSH1 0x24 PUSH1 0x0 REVERT JUMPDEST PUSH2 0xA39 DUP3 PUSH2 0x9F0 JUMP JUMPDEST DUP2 ADD DUP2 DUP2 LT PUSH8 0xFFFFFFFFFFFFFFFF DUP3 GT OR ISZERO PUSH2 0xA58 JUMPI PUSH2 0xA57 PUSH2 0xA01 JUMP JUMPDEST JUMPDEST DUP1 PUSH1 0x40 MSTORE POP POP POP JUMP JUMPDEST PUSH1 0x0 PUSH2 0xA6B PUSH2 0x85F JUMP JUMPDEST SWAP1 POP PUSH2 0xA77 DUP3 DUP3 PUSH2 0xA30 JUMP JUMPDEST SWAP2 SWAP1 POP JUMP JUMPDEST PUSH1 0x0 PUSH8 0xFFFFFFFFFFFFFFFF DUP3 GT ISZERO PUSH2 0xA97 JUMPI PUSH2 0xA96 PUSH2 0xA01 JUMP JUMPDEST JUMPDEST PUSH1 0x20 DUP3 MUL SWAP1 POP PUSH1 0x20 DUP2 ADD SWAP1 POP SWAP2 SWAP1 POP JUMP JUMPDEST PUSH1 0x0 DUP1 REVERT JUMPDEST PUSH2 0xAB6 DUP2 PUSH2 0x902 JUMP JUMPDEST DUP2 EQ PUSH2 0xAC1 JUMPI PUSH1 0x0 DUP1 REVERT JUMPDEST POP JUMP JUMPDEST PUSH1 0x0 DUP2 CALLDATALOAD SWAP1 POP PUSH2 0xAD3 DUP2 PUSH2 0xAAD JUMP JUMPDEST SWAP3 SWAP2 POP POP JUMP JUMPDEST PUSH1 0x0 PUSH2 0xAEC PUSH2 0xAE7 DUP5 PUSH2 0xA7C JUMP JUMPDEST PUSH2 0xA61 JUMP JUMPDEST SWAP1 POP DUP1 DUP4 DUP3 MSTORE PUSH1 0x20 DUP3 ADD SWAP1 POP PUSH1 0x20 DUP5 MUL DUP4 ADD DUP6 DUP2 GT ISZERO PUSH2 0xB0F JUMPI PUSH2 0xB0E PUSH2 0xAA8 JUMP JUMPDEST JUMPDEST DUP4 JUMPDEST DUP2 DUP2 LT ISZERO PUSH2 0xB38 JUMPI DUP1 PUSH2 0xB24 DUP9 DUP3 PUSH2 0xAC4 JUMP JUMPDEST DUP5 MSTORE PUSH1 0x20 DUP5 ADD SWAP4 POP POP PUSH1 0x20 DUP2 ADD SWAP1 POP PUSH2 0xB11 JUMP JUMPDEST POP POP POP SWAP4 SWAP3 POP POP POP JUMP JUMPDEST PUSH1 0x0 DUP3 PUSH1 0x1F DUP4 ADD SLT PUSH2 0xB57 JUMPI PUSH2 0xB56 PUSH2 0x9EB JUMP JUMPDEST JUMPDEST DUP2 CALLDATALOAD PUSH2 0xB67 DUP5 DUP3 PUSH1 0x20 DUP7 ADD PUSH2 0xAD9 JUMP JUMPDEST SWAP2 POP POP SWAP3 SWAP2 POP POP JUMP JUMPDEST PUSH1 0x0 DUP1 PUSH1 0x0 PUSH1 0x60 DUP5 DUP7 SUB SLT ISZERO PUSH2 0xB89 JUMPI PUSH2 0xB88 PUSH2 0x869 JUMP JUMPDEST JUMPDEST PUSH1 0x0 DUP5 ADD CALLDATALOAD PUSH8 0xFFFFFFFFFFFFFFFF DUP2 GT ISZERO PUSH2 0xBA7 JUMPI PUSH2 0xBA6 PUSH2 0x86E JUMP JUMPDEST JUMPDEST PUSH2 0xBB3 DUP7 DUP3 DUP8 ADD PUSH2 0xB42 JUMP JUMPDEST SWAP4 POP POP PUSH1 0x20 PUSH2 0xBC4 DUP7 DUP3 DUP8 ADD PUSH2 0xAC4 JUMP JUMPDEST SWAP3 POP POP PUSH1 0x40 PUSH2 0xBD5 DUP7 DUP3 DUP8 ADD PUSH2 0xAC4 JUMP JUMPDEST SWAP2 POP POP SWAP3 POP SWAP3 POP SWAP3 JUMP JUMPDEST PUSH1 0x0 DUP2 ISZERO ISZERO SWAP1 POP SWAP2 SWAP1 POP JUMP JUMPDEST PUSH2 0xBF4 DUP2 PUSH2 0xBDF JUMP JUMPDEST DUP3 MSTORE POP POP JUMP JUMPDEST PUSH1 0x0 PUSH1 0x20 DUP3 ADD SWAP1 POP PUSH2 0xC0F PUSH1 0x0 DUP4 ADD DUP5 PUSH2 0xBEB JUMP JUMPDEST SWAP3 SWAP2 POP POP JUMP JUMPDEST PUSH1 0x0 DUP1 PUSH1 0x40 DUP4 DUP6 SUB SLT ISZERO PUSH2 0xC2C JUMPI PUSH2 0xC2B PUSH2 0x869 JUMP JUMPDEST JUMPDEST PUSH1 0x0 DUP4 ADD CALLDATALOAD PUSH8 0xFFFFFFFFFFFFFFFF DUP2 GT ISZERO PUSH2 0xC4A JUMPI PUSH2 0xC49 PUSH2 0x86E JUMP JUMPDEST JUMPDEST PUSH2 0xC56 DUP6 DUP3 DUP7 ADD PUSH2 0xB42 JUMP JUMPDEST SWAP3 POP POP PUSH1 0x20 PUSH2 0xC67 DUP6 DUP3 DUP7 ADD PUSH2 0x894 JUMP JUMPDEST SWAP2 POP POP SWAP3 POP SWAP3 SWAP1 POP JUMP JUMPDEST PUSH1 0x0 PUSH1 0x20 DUP3 ADD SWAP1 POP DUP2 DUP2 SUB PUSH1 0x0 DUP4 ADD MSTORE PUSH2 0xC8B DUP2 DUP5 PUSH2 0x940 JUMP JUMPDEST SWAP1 POP SWAP3 SWAP2 POP POP JUMP JUMPDEST PUSH1 0x0 DUP2 SWAP1 POP SWAP2 SWAP1 POP JUMP JUMPDEST PUSH2 0xCAE PUSH2 0xCA9 DUP3 PUSH2 0x873 JUMP JUMPDEST PUSH2 0xC93 JUMP JUMPDEST DUP3 MSTORE POP POP JUMP JUMPDEST PUSH1 0x0 PUSH2 0xCC0 DUP3 DUP5 PUSH2 0xC9D JUMP JUMPDEST PUSH1 0x20 DUP3 ADD SWAP2 POP DUP2 SWAP1 POP SWAP3 SWAP2 POP POP JUMP JUMPDEST PUSH32 0x4E487B7100000000000000000000000000000000000000000000000000000000 PUSH1 0x0 MSTORE PUSH1 0x32 PUSH1 0x4 MSTORE PUSH1 0x24 PUSH1 0x0 REVERT JUMPDEST PUSH32 0x4E487B7100000000000000000000000000000000000000000000000000000000 PUSH1 0x0 MSTORE PUSH1 0x11 PUSH1 0x4 MSTORE PUSH1 0x24 PUSH1 0x0 REVERT JUMPDEST PUSH1 0x0 PUSH2 0xD38 DUP3 PUSH2 0x873 JUMP JUMPDEST SWAP2 POP PUSH2 0xD43 DUP4 PUSH2 0x873 JUMP JUMPDEST SWAP3 POP DUP3 DUP3 ADD SWAP1 POP DUP1 DUP3 GT ISZERO PUSH2 0xD5B JUMPI PUSH2 0xD5A PUSH2 0xCFE JUMP JUMPDEST JUMPDEST SWAP3 SWAP2 POP POP JUMP JUMPDEST PUSH1 0x0 PUSH2 0xD6C DUP3 PUSH2 0x873 JUMP JUMPDEST SWAP2 POP PUSH2 0xD77 DUP4 PUSH2 0x873 JUMP JUMPDEST SWAP3 POP DUP3 DUP3 MUL PUSH2 0xD85 DUP2 PUSH2 0x873 JUMP JUMPDEST SWAP2 POP DUP3 DUP3 DIV DUP5 EQ DUP4 ISZERO OR PUSH2 0xD9C JUMPI PUSH2 0xD9B PUSH2 0xCFE JUMP JUMPDEST JUMPDEST POP SWAP3 SWAP2 POP POP JUMP JUMPDEST PUSH1 0x0 PUSH2 0xDAE DUP3 PUSH2 0x873 JUMP JUMPDEST SWAP2 POP PUSH32 0xFFFFFFFFFFFFFFFFFFFFFFFFFFFFFFFFFFFFFFFFFFFFFFFFFFFFFFFFFFFFFFFF DUP3 SUB PUSH2 0xDE0 JUMPI PUSH2 0xDDF PUSH2 0xCFE JUMP JUMPDEST JUMPDEST PUSH1 0x1 DUP3 ADD SWAP1 POP SWAP2 SWAP1 POP JUMP JUMPDEST PUSH1 0x0 PUSH2 0xDF6 DUP3 PUSH2 0x873 JUMP JUMPDEST SWAP2 POP PUSH2 0xE01 DUP4 PUSH2 0x873 JUMP JUMPDEST SWAP3 POP DUP3 DUP3 SUB SWAP1 POP DUP2 DUP2 GT ISZERO PUSH2 0xE19 JUMPI PUSH2 0xE18 PUSH2 0xCFE JUMP JUMPDEST JUMPDEST SWAP3 SWAP2 POP POP JUMP JUMPDEST PUSH1 0x0 DUP2 SWAP1 POP SWAP2 SWAP1 POP JUMP JUMPDEST PUSH2 0xE3A PUSH2 0xE35 DUP3 PUSH2 0x902 JUMP JUMPDEST PUSH2 0xE1F JUMP JUMPDEST DUP3 MSTORE POP POP JUMP JUMPDEST PUSH1 0x0 PUSH2 0xE4C DUP3 DUP6 PUSH2 0xE29 JUMP JUMPDEST PUSH1 0x20 DUP3 ADD SWAP2 POP PUSH2 0xE5C DUP3 DUP5 PUSH2 0xE29 JUMP JUMPDEST PUSH1 0x20 DUP3 ADD SWAP2 POP DUP2 SWAP1 POP SWAP4 SWAP3 POP POP POP JUMP JUMPDEST PUSH32 0x4E487B7100000000000000000000000000000000000000000000000000000000 PUSH1 0x0 MSTORE PUSH1 0x12 PUSH1 0x4 MSTORE PUSH1 0x24 PUSH1 0x0 REVERT JUMPDEST PUSH1 0x0 PUSH2 0xEA6 DUP3 PUSH2 0x873 JUMP JUMPDEST SWAP2 POP PUSH2 0xEB1 DUP4 PUSH2 0x873 JUMP JUMPDEST SWAP3 POP DUP3 PUSH2 0xEC1 JUMPI PUSH2 0xEC0 PUSH2 0xE6C JUMP JUMPDEST JUMPDEST DUP3 DUP3 MOD SWAP1 POP SWAP3 SWAP2 POP POP JUMP INVALID LOG2 PUSH5 0x6970667358 0x22 SLT KECCAK256 SWAP13 PC 0xEE PUSH19 0x4F1337D6A3B5B014DCEEB3350031AD6F7AF1F2 DUP11 0x25 0xDC PC ADDRESS 0xD4 NUMBER 0x4D 0xE5 PUSH5 0x736F6C6343 STOP ADDMOD SGT STOP CALLER "
		},
		"gasEstimates": {
			"creation": {
				"codeDepositCost": "768400",
				"executionCost": "805",
				"totalCost": "769205"
			},
			"external": {
				"example(uint256)": "infinite",
				"generateMerkleProof(bytes32[],uint256)": "infinite",
				"verifyProof(bytes32[],bytes32,bytes32)": "infinite"
			},
			"internal": {
				"generateMerkleRoot(bytes32[] memory)": "infinite"
			}
		},
		"methodIdentifiers": {
			"example(uint256)": "477e4a02",
			"generateMerkleProof(bytes32[],uint256)": "d6da100e",
			"verifyProof(bytes32[],bytes32,bytes32)": "4bc935d7"
		}
	},
	"abi": [
		{
			"inputs": [
				{
					"internalType": "uint256",
					"name": "index",
					"type": "uint256"
				}
			],
			"name": "example",
			"outputs": [
				{
					"internalType": "bytes32[]",
					"name": "",
					"type": "bytes32[]"
				},
				{
					"internalType": "bytes32",
					"name": "",
					"type": "bytes32"
				},
				{
					"internalType": "bytes32",
					"name": "",
					"type": "bytes32"
				}
			],
			"stateMutability": "pure",
			"type": "function"
		},
		{
			"inputs": [
				{
					"internalType": "bytes32[]",
					"name": "leaves",
					"type": "bytes32[]"
				},
				{
					"internalType": "uint256",
					"name": "index",
					"type": "uint256"
				}
			],
			"name": "generateMerkleProof",
			"outputs": [
				{
					"internalType": "bytes32[]",
					"name": "",
					"type": "bytes32[]"
				}
			],
			"stateMutability": "pure",
			"type": "function"
		},
		{
			"inputs": [
				{
					"internalType": "bytes32[]",
					"name": "proof",
					"type": "bytes32[]"
				},
				{
					"internalType": "bytes32",
					"name": "root",
					"type": "bytes32"
				},
				{
					"internalType": "bytes32",
					"name": "leaf",
					"type": "bytes32"
				}
			],
			"name": "verifyProof",
			"outputs": [
				{
					"internalType": "bool",
					"name": "",
					"type": "bool"
				}
			],
			"stateMutability": "pure",
			"type": "function"
		}
	]
}